ARM GAS  C:\Users\AMANRA~1\AppData\Local\Temp\ccrpPkep.s 			page 1


   1              		.cpu cortex-m4
   2              		.eabi_attribute 27, 1
   3              		.eabi_attribute 28, 1
   4              		.eabi_attribute 20, 1
   5              		.eabi_attribute 21, 1
   6              		.eabi_attribute 23, 3
   7              		.eabi_attribute 24, 1
   8              		.eabi_attribute 25, 1
   9              		.eabi_attribute 26, 1
  10              		.eabi_attribute 30, 2
  11              		.eabi_attribute 34, 1
  12              		.eabi_attribute 18, 4
  13              		.file	"hal_pal.c"
  14              		.section	.gnu.lto_.profile.4b6a8cd5,"",%progbits
  15 0000 789C6363 		.ascii	"x\234cc```\001bF\006\015\031\000\000\344\000P"
  15      60606001 
  15      6246060D 
  15      190000E4 
  15      0050
  16              		.text
  17              		.section	.gnu.lto_.icf.4b6a8cd5,"",%progbits
  18 0000 789C6363 		.ascii	"x\234cc``\020a@\000f\206Og\347^\347g|\374u\353$^\246"
  18      60601061 
  18      40006686 
  18      4F67E75E 
  18      E7677CFC 
  19 0019 3F076EFF 		.ascii	"?\007n\377\343b\000\000k\230\012."
  19      E3620000 
  19      6B980A2E 
  20              		.text
  21              		.section	.gnu.lto_.jmpfuncs.4b6a8cd5,"",%progbits
  22 0000 789C6363 		.ascii	"x\234cc``hf@\000f\006FF\306\3729@\212\211\221\221\031"
  22      60606866 
  22      40006606 
  22      4646C6FA 
  22      39408A89 
  23 0017 C4006246 		.ascii	"\304\000bF&\030\207q\0163\023\033\003\003\343\001\026"
  23      26188771 
  23      0E33131B 
  23      0303E301 
  23      16
  24 0028 460620FE 		.ascii	"F\006 \376\017\004\374\014h|F\306)\314\214\323Z\017"
  24      0F04FC0C 
  24      687C46C6 
  24      29CC8CD3 
  24      5A0F
  25 003a 9D67EF66 		.ascii	"\235g\357f\006\352ed`\334\314(\003\024z\275g\303\015"
  25      06EA6564 
  25      60DCCC28 
  25      03147ABD 
  25      67C30D
  26 004d 56881044 		.ascii	"V\210\020D\335\026F\031\246JF\014\323\000\214y&%"
  26      DD164619 
  26      A64A460C 
  26      D3008C79 
  26      2625
  27              		.text
ARM GAS  C:\Users\AMANRA~1\AppData\Local\Temp\ccrpPkep.s 			page 2


  28              		.section	.gnu.lto_.inline.4b6a8cd5,"",%progbits
  29 0000 789C6363 		.ascii	"x\234cc``\370\316\200\000\314\014\014\234\034\214\314"
  29      6060F8CE 
  29      8000CC0C 
  29      0C9C1C8C 
  29      CC
  30 0011 0C0A8C20 		.ascii	"\014\012\214 &\210t\000\223\012\034l\037\364\030\330"
  30      26887400 
  30      930A1C6C 
  30      1FF418D8 
  31 0021 16C83331 		.ascii	"\026\310310\276`g\201\220 \202\003\314\344\000\021\002"
  31      30BE6067 
  31      81902082 
  31      03CCE400 
  31      1102
  32 0033 60A600C8 		.ascii	"`\246\000\310\030F\006>^F\026F\240N\210!\012HF1p3]\340"
  32      1846063E 
  32      5E461646 
  32      A04E8821 
  32      0A484631 
  33 004b 87180564 		.ascii	"\207\030\005d\240\030\302\262@\236\007j\022\363\016"
  33      A018C2B2 
  33      409E076A 
  33      12F30E
  34 005a 710106A0 		.ascii	"q\001\006\240\2352 \276\002X^\001d2\023\003\2670\212"
  34      9D3220BE 
  34      02585E01 
  34      64321303 
  34      B7308A
  35 006d FBA04673 		.ascii	"\373\240Fs\002\345\210s\036\320R\011\220I,\274@\357"
  35      02E58873 
  35      1ED05209 
  35      90492CBC 
  35      40EF
  36 007f 4EF00341 		.ascii	"N\360\003A\006\000\373F \246"
  36      0600FB46 
  36      20A6
  37              		.text
  38              		.section	.gnu.lto_.pureconst.4b6a8cd5,"",%progbits
  39 0000 789C6363 		.ascii	"x\234cc```\007bf\006)F)&I\000\001\274\000a"
  39      60606007 
  39      62660629 
  39      46292649 
  39      0001BC00 
  40              		.text
  41              		.section	.gnu.lto_palReadBus.4b6a8cd5,"",%progbits
  42 0000 789C9591 		.ascii	"x\234\225\221\317K[A\020\307\347\373\346e\363\322\032"
  42      CF4B5B41 
  42      10C7E7FB 
  42      E665F3D2 
  42      1A
  43 0011 FF817AC8 		.ascii	"\377\201z\310A\010\026\232W\217\376\003\3757DsQ\020"
  43      4108169A 
  43      578FFE03 
  43      FD374473 
  43      5110
  44 0023 2C06A137 		.ascii	",\006\24177\361G-\266 R\025\302\253\344\240\010\202"
ARM GAS  C:\Users\AMANRA~1\AppData\Local\Temp\ccrpPkep.s 			page 3


  44      37F1472D 
  44      B6205215 
  44      C2ABE4A0 
  44      0882
  45 0035 B4626A34 		.ascii	"\264bj4U\373\232\2027\333\332Ci\301S=Y\212\264\245G"
  45      55FB9A82 
  45      37DBDA43 
  45      69C1533D 
  45      598AB4A5 
  46 004a B19DD928 		.ascii	"\261\235\331(\344\340Exovfw\3463\337\3315D\364\310#"
  46      E4E04578 
  46      6F766677 
  46      E633DFD9 
  46      3544F4C8 
  47 005f BA27EB1D 		.ascii	"\272'\353\035\371\301\004o\366\003Q1\360\000ul\000\032"
  47      F9C1046F 
  47      F6035131 
  47      F000756C 
  47      001A
  48 0071 F33086A7 		.ascii	"\3630\206\247\374\234q4\361*\342\031\216$\315\227\360"
  48      FC9C7134 
  48      F12AE219 
  48      8E24CD97 
  48      F0
  49 0082 F761F9A4 		.ascii	"\367a\371\244]C #\341\317\263\203j[\327\252\265%\033"
  49      5D432023 
  49      E1CFB383 
  49      6A5BD7AA 
  49      B5251B
  50 0095 2FCE99A5 		.ascii	"/\316\231\245\352'\233\212\330\243\005I\257\242\003"
  50      EA279B8A 
  50      D8A30549 
  50      AFA203
  51 00a4 9BE8D01E 		.ascii	"\233\350\320\036\257\321%\311\223G\213S\314wA\342\177"
  51      AFD125C9 
  51      93478B53 
  51      CC7741E2 
  51      7F
  52 00b5 FBB576DC 		.ascii	"\373\265v\334\236]q\205\177\227\331vF\314\330\002\267"
  52      9E5D7185 
  52      7F97D976 
  52      46CCD802 
  52      B7
  53 00c6 16CA16A1 		.ascii	"\026\312\026\241\206\254\346\177\337\270\230O\033\277"
  53      86ACE67F 
  53      DFB8984F 
  53      1BBF
  54 00d4 C2A46C41 		.ascii	"\302\244lAn\303\020\304y\3719\021\333\213\177\217m|"
  54      6EC310C4 
  54      79F93911 
  54      DB8B7F8F 
  54      6D7C
  55 00e6 BC82170F 		.ascii	"\274\202\027\017R\236\224\371,&\341\2131\011\365\214"
  55      529E94F9 
  55      2C26E18B 
  55      3109F58C 
  56 00f6 9A249415 		.ascii	"\232$\224\025\220\312\243ia\310\2546\246'\022\2127\036"
ARM GAS  C:\Users\AMANRA~1\AppData\Local\Temp\ccrpPkep.s 			page 4


  56      90CAA369 
  56      61C8AC36 
  56      A627128A 
  56      371E
  57 0108 D30F94EA 		.ascii	"\323\017\224\352\247\317\336\033E\227\331\223\246\013"
  57      A7CFDE1B 
  57      4597D993 
  57      A60B
  58 0116 938D8F49 		.ascii	"\223\215\217I\035\226\235\346\335\306\341\201\251`\251"
  58      1D969DE6 
  58      DDC6E181 
  58      A960A9
  59 0125 68ADCD44 		.ascii	"h\255\315D\234,s\022;:\240\336\313\314\334W\204\353"
  59      9C2C7312 
  59      3B3AA0DE 
  59      CBCCDC57 
  59      84EB
  60 0137 76D61D05 		.ascii	"v\326\035\005\250\243\202y\025Jx\203P\330\215z\252\011"
  60      A8A38279 
  60      154A7883 
  60      50D88D7A 
  60      AA09
  61 0149 E65670EA 		.ascii	"\346Vp\352:\360-\351\216\335K\360\227Z\275\226\026\360"
  61      3AF02DE9 
  61      8EDD4BF0 
  61      975ABD96 
  61      16F0
  62 015b 44518F6E 		.ascii	"DQ\217nc\317\201ur\354;p\351\012\354\337Hb\033\336:"
  62      63CF8175 
  62      72EC3B70 
  62      E90AECDF 
  62      48621BDE 
  63 0170 92A7A4D8 		.ascii	"\222\247\244\330\221\306\377L\241\211J\210L\001\266"
  63      91C6FF4C 
  63      A1894A88 
  63      4C01B6
  64 017f D2CD8DE8 		.ascii	"\322\315\215\350i\274st\367T\215&\375\374\212\036\270"
  64      69BC7374 
  64      F7548D26 
  64      FDFC8A1E 
  64      B8
  65 0190 0686CE50 		.ascii	"\006\206\316P\312\\\356\350EM\313T\362\022\"(\233\313"
  65      CA5CEEE8 
  65      454DCB54 
  65      F2122228 
  65      9BCB
  66 01a2 85F2E507 		.ascii	"\205\362\345\007\006\373\007\207\013\335=\335\367\303"
  66      06FB0787 
  66      0BDD3DDD 
  66      F7C3
  67 01b0 E14238D0 		.ascii	"\341B8\3207\024\026F\362\272\366>\354\033\312\345\211"
  67      37141646 
  67      F2BAF63E 
  67      EC1BCAE5 
  67      89
  68 01c1 FB470BFF 		.ascii	"\373G\013\377\001\375\027\317\315"
  68      01FD17CF 
ARM GAS  C:\Users\AMANRA~1\AppData\Local\Temp\ccrpPkep.s 			page 5


  68      CD
  69              		.text
  70              		.section	.gnu.lto_palWriteBus.4b6a8cd5,"",%progbits
  71 0000 789C9552 		.ascii	"x\234\225R\337KTQ\020>\337\235\273w\177\270\273\332"
  71      DF4B5451 
  71      103EDF9D 
  71      BB777FB8 
  71      BBDA
  72 0012 5BA00F3E 		.ascii	"[\240\017>$\213=\354M\352\245\277&\334}qA0\332\242G"
  72      248B3DEC 
  72      4DEAA5BF 
  72      26DC7D71 
  72      4130DAA2 
  73 0027 AFABAE85 		.ascii	"\257\253\256\205\005\022\271\302\266\312\242\264F\020"
  73      0512B9C2 
  73      B6CAA2B4 
  73      4610
  74 0035 19FDD874 		.ascii	"\031\375\330t\315n[i\201\226\372 \025AP\340CP\031H\364"
  74      CD6E5B69 
  74      8196FA20 
  74      154150E0 
  74      43501948 
  75 004a 206B3367 		.ascii	" k3g\335\\\243\027\017\367\31693g\346\233o\316\214\245"
  75      DD5CA317 
  75      0FF7CE39 
  75      3367E69B 
  75      6FCE8CA5 
  76 005e 942A9152 		.ascii	"\224*\221R\247xo\346\037\244`\214\274Q\252\317g\000"
  76      A7786FE6 
  76      1FA4608C 
  76      BC51AACF 
  76      6700
  77 0070 72707C50 		.ascii	"rp|P\275\006zq\205\256\023\312C\233\263F\373\264\303"
  77      BD067A71 
  77      85AE13CA 
  77      439BB346 
  77      FBB4C3
  78 0083 CB1DDBB6 		.ascii	"\313\035\333\266\322\316\340\321\034\207g\370\227\205"
  78      D2CEE0D1 
  78      1C8767F8 
  78      9785
  79 0091 FB6867AF 		.ascii	"\373hg\257\265\201\231\034\015S\216\000\223\325\237"
  79      B581991C 
  79      0D538E00 
  79      93D59F
  80 00a0 2BD92F61 		.ascii	"+\331/aQ\015\264\262:\2706\226&:\016\305\347\367[\267"
  80      510DB4B2 
  80      3AB83696 
  80      263A0EC5 
  80      E7F75BB7 
  81 00b4 3F862337 		.ascii	"?\206#7\035'\345\270;S\344\034\313\021\341\021\210\001"
  81      1D27E5B8 
  81      3B53E41C 
  81      CB11E111 
  81      8801
  82 00c6 F1102D78 		.ascii	"\361\020-x\200\026\305&\205\"\"\354>^\231\\j\240\250"
  82      8016C526 
ARM GAS  C:\Users\AMANRA~1\AppData\Local\Temp\ccrpPkep.s 			page 6


  82      852222EC 
  82      3E5E995C 
  82      6AA0A8
  83 00d9 0E2D2CE4 		.ascii	"\016-,\344\342{\221\313\005\035i\342\361\277\221\246"
  83      E27B91CB 
  83      051D69E2 
  83      F1BF91A6 
  84 00e9 C22C22E2 		.ascii	"\302,\"\342\376\371^e4d\231\371\032[\314\301\2020X\235"
  84      FEF95E65 
  84      346499F9 
  84      1A5BCCC1 
  84      8230589D 
  85 00fd 190ED349 		.ascii	"\031\016\323I\015\371a\2650\035j\233\322\230\277nXY"
  85      0DF961B5 
  85      301D6A9B 
  85      D298BF6E 
  85      5859
  86 010f C71D68CD 		.ascii	"\307\035h\315\221\007\245\203\260\262\366\0211\2176"
  86      9107A583 
  86      B0B2F611 
  86      318F36
  87 011e 8DC6984F 		.ascii	"\215\306\230O\030\22371\335]\367\270New\310q7\232\177"
  87      18933731 
  87      DD5DF7B8 
  87      4E6577C8 
  87      71379A7F 
  88 0132 6C7F3AD2 		.ascii	"l\177:\322\010\010\025\203IY$\302\024\341a\341\265D"
  88      08081583 
  88      495924C2 
  88      14E161E1 
  88      B544
  89 0144 7845F589 		.ascii	"xE\365\211\360\213\010\260\360\005!u\207\224N\241.1"
  89      F08B08B0 
  89      F0052175 
  89      87944EA1 
  89      2E31
  90 0156 6DEE88E3 		.ascii	"m\356\210\343\252\313d\310\251\337U_\221\252\244\277"
  90      AACB64C8 
  90      A9DF555F 
  90      91AAA4BF 
  91 0166 15839239 		.ascii	"\025\203\2229KF\226 \2469\177U\227\216e\006\313o\275"
  91      4B469620 
  91      A6397F55 
  91      978E6506 
  91      CB6FBD
  92 0179 F2F8A44B 		.ascii	"\362\370\244K\234/\257,ZyL\364q\007\2716\177\226\202"
  92      9C2FAF2C 
  92      5A794CF4 
  92      7107B936 
  92      7F9682
  93 018c 58909AA4 		.ascii	"X\220\232\244O\303\327\336\301\276\343\214\350\253\000"
  93      4FC3D7DE 
  93      C1BEE38C 
  93      E8AB00
  94 019b 9E228F51 		.ascii	"\236\"\217Q\335Y\270\260\031\270\177'\215*\262\251\223"
  94      DD59B8B0 
  94      19B87F27 
ARM GAS  C:\Users\AMANRA~1\AppData\Local\Temp\ccrpPkep.s 			page 7


  94      8D2AB2A9 
  94      93
  95 01ac 517D32CF 		.ascii	"Q}2\317\241\320\033\360L\243C\320\313U\364L\015}\017"
  95      A1D01BF0 
  95      4CA343D0 
  95      CB55F44C 
  95      0D7D0F
  96 01bf 6D7D6B79 		.ascii	"m}ky\274A\250{\321\204\347\014\303>[5\037\257&a\035"
  96      BC41A87B 
  96      D184E70C 
  96      C33E5B35 
  96      1FAF2661 
  97 01d4 60E5E3FA 		.ascii	"`\345\343\372\253\254\366\375\374\332\354\021\333\357"
  97      ABACF6FD 
  97      FCDAEC11 
  97      DBEF
  98 01e2 9A2DA4C3 		.ascii	"\232-\244\303\375j\023\251V\3353~_\266\326W\0238T5A"
  98      FD6A13A9 
  98      56DD337E 
  98      5FB6D657 
  98      13385435 
  99 01f7 BCD0D518 		.ascii	"\274\320\325\030R\315K]M9\243\221\352;\020\372_\007"
  99      52CD4B5D 
  99      4D39A391 
  99      EA3B10FA 
  99      5F07
 100 0209 C29C0B8B 		.ascii	"\302\234\013\213{\250\033\305\271b\210Q\007\372\344"
 100      7BA81BC5 
 100      B9628851 
 100      07FAE4
 101 0218 AA114B1A 		.ascii	"\252\021K\032\225\252\363V\232\230\274\205\277\227M"
 101      95AAF356 
 101      9A98BC85 
 101      BF974D
 102 0227 78057B94 		.ascii	"x\005{\224\007\2343\276\206-\364\277#\225\337\275\212"
 102      079C33BE 
 102      862DF4BF 
 102      2395DFBD 
 102      8A
 103 0238 EA2C2A19 		.ascii	"\352,*\031\030\310\2300\251H4j\363\027\357J\304\022"
 103      18C89830 
 103      A948346A 
 103      F317EF4A 
 103      C412
 104 024a 3DC98ED3 		.ascii	"=\311\216\323\035'\354\236\244\335\325\331m'\317\305"
 104      1D27EC9E 
 104      A4DDD5D9 
 104      6D27CFC5 
 105 025a 653F73B6 		.ascii	"e?s\266\263;\032W\024\273\2204c\211\363I\\\374\003\260"
 105      B33B1A57 
 105      14BB9034 
 105      6389F349 
 105      5CFC03B0 
 106 026e 602E51   		.ascii	"`.Q"
 107              		.text
 108              		.section	.gnu.lto_palSetBusMode.4b6a8cd5,"",%progbits
 109 0000 789C9592 		.ascii	"x\234\225\222\317O\023A\024\307\337w\336v\267\005\341"
ARM GAS  C:\Users\AMANRA~1\AppData\Local\Temp\ccrpPkep.s 			page 8


 109      CF4F1341 
 109      14C7DF77 
 109      DE76B705 
 109      E1
 110 0011 6C22871E 		.ascii	"l\"\207\036L\0328t\305\033\177\201\177\006\201j\002"
 110      4C1A3874 
 110      C51B7F81 
 110      7F06816A 
 110      02
 111 0022 065363C3 		.ascii	"\006Sc\303\271C\241\005\203\011D\240$eCz\260\232\230"
 111      B943A105 
 111      830944A0 
 111      2465437A 
 111      B09A98
 112 0035 1835FC2C 		.ascii	"\0305\374,\240,=x\022\015\2340\012\007IH4\225@\270\""
 112      A02C3D78 
 112      120D9C30 
 112      0A074948 
 112      349540B8 
 113 004a FA66C003 		.ascii	"\372f\300\003\336\230\354\314\274\331y\337\317|\347"
 113      DE98ECCC 
 113      BCD979DF 
 113      CF7CE7
 114 0059 655C22BA 		.ascii	"e\\\"\272\257\210n\313|C:\230\240\306?\021\015D\025"
 114      AF886ECB 
 114      7C433A98 
 114      A0C63F11 
 114      0D4415
 115 006c 60021D05 		.ascii	"`\002\035\005e\025\262x\302\223\214\332\360AU\265\276"
 115      6515B278 
 115      C2938CDA 
 115      F04155B5 
 115      BE
 116 007d D0D2C2E9 		.ascii	"\320\322\302\351m\257\240\363\327\003&*J7\015sh\225"
 116      6DAFA0F3 
 116      D703262A 
 116      4A370D73 
 116      6895
 117 008f ACADA137 		.ascii	"\254\255\2417\001\217r\300\200#\313\343\315\322~\263"
 117      018F72C0 
 117      8023CBE3 
 117      CDD27EB3 
 118 009f 592AC465 		.ascii	"Y*\304e\231\337\232.0\267\201$\376r\364\362[s\242\242"
 118      99DF9A2E 
 118      30B78124 
 118      FE72F4F2 
 118      5B73A2A2 
 119 00b3 754E871F 		.ascii	"uN\207\037\237\261\276\0310c\021,@,\240\005\363h!\371"
 119      9FB1BE19 
 119      3063112C 
 119      402CA005 
 119      F36821F9 
 120 00c7 45584242 		.ascii	"EXBB\322O\346*\023\215\234\264\322\275\303\371\231\206"
 120      D24FE62A 
 120      138D9CB4 
 120      D2BDC3F9 
 120      9986
ARM GAS  C:\Users\AMANRA~1\AppData\Local\Temp\ccrpPkep.s 			page 9


 121 00d9 0BE969C5 		.ascii	"\013\351i\305J\035,\377/u\010U$L\376\367\267gSM\256"
 121      4A1D2CFF 
 121      2F750855 
 121      244CFEF7 
 121      B767534D 
 122 00ee 53FE6717 		.ascii	"S\376g\027+p\011\022\274\336\216\204\372\354\317\260"
 122      2B700912 
 122      BCDE8E84 
 122      FAECCFB0 
 123 00fe 0EEBCFB1 		.ascii	"\016\353\317\261{'\246D\026a\031\\G\006/b\"\027\306"
 123      7B27A644 
 123      1661195C 
 123      47062F62 
 123      2217C6
 124 0111 81070BA3 		.ascii	"\201\007\013\243\021\321KmtH\217Y\231h0\244\237\310"
 124      11D14B6D 
 124      74488F59 
 124      996830A4 
 124      9FC8
 125 0123 ADFCF895 		.ascii	"\255\374\370\2252\324\022+9\257\230\257}\366\314\255"
 125      32D4122B 
 125      39AF98AF 
 125      7DF6CCAD 
 126 0133 D9DA5DAB 		.ascii	"\331\332]\253m~p\313\230\035\220\322\305\003\216\226"
 126      6D7E70CB 
 126      981D90D2 
 126      C5038E96 
 127 0143 D8C5AA58 		.ascii	"\330\305\252X4{\307\243Ow\340\277\322\343v+\2065\224"
 127      347BC7A3 
 127      4F77E0BF 
 127      D2E3762B 
 127      863594
 128 0156 31654B8A 		.ascii	"1eK\212w\360-:v\016\346+\221\032\360\336\222\314-\261"
 128      77F02D3A 
 128      760EE62B 
 128      911AF0DE 
 128      92CC2DB1 
 129 016a 7E99E45C 		.ascii	"~\231\344\\\211\324\210\320\222\224!mX\322\340Q\001"
 129      89D488D0 
 129      9294216D 
 129      58D2E051 
 129      01
 130 017b E7A888F8 		.ascii	"\347\250\210\370\022 \325Q\210\333\252\212\274Z\255"
 130      1220D551 
 130      88DBAA8A 
 130      BC5AAD
 131 018a 7FF5B2BF 		.ascii	"\177\365\262\277u4\340kEc\0005dI*c\323\275\200\233\350"
 131      7534E06B 
 131      45630035 
 131      64492A63 
 131      D3BD809B 
 132 019f 10B9F2EA 		.ascii	"\020\271\362\352\230e\330\3073\"iRK9\"\221L\372\362"
 132      9865D8C7 
 132      33226952 
 132      4B392291 
 132      4CFAF2
 133 01b2 A57A7ABB 		.ascii	"\245zz\273{\323\231\366\216\366[~:\343\367t\365\371"
ARM GAS  C:\Users\AMANRA~1\AppData\Local\Temp\ccrpPkep.s 			page 10


 133      7BD399F6 
 133      8EF65B7E 
 133      3AE3F774 
 133      F5F9
 134 01c4 99472933 		.ascii	"\231G)3w>\354\352K\246\210\273\3733\316\203\364\335"
 134      773EECEA 
 134      4BA688BB 
 134      FB33CE83 
 134      F4DD
 135 01d6 7B7F01CF 		.ascii	"{\177\001\317\301\315\326"
 135      C1CDD6
 136              		.text
 137              		.section	.gnu.lto_.symbol_nodes.4b6a8cd5,"",%progbits
 138 0000 789C6363 		.ascii	"x\234cc``\010\004b\006\246\023L\365\014\014\023\316"
 138      60600804 
 138      6206A613 
 138      4CF50C0C 
 138      13CE
 139 0012 313000A9 		.ascii	"10\000\251]\015\216@\221\223L\365\214\250\"\247\230"
 139      5D0D8E40 
 139      91934CF5 
 139      8CA822A7 
 139      98
 140 0023 EA995044 		.ascii	"\352\231PD\030\3172\3253\203E\030\030\032\032\034\030"
 140      18CF32D5 
 140      33834518 
 140      181A1A1C 
 140      18
 141 0034 18989998 		.ascii	"\030\230\231\230\031\226<\374\307\310\000\000d~\024"
 141      19963CFC 
 141      C7C80000 
 141      647E14
 142 0043 C3       		.ascii	"\303"
 143              		.text
 144              		.section	.gnu.lto_.refs.4b6a8cd5,"",%progbits
 145 0000 789C6363 		.ascii	"x\234cc```\004b\006\000\000D\000\010"
 145      60606004 
 145      62060000 
 145      440008
 146              		.text
 147              		.section	.gnu.lto_.decls.4b6a8cd5,"",%progbits
 148 0000 789CAD58 		.ascii	"x\234\255X{P\024G\032\237\236\336\205eY\300\003\357"
 148      7B501447 
 148      1A9F9EDE 
 148      856559C0 
 148      03EF
 149 0012 CABB5016 		.ascii	"\312\273P\026\225\020\335\273$ \352]\342U\222\312C/"
 149      9510DDBB 
 149      2420EA5D 
 149      E25592CA 
 149      432F
 150 0024 C99D393C 		.ascii	"\311\2359<L.e\035\225\015\302\252\324\001\353\261\313"
 150      4C2E651D 
 150      950DC2AA 
 150      D401EBB1 
 150      CB
 151 0035 55E5AF1B 		.ascii	"U\345\257\033XD\214F\301\370@0\001EQ|\200&\310C\024"
ARM GAS  C:\Users\AMANRA~1\AppData\Local\Temp\ccrpPkep.s 			page 11


 151      58448C46 
 151      C1F84030 
 151      0145517C 
 151      8026C843 
 152 004a 70414110 		.ascii	"pAA\020E|\202\017 F >\010\017\203\362\020\356\353\356"
 152      457C820F 
 152      2046203E 
 152      080F83F2 
 152      10EEEBEE 
 153 005e 999D6165 		.ascii	"\231\235ae\222\334U\246\350\355\351\236\357\373~\277"
 153      92DC55A6 
 153      E8EDE99E 
 153      EFFB7EBF 
 154 006e EFEBEFEB 		.ascii	"\357\353\357\353\236\301\215\343\270\373~\034\3677\314"
 154      9EC18DE3 
 154      B8FB7E1C 
 154      F737CC
 155 007d 713988E3 		.ascii	"q9\210\343\306\341\322\300\334\011h0\305M\2019\007\364"
 155      C6E1D2C0 
 155      DC096830 
 155      C54D8139 
 155      07F4
 156 008f BED0938B 		.ascii	"\276\320\223\213<\3735\334O\207\366\014\264\337\212"
 156      3CFB35DC 
 156      4F87F60C 
 156      B4DF8A
 157 009e F3CA6B0E 		.ascii	"\363\312k\016\317q\336D\007\332T\216\351\023;#\320\317"
 157      CF71DE44 
 157      07DA548E 
 157      E9133B23 
 157      D0CF
 158 00b0 84B6049A 		.ascii	"\204\266\004\232\017\214\177\007\3559h\3030\256\205"
 158      0F8C7F07 
 158      ED3968C3 
 158      30AE85
 159 00bf F63CDCBF 		.ascii	"\366<\334\277\200\030\206;\364=\320\353\241\367\204"
 159      8018863B 
 159      F43DD0EB 
 159      A1F784
 160 00ce 86445CD2 		.ascii	"\206D\\\322\277\354\202\371\012\340\375\002\372\217"
 160      BFEC82F9 
 160      0AE0FD02 
 160      FA8F
 161 00dc 149812EF 		.ascii	"\024\230\022\357J\005\346\210\210K0\236w\301\357\020"
 161      4A05E688 
 161      884B309E 
 161      77C1EF10 
 162 00ec 39683986 		.ascii	"9h9\206Gp\011\207\2070\276\3011\334\351\"\376\353.\370"
 162      47700987 
 162      8730BEC1 
 162      31DCE922 
 162      FEEB2EF8 
 163 0100 6F89FEBA 		.ascii	"o\211\376\272\342\373\252\370,\341\277\001\315\210X"
 163      E2FBAAF8 
 163      2CE1BF01 
 163      CD8858
 164 010f 9CDD918C 		.ascii	"\234\335\221\214\013\346\234\261%P\177v\301\333\204"
ARM GAS  C:\Users\AMANRA~1\AppData\Local\Temp\ccrpPkep.s 			page 12


 164      0BE69CB1 
 164      25507F76 
 164      C1DB84
 165 011e D1F9E443 		.ascii	"\321\371\344C\333\361Z\214|\365H\003\303\276\306\314"
 165      DBF15A8C 
 165      7CF54803 
 165      C3BEC6CC 
 166 012e 5BDE309C 		.ascii	"[\3360\234\252G\0010\314,\177P\257eOu0\034\317;\264"
 166      AA470130 
 166      CC2C7F50 
 166      AF654F75 
 166      301CCF3B 
 167 0143 46877944 		.ascii	"F\207yD\024o\324\345\357'\2123\365\210,\265\017L\025"
 167      146FD4E5 
 167      EF278A33 
 167      F5882CB5 
 167      0F4C15
 168 0156 DE2B1BF2 		.ascii	"\336+\033\362bSD\242v\307\300\031\015v\247\367U\265"
 168      625344A2 
 168      76C7C019 
 168      0D76A7F7 
 168      55B5
 169 0168 43DD9E41 		.ascii	"C\335\236A\007\004v\351>\344P\031\302\022\207\346\015"
 169      070476E9 
 169      3EE45019 
 169      C21287E6 
 169      0D
 170 0179 FDBBDCF1 		.ascii	"\375\273\334\361\213D\220ok\031\271\356\215\364\306"
 170      8B44906F 
 170      6B19B9EE 
 170      8DF4C6
 171 0188 54414812 		.ascii	"TAH\022r\354\202\307\333\034*B\376\350+\344\317\241"
 171      72EC82C7 
 171      DB1C2A42 
 171      FEE82BE4 
 171      CFA1
 172 019a E3C8488C 		.ascii	"\343\310H\214\037EA\034*\205\311\022\230\314#\006\253"
 172      1F45411C 
 172      2A85C912 
 172      98CC2306 
 172      AB
 173 01ab AE64BCBA 		.ascii	"\256d\274\272\255_\020\002\3201\244G\345\010S\031pz"
 173      AD5F1002 
 173      D031A447 
 173      E5085319 
 173      707A
 174 01bd A69E41E4 		.ascii	"\246\236A\344\357J\337\351\206\363\021\305(\317\272"
 174      EF4ADFE9 
 174      86F311C5 
 174      28CFBA
 175 01cc 7D9257C3 		.ascii	"}\222W\303\250R\307(x\372\324*A\340Q%`T\310\030\000"
 175      A852C728 
 175      78FAD42A 
 175      41E05125 
 175      6054C818 
 176 01e1 C940926B 		.ascii	"\311@\222k\006\323\275\360z\032\037\276s(\271\310S\015"
 176      06D3BDF0 
ARM GAS  C:\Users\AMANRA~1\AppData\Local\Temp\ccrpPkep.s 			page 13


 176      7A1A1FBE 
 176      7328B9C8 
 176      530D
 177 01f3 A45A15A4 		.ascii	"\244Z\025\244\255\301Xz\2218\342\000\220\0232H\245\004"
 177      ADC1587A 
 177      9138E200 
 177      90133248 
 177      A504
 178 0205 72A9AF7F 		.ascii	"r\251\257\177\2137ne\213 -\227/[\256C\343\233\332\275"
 178      8B376E65 
 178      8B202D97 
 178      2F5BAE43 
 178      E39BDABD 
 179 0219 70077B96 		.ascii	"p\007{\226\321|x\201\036\320\355?\311EP\350I\276\335"
 179      D17C7881 
 179      1ED0ED3F 
 179      C94550E8 
 179      49BEDD
 180 022c EEC98C4D 		.ascii	"\356\311\214M\203\341\327IEu^\270\223\031\373t\223\303"
 180      83E1D749 
 180      45755EB8 
 180      9319FB74 
 180      93C3
 181 023e A1C1F7D8 		.ascii	"\241\301\367\330 w[\372j-\356c\203\374\215i\207\364"
 181      20775BFA 
 181      6A2DEE63 
 181      83FC8D69 
 181      87F4
 182 0250 78800D9A 		.ascii	"x\200\015\232{\317|\356\311\322g\012\014O\216?\254\362"
 182      7BCF7CEE 
 182      C9D2670A 
 182      0C4F8E3F 
 182      ACF2
 183 0262 611679C2 		.ascii	"a\026y\302h\337\225a\017\374=\023\335=<\322K\362g\006"
 183      68DF9561 
 183      0FFC3D13 
 183      DD3D3CD2 
 183      4BF26706 
 184 0276 C91FACC8 		.ascii	"\311\037\254\310\236\031,{*\033N\347\031\360\010\013"
 184      9E192C7B 
 184      2A1B4EE7 
 184      19F0080B 
 185 0286 6641E6E8 		.ascii	"fA\346\350\250\217\024\3144\273\2405r\250\021\230\237"
 185      A88F14CC 
 185      34BBA035 
 185      72A81198 
 185      9F
 186 0297 25EE5C04 		.ascii	"%\356\\\004wf\210\356\234\207\311&EV\314\330\272\232"
 186      776688EE 
 186      9C87C926 
 186      4556CCD8 
 186      BA9A
 187 02a9 ACD80508 		.ascii	"\254\330\005\010f\263\034\314\031b,+\322\257u\352q\012"
 187      66B31CCC 
 187      19622C2B 
 187      D2AF75EA 
 187      710A
ARM GAS  C:\Users\AMANRA~1\AppData\Local\Temp\ccrpPkep.s 			page 14


 188 02bb A618494D 		.ascii	"\246\030IM\233\007T1\256\250c\024\314\256\241Yq\031"
 188      9B075431 
 188      AEA86314 
 188      CCAEA159 
 188      7119
 189 02cd 302EC918 		.ascii	"0.\311\030\027\244\005Kz\264\363\230\016o\240 \232\301"
 189      17A4054B 
 189      7AB4F398 
 189      0E6FA020 
 189      9AC1
 190 02df BD472E7B 		.ascii	"\275G.{#\277\300@c:\321N\203\206xyi8\324\202\374\210"
 190      23BFC040 
 190      633AD14E 
 190      83867879 
 190      6938D482 
 191 02f5 05741D00 		.ascii	"\005t\035\000[Q \272\206\002i\231\354$\254\252\332\356"
 191      5B5120BA 
 191      86026999 
 191      EC24ACAA 
 191      DAEE
 192 0307 CCCAEAFF 		.ascii	"\314\312\352\377F\020>1P\270\253\000G\024\2344\203\211"
 192      46103E31 
 192      50B8AB00 
 192      47149C34 
 192      8389
 193 0319 89107FA7 		.ascii	"\211\020\177\247\374\235\247\266\011UI\230\012\237\233"
 193      FC9DA7B6 
 193      09554998 
 193      0A9F9B
 194 0328 54B891A0 		.ascii	"T\270\221\240\212\256\334\314\322Cm\022!N\364\202\025"
 194      8AAEDCCC 
 194      D2436D12 
 194      214EF482 
 194      15
 195 0339 A8A6D671 		.ascii	"\250\246\326q\267H\217\002\003\247\032\231\331\313Y"
 195      B7488F02 
 195      03A71A99 
 195      D9CB59
 196 0348 BEB976A1 		.ascii	"\276\271v\241n\026\255\204\006\260\333\206\246\312\351"
 196      6E16AD84 
 196      06B0DB86 
 196      A6CAE9
 197 0357 35810498 		.ascii	"5\201\004\230\035\314\362N\244,\010\372\031u\351\215"
 197      1DCCF24E 
 197      A42C08FA 
 197      1975E98D 
 198 0367 441A7255 		.ascii	"D\032rU@\032eD\2104\211H;D\344\006D\344\246\030\021"
 198      401A6544 
 198      88348948 
 198      3B44E406 
 198      44E4A618 
 199 037c C6F96CD6 		.ascii	"\306\371l\326\264D\320 R\023I\243\306\243\033\213<\246"
 199      B444D020 
 199      521349A3 
 199      C6A31B8B 
 199      3CA6
 200 038e 82D14475 		.ascii	"\202\321Du\243\334\004\213\212\004\366e\011\234\\}\351"
ARM GAS  C:\Users\AMANRA~1\AppData\Local\Temp\ccrpPkep.s 			page 15


 200      A3DC048B 
 200      8A04F665 
 200      099C5C7D 
 200      E9
 201 039f 88019FA7 		.ascii	"\210\001\237\247k\207n7\024&\351\360%6\370\242\261\240"
 201      6B876E37 
 201      1426E9F0 
 201      2536F8A2 
 201      B1A0
 202 03b1 418B5BD8 		.ascii	"A\213[\330\240|\177A3\217\333\330\340@Y\357Z\204\273"
 202      A07C7F41 
 202      338FDBD8 
 202      E04059EF 
 202      5A84BB
 203 03c4 D8A06F75 		.ascii	"\330\240ou\241\015\367\260\373\254\201\033\337z0\333"
 203      A10DF7B0 
 203      FBAC811B 
 203      DF7A30DB 
 204 03d4 46186E68 		.ascii	"F\030nh\312\276\246c\265RE\252\343\321\216o6\362\370"
 204      CABEA663 
 204      B55245AA 
 204      E3D18E6F 
 204      36F2F8
 205 03e7 019535AC 		.ascii	"\001\2255\254k\262\237\323B\304\341\362\0134\222n\247"
 205      6BB29FD3 
 205      42C4E1F2 
 205      0B34926E 
 205      A7
 206 03f8 906C17AA 		.ascii	"\220l\027\252:3\305\310\327B\344\273 \226}\020\323\211"
 206      3A33C5C8 
 206      D742E4BB 
 206      20967D10 
 206      D389
 207 040a B12C422C 		.ascii	"\261,B,\364D\334\361T\246P\225\214\251\364-W\351\257"
 207      F444DCF1 
 207      54A65095 
 207      8CA9F42D 
 207      57E9AF
 208 041d 91ABF8F0 		.ascii	"\221\253\370\360od\361o&\027\017\221\245\373\025\322"
 208      6F64F16F 
 208      26170F91 
 208      A5FB15D2 
 209 042d B75DA58F 		.ascii	"\267]\245\217<a\334\341/\213\237v\025\257S\210\313\225"
 209      3C61DCE1 
 209      2F8B9F76 
 209      15AF5388 
 209      CB95
 210 043f 014B7607 		.ascii	"\001Kv\007$\276\245\017\373\304\312\030\200<x\000\253"
 210      24BEA50F 
 210      FBC4CA18 
 210      803C7800 
 210      AB
 211 0450 760FDA20 		.ascii	"v\017\332 \264\357\240\365@\273\017\355!\264^h\375\320"
 211      B4EFA0F5 
 211      40BB0FED 
 211      21B45E68 
 211      FDD0
ARM GAS  C:\Users\AMANRA~1\AppData\Local\Temp\ccrpPkep.s 			page 16


 212 0462 BE77560E 		.ascii	"\276wV\016A\257W\240\237rE?)\273&fU\246/\315\252\276"
 212      41AF57A0 
 212      9F72453F 
 212      29BB2666 
 212      55A62FCD 
 213 0478 89A5C04C 		.ascii	"\211\245\300L\335T\256A\367\244k\240\210R\263\002\370"
 213      DD54AE41 
 213      F7A46BA0 
 213      8852B302 
 213      F8
 214 0489 EEE4C0CA 		.ascii	"\356\344\300\312(\335Q\004\265s\362\240J\306\241\250"
 214      28DD5104 
 214      B573F2A0 
 214      4AC6A1A8 
 215 0499 C6B2F44C 		.ascii	"\306\262\364L\274\003\362\271~\362\240Rqr\0047>*\322"
 215      BC03F2B9 
 215      7EF2A052 
 215      71720437 
 215      3E2AD2
 216 04ac E221B6D9 		.ascii	"\342!\266\331U\024\357>\356\216\214~b\341ow#\205?\014"
 216      5514EF3E 
 216      EE8E8C7E 
 216      62E16F77 
 216      23853F0C 
 217 04c0 CA8FE41D 		.ascii	"\312\217\344\035\2148\257\262\032h\010\026\341\377]"
 217      8C38AFB2 
 217      1A680816 
 217      E1FF5D
 218 04cf 10E0F279 		.ascii	"\020\340\362yAA\0376|\342<\032)\264\\\235#\310 \222"
 218      41411F36 
 218      7CE23C1A 
 218      29B45C9D 
 218      23C82092 
 219 04e3 00D99235 		.ascii	"\000\331\2225\031]^8ECy_\355\256\270\357\216\014F\025"
 219      195D5E38 
 219      4543795F 
 219      EDAEB8EF 
 219      8E0C4615 
 220 04f7 5534065C 		.ascii	"U4\006\\dm\351H\015,\357%G\352cx0*\373\007r\014a\244"
 220      646DE948 
 220      0D2CEF25 
 220      47EA6378 
 220      302AFB07 
 221 050f 7B530B62 		.ascii	"{S\013b\205i \033vyK\272\017+\314v\362\370\301g\255"
 221      8569201B 
 221      76794BBA 
 221      0F2BCC76 
 221      F2F8C167 
 222 0524 6DDE385D 		.ascii	"m\3368]3\341\265g\311\223\257=K\330\301u\257\351\334"
 222      33E1B567 
 222      C993AF3D 
 222      4BD8C175 
 222      AFE9DC
 223 0537 05843318 		.ascii	"\005\2043\030\337\326~\330<T^\002Rx#\321\241\333\220"
 223      DFD67ED8 
 223      3C545E02 
 223      527823D1 
ARM GAS  C:\Users\AMANRA~1\AppData\Local\Temp\ccrpPkep.s 			page 17


 223      A1DB90
 224 054a 9DF74749 		.ascii	"\235\367GI\274t\246|\267\356\231{c\204\361*^\217\222"
 224      BC74A67C 
 224      B7EE997B 
 224      6384F12A 
 224      5E8F92
 225 055d 7927E325 		.ascii	"y'\343%\354H\321\036\314\256O\201\335\301\317H\266\005"
 225      EC48D11E 
 225      CCAE4F81 
 225      DDC1CF48 
 225      B605
 226 056f B2217765 		.ascii	"\262!we\343\221\335\353?\025r\034\210zY\003^\246\362"
 226      E391DDEB 
 226      3F15721C 
 226      887A5903 
 226      5EA6F2
 227 0582 9366E584 		.ascii	"\223f\345\204\365\024\000v\234\206\234H\223\305\\\003"
 227      F5140076 
 227      9C869C48 
 227      93C55C03 
 228 0592 A456F381 		.ascii	"\244V\363\201h-\264Ox\345N;V\300j\002$'\326\004!\320"
 228      682DB44F 
 228      78E54E3B 
 228      56C06A02 
 228      2427D604 
 229 05a8 532AD604 		.ascii	"S*\326\004a\234\310\273\240O\310[\"^\377\022K[\362\222"
 229      619CC8BB 
 229      A04FC85B 
 229      225EFF12 
 229      4B5BF292 
 230 05bc 533C2957 		.ascii	"S<)WV\023\020\316\241\374\201\007\030\357\325\322p\326"
 230      561310CE 
 230      A1FC8107 
 230      18EFD5D2 
 230      70D6
 231 05ce A68EEED4 		.ascii	"\246\216\356\324#?\343\244N\240\365\300\375\307\375"
 231      233FE3A4 
 231      4EA0F5C0 
 231      FDC7FD
 232 05dd 182CA5C9 		.ascii	"\030,\245\311\376)\010\256\223CK\274\242x\343#\247K"
 232      FE2908AE 
 232      93434BBC 
 232      A278E323 
 232      A74B
 233 05ef 793F1120 		.ascii	"y?\021 U\025\200{\302:\350\226v\347\366\352\224i\275"
 233      5515807B 
 233      C23AE896 
 233      76E7F6EA 
 233      9469BD
 234 0602 8157A675 		.ascii	"\201W\246u\032O\022\216\366 \274\2571\177T\203\013\230"
 234      1A4F128E 
 234      F620BCAF 
 234      317F5483 
 234      0B98
 235 0614 6383355D 		.ascii	"c\2035]\271:\265D\371\214W\177[|\231\275-n\204\260\247"
 235      B93AB544 
 235      F98C577F 
ARM GAS  C:\Users\AMANRA~1\AppData\Local\Temp\ccrpPkep.s 			page 18


 235      5B7C99BD 
 235      2D6E84B0 
 236 0629 F32E6F8B 		.ascii	"\363.o\213d\026\200\216\2368^\351\331\006'\035|\016"
 236      6416808E 
 236      9E385EE9 
 236      D906271D 
 236      7C0E
 237 063b A029942B 		.ascii	"\240)\224+B\354\027z\322\350x\\\272\020\233\207Y\236"
 237      42EC177A 
 237      D2E8785C 
 237      BA109B87 
 237      599E
 238 064d 75A22819 		.ascii	"u\242(\031H*\3109\303\2136x\311.\375\023\015 \245U\366"
 238      482AC839 
 238      C38B3678 
 238      C92EFD13 
 238      0D20A555 
 239 0662 9CC14917 		.ascii	"\234\301I\027\307\344\031\037Y\217M\3612\230B\345\011"
 239      C7E4191F 
 239      598F4DF1 
 239      329842E5 
 239      09
 240 0673 AE9CF3B1 		.ascii	"\256\234\363\261\223\224\354$\022\227\346zao\235\266"
 240      9394EC24 
 240      1297E67A 
 240      616F9DB6 
 241 0683 1D8E7AA8 		.ascii	"\035\216z\250\"o.M\027Kk\265\243\371\330c\035.\241k"
 241      226F2E4D 
 241      174B6BB5 
 241      A3F9D863 
 241      1D2EA16B 
 242 0697 80CE7665 		.ascii	"\200\316ve_F\032\236-\020\212\323\320\215\352|\376e"
 242      5F461A9E 
 242      2D108AD3 
 242      D08DEA7C 
 242      FE65
 243 06a9 DDB42D34 		.ascii	"\335\264-4\033\354\302\024\236f\254\364\006\305\241"
 243      1BECC214 
 243      9E66ACF4 
 243      06C5A1
 244 06b8 0C7E1AFC 		.ascii	"\014~\032\374n\3455\014\244h\274dP\373t\216\220\323"
 244      6EE5350C 
 244      A468BC64 
 244      50FB748E 
 244      90D3
 245 06ca 0EEF85A5 		.ascii	"\016\357\205\245xM\365j(I\364\032\021C[\344\325\201"
 245      784DF56A 
 245      2849F41A 
 245      11435BE4 
 245      D581
 246 06dc 5BF8DDCC 		.ascii	"[\370\335\314\267#\264\211o\003F\333\370\247A{O\206"
 246      B723B489 
 246      6F0346DB 
 246      F8A7417B 
 246      4F86
 247 06ee BDC113DF 		.ascii	"\275\301\023\337adRj/8\334)\031\202\310\310t\265v\234"
 247      6164526A 
ARM GAS  C:\Users\AMANRA~1\AppData\Local\Temp\ccrpPkep.s 			page 19


 247      2F38DC29 
 247      1982C8C8 
 247      74B5769C 
 248 0702 747312CC 		.ascii	"ts\022\314\342\351\344\350\376\301\213\032%\303\217"
 248      E2E9E4E8 
 248      FEC18B1A 
 248      25C38F
 249 0711 7EA520F8 		.ascii	"~\245 \3709%\270]\"X\235\261\246\320]$x9\313\000E\230"
 249      3925B85D 
 249      22589DB1 
 249      A6D05D24 
 249      7839CB00 
 250 0727 24907757 		.ascii	"$\220wW\020C\2312\301LW\202_P\202\217o\336\352\347\361"
 250      10439932 
 250      C14C5782 
 250      5F50828F 
 250      6FDEEAE7 
 251 073c 20235852 		.ascii	" #XRW\231\252\247dH\3561\202[\017\346\344\031\234\004"
 251      5799AAA7 
 251      6448EE31 
 251      825B0FE6 
 251      E4199C04 
 252 0750 7318C1FE 		.ascii	"s\030\301\376U\307\373\015\252\004wR\202;$\2027\037"
 252      55C7FB0D 
 252      AA047752 
 252      823B2482 
 252      371F
 253 0762 5EFD0A89 		.ascii	"^\375\012\211\004\353\247;\371\201\024\312\226\371e"
 253      04EBA73B 
 253      F98114CA 
 253      96F965
 254 0771 BBF2CBA5 		.ascii	"\273\362\313\245\374\356\357\266\177\346\203\223\335"
 254      FCEEEFB6 
 254      7FE68393 
 254      DD
 255 077e 54F98D6F 		.ascii	"T\371\215o[\237\353\346\014\352n\306\357L\353\251\203"
 255      5B9FEBE6 
 255      0CEA6EC6 
 255      EF4CEBA9 
 255      83
 256 078f 4C90EC9C 		.ascii	"L\220\354\234yl2\261{\370\256\233*\351\275\224\364\036"
 256      796C32B1 
 256      7BF8AE9B 
 256      2AE9BD94 
 256      F41E
 257 07a1 89F4D6CD 		.ascii	"\211\364\326\315C\007\311\262\267\323\212|~\354P\267"
 257      4307C9B2 
 257      B7D38A7C 
 257      7EEC50B7 
 258 07b1 90AAA752 		.ascii	"\220\252\247Rh\227Lz\027\317>xQ>%{,ot\314G\332+R\177"
 258      68974C7A 
 258      17CF3E78 
 258      513E257B 
 258      2C6F74CC 
 259 07ca E00844FB 		.ascii	"\340\010D\373\350v"
 259      E876
 260 07d0 71A433B5 		.ascii	"q\2443\265Z\243&\357r\356\241\375T%eU\371\030\326\247"
ARM GAS  C:\Users\AMANRA~1\AppData\Local\Temp\ccrpPkep.s 			page 20


 260      5AA326EF 
 260      72EEA1FD 
 260      54256555 
 260      F918D6A7 
 261 07e4 3A557EE4 		.ascii	":U~\344\354A\007\350v\221X\266}\213vr\255\311>[\321"
 261      EC4107E8 
 261      769158B6 
 261      7D8B7672 
 261      ADC93E5B 
 262 07f9 41AAB5AA 		.ascii	"A\252\265\252(\373\000\2173Y\354\257\264$\227\211\007"
 262      28FB008F 
 262      3359ECAF 
 262      B4249789 
 262      07
 263 080a AA27598A 		.ascii	"\252'Y\212\216\315\225\036\354@\275J\036\357h\034\330"
 263      8ECD951E 
 263      EC40BD4A 
 263      1EEF681C 
 263      D8
 264 081b A2C77B99 		.ascii	"\242\307{\231\354\343\336\246\307\006&K\354\214\324"
 264      ECE3DEA6 
 264      C706264B 
 264      EC8CD4
 265 082a A5642382 		.ascii	"\245d#\202.\210[(\314\313Q\371\212\207}\015\016\010"
 265      2E885B28 
 265      CCCB51F9 
 265      8A877D0D 
 265      0E08
 266 083c F4254F3F 		.ascii	"\364%O?Y/=:>l\300\207\251%\315\001\373\276^\0152\372"
 266      592F3D3A 
 266      3E6CC087 
 266      A925CD01 
 266      FBBE5E0D 
 267 0852 231047FA 		.ascii	"#\020G\372<\351\177\015@\025\022\240H\214>\\\231\260"
 267      3CE97F0D 
 267      401512A0 
 267      488C3E5C 
 267      99B0
 268 0864 AD0BBDFF 		.ascii	"\255\013\275\377!\323p\257\243=uW\310\025\3604\016\315"
 268      21D370AF 
 268      A33D7557 
 268      C815F034 
 268      0ECD
 269 0876 F147B3C8 		.ascii	"\361G\263\310\241\005!*\245x%\020\240b\006X\321\320"
 269      A105212A 
 269      A5782510 
 269      A0620658 
 269      D1D0
 270 0888 DCE2ED9B 		.ascii	"\334\342\355\233&\036?\257!j\373\020</\344\011\2772"
 270      261E3FAF 
 270      216AFB10 
 270      3C2FE409 
 270      BF32
 271 089a DE576249 		.ascii	"\336WbI\244\017o\257\033\362\320\213\266S\177\314\366"
 271      A40F6FAF 
 271      1BF2D08B 
 271      B6537FCC 
ARM GAS  C:\Users\AMANRA~1\AppData\Local\Temp\ccrpPkep.s 			page 21


 271      F6
 272 08ab C59BEBDE 		.ascii	"\305\233\353\336T\232>\372C\246\257\011\253\217\031"
 272      549A3EFA 
 272      43A6AF09 
 272      AB8F19
 273 08ba 9ECD159A 		.ascii	"\236\315\025\232\252\350V\263\366V\262\220\230\002\247"
 273      AAE856B3 
 273      F656B290 
 273      9802A7
 274 08c9 7339EF8B 		.ascii	"s9\357\213\016C\322\301\226\242P.\200\231\017\341;\363"
 274      0E43D2C1 
 274      96A2502E 
 274      80990FE1 
 274      3BF3
 275 08db 18FF2CE8 		.ascii	"\030\377,\350\266\334M\273\210q1\213\277\375@E\261V"
 275      B6DC4DBB 
 275      8871318B 
 275      BFFD4045 
 275      B156
 276 08ed 35E01552 		.ascii	"5\340\025R\300\013\031\307\236{y\373\265\256\376\313"
 276      C00B19C7 
 276      9E7B79FB 
 276      B5AEFECB 
 277 08fd 6F119594 		.ascii	"o\021\225\224d\205D\262\370\324\266\357\365\256.\251"
 277      648544B2 
 277      F8D4B6EF 
 277      F5AE2EA9 
 278 090d 4A976CAE 		.ascii	"J\227l\256\250B\242K_?\225\230S\225\030\000_F\314\035"
 278      A842A24B 
 278      5F3F9598 
 278      53951800 
 278      5F46CC1D 
 279 0921 D880148A 		.ascii	"\330\200\024\212\307EwNPwr\367\024_\340\225\247.)<\331"
 279      C745774E 
 279      507772F7 
 279      145FE095 
 279      A72E293C 
 280 0936 058778EA 		.ascii	"\005\207x\352:hMl_{\016>Ak\304\334\273\2368\306\263"
 280      3A684D6C 
 280      5F7B0E3E 
 280      416BC4DC 
 280      BB9E38C6 
 281 094b DCF326DB 		.ascii	"\334\363&\333\303\267-\271b\236\366\322\377s\334)\253"
 281      C3B72DB9 
 281      629EF6D2 
 281      FF73DC29 
 281      AB
 282 095c 16FFFBE5 		.ascii	"\026\377\373\345\005\303/\035\273z<T#U+E\352\024\213"
 282      05C32F1D 
 282      BB7A3C54 
 282      23552B45 
 282      EA148B
 283 096f 94607FD8 		.ascii	"\224`\177\330ip\215\324Ip\241\206\256H\035\365\275V"
 283      69708DD4 
 283      4970A186 
 283      AE481DF5 
 283      BD56
ARM GAS  C:\Users\AMANRA~1\AppData\Local\Temp\ccrpPkep.s 			page 22


 284 0981 F27D8F23 		.ascii	"\362}\217#\271\374\211H\251J\237zX\323\201\305H\265"
 284      B9FC8948 
 284      A94A9F7A 
 284      58D381C5 
 284      48B5
 285 0993 4E67913A 		.ascii	"Ng\221:-F\012\266B\205b\265\030\251z\376YN\023\033a"
 285      2D460AB6 
 285      428562B5 
 285      18A97AFE 
 285      594E131B 
 286 09a8 FDE78CA0 		.ascii	"\375\347\214\240\240`\370\213\\\021\2754\332b\015\231"
 286      A060F88B 
 286      5C11BD34 
 286      DA620D99 
 287 09b8 17322BD8 		.ascii	"\0272+\330b\015^\021\021\023l\215\217$\275ieDLP\244"
 287      620D5E11 
 287      11136C8D 
 287      8F24BD69 
 287      65444C50 
 288 09cd EEADBFBE 		.ascii	"\356\255\277\276\037\360fH\010\2477\231\022\242\343"
 288      1FF06648 
 288      08A73799 
 288      12A2E3
 289 09dc 6C73669B 		.ascii	"lsf\233l\313\"\377\030N\365\254\266\204\250hK\270\315"
 289      6CCB22FF 
 289      184EF5AC 
 289      B684A868 
 289      4BB8CD
 290 09ef 6289B186 		.ascii	"b\211\261\206/\217K\010\240w\001\021\361\261\001\346"
 290      2F8F4B08 
 290      A0770111 
 290      F1B101E6 
 291 09ff D8A5E6A8 		.ascii	"\330\245\346\250(sT\370\213A\263\002f\317\012y\361_"
 291      287354F8 
 291      8B41B302 
 291      66CF0A79 
 291      F15F
 292 0a11 73C361FE 		.ascii	"s\303a\376\2058K\234\371\005s\304\322\350\360\350\270"
 292      85384B9C 
 292      F90573C4 
 292      D2E8F0E8 
 292      B8
 293 0a22 C8988428 		.ascii	"\310\230\204(sxl\004\330\2123\207\233\242\314\313\""
 293      73786C04 
 293      D88A3387 
 293      9BA2CCCB 
 293      22
 294 0a33 12626C26 		.ascii	"\022bl&\333\307+\315\326\240\025\234N\302\373\307\317"
 294      DBC72BCD 
 294      D6A0159C 
 294      4EC2FBC7 
 294      CF
 295 0a44 8A67FDD8 		.ascii	"\212g\375\330\032n\262\332\242\3008\200\030\242-+-\361"
 295      1A6EB2DA 
 295      A2C03880 
 295      18A22D2B 
 295      2DF1
ARM GAS  C:\Users\AMANRA~1\AppData\Local\Temp\ccrpPkep.s 			page 23


 296 0a56 36121193 		.ascii	"6\022\021\223\355U\325\230\020\031k\360\342\367\336"
 296      ED55D598 
 296      10196BF0 
 296      E2F7DE
 297 0a65 9D333B78 		.ascii	"\2353;x\341\302\371\301o-z'\364\337\263\2450\231bb\242"
 297      E1C2F9C1 
 297      6F2D7A27 
 297      F4DFB3A5 
 297      30996262 
 298 0a7a C0961B91 		.ascii	"\300\226\033\221\212\216\322\274\376\247\260\205\332"
 298      8A8ED2BC 
 298      FEA7B085 
 298      DA
 299 0a87 85A16FFE 		.ascii	"\205\241o\376%L\363\306\342\2600\364\001z[\033\031c"
 299      254CF3C6 
 299      E2B030F4 
 299      017A5B1B 
 299      1963
 300 0a99 8E881763 		.ascii	"\216\210\027c\030\362\007\223M'\335`\253\331\366\312"
 300      18F20793 
 300      4D27DD60 
 300      ABD9F6CA 
 301 0aa9 FF8A6BB5 		.ascii	"\377\212k\265\305B`\226\257\214\266\000,\016\235\037"
 301      C5426096 
 301      AF8CB600 
 301      2C0E9D1F 
 302 0ab9 86DF991F 		.ascii	"\206\337\231\037\246]\364\376\242\371a\356\241\213\027"
 302      A65DF4FE 
 302      A2F961EE 
 302      A18B17
 303 0ac8 2D58303F 		.ascii	"-X0?\314-\364\275%\213\026\204i\337\015\235\277 \214"
 303      CC2DF4BD 
 303      258B1684 
 303      69DF0D9D 
 303      BF208C
 304 0adb 507ADB20 		.ascii	"Pz\333 k\231lz\346wt\224\311\346fY\266\014H\030\010"
 304      6B996C7A 
 304      E6777494 
 304      C9E66659 
 304      B60C4818 
 305 0af0 23D3B208 		.ascii	"#\323\262\010\253\355%\223\355\357?o\310\245h?\247\352"
 305      ABED2593 
 305      EDEF3F6F 
 305      C8A5683F 
 305      A7EA
 306 0b02 A828EA4C 		.ascii	"\250(\352L\274\025\234\366\235\3207\022\254\272hK\254"
 306      BC159CF6 
 306      9DD03712 
 306      ACBA684B 
 306      AC
 307 0b13 25CA0C84 		.ascii	"%\312\014\204a6\314\034\021\005s3\177Z\352r\236\320"
 307      6136CC1C 
 307      11057333 
 307      7F5AEA72 
 307      9ED0
 308 0b25 7D101F6D 		.ascii	"}\020\037m3\203\216\027\334/6\333\340\356]0\367Ki\325"
 308      33838E17 
ARM GAS  C:\Users\AMANRA~1\AppData\Local\Temp\ccrpPkep.s 			page 24


 308      DC2F36DB 
 308      E0EE5D30 
 308      F74B69D5 
 309 0b39 4CE0F8F2 		.ascii	"L\340\370\362xK\302J\002\342e2-K\210\2134\231\202\346"
 309      784BC24A 
 309      02E26532 
 309      2D4B888B 
 309      349982E6 
 310 0b4d CD7D69AE 		.ascii	"\315}i\256N\032i\"WD\304Ox6O9\232\367\373\377\002\312"
 310      4E1A6922 
 310      5744C44F 
 310      78364F39 
 310      9AF7FBFF 
 311 0b63 BCB4B3   		.ascii	"\274\264\263"
 312              		.text
 313              		.section	.gnu.lto_.symtab.4b6a8cd5,"",%progbits
 314 0000 70616C52 		.ascii	"palReadBus\000"
 314      65616442 
 314      757300
 315 000b 00       		.ascii	"\000"
 316 000c 00       		.ascii	"\000"
 317 000d 00       		.ascii	"\000"
 318 000e 00000000 		.ascii	"\000\000\000\000\000\000\000\000"
 318      00000000 
 319 0016 19010000 		.ascii	"\031\001\000\000"
 320 001a 70616C57 		.ascii	"palWriteBus\000"
 320      72697465 
 320      42757300 
 321 0026 00       		.ascii	"\000"
 322 0027 00       		.ascii	"\000"
 323 0028 00       		.ascii	"\000"
 324 0029 00000000 		.ascii	"\000\000\000\000\000\000\000\000"
 324      00000000 
 325 0031 1E010000 		.ascii	"\036\001\000\000"
 326 0035 70616C53 		.ascii	"palSetBusMode\000"
 326      65744275 
 326      734D6F64 
 326      6500
 327 0043 00       		.ascii	"\000"
 328 0044 00       		.ascii	"\000"
 329 0045 00       		.ascii	"\000"
 330 0046 00000000 		.ascii	"\000\000\000\000\000\000\000\000"
 330      00000000 
 331 004e 23010000 		.ascii	"#\001\000\000"
 332 0052 5F70616C 		.ascii	"_pal_lld_setgroupmode\000"
 332      5F6C6C64 
 332      5F736574 
 332      67726F75 
 332      706D6F64 
 333 0068 00       		.ascii	"\000"
 334 0069 02       		.ascii	"\002"
 335 006a 00       		.ascii	"\000"
 336 006b 00000000 		.ascii	"\000\000\000\000\000\000\000\000"
 336      00000000 
 337 0073 29010000 		.ascii	")\001\000\000"
 338              		.text
 339              		.section	.gnu.lto_.opts,"",%progbits
ARM GAS  C:\Users\AMANRA~1\AppData\Local\Temp\ccrpPkep.s 			page 25


 340 0000 272D666D 		.ascii	"'-fmath-errno' '-fsigned-zeros' '-ftrapping-math' '"
 340      6174682D 
 340      6572726E 
 340      6F272027 
 340      2D667369 
 341 0033 2D666E6F 		.ascii	"-fno-trapv' '-fno-openmp' '-fno-openacc' '-mcpu=cor"
 341      2D747261 
 341      70762720 
 341      272D666E 
 341      6F2D6F70 
 342 0066 7465782D 		.ascii	"tex-m4' '-mthumb' '-mfloat-abi=hard' '-mfpu=fpv4-sp"
 342      6D342720 
 342      272D6D74 
 342      68756D62 
 342      2720272D 
 343 0099 2D643136 		.ascii	"-d16' '-O2' '-fomit-frame-pointer' '-falign-functio"
 343      2720272D 
 343      4F322720 
 343      272D666F 
 343      6D69742D 
 344 00cc 6E733D31 		.ascii	"ns=16' '-ffunction-sections' '-fdata-sections' '-fn"
 344      36272027 
 344      2D666675 
 344      6E637469 
 344      6F6E2D73 
 345 00ff 6F2D636F 		.ascii	"o-common' '-flto'\000"
 345      6D6D6F6E 
 345      2720272D 
 345      666C746F 
 345      2700
 346              		.text
 347              		.comm	__gnu_lto_v1,1,1
 348              		.comm	__gnu_lto_slim,1,1
 349              		.ident	"GCC: (GNU Tools for Arm Embedded Processors 7-2017-q4-major) 7.2.1 20170904 (release) [ARM
ARM GAS  C:\Users\AMANRA~1\AppData\Local\Temp\ccrpPkep.s 			page 26


DEFINED SYMBOLS
                            *ABS*:00000000 hal_pal.c
                            *COM*:00000001 __gnu_lto_v1
                            *COM*:00000001 __gnu_lto_slim

NO UNDEFINED SYMBOLS
