ARM GAS  C:\Users\AMANRA~1\AppData\Local\Temp\ccItJTv4.s 			page 1


   1              		.cpu cortex-m4
   2              		.eabi_attribute 27, 1
   3              		.eabi_attribute 28, 1
   4              		.eabi_attribute 20, 1
   5              		.eabi_attribute 21, 1
   6              		.eabi_attribute 23, 3
   7              		.eabi_attribute 24, 1
   8              		.eabi_attribute 25, 1
   9              		.eabi_attribute 26, 1
  10              		.eabi_attribute 30, 2
  11              		.eabi_attribute 34, 1
  12              		.eabi_attribute 18, 4
  13              		.file	"main.cpp"
  14              		.section	.gnu.lto_.profile.4b6ab3fa,"",%progbits
  15 0000 789C6363 		.ascii	"x\234cc```\005bF\206\345L\341\000\002\335\001\015"
  15      60606005 
  15      624686E5 
  15      4CE10002 
  15      DD010D
  16              		.text
  17              		.section	.gnu.lto_.icf.4b6ab3fa,"",%progbits
  18 0000 789C6363 		.ascii	"x\234cc``\360b@\000\036\206\245\237\032gq1\257~\367"
  18      6060F062 
  18      40001E86 
  18      A59F1A67 
  18      7131AF7E 
  19 0015 F73B1BCB 		.ascii	"\367;\033\313\244\355\213\3572\263\356}\370\256\235"
  19      A4ED8BEF 
  19      32B3EE7D 
  19      F8AE9D
  20 0024 956DC7DB 		.ascii	"\225m\307\333y\0079\330\257m\3320\213\213\343\333\236"
  20      790739D8 
  20      AF6DDA30 
  20      8B8BE3DB 
  20      9E
  21 0035 BE47AC3C 		.ascii	"\276G\254<\367?\255>\317\302\327\371\276i\"\013?X\245"
  21      F73FAD3E 
  21      CFC2D7F9 
  21      BE69220B 
  21      3F58A5
  22 0048 00981404 		.ascii	"\000\230\024\004\223\014\000u\024$L"
  22      930C0075 
  22      14244C
  23              		.text
  24              		.section	.gnu.lto_.jmpfuncs.4b6ab3fa,"",%progbits
  25 0000 789C9555 		.ascii	"x\234\225UMO\023A\030\236\247\263\335n[\312\327IM\017"
  25      4D4F1341 
  25      189EA7B3 
  25      DD6E5BCA 
  25      D7494D0F 
  26 0014 E5E0D503 		.ascii	"\345\340\325\003wo\376\002\377\001\321\0368c\274RB\014"
  26      776FFE02 
  26      FF01D11E 
  26      3863BC52 
  26      420C
  27 0026 048D6242 		.ascii	"\004\215bBHmj\330\213\007<h\374@)\224\257\242\005*R"
  27      486D6AD8 
ARM GAS  C:\Users\AMANRA~1\AppData\Local\Temp\ccItJTv4.s 			page 2


  27      8B073C68 
  27      FC402994 
  27      AFA2052A 
  28 003b E55B2809 		.ascii	"\345[(\011j\202\230xi\214\306\000\246\276\2633\305\266"
  28      6A829878 
  28      698CC600 
  28      A6BEB333 
  28      C5B6
  29 004d BB2EB8C9 		.ascii	"\273.\270\311$\233\235\367\371xg\236\231\325\031=>\306"
  29      249B9DF7 
  29      F978679E 
  29      99D5193D 
  29      3EC6
  30 005f CE31F970 		.ascii	"\3161\371p\0060\226\344\314\203\001\216T\352\333\266"
  30      063096E4 
  30      CC83018E 
  30      54EADBB6 
  31 006f AFF377CC 		.ascii	"\257\363w\314Hr\230\234\246\361\014\235\014\323\032"
  31      4872989C 
  31      A6F10C9D 
  31      0CD31A
  32 007e 188D123D 		.ascii	"\030\215\022=\015\360P\335\340\215L\336w\223S\025\030"
  32      0DF050DD 
  32      E08D4CDE 
  32      77935315 
  32      18
  33 008f 9E232C86 		.ascii	"\236#,\206E\2603\271^\362\212\011\017\342?\030F\020"
  33      45B033B9 
  33      5EF28A09 
  33      0FE23F18 
  33      4610
  34 00a1 B6D0F42E 		.ascii	"\266\320\364.8\230\316\252\311\230\300\244\037~ZA\013"
  34      3898CEAA 
  34      C998C0A4 
  34      1F7E5A41 
  34      0B
  35 00b2 8662F148 		.ascii	"\206b\361H\222sF_\356\354\355\025\375d\343L\222kx\201"
  35      9273465F 
  35      EEECED15 
  35      FD64E34C 
  35      926B7881 
  36 00c6 1642BDAC 		.ascii	"\026B\275\254\360qd\367A\023\030%\037bT\367\34159\011"
  36      F07164F7 
  36      41131825 
  36      1F6254F7 
  36      E1353909 
  37 00da 23E58EF7 		.ascii	"#\345\216\367\022~\214\260c\252\217\370\347\342|H\366"
  37      127E8CB0 
  37      63AA8FF8 
  37      E7E27C48 
  37      F6
  38 00eb B1EFC3B8 		.ascii	"\261\357\303\270jc\337gua\324H\350&\367\220D\332]B'"
  38      6A63DF67 
  38      7561D448 
  38      E826F790 
  38      44DA5D42 
  39 0100 89099298 		.ascii	"\211\011\222\230\220\026\037d\023\367u\361\335\207X"
ARM GAS  C:\Users\AMANRA~1\AppData\Local\Temp\ccItJTv4.s 			page 3


  39      90161F64 
  39      13F775F1 
  39      DD8758
  40 010f CCC0A492 		.ascii	"\314\300\244\222\240wK\303\271\213)\273D\331\266\000"
  40      A0774BC3 
  40      B98B29BB 
  40      44D9B600 
  41 011f 7CFDF931 		.ascii	"|\375\3711\025\222\234\255\230V\214\255\026\237\007"
  41      15929CAD 
  41      98568CAD 
  41      169F07
  42 012e A7EC62C6 		.ascii	"\247\354b\306A\242l\333\346\322\266\2356U\322\310\315"
  42      41A26CDB 
  42      E6D2B69D 
  42      3655D2C8 
  42      CD
  43 013f DD2D40AE 		.ascii	"\335-@\256e\377\022CFU\320\273U\2439\373\230\375\037"
  43      65FF1243 
  43      4655D0BB 
  43      55A339FB 
  43      98FD1F
  44 0152 1FB51C2A 		.ascii	"\037\265\034*\274\257\354\341-\247U\000\272\017\246"
  44      BCAFECE1 
  44      2DA75500 
  44      BA0FA6
  45 0161 BED7CB98 		.ascii	"\276\327\313\230\031&%\217\341\265\373\026\032\264\205"
  45      1926258F 
  45      E1B5FB16 
  45      1AB485
  46 0170 59C26655 		.ascii	"Y\302fUJ\354\212s\377V4\254M\250\355>P\303\3437\271"
  46      4AEC8A73 
  46      FF5634AC 
  46      4DA8ED3E 
  46      50C3E337 
  47 0185 463CF315 		.ascii	"F<\363\025<\277\354F\374dd\201h\027d#}\245\302#k\205"
  47      3CBFEC46 
  47      FC646481 
  47      68176423 
  47      7DA5C223 
  48 019b 03180D20 		.ascii	"\003\030\015 \247$F\003\307I\032\037~\374\305\012[\020"
  48      A7244603 
  48      C7491A1F 
  48      7EFCC50A 
  48      5B10
  49 01ad 5DC01B55 		.ascii	"]\300\033U\320\005\247\250\325\015Z\235,\272\037\374"
  49      D005A7A8 
  49      D50D5A9D 
  49      2CBA1FFC 
  50 01bd 3A72F096 		.ascii	":r\360\226\324\305\300\205p\265Y\246\013\316\201\314"
  50      D4C5C085 
  50      70B559A6 
  50      0BCE81CC 
  51 01cd BD552B8D 		.ascii	"\275U+\215!\304\372{c\032\226\020vk*D\224y\242\313\313"
  51      21C4FA7B 
  51      631A9610 
  51      766B2A44 
  51      9479A2CB 
ARM GAS  C:\Users\AMANRA~1\AppData\Local\Temp\ccItJTv4.s 			page 4


  52 01e2 A6D243B7 		.ascii	"\246\322C\267\206\003\342{=\255\341;\005\365\034;\036"
  52      8603E27B 
  52      3DADE13B 
  52      05F51C3B 
  52      1E
  53 01f3 E9597C62 		.ascii	"\351Y|bM7\000x\257\246eC:\234\244*\271\373\0166n\033"
  53      4D370078 
  53      AFA66543 
  53      3A9CA42A 
  53      B9FB0E36 
  54 0209 92DBC0B2 		.ascii	"\222\333\300\262\252\375{\360v{\226\327\202\222;\341"
  54      AAFD7BF0 
  54      767B96D7 
  54      82923BE1 
  55 0219 C58A9A4F 		.ascii	"\305\212\232OxO\311>\263\373\264\030\224\354\032VU\255"
  55      784FC93E 
  55      B3FBB418 
  55      94EC1A56 
  55      55AD
  56 022b 26D9ED6C 		.ascii	"&\331\355l\004Hd\016g\375j\245z\305J\255\235`\277\373"
  56      0448640E 
  56      67FD6AA5 
  56      7AC54AAD 
  56      9D60BFFB 
  57 023f 28072940 		.ascii	"(\007)@W\307z\3710\030\316\022\232\323\245[\221\375"
  57      57C77AF9 
  57      3018CE12 
  57      9AD3A55B 
  57      91FD
  58 0251 46937BA9 		.ascii	"F\223{\251d\303=\373\215\264;\233$\277)\262\177\342"
  58      64C33DFB 
  58      8DB43B9B 
  58      24BF29B2 
  58      7FE2
  59 0263 216E32B9 		.ascii	"!n2\271\270\353?\270s6\021\347\026qn\331n\355f\223\323"
  59      B8EB3FB8 
  59      733611E7 
  59      16716ED9 
  59      6EED6693 
  60 0278 4F0ADBEE 		.ascii	"O\012\333\356\370f\302\027\010[\260\237Ge`\307\341\026"
  60      F866C217 
  60      085BB09F 
  60      476560C7 
  60      E116
  61 028a 518A8C85 		.ascii	"Q\212\214\205(\347g/G\257D\333\257G\257F.\265]k\213"
  61      28E7672F 
  61      47AF44DB 
  61      AF47AF46 
  61      2EB55D6B 
  62 029f B477442E 		.ascii	"\264wD.F\316wDB\001\366\007wz\014\012"
  62      46CE7744 
  62      4201F607 
  62      777A0C0A 
  63              		.text
  64              		.section	.gnu.lto_.inline.4b6ab3fa,"",%progbits
  65 0000 789C758E 		.ascii	"x\234u\216\275\021\3020\014F\237l\331\027 \2066]:\006"
  65      BD11C230 
ARM GAS  C:\Users\AMANRA~1\AppData\Local\Temp\ccItJTv4.s 			page 5


  65      0C469F6C 
  65      D9172086 
  65      365D3A06 
  66 0014 60106663 		.ascii	"`\020fc\004\357A\303\020\264\024Tl@\215,\207\313Q\240"
  66      04EF41C3 
  66      10B41454 
  66      6C408D2C 
  66      87CB51A0 
  67 0028 42BAEFD3 		.ascii	"B\272\357\323\317S\006\236\254\021\341\370~!\204\241"
  67      CF53069E 
  67      AC11E1F8 
  67      7E2184A1 
  68 0038 DE2794D0 		.ascii	"\336'\224\320\334\260\223fy\326\"\304\313\371k\246\275"
  68      DCB09366 
  68      79D622C4 
  68      CBF96BA6 
  68      BD
  69 0049 59EBCC22 		.ascii	"Y\353\314\"\255\337u\034\245\235XJ\367\006N\217\215"
  69      ADDF751C 
  69      A59D584A 
  69      F7064E8F 
  69      8D
  70 005a E9E97695 		.ascii	"\351\351v\225_B>@\362?\264\370/\177k\034m\307)8\205"
  70      5F423E40 
  70      F23FB4F8 
  70      2F7F6B1C 
  70      6DC72938 
  71 006f 7EBE09D9 		.ascii	"~\276\011\331Z\337S!\251q\264\316\344:;\207\017Iw\015"
  71      5ADF5321 
  71      A971B4CE 
  71      E43A3B87 
  71      0F49770D 
  72 0083 15       		.ascii	"\025"
  73              		.text
  74              		.section	.gnu.lto_.pureconst.4b6ab3fa,"",%progbits
  75 0000 789C6363 		.ascii	"x\234cc```\007bf\006)\016)^\011\000\001\355\000r"
  75      60606007 
  75      62660629 
  75      0E295E09 
  75      0001ED00 
  76              		.text
  77              		.section	.gnu.lto__ZL12spi_thread_1Pv.4b6ab3fa,"",%progbits
  78 0000 789C8D55 		.ascii	"x\234\215U\375O[U\030>\317=\375\002\326\016\207\312"
  78      FD4F5B55 
  78      183ECF3D 
  78      FD02D60E 
  78      87CA
  79 0012 A66CDE6E 		.ascii	"\246l\336n\"\231\211TL\214\272\304\037LL\324\2374\372"
  79      22998954 
  79      4C8CBAC4 
  79      1F4C4CD4 
  79      9F34FA
  80 0025 173068A4 		.ascii	"\0270h\244\211c\004\320\304\237z\371\022\010\02073*"
  80      896304D0 
  80      C49F7AF9 
  80      12081037 
  80      332A
ARM GAS  C:\Users\AMANRA~1\AppData\Local\Temp\ccItJTv4.s 			page 6


  81 0037 69AABB09 		.ascii	"i\252\273\011[\226\230,h\230L6\006\025\034\01466\330"
  81      5B96982C 
  81      68984C36 
  81      06151C0C 
  81      3636D8
  82 004a 079B8E4D 		.ascii	"\007\233\216M\006\332\215\215\251\225m\016p\314\367"
  82      06DA8D8D 
  82      A9956D0E 
  82      70CCF7
  83 0059 DC539AB6 		.ascii	"\334S\232\266v\335n\340\366\336s\336\363\274\317\363"
  83      76DD6EE0 
  83      F6DE73DE 
  83      F3BCCFF3 
  84 0069 BCEF39D7 		.ascii	"\274\3579\327\302\030k\2621VB\277\257\320?\314\014\312"
  84      C2186BB2 
  84      315642BF 
  84      AFD03FCC 
  84      0CCA
  85 007b 8E938C55 		.ascii	"\216\223\214U\331\024p\371\300a\222\017&9\362\006\230"
  85      D91470F9 
  85      C061920F 
  85      2639F206 
  85      98
  86 008c 57E126D0 		.ascii	"W\341&\320\215E\256f\276\213\243\277>\324\255l\336\247"
  86      8D45AE66 
  86      BE8BA3BF 
  86      3ED4AD6C 
  86      DEA7
  87 009e D115FCF2 		.ascii	"\321\025\374\362\256\263J\253[\033\240\010_$\012\235"
  87      AEB34AAB 
  87      5B1BA008 
  87      5F240A9D 
  88 00ae D84C51E3 		.ascii	"\330LQ\343\265\337\006x\023\017p\300D\257\341Q\377\214"
  88      B5DF0678 
  88      130F70C0 
  88      44AFE151 
  88      FF8C
  89 00c0 43BC2A50 		.ascii	"C\274*P\351\365D\260\261#\235\257\002\243\347\231\306"
  89      E9F544B0 
  89      B1239DAF 
  89      02A3E799 
  89      C6
  90 00d1 85ABE979 		.ascii	"\205\253\351y{5\255Z\013\216\341\355\000\347\350\002"
  90      7B35AD5A 
  90      0B8EE1ED 
  90      00E7E802 
  91 00e1 27387C8F 		.ascii	"'8|\217\034\034@\016\243!\206\203\310\023\321\323\337"
  91      1C1C400E 
  91      A3218683 
  91      C813D1D3 
  91      DF
  92 00f2 2DB7DA2D 		.ascii	"-\267\332-&\231\016?\300\302@\017\035\247\315Am\371"
  92      26990E3F 
  92      C0C2400F 
  92      1DA7CD41 
  92      6DF9
  93 0104 7EBD16BC 		.ascii	"~\275\026\274\265\007;\337Z\003ZcR\350f\316\244\233"
ARM GAS  C:\Users\AMANRA~1\AppData\Local\Temp\ccItJTv4.s 			page 7


  93      B5073BDF 
  93      5A035A63 
  93      52E866CE 
  93      A49B
  94 0116 85B1060A 		.ascii	"\205\261\006\012\207\026d\215\\a\250\011\262\020\024"
  94      8716648D 
  94      5C61A809 
  94      B21014
  95 0125 81563DDD 		.ascii	"\201V=\3355\001\3560xT\035\035\013\247\345\266\033<"
  95      3501EE30 
  95      78541D1D 
  95      0BA7E5B6 
  95      1B3C
  96 0137 42F5DCAF 		.ascii	"B\365\334\257\005k\325\000\267\242;\236\214\241\361"
  96      056BD500 
  96      B7A23B9E 
  96      8CA1F1
  97 0146 107269C5 		.ascii	"\020ri\305@\337\3749\2533k\267\326F\2016\201qc|a\307"
  97      40DFFC39 
  97      AB336BB7 
  97      D6468136 
  97      8171637C 
  98 015c 2AEF3D8D 		.ascii	"*\357=\215\034I\303a8%\301\036x\331uT\037Z\030\236\332"
  98      1C49C361 
  98      3825C11E 
  98      78D97554 
  98      1F5A189E 
  99 0171 9513D550 		.ascii	"\225\023\325P+\035\\~Y\021p\206\026\037G\254F\034\201"
  99      2B1D5C7E 
  99      59117086 
  99      161F47AC 
  99      461C81
 100 0184 05BD0281 		.ascii	"\005\275\002\201n~\236IS\276\272\376SV\341c\272\021"
 100      6E7E9E49 
 100      53BEBAFE 
 100      5356E163 
 100      BA11
 101 0196 D9DD3D77 		.ascii	"\331\335=w\321J\371l4\240\013Gh\354@M\370\013\207\216"
 101      D14AF96C 
 101      34A00B47 
 101      68EC404D 
 101      F80B878E 
 102 01aa AF11E019 		.ascii	"\257\021\340\031\010\302\213>\301\232&\272\206&\227"
 102      08C28B3E 
 102      C19A26BA 
 102      862697
 103 01b9 6CAEFD22 		.ascii	"l\256\375\"\355\324\276\352\254\255\001*\300\217\320"
 103      EDD4BEEA 
 103      ACAD012A 
 103      C08FD0
 104 01c8 D12ABCA1 		.ascii	"\321*\274\241T\"f\361|M\235\"c\364rr\016\375p\265\022"
 104      542266F1 
 104      7C4D9D22 
 104      63F47272 
 104      0EFD70B5 
 105 01dd 2B631E03 		.ascii	"+c\036\003p\011!\376\341-\202Q,\035\213A\247\247\177"
 105      700921FE 
ARM GAS  C:\Users\AMANRA~1\AppData\Local\Temp\ccItJTv4.s 			page 8


 105      E12D8251 
 105      2C1D8B41 
 105      A7A77F
 106 01f0 74D02253 		.ascii	"t\320\"S\333\211/~\212d>[\177\341rF\004\265\013\302"
 106      DB892F7E 
 106      8A643E5B 
 106      7FE17246 
 106      04B50BC2 
 107 0204 D4A3465E 		.ascii	"\324\243F^%\202;\010\327\003\315\033\"\363\030\325\215"
 107      25823B08 
 107      D703CD1B 
 107      22F318D5 
 107      8D
 108 0215 336A4AAA 		.ascii	"3jJ\252\334\034j\247\232\232\007\322\215\331x\013\034"
 108      DC1C6AA7 
 108      9A9A07D2 
 108      8DD9780B 
 108      1C
 109 0226 3E426438 		.ascii	">Bd8F+b\271\255N\264j\265N\212\022\254\312\304\010Y"
 109      462B62B9 
 109      AD4EB46A 
 109      B54E8A12 
 109      ACCAC408 
 110 023b 351C21DC 		.ascii	"5\034!\334\033\036\231qPp\203\246\251\002\3408\321\225"
 110      1B1E9971 
 110      507083A6 
 110      A902E038 
 110      D195
 111 024d 744EC01B 		.ascii	"tN\300\033\340\217\021\213:\375`\363\372$$\326\370\270"
 111      E08F118B 
 111      3AFD60F3 
 111      FA2424D6 
 111      F8B8
 112 025f F0735492 		.ascii	"\360sT\222xh\326\223)\262\236\212f\035\2037VQ\226\241"
 112      7868D693 
 112      29B29E8A 
 112      661D8337 
 112      565196A1 
 113 0273 A866B16F 		.ascii	"\250f\261o\336!\375\312\322\205r\032[\030\277\331\220"
 113      DE21FDCA 
 113      D285721A 
 113      5B18BFD9 
 113      90
 114 0284 41D85599 		.ascii	"A\330U\231\001\3768N\023\370x\004\274fOg\035(\272\315"
 114      01FE384E 
 114      13F87804 
 114      BC664F67 
 114      1D28BACD 
 115 0298 00CFC299 		.ascii	"\000\317\302\231(\370Y!\351\011C\322|\363\226$\222\236"
 115      28F85921 
 115      E90943D2 
 115      7CF39624 
 115      929E
 116 02aa F4711349 		.ascii	"\364q\023I:\227\340kv\242\257\331\272\220\036\257p-"
 116      3A97E06B 
 116      76A2AFD9 
 116      BA901EAF 
ARM GAS  C:\Users\AMANRA~1\AppData\Local\Temp\ccItJTv4.s 			page 9


 116      702D
 117 02bc CE138989 		.ascii	"\316\023\211\211\244\012\263q!J\342gC\341\336A\377W"
 117      A40AB371 
 117      214AE267 
 117      43E1DE41 
 117      FF57
 118 02ce 1681BD0E 		.ascii	"\026\201\275\016\232f\303/\310\011\360\247D\311\365"
 118      9A66C32F 
 118      C809F0A7 
 118      44C9F5
 119 02dd A5667312 		.ascii	"\245fs\022fO\373\270\231\230]\224\314F\206vNB\254\316"
 119      664FFBB8 
 119      99985D94 
 119      CC468676 
 119      4E42ACCE 
 120 02f1 01F50A26 		.ascii	"\001\365\012&\305\352\365\242a}\263\273\333\035b\271"
 120      C5EAF5A2 
 120      617DB3BB 
 120      DB1D62B9 
 121 0301 9F2356C1 		.ascii	"\237#V\301\206D\005\033t\2414^\201\011\227I\301%\241"
 121      8644051B 
 121      74A1345E 
 121      81099749 
 121      C125A1
 122 0314 00BF125F 		.ascii	"\000\277\022_\242S\257&\341\362\214O\0344\230\372_\341"
 122      A253AF26 
 122      E1F28C4F 
 122      1C3498FA 
 122      5FE1
 123 0326 93DB7225 		.ascii	"\223\333r%\205-\323Q[f(\212\\\220\274g\357\\\351\266"
 123      852DD351 
 123      5B66288A 
 123      5C90BC67 
 123      EF5CE9B6 
 124 033a 4B775EC2 		.ascii	"Kw^\302oB\235jx\323\336\222\302\233\337%\237\266\231"
 124      6F429D6A 
 124      78D3DE92 
 124      C29BDF25 
 124      9FB699
 125 034d F031BBF4 		.ascii	"\3601\273\364\346\232\025!i\015)\321;Z^M.\306J\213\257"
 125      E69A1521 
 125      690D29D1 
 125      3B5A5E4D 
 125      2EC64A8B 
 126 0362 3EA2986B 		.ascii	">\242\230k)\304\314F\305\\\227bb+\340L\254\200S\027"
 126      29C4CC46 
 126      C55C9762 
 126      622BE04C 
 126      AC805317 
 127 0376 ACE3F137 		.ascii	"\254\343\3617b\216V\336H\300\027\301\270\031\005\377"
 127      628E56DE 
 127      48C017C1 
 127      B81905FF 
 128 0386 8342623C 		.ascii	"\203Bb<\351L\345\311\237$k\305\003\243=\366\267[e{("
 128      E94CE5C9 
 128      9F246BC5 
 128      03A33DF6 
ARM GAS  C:\Users\AMANRA~1\AppData\Local\Temp\ccItJTv4.s 			page 10


 128      B75B657B 
 129 039b B1E43625 		.ascii	"\261\3446%\222\333\244\213\022\307\2233#L\231\3772\332"
 129      92DBA48B 
 129      12C79333 
 129      234C99FF 
 129      32DA
 130 03ad E36FD91E 		.ascii	"\343o\331\036\237%k\217g}\364\211`\230\247\3242M\317"
 130      9F256B8F 
 130      677DF489 
 130      6098A7D4 
 130      324DCF
 131 03c0 37D367E0 		.ascii	"7\323g\340|W~=rE\364\347\241P8Mn\350\347pk\345\000\274"
 131      7C577E3D 
 131      7245F4E7 
 131      A150384D 
 131      6EE8E770 
 132 03d8 6DEC8C87 		.ascii	"m\354\214\207Zt\347A\026\375\023\265\350\256\330\350"
 132      5A74E741 
 132      16FD13B5 
 132      E8AED8E8 
 133 03e8 79863D87 		.ascii	"y\206=\207S\331\263 \253~\251w\342\276Y\266L\333m\206"
 133      53D9B320 
 133      AB7EA977 
 133      E2BE59B6 
 133      4CDB6D86 
 134 03fc C5959EA1 		.ascii	"\305\225\236\241\315\330\362|\362\3437\215V/=\342\311"
 134      CDD8F27C 
 134      F2E3378D 
 134      562F3DE2 
 134      C9
 135 040d F76F8A93 		.ascii	"\367o\212\223\357^\224\363\262<o\305\027\334$\276\000"
 135      EF5E94F3 
 135      B23C6FC5 
 135      17DC24BE 
 135      00
 136 041e 68105874 		.ascii	"h\020Xt\245m+\364\224\346\027\225\2251\224\231J\013"
 136      A56D2BF4 
 136      94E61795 
 136      95319499 
 136      4A0B
 137 0430 B7B9ED1F 		.ascii	"\267\271\355\037\274\367\216ZYR\356.,V\013\330\013\371"
 137      BCF78E5A 
 137      5952EE2E 
 137      2C560BD8 
 137      0BF9
 138 0442 F92EFA2B 		.ascii	"\371.\372+*\361l\365l\257(x\255\340E\327\366\012Wy\245"
 138      2AF16CF5 
 138      6CAF2878 
 138      ADE045D7 
 138      F60A5779 
 139 0457 CB535AF4 		.ascii	"\313SZ\364\321\307\305n\232)w\177\350\251\250,\3774"
 139      D1C7C56E 
 139      9A29777F 
 139      E8A9A82C 
 139      FF34
 140 0469 BF84AD7B 		.ascii	"\277\204\255{\337]\344\366|\342.V\337,\254,T=\025\352"
 140      DF5DE4F6 
ARM GAS  C:\Users\AMANRA~1\AppData\Local\Temp\ccItJTv4.s 			page 11


 140      7CE22E56 
 140      DF2CAC2C 
 140      543D15EA 
 141 047d EB6A6E85 		.ascii	"\353jn\205jOg\377\001(\247\370\365"
 141      6A4F67FF 
 141      0128A7F8 
 141      F5
 142              		.text
 143              		.section	.gnu.lto__ZL9hs_spicfg.4b6ab3fa,"",%progbits
 144 0000 789C6363 		.ascii	"x\234cc``X\000\304\214\014\0200\205\231qZ\353\241\363"
 144      60605800 
 144      C48C0C10 
 144      30859971 
 144      5AEBA1F3 
 145 0014 ECDDCC73 		.ascii	"\354\335\314s\230\201\202@\356\254\376O\307\270!\334"
 145      98818240 
 145      EEACFE4F 
 145      C7B821DC 
 146 0024 196C40FE 		.ascii	"\031l@\376\226#\307\3338@|FFF w\312\241\231WxA\\&\306"
 146      9623C7DB 
 146      38407C46 
 146      46462077 
 146      CAA19957 
 147 003d 86091D0D 		.ascii	"\206\011\035\015,\310\00603\242\230\307\002\346\236"
 147      2CC80630 
 147      33A298C7 
 147      02E69E
 148 004c D97DFC36 		.ascii	"\331}\3746\207\305\266\206\216\206\206\2049\314\254"
 148      87C5B686 
 148      8E868684 
 148      39CCAC
 149 005b 5381E6EE 		.ascii	"S\201\346\356`\224\231\0124n;\210bb\334\006\242\230"
 149      6094990A 
 149      346E3B88 
 149      6262DC06 
 149      A298
 150 006d 19B78228 		.ascii	"\031\267\202(\026\306- \212\225q3\243\014\003\343NF"
 150      16C62D20 
 150      8A957133 
 150      A30C03E3 
 150      4E46
 151 007f 0B0600BA 		.ascii	"\013\006\000\272B/\375"
 151      422FFD
 152              		.text
 153              		.section	.gnu.lto__ZL3chp.4b6ab3fa,"",%progbits
 154 0000 789C6363 		.ascii	"x\234cc``\220\007bn\006\010\230\302\314\270s\347\233"
 154      60609007 
 154      626E0608 
 154      98C2CCB8 
 154      73E79B
 155 0013 DBECF57F 		.ascii	"\333\354\365\177\033:\032\032\036t\377\024c\237\303"
 155      1B3A1A1A 
 155      1E74FF14 
 155      639FC3
 156 0022 CCB08019 		.ascii	"\314\260\200\031(\305\270\231\261\236\2013713O/\271"
 156      28C5B899 
 156      B19E8133 
ARM GAS  C:\Users\AMANRA~1\AppData\Local\Temp\ccItJTv4.s 			page 12


 156      3731334F 
 156      2FB9
 157 0034 A0800100 		.ascii	"\240\200\001\000\213\233\017\243"
 157      8B9B0FA3 
 158              		.text
 159              		.section	.gnu.lto_main.4b6ab3fa,"",%progbits
 160 0000 789C9556 		.ascii	"x\234\225V\337WTU\024>\337\234{g\3462\001V\232&c\222"
 160      DF575455 
 160      143EDF9C 
 160      7B67E632 
 160      01569A26 
 161 0016 65450FF2 		.ascii	"eE\017\362\320C\317=\367W\264z\252\265j\371\037\314"
 161      D043CF3D 
 161      F757B47A 
 161      AAB56AF9 
 161      1FCC
 162 0028 A50119C9 		.ascii	"\245\001\031\311%\324\222\211p\226\335\242\226\361\220"
 162      25D49289 
 162      7096DDA2 
 162      96F190
 163 0037 A6222360 		.ascii	"\246\"#`8\016*E\242B\240&h$\341\257\260\"\361\007?\247"
 163      380E2A45 
 163      A242A026 
 163      6824E1AF 
 163      B022F107 
 164 004d BDCFB9DC 		.ascii	"\275\317\271\334\031p@\232\265\346\314\275{\357\363"
 164      1970409A 
 164      B5E6CCBD 
 164      7BEFF3
 165 005c 7D7BEFF3 		.ascii	"}{\357\363\235s\306/\204x\337\022\"D\277o\322\027\246"
 165      9D73C62F 
 165      8478DF12 
 165      2244BF6F 
 165      D217A6
 166 006f 80AFEE9C 		.ascii	"\200\257\356\234\020\025A\037\244~\2200\364\203\241"
 166      1015411F 
 166      A47E9030 
 166      F483A1
 167 007e 2D6F4144 		.ascii	"-oAD|\322\000\015\302\375\354\222{$\372*\277O\310\217"
 167      7CD2000D 
 167      C2FDEC92 
 167      7B24FA2A 
 167      BF4FC88F 
 168 0092 65420A18 		.ascii	"eB\012\030\364:\321\3338Z\304\257@)\275&\367\366\275"
 168      F43AD1DB 
 168      385AC4AF 
 168      4029BD26 
 168      F7F6BD
 169 00a5 51B6DFA6 		.ascii	"Q\266\337\246O\352\263\206\300\276\226\013\266\225\220"
 169      4FEAB386 
 169      C0BE960B 
 169      B69590
 170 00b4 3E11A7E8 		.ascii	">\021\247\350\026\204q\004a\246?\2122A\301\327\017\315"
 170      16847104 
 170      61A63F8A 
 170      3241C1D7 
 170      0FCD
ARM GAS  C:\Users\AMANRA~1\AppData\Local\Temp\ccItJTv4.s 			page 13


 171 00c6 D717FA0D 		.ascii	"\327\027\372\015\366\222\261\025~\001z8\330o\246\354"
 171      F692B115 
 171      7E017A38 
 171      D86FA6EC 
 172 00d6 F94CB59D 		.ascii	"\371L\265\235:\365\025\366\276]\002\221\220\004\221"
 172      3AF515F6 
 172      BE5D0291 
 172      900491
 173 00e5 9086A4C1 		.ascii	"\220\206\244\3014x0\331\346\347!\300\216 \333,\036\204"
 173      347830D9 
 173      E6E721C0 
 173      8E20DB2C 
 173      1E84
 174 00f7 881118EC 		.ascii	"\210\021\030\354\224\330Is\020M\211qD\235\314\356\215"
 174      94D84973 
 174      104D8971 
 174      449DCCEE 
 174      8D
 175 0108 0A9E38DB 		.ascii	"\012\2368\333\332\306\207\002\2219;\230\220\376\270"
 175      DAC68702 
 175      91393B98 
 175      90FEB8
 176 0117 243E2411 		.ascii	"$>$\021\241\231\001\025\330T\033\316\037\350\243\300"
 176      A1990115 
 176      D8541BCE 
 176      1FE8A3C0 
 177 0127 635E60A5 		.ascii	"c^`\245\223\254}=O`0.\231\275\215\002\311\021\257J\237"
 177      93AC7D3D 
 177      4F60302E 
 177      99BD8D02 
 177      C911AF4A 
 178 013c 0F706B2C 		.ascii	"\017pk,,\211\263\034\256\230l-\321\211O\213\034\354"
 178      2C89B31C 
 178      AE986C2D 
 178      D1894F8B 
 178      1CEC
 179 014e 434216A0 		.ascii	"CB\026\240\003\021\264s\203\310\3219\3213ZD\3011\333"
 179      0311B473 
 179      83C8D139 
 179      D1335A44 
 179      C131DB
 180 0161 2E6580E3 		.ascii	".e\200\343p\240;\364\003\"\011\031\242$\252\234\216"
 180      70A03BF4 
 180      03220919 
 180      A224AA9C 
 180      8E
 181 0172 DA4D7992 		.ascii	"\332My\222x*.\015J\242S'\361D\326\023+\260\246<\326"
 181      782A2E0D 
 181      4AA25327 
 181      F144D613 
 181      2BB0A63C 
 182 0187 9388E456 		.ascii	"\223\210\344VT\270\264\242B\207{\271\030\273\010]\204"
 182      54B8B4A2 
 182      42877BB9 
 182      18BB085D 
 182      84
 183 0198 9D7E1CDB 		.ascii	"\235~\034\333i\005C\234\362\320OsM\305\342\016>j\277"
ARM GAS  C:\Users\AMANRA~1\AppData\Local\Temp\ccItJTv4.s 			page 14


 183      6905439C 
 183      F2D04F73 
 183      4DC5E20E 
 183      3E6ABF
 184 01ab 3DD7A48C 		.ascii	"=\327\244\214\215\022\253a8\223\303\320\221\356\356"
 184      8D12AB61 
 184      3893C3D0 
 184      91EEEE
 185 01ba 34CBBFB3 		.ascii	"4\313\277\263\211\202\262\227\350&\374z%^\374\210r\205"
 185      8982B297 
 185      E826FC7A 
 185      255EFC88 
 185      7285
 186 01cc 6E69685F 		.ascii	"nih_n-R\325r<\335{\306O\250\025\266\252}\015\361\343"
 186      6E2D52D5 
 186      723CDD7B 
 186      C64FA815 
 186      B6AA7D0D 
 187 01e2 271778A0 		.ascii	"'\027x\240\372\362\265\020\003+\227\201\036\005\314"
 187      FAF2B510 
 187      032B9781 
 187      1E05CC
 188 01f1 5AC5CF0A 		.ascii	"Z\305\317\0128\275\000,s\201\215|\300O\023;\316\272"
 188      38BD002C 
 188      73818D7C 
 188      C04F133B 
 188      CEBA
 189 0203 C01793ED 		.ascii	"\300\027\223\355\311B\002\256\244Z\236A\257\202\365"
 189      C94202AE 
 189      A45A9E41 
 189      AF82F5
 190 0212 31EC3905 		.ascii	"1\3549\005\033}\264\303\355\205\241\241Og\036\246\212"
 190      1B7DB4C3 
 190      ED85A1A1 
 190      4F671EA6 
 190      8A
 191 0223 19DA840F 		.ascii	"\031\332\204\017\347\011\204\250\007jT\314\377b\272"
 191      E70984A8 
 191      076A54CC 
 191      FF62BA
 192 0232 9065EA43 		.ascii	"\220e\352C9\301+MO\025\347Q\323\263q\336T\350\327j\352"
 192      39C12B4D 
 192      4F15E751 
 192      D3B371DE 
 192      54E8D76A 
 193 0247 E9FE6418 		.ascii	"\351\376d\030\234\300Z\320\031\201_\020N\310uz\3352"
 193      9CC05AD0 
 193      19815F10 
 193      4EC8757A 
 193      DD32
 194 0259 4D019DAB 		.ascii	"M\001\235\253\271\232u\033\310Y\267\326\356\341\231"
 194      B99A751B 
 194      C859B7D6 
 194      EEE199
 195 0268 A0D75E89 		.ascii	"\240\327^\211\301\354\272]\244>\220\322K\363$\366\\"
 195      C1ECBA5D 
 195      A43E90D2 
ARM GAS  C:\Users\AMANRA~1\AppData\Local\Temp\ccItJTv4.s 			page 15


 195      4BF324F6 
 195      5C
 196 0279 9C0E0081 		.ascii	"\234\016\000\201K\224\230\346\364\372\276^\365=:}\342"
 196      4B9498E6 
 196      F4FABE5E 
 196      F53D3A7D 
 196      E2
 197 028a 1EEB6D03 		.ascii	"\036\353m\003\031\034\256\225lS}wc!\356\320\232\204"
 197      191CAE95 
 197      6C537D77 
 197      6321EED0 
 197      9A84
 198 029c DC805F29 		.ascii	"\334\200_)\207\313n\016\321\257\217T\201\242\033T\016"
 198      87CB6E0E 
 198      D1AF8F54 
 198      81A21B54 
 198      0E
 199 02ad EB71C5D3 		.ascii	"\353q\305\323\346\020k\363y]c\354\033w=\374\253\251"
 199      E6106BF3 
 199      795D63EC 
 199      1B773DFC 
 199      ABA9
 200 02bf 7178056D 		.ascii	"qx\005m^\315\326xm\2616\003y\305\350_V\214\277e\305"
 200      5ECDD678 
 200      6DB13603 
 200      79C5E85F 
 200      568CBF65 
 201 02d4 38B2588C 		.ascii	"8\262X\214\301\274\232\010,\243\211\337\263\232\270"
 201      C1BC9A08 
 201      2CA389DF 
 201      B39AB8
 202 02e3 AED537BB 		.ascii	"\256\3257\273\240>Kc\035\356\212~\031\322\352\233\313"
 202      A03E4B63 
 202      1DEE8A7E 
 202      19D2EA9B 
 202      CB
 203 02f4 6432C518 		.ascii	"d2\305\030}\262\002\227c\373#\3136\306\012\264h\231"
 203      7DB20297 
 203      63FB23CB 
 203      36C60AB4 
 203      6899
 204 0306 77384956 		.ascii	"w8IV\303c+\2751N\207\256\300\015-\301\306\364L\227\305"
 204      C3632BBD 
 204      314E87AE 
 204      C00D2DC1 
 204      C6F44C97 
 205 031b 5994C08E 		.ascii	"Y\224\300\216\305l\0037\021&sMt\266G)3\014;\210[\312"
 205      C56C0337 
 205      1126734D 
 205      74B64729 
 205      330C3B88 
 206 0331 3652DD3F 		.ascii	"6R\335?\250\022\336\204F\023\267Y\254/(\236\261\265"
 206      A812DE84 
 206      4613B759 
 206      AC2F289E 
 206      B1B5
 207 0343 CBD3DCD1 		.ascii	"\313\323\334\3214{\322\237\017\024\2724uL\363\247\202"
ARM GAS  C:\Users\AMANRA~1\AppData\Local\Temp\ccItJTv4.s 			page 16


 207      347BD29F 
 207      0F14BA34 
 207      754CF3A7 
 207      82
 208 0354 3C397278 		.ascii	"<9rx\"\244i\014\214\323\215\226\203z\177\005\324\273"
 208      22A4690C 
 208      8CD38D96 
 208      837A7F05 
 208      D4BB
 209 0366 84EA42D4 		.ascii	"\204\352B\324L_\332\035\324\020A\374\225\205\240NN~"
 209      4C5FDA1D 
 209      D41041FC 
 209      9585A04E 
 209      4E7E
 210 0378 DB6CBAAD 		.ascii	"\333l\272\255\364\324\\\242\324\334\336t\353\206\314"
 210      F4D45CA2 
 210      D4DCDE74 
 210      EB86CC
 211 0387 76763363 		.ascii	"vv3c\341o\267\265CCmW\212\271\265\025\354+\305?\252"
 211      E16FB7B5 
 211      43436D57 
 211      8AB9B515 
 211      EC2BC53F 
 212 039c B9EE615F 		.ascii	"\271\356a_769\010\317\371\"&P^\317\027\004\373\016T"
 212      37363908 
 212      CFF92226 
 212      505ECF17 
 212      04FB0E54 
 213 03b0 B63E303D 		.ascii	"\266>0=\337\026\374\313>\223\027\345\036\312y=\277\330"
 213      DF16FCCB 
 213      3E9317E5 
 213      1ECA793D 
 213      BFD8
 214 03c2 D55CC049 		.ascii	"\325\\\300I\274D\347\315$\261q\231\315\353\226/\363"
 214      BC44E7CD 
 214      24B17199 
 214      CDEB962F 
 214      F3
 215 03d3 7EB64C6F 		.ascii	"~\266Lon\230\346>P\246\243\325g\017\025\350\365\000"
 215      6E98E63E 
 215      50A6A3D5 
 215      670F15E8 
 215      F500
 216 03e5 1E2E34AE 		.ascii	"\036.4\256\301n\031N\233y0_\216\313 a>Zr\233n]z\367"
 216      C16E194E 
 216      9B79305F 
 216      8ECB2061 
 216      3E5A729B 
 217 03fd 6C75B8D6 		.ascii	"lu\270\326\305\273\357\025L\323\356\233Zr\367p0f\274"
 217      C5BBEF15 
 217      4CD3EE9B 
 217      5A72F770 
 217      3066BC
 218 0410 AD3DAB2E 		.ascii	"\255=\253.\265\232\314\360\001\245\234Wq\254\000s*\323"
 218      B59ACCF0 
 218      01A59C57 
 218      71AC0073 
ARM GAS  C:\Users\AMANRA~1\AppData\Local\Temp\ccItJTv4.s 			page 17


 218      2AD3
 219 0422 8EE68337 		.ascii	"\216\346\2037\375Z\352\025\300\274\262-0\352\313\361"
 219      FD5AEA15 
 219      C0BCB22D 
 219      30EACBF1 
 220 0432 B5B8B434 		.ascii	"\265\270\2644J\206\210\266Q-e\324\267\235\224\011\035"
 220      4A8688B6 
 220      512D65D4 
 220      B79D9409 
 220      1D
 221 0443 8CEA6F47 		.ascii	"\214\352oG\245\263?\236\257,\367D\265}\021\357\000\345"
 221      A5B33F9E 
 221      AF2CF744 
 221      B57D11EF 
 221      00E5
 222 0455 7F2D064F 		.ascii	"\177-\006ODL\355d!\254\017\336y\357\303m\357n\337.\376"
 222      444CED64 
 222      21AC0FDE 
 222      79EFC36D 
 222      EF6EDF2E 
 223 046a 0399B110 		.ascii	"\003\231\261\020j"
 223      6A
 224              		.text
 225              		.section	.gnu.lto__GLOBAL__sub_I_flash.4b6ab3fa,"",%progbits
 226 0000 789C6D92 		.ascii	"x\234m\222\315k\023Q\024\305\357yo\222L\242f-4\213n"
 226      CD6B1351 
 226      14C5EF79 
 226      6F924CA2 
 226      662D348B 
 227 0015 2254C195 		.ascii	"\"T\301\225\177\200\377I(\"8Pk\250\331\350&/iK\243F"
 227      7F80FF49 
 227      28223850 
 227      6BA8D9E8 
 227      262F694B 
 228 002b 29A22984 		.ascii	")\242)\204A\206\026q\241X\305j\232Z\353\030\215V\301"
 228      41861671 
 228      A158C56A 
 228      9A5AEB18 
 228      8D56C1
 229 003e 4FEC4ADC 		.ascii	"O\354J\334\030(\370AkpW\261\361\336\027\22548\360\230"
 229      1828F841 
 229      6B7057B1 
 229      F1DE1795 
 229      3438F098 
 230 0052 77EF5C7E 		.ascii	"w\357\\~\347\314y/JDk\212h?\277\007xA\023\324\364+\242"
 230      E7CC792F 
 230      4A446B8A 
 230      683FBF07 
 230      784113D4 
 231 0069 82AB00D9 		.ascii	"\202\253\000\331\030\027\224W\310\243\254/i4\246\326"
 231      18179457 
 231      C8A3AC2F 
 231      6934A6D6 
 232 0079 EB6AE89A 		.ascii	"\353j\350\232\341'\234\251\356*\230\311\275\276&\252"
 232      E1279CA9 
 232      EE2A98C9 
 232      BDBE26AA 
ARM GAS  C:\Users\AMANRA~1\AppData\Local\Temp\ccItJTv4.s 			page 18


 233 0089 F0920777 		.ascii	"\360\222\007w0D<\366\351\366\366\345=Q\247\333\307\002"
 233      30443CF6 
 233      E9F6F6E5 
 233      3D51A7DB 
 233      C702
 234 009b A204DECC 		.ascii	"\242\004\336\314\277\213\204f\2733e\214r\024\371\232"
 234      BF8B8466 
 234      BB33658C 
 234      7214F99A 
 235 00ab 7B251E60 		.ascii	"{%\036`\025\023\322\031\255d7\036\322:\2240\336N\334"
 235      1513D219 
 235      AD64371E 
 235      D23A9430 
 235      DE4EDC
 236 00be F2F539ED 		.ascii	"\362\3659\355k\005\207\313\366\313j+)\245\306 \227\265"
 236      6B0587CB 
 236      F6CB6A2B 
 236      29A5C620 
 236      97B5
 237 00d0 D2DC8D84 		.ascii	"\322\334\215\204\336\015\231\334*6\227c\3519k\352\015"
 237      DE0D99DC 
 237      2A369763 
 237      E9396BEA 
 237      0D
 238 00e1 568DE36B 		.ascii	"V\215\343k\0075hV\307=\244p\027\251\256\273E\244q \365"
 238      07356856 
 238      C73DA470 
 238      17A9AEBB 
 238      45A47120 
 239 00f6 57E0C2F9 		.ascii	"W\340\302\371\353\345\210\036\260\210\315\346bY\365"
 239      EBE5881E 
 239      B088CDE6 
 239      6259F5
 240 0105 23EAFF41 		.ascii	"#\352\377A,!\315\343W\267~~\267\336\034t:\032\367\361"
 240      2C21CDE3 
 240      57B77E7E 
 240      B7DE1C74 
 240      3A1AF7F1 
 241 0119 0FFA636D 		.ascii	"\017\372cm\263\025\327\373,t\346\343\315Y\201N\027\031"
 241      B315D7FB 
 241      2C74E6E3 
 241      CD59814E 
 241      1719
 242 012b 5A50961A 		.ascii	"ZP\226\032\301\262P\261\223\372\300R\273\251M\210\211"
 242      C1B250B1 
 242      93FAC052 
 242      BBA94D88 
 242      89
 243 013c C322247E 		.ascii	"\303\"$~mz<\337\233*V\020\305C\016\225{\225\311\306"
 243      6D7A3CDF 
 243      9B2A5610 
 243      C5430E95 
 243      7B95C9C6 
 244 0150 EB983889 		.ascii	"\353\2308\211\332\221z\375\333\207X\376\227q\271\021"
 244      DA917AFD 
 244      DB8758FE 
 244      9771B911 
ARM GAS  C:\Users\AMANRA~1\AppData\Local\Temp\ccItJTv4.s 			page 19


 245 0160 48F8DC5B 		.ascii	"H\370\334[\030o_L\006\270\002_\307\360\210O2\024Y\376"
 245      186F5F4C 
 245      06B8025F 
 245      C7F0884F 
 245      321459FE 
 246 0174 B0D27ED1 		.ascii	"\260\322~\321J\362p\311\230`\376+\204\321@\000\213\306"
 246      4AF270C9 
 246      9860FE2B 
 246      84D14000 
 246      8BC6
 247 0186 63E4F99F 		.ascii	"c\344\371\237\212\203R\211?\242/(V>o\034\222FU\253^"
 247      8A835289 
 247      3FA22F28 
 247      563E6F1C 
 247      924655AB 
 248 019b 6DB75FDB 		.ascii	"m\267_\333\015\344pwj\003M\326~\"\332x\3122\302{\177"
 248      0DE47077 
 248      6A034DD6 
 248      7E22DA78 
 248      CA32C27B 
 249 01b0 D6AAF5B2 		.ascii	"\326\252\365\262\342\375\254x\3007\243\217\225\300*"
 249      E2FDAC78 
 249      C037A38F 
 249      95C02A
 250 01bf B39E59D6 		.ascii	"\263\236Y\326sf\261\0371\033\324*\220\274lp]\367R-I"
 250      7366B11F 
 250      311BD42A 
 250      90BC6C70 
 250      5DF7522D 
 251 01d4 B5F1A7B2 		.ascii	"\265\361\247\262\201\227\330\036_6\346\306\217\017{"
 251      8197D81E 
 251      5F36E6C6 
 251      8F0F7B
 252 01e3 A3078F64 		.ascii	"\243\007\217d\263\224\314d\274Q/\347\015\217x\247\217"
 252      B394CC64 
 252      BC512FE7 
 252      0D8F78A7 
 252      8F
 253 01f4 66B2894C 		.ascii	"f\262\211L&;\346\235\030\363r\247\234\3341\357\344o"
 253      263BE69D 
 253      18F372A7 
 253      9CDC31EF 
 253      E46F
 254 0206 C8F2EF36 		.ascii	"\310\362\3576"
 255              		.text
 256              		.section	.gnu.lto_data.4b6ab3fa,"",%progbits
 257 0000 789C6363 		.ascii	"x\234cc``\320\006b\037\006\010\230\302\314\270\347\351"
 257      6060D006 
 257      621F0608 
 257      98C2CCB8 
 257      E7E9
 258 0012 87553C8A 		.ascii	"\207U<\212L\363\033f(\314a\006\213,[\260\342\007o\375"
 258      4CF31B66 
 258      28CC6106 
 258      8B2C5BB0 
 258      E2076FFD 
 259 0026 DF068939 		.ascii	"\337\006\2119\314\214\214\233\031\025\031\030\030\267"
ARM GAS  C:\Users\AMANRA~1\AppData\Local\Temp\ccItJTv4.s 			page 20


 259      CC8C8C9B 
 259      19151918 
 259      18B7
 260 0034 30D63378 		.ascii	"0\3263x\205d\244*\004\207\370\032\033)x\230\353\026"
 260      8564A42A 
 260      0487F81A 
 260      1B297898 
 260      EB16
 261 0046 A71665A6 		.ascii	"\247\026e\246\026+d\026+$*\244\027\345\227\026(\344"
 261      162B6416 
 261      2B242AA4 
 261      17E59716 
 261      28E4
 262 0058 A7296464 		.ascii	"\247)dd\246g(\024\244\026\245\345\027\345&\346%\303"
 262      A6672814 
 262      A416A5E5 
 262      17E526E6 
 262      25C3
 263 006a 94E76626 		.ascii	"\224\347f&\027\345'\347\347\225\024\345\347\344\244"
 263      17E527E7 
 263      E79514E5 
 263      E7E4A4
 264 0079 16293000 		.ascii	"\026)0\000\000\263\313(\303"
 264      00B3CB28 
 264      C3
 265              		.text
 266              		.section	.gnu.lto_.symbol_nodes.4b6ab3fa,"",%progbits
 267 0000 789C5592 		.ascii	"x\234U\222\311N\3030\020\206'\277\2334\335\240\354;"
 267      C94EC330 
 267      108627BF 
 267      9B34DDA0 
 267      EC3B
 268 0012 547D12DE 		.ascii	"T}\022\336lR)\242R+!\036\000\011*\365!P\317\271\001"
 268      6C5229A2 
 268      522B211E 
 268      00092AF5 
 268      2150CFB9 
 269 0027 65AFD869 		.ascii	"e\257\330i\301\354\275\360\002\024\307N*|\361|\372\306"
 269      C1ECBDF0 
 269      0214C74E 
 269      2A7CF17C 
 269      FAC6
 270 0039 F37B0EF6 		.ascii	"\363{\016\366\210h\027\352\300\025\230h\247K\244\312"
 270      886817EA 
 270      C0159868 
 270      A74BA4CA 
 271 0049 C17E2BF0 		.ascii	"\301~+\360\210\334!\374\212\352\271\257 ]\017!\202*"
 271      88DC21FC 
 271      8AEAB9AF 
 271      205D0F21 
 271      822A
 272 005b 91708F80 		.ascii	"\221p\217\200Z56'\310\0318\206c\340\002y}\007=\260\223"
 272      5A353627 
 272      C8193886 
 272      63E00279 
 272      7D073DB0 
 273 0070 06768296 		.ascii	"\006v\202\226\243z\367\360t\316#\262\272\016\340\352"
ARM GAS  C:\Users\AMANRA~1\AppData\Local\Temp\ccItJTv4.s 			page 21


 273      A37AF7F0 
 273      74CE23B2 
 273      BA0EE0EA 
 274 0080 7A898C99 		.ascii	"z\211\214\231\271\006c\274D\320\252\251%F#\341vQ0\341"
 274      B90663BC 
 274      44D0AAA9 
 274      254623E1 
 274      765130E1 
 275 0094 E7281A38 		.ascii	"\347(\0328C\311\300)&48\337`\241G\211\202`S\211'p\306"
 275      43C9C029 
 275      263438DF 
 275      60A14789 
 275      82605389 
 276 00ab 125F60D7 		.ascii	"\022_`\327\022\237`\317\022\037\340\254%\336\301\276"
 276      129F60CF 
 276      121FE0AC 
 276      25DEC1BE 
 277 00bb 25DEC039 		.ascii	"%\336\3009KHp\336\022/\340\202%\236\301EK\364\301%K"
 277      4B4870DE 
 277      122FE082 
 277      259EC145 
 277      4BF4C125 
 278 00d0 3C80272C 		.ascii	"<\200',q\007\236\264\304-\270l\211\033\360\324\177!"
 278      71079EB4 
 278      C42DB86C 
 278      891BF0D4 
 278      7F21
 279 00e2 6889C256 		.ascii	"h\211\302V\257Y\207\240Ej'\264@QB3$\023\232\247\366"
 279      AF5987A0 
 279      456A27B4 
 279      40514233 
 279      24139AA7 
 280 00f7 96ECFC54 		.ascii	"\226\354\374Tb\027%4Gr\354\302\272\241Y\212\352\251"
 280      62172534 
 280      4772ECC2 
 280      BAA1598A 
 280      EAA9
 281 0109 93094D53 		.ascii	"\223\011MS\330\320\244\276E\273\377[s\204\277A\221\201"
 281      D8D0A4BE 
 281      45BBFF5B 
 281      7384BF41 
 281      9181
 282 011b 759206D6 		.ascii	"u\222\006\326(\034h\210\363\207{e\341\257\252P\015+"
 282      281C6888 
 282      F3877B65 
 282      E1AFAA50 
 282      0D2B
 283 012d 14351290 		.ascii	"\0245\022\220)\204\315\264e`\231\244\001\265\312v\374"
 283      2984CDB4 
 283      656099A4 
 283      01B5CA76 
 283      FC
 284 013e 18FD0180 		.ascii	"\030\375\001\200.\263\213"
 284      2EB38B
 285              		.text
 286              		.section	.gnu.lto_.refs.4b6ab3fa,"",%progbits
 287 0000 789C0DC3 		.ascii	"x\234\015\303\333\015\300 \014\004\301c\261\015\346"
ARM GAS  C:\Users\AMANRA~1\AppData\Local\Temp\ccItJTv4.s 			page 22


 287      DB0DC020 
 287      0C04C163 
 287      B10DE6
 288 000f A5FCD156 		.ascii	"\245\374\321V\372\257&\031iB\322\373_R\001\014\234\352"
 288      FAAF2619 
 288      6942D2FB 
 288      5F52010C 
 288      9CEA
 289 0021 58C83B96 		.ascii	"X\310;\226\330$\246\332&\016<\245\221\331\311J\032\303"
 289      D824A6DA 
 289      260E3CA5 
 289      91D9C94A 
 289      1AC3
 290 0033 345C6332 		.ascii	"4\\c2\227\306f]t\331:^<\364\001Z\335\002\034"
 290      97C6665D 
 290      74D93A5E 
 290      3CF4015A 
 290      DD021C
 291              		.text
 292              		.section	.gnu.lto_.decls.4b6ab3fa,"",%progbits
 293 0000 789CECBD 		.ascii	"x\234\354\275y\\U\331\225?\312\271\373\316\334\013\025"
 293      795C55D9 
 293      953FCAB9 
 293      FBCEDC0B 
 293      15
 294 0011 3549A562 		.ascii	"5I\245b\247\253\323\266\241;I9\224I*\375~\277~]Qk\350"
 294      A7ABD3B6 
 294      A13B4939 
 294      94492AFD 
 294      7EBF7E5D 
 295 0028 AEE9A9D5 		.ascii	"\256\351\251\325\235\244\253\233v\240\252\354vj\300"
 295      9DA4AB9B 
 295      76A0AAEC 
 295      766AC0
 296 0037 4AE5FDDE 		.ascii	"J\345\375\336\347\327\227I@d\024\225Q&\021\020\020P"
 296      E7D79749 
 296      40641495 
 296      51261110 
 296      1050
 297 0049 10104426 		.ascii	"\020\020D&Qf\004\005\231\021e\236\004\024\005\004~k"
 297      51660405 
 297      9911659E 
 297      04140504 
 297      7E6B
 298 005b 0FE79EE1 		.ascii	"\017\347\236\341\336kL\377\352\275\277\236U\213{\326"
 298      DE6B4CFF 
 298      EABDBF9E 
 298      558B7BD6 
 299 006b 39DFB3F6 		.ascii	"9\337\263\366\332k\257\275\366p\366\331Gmgg\367q\271"
 299      DA6BAFBD 
 299      F670F6D9 
 299      476D6767 
 299      F771B9
 300 007e 9DDDD06B 		.ascii	"\235\335\320kvvk\225vv+\360O\003\347\312\200V\0039\003"
 300      76766B95 
 300      76762BF0 
 300      4F03E7CA 
ARM GAS  C:\Users\AMANRA~1\AppData\Local\Temp\ccItJTv4.s 			page 23


 300      80560339 
 301 0093 0528ECEC 		.ascii	"\005(\354\354N\001E\003\305\000%\001\245\002]\207k\377"
 301      4E014503 
 301      C5002501 
 301      A5025D87 
 301      6BFF
 302 00a5 09BF5940 		.ascii	"\011\277Y@\277\201\343\037\001]\202\343_\001\345\002"
 302      BF81E31F 
 302      015D82E3 
 302      5F01E502 
 303 00b5 E503B582 		.ascii	"\345\003\265\202\314\006\225\235]#\020\376\267\012\350"
 303      CC06959D 
 303      5D2310FE 
 303      B70AE8
 304 00c4 0E1CB701 		.ascii	"\016\034\267\001u\000u\001\365\001\315\003qj;;%\220"
 304      75007501 
 304      F501CD03 
 304      716A3B3B 
 304      2590
 305 00d6 1EC811E8 		.ascii	"\036\310\021\350[@k\201~\010\364#\240\237\000m\004\332"
 305      5B406B81 
 305      7E08F423 
 305      A09F006D 
 305      04DA
 306 00e8 0CB40563 		.ascii	"\014\264\005c@\326\317\341\367-\240\277\006\372\357"
 306      40D6CFE1 
 306      F72DA0BF 
 306      06FAEF
 307 00f7 407F0BF4 		.ascii	"@\177\013\364+\240m@\357\000%\001%\003\245\002\245\003"
 307      2BA06D40 
 307      EF002501 
 307      2503A502 
 307      A503
 308 0109 65026501 		.ascii	"e\002e\001\345\250\355$\377\322\354\355\354\234\340"
 308      E5A8ED24 
 308      FFD2ECED 
 308      EC9CE0
 309 0118 F75F998E 		.ascii	"\367_\231\216kX\336u\240\377\034\350V\313\331\331\271"
 309      6B58DE75 
 309      A0FF1CE8 
 309      56CBD9D9 
 309      B9
 310 0129 035D81FB 		.ascii	"\003]\201\373\362\201\012\200\022\201\374\201\352\340"
 310      F2810A80 
 310      1281FC81 
 310      EAE0
 311 0137 BC9F82DA 		.ascii	"\274\237\202\332\351\004\220?P\241\232\332\306\004\344"
 311      E904903F 
 311      50A19ADA 
 311      C604E4
 312 0146 00C757D5 		.ascii	"\000\307W\325\324f\347\231\335t\300\027\251\251]{A~"
 312      D466E799 
 312      DD74C017 
 312      A9A95D7B 
 312      417E
 313 0158 311C5FC3 		.ascii	"1\034_\303:\251\251}\023\201J\340\370\272Z\260\3733"
 313      3AA9A97D 
ARM GAS  C:\Users\AMANRA~1\AppData\Local\Temp\ccItJTv4.s 			page 24


 313      13814AE0 
 313      F8BA5AB0 
 313      FB33
 314 016a C02180C4 		.ascii	"\300!\200\304\3009\037\240\247\220\256\236\331\263\222"
 314      C0391FA0 
 314      A790AE9E 
 314      D9B392
 315 0179 D9CB91D9 		.ascii	"\331\313\221\331\017\333\024\333\022\333t\236\331\031"
 315      0FDB14DB 
 315      12DB749E 
 315      D919
 316 0187 972BB6C7 		.ascii	"\227+\266\307\317\231\255\376\232\331\346-f\037\361"
 316      CF99ADFE 
 316      9AD9E62D 
 316      661FF1
 317 0196 BFFF6120 		.ascii	"\277\377a \252\3309\260\262\305e\352\013\364w,O\370"
 317      AAD839B0 
 317      B2C565EA 
 317      0BF4772C 
 317      4FF8
 318 01a8 5A08FC1E 		.ascii	"Z\010\374\036\003\362\001\362\006\362\002\362P\330Y"
 318      03F201F2 
 318      06F202F2 
 318      50D859
 319 01b7 FDF77F19 		.ascii	"\375\367\177\031A\027;\352\013\374?\314o\223\245\233"
 319      41173BEA 
 319      0BFC3FCC 
 319      6F93A59B 
 320 01c7 05E5F057 		.ascii	"\005\345\360W\2422\370-P1\224A\033\242\376u\003\360"
 320      A232F82D 
 320      50319441 
 320      1BA2FE75 
 320      03F0
 321 01d9 ED20A34A 		.ascii	"\355 \243JMe\325\003m\200\343\233j\352c\005@?\306\266"
 321      4D65D503 
 321      6D80E39B 
 321      6AEA6305 
 321      403FC6B6 
 322 01ed 847BA2E0 		.ascii	"\204{\242\340\236\026;\251\235o\251\251O\266\001\255"
 322      9E163BA9 
 322      9D6FA9A9 
 322      4FB601AD 
 323 01fd 87E36AB5 		.ascii	"\207\343j\265\324_\377\014\370\037\303\357F\240\032"
 323      D45FFF0C 
 323      F81FC3EF 
 323      46A01A
 324 020c 38AE5553 		.ascii	"8\256US\033\324\251\251\237_d\366\300~\376}5\265C1\310"
 324      1BD4A9A9 
 324      9F5F64F6 
 324      C07EFE7D 
 324      35B54331 
 325 0221 2D0379B9 		.ascii	"-\003y\271\220\336\0068\277\011\350\027\012Z6\330\317"
 325      90DE0638 
 325      BF09E817 
 325      0A5A36D8 
 325      CF
 326 0232 B7309FDD 		.ascii	"\2670\237\335\310|\030\227\315\217\230_c\377\306\345"
ARM GAS  C:\Users\AMANRA~1\AppData\Local\Temp\ccItJTv4.s 			page 25


 326      C87C1897 
 326      CD8F985F 
 326      63FFC6E5 
 327 0242 A7B4137C 		.ascii	"\247\264\023|\366W\314\217\305\377\362\300.\366\314"
 327      F657CC8F 
 327      C5FFF2C0 
 327      2EF6CC
 328 0251 3F2FA8A5 		.ascii	"?/\250\245\366\251\027\371V\203\232\372\022\366[\374"
 328      F6A917F9 
 328      56839AFA 
 328      12F65BFC 
 329 0261 0F1707AE 		.ascii	"\017\027\007\256gw\324\324w\376\232\325\203d\231\374"
 329      6777D4D4 
 329      77FE9AD5 
 329      836499FC 
 330 0271 7F34322C 		.ascii	"\17742,\234\357\224]\023\377\013G\334m\357\354\030\024"
 330      9CEF945D 
 330      13FF0B47 
 330      DC6DEFEC 
 330      1814
 331 0283 80B8557A 		.ascii	"\200\270UzN\011\354t}\324\003\007`\327\350\271\327\201"
 331      4E09EC74 
 331      7DD40307 
 331      60D7E8B9 
 331      D781
 332 0295 8D9EED1E 		.ascii	"\215\236\355\036\321\321\253N\230\315I\0374 \005\207"
 332      D1D1AB4E 
 332      98CD491F 
 332      34200587 
 333 02a5 6FECBE95 		.ascii	"o\354\276\225\226\216o\374\221\236\303a\306\021Ne\215"
 333      968E6FFC 
 333      919EC361 
 333      C6114E65 
 333      8D
 334 02b6 17CE1BE9 		.ascii	"\027\316\033\351)\214\250\274\222\336\202\220\201\034"
 334      298CA8BC 
 334      92DE8290 
 334      811C
 335 02c4 1FCF1B1A 		.ascii	"\037\317\033\032\324\274\221a\242\377\264?\265\343\012"
 335      D4BC9161 
 335      A2FFB43F 
 335      B5E30A
 336 02d3 39C4EBD0 		.ascii	"9\304\353\320\034<sN\203^\307@Eo\373b\227\003\247w\362"
 336      1C3C734E 
 336      835EC740 
 336      456FFB62 
 336      9703A777 
 337 02e8 33993C4D 		.ascii	"3\231<M\361^&\335{v\\.\267\226\273\314\255\265\343\256"
 337      F15E26DD 
 337      7B765C2E 
 337      B796BBCC 
 337      ADB5E3AE 
 338 02fc 714E201C 		.ascii	"qN \034|\255\000\316\344\303\231\363XZi\357\223\037"
 338      7CAD00CE 
 338      E4C399F3 
 338      585A69EF 
 338      931F
ARM GAS  C:\Users\AMANRA~1\AppData\Local\Temp\ccItJTv4.s 			page 26


 339 030e 85FA9A4C 		.ascii	"\205\372\232L\012\256\230\323sE\034\342\256ro`\217\304"
 339      0AAE98D3 
 339      73451CE2 
 339      AE726F60 
 339      8FC4
 340 0320 502C3FED 		.ascii	"P,?\355\\h\242\032\205q$\201\242\350\201\033\012[\011"
 340      5C68A21A 
 340      85712481 
 340      A2E8811B 
 340      0A5B09
 341 0333 94DA4820 		.ascii	"\224\332H \375\207U>8\201\353\220@\211\220\000\244G"
 341      FD87553E 
 341      3881EB90 
 341      40899000 
 341      A447
 342 0345 53E0CDB6 		.ascii	"S\340\315\266\212\232\255\300\2533\206COI\202\334\244"
 342      8A9AADC0 
 342      AB338643 
 342      4F4982DC 
 342      A4
 343 0356 F7409F3D 		.ascii	"\367@\237=5\351\253\300F\025=\256QQ\250\026\330\342"
 343      35E9ABC0 
 343      46153DAE 
 343      5151A816 
 343      D8E2
 344 0368 7BB30B3A 		.ascii	"{\263\013:\264D\241Y>\017\323\264pm-\330\224\023\031"
 344      B444A159 
 344      3E0FD3B4 
 344      706D2DD8 
 344      941319
 345 037b 742D3568 		.ascii	"t-5hn\351l\246\022y\023\373+r2\037\376\033\347\244\347"
 345      6EE96CA6 
 345      127913FB 
 345      2B72321F 
 345      FE1BE7A4 
 346 0390 2DF09D02 		.ascii	"-\360\235\002\223\351\025\256\006\364\273%\350\267\026"
 346      93E915AE 
 346      06F4BB25 
 346      E8B716
 347 039f AB47326A 		.ascii	"\253G2jJ2\241W\355\2707\327r\033!\233\325\220M|\215"
 347      4A32A157 
 347      EDB837D7 
 347      721B219B 
 347      D5904D7C 
 348 03b4 BB09D9AC 		.ascii	"\273\011\331\254\202lb#\305\245V\032Q\020\025\336\223"
 348      826C6223 
 348      C5A5561A 
 348      511015DE 
 348      93
 349 03c5 39D58004 		.ascii	"9\325\200\004\351\351?\274L\262_\017\342k\005\3615\234"
 349      E9E93FBC 
 349      4CB25F0F 
 349      E26B05F1 
 349      359C
 350 03d7 0DF97556 		.ascii	"\015\371uV\3447?\252\213efx\005\330\304\323\013\355"
 350      E4373FAA 
 350      8B656678 
ARM GAS  C:\Users\AMANRA~1\AppData\Local\Temp\ccItJTv4.s 			page 27


 350      05D8C4D3 
 350      0BED
 351 03e9 F6E834F5 		.ascii	"\366\3504\365\245\202\305\347C\006\024O\231\216\307"
 351      A582C5E7 
 351      4306144F 
 351      998EC7
 352 03f8 BE39F6E8 		.ascii	"\2769\366\350<e\226\262[\226u(\2032\021\3159\333\365"
 352      3C6596B2 
 352      5B967528 
 352      833211CD 
 352      39DBF5
 353 040b 909CD71F 		.ascii	"\220\234\327\037.7@\327\015\373\336W\033\216\233\213"
 353      2E3740D7 
 353      0DFBDE57 
 353      1B8E9B8B 
 354 041b 996B01ED 		.ascii	"\231k\001\355\371;\354\270;\234\201\271_\341\350\300"
 354      F93BECB8 
 354      3B9C81B9 
 354      5FE1E8C0 
 355 042b 57288726 		.ascii	"W(\207&\301k\271\212j\3519^?\254B\005\364\332\303\347"
 355      C16BB98A 
 355      6AE9395E 
 355      3FAC4205 
 355      F4DAC3E7 
 356 043f 374EA850 		.ascii	"7N\250P1e\356\027\017\307\350P\031e\302r\357\245jP\025"
 356      3165EE17 
 356      0FC7E850 
 356      1965C272 
 356      EFA56A50 
 357 0454 65CE5CCB 		.ascii	"e\316\\\313(\323\243\032\3124]\355\033p@\215\224\251"
 357      28D3A31A 
 357      CA345DED 
 357      1B70408D 
 357      94A9
 358 0466 5F4A28D1 		.ascii	"_J(\321\243f\312\364\226648\242!\205\304GVQ\037\311"
 358      A366CAF4 
 358      96363438 
 358      A22185C4 
 358      4756511F 
 359 047b 2EF69E60 		.ascii	".\366\236`\265\260\024\374\300\276\276\260!\323\236"
 359      B5B014FC 
 359      C0BEBEB0 
 359      21D39E
 360 048a 5BB7DA69 		.ascii	"[\267\332i\365:\374\317\311)\321\344\355e*m\353}\275"
 360      F53AFCCF 
 360      C929D1E4 
 360      ED652A6D 
 360      EB7DBD
 361 049d A779D8CF 		.ascii	"\247y\330\317\024f y\273\007%\323\317\255\026\254\322"
 361      14662079 
 361      BB0725D3 
 361      CFAD16AC 
 361      D2
 362 04ae 4A32BA09 		.ascii	"J2\272\011\376\330\205\342\202\014\001\342\224v\\\037"
 362      FED885E2 
 362      820C01E2 
 362      94765C1F 
ARM GAS  C:\Users\AMANRA~1\AppData\Local\Temp\ccItJTv4.s 			page 28


 363 04be 007A3160 		.ascii	"\000z1`\014\314\206\357\200\362\344F\341x\204[\307\015"
 363      0CCC86EF 
 363      80F2E446 
 363      E178845B 
 363      C70D
 364 04d0 030D010D 		.ascii	"\003\015\001\015\002\335\007\032\000z\3009\221\272J"
 364      02DD071A 
 364      007AC039 
 364      91BA4A
 365 04df DDA1A75B 		.ascii	"\335\241\247[aJ\324r\017\271\325v\370n\354\011\364\347"
 365      614AD472 
 365      0FB9D576 
 365      F86EEC09 
 365      F4E7
 366 04f1 9B4984E6 		.ascii	"\233I\204\346\255\241gUb\222\351\326F\222\2636\3539"
 366      ADA16755 
 366      6292E9D6 
 366      4692B336 
 366      EB39
 367 0503 CBC57F19 		.ascii	"\313\305\177\031~\341\237\243<K\275\021\201\267\313"
 367      7EE19FA3 
 367      3C4BBD11 
 367      81B7CB
 368 0512 E19516F0 		.ascii	"\341\225\026\360\031\021\274\303:|\223\200\036\025\241"
 368      1911BCC3 
 368      3A7C9380 
 368      1E15A1
 369 0521 3BE5E80D 		.ascii	";\345\350\015r\331\375\"t\227U4\021}\336\024\317\214"
 369      72D9FD22 
 369      74975534 
 369      117DDE14 
 369      CF8C
 370 0533 195FCA11 		.ascii	"\031_\312\021\013\262z%X\272\265G\015\301\222\010\350"
 370      0BB27A25 
 370      58BAB547 
 370      0DC19208 
 370      E8
 371 0544 31573B3B 		.ascii	"1W;;\256\033\207Np\223\374\033^7%\036.N\311\216\033"
 371      AE1B874E 
 371      7093FC1B 
 371      5E37251E 
 371      2E4EC98E 
 372 0559 377B78F4 		.ascii	"7{x\364\303\2451\007t\005\021_\033H\037\211\265G\265"
 372      C3A53107 
 372      7405115F 
 372      1B481F89 
 372      B547B5
 373 056c 94591C0E 		.ascii	"\224Y\034\016o\347\250\343\031\260\277\027\265\207:"
 373      6FE7A8E3 
 373      19B0BF17 
 373      B5873A
 374 057b 52C7EB83 		.ascii	"R\307\353\203\313\366C\251\023\005\032\216\271\035\370"
 374      CBF643A9 
 374      13051A8E 
 374      B91DF8
 375 058a DD6AAAD7 		.ascii	"\335j\252\327\323E\247\361&\223\337\237q\213X\353\031"
 375      D345A7F1 
ARM GAS  C:\Users\AMANRA~1\AppData\Local\Temp\ccItJTv4.s 			page 29


 375      2693DF9F 
 375      718B58EB 
 375      19
 376 059b EA033396 		.ascii	"\352\0033\226>\360\010t\231\302\271^\200r\237a>0\017"
 376      3EF00874 
 376      99C2B95E 
 376      80729F61 
 376      3E300F
 377 05ae C7CFA0BC 		.ascii	"\307\317\240\274\237\002\315\001=\001z\0144\0134m\366"
 377      9F02CD01 
 377      3D017A0C 
 377      340B346D 
 377      F6
 378 05bf 01C853E9 		.ascii	"\001\310S\351\344\304*\257$S\304F\022wn\200\001\260"
 378      E4C42AAF 
 378      2453C446 
 378      12776E80 
 378      01B0
 379 05d1 08166268 		.ascii	"\010\026bh\031U0\263ct\377\301\010\317R\017D\300\215"
 379      195530B3 
 379      6374FFC1 
 379      08CF520F 
 379      44C08D
 380 05e4 D6C00D22 		.ascii	"\326\300\015\"p\263\010\334d\015\374\246\200-\027ao"
 380      70B308DC 
 380      640DFCA6 
 380      802D1761 
 380      6F
 381 05f5 5BC36E12 		.ascii	"[\303n\022\260\203\343k\222\210\333Bx\341\232\031\330"
 381      B083E36B 
 381      9288DB42 
 381      78E19A19 
 381      D8
 382 0606 BAAB6078 		.ascii	"\272\253`x\307\001\352*PT\334]\253h\221\253\264\216"
 382      C701EA2A 
 382      5054DC5D 
 382      AB6891AB 
 382      B48E
 383 0618 BFE269F2 		.ascii	"\277\342i\362~\225\030\332\302U\346&\210\253`\001\223"
 383      7E9518DA 
 383      C255E626 
 383      88AB6001 
 383      93
 384 0629 225799C0 		.ascii	"\"W\231\300\256\362\315\224\011n\273\346\237\204\350"
 384      AEF2CD94 
 384      096EBBE6 
 384      9F84E8
 385 0638 5633717E 		.ascii	"V3q~6\305\331\275\214\254\264\342\374\002\215\330y\237"
 385      36C5D9BD 
 385      8CACB4E2 
 385      FC028DD8 
 385      799F
 386 064a 4B9C77C9 		.ascii	"K\234w\311\354\274\211i\376\261Z\024\245$\376\372 \372"
 386      ECBC8969 
 386      FEB15A14 
 386      A524FEFA 
 386      20FA
ARM GAS  C:\Users\AMANRA~1\AppData\Local\Temp\ccItJTv4.s 			page 30


 387 065c EA3D258A 		.ascii	"\352=%\212\247L\320\365[\035\016\350\034e\356\204t\005"
 387      A74CD0F5 
 387      5B1D0EE8 
 387      1C65EE84 
 387      7405
 388 066e D9A30B94 		.ascii	"\331\243\013\224)|\320pL\213.Q\346\366\351\230A-*\244"
 388      297CD070 
 388      4C8B2E51 
 388      E6F6E998 
 388      412D2AA4 
 389 0682 CCC380D3 		.ascii	"\314\303\200\323\236\012TJ\231\311'\307\373\225\250"
 389      9E0A544A 
 389      99C927C7 
 389      FB95A8
 390 0691 8A323351 		.ascii	"\21223QUczT\315\244\025\336\365\263Gu\224\361\313\311"
 390      55637A54 
 390      CDA415DE 
 390      F5B34775 
 390      94F1CBC9 
 391 06a5 89B0474D 		.ascii	"\211\260GM\224\351Y^\\\321\240;\224\311\313\215\216"
 391      94E9595E 
 391      5CD1A03B 
 391      94C9CB8D 
 391      8E
 392 06b6 50A37ECA 		.ascii	"P\243~\312<+\276\235\250\240ui\035\260\027J\003n!Z\227"
 392      3C2BBE9D 
 392      A8A07569 
 392      1DB0174A 
 392      036E215A 
 393 06cb E215E1C8 		.ascii	"\342\025\341\310\341bc\371-\245\020\304%q|KQ\322\361"
 393      E16263F9 
 393      2DA510C4 
 393      25717C4B 
 393      51D2F1
 394 06de 408FF872 		.ascii	"@\217\370r\216\004\015\037\005\344Ma#~I\012\363\204"
 394      8E040D1F 
 394      05E44D61 
 394      237E490A 
 394      F384
 395 06f0 622D17A0 		.ascii	"b-\027\240\000D\224\302\211\334\202\0133\022\216#\024"
 395      004494C2 
 395      89DC820B 
 395      33128E23 
 395      14
 396 0701 EBB83340 		.ascii	"\353\2703@\247\201\002\201N\001\205\003\235\004\012"
 396      A7810281 
 396      4E018503 
 396      9D040A
 397 0710 030A050A 		.ascii	"\003\012\005\012V\210\243zC\021\362\210\367\346\270"
 397      5688A37A 
 397      4311F288 
 397      F7E6B8
 398 071f 10057817 		.ascii	"\020\005x\027\210\302\336C\177\276\371\024i\266[\213"
 398      88C2DE43 
 398      7FBEF914 
 398      69B65B8B 
 399 072f 515AAEB7 		.ascii	"QZ\256\267\311_M2m\222g\272L\036\205k\212\221\020X="
ARM GAS  C:\Users\AMANRA~1\AppData\Local\Temp\ccItJTv4.s 			page 31


 399      C95F4D32 
 399      6D9267BA 
 399      4C1E856B 
 399      8A911058 
 400 0744 E4F05E8B 		.ascii	"\344\360^\213\030_.\306{Z\307\213\304/\024\211\340^"
 400      185F2EC6 
 400      7B5AC78B 
 400      C42F1489 
 400      E05E
 401 0756 72B8658B 		.ascii	"r\270e\2133#\306{[\307\213\304\367\213\341\307\254\227"
 401      3323C67B 
 401      5BC78BC4 
 401      F78BE1C7 
 401      AC97
 402 0768 B008DE21 		.ascii	"\260\010\336!\206\373\312\341\026mN\263\030\356g\025"
 402      86FBCAE1 
 402      166D4EB3 
 402      18EE6715 
 403 0778 2E8A24B8 		.ascii	".\212$\270\254q$\301\345k\021Iz\212\221\027\2245\221"
 403      AC7124C1 
 403      E56B1149 
 403      7A8A9117 
 403      943591
 404 078b 705C2184 		.ascii	"p\\!\204\022\177\005mu\322\346\375\262\364\342\212+"
 404      127F056D 
 404      75D2E6FD 
 404      B2F4E28A 
 404      2B
 405 079c 4ECA8E8B 		.ascii	"N\312\216\213V\360\025\367\312`u\225\236V\000\023\356"
 405      56F015F7 
 405      CA607595 
 405      9E560013 
 405      EE
 406 07ad CD165C2F 		.ascii	"\315\026\\/\211\321\240IZY\322\237z\3479\242\307\224"
 406      89D1A049 
 406      5A59D29F 
 406      7AE739A2 
 406      C794
 407 07bf C99F4CCF 		.ascii	"\311\237L\3177\322\232S\212\371\324\301\230 \003\345"
 407      37D29A53 
 407      8AF9D4C1 
 407      982003E5 
 408 07cf DF       		.ascii	"\337"
 409 07d0 C295B1A9 		.ascii	"\302\225\261\251'\031\241\005\2125\205/\306\031\221"
 409      2719A105 
 409      8A35852F 
 409      C61991
 410 07df 978AF453 		.ascii	"\227\212\364S\247\274\242\223m\216\026\316)\254w\346"
 410      A7BCA293 
 410      6D8E16CE 
 410      29AC77E6 
 411 07ef D350CF82 		.ascii	"\323P\317\202\311\364:\227\244\320s\211\346\014\342"
 411      C9F43A97 
 411      A4D07389 
 411      E60CE2
 412 07fe BE3DD5BB 		.ascii	"\276=\325\273\353r`\205\026\325\223\024\270\242\374"
 412      EB726085 
ARM GAS  C:\Users\AMANRA~1\AppData\Local\Temp\ccItJTv4.s 			page 32


 412      16D59314 
 412      B8A2FC
 413 080d E22AD65D 		.ascii	"\342*\326]\337\010\254\327\303\330\373\016\350.\275"
 413      DF08ACD7 
 413      C3D8FB0E 
 413      E82EBD
 414 081c 5615EC7D 		.ascii	"V\025\354}B\217z\250*On\217G\252m\251r\301\272*5\352"
 414      428F7AA8 
 414      2A4F6E8F 
 414      47AA6DA9 
 414      72C1BA2A 
 415 0832 BFE5D240 		.ascii	"\277\345\322@\213T+Z\3606Y\303l\222vu6Y\215Fi\312!]"
 415      8B542B5A 
 415      F03659C3 
 415      6C927675 
 415      36598D46 
 416 084a F3C5F668 		.ascii	"\363\305\366h\2262\331e\013\345:\364\2142\225\017Zn"
 416      9632D965 
 416      0BE53AF4 
 416      8C32950F 
 416      5A6E
 417 085c A950809A 		.ascii	"\251P\200\2320\361\345\367\177\212b\350\361\325S\305"
 417      30F1E5F7 
 417      7F8A62E8 
 417      F1D553C5 
 418 086c 135A9440 		.ascii	"\023Z\224@\231\376\225\345\177C9\364\330\267\264\251"
 418      99FE95E5 
 418      7F4339F4 
 418      D8B7B4A9 
 419 087c 468F0A29 		.ascii	"F\217\012)\343\237\341_\345\200j)\223x\275h\\\203:)"
 419      E39FE15F 
 419      E5806A29 
 419      9378BD68 
 419      5C833A29 
 420 0890 933ADAFB 		.ascii	"\223:\332\373\034\241Q\312\334\357\272\231\355\200\306"
 420      1CA151CA 
 420      DCEFBA99 
 420      ED80C6
 421 089f 2953F434 		.ascii	")S\3644\272\310\021\315R\246\376\301\312\214\036-P&"
 421      BAC811CD 
 421      52A6FEC1 
 421      CA8C1E2D 
 421      5026
 422 08b1 3F6AB954 		.ascii	"?j\271T\211<4\204\361\011\314<\203\335AM\007\214\032"
 422      893C3484 
 422      F109CC3C 
 422      83DD414D 
 422      078C1A
 423 08c4 1C8C1F2D 		.ascii	"\034\214\037-\\Q\322S\330\036_\303\251\330\310\256\034"
 423      5C51D253 
 423      D81E5FC3 
 423      A9D8C8AE 
 423      1C
 424 08d5 07E4436E 		.ascii	"\007\344CnQ\224\264\024x\033\205aH\336\217<\3100\357"
 424      5194B414 
 424      781B8561 
 424      48DE8F3C 
ARM GAS  C:\Users\AMANRA~1\AppData\Local\Temp\ccItJTv4.s 			page 33


 424      C830EF
 425 08e8 3A98EC9A 		.ascii	":\230\354\232`25\033\205\230,\314^\002f\307W\271b\210"
 425      6032351B 
 425      85982CCC 
 425      5E0266C7 
 425      57B96288 
 426 08fc 5A450A32 		.ascii	"ZE\0122,\230\231\177\224\253D\3014\201\313'\237G8\210"
 426      2C98997F 
 426      94AB44C1 
 426      3481CB27 
 426      9F473888 
 427 0910 C6399BF3 		.ascii	"\3069\233\363\3108\247\034\022(\025\225\211\302f\012"
 427      C838A71C 
 427      12281595 
 427      89C2660A 
 428 0920 655652B8 		.ascii	"eVR\270oZ\2144\24034\205\350\362\304\313\012!\20544"
 428      6F5A8C34 
 428      A0333485 
 428      E8F2C4CB 
 428      0A218534 
 429 0935 467CEF06 		.ascii	"F|\357\006\244P!\244Pn;\205J+),\234,\314\263G\261\324"
 429      A45021A4 
 429      506E3B85 
 429      4A2B292C 
 429      9C2CCCB3 
 430 094c AEB9590D 		.ascii	"\256\271Y\015\203\366(\2112\001\247&\316;\240K\224i"
 430      83F62889 
 430      3201A726 
 430      CE3BA04B 
 430      9469
 431 095e 5EF05B56 		.ascii	"^\360[V\242\353\224i;\321\322\251F7\251V\371\265]\213"
 431      A2EB9469 
 431      3BD1D2A9 
 431      4637A956 
 431      F9B55D8B 
 432 0972 C2F86E41 		.ascii	"\302\370nA\365\267\\\035(T\363R\012\325ZQ\250\2521~"
 432      F5B75C1D 
 432      2854F352 
 432      0AD55A51 
 432      A8AA317E 
 433 0986 16AA0C4D 		.ascii	"\026\252\014M\25104\014<\255\2052=\021\001E\366h\220"
 433      A930340C 
 433      3CAD8532 
 433      3D110145 
 433      F66890
 434 0999 3225C133 		.ascii	"2%\3013\005:4A\031\337g\375\331\216h\2162q\2137\262"
 434      053A3441 
 434      19DF67FD 
 434      D98E688E 
 434      32718B37 
 435 09ae EDD11265 		.ascii	"\355\321\022eF\275J\357+Q\240\2260\236'[2t(\2140\012"
 435      46BD4AEF 
 435      2B51A096 
 435      309E275B 
 435      3274288C 
 436 09c4 CF1B21B7 		.ascii	"\317\033!\2675|%\223\2169[\025\2621'\315[?\344\355."
 436      357C2593 
ARM GAS  C:\Users\AMANRA~1\AppData\Local\Temp\ccItJTv4.s 			page 34


 436      8E395B15 
 436      B23127CD 
 436      5B3FE4ED 
 437 09d9 E4ED8E90 		.ascii	"\344\355\216\220\267z\276\212\235\212\032|\025E\321"
 437      B77ABE8A 
 437      9D8A1A7C 
 437      1545D1
 438 09e8 64024E2C 		.ascii	"d\002N,g!\024O\223\231\010J\315W[O\246\303z2\315\220"
 438      6721144F 
 438      9399084A 
 438      CD575B4F 
 438      A6C37A32 
 439 09fe 4C3B2473 		.ascii	"L;$s\317J2\335\261S\263J\224J\3239W\221u[\203.\322t"
 439      CF4A32DD 
 439      B153B34A 
 439      944AD339 
 439      5791755B 
 440 0a16 DA9FD49E 		.ascii	"\332\237\324\236\024\234\243\003d\364\200\214.\271\014"
 440      149CA303 
 440      64F4808C 
 440      2EB90C
 441 0a25 2B6A74CB 		.ascii	"+jt\313\325\300^\021\036\361&\312\247\311L$7\\\302\023"
 441      D5C05E11 
 441      1EF126CA 
 441      A7C94C24 
 441      375CC213 
 442 0a39 374E7AEE 		.ascii	"7Nz\356?E\023\011Nt\"!&\264\377\214\016\225P%\"\237"
 442      3F451309 
 442      4E742221 
 442      26B4FF8C 
 442      0E955025 
 443 0a4f E42E9A63 		.ascii	"\344.\232ch\266\227\351[\036\233\354\270t([\334&q\017"
 443      68B697E9 
 443      5B1E9BEC 
 443      B874285B 
 443      DC26710F 
 444 0a63 2121279C 		.ascii	"!!'\234\320}8\323\2470\007\321\274\237\323)\227\007"
 444      D07D38D3 
 444      A73007D1 
 444      BC9FD329 
 444      9707
 445 0a75 A070BFA0 		.ascii	"\240p\277\240\260\023\313\263\257wj\260=\252\246)\204"
 445      B013CBB3 
 445      AF776AB0 
 445      3DAAA629 
 445      84
 446 0a86 07F7776A 		.ascii	"\007\367wj\304\265\354&\251eCp\353\200p\353\003\205"
 446      C4B5EC26 
 446      A9654370 
 446      EB8070EB 
 446      0385
 447 0a98 39AF165A 		.ascii	"9\257\026Z\014\312\265\300\236\225\325Y\251D\3154\211"
 447      0CCAB5C0 
 447      9E95D559 
 447      A944CD34 
 447      89
 448 0aa9 27FE13F1 		.ascii	"'\376\023\361\26631j=\023S\321\252\356\012h\310\224"
ARM GAS  C:\Users\AMANRA~1\AppData\Local\Temp\ccItJTv4.s 			page 35


 448      B633316A 
 448      3D1353D1 
 448      AAEE0A68 
 448      C894
 449 0abb DC08A832 		.ascii	"\334\010\2502,\2502\244`\331\270z\342\211\267\275\270"
 449      2CA832A4 
 449      60D9B87A 
 449      E289B7BD 
 449      B8
 450 0acc ADC340A1 		.ascii	"\255\303@\241\255\0333\267u\236\375WZ9\024\242#\346"
 450      AD1B33B7 
 450      759EFD57 
 450      5A3914A2 
 450      23E6
 451 0ade 6D48490E 		.ascii	"mHI\016\327\243S\224\271\373\354\332\002D\003\302(\223"
 451      D7A35394 
 451      B9FBECDA 
 451      024403C2 
 451      2893
 452 0af0 8282A6F5 		.ascii	"\202\202\246\365p;\376_\357\024\005}h\323\243\377\344"
 452      703BFE5F 
 452      EF14057D 
 452      68D3A3FF 
 452      E4
 453 0b01 A621B928 		.ascii	"\246!\271(\350\274\343_+e=\003\332\343K\320\331\006"
 453      E8BCE35F 
 453      2B653D03 
 453      DAE34BD0 
 453      D906
 454 0b13 F5A778F5 		.ascii	"\365\247x\365\343M\361Z;|\201\233T\320\2514n\2025\321"
 454      E34DF15A 
 454      3B7C819B 
 454      54D0A934 
 454      6E8235D1 
 455 0b27 0BEDC9D3 		.ascii	"\013\355\311\323\032=\023\345\367BQ\200.\015\013\274"
 455      1A3D13E5 
 455      F7425180 
 455      2E0D0BBC 
 456 0b37 AF156772 		.ascii	"\257\025grV\222\311\307\346L\226\325{\245\331\243\030"
 456      5692C9C7 
 456      E64C96D5 
 456      7BA5D9A3 
 456      18
 457 0b48 9AAFFEA5 		.ascii	"\232\257\376\245\204\207\032\224H\231g\021\325\347\214"
 457      84871A94 
 457      48996711 
 457      D5E78C
 458 0b57 28953261 		.ascii	"(\2252a\031Mmj\224A\031~D\271\212\216(\271\236\213\313"
 458      194D6D6A 
 458      9441197E 
 458      44B98A8E 
 458      28B99E8B 
 459 0b6c C56A9445 		.ascii	"\305j\224E/\306uMgj\320%\302(ZW\206\207a\024\352$R\344"
 459      2FC6754D 
 459      676AD025 
 459      C2285A57 
 459      86876114 
ARM GAS  C:\Users\AMANRA~1\AppData\Local\Temp\ccItJTv4.s 			page 36


 460 0b84 5FBF2384 		.ascii	"_\277#\204\235%P\335\331 tS&c~\340\201\273)\317\025"
 460      9D2550DD 
 460      D9207453 
 460      26637EE0 
 460      81BB29CF 
 461 0b99 066E5128 		.ascii	"\006nQ(:\002\301M\317\375S\327\331\314\345=\314\367"
 461      3A02C14D 
 461      CFFD53D7 
 461      D9CCE53D 
 461      CCF7
 462 0bab 7956B568 		.ascii	"yV\265hQ\021Mwz\362\316s#\272N\231\226\301\004o\326"
 462      51114D77 
 462      7AF2CE73 
 462      23BA4E99 
 462      96C1046F 
 463 0bc0 D968221D 		.ascii	"\331h\"\035\214\371\222\0165\252\240\027;O=\353\323"
 463      8CF9920E 
 463      35AAA017 
 463      3B4F3DEB 
 463      D3
 464 0bd1 A12ACA04 		.ascii	"\241*\312\004\334\310\253bs\245\2670\177\353n\300u%"
 464      DCC8AB62 
 464      73A5B730 
 464      7FEB6EC0 
 464      7525
 465 0be3 AAA61753 		.ascii	"\252\246\027Sj\373L*TG\231\342\343\265\317\265\250\221"
 465      6AFB4C2A 
 465      544799E2 
 465      E3B5CFB5 
 465      A891
 466 0bf5 3251577D 		.ascii	"2QW}=\365\250\2312\2555\035\307\355\321]\312\224\337"
 466      3DF5A899 
 466      32AD351D 
 466      C7EDD15D 
 466      CA94DF
 467 0c08 4D6C54A1 		.ascii	"MlT\241v\312\234\234}\226\301\241n\312\014\\\352\254"
 467      76CA9C9C 
 467      7D96C1A1 
 467      6ECA0C5C 
 467      EAAC
 468 0c1a D7A0FB94 		.ascii	"\327\240\373\224\211/\354\255V\243\001\312\314\334\214"
 468      892FECAD 
 468      56A301CA 
 468      CCDC8C
 469 0c29 F91D1AA1 		.ascii	"\371\035\032\241\307~\271\035az4A\231\244\253\343e\010"
 469      C77EB91D 
 469      617A3441 
 469      99A4ABE3 
 469      6508
 470 0c3b 4D5366C1 		.ascii	"MSf\3017\347\204\016=\241\314PM\340\233h\236\036\307"
 470      37E7840E 
 470      3DA1CC50 
 470      4DE09B68 
 470      9E1EC7
 471 0c4e 8CACB8A3 		.ascii	"\214\254\270\243%z\234\361\240\250D\203<hL\210\350\311"
 471      257A9CF1 
 471      A0A84483 
ARM GAS  C:\Users\AMANRA~1\AppData\Local\Temp\ccItJTv4.s 			page 37


 471      3C684C88 
 471      E8C9
 472 0c60 F156221F 		.ascii	"\361V\"\037\312\264\235]X\260G\376\224\351\015\354\371"
 472      CAB49D5D 
 472      58B047FE 
 472      94E90DEC 
 472      F9
 473 0c71 2D0AA4C7 		.ascii	"-\012\244\307\327[\217?7\240P\312\314\227\234\314\325"
 473      D75B8F3F 
 473      37A050CA 
 473      CC979CCC 
 473      D5
 474 0c82 A2539449 		.ascii	"\242S\224I_\231\0156\240$\312\324$\315\225\263^\323"
 474      5F990D36 
 474      A024CAD4 
 474      24CD95B3 
 474      5ED3
 475 0c94 4382CC99 		.ascii	"C\202\314\231~\254ec!u8\372~ee\35395\207\307@\346\301"
 475      7EAC6563 
 475      217538FA 
 475      7E6565EB 
 475      393587C7 
 476 0cab 100C8784 		.ascii	"\020\014\207\204\303utx\274R\257\252Ig\003#\\\316\241"
 476      C3757478 
 476      BC52AFAA 
 476      49670323 
 476      5CCEA1
 477 0cbe 087109C8 		.ascii	"\010q\011\310f\247\237\014\354\377\205\366\2031\334"
 477      66A79F0C 
 477      ECFF85F6 
 477      8331DC
 478 0ccd 24872F2B 		.ascii	"$\207/+d\303\365\231\317\004t\240\034\235g!\274_\004"
 478      64C3F599 
 478      CF0474A0 
 478      1C9D6721 
 478      BC5F04
 479 0ce0 0F96C3CB 		.ascii	"\017\226\303\313l\015\322b\320Z.\032\001\"\0039\221"
 479      6C0DD262 
 479      D05A2E1A 
 479      01220339 
 479      91
 480 0cf1 5BF09009 		.ascii	"[\360\220\011\037\247\240u\\\032P2P\"\3209\240<\240"
 480      1FA7A075 
 480      5C1A5032 
 480      5022D039 
 480      A03CA0
 481 0d04 7CA058A0 		.ascii	"|\240X\240l\240x\240\013@q@W\200r\200\222\200\262\200"
 481      6CA078A0 
 481      0B407140 
 481      57807280 
 481      9280B280 
 482 0d18 32817281 		.ascii	"2\201r\201.\001]\006\272\010t\036\350,P*P:Z'\232M\231"
 482      2E015D06 
 482      BA08741E 
 482      E82C502A 
 482      503A5A27 
 483 0d2f F92741F9 		.ascii	"\371'A\371Sr\345+-\362Z\363\317\002\374\270\034\036"
ARM GAS  C:\Users\AMANRA~1\AppData\Local\Temp\ccItJTv4.s 			page 38


 483      5372E52B 
 483      2DF25AF3 
 483      CF02FCB8 
 483      1C1E
 484 0d41 2F37E482 		.ascii	"/7\344\202Hx\270\034-\031\013a\364\250\010}\332\272"
 484      4878B81C 
 484      2D190B61 
 484      F4A8087D 
 484      DABA
 485 0d53 2A22748D 		.ascii	"*\"t\215\250H=\345h\017d1\247\"\022\036!\207o\220\311"
 485      A8483DE5 
 485      680F6431 
 485      A722121E 
 485      21876F90 
 486 0d68 EE10C95E 		.ascii	"\356\020\311^QXu\027\211\003\210d\237\261*[\214\036"
 486      51587517 
 486      89038864 
 486      9FB12A5B 
 486      8C1E
 487 0d7a 15B94B90 		.ascii	"\025\271K\220u\357\022\251\322/ReA\256\312\274B>\204"
 487      75EF12A9 
 487      D22F5265 
 487      41AECABC 
 487      423E84
 488 0d8d EB7C850C 		.ascii	"\353|\205\014\3410*\012\011\243\264H\204\314sQ\335l"
 488      E1302A0A 
 488      09A3B448 
 488      84CC7351 
 488      DD6C
 489 0d9f 0A154BF4 		.ascii	"\012\025K\364\223\247\037'/\302rQ\372^\326\315,B7\213"
 489      93A71F27 
 489      2FC27251 
 489      FA5ED6CD 
 489      2C42378B 
 490 0db3 DCC3DFBA 		.ascii	"\334\303\337\272{H\012Ed\212\020\3535G\254\212Hx\200"
 490      7B480A45 
 490      648A10EB 
 490      3547AC8A 
 490      487880
 491 0dc6 1C7DDE42 		.ascii	"\034}\336B\370\214\010~L\016\367\226k\276 B\373XGK\012"
 491      F88C087E 
 491      4C0EF796 
 491      6BBE2042 
 491      FB58474B 
 492 0ddb 5104F7B5 		.ascii	"Q\004\367\265nD1\274\\\224\321\223\326+\202\030\276"
 492      6E4431BC 
 492      5C94D193 
 492      D62B8218 
 492      BE
 493 0dec 20829FB0 		.ascii	" \202\237\260\236SqM\020\241\303\254\307B\202\306-P"
 493      9E53714D 
 493      10A1C3AC 
 493      C74282C6 
 493      2D50
 494 0dfe 4B6D3F27 		.ascii	"Km?'n\324\305X\030\207\"\276Q\277\23393`@\2034n\367"
 494      6ED4C558 
 494      188722BE 
ARM GAS  C:\Users\AMANRA~1\AppData\Local\Temp\ccItJTv4.s 			page 39


 494      51BF9B39 
 494      33604083 
 495 0e15 14273E35 		.ascii	"\024'>5\242'\204As9]\223Fn\365:\247P6\014 \321Lx\030"
 495      A2278441 
 495      73395D93 
 495      466EF53A 
 495      A750360C 
 496 0e2e 0711AC88 		.ascii	"\007\021\254\210E3|\\,\2116\320\267\212\032\010\240"
 496      45337C5C 
 496      2C8936D0 
 496      B78A1A08 
 496      A0
 497 0e3f A11B12E3 		.ascii	"\241\033\022\343\236\201G\027Y\257\211\314\241\323\250"
 497      9E814717 
 497      59AF89CC 
 497      A1D3A8
 498 0e4e 43139122 		.ascii	"C\023\221\"\207.D\264O\223\35694\201\220\247=\035\177"
 498      872E44B4 
 498      4F93EE39 
 498      348190A7 
 498      3D1D7F
 499 0e61 26354393 		.ascii	"&5C\223\352K\231\261\301\364V\005\012\243LLoy\017k\367"
 499      EA4B99B1 
 499      C1F45605 
 499      0AA34C4C 
 499      6F790F6B 
 500 0e76 2BC92444 		.ascii	"+\311$Do\270\277\201\265<\370\001\347\320\334\\\253"
 500      6FB8BF81 
 500      B53CF801 
 500      E7D0DC5C 
 500      AB
 501 0e87 1AC550F0 		.ascii	"\032\305P\360\345\2254\360\227D\312\244\314\246>\346"
 501      E59534F0 
 501      9744CAA4 
 501      CCA63EE6 
 502 0e97 503A659E 		.ascii	"P:e\236'7\336\323\242<\312\224-\265\307\350Q\011a\376"
 502      2737DED3 
 502      A23CCA94 
 502      2DB5C7E8 
 502      510961FE 
 503 0eab DBC9A761 		.ascii	"\333\311\247a\316\0344[\206\325\270\3552\340\026\014"
 503      CE1C345B 
 503      86D5B8ED 
 503      32E0160C 
 504 0ebb 4CE4847F 		.ascii	"L\344\204\177\340\357\032h\273\340\012n\313\014\006"
 504      E0EF1A68 
 504      BBE00A6E 
 504      CB0C06
 505 0eca 2769A306 		.ascii	"'i\243\006\227\235\014\253\235\250}\236>S-?\246\317"
 505      979D0CAB 
 505      9DA87D9E 
 505      3E532D3F 
 505      A6CF
 506 0edc 6E3C9406 		.ascii	"n<\224\006.\023\314Sm+ K[\023\350\270a?\342LJ'r\013"
 506      2E13CC53 
 506      6D2B204B 
 506      5B13E8B8 
ARM GAS  C:\Users\AMANRA~1\AppData\Local\Temp\ccItJTv4.s 			page 40


 506      613FE24C 
 507 0ef4 B63F3E5E 		.ascii	"\266?>^\201\210_\003tKR\016\375)\177n:\367*W\013Ep\326"
 507      81885F03 
 507      744B520E 
 507      FD297F6E 
 507      3AF72A57 
 508 0f0c 7A1AA40C 		.ascii	"z\032\244\014D\216R'q\224Z\352(\022\025\312\241A+\303"
 508      448E5227 
 508      71945AEA 
 508      281215CA 
 508      A1412BC3 
 509 0f20 0DDA3214 		.ascii	"\015\3322\024{\003Sa\011\216\237C\362\213@\013@\363"
 509      7B035361 
 509      098E9F43 
 509      F28B400B 
 509      40F3
 510 0f32 40CF809E 		.ascii	"@\317\200\236\002\315\001=\001z\0144\013\324\007\324"
 510      02CD013D 
 510      017A0C34 
 510      0BD407D4 
 511 0f42 01D402D4 		.ascii	"\001\324\002\324\014\324\004\324\010T/Q}qI\325P]e\012"
 511      0CD404D4 
 511      08542F51 
 511      7D7149D5 
 511      505D650A 
 512 0f56 D90D9D3A 		.ascii	"\331\015\235:\256\002\\\242\301F\374\262\256\334\322"
 512      AE025CA2 
 512      C146FCB2 
 512      AEDCD2
 513 0f65 FFABCA2D 		.ascii	"\377\253\312-\327\256\242\023\375x\026)A!S\3162\000"
 513      D7AEA213 
 513      FD781629 
 513      412153CE 
 513      3200
 514 0f77 F6D4B207 		.ascii	"\366\324\262\007\003\267\241$\222\255\343\345%Q-)\211"
 514      03B7A124 
 514      92ADE3E5 
 514      25512D29 
 514      89
 515 0f88 DBB42458 		.ascii	"\333\264$Xl\257a\311\343\351\243\024\2718Y\210\204\332"
 515      6CAF61C9 
 515      E3E9A314 
 515      B9385988 
 515      84DA
 516 0f9a 35F3BE07 		.ascii	"5\363\276\007\211\034"
 516      891C
 517 0fa0 770096C1 		.ascii	"w\000\226\301\340\346\341Q\236-_3#\332\301~\255\314"
 517      E0E6E151 
 517      9E2D5F33 
 517      23DAC17E 
 517      ADCC
 518 0fb2 96F7E0B8 		.ascii	"\226\367\340\270\015\354qWb\217\311T\226?\354i\331\220"
 518      0DEC7157 
 518      628FC954 
 518      963FEC69 
 518      D990
 519 0fc4 42AB8DA6 		.ascii	"B\253\215\246\321z\002\367\376`\002\375N4\366a\371\231"
ARM GAS  C:\Users\AMANRA~1\AppData\Local\Temp\ccItJTv4.s 			page 41


 519      D17A02F7 
 519      FE6002FD 
 519      4E34F661 
 519      F999
 520 0fd6 56E58B9F 		.ascii	"V\345\213\237\252\245\322`\202AY\2429\314\213x\200D"
 520      AAA5D260 
 520      824159A2 
 520      39CC8B78 
 520      8044
 521 0fe8 C70F8D01 		.ascii	"\307\017\215\001\232\300\2440<\370\3036\311\021F\020"
 521      9AC0A430 
 521      3CF8C336 
 521      C9114610 
 522 0ff8 708FD96C 		.ascii	"p\217\331l+K\252\210"
 522      2B4BAA88 
 523 1000 B4201AC5 		.ascii	"\264 \032\305:\001vIniQ+n=J\366Bf\272Y\306z\340\270"
 523      3A017649 
 523      6E69512B 
 523      6E3D4AF6 
 523      4266BA59 
 524 1018 4B6AB538 		.ascii	"Kj\2658\221\325p\256\272\255\347\312\272\354\036\033"
 524      91D570AE 
 524      BAADE7CA 
 524      BAEC1E1B 
 525 1028 B2A90D06 		.ascii	"\262\251\015\006\343\250\015\210H\221\015.Kl\260\034"
 525      E3A80D88 
 525      48910D2E 
 525      4B6CB01C 
 526 1038 E2617A9D 		.ascii	"\342az\235\344-O0A\267\324\004\001\274\011\356\2435"
 526      E42D4F30 
 526      41B7D404 
 526      01BC09EE 
 526      A335
 527 104a DC15B909 		.ascii	"\334\025\271\011\304\375\3360\253z\316\200n\370V|\033"
 527      C4FDDE30 
 527      AB7ACE80 
 527      6EF8567C 
 527      1B
 528 105b 3E9E86C2 		.ascii	">\236\206\302}\0044\0054\0064\012\364\020\350\001P\277"
 528      7D043405 
 528      3406340A 
 528      F410E801 
 528      50BF
 529 106d C43E35EF 		.ascii	"\304>5\357\321B\307^\236\017\011c)6\373r\015\327EU\254"
 529      D142C75E 
 529      9E0F0963 
 529      2936FB72 
 529      0DD74555 
 530 1082 E00FA1CB 		.ascii	"\340\017\241\313\377\206\212\036\000p\241m\260\250:"
 530      FF868A1E 
 530      0070A16D 
 530      B0A83A
 531 1091 0E4AAAE3 		.ascii	"\016J\252\343\200\225\300h~\0306\002\271\034d%\203\217"
 531      8095C068 
 531      7E183602 
 531      B91C6425 
 531      838F
ARM GAS  C:\Users\AMANRA~1\AppData\Local\Temp\ccItJTv4.s 			page 42


 532 10a3 87216743 		.ascii	"\207!gCB\316\260Y#4S34\376\343\271\300\253\240\301\240"
 532      42CEB059 
 532      23345333 
 532      34FEE3B9 
 532      C0ABA0C1 
 533 10b8 8DD84C6F 		.ascii	"\215\330Lo\030=\375:\016\344\330Y\253\030\330\\{\344"
 533      183DFD3A 
 533      0EE4D859 
 533      AB18D85C 
 533      7BE4
 534 10ca EE3F784C 		.ascii	"\356?xLE\036*c\320-Q\321\337T Q\2616\246\260b\305s\177"
 534      451E2A63 
 534      D02D51D1 
 534      DF542051 
 534      B136A6B0 
 535 10e2 D57FC85E 		.ascii	"\325\177\310^\255\305\314\272\343`\260\372\2272\330"
 535      ADC5CCBA 
 535      E360B0FA 
 535      9732D8
 536 10f1 0420458F 		.ascii	"\004 E\217\243\251\301l\2644\334$\230\21156f\347\234"
 536      A3A9C16C 
 536      B434DC24 
 536      98893536 
 536      66E79C
 537 1104 BF87E74A 		.ascii	"\277\207\347J\261\230\006\3019)\210\015\020\227TE7Y"
 537      B19806C1 
 537      3929880D 
 537      10975445 
 537      3759
 538 1116 2EA09168 		.ascii	".\240\221h|a&\260a\256\262\260\211\263\334\364\207\320"
 538      7C6126B0 
 538      61AEB2B0 
 538      89B3DCF4 
 538      87D0
 539 1128 A3BFA42E 		.ascii	"\243\277\244.\202\301\267m\203\251\315\347\012V\221"
 539      82C1B76D 
 539      83A9CDE7 
 539      0A5691
 540 1137 EA06203B 		.ascii	"\352\006 ;\354\351\304\340\315\012so\274\365\"{\230"
 540      ECE9C4E0 
 540      CD0A736F 
 540      BCF5227B 
 540      98
 541 1148 8D67235B 		.ascii	"\215g#[X%b\3232\264\012\211\237O\217\376\224>s\306s"
 541      582562D3 
 541      32B40A89 
 541      9F4F8FFE 
 541      943E73C6 
 542 115d 8A6DD6C0 		.ascii	"\212m\326\300\242\347\3235\014\213\347\016;\255a\305"
 542      A2E7D335 
 542      0C8BE70E 
 542      3BAD61C5 
 543 116d CFA73358 		.ascii	"\317\2473X)\216A\027\262W^\225-\207\323\035?\246&x\014"
 543      298E4117 
 543      B2575E95 
 543      2D87D31D 
 543      3FA62678 
ARM GAS  C:\Users\AMANRA~1\AppData\Local\Temp\ccItJTv4.s 			page 43


 544 1182 F071EB70 		.ascii	"\360q\353p\361\020\346\257\204\030\375D\216\266\354"
 544      F110E6AF 
 544      8418FD44 
 544      8EB6EC
 545 1191 FC7688E0 		.ascii	"\374v\210\340s\326\341\242\322h\270\300\312\016\367"
 545      73D6E1A2 
 545      D268B8C0 
 545      CA0EF7
 546 11a0 109FCAE1 		.ascii	"\020\237\312\341\226\003\330r&\0357\320%\362\336\203"
 546      9603D872 
 546      261D37D0 
 546      25F2DE83 
 547 11b0 45F55AF8 		.ascii	"E\365Z\370K\241\201\254\2227\220\026e\315\372\252\030"
 547      4BA181AC 
 547      92379016 
 547      65CDFAAA 
 547      18
 548 11c1 542AEAAB 		.ascii	"T*\352\253^G\342\320:\376\030{/v\362J3\206y\006M\023"
 548      5E47E2D0 
 548      3AFE187B 
 548      2F76F24A 
 548      33867906 
 549 11d7 FA800B33 		.ascii	"\372\200\0133\336$\006\360\311V\277(\331\006_D\2525"
 549      DE2406F0 
 549      C956BF28 
 549      D9065F44 
 549      AA35
 550 11e9 06558992 		.ascii	"\006U\211\222\275\201\223\025\325+O\2458PA\367\322\""
 550      BD819315 
 550      D52B4FA5 
 550      385041F7 
 550      D222
 551 11fb 50993B91 		.ascii	"P\231;\221^\177\240\023I33xZ\203\027\027`\2717\205\254"
 551      5E7FA013 
 551      49333378 
 551      5A831717 
 551      60B93785 
 552 1210 5493ACE0 		.ascii	"T\223\254\3409\355\245`#zD\027\372\215,g\015)\321S\312"
 552      39EDA560 
 552      237A4417 
 552      FA8D2C67 
 552      0D29D153 
 553 1225 DC58795A 		.ascii	"\334XyZ\312&\377\024\300^;\325\261\250D\313\364Z\362"
 553      CA26FF14 
 553      C05E3BD5 
 553      B1A844CB 
 553      F45AF2
 554 1238 C2E2233C 		.ascii	"\302\342#<\231\266\036?\016B\2429\352\365l\246\251\266"
 554      99B61E3F 
 554      0E42A239 
 554      EAF56CA6 
 554      A9B6
 555 124a FABC0179 		.ascii	"\372\274\001y\032\311\334\340\305\250\347\317\035\371"
 555      1AC9DCE0 
 555      C5A8E7CF 
 555      1DF9
 556 1258 E9DD102F 		.ascii	"\351\335\020/\223\312\211T\027\356\230\022\362p\002"
ARM GAS  C:\Users\AMANRA~1\AppData\Local\Temp\ccItJTv4.s 			page 44


 556      93CA8954 
 556      17EE9812 
 556      F27002
 557 1267 F45E8FE7 		.ascii	"\364^\217\3474\375\225k9?%?\273\333\231\367\003\254"
 557      34FD956B 
 557      393F253F 
 557      BBDB99F7 
 557      03AC
 558 1279 748052CF 		.ascii	"t\200R\317\035W\232\225^\317fvKB;\007\365(\220\212\367"
 558      1D579A95 
 558      5ECF6676 
 558      4B423B07 
 558      F528908A 
 559 128e 6C3A356B 		.ascii	"l:5kS|\260u\361\275\351\233+\3114v\020$\020($\000\351"
 559      537CB075 
 559      F1BDE99B 
 559      2BC93476 
 559      10241028 
 560 12a5 D114B21E 		.ascii	"\321\024\262\036\214\2248\242\323$\005\363j\311\337"
 560      8C9438A2 
 560      D32405F3 
 560      6AC9DF
 561 12b4 58AE96FC 		.ascii	"X\256\226\374\015\315\357xSc\013\207b\250B\0353\267"
 561      0DCDEF78 
 561      53630B87 
 561      62A8421D 
 561      33B7
 562 12c6 91AD6789 		.ascii	"\221\255g\211\247@\237\337`}\302@\237P\263>\215\231"
 562      A7409FDF 
 562      607DC240 
 562      9F50B33E 
 562      8D99
 563 12d8 3F1A5FC6 		.ascii	"?\032_\306\016\027\016\372\234\024\364\371\015S',!!"
 563      0E170EFA 
 563      9C14F4F9 
 563      0D53272C 
 563      2121
 564 12ea D5884C0E 		.ascii	"\325\210L\016t\2766\341a\230\002\371R&{%\274\317\210"
 564      74BE36E1 
 564      619802F9 
 564      52267B25 
 564      BCCF88
 565 12fd 4E50A6DF 		.ascii	"NP\246\3373\367\226\021\205R&0\274\274\\\211\316P&)"
 565      33F79611 
 565      85522630 
 565      BCBC5C89 
 565      CE502629 
 566 1311 32D45785 		.ascii	"2\324W\205b(3\3407:\245@g)\223\026\026\222\255G\227"
 566      622833E0 
 566      373AA540 
 566      67299316 
 566      1692AD47 
 567 1326 281371A1 		.ascii	"(\023q\241mA\207r)\343\371,\261X\213\256Rf)#.\304\001"
 567      6D418772 
 567      29E3F92C 
 567      B1588BAE 
 567      52662923 
ARM GAS  C:\Users\AMANRA~1\AppData\Local\Temp\ccItJTv4.s 			page 45


 568 133d 9550C6BB 		.ascii	"\225P\306\273\342n\236\001\335e\322j\263<\265\250\235"
 568      E26E9E01 
 568      DD65D26A 
 568      B33CB5A8 
 568      9D
 569 134e 3267EB2F 		.ascii	"2g\353/\326\252P7e\212\322/B\014}@\231\214\302G\001"
 569      D6AA5037 
 569      658AD22F 
 569      420C7D40 
 569      998CC247 
 570 1363 1C1AA3CC 		.ascii	"\034\032\243\314\264o\226;\232\241\307\3633U\005\010"
 570      B46F963B 
 570      9AA1C7F3 
 570      33550508 
 571 1373 3DA34C69 		.ascii	"=\243Li\375\263\\\025\362u$LpS\\'\233x,\005\027|\265"
 571      FDB35C15 
 571      F275244C 
 571      70535C27 
 571      9B782C05 
 572 138a 3CF86681 		.ascii	"<\370f\201#[\320\264\006\376sZm\036\242\231W7\015\215"
 572      235BD0B4 
 572      06FE735A 
 572      6D1EA299 
 572      57370D8D 
 573 139e 6AD2BC8E 		.ascii	"j\322\274\216\233B\225\\\231r5\364Q\225d-\004\375\221"
 573      9B42955C 
 573      997235F4 
 573      5195642D 
 573      04FD91
 574 13b1 D4A23428 		.ascii	"\324\2424(\000\334\001\344J\241H\340:\251E\327\341\270"
 574      00DC01E4 
 574      4AA148E0 
 574      3AA945D7 
 574      E1B8
 575 13c3 44B98EBB 		.ascii	"D\271\216\273\006T\014T\004t\025\250\020(\013\350\""
 575      06540C54 
 575      047415A8 
 575      10280BE8 
 575      22
 576 13d4 50265006 		.ascii	"P&P\006\320\005\245d=D\014\013p\370\031\376\031(\301"
 576      D005A564 
 576      3D440C0B 
 576      70F819FE 
 576      1928C1
 577 13e7 74A58D6E 		.ascii	"t\245\215n\026[\017\261Vx\344\037a\035.ZPP.BG\312\321"
 577      165B0FB1 
 577      5678E41F 
 577      611D2E5A 
 577      50502E42 
 578 13fe B2C5131E 		.ascii	"\262\305\023\0360\276\211\326S|\266r\015\027e\035\277"
 578      30BE89D6 
 578      537CB672 
 578      0D17651D 
 578      BF
 579 140f 8975F93C 		.ascii	"\211u\371<,\273|\271`\205Kp'\266\032w\031\262\232\243"
 579      2CBB7CB9 
 579      60854B70 
ARM GAS  C:\Users\AMANRA~1\AppData\Local\Temp\ccItJTv4.s 			page 46


 579      27B61A77 
 579      19B29AA3 
 580 1423 14F77EE6 		.ascii	"\024\367~\346\242\035 \334z\".\017\244\306\202t\214"
 580      A21D20DC 
 580      7A222E0F 
 580      A4C68274 
 580      8C
 581 1434 B5D2B45A 		.ascii	"\265\322\264Z\357O\212\204\223c\231|\334\330F3S\342"
 581      EF4F8A84 
 581      9363997C 
 581      DCD84633 
 581      53E2
 582 1446 05BBD1B6 		.ascii	"\005\273\321\266\345\263\270\032\275\206,\254\002\020"
 582      E5B3B81A 
 582      BD862CAC 
 582      0210
 583 1454 5FCE1022 		.ascii	"_\316\020\"\225\222\225S\012Q\372\005\220&V\034\013"
 583      95929553 
 583      0A51FA05 
 583      9026561C 
 583      0B
 584 1465 C5C7F990 		.ascii	"\305\307\371\220\376\025I\372\223\321\253N&\231R7\222"
 584      FE1549FA 
 584      93D1AB4E 
 584      26995237 
 584      92
 585 1476 E0705649 		.ascii	"\340pVI\363i\216(\033\344\255}\377\367#\21150:\316*"
 585      F3698E28 
 585      1BE4AD7D 
 585      FFF72389 
 585      35303ACE 
 586 148b 5A3CB689 		.ascii	"Z<\266\211~\2254>y\330\264Xe\254m\274\022\361\005]\025"
 586      7E95343E 
 586      79D8B458 
 586      65AC6DBC 
 586      12F1055D 
 587 14a0 2D72A304 		.ascii	"-r\243\004y\311YY9\371\232\340\030\211\326\341\"7\232"
 587      79C95959 
 587      39F99AE0 
 587      1889D6E1 
 587      22379A
 588 14b3 11A193E4 		.ascii	"\021\241\223\344h\313u\226\243\"\3709\353p\361\032\031"
 588      68CB7596 
 588      A322F839 
 588      EB70F11A 
 588      19
 589 14c4 113A598E 		.ascii	"\021:Y\216\266X\363\322!B\237\267\212\026\227q\024]"
 589      B658F3D2 
 589      21429FB7 
 589      8A169771 
 589      145D
 590 14d6 3C471CD2 		.ascii	"<G\034\322b\311K\014Y<\207\005\244*\205v5E)_<\367\215"
 590      62C94B0C 
 590      593C8705 
 590      A42A8576 
 590      3545295F 
 591 14ed D5781CCD 		.ascii	"\325x\034\315\252\226\377U<A'V\337\216+W\362\023t\371"
ARM GAS  C:\Users\AMANRA~1\AppData\Local\Temp\ccItJTv4.s 			page 47


 591      AA96FF55 
 591      3C412756 
 591      DF8E2B57 
 591      F21374F9 
 592 1501 FE114346 		.ascii	"\376\021CF\324L\342\231\242\270\253a\324A\372\220L\222"
 592      D44CE299 
 592      A2B8AB61 
 592      D441FA90 
 592      4C92
 593 1513 ED1BA00B 		.ascii	"\355\033\240\013\273\225=\343\\\324\024\372\006\341"
 593      BB953DE3 
 593      5CD414FA 
 593      06E1
 594 1521 616EA5D2 		.ascii	"an\245\322\300U\010\355\002E\341g5\001\245\236\216("
 594      C05508ED 
 594      0245E167 
 594      3501A59E 
 594      8E28
 595 1533 E615FA74 		.ascii	"\346\025\372t\311\263\267_\217\222(\023|\367)tTs(\343"
 595      C9B3B75F 
 595      8F922813 
 595      7CF72974 
 595      547328E3 
 596 1547 77B2AC45 		.ascii	"w\262\254E\215\256\022F\351=\334R\247\340t\364A\246"
 596      8DAE1246 
 596      E93DDC52 
 596      A7E074F4 
 596      41A6
 597 1559 932F79D0 		.ascii	"\223/y\320\350\025\002\327\370\216g=\350Q\243\324\341"
 597      E81502D7 
 597      F88E673D 
 597      E851A3D4 
 597      E1
 598 156a EE3A98AC 		.ascii	"\356:\230\254\016\374\030?\340\304g\310C\317W\310\241"
 598      0EFC183F 
 598      E0C467C8 
 598      43CF57C8 
 598      A1
 599 157b E83126B0 		.ascii	"\3501&\260\\\265\022\261R!\217^+\022\357k\321u\232\370"
 599      5CB512B1 
 599      52218F5E 
 599      2B12EF6B 
 599      D1759AF8 
 600 158f D4CCC963 		.ascii	"\324\314\311cj\324D\231\351\347\261\371l\212o\015nV"
 600      6AD44499 
 600      E9E7B1F9 
 600      6C8A6F0D 
 600      6E56
 601 15a1 7A434234 		.ascii	"zCB4l\206\017/3\362\311\017^A\250\227bS\216\237\367"
 601      6C860F2F 
 601      33F2C90F 
 601      5E41A897 
 601      62538E9F 
 602 15b6 85F68332 		.ascii	"\205\366\2032W\242\236\336\263G\023\224\031\354\361"
 602      57A29EDE 
 602      B3471394 
 602      19ECF1
ARM GAS  C:\Users\AMANRA~1\AppData\Local\Temp\ccItJTv4.s 			page 48


 603 15c5 8BD3A205 		.ascii	"\213\323\242\005\312\304\372x\2458\"\237o\321I\320\271"
 603      CAC4FA78 
 603      A538229F 
 603      6FD149D0 
 603      B9
 604 15d6 EE4B0E28 		.ascii	"\356K\016(\2302\271\331\313\361*\024A\231\345\323\347"
 604      9832B9D9 
 604      CBF12A14 
 604      4199E5D3 
 604      E7
 605 15e7 17114AA2 		.ascii	"\027\021J\242\314\263\246\360\034\003\312&\014\032\030"
 605      CCB3A6F0 
 605      1C03CA26 
 605      0C1A18
 606 15f6 5FEED670 		.ascii	"_\356\326pzj\020\366\3405[d\017\374\340\265\023\367"
 606      7A6A10F6 
 606      E0355B64 
 606      0FFCE0B5 
 606      13F7
 607 1608 0CB82EB0 		.ascii	"\014\270.\260G7\263\007>C\037\002s\3448\034\255*MN\271"
 607      4737B307 
 607      3E431F02 
 607      73E4381C 
 607      AD2A4D4E 
 608 161d ADE6D6AF 		.ascii	"\255\346\326\257\247\222\326+\327k\225\364P\251\304"
 608      A792D62B 
 608      D76B95F4 
 608      50A9C4
 609 162c 074E4EEB 		.ascii	"\007NN\353\317\231\"p\367#K7\377\0007\367\003J-w\007"
 609      CF992270 
 609      F7234B37 
 609      FF0037F7 
 609      034A2D77 
 610 1641 8A157E71 		.ascii	"\212\025~q\261\216\203h\212X \335\037|\271U\270<DR\206"
 610      B18E8368 
 610      8A5820DD 
 610      1F7CB955 
 610      B83C4452 
 611 1656 14379233 		.ascii	"\0247\2223Q\024\301\356\0305\337qO\270\343>\334\001"
 611      5114C1EE 
 611      1835DF71 
 611      4FB8E33E 
 611      DC01
 612 1668 C10FCBE8 		.ascii	"\301\017\313\350U\256\347F\224J\206\2361\243\333\004"
 612      55AEE746 
 612      944A869E 
 612      31A3DB04 
 613 1678 F430A08F 		.ascii	"\3640\240\217Qw0\241Wq\246x\013L\202G`0\2561\023p<\246"
 613      517730A1 
 613      5771A678 
 613      0B4C8247 
 613      6030AE31 
 614 1690 549A1F42 		.ascii	"T\232\037B\203|\234\205\036\345z;\252\335\353L;\342"
 614      837C9C85 
 614      1EE57A3B 
 614      AADDEB4C 
 614      3BE2
ARM GAS  C:\Users\AMANRA~1\AppData\Local\Temp\ccItJTv4.s 			page 49


 615 16a2 2AF81010 		.ascii	"*\370\020\020w\0011\005\032\014\202\006\300\342D\037"
 615      77013105 
 615      1A0C8206 
 615      C0E2441F 
 616 16b2 02FB80B2 		.ascii	"\002\373\200\262X\343~`G\201%\367A?\031\337\310\006"
 616      58E37E60 
 616      478125F7 
 616      413F19DF 
 616      C806
 617 16c4 C467D742 		.ascii	"\304g\327B\314\244g,WY\307\251\371\234t\210j\177;vG"
 617      CCA4672C 
 617      5759C7A9 
 617      F99C7488 
 617      6A7F3B76 
 618 16d9 9AD5F23F 		.ascii	"\232\325\362?\345\001w\205\254\366)\311\323s\237Gg_"
 618      E5017785 
 618      ACF629C9 
 618      D3739F47 
 618      675F
 619 16eb 4343D425 		.ascii	"CC\324%\374\316\247\235P\241g\314s\256M'\353\330\362"
 619      FCCEA79D 
 619      50A167CC 
 619      73AE4D27 
 619      EBD8F2
 620 16fe 37DCBF3D 		.ascii	"7\334\277=6S\035\244C\276\253\310\305\204\353^7u(\224"
 620      36531DA4 
 620      43BEABC8 
 620      C584EB5E 
 620      37752894 
 621 1712 307F7AA5 		.ascii	"0\177z\24589\206\343\204u\241tj\031\317 \277\2524\220"
 621      383986E3 
 621      8475A174 
 621      6A19CF20 
 621      BFAA3490 
 622 1726 C965D237 		.ascii	"\311e\3227\301\031\251*\240#\2179\250\364\323\"e\037"
 622      C119A92A 
 622      A0238F39 
 622      A8F4D322 
 622      651F
 623 1738 5984AA19 		.ascii	"Y\204\252\031p\027<\017\310=\001c\317\261P\205\217\003"
 623      70173C0F 
 623      C83D0163 
 623      CFB15085 
 623      8F03
 624 174a 55EBB865 		.ascii	"U\353\270e\010EK@\317\201\026\201\026\200\346\201\236"
 624      08454B40 
 624      CF811681 
 624      1680E681 
 624      9E
 625 175b 013D95B4 		.ascii	"\001=\225\264d\015Ej\032eqK:\013)\316)-\246\277\304"
 625      640D456A 
 625      1A65714B 
 625      3A0B29CE 
 625      292DA6BF 
 626 1770 A3AEA66F 		.ascii	"\243\256\246o\261V\367\012g\025\273I\006]\342\014\\"
 626      B156F70A 
 626      6715BB49 
ARM GAS  C:\Users\AMANRA~1\AppData\Local\Temp\ccItJTv4.s 			page 50


 626      065DE20C 
 626      5C
 627 1781 B91C5A66 		.ascii	"\271\034Zf],\306.[\307\312\305F\343\347yr\250lx\213"
 627      5D2CC62E 
 627      5BC7CAC5 
 627      46E3E779 
 627      72A86C78 
 628 1796 03FFD5D7 		.ascii	"\003\377\325\327N\306\343\266\022\017mb\025\024o\036"
 628      4EC6E3B6 
 628      120F6D62 
 628      15146F1E 
 629 17a6 1C598E29 		.ascii	"\034Y\216)\371\031\001<%\341-7\206\305\203\313\252\302"
 629      F919013C 
 629      25E12D37 
 629      86C583CB 
 629      AAC2
 630 17b8 B5B4255E 		.ascii	"\265\264%^\201\320\353#\207\213\3323Q47\251\304\255"
 630      81D0EB23 
 630      878BDA33 
 630      513437A9 
 630      C4AD
 631 17ca C08A64EC 		.ascii	"\300\212d\354FW"
 631      4657
 632 17d0 5CDF8682 		.ascii	"\\\337\206\202m\302\035\2030\225\023\347\251b+\256C"
 632      6DC21D83 
 632      309513E7 
 632      A9622BAE 
 632      43
 633 17e1 A0548F01 		.ascii	"\240T\217\001\371\000y\003y\001y\250$}\242,\265\320"
 633      F9007903 
 633      790179A8 
 633      247DA22C 
 633      B5D0
 634 17f3 CB68066D 		.ascii	"\313h\006m\360\275\346^F\253h\012B\342G\346\344B\205"
 634      F0BDE65E 
 634      46AB680A 
 634      42E247E6 
 634      E44285
 635 1806 E4C8B1CD 		.ascii	"\344\310\261\315\024\271\177Q\360i\336\372\026\353\003"
 635      14B97F51 
 635      F069DEFA 
 635      16EB03
 636 1815 F95A4F4F 		.ascii	"\371ZOOd\254\345\213\257Qc\341\361K\010\203\277`x\337"
 636      64ACE58B 
 636      AF5163E1 
 636      F14B0883 
 636      BF6078DF 
 637 1829 F1062D0A 		.ascii	"\361\006-\012\334\254\235\266\016\027?\350g\363\030"
 637      DCAC9DB6 
 637      0E173FE8 
 637      67F318
 638 1838 BE2A0357 		.ascii	"\276*\003W%G[/\011\177\325\253\002$\0302\354\247\222"
 638      25475B2F 
 638      097FD5AB 
 638      02241832 
 638      ECA792
 639 184b 4F608921 		.ascii	"O`\211!v\374\365\323\304z^\246W\024x\375\012\237a;\014"
ARM GAS  C:\Users\AMANRA~1\AppData\Local\Temp\ccItJTv4.s 			page 51


 639      76FCF5D3 
 639      C47A5EA6 
 639      571478FD 
 639      0A9F613B 
 640 1860 86BFC755 		.ascii	"\206\277\307U\370]>\005\036(\202*\207\224bq'$e\037\240"
 640      F85D3E05 
 640      1E28822A 
 640      87946271 
 640      2724651F 
 641 1875 B21CB79B 		.ascii	"\262\034\267\233+u\220\352\177\247R\367\277Eg\214pD"
 641      2B7590EA 
 641      7FA752F7 
 641      BF45678C 
 641      7044
 642 1887 EB645ECF 		.ascii	"\353d^\317\302\264\270\337\204k\310r\334\017\310j`\254"
 642      C2B4B8DF 
 642      846BC872 
 642      DC0FC86A 
 642      60AC
 643 1899 DB63A1F7 		.ascii	"\333c\241\3670Gz\311\254\367\224\006]+\200`\333\336"
 643      30477AC9 
 643      ACF79406 
 643      5D2B8060 
 643      DBDE
 644 18ab 1420D41C 		.ascii	"\024 \324\034,\212\244\277F'\277p;\177\213\331\337J"
 644      2C8AA4BF 
 644      4627BF70 
 644      3B7F8BD9 
 644      DF4A
 645 18bd 8A24565F 		.ascii	"\212$V_\240!\016C\032E!\256Ai\236\\\351I\245J\235\004"
 645      A0210E43 
 645      1A4521AE 
 645      41699E5C 
 645      E949A54A 
 646 18d3 488B9022 		.ascii	"H\213\220\"\334a\323{\303^\326{\355\250\351!F\317U\237"
 646      DC61D37B 
 646      C35ED67B 
 646      EDA8E921 
 646      46CF559F 
 647 18e7 4937A268 		.ascii	"I7\242h\022\243\025Q\363\305\0256_\033<\255\262\272"
 647      12A31551 
 647      F3C51536 
 647      5F1B3CAD 
 647      B2BA
 648 18f9 BCB7B15E 		.ascii	"\274\267\261^7O\327\227\235R\351\271p\225l\221/>\213"
 648      374FD797 
 648      9D52E9B9 
 648      70956C91 
 648      2F3E8B
 649 190c 97CAC5E5 		.ascii	"\227\312\305\345y\250\364\302RK\334\257\021\274\340"
 649      79A8F4C2 
 649      524BDCAF 
 649      11BCE0
 650 191b 8C0ACBDD 		.ascii	"\214\012\313\335@\337\245\002\364\3433u\355lJ\345{x"
 650      40DFA502 
 650      F4E33375 
 650      ED6C4AE5 
ARM GAS  C:\Users\AMANRA~1\AppData\Local\Temp\ccItJTv4.s 			page 52


 650      7B78
 651 192d B4EDDD3C 		.ascii	"\264\355\335<\250\240\215\314-\334\371I{V\350\307\255"
 651      A8A08DCC 
 651      2DDCF949 
 651      7B56E8C7 
 651      AD
 652 193e 0AA12688 		.ascii	"\012\241&\210\377[\216\254\017\213T\255\345\"TXZ\224"
 652      FF5B8EAC 
 652      0F8B54AD 
 652      E5225458 
 652      5A94
 653 1950 6A152F13 		.ascii	"j\025/\023\013;\323\025\032\345(F\317\332Ds\321\252"
 653      0B3BD315 
 653      1AE52846 
 653      CFDA4473 
 653      D1AA
 654 1962 5570C729 		.ascii	"Up\307)\277\270&\243\270\327\012\247E\332\306P\237\305"
 654      BFB826A3 
 654      B8D70AA7 
 654      45DAC650 
 654      9FC5
 655 1974 BFB867D6 		.ascii	"\277\270g\326:V\311^.2\341w\035\237\367\324\2347\330"
 655      3A56C95E 
 655      2E32E177 
 655      1D9FF7D4 
 655      9C37D8
 656 1987 CCE9593E 		.ascii	"\314\351Y>\247\261*\222\323\304\331\206\032-\275\333"
 656      A7B12A92 
 656      D3C4D986 
 656      1A2DBDDB 
 657 1997 03DF7DAC 		.ascii	"\003\337}\254\246>\221\243Y\365#+\242\353\333}&$y]\013"
 657      A63E91A3 
 657      59F5232B 
 657      A2EBDB7D 
 657      2624795D 
 658 19ac 3D40503E 		.ascii	"=@P>\216(\237@\224?\313g\265~\256\370\244Z\014\306o"
 658      8E289F40 
 658      943FCB67 
 658      B57EAEF8 
 658      A45A0CC6 
 659 19c1 F3D844E7 		.ascii	"\363\330D\347\235\250\356\222\254\373K\224d3\211e3\211"
 659      9DA8EE92 
 659      ACFB4B94 
 659      64338965 
 659      3389
 660 19d3 64333CFA 		.ascii	"d3<\372i\223\032\265\320\206\2758u\366\201\003\272O"
 660      69931AB5 
 660      D086BD38 
 660      75F68103 
 660      BA4F
 661 19e5 9DA6B86F 		.ascii	"\235\246\270on\320\221[M\037\240\233*\260\313\232{\204"
 661      6ED0915B 
 661      4D1FA09B 
 661      2AB0CB9A 
 661      7B84
 662 19f7 29E033E7 		.ascii	")\3403\347\231C\3021\013\233\264\012Lu\353\242\036x"
 662      9943C231 
ARM GAS  C:\Users\AMANRA~1\AppData\Local\Temp\ccItJTv4.s 			page 53


 662      0B9BB40A 
 662      4C75EBA2 
 662      1E78
 663 1a09 983CD404 		.ascii	"\230<\324\004\221\254\022*\3019\025}\032\3368Q\376?"
 663      91AC122A 
 663      C139157D 
 663      1ADE3851 
 663      FE3F
 664 1a1b C4FA9D97 		.ascii	"\304\372\235\227\204\216T\246_*\321/%\256\345\016[\340"
 664      848E54A6 
 664      5F2AD12F 
 664      25AEE50E 
 664      5BE0
 665 1a2d 761EFB48 		.ascii	"v\036\373H^[\317i\265\315b\270\300\027C\032-\206\343"
 665      5E5BCF69 
 665      B5CD62B8 
 665      C017431A 
 665      2D86E3
 666 1a40 2B5D1759 		.ascii	"+]\027Y!\026`w\215\270;Q\301\336\343,m!\353\345\002"
 666      21166077 
 666      8DB83B51 
 666      C1DEE32C 
 666      6D21EBE5 
 667 1a55 AF5E32F0 		.ascii	"\257^2\360\2265\375\355\253x\221i\006\0306\235\0306"
 667      9635FDED 
 667      AB789169 
 667      0618369D 
 667      1836
 668 1a67 9318F602 		.ascii	"\223\030\366\002o\330\225{\261S\234\030\214\027T\332"
 668      6FD8957B 
 668      B1539C18 
 668      8C1754DA 
 669 1a77 445FEB28 		.ascii	"D_\353(\352\224\254L\274()\206,\226\315,\222\315\213"
 669      EA94AC4C 
 669      BC282986 
 669      2C96CD2C 
 669      92CD8B
 670 1a8a 198BD97A 		.ascii	"\031\213\331z%\216\254\316$\260\342\205sQ\001\331\306"
 670      258EACCE 
 670      24B0E285 
 670      735101D9 
 670      C6
 671 1a9b 576D05E4 		.ascii	"Wm\005\344\034\022\220\263I@\306`\217\200\026\2258\261"
 671      1C1290B3 
 671      4940C660 
 671      8F801695 
 671      38B1
 672 1aad 1C4974BF 		.ascii	"\034It\277\304\022\273D\022\363\256\234\0135\242\324"
 672      C412BB44 
 672      12F3AE9C 
 672      0B35A2D4 
 673 1abd D5A49807 		.ascii	"\325\244\230\007\347\275s\355m\305\206<\353\261\001"
 673      E7BD73ED 
 673      6DC5863C 
 673      EBB101
 674 1acc C665C76F 		.ascii	"\306e\307o\222\330\220\013\261\341\262El\310%\261\341"
 674      92D8900B 
ARM GAS  C:\Users\AMANRA~1\AppData\Local\Temp\ccItJTv4.s 			page 54


 674      B1E1B245 
 674      6CC825B1 
 674      E1
 675 1add 427DDA73 		.ascii	"B}\332s%\312\243\311\314U\016%im%S`=\231\205\267p\317"
 675      25CAA3C9 
 675      CC550E25 
 675      696D2553 
 675      603D9985 
 676 1af4 351F92B8 		.ascii	"5\037\222\270b\221D>I\"\354x\345\204\036\225\254\246"
 676      6291443E 
 676      4922EC78 
 676      E5841E95 
 676      ACA6
 677 1b06 D36DD77A 		.ascii	"\323m\327z\227u\350\006e\374\352\002K\325\250\2212\267"
 677      9775E806 
 677      65FCEA02 
 677      4BD5A891 
 677      32B7
 678 1b18 6B6A238C 		.ascii	"kj#\214\250\2332\263\225\303\22794J\031\223\251,]\201"
 678      A89B32B3 
 678      95C39739 
 678      344A1993 
 678      A92C5D81 
 679 1b2c 9E52E6EE 		.ascii	"\236R\346\356\203\361\036\005:\261\0063\332\256\231"
 679      83F11E05 
 679      3AB10633 
 679      DAAE99
 680 1b3b 295F037B 		.ascii	")_\003{\343\311\211\255{X\011\260?\221\026F\237\330"
 680      E3C989AD 
 680      7B5809B0 
 680      3F911646 
 680      9FD8
 681 1b4d E06EE235 		.ascii	"\340n\3425P\253\314\2421\266|\254o~\264v\0232Z\306\352"
 681      50ABCCA2 
 681      31B67CAC 
 681      6F7EB476 
 681      13325AC6 
 682 1b62 4D151C97 		.ascii	"M\025\034\227B\340\276\001T\011T\256\222\274\247z\353"
 682      42E0BE01 
 682      540954AE 
 682      92BCA77A 
 682      EB
 683 1b73 154FFC46 		.ascii	"\025O\374FS\0054\013\370\026\234\3472\313&\342\217\222"
 683      5305340B 
 683      F8169CE7 
 683      32CB26E2 
 683      8F92
 684 1b85 4C333177 		.ascii	"L31wk\3259\363\364R\221<\007\026\235\217\321\367\204"
 684      6BD539F3 
 684      F452913C 
 684      07169D8F 
 684      D1F784
 685 1b98 2E74B1D5 		.ascii	".t\261\325\374\322\316\007\233\337\271Eg*\260\252\026"
 685      FCD2CE07 
 685      9BDFB945 
 685      672AB0AA 
 685      16
ARM GAS  C:\Users\AMANRA~1\AppData\Local\Temp\ccItJTv4.s 			page 55


 686 1ba9 6395E55B 		.ascii	"c\225\345[d\254\202%\\\027\205\205\022\026\026NV\334"
 686      64AC8225 
 686      5C178585 
 686      1216164E 
 686      56DC
 687 1bbb 8DD3DB78 		.ascii	"\215\323\333xAO\224=;\253y\203\373\353b\375{%\357\366"
 687      414F943D 
 687      3BAB7983 
 687      FBEB62FD 
 687      7B25EFF6 
 688 1bcf DC92C495 		.ascii	"\334\222\304\225j\225y)pC\360\220\022u\223r\346*+W\032"
 688      6A957929 
 688      7043F090 
 688      12759372 
 688      E62A2B57 
 689 1be4 F938FF3A 		.ascii	"\3718\377:^c3\231qB\303x\023^t\343\235^zG\311\206B\004"
 689      5E633399 
 689      7142C378 
 689      135E74E3 
 689      9D5E7A47 
 690 1bfc 1115716C 		.ascii	"\021\025qlL\213\356\323\333/\316<\276\250\246p</\036"
 690      4C8BEED3 
 690      DB2FCE3C 
 690      BEA8A670 
 690      3C2F1E
 691 1c0f DA5DB660 		.ascii	"\332]\266`\264\031\236\232\370\360\324H\303Se\357\261"
 691      B4199E9A 
 691      F8F0D448 
 691      C35365EF 
 691      B1
 692 1c20 39F6E63D 		.ascii	"9\366\346=y\245\344T\261\3175d\363\356f\376\356\333"
 692      79A5E454 
 692      B1CF3564 
 692      F3EE66FE 
 692      EEDB
 693 1c32 F4EEA5F8 		.ascii	"\364\356\245\370\216%\025\257\030~Dq|(\256\302A\210"
 693      8E2515AF 
 693      187E4471 
 693      7C28AEC2 
 693      4188
 694 1c44 4F4ABC97 		.ascii	"OJ\274\227A\013\204\247Z\022\236\356\220\360\324\314"
 694      410B84A7 
 694      5A129EEE 
 694      90F0D4CC 
 695 1c54 87A7A6DC 		.ascii	"\207\247\246\334\273SF1\030\256s\365\200\256#\350\273"
 695      BB534631 
 695      18AE73F5 
 695      80AE23E8 
 695      BB
 696 1c65 04DDC4A3 		.ascii	"\004\335\304\243sF\253\232\354\305h<oeS\266GQ]\232J"
 696      7346AB9A 
 696      ECC5683C 
 696      6F6553B6 
 696      47515D9A 
 697 1c7a 8C6E7D91 		.ascii	"\214n}\221\354\214\273qE,\304\233\326\342\206\335\253"
 697      EC8CBB71 
 697      452CC49B 
ARM GAS  C:\Users\AMANRA~1\AppData\Local\Temp\ccItJTv4.s 			page 56


 697      D6E286DD 
 697      AB
 698 1c8b A384BD4F 		.ascii	"\243\204\275O\376\034\217=+F\003\211\211\361{\275\177"
 698      FE1C8F3D 
 698      2B460389 
 698      89F17BBD 
 698      7F
 699 1c9c 0A7CE6F1 		.ascii	"\012|\346\361\300i\035\032\244\366\357\032\353\214f"
 699      C0691D1A 
 699      A4F6EF1A 
 699      EB8C66
 700 1cab 0DED32E6 		.ascii	"\015\3552\346\003bj\316)l\232\260\2337a\0275a~\370\344"
 700      03626ACE 
 700      296C9AB0 
 700      9B376117 
 700      35617EF8 
 701 1cc0 299DCC62 		.ascii	")\235\314b\035\240g;\321\263\207\350\331\315\353\331"
 701      1DA0673B 
 701      D1B387E8 
 701      D9CDEBD9 
 702 1cd0 3C5C5CA1 		.ascii	"<\\\\\241\223\333\300&\372YS\323=\035\232\242Z^:\331"
 702      93DBC026 
 702      FA5953D3 
 702      3D1D9AA2 
 702      5A5E3AD9 
 703 1ce4 1EC5B434 		.ascii	"\036\305\2644\275\206\275f\370z\214\236\361\270\344"
 703      BD86BD66 
 703      F87A8C9E 
 703      F1B8E4
 704 1cf3 26EA0612 		.ascii	"&\352\006\022y\037\303\257\356O\236xT\012a\211\336\334"
 704      791FC3AF 
 704      EE4F9E78 
 704      540A6189 
 704      DEDC
 705 1d05 EF156662 		.ascii	"\357\025fb\366\371?\261\233\337\210l\324\330\314\341"
 705      F6F93FB1 
 705      9BDF886C 
 705      D4D8CCE1 
 706 1d15 209FC301 		.ascii	" \237\303\001\232\303\033)\0117\3449|\000:\367\023\235"
 706      9AC31B29 
 706      0937E439 
 706      7C003AF7 
 706      139D
 707 1d27 8788CE83 		.ascii	"\207\210\316\203\274\316\241\027\312Nh\3459\264\211"
 707      BCCEA117 
 707      CA4E68E5 
 707      39B489
 708 1d36 9E1A79F2 		.ascii	"\236\032y\362\230/\267\357\340r\233\230\177\215\261"
 708      982FB7EF 
 708      E0729B98 
 708      7F8DB1
 709 1d45 4A51C55A 		.ascii	"JQ\305Z\303*Vu\315\243\213zd\3726\235\006\033[\214\325"
 709      C32A5675 
 709      CDA38B7A 
 709      64FA369D 
 709      061B5B8C 
 710 1d5a 212FCA94 		.ascii	"!/\312\224=\354\371;\024@\217\263k\363N\031\321I\312"
ARM GAS  C:\Users\AMANRA~1\AppData\Local\Temp\ccItJTv4.s 			page 57


 710      3DECF93B 
 710      14408FB3 
 710      6BF34E19 
 710      D149CA
 711 1d6d 5C3B7F26 		.ascii	"\\;\177&\223C\321\224\211<\235\331\255G\347(\323\023"
 711      9343D194 
 711      893C9DD9 
 711      AD47E728 
 711      D313
 712 1d7f 5C748E43 		.ascii	"\\t\216C\351\224\2719\321\331\257C\227)SP\030r\222C"
 712      E994B939 
 712      D1D9AF43 
 712      97295350 
 712      18729243 
 713 1d93 572953BC 		.ascii	"W)S\274r5Q\201\312)\223;z;\304\036\265Q\206/\2015\264"
 713      72355181 
 713      CA29933B 
 713      7A3BC41E 
 713      B551862F 
 714 1daa 048CF567 		.ascii	"\004\214\365g\307\002\0358'\361\013\2564h\265\\\263"
 714      C7021D38 
 714      27F10BAE 
 714      3468B55C 
 714      B3
 715 1dbb 2FF0C28F 		.ascii	"/\360\302\217\312\346!\232\314\211\302\326\023\225|"
 715      CAE6219A 
 715      CC89C2D6 
 715      13957C
 716 1dca D6E22958 		.ascii	"\326\342)X\012\217\350\271g\020\255\346Y0\366V;q^\352"
 716      0A8FE8B9 
 716      6710ADE6 
 716      5930F656 
 716      3B715EEA 
 717 1dde 759C2790 		.ascii	"u\234'\220\007\220\011h\005\017x\200\226\200\236\003"
 717      07900968 
 717      050F7880 
 717      96809E03 
 718 1dee 2D4842FF 		.ascii	"-HB\377`$\015\375\2138\206\316\323\320?o\031\372\377"
 718      60240DFD 
 718      8B3886CE 
 718      D3D03F6F 
 718      19FAFF
 719 1e01 B753A313 		.ascii	"\267S\243\023\321\313Q\257\011{\025L@\376\346U\266\237"
 719      D1CB51AF 
 719      097B154C 
 719      40FEE655 
 719      B69F
 720 1e13 ADC8E6D0 		.ascii	"\255\310\346\320'\255\303\305\233\017\210\320Sr\264"
 720      27ADC3C5 
 720      9B0F88D0 
 720      5372B4
 721 1e22 E574BE78 		.ascii	"\345t\276xV\374\221u\270Hx\263\010=-G[N\347\227\213"
 721      56FC9175 
 721      B84878B3 
 721      083D2D47 
 721      5B4EE797 
 722 1e37 E033D6E1 		.ascii	"\3403\326\341\3427j\277'\240g\345h\213\351\374Q\021"
ARM GAS  C:\Users\AMANRA~1\AppData\Local\Temp\ccItJTv4.s 			page 58


 722      E2376ABF 
 722      27A067E5 
 722      688BE9FC 
 722      5111
 723 1e49 FAB155B4 		.ascii	"\372\261U\264x\220\030I\033\311yi#\011^\231z\252\241"
 723      78901849 
 723      1BC97969 
 723      23095E99 
 723      7AAAA1
 724 1e5c CD20AE80 		.ascii	"\315 \256\200X\316\030\024\364(\251\200>jI\340L9\325"
 724      58CE1814 
 724      F428A980 
 724      3E6A49E0 
 724      4C39D5
 725 1e6f 50AB6435 		.ascii	"P\253d5\016\217o\274\307\272\177\200\316\177\207>\241"
 725      0E8F6FBC 
 725      C7BA7F80 
 725      CE7F873E 
 725      A1
 726 1e80 1EEAF5D3 		.ascii	"\036\352\365\323\2424\312D&\217\335t@9\224I\315\215"
 726      A234CA44 
 726      268FDD74 
 726      40399449 
 726      CD8D
 727 1e92 9EB24757 		.ascii	"\236\262GW)3|\356\334\035\025*\247LZJy\240\003\252\241"
 727      29337CEE 
 727      DC1D152A 
 727      A74C5A4A 
 727      79A003AA 
 728 1ea7 4C6EF2F2 		.ascii	"Ln\362\362#=\352!\214\261c\250\273Dc\255v,G\220&=X\275"
 728      233DEA21 
 728      8CB163A8 
 728      BB4463AD 
 728      762C4790 
 729 1ebf 9A0B540B 		.ascii	"\232\013T\013u\343\204\332f\335\010\002\017\305p\354"
 729      75E384DA 
 729      66DD0802 
 729      0FC570EC 
 730 1ecf AD51701C 		.ascii	"\255Qp\034\011\036\032\001t\006\3504\320)\240p\240\223"
 730      091E1A01 
 730      7406E834 
 730      D029A070 
 730      A093
 731 1ee1 40614021 		.ascii	"@a@!jq\335h\365U\341\355;B\325`9\220\202\323\242?\337"
 731      6A71DD68 
 731      F555E1ED 
 731      3B42D560 
 731      399082D3 
 732 1ef8 6C62B450 		.ascii	"lb\264P\347\"dU\003\213zA\325\350\177U\364\032\263\332"
 732      E7226455 
 732      038B7A41 
 732      D5E87F55 
 732      F41AB3DA 
 733 1f0c 2A5CFC92 		.ascii	"*\\\374\222\364\253\322\252!A[V\215\032\021\334_.\334"
 733      F4ABD2AA 
 733      21415B56 
 733      8D1A11DC 
ARM GAS  C:\Users\AMANRA~1\AppData\Local\Temp\ccItJTv4.s 			page 59


 733      5F2EDC
 734 1f1f A26A94BF 		.ascii	"\242j\224\277*\255\032\022\264\225\035E\350B[\214>."
 734      2AAD1A12 
 734      B4951D45 
 734      E8425B8C 
 734      3E2E
 735 1f31 976DB9A1 		.ascii	"\227m\271\241\210\000\236\225\213\266|\316%\200\003"
 735      88009E95 
 735      8BB67CCE 
 735      258003
 736 1f40 E4922DF6 		.ascii	"\344\222-\366\210\360\245+\277p\211J\353E@W`\273R\\"
 736      88F0A52B 
 736      BF70894A 
 736      EB454057 
 736      60BB525C 
 737 1f54 2FB01CA1 		.ascii	"/\260\034\241^DK\353E\333\265p~\360]\372-\241aZ\303"
 737      5E444BEB 
 737      45DBB570 
 737      7EF05DFA 
 737      2DA1615A 
 738 1f69 1AA6B2F3 		.ascii	"\032\246\262\363\036\251J\364\210\272\271wW\360\244"
 738      1EA94AF4 
 738      88BAB977 
 738      57F0A4
 739 1f78 52D63EC6 		.ascii	"R\326>\306\252\327\262\025\272qR\301\203!\021\203jy"
 739      AAD7B215 
 739      BA7152C1 
 739      83211183 
 739      6A79
 740 1f8a FB6813FD 		.ascii	"\373h\023\375\374ya\036\333R\301\204\325Xz\232x\306"
 740      FC79611E 
 740      DB52C184 
 740      D5587A9A 
 740      78C6
 741 1f9c 80E669BA 		.ascii	"\200\346i\272"
 742 1fa0 F597A202 		.ascii	"\365\227\242\002\330s\240R\334\342W7\265<\346\220\347"
 742      D873A052 
 742      DCE25737 
 742      B53CE690 
 742      E7
 743 1fb1 77C945FF 		.ascii	"w\311E\377\276K\313\354]\255\002|\261\326{1\327\036"
 743      BE4BCBEC 
 743      5DAD027C 
 743      B1D67B31 
 743      D71E
 744 1fc3 05D08B29 		.ascii	"\005\320\213)]s\355\032\024N\231c7\027\023\330\273J"
 744      5D73ED1A 
 744      144E9963 
 744      371713D8 
 744      BB4A
 745 1fd5 D918597C 		.ascii	"\331\030Y|*\345\202=\212\245\027\353:\322\037\250Q*"
 745      2AE5823D 
 745      8AA517EB 
 745      3AD21FA8 
 745      512A
 746 1fe7 65FA4F2E 		.ascii	"e\372O._f\257\251\247bd\316J\232\277\016\345\320\213"
 746      5F66AFA9 
ARM GAS  C:\Users\AMANRA~1\AppData\Local\Temp\ccItJTv4.s 			page 60


 746      A76264CE 
 746      4A9ABF0E 
 746      E5D08B
 747 1ffa D7C7F3A7 		.ascii	"\327\307\363\247\264\250"
 747      B4A8
 748 2000 9832771F 		.ascii	"\2302w\037N&\263v=\036#\2073\036L\031\321\015z\261\355"
 748      4E26B376 
 748      3D1E2387 
 748      331E4C19 
 748      D10D7AB1 
 749 2015 51EDB011 		.ascii	"Q\355\260\0215P&\2471\327\227e\"\002#\233\322*\036\350"
 749      355026A7 
 749      31D79765 
 749      2202239B 
 749      D22A1EE8 
 750 2029 501BD3B3 		.ascii	"P\033\323\263\250\015\334\272\2172WB\357T\261\"\011"
 750      A80DDCBA 
 750      8F325742 
 750      EF54B122 
 750      09
 751 203a C1C8F2E1 		.ascii	"\301\310\362\341\351B\025\032\244\027=\343z:\354\321"
 751      E942151A 
 751      A4173DE3 
 751      7A3AECD1 
 752 204a 24657C27 		.ascii	"$e|'\317\267\262\336\237\0371\314\340|\222=\232\243"
 752      CFB7B2DE 
 752      9F1F31CC 
 752      E07C923D 
 752      9AA3
 753 205c 170B7DEA 		.ascii	"\027\013}\352o+\320\012e\370N\323*\326i\272^\037\\l"
 753      6F2BD00A 
 753      65F84ED3 
 753      2AD669BA 
 753      5E1F5C6C 
 754 2070 441057F1 		.ascii	"D\020W\361\305\222S\363)F\344O\231\371\361\210\273|"
 754      C59253F3 
 754      2946E44F 
 754      99F9F188 
 754      BB7C
 755 2082 F7CB0127 		.ascii	"\367\313\001'X9\230\241FA\364\342\363\353#a|7\006\217"
 755      583998A1 
 755      4641F4E2 
 755      F3EB2361 
 755      7C37068F 
 756 2096 29DB3BD2 		.ascii	")\333;\322^Cg\350\265\224\254\354\022{\024E\231\321"
 756      5E4367E8 
 756      B594ACEC 
 756      127B1445 
 756      99D1
 757 20a8 D13B0D06 		.ascii	"\321;\015\006\224H\231\225\332\3066G\224F\231Swo\334"
 757      94489995 
 757      DAC63647 
 757      94469953 
 757      776FDC
 758 20bb 51A34B94 		.ascii	"Q\243K\224\211\356\233\336\214\012\350\361X\315@\221"
 758      89EE9BDE 
 758      8C0AE8F1 
ARM GAS  C:\Users\AMANRA~1\AppData\Local\Temp\ccItJTv4.s 			page 61


 758      58CD4091 
 759 20cb 1E5D675A 		.ascii	"\036]gZ\230*K\014\250\2121\001\003\337B\335\344\330"
 759      982A4B0C 
 759      A88A3101 
 759      03DF42DD 
 759      E4D8
 760 20dd D8FA2CE6 		.ascii	"\330\372,\346\231\202\023o\255\301\026s\324\370\274"
 760      9982136F 
 760      ADC11673 
 760      D4F8BC
 761 20ec FE2BEE2E 		.ascii	"\376+\356.\256\01554\326\325\274 \326\335\201\370V\303"
 761      AE0D3534 
 761      D6D5BC20 
 761      D6DD81F8 
 761      56C3
 762 20fe 625D0B1C 		.ascii	"b]\013\0347C<\273\015\324\004\324\010\324\000T\017T"
 762      37433CBB 
 762      0DD404D4 
 762      08D40054 
 762      0F54
 763 2110 07540B54 		.ascii	"\007T\013T-\211u\203\255*!b\224AM\255yq\254\3538o\256"
 763      2D897583 
 763      AD2A2162 
 763      94414DAD 
 763      7971ACEB 
 764 2127 D7B81760 		.ascii	"\327\270\027`\005-n\250\005\360\224\034l\031\351\312"
 764      052D6EA8 
 764      05F0941C 
 764      6C19E9CA 
 765 2137 0574B95C 		.ascii	"\005t\271\\\021\313G\372\311fp\205\034l\345\211\276"
 765      11CB47FA 
 765      C9667085 
 765      1C6CE589 
 765      BE
 766 2148 80AEB48E 		.ascii	"\200\256\264\216\026?\320\027\3007\344`\313=,\004p\225"
 766      163FD017 
 766      C037E460 
 766      CB3D2C04 
 766      7095
 767 215a 55B0F871 		.ascii	"U\260\370q\276\017\215s5j+\203\344\311\237\343\006\025"
 767      BE0F8D73 
 767      356A2B83 
 767      E4C99FE3 
 767      0615
 768 216c DF7F4BD4 		.ascii	"\337\177K\324\240\336\264\335\240\376W\313\035\017K"
 768      A0DEB4DD 
 768      A0FE57CB 
 768      1D0F4B
 769 217b 02866224 		.ascii	"\002\206b$\203\203\032IXm\225\306\263\214\324\356A6"
 769      83831A49 
 769      586D95C6 
 769      B38CD4EE 
 769      4136
 770 218d 322E25BB 		.ascii	"2.%\273\277\205\017\265\260\221s1\236\232\233\216;U"
 770      BF850FB5 
 770      B0917331 
 770      9E9A9B8E 
ARM GAS  C:\Users\AMANRA~1\AppData\Local\Temp\ccItJTv4.s 			page 62


 770      3B55
 771 219f C3367DE8 		.ascii	"\3036}\350\263\007>\266\374z\243\036\315P\177\317\356"
 771      B3073EB6 
 771      FC7AA31E 
 771      CD507FCF 
 771      EE
 772 21b0 EBF660E3 		.ascii	"\353\366`\343\3447\200M\230\216j\267\2679\210\351R\263"
 772      E437804D 
 772      988E6AB7 
 772      B73988E9 
 772      52B3
 773 21c2 414CA79A 		.ascii	"AL\247\232\014b\026K\263n\311\0071\355\020v\357\251"
 773      0C62164B 
 773      B36EC907 
 773      31ED1076 
 773      EFA9
 774 21d4 C9A08EA8 		.ascii	"\311\240\216\250I\356!A\351a\324y\215<H\333D7\237M\232"
 774      49EE2141 
 774      E961D479 
 774      8D3C48DB 
 774      44379F4D 
 775 21e9 D5A245AA 		.ascii	"\325\242E\252df`V(S2\002\3470\2703x\331\021\231\276"
 775      64666056 
 775      28533202 
 775      E730B833 
 775      78D91199 
 776 21fe 472ED63E 		.ascii	"G.\326>\013\375\300\246\306\375\274\306\225t\246;4("
 776      0BFDC0A6 
 776      C6FDBCC6 
 776      9574A63B 
 776      3428
 777 2210 A1442BD3 		.ascii	"\241D+\323\230\337}\306\216{@t\350\347uxp\317\364c\271"
 777      98DF7DC6 
 777      8E7B4074 
 777      E8E77578 
 777      70CFF463 
 778 2225 C236C1F3 		.ascii	"\3026\301\363\017r/#\344Ou**HjdE\022\202\025\216\354"
 778      0F722F23 
 778      E44F752A 
 778      2A486A64 
 778      45128215 
 779 223b 2F4E7644 		.ascii	"/NvDa\364bHcj\264=\212\240L\376\350\361\033\254I\361"
 779      61F46248 
 779      636AB43D 
 779      8AA04CFE 
 779      E8F11BAC 
 780 2251 C3C8D606 		.ascii	"\303\310\326\006\357)=\212\247\027\333\253\217'+Q\032"
 780      EF293D8A 
 780      A717DBAB 
 780      8F272B51 
 780      1A
 781 2262 65B2172A 		.ascii	"e\262\027*\006\025(\2132\003\327\223w\241\334\357I\226"
 781      0615288B 
 781      3203D793 
 781      77A1DCEF 
 781      4996
 782 2274 A3ADA2CB 		.ascii	"\243\255\242\313\321\270\305\033\323\335\254\374KU\300"
ARM GAS  C:\Users\AMANRA~1\AppData\Local\Temp\ccItJTv4.s 			page 63


 782      D1B8C51B 
 782      D3DDACFC 
 782      4B55C0
 783 2283 DF1B8E8D 		.ascii	"\337\033\216\215b\373o\231~\002\374\345\214\332:\007"
 783      62FB6F99 
 783      7E02FCE5 
 783      8CDA3A07 
 784 2293 54486F0E 		.ascii	"THo\016[\254=\315F\274Yd\256?&a\305\366T\307,o\316\031"
 784      5BAC3DCD 
 784      46BC5964 
 784      AE3F2661 
 784      C5F654C7 
 785 22ab EA00173D 		.ascii	"\352\000\027=\252n!\2319\037A\221N\221\"}L,4k\266P\323"
 785      AA6E2199 
 785      391F4191 
 785      4E91227D 
 785      4C2C346B 
 786 22c2 54958503 		.ascii	"T\225\205\003\330D\007{\365\374O\252\327\177\003\356"
 786      D844077B 
 786      F5FC4FAA 
 786      D77F03EE 
 787 22d2 44444A08 		.ascii	"DDJ\010?\327\200\347\036\316\\z\024\307\241r\232\207"
 787      3FD780E7 
 787      1ECE5C7A 
 787      14C7A172 
 787      9A87
 788 22e4 A52E8F65 		.ascii	"\245.\217e\326\240\343V\244\372\\V\265\355\251\350\005"
 788      D6A0E356 
 788      A4FA5C56 
 788      B5EDA9E8 
 788      05
 789 22f5 3E0BF334 		.ascii	">\013\3634\013~\013\24579Y\026\236\202RsD\251E\242\324"
 789      0B7E0BA5 
 789      37395916 
 789      9E825273 
 789      44A945A2 
 790 230a 02AFD48D 		.ascii	"\002\257\324\215\326\3669\243<\0136\321yw\352\257iQ"
 790      D6F639A3 
 790      3C0B36D1 
 790      7977EAAF 
 790      6951
 791 231c 0D2B3EB6 		.ascii	"\015+>\266\375\336*\272\375\036ws\274\265\232\25501"
 791      FDDE2ABA 
 791      FD1E7773 
 791      BCB59AAD 
 791      3031
 792 232e E1C95FAF 		.ascii	"\341\311_\257\372E\0375j\241\340[\235\201%\314\3417"
 792      FA451F35 
 792      6AA1E05B 
 792      9D8125CC 
 792      E137
 793 2340 00DB1735 		.ascii	"\000\333\0275\335\304\331\314\221\247\206\345\310CC"
 793      DDC4D9CC 
 793      91A786E5 
 793      C84343
 794 234f B76C089B 		.ascii	"\267l\010\233\016V\310r\264\002:.\023\035\2754\253\370"
 794      0E56C872 
ARM GAS  C:\Users\AMANRA~1\AppData\Local\Temp\ccItJTv4.s 			page 64


 794      B4023A2E 
 794      131DBD34 
 794      ABF8
 795 2361 7B48AB78 		.ascii	"{H\253x\347\244\263<C6\301q\376\017\252\021\352\244"
 795      E7A4B33C 
 795      4336C171 
 795      FE0FAA11 
 795      EAA4
 796 2373 3A167757 		.ascii	":\026wW\007\250P/e\036\237\013:\243G\003\224\031{<\236"
 796      07A8502F 
 796      651E9F0B 
 796      3AA34703 
 796      94197B3C 
 797 2388 AE401394 		.ascii	"\256@\023\224yRY3b@OXI\325\307\247\"\264L\231\302S9"
 797      79525933 
 797      62404F58 
 797      49D5C7A7 
 797      22B44C99 
 798 239f CB3AE4FB 		.ascii	"\313:\344\373\032a\322\317>\356V\241`\312\214\327\024"
 798      1A61D2CF 
 798      3EEE56A1 
 798      60CA8CD7 
 798      14
 799 23b0 8FE8D019 		.ascii	"\217\350\320\031\312\204%vVjQ\034e\352<\223\036*P\012"
 799      CA842576 
 799      566A511C 
 799      65EA3C93 
 799      1E2A500A 
 800 23c4 6546976E 		.ascii	"eF\227n\372!\224\3053)\221*\224O\231\343\327{\306\240"
 800      FA2194C5 
 800      3329912A 
 800      944F99E3 
 800      D77BC6A0 
 801 23d8 7DA7CCB5 		.ascii	"}\247\314\265\361\200\020Gt\2232\241\363#}z\324H\231"
 801      F1801047 
 801      749332A1 
 801      F3237D7A 
 801      D44899
 802 23eb 8797FD0A 		.ascii	"\207\227\375\012\241_D\231\354\230\3242%\032\240L\325"
 802      A15F4499 
 802      EC98D432 
 802      251AA04C 
 802      D5
 803 23fc 895B297C 		.ascii	"\211[)|\037\221\274\342\367\350\301\3514~^\302\364\303"
 803      1F91BCE2 
 803      F7E8C1E9 
 803      347E5EC2 
 803      F4C3
 804 240e 70F43743 		.ascii	"p\3647C\205\307RU\222\235\267\376\330\177\374N]\203"
 804      85C75255 
 804      929DB7FE 
 804      D87FFC4E 
 804      5D83
 805 2420 31A2E14C 		.ascii	"1\242\341L\220\006qQ\032\353\215\266\244\235\211\320"
 805      90067151 
 805      1AEB8DB6 
 805      A49D89D0 
ARM GAS  C:\Users\AMANRA~1\AppData\Local\Temp\ccItJTv4.s 			page 65


 806 2430 ACE5CE68 		.ascii	"\254\345\316hp\323\253q\"w\340v\346.\034\337\321\254"
 806      70D3AB71 
 806      2277E076 
 806      E62E1CDF 
 806      D1AC
 807 2442 E35A809A 		.ascii	"\343Z\200\232\201n\0035\0015\002E\0025\000\325\003\325"
 807      816E0335 
 807      01350245 
 807      023500D5 
 807      03D5
 808 2454 01D502D5 		.ascii	"\001\325\002\325\000U\003\335\002\272\011T\005t\003"
 808      005503DD 
 808      02BA0954 
 808      057403
 809 2463 A812A802 		.ascii	"\250\022\250\002\250\034\250\014\250\024\350:P\011\320"
 809      A81CA80C 
 809      A814E83A 
 809      5009D0
 810 2472 35A062A0 		.ascii	"5\240b\240\"\240\253@\205@\005@\371@W\200\362\200r\201"
 810      22A0AB40 
 810      85400540 
 810      F9405780 
 810      F2807281 
 811 2486 2E035D02 		.ascii	".\003]\002\312\001\312\006\312\002\272\010\224\011\224"
 811      CA01CA06 
 811      CA02BA08 
 811      940994
 812 2495 01940E74 		.ascii	"\001\224\016t\001(\015(\025(\005\350<P2\3209\240$\240"
 812      01280D28 
 812      152805E8 
 812      3C5032D0 
 812      39A024A0 
 813 24a9 44A004A0 		.ascii	"D\240\004\240x\2408\240\263@\261@\321\032\361\340s2"
 813      78A038A0 
 813      B340B140 
 813      D11AF1E0 
 813      7332
 814 24bb 9A4ECCC4 		.ascii	"\232N\314\304h\240\335\006S\340\206\231\376\374\377"
 814      68A0DD06 
 814      53E08699 
 814      FEFCFF
 815 24ca 16935B8C 		.ascii	"\026\223[\214.\304m\310\\\023N\226\250\264\251Vq\015"
 815      2EC46DC8 
 815      5C134E96 
 815      A8B4A956 
 815      710D
 816 24dc 2AEA72FC 		.ascii	"*\352r\374D0\233;\346{\\\000\257\312\\E\341\275\000"
 816      44309B3B 
 816      E67B5C00 
 816      AFCA5C45 
 816      E1BD00
 817 24ef EF64707E 		.ascii	"\357dp~\206\225\273\247\222w\272\3462D\036\335\247\222"
 817      8695BBA7 
 817      9277BAE6 
 817      32441EDD 
 817      A792
 818 2501 79F43DB9 		.ascii	"y\364=\271\370\311\214W\250\370a\020\377\220\301\371"
ARM GAS  C:\Users\AMANRA~1\AppData\Local\Temp\ccItJTv4.s 			page 66


 818      F8C98C57 
 818      A8F86110 
 818      FF90C1F9 
 819 2511 E94DEEBE 		.ascii	"\351M\356\276\030N\346\3412\276C\327\327\370\250Wq\343"
 819      184EE6E1 
 819      32BE43D7 
 819      D7F8A857 
 819      71E3
 820 2523 0CCEF78E 		.ascii	"\014\316\367\216\270\0219\274'c\015\205\303h\224\363"
 820      B81139BC 
 820      27630D85 
 820      C36894F3 
 821 2533 55CBE0C7 		.ascii	"U\313\340\307\3242eZye\342\001~\226\301\371\261$\027"
 821      D432655A 
 821      7965E201 
 821      7E96C1F9 
 821      B12417
 822 2546 2387D7FC 		.ascii	"#\207\327\374\204\276\342\201\321\211rt\202\034].B\237"
 822      84BEE281 
 822      D1897274 
 822      821C5D2E 
 822      429F
 823 2558 93A39324 		.ascii	"\223\243\223$h<\005\230.2\343y\265\314\214\311j\213"
 823      683C0598 
 823      2E32E379 
 823      B5CC8CC9 
 823      6A8B
 824 256a D9821F0B 		.ascii	"\331\202\037\013C\205\024\353pq7Z\204N\223\243S-\204"
 824      438514EB 
 824      7071375A 
 824      844E93A3 
 824      532D84
 825 257d 7788E017 		.ascii	"w\210\340\027\254\303\305\333\352\211\320\031rt\272"
 825      ACC3C5DB 
 825      EA89D019 
 825      7274BA
 826 258c 85F085BF 		.ascii	"\205\360\205\277\022\340\231\326\341\342\261\205\010"
 826      12E099D6 
 826      E1E2B185 
 826      08
 827 2599 9D25475F 		.ascii	"\235%G_\264\020>*\202g[\207\213\247\177D\350Krt\216"
 827      B4103E2A 
 827      82675B87 
 827      8BA77F44 
 827      E84B7274 
 828 25ae 85F01A11 		.ascii	"\205\360\032\021\374\262u\270x\362\362/\005t\236\034"
 828      FCB275B8 
 828      78F2F22F 
 828      05749E1C 
 829 25be 9D6BA9B9 		.ascii	"\235k\251\271\010~\305:\\\\\240\"t\201\034\235oY\240"
 829      087EC53A 
 829      5C5CA022 
 829      74811C9D 
 829      6F59A0
 830 25d1 2278A175 		.ascii	"\"x\241u\270x\250(B\027\311\321W-\315\"\202\027[\207"
 830      B878A828 
 830      4217C9D1 
ARM GAS  C:\Users\AMANRA~1\AppData\Local\Temp\ccItJTv4.s 			page 67


 830      572DCD22 
 830      82175B87 
 831 25e5 8BE34B9A 		.ascii	"\213\343K\232(\000\224\250e\001\340\232\030N&7S\331"
 831      280094A8 
 831      6501E09A 
 831      184E2637 
 831      53D9
 832 25f7 023B1808 		.ascii	"\002;\030\010q\245\362\032}].}.\225I\357\001x\007\203"
 832      71A5F21A 
 832      7D5D2E7D 
 832      2E9549EF 
 832      01780783 
 833 260b F3030FAE 		.ascii	"\363\003\017\256\315B\367\301TQ\265\353\225+\337&\027"
 833      CD42F7C1 
 833      5451B5EB 
 833      952BDF26 
 833      17
 834 261c DF93FA03 		.ascii	"\337\223\372\003\252\315C\020\177\237\301\315;Z\366"
 834      AACD4310 
 834      7F9FC1CD 
 834      3B5AF6
 835 262b 59886F10 		.ascii	"Y\210o\020\213\037\220\213\357\263p\231?\025,9$G\017"
 835      8B1F908B 
 835      EFB37099 
 835      3F152C39 
 835      24470F
 836 263e 5ABA8C08 		.ascii	"Z\272\214\010>l\035.v\031\021zT\216\036\261\020\336"
 836      3E6C1D2E 
 836      7619117A 
 836      548E1EB1 
 836      10DE
 837 2650 2C828F59 		.ascii	",\202\217Y\207\213c\200\010=.G\307Z4\032\345\"\370\204"
 837      878B6380 
 837      083D2E47 
 837      C75A341A 
 837      E522F884 
 838 2664 75B8C8EA 		.ascii	"u\270\310\352\313gY\223\364\004\254>\315\340\374`\202"
 838      CB675993 
 838      F404AC3E 
 838      CDE0FC60 
 838      82
 839 2675 9B9417D2 		.ascii	"\233\224\027\322\344YVH\317\001\376\214\301\371\216"
 839      E4595648 
 839      CF01FE8C 
 839      C1F98E
 840 2684 3B7B8C26 		.ascii	";{\214&V\246\347\254\250\220\226\344\332\364\313\265"
 840      56A6E7AC 
 840      A89096E4 
 840      DAF4CBB5 
 841 2694 69E5C57B 		.ascii	"i\345\305{kVq&\326\205\343\273\321\322]Q\210\013\210"
 841      6B567126 
 841      D685E3BB 
 841      D1D25D51 
 841      880B88
 842 26a7 A5FBC87B 		.ascii	"\245\373\310{|\322\367\374\211i~ \332\345\323:\\\354"
 842      7CD2F7FC 
 842      89697E20 
ARM GAS  C:\Users\AMANRA~1\AppData\Local\Temp\ccItJTv4.s 			page 68


 842      DAE5D33A 
 842      5CEC
 843 26b9 317F22DA 		.ascii	"1\177\"\332\344S\216>o!|F\004\367\263\016\027{\214\010"
 843      E4538E3E 
 843      6F217C46 
 843      04F7B30E 
 843      177B8C08 
 844 26cd ED2F474B 		.ascii	"\355/GKW\356\022\217\021\301\217[\207\213=F\204\016"
 844      57EE128F 
 844      11C18F5B 
 844      878B3D46 
 844      840E
 845 26df 90A32DDF 		.ascii	"\220\243-\337UZ\020\275}t\302:\\<=.B\007Z\357eK\302"
 845      555A10BD 
 845      7D74C23A 
 845      5C3C3D2E 
 845      42075AEF 
 846 26f6 A3081E2C 		.ascii	"\243\010\036,\207[N\2165\213\340!\326\341\342\214\212"
 846      875B4E8E 
 846      358BE021 
 846      D6E1E28C 
 846      8A
 847 2707 D0A172B4 		.ascii	"\320\241r\264\225'd\"x\230u\270\270\374\277/\240O\312"
 847      95276422 
 847      789875B8 
 847      B8FCBF2F 
 847      A04FCA
 848 271a D1161364 		.ascii	"\321\026\023d3\"t\270U\264h\206\014\367\264\361\023"
 848      332274B8 
 848      55B46886 
 848      0CF7B4F1 
 848      13
 849 272b 32DCBBB6 		.ascii	"2\334\273\266\\\362\236I\2369a\001\2475\302\024\331"
 849      5CF29E49 
 849      9E396101 
 849      A735C214 
 849      D9
 850 273c 290D5D46 		.ascii	")\015]FR}:\371\212B\274\014D\234\022\304U\015\277\014"
 850      527D3AF9 
 850      8A42BC0C 
 850      449C12C4 
 850      550DBF0C 
 851 2750 24C72323 		.ascii	"$\307##\336\001M\323\201XN{g\257\026-Q\246\251 \004"
 851      DE014DD3 
 851      81584E7B 
 851      67AF162D 
 851      51A6A920 
 852 2765 C64701DF 		.ascii	"\306G\001\337\247\317\356k\374r9t\2322g{\212z\035Q\022"
 852      A7CFEE6B 
 852      FC723974 
 852      9A32677B 
 852      8A7A1D51 
 853 277a 65326FE1 		.ascii	"e2o\341\035\3202)3\\\356?\212\320\025\312\214\336x\036"
 853      1DD03229 
 853      335CEE3F 
 853      8AD015CA 
 853      8CDE781E 
ARM GAS  C:\Users\AMANRA~1\AppData\Local\Temp\ccItJTv4.s 			page 69


 854 278e A5466594 		.ascii	"\245Fe\224)\277\345\325cD\015\337\177\351w-\356\223"
 854      29BFE5D5 
 854      63440DDF 
 854      7FE9772D 
 854      EE93
 855 27a0 81763F0C 		.ascii	"\201v?\014#\036h\350\273\026\370\014\377\256\005>\016"
 855      231E68E8 
 855      BB16F80C 
 855      FFAE053E 
 855      0E
 856 27b1 47DF4E1C 		.ascii	"G\337N\034\033\361\326p\312\365\364\325\012\374\272"
 856      1BF1D670 
 856      CAF5F4D5 
 856      0AFCBA
 857 27c0 C5FAF55A 		.ascii	"\305\372\365Z\366N\013~\001C\351D^\301P\330"
 857      F64E0B7E 
 857      0143E944 
 857      5EC150D8 
 858 27d0 711D60A4 		.ascii	"q\035`\244\001\315znP\303\277\375P\273h\274\340\217"
 858      01CD7A6E 
 858      50C3BFFD 
 858      50BB68BC 
 858      E08F
 859 27e2 9F694F6A 		.ascii	"\237iOj\264\3442\374b\023\316j\310\353\014\355p\346"
 859      B4E432FC 
 859      6213CE6A 
 859      C8EB0CED 
 859      70E6
 860 27f4 A9663D5E 		.ascii	"\251f=^\351\313u\301\361\030\334<\254!o*t\002;\016\354"
 860      E9CB75C1 
 860      F118DC3C 
 860      AC216F2A 
 860      74023B0E 
 861 2809 438D927F 		.ascii	"C\215\222\177\025\003\337\213u\304\277\354\215\203\277"
 861      1503DF8B 
 861      75C4BFEC 
 861      8D83BF
 862 2818 33519EDC 		.ascii	"3Q\236\334\315dOi\370w;j\314\227;\205\313#\346\3133"
 862      CD644F69 
 862      F8773B6A 
 862      CC973B85 
 862      CB23E6CB 
 863 282d EFF3977B 		.ascii	"\357\363\227{\204\313\243\032\311\253\031`\003\336`"
 863      84CBA31A 
 863      C9AB1960 
 863      03DE60
 864 283c D330B0C2 		.ascii	"\3230\260\302`\262\230\030\216\037k\204W3\330\353\030"
 864      60B29818 
 864      8E1F6B84 
 864      5733D8EB 
 864      18
 865 284d 5443F23A 		.ascii	"TC\362:\006>d{k\232\265\350\0239Q\257\306\374\336\304"
 865      063E647B 
 865      6B9AB5E8 
 865      133951AF 
 865      C6FCDEC4 
 866 2861 82598F6E 		.ascii	"\202Y\217nA\217G\232\265\34674\360)0\011\326r\002L\362"
ARM GAS  C:\Users\AMANRA~1\AppData\Local\Temp\ccItJTv4.s 			page 70


 866      418F479A 
 866      B5E63734 
 866      F0293009 
 866      D672024C 
 867 2876 0C4CC2BC 		.ascii	"\014L\302\274\267\232\276\260\201\001\"\357%\3675q\""
 867      B79ABEB0 
 867      810122EF 
 867      25F73571 
 867      22
 868 2887 43F5D4A8 		.ascii	"C\365\324\250\3714\332\2054\346h)\340Tg@\356\220\206"
 868      F934DA85 
 868      34E66829 
 868      E0546740 
 868      EE9086
 869 289a 2C07E4B7 		.ascii	",\007\344\267\025^C\267\025\256<\267\364D\205|\326\322"
 869      155E43B7 
 869      15AE3CB7 
 869      F444857C 
 869      D6D2
 870 28ac 6940B6CF 		.ascii	"i@\266\317\357\032\272\317\357\235\234\251\006\005:"
 870      EF1ABACF 
 870      EF9D9CA9 
 870      06053A
 871 28bb 49AF0DFB 		.ascii	"I\257\015\373\2302u(\2322g\352\375\013\024(\2212\217"
 871      98327528 
 871      9A3267EA 
 871      FD0B1428 
 871      91328F
 872 28ce 8FFB3C65 		.ascii	"\217\373<eS\202d?\333\232\231K\0166'\177LZ6\371\263"
 872      5382643F 
 872      DB9A994B 
 872      0E36277F 
 872      4C5A36F9 
 873 28e3 42277F2E 		.ascii	"B'\177.\\-\233\326\311\326\257\362\357~\333q\036\332"
 873      5C2D9BD6 
 873      C9D6AFF2 
 873      EF7EDB71 
 873      1EDA
 874 28f5 55FC3DE4 		.ascii	"U\374=\344IM\346\302iN\276~\325&\372vb\347\0115J\245"
 874      494DE6C2 
 874      694EBE7E 
 874      D526FA76 
 874      62E70935 
 875 290b 4A4ED565 		.ascii	"JN\325eMhQ\016e\316\315O\345\033\320\025\302(\352\233"
 875      4D68510E 
 875      65CECD4F 
 875      E51BD015 
 875      C228EA9B 
 876 291f 9E5EB5B9 		.ascii	"\236^\265\271\242\320Wk\365=\343\251\340\015\005C\001"
 876      A2D0576B 
 876      F53DE3A9 
 876      E00D0543 
 876      01
 877 2930 78E1E231 		.ascii	"x\341\3421-\264\210Z\213\027\215\323G\372\232T(\361"
 877      2DB4885A 
 877      8B178DD3 
 877      47FA9A54 
ARM GAS  C:\Users\AMANRA~1\AppData\Local\Temp\ccItJTv4.s 			page 71


 877      28F1
 878 2942 4F487217 		.ascii	"OHr\027r3\316;\212#I\275\344#\034\376Z>\222<\035\013"
 878      7233CE3B 
 878      8A2349BD 
 878      E4231CFE 
 878      5A3E923C 
 879 2958 9DD0A10B 		.ascii	"\235\320\241\013\364\256\346\343\227\372\020\272L\231"
 879      F4AEE6E3 
 879      97FA10BA 
 879      4C99
 880 2966 DEA68C7F 		.ascii	"\336\246\214\177Fe\364x\340f\177\210\0125Qf\310\347"
 880      4665F478 
 880      E0667F88 
 880      0A355166 
 880      C8E7
 881 2978 D161344C 		.ascii	"\321a4L\217\347;\342\356#\264B\231\266\247!>Jt\372\007"
 881      8FE73BE2 
 881      EE23B442 
 881      99B6A721 
 881      3E4A74FA 
 882 298d F429616A 		.ascii	"\364)ajK\255\003:G\231\270\241\363\311*T\300\230\244"
 882      4BAD033A 
 882      4799B8A1 
 882      F3C92A54 
 882      C098A4
 883 29a0 A0160EDD 		.ascii	"\240\026\016\335\"\014Z\272\222]\246\345\330\316\234"
 883      220C5ABA 
 883      925DA6E5 
 883      D8CE9C
 884 29af 344E68B8 		.ascii	"4Nh\270\323Z\2721'\376e\201\246I\026hN\223B=\005a#\\"
 884      D35ABA31 
 884      27FE6581 
 884      A6491668 
 884      4E93423D 
 885 29c7 8B4BF5D5 		.ascii	"\213K\365\325\342\361\333\245\006\210\032J\032B\030"
 885      E2F1DBA5 
 885      06881A4A 
 885      1A4218
 886 29d6 093FE4D5 		.ascii	"\011?\344\325\256\365pU\273^I]\270q\321\3308\202+Y\206"
 886      AEF57055 
 886      BB5E495D 
 886      B871D1D8 
 886      38822B59 
 887 29eb 56CB0582 		.ascii	"V\313\005\202A\341\027\0334FK\2348\024\316$k\327s\211"
 887      41E1171B 
 887      34464B9C 
 887      3814CE24 
 887      6BD77389 
 888 29ff 5A123E02 		.ascii	"Z\022>\002\200=\257]\317G\362\346\017\261\373\343;O"
 888      803DAF5D 
 888      CF47F2E6 
 888      0FB1FBE3 
 888      3B4F
 889 2a11 6A853A18 		.ascii	"j\205:\030\2465\327\301\376\017x@\210 :^\313\327A\025"
 889      A635D7C1 
 889      FE0F7840 
 889      88203A5E 
ARM GAS  C:\Users\AMANRA~1\AppData\Local\Temp\ccItJTv4.s 			page 72


 889      CBD74115 
 890 2a25 3905724F 		.ascii	"9\005rO\300\325tH&R\313\302R\223\371R\020\\J\205K\027"
 890      C0D57448 
 890      2652CBC2 
 890      5293F952 
 890      105C4A85 
 891 2a3b F94B2154 		.ascii	"\371K!T\0209\216G<\014\313\217\006X\032\017\313\346"
 891      10398E47 
 891      3C0CCB8F 
 891      06581A0F 
 891      CBE6
 892 2a4d 61247DA6 		.ascii	"a$}\246O\207Y\237PA\237sZsd3\347'@\270\234\302\253\333"
 892      4F87599F 
 892      50419F73 
 892      5A736433 
 892      E72740B8 
 893 2a65 C78924CD 		.ascii	"\307\211$\315\230%\005\011\320$j\264`8\223\011\272\304"
 893      98250509 
 893      D0246AB4 
 893      60389309 
 893      BAC4
 894 2a77 69F988D2 		.ascii	"i\371\210\322ZG#\012\306\211\"\012\025UU\257\346e\235"
 894      5A47230A 
 894      C689220A 
 894      155555AF 
 894      E6659D
 895 2a8a 10649DD5 		.ascii	"\020d\235\325J\"&\0245_\362QP70\030G\314\013p\034\241"
 895      4A222614 
 895      355FF251 
 895      50373018 
 895      47CC0B70 
 896 2aa0 1522267B 		.ascii	"\025\"&{\227\316\254\\\260 0\201*\207\313\370\014(\027"
 896      97CEAC5C 
 896      B0203081 
 896      2A87CBF8 
 896      0C2817
 897 2ab3 AB2561E9 		.ascii	"\253%a\351\354\211\224\033\010\265R\247\2148\326uIi"
 897      EC89941B 
 897      08B552A7 
 897      8C38D675 
 897      4969
 898 2ac5 338464F3 		.ascii	"3\204d\363!\344\030}\371l>\242\353\276dF\334\331`^\360"
 898      21E4187D 
 898      F96C3EA2 
 898      EBBE6446 
 898      DCD9605E 
 899 2ada 09635A12 		.ascii	"\011cZ\022\024\262\371\240\260\234y\032\372\366\367"
 899      14B2F9A0 
 899      B09C791A 
 899      FAF6F7
 900 2ae9 693A51F1 		.ascii	"i:Q\361\343\321\0324F\231\362\231\354\024\366\374\026"
 900      E3D11A34 
 900      4699F299 
 900      EC14F6FC 
 900      16
 901 2afa CFD8F785 		.ascii	"\317\330\367\205T\2548\332\324!\217\327!\2278<wn0>P"
 901      54AC38DA 
ARM GAS  C:\Users\AMANRA~1\AppData\Local\Temp\ccItJTv4.s 			page 73


 901      D4218FD7 
 901      2197383C 
 901      776E303E 
 902 2b0f 85A6A8A4 		.ascii	"\205\246\250\244\212\352\023\271\010\315S&\364\206\257"
 902      8AEA13B9 
 902      08CD5326 
 902      F486AF
 903 2b1e 0BF2FD53 		.ascii	"\013\362\375SZY\243\263*\215(\2242\327\233\202!pDR\246"
 903      5A59A3B3 
 903      2A8D2894 
 903      32D79B82 
 903      21704452 
 904 2b33 EB6247BF 		.ascii	"\353bG\277\036\305Q&\352N\350e\025J\246Lb\315\3756\007"
 904      1EC55126 
 904      EA4EE865 
 904      154AA64C 
 904      62CDFD36 
 905 2b48 944199C8 		.ascii	"\224A\231\310\214(\010\\\345\204\321\371e\017w+\331"
 905      8C28085C 
 905      E584D1F9 
 905      650F772B 
 905      D9
 906 2b59 E35EF3A3 		.ascii	"\343^\363\243\336\225\000\373v\177\362\336\376M-\364"
 906      DE9500FB 
 906      767FF2DE 
 906      FE4D2DF4 
 907 2b69 794AB564 		.ascii	"yJ\265dv\221\376X\337\375\242\012\212\016\256\223b\274"
 907      7691FE58 
 907      DFFDA20A 
 907      8A0EAE93 
 907      62BC
 908 2b7b 01C795DA 		.ascii	"\001\307\225\332u\\\005P9P\031\320u\255x\325o\325=\266"
 908      755C0550 
 908      395019D0 
 908      75AD78D5 
 908      6FD53DB6 
 909 2b8f EA1707BE 		.ascii	"\352\027\007\276B(C|\253\215\256 y\011\274a\015\305"
 909      4228437C 
 909      AB8DAE20 
 909      7909BC61 
 909      0DC5
 910 2ba1 4394E3AE 		.ascii	"C\224\343\256Z\307\213\267/j\020\211/\222\303-7\227"
 910      5AC78BB7 
 910      2F6A1089 
 910      2F92C32D 
 910      3797
 911 2bb3 FC907606 		.ascii	"\374\220v\0061\272\330*Z\374\270\264\236v\006\2611,"
 911      31BAD82A 
 911      5AFCB8B4 
 911      9E7606B1 
 911      312C
 912 2bc5 3A830DF7 		.ascii	":\203\015\367\210\363c\001%\242\030rM+\177^\372G\333"
 912      88F36301 
 912      25A21872 
 912      4D2B7F5E 
 912      FA47DB
 913 2bd8 0D8AAD73 		.ascii	"\015\212\255s\344n\227\3443\037b=\355\270[\346\006`"
ARM GAS  C:\Users\AMANRA~1\AppData\Local\Temp\ccItJTv4.s 			page 74


 913      E46E97E4 
 913      331F623D 
 913      EDB85BE6 
 913      0660
 914 2bea E2EC78B4 		.ascii	"\342\354x\264\032\265\322\302N\365y\024\246F\275\224"
 914      1AB5D2C2 
 914      4EF57914 
 914      A646BD94 
 915 2bfa 991F2A37 		.ascii	"\231\037*7)\255\355fl\3553SM\215\231S\222\256k\255V"
 915      29ADED66 
 915      6CED3353 
 915      4D8D9953 
 915      92AE6BAD 
 916 2c0f ECBC75E6 		.ascii	"\354\274u\346\364\246\027.\006\330\243\001\232D\333"
 916      F4A6172E 
 916      06D8A301 
 916      9A44DB
 917 2c1e C9B3954A 		.ascii	"\311\263\225J4F\231\230\261\270D\003\232\241LgU\376"
 917      34469998 
 917      B1B84403 
 917      9AA14C67 
 917      55FE
 918 2c30 08877CC9 		.ascii	"\010\207|\311\307\311t\221W\247\317s\3465\\l\375\026"
 918      C7C97491 
 918      57A7CF73 
 918      E6355C6C 
 918      FD16
 919 2c42 0DB0CD90 		.ascii	"\015\260\315\220\255&\221\365\032m[\3576X\254\231Y\257"
 919      AD2691F5 
 919      1A6D5BEF 
 919      3658AC99 
 919      59AF
 920 2c54 1D8EEF81 		.ascii	"\035\216\357\201\305\332\200Z\201\356\002\265h%K\031"
 920      C5DA805A 
 920      81EE02B5 
 920      68254B19 
 921 2c64 ABE98CF9 		.ascii	"\253\351\214\371\035\\t\315\324\247\233_\340\323/+\235"
 921      1D5C74CD 
 921      D4A79B5F 
 921      E0D32F2B 
 921      9D
 922 2c75 6D4B5727 		.ascii	"mKW'\363\351\346\027\373tU-\363i0$Wc\035/\336n\250F"
 922      F3E9E617 
 922      FB74552D 
 922      F3693024 
 922      57631D2F 
 923 2c8d 24BE5E0E 		.ascii	"$\276^\016\267\360\351\362\277\023|\272\301*Z\274\004"
 923      B7F0E9F2 
 923      BF137CBA 
 923      C12A5ABC 
 923      04
 924 2c9e B09AFA74 		.ascii	"\260\232\372t\263V\276\324\251\267\2623^\362]\244f\211"
 924      B356BED4 
 924      A9B7B233 
 924      5EF25DA4 
 924      6689
 925 2cb0 CF75987D 		.ascii	"\317u\230}\240\177${\026\241(R\270\334\351\354\333\365"
ARM GAS  C:\Users\AMANRA~1\AppData\Local\Temp\ccItJTv4.s 			page 75


 925      A07F247B 
 925      16A12852 
 925      B8DCE9EC 
 925      DBF5
 926 2cc2 46749E32 		.ascii	"Ft\2362ym\217f\214(\2072\317\247\006. T@?Pwk 8\330\306"
 926      796D8F66 
 926      8C288732 
 926      CFA7062E 
 926      2054403F 
 927 2cdd 16F47D5A 		.ascii	"\026\364}Z\253{\303C\373\036\221F^\365\350\205|\365"
 927      AB7BC343 
 927      FB1E9146 
 927      5EF5E885 
 927      7CF5
 928 2cef 083D26F3 		.ascii	"\010=&\363\016\361\203\327\022*\351\253+\030A\337]\011"
 928      0EF183D7 
 928      122AE9AB 
 928      2B1841DF 
 928      5D09
 929 2d01 5A2A29D2 		.ascii	"Z*)\322\243R\252A\334\324x\222\0265Q\246pb,X\211Z)\323"
 929      A352AA41 
 929      DCD47892 
 929      163551A6 
 929      70622C58 
 930 2d19 1F1131E0 		.ascii	"\037\0211\340\210z)\263\034\350\375\032\032\242\307"
 930      887A29B3 
 930      1CE8FD1A 
 930      1AA2C7
 931 2d28 B171176A 		.ascii	"\261q\027j\035\321\"e\306\346\313S\365(\360\317h'\252"
 931      1DD12265 
 931      C6E6CB53 
 931      F528F0CF 
 931      6827AA
 932 2d3b E4F23503 		.ascii	"\344\3625\003:C\231\352\306\374P#:G\231\346\200\224"
 932      3A4399EA 
 932      C6FC5023 
 932      3A4799E6 
 932      8094
 933 2d4d FD288B1E 		.ascii	"\375(\213\036?L~\030\317\277\276\254\006\376\352\323"
 933      3F4C7E18 
 933      CFBFBEAC 
 933      06FEEAD3 
 934 2d5d C22E840A 		.ascii	"\302.\204\012\351\305\331{\246R#*\245L\260W\206\006"
 934      E9C5D97B 
 934      A652232A 
 934      A54CB057 
 934      8606
 935 2d6f 35D0E300 		.ascii	"5\320\343\000\357\302l-\352\245L\362\235\276x\005\232"
 935      EFC26C2D 
 935      EAA54CF2 
 935      9DBE7805 
 935      9A
 936 2d80 A28CD783 		.ascii	"\242\214\327\203\300\263Z\222G\374>(\315\343]\237\260"
 936      C0B35A92 
 936      47FC3E28 
 936      CDE35D9F 
 936      B0
ARM GAS  C:\Users\AMANRA~1\AppData\Local\Temp\ccItJTv4.s 			page 76


 937 2d91 730EE41C 		.ascii	"s\016\344\034\356\026\316\320\3460\324\277yB89KO\372"
 937      EE16CED0 
 937      E630D4BF 
 937      79423839 
 937      4B4FFA
 938 2da4 8E8F752A 		.ascii	"\216\217u*\221\307\017\351\222\242\206e\250^\001\224"
 938      91C70FE9 
 938      92A28665 
 938      A85E0194 
 939 2db4 A9E9CF03 		.ascii	"\251\351\317\003;\235\244Ly\313\261\013*\224D\030\315"
 939      3B9DA44C 
 939      79CBB10B 
 939      2A944418 
 939      CD
 940 2dc5 9992C460 		.ascii	"\231\222\304`\332H\230\233\210\301FZ\231V\260\317,\320"
 940      DA48989B 
 940      88C1465A 
 940      9956B0CF 
 940      2CD0
 941 2dd7 CAB46059 		.ascii	"\312\264`Y\231\314;0-C\211.\260\312\264\004\307\317"
 941      99CC3B30 
 941      2D43892E 
 941      B0CAB404 
 941      C7CF
 942 2de9 A1022D02 		.ascii	"\241\002-\002\315K*\321\340=Q\245x\002\345\273\360B"
 942      CD4B2AD1 
 942      E03D51A5 
 942      7802E5BB 
 942      F042
 943 2dfb 2F97B423 		.ascii	"/\227\264#sV\341b7o\244n\276`-tO\322\320\215\005<\023"
 943      7356E162 
 943      376FA46E 
 943      BE602D74 
 943      4FD2D08D 
 944 2e12 059FA716 		.ascii	"\005\237\247\026\301\347\245s\204\033\364\316\221\034"
 944      C1E7A573 
 944      841BF4CE 
 944      911C
 945 2e20 4EFA1289 		.ascii	"N\372\022\211\265\333\355\254\335\333T\236\363X\262"
 945      B5DBEDAC 
 945      DDDB549E 
 945      F358B2
 946 2e2f EDAC4927 		.ascii	"\355\254I'\331\213Jg\376\350^\255\367\244#\312\241\305"
 946      D98B4A67 
 946      FEE85EAD 
 946      F7A423CA 
 946      A1C5
 947 2e41 96D5DAFB 		.ascii	"\226\325\332\373\\\205*)3\322\024U\255C\365\224\211"
 947      5C852A29 
 947      33D21455 
 947      AD43F594 
 947      89
 948 2e52 9ACCF7D0 		.ascii	"\232\314\367\320\240^\312\224\334\315zjD\217(\343{\322"
 948      A05ECA94 
 948      DCCD7A6A 
 948      448F28E3 
 948      7BD2
ARM GAS  C:\Users\AMANRA~1\AppData\Local\Temp\ccItJTv4.s 			page 77


 949 2e64 C70179FE 		.ascii	"\307\001y\37699\356k+I\323\240H\312\\\236\210\274\303"
 949      3939EE6B 
 949      2B49D3A0 
 949      48CA5C9E 
 949      88BCC3
 950 2e77 A18B9489 		.ascii	"\241\213\224\211\353\036\235F\250\2242\365\267\033\003"
 950      EB1E9D46 
 950      A89432F5 
 950      B71B03
 951 2e86 8CA88932 		.ascii	"\214\250\2112\375#\013'9\324\375\347/=\245\020\250\303"
 951      FD230B27 
 951      39D4FDE7 
 951      2F3DA510 
 951      A8C3
 952 2e98 553B48B7 		.ascii	"U;H\267\226\013\326\321)\005|\206\237R\300\307\320\373"
 952      960BD6D1 
 952      29057C86 
 952      9F52C0C7 
 952      D0FB
 953 2eaa 6F5A28F4 		.ascii	"oZ(\364v\200>\276R\251\\\357\304O+\360[8\260\001\000"
 953      76803EBE 
 953      52A95CEF 
 953      C44F2BF0 
 953      5B38B001 
 954 2ebf 1918ACE7 		.ascii	"\031\030\254\347{\377\315\037\341\022\214\326i9?\035"
 954      7BFFCD1F 
 954      E1128CD6 
 954      69393F1D 
 955 2ecf C2BFB800 		.ascii	"\302\277\270\000cu|?\262\337|\371\230p9^G\372\221\307"
 955      63757C3F 
 955      B2DF7CF9 
 955      9870395E 
 955      47FA91C7 
 956 2ee3 E14C826E 		.ascii	"\341L\202n=\027\256##\003\014\010\0056\202\262\376\300"
 956      3D17AE23 
 956      23030C08 
 956      053682B2 
 956      FEC0
 957 2ef5 9E023646 		.ascii	"\236\0026F\307\317Y\324\230e\371\013\262\316\352\314"
 957      C7CF59D4 
 957      9865F90B 
 957      B2CEEACC 
 958 2f05 EF8A992F 		.ascii	"\357\212\231/\237\320\011\276\024\240Cd\026\303\033"
 958      9FD009BE 
 958      14A04364 
 958      16C31B
 959 2f14 CE25E9E8 		.ascii	"\316%\351\350\214\206\017\034\237\007\321gt\346)\014"
 959      8C860F1C 
 959      9F07D167 
 959      74E6290C 
 960 2f24 2C2D8ADE 		.ascii	",-\212\336.\3563\203Yx\033\236\3269\021\341\330\363"
 960      2EEE3383 
 960      59781B9E 
 960      D63911E1 
 960      D8F3
 961 2f36 12E1384C 		.ascii	"\022\3418L'\331\000\002\347>\004d\246\3602_g2\311\244"
 961      27D90002 
ARM GAS  C:\Users\AMANRA~1\AppData\Local\Temp\ccItJTv4.s 			page 78


 961      E73E0464 
 961      A6F0325F 
 961      6732C9A4 
 962 2f4a 83F91046 		.ascii	"\203\371\020F\000\346\343Rz\314fL\314\332\037\0272\027"
 962      00E6E352 
 962      7ACC664C 
 962      CCDA1F17 
 962      3217
 963 2f5c 453287AB 		.ascii	"E2\207\253\321r=\355\376\343\013\026\335\377\271\006"
 963      D1723DED 
 963      FEE30B16 
 963      DDFFB906 
 964 2f6c 357FB3B7 		.ascii	"5\177\263\267ps\234n\255y\302AH\247\303\234\216\257"
 964      70739C6E 
 964      AD79C241 
 964      48A7C39C 
 964      8EAF
 965 2f7e 008D3497 		.ascii	"\000\2154\227\327\250\371\262\217p\371\034-/|C2d\361"
 965      D7A8F9B2 
 965      8F70F91C 
 965      2D2F7C43 
 965      3264F1
 966 2f91 A48E06BA 		.ascii	"\244\216\006\272\216\007\311j\022\3500\234F\304\341"
 966      8E07C96A 
 966      12E8309C 
 966      46C4E1
 967 2fa0 9EBA331C 		.ascii	"\236\2723\034\032f\376:\2608\345\210\236P\306w\350\366"
 967      1A66FE3A 
 967      B038E588 
 967      9E50C677 
 967      E8F6
 968 2fb2 332532AD 		.ascii	"3%2\255\303\314Gq)C=Zn\225AX\322\300\366\212\020\366"
 968      C3CC4771 
 968      29433D5A 
 968      6E954158 
 968      D2C0F68A 
 969 2fc8 90005ED8 		.ascii	"\220\000^\330{\230\002\3519\321_\210\213\020\033\235"
 969      7B9802E9 
 969      39D15F88 
 969      8B101B9D 
 970 2fd8 68275A34 		.ascii	"h'Z4\212\310\324\031\314\035\012;.C\267\212\357\366"
 970      8AC8D419 
 970      CC1D0A3B 
 970      2E43B78A 
 970      EFF6
 971 2fea 8BDF56BF 		.ascii	"\213\337V\277(\251\331\231:\313\235\012\314OV\236Aq"
 971      28A9D999 
 971      3ACB9D0A 
 971      CC4F569E 
 971      4171
 972 2ffc 67EB58D4 		.ascii	"g\353X\324"
 973 3000 98D3ADE3 		.ascii	"\230\323\255\343\236\000=\006\312\007\272\002\224\007"
 973      9E003D06 
 973      CA07BA02 
 973      9407
 974 300e 940B7419 		.ascii	"\224\013t\031\350\022P\016P\226N\334\015\202\316}p\000"
 974      E812500E 
ARM GAS  C:\Users\AMANRA~1\AppData\Local\Temp\ccItJTv4.s 			page 79


 974      50964EDC 
 974      0D82CE7D 
 974      7000
 975 3020 E9DCCFEB 		.ascii	"\351\334\317\353 \020\2024lX\372c\375\003e\242D\271"
 975      20108234 
 975      6C58FA63 
 975      FD0365A2 
 975      44B9
 976 3032 A770FCC7 		.ascii	"\247p\374\307\246\313:H\303\242N\374\025\210\261\331"
 976      A6CB3A48 
 976      C3A24EFC 
 976      1588B1D9 
 977 3042 3A5B33D7 		.ascii	":[3\327\244\317\337\273*\334\274\361S>\203\2337=\260"
 977      A4CFDFBB 
 977      2ADCBCF1 
 977      533E839B 
 977      373DB0
 978 3055 DC5F71AE 		.ascii	"\334_q\256\207\211\207\2160W \027o\261\301\"\277G;t"
 978      8789878E 
 978      30572017 
 978      6FB1C122 
 978      BF473B74 
 979 3069 61B86A39 		.ascii	"a\270j9\332r\203\305\326n\2216\235rm\304[>\360\033\326"
 979      DA7283C5 
 979      D66E9136 
 979      9D726DC4 
 979      5B3EF01B 
 980 307e 0B3B4474 		.ascii	"\013;DtY\207\213\225a\273\221\027\200\267t\313\225\021"
 980      59878B95 
 980      61BB9117 
 980      80B774CB 
 980      9511
 981 3090 771D454E 		.ascii	"w\035ENsU'\332Ta\026J\245P'\337TA\014\261\343\257\333"
 981      735527DA 
 981      5461164A 
 981      A55027DF 
 981      54410CB1 
 982 30a7 7A8717C0 		.ascii	"z\207\027\300\360\267H\307o\252P\014\272\334\327JvU"
 982      F0B748C7 
 982      6FAA500C 
 982      BADCD74A 
 982      7655
 983 30b9 B826F1D3 		.ascii	"\270&\361\323b\235\345\256\012\343\332\265d\203}n\006"
 983      629DE5AE 
 983      0AE3DAB5 
 983      64837D6E 
 983      06
 984 30ca 14BACE5C 		.ascii	"\024\272\316\\f\032\216\037\201;\334\005\272\003\324"
 984      661A8E1F 
 984      813BDC05 
 984      BA03D4
 985 30d9 02D40C74 		.ascii	"\002\324\014t\033\250\011\250\021\250\001\250\036\350"
 985      1BA809A8 
 985      11A801A8 
 985      1EE8
 986 30e7 265015D0 		.ascii	"&P\025\320\015\240J\240\012\240r\2402\240R\240\022\235"
 986      0DA04AA0 
ARM GAS  C:\Users\AMANRA~1\AppData\Local\Temp\ccItJTv4.s 			page 80


 986      0AA072A0 
 986      32A052A0 
 986      129D
 987 30f9 78F785E6 		.ascii	"x\367\205\346\377\024^\007\235\000\273]\027\333M\374"
 987      FF145E07 
 987      9D00BB5D 
 987      17DB4DFC 
 988 3109 CD01A664 		.ascii	"\315\001\246d\251T\311\351\377O\224\234[f\216Y\255\202"
 988      A954C9E9 
 988      FF4F949C 
 988      5B668E59 
 988      AD82
 989 311b C1ABCAAA 		.ascii	"\301\253\312\252\226\342\317\001\374O\232\2476\015\014"
 989      96E2CF01 
 989      FC4F9AA7 
 989      360D0C
 990 312a 0BE468CB 		.ascii	"\013\344h\313o4\264.\255\362&\373A\340y\333{\032\212"
 990      6F34B42E 
 990      ADF226FB 
 990      41E079DB 
 990      7B1A8A
 991 313d 67ED84C5 		.ascii	"g\355\204\305\247\006f\376\037\341\373\233\013R,\335"
 991      A70666FE 
 991      1FE1FB9B 
 991      0B522CDD 
 992 314d AE7F5E23 		.ascii	"\256\177^#RD\004~n\015\274(\002\317\374\017\301\337"
 992      5244047E 
 992      6E0DBC28 
 992      02CFFC0F 
 992      C1DF
 993 315f 9718D8EC 		.ascii	"\227\030\330\354\357\262O\001\340)\244\305WN\305c\255"
 993      EFB24F01 
 993      E029A4C5 
 993      574EC563 
 993      AD
 994 3170 3DB5ABB8 		.ascii	"=\265\253\270e\2067w\215,\277\0050\267\300:z\267\300"
 994      65863777 
 994      8D2CBF05 
 994      30B7C03A 
 994      7AB7C0
 995 3183 2BBDE425 		.ascii	"+\275\344%\035gu\317\357\032q\005\251\203\342\255\266"
 995      1D6775CF 
 995      EF1A7105 
 995      A983E2AD 
 995      B6
 996 3194 A8203592 		.ascii	"\250 5\222\012R\375\342\012RC*H\255\244\202\034R\012"
 996      0A52FDE2 
 996      0A52432A 
 996      48ADA482 
 996      1C520A
 997 31a7 2393D800 		.ascii	"#\223\330\00022\301\032N\012#\023*\324\374\306\366\205"
 997      3232C11A 
 997      4E0A2313 
 997      2AD4FCC6 
 997      F685
 998 31b9 2CF6C636 		.ascii	",\366\3066\356\261z\3133b\271\331\371\334\274(h\372"
 998      EEB17ACB 
ARM GAS  C:\Users\AMANRA~1\AppData\Local\Temp\ccItJTv4.s 			page 81


 998      3362B9D9 
 998      F9DCBC28 
 998      68FA
 999 31cb 59C78BB7 		.ascii	"Y\307\213\267\026\236g\336\200\247\313\216k%\205f\271"
 999      169E67DE 
 999      80A7CB8E 
 999      6B258566 
 999      B9
 1000 31dc 95F9DCB3 		.ascii	"\225\371\334\263\265g\310\003\334\034(\205,\2066\277"
 1000      B567C803 
 1000      DC1C2885 
 1000      2C8636BF 
 1001 31ec E52CDD65 		.ascii	"\345,\335e\0107\374S\257\011\360Kr\270\345\226@US\337"
 1001      0837FC53 
 1001      AF09F04B 
 1001      72B8E596 
 1001      405553DF 
 1002 3200 A17868F6 		.ascii	"\241xh\366\270\313\014\377\202-\201\006'E1vX+s\"\313"
 1002      B8CB0CFF 
 1002      822D8106 
 1002      27453176 
 1002      582B7322 
 1003 3215 2FCF961F 		.ascii	"/\317\226\037\022|n\304:\\<\200\236`\226l\325\321-\204"
 1003      127C6EC4 
 1003      3A5C3C80 
 1003      9E60966C 
 1003      D5D12D84 
 1004 3229 2496B4BE 		.ascii	"$\226\264\276qM\233$\340\265Zi\230\315\331\231\004\007"
 1004      714D9B24 
 1004      E0B55A69 
 1004      98CDD999 
 1004      0407
 1005 323b 6BE71BE6 		.ascii	"k\347\033\346!\010\002\367\201:\201:\200\356I\032\340"
 1005      210802F7 
 1005      813A813A 
 1005      80EE491A 
 1005      E0
 1006 324c 86113A74 		.ascii	"\206\021:t\232\302\315o;m~\333-\233_k\242\271\0118\266"
 1006      9AC2CD6F 
 1006      3B6D7EDB 
 1006      2D9B5F6B 
 1006      A2B90938 
 1007 3261 259DB59B 		.ascii	"%\235\265\233c\242\252R\010\001\244\335Vc\302\366<\376"
 1007      63A2AA52 
 1007      0801A4DD 
 1007      5663C2F6 
 1007      3CFE
 1008 3273 771A6FBA 		.ascii	"w\032o\272\000>\245\265\012\227\327\254\036q\315\352"
 1008      003EA5B5 
 1008      0A97D7AC 
 1008      1E71CDEA 
 1009 3283 038DBA2D 		.ascii	"\003\215\272-jV\217\244fu[\324,\274{\215P\265zH\325"
 1009      6A568FA4 
 1009      66755BD4 
 1009      2CBC7B8D 
 1009      50B57A48 
 1010 3298 EAB559B5 		.ascii	"\352\265Y\265:i\325\302*>\022\252V\267\264j\245g\262"
ARM GAS  C:\Users\AMANRA~1\AppData\Local\Temp\ccItJTv4.s 			page 82


 1010      3A69D5C2 
 1010      2A3E12AA 
 1010      56B7B46A 
 1010      A567B2
 1011 32ab AAD50FB0 		.ascii	"\252\325\017\260iyN\254\027\360CqN\006!'\017,r\362P"
 1011      69794EAC 
 1011      17F04371 
 1011      4E062127 
 1011      0F2C72F2 
 1012 32c0 92930716 		.ascii	"\222\223\007\0269\201\201\230('\017IN\006$9y\254\345"
 1012      39818198 
 1012      28270F49 
 1012      4E062439 
 1012      79ACE5
 1013 32d3 B352BB68 		.ascii	"\263R\273h\034\016\300\217:\261\212\236\346\241\001"
 1013      1C0EC08F 
 1013      3AB18A9E 
 1013      E6A101
 1014 32e2 93CABED5 		.ascii	"\223\312\276\325\020`\177\266\236|\253a\030\307:\235"
 1014      10607FB6 
 1014      9E7CAB61 
 1014      18C73A9D 
 1015 32f2 B57CC80B 		.ascii	"\265|\310\013dT\234\215q\310\306\210E6F%\331\030yq\250"
 1015      64549C8D 
 1015      71C8C688 
 1015      45364625 
 1015      D9187971 
 1016 3307 1B25B918 		.ascii	"\033%\271\030\223\344\"U'*\220\353\264@\260\206iB6\250"
 1016      93E42255 
 1016      272A90EB 
 1016      B440B086 
 1016      694236A8 
 1017 331b 543A4A80 		.ascii	"T:J\200lD\006\232\3746\022\317\266\334|a\214\014\023"
 1017      6C44069A 
 1017      FC3612CF 
 1017      B6DC7C61 
 1017      8C0C13
 1018 332e 70CED245 		.ascii	"p\316\322E#\244\013:\233S}\177\\%\250\232\020\265\212"
 1018      23A40B3A 
 1018      9B537D7F 
 1018      5C25A89A 
 1018      10B58A
 1019 3341 785F2651 		.ascii	"x_&Q\034\264\230\026\030\247\273$a\310\230h\350?\252"
 1019      1CB49816 
 1019      18A7BB24 
 1019      61C89868 
 1019      E83FAA
 1020 3354 15B6A05E 		.ascii	"\025\266\240^4\006T\223\255\037\257I@\370\036s\236\346"
 1020      34065493 
 1020      AD1FAF49 
 1020      40F81E73 
 1020      9EE6
 1021 3366 3AE8E64D 		.ascii	":\350\346M\270\023\327/@\012\245^Z\224\316\274\024\303"
 1021      B813D72F 
 1021      400AA55E 
 1021      5A94CEBC 
 1021      14C3
ARM GAS  C:\Users\AMANRA~1\AppData\Local\Temp\ccItJTv4.s 			page 83


 1022 3378 1E58EFEB 		.ascii	"\036X\357\353\211[\354\337\012=\303\207r\264\345G\260"
 1022      895BECDF 
 1022      0A3DC387 
 1022      72B4E547 
 1022      B0
 1023 3389 7F23F487 		.ascii	"\177#\364\207\006\254\242E\371^\276G\247C\262\255\025"
 1023      06ACA245 
 1023      F95EBE47 
 1023      A743B2AD 
 1023      15
 1024 339a D0E03029 		.ascii	"\320\3400) ,`Hd\223A\213\351\220ol\220\200\303+\236"
 1024      202C6048 
 1024      6493418B 
 1024      E9906F6C 
 1024      9080C32B 
 1025 33af 916ABD3B 		.ascii	"\221j\275;\314\326\240\373\351\200\017\277\\\361C\266"
 1025      CCD6A0FB 
 1025      E9800FBF 
 1025      5CF143B6 
 1026 33bf 241DBFD6 		.ascii	"$\035\277\326\221P\343u\232\177s\004\257P_\314n\354"
 1026      9150E375 
 1026      9A7F7304 
 1026      AF505FCC 
 1026      6EEC
 1027 33d1 662F1494 		.ascii	"f/\024\224\276\016|Y@\351i-:\276\216\276\223wi\254\236"
 1027      BE0E7C59 
 1027      40E9692D 
 1027      3ABE8EBE 
 1027      937769AC 
 1028 33e6 EDF0E48B 		.ascii	"\355\360\344\213\301\017\333\362\372l\277\346a\322\363"
 1028      C10FDBF2 
 1028      FA6CBFE6 
 1028      61D2F3
 1029 33f5 0F957564 		.ascii	"\017\225ud\376{\"\362a\254^\366PyI\267\226{\256#\363"
 1029      FE7B22F2 
 1029      61AC5EF6 
 1029      507949B7 
 1029      967BAE23 
 1030 340a 2FFA55FC 		.ascii	"/\372U\374=\030|\362l\342\031\205\374\241\262M\264\337"
 1030      3D187CF2 
 1030      6CE21985 
 1030      FCA1B24D 
 1030      B4DF
 1031 341c 7DDF16F6 		.ascii	"}\337\026\366\376\3113\314\367\204>}\242G\201T\353\231"
 1031      FEC933CC 
 1031      F7843E7D 
 1031      A2478154 
 1031      EB99
 1032 342e A4AC38B6 		.ascii	"\244\2548\266UA)~\206\364\244\242\263Y\207B\350\305"
 1032      5541297E 
 1032      86F4A4A2 
 1032      B3598742 
 1032      E8C5
 1033 3440 B391453D 		.ascii	"\263\221E=J\024A\231\012\037\237](\216\036\007\3359"
 1033      4A144199 
 1033      0A1F9F5D 
 1033      288E1E07 
ARM GAS  C:\Users\AMANRA~1\AppData\Local\Temp\ccItJTv4.s 			page 84


 1033      DD39
 1034 3452 DE8F5012 		.ascii	"\336\217P\022e\372\006\346\0378\240\024\312\334\013"
 1034      65FA06E6 
 1034      1F38A014 
 1034      CADC0B
 1035 3461 9A087344 		.ascii	"\232\010sDY\224\361\034\033\0357\240K\224\031\313<5"
 1035      5994F11C 
 1035      1B1D37A0 
 1035      4B9419CB 
 1035      3C35
 1036 3473 E0880A28 		.ascii	"\340\210\012(3\236\367\370\010\272F\217\343\263.\201"
 1036      339EF7F8 
 1036      08BA468F 
 1036      E3B32E81 
 1037 3483 B355B224 		.ascii	"\263U\262$\223\037\364(P-\223<z\254\217\354h\341\365"
 1037      931FF428 
 1037      502D933C 
 1037      7AAC8FEC 
 1037      68E1F5
 1038 3496 879F72E3 		.ascii	"\207\237r\343\251\3120\323U\005\272C\357\015\230\214"
 1038      A9CA30D3 
 1038      5505BA43 
 1038      EF0D988C 
 1039 34a6 4C73443D 		.ascii	"LsD=\224\231Lj\2300\240i\312\264^\275]\317!\317\277"
 1039      94994C6A 
 1039      9830A069 
 1039      CAB45EBD 
 1039      5DCF21CF 
 1040 34bb 208CF7E8 		.ascii	" \214\367\350X\231\032\235\242\314\305\322S\375\366"
 1040      58991A9D 
 1040      A2CCC5D2 
 1040      53FDF6
 1041 34ca 289E30DF 		.ascii	"(\2360\337\315\310\272`\322p\374\370\333 ~\007\301\311"
 1041      CDC8BA60 
 1041      D270FCF8 
 1041      DB207E07 
 1041      C1C9
 1042 34dc 89EDF794 		.ascii	"\211\355\367\224\261\372\376`)\251\317\221\372\325\\"
 1042      B1FAFE60 
 1042      29A9CF91 
 1042      FAD55C
 1043 34eb B85EF0DD 		.ascii	"\270^\360\335\223z\271\357\372\350\327\222.\024\027"
 1043      937AB9EF 
 1043      FAE8D792 
 1043      2E1417
 1044 34fa A1772270 		.ascii	"\241w\"p\354\273\3708C\277\216K\007\272\000\224\006"
 1044      ECBBF838 
 1044      43BF8E4B 
 1044      07BA0094 
 1044      06
 1045 350b 940A9402 		.ascii	"\224\012\224\002t\036(\031\350\034P\022P\"P4P\224^\334"
 1045      741E2819 
 1045      E81C5012 
 1045      50225034 
 1045      50945EDC 
 1046 351f E1EFE13F 		.ascii	"\341\357\341?\340\342l\340\316\200\002X\262\215\245"
 1046      E0E26CE0 
ARM GAS  C:\Users\AMANRA~1\AppData\Local\Temp\ccItJTv4.s 			page 85


 1046      CE800258 
 1046      B28DA5
 1047 352e 6818BE1C 		.ascii	"h\030\276\034\307v\031\216\321\0338_\353xy\300?\253"
 1047      C776198E 
 1047      D11B385F 
 1047      EB7879C0 
 1047      3FAB
 1048 3540 1705FC8B 		.ascii	"\027\005\374\213\240q\254^\036\360\305\020;\376\272"
 1048      A071AC5E 
 1048      1EF0C510 
 1048      3BFEBA
 1049 354f AD800F60 		.ascii	"\255\200\017`<M\243\347\003~\274^\276\243^\202^\334"
 1049      3C4DA3E7 
 1049      037EBC5E 
 1049      BEA35E82 
 1049      5EDC
 1050 3561 158AD75B 		.ascii	"\025\212\327[\216\375\314\326\314\374f\255\311\177\330"
 1050      8EFDCCD6 
 1050      CCFC66AD 
 1050      C97FD8
 1051 3570 85F480E5 		.ascii	"\205\364\200\345\346\261\3346s\201-\033\304p\177\353"
 1051      E6B1DC36 
 1051      73812D1B 
 1051      C4707FEB 
 1052 3580 70F1684B 		.ascii	"p\361hK\204>.G[n\2369\027\313\312\012w\337\003\254\343"
 1052      843E2E47 
 1052      5B6E9E39 
 1052      17CBCA0A 
 1052      77DF03AC 
 1053 3595 C5D2FF44 		.ascii	"\305\322\377Dx\012sB\216\266\234\302\350\211\021e5\320"
 1053      780A7342 
 1053      8EB69CC2 
 1053      E8891165 
 1053      35D0
 1054 35a7 3A5EFCF9 		.ascii	":^\374\371\265\357\013\272\007\311\321V\276\021!\202"
 1054      B5EF0BBA 
 1054      07C9D156 
 1054      BE112182 
 1055 35b7 075B878B 		.ascii	"\007[\207\213\227\341G\261\234\206\352\365\\\210\034"
 1055      97E147B1 
 1055      9C86EAF5 
 1055      5C881C
 1056 35c6 6E6513C9 		.ascii	"ne\023\311\327\350h\021w\354\302\030\2345\270\226_\210"
 1056      D7E86811 
 1056      77ECC218 
 1056      9C35B896 
 1056      5F88
 1057 35d8 F89EF085 		.ascii	"\370\236\360\205\010\374\035 \214\265\372\251\006\322"
 1057      08FC1D20 
 1057      8CB5FAA9 
 1057      06D2
 1058 35e6 5538A3C3 		.ascii	"U8\243\303-\021\366\277S\346\332\214o\021\032\336\010"
 1058      2D11F6BF 
 1058      53E6DA8C 
 1058      6F111ADE 
 1058      08
 1059 35f7 DAF0E2FA 		.ascii	"\332\360\342\372sZ\200P\227\207\030\222\364$\355\264"
ARM GAS  C:\Users\AMANRA~1\AppData\Local\Temp\ccItJTv4.s 			page 86


 1059      735A8050 
 1059      97871892 
 1059      F424EDB4 
 1060 3607 0EDD2531 		.ascii	"\016\335%1Da\362\236\275\216\267Va\267\246\275J\266"
 1060      4461F29E 
 1060      BD8EB756 
 1060      61B7A6BD 
 1060      4AB6
 1061 3619 3FCC01E9 		.ascii	"?\314\001\351Y\302\255\011z\213\336\270\331\273\263"
 1061      59C2AD09 
 1061      7A8BDEB8 
 1061      D9BBB3
 1062 3628 BF21EF06 		.ascii	"\277!\357\006\305V\322r\037\032\3218\215ti\267\373\017"
 1062      C556D272 
 1062      1F1AD138 
 1062      8D7469B7 
 1062      FB0F
 1063 363a A1C754C9 		.ascii	"\241\307T\311s\331\345wtf%k\376\022\033 \017\322\274"
 1063      73D9E577 
 1063      7466256B 
 1063      FE121B20 
 1063      0FD2BC
 1064 364d FC722AE6 		.ascii	"\374r*\346~s*f^\250\360\345\320\361\365\364Q\236g\342"
 1064      7E732A66 
 1064      5EA8F0E5 
 1064      D0F1F5F4 
 1064      519E67E2 
 1065 3661 4D2D0AA7 		.ascii	"M-\012\247\314\261\362\234p\016\305R\246k\2500\324\001"
 1065      CCB1F29C 
 1065      700EC552 
 1065      A66BA830 
 1065      D401
 1066 3673 A55266EC 		.ascii	"\245Rf\354a\376\031{\224G\0304<\022\3623\331\343\200"
 1066      61FE197B 
 1066      94471834 
 1066      3C12F233 
 1066      D9E380
 1067 3686 78D9E380 		.ascii	"x\331\343\200\"\322\360^\003P\261\336\274\2472>\211"
 1067      22D2F05E 
 1067      0350B1DE 
 1067      BCA7323E 
 1067      89
 1068 3697 67C1F16F 		.ascii	"g\301\361o82\364\347\006U\341\315\234\311\316\315\374"
 1068      3832F4E7 
 1068      0655E1CD 
 1068      9CC9CECD 
 1068      FC
 1069 36a8 B30025BF 		.ascii	"\263\000%\277\205\363\315{\253\023F#\260\225n\350\265"
 1069      85F3CD7B 
 1069      AB134623 
 1069      B0956EE8 
 1069      B5
 1070 36b9 5C3E5809 		.ascii	"\\>X\011~\261\225*\365\374lr\363k\374\345+\302\345\012"
 1070      7EB1952A 
 1070      F5FC6C72 
 1070      F36BFCE5 
 1070      2BC2E50A 
ARM GAS  C:\Users\AMANRA~1\AppData\Local\Temp\ccItJTv4.s 			page 87


 1071 36cd 3D994D2E 		.ascii	"=\231M.\2003\325\372\365\334M\275\222\244\211\257\262"
 1071      8033D5FA 
 1071      F5DC4DBD 
 1071      92A489AF 
 1071      B2
 1072 36de 0F499BEF 		.ascii	"\017I\233\357\272*jI\012qK\302f\3261\226\315\254\343"
 1072      BA2A6A49 
 1072      0A714BC2 
 1072      66D63196 
 1072      CDACE3
 1073 36f1 43D1843D 		.ascii	"C\321\204=h\316\347\262\034\012\201\010\201\002\271"
 1073      68CEE7B2 
 1073      1C0A8108 
 1073      8102B9
 1074 3700 05C7A57A 		.ascii	"\005\307\245z\311\204=\326\350\272\236>\020\300\312"
 1074      C9843DD6 
 1074      E8BA9E3E 
 1074      10C0CA
 1075 370f 97802E55 		.ascii	"\227\200.Uz~\271\315r$\235o\307\342-\227\333D\251y\015"
 1075      7A7EB9CD 
 1075      72249D6F 
 1075      C7E22D97 
 1075      DB44A979 
 1076 3724 0B847C95 		.ascii	"\013\204|\225\351I\353\033\341\261\024\347\200fi\251"
 1076      E949EB1B 
 1076      E1B114E7 
 1076      806669A9 
 1077 3734 543494C7 		.ascii	"T4\224\307\252\320<cF\036B(\365\373\021}\013\321\277"
 1077      AAD03C63 
 1077      461E4228 
 1077      F5FB117D 
 1077      0BD1BF
 1078 3747 E5F7E814 		.ascii	"\345\367\350\0249Vx=\361\256\265\2719g\243\336\352\316"
 1078      3956783D 
 1078      F1AEB5B9 
 1078      3967A3DE 
 1078      EACE
 1079 3759 78BD6968 		.ascii	"x\275ih\224|\212\275\001r\\\257\227m\216\207\027\234"
 1079      947C8ABD 
 1079      01725CAF 
 1079      976D8E87 
 1079      179C
 1080 376b A42C3521 		.ascii	"\244,5!\224HS\2736W|\303\001\245Q&\250j\244\203C\227"
 1080      944853BB 
 1080      36577CC3 
 1080      01A55126 
 1080      A86AA483 
 1081 3781 2893137E 		.ascii	"(\223\023~{E\215*(\223p22\331\200\232)\323\230\323\342"
 1081      7B458D2A 
 1081      28937032 
 1081      32D9809A 
 1081      29D398D3 
 1082 3796 E180DA09 		.ascii	"\341\200\332\011\243\277q)bY\303\261}\235W\363\273\341"
 1082      A3BF7129 
 1082      6259C3B1 
 1082      7D9D57F3 
 1082      BBE1
ARM GAS  C:\Users\AMANRA~1\AppData\Local\Temp\ccItJTv4.s 			page 88


 1083 37a8 B52DAD4E 		.ascii	"\265-\255N\210\213\025\276\202s\033\364h\323[\357,["
 1083      888B15BE 
 1083      82731BF4 
 1083      68D35BEF 
 1083      2C5B
 1084 37ba DFD7B407 		.ascii	"\337\327\264\007r\327\306j\015>\356\204\232\320\012"
 1084      72D7C66A 
 1084      0D3EEE84 
 1084      9AD00A
 1085 37c9 D401D40E 		.ascii	"\324\001\324\016tO\332"
 1085      744FDA
 1086 37d0 2C45B0F8 		.ascii	",E\260\370\2103}G\236\230\305\014/\277a\012F\343\257"
 1086      88337D47 
 1086      9E98C50C 
 1086      2FBF610A 
 1086      46E3AF
 1087 37e3 10B5BD38 		.ascii	"\020\265\2758\232.\320\215J\360\307\272\232\344\262"
 1087      9A2ED08D 
 1087      4AF0C7BA 
 1087      9AE4B2
 1088 37f2 2DC608AD 		.ascii	"-\306\010\255)\0326\204\327\323O\237Y\346[\336\177\350"
 1088      291A3684 
 1088      D7D34F9F 
 1088      59E65BDE 
 1088      7FE8
 1089 3804 96B4E65D 		.ascii	"\226\264\346]VZs\263Yz_\322,\322\017\353\340;ZDU\246"
 1089      565A73B3 
 1089      597A5FD2 
 1089      2CD20FEB 
 1089      E03B5A44 
 1090 381a 596F1E4C 		.ascii	"Yo\036L\015\316\221O\340`\025\356\012\316\322\246\247"
 1090      0DCE914F 
 1090      E06015EE 
 1090      0ACED2A6 
 1090      A7
 1091 382b 9FC041C5 		.ascii	"\237\300A\305\331\035a\366\370\025Sf\347H\326&\362\231"
 1091      D91D61F6 
 1091      F8155366 
 1091      E748D626 
 1091      F299
 1092 383d BB6F3D73 		.ascii	"\273o=s\326\277\353\326\017\012\337g\312\343\343>\211"
 1092      D6BFEBD6 
 1092      0F0ADF67 
 1092      CAE3E33E 
 1092      89
 1093 384e B2AD6CEB 		.ascii	"\262\255l\353#\214\250\023)[\253\247\213\267;\027nx"
 1093      238CA813 
 1093      295BABA7 
 1093      8BB73B17 
 1093      6E78
 1094 3860 3AA2D34E 		.ascii	":\242\323N\244fD\205Gf\251\371\035H-\022\032\260\231"
 1094      A4664485 
 1094      4766A9F9 
 1094      1D482D12 
 1094      1AB099
 1095 3873 10696622 		.ascii	"\020if\"I-}\010\200\007B\226\357\263,s\241+\347\356"
 1095      492D7D08 
ARM GAS  C:\Users\AMANRA~1\AppData\Local\Temp\ccItJTv4.s 			page 89


 1095      80074296 
 1095      EFB32C73 
 1095      A12BE7EE 
 1096 3887 E850B213 		.ascii	"\350P\262\023\255\005\305\345\347\020J\243\314\271\206"
 1096      AD05C5E5 
 1096      E7104AA3 
 1096      CCB986
 1097 3896 F3CF1DC9 		.ascii	"\363\317\035\311\203-\274\357-}\260\345\343\227\335"
 1097      832DBCEF 
 1097      2D7DB0E5 
 1097      E397DD
 1098 38a5 6320E770 		.ascii	"c \347p\267bXON\206\317\345\227\322'`\270y\037\241'"
 1098      B762584F 
 1098      4E86CFE5 
 1098      97D22760 
 1098      B8791FA1 
 1099 38ba BB0A5303 		.ascii	"\273\012S\003\325\374>\236\243\364\334\325\310\3220"
 1099      D5FC3E9E 
 1099      A3F4DCD5 
 1099      C8D230
 1100 38c9 47F1469E 		.ascii	"G\361F\236d\205\210\271#8N:\202cz\266\223\347\355\211"
 1100      648588B9 
 1100      23384E3A 
 1100      82637AB6 
 1100      93E7ED89 
 1101 38dd FA9B925D 		.ascii	"\372\233\222]\014\307%\275\312\011\275y\027\303\014"
 1101      0CC725BD 
 1101      CA09BD79 
 1101      17C30C
 1102 38ec 8F122DCA 		.ascii	"\217\022-\312zY\255\247\2502#\315\265\313:r\022?\357"
 1102      7A59ADA7 
 1102      A83223CD 
 1102      B5CB3A72 
 1102      123FEF
 1103 38ff 7F444FB6 		.ascii	"\177DO\266\325\373>\324\362ZO\323s\347\363\213\213^"
 1103      D5FB3ED4 
 1103      F25A4FD3 
 1103      73E7F38B 
 1103      8B5E
 1104 3911 A0F52CD1 		.ascii	"\240\365,\321z\206\327\372\211gc\250R\362\031v\211\326"
 1104      7A86D7FA 
 1104      896763A8 
 1104      52F21976 
 1104      89D6
 1105 3923 8FCD5A47 		.ascii	"\217\315ZG\231\036\3249\242+\266\265\256\317L\2365\360"
 1105      991ED439 
 1105      A22BB6B5 
 1105      AECF4C9E 
 1105      35F0
 1106 3935 BACC515D 		.ascii	"\272\314Q]\342\026\002MJ\261.\370\243f\202.\317\210"
 1106      E216024D 
 1106      4AB12EF8 
 1106      A366822E 
 1106      CF88
 1107 3947 2E4F795D 		.ascii	".Oy]\202\347\242S$\253\250\236It\2317\353\022\023q\242"
 1107      82E7A253 
 1107      24ABA89E 
ARM GAS  C:\Users\AMANRA~1\AppData\Local\Temp\ccItJTv4.s 			page 90


 1107      49749937 
 1107      EB121371 
 1108 395c 58898A6C 		.ascii	"X\211\212l\353\322\026{\325\315\274\230c\221\352\342"
 1108      EBD2167B 
 1108      D5CDBC98 
 1108      6391EAE2 
 1109 396c D73DFE13 		.ascii	"\327=\376\023^\275\347\364T\377B\2137g[\275e\242\336"
 1109      5EBDE7F4 
 1109      54FF428B 
 1109      37675BBD 
 1109      65A2DE
 1110 397f 12AF5EC6 		.ascii	"\022\257^\306\263\204II\001/K\324[1\253\227\325\235"
 1110      B3844949 
 1110      012F4BD4 
 1110      5B31AB97 
 1110      D59D
 1111 3991 E86744A5 		.ascii	"\350gD\245T=+\033\304\016\230\3723\035l'\353i\217\223"
 1111      543D2B1B 
 1111      C40E98FA 
 1111      331D6C27 
 1111      EB698F93 
 1112 39a5 F5B067C9 		.ascii	"\365\260g\311\246\007\247\177W\234*\\\026\245\352e\317"
 1112      A607A77F 
 1112      579C2A5C 
 1112      16A5EA65 
 1112      CF
 1113 39b6 A7BA3235 		.ascii	"\247\27225\333c@\2254\325\334\336\346\024{\263\005h"
 1113      DB634095 
 1113      34D5DCDE 
 1113      E6147BB3 
 1113      0568
 1114 39c8 B295C703 		.ascii	"\262\225\307\003v\362\212\370\330\223S\013\255#\236"
 1114      76F28AF8 
 1114      D893530B 
 1114      AD239E
 1115 39d7 5ADB9AF8 		.ascii	"Z\333\232\370\022M\216\361\232<\275w\255IR>\276\022"
 1115      124D8EF1 
 1115      9A3CBD77 
 1115      AD49523E 
 1115      BE12
 1116 39e9 55FCCCAA 		.ascii	"U\374\314\252L\036\273\332\355\200nQUb\036\006\006\251"
 1116      4C1EBBDA 
 1116      ED806E51 
 1116      55621E06 
 1116      06A9
 1117 39fb CCDE4C55 		.ascii	"\314\336LU)n\316\031P\231\253\340q\252\314RIY\006\342"
 1117      296ECE19 
 1117      5099ABE0 
 1117      71AACC52 
 1117      495906E2 
 1118 3a0f 150CA0E7 		.ascii	"\025\014\240\347&s=\375\025\266\2359\220(x\202W\260"
 1118      26733DFD 
 1118      15B69D39 
 1118      90287882 
 1118      57B0
 1119 3a21 242FAD57 		.ascii	"$/\255W\262\016$P\242`\220Y\301\273C\205s\366\250\336"
 1119      B20E2450 
ARM GAS  C:\Users\AMANRA~1\AppData\Local\Temp\ccItJTv4.s 			page 91


 1119      A2609059 
 1119      C1BB4385 
 1119      73F6A8DE 
 1120 3a35 B6825D27 		.ascii	"\266\202]'\373\213\354\315\265-\204*\023\370\330\324"
 1120      FB8BECCD 
 1120      B52D842A 
 1120      13F8D8D4 
 1121 3a45 E8C82B18 		.ascii	"\350\310+\030J\317\245u\007\007\275\240\266\235$\012"
 1121      4ACFA575 
 1121      0707BDA0 
 1121      B69D240A 
 1122 3a55 86F10AA6 		.ascii	"\206\361\012\246&/e\352\304\012\236\224(\030nV\360b"
 1122      262F65EA 
 1122      C40A9E94 
 1122      28186E56 
 1122      F062
 1123 3a67 F3F01305 		.ascii	"\363\360\023\005j\241\012\316f\\\012\326\240\007\224"
 1123      6AA10ACE 
 1123      665C0AD6 
 1123      A00794
 1124 3a76 992E195B 		.ascii	"\231.\031[P\242g\224)M\317\272\340\210\002\376\322\226"
 1124      50A26794 
 1124      294DCFBA 
 1124      E08802FE 
 1124      D296
 1125 3a88 A7DD4F19 		.ascii	"\247\335O\0318J\316\374F\317ER\205\373\003RGt<*\212"
 1125      384ACEFC 
 1125      46CF4552 
 1125      85FB0352 
 1125      47743C2A 
 1126 3a9d 9E8B2EAE 		.ascii	"\236\213.\256\033E\266\335 \206d\"\232\317\304\261\346"
 1126      1B45B6DD 
 1126      20866422 
 1126      9ACFC4B1 
 1126      E6
 1127 3aae A67B122B 		.ascii	"\246{\022+\307H2\021\313g\302P\027w\352\222='\254\016"
 1127      C7483211 
 1127      CB67C250 
 1127      1777EA92 
 1127      3D27AC0E 
 1128 3ac2 58C7DAA9 		.ascii	"X\307\332\251\012\350\202\246\337\016\305\2556\266\326"
 1128      0AE882A6 
 1128      DF0EC5AD 
 1128      36B6D6
 1129 3ad1 297B0814 		.ascii	"){\010\024\366\177x3^\363gp\322\354\235\310\015\270"
 1129      F67F7833 
 1129      5EF36770 
 1129      D2EC9DC8 
 1129      0DB8
 1130 3ae3 01C1C767 		.ascii	"\001\301\307g\355\241O\016\224\002t\036\350\034P*P\""
 1130      EDA14F0E 
 1130      9402741E 
 1130      E81C502A 
 1130      5022
 1131 3af5 5032503C 		.ascii	"P2P<P\202\275\270GB\276\326\000\021\231\033\322\313"
 1131      5082BDB8 
 1131      4742BED6 
ARM GAS  C:\Users\AMANRA~1\AppData\Local\Temp\ccItJTv4.s 			page 92


 1131      0011991B 
 1131      D2CB
 1132 3b07 D2B6FE61 		.ascii	"\322\266\376a\007\310\023\027!W\323\306\367\" LqO\344"
 1132      07C81317 
 1132      2157D3C6 
 1132      F722204C 
 1132      714FE4
 1133 3b1a 622D06A4 		.ascii	"b-\006\244\004\012\345\315\005[\315\275\205T\250\347"
 1133      040AE5CD 
 1133      055BCDBD 
 1133      8554A8E7 
 1134 3b2a 9C490EB5 		.ascii	"\234I\016\265\350:\021(\304ln\322\272\002\026b\241\316"
 1134      E83A1128 
 1134      C46C6ED2 
 1134      BA021662 
 1134      A1CE
 1135 3b3c 72DE72B1 		.ascii	"r\336r\261\226},\202\205\352\303\371[\307\312U\200X"
 1135      967D2C82 
 1135      85EAC3F9 
 1135      5BC7CA55 
 1135      8058
 1136 3b4e C82DC855 		.ascii	"\310-\310U\020\017\263\245\233\356c\030\014\203\314"
 1136      100FB3A5 
 1136      9BEE6318 
 1136      0C83CC
 1137 3b5d 9D8AD3F6 		.ascii	"\235\212\323\366\264S\221\342\261<\250\225\256\011\263"
 1137      B45391E2 
 1137      B13CA895 
 1137      AE09B3
 1138 3b6c E604767F 		.ascii	"\346\004v\177\224\007\340\031\310c\263\305\222@v\301"
 1138      9407E019 
 1138      C863B3C5 
 1138      924076C1 
 1139 3b7c 5EDCC74B 		.ascii	"^\334\307K7W\303\210\023i\351\366(\230\326/_\257\346"
 1139      3757C388 
 1139      1369E9F6 
 1139      2898D62F 
 1139      5FAFE6
 1140 3b8f B3F62881 		.ascii	"\263\366(\2012\265\013>\315l\377\266\020<\367jZ4e\361"
 1140      32B50B3E 
 1140      CD6CFFB6 
 1140      103CF76A 
 1140      5A3465F1 
 1141 3ba3 9BA65693 		.ascii	"\233\246V\223\326\"\305{\304\036\345Pt\364l\367\010"
 1141      D622C57B 
 1141      C41EE550 
 1141      74F46CF7 
 1141      08
 1142 3bb4 5BD6E804 		.ascii	"[\326\350\004\354\203\272\343\003FT@\257\255<\357>\245"
 1142      EC83BAE3 
 1142      03465440 
 1142      AFAD3CEF 
 1142      3EA5
 1143 3bc6 40659419 		.ascii	"@e\224\031\271\235s\307\021USf\352\331P\207\0065P\346"
 1143      B99D73C7 
 1143      11555366 
 1143      EAD95087 
ARM GAS  C:\Users\AMANRA~1\AppData\Local\Temp\ccItJTv4.s 			page 93


 1143      063550E6 
 1144 3bda 41684CB8 		.ascii	"AhL\270\002\365\021F\227\027R\327g\261\022}\231\355"
 1144      02F51146 
 1144      971752D7 
 1144      67B1127D 
 1144      99ED
 1145 3bec 7271DD7E 		.ascii	"rq\335~5\014;\354\311\2632\372c}Q^\011X\260\200U\243"
 1145      350C3BEC 
 1145      C9B332FA 
 1145      637D515E 
 1145      0958B080 
 1146 3c02 6B705C0C 		.ascii	"kp\\\014F*\002\272\012T\010\224o/~L\320p\226}L\001/"
 1146      462A02BA 
 1146      0A540894 
 1146      6F2F7E4C 
 1146      D070967D 
 1147 3c19 16CD86C2 		.ascii	"\026\315\206\302\302\267\212\037\023\210\037qw\374\011"
 1147      C2B78A1F 
 1147      13881F71 
 1147      77FC09
 1148 3c28 9DE1C0D8 		.ascii	"\235\341\300\330KV\2609\366\242\376\373Z\001{\331\012"
 1148      4B56B039 
 1148      F6A2FEFB 
 1148      5A017BD9 
 1148      0A
 1149 3c39 563AEBC3 		.ascii	"V:\353\303\276m\202\237\262\3442\260\355Y{\3662\"6\202"
 1149      BE6D829F 
 1149      B2E432B0 
 1149      ED597BF6 
 1149      32223682 
 1150 3c4d E5CB8867 		.ascii	"\345\313\210gI?\023\013\270\"r\275<{\233\213\030_\326"
 1150      493F130B 
 1150      B82272BD 
 1150      3C7B9B8B 
 1150      185FD6
 1151 3c60 5ED855F2 		.ascii	"^\330U\362{\007\3656\0263\212\304\330\275HF\324\\\324"
 1151      7B07F536 
 1151      16338AC4 
 1151      D8BD4846 
 1151      D45CD4
 1152 3c73 25495B51 		.ascii	"%I[Q*q\3222\336I\365\343\246\212\313z\216}Q\020\\\202"
 1152      2A71D232 
 1152      DE49F5E3 
 1152      A68ACB7A 
 1152      8E7D5110 
 1153 3c89 CDA7FD84 		.ascii	"\315\247\375\204\232\025\017w\361S\235j{\033\223L|\235"
 1153      9A150F77 
 1153      F1539D6A 
 1153      7B1B934C 
 1153      7C9D
 1154 3c9b 0581E459 		.ascii	"\005\201\344Yo\265\330\244\013:y\235]N\247u\026\303"
 1154      6FB5D8A4 
 1154      0B3A799D 
 1154      5D4EA775 
 1154      16C3
 1155 3cad 324586CB 		.ascii	"2E\206\313\2607\177t\266!\343U\372X\025*\0227\250\227"
 1155      B0377F74 
ARM GAS  C:\Users\AMANRA~1\AppData\Local\Temp\ccItJTv4.s 			page 94


 1155      B621E355 
 1155      FA58152A 
 1155      1237A897 
 1156 3cc1 89947FEF 		.ascii	"\211\224\177\357\2665C\355A4\365\324\257\342\274\031"
 1156      B63543ED 
 1156      4134F5D4 
 1156      AFE2BC19 
 1157 3cd1 9A7F1CC0 		.ascii	"\232\177\034\300y\351%>\000x\277W\360Z\010\300.\353"
 1157      79E9253E 
 1157      0078BF57 
 1157      F05A08C0 
 1157      2EEB
 1158 3ce3 64D8459D 		.ascii	"d\330E\235%\026\264\300\263A\227\230\\\363\274\217\225"
 1158      2516B4C0 
 1158      B3419798 
 1158      5CF3BC8F 
 1158      95
 1159 3cf4 2FDDD315 		.ascii	"/\335\323\025/Y\366k\271\213\366\030\001\345T\315\212"
 1159      2F59F66B 
 1159      B98BF618 
 1159      01E554CD 
 1159      8A
 1160 3d05 1B1FDF80 		.ascii	"\033\037\337\200\342\251\005*\007\272\005T\003T\005"
 1160      E2A9052A 
 1160      07BA0554 
 1160      035405
 1161 3d14 7413A842 		.ascii	"t\023\250Bh]\370T\3614\3311y\252q\026\353\012\210\351"
 1161      685DF854 
 1161      F134D931 
 1161      79AA7116 
 1161      EB0A88E9 
 1162 3d28 F160A7C6 		.ascii	"\361`\247\306\252\235(\024\206T\021Y\227\356j\314\323"
 1162      AA9D2814 
 1162      86541159 
 1162      97EE6ACC 
 1162      D3
 1163 3d39 5C55D1AF 		.ascii	"\\U\321\257x\343\271\270zI!\340\373\345\265\335\234"
 1163      78E3B9B8 
 1163      7A4921E0 
 1163      FBE5B5DD 
 1163      9C
 1164 3d4a 9DBAFF42 		.ascii	"\235\272\377Bv\300\013\313\023rs%\235\336z\211\0276"
 1164      76C00BCB 
 1164      13727325 
 1164      9DDE7A89 
 1164      1736
 1165 3d5c 502FC4BF 		.ascii	"P/\304\277\370\241\321H\376\260\344;\035\005\022p#\003"
 1165      F8A1D148 
 1165      FEB0E43B 
 1165      1D051270 
 1165      2303
 1166 3d6e 3712F06C 		.ascii	"7\022\360l\344\345tM/\327\315\341\276\310+$=\216\243"
 1166      E4E5744D 
 1166      2FD7CDE1 
 1166      BEC82B24 
 1166      3D8EA3
 1167 3d81 7FF1072B 		.ascii	"\177\361\007+\3601\246\025\376\037G\377\301Y\005\\\266"
ARM GAS  C:\Users\AMANRA~1\AppData\Local\Temp\ccItJTv4.s 			page 95


 1167      F031A615 
 1167      FE1F47FF 
 1167      C159055C 
 1167      B6
 1168 3d92 C3FFDBD1 		.ascii	"\303\377\333\3213\234\371\026\316|F\301d(x\271\344\177"
 1168      339CF916 
 1168      CE7C46C1 
 1168      642878B9 
 1168      E47F
 1169 3da4 8EDEC989 		.ascii	"\216\336\311\211\245\322\353\234Y\034M\204\3428\252"
 1169      A5D2EB9C 
 1169      591C4D84 
 1169      E238AA
 1170 3db3 167F1F3D 		.ascii	"\026\177\037=\245\020\022\023\356\340,t\2653_6+%d\222"
 1170      A5101213 
 1170      EEE02C74 
 1170      B5335F36 
 1170      2B256492 
 1171 3dc7 63E6EDCA 		.ascii	"c\346\355\312ztK\325\307\365\300\325\3378\330\205h\017"
 1171      7A744BD5 
 1171      C7F5C0D5 
 1171      DF38D885 
 1171      680F
 1172 3dd9 D2C750E9 		.ascii	"\322\307P\351\201\323\006\364\210\006\376\324\374\212"
 1172      81D306F4 
 1172      8806FED4 
 1172      FC8A
 1173 3de7 0A47E4FD 		.ascii	"\012G\344\375Wt\325\373\205k\256?\2147\225\226\231J"
 1173      5774D5FB 
 1173      856BAE3F 
 1173      8C379596 
 1173      994A
 1174 3df9 1B6BBEED 		.ascii	"\033k\276\355\021w\"\312T\252\300\223\262\252W\271\026"
 1174      117722CA 
 1174      54AAC093 
 1174      B2AA57B9 
 1174      16
 1175 3e0a C1119A71 		.ascii	"\301\021\232qe\344n\333\367q\\\223}/\010\277c\377C<"
 1175      65E46EDB 
 1175      F7715C93 
 1175      7D2F08BF 
 1175      63FF433C 
 1176 3e1e B954577B 		.ascii	"\271TW{\022\241h**\343\304J\270J\334\351\373\255\270"
 1176      12A1682A 
 1176      2AE3C44A 
 1176      B84ADCE9 
 1176      FBADB8
 1177 3e31 CFD74AFA 		.ascii	"\317\327J\372|\207X\227/\245`\344\201\002\322\215/\303"
 1177      7C875897 
 1177      2FA560E4 
 1177      8102D28D 
 1177      2FC3
 1178 3e43 BB51E921 		.ascii	"\273Q\351!QO\023~6\017(\356\256\220\354]y\262m$\331"
 1178      514F137E 
 1178      360F28EE 
 1178      AE90EC5D 
 1178      79B26D24 
ARM GAS  C:\Users\AMANRA~1\AppData\Local\Temp\ccItJTv4.s 			page 96


 1179 3e58 9339774E 		.ascii	"\2239wNkQ\274\215d%\017W\332%\311^z\022\323\204\223"
 1179      6B51BC8D 
 1179      64250F57 
 1179      DA25C95E 
 1179      7A12D384 
 1180 3e6d 35F5E13D 		.ascii	"5\365\341=\200\024Q\361\220l\010$\013(\356\236=\371"
 1180      801451F1 
 1180      906C0824 
 1180      0B28EE9E 
 1180      3DF9
 1181 3e7f 6E1FFD15 		.ascii	"n\037\375\025\247\331A\322\314\276\352\377\314\001\345"
 1181      A7D941D2 
 1181      CCBEEAFF 
 1181      CC01E5
 1182 3e8e D134176F 		.ascii	"\3214\027o$=B \247\317D>a\027\225\323\327\344\021\262"
 1182      243D4220 
 1182      A7CF443E 
 1182      611795D3 
 1182      D7E411B2 
 1183 3ea2 867C1C89 		.ascii	"\206|\034\211\353\024\324\357\244\"\355\270.\"\"*\304"
 1183      EB14D4EF 
 1183      A422EDB8 
 1183      2E22222A 
 1183      C4
 1184 3eb3 FF9603AA 		.ascii	"\377\226\003\252\370+\233\243\314\373\275\247|\0246"
 1184      F82B9BA3 
 1184      CCFBBDA7 
 1184      7C1436
 1185 3ec2 B3D24BB2 		.ascii	"\263\322K\262\322\303\367\232s\357Ufk\231\016\263\355"
 1185      D2C3F79A 
 1185      73EF5566 
 1185      6B990EB3 
 1185      ED
 1186 3ed3 DF4E58B9 		.ascii	"\337NX\271MT\000\024\327-\250\320\315\253\320GTH\230"
 1186      4D540014 
 1186      D72DA8D0 
 1186      CDABD047 
 1186      544898
 1187 3ee6 886D32A2 		.ascii	"\210m2\242E\252B@\357J>GTx\2540\320\361\316\342\251"
 1187      45AA4240 
 1187      EF4A3E47 
 1187      5478AC30 
 1187      D0F1CEE2 
 1188 3efb 287BE4FD 		.ascii	"({\344\375c\232\311\340\256Z\204\316\022F\323\025S\025"
 1188      639AC9E0 
 1188      AE5A84CE 
 1188      1246D315 
 1188      5315
 1189 3f0d 4427FE9C 		.ascii	"D'\376\234\370\006\341\351\344\267\023\006#\204\207"
 1189      F806E1E9 
 1189      E4B71306 
 1189      238487
 1190 3f1c 2CB8DB3D 		.ascii	",\270\333=\370\022\335n\363\354\326\010D\215A\026A\360"
 1190      F812DD6E 
 1190      F3ECD608 
 1190      448D4116 
 1190      41F0
ARM GAS  C:\Users\AMANRA~1\AppData\Local\Temp\ccItJTv4.s 			page 97


 1191 3f2e F100448A 		.ascii	"\361\000D\212!\2401\240Q\240a\313.6\337\301\265L\307"
 1191      21A031A0 
 1191      51A061CB 
 1191      2E36DFC1 
 1191      B54CC7
 1192 3f41 660777D0 		.ascii	"f\007w\320\262\313(j\322\253\"i\353\203Q\017E\255\317"
 1192      B2CB286A 
 1192      D2AB2269 
 1192      EB83510F 
 1192      45ADCF
 1193 3f54 0351EB13 		.ascii	"\003Q\353\023\311\276\035\307\367m%\022\377@\337\326"
 1193      C9BE1DC7 
 1193      F76D2512 
 1193      FF40DFD6 
 1194 3f64 0A76138D 		.ascii	"\012v\023\215\300\334\205i\217z\235\264M\267f\032;\233"
 1194      C0DC8569 
 1194      8F7A9DB4 
 1194      4DB7661A 
 1194      3B9B
 1195 3f76 76C1CE9F 		.ascii	"v\301\316\237W\025\357 \231#\222\004\310\011s\307\323"
 1195      5715EF20 
 1195      99239204 
 1195      C80973C7 
 1195      D3
 1196 3f87 EB5C5BAA 		.ascii	"\353\\[\252\021\015\322\222\215\314*\274lDK\204Q\207"
 1196      110DD292 
 1196      8DCC2ABC 
 1196      6C444B84 
 1196      5187
 1197 3f99 2C3DBF66 		.ascii	",=\277f\340\310\022"
 1197      E0C812
 1198 3fa0 6AD618F4 		.ascii	"j\326\030\364D\321~\337\023\334\315\231\246\375\276"
 1198      44D17EDF 
 1198      13DCCD99 
 1198      A6FDBE
 1199 3faf 69A125B0 		.ascii	"i\241%\260\230\177{\014\312N\263r\234\205\343\031\320"
 1199      987F7B0C 
 1199      CA4EB372 
 1199      9C85E319 
 1199      D0
 1200 3fc0 F191A4AF 		.ascii	"\361\221\244\2577\031\265*\2314\340\023\254\001\237"
 1200      3719B52A 
 1200      9934E013 
 1200      AC019F
 1201 3fcf 7E5137AB 		.ascii	"~Q7\253\207}\344t\332Z7k\231N\272c\001S\242\362\232"
 1201      877DE474 
 1201      DA5A376B 
 1201      994EBA63 
 1201      0153A2F2 
 1202 3fe4 3477B3FE 		.ascii	"4w\263\376(\365\360\324AH\363-I\267hZb\3029\263\011"
 1202      28F5F0D4 
 1202      4148F32D 
 1202      49B7685A 
 1202      62C239B3 
 1203 3ff9 8F5FF5ED 		.ascii	"\217_\365\355V\220\352"
 1203      5690EA
 1204 4000 02E7B87E 		.ascii	"\002\347\270~:\322\035\311K.Q\332\014z\317H\225}\312"
ARM GAS  C:\Users\AMANRA~1\AppData\Local\Temp\ccItJTv4.s 			page 98


 1204      3AD21DC9 
 1204      4B2E51DA 
 1204      0C7ACF48 
 1204      957DCA
 1205 4013 57D9D343 		.ascii	"W\331\323C-\241JVe\333\216\1777\241\265\205TY@q\367"
 1205      2DA14A56 
 1205      65DB8E7F 
 1205      37A1B585 
 1205      54594071 
 1206 4028 852A7B9F 		.ascii	"\205*{\237\257\262\363\244\312\266\015\345\236\200\250"
 1206      AFB2F3A4 
 1206      CAB60DE5 
 1206      9E80A8
 1207 4037 F1135272 		.ascii	"\361\023Rr\013\205\367N+\3200en\246\346\225\321\372"
 1207      0B85F74E 
 1207      2BD03065 
 1207      6EA6E695 
 1207      D1FA
 1208 4049 7BDD3C27 		.ascii	"{\335<'s&\331\353\266\301<\021\362\234*\031\342\023"
 1208      7326D9EB 
 1208      B6C13C11 
 1208      F29C2A19 
 1208      E213
 1209 405b E96B3403 		.ascii	"\351k4\003\227\350\311\256;\367\217\321\354\244\252"
 1209      97E8C9AE 
 1209      3BF78FD1 
 1209      ECA4AA
 1210 406a 0CDC323D 		.ascii	"\014\3342=yn!\343\234\352{glD \223\341{x^\012\240\370"
 1210      796E21E3 
 1210      9CEA7B67 
 1210      6C442093 
 1210      E17B785E 
 1211 4081 4B4D64EA 		.ascii	"KMd\35214\340\012\037\204\306\272u\267*\216\225~Bp\334"
 1211      3134E00A 
 1211      1F84C6BA 
 1211      75B72A8E 
 1211      957E4270 
 1212 4096 2264E83C 		.ascii	"\"d\350<\375d\301\002\237!\017\003\316P\355\263\322"
 1212      FD64C102 
 1212      9F210F03 
 1212      CE50EDB3 
 1212      D2
 1213 40a7 36259AA3 		.ascii	"6%\232\243y\010\274q\362\012\207b~J\230\321\320\306"
 1213      7908BC71 
 1213      F20A8762 
 1213      7E4A98D1 
 1213      D0C6
 1214 40b9 11359356 		.ascii	"\0215\223V\2636\312T\256 \242\274\014fQ\236\006&\312"
 1214      B336CA54 
 1214      AE20A2BC 
 1214      0C66519E 
 1214      0626CA
 1215 40cc 9B88BA39 		.ascii	"\233\210\2729\272\342c@\351\364\356\263#\265\235J\324"
 1215      BAE26340 
 1215      E9F4EEB3 
 1215      23B59D4A 
 1215      D4
ARM GAS  C:\Users\AMANRA~1\AppData\Local\Temp\ccItJTv4.s 			page 99


 1216 40dd F8539BB6 		.ascii	"\370S\233\266\211\235\237\3172\232s\354k\240'\237U%"
 1216      899D9FCF 
 1216      329A73EC 
 1216      6BA0279F 
 1216      5525
 1217 40ef 186CE6D8 		.ascii	"\030l\346\330\237\344\330\317 \344\370\331\275\323\271"
 1217      9FE4D8CF 
 1217      20E4F8D9 
 1217      BDD3B9
 1218 40fe BC8E1D54 		.ascii	"\274\216\035TG\000q\307\004\035}x\035\217\023\0353g"
 1218      470071C7 
 1218      041D7D78 
 1218      1D8F131D 
 1218      3367
 1219 4110 C66695A8 		.ascii	"\306f\225\250\227\2525\365(2\233\026\017\376\230\"U"
 1219      97AA35F5 
 1219      28329B16 
 1219      0FFE9822 
 1219      55
 1220 4121 6BBC62F4 		.ascii	"k\274b\364.-\010\374-\275\023T\255\323\005\011\3166"
 1220      2E2D08FC 
 1220      2DBD1354 
 1220      ADD30509 
 1220      CE36
 1221 4133 5B822003 		.ascii	"[\202 \003v\253@\003s\253\376\341\334@\265\320\032M"
 1221      76AB4003 
 1221      73ABFEE1 
 1221      DC40B5D0 
 1221      1A4D
 1222 4145 041F0B34 		.ascii	"\004\037\0134%p\004\306\005\030\204O\272\363z\005\023"
 1222      257004C6 
 1222      0518844F 
 1222      BAF37A05 
 1222      13
 1223 4156 BD92F3EA 		.ascii	"\275\222\363\352\252\265h\230\352u\252\263nE\303[\336"
 1223      AAB56898 
 1223      EA75AAB3 
 1223      6E45C35B 
 1223      DE
 1224 4167 1FD16C41 		.ascii	"\037\321lAc\026\"\334\036\302\337\036Jn\277\233\326"
 1224      631622DC 
 1224      1EC2DF1E 
 1224      4A6EBF9B 
 1224      D6
 1225 4178 5AA04173 		.ascii	"Z\240As?\2655S\224U~n\\\213\374\336 \363\3675\331c\031"
 1225      3FB53553 
 1225      94557E6E 
 1225      5C8BFCDE 
 1225      20F3F735 
 1226 418f F69C9381 		.ascii	"\366\234\223\201V\341\247\355\337\366\210\016\307\265"
 1226      56E1A7ED 
 1226      DFF6880E 
 1226      C7B5
 1227 419d F8B4C1C0 		.ascii	"\370\264\301\300\205\013I\320\217S\331\370v\025w\312"
 1227      850B49D0 
 1227      8F53D9F8 
 1227      761577CA 
ARM GAS  C:\Users\AMANRA~1\AppData\Local\Temp\ccItJTv4.s 			page 100


 1228 41ad E0C47FBE 		.ascii	"\340\304\177\276\012O\032\005.\006\321\367\353\260\220"
 1228      0A4F1A05 
 1228      2E06D1F7 
 1228      EBB090
 1229 41bc 93D46A03 		.ascii	"\223\324j\003\301#\245t\372:I\241\347\316\320\223\035"
 1229      C123A574 
 1229      FA3A49A1 
 1229      E7CED093 
 1229      1D
 1230 41cd 977AC685 		.ascii	"\227z\306\205\351\270\010z\362\\t\316\207\274\302\221"
 1230      E9B8087A 
 1230      F25C74CE 
 1230      87BCC291 
 1231 41dd F45440D3 		.ascii	"\364T@\323\002XLds\374(K0z41z\024o\364\007\365\005\341"
 1231      02584C64 
 1231      73FC284B 
 1231      307A3431 
 1231      7A146FF4 
 1232 41f5 2A66B1E5 		.ascii	"*f\261\345\342\327\022\274\342\2350\204\013\023\262"
 1232      E2D712BC 
 1232      E29D3084 
 1232      0B13B2
 1233 4204 13C65B2C 		.ascii	"\023\306[,\206Xl\"\331\353\244#\012!\026\341\362o]\367"
 1233      86586C22 
 1233      D9EBA423 
 1233      0A2116E1 
 1233      F26F5DF7 
 1234 4218 A316CB37 		.ascii	"\243\026\31377\377+\221AI\364\221\001\376\230\326Y\252"
 1234      37FF2B91 
 1234      4149F491 
 1234      01FE98D6 
 1234      59AA
