ARM GAS  C:\Users\AMANRA~1\AppData\Local\Temp\ccMaxS61.s 			page 1


   1              		.cpu cortex-m4
   2              		.eabi_attribute 27, 1
   3              		.eabi_attribute 28, 1
   4              		.eabi_attribute 20, 1
   5              		.eabi_attribute 21, 1
   6              		.eabi_attribute 23, 3
   7              		.eabi_attribute 24, 1
   8              		.eabi_attribute 25, 1
   9              		.eabi_attribute 26, 1
  10              		.eabi_attribute 30, 2
  11              		.eabi_attribute 34, 1
  12              		.eabi_attribute 18, 4
  13              		.file	"chmboxes.c"
  14              		.section	.gnu.lto_.profile.c3c0333a,"",%progbits
  15 0000 789C6363 		.ascii	"x\234cc```\003bF\206~\346\033\214\000\004\232\001y"
  15      60606003 
  15      6246867E 
  15      E61B8C00 
  15      049A0179 
  16              		.text
  17              		.section	.gnu.lto_.icf.c3c0333a,"",%progbits
  18 0000 789C6363 		.ascii	"x\234cc``\360d@\000\036\206\325m\013Z\031\031\327M\271"
  18      6060F064 
  18      40001E86 
  18      D56D0B5A 
  18      1919D74D 
  19 0015 B7869FA9 		.ascii	"\267\206\237\251\367\314\3056.\346\033w'\277`by~\353"
  19      F7CCC536 
  19      2EE61B77 
  19      27BF6062 
  19      797EEB
  20 0028 FE1776D6 		.ascii	"\376\027v\326\327\327\366\\dbk>\260n./;X\204\343\376"
  20      D7D7F65C 
  20      64626B3E 
  20      B06E2E2F 
  20      3B5884E3 
  21 003d CD8537D8 		.ascii	"\315\2057\3308w}\374\231\300u\355\311\313\257\334\334"
  21      38777DFC 
  21      99C075ED 
  21      C9CBAFDC 
  21      DC
  22 004e FB3F7C7B 		.ascii	"\373?|{\307\302\000\000Io&R"
  22      C7C20000 
  22      496F2652 
  23              		.text
  24              		.section	.gnu.lto_.jmpfuncs.c3c0333a,"",%progbits
  25 0000 789CB592 		.ascii	"x\234\265\222\271\012\302@\020\206\347\337\311\341\211"
  25      B90AC240 
  25      1086E7DF 
  25      C9E189
  26 000f 2F90174D 		.ascii	"/\220\027M\223\330X\211\235X\245\265\026<\012\301\""
  26      93D85889 
  26      9D58A5B5 
  26      163C0AC1 
  26      22
  27 0020 F802BE88 		.ascii	"\370\002\276\210\275X\351l.\223M\214\007\2720\204\035"
  27      BD58E96C 
ARM GAS  C:\Users\AMANRA~1\AppData\Local\Temp\ccMaxS61.s 			page 2


  27      2E934D8C 
  27      07BA3084 
  27      1D
  28 0031 E6F8BEB0 		.ascii	"\346\370\276\260\016\021-\231\2123 \006\340\206\021"
  28      0E112D99 
  28      8A332006 
  28      E08611
  29 0040 93042494 		.ascii	"\223\004$\224\334\365\227,\036+\251@l\201$nrFPs\306"
  29      DCF5972C 
  29      1E2BA940 
  29      6C81246E 
  29      72465073 
  30 0055 62723CB9 		.ascii	"br<\271S\216\230A\330\300KB\362\207\365\354\002\235"
  30      538E9841 
  30      D8C04B42 
  30      F287F5EC 
  30      029D
  31 0067 B710600B 		.ascii	"\267\020`\013/i\015t\273\314\212Q\237U4\033\325\011"
  31      2F690D74 
  31      BBCC8A51 
  31      9F55341B 
  31      D509
  32 0079 82109052 		.ascii	"\202\020\220R\276\331E\\\006\266\245\314i\037\256|e"
  32      BED9455C 
  32      06B6A5CC 
  32      691FAE7C 
  32      65
  33 008a 8E78A256 		.ascii	"\216x\242VvY\235\367\327a\352B\330et\224\271h\000\315"
  33      76599DF7 
  33      D761EA42 
  33      D8657494 
  33      B96800CD 
  34 009e 870CC069 		.ascii	"\207\014\300i\300T>\036\251\220\032(l\321\344\334\343"
  34      C0543E1E 
  34      A9901A28 
  34      6CD1E4DC 
  34      E3
  35 00af 059181E0 		.ascii	"\005\221\201\340\374\377\037\030\033\335\037Iw\276\227"
  35      FCFF1F18 
  35      1BDD1F49 
  35      77BE97
  36 00be EE565E6A 		.ascii	"\356V^j*\335\326\337,\335\376\016\253\033{ei\274%\235"
  36      2ADDD6DF 
  36      2CDDFE0E 
  36      AB1B7B65 
  36      69BC259D 
  37 00d2 A76AABFB 		.ascii	"\247j\253\373%q|\206AwG\254\335\027"
  37      25717C86 
  37      417747AC 
  37      DD17
  38              		.text
  39              		.section	.gnu.lto_.inline.c3c0333a,"",%progbits
  40 0000 789C8D92 		.ascii	"x\234\215\222\275J\003A\024\205\317\235;\273;n\222\335"
  40      BD4A0341 
  40      1485CF9D 
  40      3BBB3B6E 
  40      92DD
ARM GAS  C:\Users\AMANRA~1\AppData\Local\Temp\ccMaxS61.s 			page 3


  41 0012 201A0C4A 		.ascii	" \032\014Jv\023\020\361%$O\220G\220\324\212\357\220"
  41      761310F1 
  41      25244F90 
  41      4790D48A 
  41      EF90
  42 0024 26226891 		.ascii	"&\"h\221B\005!\310\026\202\215\242`ac\021\304\306J\013"
  42      420521C8 
  42      16828DA2 
  42      60616311 
  42      C4C64A0B 
  43 0038 B1D0C64E 		.ascii	"\261\320\306NKA+Epf\362g\202\254\356\300\271wv\016g"
  43      4B412B45 
  43      7066F267 
  43      82ACEEC0 
  43      B977760E 
  44 004d EE07E302 		.ascii	"\356\007\343\002\360\031\203/\013\204\001\261\210\011"
  44      F019832F 
  44      0B8401B1 
  44      8809
  45 005b 20233022 		.ascii	" #0\"\375V\015\371\3235\001q\033J#Yc&\004\021\011\343"
  45      FD560DF9 
  45      D3350171 
  45      1B4A2359 
  45      63260411 
  46 0071 E09E4F26 		.ascii	"\340\236O&\021\374\316\222\000\275x\262\253\306\310"
  46      11FCCE92 
  46      00BD78B2 
  46      ABC6C8
  47 0080 DA2E7444 		.ascii	"\332.tD\277\012\250\"A\030\267\233D\302f\371ZDF7\255"
  47      BF0AA822 
  47      4118B79B 
  47      44C266F9 
  47      5A444637 
  48 0095 1A233E21 		.ascii	"\032#>!\"\033)*\207\347\012\301\361'Y\233\314\221I8"
  48      221B292A 
  48      87E70AC1 
  48      F127599B 
  48      CC914938 
  49 00a9 CA5A7F3F 		.ascii	"\312Z\177?O\302\237\034\313s\002}\334\252\231\345\240"
  49      4FC29F1C 
  49      CB73027D 
  49      DCAA99E5 
  49      A0
  50 00ba 18930BB5 		.ascii	"\030\223\013\265\272\315\264\333\274\274\3616\271\315"
  50      BACDB4DB 
  50      BCBCF136 
  50      B9CD
  51 00c8 1E81CE68 		.ascii	"\036\201\316h\216\023\202Z\031t\232$\241!\020W\355\014"
  51      8E13825A 
  51      19749A24 
  51      A1211057 
  51      ED0C
  52 00da E62A9BAB 		.ascii	"\346*\233\253y\362\002\316\306B\036t\347\305Jt\013\234"
  52      79F202CE 
  52      C6421E74 
  52      E7C54A74 
  52      0B9C
ARM GAS  C:\Users\AMANRA~1\AppData\Local\Temp\ccMaxS61.s 			page 4


  53 00ec FD8AEEA7 		.ascii	"\375\212\356\247\327\333\244@\327^Uo\370\261PU=ve\207"
  53      D7DBA440 
  53      D75E556F 
  53      F8B15055 
  53      3D766587 
  54 0100 74511952 		.ascii	"tQ\031R\315?\\(\204\037_iT^*\225\302l\331R\375\003\243"
  54      CD3F5C28 
  54      841F5F69 
  54      545E2A95 
  54      C26CD952 
  55 0117 6E2FCDFC 		.ascii	"n/\315\374\205\341>/\352~\352mk\034C\036\224\352\243"
  55      85E13E2F 
  55      EA7EEA6D 
  55      6B1C431E 
  55      94EAA3
  56 012a 30138876 		.ascii	"0\023\210v\0060\321}\323E\370\272\227\006\343\247\302"
  56      0630D17D 
  56      D345F8BA 
  56      9706E3A7 
  56      C2
  57 013b 64305322 		.ascii	"d0S\"\357/\030\213\301\361\217\007\227\373\005\311y"
  57      EF2F188B 
  57      C1F18F07 
  57      97FB05C9 
  57      79
  58 014c 2FEBC173 		.ascii	"/\353\301sW\313\032\242c\351\270S\210\355\306\020\331"
  58      57CB1AA2 
  58      63E9B853 
  58      88EDC610 
  58      D9
  59 015d 02D93044 		.ascii	"\002\3310D\364\304\0152\377l\035\001\3047v\262ha"
  59      F4C40D32 
  59      FF6C1D01 
  59      C43776B2 
  59      6861
  60              		.text
  61              		.section	.gnu.lto_.pureconst.c3c0333a,"",%progbits
  62 0000 789C0DC3 		.ascii	"x\234\015\303\207\011\0000\020\003\261wz\233\340 \373"
  62      87090030 
  62      1003B177 
  62      7A9BE020 
  62      FB
  63 0011 EFE0E912 		.ascii	"\357\340\351\022\201ZD\334\377\004\"Y\231bU\032\335"
  63      815A44DC 
  63      FF042259 
  63      9962551A 
  63      DD
  64 0022 1A4C96B5 		.ascii	"\032L\226\265y=J\004."
  64      793D4A04 
  64      2E
  65              		.text
  66              		.section	.gnu.lto_chMBObjectInit.c3c0333a,"",%progbits
  67 0000 789CAD95 		.ascii	"x\234\255\225\353O\023Y\030\306\3173g:S\350\202&~1j"
  67      EB4F1359 
  67      18C6CF33 
  67      673A53E8 
  67      82267E31 
ARM GAS  C:\Users\AMANRA~1\AppData\Local\Temp\ccMaxS61.s 			page 5


  68 0015 0C89EB12 		.ascii	"\014\211\353\0226J\345\2031\372\337\330\202\201D\305"
  68      364AE583 
  68      31FADFD8 
  68      828144C5 
  69 0025 A598EC37 		.ascii	"\245\230\3547\206\242\024/Q\274u\327ZI\023D>\270\212"
  69      86A2142F 
  69      51BC75D7 
  69      5A491344 
  69      3EB88A
  70 0038 EEB2EBA2 		.ascii	"\356\262\353\242\260V\220\212\"x\001\021o\025\005Q\014"
  70      B056908A 
  70      22780111 
  70      6F150551 
  70      0C
  71 0049 6ABC6457 		.ascii	"j\274dWL@\337\367L\213\025\335\025\311N\332\35193\347"
  71      4C40DFF7 
  71      4C8B15DD 
  71      15C94EDA 
  71      E93933E7 
  72 005d FDBDCFFB 		.ascii	"\375\275\317\373\234K\015!D\314\024b\027\375\316\247"
  72      9C4B0D21 
  72      44CC1462 
  72      17FDCEA7 
  73 006d 2FA48056 		.ascii	"/\244\200V\335-D\271S\003\270a9!\3124\224a\273\334+"
  73      DD2D44B9 
  73      5303B861 
  73      3921CA34 
  73      9461BBDC 
  74 0082 D11A186E 		.ascii	"\321\032\030n\322r\352-\272\242?\305\215Jk\363\334\260"
  74      D272EA2D 
  74      BAA23FC5 
  74      8D4A6BF3 
  74      DCB0
  75 0094 1422485F 		.ascii	"\024\"H_\276\360\033rh\324\325M\307\303r\233\014K@\247"
  75      BEF01B72 
  75      68D4D54D 
  75      C7C3729B 
  75      0C4B40A7 
  76 00a8 EE8BAED0 		.ascii	"\356\213\256\320`&w5dQ\267\352\315@?\344R\010j\327W"
  76      60267735 
  76      6451B7EA 
  76      CD403FE4 
  76      52086AD7 
  77 00bd 047B32B2 		.ascii	"\004{2\262\353,\313oE\317\035\222\326\267a)\361\007"
  77      EB2CCB6F 
  77      45CF1D92 
  77      D6B76129 
  77      F107
  78 00cf 2401F13B 		.ascii	"$\001\361;\026\240\021\013\004=\0228\211l\032~\344\365"
  78      16A0110B 
  78      043D1238 
  78      896C1A7E 
  78      E4F5
  79 00e1 78A72EF3 		.ascii	"x\247.\363T\350\303\211m\243H\204\016\325\251P\035\177"
  79      54E8C389 
  79      6DA34884 
  79      0ED5A950 
ARM GAS  C:\Users\AMANRA~1\AppData\Local\Temp\ccMaxS61.s 			page 6


  79      1D7F
  80 00f3 4E0DD505 		.ascii	"N\015\325\005\232T\350\270\2657\230)\227\253\320\241"
  80      9A54E8B8 
  80      B5379829 
  80      97ABD0A1 
  81 0103 CEDA6A33 		.ascii	"\316\332j3\231\265^\205:pjj\250C\3404\262y\374\203\023"
  81      99B55E85 
  81      3A706A6A 
  81      A843E034 
  81      B279FC83 
  82 0118 13FB320C 		.ascii	"\023\3732\014=\222\254\024\31504z~\347@|\"M\256P\314"
  82      3D92AC14 
  82      CD30347A 
  82      7EE7407C 
  82      224DAE50 
  83 012d 4B3B8FED 		.ascii	"K;\217\355r-\256U\314\306y\021\377\354\2604\320\362"
  83      722DAE55 
  83      CCC67911 
  83      FFECB034 
  83      D0F2
  84 013f 3193AF49 		.ascii	"1\223\257I\334&ebw\330\300_X\254\220A\371\011\351^\340"
  84      DC266562 
  84      77D8C05F 
  84      58AC9041 
  84      F909E95E 
  85 0154 BB587BA5 		.ascii	"\273X{\245U]\356\234\036\256o\304@\224qg\030\247\245"
  85      555DEE9C 
  85      1EAE6FC4 
  85      40947167 
  85      18A7A5
  86 0167 8817380B 		.ascii	"\210\0278\013\003\2550\004\337\246\244\241\251<\\au"
  86      03AD3004 
  86      DFA6A4A1 
  86      A93C5C61 
  86      75
  87 0178 58FA34B3 		.ascii	"X\3724\263\220\350\266\377Wt;\343\316}*:F\242\317\263"
  87      90E8B6FF 
  87      57743BE3 
  87      CE7D2A3A 
  87      46A2CFB3 
  88 018c 68BA8142 		.ascii	"h\272\201B\033\2569\242\326\304\273\000i^\030\372{\244"
  88      1BAE39A2 
  88      D6C4BB00 
  88      695E18FA 
  88      7BA4
  89 019e 73D11CD0 		.ascii	"s\321\034\320T\231\032O\265\244\033\305\320\315\000"
  89      54991A4F 
  89      B5A41BC5 
  89      D0CD00
  90 01ad 2F18133C 		.ascii	"/\030\023<\367.\250i\024U4s\264\240\255\250\330B9\250"
  90      F72EA869 
  90      14553473 
  90      B4A0ADA8 
  90      D84239A8 
  91 01c1 5511154F 		.ascii	"U\021\025O\340\017\215\234\0364\271\020\312\032\334"
  91      E00F8D9C 
  91      1E34B910 
ARM GAS  C:\Users\AMANRA~1\AppData\Local\Temp\ccMaxS61.s 			page 7


  91      CA1ADC
  92 01d0 DC7AD9E4 		.ascii	"\334z\331\344\205j\327\324\334\332\0253\"\250)'\221"
  92      856AD7D4 
  92      DCDA1533 
  92      22A82927 
  92      91
  93 01e1 917961E9 		.ascii	"\221ya\351\014Q9\035\\\003\275\354\015\364\307]\356"
  93      0C51391D 
  93      5C03BDEC 
  93      0DF4C75D 
  93      EE
  94 01f2 A35C4016 		.ascii	"\243\\@\026\257\274\013\210`\237\332\006\270\010wH\232"
  94      AFBC0B88 
  94      609FDA06 
  94      B8087748 
  94      9A
  95 0203 36BC7912 		.ascii	"6\274y\022\376U\264NE\343\202q)\205\32623Z\227\242i"
  95      FE55B44E 
  95      45E38271 
  95      2985D632 
  95      335A97A2 
  96 0218 4CEB4ED2 		.ascii	"L\353N\322*B\225OO6\202q!\211\220tQ\334\331\201__\270"
  96      2A42954F 
  96      4F368271 
  96      21899074 
  96      51DCD981 
  97 022f B87E0774 		.ascii	"\270~\007t\\&\030\015\013W\356w\330\2034\012\244\241"
  97      5C26180D 
  97      0B57EE77 
  97      D883340A 
  97      A4A1
  98 0241 ACA477EB 		.ascii	"\254\244w\353\230\234\211\220+J\210\332BWY\210\306\260"
  98      989C8990 
  98      2B4A88DA 
  98      42575988 
  98      C6B0
  99 0253 D78FCFCC 		.ascii	"\327\217\317\314\244,\007\256)\232\316\264\036\270i"
  99      A42C07AE 
  99      299ACEB4 
  99      1EB869
 100 0262 40C368D3 		.ascii	"@\303h\323X\006\3537!\320\253\364\023\275c&\3644\\W"
 100      5806EB37 
 100      21D0ABF4 
 100      13BD6326 
 100      F4345C57 
 101 0276 7407D3FB 		.ascii	"t\007\323\373\024}ru\244\021\375\206M\177\0338\330\364"
 101      147D7275 
 101      A411FD86 
 101      4D7F1B38 
 101      D8F4
 102 0288 8D6D8F9C 		.ascii	"\215m\217\234\232\340%\257\314\377H\221\216~\225\302"
 102      9AE025AF 
 102      CCFF4891 
 102      8E7E95C2 
 103 0298 B077C491 		.ascii	"\260w\304\221\256'q\243l\234_F2y\343\334\204\233r\337"
 103      AE2771A3 
 103      6C9C5F46 
ARM GAS  C:\Users\AMANRA~1\AppData\Local\Temp\ccMaxS61.s 			page 8


 103      3279E3DC 
 103      849B72DF 
 104 02ac 42991886 		.ascii	"B\231\030\206?\213\223\360IA\211\250\257\011\336\346"
 104      3F8B93F0 
 104      494189A8 
 104      AF09DEE6 
 105 02bc DCE67531 		.ascii	"\334\346u1\326\337v\367\347U\211}\375\352\227\033;\323"
 105      D6DF76F7 
 105      E755897D 
 105      FDEA971B 
 105      3BD3
 106 02ce 59A681B9 		.ascii	"Y\246\201\271\324}>Z\263G#I\240\204\254\345vBK\364~"
 106      D47D3E5A 
 106      B3472349 
 106      A084ACE5 
 106      76424BF4 
 107 02e3 CDF02C5B 		.ascii	"\315\360,[\013[\341\302\035%\306T\347\204\300]\236\036"
 107      0B5BE1C2 
 107      1D25C654 
 107      E784C05D 
 107      9E1E
 108 02f5 9958C327 		.ascii	"\231X\303'J\023\354i\303\342\012\346L\300\356\3310*"
 108      4A13EC69 
 108      C3E20AE6 
 108      4CC0EED9 
 108      302A
 109 0307 63E0796D 		.ascii	"c\340ymO\206\322.Tw\313\005\231,L\330~\326\255\264\355"
 109      4F86D22E 
 109      5477CB05 
 109      992C4CD8 
 109      7ED6ADB4 
 110 031c D4BFDECE 		.ascii	"\324\277\336\316\001\2254\355_\354\274\257\354|\220"
 110      019534ED 
 110      5FECBCAF 
 110      EC7C90
 111 032b 6A671B5B 		.ascii	"jg\033[\250\333v\266\333\355\024;\317\253\222\003#V"
 111      A8DB76B6 
 111      DBED143B 
 111      CFAB9203 
 111      2356
 112 033d 8B6EDBC9 		.ascii	"\213n\333\311\177^\343\365\377\244\247\0300\230\220"
 112      7F5EE3F5 
 112      FFA4A718 
 112      309890
 113 034c 726A775F 		.ascii	"rjw_zj\375CI3c\\\377C\256_\377`\246M\236&j8i\245B=\262"
 113      7A6AFD43 
 113      4933635C 
 113      FF43AE5F 
 113      FF60A64D 
 114 0369 511FAC6C 		.ascii	"Q\037\254l\237\264\362\242L\026%\3043\370#\015;\324"
 114      9FB4F2A2 
 114      4C1625C4 
 114      33F8230D 
 114      3BD4
 115 037b EE56276E 		.ascii	"\356V'n\025\355[:\362\350\010\370>7\327M\037oa\221\247"
 115      15ED5B3A 
 115      F2E808F8 
ARM GAS  C:\Users\AMANRA~1\AppData\Local\Temp\ccMaxS61.s 			page 9


 115      3E37D74D 
 115      1F6F6191 
 116 0390 A8D897B7 		.ascii	"\250\330\227\2672o\231\273\330G\237\265E\036\267\257"
 116      326F99BB 
 116      D8479FB5 
 116      451EB7AF 
 117 03a0 C44B2FD6 		.ascii	"\304K/\326y\212\177,\360\345z\205\\\347\331 =\033\327"
 117      798A7F2C 
 117      F0E57A85 
 117      5CE7D920 
 117      3D1BD7
 118 03b3 60BD2CFD 		.ascii	"`\275,\375a\303\222\317\006\226\224\272\213\326{\327"
 118      61C392CF 
 118      069694BA 
 118      8BD67BD7 
 119 03c3 6ECC2FA0 		.ascii	"n\314/\2407\245\205%\005\253\363}\271\205\"\347\313"
 119      37A58525 
 119      05ABF37D 
 119      B98522E7 
 119      CB
 120 03d4 837DDEC2 		.ascii	"\203}\336\302|\032\371\036\237\234\265i"
 120      7C1AF91E 
 120      9F9CB569 
 121              		.text
 122              		.section	.gnu.lto_chMBResetI.c3c0333a,"",%progbits
 123 0000 789C9D93 		.ascii	"x\234\235\223\313kSA\024\306\347\273'\271I\323\244k"
 123      CB6B5341 
 123      14C6E7BB 
 123      27B949D3 
 123      A46B
 124 0012 D12CB210 		.ascii	"\321,\262\020J\005s\333\245\377\202[\377\203\004\301"
 124      4A0573DB 
 124      A5FF825B 
 124      FF8304C1 
 125 0022 80256236 		.ascii	"\200%b6]\231ijL|\201\013\023!\334\312\205*]\210\324"
 125      5D99696A 
 125      4C7C810B 
 125      1321DCCA 
 125      852A5D88 
 126 0037 AA55535B 		.ascii	"\252US[\275F[_I\245\246\213\202P\245>\260%\026\004\305"
 126      BD465B5F 
 126      49A5A68B 
 126      8250A53E 
 126      B0251604 
 127 004c 07D87A66 		.ascii	"\007\330zf\256uQ\320\322\016\3671s\3177\277\363\315"
 127      AE7551D0 
 127      D20EF731 
 127      73CF37BF 
 127      F3CD
 128 005e 9CB9A610 		.ascii	"\234\271\246\020\3425\011\321\315\357]|\203\004\214"
 128      E23509D1 
 128      CDEF5D7C 
 128      83048C
 129 006d 733342F4 		.ascii	"s3B\364\007\015@ud\020\"k \2133t\236P+|\250\032]\303"
 129      070D4075 
 129      6410226B 
 129      208B3374 
ARM GAS  C:\Users\AMANRA~1\AppData\Local\Temp\ccMaxS61.s 			page 10


 129      9E502B7C 
 130 0085 929B7BA1 		.ascii	"\222\233{\241\022:!\363;l\236^\346[5\334@\027\253f\217"
 130      123A21F3 
 130      3B6C9E5E 
 130      E65B35DC 
 130      4017AB66 
 131 009a 5FB3E934 		.ascii	"_\263\3514\331\004\370x\370\271Qy\333\241\206\006b<"
 131      D904F878 
 131      F8B95179 
 131      DBA18606 
 131      623C
 132 00ac 2C7E7F33 		.ascii	",~\1773\017\332\013\301\375\341\201r3\322yY\312\234"
 132      0FDA0BC1 
 132      FDE18172 
 132      33D27959 
 132      CA9C
 133 00be 74DF0D91 		.ascii	"t\337\015\221\334m\023\341\026\210\201\030C\0247\021"
 133      DC6D13E1 
 133      16888118 
 133      43143711 
 134 00ce 15FC49E0 		.ascii	"\025\374I\3406:\225~qt\265\0241}\316zN\334\201)\300"
 134      363A957E 
 134      7174B514 
 134      317DCE7A 
 134      4EDC8129 
 135 00e3 9D91977E 		.ascii	"\235\221\227~W\256\256\025\244[\277\204\331\375a\360"
 135      57AEAE15 
 135      A45BBF84 
 135      D9FD61F0 
 136 00f3 349FC10F 		.ascii	"4\237\301\017?\251\207\037\232 \212<\211W%]q\222\014"
 136      3FA9871F 
 136      9A208A3C 
 136      8957255D 
 136      71920C
 137 0106 D51B70C5 		.ascii	"\325\033p\3052r\343K\225\367!\305\252\0208K9_{\021P"
 137      3272E34B 
 137      95F721C5 
 137      AA10384B 
 137      395F7B11 
 138 011b 86499B9C 		.ascii	"\206I\233\234\2505\246M\007\027\373y\3251\233X\344G"
 138      A835A64D 
 138      0717FB79 
 138      D5319B58 
 138      E447
 139 012d 958DA9D8 		.ascii	"\225\215\251\330\\a~\241\335\272*\275\220\017\343pP"
 139      5C617EA1 
 139      DDBA2ABD 
 139      900FE370 
 139      50
 140 013e D2BB81BB 		.ascii	"\322\273\201\273\260\024{\356\324\022)\364\006\220\263"
 140      B0147BEE 
 140      D41229F4 
 140      0690B3
 141 014d 7313D284 		.ascii	"s\023\322\204&\251\265a\022\026\033\363`\223\315\276"
 141      26A9B561 
 141      12161BF3 
 141      6093CDBE 
ARM GAS  C:\Users\AMANRA~1\AppData\Local\Temp\ccMaxS61.s 			page 11


 142 015d EDD0EE69 		.ascii	"\355\320\356i\232\241h\367\377\322\276|\264\247\002"
 142      9AA168F7 
 142      FFD2BE7C 
 142      B4A702
 143 016c 5BA705E0 		.ascii	"[\247\005\340j\232.\300\003X,\030iU\177D\324\216\361"
 143      6A9A2EC0 
 143      03582C18 
 143      69557F44 
 143      D48EF1
 144 017f 69418D67 		.ascii	"iA\215gi\372\340v\350mx\250\351>E\177\244\351c\205\372"
 144      69FAE076 
 144      E86D78A8 
 144      E93E457F 
 144      A4E96385 
 145 0194 6848D1DB 		.ascii	"hH\321\333\000Ly\364\237\205O\315\260W2cc\202EU\375"
 145      004C79F4 
 145      9F854FCD 
 145      B0573263 
 145      63824555 
 146 01a9 FFA40861 		.ascii	"\377\244\010aZ\247\360\013\035\274\322X^0\263\277T\320"
 146      5AA7F00B 
 146      1DBCD258 
 146      5E30B3BF 
 146      54D0
 147 01bb E9E0C382 		.ascii	"\351\340\303\202\307\\9\201'\310\212\026\3621}\306X"
 147      C75C3981 
 147      27C88A16 
 147      F2317DC6 
 147      58
 148 01cc 56ADB65E 		.ascii	"V\255\266^\005X\026\264\251\275\254\012\203\247\254"
 148      055816B4 
 148      A9BDAC0A 
 148      83A7AC
 149 01db F893FEFA 		.ascii	"\370\223\376\372\331oP\016\3038\206g\210\332\024\361"
 149      D96F500E 
 149      C3388667 
 149      88DA14F1 
 150 01eb 4C7E3DE0 		.ascii	"L~=\340y\244\255{|\256=\232\377\360X\327\036\033\233"
 150      79A4AD7B 
 150      7CAE3D9A 
 150      FFF058D7 
 150      1E1B9B
 151 01fe 7A9CD11E 		.ascii	"z\234\321\036i\335\324\012r\316P\011Z\257Z\221E\374"
 151      69DDD40A 
 151      72CE5009 
 151      5AAF5A91 
 151      45FC
 152 0210 1BF0C1D8 		.ascii	"\033\360\301\330\023\217[|%\017\245\022\251t\246g_O"
 152      138F5B7C 
 152      250FA512 
 152      A974A667 
 152      5F4F
 153 0222 B795CEF0 		.ascii	"\267\225\316\360u8\225\2602G\223\034\350M\244\373\016"
 153      753895B0 
 153      3247931C 
 153      E84DA4FB 
 153      0E
ARM GAS  C:\Users\AMANRA~1\AppData\Local\Temp\ccMaxS61.s 			page 12


 154 0233 66E24941 		.ascii	"f\342IA\275\211#\277\001\357\362S\327"
 154      BD8923BF 
 154      01EFF253 
 154      D7
 155              		.text
 156              		.section	.gnu.lto_chMBReset.c3c0333a,"",%progbits
 157 0000 789C7D52 		.ascii	"x\234}RML\023A\024\236\267\263t+?J<\231Hb\0116\200\321"
 157      4D4C1341 
 157      149EB7B3 
 157      742B3F4A 
 157      3C994862 
 158 0018 2E78D078 		.ascii	".x\320x11=qhb\340\346\205\330\265\201&\324%]4p\352\332"
 158      31313D71 
 158      6862E0E6 
 158      85D8B581 
 158      26D4255D 
 159 0030 82405043 		.ascii	"\202@PC\242T\202\233\202\020\202\034DEQ\001\201\012"
 159      A254829B 
 159      8210821C 
 159      44455101 
 159      810A
 160 0042 820A0211 		.ascii	"\202\012\002\021\374\213hD\010\030b\003\342\301p\021"
 160      FC8B6844 
 160      08186203 
 160      E2C17011 
 161 0052 7DB32D46 		.ascii	"}\263-FJ\303d\177f\346}\337\233\357{o\014\204\220fJ"
 161      4AC3647F 
 161      66E67DDF 
 161      9BEF7B6F 
 161      0C849066 
 162 0067 C81AFEF7 		.ascii	"\310\032\376\367\342\013\224\000W;A\310\005#\007\300"
 162      E20B9400 
 162      573B41C8 
 162      052307C0 
 163 0077 26AA1188 		.ascii	"&\252\021\210\207\003\017\\\242\327(\014V.vs\231m*\216"
 163      87030F5C 
 163      A2D7280C 
 163      562E7673 
 163      996D2A8E 
 164 008b E0F529E1 		.ascii	"\340\365)\341\242Z\261GC\272\037_6\340>d\"\352u\371"
 164      A25AB147 
 164      43BA1F5F 
 164      36E03E64 
 164      22EA75F9 
 165 009f 5D8DD650 		.ascii	"]\215\326P\215\002\360\270\\\035o\230\337\311\226\034"
 165      8D02F0B8 
 165      5C1D6F98 
 165      DFC9961C 
 166 00af 987059B5 		.ascii	"\230pY\2656\373\001\350! 8o\363\371\247\223\322[U\325"
 166      36FB01E8 
 166      2120386F 
 166      F3F9A793 
 166      D25B55D5 
 167 00c3 AB063FB5 		.ascii	"\253\006?\265Pu\277F)<\004\212\011\241\013R\340\001"
 167      5075BF46 
 167      293C048A 
 167      09A10B52 
ARM GAS  C:\Users\AMANRA~1\AppData\Local\Temp\ccMaxS61.s 			page 13


 167      E001
 168 00d5 A410DC22 		.ascii	"\244\020\334\"\360\010\322\031~\356\336z]\222\201\017"
 168      F008D219 
 168      7EEEDE7A 
 168      5D92810F 
 169 00e5 1F088FC1 		.ascii	"\037\010\217\301\000\3776\313uQ\277\002\006}\337O\341"
 169      00FF36CB 
 169      7551BF02 
 169      067DDF4F 
 169      E1
 170 00f6 7F3C7423 		.ascii	"\177<t#\264\007\014$\012>6r<\216\260\200\237r,\326:"
 170      B4070C24 
 170      0A3E3672 
 170      3C8EB080 
 170      9F722CD6 
 171 010b 3A359040 		.ascii	":5\220@O\351\334\366\216\233\365\211\346\026]\333{-"
 171      4FE9DCF6 
 171      8E9BF589 
 171      E6165DDB 
 171      7B2D
 172 011d 23E0ABB9 		.ascii	"#\340\253\271\2546y\2235\312\303\223\315\012\331\210"
 172      AC367993 
 172      35CAC393 
 172      CD0AD988 
 173 012d 4ABC1C40 		.ascii	"J\274\034@#}`&\320\313\222\323Mb\372Q\314\000\212a\037"
 173      237D6026 
 173      D0CB92D3 
 173      4D62FA51 
 173      CC008A61 
 174 0142 40EE9DA9 		.ascii	"@\356\235\251\270\240\272\376\247\022k\272;P\273\264"
 174      B8A0BAFE 
 174      A7126BBA 
 174      3B50BBB4 
 175 0152 922660F1 		.ascii	"\222&`\361\231cR\205>\261\013j\220T\243@\234\371\202"
 175      99635285 
 175      3EB10B6A 
 175      9054A340 
 175      9CF982
 176 0165 6411B818 		.ascii	"d\021\270\030\362nl/\017\202`FR\345\222\332\307\263"
 176      F26E6C2F 
 176      0F826046 
 176      52E592DA 
 176      C7B3
 177 0177 56F06082 		.ascii	"V\360`\202\247\030\373\016\336\271ou=_\242\353x\365"
 177      A718FB0E 
 177      DEB96F75 
 177      3D5FA2EB 
 177      78F5
 178 0189 9D10A923 		.ascii	"\235\020\251#\277\245f\213\207\261f\203,\026\027\035"
 178      BFA5668B 
 178      87B16683 
 178      2C16171D 
 179 0199 9BD632B0 		.ascii	"\233\3262\260\353A\346{h\253\357ghw\230\371\036f\276"
 179      EB41E67B 
 179      68ABEF67 
 179      687798F9 
 179      1E66BE
ARM GAS  C:\Users\AMANRA~1\AppData\Local\Temp\ccMaxS61.s 			page 14


 180 01ac 817C66A7 		.ascii	"\201|f\24767v\256\305\247.C\243Zo\322\302\031o\317\367"
 180      363776AE 
 180      C5A72E43 
 180      A35A6FD2 
 180      C2196FCF 
 181 01c1 AA469E43 		.ascii	"\252F\236C\325#\220\252\227\366G\350\315\014\207;\360"
 181      D52390AA 
 181      97F647E8 
 181      CD0C873B 
 181      F0
 182 01d2 1C785D37 		.ascii	"\034x]7\201\027\372\335\272\325?\264\220\230\272\032"
 182      8117FADD 
 182      BAD53FB4 
 182      9098BA1A 
 183 01e2 61EBFDFD 		.ascii	"a\353\375\375\331\321\3716Ag\277dl\030\005\036k\346"
 183      D9D1F936 
 183      4167BF64 
 183      6C18051E 
 183      6BE6
 184 01f4 35E93520 		.ascii	"5\3515 $\004\345\263\325!\312\3141twwhF\360\374V\215"
 184      2404E5B3 
 184      D521CACC 
 184      31747777 
 184      6846F0FC 
 185 020a 1A15FC98 		.ascii	"\032\025\374\230\200\300\030xH\003\3454jD\254\257\251"
 185      80C01878 
 185      4803E534 
 185      6A44ACAF 
 185      A9
 186 021b 6B570CE8 		.ascii	"kW\014\350\016?\025\020\372\012\241\032\215\327[\302"
 186      0E3F1510 
 186      FA0AA11A 
 186      8DD75BC2 
 187 022b BA8D207F 		.ascii	"\272\215 \177\305\340\244\020\2560\201\361H\205\027"
 187      C5E0A410 
 187      AE3081F1 
 187      488517
 188 023a EA7AF685 		.ascii	"\352z\366\205\233\0351\275\336\370\265?a\303\317\270"
 188      9B1D31BD 
 188      DEF8B53F 
 188      61C3CFB8 
 189 024a EE6742F7 		.ascii	"\356gB\367\023-~2,~\266\375\312\307\002\375\010B\226"
 189      132D7E32 
 189      2C7EB6FD 
 189      CAC702FD 
 189      084296
 190 025d 7159B392 		.ascii	"qY\263\222\246\253b\243\012\257:\336\014\344\034\260"
 190      A6AB62A3 
 190      0AAF3ADE 
 190      0CE41CB0 
 191 026d 58447CA4 		.ascii	"XD|\244B\247\335)+\331\307\262\263DY\301\247\310i\027"
 191      42A7DD29 
 191      2BD9C7B2 
 191      B34459C1 
 191      A7C86917 
 192 0281 15B78401 		.ascii	"\025\267\204\001\227].u(\026\211P\227\2758#&\334]\""
 192      975D2E75 
ARM GAS  C:\Users\AMANRA~1\AppData\Local\Temp\ccMaxS61.s 			page 15


 192      28168950 
 192      97BD3823 
 192      26DC5D22 
 193 0295 3ACF4A45 		.ascii	":\317JE\347\31680\242\224)\226B\"\330O+\216\223n\347"
 193      E7CE3830 
 193      A2942996 
 193      4222D84F 
 193      2B8E936E 
 194 02aa 91980449 		.ascii	"\221\230\004Iv\271\344\263b\261\354.Q\304\023\2716\253"
 194      76B9E4B3 
 194      62B1EC2E 
 194      51C413B9 
 194      36AB
 195 02bc AD142192 		.ascii	"\255\024!\222\354v\344\237?\352B\272u;\232\243\264\204"
 195      EC76E49F 
 195      3FEA42BA 
 195      753B9AA3 
 195      B484
 196 02ce 9144AB2D 		.ascii	"\221D\253-/'O\264\"K\314\3318\336\2458\225\374\002I"
 196      2F274FB4 
 196      224BCCD9 
 196      38DEA538 
 196      95FC0249 
 197 02e2 C21CC9B6 		.ascii	"\302\034\311\266\274\\\023\223Q\354v\0364\231\263\010"
 197      BC5C1393 
 197      51EC761E 
 197      3499B308 
 198 02f2 E72682CB 		.ascii	"\347&\202\313\341\222\335e\344/#Fx\343"
 198      E192DD65 
 198      E42F2346 
 198      78E3
 199              		.text
 200              		.section	.gnu.lto_chMBPostTimeoutS.c3c0333a,"",%progbits
 201 0000 789C9555 		.ascii	"x\234\225U\353O\024W\024\277g\356\354\314\356\"\017"
 201      EB4F1457 
 201      14BF67EE 
 201      ECCCEE22 
 201      0F
 202 0011 79B42602 		.ascii	"y\264&\002\202-1\222\0105i?\364C\233\364[\377\016\320"
 202      822D3192 
 202      0835693F 
 202      F4439BF4 
 202      5BFF0ED0 
 203 0025 541A9106 		.ascii	"T\032\221\0064\321\246)#\013,\017\323\264\006\267d3"
 203      34D1A629 
 203      230B2C0F 
 203      D3B406B7 
 203      6433
 204 0037 D1352D45 		.ascii	"\3215-EcP\254Hy\251\013X\252\010(B\025\201R\004A1\324"
 204      6350AC48 
 204      79A90B58 
 204      AA082842 
 204      15815204 
 205 004e 8A151F04 		.ascii	"\212\025\037\004i\317\271w\200\335\225B\273\331=s\037"
 205      69CFB977 
 205      80DD9542 
 205      BBD93D73 
ARM GAS  C:\Users\AMANRA~1\AppData\Local\Temp\ccMaxS61.s 			page 16


 205      1F
 206 005f E7FCCEF9 		.ascii	"\347\374\316\371\375\356\271\263\032c\354\200\203\261"
 206      FDEEB9B3 
 206      1A63EC80 
 206      83B1
 207 006d 5C7C96E1 		.ascii	"\\|\226\341\017\302\030(_\3670v\320\256\000\227\003"
 207      0FC21828 
 207      5FF73076 
 207      D0AE0097 
 207      03
 208 007e AE389E72 		.ascii	"\2568\236rf8U\263\2231c\235\252\330\304\324.\2476E\253"
 208      663855B3 
 208      9331639D 
 208      AAD8C4D4 
 208      2EA73645 
 209 0093 4CC5A9FE 		.ascii	"L\305\251\376\342-\234i\240\313 \035\034r`W\234\302"
 209      E22D9C69 
 209      A0CB201D 
 209      1C726057 
 209      9CC2
 210 00a5 D12940D6 		.ascii	"\321)@\3269%\352G\016\000z\032v`\371\012Wm\232nw:\000"
 210      3925EA47 
 210      0E007A1A 
 210      7660F90A 
 210      576D9A6E 
 211 00bc 87CCFA1C 		.ascii	"\207\314\372\034\342\025\034z\013kM^\316M\316@\305\351"
 211      E2151C7A 
 211      0B6B4D5E 
 211      CE4DCE40 
 211      C5E9
 212 00ce 4CB7773C 		.ascii	"L\267w<\202\246\000I8\255\272\340j\201\255\325\006~"
 212      82A60049 
 212      38ADBAE0 
 212      6A81ADD5 
 212      067E
 213 00e0 FCDF5644 		.ascii	"\374\337VDT\273\212>6\271\302<\350]\007\361p\016\342"
 213      54BB8A3E 
 213      36B9C23C 
 213      E85D07F1 
 213      700EE2
 214 00f3 89D179D8 		.ascii	"\211\321y\330\212\276%/F\007\200o\003\206\343j\227\247"
 214      8ABE252F 
 214      4607806F 
 214      0386E36A 
 214      97A7
 215 0105 2F7C4B95 		.ascii	"/|K\225a\024\030\376\341\357\271\361\266\3119\324\003"
 215      611418FE 
 215      E1EFB9F1 
 215      B6C939D4 
 215      03
 216 0116 0F0CC425 		.ascii	"\017\014\304%\006?\301\026t\357\252m\274\255\362\355"
 216      063FC116 
 216      74EFAA6D 
 216      BCADF2ED 
 217 0126 22F448BD 		.ascii	"\"\364H\275\353\004\247PL\371\264J\204*\320\020\032"
 217      EB04A750 
 217      4CF9B44A 
ARM GAS  C:\Users\AMANRA~1\AppData\Local\Temp\ccMaxS61.s 			page 17


 217      842AD010 
 217      1A
 218 0137 AA306814 		.ascii	"\2520h\024\241\303_ULD\360\367D\350\343\251\347s\021"
 218      A1C35F55 
 218      4C44F0F7 
 218      44E8E3A9 
 218      E77311
 219 014a 56D6AE0D 		.ascii	"V\326\256\015^\303\257\232\\\205\246\320X\225A3l\241"
 219      5EC3AF9A 
 219      5C85A6D0 
 219      58954133 
 219      6CA1
 220 015c 00F78BB1 		.ascii	"\000\367\213\261\332H\376\201\010\036\031\377aLI\371"
 220      DA48FE81 
 220      081E19FF 
 220      614C49F9 
 221 016c 4EE41D69 		.ascii	"N\344\035i\210>\3562\256\030*\345n\011\216\247\017\272"
 221      883EEE32 
 221      AE182AE5 
 221      6E098EA7 
 221      0FBA
 222 017e 8F9D5D38 		.ascii	"\217\235]8\022\256\251p\001R|\250\250\207T\205\213\240"
 222      12AEA970 
 222      01527CA8 
 222      A8875485 
 222      8BA0
 223 0190 01EE9D3E 		.ascii	"\001\356\235>~\257\312APX\307\255\206\010,\2440\311"
 223      7EAFCA41 
 223      5058C7AD 
 223      86082CA4 
 223      30C9
 224 01a2 E4B65001 		.ascii	"\344\266P\001\202\220\012E\342\205\306h\200K\220\"\240"
 224      82900A45 
 224      E285C668 
 224      804B9022 
 224      A0
 225 01b3 3C5C1416 		.ascii	"<\\\024\026\210v\2772\351\344\360\003\3038l\300\277"
 225      8876BF32 
 225      E9E4F003 
 225      C3386CC0 
 225      BF
 226 01c4 030606DC 		.ascii	"\003\006\006\334\000\301\342\277\344\036\251\211\005"
 226      00C1E2BF 
 226      E41EA989 
 226      05
 227 01d1 68831468 		.ascii	"h\203\024h\245\374~\312\257\0040e\320\216\354.\203\306"
 227      A5FC7ECA 
 227      AF043065 
 227      D08EEC2E 
 227      83C6
 228 01e3 C800B225 		.ascii	"\310\000\262%\356gn\332\374\306\302\337nl\217\330\206"
 228      EE676EDA 
 228      FCC6C2DF 
 228      6E6C8FD8 
 228      86
 229 01f4 BAE29A97 		.ascii	"\272\342\232\227\352f@\2115\005\215\316\311\250dld4"
 229      EA664089 
ARM GAS  C:\Users\AMANRA~1\AppData\Local\Temp\ccMaxS61.s 			page 18


 229      35058DCE 
 229      C9A8646C 
 229      6434
 230 0206 34769D8C 		.ascii	"4v\235\214\035\215\303A\306Ig\031\011\324\007Q\344\263"
 230      1D8DC341 
 230      C6496719 
 230      09D40751 
 230      E4B3
 231 0218 1EE86C62 		.ascii	"\036\350lb\030a\307\001\235\361FZ\246cs&\220I$\263\211"
 231      1861C701 
 231      9DF1465A 
 231      A6637326 
 231      904924B3 
 232 022d 4C122125 		.ascii	"L\022!%\223a\254\004\345?\034f\370q\240\340\300\345"
 232      9361AC04 
 232      E53F1C66 
 232      F871A0E0 
 232      C0E5
 233 023f 67A5D85D 		.ascii	"g\245\330]\330\3768z\010\005MS^\267N\222z9\235\217\247"
 233      D8FE387A 
 233      08054D53 
 233      5EB74E92 
 233      7A399D8F 
 234 0254 A8EDBA4E 		.ascii	"\250\355\272NM.\005ni\353\356\320|p\364 \252\200\347"
 234      4D2E056E 
 234      69EBEED0 
 234      7C70F420 
 234      AA80E7
 235 0267 14E6E591 		.ascii	"\024\346\345\221\3603i\204{\375\356\201\221\260\364"
 235      F0336984 
 235      7BFDEE81 
 235      91B0F4
 236 0276 1A436E69 		.ascii	"\032Cni\320\001>8\"n\020\374\002\351l\002\012\207\332"
 236      D0013E38 
 236      226E10FC 
 236      02E96C02 
 236      0A87DA
 237 0289 2FC30AD0 		.ascii	"/\303\012\320\250\020\\\261\204.\305\226\303\033\212"
 237      A8105CB1 
 237      842EC596 
 237      C31B8A
 238 0298 B54C0236 		.ascii	"\265L\0026.\236/\246\240\272\346\235\314\313\243\002"
 238      2E9E2FA6 
 238      A0BAE69D 
 238      CCCBA302 
 239 02a8 C3D60555 		.ascii	"\303\326\005U\204\207\034N\325\\% \350\304\334\210P"
 239      84871C4E 
 239      D55C2520 
 239      E8C4DC88 
 239      50
 240 02b9 307AEE50 		.ascii	"0z\356P}y8\371UL\226\314F\246\236\220\327\363\350\346"
 240      7D7938F9 
 240      554C96CC 
 240      46A69E90 
 240      D7F3E8E6 
 241 02cd 6FEAFC51 		.ascii	"o\352\374Qx\326\326\365\206k\220\032\230g#\006\264\216"
 241      78D6D6F5 
ARM GAS  C:\Users\AMANRA~1\AppData\Local\Temp\ccMaxS61.s 			page 19


 241      866B901A 
 241      98672306 
 241      B48E
 242 02df FE381326 		.ascii	"\3768\023&\363\320m\037<f\316\333\002\362t\211<\335"
 242      F3D06D1F 
 242      3C66CEDB 
 242      02F27489 
 242      3CDD
 243 02f1 C1791671 		.ascii	"\301y\026qD\355\324\0378\227\223Vk\202\031\236\270\273"
 243      44EDD41F 
 243      38979356 
 243      6B82199E 
 243      B8BB
 244 0303 FB1E0375 		.ascii	"\373\036\003u\206\227\307c.\271f-$ I\\pU\026[\013\211"
 244      8697C763 
 244      2EB9662D 
 244      2420495C 
 244      7055165B 
 245 0319 C22981D6 		.ascii	"\302)\201\326n.\256m\302\345\300\367\221\023T\350\301"
 245      6E2EAE6D 
 245      C2E5C0F7 
 245      911354E8 
 245      C1
 246 032a 7A04D049 		.ascii	"z\004\320I.\235\222\320o\211P2\2727\3775\177M!\367\010"
 246      2E9D92D0 
 246      6F895032 
 246      BA37FF35 
 246      7F4D21F7 
 247 033f 201DEB2E 		.ascii	" \035\353.V\236\016\223\204\"\211\320uA\350\206E\310"
 247      569E0E93 
 247      842289D0 
 247      7541E886 
 247      45C8
 248 0351 F7A7E7C3 		.ascii	"\367\247\347\303\265e\353]\246\373\372\355;\025z\373"
 248      B565EB5D 
 248      A6FBFAED 
 248      3B157AFB 
 249 0361 20E84AC1 		.ascii	" \350J\301M\224\244W\350S0Z~\254Z\023\257\004\272\320"
 249      4D94A457 
 249      E853305A 
 249      7EAC5A13 
 249      AF04BAD0 
 250 0375 C1AD823C 		.ascii	"\301\255\202<\222\255\326\260\261!\276\330\245'\356"
 250      92ADD6B0 
 250      B121BED8 
 250      A527EE
 251 0384 6B725FF9 		.ascii	"kr_\371_m\251C\237hK\240\012\372\261-QW\263\370\244"
 251      5F6DA943 
 251      9F684BA0 
 251      0AFAB12D 
 251      5157B3F8 
 252 0399 4D627184 		.ascii	"Mbq\204\023\005b\212\3762Q@\010\272o\017[\003\377\327"
 252      1305628A 
 252      FE325140 
 252      08BA6F0F 
 252      5B03FFD7 
 253 03ad 65FC5B90 		.ascii	"e\374[\220\216\230\004\346\275\272\315\002[j_\375\265"
ARM GAS  C:\Users\AMANRA~1\AppData\Local\Temp\ccMaxS61.s 			page 20


 253      8E9804E6 
 253      BDBACD02 
 253      5B6A5FFD 
 253      B5
 254 03be 0BE54BC4 		.ascii	"\013\345K\304\013N\025\334\026G1\200@^\036Gj\334i\357"
 254      0B4E15DC 
 254      16473180 
 254      405E1E47 
 254      6ADC69EF 
 255 03d2 697A77A9 		.ascii	"izw\251D!\3773P\261UT|\332\260\207\350\211\233\311*"
 255      4421FF33 
 255      50B15554 
 255      7CDAB087 
 255      E8899BC9 
 256 03e7 C9A43143 		.ascii	"\311\2441C\2212\365\227\325\314\326\256H#w-\032w\226"
 256      9132F597 
 256      D5CCD6AE 
 256      4823772D 
 256      1A7796
 257 03fa 690C120D 		.ascii	"i\014\022\015U\234\200\276x\002.Oq\367\354\027\262$"
 257      559C80BE 
 257      78022E4F 
 257      71F7EC17 
 257      B224
 258 040c DDCB09FF 		.ascii	"\335\313\011\377\274\273\353\254\223\230E\001\300\320"
 258      BCBBEBAC 
 258      93984501 
 258      C0D0
 259 041a AA227EBA 		.ascii	"\252\"~\272z\366(\030\026\331\025\312\376\033e\327\011"
 259      7AF62818 
 259      16D915CA 
 259      FE1B65D7 
 259      09
 260 042b 6CCEFD6A 		.ascii	"l\316\375j6^\246\264\207\">\203\325!\327\303\210\200"
 260      365EA6B4 
 260      87223E83 
 260      D521D7C3 
 260      8880
 261 043d E4F2657E 		.ascii	"\344\362e~\252\373\341\210\226\377\312\260Tw\300\357"
 261      AAFBE188 
 261      96FFCAB0 
 261      5477C0EF 
 262 044d D80A0C46 		.ascii	"\330\012\014F!\237MCQ\022%!\267\306\306\351!\035\335"
 262      219F4D43 
 262      51122521 
 262      B7C6C6E9 
 262      211DDD
 263 0460 EC268FF6 		.ascii	"\354&\217\366P,\334E\017\231\376\314t\343\313p\242\033"
 263      502CDC45 
 263      0F99FECC 
 263      74E3CB70 
 263      A21B
 264 0472 83AFAF31 		.ascii	"\203\257\2571\2107y,\306\272|w\023V\210\216\363\220"
 264      8837792C 
 264      C6BA7C77 
 264      1356888E 
 264      F390
ARM GAS  C:\Users\AMANRA~1\AppData\Local\Temp\ccMaxS61.s 			page 21


 265 0484 80308ED1 		.ascii	"\2000\216\321&\177CHig\255\035\326;w\316\375\307\363"
 265      267F4348 
 265      6967AD1D 
 265      D63B77CE 
 265      FDC7F3
 266 0497 FD929823 		.ascii	"\375\222\230#\224\330Ee-b\367\0041\365ub\237\023\261"
 266      94D84565 
 266      2D62F704 
 266      31F57562 
 266      9F13B1
 267 04aa 09416C52 		.ascii	"\011AlR\022\363\345\312,1\301\325\275\351\241\236\202"
 267      12F3E5CA 
 267      2C31C1D5 
 267      BDE9A19E 
 267      82
 268 04bb FB829BC3 		.ascii	"\373\202\233\303\313\327\233|\003]K\241\003\375\275"
 268      CBD79B7C 
 268      035D4BA1 
 268      03FDBD
 269 04ca 6004B5E1 		.ascii	"`\004\265\341`\373B\263\266\214\260\324\312\012*\360"
 269      60FB42B3 
 269      B68CB0D4 
 269      CA0A2AF0 
 270 04da C0BAD625 		.ascii	"\300\272\326%\334\311\026\332\030\224r\207\374wy\204"
 270      DCC916DA 
 270      18947287 
 270      FC777984 
 271 04ea 2F072F2E 		.ascii	"/\007/.R\313:1j\322\254\353\210\224Q_\302\024\304\363"
 271      52CB3A31 
 271      6AD2ACEB 
 271      8894515F 
 271      C214C4F3 
 272 04fe B9C919A0 		.ascii	"\271\311\031\240p\275\363\021\366{\214\275\351I/ \014"
 272      70BDF311 
 272      F67B8CBD 
 272      E9492F20 
 272      0C
 273 050f 60383640 		.ascii	"`86@jZZ:~3weed\345\344m\177\177\373;\3519y\370\335\235"
 273      6A5A5A3A 
 273      7E337765 
 273      6564E5E4 
 273      6D7F7FFB 
 274 052a 95919E97 		.ascii	"\225\221\236\227\233\211\033\331\0319\373w\346\245e"
 274      9B891BD9 
 274      1939FB77 
 274      E6A565
 275 0539 329E9DF1 		.ascii	"2\236\235\361\031\317\316\373D\337\233\225\2753g\337"
 275      19CFCEFB 
 275      44DF9B95 
 275      BD3367DF 
 276 0549 5E2D77C7 		.ascii	"^-w\307\001\234\246\255\202\220\265's\367\276\035;\227"
 276      019CA6AD 
 276      8290B527 
 276      73F7BE1D 
 276      3B97
 277 055b 5176B17F 		.ascii	"Qv\261\177\000\261\3770\011"
 277      00B1FF30 
ARM GAS  C:\Users\AMANRA~1\AppData\Local\Temp\ccMaxS61.s 			page 22


 277      09
 278              		.text
 279              		.section	.gnu.lto_chMBPostTimeout.c3c0333a,"",%progbits
 280 0000 789C7D93 		.ascii	"x\234}\223[H\024a\024\307\317\231o\334]\3334\351)\312"
 280      5B481461 
 280      14C7CF99 
 280      6FDC5DDB 
 280      34E929CA 
 281 0014 8715122D 		.ascii	"\207\025\022-\312\321\207\212\036z\010_\362A\210|\015"
 281      CAD1878A 
 281      1E7A085F 
 281      F241887C 
 281      0D
 282 0025 A4DD16DB 		.ascii	"\244\335\026\333h\032\231YC\237\234\\+\303n\220n\262"
 282      681A9959 
 282      439F9C5C 
 282      2BC36E90 
 282      6EB2
 283 0037 2DDACD2C 		.ascii	"-\332\315,\350b\226\225\225\272y\313\2644/]\355bJ\201"
 283      E8629695 
 283      95BA79CB 
 283      B4342F5D 
 283      ED624A81 
 284 004b 28660525 		.ascii	"(f\005%A\326\371>-l\023\207a\371\276\371\316\357;\377"
 284      41D6F93E 
 284      2D6C1387 
 284      61F9BEF9 
 284      CEEF3BFF 
 285 005f F33F672D 		.ascii	"\363?g-\000\260S\006\260#\3002Z#\003\224\216u\001\354"
 285      00B05306 
 285      B023C032 
 285      5A230394 
 285      8E7501EC 
 286 0073 B549887C 		.ascii	"\265I\210|a\332\020\362%\314\307C\254\204aOau\220\025"
 286      61DA10F2 
 286      25CCC743 
 286      AC84614F 
 286      61759015 
 287 0087 B32085C9 		.ascii	"\263 \205\311\264\375\37480\034\315\267\210\016\332"
 287      B4FDFC38 
 287      301CCDB7 
 287      880EDA
 288 0096 56D6FBEE 		.ascii	"V\326\373\356\341\212*\223\236\320\211\200\275\312\267"
 288      E18A2A93 
 288      9ED08980 
 288      BDCAB7
 289 00a5 6F539049 		.ascii	"oS\220I\340\247\350\033\030\213\3271\226\247\250\305"
 289      E0A7E81B 
 289      188BD731 
 289      96A7A8C5 
 290 00b5 15145B34 		.ascii	"\025\024[49\370\002\331j\004ZW\371\374}Q\011\225\246"
 290      39F802D9 
 290      6A045A57 
 290      F9FC7D51 
 290      0995A6
 291 00c8 596086FA 		.ascii	"Y`\206\372\3171sy\2201\274\211l6H\237\000oa\002\205"
 291      CF317379 
ARM GAS  C:\Users\AMANRA~1\AppData\Local\Temp\ccMaxS61.s 			page 23


 291      9031BC89 
 291      6C36489F 
 291      006F6102 
 292 00dd 3FAAAE7B 		.ascii	"?\252\256{.\263\024\201\226\336\364]`\034\245\224c\225"
 292      2EB31481 
 292      96DEF45D 
 292      601CA594 
 292      6395
 293 00ef 0295F076 		.ascii	"\002\225\360v8*\001\326\011\364\365\221\222\017\321"
 293      382A01D6 
 293      09F4F591 
 293      920FD1
 294 00fe 6C8D4027 		.ascii	"l\215@'F\276\377\210\236\311\332\262$`\206\344 \223"
 294      46BEFF88 
 294      9EC9DAB2 
 294      246086E4 
 294      2093
 295 0110 F14E382B 		.ascii	"\361N8+\003\336\305\004\016\034\230\034\252^\3046\010"
 295      03DEC504 
 295      0E1C981C 
 295      AA5EC436 
 295      08
 296 0121 F8EDF0F9 		.ascii	"\370\355\360\371!)\376\254\310\373\355\322\342\323>"
 296      2129FEAC 
 296      C8FBEDD2 
 296      E2D33E
 297 0130 B3DD9479 		.ascii	"\263\335\224y\356{\377\362\374\241\360\241kS\245Q\026"
 297      EE7BFFF2 
 297      FCA1F0A1 
 297      6B53A551 
 297      16
 298 0141 19EB319E 		.ascii	"\031\3531\236\333A.4\240\005\377\036\024\212{\236]\266"
 298      DB412E34 
 298      A005FF1E 
 298      148A7B9E 
 298      5DB6
 299 0153 88EF7E86 		.ascii	"\210\357~\206\263\030\300F\012\015\241\005\302\302\207"
 299      B318C046 
 299      0A0DA105 
 299      C2C287
 300 0162 CB123381 		.ascii	"\313\0223\201\037\370\251>\356~Go\243\235\251\202\275"
 300      1FF8A93E 
 300      EE7E476F 
 300      A39DA982 
 300      BD
 301 0173 78E574D9 		.ascii	"x\345t\331B.\217j\373T\236X\356+>l\236*\210\011\262"
 301      422E8F6A 
 301      FB549E58 
 301      EE2B3E6C 
 301      9E2A8809 
 302 0188 086C9A47 		.ascii	"\010l\232G\340\364\305\343\345d\1773)\305\373\374r\366"
 302      E0F4C5E3 
 302      E5647F33 
 302      29C5FBFC 
 302      72F6
 303 019a 8F981612 		.ascii	"\217\230\026\022\323Jb\370\017\015\015\362\222\256\366"
 303      D34A62F8 
ARM GAS  C:\Users\AMANRA~1\AppData\Local\Temp\ccMaxS61.s 			page 24


 303      0F0D0DF2 
 303      92AEF6
 304 01a9 4684CCA9 		.ascii	"F\204\314\251_\007\250\353K/\325\354\1773 G\322\364"
 304      5F07A8EB 
 304      4B2FD5EC 
 304      7F332047 
 304      D2F4
 305 01bb 50B3682E 		.ascii	"P\263h.\310w\031\271\203\204\360\352\241\210\312\247"
 305      C87719B9 
 305      8384F0EA 
 305      A188CAA7 
 306 01cb C1324370 		.ascii	"\3012Cp\220t\323\312\027\202\217(\315\241\372\344\374"
 306      9074D3CA 
 306      17828F28 
 306      CDA1FAE4 
 306      FC
 307 01dc AAB10DE3 		.ascii	"\252\261\015\343yWF\314z\231\317`\004:\360\001\235\215"
 307      795746CC 
 307      7A99CF60 
 307      043AF001 
 307      9D8D
 308 01ee 62C1D057 		.ascii	"b\301\320W\377\235w\341\366\036\257\266\317\330+\377"
 308      FF9D77E1 
 308      F61EAFB6 
 308      CFD82BFF 
 309 01fe 6FE5AAAD 		.ascii	"o\345\252\255\200\355\374,\"\374l\264<\221\346\273\215"
 309      80EDFC2C 
 309      22FC6CB4 
 309      3C91E6BB 
 309      8D
 310 020f DBF1F07F 		.ascii	"\333\361\360\177;:\310\205NnG'\267\003a\202g=SQ3\271"
 310      3B3AC885 
 310      4E6E4727 
 310      B7036182 
 310      673D5351 
 311 0225 206EAF54 		.ascii	" n\257Ta\2269\202L4\356\362\360]\323&K\244\372\021\306"
 311      61963982 
 311      4C34EEF2 
 311      F05DD326 
 311      4BA4FA11 
 312 023a 09C727C6 		.ascii	"\011\307'\306\372\007$\372\202\217Q\026\272\001\273"
 312      FA0724FA 
 312      828F5116 
 312      BA01BB
 313 0249 C49FEA42 		.ascii	"\304\237\352BC\363\207\205q\2053\264\225\307~\271R\363"
 313      43F38785 
 313      718533B4 
 313      95C77EB9 
 313      52F3
 314 025b D42EE86E 		.ascii	"\324.\350nN\343\023\224\311\263\002\207\360\000`\014"
 314      4EE31394 
 314      C9B30287 
 314      F000600C 
 315 026b F70F16BF 		.ascii	"\367\017\026\277l\265\360\352\002\314B@]\335\330\200"
 315      6CB5F0EA 
 315      02CC4240 
 315      5DDDD880 
ARM GAS  C:\Users\AMANRA~1\AppData\Local\Temp\ccMaxS61.s 			page 25


 316 027b 35FFA769 		.ascii	"5\377\247i\0132\233\237\024\000\366`>\004\230\024`,"
 316      0B329B9F 
 316      1400F660 
 316      3E049814 
 316      602C
 317 028d C0685023 		.ascii	"\300hP#\005/\246\220\272B\220\350\001\357:\321\376}"
 317      052FA690 
 317      BA4290E8 
 317      01EF3AD1 
 317      FE7D
 318 029f 4DDDD669 		.ascii	"M\335\326iK\001{g[:\335\365\2312\247*\3367\330\377T"
 318      4B017B67 
 318      5B3ADDF5 
 318      9932A72A 
 318      DE37D8FF 
 319 02b4 D02B2AE8 		.ascii	"\320+*\350\023\025\204\313\355\237\226;X{\364U\226\310"
 319      131584CB 
 319      ED9F963B 
 319      587BF455 
 319      96C8
 320 02c6 01304EDB 		.ascii	"\0010N\333\342\327\177%\363~\026\321\330\3238\020\266"
 320      E2D77F25 
 320      F37E16D1 
 320      D8D33810 
 320      B6
 321 02d7 322949A1 		.ascii	"2)I\241\327\265\303\343\364hF\312\372\224dE3\350\335"
 321      D7B5C3E3 
 321      F46846CA 
 321      FA946445 
 321      33E8DD
 322 02ea E5712A86 		.ascii	"\345q*\206\356\242\003\325\251\345\272\215$\0270\325"
 322      EEA203D5 
 322      A9E5BA8D 
 322      241730D5 
 323 02fa 99CD5423 		.ascii	"\231\315T#\313\352\365\250n-\307k\321\267\347\3216q"
 323      CBEAF5A8 
 323      6E2DC76B 
 323      D1B7E7D1 
 323      3671
 324 030c CE1B74AF 		.ascii	"\316\033t\257\342\331\355\332\225\263\335M'F\236\221"
 324      E2D9EDDA 
 324      95B3DD4D 
 324      27469E91 
 325 031c B403ACCE 		.ascii	"\264\003\254\316m\206{\263\356Y;'\340\322TU\333\255"
 325      6D867BB3 
 325      EE593B27 
 325      E0D25455 
 325      DBAD
 326 032e 646BBAD7 		.ascii	"dk\272\327P6nIOM\317\245\020\227\246\2733\367\254S\011"
 326      50366E49 
 326      4F4DCFA5 
 326      1097A6BB 
 326      33F7AC53 
 327 0343 4F9D0F73 		.ascii	"O\235\017s\347z9\244\244\246g\244e(\251D)i\177\322\253"
 327      E77A39A4 
 327      A4A667A4 
 327      6528A944 
ARM GAS  C:\Users\AMANRA~1\AppData\Local\Temp\ccMaxS61.s 			page 26


 327      29697FD2 
 328 0358 86C7C8CC 		.ascii	"\206\307\310\314r\271\350\216\230\364\214-\016.#[\367"
 328      72B9E88E 
 328      98F48C2D 
 328      0E2E235B 
 328      F7
 329 0369 AC72C427 		.ascii	"\254r\304'\203\244\203Uu\253\232\236\007\277\001\222"
 329      83A48355 
 329      75AB9A9E 
 329      07BF0192 
 330 0379 B6BADB   		.ascii	"\266\272\333"
 331              		.text
 332              		.section	.gnu.lto_chMBPostI.c3c0333a,"",%progbits
 333 0000 789C9554 		.ascii	"x\234\225T\335O\034U\024\277\277\2713\263\313.[\220"
 333      DD4F1C55 
 333      14BFBFB9 
 333      33B3CB2E 
 333      5B90
 334 0012 AFA2D907 		.ascii	"\257\242\331\007bD\002F\266$\276\370\242\257\376\025"
 334      62440246 
 334      B624BEF8 
 334      A2AFFE15 
 335 0022 3E805530 		.ascii	">\200U0E\214\244\211O2\260|\327\207\222\224\265\331"
 335      458CA489 
 335      4F32B07C 
 335      D7879294 
 335      B5D9
 336 0034 4CEB9A8A 		.ascii	"L\353\232\212@L\277,\375\200\002n\301\322\255\260\375"
 336      404CBF2C 
 336      FD80026E 
 336      C1D2ADB0 
 336      FD
 337 0045 006C2928 		.ascii	"\000l)(R\254h\033\244R\243\261\006\301sf\246\313B+\350"
 337      52AC681B 
 337      A452A3B1 
 337      06C17366 
 337      A6CB422B 
 338 005a 6439DC7B 		.ascii	"d9\334{\347\234\337\357\234\337=gt!D\314%D\031\375\177"
 338      E79CDFEF 
 338      9CDF3D67 
 338      742144CC 
 338      254419FD 
 339 006f 9DFEE016 		.ascii	"\235\376\340\026P\366_\021\242\326\255(\256\030\204"
 339      50F65F11 
 339      A2D6AD28 
 339      AE1884
 340 007e E191B131 		.ascii	"\341\221\2611!\214T\251\250]qZx\\?\363VU\264\346\002"
 340      218C54A9 
 340      A85D715A 
 340      785C3FF3 
 340      5655B4E6 
 341 0093 DAE96C53 		.ascii	"\332\351lS5\350v\220\016\227\275p\001\2740\334\0205"
 341      35E87690 
 341      0E97BD70 
 341      01BC30DC 
 341      1035
 342 00a5 8A5435DD 		.ascii	"\212T5\335\205\032|(\017H\\\257?a\312}\322\224\002*"
ARM GAS  C:\Users\AMANRA~1\AppData\Local\Temp\ccMaxS61.s 			page 27


 342      851A7C28 
 342      0F485CAF 
 342      3F61CA7D 
 342      D294022A 
 343 00b9 6D97E3E1 		.ascii	"m\227\343\341\037v\360\026\310\243m\307@\260\037\205"
 343      1F76F016 
 343      C8A36DC7 
 343      40B01F85 
 344 00c9 9D063DD1 		.ascii	"\235\006=\321\217n\244u\006\033^3\245\"B\344\335\003"
 344      8F6EA475 
 344      061B5E33 
 344      A52242E4 
 344      DD03
 345 00db 3F4EC1CF 		.ascii	"?N\301\317Y\236F!\3716\37797\005\371\"\004\255;\203"
 345      599E4621 
 345      F936FF39 
 345      3705F922 
 345      04AD3B83 
 346 00ef A1095F41 		.ascii	"\241\011_A\207a\324\031\321;G\244\361\234)%\316@&\007"
 346      8761D419 
 346      D13B47A4 
 346      F19C2925 
 346      CE402607 
 347 0103 D291C059 		.ascii	"\322\221\300Y\024\220\373\330\211\336\233\252,\261B"
 347      1490FBD8 
 347      89DE9BAA 
 347      2CB142
 348 0112 DBCF04BB 		.ascii	"\333\317\004\273$\207\022\345\312\247V\250\202s\233"
 348      248712E5 
 348      CAA756A8 
 348      82739B
 349 0121 4315815E 		.ascii	"C\025\201^\024\260\377\374\311\325v\237\256F\244\340"
 349      14B0FFFC 
 349      C9D5769F 
 349      AE46A4E0 
 350 0131 B4289B3E 		.ascii	"\264(\233>\350\240\363c\237\334\351H\311?b\245\320\377"
 350      E8A0F363 
 350      9FDCE948 
 350      C93F62A5 
 350      D0FF
 351 0143 4CA42EDD 		.ascii	"L\244.\335\224\352\346\024\370I@\324[\224\017^\305y"
 351      94EAE614 
 351      F84940D4 
 351      5B940F5E 
 351      C579
 352 0155 E45B2821 		.ascii	"\344[(!i%\224\014t\277\361\371\371\213\215\306\376Z"
 352      6925940C 
 352      74BFF1F9 
 352      F98B8DC6 
 352      FE5A
 353 0167 F7BFA325 		.ascii	"\367\277\243%\373_C\314P\377\033\361\354\321,`\020\371"
 353      FB5F43CC 
 353      50FF1BF1 
 353      ECD12C60 
 353      10F9
 354 0179 1860FA7E 		.ascii	"\030`\372~\246W\222\352\023\370\222\352\212B\027l@\361"
 354      A65792EA 
ARM GAS  C:\Users\AMANRA~1\AppData\Local\Temp\ccMaxS61.s 			page 28


 354      13F892EA 
 354      8A42176C 
 354      40F1
 355 018b C7C7B5A8 		.ascii	"\307\307\265\250\261\272\326D7\2233x\356\356\241\302"
 355      B1BAD644 
 355      37933378 
 355      EEEEA1C2 
 356 019b A741C268 		.ascii	"\247A\302h\012\031]\262Q\311\27042n\235\025\363\200"
 356      0A195DB2 
 356      51C9B834 
 356      326E9D15 
 356      F380
 357 01ad D5F6F21B 		.ascii	"\325\366\362\033\037X\275\014^f\222I\311b\223\315&\207"
 357      1F58BD0C 
 357      5E669249 
 357      C96293CD 
 357      2687
 358 01bf CD4E0ECC 		.ascii	"\315N\016\314e#D3iJ\255cDE\013\345C\253`T\334C]\337"
 358      65234433 
 358      694AAD63 
 358      44450BE5 
 358      43AB6054 
 359 01d7 DD879774 		.ascii	"\335\207\227t\026),Y\354P\303\320U\027\267\215-Y\377"
 359      16292C59 
 359      EC50C3D0 
 359      5517B78D 
 359      2D59FF
 360 01ea 507C448F 		.ascii	"P|D\217\340p-\025\226gJOXzp\201\313\246w\223MS\263\336"
 360      E0702D15 
 360      96674A4F 
 360      587A7081 
 360      CBA67793 
 361 0202 C051C37E 		.ascii	"\300Q\303~\245a\010\021\264\363\305\011\014# ~D\375"
 361      A5610811 
 361      B4F3C509 
 361      0C23207E 
 361      44FD
 362 0214 CCF04B4F 		.ascii	"\314\360KO@\326 \360\225#]\013\265\016\315\001\245\262"
 362      40D620F0 
 362      95235D0B 
 362      B50ECD01 
 362      A5B2
 363 0226 00EA04BA 		.ascii	"\000\352\004\2720b\340\264V<\",\275\311a\336\015\011"
 363      3062E0B4 
 363      563C222C 
 363      BDC961DE 
 363      0D09
 364 0238 C194A99C 		.ascii	"\301\224\251\234\314E\006\302\010Q\023B\335\334\331"
 364      CC4506C2 
 364      08511342 
 364      DDDCD9
 365 0247 5333E5EC 		.ascii	"S3\345\354v`\241\371\367\264\242.\273\335\017?\333\326"
 365      7660A1F9 
 365      F7B4A22E 
 365      BBDD0F3F 
 365      DBD6
 366 0259 13E5AE11 		.ascii	"\023\345\256\021\366\203K(J\246\311\240\200\013s_,{"
ARM GAS  C:\Users\AMANRA~1\AppData\Local\Temp\ccMaxS61.s 			page 29


 366      F6834B28 
 366      4AA6C9A0 
 366      800B735F 
 366      2C7B
 367 026b 6D1A9E9E 		.ascii	"m\032\236\236\351\217\315\025-\211&f\321\\\336@\363"
 367      E98FCD15 
 367      2D892666 
 367      D15CDE40 
 367      F3
 368 027c 08C6CA9C 		.ascii	"\010\306\312\234\357\233\366\366f\300\331\020\301\203"
 368      EF9BF6F6 
 368      66C0D910 
 368      C183
 369 028a A6F8C4AF 		.ascii	"\246\370\304\257\340\233\016\313L\242\262\317\234\203"
 369      E09B0ECB 
 369      4CA2B2CF 
 369      9C83
 370 0298 2C2A910E 		.ascii	",*\221\016\202\007\033\235\203l\313)\213\317\306\037"
 370      82071B9D 
 370      836CCB29 
 370      8BCFC61F 
 371 02a8 9DE5D071 		.ascii	"\235\345\320q\362x\247@\305\327\224\216\005\324-m\247"
 371      F278A740 
 371      C5D7948E 
 371      05D42D6D 
 371      A7
 372 02b9 9DE497A8 		.ascii	"\235\344\227\250'\227\334\317\377\2662\252\260\273\017"
 372      2797DCCF 
 372      FFB632AA 
 372      B0BB0F
 373 02c8 E9B4ED19 		.ascii	"\351\264\355\031<x\314k\327\263\203\353\031\265\352"
 373      3C78CC6B 
 373      D7B383EB 
 373      19B5EA
 374 02d7 1973EA89 		.ascii	"\031s\352\211\334\017\275\262\275j\361\365r\037\033"
 374      DC0FBDB2 
 374      BD6AF1F5 
 374      721F1B
 375 02e6 A6E2CDC3 		.ascii	"\246\342\315\303\204\015\023\202+\244H\334\222\247n"
 375      840D1382 
 375      2BA448DC 
 375      92A76E
 376 02f5 6EDFEA4F 		.ascii	"n\337\352O\260f\233\307sC\233P\025\271N[\250b~4\321"
 376      B0669BC7 
 376      73439B50 
 376      15B94E5B 
 376      A8627E34 
 377 030a A16B9D4E 		.ascii	"\241k\235N\207*\377\253%u\\\265Z\222g\014\327\250%I"
 377      872AFFAB 
 377      25755CB5 
 377      5A92670C 
 377      D7A82549 
 378 031e 56B3B145 		.ascii	"V\263\261E\263\261$\301Y\011\022\305d\253\225\321&\364"
 378      B3B124C1 
 378      590912C5 
 378      64AB95D1 
 378      26F4
ARM GAS  C:\Users\AMANRA~1\AppData\Local\Temp\ccMaxS61.s 			page 30


 379 0330 C89B621B 		.ascii	"\310\233b\033\374\353\353\370\343\010\020&\203\205/"
 379      FCEBEBF8 
 379      E3081026 
 379      83852F
 380 033f BFE08025 		.ascii	"\277\340\200%zW\177l\230\"94\310\234\301\204u\023\223"
 380      7A577F6C 
 380      98223934 
 380      C89CC184 
 380      751393
 381 0352 0414963E 		.ascii	"\004\024\226>V\343\326\360HlW\"\305\014G\017M,\347\333"
 381      56E3D6F0 
 381      486C5722 
 381      C50C470F 
 381      4D2CE7DB 
 382 0366 724CB61E 		.ascii	"rL\266\036j\353~b\272oo\227\3567\353\351\336\340t\275"
 382      6AEB7E62 
 382      BA6F6F97 
 382      EE37EBE9 
 382      DEE074BD 
 383 037a 16B49E90 		.ascii	"\026\264\236\220:\030j\034h\333ks\253v\037\235n\032"
 383      3A186A1C 
 383      68DB6B73 
 383      AB761F9D 
 383      6E1A
 384 038c 3BE9E112 		.ascii	";\351\341\022\322\000\334\334R\255\322\255\351\3230"
 384      D200DCDC 
 384      52ADD2AD 
 384      E9D330
 385 039b 65D12B4C 		.ascii	"e\321+L\177\213\351U\006\373\253\351\227\266l\233R\333"
 385      7F8BE955 
 385      06FBABE9 
 385      97B66C9B 
 385      52DB
 386 03ad 8CB884AD 		.ascii	"\214\270\204\255!\3231mAJ\373#\374y\374\336\254^\363"
 386      21D3316D 
 386      414AFB23 
 386      FC79FCDE 
 386      AC5EF3
 387 03c0 B7E1C8EB 		.ascii	"\267\341\310\353\306\014\335\271\300\267\250\021\213"
 387      C60CDDB9 
 387      C0B7A811 
 387      8B
 388 03cd 68C86312 		.ascii	"h\310c\022v\353\355]\234q\221\0335\353S!\216\305w\344"
 388      76EBED5D 
 388      9C71911B 
 388      35EB5321 
 388      8EC577E4 
 389 03e1 61D31F5F 		.ascii	"a\323\037_\354}\350\343r3\350#5\013\277)3-\215\\\316"
 389      EC7DE8E3 
 389      7233E823 
 389      350BBF29 
 389      332D8D5C 
 390 03f6 0773899A 		.ascii	"\007s\211\232?L\212\011\361\207%\300\202\3313\222\306"
 390      3F4C8A09 
 390      F18725C0 
 390      82D93392 
 390      C6
ARM GAS  C:\Users\AMANRA~1\AppData\Local\Temp\ccMaxS61.s 			page 31


 391 0407 FE0A3EC0 		.ascii	"\376\012>\300\367\360+\323\253\2677|\354\024\302\231"
 391      F7F02BD3 
 391      ABB7377C 
 391      EC14C299 
 392 0417 835F6FFD 		.ascii	"\203_o\375\214{w\255{\251O\267\217kp\033~\031\356\034"
 392      8C7B77AD 
 392      7BA94FB7 
 392      8F6B701B 
 392      7E19EE1C 
 393 042b 077D99C1 		.ascii	"\007}\231\301\360$LQqq\200~e\345\025\245\025U\325%/"
 393      F0244C51 
 393      7171807E 
 393      65E515A5 
 393      1555D525 
 394 0440 97EC0A54 		.ascii	"\227\354\012TU\323oOEi\240\372\2752zQYZ\365\376\356"
 394      55D36F4F 
 394      4569A0FA 
 394      BD327A51 
 394      595AF5FE 
 395 0455 EAE23221 		.ascii	"\352\3422!+K\337\225\225\325o\025o\021R\361N\331\236"
 395      2B4BDF95 
 395      95D56F15 
 395      6F1152F1 
 395      4ED99E
 396 0468 BD6FEC5E 		.ascii	"\275o\354^\017+\027\377\000\376\033\233\303"
 396      0F2B17FF 
 396      00FE1B9B 
 396      C3
 397              		.text
 398              		.section	.gnu.lto_chMBPostAheadTimeoutS.c3c0333a,"",%progbits
 399 0000 789C9555 		.ascii	"x\234\225U\353O\024W\024\277g\356\354\314\356,/AZ> "
 399      EB4F1457 
 399      14BF67EE 
 399      ECCCEE2C 
 399      2F415A3E 
 400 0015 A2488C34 		.ascii	"\242H\2144B\375\320\017\375\320&\375\326\277\0034\225"
 400      42FDD00F 
 400      FDD026FD 
 400      D6BF0334 
 400      95
 401 0026 464A03DA 		.ascii	"FJ\003\332\324&\255#\013,\212\351\303\300\226lF\273"
 401      D426AD23 
 401      0B2C8AE9 
 401      C3C0966C 
 401      46BB
 402 0038 B6C1478C 		.ascii	"\266\301G\214\257\012Z|\340\002\226\212\202(\322\212"
 402      AF0A5A7C 
 402      E002968A 
 402      8228D28A 
 403 0048 40294559 		.ascii	"@)EY\005i}\324Z%<z\316\275\003\354.T\352f\367\314\275"
 403      05697DD4 
 403      5A253C7A 
 403      CEBD03EC 
 403      2E54EA66 
 404 005f 77CE39BF 		.ascii	"w\3169\277\363;\217\273\032c\354\271\213\261\"|\356"
 404      F33B8FBB 
 404      1A63ECB9 
ARM GAS  C:\Users\AMANRA~1\AppData\Local\Temp\ccMaxS61.s 			page 32


 404      8BB1227C 
 404      EE
 405 0070 C41FB819 		.ascii	"\304\037\270\031(_^el\273S\001.\027\\q=\341\3144T\353"
 405      285F5E65 
 405      6CBB5301 
 405      2E175C71 
 405      3DE1CC34 
 406 0086 3263668C 		.ascii	"2cf\214\2528\304\326)\267\016E\253\311\302\255\376,"
 406      AA38C4D6 
 406      29B70E45 
 406      ABC9C2AD 
 406      FE2C
 407 0098 03771AE8 		.ascii	"\003w\032\350\322H\007\227\\8\025C(\032\302I\214!\275"
 407      D2480797 
 407      5C381543 
 407      281AC249 
 407      8C21BD
 408 00ab BEE302A0 		.ascii	"\276\343\002\240\247\351\004\266M\341\252C\323\235\206"
 408      A7E904B6 
 408      4DE1AA43 
 408      D39D86
 409 00ba 0B70C9EC 		.ascii	"\013p\311\354\317.^\305\341z\351q\213Wr\2133Pq\373\250"
 409      CF2E5EC5 
 409      E17AE971 
 409      8B57728B 
 409      335071FB 
 410 00cf C37F3B8E 		.ascii	"\303\177;\216\266\000\351\270\255=\3579\007k\016\230"
 410      B600E9B8 
 410      AD3DEF39 
 410      076B0E98 
 411 00df F8097E3D 		.ascii	"\370\011~=\225t\300S\366\256\305\025\346C\355:H\205"
 411      9574C053 
 411      F6AEC515 
 411      E643ED3A 
 411      4885
 412 00f1 93904A8C 		.ascii	"\223\220J\214\352a\015\352V<\033\354\001\276\026\030"
 412      EA610DEA 
 412      563C1BEC 
 412      01BE1618 
 413 0101 AE0F787C 		.ascii	"\256\017x|7bW\327\232f\211\031\274X\313\315U\026\347"
 413      376257D7 
 413      9A668919 
 413      BC58CBCD 
 413      5516E7
 414 0114 700A78B8 		.ascii	"p\012x\270!\03618\015\253Q\275\375x\303M\225\257\023"
 414      211E3138 
 414      0DAB51BD 
 414      FD78C34D 
 414      95AF13
 415 0127 A6D5A73C 		.ascii	"\246\325\247<\0079\231\"d\377~a\252\300\017\321\246"
 415      07399922 
 415      64FF7E61 
 415      AAC00FD1 
 415      A6
 416 0138 0A830661 		.ascii	"\012\203\006a\332\377y\325p\034\177C\230>\034\371g<"
 416      DAFF79D5 
 416      701C7F43 
ARM GAS  C:\Users\AMANRA~1\AppData\Local\Temp\ccMaxS61.s 			page 33


 416      983E1CF9 
 416      673C
 417 014a CE467D92 		.ascii	"\316F}\222\3427\203\252\305U8\023m\25328\013\253\311"
 417      E23783AA 
 417      C5553813 
 417      6DAB3238 
 417      0BABC9
 418 015d C0FB6CE8 		.ascii	"\300\373l\350x<\177K\030\017\334\336?\244d~'p[{\022"
 418      783C7F4B 
 418      180FDCDE 
 418      3FA4647E 
 418      27705B7B 
 419 0172 F779CC4B 		.ascii	"\367y\314K\246J\330\347\"\355\351\203\352C'\246\252"
 419      A64AD8E7 
 419      22EDE983 
 419      EA4327A6 
 419      AA
 420 0183 633515CE 		.ascii	"c5\025\316Cf\0003\352\243\254B#h\200\357\216\356\273"
 420      43660033 
 420      EAA3AC42 
 420      236880EF 
 420      8EEEBB
 421 0196 53EB2257 		.ascii	"S\353\"W\030\307Tg\034\006R\232nqGt\002\"<\225\012\340"
 421      18C75467 
 421      1C06529A 
 421      6E714774 
 421      02223C95 
 422 01ac D0AD4480 		.ascii	"\320\255D\200\013\220)\\\371\270\010,\334\333\335\232"
 422      0B90295C 
 422      F9B8082C 
 422      DCDBDD9A 
 423 01bc F443FDF7 		.ascii	"\364C\375\367Ls\267\011\377\3550\334\340\032\010\026"
 423      4C73B709 
 423      FFED30DC 
 423      E01A0816 
 424 01cc FF077BE0 		.ascii	"\377\007{\340\310R\200f\310\204&\302\017\022\276\022"
 424      C8528066 
 424      C88426C2 
 424      0F12BE12 
 425 01dc C694410B 		.ascii	"\306\224A\013\262\273\010\032#\001\310\226\270\037\353"
 425      B2BB081A 
 425      2301C896 
 425      B81FEB
 426 01eb 7204CDA9 		.ascii	"r\004\315\251i/\266GZgc\371\344i\307*\300\024k\012\012"
 426      692FB647 
 426      5A6763F9 
 426      E469C72A 
 426      C0146B0A 
 427 0200 9D935049 		.ascii	"\235\223PI8Hh(\234:\255\234$\\\2645P\270\334$b\250\252"
 427      38486828 
 427      9C3AAD9C 
 427      245CB435 
 427      50B8DC24 
 428 0217 4B803A22 		.ascii	"K\200:\"\221^'\001U)\231\021J\012P\265\227\321q\032"
 428      915E2701 
 428      55299911 
 428      4A0A50B5 
ARM GAS  C:\Users\AMANRA~1\AppData\Local\Temp\ccMaxS61.s 			page 34


 428      97D1711A 
 429 022b 0A633989 		.ascii	"\012c9\211t\022+H\254$O\031$\030\253\300B\354v\233A"
 429      74122B48 
 429      AC244F19 
 429      2418ABC0 
 429      42EC769B 
 430 0240 5C28B8F0 		.ascii	"\\(\270\360\004\331\016\3543\034\004\\\215B\311\231"
 430      04D90EEC 
 430      331C045C 
 430      8D42C999 
 431 0250 912F2A75 		.ascii	"\221/*uJ\256\237S\245|e\315\235:\265\273L\365\271\346"
 431      4AAE9F53 
 431      A57C65CD 
 431      9D3AB5BB 
 431      4CF5B9E6 
 432 0264 8E562D00 		.ascii	"\216V-\000{\267c>\260bn?_\002?R\266\360]\267\267g\300"
 432      7BB7633E 
 432      B0626E3F 
 432      5F023F52 
 432      B6F05DB7 
 433 027b 9D73C494 		.ascii	"\235s\304\224\2574h\205\000T\213Y\202\237 \207\015C"
 433      AF346885 
 433      00548B59 
 433      829F2087 
 433      0D43
 434 028d 695FCB45 		.ascii	"i_\313EX\3005\346\012.\331)\337\201\315\207\263\212"
 434      58C035E6 
 434      0A2ED929 
 434      DF81CD87 
 434      B38A
 435 029f B184005B 		.ascii	"\261\204\000[\030+\215\020\024\327\204\301\374<1\334"
 435      182B8D10 
 435      14D784C1 
 435      FC3C31DC 
 436 02af 2C262222 		.ascii	",&\"\",w,E\323F\216\3402b\243\207\222\301\223\273NU"
 436      2C772C45 
 436      D3468EE0 
 436      3262A387 
 436      92C193BB 
 437 02c5 C6925E55 		.ascii	"\306\222^U\250\342\357\370\254\203rP\367\256\374\252"
 437      A8E2EFF8 
 437      AC837250 
 437      F7AEFCAA 
 438 02d5 2E988055 		.ascii	".\230\200U\267\007\035\256@V8\31624h\032\374\376\221"
 438      B7071DAE 
 438      405638CE 
 438      3234681A 
 438      FCFE91
 439 02e8 5BE2D0DC 		.ascii	"[\342\320\334\367~cM8\302p\332\005NG$\316\214\037\021"
 439      F77E634D 
 439      38C270DA 
 439      054E4724 
 439      CE8C1F11 
 440 02fc 3B750AEE 		.ascii	";u\012\356\345\246\311\336 \302co\307\215\207@=\342"
 440      E5A6C9DE 
 440      20C2636F 
 440      C78D8740 
ARM GAS  C:\Users\AMANRA~1\AppData\Local\Temp\ccMaxS61.s 			page 35


 440      3DE2
 441 030e E7698825 		.ascii	"\347i\210%\317\354\203\345H\022\017<5\345\366A\272P"
 441      CFEC83E5 
 441      48120F3C 
 441      35E5F641 
 441      BA50
 442 0320 5A4E675D 		.ascii	"ZNg]3g+\3608\374f2@\205\253\030\217pt\210K\245\225\250"
 442      33672BF0 
 442      38FC6632 
 442      4085AB18 
 442      8F707488 
 443 0338 374B2803 		.ascii	"7K(\003\325\317\3765qE!\3658H\300m]c\315Q\267$\024O"
 443      D5CFFE35 
 443      714521F5 
 443      3848C06D 
 443      5D63CD51 
 444 0350 843A05A1 		.ascii	"\204:\005\241k6\241\300\003\337\333\213\247\355\372"
 444      6B36A1C0 
 444      03DFDB8B 
 444      A7EDFA
 445 035f 1CDDF973 		.ascii	"\034\335\371sx8z\016!b\270\240\013Sr]\344\247d\260\322"
 445      78387A0E 
 445      2162B8A0 
 445      0B53725D 
 445      E4A764B0 
 446 0374 3AAC89CB 		.ascii	":\254\211\313\201F;\262U\220G\206\335\032\016\326\307"
 446      81463BB2 
 446      55904786 
 446      DD1A0ED6 
 446      C7
 447 0385 67BA744F 		.ascii	"g\272tO\245!\337+/\325\226:\334\020m\011\024A7\266%"
 447      A521DF2B 
 447      2FD5963A 
 447      DC106D09 
 447      144137B6 
 448 039a E6D52A6F 		.ascii	"\346\325*o\340\322\027\227\356\032\237\226}$o\374\211"
 448      E0D21797 
 448      EE1A9F96 
 448      7D246FFC 
 448      89
 449 03ab E9E9E978 		.ascii	"\351\351\351x\370Y\346\266{\347!\241\027\005\030\370"
 449      F859E6B6 
 449      7BE721A1 
 449      170518F8 
 450 03bb 9606FA85 		.ascii	"\226\006\372\205\230\277\314a\336\204\034\304!\212W"
 450      98BFCC61 
 450      DE841CC4 
 450      218A57
 451 03ca 5BBA6116 		.ascii	"[\272a\026V%\206OA\305\362\253\370t`_\320\023_f\250"
 451      5625864F 
 451      41C5F2AB 
 451      F874605F 
 451      D0135F66 
 452 03df 445D63A6 		.ascii	"D]c\246\"\250c\264\177\234\234\264\015u?\346v6\2726"
 452      22A863B4 
 452      7F9C9CB4 
 452      0D753FE6 
ARM GAS  C:\Users\AMANRA~1\AppData\Local\Temp\ccMaxS61.s 			page 36


 452      7636BA36 
 453 03f3 C742D115 		.ascii	"\307B\321\025-\026\\\317\\p\267(8]\344Z\017\313\365"
 453      2D165CCF 
 453      5C70B728 
 453      385DE45A 
 453      0FCBF5
 454 0406 C1FB9AC4 		.ascii	"\301\373\232\304s\276d\256{\347\\\367\211\\\227\370"
 454      73BE64AE 
 454      7BE75CF7 
 454      895C97F8 
 455 0416 DB5EB383 		.ascii	"\333^\263\203\234\235c}\336\315\022H\303\233\016\321"
 455      9C9D637D 
 455      DECD1248 
 455      C39B0ED1 
 456 0426 A05FF4E4 		.ascii	"\240_\364\344\257\350\305\317S\210\274\257|O\375\247"
 456      AFE8C5CF 
 456      5388BCAF 
 456      7C4FFDA7 
 457 0436 3216979F 		.ascii	"2\026\227\237\223\233zo\373\011\203\334$\000\300\300"
 457      939B7A6F 
 457      FB0983DC 
 457      2400C0C0 
 458 0446 4C2A60A1 		.ascii	"L*`\241L\274\377\342L$\300o\"\\\205\302\035\244L\270"
 458      4CBCFFE2 
 458      4C24C06F 
 458      225C85C2 
 458      1DA44CB8 
 459 045a C8D9B8B7 		.ascii	"\310\331\270\267\243~\231\2044\242=>]\244\362K\340w"
 459      A37E9984 
 459      34A23D3E 
 459      5DA4F24B 
 459      E077
 460 046c E192CB3F 		.ascii	"\341\222\313?\223\303\035\243\003\332\266I\323\246\350"
 460      93C31DA3 
 460      03DAB649 
 460      D3A6E8
 461 047b 82214C0A 		.ascii	"\202!L\012\203\333\260\215\215AY:\201\220ZC\303X\237"
 461      83DBB08D 
 461      8D41593A 
 461      81905A43 
 461      C3589F
 462 048e 8E6A4E8B 		.ascii	"\216jN\213'\372\310\026\356\240\206\204?6\326\360<\226"
 462      27FAC816 
 462      EEA08684 
 462      3F36D6F0 
 462      3C96
 463 04a0 E826E1A5 		.ascii	"\350&\341\2459\014\251\026_\212\266\236@\375\332\005"
 463      390CA916 
 463      5F8AB69E 
 463      40FDDA05 
 464 04b0 AC937DD4 		.ascii	"\254\223}\324W\020Bk\213\277\"\312\352dM\255\366M?\356"
 464      5710426B 
 464      8BBF22CA 
 464      EA644DAD 
 464      F64D3FEE 
 465 04c4 3D7F7AAB 		.ascii	"=\177z\253$\346\216&\326\250,F\354\256 \246\316'\366"
 465      24E68E26 
ARM GAS  C:\Users\AMANRA~1\AppData\Local\Temp\ccMaxS61.s 			page 37


 465      D6A82C46 
 465      ECAE20A6 
 465      CE27F6
 466 04d7 0911BB27 		.ascii	"\011\021\273'\210\215Hb\201\"\211\222\034\031\335\253"
 466      888D4862 
 466      81228992 
 466      1C19DDAB 
 467 04e7 3EBA4860 		.ascii	">\272H`TpC\254$\013k\214\227\201\310\003\375\251\241"
 467      547043AC 
 467      240B6B8C 
 467      9781C803 
 467      FDA9A1
 468 04fa 05CD496F 		.ascii	"\005\315IoK\250O\233\3630\3337\012f\340\276}\231Tp\203"
 468      4BA84F9B 
 468      F330DB37 
 468      0A66E0BE 
 468      7D995470 
 469 050f 4D3533D8 		.ascii	"M53\330\2015\023\377i\177\342\225\344\3471b\250b\320"
 469      813513FF 
 469      697FE295 
 469      E4E73162 
 469      A862D0
 470 0522 2A64D5B5 		.ascii	"*d\325\265\306K\253\317`\014R\271?\364\030\310\\\037"
 470      C64BABCF 
 470      600C52B9 
 470      3FF418C8 
 470      5C1F
 471 0534 BD8FAD96 		.ascii	"\275\217\255\226\354\354}\320\005\350\006\320\034\033"
 471      ECEC7DD0 
 471      05E806D0 
 471      1C1B
 472 0542 202B3B3B 		.ascii	" +;;\007\277y\033\363s\363\013\213\327\275\271\356\365"
 472      07BF791B 
 472      F373F30B 
 472      8BD7BDB9 
 472      EEF5
 473 0554 9CC262FC 		.ascii	"\234\302b\374n\312\317\315).\312\303\027\005\271\205"
 473      6ECACFCD 
 473      292ECAC3 
 473      1705B985 
 474 0564 1F6F28CE 		.ascii	"\037o(\316\316c\274 \367C^P\374\236\2769\277`C\341\226"
 474      CE63BC20 
 474      F7435E50 
 474      FC9EBE39 
 474      BF6043E1 
 475 0579 CD5AD1FA 		.ascii	"\315Z\321\372\255\270\315~\201\207\374\017\3626mY\277"
 475      ADB8CD7E 
 475      8187FC0F 
 475      F2366D59 
 475      BF
 476 058a 61CECB46 		.ascii	"a\316\313F\366/t[Z\304"
 476      F62F745B 
 476      5AC4
 477              		.text
 478              		.section	.gnu.lto_chMBPostAheadTimeout.c3c0333a,"",%progbits
 479 0000 789C7D93 		.ascii	"x\234}\223[H\024a\024\307\317\231o\366b\226E\366\020"
 479      5B481461 
ARM GAS  C:\Users\AMANRA~1\AppData\Local\Temp\ccMaxS61.s 			page 38


 479      14C7CF99 
 479      6FF66296 
 479      45F610
 480 0013 E4C30A89 		.ascii	"\344\303\012\211\026\346\344CE\017=\204/\365 D\276\006"
 480      16E6E443 
 480      450F3D84 
 480      2FF52044 
 480      BE06
 481 0025 D26E8B6D 		.ascii	"\322n\213m4\216\314\254\241O\216\256\245a7\3106\331"
 481      348ECCAC 
 481      A14F8EAE 
 481      A56137C8 
 481      36D9
 482 0037 16EDA6D6 		.ascii	"\026\355\246\326Ce\027-\313\313\246e\226\233\225\031"
 482      4365172D 
 482      CBCBA665 
 482      969B9519 
 483 0047 5D0C33C5 		.ascii	"]\0143\305 \022\263zH\242\254\363}^\320M\034\206\345"
 483      2012B37A 
 483      48A2ACF3 
 483      7D5ED04D 
 483      1C86E5
 484 005a FBE63BBF 		.ascii	"\373\346;\277\357\374\317\377\234\265\002\300>\031 "
 484      EFFCCFFF 
 484      9CB502C0 
 484      3E1920
 485 0069 1A0156D1 		.ascii	"\032\001V\321\032\031\240t\242\033\240\320.!\362\205"
 485      1A19A074 
 485      A21BA0D0 
 485      2E21F285 
 486 0079 69472890 		.ascii	"iG(\220\260\000\217\260r\206/\212\353\202\254\214\005"
 486      B0008FB0 
 486      72862F8A 
 486      EB82AC8C 
 486      05
 487 008a 294CA6ED 		.ascii	")L\246\355\267\247\201\241\030\276Et\320\266\272\331"
 487      B7A781A1 
 487      18BE4574 
 487      D0B6BAD9 
 488 009a D7846B6A 		.ascii	"\327\204kjMzB\247\313ck}\007\267\005\231\004~\212\276"
 488      4D7A42A7 
 488      CB636B7D 
 488      07B70599 
 488      047E8ABE 
 489 00ae 85717813 		.ascii	"\205qx\023\343x\212z\\C\261\245\343\003o\220\255C\240"
 489      E3788A7A 
 489      5C43B1A5 
 489      E3036F90 
 489      AD43A0
 490 00c1 75ADCFFF 		.ascii	"u\255\317\377rIb\265i\026\231\241\337\027\231\271:\310"
 490      724962B5 
 490      691699A1 
 490      DF1799B9 
 490      3AC8
 491 00d3 1836209B 		.ascii	"\0306 \233\015\322'\300\333\230H\341\341\272\306\327"
 491      0DD227C0 
 491      DB9848E1 
ARM GAS  C:\Users\AMANRA~1\AppData\Local\Temp\ccMaxS61.s 			page 39


 491      E1BAC6D7 
 492 00e3 324B15E8 		.ascii	"2K\025\350\251\006\337%\306QJ\331[#P\011\357D\242\022"
 492      A906DF25 
 492      C6514AD9 
 492      5B235009 
 492      EF44A212 
 493 00f7 60A340DF 		.ascii	"`\243@\337\037+\037\216a\033\004:\366\371\347\257\230"
 493      1F2B1F8E 
 493      611B043A 
 493      F6F9E7AF 
 493      98
 494 0108 A9AC232B 		.ascii	"\251\254#+\003fH\0162\031\357F\2622\340=L\344@\311\370"
 494      0366480E 
 494      3219EF46 
 494      B232E03D 
 494      4CE440C9 
 495 011d 60DD52B6 		.ascii	"`\335R\266E\300\375C5\203R\302\005\221\267?\274\374"
 495      45C0FD43 
 495      358352C2 
 495      0591B73F 
 495      BCFC
 496 012f 9CCFEC34 		.ascii	"\234\317\3544e\236\273i.\317\037\012\037\274>qj\211"
 496      659EBB69 
 496      2ECF1F0A 
 496      1FBC3E71 
 496      6A89
 497 0141 55C6664C 		.ascii	"U\306fL\340v\220\013-h\305\231\203bq\317D\330*\276\373"
 497      E076900B 
 497      2D68C599 
 497      836271CF 
 497      44D82ABE 
 498 0156 19CE6200 		.ascii	"\031\316b\000[)4\204V\210\010\037\252H\312\004~\340"
 498      5B293484 
 498      5688081F 
 498      AA48CA04 
 498      7EE0
 499 0168 A7FAB8FB 		.ascii	"\247\372\270\373OzZ\243\231*\330\313W\317U,\346\362"
 499      4F7A5AA3 
 499      992AD8CB 
 499      57CF552C 
 499      E6F2
 500 017a A8B6AF95 		.ascii	"\250\266\257\225I\225\276\262\243\346\331\242eAf\301"
 500      4995BEB2 
 500      A3E6D9A2 
 500      654166C1 
 501 018a B605044E 		.ascii	"\266\005\004N^<ZI\366\267\223R\274\317/gs\304< 1\017"
 501      5E3C5A49 
 501      F6B79352 
 501      BCCF2F67 
 501      73C43C20 
 502 01a0 490CFFA1 		.ascii	"I\014\377\241\241A^\322\265\036K\310\234\370[B]_\021"
 502      A1415ED2 
 502      B51E4BC8 
 502      9CF85B42 
 502      5D5F11
 503 01b3 6E3A74E5 		.ascii	"n:t\345\214%\212\246\207\232EsA\276\313\310\035$\204"
 503      8C258AA6 
ARM GAS  C:\Users\AMANRA~1\AppData\Local\Temp\ccMaxS61.s 			page 40


 503      879A4573 
 503      41BECBC8 
 503      1D2484
 504 01c6 570FA554 		.ascii	"W\017\245T>\015\226\031\202\303\244\233V\276\020|Bi"
 504      3E0D9619 
 504      82C3A49B 
 504      56BE107C 
 504      4269
 505 01d8 1ED56716 		.ascii	"\036\325g\026V\215\035\230\300\273\362\331l\226\371"
 505      568D1D98 
 505      C0BBF2D9 
 505      6C96F9
 506 01e7 0C5AD081 		.ascii	"\014Z\320\201\217\350\354\013\026\015\376\360\337\375"
 506      8FE8EC0B 
 506      160DFEF0 
 506      DFFD
 507 01f5 1069EFC9 		.ascii	"\020i\357\311@\354\224\275\362\377V&\357\002\354\344"
 507      40EC94BD 
 507      F2FF5626 
 507      EF02ECE4 
 508 0205 6796C8B3 		.ascii	"g\226\310\263/\225I4\337\035\334\216\307\377\333\361"
 508      2F954934 
 508      DF1DDC8E 
 508      C7FFDBF1 
 509 0215 845CE8E2 		.ascii	"\204\\\350\342vtq;\020\306x\326\363U7\306\027\305\027"
 509      7674713B 
 509      10C678D6 
 509      F35537C6 
 509      17C517
 510 0228 4A556685 		.ascii	"JUf\205#\310D\343\256\014\3353\355\262D\252\303\030"
 510      23C844E3 
 510      AE0CDD33 
 510      EDB244AA 
 510      C318
 511 023a 2F1C1F1B 		.ascii	"/\034\037\033\351\355\223\350\013>EY\350\006\354\026"
 511      E9ED93E8 
 511      0B3E4559 
 511      E806EC16 
 512 024a 7FAA4B2D 		.ascii	"\177\252K-\355\303\213\343\213\247h\033\217\375~\365"
 512      EDC38BE3 
 512      8BA7681B 
 512      8FFD7EF5 
 513 025a C6AB6841 		.ascii	"\306\253hA?\3434>G\231<+r\010\017\000F\360\320@Y\367"
 513      3FE3343E 
 513      47993C2B 
 513      72080F00 
 513      46F0D040 
 514 0270 632BAF2E 		.ascii	"c+\257.\300\254\00446\216\364\331\012\376\230\366 \263"
 514      C0AC0434 
 514      368EF4D9 
 514      0AFE98F6 
 514      20B3
 515 0282 FB4901E0 		.ascii	"\373I\001\340\013,\200\000\223\002\214\005\030\015j"
 515      0B2C8000 
 515      93028C05 
 515      180D6A
 516 0291 94E0C514 		.ascii	"\224\340\305\024RW\010\022=\340]'\332\177\260\355\231"
ARM GAS  C:\Users\AMANRA~1\AppData\Local\Temp\ccMaxS61.s 			page 41


 516      52570812 
 516      3DE05D27 
 516      DA7FB0ED 
 516      99
 517 02a2 6DD252C0 		.ascii	"m\322R\300\236\331\226Nv}\252\314\211\252\217-\321\323"
 517      9ED9964E 
 517      767DAACC 
 517      89AA8F2D 
 517      D1D3
 518 02b4 15F4880A 		.ascii	"\025\364\210\012^\212\012\"\345\366N\312\035\250?\376"
 518      5E8A0A22 
 518      E5F64ECA 
 518      1DA83FFE 
 519 02c4 2E4BE400 		.ascii	".K\344\000\030\245m\331\333\031\311\274\237\2454\366"
 519      18A56DD9 
 519      DB19C9BC 
 519      9FA534F6 
 520 02d4 340E84AD 		.ascii	"4\016\204\255MIQ\350u\355\3658=\232\221\2729u\275\242"
 520      4D4951E8 
 520      75EDF538 
 520      3D9A91BA 
 520      3975BDA2 
 521 02e8 19F4EEF7 		.ascii	"\031\364\356\3678\025Cw\321\201\352\324\362\334F\212"
 521      38154377 
 521      D181EAD4 
 521      F2DC468A 
 522 02f8 0B98EACC 		.ascii	"\013\230\352\314a\252\221e\363zT\267\226\353\265\352"
 522      61AA9165 
 522      F37A54B7 
 522      96EBB5EA 
 523 0308 7BF2699B 		.ascii	"{\362i\2334\357\015\272W\361d\273\366\347\356q\323\211"
 523      34EF0DBA 
 523      57F164BB 
 523      F6E7EE71 
 523      D389
 524 031a 916FA4EC 		.ascii	"\221o\244\354\005\233s\267\341\336\241{6\316\013\270"
 524      059B73B7 
 524      E1DEA17B 
 524      36CE0BB8 
 525 032a 3455D5B2 		.ascii	"4U\325\262\225\034M\367\032\312\326\235\351i\351y\024"
 525      951C4DF7 
 525      1ACAD69D 
 525      E969E979 
 525      14
 526 033b E2D27477 		.ascii	"\342\322tw\346\201M*\341i\013a\356</\207\224\264\364"
 526      E6814D2A 
 526      E1690B61 
 526      EE3C2F87 
 526      94B4F4
 527 034e 8CED194A 		.ascii	"\214\355\031J\032Q\312\366\351\364\252\34112\263\\."
 527      1A51CAF6 
 527      E9F4AAE1 
 527      3132B35C 
 527      2E
 528 035f BA63597A 		.ascii	"\272cYz\306N\007\227\221\243{\222\035\011\353A\322\301"
 528      C64E0797 
 528      91A37B92 
ARM GAS  C:\Users\AMANRA~1\AppData\Local\Temp\ccMaxS61.s 			page 42


 528      1D09EB41 
 528      D2C1
 529 0371 A6BA554D 		.ascii	"\246\272UM\317\207\177\3145\273\006"
 529      CF877FCC 
 529      35BB06
 530              		.text
 531              		.section	.gnu.lto_chMBPostAheadI.c3c0333a,"",%progbits
 532 0000 789C9556 		.ascii	"x\234\225VmO\034U\024\276\317\334\331\231\345e\313\252"
 532      6D4F1C55 
 532      14BECFDC 
 532      D999E565 
 532      CBAA
 533 0012 BCB4B81F 		.ascii	"\274\264\270\037\210\021\011$e%\361\213_\374\252\277"
 533      88110924 
 533      6525F18B 
 533      5FFCAABF 
 534 0022 4213B011 		.ascii	"B\023\260\021L\021#\2511~\220a\227W\253IM\312Z7\233"
 534      4C1123A9 
 534      317E9061 
 534      9757AB49 
 534      4DCA5A37 
 535 0037 BAA62260 		.ascii	"\272\246\"`\3237K[\241@\267\320\"\025\226\362\246E\260"
 535      D3374B5B 
 535      A140B7D0 
 535      221596F2 
 535      A645B0
 536 004a 881489AD 		.ascii	"\210\024\211\255\204\212\246\215\266\330\365\234\231"
 536      848AA68D 
 536      B6D8F59C 
 536      99
 537 0057 815D2882 		.ascii	"\201](\202\235,\207\271w\3169\317s\236{\316\354jB\210"
 537      9D2C87B9 
 537      77CE39CF 
 537      739E7BCE 
 537      EC6A4288 
 538 006b 179D4294 		.ascii	"\027\235B\224\320\377\227\351\017N\001\345\300\260\020"
 538      D0FF97E9 
 538      0F4E01E5 
 538      C0B010
 539 007a D54E45D1 		.ascii	"\325NE\321\007 \214d90$\204\221*\025\2655J7\311\372"
 539      07208C64 
 539      39302484 
 539      912A15B5 
 539      354A37C9 
 540 008f AFBC5415 		.ascii	"\257\274T\025GC\036\2554\266\251\016hV\220\006\335\272"
 540      47431EAD 
 540      34B6A90E 
 540      68569006 
 540      DDBA
 541 00a1 D101BE31 		.ascii	"\321\001\2761\234\020U\212T\035\232\216*| \017J\214"
 541      9C10558A 
 541      541D9A8E 
 541      2A7C200F 
 541      4A8C
 542 00b3 D69C0CC9 		.ascii	"\326\234\014\311\3752$\005TZ.G\2037v\360\022\310\241"
 542      FD322405 
 542      545A2E47 
ARM GAS  C:\Users\AMANRA~1\AppData\Local\Temp\ccMaxS61.s 			page 43


 542      833776F0 
 542      12C8A1
 543 00c6 6573B7BF 		.ascii	"es\267\277\013\371-\006]\221\217G\262Z\374\265/\205"
 543      0BF92D06 
 543      5D918F47 
 543      B25AFCB5 
 543      2F85
 544 00d8 A42202E4 		.ascii	"\244\"\002\344\335\016\017N\303\303,\317 \237|\033\376"
 544      DD0E0F4E 
 544      C3C32CCF 
 544      209F7C1B 
 544      FE
 545 00e9 9A9D84DC 		.ascii	"\232\235\204\334\015A\367-\376\300\270+\257\3310|Fd"
 545      0D41F72D 
 545      FEC0B82B 
 545      AFD9307C 
 545      4664
 546 00fb E873693C 		.ascii	"\350si<\035\222\022g!\023\003iK\340\034\362\310}\350"
 546      1D921267 
 546      21130369 
 546      4BE01CF2 
 546      C87DE8
 547 010e 64C73555 		.ascii	"d\3075U\026\231\241Mg\375\255\222C\011r\276\331\014"
 547      1699A14D 
 547      67FDAD92 
 547      430972BE 
 547      D90C
 548 0120 55F0F5C6 		.ascii	"U\360\365\306PE\240\003y\354?w\352A\223KS\303R0-b\323"
 548      5045A003 
 548      79EC3F77 
 548      EA41934B 
 548      53C35230 
 549 0137 090DB47F 		.ascii	"\011\015\264\177\374\263\371\346\244\334#&\205\256\354"
 549      FCB3F9E6 
 549      A4DC2326 
 549      85AEEC
 550 0146 B0CF1D92 		.ascii	"\260\317\035\222\352F\012|\255\245\2501!\247^\301y\344"
 550      EA460A7C 
 550      ADA5A831 
 550      21A75EC1 
 550      79E4
 551 0158 9A5902D2 		.ascii	"\232Y\002\322$\224\230\350v\3353s\227\353\214\003\325"
 551      249498E8 
 551      76DD3373 
 551      97EB8C03 
 551      D5
 552 0169 CEFFCE96 		.ascii	"\316\377\316\226\350?\202\001C\375\177\3003\307\322"
 552      E83F8201 
 552      43FD7FC0 
 552      33C7D2
 553 0178 811EE4A2 		.ascii	"\201\036\344\242\233\341\273\030^I\250O\340\002\325"
 553      9BE1BB18 
 553      5E49A84F 
 553      E002D5
 554 0187 158126D8 		.ascii	"\025\201&\330\200\342O\2149\"\306\203X=\235\214{f\354"
 554      80E24F8C 
 554      3922C683 
ARM GAS  C:\Users\AMANRA~1\AppData\Local\Temp\ccMaxS61.s 			page 44


 554      583D9D8C 
 554      7B66EC
 555 019a 6670F793 		.ascii	"fp\367\223 a\034\012\031M\262Q\3318\330hdt\235\214\323"
 555      20611C0A 
 555      194DB251 
 555      D938D868 
 555      64749D8C 
 556 01af C9DAA582 		.ascii	"\311\332\245\202uw\361\0237X\307t\276\315 \223\224\311"
 556      7577F113 
 556      3758C774 
 556      BECD2093 
 556      94C9
 557 01c1 268BCD4E 		.ascii	"&\213\315N6\27380\233\215\020\015\244.5\221\021\021"
 557      36BB3830 
 557      9B8D100D 
 557      A42E3591 
 557      1111
 558 01d3 8DC48CEE 		.ascii	"\215\304\214\356\374\021q\013\276\316\233K\203\032\313"
 558      FC11710B 
 558      BECE9B4B 
 558      831ACB
 559 01e2 15942C7B 		.ascii	"\025\224,{\240\266\367\252\316\015d\211\327\325\033"
 559      A0B6F7AA 
 559      CE0D6489 
 559      D7D51B
 560 01f1 EDD7C238 		.ascii	"\355\327\3028\\M%\346\204drP\246\342\"\013@\317&\352"
 560      5C4D25E6 
 560      84647250 
 560      A6E2220B 
 560      40CF26EA 
 561 0205 276752BC 		.ascii	"'gR\274\307\014\353\221\003\275\010\243\211\217P\240"
 561      C70CEB91 
 561      03BD08A3 
 561      898F50A0 
 562 0215 0F5EF10B 		.ascii	"\017^\361\013j\246\373\236\333$\263\003\002\227l\021"
 562      6AA6FB9E 
 562      DB24B303 
 562      02976C11 
 563 0225 1BA98968 		.ascii	"\033\251\211h\"\210\312\002\250'\350\350\010\201i\255"
 563      2288CA02 
 563      A827E8E8 
 563      088169AD 
 564 0235 248BA074 		.ascii	"$\213\240t%\206\245\254#\204\220Le2\2279\021\372\011"
 564      2586A5AC 
 564      2384904C 
 564      65329739 
 564      11FA09
 565 0248 9A32F866 		.ascii	"\2322\370f\317\235\236.e\267\203\013\015w\322\012Z\255"
 565      CF9D9E2E 
 565      65B7830B 
 565      0D77D20A 
 565      5AAD
 566 025a C63FFCD4 		.ascii	"\306?\374\324G\355\021\356\037a]\370\006\005\2110\351"
 566      47ED11EE 
 566      1F615DF8 
 566      06058930 
 566      E9
ARM GAS  C:\Users\AMANRA~1\AppData\Local\Temp\ccMaxS61.s 			page 45


 567 026b 147071F6 		.ascii	"\024pq\366\253\345\024\013\206\347h\352\323\320\212"
 567      ABE5140B 
 567      86E768EA 
 567      D3D08A
 568 027a 230166C0 		.ascii	"#\001f\300\204\271\262\016f5\215\311\234O\236\326\326"
 568      84B9B20E 
 568      66358DC9 
 568      9C4F9ED6 
 568      D6
 569 028b A2DB5E10 		.ascii	"\242\333^\020\300\037\365\321\361\337\301g\036\224\031"
 569      C01FF5D1 
 569      F1DFC167 
 569      1E9419
 570 029a 0465EDD9 		.ascii	"\004e\355\331\033\231T\"m\370\017\325\331\033Y\246S"
 570      1B995422 
 570      6DF80FD5 
 570      D91B59A6 
 570      53
 571 02ab 26EF8DAD 		.ascii	"&\357\215\255\356\355\244\355\304AO\202\212o\211\216"
 571      EEEDA4ED 
 571      C4414F82 
 571      8A6F898E 
 572 02bb 99A84D5A 		.ascii	"\231\250MZN\273\310o\255\236lr?\377\347\312\240\302"
 572      4EBBC86F 
 572      AD9E6C72 
 572      3FFFE7CA 
 572      A0C2
 573 02cd EE2EB869 		.ascii	"\356.\270i\331\336s\350x\212U\317\016\256g\320\254g"
 573      D9DE73E8 
 573      788A55CF 
 573      0EAE67D0 
 573      AC67
 574 02df C8AE277C 		.ascii	"\310\256'|;\360\302\366\252E\343\345>4V\205\033\307"
 574      3BF0C2F6 
 574      AA45E3E5 
 574      3E345685 
 574      1BC7
 575 02f1 0AEB6605 		.ascii	"\012\353f\005\303\244H\324\224\3077\273\377\376o0\247"
 575      C3A448D4 
 575      94C737BB 
 575      FFFE6F30 
 575      A7
 576 0302 9C07755D 		.ascii	"\234\007u]\233P\025\331v[\250bnp\255CW\006u\313Ay\244"
 576      9B5015D9 
 576      765BA862 
 576      6E70AD43 
 576      570675CB 
 577 0319 96D470D5 		.ascii	"\226\324p\325lI\2366\214PK\222\254\241\272O\244\225"
 577      6C499E36 
 577      8C504B92 
 577      ACA1BA4F 
 577      A495
 578 032b 4B5AE97A 		.ascii	"KZ\351z\356\326\276m\275?Wb\261X\032F-i'\336o4\3756"
 578      EED6BE6D 
 578      BD3F5762 
 578      B1581A46 
 578      2D6927DE 
ARM GAS  C:\Users\AMANRA~1\AppData\Local\Temp\ccMaxS61.s 			page 46


 579 0343 0086DF15 		.ascii	"\000\206\337\025\333@\216\305!\307\341%\030\256p\270"
 579      DB408EC5 
 579      21C7E125 
 579      18AE70B8 
 580 0353 EF12D650 		.ascii	"\357\022\326P]v\211\016\261\234kVH\244\256_\270c;\250"
 580      5D76890E 
 580      B19C6B56 
 580      48A4AE5F 
 580      B8633BA8 
 581 0367 D4247112 		.ascii	"\324$q\022m\216\315H\274\276\035\211\2118\211\357\230"
 581      6D8ECD48 
 581      BCBE1D89 
 581      893889EF 
 581      98
 582 0378 846A026A 		.ascii	"\204j\002j\211\232\306\216\332S\357xDM\277\217\347\276"
 582      899AC68E 
 582      DA53EF78 
 582      444DBF8F 
 582      E7BE
 583 038a 666AEA0B 		.ascii	"fj\352\013^\311\267Y\256\015\253\366\320\333#\234Io"
 583      5EC9B759 
 583      AE0DABF6 
 583      D0DB239C 
 583      496F
 584 039c 2E42C3A4 		.ascii	".B\303\244\331z?P\226\240ts\365\201\272\017G\367Y\\"
 584      D97A3F50 
 584      96A07473 
 584      F581BA0F 
 584      47F7595C 
 585 03b0 34AB79CF 		.ascii	"4\253y\317\324\017\235J\3464i\000\246V\265\300fR\024"
 585      D40F9D4A 
 585      E6346900 
 585      A656B5C0 
 585      665214
 586 03c3 6F2D451A 		.ascii	"o-E\032\246M\272\012\323\375\221\245\3208\331\275\372"
 586      A64DBA0A 
 586      D3FD91A5 
 586      D038D9BD 
 586      FA
 587 03d4 EED10C0B 		.ascii	"\356\321\014\013R\337\230q\011[\247t\343\272\231RZ\337"
 587      52DF9871 
 587      095BA774 
 587      E3BA9952 
 587      5ADF
 588 03e6 0147A3B7 		.ascii	"\001G\243\267f\264\252\177\014\273D'fH\024\201\237P"
 588      66B4AA7F 
 588      0CBB4427 
 588      66481481 
 588      9F50
 589 03f8 2516519B 		.ascii	"%\026Q\233\303 \354\326\321\2618\255\223\033M\310c\001"
 589      C320ECD6 
 589      D1B138AD 
 589      931B4DC8 
 589      6301
 590 040a 8EC52C79 		.ascii	"\216\305,yX\360'\026;\376vq\271\217\323\233\361gxB\362"
 590      58F02716 
 590      3BFE7671 
ARM GAS  C:\Users\AMANRA~1\AppData\Local\Temp\ccMaxS61.s 			page 47


 590      B98FD39B 
 590      F1677842 
 591 041f 09F3BC74 		.ascii	"\011\363\274t\373-\275D\023\027\224\364\273B\334\205"
 591      FB2DBD44 
 591      131794F4 
 591      BB42DC85 
 592 042f 93FC1742 		.ascii	"\223\374\027B\355\375i\354\257\340=\314\301\243\334"
 592      EDFD69EC 
 592      AFE03DCC 
 592      C1A3DC
 593 043e BB3FB7EE 		.ascii	"\273?\267\356\015\253P\236\033\360h_\036\341\237\010"
 593      0DAB509E 
 593      1BF0685F 
 593      1EE19F08 
 594 044e B1B6A54E 		.ascii	"\261\266\245N\315\332\256\302<<\262\363\213q\320\327"
 594      CDDAAEC2 
 594      3C3CB2F3 
 594      8B71D0D7 
 595 045e 01383D09 		.ascii	"\0018=\011SPX\350\245OIiYqYEe\321\363E\317z+*\351\263"
 595      535058E8 
 595      A54F4969 
 595      59715945 
 595      65D1F345 
 596 0478 B7ACD85B 		.ascii	"\267\254\330[\371V\011=(/\256xgOea\211\220\345\305o"
 596      F956093D 
 596      282FAE78 
 596      674F6561 
 596      8990E5C5 
 597 048d CAF2CAD7 		.ascii	"\312\362\312\327\012\267\010){\243d\357\276W\367\304"
 597      0AB70829 
 597      7BA364EF 
 597      BE57F7C4 
 598 049d C34AC5BF 		.ascii	"\303J\305\277(T\306\331"
 598      2854C6D9 
 599              		.text
 600              		.section	.gnu.lto_chMBFetchTimeoutS.c3c0333a,"",%progbits
 601 0000 789C9554 		.ascii	"x\234\225TmO\\U\020>s\316}\333]\330\205\"\211\0064$"
 601      6D4F5C55 
 601      103E73CE 
 601      7DDB5DD8 
 601      85228906 
 602 0016 4A484964 		.ascii	"JHId\345\213\211\0374\361\233\277\003J,\246H\303\266"
 602      E58B891F 
 602      34F19BBF 
 602      034A2CA6 
 602      48C3B6
 603 0029 8935512E 		.ascii	"\2115Q.,\224\027\2535\015\335\222\365\266Y\242\024\233"
 603      2C9417AB 
 603      350DDD92 
 603      F5B659A2 
 603      149B
 604 003b 4640A52A 		.ascii	"F@\245*\224\342\362\"\366E\250-\250P\020+\264h)\202"
 604      94E2F222 
 604      F645A82D 
 604      A850102B 
 604      B4682982 
 605 004f 8A6D8156 		.ascii	"\212m\201V\352\3149K\241+\201\364f\367\3343\367\316"
ARM GAS  C:\Users\AMANRA~1\AppData\Local\Temp\ccMaxS61.s 			page 48


 605      EACC394B 
 605      A12B81F4 
 605      66F7DC33 
 605      F7CE
 606 0061 3333CF33 		.ascii	"33\3173s\217\301\030\2337\031\013\340\275\026\377\340"
 606      738FC118 
 606      9B37190B 
 606      E0BD16FF 
 606      E0
 607 0072 61C0DF1F 		.ascii	"a\300\337\037d\254\314\342 \324Fp\327?\202\331n\315"
 607      64ACCCE2 
 607      20D44670 
 607      D73F82D9 
 607      6ECD
 608 0084 39CF989D 		.ascii	"9\317\230\235\240q]\232\2262un\324g\243i.>\215\226\001"
 608      A0715D9A 
 608      9632756E 
 608      D467A369 
 608      2E3E8D96 
 609 0099 A60299E0 		.ascii	"\246\002\231\340R\033\213\273\245\243[\006Ip\253\250"
 609      521B8BBB 
 609      A5A35B06 
 609      4970ABA8 
 610 00a9 2FBB00E8 		.ascii	"/\273\000\350n[\300J\271\320t\303\264\334.\300-\213"
 610      6E5BC04A 
 610      B9D074C3 
 610      B4DC2EC0 
 610      2D8B
 611 00bb 5D07449D 		.ascii	"]\007D\235\200K\025\255\216xG8\202\201\206\346_\003"
 611      804B15AD 
 611      8E784738 
 611      828186E6 
 611      5F03
 612 00cd E1292F99 		.ascii	"\341)/\231\000\031h6\236\011v\302\366&\033\257\350\221"
 612      00196836 
 612      9E0976C2 
 612      F6261BAF 
 612      E891
 613 00df C5B4A660 		.ascii	"\305\264\246`\345+\216\340,\204\336m\220\016\237C:1"
 613      E52B8EE0 
 613      2C84DE6D 
 613      900E9F43 
 613      3A31
 614 00f1 3A05DBD1 		.ascii	":\005\333\321\267z\361\352\010\210g\201\341\276)\030"
 614      B77AF1EA 
 614      08886781 
 614      E1BE2918 
 615 0101 1A4ACC6A 		.ascii	"\032J\314j\264\355r;z\355#a?\343\010\001_\200X\017\304"
 615      B4ED723B 
 615      7AED2361 
 615      3FE30801 
 615      5F80580F 
 616 0116 470CBE84 		.ascii	"G\014\276\204,t\357.\233_0E\256\204.\375\035=e\305\240"
 616      2C74EF2E 
 616      9B5F3045 
 616      AE842EFD 
 616      1D3D65C5 
ARM GAS  C:\Users\AMANRA~1\AppData\Local\Temp\ccMaxS61.s 			page 49


 617 012b 7DC72554 		.ascii	"}\307%T\203\257\342\241\032\203v\011\035\177\257\356"
 617      83AFE2A1 
 617      1A837609 
 617      1D7FAFEE 
 618 013b BA573C2F 		.ascii	"\272W</\241\177\336\270\263\354]\315\372x\330\216j\216"
 618      A17FDEB8 
 618      B3EC5DCD 
 618      FA78D88E 
 618      6A8E
 619 014d D0A1231E 		.ascii	"\320\241#\036\25338\015Y\004\250Z\234l\365\211\227$"
 619      AB33380D 
 619      5904A85A 
 619      9C6CF589 
 619      9724
 620 015f 7862EAF8 		.ascii	"xb\352\370$\317\374PR\235\233\337\326\020\264\317\332"
 620      24CFFC50 
 620      529D9BDF 
 620      D610B4CF 
 620      DA
 621 0170 88E7D0F9 		.ascii	"\210\347\320\3710\236.t\237\374t\345p\242\241\301\031"
 621      309E2E74 
 621      9FFC74E5 
 621      70A2A1C1 
 621      19
 622 0181 C88CA0A2 		.ascii	"\310\214\240\242!R\025\272\300`\200wz\332rY\217\332"
 622      215215BA 
 622      C0608077 
 622      7ADA7259 
 622      8FDA
 623 0193 2BF7ABEC 		.ascii	"+\367\253\354\350t\361\321\336\351\273<\0350\267\301"
 623      E874F1D1 
 623      DEE9BB3C 
 623      1D30B7C1 
 624 01a3 A978418B 		.ascii	"\251xA\213\206\213\251\343b\031d\232\264Xd\272pq\271"
 624      868BA9E3 
 624      6219649A 
 624      B45864BA 
 624      7071B9
 625 01b6 69F1E0C2 		.ascii	"i\361\340\302\223\200TJ\006*:\205Q\350T \362i\344\313"
 625      9380544A 
 625      062A3A85 
 625      51E85420 
 625      F269E4CB 
 626 01ca 5835663E 		.ascii	"X5f>\344\261\243\270\341\270\011FY\015\012\213\235\307"
 626      E4B1A3B8 
 626      E1B80946 
 626      590D0A8B 
 626      9DC7
 627 01dc DD0C9477 		.ascii	"\335\014\224w\3348p\320\244\302\302\002\260\354Pe\317"
 627      DC3870D0 
 627      A4C2C202 
 627      B0EC5065 
 627      CF
 628 01ed 4593FA2B 		.ascii	"E\223\372+$\351\316\236\201~#\002\307\312\220u\206#"
 628      24E9CE9E 
 628      817E2302 
 628      C7CA9075 
ARM GAS  C:\Users\AMANRA~1\AppData\Local\Temp\ccMaxS61.s 			page 50


 628      8623
 629 01ff DC619104 		.ascii	"\334a\221\004_\023I|7\\52\341\361\177b\253W\006D!\002"
 629      5F13497C 
 629      375C3532 
 629      E1F17F62 
 629      AB570644 
 630 0215 87E5F040 		.ascii	"\207\345\360@7\370\331u\250\030\353\355\203\015B\033"
 630      37F8D975 
 630      A818EBED 
 630      830D421B 
 631 0225 C0A027A6 		.ascii	"\300\240'\246T\015v\012\207S\325r\317\315\302\"\015"
 631      540D760A 
 631      8753D572 
 631      CFCDC222 
 631      0D
 632 0236 5D4F2FDC 		.ascii	"]O/\334\273\300\311\325\003Ih\266u\3257{\260\012pD\002"
 632      BBC0C9D5 
 632      034968B6 
 632      75D5377B 
 632      B00A7044 
 633 024b 55D04B60 		.ascii	"U\320K`\350\303|l\032\312#\277u>AY\320\261n\272\372"
 633      E8C37C6C 
 633      1ACA23BF 
 633      753E4159 
 633      D0B16EBA 
 634 0260 962FFB63 		.ascii	"\226/\373c\331\243\225j\321\020\254@Hbl\234\341\033"
 634      D9A3956A 
 634      D110AC40 
 634      48626C9C 
 634      E11B
 635 0272 C8463442 		.ascii	"\310F4B8\225\337\334p\255\321E\375\304a\230\257\317"
 635      3895DFDC 
 635      70ADD145 
 635      FDC46198 
 635      AFCF
 636 0284 3839FEBB 		.ascii	"89\376\273m\037\262\311?~\020%\270\0372)\200\242u\344"
 636      6D1FB2C9 
 636      3F7E1025 
 636      B81F3229 
 636      80A275E4 
 637 0298 B363098A 		.ascii	"\263c\011\212X\332zb^$\366\355\003b:\033\023\253\032"
 637      58DA7A62 
 637      5E24F6ED 
 637      03623A1B 
 637      13AB1A
 638 02ab 87E7DDCA 		.ascii	"\207\347\335\312\237?\222\250\032\234\225\242\002Up"
 638      9F3F92A8 
 638      1A9C95A2 
 638      025570
 639 02ba 0E459D81 		.ascii	"\016E\235\201\240\263\377D\254_\002\303\311\0021\305"
 639      A0B3FF44 
 639      AC5F02C3 
 639      C90231C5 
 640 02ca 702DC434 		.ascii	"p-\3044X\037=\322L3\265i\202\363k\011.\200\037\203\312"
 640      581F3DD2 
 640      4C33B569 
 640      82F36B09 
ARM GAS  C:\Users\AMANRA~1\AppData\Local\Temp\ccMaxS61.s 			page 51


 640      2E801F83 
 641 02df 46D42E09 		.ascii	"F\324.\011\225C[\317O\333h&8U\361\235\354\310\000uD"
 641      95435BCF 
 641      4FDB6826 
 641      3855F19D 
 641      ECC80075 
 642 02f4 16332A36 		.ascii	"\0263*6\252\346)\351\235\032\363\036DoL\240\004\372"
 642      AAE629E9 
 642      9D1AF31E 
 642      446F4CA0 
 642      04FA
 643 0306 E0A04F25 		.ascii	"\340\240O%\214\007m%\320EY?\247\372\277WS7\332;\014"
 643      8C076D25 
 643      D045593F 
 643      A7FABF57 
 643      5337DA3B 
 644 031b 0F0432A8 		.ascii	"\017\0042\250\027\267A\307Ni\324\024\203\331|\265)N"
 644      17B741C7 
 644      4E69D414 
 644      83D97CB5 
 644      294E
 645 032d 8B57F999 		.ascii	"\213W\371\231\217\230\363\222\314)\277\350\313\262)"
 645      8F98F392 
 645      CC29BFE8 
 645      CBB229
 646 033c C8F89CBE 		.ascii	"\310\370\234\276\021\343\222\255\344\037Z\223\177\230"
 646      11E392AD 
 646      E41F5A93 
 646      7F98
 647 034a E437E5E8 		.ascii	"\3447\345\350\230\253\243\023\014\355\377c\341-U\245"
 647      98ABA313 
 647      0CEDFF63 
 647      E12D55A5 
 648 035a 15163A46 		.ascii	"\025\026:F\270\331\331:\242\253i\273\217\227\017~\330"
 648      B8D9D93A 
 648      A2AB69BB 
 648      8F970F7E 
 648      D8
 649 036b 74025EDB 		.ascii	"t\002^\333\274\002/\374(+\320\250\202\237\250\002\213"
 649      BC022FFC 
 649      282BD0A8 
 649      829FA802 
 649      8B
 650 037c 822D571D 		.ascii	"\202-W\035\275\365\244J\353\212\217x{\213\231\362\301"
 650      BDF5A44A 
 650      EB8A8F78 
 650      7B8B99F2 
 650      C1
 651 038d 880CA9AB 		.ascii	"\210\014\251\253\203\360\344\300\314\204Q\372\257\035"
 651      83F0E4C0 
 651      CC8451FA 
 651      AF1D
 652 039b 1B00178C 		.ascii	"\033\000\027\214\242d\014\256@)\233\205\312\014y&\242"
 652      A2640CAE 
 652      40299B85 
 652      CA0C7926 
 652      A2
ARM GAS  C:\Users\AMANRA~1\AppData\Local\Temp\ccMaxS61.s 			page 52


 653 03ac 5B7BFBEC 		.ascii	"[{\373\354\230\211n\226#\222B$\010\214\241\207J\337"
 653      98896E96 
 653      23924224 
 653      088CA187 
 653      4ADF
 654 03be 32DBBE94 		.ascii	"2\333\276\224H\224M\374\300\306!\335\021\311\210\015"
 654      48944DFC 
 654      C0C621DD 
 654      11C9880D 
 655 03ce 464EBCB8 		.ascii	"FN\274\270\001z[\210\246\001~F\264#R\244\234\026\353"
 655      017A5B88 
 655      A6017E46 
 655      B42352A4 
 655      9C16EB
 656 03e1 EE8F1D31 		.ascii	"\356\217\0351\313U\357\336\331\247\210\271\343\211u"
 656      CB55EFDE 
 656      D9A788B9 
 656      E38975
 657 03f0 F1AD884D 		.ascii	"\361\255\210MHb\306\377\211\275I\304~\221\304\256*b"
 657      4862C6FF 
 657      89BD49C4 
 657      7E91C4AE 
 657      2A62
 658 0402 91129525 		.ascii	"\221\022\225%\345\341\352\036\013\321\334\300\257\222"
 658      E5E1EA1E 
 658      0BD1DCC0 
 658      AF92
 659 0410 1BE64A76 		.ascii	"\033\346JvD*\035bR\007:\273\021AC|\245w\360\256\261"
 659      442A1D62 
 659      52073ABB 
 659      1141437C 
 659      A577F0AE 
 660 0425 16E1C127 		.ascii	"\026\341\301'\310Q\201\311\330\021S-\334l\245\207A\215"
 660      C85181C9 
 660      D811532D 
 660      DC6CA587 
 660      418D
 661 0437 70A9837D 		.ascii	"p\251\203}\016O\266\260\360\310\211\367 j\332i\353\367"
 661      0E4FB6B0 
 661      F0C889F7 
 661      206ADA69 
 661      EBF7
 662 0449 29D4DB30 		.ascii	")\324\3330\005\351\242cj\001\010n\326\336\304o#\305"
 662      05E9A263 
 662      6A01086E 
 662      D6DEC46F 
 662      23C5
 663 045b 5A9E1B02 		.ascii	"Z\236\033\002\014\003\010G\315\262sr\374\370\313\337"
 663      0C030847 
 663      CDB27372 
 663      FCF8CBDF 
 664 046b 59985758 		.ascii	"Y\230WX\034\310}!\3679\177q\000\177\273\012\363\374"
 664      1CC87D21 
 664      F7397F71 
 664      007FBB0A 
 664      F3FC
 665 047d 81927C7C 		.ascii	"\201\222||Q\224W\374FA '\237\211\242\274\335ZQ\340\325"
ARM GAS  C:\Users\AMANRA~1\AppData\Local\Temp\ccMaxS61.s 			page 53


 665      519457FC 
 665      46412027 
 665      9F89A2BC 
 665      DD5A51E0 
 666 0492 DDE69EC2 		.ascii	"\335\346\236\302\242\202\342\275{\214\222\035\373\320"
 666      A282E2BD 
 666      7B8C921D 
 666      FBD0
 667 04a0 CED92444 		.ascii	"\316\331$D\341\353\371\273\366\356(X\013\263\223\375"
 667      E1EBF9BB 
 667      F6EE2858 
 667      0BB393FD 
 668 04b0 075F44C1 		.ascii	"\007_D\301p"
 668      70
 669              		.text
 670              		.section	.gnu.lto_chMBFetchTimeout.c3c0333a,"",%progbits
 671 0000 789C7D93 		.ascii	"x\234}\223]H\024Q\024\307\317\231;;\273\245\231\364"
 671      5D481451 
 671      14C7CF99 
 671      3B3BBBA5 
 671      99F4
 672 0012 1415B142 		.ascii	"\024\025\261B\242E9\371R\364\022\204/\365 D\276\006"
 672      A24539F9 
 672      52F41284 
 672      2FF52044 
 672      BE06
 673 0024 D26E8B6D 		.ascii	"\322n\213m4\216\314\254\241ON\273~\205}A\266\311\266"
 673      348ECCAC 
 673      A14F4EBB 
 673      7E857D41 
 673      B6C9B6
 674 0037 685F663D 		.ascii	"h_f=\364\375\251\246mYf\232Zj\320\027e\212A\270\230"
 674      F4FDA9A6 
 674      6D59669A 
 674      5A6AD017 
 674      658A41B8 
 675 004c D5831665 		.ascii	"\325\203\026e\235{\325\260M\034\206\345\3369\347w\357"
 675      9D7BD5B0 
 675      4D1C86E5 
 675      DE39E777 
 675      EF
 676 005d FFFCCF59 		.ascii	"\377\374\317Y\005\000v\313\000\361\010\260\224\326\310"
 676      050076CB 
 676      00F108B0 
 676      94D6C8
 677 006c 00A5235D 		.ascii	"\000\245#]\000\373\034\022\"_X\016\204\"\011\213\360"
 677      00FB1C12 
 677      225F580E 
 677      8422098B 
 677      F0
 678 007d 00AB64F8 		.ascii	"\000\253d\370\274\370J\230U\2600\245\311\264\375\322"
 678      BCF84A98 
 678      55B030A5 
 678      C9B4FDD2 
 679 008d 191A4CE0 		.ascii	"\031\032L\340[D'mk\233\002wqe\235EO\344\370\304\222"
 679      5B44276D 
 679      6B9B0277 
ARM GAS  C:\Users\AMANRA~1\AppData\Local\Temp\ccMaxS61.s 			page 54


 679      71659D45 
 679      4FE4F8C4 
 680 00a2 BA40C9E6 		.ascii	"\272@\311\3460\223 H\3317p\031^\307e\374\212\233\270"
 680      30932048 
 680      D9377019 
 680      5EC765FC 
 680      8A9BB8
 681 00b5 9272CBC7 		.ascii	"\222r\313\307\373_\"[\203@\353\272@\260wAJ\255e\371"
 681      FB5F225B 
 681      8340EBBA 
 681      40B07741 
 681      4AAD65F9 
 682 00c9 ADC8DBB3 		.ascii	"\255\310\333\263\314Z\021f\014o!\233\011\322'\300\333"
 682      CC5A1166 
 682      0C6F219B 
 682      09D227C0 
 682      DB
 683 00da 9842E9F7 		.ascii	"\230B\351\367\367}\376fg\351\002\375\3765r\3231\205"
 683      F77DFE66 
 683      67E902FD 
 683      FE3572D3 
 683      3185
 684 00ec FEAC15A8 		.ascii	"\376\254\025\250\214wbQ\031\260^\240o\017U\016%\260"
 684      8C776251 
 684      19B05EA0 
 684      6F0F550E 
 684      25B0
 685 00fe 75021DFD 		.ascii	"u\002\035\3754\366#a\372\326\305!+\"\207\231\015\033"
 685      34F62361 
 685      FAD6C521 
 685      2B228799 
 685      0D1B
 686 0110 62591B60 		.ascii	"bY\033`#\246p\240l|\340\312B\266Q\300\357\006\317\015"
 686      23A670A0 
 686      6C7CE0CA 
 686      42B651C0 
 686      EF06CF0D 
 687 0124 48C96744 		.ascii	"H\311gD\251\255\321E\247\002V\233E\274\204w\377\345"
 687      A9ADD145 
 687      A702569B 
 687      45BC8477 
 687      FFE5
 688 0136 F943E903 		.ascii	"\371C\351\003W'\216-Pdl\302dn\007\271\320\214\012\376"
 688      57278E2D 
 688      50646CC2 
 688      646E07B9 
 688      D08C0AFE 
 689 014a 0D148B73 		.ascii	"\015\024\213s>F\025\361=\310p\006\003x\217R#\250@L\372"
 689      3E4615F1 
 689      3DC87006 
 689      03788F52 
 689      23A8404C 
 690 015f 70556A36 		.ascii	"pUj6\360@\220<\346\356\267\367\334\213c\271\202\275"
 690      F040903C 
 690      E6EEB7F7 
 690      DC8B63B9 
 690      82BD
ARM GAS  C:\Users\AMANRA~1\AppData\Local\Temp\ccMaxS61.s 			page 55


 691 0171 70E95455 		.ascii	"p\351TU<\227G\265\215U\247V\007*\016Z'\375\211a\246"
 691      3C9747B5 
 691      8D55A756 
 691      072A0E5A 
 691      27FD8961 
 692 0186 E0833904 		.ascii	"\340\2039\004N\036<RM\366\267\220R\274\317\017g\377"
 692      4E1E3C52 
 692      4DF6B790 
 692      52BCCF0F 
 692      67FF
 693 0198 88794862 		.ascii	"\210yHb\036\221\030\376CC\203\274\244\313=\266\2105"
 693      1E9118FE 
 693      434383BC 
 693      A4CB3DB6 
 693      8835
 694 01aa F1BB8CBA 		.ascii	"\361\273\214\272\276|\370N\351\257W\266y4=\324,\232"
 694      BE7CF84E 
 694      E9AF57B6 
 694      79343DD4 
 694      2C9A
 695 01bc 0BF25D46 		.ascii	"\013\362]F\356 !\274z(\247\362i\260\254\010\354'\335"
 695      EE2021BC 
 695      7A28A7F2 
 695      69B0AC08 
 695      EC27DD
 696 01cf B40A44E0 		.ascii	"\264\012D\340#J\263\250>1\267jl\305d\336\225OV\223\314"
 696      234AB3A8 
 696      3E31B76A 
 696      6CC564DE 
 696      954F5693 
 697 01e4 67504127 		.ascii	"gPA'>\246\3300\372\007\306\202\015\357c\355=Z\271t\312"
 697      3EA6D830 
 697      FA07C682 
 697      0DEF63ED 
 697      3D5AB974 
 698 01f9 5EF97F2B 		.ascii	"^\371\177+Wo\007l\3431[l\354[u*\315w+\267\343\311\377"
 698      576F076C 
 698      E3315B6C 
 698      EC5B752A 
 698      CD772BB7 
 699 0210 76B4930B 		.ascii	"v\264\223\013\035\334\216\016n\007\302\027~\353\351"
 699      1DDC8E0E 
 699      6E07C217 
 699      7EEBE9
 700 021f 9A6BE3F3 		.ascii	"\232k\343\363\223\374R\215U\345\0143;\007.\0166Z\016"
 700      93FC528D 
 700      55E50C33 
 700      3B072E0E 
 700      365A0E
 701 0232 5922D54F 		.ascii	"Y\"\325O1I8>\032\355{#\321\027\354DY\350\006\354\022"
 701      3149383E 
 701      1AED7B23 
 701      D117EC44 
 701      59E806EC 
 702 0247 7FAAF3CD 		.ascii	"\177\252\363\315-C\361I%S\264\203\347~\275t\355E\234"
 702      2D43F149 
 702      2553B483 
ARM GAS  C:\Users\AMANRA~1\AppData\Local\Temp\ccMaxS61.s 			page 56


 702      E77EBD74 
 702      ED459C
 703 025a A0BB398D 		.ascii	"\240\2739\215\317P&\317\374N\341\001@\024K\373+::\025"
 703      CF5026CF 
 703      FC4EE101 
 703      40144BFB 
 703      2B3A3A15 
 704 026e 5E5D8829 		.ascii	"^]\210)\004\324\327G\337\330\213~Y\2160\233\027d\012"
 704      04D4D747 
 704      DFD88B7E 
 704      598E309B 
 704      17640A
 705 0281 21CFB108 		.ascii	"!\317\261\010BL\0121\026b4\250\363\005/\246\220\272"
 705      424C0A31 
 705      166234A8 
 705      F3052FA6 
 705      90BA
 706 0293 4290E801 		.ascii	"B\220\350\001\357:\321\301\222\007\335\366IK\001{fZ"
 706      EF3AD1C1 
 706      9207DDF6 
 706      494B017B 
 706      665A
 707 02a5 3AD9F5A9 		.ascii	":\331\365\2512'j>4\307MW\320#*\350\025\025\304\312\355"
 707      32276A3E 
 707      34C74D57 
 707      D0232AE8 
 707      1515C4CA 
 708 02ba 9B94DB5F 		.ascii	"\233\224\333_\177\370u\216\270\003`\204\266\025]\177"
 708      7FF8758E 
 708      B8036084 
 708      B6155D7F 
 709 02ca 25F37E96 		.ascii	"%\363~\226\323\330\3238\020\266*-M\245\327\275\313\353"
 709      D3D8D338 
 709      10B62A2D 
 709      4DA5D7BD 
 709      CBEB
 710 02dc F2EA66FA 		.ascii	"\362\352f\372\206\364\265\252n\322\273\307\353RM\303"
 710      86F4B5AA 
 710      6ED2BBC7 
 710      EB524DC3 
 711 02ec 4D01CDA5 		.ascii	"M\001\315\245\027x\314470\315\225'kfN\236\335\347\325"
 711      1778CC34 
 711      3730CD95 
 711      276B664E 
 711      9EDDE7D5 
 712 0300 3C7ABE4F 		.ascii	"<z\276O1v\026\322>u\326#\014\237\352\315u\357\311\337"
 712      317616D2 
 712      3E75D623 
 712      0C9FEACD 
 712      75EFC9DF 
 713 0314 E9A18859 		.ascii	"\351\241\210Yh\246\355\002\273k\207\351\331jx\327\315"
 713      68A6ED02 
 713      BB6B87E9 
 713      D96A78D7 
 713      CD
 714 0325 0AB8754D 		.ascii	"\012\270uM\323s\325<\335\360\231\352\246m\231\031\231"
 714      D373D53C 
ARM GAS  C:\Users\AMANRA~1\AppData\Local\Temp\ccMaxS61.s 			page 57


 714      DDF099EA 
 714      A66D9919 
 714      99
 715 0336 0594E2D6 		.ascii	"\005\224\342\326\015O\366\336\365\032\341\031sa\236"
 715      0D4FF6DE 
 715      F51AE119 
 715      73619E
 716 0345 021F87D4 		.ascii	"\002\037\207\324\214\314\254-Yj\006Q\352\226\351\353"
 716      8CCCAC2D 
 716      596A0651 
 716      EA96E9EB 
 717 0355 35D36B66 		.ascii	"5\323kf\347\270\335tFbf\3266'\227\221gxW;\223\327\202"
 717      E7B8DD74 
 717      466266D6 
 717      36279791 
 717      6778573B 
 718 036c 64805DF3 		.ascii	"d\200]\363h\272Q\010\177\000N\300\275\364"
 718      68BA5108 
 718      7F004EC0 
 718      BDF4
 719              		.text
 720              		.section	.gnu.lto_chMBFetchI.c3c0333a,"",%progbits
 721 0000 789C9554 		.ascii	"x\234\225T]O\\U\024\335\353\236\3735\303\014\323\007"
 721      5D4F5C55 
 721      14DDEB9E 
 721      FB35C30C 
 721      D307
 722 0012 F4C14C22 		.ascii	"\364\301L\"\017\022R\022g$\361\305\177\320_\321\207"
 722      0F125212 
 722      6724F1C5 
 722      7FD05FD1 
 722      87
 723 0023 A18DC514 		.ascii	"\241\215\305\024i\2344\361\311\2710|LkMj\322N\315\344"
 723      699C34F1 
 723      C9B9307C 
 723      4C6B4D6A 
 723      D24ECDE4 
 724 0037 C64E2523 		.ascii	"\306N%#6\306R#U\207\322v\012-b\201b[T(\2611\240$RB\253"
 724      36C65223 
 724      5587D276 
 724      0A2D6281 
 724      625B5428 
 725 0052 4D555A04 		.ascii	"MUZ\004\3679g\004$\004\322\233;g\316\307^{\257\275\366"
 725      F7396704 
 725      2404D29B 
 725      3B67CEC7 
 725      5E7BAFBD 
 726 0067 3ED726A2 		.ascii	">\327&\242\204M\264\217\377\367\362\017.\3018~\223\250"
 726      844DB48F 
 726      FFF7F20F 
 726      2EC1387E 
 726      93A8
 727 0079 C5350C67 		.ascii	"\3055\014g\030\344\005\305\360(\221\027\022\206\251"
 727      18E405C5 
 727      F0289117 
 727      1286A9
 728 0088 2641B51B 		.ascii	"&A\265\0332\015+S\313+[\216!\013\266\006\331p\364\304"
ARM GAS  C:\Users\AMANRA~1\AppData\Local\Temp\ccMaxS61.s 			page 58


 728      320D2B53 
 728      CB2B5B8E 
 728      210BB606 
 728      D970F4C4 
 729 009c 01E4C473 		.ascii	"\001\344\304sA)C\230\226\355 \205c\342\204\300\255\266"
 729      41294398 
 729      96ED2085 
 729      63E284C0 
 729      ADB6
 730 00ae F3BE7857 		.ascii	"\363\276xW\370\202`\362\362\367\261\334l\245\\\002\325"
 730      F88260F2 
 730      F2F7B1DC 
 730      6CA55C02 
 730      D5
 731 00bf BC2C5C4A 		.ascii	"\274,\\J\367cw\267\307O\351T\337\213\335\351\366=\276"
 731      F76377B7 
 731      C74FE954 
 731      DF8BDDE9 
 731      F63DBE
 732 00d2 3028CBD6 		.ascii	"0(\313\326\275\210\342\013D%\313\013\330\315\266\231"
 732      BD88E20B 
 732      4425CB0B 
 732      D8CDB699 
 733 00e2 BF7F9E84 		.ascii	"\277\177\236\204x\031\304\363\356t\366N\270\266\340"
 733      7819C4F3 
 733      EE74F64E 
 733      B8B6E0
 734 00f1 79AD5E69 		.ascii	"y\255^i\241Kx/\371B\340K\210\215@\336\"|\205Z6\277\332"
 734      A14B782F 
 734      F942E04B 
 734      888D40DE 
 734      227C855A 
 735 0108 F2E09123 		.ascii	"\362\340\221#\352\025t\351\217\322\005\267\014\035-"
 735      EA1574E9 
 735      8FD205B7 
 735      0C1D2D
 736 0117 28A889AF 		.ascii	"(\250\211\2577CMB\021\265\322~\346\363\225\223a\333"
 736      37434D42 
 736      11B5D27E 
 736      E6F39593 
 736      61DB
 737 0129 CC0B92B4 		.ascii	"\314\013\222\264\230M\037l\002Ozn[%oe\265\323+-\027"
 737      984D1F6C 
 737      024F7A6E 
 737      5B256F65 
 737      B5D32B2D 
 738 013e 707AC67D 		.ascii	"pz\306}\016\214\263\014\011\026r0y\260-9\263\345\340"
 738      0E8CB30C 
 738      09167230 
 738      79B02D39 
 738      B3E5E0
 739 0151 F0E0B83C 		.ascii	"\360\340\270<\270\001\036\2140$\267\010d\230*yD\224"
 739      B8011E8C 
 739      3024B708 
 739      64982A79 
 739      4494
 740 0163 61F7ACA2 		.ascii	"a\367\254\242W\242#\254\001\317\322%\232Gk\337o\367"
ARM GAS  C:\Users\AMANRA~1\AppData\Local\Temp\ccMaxS61.s 			page 59


 740      57A223AC 
 740      01CFD225 
 740      9A476BDF 
 740      6FF7
 741 0175 C76D1935 		.ascii	"\307m\0315'\300|\262\355\003\343\216TP\250t\372\007"
 741      27C07CB2 
 741      ED03E38E 
 741      5450A874 
 741      FA07
 742 0187 C686EC3C 		.ascii	"\306\206\354<>la\011\253}\021\310\2110.J\331\370l\242"
 742      3E6C6109 
 742      AB7D11C8 
 742      89302E4A 
 742      D9F86CA2 
 743 019b 73F25E45 		.ascii	"s\362^E\3743O\037Y\350G\036'e\016\204K\210\323\257h"
 743      FC334F1F 
 743      59E8471E 
 743      27650E84 
 743      4B88D3AF 
 744 01b0 9B1E7C75 		.ascii	"\233\036|u\013\317\026\010\227\225\364\304T\004q'h*"
 744      0BCF1608 
 744      9795F4C4 
 744      54047127 
 744      682A
 745 01c2 CB41CA89 		.ascii	"\313A\312\211*6\275\370hy\304\220\246A\354\342e\357"
 745      2A36BDF8 
 745      6879C490 
 745      A641ECE2 
 745      65EF
 746 01d4 E50FCE55 		.ascii	"\345\017\316U0\011\370\242B\022\270\"\301(q8\232Ck~"
 746      3009F8A2 
 746      4212B822 
 746      C1287138 
 746      9A436B7E 
 747 01e8 F68A23A3 		.ascii	"\366\212#\243\260\341\211\271\314\343H\335'\252\336"
 747      B0E189B9 
 747      CCE348DD 
 747      27AADE
 748 01f7 2B197126 		.ascii	"+\031q&\335\306\220\020\351\007WQ\307h\206\030\222\375"
 748      DDC69010 
 748      E9075751 
 748      C7688618 
 748      92FD
 749 0209 B933BF14 		.ascii	"\2713\277\024\0025]\252P\177u\304f\256wx\307[\\6\337"
 749      02355DAA 
 749      507F75C4 
 749      66AE7778 
 749      C75B5C36 
 750 021e 5C68851D 		.ascii	"\\h\205\035@\215\304\353\244N=<-t^U\033\363\012s^\203"
 750      408DC4EB 
 750      A44E3D3C 
 750      2D745E55 
 750      1BF30A73 
 751 0234 6B7999D4 		.ascii	"ky\231\3246\262&\361ROP\003\214g\322\324\3045\245\251"
 751      36B226F1 
 751      524F5003 
 751      8C67D2D4 
ARM GAS  C:\Users\AMANRA~1\AppData\Local\Temp\ccMaxS61.s 			page 60


 751      C435A5A9 
 752 0248 EC075C67 		.ascii	"\354\007\\gM\347\221\366;\2168\332\227`w\212!\207\230"
 752      4DE791F6 
 752      3B8E38DA 
 752      9760778A 
 752      218798
 753 025b 388AB206 		.ascii	"8\212\262\006\033\275\347?\226M\263m\200\241\365\000"
 753      1BBDE73F 
 753      964DB36D 
 753      80A1F500 
 754 026b DF20CE4E 		.ascii	"\337 \316NU!\216N\225\02347&hn\325\022\206d1\254*\362"
 754      55218E4E 
 754      95133437 
 754      26686ED5 
 754      12866431 
 755 0282 ADAC8822 		.ascii	"\255\254\210\"S\024[\261y^YG\312\3267\330\232\003h\201"
 755      53145BB1 
 755      795E5947 
 755      CAD637D8 
 755      9A036881 
 756 0296 9E8C57EA 		.ascii	"\236\214W\352\200\3263\0124\242\370\033\222\377\250"
 756      80D6330A 
 756      34A2F81B 
 756      92FFA8
 757 02a5 6EBAA9C1 		.ascii	"n\272\251\301kX\023\310*W\303\242\201\232\377\212\361"
 757      6B5813C8 
 757      2A57C3A2 
 757      819AFF8A 
 757      F1
 758 02b6 F441853E 		.ascii	"\364A\205>\337Lp\247Xc*\226\272\2457U18\323\263\326"
 758      DF4C70A7 
 758      58632A96 
 758      BAA53755 
 758      3138D3B3 
 759 02cb 5699BEB1 		.ascii	"V\231\276\261\223\354\343\353\262\177'e\267\025K{\255"
 759      93ECE3EB 
 759      B27F2765 
 759      B7154B7B 
 759      AD
 760 02dc 67D2D98E 		.ascii	"g\322\331\216\237V\017k\232\216\356\263\373\375\347"
 760      9F560F6B 
 760      9A8EEEB3 
 760      FBFDE7
 761 02eb 272DDD67 		.ascii	"'-\335g\253\374Dpk\333\322'\266\247\020\306mE\301\224"
 761      ABFC4470 
 761      6BDBD227 
 761      B6A710C6 
 761      6D45C194 
 762 02ff 14EE480A 		.ascii	"\024\356H\012\216t\366\244\363\275\367\207\014\035\327"
 762      8E74F6A4 
 762      F3BDF787 
 762      0C1DD7
 763 030e DDEC7271 		.ascii	"\335\354rq\207n\252\304\204\362)E\347\303O\307\346\357"
 763      876EAAC4 
 763      84F22945 
 763      E7C34FC7 
 763      E6EF
ARM GAS  C:\Users\AMANRA~1\AppData\Local\Temp\ccMaxS61.s 			page 61


 764 0320 D9A97FBC 		.ascii	"\331\251\177\274r\351]|\317\242\021~@\212\026\320^\255"
 764      72E95D7C 
 764      CFA2117E 
 764      408A16D0 
 764      5EAD
 765 0332 BE746C56 		.ascii	"\276tlV,.L;l\306w/\222\225\222\340G\266\320\341{\026"
 765      2C2E4C3B 
 765      6CC6772F 
 765      929592E0 
 765      47B6D0E1 
 766 0348 8A4B6199 		.ascii	"\212Ka\231\263\315wk\022Q_\354RB9\345\357\327\"\337"
 766      B3CD776B 
 766      12515FEC 
 766      524239E5 
 766      EFD722DF 
 767 035c E59C08F0 		.ascii	"\345\234\010\360\336\237\010\260\375\234\337;\024\221"
 767      DE9F08B0 
 767      FD9CDF3B 
 767      1491
 768 036a F606DEC1 		.ascii	"\366\006\336\301\024\242F\356\351\354\377\276=\006\373"
 768      14A246EE 
 768      E9ECFFBE 
 768      3D06FB
 769 0379 B98BA87D 		.ascii	"\271\213\250}\343\243\020o\257\236]\354\263\365v\012"
 769      E3A3106F 
 769      AF9E5DEC 
 769      B3F5760A 
 770 0389 D3888ABB 		.ascii	"\323\210\212\273]\307^\340\017%\244{\356\251\272X,\316"
 770      5DC75EE0 
 770      0F25A47B 
 770      EEA9BA58 
 770      2CCE
 771 039b 6FC381C6 		.ascii	"o\303\201\306Dcs\262\376\265\372W\342\315I~\0176&\342"
 771      446373B2 
 771      FEB5FA57 
 771      E2CD497E 
 771      0F3626E2 
 772 03af C9B71AF8 		.ascii	"\311\267\032\370\240)\321\374\366\376d\254\201DS\342"
 772      A029D1FC 
 772      F6FE64AC 
 772      814453E2 
 773 03bf 90D9947C 		.ascii	"\220\331\224|\375Pl\033L\343\233\015\007\017\357\333"
 773      FD506C1B 
 773      4CE39B0D 
 773      070FEFDB 
 774 03cf BF8E3B40 		.ascii	"\277\216;@\377\002\016\2176\036"
 774      FF020E8F 
 774      361E
 775              		.text
 776              		.section	.gnu.lto_.symbol_nodes.c3c0333a,"",%progbits
 777 0000 789C55CC 		.ascii	"x\234U\314MJ\003A\020\305\361\327\2572\235L\222\231"
 777      4D4A0341 
 777      10C5F1D7 
 777      AF329D4C 
 777      9299
 778 0012 3EC25C45 		.ascii	">\302\\EOV\203\210\013\335\210^a\300\370\375\201\210"
 778      4F568388 
ARM GAS  C:\Users\AMANRA~1\AppData\Local\Temp\ccMaxS61.s 			page 62


 778      0BDD885E 
 778      61C0F8FD 
 778      8188
 779 0024 719D954A 		.ascii	"q\235\225J\004o \314\322#\210X=\263\2616\375\350\037"
 779      046F20CC 
 779      D2238858 
 779      3DB3B136 
 779      FDE81F
 780 0037 7F2A0258 		.ascii	"\177*\002X\007{xF\005\216\267\200\315K\273krN\015^V"
 780      077B7846 
 780      058EB780 
 780      CD4BBB6B 
 780      724E0D5E 
 781 004c 547AB9A4 		.ascii	"Tz\271\244\212\227\013\352\304\313\025\265\360rC\215"
 781      8A970BEA 
 781      C4CB15B5 
 781      F072438D 
 782 005c 5EAEA953 		.ascii	"^\256\251S/\267\324\231\227{j\351\345\216:\367\362@"
 782      2FB7D499 
 782      977B6AE9 
 782      E58E3AF7 
 782      F240
 783 006e 5D38094F 		.ascii	"]8\011O\324\345 @\333\356\030<R+\007kj\355\340\231\232"
 783      D4E52040 
 783      DBEE183C 
 783      522B076B 
 783      6AEDE099 
 784 0083 FE838425 		.ascii	"\376\203\204%\372\257\337\220\267;\370n\204\001{\371"
 784      FAAFDF90 
 784      B73BF86E 
 784      84017BF9 
 785 0093 CF0A5D5E 		.ascii	"\317\012]^I\330\377\334\026\"\366\037\266F\177\362\363"
 785      49D8FFDC 
 785      1622F61F 
 785      B6467FF2 
 785      F3
 786 00a4 2A329131 		.ascii	"*2\2211,\022\272\217\367Fb\302&\007\261B?l\215\3564"
 786      2C12BA8F 
 786      F74662C2 
 786      2607B142 
 786      3F6C8DEE 
 787 00b9 87D33886 		.ascii	"\207\3238\206\263\204>\207\245]|\263\240\264\213\303"
 787      B3843E87 
 787      A55D7CB3 
 787      A0B48BC3 
 788 00c9 DAC5A31C 		.ascii	"\332\305\243\034\316\3131\\Xx\270i\360\007\275\260x"
 788      CECB315C 
 788      5878B869 
 788      F007BDB0 
 788      78
 789 00da 04       		.ascii	"\004"
 790              		.text
 791              		.section	.gnu.lto_.refs.c3c0333a,"",%progbits
 792 0000 789C6363 		.ascii	"x\234cc```\004b\006\000\000D\000\010"
 792      60606004 
 792      62060000 
 792      440008
ARM GAS  C:\Users\AMANRA~1\AppData\Local\Temp\ccMaxS61.s 			page 63


 793              		.text
 794              		.section	.gnu.lto_.decls.c3c0333a,"",%progbits
 795 0000 789CC55B 		.ascii	"x\234\305[\011TTW\232\256\373n-PlF\355\034\347\214'"
 795      09545457 
 795      9AAEFB6E 
 795      2D506C46 
 795      ED1CE78C 
 796 0015 E3C931D3 		.ascii	"\343\3111\323\244'Q\321t4}zr\2228\275x\246\323\335\223"
 796      A42751D1 
 796      74347D7A 
 796      729238BD 
 796      78A6D3DD 
 797 002a 749F33E9 		.ascii	"t\2373\351v\232F\250(\011\213\241\312\250=g\246\213"
 797      769A46A8 
 797      28098BA1 
 797      CAA83D67 
 797      A68B
 798 003c 45450157 		.ascii	"EE\001WP6\025QqAE\024\005\001e\223MDT\024d\337\224M"
 798      50361551 
 798      71414514 
 798      05016593 
 798      4D445414 
 799 0054 40041559 		.ascii	"@\004\025Y\204\371\357\362\352\275zT\031\273g\372L\035"
 799      84F9EFF2 
 799      EABD7A54 
 799      19BB67FA 
 799      4C1D
 800 0066 7FEADDFB 		.ascii	"\177\352\335\373\376\373\377\337\277\334\377\336w\353"
 800      FEFBFFDF 
 800      BFDCFFDE 
 800      77EB
 801 0074 A955A954 		.ascii	"\251U\251T\301\313T*?\007\225\252[\253RM\301\307\005"
 801      C1CB542A 
 801      3F0795AA 
 801      5BAB524D 
 801      C1C705
 802 0087 FA0A80A0 		.ascii	"\372\012\200\240KU\211T\252l\240L\240\033@\300\242\032"
 802      4B558954 
 802      AA6CA04C 
 802      A01B40C0 
 802      A21A
 803 0099 02BA09D7 		.ascii	"\002\272\011\327g\201\310g\006P=\\7\003\265\002u\002"
 803      6781C867 
 803      06503D5C 
 803      3703B502 
 803      7502
 804 00ab 7503F503 		.ascii	"u\003\365\003=\002z\0144\0144\0124N\306\010*\225\006"
 804      3D027A0C 
 804      340C340A 
 804      344EC608 
 804      2A9506
 805 00be C801C805 		.ascii	"\310\001\310\005\310MPM\373\\\300*\2253|\377\021h&\320"
 805      C84D504D 
 805      FB5CC02A 
 805      95337CFF 
 805      116826D0 
 806 00d2 6C1B58BE 		.ascii	"l\033X\276\200\276\353\034G0\220\011H\017}\371\360]"
ARM GAS  C:\Users\AMANRA~1\AppData\Local\Temp\ccMaxS61.s 			page 64


 806      80BEEB1C 
 806      47309009 
 806      480F7DF9 
 806      F05D
 807 00e4 04540654 		.ascii	"\004T\006T\000t\025\250\034\250\020(\014(\004\250\004"
 807      007415A8 
 807      1CA81028 
 807      0C2804A8 
 807      04
 808 00f5 0873DCB3 		.ascii	"\010s\334\263@\377\367\200\010\2647\024X.\003\223\253"
 808      40FFF780 
 808      08B43714 
 808      582E0393 
 808      AB
 809 0106 1D1C04C3 		.ascii	"\035\034\004\303u\216\207`\021q\374\203\300\374\244"
 809      758E8760 
 809      1171FC83 
 809      C0FCA4
 810 0115 866F1DC7 		.ascii	"\206o\035\307S\3061\311\261\020\014D\035\361\233\206"
 810      53C631C9 
 810      B1100C44 
 810      1DF19B86 
 811 0125 EBFFBE42 		.ascii	"\353\377\276B\177\001\350w\262\241\277\004\276\337\006"
 811      7F01E877 
 811      B2A1BF04 
 811      BEDF06
 812 0134 DE05400B 		.ascii	"\336\005@\013\201\232\240o\021\321\307\307\223\330\221"
 812      819AA06F 
 812      11D1C7C7 
 812      93D891
 813 0143 582C86F6 		.ascii	"X,\206\366{@?\002\3721\320\207\002\323\347`\303\347"
 813      7B403F02 
 813      FA31D087 
 813      02D3E760 
 813      C3E7
 814 0155 95A0EBEF 		.ascii	"\225\240\353\357dz\206\270.\022\353\217\004f_6\267\225"
 814      647A86B8 
 814      2E12EB8F 
 814      04665F36 
 814      B795
 815 0167 D8FE3BEE 		.ascii	"\330\376;\356\377\217\341\336'@\313\201\376E`\376P\372"
 815      FF8FE1DE 
 815      2740CB81 
 815      FE4560FE 
 815      50FA
 816 0179 41C4F613 		.ascii	"A\304\366\023 g\022\177\025\363C\031\367I\011\367\011"
 816      2067127F 
 816      15F34319 
 816      F74909F7 
 816      09
 817 018a E127F9B3 		.ascii	"\341'\371\263\002x\376\225\347\206\230'\304?\237)p\337"
 817      0278FE95 
 817      E7869827 
 817      C43F9F29 
 817      70DF
 818 019c C22CE6B6 		.ascii	"\302,\346\2660\313}\3649\320\003\236\257$&\335v|\323"
 818      30CB7DF4 
ARM GAS  C:\Users\AMANRA~1\AppData\Local\Temp\ccMaxS61.s 			page 65


 818      39D0039E 
 818      AF2426DD 
 818      767CD3
 819 01af 89A6FBA5 		.ascii	"\211\246\373\245\0013\331J\035\377[\237\250m\370\200"
 819      0133D94A 
 819      1DFF5B9F 
 819      A86DF880 
 820 01bf F4F52BEC 		.ascii	"\364\365+\354'\220~\247\260\273\345\377!VEhz\254\036"
 820      27907EA7 
 820      B0BBE5FF 
 820      21564568 
 820      7AAC1E
 821 01d2 BD2456AB 		.ascii	"\275$V\253\024\230;\376\312X=\266\023\253G6b\325\365"
 821      14983BFE 
 821      CA583DB6 
 821      13AB4736 
 821      62D5F5
 822 01e5 378E95DC 		.ascii	"7\216\225\334\007\244o\330F\254|\024v\017\003\246\327"
 822      07A46FD8 
 822      46AC7C14 
 822      760F03A6 
 822      D7
 823 01f6 6D60CA46 		.ascii	"m`\312FR\035%zD\\\004\223\210\345#\005\036[\361\321"
 823      521D257A 
 823      445C0493 
 823      88E52305 
 823      1E5BF1D1 
 824 020a C9B0917A 		.ascii	"\311\260\221z\227\3171\026\312p\222\332\253\214\317"
 824      97CF3116 
 824      CA7092DA 
 824      AB8CCF
 825 0219 D70A9C23 		.ascii	"\327\012\234#\274\326\330\303)\217\221\037\320sY\214"
 825      BCD6D8C3 
 825      298F911F 
 825      D073598C 
 826 0229 C6EDC468 		.ascii	"\306\355\304h\324F\214\020\000z\315\216\236\277\324"
 826      D4468C10 
 826      007ACD8E 
 826      9EBFD4
 827 0238 17DA97D8 		.ascii	"\027\332\227\330N\315\223\305%@ao4F\267\302\316&\342"
 827      4ECD93C5 
 827      2540616F 
 827      3446B7C2 
 827      CE26E2
 828 024b 088C66EA 		.ascii	"\010\214f\352\221\032\232\217+\343;\\\2419[\217\346"
 828      911A9A8F 
 828      2BE33B5C 
 828      A1395B8F 
 828      E6
 829 025c C99A3359 		.ascii	"\311\2323Y3>\347\3115\015k:@3s 5\323\2051\347\023Y\003"
 829      333EE7C9 
 829      350D6B3A 
 829      40337320 
 829      35D38531 
 830 0274 610F5A9D 		.ascii	"a\017Z\235\330\3559\204;{K\210\036\013\210\334\332\331"
 830      D8ED3984 
 830      3B7B4B88 
ARM GAS  C:\Users\AMANRA~1\AppData\Local\Temp\ccMaxS61.s 			page 66


 830      1E0B88DC 
 830      DAD9
 831 0286 389AEB84 		.ascii	"8\232\353\2045\364\372IV\302V'\254g\3759\031\371\302"
 831      35F4FA49 
 831      56C25627 
 831      AC67FD39 
 831      19F9C2
 832 0299 825366F6 		.ascii	"\202Sf\366q\360S\241\034\204El\242\374\231\\\376\361"
 832      71F053A1 
 832      1C84456C 
 832      A2FC995C 
 832      FEF1
 833 02ab CEC4EDCE 		.ascii	"\316\304\355\316\254\275\014\232wn6\037\305\370\237"
 833      ACBD0C9A 
 833      776E361F 
 833      C5F89F
 834 02ba A99CA6B2 		.ascii	"\251\234\246\262\023\251\304\214\357\353\021Y\300\335"
 834      13A9C48C 
 834      EFEB1159 
 834      C0DD
 835 02c8 A02BADEF 		.ascii	"\240+\255\357\322\250\013\353\"\034\267w\014\035\321"
 835      D2A80BEB 
 835      221CB777 
 835      0C1DD1
 836 02d7 E19F926B 		.ascii	"\341\237\222k\241\245n\274\321\025\351\335\303\315\346"
 836      A1A56EBC 
 836      D115E9DD 
 836      C3CDE6
 837 02e6 107352A8 		.ascii	"\020sR\250\331\361\347*\224\201\346\242\363h\256\012"
 837      D9F1E72A 
 837      9481E6A2 
 837      F368AE0A 
 838 02f6 5D45EE64 		.ascii	"]E\356dL.Z\240B\005\320\231\017\235)\004]~U\374\207"
 838      4C2E5AA0 
 838      4205D099 
 838      0F9D2904 
 838      5D7E55FC 
 839 030b 714366F3 		.ascii	"qCf\363<T\204\364\250\020a\312\003\236\375\276\236\341"
 839      3C5484F4 
 839      A81061CA 
 839      039EFDBE 
 839      9EE1
 840 031d 3D716457 		.ascii	"=qdW\262\026g!\252#'\341A\261`OG\251}\035Yo\226l2\233"
 840      B2166721 
 840      AA2327E1 
 840      41B1604F 
 840      47A97D1D 
 841 0337 0554023A 		.ascii	"\005T\002:\212%\035\240\222)1G\217\037t\301\373\251"
 841      8A251DA0 
 841      92293147 
 841      8F1F74C1 
 841      FBA9
 842 0349 5B8547A1 		.ascii	"[\205G\241\011G\355\032r\315\256\222G\327\227\335\335"
 842      0947ED1A 
 842      72CDAE92 
 842      47D797DD 
 842      DD
ARM GAS  C:\Users\AMANRA~1\AppData\Local\Temp\ccMaxS61.s 			page 67


 843 035a 42949483 		.ascii	"B\224\224\203\2222II\211\250\244\361|T\221\003\356b"
 843      92324949 
 843      89A8A4F1 
 843      7C549103 
 843      EE62
 844 036c B14B1D09 		.ascii	"\261K\035\011\273\340\206\037\261\306\330\236K\027\234"
 844      BBE0861F 
 844      B1C6D89E 
 844      4B179C
 845 037b F053D628 		.ascii	"\360S\326(xQ\227\250\307\343\254q{\360\372~\036\375"
 845      785197A8 
 845      C7E3AC71 
 845      7BF0FA7E 
 845      1EFD
 846 038d 19D0BCD8 		.ascii	"\031\320\274\330Y^\242g\311aF\320\2368Zu\317\001\207"
 846      595EA267 
 846      C96146D0 
 846      9E385A75 
 846      CF0187
 847 03a0 62CA9B93 		.ascii	"b\312\233\223\231[\302\023i\0214C\357\357os\305\221"
 847      995BC213 
 847      69113443 
 847      EFEF6F73 
 847      C591
 848 03b2 EC5EC98E 		.ascii	"\354^\311\216\260H=\216\241\015\341\351\255\2768\255"
 848      B0483D8E 
 848      A10DE1E9 
 848      ADBE38AD 
 849 03c2 3D036BEC 		.ascii	"=\003k\354\032xM\373\021\272\013\266\335\261a[\302p"
 849      1A784DFB 
 849      11BA0BB6 
 849      DDB1615B 
 849      C270
 850 03d4 538F23D3 		.ascii	"S\217#\323\355N\202\226=|T\213\0171\335\355S\223_\341"
 850      ED4E8296 
 850      3D7C548B 
 850      0F31DDED 
 850      53935FE1 
 851 03e8 93EC7AEB 		.ascii	"\223\354z\353\251\255%\256\370\034k$\347\345\364\351"
 851      A9AD25AE 
 851      F81C6B24 
 851      E7E5F4E9 
 852 03f8 70216B1C 		.ascii	"p!k\034\357m\231\300\370\026k\2645\226\236u\305\325"
 852      EF6D99C0 
 852      F8166BB4 
 852      35969E75 
 852      C5D5
 853 040a DCAE9184 		.ascii	"\334\256\221\204\0347\\\317\032\225\035SCz\334\306\032"
 853      1C375CCF 
 853      1A951D53 
 853      437ADCC6 
 853      1A
 854 041b 99F193F9 		.ascii	"\231\361\223\371j\334\315\032\233\242N\357#\276\321"
 854      6ADCCD1A 
 854      9BA24EEF 
 854      23BED1
 855 042a B26CD541 		.ascii	"\262l\325A\327\375\301\261\213j\326E,\330\000]\373\343"
ARM GAS  C:\Users\AMANRA~1\AppData\Local\Temp\ccMaxS61.s 			page 68


 855      D7FDC1B1 
 855      8B6AD645 
 855      2CD8005D 
 855      FBE3
 856 043c 1AD35D71 		.ascii	"\032\323]q\037s\304\225\352\2540\027\344\256\0273\361"
 856      1F73C495 
 856      EAAC3017 
 856      E4AE1733 
 856      F1
 857 044d FDB84192 		.ascii	"\375\270A\222\211\017\300\310\016\311H-\2611\234\260"
 857      890FC0C8 
 857      0EC9482D 
 857      B1319CB0 
 858 045d 287D751F 		.ascii	"(}u\037|\245\345\276j\207\3166\350\004\035C\243\203"
 858      7CA5E5BE 
 858      6A87CE36 
 858      E8041D43 
 858      A383
 859 046f 196AFC8C 		.ascii	"\031j\374\214\3518\277g\"\326U\322\221\265\370\002\315"
 859      E938BF67 
 859      22D655D2 
 859      91B5F802 
 859      CD
 860 0480 C46ED0D1 		.ascii	"\304n\320\321)\351x\200\354*\351\262\255\244\315<\036"
 860      29E97880 
 860      EC2AE9B2 
 860      ADA4CD3C 
 860      1E
 861 0491 E78C2799 		.ascii	"\347\214'\231\222\204\302\344\363\202E\311\243\353\357"
 861      9284C2E4 
 861      F38245C9 
 861      A3EBEF
 862 04a0 D4D04C7C 		.ascii	"\324\320L|\010Jz$%\335\366\225\364\332V\022\021\323"
 862      084A7A24 
 862      25DDF695 
 862      F4DA5612 
 862      11D3
 863 04b2 9FE28AC3 		.ascii	"\237\342\212\303\324\324\301\343\335\321u\210\305\330"
 863      D4D4C1E3 
 863      DDD17588 
 863      C5D8
 864 04c0 199A2139 		.ascii	"\031\232!9u\273\334X.\266\322T\035\013\237T\343]\214"
 864      75BBDC58 
 864      2EB6D254 
 864      1D0B9F54 
 864      E35D8C
 865 04d3 B736B2BA 		.ascii	"\2676\262\272A\213\343hC\310\254h\034\307\026tc\232"
 865      418BE368 
 865      43C8AC68 
 865      1CC71674 
 865      639A
 866 04e5 8FD01000 		.ascii	"\217\320\020\000\033|%`\217m\003+\251J\032v\300\007"
 866      1B7C2560 
 866      8F6D032B 
 866      A94A1A76 
 866      C007
 867 04f7 99B24BBB 		.ascii	"\231\262K\273v\367;\340\243\254\321\034\033\221\343"
ARM GAS  C:\Users\AMANRA~1\AppData\Local\Temp\ccMaxS61.s 			page 69


 867      76F73BE0 
 867      A3ACD11C 
 867      1B91E3
 868 0506 84B358E3 		.ascii	"\204\263X\343\312\216\241,G\234\307\032[\236\267\237"
 868      CA8EA12C 
 868      479CC71A 
 868      5B9EB79F 
 869 0516 75C3656A 		.ascii	"u\303ej\253\2115\233M\254\336\320\37465\256b\367\322"
 869      AB89359B 
 869      4DACDED0 
 869      FC3635AE 
 869      62F7D2
 870 0529 36DD3FE1 		.ascii	"6\335?\341\000\367\346B&!Y\321\233\313\212^F\376\360"
 870      00F7E642 
 870      262159D1 
 870      9BCB8A5E 
 870      46FEF0
 871 053c 6935BEC3 		.ascii	"i5\276\303lK?}\377+Y\006-\330D\035?\011\366MH\366\315"
 871      6C4B3F7D 
 871      FF2B5906 
 871      2DD8441D 
 871      3F09F64D 
 872 0553 E5E68598 		.ascii	"\345\346\205\230\315\207\315x\216\012-\231\213\026\201"
 872      CD87CD78 
 872      8E0A2D99 
 872      8B1681
 873 0562 712FC0B8 		.ascii	"q/\300\270\271\334\270q0n\214\031w\342\340\361\253."
 873      B9DCB871 
 873      306E8C19 
 873      77E2E0F1 
 873      AB2E
 874 0574 B8992968 		.ascii	"\270\231)h>\375\350\006\226\345\317\233\347i\376\004"
 874      3EFDE806 
 874      96E5CF9B 
 874      E769FE04 
 875 0584 0B049C45 		.ascii	"\013\004\234E\303$\262\243\302,\330T\021\262\247\372"
 875      C324B2A3 
 875      C22CD854 
 875      11B2A7FA 
 876 0594 9423EE64 		.ascii	"\224#\356d*B\212w\336\322\211\365\300zx\230\215\341"
 876      2A428A77 
 876      DED289F5 
 876      C07A7898 
 876      8DE1
 877 05a6 62922D62 		.ascii	"b\222-b\345.\024\220\204\010\026$\000\214\225\204\230"
 877      E52E1490 
 877      84081624 
 877      008C9584 
 877      98
 878 05b7 F8CE3978 		.ascii	"\370\3169x\200y4\"r2\015\343'L]\377\366\343\231Z\333"
 878      80793422 
 878      72320DE3 
 878      274C5DFF 
 878      F6E3995A 
 879 05cc EAC2EDAA 		.ascii	"\352\302\355\252\273\015Y\263\0054m\266\241\251i\377"
 879      BB0D59B3 
 879      05346DB6 
ARM GAS  C:\Users\AMANRA~1\AppData\Local\Temp\ccMaxS61.s 			page 70


 879      A1A969FF 
 880 05dc A361359E 		.ascii	"\243a5\236`\252\216\024\245\335\322\341\020\272*\012"
 880      60AA8E14 
 880      A5DDD2E1 
 880      10BA2A0A 
 881 05ec 754F2BF6 		.ascii	"uO+\366H\363\242\036dD\202\214mJ\0316\220D\330\366\333"
 881      48F3A21E 
 881      6444828C 
 881      6D4A1936 
 881      9044D8F6 
 882 0601 5874EC12 		.ascii	"Xt\354\022\034\301\226\334\376\2437\316\221\232\347"
 882      1CC196DC 
 882      FEA337CE 
 882      919AE7
 883 0610 AE477F96 		.ascii	"\256G\177\226e\211;\313\222\304]\355\373\034\361n\206"
 883      65893BCB 
 883      92C45DED 
 883      FB1CF16E 
 883      86
 884 0621 23EE69C6 		.ascii	"#\356i\306\270eI9\033j~-\330C\2052A\354E\222\343\273"
 884      B8654939 
 884      1B6A7E2D 
 884      D8438532 
 884      41EC4592 
 885 0637 41973BD7 		.ascii	"A\227;\327\265C\230\213\266\013\322\342\370\217\373"
 885      B543988B 
 885      B60BD2E2 
 885      F88FFB
 886 0646 E9E2B80B 		.ascii	"\351\342\270\013`\357\224`\273s\313\267\204\035\337"
 886      60EF9460 
 886      BB73CBB7 
 886      841DDF
 887 0655 E184F733 		.ascii	"\341\204\3673%\321;\332\033t\362JSJ3%\006\206\356\221"
 887      25D13BDA 
 887      1B74F24A 
 887      534A3325 
 887      0686EE91 
 888 0669 86EE922C 		.ascii	"\206\356\222,\236\006$\332\006\0202\245\322\032\256"
 888      9E0624DA 
 888      061032A5 
 888      D21AAE
 889 0678 AA710AD3 		.ascii	"\252q\012\323\362tk\177\222}Sb\355\233r\0067\025m3\233"
 889      F2746B7F 
 889      927D5362 
 889      ED9B7206 
 889      37156D33 
 890 068d D5681F00 		.ascii	"\325h\037\000\332+\001\212\021\303\230\035\3714\314"
 890      DA2B018A 
 890      11C3981D 
 890      F934CC
 891 069c C9799B65 		.ascii	"\311y\233eQ\242\214b!P\2418\301\231oaB\332/\326 |\237"
 891      51A28C62 
 891      2150A138 
 891      C1996F61 
 891      42DA2FD6 
 892 06b3 45E1EEF3 		.ascii	"E\341\356\363\313c\316\270\2076\324\247BO\016\252\221"
 892      CB63CEB8 
ARM GAS  C:\Users\AMANRA~1\AppData\Local\Temp\ccMaxS61.s 			page 71


 892      8736D4A7 
 892      424F0EAA 
 892      91
 893 06c4 FB5C04A3 		.ascii	"\373\\\004\243\020s\004\331\001\251\320A\020\225 `q"
 893      107304D9 
 893      01A9D041 
 893      10952060 
 893      71
 894 06d5 8F166F06 		.ascii	"\217\026o\006\370\203\177&\335p\355@\277m$A\"XCn\251"
 894      F8837F26 
 894      DD70ED40 
 894      BF6D2441 
 894      2258436E 
 895 06ea D001B065 		.ascii	"\320\001\260e?\363Fzb\331\250\243\236s\207\177\027w"
 895      3FF3467A 
 895      62D9A8A3 
 895      9E73877F 
 895      1777
 896 06fc DBF3A9AB 		.ascii	"\333\363\251\253\316r\243\222\254\214:d1\252\2402\364"
 896      CE72A392 
 896      AC8C3A64 
 896      31AAA032 
 896      F4
 897 070d 84131E60 		.ascii	"\204\023\036`F\265\2778t_\207\237\260\306\363\330\362"
 897      46B5BF38 
 897      745F879F 
 897      B0C6F3D8 
 897      F2
 898 071e 232E788C 		.ascii	"#.x\2145v\237\272Y\253\305\223\254!\226\340\231\274"
 898      35769FBA 
 898      59ABC593 
 898      AC2196E0 
 898      99BC
 899 0730 04379F99 		.ascii	"\0047\237\231\314\325\342`-\275y\260\361\361i\035\016"
 899      CCD5E260 
 899      2DBD79B0 
 899      F1F1691D 
 899      0E
 900 0741 A30DA166 		.ascii	"\243\015\241f\252\273\033\312\266\273\014\310\037_\227"
 900      AABB1BCA 
 900      B6BB0CC8 
 900      1F5F97
 901 0750 AAEC4980 		.ascii	"\252\354I\200\356\351\314#\302\3425\220\370F\260\331"
 901      EEE9CC23 
 901      C2E23590 
 901      F846B0D9 
 902 0760 8CD009C1 		.ascii	"\214\320\011\301\031\035\227\242\345\351\314\267\221"
 902      191D97A2 
 902      E5E9CCB7 
 902      91
 903 076d 6D31797C 		.ascii	"m1y|\301\277G\332\255!%\325\0168\212\251~<pg\302\005"
 903      C1BF47DA 
 903      AD2125D5 
 903      0E388AA9 
 903      7E3C7067 
 904 0783 EF628DEA 		.ascii	"\357b\215\352\316Ca|\203y\223\356\265F\257\324kq\014"
 904      CE43617C 
ARM GAS  C:\Users\AMANRA~1\AppData\Local\Temp\ccMaxS61.s 			page 72


 904      837993EE 
 904      B546AFD4 
 904      6B710C
 905 0796 BBD910F3 		.ascii	"\273\331\020\363\274\325\021\307\262FD\361\205\022\276"
 905      BCD511C7 
 905      B24644F1 
 905      8512BE
 906 07a5 6D2E23ED 		.ascii	"m.#\355\262\273\021yj\234\300n\036\253h5k\360\001\326"
 906      B2BB1179 
 906      6A9CC06E 
 906      1EAB6835 
 906      6BF001D6 
 907 07b9 C8DD5631 		.ascii	"\310\335V1\341\200\017\261\006\333\022\037a\215\232"
 907      E1800FB1 
 907      06DB121F 
 907      618D9A
 908 07c8 6BF5DB9C 		.ascii	"k\365\333\234\3601\326("
 908      F031D628 
 909 07d0 BC9B5CA5 		.ascii	"\274\233\\\245\301\251\254\261g\370\371)\204\323X\343"
 909      C1A9ACB1 
 909      67F8F929 
 909      84D358E3 
 910 07e0 C1B9864A 		.ascii	"\301\271\206J\035>\317\032I\227Z\312\2658\2235\206J"
 910      1D3ECF1A 
 910      49975ACA 
 910      B5389335 
 910      864A
 911 07f2 13D7E31C 		.ascii	"\023\327\343\034v\035\236Q\277[\217\363X\343pv_\001"
 911      761D9E51 
 911      BF5B8FF3 
 911      58E37076 
 911      5F01
 912 0804 C645AC31 		.ascii	"\306E\2541\266%=\322\021\227\262F\327\265\250%\270\202"
 912      B6253DD2 
 912      1197B246 
 912      D7B5A825 
 912      B882
 913 0816 5D27F64C 		.ascii	"]'\366L\231p\025\273>\325\221sE\207\253Y#\2669=L\215"
 913      997015BB 
 913      3ED59173 
 913      4587AB59 
 913      23B6393D 
 914 082c 6B59A3F6 		.ascii	"kY\243\366\300\330\230\023n`\215\226\250\346\337\341"
 914      C0D89813 
 914      6E608D96 
 914      A8E6DFE1 
 915 083c 16769D57 		.ascii	"\026v\235W\263m\302\031w\260F\352\324\360\016g\334\305"
 915      B36DC219 
 915      77B046EA 
 915      D4F00E67 
 915      DCC5
 916 084e 1AD70E3F 		.ascii	"\032\327\016?+\344\273\273\373\244=\232\376\370\211"
 916      2BE4BBBB 
 916      FBA43D9A 
 916      FEF889
 917 085d 035BC092 		.ascii	"\003[\300\222\264\321\370\357\267\2464f#4\237|f\315"
 917      B4D1F8EF 
ARM GAS  C:\Users\AMANRA~1\AppData\Local\Temp\ccMaxS61.s 			page 73


 917      B7A63466 
 917      23349F7C 
 917      66CD
 918 086f B7FEB8D3 		.ascii	"\267\376\270\323\277\311$\364\371-\315\2701u[\2249\251"
 918      BFC924F4 
 918      F92DCDB8 
 918      31755B94 
 918      39A9
 919 0881 9085F602 		.ascii	"\220\205\366\002\204\366\2060KJ\205\3134/=\340\217\212"
 919      84F68630 
 919      4B4A85CB 
 919      342F3DE0 
 919      8F8A
 920 0893 8DB8B632 		.ascii	"\215\270\2662\336\234\037\206)w\236\222;K\311]\370\037"
 920      DE9C1F86 
 920      29779E92 
 920      3B4BC95D 
 920      F81F
 921 08a5 12779692 		.ascii	"\022w\226\222\3736\345\316@\022{\375\037$\366SJ\366"
 921      FB36E5CE 
 921      40127BFD 
 921      1F24F653 
 921      4AF6
 922 08b7 5441C9DE 		.ascii	"TA\311\336+\223\236a\0339c\337Erx'\020<\025\2422\230"
 922      2B939E61 
 922      1B3963DF 
 922      45727827 
 922      103C15A2 
 923 08cd 8EA5200B 		.ascii	"\216\245 \013\225\360!\220\313\250\031R\276U\230\217"
 923      95F02190 
 923      CBA81952 
 923      BE55988F 
 924 08dd EA816E01 		.ascii	"\352\201n\001\325\000u\0005\002]\003\272\013\324\002"
 924      D5007500 
 924      35025D03 
 924      BA0BD402 
 925 08ed 7413E81E 		.ascii	"t\023\350\036P\023P\003P\005P-\320m\240r\240J\240*\240"
 925      50135003 
 925      5005502D 
 925      D06DA072 
 925      A04AA02A 
 926 0902 3B40D540 		.ascii	";@\325@u@\355@\327\201\332\204\371\264\3340\360C2\360"
 926      7540ED40 
 926      D781DA84 
 926      F9B4DC30 
 926      F04332F0 
 927 0916 E795E0D3 		.ascii	"\347\225\340\323\005\205#\333en\317Ur_\230\346\310\336"
 927      058523DB 
 927      656ECF55 
 927      725F98E6 
 927      C8DE
 928 0928 DF4BEC45 		.ascii	"\337K\354EJ\366\213\312(\335\226A\271\250\344\2762M"
 928      4AF68BCA 
 928      28DD9641 
 928      B9A8E4BE 
 928      324D
 929 093a 78A12C4A 		.ascii	"x\241,Jg\225\354g\224\310\307d\302\317\331\266S.\374"
ARM GAS  C:\Users\AMANRA~1\AppData\Local\Temp\ccMaxS61.s 			page 74


 929      6795EC67 
 929      94C8C764 
 929      C2CFD9B6 
 929      532EFC
 930 094d B6CCD02B 		.ascii	"\266\314\320+\266\363K\316>$3\264\320\266\241r\366k"
 930      B6F34BCE 
 930      3E2433B4 
 930      D0B6A172 
 930      F66B
 931 095f 323099B6 		.ascii	"20\231\266-\225A\357\225a\311Qr\327N\233\0312\267\244"
 931      2D9541EF 
 931      9561C951 
 931      72D74E9B 
 931      1932B7A4 
 932 0973 D9768B1C 		.ascii	"\331v\213\034J\273\014\371U%\373B%\367\230\014\312%"
 932      4ABB0CF9 
 932      5525FB42 
 932      25F7980C 
 932      CA25
 933 0985 DB13493E 		.ascii	"\333\023I>\355d\334\371J\356\252\351N\224\261g\333\266"
 933      ED64DCF9 
 933      4AEEAAE9 
 933      4E94B167 
 933      DBB6
 934 0997 93B1B3B5 		.ascii	"\223\261\263\265\340F\303\014\272\026\000\233\212/\004"
 934      E046C30C 
 934      BA16009B 
 934      8A2F04
 935 09a6 525A3737 		.ascii	"RZ77\316L\0165\227-\242\302.\333\316T\031\322z\231\027"
 935      CE4C0E35 
 935      972DA2C2 
 935      2EDBCE54 
 935      19D27A99 
 936 09bb 8A6D7A41 		.ascii	"\212mzA>\011d\036>\246dNQ&\336m\031\367i\333\305D\236"
 936      3E09641E 
 936      3EA6644E 
 936      5126DE6D 
 936      19F769DB 
 937 09d2 A6322005 		.ascii	"\2462 \005\266]F\271\241\326\326%\356\317v\221/\342"
 937      B65D46B9 
 937      A1D6D625 
 937      EECF7691 
 937      2FE2
 938 09e4 725E780C 		.ascii	"r^x\014\264,\342\315\271\311#.\370\244\216Tl<8y\260"
 938      B42CE2CD 
 938      B9C9232E 
 938      F8A48E54 
 938      6C3C3879 
 939 09f9 4583DC67 		.ascii	"E\203\334g\315\267l\200\3426m&\033\240.k7\356\342\317"
 939      CDB76C80 
 939      E2366D26 
 939      1BA02E6B 
 939      37EEE2CF 
 940 0a0d 3DB45659 		.ascii	"=\264VY\020<\000H]\274VuB\255\352\266\252%5'\336`N\007"
 940      103C0048 
 940      5DBC5675 
 940      42ADEAB6 
ARM GAS  C:\Users\AMANRA~1\AppData\Local\Temp\ccMaxS61.s 			page 75


 940      AA253527 
 941 0a25 DDE82867 		.ascii	"\335\350(g\265\341F\262\212\204t\365c\234I1\241\207"
 941      B5E146B2 
 941      8A8474F5 
 941      639C4931 
 941      A187
 942 0a37 9DA93502 		.ascii	"\235\2515\002\316e\215\304\226\302f\276\206_%\355\213"
 942      CE658DC4 
 942      96C266BE 
 942      865F25ED 
 942      8B
 943 0a48 2DD15B9D 		.ascii	"-\321[\235\371\222B\316\255\272\236=\253\321\342\022"
 943      F99242CE 
 943      ADBA9E3D 
 943      ABD1E212 
 944 0a58 C67C7EEA 		.ascii	"\306|~\352\304f\214\257\263\306\325\216\3522\015\276"
 944      C4668CAF 
 944      B3C6D58E 
 944      EA320DBE 
 945 0a68 CB1A4985 		.ascii	"\313\032I\205m\357\342Nv\235\035\223\013\217b\017i\343"
 945      6DEFE24E 
 945      769D1D93 
 945      0B8F620F 
 945      69E3
 946 0a7a C7497BFA 		.ascii	"\307I{\372R\335\320\254\371\316\263\310\222\344L/\346"
 946      52DDD0AC 
 946      F9CEB3C8 
 946      92E44C2F 
 946      E6
 947 0a8b 936B77F8 		.ascii	"\223kw\370\220u\012\376\316\236O\357\2205\312\331\331"
 947      90750AFE 
 947      CE9E4FEF 
 947      9035CAD9 
 947      D9
 948 0a9c DDB258B1 		.ascii	"\335\262X\261u\313\335\266k\352\341\271g\210\273&\012"
 948      75CBDDB6 
 948      6BEAE1B9 
 948      6788BB26 
 948      0A
 949 0aad BBA3612B 		.ascii	"\273\243a+\327\264L\341\027E\333\331\012\367\204\344"
 949      D7B44CE1 
 949      1745DBD9 
 949      0AF784E4 
 950 0abd 37E7B6E1 		.ascii	"7\347\266\341\035YD\237ZE\224\214c\001\262ZH\372`!y"
 950      1D59449F 
 950      5A45948C 
 950      6301B25A 
 950      48FA6021 
 951 0ad2 481692D3 		.ascii	"H\026\222\323\240u\204#8\005\327\251x>:\011t\002\350"
 951      A0758423 
 951      3805D7A9 
 951      783E3A09 
 951      7402E8
 952 0ae5 38D031A0 		.ascii	"8\3201\240\024\240\243@G\200\016\003%\003\355\000\212"
 952      14A0A340 
 952      47800E03 
 952      2503ED00 
ARM GAS  C:\Users\AMANRA~1\AppData\Local\Temp\ccMaxS61.s 			page 76


 952      8A
 953 0af6 00DA06B4 		.ascii	"\000\332\006\264\025h\024\026\211\347@\317\254\027\212"
 953      15681416 
 953      89E740CF 
 953      AC178A
 954 0b05 5FB0CC84 		.ascii	"_\260\314\204\035Y?\204v\304\316\362l\033Z/\037\361"
 954      1D593F84 
 954      76C4CEF2 
 954      6C1B5A2F 
 954      1FF1
 955 0b17 B7813659 		.ascii	"\267\2016Y1\3630\315;r\310\225\207\024\340\246\257\034"
 955      31F330CD 
 955      3B72C895 
 955      8714E0A6 
 955      AF1C
 956 0b29 CD15B319 		.ascii	"\315\025\263\031\377\030x\264\3026\2772\024\343V\241"
 956      FF1878B4 
 956      C236BF32 
 956      14E356A1 
 957 0b39 186393CB 		.ascii	"\030c\223\313\312\330\233p\227\314Pt\013$\216sc\267"
 957      CAD89B70 
 957      97CC5074 
 957      0B248E73 
 957      63B7
 958 0b4b 80B16600 		.ascii	"\200\261f\000>\005\240'\254@?\214\324Lf\230\315[\265"
 958      3E05A027 
 958      AC403F8C 
 958      D44C6698 
 958      CD5BB5
 959 0b5e E805CF87 		.ascii	"\350\005\317\207q{\213\206\014\306\244\025\214\027/"
 959      717B8B86 
 959      0CC6A415 
 959      8C172F
 960 0b6d 83110EAA 		.ascii	"\203\021\016\252\277\033F\3731l>2\207\346\326u\333\030"
 960      BF1B46FB 
 960      316C3E32 
 960      87E6D675 
 960      DB18
 961 0b7f C4EA04D5 		.ascii	"\304\352\004\325\242f\237.\230&A0\236\205*9\273\345"
 961      A2669F2E 
 961      98264130 
 961      9E852A39 
 961      BBE5
 962 0b91 316BA1ED 		.ascii	"1k\241\355$\260\334\337\014 B1\003\264\011\256\303\000"
 962      24B0DCDF 
 962      0C204231 
 962      03B409AE 
 962      C300
 963 0ba3 500856CC 		.ascii	"P\010V\314\222\250b\331,\031\204\264!#l-H\266u<\342"
 963      92A862D9 
 963      2C1984B4 
 963      21236C2D 
 963      48B6753C 
 964 0bb8 23ECEB68 		.ascii	"#\354\353hwgy,\316\302\351\362=\2445\246\3718[c\200"
 964      7767792C 
 964      CEC2E9F2 
 964      3DA435A6 
ARM GAS  C:\Users\AMANRA~1\AppData\Local\Temp\ccMaxS61.s 			page 77


 964      F9385B63 
 965 0bcd 495E1CD9 		.ascii	"I^\034\331\315\2218M\324\341\335\244v\022w<\226\036"
 965      CD91384D 
 965      D4E1DDA4 
 965      7612773C 
 965      961E
 966 0bdf 4708B7C8 		.ascii	"G\010\267\310\364(R3z\226<,\217\0136Dt\356\325\301\223"
 966      F4285233 
 966      7A963C2C 
 966      8F0B3644 
 966      74EED5C1 
 967 0bf4 208DEA0D 		.ascii	" \215\352\015\351\334\204\260\212p\033\246\360\251\362"
 967      E9DC84B0 
 967      8A701BA6 
 967      F0A9F2
 968 0c03 CDE69D5E 		.ascii	"\315\346\235^\364\224\263Z\231\254\212\315+\210\034"
 968      F494B35A 
 968      99AC8ACD 
 968      2B881C
 969 0c12 5A2185E8 		.ascii	"Z!\205\350\036g\267\270\247v\032{\341\012\346\216H`"
 969      1E67B7B8 
 969      A7761A7B 
 969      E10AE68E 
 969      4860
 970 0c24 AF534AAF 		.ascii	"\257SJ\257U\314\353iEo;\270\330V\321\343\326\035d\336"
 970      55CCEB69 
 970      456F3BB8 
 970      D856D1E3 
 970      D61D64DE 
 971 0c38 1BB2653A 		.ascii	"\033\262e:xorg08\206hn\220\214\037\022\2157\323|\210"
 971      786F7267 
 971      30388668 
 971      6E908C1F 
 971      128D37D3 
 972 0c4e 38C1F361 		.ascii	"8\301\363a'\236\215\032\225\000\345[\316\335\266\020"
 972      279E8D1A 
 972      9500E55B 
 972      CEDDB610 
 973 0c5e AAE83802 		.ascii	"\252\3508\002\357\020\300K\202l8\010t\000(\036(\016"
 973      EF10C04B 
 973      826C3808 
 973      7400281E 
 973      280E
 974 0c70 680FD06E 		.ascii	"h\017\320n\240]VYr\355\347\314-\304\351M\240\225H\261"
 974      A05D5659 
 974      72EDE7CC 
 974      2DC4E94D 
 974      A09548B1 
 975 0c84 BB21B891 		.ascii	"\273!\270\221'\253'\315\337\305]\370!\023\035\215\235"
 975      27AB27CD 
 975      DFC55DF8 
 975      21131D8D 
 975      9D
 976 0c95 518B7D66 		.ascii	"Q\213}f\331\244\217\301\362I\017\343\246M\372\001\270"
 976      D9A48FC1 
 976      F2490FE3 
 976      A64DFA01 
ARM GAS  C:\Users\AMANRA~1\AppData\Local\Temp\ccMaxS61.s 			page 78


 976      B8
 977 0ca6 DB4FC6F7 		.ascii	"\333O\306\367\201\300\030\236\377\261`\361>\260l\257"
 977      81C0189E 
 977      FFB160F1 
 977      3EB06CAF 
 978 0cb6 6419F8B4 		.ascii	"d\031\370\264\353\240\346\321P\267\331\274\333\231\236"
 978      EBA0E6D1 
 978      50B7D9BC 
 978      DB999E
 979 0cc5 C4B6F201 		.ascii	"\304\266\362\001\366'}\357\353\244@\2103\236\360\332"
 979      F6277DEF 
 979      EBA44088 
 979      339EF0DA 
 980 0cd5 98F13CE0 		.ascii	"\230\361<\340\2335$\235c\260rG\306bYu\214\307\222\234"
 980      9B35249D 
 980      63B07247 
 980      C6625975 
 980      8CC7929C 
 981 0ce9 B43EFA2E 		.ascii	"\264>\372.?\325\344r\257&\200\243\206_\311Q\211\300"
 981      3FD5E472 
 981      AF2680A3 
 981      865FC951 
 981      89C0
 982 0cfb 29392A81 		.ascii	")9*\2019\312\316z\212\366\203{\244%\325\222\224\243"
 982      39CACE7A 
 982      8AF6837B 
 982      A425D592 
 982      94A3
 983 0d0d F7C86C25 		.ascii	"\367\310l%\222\236HI\371\204\026ZK\221\312)\345\206"
 983      929E4849 
 983      F984165A 
 983      4B91CA29 
 983      E586
 984 0d1f C062F8F4 		.ascii	"\300b\370\364\245v\020\247d\363\325\211X\375\354\273"
 984      A57610A7 
 984      64F3D589 
 984      58FDECBB 
 985 0d2f B87B3F60 		.ascii	"\270{?`\331A\230G\35433\270\317\262\264\304\337\300"
 985      D9419847 
 985      EC3333B8 
 985      CFB2B4C4 
 985      DFC0
 986 0d41 337D075C 		.ascii	"3}\007\\sffh\2509v\021=\012\035\345\023\207\037\012"
 986      73666668 
 986      A8397611 
 986      3D0A1DE5 
 986      13871F0A 
 987 0d55 B169F35C 		.ascii	"\261i\363\\\376\244\366n\2549?\030\323\323\314M\202"
 987      FEA4F66E 
 987      AC393F18 
 987      D3D3CC4D 
 987      82
 988 0d66 0DE625B2 		.ascii	"\015\346%\262'\014\316KN-\267\332\342\225\005\261\363"
 988      270CCE4B 
 988      4E2DB7DA 
 988      E29505B1 
 988      F3
ARM GAS  C:\Users\AMANRA~1\AppData\Local\Temp\ccMaxS61.s 			page 79


 989 0d77 140F621C 		.ascii	"\024\017b\034x:J\271o\230\376 U\377O\314\374C\300\036"
 989      783A4AB9 
 989      6F98FE20 
 989      55FF4FCC 
 989      FC43C01E 
 990 0d8b 6F9B5DBE 		.ascii	"o\233]\276\023\377\201T\313\223\225\334\323\0370\352"
 990      13FF8154 
 990      CB9395DC 
 990      D31F30EA 
 991 0d9b 65EC876D 		.ascii	"e\354\207m\263\313\"q\343$\217\033\331\305\036Q\262"
 991      B3CB2271 
 991      E3248F1B 
 991      D9C51E51 
 991      B2
 992 0dac 4F7FA82B 		.ascii	"O\177\250+\344\322\311&\244\3076\273L\372\330\333\326"
 992      E4D2C926 
 992      A4C736BB 
 992      4CFAD8DB 
 992      D6
 993 0dbd 2BE988ED 		.ascii	"+\351\210\355\225\224\307\371\004+\244#v\012i\337\023"
 993      9594C7F9 
 993      042BA423 
 993      760A69DF 
 993      13
 994 0dce 92B324BB 		.ascii	"\222\263$\273\007\244Uh\204\026Rrx\324\233\334\346\206"
 994      07A45568 
 994      84165272 
 994      78D49BDC 
 994      E686
 995 0de0 8F3AB29F 		.ascii	"\217:\262\237\252\212\253cu8\2256\324\011W/\0168!Gv"
 995      AA8AAB63 
 995      75389536 
 995      D409572F 
 995      0E382147 
 996 0df5 32E9BE85 		.ascii	"2\351\276\205\236\036\206\356\234\201,\247\207\347a"
 996      9E1E86EE 
 996      9C812CA7 
 996      87E761
 997 0e04 8E9CC58E 		.ascii	"\216\234\305\216 -\035\317E\347\360\\z0Iz\350a\345\014"
 997      202D1DCF 
 997      45E7F05C 
 997      7A30497A 
 997      E861E50C 
 998 0e18 7A293BD1 		.ascii	"z);\321\204&J\303\226\023M\331\317\265_L\377\271\366"
 998      84264AC3 
 998      96134DD9 
 998      CFB55F4C 
 998      FFB9F6
 999 0e2b 0B76267D 		.ascii	"\013v&}d\364Q\2463N\247\210\204\312\233#\331\016\366"
 999      64F451A6 
 999      334EA788 
 999      84CA9B23 
 999      D90EF6
 1000 0e3e 7E05CC02 		.ascii	"~\005\314\0024_\360s\334\013\200'\003\213\347\270\245"
 1000      345FF073 
 1000      DC0B8027 
 1000      038BE7B8 
ARM GAS  C:\Users\AMANRA~1\AppData\Local\Temp\ccMaxS61.s 			page 80


 1000      A5
 1001 0e4f 696F6575 		.ascii	"ioeuE\220\2458\023\353\321Elq\302\027\374\030wrs\256"
 1001      4590A538 
 1001      13EBD145 
 1001      6C71C217 
 1001      FC187772 
 1002 0e65 D915EF67 		.ascii	"\331\025\357g\032[\263J{\\\345ONd\262Iu#\033\213ON\207"
 1002      1A5BB34A 
 1002      7B5CE54F 
 1002      4E64B249 
 1002      75231B8B 
 1003 0e7c 1EA69FD6 		.ascii	"\036\246\237\326\340\303lT\321\246M\277\301'\330\365"
 1003      E0C36C54 
 1003      D1A64DBF 
 1003      C127D8F5 
 1004 0e8c B1B09C3A 		.ascii	"\261\260\234:G|\2325v\334<\330\300\017\275\362\005r"
 1004      477C9A35 
 1004      76DC3CD8 
 1004      C00FBDF2 
 1004      0572
 1005 0e9e C0579290 		.ascii	"\300W\222\220\246\303\031\364\246\276\351\362\323\355"
 1005      A6C319F4 
 1005      A6BEE9F2 
 1005      D3ED
 1006 0eac 7AC44FBC 		.ascii	"z\304O\274f\211\007^S74\375OX\021\006m\3502\000.\265"
 1006      6689075E 
 1006      533734FD 
 1006      4F581106 
 1006      6DE83200 
 1007 0ec2 BD0FE18F 		.ascii	"\275\017\341\217\205)t\227Fxsm\362\312\227\364\001\371"
 1007      85297497 
 1007      4678736D 
 1007      F2CA97F4 
 1007      01F9
 1008 0ed4 2EED1262 		.ascii	".\355\022b\354\226\334\2326\211j\216\351X\342\022\351"
 1008      EC96DC9A 
 1008      36896A8E 
 1008      E958E212 
 1008      E9
 1009 0ee5 9794D2A7 		.ascii	"\227\224\322\247\347y\363>\316O\\\335\212\024\374\262"
 1009      E779F33E 
 1009      CE4F5CDD 
 1009      8A14FCB2 
 1010 0ef5 69246E71 		.ascii	"i$nq0\251Q\245\266\326\204gr\244yX\201TVL\254\026\273"
 1010      30A951A5 
 1010      B6D68467 
 1010      72A47958 
 1010      8154564C 
 1011 0f0c 2B107AB6 		.ascii	"+\020z\2663)\345+]1$F>\254t\005@e@E@W\201\312\201\012"
 1011      3329E52B 
 1011      5D312446 
 1011      3EAC7405 
 1011      40654045 
 1012 0f26 814AACD6 		.ascii	"\201J\254\326\366\033r\203sl\033,/a\373t\254\336\221"
 1012      F61B7283 
 1012      736C1B2C 
 1012      2F61FB74 
ARM GAS  C:\Users\AMANRA~1\AppData\Local\Temp\ccMaxS61.s 			page 81


 1012      ACDE91
 1013 0f39 E43EC3D9 		.ascii	"\344>\303\331\371\374\220\327\030\222X[#\3178\343N\032"
 1013      F9FC90D7 
 1013      1892585B 
 1013      23CF38E3 
 1013      4E1A
 1014 0f4b 792131E1 		.ascii	"y!1\341\351\003\027x\322fn\230\\J\274p\035\206^\223"
 1014      E9031778 
 1014      D2666E98 
 1014      5C4ABC70 
 1014      1D865E93 
 1015 0f5f B2B3946E 		.ascii	"\262\263\224n\024m\032\207*\300\246\277\324>\200p\341"
 1015      146D1A87 
 1015      2AC0A6BF 
 1015      D43E8070 
 1015      E1
 1016 0f70 DCB177E4 		.ascii	"\334\261w\344\251}\335j\357P\311R\233|\223\211\230\224"
 1016      A97DDD6A 
 1016      EF50C952 
 1016      9B7C9389 
 1016      9894
 1017 0f82 715B2F67 		.ascii	"q[/g\016\266b\276\301\231oP\346g\345\373R]\360 \263"
 1017      0EB662BE 
 1017      C1996F50 
 1017      E667E5FB 
 1017      525DF020 
 1018 0f97 2D7E34B7 		.ascii	"-~4\267\310\356+\017\267"
 1018      C8EE2B0F 
 1018      B7
 1019 0fa0 B0BD1FEB 		.ascii	"\260\275\037\353GZ4\243\354\347\226\233\220;UX\361\223"
 1019      475A34A3 
 1019      ECE7969B 
 1019      903B5558 
 1019      F193
 1020 0fb2 3DE9258F 		.ascii	"=\351%\217\353\005\227\363\234Z`\333E\336e\231A\015"
 1020      EB0597F3 
 1020      9C5A60DB 
 1020      45DE6599 
 1020      410D
 1021 0fc4 4388FD85 		.ascii	"C\210\375\205oB\264=%~\020\353\207^\201}qV\322\020\207"
 1021      6F42B43D 
 1021      257E10EB 
 1021      875E817D 
 1021      7156D210 
 1022 0fd9 204B8FC0 		.ascii	" K\217\300e\010\242\\\372\217\013@r\251\354>S'~T\214"
 1022      6508A25C 
 1022      FA8F0B40 
 1022      72A9EC3E 
 1022      53277E54 
 1023 0fee 9FE191C6 		.ascii	"\237\341\221\306\261.AR&\0332\015\253\312r\333\002J"
 1023      B12E4152 
 1023      261B320D 
 1023      ABCA72DB 
 1023      024A
 1024 1000 3212F138 		.ascii	"2\022\36186\246\015\226iZa7\0115\314U\265\323\301\237"
 1024      36A60D96 
 1024      695A6137 
ARM GAS  C:\Users\AMANRA~1\AppData\Local\Temp\ccMaxS61.s 			page 82


 1024      0935CC55 
 1024      B5D3C19F 
 1025 1014 969AA97D 		.ascii	"\226\232\251}\275ez|\334\211\235\224\334\217\332\256"
 1025      BD657A7C 
 1025      DC899D94 
 1025      DC8FDAAE 
 1026 1024 212F06D1 		.ascii	"!/\006\321\231\030\240&}\007.\026\224\260>\222\334w"
 1026      9918A026 
 1026      7D072E16 
 1026      94B03E92 
 1026      DC77
 1027 1036 31EDECDB 		.ascii	"1\355\354\333\322\320\243\243\235\020wT\303:\213\247"
 1027      D2D0A3A3 
 1027      9D107754 
 1027      C33A8BA7 
 1028 1046 46F2F9CF 		.ascii	"F\362\371\3174\244he\234\354\271\205\347\354\245\251"
 1028      34A46865 
 1028      9CECB985 
 1028      E7ECA5A9 
 1029 1056 186A9E21 		.ascii	"\030j\236!\220_b`\203\200\356a\222\012ux\016\374\255"
 1029      905F6260 
 1029      8380EE61 
 1029      920A7578 
 1029      0EFCAD
 1030 1069 C56A06AE 		.ascii	"\305j\006\2566\276u\014\277\231dnm\205R6\240I+\3521"
 1030      36BE750C 
 1030      BF99646E 
 1030      6D855236 
 1030      A0492BEA 
 1031 107e 9BF56AC2 		.ascii	"\233\365j\302\205\356HA\275C\026\002T\215[\021\272\215"
 1031      85EE4841 
 1031      BD431602 
 1031      548D5B11 
 1031      BA8D
 1032 1090 5BC0907A 		.ascii	"[\300\220z\374&\014.o\230\212q\306\355\314\206{\367"
 1032      FC260C2E 
 1032      6F988A71 
 1032      C6EDCC86 
 1032      7BF7
 1033 10a2 06375A90 		.ascii	"\0067Z\2201\023&\313\257>u\260\213\244\211\"i\024\221"
 1033      311326CB 
 1033      AF3E75B0 
 1033      8BA48922 
 1033      691491
 1034 10b5 4C8EDD99 		.ascii	"L\216\335\231\303\201\364\222\007;X\300\314\002aB\015"
 1034      C381F492 
 1034      073B58C0 
 1034      CC026142 
 1034      0D
 1035 10c6 12900625 		.ascii	"\022\220\006%\220f\012dS\303\205>\214\373\031\220\355"
 1035      90660A64 
 1035      53C3853E 
 1035      8CFB1990 
 1035      ED
 1036 10d7 83852D6A 		.ascii	"\203\205-j\220\224\004\222\256\275a%\251E\222\324\242"
 1036      90940492 
 1036      AEBD6125 
ARM GAS  C:\Users\AMANRA~1\AppData\Local\Temp\ccMaxS61.s 			page 83


 1036      A94592D4 
 1036      A2
 1037 10e8 94D44A25 		.ascii	"\224\324J%\245\206\366g\351\361\010\223t\344F\312\204"
 1037      A586F667 
 1037      E9F10893 
 1037      74E446CA 
 1037      84
 1038 10f9 1BB5E9A6 		.ascii	"\033\265\351\246%,O\253\213\323XX\310R\323\316\"\320"
 1038      252C4FAB 
 1038      8BD35858 
 1038      C852D3CE 
 1038      22D0
 1039 110b 5F3DB15B 		.ascii	"_=\261[c1\276\203u\356*<\334fe=\031 \231\377\200\232"
 1039      6331BE83 
 1039      75EE2A3C 
 1039      DC66653D 
 1039      192099FF 
 1040 1121 7F5F343F 		.ascii	"\177_4?\274\276i\233\033\267\277&\313\325\002\033\330"
 1040      BCBE699B 
 1040      1BB7BF26 
 1040      CBD5021B 
 1040      D8
 1041 1132 509B04BB 		.ascii	"P\233\004\273M\011\273\223\302\3568\031~\320\031\207"
 1041      4D09BB93 
 1041      C2EE3819 
 1041      7ED01987 
 1042 1142 3B53D803 		.ascii	";S\330\003\227\3133\034DW\276c%\251K\222\324\245\224"
 1042      97CB331C 
 1042      4457BE63 
 1042      25A94B92 
 1042      D4A594
 1043 1155 D44D251D 		.ascii	"\324M%\035)\2354\353p,\223\364d\260v\322\315b,s\300"
 1043      299D34EB 
 1043      702C93F4 
 1043      64B076D2 
 1043      CD622C73 
 1044 116a A55BEDC5 		.ascii	"\245[\355\305\310bk/\263\365x\317\3451\275}[\373\250"
 1044      C8626B2F 
 1044      B3F578CF 
 1044      E531BD7D 
 1044      5BFBA8
 1045 117d AD0F455B 		.ascii	"\255\017E[\333\012\353Oh8\300\372\017-\000\201\013\365"
 1045      DB0AEB4F 
 1045      6838C0FA 
 1045      0F2D0081 
 1045      0BF5
 1046 118f 48007B94 		.ascii	"H\000{\224\000\373)\300\264\326#\367\034q2\0038\324"
 1046      00FB29C0 
 1046      B4D623F7 
 1046      1C713203 
 1046      38D4
 1047 11a1 D0F2C295 		.ascii	"\320\362\302\225K\032\373\225\225\251\003\222\244\001"
 1047      4B1AFB95 
 1047      95A90392 
 1047      A401
 1048 11af A5A44754 		.ascii	"\245\244GT\322h\302D\251#\316b\222b\333;\352DL\267\177"
 1048      D268C244 
ARM GAS  C:\Users\AMANRA~1\AppData\Local\Temp\ccMaxS61.s 			page 84


 1048      A923CE62 
 1048      9262DB3B 
 1048      EA444CB7 
 1049 11c4 61256950 		.ascii	"a%iP\2224\250\224\364\230J\272\030\022\233\342\200+"
 1049      9234A894 
 1049      F4984ABA 
 1049      18129BE2 
 1049      802B
 1050 11d6 99A4F8E6 		.ascii	"\231\244\370\346\324\024'.\211\376\262!Y7$I\032RJ\032"
 1050      D414272E 
 1050      89FEB221 
 1050      59372449 
 1050      1A524A1A 
 1051 11ea 669212AE 		.ascii	"f\222\022\256E\353p\243\263\335\374\273\263\373\330"
 1051      45EB70A3 
 1051      B3DDFCBB 
 1051      B3FBD8
 1052 11f9 0B174B59 		.ascii	"\013\027KYx\312\335\277\367\346\244\243%&\317Xg\333"
 1052      78CADDBF 
 1052      F7E6A4A3 
 1052      2526CF58 
 1052      67DB
 1053 120b 8EA7DD2F 		.ascii	"\216\247\335/\311\277\3474&#bLr\243Zj\325\034u{\240"
 1053      C9BFE734 
 1053      2623624C 
 1053      72A35A6A 
 1053      D51C757B 
 1054 1220 053570A1 		.ascii	"\0055p\241'\022\352'J\324\243\024ui\310\365~5\036`\250"
 1054      2712EA27 
 1054      4AD4A314 
 1054      7569C8F5 
 1054      7E351E60 
 1055 1235 CFB765D4 		.ascii	"\317\267e\324\212\366\217}m%iL\2224\246\2244N%\365\007"
 1055      8AF68F7D 
 1055      6D25694C 
 1055      9234A694 
 1055      344E25F5 
 1056 124a C7C539E1 		.ascii	"\307\3059\341)&\351\320\225\264\353N\026[\231\375y\235"
 1056      2926E9D0 
 1056      95B4EB4E 
 1056      165B99FD 
 1056      799D
 1057 125c 83F92E16 		.ascii	"\203\371.\026S_0S\037\036\356\012u\263o\352\0245uR4"
 1057      535F3053 
 1057      1F1EEE0A 
 1057      75B36FEA 
 1057      14357552 
 1058 1271 B5AC28A6 		.ascii	"\265\254(\246Y/\316\217\377\262\000\004.4!\001\234P"
 1058      592FCE8F 
 1058      FFB20004 
 1058      2E342101 
 1058      9C50
 1059 1283 0234AB09 		.ascii	"\0024\253\011\300\223\243\027\273\034\3606\027\273\363"
 1059      C093A317 
 1059      BB1CF036 
 1059      17BBF3
 1060 1292 A367F441 		.ascii	"\243g\364A\002\246}\260\332\242\0205\355L\311?\264\301"
ARM GAS  C:\Users\AMANRA~1\AppData\Local\Temp\ccMaxS61.s 			page 85


 1060      02A67DB0 
 1060      DAA21035 
 1060      ED4CC93F 
 1060      B4C1
 1061 12a4 6E210C53 		.ascii	"n!\014S\023x\241j\016/\363n\356IG\002\217<j\247\352"
 1061      1378A16A 
 1061      0E2FF36E 
 1061      EE494702 
 1061      8F3C6AA7 
 1062 12b9 26B66C8E 		.ascii	"&\266l\2162\037B\224\015\005\253\245WK\324ls\2166Q\\"
 1062      321F4294 
 1062      0D05ABA5 
 1062      574BD46C 
 1062      738E3651 
 1063 12ce 47A2277E 		.ascii	"G\242'~\211\313\030\254S\221S\321\032\273\352\266Pu"
 1063      89CB18AC 
 1063      539153D1 
 1063      1ABBEAB6 
 1063      5075
 1064 12e0 015CDBD1 		.ascii	"\001\\\333\321\212\314\363Z\256\255a\012\237\251\332"
 1064      8ACCF35A 
 1064      AEAD610A 
 1064      9FA9DA
 1065 12ef 9CFF6BCA 		.ascii	"\234\377k\312\2036K\2726\213\272\302\251\256\204\220"
 1065      83364BBA 
 1065      368BBAC2 
 1065      A9AE8490 
 1066 12ff 9D794EB8 		.ascii	"\235yN\270\316\305n\222f\306&\215\273Z|\260\215\371"
 1066      CEC56E92 
 1066      66C6268D 
 1066      BB5A7CB0 
 1066      8DF9
 1067 1311 203AB6E5 		.ascii	" :\266\345\251\332~\220\")\254\010\321\013\375a\303"
 1067      A9DA7E90 
 1067      2229AC08 
 1067      D10BFD61 
 1067      C3
 1068 1322 E16AC90B 		.ascii	"\341j\311\013c\307\270\027\200\015m\225\220m\025\221"
 1068      63C7B817 
 1068      800D6D95 
 1068      906D1591 
 1069 1332 45516483 		.ascii	"EQd\203[\356\366\352\361\000C\266\245\277\342\254\350"
 1069      5BEEF6EA 
 1069      F10043B6 
 1069      A5BFE2AC 
 1069      E8
 1070 1343 C8E6BC19 		.ascii	"\310\346\274\031\207B\223\334\251\023\267K\303\267\213"
 1070      874293DC 
 1070      A913B74B 
 1070      C3B78B
 1071 1352 C377D0E1 		.ascii	"\303w\320\341\375)\217\257\272b\263+\035\236\220r\271"
 1071      FD298FAF 
 1071      BA62B32B 
 1071      1D9E9072 
 1071      B9
 1072 1363 C6CD6204 		.ascii	"\306\315b\0043\254\343~\370n\301\256gwS\023v\211&\364"
 1072      33ACE37E 
ARM GAS  C:\Users\AMANRA~1\AppData\Local\Temp\ccMaxS61.s 			page 86


 1072      F86EC1AE 
 1072      67775313 
 1072      768926F4 
 1073 1377 5C2A1A40 		.ascii	"\\*\032@\240?\037\362\254\244gNr\250\3718\014\233O\330"
 1073      A03F1FF2 
 1073      ACA4674E 
 1073      72A8F938 
 1073      0C9B4FD8 
 1074 138b D04E09C3 		.ascii	"\320N\011\303N\265\"\321\366P,\321=\275\211\030\307"
 1074      4EB522D1 
 1074      F6502CD1 
 1074      3DBD8918 
 1074      C7
 1075 139c 302C15B7 		.ascii	"0,\025\267\236Ob.\012\242t)\035\2368`\367\025\206\324"
 1075      9E4F622E 
 1075      0AA27429 
 1075      1D9E3860 
 1075      F71586D4 
 1076 13b0 545AB424 		.ascii	"TZ\264$-Z)-\206J3\367\327\327\0128\211I;3\364\344\214"
 1076      2D5A292D 
 1076      864A33F7 
 1076      D7D70A38 
 1076      89493B33 
 1077 13c7 966D18C8 		.ascii	"\226m\030\310S\\x\333\226j\376\326\347s:\355*\207\367"
 1077      535C78DB 
 1077      966AFED6 
 1077      E7733AED 
 1077      2A87F7
 1078 13da EAF119C6 		.ascii	"\352\361\031\306\373\2421xR`\274\256d\311?\222V\256"
 1078      FBA23178 
 1078      5260BCAE 
 1078      64C93F92 
 1078      56AE
 1079 13ec D54BAFD2 		.ascii	"\325K\257\322\221~\3319\215\232\274\236\262p.\212W\263"
 1079      917ED939 
 1079      8D9ABC9E 
 1079      B2702E8A 
 1079      57B3
 1080 13fe B753769C 		.ascii	"\267Sv\234\331\212g\356\344\273\342\217\020}O&V=\027"
 1080      D98A67EE 
 1080      E4BBE28F 
 1080      107D4F26 
 1080      563D17
 1081 1411 ED5313F6 		.ascii	"\355S\023\366D\365Lq\020\341\036\211;\027\357$\347N"
 1081      44F54C71 
 1081      10E11E89 
 1081      3B17EF24 
 1081      E74E
 1082 1423 7A19F7F6 		.ascii	"z\031\367\366\212\364\275\302[\207\3157\363\351\316"
 1082      8AF4BDC2 
 1082      5B87CD37 
 1082      F3E9CE
 1083 1432 E5524798 		.ascii	"\345RG\2309x3<Y\357W\317Dq\340\017\330\242\310\006\357"
 1083      3978333C 
 1083      59EF57CF 
 1083      4471E00F 
 1083      D8A2C806 
ARM GAS  C:\Users\AMANRA~1\AppData\Local\Temp\ccMaxS61.s 			page 87


 1084 1447 859E3F08 		.ascii	"\205\236?\010*t@\375\026y\000\314;w\022\313\267\313"
 1084      2A7440FD 
 1084      167900CC 
 1084      3B7712CB 
 1084      B7CB
 1085 1459 242D2433 		.ascii	"$-$3\016\252\331v\031\276I\305\031\2563kp&sGm]\330%"
 1085      0EAAD976 
 1085      19BE49C5 
 1085      19AE336B 
 1085      70267347 
 1086 1471 FE92A253 		.ascii	"\376\222\242S\264\364\232\312l\376\232\312\213\301\233"
 1086      B4F49ACA 
 1086      6CFE9ACA 
 1086      8BC19B
 1087 1480 2FF8CB28 		.ascii	"/\370\313(d\377;^\266\371 \262\353\255#\242\267\016"
 1087      64FF3B5E 
 1087      B6F920B2 
 1087      EBAD23A2 
 1087      B70E
 1088 1492 336F5DA9 		.ascii	"3o]\251\270]\347\252\364V2\230p\210\232p\224\332\177"
 1088      B85DE7AA 
 1088      F4563298 
 1088      70889A70 
 1088      94DA7F
 1089 14a5 44B4FF4E 		.ascii	"D\264\377Ns\344r\245\263\3542\347]\357\376\023\367U"
 1089      73E472A5 
 1089      B3EC32E7 
 1089      5DEFFE13 
 1089      F755
 1090 14b7 E1DBC149 		.ascii	"\341\333\301I\371\301\363P\012\367\023\354\240d\343"
 1090      F9C1F350 
 1090      0AF713EC 
 1090      A064E3
 1091 14c6 92B89F8E 		.ascii	"\222\270\237\216Q?\355\032\034\332c?\332\307E\374\213"
 1091      513FED1A 
 1091      1CDA633F 
 1091      DAC745FC 
 1091      8B
 1092 14d7 D83B7F39 		.ascii	"\330;\1779\003\343j%|ir\234\240\210\350\030\332\200"
 1092      03E36A25 
 1092      7C69729C 
 1092      A088E818 
 1092      DA80
 1093 14e9 11F7C74F 		.ascii	"\021\367\307Og\3637\325\265\024dX\256\223]m\251\242"
 1093      67F337D5 
 1093      B5146458 
 1093      AE935D6D 
 1093      A9A2
 1094 14fb B693CC5B 		.ascii	"\266\223\314[O\266m\032\341o\363\220wq\305\367\314g"
 1094      4FB66D1A 
 1094      E16FF390 
 1094      7771C5F7 
 1094      CC67
 1095 150d B3F7CC53 		.ascii	"\263\367\314S\333\243+\220\022\314i0\363\0245\363\014"
 1095      DBA32B90 
 1095      12CC6930 
 1095      F31435F3 
ARM GAS  C:\Users\AMANRA~1\AppData\Local\Temp\ccMaxS61.s 			page 88


 1095      0C
 1096 151e 0593CAC0 		.ascii	"\005\223\312\300\234\241`N\016\357J\022\3449A6\214\222"
 1096      9CA1604E 
 1096      0EEF4A12 
 1096      E4394136 
 1096      8C92
 1097 1530 FA349E13 		.ascii	"\3724\236\023i4'\016N\214\307Y\235;l\261J\240\263\234"
 1097      6934270E 
 1097      4E8CC759 
 1097      9D3B6CB1 
 1097      4AA0B39C 
 1098 1544 F92C65BE 		.ascii	"\371,e\2769\220\023\351\204\213Y\002\025\024DG9\362"
 1098      399013E9 
 1098      848B5902 
 1098      15144447 
 1098      39F2
 1099 1556 995C55AF 		.ascii	"\231\\U\257k\212\210\2102'\005\233?b\"\322\245\211\234"
 1099      6B8A8888 
 1099      3227059B 
 1099      3F6222D2 
 1099      A5899C
 1100 1569 AE9CC8E7 		.ascii	"\256\234\310\347\350Dn=\330\265\307\005\217\361lL\311"
 1100      E8446E3D 
 1100      D8B5C705 
 1100      8FF16C4C 
 1100      C9
 1101 157a 3D67290B 		.ascii	"=g)\013\315\270\367\274T\026\210\264\363\222\264\363"
 1101      CDB8F7BC 
 1101      541688B4 
 1101      F392B4F3 
 1102 158a 4A691954 		.ascii	"Ji\031TZmg\241\017\336\354F\205\235<}\340\254+\216f"
 1102      5A6D67A1 
 1102      0FDEEC46 
 1102      859D3C7D 
 1102      E0AC2B8E 
 1103 159f 8D88C2A2 		.ascii	"\215\210\302\242D-\024?t\221VH\262\306\037\277P\300"
 1103      442D143F 
 1103      74915648 
 1103      B2C61FBF 
 1103      50C0
 1104 15b1 F67D2596 		.ascii	"\366}%\226\265n_ur\266\213\335rx\211\226\303,\261\034"
 1104      B56E5F75 
 1104      72B68BDD 
 1104      72788996 
 1104      C32CB11C 
 1105 15c5 5E3F7027 		.ascii	"^?p'M\315\301\326\366\351\032\036mg\226\227\011\204"
 1105      4DCDC1D6 
 1105      F6E91A1E 
 1105      6D679697 
 1105      0984
 1106 15d7 135D10C1 		.ascii	"\023]\020\301\242L\265\232\264\254\361fS\274\221\233"
 1106      A24CB59A 
 1106      B4ACF166 
 1106      53BC919B 
 1107 15e7 4E06EB70 		.ascii	"N\006\353p'\303x3\271\270\315Ere\271\265+s$\343s\224"
 1107      27C37833 
 1107      B9B8CD45 
ARM GAS  C:\Users\AMANRA~1\AppData\Local\Temp\ccMaxS61.s 			page 89


 1107      7265B9B5 
 1107      2B7324E3 
 1108 15fd C272A9B0 		.ascii	"\302r\251\260\224\221\347\021\256x\220\011\35390t\301"
 1108      9491E711 
 1108      AE789009 
 1108      EB393074 
 1108      C1
 1109 160e 497265B6 		.ascii	"Ire\266\302\225\227%i\227\225\322\256Piq\005\351u\302"
 1109      C2959725 
 1109      699795D2 
 1109      AE506971 
 1109      05E975C2 
 1110 1622 2C7E0210 		.ascii	",~\002\020n\367\004@\365\252\217\377\225\265w\032\255"
 1110      6EF70440 
 1110      F5AA8FFF 
 1110      95B5771A 
 1110      AD
 1111 1633 6A549E5A 		.ascii	"jT\236Z\376H\237\317S,\237\246Xc\334\266L\253w\033\263"
 1111      FE489FCF 
 1111      532C9FA6 
 1111      5863DCB6 
 1111      4CAB771B 
 1112 1648 ADCECF0B 		.ascii	"\255\316\317\0138s\001e\216\254\256\334ayg0\334\336"
 1112      38730165 
 1112      8EACAEDC 
 1112      61796730 
 1112      DCDE
 1113 165a A1192AA4 		.ascii	"\241\031*\244\314)G\037\016Z\275\233\360\205\234\267"
 1113      CC29471F 
 1113      0E5ABD9B 
 1113      F0859CB7 
 1114 166a 880B2EA2 		.ascii	"\210\013.\242\274\355yM\003Z}\270E\360w\034\370\241"
 1114      BCED794D 
 1114      035A7DB8 
 1114      45F0771C 
 1114      F8A1
 1115 167c AB6A5224 		.ascii	"\253jR$\233/\015%;\3125DZ\315\245b\256\242\230\252H"
 1115      9B2F0D25 
 1115      3BCA3544 
 1115      5ACDA562 
 1115      AEA298AA 
 1116 1691 DE9B3CE6 		.ascii	"\336\233<\346\206\307X\314\036\356\334\332\241\246)"
 1116      86C758CC 
 1116      1EEEDCDA 
 1116      A1A629
 1117 16a0 095EE029 		.ascii	"\011^\340)Y=\236v\307j\227A\236\250\245\234,\2439Y*"
 1117      593D9E76 
 1117      C76A9741 
 1117      9EA8A59C 
 1117      2CA33959 
 1118 16b5 E6E4817D 		.ascii	"\346\344\201}/\302u<\352S74U\305<\205\312\324\204\023"
 1118      2FC2753C 
 1118      EA533734 
 1118      55C53C85 
 1118      CAD48413 
 1119 16c9 9548512F 		.ascii	"\225HQ/QF\275\234F\275\351\376\226\016W\0349\203\275"
 1119      5146BD9C 
ARM GAS  C:\Users\AMANRA~1\AppData\Local\Temp\ccMaxS61.s 			page 90


 1119      46BDE9FE 
 1119      960E571C 
 1119      3983BD
 1120 16dc 02B863F0 		.ascii	"\002\270c\360\260\206K+|\233m,\017\011T\3225I\3225\245"
 1120      B0864B2B 
 1120      7C9B6D2C 
 1120      0F0954D2 
 1120      3549D235 
 1121 16f1 A40A2AA9 		.ascii	"\244\012*\251\241\253i\016\216c\202\302K\233\357\362"
 1121      A1AB690E 
 1121      8E6382C2 
 1121      4B9BEFF2 
 1122 1701 55E635B2 		.ascii	"U\3465\262\237\253,m\304\254\266\205\223\027\306\343"
 1122      9FAB2C6D 
 1122      C4ACB685 
 1122      9317C6E3 
 1123 1711 EFDC7E66 		.ascii	"\357\334~f\177Y\251\022\013%9\322\002\356\336\236\023"
 1123      7F59A912 
 1123      0B2539D2 
 1123      02EEDE9E 
 1123      13
 1124 1722 41CA4A78 		.ascii	"A\312Jx\003*a%\255\2047i%\254R[\336\252\036\213\020"
 1124      032A6125 
 1124      AD843769 
 1124      25AC525B 
 1124      DEAA1E8B 
 1125 1737 94CB8A5D 		.ascii	"\224\313\212]\356\362M\335\331HZ\203\267w\3615\370\026"
 1125      EEF24DDD 
 1125      D9485A83 
 1125      B777F135 
 1125      F816
 1126 1749 5F5BE0E1 		.ascii	"_[\340\341T6\370:_[n\323\265\245\252\343\324\177\312"
 1126      5436F83A 
 1126      5F5B6ED3 
 1126      B5A5AAE3 
 1126      D47FCA
 1127 175c A3FEC0AA 		.ascii	"\243\376\300\252\334V\363\250W\323\250'\365\367\216"
 1127      DC56F3A8 
 1127      57D3A827 
 1127      F5F78E
 1128 176b 227C6C86 		.ascii	"\"|l\206\325\013\237\263\371\013\237\251\027\217fsg"
 1128      D50B9FB3 
 1128      F90B9FA9 
 1128      178F6673 
 1128      67
 1129 177c 3942B3E4 		.ascii	"9B\263\344|~\225`\3279\265\242sj\330*r\337|o\263\240"
 1129      7C7E9560 
 1129      D739B5A2 
 1129      736AD82A 
 1129      72DF7C6F 
 1130 1792 F4CE5D35 		.ascii	"\364\316]5[\223U\350\036\265\267V\2647\245\240)]\257"
 1130      5B9355E8 
 1130      1EB5B756 
 1130      B437A5A0 
 1130      295DAF
 1131 17a5 F48E5DEE 		.ascii	"\364\216]\356\250\323\251{0\367\316\320\207l\325\255"
 1131      A8D3A97B 
ARM GAS  C:\Users\AMANRA~1\AppData\Local\Temp\ccMaxS61.s 			page 91


 1131      30F7CED0 
 1131      876CD5AD 
 1132 17b5 E39E8167 		.ascii	"\343\236\201gY\331\300;\3343\365\32439\267\367]\322"
 1132      59D9C03B 
 1132      DC33F5D4 
 1132      3339B7F7 
 1132      5DD2
 1133 17c7 E30BCCDA 		.ascii	"\343\013\314\332\247\243\333\006\370"
 1133      A7A3DB06 
 1133      F8
 1134 17d0 4B34AF93 		.ascii	"K4\257\223U\377\320\276V\376\377\012\316\222T\35086"
 1134      55FFD0BE 
 1134      56FEFF0A 
 1134      CE9254E8 
 1134      3836
 1135 17e2 B98F6FE5 		.ascii	"\271\217o\345\276\007\315\256\027E;\034\354\032\337"
 1135      BE07CDAE 
 1135      17453B1C 
 1135      EC1ADF
 1136 17f1 221ADFCC 		.ascii	"\"\032\337\314\214o\352*\253\233\266b7\001\252F\212"
 1136      8C6FEA2A 
 1136      AB9BB662 
 1136      3701AA46 
 1136      8A
 1137 1802 AA959AD3 		.ascii	"\252\225\232\323\"\232\323\227w\242\331Ai\274]\356\302"
 1137      229AD397 
 1137      77A2D941 
 1137      69BC5DEE 
 1137      C2
 1138 1813 90F846D1 		.ascii	"\220\370F\321\370\372\177g\306\267q\343\341\361[6\260"
 1138      F8FA7F67 
 1138      C6B771E3 
 1138      E1F15B36 
 1138      B0
 1139 1824 811BDF4E 		.ascii	"\201\033\337N\215\317Kh\214A\270\210\031\177m\350\336"
 1139      8DCF4B68 
 1139      8C41B888 
 1139      197F6DE8 
 1139      DE
 1140 1835 8445C81F 		.ascii	"\204E\310\037\230\020q\1777l\265\277\353\340B\356S!"
 1140      9810717F 
 1140      376CB5BF 
 1140      EBE042EE 
 1140      5321
 1141 1847 E18D23CD 		.ascii	"\341\215#\315\002\276\305\204\244\267N\344\252\231\213"
 1141      02BEC584 
 1141      A4B74EE4 
 1141      AA998B
 1142 1856 C83A3F7C 		.ascii	"\310:?|\365\3700\377\177%;\211\007k\036&7\273\332uY"
 1142      F5F830FF 
 1142      7F253B89 
 1142      076B1E26 
 1142      37BBDA75 
 1143 186b B7E8B24A 		.ascii	"\267\350\262J\346\262\340\210\360$g\245\313\272\000"
 1143      E6B2E088 
 1143      F02467A5 
 1143      CBBA00
ARM GAS  C:\Users\AMANRA~1\AppData\Local\Temp\ccMaxS61.s 			page 92


 1144 187a 462785D1 		.ascii	"F'\205\321C\235\320-:as\310\231!\255\322ev\271\007["
 1144      439DD02D 
 1144      3A6173C8 
 1144      9921ADD2 
 1144      6576B907 
 1145 188f 92C775E2 		.ascii	"\222\307u\342.m\003\263\266\227[\013\317\331\262\201"
 1145      2E6D03B3 
 1145      B6975B0B 
 1145      CFD9B281 
 1146 189f 0FB8B50F 		.ascii	"\017\270\265\017\251\265C\0172\257\352\344S\351\271"
 1146      A9B5430F 
 1146      32AFEAE4 
 1146      53E9B9
 1147 18ae D554EAE3 		.ascii	"\325T\352\343S\251\217N\245[\203\305\255n\270\205\271"
 1147      53A98F4E 
 1147      A55B83C5 
 1147      AD6EB885 
 1147      B9
 1148 18bf 666B5CC6 		.ascii	"fk\\\306\035\007Q\343\177[\357\013\341qW\266/\354\347"
 1148      1D0751E3 
 1148      7F5BEF0B 
 1148      E17157B6 
 1148      2FECE7
 1149 18d2 1A07D46F 		.ascii	"\032\007\324o\251\204o\326\253\003\014\033Lo/X\260\020"
 1149      A9846FD6 
 1149      AB030C1B 
 1149      4C6F2F58 
 1149      B010
 1150 18e4 FE79AFF1 		.ascii	"\376y\257\361]\345\033h\364\370\300c\321\302@#\374\363"
 1150      5DE51B68 
 1150      F4F8C063 
 1150      D1C24023 
 1150      FCF3
 1151 18f6 F35DB5D0 		.ascii	"\363]\265\320\030\344\0157\374W\005n0\030\027x;\374"
 1151      18E40D37 
 1151      FC57056E 
 1151      30181778 
 1151      3BFC
 1152 1908 EC97BF9D 		.ascii	"\354\227\277\235\267\334\303C\345\020d\360\362[\033"
 1152      B7DCC343 
 1152      E51064F0 
 1152      F25B1B
 1153 1917 E41BA8F7 		.ascii	"\344\033\250\367\364\\\347\033`Z\262\330\323\364\245"
 1153      F45CE71B 
 1153      605AB2D8 
 1153      D3F4A5
 1154 1926 F78F5652 		.ascii	"\367\217VR\031F\323:\037\337\300\225\246\300@?\343\312"
 1154      1946D33A 
 1154      1FDFC095 
 1154      A6C0403F 
 1154      E3CA
 1155 1938 D501EBE6 		.ascii	"\325\001\353\346\321\253y^A\376\363\014\376\253\014"
 1155      D1AB795E 
 1155      41FEF30C 
 1155      FEAB0C
 1156 1947 3E3E069F 		.ascii	">>\006\237\225K\027,\232\267x\221\307\322o\336[\011"
 1156      954B172C 
ARM GAS  C:\Users\AMANRA~1\AppData\Local\Temp\ccMaxS61.s 			page 93


 1156      9AB77891 
 1156      C7D26FDE 
 1156      5B09
 1157 1959 FDEF0604 		.ascii	"\375\357\006\004\006\030\3365x\255\362]\351\033\340"
 1157      0618DE35 
 1157      78ADF25D 
 1157      E91BE0
 1158 1968 EDB7CEC7 		.ascii	"\355\267\316\307\260\322\337\013d\005\030Vz\372\030"
 1158      B0D2DF0B 
 1158      64051856 
 1158      7AFA18
 1159 1977 BEF45AE7 		.ascii	"\276\364Z\347g\3624m\\\013\020\326\250\034D}\277\377"
 1159      67F2346D 
 1159      5C0B10D6 
 1159      A81C447D 
 1159      BFFF
 1160 1989 3FD567DC 		.ascii	"?\325g\334h\\\351i4\371\200pP\2423\021\343<M\037\333"
 1160      685CE969 
 1160      34F98070 
 1160      50A23311 
 1160      E33C4D1F 
 1161 199e 748D77A0 		.ascii	"t\215w\240\277\177`\300\302\265\201A&\343\302\217?\373"
 1161      BF7F60C0 
 1161      C2B58141 
 1161      26E3C28F 
 1161      3FFB
 1162 19b0 74F9A71B 		.ascii	"t\371\247\033H\337Z_?C\220q\341\317\226/\207\001\"\\"
 1162      48DF5A5F 
 1162      3F439071 
 1162      E1CF962F 
 1162      8701225C 
 1163 19c4 9DBF6983 		.ascii	"\235\277i\203\037@\324\004\256\0170\004i\276YgXg\320"
 1163      1F40D404 
 1163      AE0F3004 
 1163      69BE5967 
 1163      5867D0
 1164 19d7 F9AF3319 		.ascii	"\371\2573\0316x\232\034\274\327x\322K\007\303ZC\000"
 1164      36789A1C 
 1164      BCD778D2 
 1164      4B07C35A 
 1164      4300
 1165 19e9 A85EED64 		.ascii	"\250^\355d\370\326\020`\362\3672~\015w\375\215\253\031"
 1165      F8D61060 
 1165      F2F7327E 
 1165      0D77FD8D 
 1165      AB19
 1166 19fb FB7A2F5F 		.ascii	"\373z/_\023\334t\003v\323\032\360\274\217\321\223\210"
 1166      13DC7403 
 1166      76D31AF0 
 1166      BC8FD193 
 1166      88
 1167 1a0c 7495373C 		.ascii	"t\2257<Mh\235\326\260\236\014\325\2567\201\322\265\360"
 1167      4D689DD6 
 1167      B09E0CD5 
 1167      AE3781D2 
 1167      B5F0
 1168 1a1e 6534F8AF 		.ascii	"e4\370\257\305\336\001&GOO\3564\035\377\326@\257\247"
ARM GAS  C:\Users\AMANRA~1\AppData\Local\Temp\ccMaxS61.s 			page 94


 1168      C5DE0126 
 1168      474F4FEE 
 1168      341DFFD6 
 1168      40AFA7
 1169 1a31 C9192402 		.ascii	"\311\031$\002\217\327\3325\201A\006\235\221\2506\256"
 1169      8FD7DA35 
 1169      8141069D 
 1169      91A836AE 
 1170 1a41 D60001C3 		.ascii	"\326\000\001\303z\223)h\355L\246\3023\310\360\245!\310"
 1170      7A932968 
 1170      ED4CA6C2 
 1170      33C8F0A5 
 1170      21C8
 1171 1a53 10E06DF0 		.ascii	"\020\340m\3604\201\330\300U_\255u0l\3605y\007\372\030"
 1171      3481D8C0 
 1171      555FAD75 
 1171      306CF035 
 1171      7907FA18 
 1172 1a67 B4413E1B 		.ascii	"\264A>\033a\204\032X\214\216,\033\226\201\036\361\333"
 1172      61841A58 
 1172      8C8E2C1B 
 1172      96811EF1 
 1172      DB
 1173 1a78 44FA41DC 		.ascii	"D\372A\334\227~^\253\215:\223?\214\200\226\321\344e"
 1173      977E5EAB 
 1173      8D3A933F 
 1173      8C8096D1 
 1173      E465
 1174 1a8a 323898E8 		.ascii	"28\230\350\027\021\351\265\312\313h\340\271\364\376"
 1174      1711E9B5 
 1174      CACB68E0 
 1174      B9F4FE
 1175 1a99 7B60BB78 		.ascii	"{`\273x\2417\232\276\366\362\363]\035\340iZ\374\352"
 1175      A1379ABE 
 1175      F6F2F35D 
 1175      1DE0695A 
 1175      FCEA
 1176 1aab B158E30D 		.ascii	"\261X\343\015\366\200\363\325\001^\376\006\265\367\032"
 1176      F680F3D5 
 1176      015EFE06 
 1176      B5F71A
 1177 1aba AF204DA0 		.ascii	"\257 M\240\237\017\270?\300\260\336\020\204\275M\033"
 1177      9F0FB83F 
 1177      C0B0DE10 
 1177      84BD4D1B 
 1178 1aca 04E35AC1 		.ascii	"\004\343Z\301/\010\322x5\244\203\247\011\007yx\000-"
 1178      2F08D278 
 1178      35A483A7 
 1178      09077978 
 1178      002D
 1179 1adc 12823E10 		.ascii	"\022\202>\020\202\226\011AK\205\240\367\205\240\037"
 1179      82960941 
 1179      4B85A0F7 
 1179      85A01F
 1180 1aeb 0A41EF61 		.ascii	"\012A\357a\343\022\017\240E\330\270\370\003\240e@K\201"
 1180      E3120FA0 
 1180      45D8B8F8 
ARM GAS  C:\Users\AMANRA~1\AppData\Local\Temp\ccMaxS61.s 			page 95


 1180      03A06540 
 1180      4B81
 1181 1afd DE07FA21 		.ascii	"\336\007\372!\020\334_\274\004h1\020\360-\006>\017\340"
 1181      10DC5FBC 
 1181      04683110 
 1181      F02D063E 
 1181      0FE0
 1182 1b0f F3003E0F 		.ascii	"\363\000>\017\340\363x\337\211 #\336\007\245\357\377"
 1182      E0F378DF 
 1182      892023DE 
 1182      07A5EFFF 
 1183 1b1f 8516787E 		.ascii	"\205\026x~\273\324\037\254p\246\"\274\003\003 SLj\222"
 1183      BBD41FAC 
 1183      70A622BC 
 1183      03032053 
 1183      4C6A92
 1184 1b32 988E964C 		.ascii	"\230\216\226L\320\370\257\205dw\340a2\315\220\245\010"
 1184      D0F8AF85 
 1184      6477E061 
 1184      32CD90A5 
 1184      08
 1185 1b43 CD1D6037 		.ascii	"\315\035`7|\353f\325\345ig\302\007\231\026\362\311\000"
 1185      7CEB66D5 
 1185      E56967C2 
 1185      079916F2 
 1185      C900
 1186 1b55 778CDE6B 		.ascii	"w\214\336k|@\265\373wsB\252\001\343\273\257 r\243Q\234"
 1186      7C40B5FB 
 1186      777342AA 
 1186      01E3BBAF 
 1186      2072A351 
 1187 1b6a 14AF2016 		.ascii	"\024\257 \026\322\022\0305A\006\243\301\244\361\374"
 1187      D2121835 
 1187      4106A3C1 
 1187      A4F1FC
 1188 1b79 048CD41A 		.ascii	"\004\214\324\032}\377\004\340}\376\312i\017\325l\345"
 1188      7DFF04E0 
 1188      7DFECA69 
 1188      0FD56CE5 
 1189 1b89 6A6F6FC5 		.ascii	"joo\305\364_\272`\361\002\017\251\010\230`\324\227T"
 1189      F45FBA60 
 1189      F1020FA9 
 1189      089860D4 
 1189      9754
 1190 1b9b AFCF5A53 		.ascii	"\257\317ZS\220f}\020\374\305\246\300\265\332U\353\276"
 1190      90667D10 
 1190      FCC5A6C0 
 1190      B5DA55EB 
 1190      BE
 1191 1bac 8419207C 		.ascii	"\204\031 |\023\264\340%\305R\346\024V0\327\250\034\375"
 1191      13B4E025 
 1191      C552E614 
 1191      5630D7A8 
 1191      1CFD
 1192 1bbe BD7CFDA0 		.ascii	"\275|\375\240\341ir\001\373!\015\014A\337z\371\275R"
 1192      E1697201 
 1192      FB210D0C 
ARM GAS  C:\Users\AMANRA~1\AppData\Local\Temp\ccMaxS61.s 			page 96


 1192      41DF7AF9 
 1192      BD52
 1193 1bd0 084CBEFE 		.ascii	"\010L\276\376$\207]\275\327|\372\311\257V}e\3606\255"
 1193      24875DBD 
 1193      D77CFAC9 
 1193      AF567D65 
 1193      F036AD
 1194 1be3 08F035FD 		.ascii	"\010\3605\375\340\225\213\265JOF~F\034\270\302\321r"
 1194      E0958BB5 
 1194      4A4F467E 
 1194      461CB8C2 
 1194      D172
 1195 1bf5 39835CFD 		.ascii	"9\203\\\375:\320h\372\015\210\017\\g\372\334M\321\341"
 1195      3AD068FA 
 1195      0D880F5C 
 1195      67FADC4D 
 1195      D1E1
 1196 1c07 28B6577C 		.ascii	"(\266W|O\274\372x\015d\217\310?\333V\257\253U\347\212"
 1196      4FBCFA78 
 1196      0D648FC8 
 1196      3FDB56AF 
 1196      AB55E78A 
 1197 1c1b D748F3A7 		.ascii	"\327H\363\247\006\223\367\032q\324\014e\217\336\322"
 1197      0693F71A 
 1197      71D40C65 
 1197      8FDED2
 1198 1c2a B102EEFD 		.ascii	"\261\002\356\375f\215\317\277\030hv~\354\347\267\342"
 1198      668DCFBF 
 1198      1868767E 
 1198      ECE7B7E2 
 1199 1c3a 9D57700E 		.ascii	"\235Wp\016\313h\360\017\214\376\334{\015\330\346\275"
 1199      CB68F00F 
 1199      8CFEDC7B 
 1199      0DD8E6BD 
 1200 1c4a C6E0B3CE 		.ascii	"\306\340\263\316\317@\000\202\270\237\004Pq\242\376"
 1200      CF400082 
 1200      B89F0450 
 1200      71A2FE
 1201 1c59 D7E43A7E 		.ascii	"\327\344:~\011\363h\005c\3737\322\226\274\253g3\304"
 1201      09F36805 
 1201      63FB37D2 
 1201      96BCAB67 
 1201      33C4
 1202 1c6b 172E5D3C 		.ascii	"\027.]<=\277\\\027\340\355\351\271`\331\022\217\367"
 1202      3DBF5C17 
 1202      E0EDE9B9 
 1202      60D9128F 
 1202      F7
 1203 1c7c 1CC496BC 		.ascii	"\034\304\226\274{\261\207\023(\337h\374m\200_\240\367"
 1203      7BB18713 
 1203      28DF68FC 
 1203      6D805FA0 
 1203      F7
 1204 1c8d D7AF92D4 		.ascii	"\327\257\222\324\033\011bV\022\326\321A \016\202\342"
 1204      1B096256 
 1204      12D6D141 
 1204      200E82E2 
ARM GAS  C:\Users\AMANRA~1\AppData\Local\Temp\ccMaxS61.s 			page 97


 1205 1c9d F9C9C79F 		.ascii	"\371\311\307\237\377\344\327\237\255p\361\362[\357\265"
 1205      FFE4D79F 
 1205      AD70F1F2 
 1205      5BEFB5
 1206 1cac D108FAFD 		.ascii	"\321\010\372\375`\355[\376\262r\001&\220b\261p\371\247"
 1206      60ED5BFE 
 1206      B2720126 
 1206      9062B170 
 1206      F9A7
 1207 1cbe 9FAFF87C 		.ascii	"\237\257\370|\341r\250\026\013W\210z\374\215\276FO\310"
 1207      E172A816 
 1207      0B57887A 
 1207      FC8DBE46 
 1207      4FC8
 1208 1cd0 75927F14 		.ascii	"u\222\177\024\340/@\223#\325Jt\322\350\374\314`\372"
 1208      E02F4093 
 1208      23D54A74 
 1208      D2E8FCCC 
 1208      60FA
 1209 1ce2 6990C1B0 		.ascii	"i\220\301\260<p]\200i\2053\357\371\034f\330\012\271"
 1209      3C705D80 
 1209      698533EF 
 1209      F91C66D8 
 1209      0AB9
 1210 1cf4 854BDE93 		.ascii	"\205K\336\223\267\336\363\220\267~hu\357}\253{K\255"
 1210      B7DEF390 
 1210      B77E6875 
 1210      EF7DAB7B 
 1210      4BAD
 1211 1d06 EE2DF3F8 		.ascii	"\356-\363\370\037\263[\240g"
 1211      1FB35BA0 
 1211      67
 1212              		.text
 1213              		.section	.gnu.lto_.symtab.c3c0333a,"",%progbits
 1214 0000 63684D42 		.ascii	"chMBObjectInit\000"
 1214      4F626A65 
 1214      6374496E 
 1214      697400
 1215 000f 00       		.ascii	"\000"
 1216 0010 00       		.ascii	"\000"
 1217 0011 00       		.ascii	"\000"
 1218 0012 00000000 		.ascii	"\000\000\000\000\000\000\000\000"
 1218      00000000 
 1219 001a DA010000 		.ascii	"\332\001\000\000"
 1220 001e 63684D42 		.ascii	"chMBResetI\000"
 1220      52657365 
 1220      744900
 1221 0029 00       		.ascii	"\000"
 1222 002a 00       		.ascii	"\000"
 1223 002b 00       		.ascii	"\000"
 1224 002c 00000000 		.ascii	"\000\000\000\000\000\000\000\000"
 1224      00000000 
 1225 0034 DE010000 		.ascii	"\336\001\000\000"
 1226 0038 63684D42 		.ascii	"chMBReset\000"
 1226      52657365 
 1226      7400
 1227 0042 00       		.ascii	"\000"
ARM GAS  C:\Users\AMANRA~1\AppData\Local\Temp\ccMaxS61.s 			page 98


 1228 0043 00       		.ascii	"\000"
 1229 0044 00       		.ascii	"\000"
 1230 0045 00000000 		.ascii	"\000\000\000\000\000\000\000\000"
 1230      00000000 
 1231 004d E0010000 		.ascii	"\340\001\000\000"
 1232 0051 63684D42 		.ascii	"chMBPostTimeoutS\000"
 1232      506F7374 
 1232      54696D65 
 1232      6F757453 
 1232      00
 1233 0062 00       		.ascii	"\000"
 1234 0063 00       		.ascii	"\000"
 1235 0064 00       		.ascii	"\000"
 1236 0065 00000000 		.ascii	"\000\000\000\000\000\000\000\000"
 1236      00000000 
 1237 006d E6010000 		.ascii	"\346\001\000\000"
 1238 0071 63684D42 		.ascii	"chMBPostTimeout\000"
 1238      506F7374 
 1238      54696D65 
 1238      6F757400 
 1239 0081 00       		.ascii	"\000"
 1240 0082 00       		.ascii	"\000"
 1241 0083 00       		.ascii	"\000"
 1242 0084 00000000 		.ascii	"\000\000\000\000\000\000\000\000"
 1242      00000000 
 1243 008c E8010000 		.ascii	"\350\001\000\000"
 1244 0090 63684D42 		.ascii	"chMBPostI\000"
 1244      506F7374 
 1244      4900
 1245 009a 00       		.ascii	"\000"
 1246 009b 00       		.ascii	"\000"
 1247 009c 00       		.ascii	"\000"
 1248 009d 00000000 		.ascii	"\000\000\000\000\000\000\000\000"
 1248      00000000 
 1249 00a5 ED010000 		.ascii	"\355\001\000\000"
 1250 00a9 63684D42 		.ascii	"chMBPostAheadTimeoutS\000"
 1250      506F7374 
 1250      41686561 
 1250      6454696D 
 1250      656F7574 
 1251 00bf 00       		.ascii	"\000"
 1252 00c0 00       		.ascii	"\000"
 1253 00c1 00       		.ascii	"\000"
 1254 00c2 00000000 		.ascii	"\000\000\000\000\000\000\000\000"
 1254      00000000 
 1255 00ca EF010000 		.ascii	"\357\001\000\000"
 1256 00ce 63684D42 		.ascii	"chMBPostAheadTimeout\000"
 1256      506F7374 
 1256      41686561 
 1256      6454696D 
 1256      656F7574 
 1257 00e3 00       		.ascii	"\000"
 1258 00e4 00       		.ascii	"\000"
 1259 00e5 00       		.ascii	"\000"
 1260 00e6 00000000 		.ascii	"\000\000\000\000\000\000\000\000"
 1260      00000000 
 1261 00ee F1010000 		.ascii	"\361\001\000\000"
ARM GAS  C:\Users\AMANRA~1\AppData\Local\Temp\ccMaxS61.s 			page 99


 1262 00f2 63684D42 		.ascii	"chMBPostAheadI\000"
 1262      506F7374 
 1262      41686561 
 1262      644900
 1263 0101 00       		.ascii	"\000"
 1264 0102 00       		.ascii	"\000"
 1265 0103 00       		.ascii	"\000"
 1266 0104 00000000 		.ascii	"\000\000\000\000\000\000\000\000"
 1266      00000000 
 1267 010c F3010000 		.ascii	"\363\001\000\000"
 1268 0110 63684D42 		.ascii	"chMBFetchTimeoutS\000"
 1268      46657463 
 1268      6854696D 
 1268      656F7574 
 1268      5300
 1269 0122 00       		.ascii	"\000"
 1270 0123 00       		.ascii	"\000"
 1271 0124 00       		.ascii	"\000"
 1272 0125 00000000 		.ascii	"\000\000\000\000\000\000\000\000"
 1272      00000000 
 1273 012d F9010000 		.ascii	"\371\001\000\000"
 1274 0131 63684D42 		.ascii	"chMBFetchTimeout\000"
 1274      46657463 
 1274      6854696D 
 1274      656F7574 
 1274      00
 1275 0142 00       		.ascii	"\000"
 1276 0143 00       		.ascii	"\000"
 1277 0144 00       		.ascii	"\000"
 1278 0145 00000000 		.ascii	"\000\000\000\000\000\000\000\000"
 1278      00000000 
 1279 014d FB010000 		.ascii	"\373\001\000\000"
 1280 0151 63684D42 		.ascii	"chMBFetchI\000"
 1280      46657463 
 1280      684900
 1281 015c 00       		.ascii	"\000"
 1282 015d 00       		.ascii	"\000"
 1283 015e 00       		.ascii	"\000"
 1284 015f 00000000 		.ascii	"\000\000\000\000\000\000\000\000"
 1284      00000000 
 1285 0167 00020000 		.ascii	"\000\002\000\000"
 1286 016b 63685468 		.ascii	"chThdDequeueAllI\000"
 1286      64446571 
 1286      75657565 
 1286      416C6C49 
 1286      00
 1287 017c 00       		.ascii	"\000"
 1288 017d 02       		.ascii	"\002"
 1289 017e 00       		.ascii	"\000"
 1290 017f 00000000 		.ascii	"\000\000\000\000\000\000\000\000"
 1290      00000000 
 1291 0187 05020000 		.ascii	"\005\002\000\000"
 1292 018b 63685363 		.ascii	"chSchRescheduleS\000"
 1292      68526573 
 1292      63686564 
 1292      756C6553 
 1292      00
ARM GAS  C:\Users\AMANRA~1\AppData\Local\Temp\ccMaxS61.s 			page 100


 1293 019c 00       		.ascii	"\000"
 1294 019d 02       		.ascii	"\002"
 1295 019e 00       		.ascii	"\000"
 1296 019f 00000000 		.ascii	"\000\000\000\000\000\000\000\000"
 1296      00000000 
