ARM GAS  C:\Users\AMANRA~1\AppData\Local\Temp\ccu0ZXx6.s 			page 1


   1              		.cpu cortex-m4
   2              		.eabi_attribute 27, 1
   3              		.eabi_attribute 28, 1
   4              		.eabi_attribute 20, 1
   5              		.eabi_attribute 21, 1
   6              		.eabi_attribute 23, 3
   7              		.eabi_attribute 24, 1
   8              		.eabi_attribute 25, 1
   9              		.eabi_attribute 26, 1
  10              		.eabi_attribute 30, 2
  11              		.eabi_attribute 34, 1
  12              		.eabi_attribute 18, 4
  13              		.file	"chmempools.c"
  14              		.section	.gnu.lto_.profile.c3c01d24,"",%progbits
  15 0000 789C6363 		.ascii	"x\234cc```\005bF\206\207\214\371\000\003\241\001^"
  15      60606005 
  15      62468687 
  15      8CF90003 
  15      A1015E
  16              		.text
  17              		.section	.gnu.lto_.icf.c3c01d24,"",%progbits
  18 0000 789C6363 		.ascii	"x\234cc``\360d@\000\036\206\337\177\337\316eg\274\276"
  18      6060F064 
  18      40001E86 
  18      DF7FDFCE 
  18      6567BCBE 
  19 0014 ECE85B76 		.ascii	"\354\350[v\246\263\317\017~\340g\376\360\274\365\007"
  19      A6B3CF0F 
  19      7EE067FE 
  19      F0BCF507 
  20 0024 1FCBE1F3 		.ascii	"\037\313\341\363]/\230Y_,\332\262\216\235\255\353\371"
  20      5D2F9859 
  20      5F2CDAB2 
  20      8E9DADEB 
  20      F9
  21 0035 EAED8CEC 		.ascii	"\352\355\214\354S\016\177\020\3468\263tR\0333g\317\341"
  21      530E7F10 
  21      E638B374 
  21      521B3367 
  21      CFE1
  22 0047 436FB8B9 		.ascii	"Co\270\271\016\377\334~\217\213\373\365\362\336\007"
  22      0EFFDC7E 
  22      8F8BFBF5 
  22      F2DE07
  23 0056 AC0C0095 		.ascii	"\254\014\000\225\256%N"
  23      AE254E
  24              		.text
  25              		.section	.gnu.lto_.jmpfuncs.c3c01d24,"",%progbits
  26 0000 789C7D50 		.ascii	"x\234}P\271\015\302@\020\234\331=\373\314'7\340J\250"
  26      B90DC240 
  26      109CD93D 
  26      FBCC2737 
  26      E04AA8
  27 0013 86361C11 		.ascii	"\2066\034\021\021\221\"\"\367@\000\011\031\242\001:"
  27      11912222 
  27      F7400009 
  27      19A2013A 
ARM GAS  C:\Users\AMANRA~1\AppData\Local\Temp\ccu0ZXx6.s 			page 2


  28 0023 40144003 		.ascii	"@\024@\003D\260g\371,\353lq\322\004;\273;3{9\200'\321"
  28      44B067F9 
  28      2CEB6C71 
  28      D2043BBB 
  28      3B337B39 
  29 003a BF25486E 		.ascii	"\277%Hn\033\205\003xs\204\341k\257\304\250^\277@g\323"
  29      1B850378 
  29      7384E16B 
  29      AFC4A85E 
  29      BF4067D3 
  30 004e 2CC3BC21 		.ascii	",\303\274!\354\211AE\215\365\035\353BG;U\221\032L\204"
  30      EC894145 
  30      8DF51DEB 
  30      42473B55 
  30      911A4C84 
  31 0062 DCA0979A 		.ascii	"\334\240\227\232dBj\024\312\207\205\217\036Ytv\212t"
  31      64426A14 
  31      CA87858F 
  31      1E597476 
  31      8A74
  32 0074 9F72501E 		.ascii	"\237rP\036w\367\207\337k\243\2719\237Y\2650\376\364"
  32      77F787DF 
  32      6BA3B939 
  32      9F59B530 
  32      FEF4
  33 0086 BE7E5681 		.ascii	"\276~V\201\367\306_X\365\253@1\024o\017\200L\251G\271"
  33      F7C65F58 
  33      F5AB4031 
  33      146F0F80 
  33      4CA947B9 
  34 009a 59972C63 		.ascii	"Y\227,c\243\205\350ftG\310\226\336-5\323\261y\320a\247"
  34      A385E866 
  34      7447C896 
  34      DE2D35D3 
  34      B179D061 
  35 00af E326FE63 		.ascii	"\343&\376cbg\021\275C\324\3771\361\0034\331u\201"
  35      626711BD 
  35      43D4FF31 
  35      F10334D9 
  35      7581
  36              		.text
  37              		.section	.gnu.lto_.inline.c3c01d24,"",%progbits
  38 0000 789C6D90 		.ascii	"x\234m\220\275N\3030\024\205\317\265\035;q\022\232t"
  38      BD4EC330 
  38      1485CFB5 
  38      1D3B7112 
  38      9A74
  39 0012 4148919A 		.ascii	"AH\221\232\215\005:v\003\345\011\2620\2611\303s\360"
  39      8D053A76 
  39      03E509B2 
  39      30B131C3 
  39      73F0
  40 0024 23752003 		.ascii	"#u \003BBb\350\300\302\014\017\200X\031`\354\012\023"
  40      424262E8 
  40      C0C20C0F 
  40      80581960 
  40      EC0A13
ARM GAS  C:\Users\AMANRA~1\AppData\Local\Temp\ccu0ZXx6.s 			page 3


  41 0037 63FB065C 		.ascii	"c\373\006\\\333MU\020\036\256\223\334\234s\277s5\200"
  41      DB4D5510 
  41      1EAE93DC 
  41      9C73BF73 
  41      3580
  42 0049 05617D32 		.ascii	"\005a}2`k\207\"\324g7\222n\317_\337\315T\336KI\240'"
  42      606B8722 
  42      D4673792 
  42      6ECF5FDF 
  42      CD54DE4B 
  43 0060 AAE409EA 		.ascii	"\252\344\011\352\323\376\201\260\252\265\257M\314j="
  43      D3FE81B0 
  43      AAB5AF4D 
  43      CC6A3D
  44 006f 1B09D0B7 		.ascii	"\033\011\320\267)\004\242\253\335\002\364ij%\302\345"
  44      2904A2AB 
  44      DD02F469 
  44      6A25C2E5 
  45 007f 6A135E1A 		.ascii	"j\023^\032\345F\351!\024D\327v-\301h\202P\263\021\354"
  45      E546E921 
  45      1444D776 
  45      2DC16882 
  45      50B311EC 
  46 0093 CBA1704D 		.ascii	"\313\241pM\201\374\200H\2603D\371u\255\221\\<\220\200"
  46      81FC8048 
  46      B03344F9 
  46      75AD915C 
  46      3C9080
  47 00a6 134AA496 		.ascii	"\023J\244\226$\023\322\270\222pD\341f\010\350\177 \344"
  47      2413D2B8 
  47      927044E1 
  47      6608E87F 
  47      20E4
  48 00b8 DB8087DF 		.ascii	"\333\200\207\337E\312\033\313\0141\250k\025\362\224"
  48      45CA1BCB 
  48      0C31A86B 
  48      15F294
  49 00c7 6766D363 		.ascii	"gf\323c\304\217\373}\313u\"\350\210(\370)\3611@\274"
  49      C48FFB7D 
  49      CB7522E8 
  49      8828F829 
  49      F13140BC 
  50 00db 187B4315 		.ascii	"\030{C\025\252gGlXm\346\023$\363\211W\033\330a\220\375"
  50      AA67476C 
  50      586DE613 
  50      24F38957 
  50      1BD86190 
  51 00f0 4EE25C39 		.ascii	"N\342\\9%O-\2369Q\370\341o.\267<\262\356#C1C\202r\273"
  51      254F2D9E 
  51      3951F8E1 
  51      6F2EB73C 
  51      B2EE2343 
  52 0109 37CB9647 		.ascii	"7\313\226G\210/\3676\021U\216\2609\213\244\\m\316\307"
  52      882FF736 
  52      11558EB0 
  52      398BA45C 
  52      6DCEC7
ARM GAS  C:\Users\AMANRA~1\AppData\Local\Temp\ccu0ZXx6.s 			page 4


  53 011c E6B3EEA5 		.ascii	"\346\263\356\245H\253\336c\023\224\254\333o\352\215"
  53      48ABDE63 
  53      1394ACDB 
  53      6FEA8D
  54 012b F0034F3D 		.ascii	"\360\003O=<\225"
  54      3C95
  55              		.text
  56              		.section	.gnu.lto_.pureconst.c3c01d24,"",%progbits
  57 0000 789C6363 		.ascii	"x\234cc``\220\007b\036\006IF)\246]\214\314R,\273\030"
  57      60609007 
  57      621E0649 
  57      4629A65D 
  57      8CCC522C 
  58 0016 59A5D876 		.ascii	"Y\245\330v1\262Kq\354b\344\224\342\332\305\310\275\213"
  58      31B24B71 
  58      EC62E494 
  58      E2DAC5C8 
  58      BD8B
  59 0028 11004D6D 		.ascii	"\021\000Mm\005q"
  59      0571
  60              		.text
  61              		.section	.gnu.lto_chPoolAllocI.part.0.c3c01d24,"",%progbits
  62 0000 789C8D51 		.ascii	"x\234\215Q\337K\223Q\030~\237\363\236\357\333\\e t\267"
  62      DF4B9351 
  62      187E9FF3 
  62      9EEFDB5C 
  62      652074B7 
  63 0014 8B5D2422 		.ascii	"\213]$\"\305\226]\004]t\337\337\261\0214ql\264?\300"
  63      C5965D04 
  63      5D74DFDF 
  63      B1113471 
  63      6CB43FC0 
  64 0028 E3746C52 		.ascii	"\343tlR\201D\032\310W,,\226D\224\224e\313L\027J\020"
  64      81441AC8 
  64      572C2C96 
  64      44949465 
  64      CB4C174A 
  65 003d 2B161141 		.ascii	"+\026\021A\342E\221dD \205\027\012\253\367\234I\024"
  65      E2459164 
  65      44208517 
  65      0AABF79C 
  65      4914
  66 004f 44F471BE 		.ascii	"D\364q\276\367=\347\375\361<\317y\217OD\263\212\350"
  66      F73DE7FD 
  66      F13CCF79 
  66      8F4F44B3 
  66      8AE8
  67 0061 98F813F2 		.ascii	"\230\370\023\362\303'xc/d\343A9\257\024?o\020\231\210"
  67      C3277863 
  67      2F64E341 
  67      39AF143F 
  67      6F109988 
  68 0075 5E16BB97 		.ascii	"^\026\273\227\241mx(\254\001\2731a\320\240\247Xc\020"
  68      A16D7828 
  68      AC01BB31 
  68      61D0A0A7 
  68      586310
ARM GAS  C:\Users\AMANRA~1\AppData\Local\Temp\ccu0ZXx6.s 			page 5


  69 0088 E7F822A3 		.ascii	"\347\370\"\2439r'\340\263\0340A\313q\2631\371\241\323"
  69      397227E0 
  69      B31C3041 
  69      CB71B331 
  69      F9A1D3
  70 009b 1E81981C 		.ascii	"\036\201\230\034\247K\337\232~o\325\230\202Y\274t!R"
  70      A74BDF9A 
  70      7E6FD598 
  70      8259BC74 
  70      2152
  71 00ad 1D2E9E0C 		.ascii	"\035.\236\014X\321\204T\337C\024w\021\265\"f\321+\265"
  71      58D18454 
  71      DF431477 
  71      11B52266 
  71      D12BB5
  72 00c0 9FE656CA 		.ascii	"\237\346V\312aN\200d\2773\2646\335\331s\335\365\255"
  72      614E8064 
  72      BF33B436 
  72      DDD973DD 
  72      F5AD
  73 00d2 5E637330 		.ascii	"^cs0`\306}\360\357\215\022\"<@\217\255\337\030\031+"
  73      60C67DF0 
  73      EF8D1222 
  73      3C408FAD 
  73      DF18192B 
  74 00e6 EFE7A3AE 		.ascii	"\357\347\243\256w\263u~;\324=\345z\337\334\350\272:"
  74      77B3757E 
  74      3BD43DE5 
  74      7ADFDCE8 
  74      BA3A
  75 00f8 6C9E192D 		.ascii	"l\236\031-\254\230\373\263\337~R\376~\2465\276\317\327"
  75      AC98FBB3 
  75      DF7E52FE 
  75      7EA635BE 
  75      CFD7
  76 010a 78886EA7 		.ascii	"x\210n\247\253fg\342\014\221\252H@\022\267_y\306\264"
  76      AB6667E2 
  76      0C91AA48 
  76      4012B75F 
  76      79C6B4
  77 011d 7E948CA9 		.ascii	"~\224\214\251\035\352\212\000\226V\211\000\315b<m\215"
  77      1DEA8A00 
  77      96568900 
  77      CD623C6D 
  77      8D
  78 012e E70A7D67 		.ascii	"\347\012}g\211\312Ld\307Uf\317z\036\225K[\377\031\205"
  78      89CA4C64 
  78      C75566CF 
  78      7A1E954B 
  78      5BFF1985 
  79 0142 DA46B01C 		.ascii	"\332F\260\034\262\004\223\254\204~\242X\177\031\262"
  79      B20493AC 
  79      847EA258 
  79      7F19B2
  80 0151 0363277E 		.ascii	"\003c'~\276\336X\361+\270\202\200\245\000xd\205J\374"
  80      BEDE58F1 
  80      2BB88280 
ARM GAS  C:\Users\AMANRA~1\AppData\Local\Temp\ccu0ZXx6.s 			page 6


  80      A5007864 
  80      854AFC
  81 0164 75E9EDDA 		.ascii	"u\351\355\332\236\304-#_,\340\020\346Q\3018\333+\340"
  81      9EC42D23 
  81      5F2CE010 
  81      E651C138 
  81      DB2BE0
  82 0177 3112F411 		.ascii	"1\022\364\021#\357\236\256\342/\260!\020\026vo;*\023"
  82      23EF9EAE 
  82      E22FB021 
  82      1016766F 
  82      3B2A13
  83 018a 93C76DAB 		.ascii	"\223\307m\253\270\\\334U\301\377M\033\306\023G\013K"
  83      B85CDC55 
  83      C1FF4D1B 
  83      C613470B 
  83      4B
  84 019b BB28B416 		.ascii	"\273(\264\026\250\243\215\242\377\201rs\341\373\226"
  84      A8A38DA2 
  84      FF817273 
  84      E1FB96
  85 01aa F70BC5C3 		.ascii	"\367\013\305\303\222CQ\026\245.(_P\254\364\267Q<QO\""
  85      92435116 
  85      A52E285F 
  85      50ACF4B7 
  85      513C514F 
  86 01bf 49F002EE 		.ascii	"I\360\002\356\240u\024b6a\207*Iw\005\355\006\271\016"
  86      A0751462 
  86      3661872A 
  86      497705ED 
  86      06B90E
  87 01d2 45EDA84F 		.ascii	"E\355\250O_Q\250\314\034h\003\370R\263%\015\361\250"
  87      5F51A8CC 
  87      1C6803F8 
  87      52B3250D 
  87      F1A8
  88 01e4 DA9E5A82 		.ascii	"\332\236Z\2024q\255\332\204<\004l\237p\036\216\307\023"
  88      3471ADDA 
  88      843C046C 
  88      9F701E8E 
  88      C713
  89 01f6 B252A7D3 		.ascii	"\262R\247\323\311t6\337w\274\357H\"\233\2275\220N&\362"
  89      C97436DF 
  89      77BCEF48 
  89      229B9735 
  89      904E26F2 
  90 020a 675292C8 		.ascii	"gR\222\310\234\312\344\262\331\201|<E*\223\323\331d"
  90      9CCAE4B2 
  90      D9817C3C 
  90      452A93D3 
  90      D964
  91 021c 7FEE2746 		.ascii	"\177\356'F\337\344\263"
  91      DFE4B3
  92              		.text
  93              		.section	.gnu.lto_chPoolObjectInitAligned.c3c01d24,"",%progbits
  94 0000 789C9D91 		.ascii	"x\234\235\221\317k\023A\024\307\337wgw\263D[oR\260H"
  94      CF6B1341 
ARM GAS  C:\Users\AMANRA~1\AppData\Local\Temp\ccu0ZXx6.s 			page 7


  94      14C7DF77 
  94      6777B344 
  94      5B6F52B0 
  95 0015 0F422848 		.ascii	"\017B(H\326z\021\017\036\005\377\015\033\203.$&$\340"
  95      D67A110F 
  95      1E05FF0D 
  95      1B832E24 
  95      2624E0
  96 0028 C14B3789 		.ascii	"\301K7\2115)Z\350\301T\014K\011\326R\212\304*\376Jc"
  96      35295AE8 
  96      C1540C4B 
  96      09D6528A 
  96      C42AFE4A 
  97 003d 6DD75853 		.ascii	"m\327XSA\252(\012\242R\212\005mE\012J\351\245\330\372"
  97      41AA280A 
  97      A2528A05 
  97      6D450A4A 
  97      E9A5D8FA 
  98 0051 661A457A 		.ascii	"f\032EzR\207\031\366\315\316|?\357\315\373\232D\264"
  98      528719F6 
  98      CDCE7C3F 
  98      EFCDFB9A 
  98      44B4
  99 0063 A9111DE5 		.ascii	"\251\021\035\345\357\036^\020\004m\3409Q\306\322\000"
  99      EF1E5E10 
  99      046DE039 
  99      51C6D200 
 100 0073 19B816A8 		.ascii	"\031\270\026\250GC\017.\212K\002\365\374\247\011\255"
 100      47430F2E 
 100      8A4B02F5 
 100      FCA709AD 
 101 0083 73D4E5E1 		.ascii	"s\324\345\341_\256\231\347\335\3366O\020\015\362\222"
 101      5FAE99E7 
 101      DDDE364F 
 101      100DF292 
 102 0093 03B7D1C9 		.ascii	"\003\267\321\311\267^\236\273\351\211\013\302\023\200"
 102      B75E9EBB 
 102      E9890BC2 
 102      1380
 103 00a1 CEDB6F73 		.ascii	"\316\333os\245\305V\271\325\320\301\333\245j\243`\011"
 103      A5C556B9 
 103      D5D0C1DB 
 103      A56AA360 
 103      09
 104 00b2 1BC4F17A 		.ascii	"\033\304\361zf~\25454\342\272Y\327\377:\"\334}\236\020"
 104      667EAC35 
 104      34E2BA59 
 104      D7FF3A22 
 104      DC7D9E10 
 105 00c6 B807C140 		.ascii	"\270\007\301@\334E;\356\240\235\370\027\341>B|\375j"
 105      DC453BEE 
 105      A09DF817 
 105      E13E427C 
 105      FD6A
 106 00d8 E6CDB316 		.ascii	"\346\315\263\026qPI\027\372*\375zS:3\252\244:\252\333"
 106      71504917 
 106      FA2AFD7A 
ARM GAS  C:\Users\AMANRA~1\AppData\Local\Temp\ccu0ZXx6.s 			page 8


 106      533A33AA 
 106      A43AAADB 
 107 00ec A53A6142 		.ascii	"\245:aBI\007\326\177,\004\304!%\035\233-\026\202M\351"
 107      4907D67F 
 107      2C04C421 
 107      251D9B2D 
 107      16824DE9 
 108 0100 DA95BDD7 		.ascii	"\332\225\275\327r\3561O\030\250m\027\033\204\007J\374"
 108      72EE314F 
 108      18A86D17 
 108      1B84074A 
 108      FC
 109 0111 7EA8B1BC 		.ascii	"~\250\261\274S\034Q\342\351w\337\207w5\305\037\266\362"
 109      531C51E2 
 109      E977DF87 
 109      7735C51F 
 109      B6F2
 110 0123 9A98DC2E 		.ascii	"\232\230\334.5\011\017\021\222\367?\336\332(\266\230"
 110      35090F11 
 110      92F73FDE 
 110      DA28B698 
 111 0133 7AF9579B 		.ascii	"z\371W\2330\005>\344`\374\225\341\273\033\233y~y[m\305"
 111      30053EE4 
 111      60FC95E1 
 111      BB1B9B79 
 111      7E795B6D 
 112 0148 0A72C3F9 		.ascii	"\012r\303\371\225:d\301&df\013\012B\005\326\261\027"
 112      953A64C1 
 112      2664660B 
 112      0A4205D6 
 112      B117
 113 015a AE4F7D42 		.ascii	"\256O}B\223Q\316\247/\310\256.Ur\001\211\343,\203\275"
 113      9351CEA7 
 113      2FC8AE2E 
 113      55720189 
 113      E32C83BD 
 114 016e F51701D9 		.ascii	"\365\027\001\331c\241\212\234\254\3175\3142\2062lTy"
 114      63A18A9C 
 114      ACCF35CC 
 114      3286326C 
 114      5479
 115 0180 B7270225 		.ascii	"\267'\002%n\3764W&\017_\347\337\316\357\260+\322\304"
 115      6EFE3457 
 115      260F5FE7 
 115      DFCEEFB0 
 115      2BD2C4
 116 0193 0E4F58F0 		.ascii	"\016OX\360QFQ9\210G\260\377\204\261\367\250\263\212"
 116      51465139 
 116      8847B0FF 
 116      84B1F7A8 
 116      B38A
 117 01a5 9395966F 		.ascii	"\223\225\226o,\006\233\311\376\201\256\343\261\242\313"
 117      2C069BC9 
 117      FE81AEE3 
 117      B1A2CB
 118 01b4 07630676 		.ascii	"\007c\006v\211\035Q\264\361\341\300\337\320\256O\255"
 118      891D51B4 
ARM GAS  C:\Users\AMANRA~1\AppData\Local\Temp\ccu0ZXx6.s 			page 9


 118      F1E1C0DF 
 118      D0AE4FAD 
 119 01c4 AE19BF69 		.ascii	"\256\031\277i\006\236(\232&i\015I3\267h\325\334\177"
 119      069E289A 
 119      26690D49 
 119      33B768D5 
 119      DC7F
 120 01d6 D4666256 		.ascii	"\324fbV\321\224+O%\315\242\025d\313\237\373\241L\222"
 120      D1942B4F 
 120      25CDA215 
 120      64CB9FFB 
 120      A14C92
 121 01e9 A3C09573 		.ascii	"\243\300\225s\3039\341\376p\330\346\0319\345t;\211t"
 121      C339E1FE 
 121      70D8E619 
 121      39E5743B 
 121      8974
 122 01fb D7E1AE03 		.ascii	"\327\341\256\003v\"\3153\346t\333\351T\204\017\342\321"
 122      7622CD33 
 122      E674DBE9 
 122      54840FE2 
 122      D1
 123 020c 78329188 		.ascii	"x2\221\210\245\303\021\322\342I=\355\234\215\032\307"
 123      A5C311D2 
 123      E2493DED 
 123      9C8D1AC7 
 124 021c 63CEC9D3 		.ascii	"c\316\311\323V2\2258\343\234\210\246~\002\221\336\016"
 124      56329538 
 124      E39C88A6 
 124      7E0291DE 
 124      0E
 125 022d 31       		.ascii	"1"
 126              		.text
 127              		.section	.gnu.lto_chPoolLoadArray.c3c01d24,"",%progbits
 128 0000 789C9D56 		.ascii	"x\234\235VmLSg\024~\317}\357mK\213h\262\3750\306l5\033"
 128      6D4C5367 
 128      147ECF7D 
 128      EF6D4B8B 
 128      68B2FD30 
 129 0018 1109F1A2 		.ascii	"\021\011\361\242Yt\373\271\360\313\037$\213\376\331"
 129      5974FBB9 
 129      F0CB1F24 
 129      8BFED9
 130 0027 0F13323A 		.ascii	"\017\0232:\242]\254mZ]\364\227\227\202|\214\271\221"
 130      A25DAC6D 
 130      5A5DF497 
 130      97827C8C 
 130      B991
 131 0039 08D5747C 		.ascii	"\010\325t|t\"Q\342\374f\223\017\301R&:\005?\030\250"
 131      742251E2 
 131      FC66930F 
 131      C152263A 
 131      053F18A8 
 132 004d 08031545 		.ascii	"\010\003\025E+\352\346\022\211c\033\354\234\367\336"
 132      2BEAE612 
 132      89631BEC 
 132      9CF7DE
ARM GAS  C:\Users\AMANRA~1\AppData\Local\Temp\ccu0ZXx6.s 			page 10


 133 005c B2529125 		.ascii	"\262R\221%\273i\232s\337\367<\347\234\3679\317y[\023"
 133      BB699A73 
 133      DFF73CE7 
 133      9CF739CF 
 133      795B13
 134 006f 63ECA685 		.ascii	"c\354\246\205\261\265\300\330\307h\203\211\201T~\205"
 134      B1B5C0D8 
 134      C7688389 
 134      81547E85 
 135 007f B17C8B04 		.ascii	"\261|\213\004\262np\335\350\260\310\022o\2140\246Y\225"
 135      B26E70DD 
 135      E8B0C812 
 135      6F8C30A6 
 135      5995
 136 0091 211BD392 		.ascii	"!\033\323\222\025\000Z\327,\300vI\\V`\227$3\010\313"
 136      15005AD7 
 136      2CC07649 
 136      5C566097 
 136      243308CB 
 137 00a5 308DCFC2 		.ascii	"0\215\317\302\031\203\321\363%\257\340\020)\036k\226"
 137      1983D1F3 
 137      25AFE010 
 137      291E6B96 
 138 00b5 561CD2F0 		.ascii	"V\034\322\360\011\357k4\027i\273\027Wq\306\002\\\270"
 138      09EF6B34 
 138      1769BB17 
 138      5771C602 
 138      5CB8
 139 00c7 30380D2B 		.ascii	"08\015+\320\353z\341\211*^\306\2538\200\214\257\317"
 139      D0EB7AE1 
 139      892A5EC6 
 139      AB38808C 
 139      AFCF
 140 00d9 7B82A329 		.ascii	"{\202\243)\364*\201\035_\0375u\225X\270\012\014\355"
 140      F42A811D 
 140      5F1F3575 
 140      9558B80A 
 140      0CED
 141 00eb 3FF3871B 		.ascii	"?\363\207\033R\226\327k\232_\013?9\310\265w\2538\207"
 141      5296D76B 
 141      9A5F0B3F 
 141      39C8B577 
 141      AB3887
 142 00fe 1F806340 		.ascii	"\037\200c@\370\036\226B#,e\270\304\340\014,G\367\356"
 142      F81E9642 
 142      232C65B8 
 142      C4E00C2C 
 142      47F7EE
 143 0111 70E9712B 		.ascii	"p\351q+_-\240\243\245\177<\264\032\320\277\352\005T"
 143      5F2DA0A3 
 143      A57F3CB4 
 143      1AD0BFEA 
 143      0554
 144 0123 86A64428 		.ascii	"\206\246D(\036\247Y@\377\326*\002)\374=\001\275\177"
 144      1EA75940 
 144      FFD62A02 
 144      29FC3D01 
ARM GAS  C:\Users\AMANRA~1\AppData\Local\Temp\ccu0ZXx6.s 			page 11


 144      BD7F
 145 0135 B9AEDC6C 		.ascii	"\271\256\334l@\273\017\011\250\002-\211P\205A+,'\377"
 145      40BB0F09 
 145      A8022D89 
 145      5085412B 
 145      2C27FF
 146 0148 7B27A72A 		.ascii	"{'\247*\027\230\344P\354\244p\026L\200\353\321\302\362"
 146      1798E450 
 146      ECA47016 
 146      4C80EBD1 
 146      C2F2
 147 015a 92857C8D 		.ascii	"\222\205|\215\210\371|j\317\2449\265N\304l\\\022\362"
 147      88F97C6A 
 147      CFA439B5 
 147      4EC46C5C 
 147      12F2
 148 016c 2FA272DA 		.ascii	"/\242r\332f\307\244\007][/\034\334+\033\256#\027\322"
 148      66C7A407 
 148      5D5B2F1C 
 148      DC2B1BAE 
 148      2317D2
 149 017f 3BCF1769 		.ascii	";\317\027i\345\371\2269Nn\370\353\351\013u\322\333\315"
 149      E5F99639 
 149      4E6EF8EB 
 149      E90B75D2 
 149      DBCD
 150 0191 0A9C8354 		.ascii	"\012\234\203Th\207TQG\200\303\377\211\031_\3565\270"
 150      68875451 
 150      4780C3FF 
 150      89195FEE 
 150      35B8
 151 01a3 A8C9AF2F 		.ascii	"\250\311\257/7>\375X\213\011\"\230\275\203\262\207)"
 151      373EFD58 
 151      8B092298 
 151      BD83B287 
 151      29
 152 01b4 BB94E8B2 		.ascii	"\273\224\350\262\367F\012\203N\332\342q\3341\370\021"
 152      F7460A83 
 152      4EDAE271 
 152      DC31F811 
 153 01c4 393B8FE2 		.ascii	"9;\217\342Lp\037\255N\313a\264\021\300^\341^\375\245"
 153      4C701FAD 
 153      4ECB61B4 
 153      11C05EE1 
 153      5EFDA5
 154 01d7 DE73365E 		.ascii	"\336s6^\011\342T\015\307\276\335\237lT\371\353\221\264"
 154      09E2540D 
 154      C7BEDD9F 
 154      6C54F9EB 
 154      91B4
 155 01e9 9A82B23D 		.ascii	"\232\202\262=\232\240\326\004\027\376\263\326g5x\372"
 155      9AA0D604 
 155      17FEB3D6 
 155      673578FA 
 156 01f9 8B546817 		.ascii	"\213Th\027EWfU\363\023Vs\211F\005\277pp\330\361^%\254"
 156      45576655 
 156      F3135673 
ARM GAS  C:\Users\AMANRA~1\AppData\Local\Temp\ccu0ZXx6.s 			page 12


 156      894605BF 
 156      7070D8F1 
 157 0210 4D4D1723 		.ascii	"MM\027#\303oV\277\214>}g\021\240\004\314\222\220\017"
 157      C36F56BF 
 157      8C3E7D67 
 157      11A004CC 
 157      92900F
 158 0223 174AC061 		.ascii	"\027J\300aA\333\004d[\200\024\231$v\255b\327\206\356"
 158      41DB0464 
 158      5B801499 
 158      2476AD62 
 158      D786EE
 159 0236 388525A8 		.ascii	"8\205%\250\217!\233\026FCB\243 \314J\221\007\2349\264"
 159      8F219B16 
 159      464342A3 
 159      20CC4A91 
 159      079C39B4 
 160 024a C6C01F9A 		.ascii	"\306\300\037\232\376J\241\256a)\025c%/\026\246\037\026"
 160      FE4AA1AE 
 160      61291563 
 160      252F16A6 
 160      1F16
 161 025c A50E0F48 		.ascii	"\245\016\017H\301\020u\213\031st\031\322\203\030.\016"
 161      C110758B 
 161      19737419 
 161      D283182E 
 161      0E
 162 026d 410D0F62 		.ascii	"A\015\017b\3141\020\214\317\213\356\206t\212 |\205X"
 162      CC31108C 
 162      CF8BEE86 
 162      748A207C 
 162      8558
 163 027f BA632F1D 		.ascii	"\272c/\035\361/\221Y\021\023\270\376f~\256\241\007R"
 163      F12F9159 
 163      1113B8FE 
 163      667EAEA1 
 163      0752
 164 0291 11541CD5 		.ascii	"\021T\034\325\332d\032m\023\330\341\012\356\215\203"
 164      DA641A6D 
 164      13D8E10A 
 164      EE8D83
 165 02a0 FFDEE9EA 		.ascii	"\377\336\351\352\226\021HTEoL\025s( c#\203\253\264g"
 165      96114854 
 165      456F4C15 
 165      73282063 
 165      2383ABB4 
 166 02b5 4EDC1B3F 		.ascii	"N\334\033?\222\206\267H\0175\361\332\253M\274\216\264"
 166      9286B748 
 166      0F35F1DA 
 166      AB4DBC8E 
 166      B4
 167 02c6 F452137B 		.ascii	"\364R\023{\251\211\300\366K\270{\240\366\324K\353\262"
 167      A989C0F6 
 167      4BB87BA0 
 167      F6D44BEB 
 167      B2
 168 02d7 06A956DB 		.ascii	"\006\251V\333o\257\342I\0048:\332\252\341\325\207U\377"
ARM GAS  C:\Users\AMANRA~1\AppData\Local\Temp\ccu0ZXx6.s 			page 13


 168      6FAFE249 
 168      04383ADA 
 168      AAE1D587 
 168      55FF
 169 02e9 0CCB844E 		.ascii	"\014\313\204N~{\3227(\341\012\364\201,\352f\320/\356"
 169      7E7BD237 
 169      28E10AF4 
 169      812CEA66 
 169      D02FEE
 170 02fc AAC3ED9D 		.ascii	"\252\303\355\235\017\222\227}g\240\255\344\373\373\261"
 170      0F92977D 
 170      67A0ADE4 
 170      FBFBB1
 171 030b 53FD3681 		.ascii	"S\3756\201\276Ah\270\01125\306.8`d\336)m0'\016\341T"
 171      BE4168B8 
 171      093235C6 
 171      2E386064 
 171      DE296D30 
 172 0323 7372500B 		.ascii	"srP\013\027\332_3\202pk\246\023\376\320\241j\2368\223"
 172      17DA5F33 
 172      82706BA6 
 172      13FED0A1 
 172      6A9E3893 
 173 0337 FFC2E71C 		.ascii	"\377\302\347\034K\030\210\365\316\037\032\335\247&\260"
 173      4B1888F5 
 173      CE1F1ADD 
 173      A726B0
 174 0346 7603A714 		.ascii	"v\003\247\024\035(\207A\272\205\342\017\016\0147%\363"
 174      1D288741 
 174      BA85E20F 
 174      0E0C3725 
 174      F3
 175 0357 46498C56 		.ascii	"FI\214V\377H\303F#W\327\361\267\016\024h\342\016\260"
 175      FF48C346 
 175      2357D7F1 
 175      B70E1468 
 175      E20EB0
 176 036a C0E03C73 		.ascii	"\300\340<s%\303\020E\274\215l\377B\264\343\027\255P"
 176      25C31045 
 176      BC8D6CFF 
 176      42B4E317 
 176      AD50
 177 037c 218FC1DF 		.ascii	"!\217\301\337\022\235\256\267\322Z\220\333\020\022\330"
 177      129DAEB7 
 177      D25A90DB 
 177      1012D8
 178 038b 1DB96A26 		.ascii	"\035\271j&i\330D\276\263\221\236.S\010j\000\223\240"
 178      69D844BE 
 178      B3919E2E 
 178      53086A00 
 178      93A0
 179 039d B4615890 		.ascii	"\264aX\220>\002! l\337\027\003\234\240\3618K\".\031"
 179      3E022120 
 179      6CDF1703 
 179      9CA0F138 
 179      4B222E19 
 180 03b1 13C11DC2 		.ascii	"\023\301\035\302\341z_\361\255a\233z\224\316\033ZB\316"
ARM GAS  C:\Users\AMANRA~1\AppData\Local\Temp\ccu0ZXx6.s 			page 14


 180      E17A5FF1 
 180      AD619B7A 
 180      94CE1B5A 
 180      42CE
 181 03c3 77315425 		.ascii	"w1T%\216\000\225\307\340\036\250X\006\205\016DK\212"
 181      8E0095C7 
 181      E01EA858 
 181      06850E44 
 181      4B8A
 182 03d5 CD46ECB9 		.ascii	"\315F\354\271\213\030Ed\214\314#\330\012\301\233\321"
 182      8B184564 
 182      8CCC23D8 
 182      0AC19BD1 
 183 03e5 E201DD44 		.ascii	"\342\001\335D\245\\\024\202\237\251\216\004w\337\020"
 183      A55C1482 
 183      9FA98E04 
 183      77DF10
 184 03f4 FCC9EA96 		.ascii	"\374\311\352\226\267\365\213\304\320\340T\355\335v["
 184      B7F58BC4 
 184      D0E054ED 
 184      DD765B
 185 0403 4C5EF745 		.ascii	"L^\367E\222\007B^\211Z\032\323\265t\347E\345\355M\""
 185      9207425E 
 185      895A1AD3 
 185      B574E745 
 185      E5ED4D22 
 186 0417 85AEA7A7 		.ascii	"\205\256\247\247\235\333\305\254\306\252\210\3046\312"
 186      9DDBC5AC 
 186      C6AA88C4 
 186      36CA
 187 0425 46EA2076 		.ascii	"F\352 v\0330\235\364h\335\033\264\022\344\020_\036\237"
 187      1B309DF4 
 187      68DD1BB4 
 187      12E4105F 
 187      1E9F
 188 0437 455E3EB2 		.ascii	"E^>\262\204RZ@g~\370*\201v\372\375{$\370\243\273\020"
 188      84525A40 
 188      677EF82A 
 188      8176FAFD 
 188      7B24F8A3 
 189 044d A2A062EC 		.ascii	"\242\240b\354\202\252\242\235z\344$d\007\343\213bDv"
 189      82AAA29D 
 189      7AE42464 
 189      07E38B62 
 189      4476
 190 045f BCF57095 		.ascii	"\274\365p\225|\002Emm\213u/k\220\323_\204\361\263'n"
 190      7C02456D 
 190      6D8B752F 
 190      6B90D35F 
 190      84F1B327 
 191 0474 29548262 		.ascii	")T\202b\374\213x\214\011g\220\255\204\264b\222R\274"
 191      FC8B788C 
 191      096790AD 
 191      84B46292 
 191      52BC
 192 0486 EEF1BF87 		.ascii	"\356\361\277\207\270\026%\246\257s\335\026\321%\366"
 192      B81625A6 
ARM GAS  C:\Users\AMANRA~1\AppData\Local\Temp\ccu0ZXx6.s 			page 15


 192      AF73DD16 
 192      D125F6
 193 0495 000A073B 		.ascii	"\000\012\007;'\252W\353\321y\374\351\024dz\\W\347\004"
 193      27AA57EB 
 193      D179FCE9 
 193      14647A5C 
 193      57E704
 194 04a8 60698AC4 		.ascii	"`i\212\304\260\036\3362\371\376\004\360 7\321\253\225"
 194      B01EDE32 
 194      F9FE04F0 
 194      2037D1AB 
 194      95
 195 04b9 4F4E6662 		.ascii	"ONfb\032E\277\206\237as\317|-\310\023\242.\301\363\014"
 195      1A45BF86 
 195      9F6173CF 
 195      7C2DC813 
 195      A22EC1F3 
 196 04ce D9B01319 		.ascii	"\331\260\023\031+W\252\370qlv\346:\335\276U\037\254"
 196      2B57AAF8 
 196      716C76E6 
 196      3ADDBE55 
 196      1FAC
 197 04e0 CA54DD3E 		.ascii	"\312T\335>\374lq\346\252>\257\0037\\y.\217\333\275\305"
 197      FC6C71E6 
 197      AA3EAF03 
 197      375C792E 
 197      8FDBBDC5 
 198 04f4 B7D2C124 		.ascii	"\267\322\301$\227\007<\260Uv\347~\346\311\234\007\350"
 198      97073CB0 
 198      5576E77E 
 198      E6C99C07 
 198      E8
 199 0505 DCEAD8B2 		.ascii	"\334\352\330\262\375\323\274x\360f\2266'\300\273-\316"
 199      FDD3BC78 
 199      F0669636 
 199      27C0BB2D 
 199      CE
 200 0516 DBB7931C 		.ascii	"\333\267\223\034\315\271\237\370\362>\362:\327\314\011"
 200      CDB99FF8 
 200      F23EF23A 
 200      D7CC09
 201 0525 70B85D2E 		.ascii	"p\270].\367V\325\343\366n\363\251\037\256\317\316\312"
 201      F756D5E3 
 201      F66EF3A9 
 201      1FAECFCE 
 201      CA
 202 0536 DE812E0E 		.ascii	"\336\201.\016\2677/\347\363\265.\204g\315\007\313\333"
 202      B7372FE7 
 202      F3B52E84 
 202      67CD07CB 
 202      DB
 203 0547 B18D406A 		.ascii	"\261\215@jV\366\206u\033\324,D\251\353b\351]>\247/g"
 203      56F68675 
 203      1BD42C44 
 203      A9EB62E9 
 203      5D3EA72F 
 204 055c 93C38131 		.ascii	"\223\303\2011\026eoXo\2472<^g\206=5\223I^f\306\263\270"
ARM GAS  C:\Users\AMANRA~1\AppData\Local\Temp\ccu0ZXx6.s 			page 16


 204      16656F58 
 204      6FA7323C 
 204      5E67863D 
 204      3593495E 
 205 0574 BD3B19F7 		.ascii	"\275;\031\367l\366\374\0031\2779\022"
 205      6CF6FC03 
 205      31BF3912 
 206              		.text
 207              		.section	.gnu.lto_chPoolAllocI.c3c01d24,"",%progbits
 208 0000 789C8592 		.ascii	"x\234\205\222[k\023Q\020\307gv\316\356\206X#\3641\024"
 208      5B6B1351 
 208      10C76776 
 208      CEEE8658 
 208      23F43114 
 209 0014 E983A516 		.ascii	"\351\203\245\026$k-\024\372\340\273\237#A0\322\220\320"
 209      246B2D14 
 209      FAE0BB9F 
 209      234130D2 
 209      90D0
 210 0026 7C809CDC 		.ascii	"|\200\234\334H\352\005\2135\021\302\"\221*5\017\242"
 210      48EA058B 
 210      3511C222 
 210      912A350F 
 210      A2
 211 0037 522F4DAD 		.ascii	"R/M\255\272M\241\370\322\224J)B\244\017\212\305H\021"
 211      BA4DA1F8 
 211      D2944A29 
 211      42A40F8A 
 211      C54811
 212 004a 8AE24325 		.ascii	"\212\342C%\3219\273\025\253\"\206M\316ef\376\377\337"
 212      D139BB15 
 212      AB22864D 
 212      CE6566FE 
 212      FFDF
 213 005c CCC60080 		.ascii	"\314\306\000\200\226\0060\312\353i\376\242\001\250M"
 213      960630CA 
 213      EB69FEA2 
 213      01A84D
 214 006b 3501D23E 		.ascii	"5\001\322>M\243\316\010H\277\230\016\202\354!\324\275"
 214      4DA3CE08 
 214      48BF980E 
 214      82EC21D4 
 214      BD
 215 007c 6BE16D50 		.ascii	"k\341mPGT\253\364!\2444\022:\246\360\022]#\\\317\335"
 215      4754ABF4 
 215      21A43412 
 215      3AA6F012 
 215      5D235CCF 
 216 0091 B7E922D9 		.ascii	"\267\351\"\331\004(\370\270\273Zy\027PG\304~>\326\012"
 216      0428F8B8 
 216      BB5A7917 
 216      5047C47E 
 216      3ED60A
 217 00a4 9FD78DA1 		.ascii	"\237\327\215\241Y)3\322\271~\325?\233\315\237\261I\203"
 217      592933D2 
 217      B97ED53F 
 217      9BCD9FB1 
ARM GAS  C:\Users\AMANRA~1\AppData\Local\Temp\ccu0ZXx6.s 			page 17


 217      4983
 218 00b6 32673FC4 		.ascii	"2g?\304>\234\303>\005\361\010\2078\367\303\374J\321"
 218      3E9CC33E 
 218      05F10887 
 218      38F7C3FC 
 218      4AD1
 219 00c8 471602EF 		.ascii	"G\026\002\357\277\245\267j\201\301\333n\335\233[$\217"
 219      BFA5B76A 
 219      81C1DB6E 
 219      DD9B5B24 
 219      8F
 220 00d9 D944F818 		.ascii	"\331D\370\030\351`!_\001>\301A\225\337\316M\025\217"
 220      E960215F 
 220      013EC141 
 220      95DFCE4D 
 220      158F
 221 00eb D029B776 		.ascii	"\320)\267v\267{y\317\034\230qk7\357\364\336\314\312"
 221      B77B79CF 
 221      1C98716B 
 221      37EFF4DE 
 221      CCCA
 222 00fd 9752B02B 		.ascii	"\227R\260+\316\377^\257>\234\376\366A\267t\330\020X"
 222      CEFF5EAF 
 222      3E9CFEF6 
 222      41B774D8 
 222      1058
 223 010f C7812A81 		.ascii	"\307\201*\201Bc\242\0055\030^\325\355\275W\272#\273"
 223      4263A205 
 223      35185ED5 
 223      EDBD57BA 
 223      23BB
 224 0121 DF0BD269 		.ascii	"\337\013\322i\036_\373\262\331\353\327\330Z\260\020"
 224      1E5FFBB2 
 224      D9EBD7D8 
 224      5AB010
 225 0130 C784FB6B 		.ascii	"\307\204\373k\240\3420\335=@\221\025xT\322\201In\225"
 225      A0E230DD 
 225      3D409115 
 225      7854D281 
 225      496E95
 226 0143 7759073E 		.ascii	"wY\007>bf\241}%o(\341\012\231l[\3167\326L5(r\241\027"
 226      6266A17D 
 226      256F28E1 
 226      0A996C5B 
 226      CE37D64C 
 227 015c 1BAB2B46 		.ascii	"\033\253+F\025o\244\245\224\325\0116\320+d\340S\205"
 227      156FA4A5 
 227      94D50936 
 227      D02B64E0 
 227      5385
 228 016e C9D18DC2 		.ascii	"\311\321\215\302\353\255C\326]\216\311~\366\306E\254"
 228      EBAD43D6 
 228      5D8EC97E 
 228      F6C645AC 
 229 017e 62498102 		.ascii	"bI\201\002>C\013\2661S\015+i\005\300\362\360\036s\255"
 229      3E430BB6 
 229      31530D2B 
ARM GAS  C:\Users\AMANRA~1\AppData\Local\Temp\ccu0ZXx6.s 			page 18


 229      6905C0F2 
 229      F01E73AD 
 230 0192 E566AD67 		.ascii	"\345f\255g\337\016C^\267\223<\261\316\310O\234J>\340"
 230      DF0E435E 
 230      B7933CB1 
 230      CEC84F9C 
 230      4A3EE0
 231 01a5 C5B58338 		.ascii	"\305\265\2038\342/\034vtE\236\377\003\346\205\013\203"
 231      E22F1C76 
 231      74459EFF 
 231      03E6850B 
 231      83
 232 01b6 0AC66118 		.ascii	"\012\306a\030\326\336\270\320&%\375g_G\377\323\326\322"
 232      D6DEB8D0 
 232      2625FD67 
 232      5F47FFD3 
 232      D6D2
 233 01c8 AFB61A68 		.ascii	"\257\266\032h1\230\313,`:\310\314;(<\\\365\257\253\327"
 233      3198CB2C 
 233      603AC8CC 
 233      3B283C5C 
 233      F5AFABD7 
 234 01dc 775A66AA 		.ascii	"wZf\252#}6\231e\345\215\313\230\002\326\266\311\347"
 234      237D3699 
 234      65E58DCB 
 234      9802D6B6 
 234      C9E7
 235 01ee 16E9FB83 		.ascii	"\026\351\373\203\337F\015\274\251\010\370\304c\232+"
 235      DF460DBC 
 235      A908F8C4 
 235      639A2B
 236 01fd 053D15C1 		.ascii	"\005=\025\301i_Qpc\2647\263\204,+\324\253CU\307\276"
 236      695F5170 
 236      63B437B3 
 236      842C2BD4 
 236      AB4355C7 
 237 0212 2742218B 		.ascii	"'B!\213\237\310\271h8\032O\016\217\015\237\264\342I"
 237      9FC8B968 
 237      381A4F0E 
 237      8F0D9FB4 
 237      E249
 238 0224 7EC6A361 		.ascii	"~\306\243a+9\021\341@\354l,\021\217\217'C\021\320b\011"
 238      2B3911E1 
 238      40EC6C2C 
 238      118F8F27 
 238      4311D062 
 239 0239 110F9F4F 		.ascii	"\021\017\237O\374\000':\372P"
 239      FC00273A 
 239      FA50
 240              		.text
 241              		.section	.gnu.lto_chPoolAlloc.c3c01d24,"",%progbits
 242 0000 789C8D54 		.ascii	"x\234\215T\341oSU\024\277\347\335\367^\353Z7\302'c\026"
 242      E16F5355 
 242      14BFE7DD 
 242      F75EEB5A 
 242      37C22763 
 243 0015 D325368C 		.ascii	"\323%6\214d\351\003>h\374\262h\366E>,1\354\017@[\033"
ARM GAS  C:\Users\AMANRA~1\AppData\Local\Temp\ccu0ZXx6.s 			page 19


 243      64E9033E 
 243      68FCB268 
 243      F6453E2C 
 243      31EC0F40 
 244 002b A85969D3 		.ascii	"\250Yi\323N\003\237v\351\272ls\242D\2662k\331\212@p"
 244      4E039F76 
 244      E9BA6C73 
 244      A244B632 
 244      6BD98A40 
 245 0040 C9404514 		.ascii	"\311@E\024\266\301V:\331&\262\302F\301\271\031\004\026"
 245      B6C1563A 
 245      D926B2C2 
 245      46C1B919 
 245      0416
 246 0052 88C38588 		.ascii	"\210\303\205\210\0224\020\213\347\334\327\221\256\233"
 246      1234108B 
 246      E7DCD791 
 246      AE9B
 247 0060 8B4DFB7A 		.ascii	"\213M\373z\357=\347w\316\357\374\316\271Og\214=\257"
 247      EF3DE777 
 247      CEEFFCCE 
 247      B94F678C 
 247      3DAF
 248 0072 3396C3FF 		.ascii	"3\226\303\377j\374\201\316@\331\233al\267UQx\246\232"
 248      6AFC81CE 
 248      40D99B61 
 248      6CB75551 
 248      78A69A
 249 0085 8912355D 		.ascii	"\211\0225]\306\204\235\203f\036\253\213\013\015\200"
 249      C6849D83 
 249      661EAB8B 
 249      0B0D80
 250 0094 16C20AAC 		.ascii	"\026\302\012\254Q\341\252\006\215\360\001\357\3400\031"
 250      51E1AA06 
 250      8DF001EF 
 250      E03019
 251 00a3 FD32C1DB 		.ascii	"\3752\301\333y\2023Pq{\177\">WJ[\000\007n{[\376\234"
 251      79823350 
 251      717B7F22 
 251      3E574A5B 
 251      00076E7B 
 252 00ba D4D71F15 		.ascii	"\324\327\037\025\"\"R\373?\266\035mj~=\301\025\026C"
 252      222252FB 
 252      3FB61D6D 
 252      6A7E3DC1 
 252      151643
 253 00cd EF93500E 		.ascii	"\357\223P\016_C9\261\370\006\326\243\357\257\247G[\255"
 253      5F4339B1 
 253      F806D6A3 
 253      EFAFA747 
 253      5BAD
 254 00df DC0086EB 		.ascii	"\334\000\206\353\307\273\257\367\226\256;\"q\331\303"
 254      C7BBAFF7 
 254      96AE3B22 
 254      71D9C3
 255 00ee 5CBC98E0 		.ascii	"\\\274\230\340\034\276\005^\010\304#\006\247`\035\371"
 255      1CBE055E 
ARM GAS  C:\Users\AMANRA~1\AppData\Local\Temp\ccu0ZXx6.s 			page 20


 255      08C42306 
 255      A7601DF9 
 256 00fe CF47F7B6 		.ascii	"\317G\367\266\226\361M\022{?\267\347\221\305yHb\257"
 256      96F14D12 
 256      7B3FB7E7 
 256      91C57948 
 256      62AF
 257 0110 F5AD3DD8 		.ascii	"\365\255=\330$\306\205\212Y\341\364R<}\320\375\326W"
 257      24C6858A 
 257      59E1F452 
 257      3C7DD0FD 
 257      D657
 258 0122 B9CE6775 		.ascii	"\271\316gu\025\372\301I\274\220\316\000\350\360\324"
 258      15FAC149 
 258      BC90CE00 
 258      E8F0D4
 259 0131 1015F849 		.ascii	"\020\025\370I=\354\323\345y\214C\001\206\301 \272\236"
 259      3DECD3E5 
 259      798C4301 
 259      86C120BA 
 259      9E
 260 0142 41158BDC 		.ascii	"A\025\213\334\037\217Vk\214\0141,\026mG.L\015\333\370"
 260      1F8F566B 
 260      8C0C312C 
 260      166D472E 
 260      4C0DDBF8 
 261 0156 9B12DB7B 		.ascii	"\233\022\333{\374`\227=Oo\354@ewS\373\036\221\214\254"
 261      FC60973D 
 261      4F6FEC40 
 261      657753FB 
 261      1E918CAC 
 262 016a 49701586 		.ascii	"Ip\025\206V!h\006\276\327\215:\014#S8K\301\371\0222"
 262      56216806 
 262      BED78D3A 
 262      0C235338 
 262      4BC1F912 
 263 017f 2924738E 		.ascii	")$s\216Z\212\017\300:\212\264\330\337Q\362\311I!\332"
 263      5A8A0FC0 
 263      3A8AB4D8 
 263      DF51F2C9 
 263      4921DA
 264 0192 5EFD0F2D 		.ascii	"^\375\017- \015\316/\246\264\224\310=i\021\251LU\346"
 264      200DCE2F 
 264      A6B494C8 
 264      3D6911A9 
 264      4C55E6
 265 01a5 C1C25ABB 		.ascii	"\301\302Z\273\002$1\227F\025%\3274\271\324\345\223\261"
 265      02243197 
 265      461525D7 
 265      34B9D4E5 
 265      93B1
 266 01b7 56140CC7 		.ascii	"V\024\014\307B\244X\033V\212\253\246\024\273\003\312"
 266      42A4581B 
 266      568AABA6 
 266      14BB03CA 
 267 01c7 0A757EBA 		.ascii	"\012u~\272z\2350\002N\004\265\314\213\263*\215\217\012"
 267      7A9D3002 
ARM GAS  C:\Users\AMANRA~1\AppData\Local\Temp\ccu0ZXx6.s 			page 21


 267      4E04B5CC 
 267      8BB32A8D 
 267      8F0A
 268 01d9 0EF80E6D 		.ascii	"\016\370\016m\277A\344\326\223\316\201_\212\033\262"
 268      BF41E4D6 
 268      93CE815F 
 268      8A1BB2
 269 01e8 AFCB966F 		.ascii	"\257\313\226o\210\272L\374;\233\220\344y\262i\305\266"
 269      88BA4CFC 
 269      3B9B90E4 
 269      79B269C5 
 269      B6
 270 01f9 91039538 		.ascii	"\221\003\2258\232#$\340\350r\001\307P\267q\022p\234"
 270      9A2324E0 
 270      E87201C7 
 270      50B77112 
 270      709C
 271 020b 04043647 		.ascii	"\004\0046GY?\3539\361wI\305\003\350\021]\216\004\227"
 271      593FEB39 
 271      F17749C5 
 271      03E8115D 
 271      8E0497
 272 021e AD3E3637 		.ascii	"\255>67(\254\252\202\254\277\207\012\331\243\337\027"
 272      28ACAA82 
 272      ACBF870A 
 272      D9A3DF17 
 273 022e B2B30A9E 		.ascii	"\262\263\012\236\300\005P%o\006?\310\373\360\371\320"
 273      C0055025 
 273      6F063FC8 
 273      FBF0F9D0 
 274 023e C86D7BC5 		.ascii	"\310m{\305_y\264\205|\3778~\342\252M\242/\022\032&@"
 274      5F79B485 
 274      7CFF387E 
 274      E2AA4DA2 
 274      2F121A26 
 275 0253 45CD220E 		.ascii	"E\315\"\016\251\001\243\345\215\266\213\032\025\207"
 275      A901A3E5 
 275      8DB68B1A 
 275      1587
 276 0261 CE836387 		.ascii	"\316\203c\207\367\251y\0253}\245q\221\212:V\270\013"
 276      F7A97915 
 276      337DA571 
 276      918A3A56 
 276      B80B
 277 0273 52C20C38 		.ascii	"R\302\0148\343\330\205\273\020\031\230\377\250Y/*\375"
 277      E3D885BB 
 277      101998FF 
 277      A8592F2A 
 277      FD
 278 0284 6E1539E4 		.ascii	"n\0259\344E\323\013'\237:\011\227\260\344\313T;>\342"
 278      45D30B27 
 278      9F3A0997 
 278      B0E4CB54 
 278      3B3EE2
 279 0297 9C6E76AC 		.ascii	"\234nv\2549}\311B\2750g\376LzbTOB7$\270\025\323\300"
 279      397DC942 
 279      BD3067FE 
ARM GAS  C:\Users\AMANRA~1\AppData\Local\Temp\ccu0ZXx6.s 			page 22


 279      4C7A6254 
 279      4F423724 
 280 02af 24A5C5F3 		.ascii	"$\245\305\363l\313\364u\233q\214r$\207;\312qD`\012\222"
 280      6CCBF475 
 280      9B718C72 
 280      24873BCA 
 280      7144600A 
 281 02c4 D0899341 		.ascii	"\320\211\223AA\031\\\001\203\212J\272)4%\303\360\354"
 281      41195C01 
 281      838A4ABA 
 281      293425C3 
 281      F0EC
 282 02d6 36446747 		.ascii	"6DgG2\275\366|:p\2315\264\241)S\215C$\213\2107\227\232"
 282      32BDF67C 
 282      3A709935 
 282      B4A12953 
 282      8D43248B 
 283 02ee 76B5908E 		.ascii	"v\265\220\216VL\347\031\012\220]N\307A\276W%\027\310"
 283      564CE719 
 283      0A905D4E 
 283      C741BE57 
 283      2517C8
 284 0301 73B9865C 		.ascii	"s\271\206\\0t\366\375yN\221\377gY/P\240\037\227\024"
 284      3074F6FD 
 284      794E91FF 
 284      67592F50 
 284      A01F9714 
 285 0315 350D06D2 		.ascii	"5\015\006\322\222\214U\226.C\306\013\330yIVCt\177\377"
 285      928C5596 
 285      2E43C60B 
 285      D8794956 
 285      43747FFF 
 286 0329 C2ACA5F1 		.ascii	"\302\254\245\361\037aM\360\222\030\267\230\230\237\240"
 286      1F614DF0 
 286      9218B798 
 286      989FA0
 287 0338 91618A04 		.ascii	"\221a\212\004\267I\234Vp_LYt\251\323\251\330s\362\025"
 287      B7499C56 
 287      705F4C59 
 287      74A9D3A9 
 287      D873F215 
 288 034c 94C94F83 		.ascii	"\224\311O\203C\356\322Kv\375\346\016\201\303\362\336"
 288      43EED24B 
 288      76FDE60E 
 288      81C3F2DE 
 289 035c 3C1547C5 		.ascii	"<\025G\305Jg\012\357\215\3712\310\317r\256\347\346\220"
 289      4A670AEF 
 289      8DF932C8 
 289      CF72AEE7 
 289      E690
 290 036e 6D714C67 		.ascii	"mqLg\344\230\316\3121-\236\311\237\315\231\274q\363"
 290      E498CECA 
 290      312D9EC9 
 290      9FCD99BC 
 290      71F3
 291 0380 C3996D32 		.ascii	"\303\231m2\007c\367p\333>}^\247\374D\225\261\207\262"
 291      0763F770 
ARM GAS  C:\Users\AMANRA~1\AppData\Local\Temp\ccu0ZXx6.s 			page 23


 291      DB3E7D5E 
 291      A7FC4495 
 291      B187B2
 292 0393 75FCD1A1 		.ascii	"u\374\321\241s\200U\253\3646\000\252\011\303T\271\\"
 292      738055AB 
 292      F43600AA 
 292      09C354B9 
 292      5C
 293 03a4 067E3DDB 		.ascii	"\006~=\333}n_ \274\361\225\215\033\214@\030\277\365"
 293      7D6E5F20 
 293      BCF1958D 
 293      1B8C4018 
 293      BFF5
 294 03b6 3EB7110E 		.ascii	">\267\021\016y\320\340\367\372\203\201@}\330\345a\212"
 294      79D0E0F7 
 294      FA838140 
 294      7DD8E561 
 294      8A
 295 03c7 3FA806DC 		.ascii	"?\250\006\334\357\004+W\004\205\032\014\337\016O\375"
 295      EF042B57 
 295      04851A0C 
 295      DF0E4FFD 
 296 03d7 BB6F7BD1 		.ascii	"\273o{\321\022\336\025vmg\026\367[a\357\033!\337K+\002"
 296      12DE1576 
 296      6D6716F7 
 296      5B61EF1B 
 296      21DF4B2B 
 297 03ec 3C01BF3F 		.ascii	"<\001\277?\260\303\010\006B\015a\343\265-\2655\265;"
 297      B0C30806 
 297      420D61E3 
 297      B52DB535 
 297      B53B
 298 03fe D1C51308 		.ascii	"\321\305\023\010y\267\276\367\262\037\3415\253\301\274"
 298      79B7BEF7 
 298      B21FE135 
 298      ABC1BC
 299 040d 3B1B0864 		.ascii	";\033\010d\324\324\326m\2563j\020el^L\357\017\373\302"
 299      D4D4D66D 
 299      AE336A10 
 299      656C5E4C 
 299      EF0FFBC2 
 300 0421 5BB7793C 		.ascii	"[\267y<\030cMm\335\026\007\321\010\206|U\016\347\006"
 300      18634D6D 
 300      DD1607D1 
 300      08867C55 
 300      0EE706
 301 0434 A6849805 		.ascii	"\246\204\230\005k\012\204v\261\177\001\274G?\265"
 301      6B0A8476 
 301      B17F01BC 
 301      473FB5
 302              		.text
 303              		.section	.gnu.lto_chPoolFreeI.c3c01d24,"",%progbits
 304 0000 789C8552 		.ascii	"x\234\205RMk\023Q\024\275g\356L\022l\255\013\241\210"
 304      4D6B1351 
 304      14BD67EE 
 304      4C126CAD 
 304      0BA188
ARM GAS  C:\Users\AMANRA~1\AppData\Local\Temp\ccu0ZXx6.s 			page 24


 305 0013 16E9C212 		.ascii	"\026\351\302\022\012\222\261n\244\376\026W\011B#\015"
 305      0A92B16E 
 305      A4FE1657 
 305      0942230D 
 306 0023 33981FD0 		.ascii	"3\230\037\320\227\2645Su\321\205M!\0142\250\241t!U\374"
 306      97B43553 
 306      75D1854D 
 306      210C32A8 
 306      A1742155 
 307 0038 4A6BD531 		.ascii	"Jk\3251\226\340\302*J\013\026%\202\205bD\004A\334\010"
 307      96E0C22A 
 307      4A0B1625 
 307      82856244 
 307      0441DC08 
 308 004c A9F78D2D 		.ascii	"\251\367\215-m\025\361\362\036s\337\275\367\2349\357"
 308      6D15F1F2 
 308      1E73DFBD 
 308      F79C39EF 
 309 005c CCC488A8 		.ascii	"\314\304\210\250`\020\235\226\347\021\331`\2021\371"
 309      60109D96 
 309      E711D960 
 309      8231F9
 310 006b 528A0903 		.ascii	"R\212\011\003\320\211J\200F\014\214\3402_a\324K\033"
 310      D0894A80 
 310      460C8CE0 
 310      325F61D4 
 310      4B1B
 311 007d F346FF8C 		.ascii	"\363F\377\214\222\010\247\233\035\027\324\370!\237\211"
 311      9208A79B 
 311      1D17D4F8 
 311      219F89
 312 008c CAB275E0 		.ascii	"\312\262u\340\016\372e\352\365\330-\237/\261\317\200"
 312      0EFA65EA 
 312      F5D82D9F 
 312      2FB1CF80 
 313 009c 29C76FCB 		.ascii	")\307o\313\225\365.}4\320+\307O\265\206\227`\033$\371"
 313      95F52E7D 
 313      34D02BC7 
 313      4FB58697 
 313      601B24F9 
 314 00b0 CF4273B6 		.ascii	"\317Bs\266+YU\252\250\302\0277X\035\363\231q\037,\204"
 314      2B5955AA 
 314      A8C21737 
 314      581DF399 
 314      711F2C84 
 315 00c4 B8871EDC 		.ascii	"\270\207\036\334E\017I\211\360\000I\031o\215Mz\007\370"
 315      450F4989 
 315      F0004919 
 315      6F8D4D7A 
 315      07F8
 316 00d6 6404FDF1 		.ascii	"d\004\375\361e\265\322\271\005}_\215\240&j\177BM\302"
 316      65B5D2B9 
 316      057D5F8D 
 316      A0266A7F 
 316      424DC2
 317 00e9 3C927AFE 		.ascii	"<\222z\376\335Z\263\326\311\247\"\354\352\207\3313}"
 317      DD5AB3D6 
ARM GAS  C:\Users\AMANRA~1\AppData\Local\Temp\ccu0ZXx6.s 			page 25


 317      C9A722EC 
 317      EA87D933 
 317      7D
 318 00fa D7236863 		.ascii	"\327#hc\356\350\265Q\365\\\231>[X\330\013\327!\323\037"
 318      EEE8B551 
 318      F55C993E 
 318      5B58D80B 
 318      D721D31F 
 319 010e 6FB7A7F6 		.ascii	"o\267\247\366\307L<D_\260}Y,\"F\220d\356\215\025\252"
 319      C74C3C44 
 319      5FB07D59 
 319      2C224690 
 319      64EE8D15 
 320 0123 F6664985 		.ascii	"\366fI\205\355T\353\373\322\3018\240\337(W\027\311\246"
 320      ED54EBFB 
 320      D2C138A0 
 320      DF285717 
 320      C9A6
 321 0135 28B0883C 		.ascii	"(\260\210<A\210\227*\244\0116t6\032\322\006\212\301"
 321      4188972A 
 321      A4093674 
 321      361AD206 
 321      8AC1
 322 0147 FAB4AD79 		.ascii	"\372\264\255y4q\205A\237Q\\hmV\367\351Z\205\265s\345"
 322      34718541 
 322      9F515C68 
 322      6D56F7E9 
 322      5A85B573 
 323 015c F1FAABB8 		.ascii	"\361\372\253\270v\216#\331\213\365\345F,\300\325\202"
 323      768E23D9 
 323      8BF5E546 
 323      2CC0D582 
 324 016c D8DFEBB3 		.ascii	"\330\337\353\263\0141\036i\235\322[)\275mv\3307\325"
 324      0C311E69 
 324      9DD25B29 
 324      BD6D76D8 
 324      37D5
 325 017e EF9685C7 		.ascii	"\357\226\205\307\0100\025}\026<\201\255\271W.\256\261"
 325      0830157D 
 325      163C81AD 
 325      B9572EAE 
 325      B1
 326 018f A6DECD6B 		.ascii	"\246\336\315k\375\305\033\034\3669.j\020\376\203\370"
 326      FDC51B1C 
 326      F6392E6A 
 326      10FE83F8 
 327 019f 6944ACAF 		.ascii	"iD\254\257\216:l\321\251\271\313-\257\024\337\"\337"
 327      8E3A6CD1 
 327      A9B9CB2D 
 327      AF14DF22 
 327      DF
 328 01b0 C3D6FD1F 		.ascii	"\303\326\375\037\231\317vd.i6\320W1f\306Gd\260\016O"
 328      99CF7664 
 328      2E6936D0 
 328      573166C6 
 328      4764B00E 
 329 01c5 6A6299FC 		.ascii	"jb\231\374\244\307S)[Vf(\233\316:\371\201\301\201\023"
ARM GAS  C:\Users\AMANRA~1\AppData\Local\Temp\ccu0ZXx6.s 			page 26


 329      A4C75329 
 329      5B566628 
 329      9BCE3AF9 
 329      81C18113 
 330 01d9 B6939735 		.ascii	"\266\223\2275\234M\333\371\363\031i\344\316\346\\\307"
 330      9C4DDBF9 
 330      F31969E4 
 330      CEE65CC7 
 331 01e9 19CEA732 		.ascii	"\031\316\2472d\344\\\323I\237s\331\035r\177\001y\332"
 331      64E45CD3 
 331      499F73D9 
 331      1D727F01 
 331      79DA
 332 01fb E147     		.ascii	"\341G"
 333              		.text
 334              		.section	.gnu.lto_chPoolFree.c3c01d24,"",%progbits
 335 0000 789C8D53 		.ascii	"x\234\215SmlSe\024>\347\276\267\037lu\362\213\030%\330"
 335      6D6C5365 
 335      143EE7BE 
 335      B71F6C75 
 335      F28B1825 
 336 0015 25361D09 		.ascii	"%6\035\011\331\005~h\374cb\366\213\037K\014\373k\202"
 336      D9057E68 
 336      FC6362F6 
 336      8B1F4B0C 
 336      FB6B82
 337 0028 AE36AC66 		.ascii	"\2566\254f\3456\275\323\300/.\335\260\305\211!\301\025"
 337      E536BDD3 
 337      C02F2EDD 
 337      B0C58921 
 337      C115
 338 003a 52BBAD22 		.ascii	"R\273\255\"\013.\362\241\370\265u\260\225\016;D7`v\300"
 338      0B2EF2A1 
 338      F8B575B0 
 338      950E3B44 
 338      376076C0 
 339 004e 988E8FC5 		.ascii	"\230\216\217\305\305*!b\214\020\211\235\347\274\275"
 339      C52A2162 
 339      8C10899D 
 339      E7BCBD
 340 005d 10D62E8B 		.ascii	"\020\326.\2137\367\336\274\037\347<\357s\236\363\274"
 340      37F7DEBC 
 340      1FE73CEF 
 340      739EF3BC 
 341 006d 76003863 		.ascii	"v\0008c\003P\020\340\031\032\243\000T\366M\000\354r"
 341      035010E0 
 341      191AA300 
 341      54F64D00 
 341      EC72
 342 007f 2A883C30 		.ascii	"*\210<0\235\010;\025\334\211\357\211\017\004f\243\363"
 342      9D083B15 
 342      DC89EF89 
 342      0F0466A3 
 342      F3
 343 0090 83CADA23 		.ascii	"\203\312\332#&=\231\003\3035\357\230\273\237J\012\200"
 343      263D9903 
 343      C335EF98 
ARM GAS  C:\Users\AMANRA~1\AppData\Local\Temp\ccu0ZXx6.s 			page 27


 343      BB9F4A0A 
 343      80
 344 00a1 387DFCE0 		.ascii	"8}\374\340\027\270\226\242.u|\226\024\235\")\020U\232"
 344      17B896A2 
 344      2E757C96 
 344      149D2229 
 344      10559A
 345 00b4 DE1D4FCC 		.ascii	"\336\035O\314\325\360TA7M\177\035\310\305\234BC\240"
 345      D5F05441 
 345      374D7F1D 
 345      C8C59C42 
 345      43A0
 346 00c6 F1835DB3 		.ascii	"\361\203]\263\3755\336>\323\214\230\231\263\207\205"
 346      FD35DE3E 
 346      D38C9899 
 346      B38785
 347 00d5 F95C5208 		.ascii	"\371\\R\010\374\032\005\001\342W\270\032\277\304\325"
 347      FC1A0501 
 347      E257B81A 
 347      BFC4D5
 348 00e4 404B80DF 		.ascii	"@K\200\337\240\227\302\013\035\373bO\212\2152\365\357"
 348      A097C20B 
 348      1DFB624F 
 348      8A8D32F5 
 348      EF
 349 00f5 DB530997 		.ascii	"\333S\011\227\225\232\357\223\251*\016\224\247\252\200"
 349      959AEF93 
 349      A92A0E94 
 349      A7AA80
 350 0104 83E8E5F8 		.ascii	"\203\350\345\370[\237\027\273\236\260\253%\256\230F"
 350      5B9F17BB 
 350      9EB0AB25 
 350      AE9846
 351 0113 3B3E5AEC 		.ascii	";>Z\354\220\365\314\246\355r=.\360\361x\034\242\320"
 351      90F5CCA6 
 351      ED723D2E 
 351      F0F1781C 
 351      A2D0
 352 0125 536887B2 		.ascii	"Sh\207\262\360\007\271\227l\300\033q\241\360^\337\371"
 352      F007B997 
 352      6CC01B71 
 352      A1F05EDF 
 352      F9
 353 0136 C9916AF1 		.ascii	"\311\221j\361\232\314\355?\376\321A\227\347c\311m\254"
 353      9ACCED3F 
 353      FED14197 
 353      E763C96D 
 353      AC
 354 0147 BBAEA7BD 		.ascii	"\273\256\247\275s\257\231\212\254L\012\033\016/f\310"
 354      73AF998A 
 354      AC4C0A1B 
 354      0E2F66C8 
 355 0157 4F19F09D 		.ascii	"O\031\360\235\036\322`\004=\200\247\031\\,\"\223!2g"
 355      1ED26004 
 355      3D80A719 
 355      5C2C2293 
 355      213267
ARM GAS  C:\Users\AMANRA~1\AppData\Local\Temp\ccu0ZXx6.s 			page 28


 356 016a 880CFFA8 		.ascii	"\210\014\377\250gpb\322\2261\213\013Qj\307\232\301\213"
 356      677062D2 
 356      96318B0B 
 356      516AC79A 
 356      C18B
 357 017c 85A3DE15 		.ascii	"\205\243\336\025\3247\022\213\244\247\272UR\300\016"
 357      D437128B 
 357      A4A7BA55 
 357      52C00E
 358 018b 10A392A9 		.ascii	"\020\243\222\251\227f\006\366\020W\032\265g`\036\225"
 358      976606F6 
 358      10571AB5 
 358      67601E95 
 359 019b 25987EB8 		.ascii	"%\230~\270<S\314\242\207\222\242\005\363\264\312\015"
 359      3C53CCA2 
 359      8792A205 
 359      F3B4CA0D 
 360 01ab B5A11B47 		.ascii	"\265\241\033Gi\357w\214\334Z\350J_/\227t\377d\215%\251"
 360      69EF778C 
 360      DC5AE84A 
 360      5F2F9774 
 360      FF648D25 
 361 01c0 5A21DFFC 		.ascii	"Z!\337\374F\222\357,\357\331\312\367F\273\353\310;Y"
 361      4692EF2C 
 361      EFD9CAF7 
 361      46BBEBC8 
 361      3B59
 362 01d2 96E0DB4A 		.ascii	"\226\340\333J\011rT\371\030K0\306\022 \314\361\251\207"
 362      097254F9 
 362      184B30C6 
 362      1220CCF1 
 362      A987
 363 01e4 7A4FDEAF 		.ascii	"zO\336\257\252\375\013{\315\203\356\244pp\302\261\271"
 363      AAFD0B7B 
 363      CD83EEA4 
 363      7070C2B1 
 363      B9
 364 01f5 21D3A92A 		.ascii	"!\323\251*\304\372\034\326J\225\377\270\235\237Qh\005"
 364      C4FA1CD6 
 364      4A95FFB8 
 364      9D9F5168 
 364      05
 365 0206 BF4355F2 		.ascii	"\277CU\362\006</\035\372\311\360\350/\256\332{V\266"
 365      063C2F1D 
 365      FAC9F0E8 
 365      2FAEDA7B 
 365      56B6
 366 0218 9363FF3C 		.ascii	"\223c\377<~r\252Zf\177\317\331\370\003\252\244Y\304"
 366      7E72AA5A 
 366      667FCFD9 
 366      F803AAA4 
 366      59C4
 367 022a 2D35001E 		.ascii	"-5\000\036\336\330\323\357\340\342(xh\354\360~\325R"
 367      DED8D3EF 
 367      E0E22878 
 367      68ECF07E 
 367      D552
ARM GAS  C:\Users\AMANRA~1\AppData\Local\Temp\ccu0ZXx6.s 			page 29


 368 023c B138E84A 		.ascii	"\2618\350J\230\231\016\367\022N\226\022\216\243'A] "
 368      98990EF7 
 368      124E9612 
 368      8EA32741 
 368      5D20
 369 024e 80D4916E 		.ascii	"\200\324\221na\001\334-\356\375\307Q\001P\341g\0110"
 369      6101DC2D 
 369      EEFDC751 
 369      0150E167 
 369      0930
 370 0260 C1004202 		.ascii	"\301\000B\002\314\035\320\312\244\273\234\266s\000\237"
 370      CC1DD0CA 
 370      A4BB9CB6 
 370      73009F
 371 026f 62292F8D 		.ascii	"b)/\215;3=;\340\022\013(\3359u\275\377U\353\254\334"
 371      3B333D3B 
 371      E0120B28 
 371      DD3975BD 
 371      FF55EBAC 
 372 0284 893587DA 		.ascii	"\2115\207\332\315s\246J>\301\213\313XS\305K\214x\201"
 372      CD73A64A 
 372      3EC18BCB 
 372      5853C54B 
 372      8C7881
 373 0297 249F64ED 		.ascii	"$\237d\355\351\307+L\3447\214\244\013\013}U\274\226"
 373      E9C72B4C 
 373      E4378CA4 
 373      0B0B7D55 
 373      BC96
 374 02a9 102C677C 		.ascii	"\020,g|w\366\202\203\375Q\272I\247\262\3439{\012{0)"
 374      77F68283 
 374      FD51BA49 
 374      A7B2E339 
 374      7B0A7B30 
 375 02be 5650E9F8 		.ascii	"VP\351\370#\203\323z>zu\266Z;\306\274\335|~\036S\330"
 375      2383D37A 
 375      3E7A75B6 
 375      5A3BC6BC 
 375      DD7C7E1E 
 376 02d4 4556E553 		.ascii	"EV\345S\000\247Pc\350\374\273\323\202\221\037\207\265"
 376      00A75063 
 376      E8FCBBD3 
 376      82911F87 
 376      B5
 377 02e5 97C35611 		.ascii	"\227\303V\021\017\274\\\011\233z\232\203\257H\\\264"
 377      0FBC5C09 
 377      9B7A9A83 
 377      AF485CB4 
 378 02f5 70AFA246 		.ascii	"p\257\242F,\031:^\210E\035\026\366\377\340\230Z\305"
 378      2C193A5E 
 378      88451D16 
 378      F6FFE098 
 378      5AC5
 379 0307 60D38B48 		.ascii	"`\323\213H^c\260R/>-5S*/\235\"g\023\245\031ynD^\235"
 379      5E63B052 
 379      2F3E2D35 
 379      532A2F9D 
ARM GAS  C:\Users\AMANRA~1\AppData\Local\Temp\ccu0ZXx6.s 			page 30


 379      226713A5 
 380 0321 4735D888 		.ascii	"G5\330\210\317\214uu\376\355J?[\272\320\226\233\213"
 380      CF8C7575 
 380      FEED4A3F 
 380      5BBAD096 
 380      9B8B
 381 0333 BD3787AB 		.ascii	"\2757\207\253\037\032uF\032\365'i\324rW\376\\r\345\215"
 381      1F1A7546 
 381      1AF52769 
 381      D47257FE 
 381      5C72E58D 
 382 0347 9BEF5FDB 		.ascii	"\233\357_\333*\217\000\270C\323\316\243^>]\2660F\225"
 382      2A8F00B8 
 382      43D3CEA3 
 382      5E3E5DB6 
 382      304695
 383 035a D395A79C 		.ascii	"\323\225\247\234u\365\365\032\275\276\226@s@76\274\270"
 383      75F5F51A 
 383      BDBE9640 
 383      73403736 
 383      BCB8
 384 036c 61BDA61B 		.ascii	"a\275\246\033\364\266\006\2325#\354\243\215\240?\030"
 384      F4B6069A 
 384      3523ECA3 
 384      8DA03F18 
 385 037c D2F556A3 		.ascii	"\322\365V\243\336\007J0\244\352\315o\206\352\226L\012"
 385      DE074A30 
 385      A4EACD6F 
 385      86EA964C 
 385      0A
 386 038d B769816D 		.ascii	"\267i\201m\276\326\267\336\360\323\216\261\303\250o"
 386      BED6B7DE 
 386      F0D38EB1 
 386      C3A86F
 387 039c 0147F3EB 		.ascii	"\001G\363\353\206\377\225p\340\371%\023|z0\250o\323"
 387      86FF9570 
 387      E0F92513 
 387      7C7A30A8 
 387      6FD3
 388 03ae 427AB8CD 		.ascii	"Bz\270\315\320^\336\334\330\320\270\235B|z\330\277\345"
 388      D05EDEDC 
 388      D8D0B89D 
 388      427C7AD8 
 388      BFE5
 389 03c0 ED178294 		.ascii	"\355\027\202\224\336\260\\\232\177{\033'i\015\215M\233"
 389      DEB05C9A 
 389      7F7B1B27 
 389      690D8D4D 
 389      9B
 390 03d1 9AB406CA 		.ascii	"\232\264\006\312\3226=<>h\004\214-[}>\302X\331\330\264"
 390      D2363D3C 
 390      3E68048C 
 390      2D5B7D3E 
 390      C258D9D8 
 391 03e6 D9CD3442 		.ascii	"\331\3154B\341\300:\267g=(apPMzx\007\210PK\350?Bq&\216"
 391      E1C03AB7 
 391      673D2861 
ARM GAS  C:\Users\AMANRA~1\AppData\Local\Temp\ccu0ZXx6.s 			page 31


 391      70504D7A 
 391      78078850 
 392              		.text
 393              		.section	.gnu.lto_chGuardedPoolObjectInitAligned.c3c01d24,"",%progbits
 394 0000 789C9594 		.ascii	"x\234\225\224\333O\023A\024\306\347\333\331\335\256"
 394      DB4F1341 
 394      14C6E7DB 
 394      D9DDAE
 395 000f A5C09B31 		.ascii	"\245\300\2331\221\007\036$DcX\211/\372\242\361M\237"
 395      91071E24 
 395      44635889 
 395      2FFAA2F1 
 395      4D9F
 396 0021 FC1B1489 		.ascii	"\374\033\024\2116\001Khb\242/,\024l\215\022I\004L\232"
 396      36014B68 
 396      62A22F2C 
 396      146C8D12 
 396      49044C9A 
 397 0035 0D56C15B 		.ascii	"\015V\301[\020\021\257T\252\326\252T\271\210w!$@D\033"
 397      1011AF54 
 397      AAD6AA54 
 397      B9887721 
 397      2440441B 
 398 0049 34C4C444 		.ascii	"4\304\304DM\324\240\236\231\256\012\255\3612\331Mgv"
 398      4DD4A09E 
 398      99AE0AAD 
 398      F132D94D 
 398      6776
 399 005b E6FB9D33 		.ascii	"\346\373\2353\347\233\251\316\030\353\320\030\333D\277"
 399      E79BA9CE 
 399      18EBD018 
 399      DB44BF
 400 006a 4BE90567 		.ascii	"K\351\005gP\232\3563Vk(\200\350X\006X\215\202\032\034"
 400      509AEE33 
 400      566B2880 
 400      E8580658 
 400      8D821A1C 
 401 007e E0CD1C89 		.ascii	"\340\315\034\211`*\252,?iQ\213\037n\316\337k5,\2619"
 401      602AAA2C 
 401      3F69518B 
 401      1F6ECEDF 
 401      6B352CB1 
 402 0093 63ADF48A 		.ascii	"c\255\364\212\206\013XN\253\036\326\237\263\371~ns@"
 402      860B584E 
 402      AB1ED69F 
 402      B3F97E6E 
 402      7340
 403 00a5 A5E1BBE1 		.ascii	"\245\341\273\341\360t\236\030*(\244a\307\253P\247\302"
 403      F0749E18 
 403      2A28A461 
 403      C7AB50A7 
 403      C2
 404 00b6 4D30EA1F 		.ascii	"M0\352\037\234L\204=\305\307-\253\316\212\277<\311\255"
 404      9C4C843D 
 404      C5C72DAB 
 404      CE8ABF3C 
 404      C9AD
ARM GAS  C:\Users\AMANRA~1\AppData\Local\Temp\ccu0ZXx6.s 			page 32


 405 00c8 6536E7B8 		.ascii	"e6\347\270\014N@\\B\001.\242\200\321'\206+(\246\345"
 405      0C4E405C 
 405      42012EA2 
 405      80D12786 
 405      2B28A6E5 
 406 00dc C76A9F0E 		.ascii	"\307j\237\016\346\362\325R:\265\257\253Qu\244\023\261"
 406      E6F2D552 
 406      3AB5AFAB 
 406      5175A413 
 406      B1
 407 00ed 25C703D6 		.ascii	"%\307\003\326F\233\253\350\315\024\253\014Q)n\37227"
 407      469BABE8 
 407      CD14AB0C 
 407      51296EFA 
 407      3237
 408 00ff E5E26BA4 		.ascii	"\345\342k\244\370t\262%\344v\304\251XAZ\254\341j\246"
 408      F874B225 
 408      E476C4A9 
 408      58415AAC 
 408      E16AA6
 409 0112 5863E843 		.ascii	"Xc\350C\261P\274\350\371\332\222\253\253\351\255\"\006"
 409      B150BCE8 
 409      F9DA92AB 
 409      ABE9AD22 
 409      06
 410 0123 9D813ADD 		.ascii	"\235\201:\335\217\264\270\365\365[\320\212\317\236@"
 410      8FB4B8F5 
 410      F55BD08A 
 410      CF9E40
 411 0132 CFE61C90 		.ascii	"\317\346\034\220F\247\312Q\272*D\\\015\022\300B$\243"
 411      46A7CA51 
 411      BA2A445C 
 411      0D12C042 
 411      24A3
 412 0144 725A71B6 		.ascii	"rZq\266\217+\242\027\210\263\024\352\"}m\\\300(@s*\364"
 412      8F2BA217 
 412      88B314EA 
 412      227D6D5C 
 412      C0284073 
 413 015a 217FC529 		.ascii	"!\177\305)Y\332\2111%\0341l\356bN]\257a\005-imH\214"
 413      59DA8931 
 413      251C316C 
 413      EE624E5D 
 413      AF61052D 
 414 0172 B84421B9 		.ascii	"\270D!\271\334D,1\334\257G\320VK\022\002\255\247\330"
 414      DC442C31 
 414      DCAF47D0 
 414      564B1202 
 414      ADA7D8
 415 0185 46988A7C 		.ascii	"F\230\212|\235R\027\363O\202\243\0239f\227 \026\332"
 415      9D5217F3 
 415      4F82A313 
 415      39669720 
 415      16DA
 416 0197 7C116E20 		.ascii	"|\021n \202\026\351\024Mv\016\277\231\320k\346\304d"
 416      8216E914 
 416      4D760EBF 
ARM GAS  C:\Users\AMANRA~1\AppData\Local\Temp\ccu0ZXx6.s 			page 33


 416      99D06BE6 
 416      C464
 417 01a9 248F2221 		.ascii	"$\217\"!\0163\275\255\233\250\021\251\025:y\315\364"
 417      0E33BDAD 
 417      9BA811A9 
 417      153A79CD 
 417      F4
 418 01ba F6870CBE 		.ascii	"\366\207\014\276NF\354Kv\034R\213\332e\331\236\305<"
 418      4E46EC4B 
 418      761C528B 
 418      DA65D99E 
 418      C53C
 419 01cc 612B5E5F 		.ascii	"a+^_(\264\211\205u\223)\337B\221H;c\227\235GjO\273\263"
 419      28B48985 
 419      759329DF 
 419      4291483B 
 419      63979D47 
 420 01e4 0859B649 		.ascii	"\010Y\266I\302m\024\205\311\276\205\200\306\307CsZ\026"
 420      C26D1485 
 420      C9BE8580 
 420      C6C74373 
 420      5A16
 421 01f6 20CB3A09 		.ascii	" \313:\011\270#\000Z\006`\274\255\377\265\207o\220\373"
 421      B823005A 
 421      0660BCAD 
 421      FFB5876F 
 421      90FB
 422 0208 4926BB1A 		.ascii	"I&\273\032\214,\230\033\375\277\201%Q4\337\0027\030"
 422      8C2C981B 
 422      FDBF8125 
 422      5134DF02 
 422      3718
 423 021a EED2DC1B 		.ascii	"\356\322\334\033\324\275\237\351\012\270~\036\221z\351"
 423      D4BD9FE9 
 423      0AB87E1E 
 423      917AE9
 424 0229 E0C7982E 		.ascii	"\340\307\230.\024\"\005\261\017Q\015yjZ\323\326\375"
 424      142205B1 
 424      0F510D79 
 424      6A5AD3D6 
 424      FD
 425 023a 384DB807 		.ascii	"8M\270\007\035\003\242\352\0032\271\300\255\261\036"
 425      1D03A2EA 
 425      0332B9C0 
 425      ADB11E
 426 0249 43E05DF0 		.ascii	"C\340]\360\320\260\273}\372\214A\016\203\354\023\316"
 426      D0B0BB7D 
 426      FA8C410E 
 426      83EC13CE 
 427 0259 0E3ACE4E 		.ascii	"\016:\316N\216\034=\345I;\033\271\322\250\331<\007C"
 427      8E1C3DE5 
 427      493B1BB9 
 427      D2A8D93C 
 427      0743
 428 026b D25C4822 		.ascii	"\322\\H\"\3030\314\371\311\322\271\304\375t\262\341"
 428      C330CCF9 
 428      C9D2B9C4 
ARM GAS  C:\Users\AMANRA~1\AppData\Local\Temp\ccu0ZXx6.s 			page 34


 428      FD74B2E1 
 429 027b D767A7DD 		.ascii	"\327g\247\335N\264\177\301/\026\356\214H\270\342\300"
 429      4EB47FC1 
 429      2F16EE8C 
 429      48B8E2C0 
 430 028b 1FC014BE 		.ascii	"\037\300\024\276HXw\273\353/\260\3637S\355\306/\230"
 430      485877BB 
 430      EB2FB0F3 
 430      3753EDC6 
 430      2F98
 431 029d 868712C6 		.ascii	"\206\207\022\306\035\330#\001\323\322\260\336\300\177"
 431      1DD82301 
 431      D3D2B0DE 
 431      C07F
 432 02ab 66E6C663 		.ascii	"f\346\306c\011S\035\330\023:\303\302\224y\216\313\312"
 432      09531DD8 
 432      133AC3C2 
 432      94798ECB 
 432      CA
 433 02bc FF3CCFC2 		.ascii	"\377<\317\302\213y\243;\013FI1\242D>\007?\354\026\037"
 433      8B79A33B 
 433      0B464931 
 433      A2443E07 
 433      3FEC161F 
 434 02d0 C2742933 		.ascii	"\302t)3n\331u\374\371\222y\360T&\244\375\366\222\351"
 434      6ED975FC 
 434      F99279F0 
 434      5426A4FD 
 434      F692E9
 435 02e3 7806938E 		.ascii	"x\006\223\216\322s\272a\263h\220Q\305\262htv\334E\313"
 435      D273BA61 
 435      B3689051 
 435      C5B26874 
 435      76DC45CB 
 436 02f7 E8C6E7B6 		.ascii	"\350\306\347\266R\231\031FiE:|\367l\364S\256\3600\217"
 436      52991946 
 436      69453A7C 
 436      F76CF453 
 436      AEF0308F 
 437 030b 3C1C4381 		.ascii	"<\034C\201\315\363\331[\332\336t\033\244\\\264\020\371"
 437      CDF3D95B 
 437      DADE741B 
 437      A45CB410 
 437      F9
 438 031c 4E7F2924 		.ascii	"N\177)$\\YRb\322S\266\303\273\325\353\363\227\256-]"
 438      5C595262 
 438      D253B6C3 
 438      BBD5EBF3 
 438      97AE2D5D 
 439 0330 65FAFCF4 		.ascii	"e\372\374\364Tx\267\232\376\3522\232\250,\257\254\362"
 439      5478B79A 
 439      FEEA329A 
 439      A82CAFAC 
 439      F2
 440 0341 F92AFC25 		.ascii	"\371*\374%e\214o\257\254R\375\336=\345\332\226\012\357"
 440      658C6FAF 
 440      AC52FDDE 
ARM GAS  C:\Users\AMANRA~1\AppData\Local\Temp\ccu0ZXx6.s 			page 35


 440      3DE5DA96 
 440      0AEF
 441 0353 F69D4A65 		.ascii	"\366\235Je\225QU\355\333\345\335V^\375\035\264\271\342"
 441      955155ED 
 441      DBE5DD56 
 441      5EFD1DB4 
 441      B9E2
 442 0365 AB       		.ascii	"\253"
 443              		.text
 444              		.section	.gnu.lto_chGuardedPoolLoadArray.c3c01d24,"",%progbits
 445 0000 789C9D56 		.ascii	"x\234\235ViLTW\024\276\347\3357\0133\003\330\332\270"
 445      694C5457 
 445      14BEE7DD 
 445      370B3303 
 445      D8DAB8
 446 0013 C5346353 		.ascii	"\3054cS\342\022\342\250\265\032\323?m\370\345\017\222"
 446      E212E2A8 
 446      B51AD33F 
 446      6DF8E50F 
 446      92
 447 0024 46FFF487 		.ascii	"F\377\364\207\211)\224(\2158\023\3066\372\213' K\251"
 447      89299428 
 447      8D3813C6 
 447      36FA8B27 
 447      204BA9
 448 0037 11238C3A 		.ascii	"\021#\214:\035q\\\250Z\252\250\305\312\2420B]\252\342"
 448      1D715CA8 
 448      5AAAA8C5 
 448      CAA23042 
 448      5DAAE2
 449 004a 82684128 		.ascii	"\202hA(\250\010\210 \212\270a\025z\316}o`\030\226\232"
 449      A8088820 
 449      8AB86115 
 449      7ACE7D6F 
 449      6018969A 
 450 005e BE4C26F7 		.ascii	"\276L&\367\335{\226\357\234\363\235s\237\2361\266\310"
 450      DD7B96EF 
 450      9CF39D73 
 450      9F9E31B6 
 450      C8
 451 006f CCD867C0 		.ascii	"\314\330g\300\330W\270\006=\003)\373\012c\033\215\022"
 451      D857B806 
 451      3D0329FB 
 451      0A631B8D 
 451      12
 452 0080 C8EA82AB 		.ascii	"\310\352\202\253\2133FY\342E\225\214)&]\243\231)\026"
 452      8B334659 
 452      E245958C 
 452      29265DA3 
 452      992916
 453 0093 1D00ED2B 		.ascii	"\035\000\355+F`I\022\227u\220$\311\014|2\014\340\023"
 453      46604912 
 453      97759024 
 453      C90C7C32 
 453      0CE013
 454 00a6 3EB860F4 		.ascii	">\270`\364\374\310s8T\246\267\225H\263\017(\370\370"
 454      FCC87338 
ARM GAS  C:\Users\AMANRA~1\AppData\Local\Temp\ccu0ZXx6.s 			page 36


 454      54A6B795 
 454      48B30F28 
 454      F8F8
 455 00b8 B63785A7 		.ascii	"\2667\205\247)\233\246x8c..D\030\374\006\263Q\352z\352"
 455      299BA678 
 455      38632E2E 
 455      4418FC06 
 455      B351EA7A 
 456 00cd 510FCFE2 		.ascii	"Q\017\317\342\036\016 \343kO\265\273%\214^%\260\342"
 456      1E0E20E3 
 456      6B4FB5BB 
 456      258C5E25 
 456      B0E2
 457 00df EBFED68C 		.ascii	"\353\376\326\214\002\211\333\200\341zKs\245\33323_Q"
 457      0289DB80 
 457      E17A4B73 
 457      A5DB3233 
 457      5F51
 458 00f1 9215DFFD 		.ascii	"\222\025\337\375\237\271\362\261\207s\370\0358\032\204"
 458      9FB9F2B1 
 458      8773F81D 
 458      381A84
 459 0100 13301D8A 		.ascii	"\0230\035\212`:\303-\006'a&\212_\366e\026\232\370'B"
 459      603AC32D 
 459      06276126 
 459      8A5FF665 
 459      169AF827 
 460 0115 B525B3AF 		.ascii	"\265%\263\257\335\244\251\2769 Te(\016V\305pJ\204\352"
 460      DDA4A9BE 
 460      39205465 
 460      280E56C5 
 460      704A84EA 
 461 0129 5B25C715 		.ascii	"[%\307\025\306?\025\252\367/\355\3136h\252\227\247\272"
 461      C63F15AA 
 461      F72FEDCB 
 461      3668AA97 
 461      A7BA
 462 013b 159FECE1 		.ascii	"\025\237\354\341:(\015\326\3251(\203\231\244p\357X\177"
 462      3A280DD6 
 462      D5312883 
 462      99A470EF 
 462      587F
 463 014d 6EA85EF6 		.ascii	"n\250^\366\372C\205S\240\007\334\357\273\325u\"4b\237"
 463      FA438553 
 463      A007DCEF 
 463      BBD57522 
 463      34629F
 464 0160 305434CD 		.ascii	"0T4\315\233<a\024\370\364\240hGjvF8_,\374\367\364o~"
 464      9B3C6114 
 464      F8F4A068 
 464      476A7646 
 464      385F2CFC 
 465 0178 6DD0D4AE 		.ascii	"m\320\324\256\301\005E&\350\345\243\252\251\236SE\302"
 465      C1054526 
 465      E8E5A3AA 
 465      A99E5345 
 465      C2
ARM GAS  C:\Users\AMANRA~1\AppData\Local\Temp\ccu0ZXx6.s 			page 37


 466 0189 DB2A4C50 		.ascii	"\333*LP\001\021p\032\"\004\002\027\027\326\002A\264"
 466      0111701A 
 466      22040217 
 466      17D60241 
 466      B4
 467 019a B77F74F6 		.ascii	"\267\177t\366l\232\222\275\32186\222\377\351\275\273"
 467      6C9A92BD 
 467      D1383692 
 467      FFE9BDBB 
 468 01aa 4E0F95E8 		.ascii	"N\017\225\350\375\014y\367\221w) 5\014\2520%\177 \371"
 468      FD0C79F7 
 468      91772920 
 468      350CAA30 
 468      257F20F9 
 469 01be 82D4B6E5 		.ascii	"\202\324\266\345Mb\264\357\302*\006\035u\356\212\\\301"
 469      4D62B4EF 
 469      C22A061D 
 469      75EE8A5C 
 469      C1
 470 01cf E02C9DC9 		.ascii	"\340,\235\311t\226\177\261\246\302\314] \242:td\317"
 470      74967FB1 
 470      A6C2CC5D 
 470      20A23A74 
 470      64CF
 471 01e1 0E8B86F2 		.ascii	"\016\213\206\362e\301\254\237R\2626+\"\301z8\377\237"
 471      65C1AC9F 
 471      52B2362B 
 471      22C17A38 
 471      FF9F
 472 01f3 586F51F4 		.ascii	"XoQ\364\027\010\3509\262\256\033\006\364O\004z\221\272"
 472      1708E839 
 472      B2AE1B06 
 472      F44F047A 
 472      91BA
 473 0205 04FFB067 		.ascii	"\004\377\260gXa\215\316\247\364\017\244#\243?,/N;\274"
 473      58618DCE 
 473      A7F40FA4 
 473      23A33F2C 
 473      2F4E3BBC 
 474 0219 553711B0 		.ascii	"U7\021\260\372\006IP\207\013\022`\243\340Z\017\2646"
 474      FA064950 
 474      870B1260 
 474      A3E05A0F 
 474      B436
 475 022b 02B13144 		.ascii	"\002\2611D\234\232\304\251\031\305\215\026\374\013a"
 475      9C9AC4A9 
 475      19C58D16 
 475      FC0B61
 476 023a 2C03F9D1 		.ascii	",\003\371\321hV|\270\220p\221\342c\231\03096\035\256"
 476      68567CB8 
 476      907091E2 
 476      63991839 
 476      361DAE
 477 024d DA006D62 		.ascii	"\332\000mb\365\334\334\250\256+h-\251\3533\001\373\225"
 477      F5DCDCA8 
 477      AE2B682D 
 477      A9EB3301 
ARM GAS  C:\Users\AMANRA~1\AppData\Local\Temp\ccu0ZXx6.s 			page 38


 477      FB95
 478 025f 01FB1806 		.ascii	"\001\373\030\006\242O\357PN\313\324Cz\260\302%\214\272"
 478      A24FEF50 
 478      4ECBD443 
 478      7AB0C225 
 478      8CBA
 479 0271 1392EF9D 		.ascii	"\023\222\357\235\334U\332\014j\030\300vJ(\266w\367\361"
 479      DC55DA0C 
 479      6A18C076 
 479      4A28B677 
 479      F7F1
 480 0283 57A619BF 		.ascii	"W\246\031\277H\273\225\035V\0177Q\334\207[\312\024\354"
 480      48BB951D 
 480      560F3751 
 480      DC875BCA 
 480      14EC
 481 0295 7B24ED65 		.ascii	"{$\355e\230!2\365\244\253\266A\302\035\250\006Y\330"
 481      982132F5 
 481      A4ABB641 
 481      C21DA806 
 481      59D8
 482 02a7 62704534 		.ascii	"bpE4\352\301\362\252V\313\214\303\232\266\231d\237\036"
 482      EAC1F2AA 
 482      56CB8CC3 
 482      9AB69964 
 482      9F1E
 483 02b9 397ED32C 		.ascii	"9~\323,\264\257\2226\\\003\031a%\337\351\313\315Y%\260"
 483      B4AF9236 
 483      5C031961 
 483      25DFE9CB 
 483      CD5925B0 
 484 02cd 31F19AB9 		.ascii	"1\361\232\271\305LE\016bcw\235\005\233+\325:\006\027"
 484      C54C450E 
 484      6263779D 
 484      059B2BD5 
 484      3A0617
 485 02e0 E1BA3FE4 		.ascii	"\341\272?\344do\305\257\\3\020H\317!\003\2432\024j\374"
 485      646FC5AF 
 485      5C331048 
 485      CF2103A3 
 485      32146AFC 
 486 02f4 794ABED3 		.ascii	"yJ\276\323\333\273=4\230zG'\221\004\271\321(\250\037"
 486      DBBB3D34 
 486      987A4727 
 486      9104B9D1 
 486      28A81F
 487 0307 46841B98 		.ascii	"F\204\033\230\270Z\"B\255p\234\323\226\361<|\316A\241"
 487      B85A2242 
 487      AD709CD3 
 487      96F13C7C 
 487      CE41A1
 488 031a DA542FB9 		.ascii	"\332T/\271\275\330C\026\246\015\266\2330\007E\\\233"
 488      BDD84316 
 488      A60DB69B 
 488      3007455C 
 488      9B
 489 032b 2AAF1AA8 		.ascii	"*\257\032\250\012j\347\235\252\254>\247\367B\036xx("
ARM GAS  C:\Users\AMANRA~1\AppData\Local\Temp\ccu0ZXx6.s 			page 39


 489      0A6AE79D 
 489      AAAC3EA7 
 489      F7421E78 
 489      7828
 490 033d 0602B708 		.ascii	"\006\002\267\010\027\356\327\246\3275\231m\207\311\022"
 490      17EED7A6 
 490      D735996D 
 490      87C912
 491 034c E29A5CA4 		.ascii	"\342\232\\\244\363\3600\370\013\274\220\213\344 \267"
 491      F3F030F8 
 491      0BBC908B 
 491      E420B7
 492 035b 245450FD 		.ascii	"$TP\375\260I\237\364\226\204\274a\350\011\352\300\246"
 492      B0499FF4 
 492      9684BC61 
 492      E809EAC0 
 492      A6
 493 036c C2A98724 		.ascii	"\302\251\207$\012\311\252\341zP|.\303\310OH\302e\331"
 493      0AC9AAE1 
 493      7A507C2E 
 493      C3C84F48 
 493      C265D9
 494 037f F9FDDB64 		.ascii	"\371\375\333d\177v.M\331\233\242\210\006\266\300\355"
 494      7F762E4D 
 494      D99BA288 
 494      06B6C0ED 
 495 038f 51D2D380 		.ascii	"Q\322\323\200\301#p\221\340\201|\256\331\033\226\340"
 495      C1237091 
 495      E0817CAE 
 495      D91B96E0 
 496 039f 2113A367 		.ascii	"!\023\243g\270q(\303Y\257Z\315A\031no\267-$\021\362"
 496      B87128C3 
 496      59AF5ACD 
 496      41196E6F 
 496      B72D2411 
 497 03b4 24D2E8E2 		.ascii	"$\322\350\342\006B\331P\337Tl\341\305*\344\233\315\207"
 497      0642D950 
 497      DF546CE1 
 497      C52AE49B 
 497      CD87
 498 03c6 5668EEB6 		.ascii	"Vh\356\266?1\027\026)J\346\347\330/\3204N\033\313\320"
 498      3F311716 
 498      294AE6E7 
 498      D82FD034 
 498      4E1BCBD0 
 499 03da 4C16FFC6 		.ascii	"L\026\377\306\012\335\241\224\340\037\355\020\224\207"
 499      0ADDA194 
 499      E01FED10 
 499      9487
 500 03e8 905CDA31 		.ascii	"\220\\\3321\220o\242=7'D)U\365\307\214T\025\013X\360"
 500      906FA23D 
 500      37274429 
 500      55F5C78C 
 500      54150B58 
 501 03fd B5705FCB 		.ascii	"\265p_\313\257F\265*aT\225\273ZU\232\257\3569hQ\253"
 501      AF46B52A 
 501      615495BB 
ARM GAS  C:\Users\AMANRA~1\AppData\Local\Temp\ccu0ZXx6.s 			page 40


 501      5A559AAF 
 501      EE396851 
 502 0412 6225FFF7 		.ascii	"b%\377\367DA@xa\320\00262]\373C='\313\201\3056\006\027"
 502      44414078 
 502      61D00236 
 502      325DFB43 
 502      3D27CB81 
 503 042a 3B1C71C0 		.ascii	";\034q\300\375\221\305\366N#\341VaW\322\354\266\201"
 503      FD91C5F6 
 503      4E23E156 
 503      6157D2EC 
 503      B681
 504 043c 0D519269 		.ascii	"\015Q\222iWGF\272A\263\375\016\030\275\223\310X\373"
 504      574746BA 
 504      41B3FD0E 
 504      18BD93C8 
 504      58FB
 505 044e 30900FC8 		.ascii	"0\220\017\310\330\020\337)\343\"\365\203t\241b0r\366"
 505      D810DF29 
 505      E322F583 
 505      74A16230 
 505      72F6
 506 0460 3A7DD34E 		.ascii	":}\323N\240\0357\267\274\033S\275\307\361p\002t\010"
 506      A01D37B7 
 506      BC1B53BD 
 506      C7F17002 
 506      7408
 507 0472 877C2C9A 		.ascii	"\207|,\232\206\300C\244)\235A'\322\264\013R\205_\222"
 507      86C043A4 
 507      299D4127 
 507      D2B40B52 
 507      855F92
 508 0485 2C29E96A 		.ascii	",)\351j0\240$\266\315{.\364!\204\272P\010!x\370\373"
 508      30A024B6 
 508      CD7B2EF4 
 508      2184BA50 
 508      082178F8 
 509 049a EA9CD821 		.ascii	"\352\234\330!\346\204hI\0254\275\325\320[\027\244x["
 509      E6846849 
 509      1534BDD5 
 509      D05B17A4 
 509      785B
 510 04ac 23FD5748 		.ascii	"#\375WH\200\261\211.\364ZE\306\036\2411\017\377@\314"
 510      80B1892E 
 510      F45A45C6 
 510      1EA1310F 
 510      FF40CC
 511 04bf C5915744 		.ascii	"\305\221WD\336\370W\004t\213A:XU\032\232\217\003\007"
 511      DEF85704 
 511      748B413A 
 511      58551A9A 
 511      8F0307
 512 04d2 69F0F428 		.ascii	"i\360\364(\362_\\\246aS\343\011\002\356\031y\317u\356"
 512      F25F5CA6 
 512      6153E309 
 512      02EE1979 
 512      CF75EE
ARM GAS  C:\Users\AMANRA~1\AppData\Local\Temp\ccu0ZXx6.s 			page 41


 513 04e5 9AB592D1 		.ascii	"\232\265\222\321\201K\035\234\201g\275\005\013\3638"
 513      814B1D9C 
 513      8167BD05 
 513      0BF338
 514 04f4 F967F074 		.ascii	"\371g\360t\344}\324\213\006\237Qx\317\002\006y\377\356"
 514      E47DD48B 
 514      069F5178 
 514      CF020679 
 514      FFEE
 515 0506 BBE566FF 		.ascii	"\273\345f\377\214~,f\364s1\243\203\007\362\013u [E|"
 515      8C7E2C66 
 515      F47331A3 
 515      8307F20B 
 515      75205B45 
 516 051b EA30EEB9 		.ascii	"\3520\356\271q\014\304}\302\264\223J\377I\326\233\003"
 516      710CC47D 
 516      C2B4934A 
 516      FF49D69B 
 516      03
 517 052c 20BE5D4E 		.ascii	" \276]N\017\346\237\336*4\322\224v\364\247O\246\035"
 517      0FE69FDE 
 517      2A34D294 
 517      76F4A74F 
 517      A61D
 518 053e 378700D2 		.ascii	"7\207\000\322l\244\332\227Jll\356Xi\300\275\324\006"
 518      6CA4DA97 
 518      4A6C6CEE 
 518      5869C0BD 
 518      D406
 519 0550 9C383CF2 		.ascii	"\2348<\362(\371\212\254\021\353\251D\237W\257\300\226"
 519      28F98AAC 
 519      11EBA944 
 519      9F57AFC0 
 519      96
 520 0561 8BF73C42 		.ascii	"\213\367<B\356\023\255\226\342I\333\240\372\012AN\243"
 520      EE13AD96 
 520      E249DBA0 
 520      FA0A414E 
 520      A3
 521 0572 C7213C78 		.ascii	"\307!<x\261\342.\311\270\3226o\235\252J\231\334\234"
 521      B1E22EC9 
 521      B8D2366F 
 521      9DAA4A99 
 521      DC9C
 522 0584 BE403B4F 		.ascii	"\276@;O\035\255\323Q\375t\332G\352k\2043\250YF\232&"
 522      1DADD351 
 522      FD74DA47 
 522      EA6B8433 
 522      A859469A 
 523 0599 749289AE 		.ascii	"t\222\211\256\360\323\326\177\351\212}\256\256\205u"
 523      F0D3D67F 
 523      E98A7DAE 
 523      AE8575
 524 05a8 89B5426A 		.ascii	"\211\265BjCUS\305\002\325:\017\244\206\016\323\367\217"
 524      435553C5 
 524      02D53A0F 
 524      A4860ED3 
ARM GAS  C:\Users\AMANRA~1\AppData\Local\Temp\ccu0ZXx6.s 			page 42


 524      F78F
 525 05ba 4A9B1780 		.ascii	"J\233\027\200\320t\022r8\204\337\036X\362\002\270\233"
 525      D0741272 
 525      3884DF1E 
 525      58F202B8 
 525      9B
 526 05cb EBE9D5C4 		.ascii	"\353\351\325\304\335{\027\240\033\235z\311w\343\210"
 526      DD7B17A0 
 526      1B9D7AC9 
 526      77E388
 527 05da 2DD82F92 		.ascii	"-\330/\222+\330\226\201\3614\232\261L\221s\347\332\360"
 527      2BD89681 
 527      F1349AB1 
 527      4C9173E7 
 527      DAF0
 528 05ec 17BB3A3E 		.ascii	"\027\273:>&\336\356\234\277d\376<\233\335\211\2775\361"
 528      26DEEE9C 
 528      BF64FE3C 
 528      9BDD89BF 
 528      35F1
 529 05fe 31366762 		.ascii	"16gb,\036$\304%8\354\3665\316\271\261\214\257Jp\200"
 529      2C1E24C4 
 529      2538ECF6 
 529      35CEB9B1 
 529      8CAF4A70 
 530 0613 03D6CAF6 		.ascii	"\003\326\312\366\230o\035\363\306\321\214_\033\273\346"
 530      986F1DF3 
 530      C6D18C5F 
 530      1BBBE6
 531 0622 BB6FE202 		.ascii	"\273o\342\002\265W\263Y\243*$\256\013\220vn AC\314\327"
 531      B557B359 
 531      A32A24AE 
 531      0B90766E 
 531      204143CC 
 532 0637 CEB82F13 		.ascii	"\316\270/\023\343\027\215\252\020kOH\260\257\2659\354"
 532      E3178DAA 
 532      106B4F48 
 532      B0AFB539 
 532      EC
 533 0648 89EB9CB6 		.ascii	"\211\353\234\266/\226EGE\257G\221X{b\334\312\357\027"
 533      2F964547 
 533      45AF4791 
 533      587B62DC 
 533      CAEF17
 534 065b 27A07AD4 		.ascii	"'\240z\324xjq\353\327\221\222-*z\371\322\345\266(\324"
 534      786A71EB 
 534      D791922D 
 534      2A7AF9D2 
 534      E5B628D4 
 535 066f B22DF5BB 		.ascii	"\262-\365\273Op\306;W\256\212\215E\033\023\242\227/"
 535      4F70C63B 
 535      57AE8A8D 
 535      451B13A2 
 535      972F
 536 0681 B3120C47 		.ascii	"\263\022\014Gb|\2445b\036\223\022\231\001c\261'n`R\202"
 536      627CA435 
 536      621E9312 
ARM GAS  C:\Users\AMANRA~1\AppData\Local\Temp\ccu0ZXx6.s 			page 43


 536      990163B1 
 536      276E6052 
 537 0696 833B563B 		.ascii	"\203;V;\376\005c\000\002\262"
 537      FE056300 
 537      02B2
 538              		.text
 539              		.section	.gnu.lto_chGuardedPoolAllocTimeoutS.c3c01d24,"",%progbits
 540 0000 789C8D53 		.ascii	"x\234\215S\337k\024W\024>\347\336\231\235\311f\334\210"
 540      DF6B1457 
 540      143EE7DE 
 540      999DC966 
 540      DC88
 541 0012 F818240F 		.ascii	"\370\030$\017\015\251 Y\305\227\226B\373R\244\370\320"
 541      0DA92059 
 541      C5979642 
 541      FB52A4F8 
 541      D0
 542 0023 3F2221B5 		.ascii	"?\"!\265+.\033\272\3669cv\227\304\3266B\223\025\226"
 542      2B2E1BBA 
 542      F6396376 
 542      97C4D636 
 542      42931596 
 543 0037 A5AC246D 		.ascii	"\245\254$m*\266U\351/\023m]7\232\330$\2334iP[K\004%"
 543      2AB655E9 
 543      2F136D5D 
 543      379AD824 
 543      9B346950 
 544 004f A12B2154 		.ascii	"\241+!T*\226\006\222\372\235\273\023MT\260\303\354\354"
 544      2A960692 
 544      FA9DBB13 
 544      4D54B0C3 
 544      ECEC
 545 0061 BDF77CE7 		.ascii	"\275\367|\347\234\357;\347\334\020\021\355\266\211\366"
 545      9CEF3BE7 
 545      DC1011ED 
 545      B689F6
 546 0070 E1FF6DFC 		.ascii	"\341\377m\374\330%V\307\247\210\216\270J9i\207\374\260"
 546      D82556C7 
 546      A7888EB8 
 546      4A396987 
 546      FCB0
 547 0082 3E3646E4 		.ascii	">6F\344{ZYS\257ck\227\352\260\263\330\251\242\354\365"
 547      7B5A5953 
 547      AF636B97 
 547      EAB0B3D8 
 547      A9A2ECF5 
 548 0096 85C32C0B 		.ascii	"\205\303,\013\337e\352P\332\262\035\356\340c\272W\363"
 548      DF65EA50 
 548      DAB21DEE 
 548      E063BA57 
 548      F3
 549 00a7 4CFA6C5E 		.ascii	"L\372l^\177\250\363\232\330\302\366~9w7\"[\346\006l"
 549      7FA8F39A 
 549      D8C2F67E 
 549      39773722 
 549      5BE6066C 
 550 00bb 4F75FD3D 		.ascii	"Ou\375=\023\3329\350\373\235~\361\304\365m\203\251\314"
ARM GAS  C:\Users\AMANRA~1\AppData\Local\Temp\ccu0ZXx6.s 			page 44


 550      13DA39E8 
 550      FB9D7EF1 
 550      C4F56D83 
 550      A9CC
 551 00cd 5B79AD28 		.ascii	"[y\255(\013\364\267\\\317\337p\275\260\372\216w\002"
 551      0BF4B75C 
 551      CFDF70BD 
 551      B0FA8E77 
 551      02
 552 00de 3BB0D07D 		.ascii	";\260\320}Z\351(\023\326=\267K9\257\3513\34379\250\375"
 552      5AE92813 
 552      D63DB74B 
 552      39AFE933 
 552      E33739A8 
 553 00f3 97F25AF3 		.ascii	"\227\362Z\363\367\2547:\342\210\370\007n\002\374\217"
 553      F7AC373A 
 553      E288F807 
 553      6E02FC8F 
 554 0103 8F7B1722 		.ascii	"\217{\027\"z\257q\375\253\362\317J$p]\034\337\372y\312"
 554      7AAF71FD 
 554      ABF2CF4A 
 554      24705D1C 
 554      DFFA79CA 
 555 0117 474A8BCF 		.ascii	"GJ\213\317?\355l\021\017q\223xL\236\035\272a\351\327"
 555      3FED6C11 
 555      0F719378 
 555      4C9E1DBA 
 555      61E9D7
 556 012a 8C7771E0 		.ascii	"\214wq\340\367\031\267\261\337\307S\\\036\337v2\345"
 556      F719B7B1 
 556      DFC7535C 
 556      1EDF7632 
 556      E5
 557 013b 5FF3ADBC 		.ascii	"_\363\255\274\266yx\263\277<\200\3379\267\326\267%d"
 557      B67978B3 
 557      BF3C80DF 
 557      39B7D6B7 
 557      2564
 558 014d F1056E14 		.ascii	"\361\005n\024Q\320r\221C\304DJ\216\000\250\244\217w"
 558      51D07291 
 558      43C4444A 
 558      8E00A8A4 
 558      8F77
 559 015f D7E9374C 		.ascii	"\327\3517L\354\373k\037\2558\022\033\314f_\316\371\305"
 559      ECFB6B1F 
 559      AD38121B 
 559      CC665FCE 
 559      F9C5
 560 0171 74038AC1 		.ascii	"t\003\212\301?>\033\231\177\342\3063\263v\321_\373\257"
 560      3F3E1B99 
 560      7FE2C633 
 560      B376D15F 
 560      FBAF
 561 0183 0B2AF6FF 		.ascii	"\013*\366\377\373`~{\035\203tH\341\343h|\224\315\"\036"
 561      FB607E7B 
 561      1D837448 
 561      E1E3687C 
ARM GAS  C:\Users\AMANRA~1\AppData\Local\Temp\ccu0ZXx6.s 			page 45


 561      94CD221E 
 562 0197 7D818A1A 		.ascii	"}\201\212\032\222ta\343W\013\243\353\231%Q78\241o~\221"
 562      927461E3 
 562      570BA3EB 
 562      99255137 
 562      38A16F7E 
 563 01ac 8EA2EC58 		.ascii	"\216\242\354X\245\212t\217;W\272V\373\332\204jN3\210"
 563      A58A748F 
 563      3B57BA56 
 563      FBDA846A 
 563      4E3388
 564 01bf 6533A569 		.ascii	"e3\245iG\232\246\015\317\213\245\362h\250\300\237\036"
 564      479AA60D 
 564      CF8BA5F2 
 564      68A8C09F 
 564      1E
 565 01d0 41110A6B 		.ascii	"A\021\012k\222\266&\207\012\\\022r0\317u\335\234\257"
 565      92B62687 
 565      0A5C1272 
 565      30CF75DD 
 565      9CAF
 566 01e2 8D7E2525 		.ascii	"\215~%%\002\3770\027\271\300}:(\310\351\362\275\371"
 566      02FF3017 
 566      B9C07D3A 
 566      28C8E9F2 
 566      BDF9
 567 01f4 50C7AA18 		.ascii	"P\307\252\030\013\357\200/_\346(\364\224\270\203\226"
 567      0BEF802F 
 567      5FE628F4 
 567      94B88396 
 568 0204 3853D851 		.ascii	"8S\330QMZ\003\344\320\320\322-\007H7\257k\263HL<\002"
 568      4D5A03E4 
 568      D0D0D22D 
 568      074837AF 
 568      6BB3484C 
 569 021a 1008E5B4 		.ascii	"\020\010\345\264\223\327\036-rg\203\240E\031<h\201\323"
 569      93D71E2D 
 569      726783A0 
 569      45193C68 
 569      81D3
 570 022c B7464627 		.ascii	"\267FF'\274'\021\036\323\266\231\370JP\272\243\230\012"
 570      BC27111E 
 570      D3B699F8 
 570      4A50BAA3 
 570      980A
 571 023e 8CF4BACE 		.ascii	"\214\364\272\316\362\211X\325A=-l\371\005\302\266\360"
 571      F28958D5 
 571      413D2D6C 
 571      F905C2B6 
 571      F0
 572 024f 55238C9F 		.ascii	"U#\214\237\025v\020=\340Q#l\014\234\327\231\002\365"
 572      1576103D 
 572      E051236C 
 572      0C9CD799 
 572      02F5
 573 0261 E7F9D16E 		.ascii	"\347\371\321nW\277i\312xal\340\023+h\367\374x$\350\267"
 573      57BF69CA 
ARM GAS  C:\Users\AMANRA~1\AppData\Local\Temp\ccu0ZXx6.s 			page 46


 573      78616CE0 
 573      132B68F7 
 573      FC7824E8 
 574 0276 C3D79ED3 		.ascii	"\303\327\236\323\357\237E\243\022\312\303\225\236L\350"
 574      EF9F45A3 
 574      12CAC395 
 574      9E4CE8
 575 0285 F164A5CD 		.ascii	"\361d\245\315 .Nlg\201\230\351\312\002\267a\362\244"
 575      202E4E6C 
 575      678198E9 
 575      CA02B761 
 575      F2A4
 576 0297 CD3C8E32 		.ascii	"\315<\2162M\310\340M\210\3240\314\251\221\337\316\271"
 576      4DC8E04D 
 576      88D430CC 
 576      A991DFCE 
 576      B9
 577 02a8 521B873D 		.ascii	"R\033\207=l\317\364\337\375\322\205r\206.\221<\031H"
 577      6CCFF4DF 
 577      FDD28572 
 577      862E913C 
 577      1948
 578 02ba BE3D7DF2 		.ascii	"\276=}\362\013\257*\271p\251\267\036\223\303e\243Z\231"
 578      0BAF2AB9 
 578      70A9B71E 
 578      93C365A3 
 578      5A99
 579 02cc A0C45350 		.ascii	"\240\304SP\011}\205\026\011-\311\020\276\332\212\251"
 579      097D8516 
 579      092DC910 
 579      BEDA8AA9 
 580 02dc 535E908E 		.ascii	"S^\220\216\233\327Ko\321\352+\325\312\017Wr\231H\325"
 580      9BD74B6F 
 580      D1EA2BD5 
 580      CA0F5772 
 580      9948D5
 581 02ef 5EBBB155 		.ascii	"^\273\261U\356\246\011\003\235\210\004\230~n\007\\\376"
 581      EEA60903 
 581      9D880498 
 581      7E6E075C 
 581      FE
 582 0300 C570D101 		.ascii	"\305p\321\001\227\031pA\350\271\017*Z\"\377OY;$\320"
 582      97197041 
 582      E8B90F2A 
 582      5A22FF4F 
 582      593B24D0 
 583 0314 EC2651BF 		.ascii	"\354&Q\277r\024\264\014c\233z\"`\274\304V\225\254\267"
 583      7214B40C 
 583      639B7A22 
 583      60BCC456 
 583      95ACB7
 584 0327 7932EBB2 		.ascii	"y2\353\262\270\023\306g\316\014\247\312\353\255\306"
 584      B813C667 
 584      CE0CA7CA 
 584      EBADC6
 585 0336 CF092ED3 		.ascii	"\317\011.\3232+\034\313\364?d\215B\250\341\257\357`"
 585      322B1CCB 
ARM GAS  C:\Users\AMANRA~1\AppData\Local\Temp\ccu0ZXx6.s 			page 47


 585      F43F648D 
 585      42A8E1AF 
 585      EF60
 586 0348 823D1BA7 		.ascii	"\202=\033\247ak\245\3772\343\016\262\200\025\321\256"
 586      616BA5FF 
 586      32E30EB2 
 586      8015D1AE 
 587 0358 E6E628DE 		.ascii	"\346\346(\336\326wc-\261Dr\317\253{vG\023I\274\207b"
 587      D677632D 
 587      B14472CF 
 587      AB7B7647 
 587      1349BC87 
 588 036d 2DD1E47B 		.ascii	"-\321\344{\2550\304\333\342\355\211\304\241ds+\351\003"
 588      AD30C4DB 
 588      E2ED89C4 
 588      A164732B 
 588      E903
 589 037f F176E770 		.ascii	"\361v\347p,\336\226x\377\260\216'\017X\211\226\203\355"
 589      2CDE9678 
 589      FFB08E27 
 589      0F588996 
 589      83ED
 590 0391 2ADEFE08 		.ascii	"*\336\376\010y\245\301d"
 590      79A5C164 
 591              		.text
 592              		.section	.gnu.lto_chGuardedPoolAllocTimeout.c3c01d24,"",%progbits
 593 0000 789C7D93 		.ascii	"x\234}\223\333KTQ\024\306\327:\373\314%5\221zLb\204"
 593      DB4B5451 
 593      14C6D73A 
 593      FBCC2535 
 593      917A4C62 
 594 0015 0615C4A3 		.ascii	"\006\025\304\243\005E\004A\370\222\017B\350\037\020"
 594      05450441 
 594      F8920F42 
 594      E81F10
 595 0024 394D36E0 		.ascii	"9M6\340x\2069c\330\323\234\234D\303\262 \233d\032\265"
 595      78863963 
 595      D8D39C9C 
 595      44C3B220 
 595      9B641AB5 
 596 0038 9B984476 		.ascii	"\233\230Dv\277xmR\363\226\232\212\275d`\027,D1\313\207"
 596      BF786D52 
 596      F3969A8A 
 596      BD646017 
 596      2C4431CB 
 597 004d 4CC85A7B 		.ascii	"L\310Z{;\206\216\342\3410\354}\326\372\355\375\255o"
 597      3B868EE2 
 597      E130EC7D 
 597      D6FAEDFD 
 597      AD6F
 598 005f AD310280 		.ascii	"\2551\002\200U\006\220\021`\007\255\221\001J\227\206"
 598      55069011 
 598      6007AD91 
 598      014A9786 
 599 006f 00CE9825 		.ascii	"\000\316\230%D\276\320\315\010^\011\275x\236U2\0349"
 599      44BED0CD 
 599      085E09BD 
ARM GAS  C:\Users\AMANRA~1\AppData\Local\Temp\ccu0ZXx6.s 			page 48


 599      789E5532 
 599      1C39
 600 0081 FB20C8CA 		.ascii	"\373 \310\312Y\220\322d\332\376\030\014|\211\345[D\013"
 600      5990D264 
 600      DAFE180C 
 600      7C89E55B 
 600      440B
 601 0093 6D1B4AE7 		.ascii	"m\033J\347G\214\311\365\272^\254\207\256\266n\257\367"
 601      478CC9F5 
 601      BA5EAC87 
 601      AEB66EAF 
 601      F7
 602 00a4 951C0E32 		.ascii	"\225\034\0162\011\374\224\375\004\343\3611\306\363+"
 602      09FC94FD 
 602      04E3F131 
 602      C6F32B
 603 00b3 9E6232E5 		.ascii	"\236b2\345\336\236,\273+1\005\201\326\027':\0021\211"
 603      DE9E2CBB 
 603      2B310581 
 603      D617273A 
 603      023189
 604 00c6 7582EBAA 		.ascii	"u\202\353\252g\372\256 c\370\014\331j\220>\001>\307"
 604      67FAAE20 
 604      63F80CD9 
 604      6A903E01 
 604      3EC7
 605 00d8 444AFF50 		.ascii	"DJ\377PQ9\031\313\366\010tn\352\327bl\030]\032\334Y"
 605      513919CB 
 605      F608746E 
 605      EAD7626C 
 605      185D1ADC 
 606 00ed E7D3E94A 		.ascii	"\347\323\351J\031_D\3022`\023&rb t\356~\024; \350\356"
 606      195F44C2 
 606      32601326 
 606      72622074 
 606      EE7E143B 
 607 0104 855BC7AC 		.ascii	"\205[\307\254\267\004\334=\264\355\206O\357\325eR\214"
 607      B704DC3D 
 607      B4ED864F 
 607      EFD56552 
 607      8C
 608 0115 CD6B71FE 		.ascii	"\315kq\376P\366\347\207KW\266\032elA+\257\211JiE#\376"
 608      50F6E787 
 608      4B57B61A 
 608      656C412B 
 608      AF894A69 
 609 012c 0F9CD5E9 		.ascii	"\017\234\325\351\011}\0352\212\357~\206\253\030\300"
 609      097D1D32 
 609      8AEF7E86 
 609      AB18C0
 610 013b 364A6D47 		.ascii	"6JmG#D\244O\367\0344\000\017\370\311(\212\325\365\217"
 610      2344A44F 
 610      F71C3400 
 610      0FF8C928 
 610      8AD5F58F 
 611 014f BE8C6627 		.ascii	"\276\214f'\004\333\320x\243*&,\357WuR\215\257\374\202"
 611      04DBD078 
ARM GAS  C:\Users\AMANRA~1\AppData\Local\Temp\ccu0ZXx6.s 			page 49


 611      A32A262C 
 611      EF577552 
 611      8DAFFC82 
 612 0163 7EBD382E 		.ascii	"~\2758.\310\014\030\332D\340\362\301\2635\344\341+R"
 612      C80C18DA 
 612      44E0F2C1 
 612      B335E4E1 
 612      2B52
 613 0175 8A2FF9E1 		.ascii	"\212/\371\341l\215\230\016\022\323Ib\370\017u\036yI"
 613      6C8D980E 
 613      12D34962 
 613      F80F751E 
 613      7949
 614 0187 F7470D21 		.ascii	"\367G\015!}\351o)\265n\347\340\334\324\367d>\001d8\365"
 614      7DE96F29 
 614      B56EE7E0 
 614      DCD4F764 
 614      3E016438 
 615 019c 969C2391 		.ascii	"\226\234#\221\274l(\243\272i,\364\020\234#\301\264\362"
 615      BC6C28A3 
 615      BA692CF4 
 615      109C23C1 
 615      B4F2
 616 01ae 85E02B4A 		.ascii	"\205\340+J\033\310\275\266\271\\\354B+A\245Sz\233\314"
 616      1BC8BDB6 
 616      B95CEC42 
 616      2B41A553 
 616      7A9BCC
 617 01c1 27C88016 		.ascii	"'\310\200\026|M\261i,\376\374\334\337<\021\351\353\345"
 617      7C4DB169 
 617      2CFEFCDC 
 617      DF3C11E9 
 617      EBE5
 618 01d3 B1ED615F 		.ascii	"\261\355a_\345u\036~\333M\362\272y\314\020\031\233\257"
 618      E5751E7E 
 618      DB4DF2BA 
 618      79CC1019 
 618      9BAF
 619 01e5 4EA2E9EC 		.ascii	"N\242\351\354\342>\364\254\367\241\227\312\357\343>"
 619      E23EF4AC 
 619      F7A197CA 
 619      EFE33E
 620 01f4 F4711F10 		.ascii	"\364q\037\020\246\370\2557k\037-D%,b\255^e\0112\321"
 620      A6F8AD37 
 620      6B1F2D44 
 620      252C62AD 
 620      5E650932 
 621 0209 B17B5F5A 		.ascii	"\261{_Zt\263,\221\352~L\020V\317\315\214\215K\364\005"
 621      74B32C91 
 621      EA7E4C10 
 621      56CFCD8C 
 621      8D4BF405 
 622 021d DFA02C74 		.ascii	"\337\240,t\003\016\210\277\304\235\366\316\311\230\204"
 622      030E88BF 
 622      C49DF6CE 
 622      C99884
 623 022c 3F61DAC4 		.ascii	"?a\332\304s\1776>z\027-\350AN\343\020\312\344Y\261E"
ARM GAS  C:\Users\AMANRA~1\AppData\Local\Temp\ccu0ZXx6.s 			page 50


 623      737F363E 
 623      7A172DE8 
 623      414EE310 
 623      CAE459B1 
 624 0241 78003083 		.ascii	"x\0000\203%\037\313\247\033\220W\027`\006\002\232\232"
 624      251FCBA7 
 624      1B905717 
 624      6006029A 
 624      9A
 625 0252 66C64DDE 		.ascii	"f\306M\336?\2729\310\314~R\000\370\026\275\020`R\200"
 625      3FBA39C8 
 625      CC7E5200 
 625      F816BD10 
 625      605280
 626 0265 91535B04 		.ascii	"\221S[\004,f\217ZB\204h\000\3575\241\376\222\216\267"
 626      2C668F5A 
 626      42846800 
 626      EF35A1FE 
 626      928EB7
 627 0278 A6653F01 		.ascii	"\246e?\001\207W\373\271\334\353p\215K\265\237\332\243"
 627      8757FBB9 
 627      DCEB708D 
 627      4BB59FDA 
 627      A3
 628 0289 57E40F0B 		.ascii	"W\344\017\013\371#B~\244\326\321e\255\037\177W\274\317"
 628      F923427E 
 628      A4D6D165 
 628      AD1F7F57 
 628      BCCF
 629 029b 137700CC 		.ascii	"\023w\000\314\322\266|\266\317\030\326\313\233YF\303"
 629      D2B67CB6 
 629      CF18D6CB 
 629      9B5946C3 
 630 02ab 4EB34058 		.ascii	"N\263@XJj\252B\257\355\244#\327\241j\351\373\323\323"
 630      4A6AAA42 
 630      AFEDA423 
 630      D7A16AE9 
 630      FBD3D3
 631 02be 1455A337 		.ascii	"\024U\2437\337\221\253hn\033\005\234v\247KU\363\265"
 631      DF91AB68 
 631      6E1B059C 
 631      76A74B55 
 631      F3B5
 632 02d0 541BB03C 		.ascii	"T\033\260<\247\313\344q8\355j\241\007]I\033\242n\217"
 632      A7CBE471 
 632      38ED6AA1 
 632      075D491B 
 632      A26E8F
 633 02e3 E228B0E5 		.ascii	"\342(\260\345\027\036\267SD;\255\245\236\004S\3561\315"
 633      171EB753 
 633      443BADA5 
 633      9E0453EE 
 633      31CD
 634 02f5 7EC4EDD8 		.ascii	"~\304\355\330\273!`S\235N\265@q\251n\217\246\034\312"
 634      BB216053 
 634      9D4EB540 
 634      71A96E8F 
ARM GAS  C:\Users\AMANRA~1\AppData\Local\Temp\ccu0ZXx6.s 			page 51


 634      A61CCA
 635 0308 CECAC82A 		.ascii	"\316\312\310*\242\024\233\352\266\037=\265\317Ix\306"
 635      A2149BEA 
 635      B61F3DB5 
 635      CF4978C6 
 636 0318 6698BDC8 		.ascii	"f\230\275\310\303!%#+'3G\311 J\311\\\271\336\2519\264"
 636      C3212523 
 636      2B273347 
 636      C9204AC9 
 636      5CB9DEA9 
 637 032e A379361B 		.ascii	"\243y6\033\235\021\227\225\223m\3412\\nG\212\305\232"
 637      9D119795 
 637      936DE132 
 637      5C6E478A 
 637      C59A
 638 0340 06921B4C 		.ascii	"\006\222\033LT\231\352>\015\377\000\027\365\245\342"
 638      5499EA3E 
 638      0DFF0017 
 638      F5A5E2
 639              		.text
 640              		.section	.gnu.lto_chGuardedPoolFree.c3c01d24,"",%progbits
 641 0000 789C8D55 		.ascii	"x\234\215UoLSW\024\277\347\335\327\327\216\026d\373"
 641      6F4C5357 
 641      14BFE7DD 
 641      D7D78E16 
 641      64FB
 642 0012 408C335B 		.ascii	"@\2143[IF@Gx\272%3K\226e\013\237\374@\262h\262OK\214"
 642      49464047 
 642      78BA2533 
 642      4B96650B 
 642      9FFC40B2 
 643 002b 7404BA50 		.ascii	"t\004\272P\333\264n\321O\274\001J\031s\232\250\225\325"
 643      DBB46ED1 
 643      4FBC014A 
 643      19739AA8 
 643      95D5
 644 003d 8A452062 		.ascii	"\212E b\374\203(n\202\242\035l\300d\2102pT6P\020\024"
 644      FC83286E 
 644      82A21D6C 
 644      C0648832 
 644      70543650 
 645 0053 6C8C2E71 		.ascii	"l\214.qaf\203\235s\373@(\035\361\245}\271\177\316\371"
 645      6166839D 
 645      73FB4028 
 645      1DF1A57D 
 645      B97FCEF9 
 646 0067 9DDFFD9D 		.ascii	"\235\337\375\235s\317S\030c\026\023c\033\200\261Wq\014"
 646      73CF5318 
 646      63161363 
 646      1B80B157 
 646      710C
 647 0079 9C81B4EF 		.ascii	"\234\201\264\357:c_\232$\000\032h&`E\022\024\301\327"
 647      3A635F9A 
 647      24001A68 
 647      26604512 
 647      14C1D7
 648 008c FC0087B6 		.ascii	"\374\000\207\266\262\211fi\315q\015\237\320!\177\312"
ARM GAS  C:\Users\AMANRA~1\AppData\Local\Temp\ccu0ZXx6.s 			page 52


 648      B2896669 
 648      CD710D9F 
 648      D0217FCA 
 649 009c 6E6DD7CA 		.ascii	"nm\327\312\000g\314\207\177z\340<\254A\253\233\245g"
 649      0067CC87 
 649      7F7AE03C 
 649      AC41AB9B 
 649      A567
 650 00ae 03BC8207 		.ascii	"\003\274\202\0078\200\214\323'=\376\261$\232J`\305i"
 650      38808CD3 
 650      273DFEB1 
 650      249A4A60 
 650      C569
 651 00c0 EDB8F7A4 		.ascii	"\355\270\367\244\304U`8\336;\322\346\267\244\327iZ\261"
 651      C4556038 
 651      DE3BD2E6 
 651      B7A4D769 
 651      5AB1
 652 00d2 16FAA78E 		.ascii	"\026\372\247\216ko\0048\207\357\200# \\\200\325\320"
 652      6B6F0438 
 652      87EF8023 
 652      205C80D5 
 652      D0
 653 00e3 04AB192E 		.ascii	"\004\253\031.1\370\036\322\321|\262t\237w\005\177[\270"
 653      31F81ED2 
 653      D17CB274 
 653      9F77057F 
 653      5BB8
 654 00f5 FE151998 		.ascii	"\376\025\031\230w\355?.\\e\270\030\353*3h\206t\262\037"
 654      77ED3F2E 
 654      5C65B818 
 654      EB2A3368 
 654      8674B21F 
 655 0109 6D9C3998 		.ascii	"m\2349\230\250\310Q\256\320\002\012\314/\226\212\363"
 655      A8C851AE 
 655      D0020ACC 
 655      2F968AF3 
 656 0119 DC0A2B62 		.ascii	"\334\012+b\335\307a\241=\\B\323\313\240\260\030\363"
 656      DDC761A1 
 656      3D5C42D3 
 656      CBA0B018 
 656      F3
 657 012a F6CEF70D 		.ascii	"\366\316\367\015\2146|\\\242\275\272k}W\315|\253\360"
 657      8C367C5C 
 657      A2BDBA6B 
 657      7D57CD7C 
 657      ABF0
 658 013c 3D71A6BA 		.ascii	"=q\246\272\322\222V#\270\365\036\311\250*\251\330\243"
 658      D2925623 
 658      B8F51EC9 
 658      A82AA9D8 
 658      A3
 659 014d 058B9303 		.ascii	"\005\213\223\003\334\000W\0263\244'\006\370Q\025jp\025"
 659      DC005716 
 659      33A42706 
 659      F851156A 
 659      7015
ARM GAS  C:\Users\AMANRA~1\AppData\Local\Temp\ccu0ZXx6.s 			page 53


 660 015f D218B412 		.ascii	"\322\030\264\0228_D&\204d~@2\364\302\234\261\206>CH"
 660      385F4426 
 660      84647E40 
 660      32F4C29C 
 660      B1863E43 
 661 0174 9B992DC3 		.ascii	"\233\231-\303t\254\032\334\267\273\365\274\301\202\211"
 661      74AC1ADC 
 661      B7BBF5BC 
 661      C18289
 662 0183 43B5507B 		.ascii	"C\265P{<\270\001%P\024|\031\031\363\342\3011\243Z\210"
 662      3CB80125 
 662      50147C19 
 662      19F3E2C1 
 662      31A35A88 
 663 0197 9523631C 		.ascii	"\225#c\034\225\204\330\004Hq\370\036^\236/\264A\032"
 663      9584D804 
 663      4871F81E 
 663      5E9E2FB4 
 663      411A
 664 01a9 3A954D6A 		.ascii	":\225Mj\2552\245\325\000Vh\307\275\207P<Z\343k\031\211"
 664      AD32A5D5 
 664      005668C7 
 664      BD87503C 
 664      5AE36B19 
 665 01be 15767F55 		.ascii	"\025v\177U\212.\254\274D\304\373o\241\210?\322\236!"
 665      8A2EACBC 
 665      44C4FB6F 
 665      A1883FD2 
 665      9E21
 666 01d0 76AFFB48 		.ascii	"v\257\373H\006VP\033\011\361\323R!:\360\374\235$D'\011"
 666      0656501B 
 666      09F1D352 
 666      213AF0FC 
 666      9D244427 
 667 01e5 01EC1E45 		.ascii	"\001\354\036E=v\364\334tB\352S8\252UZ\003\334D\016\247"
 667      3D76F4DC 
 667      7442EA53 
 667      38AA555A 
 667      03DC440E 
 668 01fa C72E6926 		.ascii	"\307.i&YB\326]\220*\264~\034\351\037\222p\005~\006Y"
 668      5942D65D 
 668      902AB47E 
 668      1CE91F92 
 668      70057E06 
 669 020f F066704D 		.ascii	"\360fpM\324i\375\225\366qK\352\264\356\375\022\331\376"
 669      D469FD95 
 669      F6714BEA 
 669      B4EEFD12 
 669      D9FE
 670 0221 79E6DC80 		.ascii	"y\346\334\200Yxw\2237\374\0022jVl\025\0320\032\336)"
 670      59787793 
 670      37FC0232 
 670      6A566C15 
 670      1A301ADE 
 671 0236 DF6BA6C3 		.ascii	"\337k\246\303\241\361\337\267\"\027\022u\025\037\015"
 671      A1F1DFB7 
 671      22171275 
ARM GAS  C:\Users\AMANRA~1\AppData\Local\Temp\ccu0ZXx6.s 			page 54


 671      151F0D
 672 0245 5AFC5AA8 		.ascii	"Z\374Z\250\324\032\247\236\205\204=\220\346\307, @\360"
 672      D41AA79E 
 672      85843D90 
 672      E6C72C20 
 672      40F0
 673 0257 EA29AE03 		.ascii	"\352)\256\003<\231\331\363\314\270\004`IU\013\200\353"
 673      3C99D9F3 
 673      CCB80460 
 673      49550B80 
 673      EB
 674 0268 04C00583 		.ascii	"\004\300\005\203\232\332\231\276%\232\237M!\023\212"
 674      9ADA99BE 
 674      259A9F4D 
 674      21138A
 675 0277 A36BAF2C 		.ascii	"\243k\257,\222\257\027U\273A\362\335\020\221\017Lx\237"
 675      92AF1755 
 675      BB41F2DD 
 675      10910F4C 
 675      789F
 676 0289 AE585B2F 		.ascii	"\256X[/\\\207\303\222?h\012\360\004\246_\352\233\260"
 676      5C87C392 
 676      3F680AF0 
 676      04A65FEA 
 676      9BB0
 677 029b 164D7CBB 		.ascii	"\026M|\273\332z\215\224\356\350\365\270\334\326\323"
 677      DA7A8D94 
 677      EEE8F5B8 
 677      DCD6D3
 678 02aa A104A10A 		.ascii	"\241\004\241\012\002\334\214'\201>\"\206\353\375e\203"
 678      02DC8C27 
 678      813E2286 
 678      EBFD6583 
 679 02ba C366F534 		.ascii	"\303f\3654!!\261\327\272?\016p\013\374\012A8\210\345"
 679      2121B1D7 
 679      BA3F0E70 
 679      0BFC0A41 
 679      3888E5
 680 02cd 4761C9E8 		.ascii	"Ga\311\350d\317\324\260R\364/\031\005\2230\022\364\203"
 680      64CFD4B0 
 680      52F42F19 
 680      05933012 
 680      F483
 681 02df 1AA53300 		.ascii	"\032\2453\000EB`\235\327\203\213\035^\023o\224D\310"
 681      4542609D 
 681      D7838B1D 
 681      5E136F94 
 681      44C8
 682 02f1 4B9DB5FB 		.ascii	"K\235\265\373\3459y\272W\036+\321\2724\231\274o\305"
 682      E53979BA 
 682      571E2BD1 
 682      BA3499BC 
 682      6FC5
 683 0303 D1E7373C 		.ascii	"\321\3477<<\022\027\012\317\326q\035o\221\302\317!\342"
 683      3C12170A 
 683      CFD6711D 
 683      6F91C2CF 
ARM GAS  C:\Users\AMANRA~1\AppData\Local\Temp\ccu0ZXx6.s 			page 55


 683      21E2
 684 0315 4B3CF85C 		.ascii	"K<\370\\\342\212\351qs\214\302\235]\357u+dC\241\204"
 684      E28AE971 
 684      738CC29D 
 684      5DEF752B 
 684      6443A184 
 685 0329 8E3EBC65 		.ascii	"\216>\274eh4\024\036\276h\341MQ\316\003#'>\321\343\035"
 685      6834141E 
 685      BE68E14D 
 685      51CE0323 
 685      273ED1E3 
 686 033e 7A6C6E68 		.ascii	"zlnh\322\264\362\017\360J\302\355e\332\200\014C\204"
 686      D2B4F20F 
 686      F04AC2ED 
 686      65DA800C 
 686      4384
 687 0350 18C614FD 		.ascii	"\030\306\024\375N\232\340\213V\210\313\024\024\267L"
 687      4E9AE08B 
 687      5688CB14 
 687      14B74C
 688 035f CED625D0 		.ascii	"\316\326%\320\232\237\033\320\245\244=\334h\242\264"
 688      9A9F1BD0 
 688      A5A43DDC 
 688      68A2B4
 689 036e 248005A7 		.ascii	"$\200\005\247\0155c\247L\321\264X(-\177\350i\031\351"
 689      0D3563A7 
 689      4CD1B458 
 689      282D7FE8 
 689      6919E9
 690 0381 ADAEB744 		.ascii	"\255\256\267D\323b\245\370\303\"# \2420\030\001\225"
 690      D362A5F8 
 690      C3222320 
 690      A2301801 
 690      95
 691 0392 A0FBBF0A 		.ascii	"\240\373\277\012sB^\230m%6\333\211\310\003\356,\315"
 691      73425E98 
 691      6D2536DB 
 691      89C803EE 
 691      2CCD
 692 03a4 76701519 		.ascii	"vp\025\031\337\025\270\222\216;\012*\262$h\337\244\267"
 692      DF15B892 
 692      8E3B0A2A 
 692      B22468DF 
 692      A4B7
 693 03b6 CCA863BF 		.ascii	"\314\250c\277\000\307`\012\201\215-\"y\217\300\026T"
 693      00C7600A 
 693      818D2D22 
 693      798FC016 
 693      54
 694 03c7 3C492EB4 		.ascii	"<I.\264\237/\030\312\006\243h\317\312v}+\366\375\\y"
 694      9F2F18CA 
 694      06A368CF 
 694      CA767D2B 
 694      F6FD5C79 
 695 03db B15A0D9E 		.ascii	"\261Z\015\236\303\315$\030\027\021\371\377\025\252\021"
 695      C3CD2418 
 695      1711F9FF 
ARM GAS  C:\Users\AMANRA~1\AppData\Local\Temp\ccu0ZXx6.s 			page 56


 695      15AA11
 696 03ea 26B05069 		.ascii	"&\260Pi\017\356c\241F\240T\304%\313\346\346\310\220"
 696      0FEE63A1 
 696      46A054C4 
 696      25CBE6E6 
 696      C890
 697 03fc 112DF1E2 		.ascii	"\021-\361\342\254\360qS\324\350\001\032!\205\000O\216"
 697      ACF07153 
 697      D4E8011A 
 697      2185004F 
 697      8E
 698 040d B68A4AD1 		.ascii	"\266\212J\321*\304\245\214\222\246\331u\232E\240$8\236"
 698      2AC4A58C 
 698      92A6D975 
 698      9A45A024 
 698      389E
 699 041f 49F318B0 		.ascii	"I\363\030\260\227}\330\211\030L\"R\200\277\"\0326}\034"
 699      977DD889 
 699      184C2252 
 699      80BF221A 
 699      367D1C
 700 0432 16A6C880 		.ascii	"\026\246\310\200\012M\351\375\267\332\327\362z\364\333"
 700      0A4DE9FD 
 700      B7DAD7F2 
 700      7AF4DB
 701 0441 A0B7C499 		.ascii	"\240\267\304\231\243w\257\230\347\272\335\224\350v\017"
 701      A377AF98 
 701      E7BADD94 
 701      E8760F
 702 0450 45B78B6D 		.ascii	"E\267\213mm\221hk\2733\376\315\355|\021\202\261GT\371"
 702      6D91686B 
 702      BB33FECD 
 702      ED7C1182 
 702      B14754F9 
 703 0464 87DF14AC 		.ascii	"\207\337\024\254\350\361b.\360\273\201>\231YY*\376l"
 703      E8F1622E 
 703      F0BB813E 
 703      9959592A 
 703      FE6C
 704 0476 05F65CBB 		.ascii	"\005\366\\\273\323\263\376\335\365\353T\247\007\177"
 704      D3B3FEDD 
 704      F5EB54A7 
 704      077F
 705 0484 85F65CD5 		.ascii	"\205\366\\\325\343\266\341\206#\317\341r:\013=Y6\306"
 705      E3B6E186 
 705      23CFE172 
 705      3A0B3D59 
 705      36C6
 706 0496 F31D2ED9 		.ascii	"\363\035.\331\231\373\231+#\256\227{\273j\337f+\374"
 706      99FB992B 
 706      23AE977B 
 706      BB6ADF66 
 706      2BFC
 707 04a8 FCD33CDC 		.ascii	"\374\323<\334\361\354\364d\0250c\356VO\336Gn\373;q\035"
 707      F1ECF464 
 707      153063EE 
 707      564FDE47 
ARM GAS  C:\Users\AMANRA~1\AppData\Local\Temp\ccu0ZXx6.s 			page 57


 707      6EFB3B71 
 708 04bd 6C4E87C3 		.ascii	"lN\207\303\271Mu9\335\333=\352\207\233r\262sv\240\211"
 708      B94D7539 
 708      DDDB3DEA 
 708      879B72B2 
 708      7376A089 
 709 04d1 CDE9CEDB 		.ascii	"\315\351\316\333\362\305\006\007\272g/\347\226\267c"
 709      F2C50607 
 709      BA672FE7 
 709      96B763
 710 04e0 3B39A9D9 		.ascii	";9\251\3319\2337nV\263\321K\3358\027\336\341\261{\266"
 710      399B376E 
 710      56B3D14B 
 710      DD3817DE 
 710      E1B17BB6 
 711 04f4 E4DB6C88 		.ascii	"\344\333l\210\221\234\263y\223\225h\270\334\366Lk\332"
 711      919CB379 
 711      939568B8 
 711      DCF64C6B 
 711      DA
 712 0505 3A26B999 		.ascii	":&\271\231\021\017\345t\357d\353\2269\375\363\243\314"
 712      110FE574 
 712      EF64EB96 
 712      39FDF3A3 
 712      CC
 713 0516 2B50C024 		.ascii	"+P\300$\207\213\273\012\\\377\001\365\211\372\254"
 713      878BBB0A 
 713      5CFF01F5 
 713      89FAAC
 714              		.text
 715              		.section	.gnu.lto_.symbol_nodes.c3c01d24,"",%progbits
 716 0000 789C55CF 		.ascii	"x\234U\317\315JBq\020\005\360\363?cz\257\327\217G\350"
 716      CD4A4271 
 716      1005F0F3 
 716      3F637AAF 
 716      D78F47E8 
 717 0014 057C087D 		.ascii	"\005|\010}\254V\347\"\222P\233^\"L\263T\020J\243E\""
 717      AC56E722 
 717      92509B5E 
 717      224CB354 
 717      104AA345 
 718 0029 B8EB190A 		.ascii	"\270\353\031\012l\327:h#M\322\242\331\314\314\3711\263"
 718      6CD73A68 
 718      234DD2A2 
 718      D9CCCCF9 
 718      31B3
 719 003b 982A80B3 		.ascii	"\230*\200\263\344\205\317\024p\365\012\010i5x)\273n"
 719      E485CF14 
 719      70F50A08 
 719      69357829 
 719      BB6E
 720 004d 232AFD19 		.ascii	"#*\375\031\326e\317\345\206b\2241eQ&T%\312-u\022eJU"
 720      D665CFE5 
 720      86629431 
 720      65512654 
 720      25CA2D75 
 721 0065 A3DC51B5 		.ascii	"\243\334Q\265(\367T\026eF\345Q\346T=\312\202*\202\244"
ARM GAS  C:\Users\AMANRA~1\AppData\Local\Temp\ccu0ZXx6.s 			page 58


 721      28F75416 
 721      6546E551 
 721      E6543DCA 
 721      822A82A4 
 722 0079 07AA7114 		.ascii	"\007\252q\024\240\374}+\255\251f\200'\252\025`E\265"
 722      A0FC7D2B 
 722      ADA96680 
 722      27AA1560 
 722      45B5
 723 008b FF430558 		.ascii	"\377C\005X^\037\022\314\200\315w\307<o\316wf\265\006"
 723      5E1F12CC 
 723      80CD77C7 
 723      3C6FCE77 
 723      66B506
 724 009e F6C3CF53 		.ascii	"\366\303\317S\313Z\030\\~<\232eM\354\217C\336\306\366"
 724      CB5A185C 
 724      7E3C9A65 
 724      4DEC8F43 
 724      DEC6F6
 725 00b1 ED902C07 		.ascii	"\355\220,\007\372\303/Z=G\377\335s\341\233\027~Q\370"
 725      FAC32F5A 
 725      3D47FFDD 
 725      73E19B17 
 725      7E51F8
 726 00c4 A277FC00 		.ascii	"\242w\374\000\322\314b\360"
 726      D2CC62F0 
 727              		.text
 728              		.section	.gnu.lto_.refs.c3c01d24,"",%progbits
 729 0000 789C6363 		.ascii	"x\234cc```\004b\006\000\000D\000\010"
 729      60606004 
 729      62060000 
 729      440008
 730              		.text
 731              		.section	.gnu.lto_.decls.c3c01d24,"",%progbits
 732 0000 789CB55B 		.ascii	"x\234\265[yTT\351\225\257\257\276Z\240\330l5\235Nbz"
 732      795454E9 
 732      95AFAFBE 
 732      5AA0D86C 
 732      359D4E62 
 733 0015 9C1E9226 		.ascii	"\234\036\222&\223\264\210\366:'\323\247;=3i3\335\231"
 733      93B488F6 
 733      3A27D3A7 
 733      3B3D3369 
 733      33DD99
 734 0028 9C989C39 		.ascii	"\234\230\2349=1\251\246\241Z\351f1Pv\267\371'\305\342"
 734      3D31A9A6 
 734      A15AE966 
 734      315076B7 
 734      F927C5E2 
 735 003c 82808220 		.ascii	"\202\200\202 \233\240\010\212\"\270\"\242\200\262)\010"
 735      9BA0088A 
 735      22B822A2 
 735      80B22908 
 736 004c C822AB22 		.ascii	"\310\"\253\";\210\202(\012*\2530\367[^\275W\217*\333"
 736      3B888228 
 736      0A2AAB30 
 736      F75B5EBD 
ARM GAS  C:\Users\AMANRA~1\AppData\Local\Temp\ccu0ZXx6.s 			page 59


 736      578F2ADB 
 737 0060 E4CCD4F1 		.ascii	"\344\314\324\361Ru\277w\277{\177w\371\266\367\236\032"
 737      5275BF77 
 737      BF7B7F77 
 737      F9B6F79E 
 737      1A
 738 0071 8542E1F4 		.ascii	"\205B\341\364\266B\221j\247P\270j\024\212y\3708A[)\220"
 738      B642916A 
 738      A750B86A 
 738      148A79F8 
 738      38415B29 
 739 0086 3D503BD0 		.ascii	"=P;\320\005\240O\200\352\201\364\244\015)\0247\201@"
 739      05A04F80 
 739      EA81F4A4 
 739      0D291437 
 739      8140
 740 0098 5CD109DF 		.ascii	"\\\321\011\337\344\263\010h\000~\337\005z\010\364\030"
 740      E4B30868 
 740      007EDF05 
 740      7A08F418 
 741 00a8 68026816 		.ascii	"h\002h\026h\016H\245T(t@.@/\000\275\010\364\003\240"
 741      680E48A5 
 741      54287440 
 741      2E402F00 
 741      BD08F403 
 742 00bd 97815E01 		.ascii	"\227\201^\001zU\251X\360\251\302\320\007\276\027\003"
 742      7A55A958 
 742      F0A9C2D0 
 742      07BE1703 
 743 00cd 2D156C03 		.ascii	"-\025l\003\325r<\3279&\202\357*\020\210+\232\200Z\200"
 743      D5723CD7 
 743      392682EF 
 743      2A10882B 
 743      9A805A80 
 744 00e1 1A8110C7 		.ascii	"\032\201\020\307D\276\335e\372\3330\363\357S\211~\271"
 744      44BEDD65 
 744      FADB30F3 
 744      EF53897E 
 744      B9
 745 00f2 AF447F19 		.ascii	"\257D\177\031\220\012\350\232Do\023\327}\227\353~S\246"
 745      900AE89A 
 745      446F13D7 
 745      7D97EB7E 
 745      53A6
 746 0104 BB1F743B 		.ascii	"\273\037t;[\321\255\347\372\207\270\015\242\373m\350"
 746      5BD1ADE7 
 746      FA87B80D 
 746      A2FB6DE8 
 747 0114 FBAF40EF 		.ascii	"\373\257@\357*Y\314\211M\242\256\234\333#\030I<\337"
 747      2A59CC89 
 747      4DA2AE9C 
 747      DB231849 
 747      3CDF
 748 0126 53B238FE 		.ascii	"S\2628\376\002\276\377\015\350W@\037\001\375Z\311bL"
 748      02BEFF0D 
 748      E857401F 
 748      01FD5AC9 
ARM GAS  C:\Users\AMANRA~1\AppData\Local\Temp\ccu0ZXx6.s 			page 60


 748      624C
 749 0138 70FC4E86 		.ascii	"p\374N\206\343.\367Q\036\2772n\207\330\373=\364\351"
 749      E32EF751 
 749      1EBF326E 
 749      87D8FB3D 
 749      F4E9
 750 014a 47CCE635 		.ascii	"G\314\3465n\227\374&\371\263\025\273Q\320\353hE\357"
 750      6E97FC26 
 750      F9B315BB 
 750      51D0EB68 
 750      45EF
 751 015c 90CCA767 		.ascii	"\220\314\247g\331\200r\243\365a\315\037\301\266\374"
 751      D98072A3 
 751      F561CD1F 
 751      C1B6FC
 752 016b 3385593F 		.ascii	"3\205Y?kq\225\372$\265C\324\010\361\371\203\314\217"
 752      6B7195FA 
 752      24B543D4 
 752      08F1F983 
 752      CC8F
 753 017d A7A0CFC1 		.ascii	"\247\240\317\301\206>[\276Huk\025\317\316\211\374c\257"
 753      863E5BBE 
 753      48756B15 
 753      CFCE89FC 
 753      63AF
 754 018f 62E3C4C2 		.ascii	"b\343\304\302\036\022k\216\214)b\377:\022k\233`\250"
 754      1E126B8E 
 754      8C2962FF 
 754      3A126B9B 
 754      60A8
 755 01a1 037E9D92 		.ascii	"\003~\235\222\215\267\357\363\357f\264\260&[\020\033"
 755      8DB7EFF3 
 755      EF66B4B0 
 755      265B101B 
 756 01b1 0364AC91 		.ascii	"\003d\254\221\332\374\201\2251\365\035\300\360\035+"
 756      DAFC8195 
 756      31F51DC0 
 756      F01D2B
 757 01c0 18ACD526 		.ascii	"\030\254\325&\301#\370/\305U\3121\375\021\332\377\021"
 757      C123F82F 
 757      C555CA31 
 757      FD11DAFF 
 757      11
 758 01d1 E84F403F 		.ascii	"\350O@?\004RKp\225s<\004\037\251\0252\366?\345\343^"
 758      04524B70 
 758      95733C04 
 758      1FA91532 
 758      F63FE5E3 
 759 01e6 881189D7 		.ascii	"\210\021\211\327g<V\257\360\271@\210%\011\237\217\014"
 759      673C56AF 
 759      F0B94088 
 759      25099F8F 
 759      0C
 760 01f7 FF3F00F6 		.ascii	"\377?\000\366\027\024\262\272Cl\016rDb\374\3128V\202"
 760      1714B2BA 
 760      436C0E72 
 760      4462FCCA 
ARM GAS  C:\Users\AMANRA~1\AppData\Local\Temp\ccu0ZXx6.s 			page 61


 760      385682
 761 020a F10BD0F1 		.ascii	"\361\013\320\361c+\265\250\342\370\244xI\233\013\237"
 761      632BB5A8 
 761      E2F8A478 
 761      499B0B9F 
 762 021a 8B6CD5E0 		.ascii	"\213l\325\340?\251\254\314I\034\303\220\244^\276\004"
 762      3FA9ACCC 
 762      491CC390 
 762      A45EBE04 
 763 022a 72E6F849 		.ascii	"r\346\370I\235\274\240\264^'.Vr\364\032\330Xb#GB]\376"
 763      9DBCA0B4 
 763      5E272E56 
 763      72F41AD8 
 763      58622347 
 764 0241 ADB95159 		.ascii	"\255\271QY\311\015\361\343E\033\270\344y\221\177\342"
 764      C90DF1E3 
 764      451BB8E4 
 764      79917FE2 
 765 0251 30BA1676 		.ascii	"0\272\026v2\005G`\264X\207T\300>\254M\356w\006v\251"
 765      32054760 
 765      B4588754 
 765      C03EAC4D 
 765      EE770676 
 766 0266 0E2D0736 		.ascii	"\016-\0076\271\360Q\265\232]\265\0036z\346i\217\026"
 766      B9F051B5 
 766      9A5DB503 
 766      367AE669 
 766      8F16
 767 0278 2B11E978 		.ascii	"+\021\351x795Q\205\355\350\357\316+Y\331D\311':D\226"
 767      37393551 
 767      85EDE8EF 
 767      CE2B59D9 
 767      44C9273A 
 768 028e 1E17683A 		.ascii	"\036\027h:1r~\312\2115\021\211S\363\273\343\235\361"
 768      31727ECA 
 768      89351189 
 768      53F3BBE3 
 768      9DF1
 769 02a0 52FA3BA7 		.ascii	"R\372;\247-!\335iE\216\211}\354\266c\005*@X\000tpj4"
 769      2D21DD69 
 769      458E897D 
 769      ECB66305 
 769      2A405800 
 770 02b8 DF11AF21 		.ascii	"\337\021\257!\222\312\332\206\211\002;\244s\333n2\205"
 770      92CADA86 
 770      89023BA4 
 770      73DB6E32 
 770      85
 771 02c9 98D2424D 		.ascii	"\230\322BM\366\037*\320\031\264\014\345\242e\012t\021"
 771      F61F2AD0 
 771      19B40CE5 
 771      A2650A74 
 771      11
 772 02da B911ED85 		.ascii	"\271\021\355\205h\205\002\235\207\306s\320\230I4\226"
 772      6885029D 
 772      87C673D0 
 772      98493496 
ARM GAS  C:\Users\AMANRA~1\AppData\Local\Temp\ccu0ZXx6.s 			page 62


 773 02ea 5426BF52 		.ascii	"T&\277R\330e2-G\027\220\016\025!Le\240\032?\3211\023"
 773      D865322D 
 773      4717900E 
 773      15214C65 
 773      A01A3FD1 
 774 0300 D11D5345 		.ascii	"\321\035SE\0168\017Q4\211\273s\316#\\@\031U\347\223"
 774      0E380F51 
 774      3489BB73 
 774      CE235C40 
 774      1955E793 
 775 0314 E6C76AB4 		.ascii	"\346\307j\264\304\321\325-\206h\002\223&\244\222\330"
 775      C4D1D52D 
 775      86680293 
 775      26A492D8 
 776 0324 2C0165A5 		.ascii	",\001e\245h\011Q\210.\201\375r\344Jq\3570\003\244\227"
 776      68095188 
 776      2E81FD72 
 776      E44A71EF 
 776      3003A497 
 777 0338 0579052A 		.ascii	"\005y\005*Cd\334(\322\311\365\222\211s\256\207+\267"
 777      4364DC28 
 777      D2C9F592 
 777      8973AE87 
 777      2BB7
 778 034a 9AA23D49 		.ascii	"\232\242=I3*\346\272\314\312\335I\007\017\370\303\335"
 778      332AE6BA 
 778      CCCADD49 
 778      070FF8C3 
 778      DD
 779 035b A8D88621 		.ascii	"\250\330\206!<DF\301=\340!j|p5\325\201ee\021\260g\007"
 779      3C4446C1 
 779      3DE0216A 
 779      7C7035D5 
 779      81656511 
 780 0372 AB2A742C 		.ascii	"\253*t,g&\004\374\315}\025C\216x\202\271w<g\346\244"
 780      672604FC 
 780      CD7D1543 
 780      8E7882B9 
 780      773C67E6 
 781 0387 8ECC2524 		.ascii	"\216\314%$V\376*\322\3246;Q\244\245M$>W\020m\274<?Q"
 781      56FE2AD2 
 781      D4363B51 
 781      A4A54D24 
 781      3E57106D 
 782 039f E2C2742A 		.ascii	"\342\302t*%&\2262\023\365IYy./\305\023X\321\241\246"
 782      25269632 
 782      13F54959 
 782      792E2FC5 
 782      1358D1A1 
 783 03b4 454AA477 		.ascii	"EJ\244wD5\200\273\232:y\025\275\004\177\253\220\212"
 783      443580BB 
 783      9A3A7915 
 783      BD047FAB 
 783      908A
 784 03c6 C1BB9960 		.ascii	"\301\273\231`*W:JB\002\327%!\251\005\337\231; \233\333"
 784      2A573A4A 
 784      4202D725 
ARM GAS  C:\Users\AMANRA~1\AppData\Local\Temp\ccu0ZXx6.s 			page 63


 784      21A905DF 
 784      993B209B 
 785 03db B5B3DC09 		.ascii	"\265\263\334\011\233hI)\367\037\335\221\254E\216n6\272"
 785      9B684929 
 785      F71FDD91 
 785      AC458E6E 
 785      36BA
 786 03ed A20688B8 		.ascii	"\242\006\210\270\330\233\005i\264\352\347\211\215$\327"
 786      D89B0569 
 786      B4EAE789 
 786      8D24D7
 787 03fc F570A14E 		.ascii	"\365p\241N\314u-\015|\034\326D\204t\035rF\256\256\256"
 787      CC752D0D 
 787      7C1CD644 
 787      84741D72 
 787      46AEAEAE 
 788 0410 6EAE4BCC 		.ascii	"n\256K\314iH|t\307d\332\355h\316C\253\365<0\371\301"
 788      69487C74 
 788      C764DAED 
 788      68CE43AB 
 788      F53C30F9 
 789 0425 C4C519A1 		.ascii	"\304\305\031\241\246++I\004\317\312\205\363\220Lz\370"
 789      A62B2B49 
 789      04CFCA85 
 789      F3904C7A 
 789      F8
 790 0436 A5645349 		.ascii	"\245dSI\030\246x*\255K\237A\222$'.\016\206\"#b\322,"
 790      18A6782A 
 790      AD4B9F41 
 790      9224272E 
 790      0E862223 
 791 044d 335DAD82 		.ascii	"3]\255\202e\222\250|\2538\231.Z\255\321&V\255\025 p"
 791      6592A87C 
 791      AB38992E 
 791      5AADD126 
 791      56AD1520 
 792 0462 991A6AE5 		.ascii	"\231\032j\345\245\332\014\201\273\206\\Q\013P#P\023"
 792      A5DA0C81 
 792      BB865C51 
 792      0B502350 
 792      13
 793 0473 2F5B92E8 		.ascii	"/[\222\350\370\313\331Z|\201% \357X\376a'\264\304\315"
 793      F8CBD95A 
 793      7C812520 
 793      EF58FE61 
 793      27B4C4CD 
 794 0487 AA3A7403 		.ascii	"\252:t\003\264|\233F\346\324\\\242\206T\356u\020n\023"
 794      B47C9B46 
 794      E6D45CA2 
 794      8654EE75 
 794      106E13
 795 049a 53425CA4 		.ascii	"SB\\\2446K\362NO8H\013\344\272\305\230igc\206|\203\360"
 795      364BF24E 
 795      4F38480B 
 795      E4BAC598 
 795      69676386 
 796 04b1 CC9DB81B 		.ascii	"\314\235\270\033\210\025&aC\012o\304\270\260\302\354"
ARM GAS  C:\Users\AMANRA~1\AppData\Local\Temp\ccu0ZXx6.s 			page 64


 796      88152661 
 796      430A6FC4 
 796      B8B0C2EC 
 797 04c1 21BAC6CF 		.ascii	"!\272\306\317\016f\332\343\0326'\345\337\317\316wb\027"
 797      0E66DAE3 
 797      1A3627E5 
 797      DFCFCE77 
 797      6217
 798 04d3 4B083F1D 		.ascii	"K\010?\035{>\317\001\327[^\\\314/\036\031L\331\351\310"
 798      7B3ECF01 
 798      D75B5E5C 
 798      CC2F1E19 
 798      4CD9E9C8 
 799 04e7 F8B7816D 		.ascii	"\370\267\201mn\350:\204q\213\322bB{u\341\204\366*\233"
 799      6EE83A84 
 799      718BD262 
 799      427B75E1 
 799      84F62A9B 
 800 04fb D01A778D 		.ascii	"\320\032w\215\035\324\342.\026\267\356\0333\035\316"
 800      1DD4E22E 
 800      16B7EE1B 
 800      331DCE
 801 050a B6E6A9DB 		.ascii	"\266\346\251\333\020\252W\371<5\000\215\375\346y\252"
 801      10AA57F9 
 801      3C35008D 
 801      FDE679AA 
 802 051a BEF3DDA4 		.ascii	"\276\363\335\2441R\273\203\220\336[b\240^\345\363T\326"
 802      3152BB83 
 802      90DE5B62 
 802      A05EE5F3 
 802      54D6
 803 052c C198740D 		.ascii	"\301\230t\015n\300\324F\341\336[\227\225\266l\014\333"
 803      6EC0D446 
 803      E1DE5B97 
 803      95B66C0C 
 803      DB
 804 053d B631F34A 		.ascii	"\2661\363J\305\026\023\014\260!\260qG\264\001&\231\021"
 804      C516130C 
 804      B021B071 
 804      47B40126 
 804      9911
 805 054f 53DCCC7E 		.ascii	"S\334\314~'\234\247\242FFC\367\036\262\351\310=\233"
 805      279CA7A2 
 805      464643F7 
 805      1EB2E9C8 
 805      3D9B
 806 0561 464677E1 		.ascii	"FFw\341\256i\342\310\010\030\271+\032\031\022\214t\344"
 806      AE69E2C8 
 806      0818B92B 
 806      1A19128C 
 806      74E4
 807 0573 4695DBE1 		.ascii	"F\225\333\341yj\004eO\204\345\271\340mj\312\224>\275"
 807      796A0465 
 807      4F84E5B9 
 807      E06D6ACA 
 807      943EBD
 808 0586 91A2C351 		.ascii	"\221\242\303Q\214\231=T\177\335\016\357aLa~Q\005_{V"
ARM GAS  C:\Users\AMANRA~1\AppData\Local\Temp\ccu0ZXx6.s 			page 65


 808      8C993D54 
 808      7FDD0EEF 
 808      614C617E 
 808      51055F7B 
 809 059b 021B3A90 		.ascii	"\002\033:\220\332\353\214\367\261k\025\273\302\"u\370"
 809      DAEB8CF7 
 809      B16B15BB 
 809      C22275F8 
 810 05ab 3065948F 		.ascii	"0e\224\217\257\215$il\201~b\023t\265\346=\364\030\360"
 810      AF8D2469 
 810      6C817E62 
 810      1374B5E6 
 810      3DF418F0 
 811 05bf 3EB28277 		.ascii	">\262\202w\357x\347\220=\263\355F\022Q0~H\203s\231\355"
 811      EF78E790 
 811      3DB3ED46 
 811      1251307E 
 811      48837399 
 812 05d4 BEF9B92F 		.ascii	"\276\371\271/p\021\373\035\236\023^\341\214/1&\275\270"
 812      7011FB1D 
 812      9E135EE1 
 812      8C2F3126 
 812      BDB8
 813 05e6 70448B9B 		.ascii	"pD\213\233\031#,\244\213\331Bzd\270{\026\343~v\255\267"
 813      19232CA4 
 813      8BD9427A 
 813      64B87B16 
 813      E37E76AD 
 814 05fb A3F2A433 		.ascii	"\243\362\2443\276\305\335\234\330[\350\202G\030S\333"
 814      BEC5DD9C 
 814      D85BE882 
 814      471853DB 
 815 060b 3F3FA6C3 		.ascii	"??\246\303\343\214i\234\336>\247\302\323\214\331\022"
 815      E38C699C 
 815      DE3EA7C2 
 815      D38CD912 
 816 061b 752C814C 		.ascii	"u,\201L\362\032V\221Zh\032x0}V\305\232\210C\337@SjR"
 816      F21A5691 
 816      5A681A78 
 816      307D56C5 
 816      9A8843DF 
 817 0633 C729671C 		.ascii	"\307)g\034\242\241q\271\330t.\314\011\271\351\204b{"
 817      A2A171B9 
 817      D8742ECC 
 817      09B9E984 
 817      627B
 818 0645 33E901C9 		.ascii	"3\351\001\311\321V\245\016\205)\315>k\210\313\333\371"
 818      D156A50E 
 818      8529CD3E 
 818      6B88CBDB 
 818      F9
 819 0656 6A6711BA 		.ascii	"jg\021\272-J7\242\233\206.T\271\014\205(\227\021$cS"
 819      2D4A37A2 
 819      9B862E54 
 819      B90C8528 
 819      97112463 
 820 066b 0FCEA870 		.ascii	"\017\316\250p$\263\221\033;\233\350,\332\230Y\225G\213"
ARM GAS  C:\Users\AMANRA~1\AppData\Local\Temp\ccu0ZXx6.s 			page 66


 820      24B3911B 
 820      3B9BE82C 
 820      DA985995 
 820      478B
 821 067d 2D1C6C6C 		.ascii	"-\034ll\023m\200I[F\266[7\322\026\331tS\203\343\230"
 821      136D8049 
 821      5B46B65B 
 821      37D216D9 
 821      745383E3 
 822 0692 91FC9A8E 		.ascii	"\221\374\232\216\031l6\002\305\326M\213-\022\214\354"
 822      196C3602 
 822      C5D64D8B 
 822      2D128CEC 
 823 06a2 108D84DB 		.ascii	"\020\215\204\3336\022a\335HE}\332\270\035N\246F\320"
 823      361261DD 
 823      48457DDA 
 823      B81D4EA6 
 823      46D0
 824 06b4 F998DDF7 		.ascii	"\371\230\335\367\354p\032c\272\022#\012\035p.c.\356"
 824      EC701A63 
 824      BA12230A 
 824      1D702E63 
 824      2EEE
 825 06c6 1A3B678F 		.ascii	"\032;g\217\013\030\263m\262\357\244\013.g\314phI\257"
 825      0B18B36D 
 825      B2EFA40B 
 825      2E67CC70 
 825      6849AF
 826 06d9 0A5733E6 		.ascii	"\012W3\346\304\226\201,;H\3072\310\020\222L\030\313"
 826      C496812C 
 826      3B48C732 
 826      C810924C 
 826      18CB
 827 06eb D88471A6 		.ascii	"\330\204q\246d\374\230\012\3273\217N\035\033\370B\222"
 827      64FC980A 
 827      D7338F4E 
 827      1D1BF842 
 827      92
 828 06fc 99155BB6 		.ascii	"\231\025[\266\221\250%\200C{D\207\226q\177BL\246\014"
 828      91A82580 
 828      437B4487 
 828      96717F42 
 828      4CA60C
 829 070f 137E4981 		.ascii	"\023~I\201V/C+\301\233x\360f\031\367&\016\274\211e\336"
 829      562F432B 
 829      C19B78F0 
 829      6619F726 
 829      0EBC8965 
 830 0724 64ED3F72 		.ascii	"d\355?r\311\011\337`\006\272\216\215\326aI^^\311\245"
 830      C909DF60 
 830      06BA8E8D 
 830      D661495E 
 830      5EC9A5
 831 0737 7949060B 		.ascii	"yI\006\013\211\242\205\004\245\015\023I\326M\204\304"
 831      89A28504 
 831      A50D1349 
 831      D64D84C4 
ARM GAS  C:\Users\AMANRA~1\AppData\Local\Temp\ccu0ZXx6.s 			page 67


 832 0747 36E5D8E3 		.ascii	"6\345\330\343^f\"\344r\3645\2550\354,\273\247Z\351n"
 832      5E6622E4 
 832      72F435AD 
 832      30EC2CBB 
 832      A75AE96E 
 833 075b 4E5E074D 		.ascii	"N^\007M^\012 \331+\"IV\362\221\267'y\360%<\304\"\032"
 833      5E0A20D9 
 833      2B224956 
 833      F291B727 
 833      79F0253C 
 834 0772 11397702 		.ascii	"\0219w\002\343Qf\356\336\316#\371\032\353\346\016\330"
 834      E35166EE 
 834      DECE23F9 
 834      1AEBE60E 
 834      D8
 835 0783 34D7A87E 		.ascii	"4\327\250~\017\245\201\245\375V,u\246\216\216\253\360"
 835      0FA581A5 
 835      FD562C75 
 835      A68E8EAB 
 835      F0
 836 0794 043375B0 		.ascii	"\0043u\260\374\3045-~\312L\335x\\\023\2534\007\257\035"
 836      FCC4352D 
 836      7ECA4CDD 
 836      785C13AB 
 836      3407AF1D 
 837 07a8 741C021D 		.ascii	"t\034\002\035\031r\035V\220\034\264\036\267\373a\267"
 837      19721D56 
 837      901CB41E 
 837      B7FB61B7 
 838 07b8 7AF886ED 		.ascii	"z\370\206\355%\262,\305%\256\306[\265\324\360\275Cu"
 838      25B22CC5 
 838      25AEC65B 
 838      B5D4F0BD 
 838      4375
 839 07ca A7C94CE3 		.ascii	"\247\311L\343\246C"
 839      A643
 840 07d0 7F95148D 		.ascii	"\177\225\024\215\033+\232\224\230\276\004{\034EE\225"
 840      1B2B9A94 
 840      98BE047B 
 840      1C454595 
 841 07e0 498FCFCC 		.ascii	"I\217\317\314\230'\347\223\241\246\027\202=\024\250"
 841      9827E793 
 841      A1A61782 
 841      3D14A8
 842 07ef 0B6A9CEC 		.ascii	"\013j\234\354*P\016\230v\343\246\263\300\364\021\245"
 842      2A500E98 
 842      76E3A6B3 
 842      C0F411A5 
 843 07ff B8CCFC38 		.ascii	"\270\314\3748\225.3\331\340\305Q\321\0137\036\210ma"
 843      952E33D9 
 843      E0C551D1 
 843      0B371E88 
 843      6D61
 844 0811 477639E0 		.ascii	"Gv9\340Df$nW\337M\255t@W\322\3029\001]\217\211]\263"
 844      4466246E 
 844      57DF4DAD 
 844      744057D2 
ARM GAS  C:\Users\AMANRA~1\AppData\Local\Temp\ccu0ZXx6.s 			page 68


 844      C239015D 
 845 0829 C5002C00 		.ascii	"\305\000,\000r\334\012\0202\244N\334\274\244\302\007"
 845      72DC0A10 
 845      32A44EDC 
 845      BCA4C207 
 846 0839 9895C7E1 		.ascii	"\230\225\307\341\367\322l\273r\332\246+\267\357\341"
 846      F7D26CBB 
 846      72DAA62B 
 846      B7EFE1
 847 0848 CE72D838 		.ascii	"\316r\3308\250\320)\000tR\004tB\310jA\344\3430\213\275"
 847      A8D02900 
 847      74520474 
 847      42C86A41 
 847      E4E3308B 
 848 085d 051114F7 		.ascii	"\005\021\024\367\026\271JG\276\361\011\351;\333\212"
 848      16B94A47 
 848      BEF109E9 
 848      3BDB8A
 849 086c 7037CB42 		.ascii	"p7\313B\313\344\205iG<@\031UN\350\321\007*\344\266\014"
 849      CBE48569 
 849      473C4019 
 849      554EE8D1 
 849      072AE4B6 
 850 0881 412FC402 		.ascii	"A/\304\002A\316)p\312\000UyJ,\234\236\222M\000\377\301"
 850      41CE2970 
 850      CA005579 
 850      4A2C9C9E 
 850      924D00FF 
 851 0896 5F4933FC 		.ascii	"_I3\374\266\243\337Vj\342,xC.)\3209\360%\237E\343T\312"
 851      B6A3DF56 
 851      6AE22C78 
 851      432E29D0 
 851      39F0259F 
 852 08ae 95297B1D 		.ascii	"\225){\035\227\336\376m\322\275\223\363\227\034\245"
 852      97DEFE6D 
 852      D2BD93F3 
 852      971CA5
 853 08bd 4E155838 		.ascii	"N\025X8Uhv\252\26464\313\001\0171\247\372\236\036\030"
 853      556876AA 
 853      B43634CB 
 853      010F31A7 
 853      FA9E1E18 
 854 08d1 D0E251C6 		.ascii	"\320\342Q\306L&V\035t\302\217\031\263;\247\241M\203"
 854      4C26561D 
 854      74C28F19 
 854      B33BA7A1 
 854      4D83
 855 08e3 A71823EC 		.ascii	"\247\030#\354\250\026\363\035U\327\361\271\"\015\236"
 855      A816F31D 
 855      55D7F1B9 
 855      220D9E
 856 08f2 6517F777 		.ascii	"e\027\367w<<\246\305\363,k\255\363w\356\350,\367\347"
 856      3C3CA6C5 
 856      F32C6BAD 
 856      F377EEE8 
 856      2CF7E7
 857 0905 9FBE28CE 		.ascii	"\237\276(\316\262\227\000\272\336rw~?\345e\272\273\205"
ARM GAS  C:\Users\AMANRA~1\AppData\Local\Temp\ccu0ZXx6.s 			page 69


 857      B29700BA 
 857      DE72777E 
 857      3FE565BA 
 857      BB85
 858 0917 F3002A13 		.ascii	"\363\000*\023\263\245g{s\224\337\273\247\230/\263\327"
 858      B3A5677B 
 858      7394DFBB 
 858      A7982FB3 
 858      D7
 859 0928 09DF1352 		.ascii	"\011\337\023R\321d\207\267\263C\345\303\373\315\263"
 859      D16487B7 
 859      B343E5C3 
 859      FBCDB3
 860 0937 4E389231 		.ascii	"N8\2221M\203\007\302\370f\255\201\356Z\246.\266kp4\273"
 860      4D8307C2 
 860      F866AD81 
 860      EE5AA62E 
 860      B66B7034 
 861 094c 7873CF64 		.ascii	"xs\317d\217=\216eL\304\345\274\012~\240\275B\370+-\021"
 861      8F3D8E65 
 861      4CC4E5BC 
 861      0A7EA0BD 
 861      42F82B2D 
 862 0961 C52A1CCF 		.ascii	"\305*\034\317.\036\256\3511\251q\022c\212v\324\314\332"
 862      2E1EAEE9 
 862      31A97112 
 862      638A76D4 
 862      CCDA
 863 0973 E114C624 		.ascii	"\341\024\306$\027l\013\321\341\375\214i\255n\337\341"
 863      176C0BD1 
 863      E1FD8C69 
 863      AD6EDFE1 
 864 0983 80D31953 		.ascii	"\200\323\031S\326\222^\257\306\231\214\211\035\237\314"
 864      D6925EAF 
 864      C6998C89 
 864      1D9FCC
 865 0992 41F82863 		.ascii	"A\370(cn\235\276Y\253\305\307\031\223v\276\273J\203"
 865      6E9DBE59 
 865      ABC5C719 
 865      9376BEBB 
 865      4A83
 866 09a4 4F3366AC 		.ascii	"O3f\2542\345k|\226\375\336~\246}\267\016\0270&\243`"
 866      32E56B7C 
 866      96FDDE7E 
 866      A67DB70E 
 866      173026A3 
 867 09b9 A414E38B 		.ascii	"\244\024\343\213\214\231\336v*\322\036\2271\346vu\324"
 867      8C99DE76 
 867      2AD21E97 
 867      31E67675 
 867      D4
 868 09ca 6A5CC17E 		.ascii	"j\\\301~\247\014\315\033q5\373\235\323_xQ\213\353\030"
 868      A70CCD1B 
 868      7135FB9D 
 868      D35F7851 
 868      8BEB18
 869 09dd 93D8752A 		.ascii	"\223\330u*L\205\033\031\323\266oz\332\001\2672\246;"
ARM GAS  C:\Users\AMANRA~1\AppData\Local\Temp\ccu0ZXx6.s 			page 70


 869      4C851B19 
 869      D3B66F7A 
 869      DA01B732 
 869      A63B
 870 09ef AAEB7F70 		.ascii	"\252\353\177p;\373]\334\272c\326\021w1&{~|\227#\356"
 870      3BFB5DDC 
 870      BA63D611 
 870      7731267B 
 870      7E7C9723 
 871 0a04 634C75C6 		.ascii	"cLu\306\2232\276\247\032 \374\324\251\207\217\354\330"
 871      9332BEA7 
 871      1A20FCD4 
 871      A9878FEC 
 871      D8
 872 0a15 86394D13 		.ascii	"\2069M\023\207\177\020\236\331\001'aW\362Y\342j\371"
 872      877F109E 
 872      D9012761 
 872      57F259E2 
 872      6AF9
 873 0a27 71A37FF9 		.ascii	"q\243\177\371\011*U\335\221\275#\312\224V\306R[\017"
 873      092A55DD 
 873      91BD23CA 
 873      9456C652 
 873      5B0F
 874 0a39 A9BDA394 		.ascii	"\251\275\243\224\034Mz\344\247\242\352u\354TD\244o\310"
 874      1C4D7AE4 
 874      A7A2EA75 
 874      EC5444A4 
 874      6FC8
 875 0a4b A5339532 		.ascii	"\2453\2252\351\262?\212\322\215r\3511\311\031\212\211"
 875      E9B23F8A 
 875      D28D72E9 
 875      31C9198A 
 875      89
 876 0a5c B7FF4914 		.ascii	"\267\377I\024\257\220\213_V\312\305\207%\332\353\254"
 876      AF908B5F 
 876      56CAC587 
 876      25DAEBAC 
 877 0a6c 23B772AA 		.ascii	"#\267r\252\352\203\341\330\253$\022\274\0139\006MB\311"
 877      EA83E1D8 
 877      AB2412BC 
 877      0B39064D 
 877      42C9
 878 0a7e 4F2B5DD1 		.ascii	"O+]\321#\240\273@\017\200\236\002=\001\032\000\032\005"
 878      23A0BB40 
 878      0F809E02 
 878      3D011A00 
 878      1A05
 879 0a90 9A021A06 		.ascii	"\232\002\032\006\032\003\232\000z\014t\013\350!\320"
 879      1A039A00 
 879      7A0C740B 
 879      E821D0
 880 0a9f 08503FD0 		.ascii	"\010P?\320m\240!\240\373@\367\200\306\201f\201\006\201"
 880      6DA021A0 
 880      FB40F780 
 880      C6816681 
 880      0681
ARM GAS  C:\Users\AMANRA~1\AppData\Local\Temp\ccu0ZXx6.s 			page 71


 881 0ab1 6694AE92 		.ascii	"f\224\256\222#\341\230\004|\255\034|\215<\220}\222\260"
 881      23E19804 
 881      7CAD1C7C 
 881      8D3C907D 
 881      92B0
 882 0ac3 B7CAA567 		.ascii	"\267\312\245g\027\004r\370\017\242x\247\\|\301I\267"
 882      170472F8 
 882      0FA278A7 
 882      5C7CC149 
 882      B7
 883 0ad4 5102A541 		.ascii	"Q\002\245A.\335\273@y\231$K\325r\361+r\344\323\022\345"
 883      2EDDBB40 
 883      7999244B 
 883      D572F12B 
 883      72E4D312 
 884 0ae9 57ADFB29 		.ascii	"W\255\373)U\336(q\364\272\365\372\222\212\217I\034\355"
 884      55DE2871 
 884      F4BAF5FA 
 884      928A8F49 
 884      1CED
 885 0afb B0EEA854 		.ascii	"\260\356\250T\274Z\002\346\232uO\245w\000$XZ\344\322"
 885      BC5A02E6 
 885      9A754FA5 
 885      77002458 
 885      5AE4D2
 886 0b0e 130B4686 		.ascii	"\023\013F\206$,U\326\303\"\205\322'A\336%\027w\227K"
 886      242C55D6 
 886      C32285D2 
 886      2741DE25 
 886      1777974B 
 887 0b22 4F4BA034 		.ascii	"OK\2404Y\037H\322a'\221n_0\216\026DeL\"\336l\335O\351"
 887      591F48D2 
 887      6127916E 
 887      5F308E16 
 887      44654C22 
 888 0b3b 9D8EBA9B 		.ascii	"\235\216\272\233\213\350Z\000b\013\357ttu,N\247w:\210"
 888      8BE85A00 
 888      620BEF74 
 888      74752C4E 
 888      A7773A88 
 889 0b4f B236EB95 		.ascii	"\2626\353\225*A\332.\211B\267\325(H\007\201$\302\245"
 889      2A41DA2E 
 889      8942B7D5 
 889      28480781 
 889      24C2A5
 890 0b62 72E11279 		.ascii	"r\341\022y\3415J\244+\255O&\3222\225\000\271i=dT\032"
 890      E1354AA4 
 890      2BAD4F26 
 890      D2329500 
 890      B9693D64 
 891 0b78 E6DA1B29 		.ascii	"\346\332\033)\251\005N\322E\\*\253@s\346E\274\253(}"
 891      A9054ED2 
 891      455C2AAB 
 891      4073E645 
 891      BCAB287D 
 892 0b8c C2091FB2 		.ascii	"\302\011\037\262'36~0\267\277[\215\334\226\270\2327"
 892      2733367E 
ARM GAS  C:\Users\AMANRA~1\AppData\Local\Temp\ccu0ZXx6.s 			page 72


 892      30B7BF5B 
 892      8DDC96B8 
 892      9A37
 893 0b9e 40495BB6 		.ascii	"@I[\266\222\015P0\266\010\243\365\373\225\363\000\011"
 893      920D5030 
 893      B608A3F5 
 893      FB95F300 
 893      09
 894 0baf 04E95C65 		.ascii	"\004\351\\e\302n(\004K\347\222\326\254\227Y\320\301"
 894      C26E2804 
 894      4BE792D6 
 894      AC9759D0 
 894      C1
 895 0bc0 362AE6A2 		.ascii	"6*\346\242V\302HV\221\020\260\214O\333\263[\277\203"
 895      56C24856 
 895      9110B08C 
 895      4FDBB35B 
 895      BF83
 896 0bd2 D93099E4 		.ascii	"\3310\231\3443&\245\273\254\213\257\341\227\010\177"
 896      3326A5BB 
 896      AC8BAFE1 
 896      97087F
 897 0be1 B63B2EDC 		.ascii	"\266;.\334\221/)\344\216\362\355'OZ5\270\224\011\347"
 897      912F29E4 
 897      8EF2ED27 
 897      4F5A35B8 
 897      9409E7
 898 0bf4 CE676DC5 		.ascii	"\316gm\305\270\2221\227\372\233\256\250q\003c\322\312"
 898      B8923197 
 898      FA9BAEA8 
 898      710363D2 
 898      CA
 899 0c05 7A5FC3BD 		.ascii	"z_\303\275\354w\301\236\"8\212\0152&b\317\275Lg\374"
 899      EC77C19E 
 899      22388A0D 
 899      322662CF 
 899      BD4C67FC 
 900 0c19 8431F9C9 		.ascii	"\2041\371\311s%*\034\3126\307\275\246\231$G\274\215"
 900      73252A1C 
 900      CA36C7BD 
 900      A6992447 
 900      BC8D
 901 0c2b 32CABD65 		.ascii	"2\312\275e\351\271J\351\031\361.=fDc\035\332\211\237"
 901      E9B94AE9 
 901      19F12E3D 
 901      6644631D 
 901      DA899F
 902 0c3e E78CB80B 		.ascii	"\347\214\270\013[;#\376<-v$\333\005-qu\\BVDG\372\303"
 902      5B3B23FE 
 902      3C2D7624 
 902      DB052D71 
 902      755C4256 
 903 0c56 95FC7683 		.ascii	"\225\374v\203\017Y&\341\357RWz\205,\221\216\216n\346"
 903      0F5926E1 
 903      EF52577A 
 903      852C918E 
 903      8E6EE6
ARM GAS  C:\Users\AMANRA~1\AppData\Local\Temp\ccu0ZXx6.s 			page 73


 904 0c69 B5922D9B 		.ascii	"\265\222-\2336\356$O#\214bxfr\300\364n\213\314\214V"
 904      36EE244F 
 904      238C6278 
 904      6672C0F4 
 904      6E8BCC8C 
 905 0c7e A99F96EF 		.ascii	"\251\237\226\357d\013l,f\367(c\254'GRPqXZP\244\037s"
 905      640B6C2C 
 905      66F72863 
 905      AC274752 
 905      5071585A 
 906 0c96 DB621DDB 		.ascii	"\333b\035\333\212\227\241-\030T\\\005\253\361\034A\015"
 906      8A97A12D 
 906      18545C05 
 906      ABF11C41 
 906      0D
 907 0ca7 FCAEC6AE 		.ascii	"\374\256\306\256\250\012\350\012P%P\005\320e\240K@\345"
 907      A80AE80A 
 907      50255005 
 907      D065A04B 
 907      40E5
 908 0cb9 406540A5 		.ascii	"@e@\245@\307\201\216\002e\001\035\001J\004J\000\332"
 908      40C7818E 
 908      0265011D 
 908      014A044A 
 908      00DA
 909 0ccb 63E1C1D8 		.ascii	"c\341\301\330Gl`\300\206p\033\304?\036[\337\035X\207"
 909      476C60C0 
 909      86701BC4 
 909      3F1E5BDF 
 909      1D5887
 910 0cde 16C67BFC 		.ascii	"\026\306{\374\377@\233\253\341wU\311\335\252>$\003\267"
 910      FF409BAB 
 910      E17755C9 
 910      DDAA3E24 
 910      03B7
 911 0cf0 70E1EAAA 		.ascii	"p\341\352\252Y\312\344\223 \242\367\255\313\313S\221"
 911      59CAE493 
 911      20A2F7AD 
 911      CBCB5391 
 912 0d00 6C910AE8 		.ascii	"l\221\012\350\250\220;k\276\255\372\0204&sg3\301\331"
 912      A8903B6B 
 912      BEADFA10 
 912      34267367 
 912      33C1D9
 913 0d13 FD00781F 		.ascii	"\375\000x\037\320^\013\3203u\352\2713&S\270\006\245"
 913      D05E0BD0 
 913      3375EAB9 
 913      332653B8 
 913      06A5
 914 0d25 F07A909A 		.ascii	"\360z\220\232\260X\263$0R-`\244<\013\306a0\375\3550"
 914      B058B324 
 914      30522D60 
 914      A43C0BC6 
 914      6130FDED 
 915 0d3a FA0E63D3 		.ascii	"\372\016c\323\301\227hm\215Z\307 L\2160\012[\023\264"
 915      C197686D 
 915      8D5AC720 
ARM GAS  C:\Users\AMANRA~1\AppData\Local\Temp\ccu0ZXx6.s 			page 74


 915      4C8E300A 
 915      5B13B4
 916 0d4d C1B408D2 		.ascii	"\301\264\010\322@\254\233\213\233Oy\356\326\213\300"
 916      40AC9B8B 
 916      9B4F79EE 
 916      D68BC0
 917 0d5c 7CFD1080 		.ascii	"|\375\020\200H\347\200\016\302\357\014\000s@>J\242."
 917      48E7800E 
 917      C2EF0C00 
 917      73403E4A 
 917      A22E
 918 0d6e 4B46C90E 		.ascii	"KF\311\016(\233\364\005\243\304\312^\316l#\234\367\260"
 918      289BF405 
 918      A3C4CA5E 
 918      CE6C239C 
 918      F7B0
 919 0d80 6DA3CF8D 		.ascii	"m\243\317\215\325\2610\012\027\352\227<\261\351:\302"
 919      D5B1300A 
 919      17EA973C 
 919      B1E93AC2 
 920 0d90 96B874CB 		.ascii	"\226\270t\313\271\231?\225\352PGe\354&S7\011G\2048)"
 920      B9993F95 
 920      EA504765 
 920      EC265337 
 920      09478438 
 921 0da5 11694168 		.ascii	"\021iAh\276N=u\222L\\\311\326T\014\306k\311}u\222\325"
 921      BE4E3D75 
 921      924C5CC9 
 921      D6540CC6 
 921      6BC97D75 
 922 0dbb 07E25DCB 		.ascii	"\007\342]\313d\332\237\301\275[\245\316\251\242\217"
 922      64DA9FC1 
 922      BD5BA5CE 
 922      A9A28F
 923 0dca 98C8ADCD 		.ascii	"\230\310\255\315qy\261\312\366\316\240rl\215\230\242"
 923      7179B1CA 
 923      F6CEA072 
 923      6C8D98A2 
 924 0dda 492E6E0E 		.ascii	"I.n\016\317\304\002\361\2625,\034\331 6%\327>!\033\327"
 924      CFC402F1 
 924      B2352C1C 
 924      D9203625 
 924      D73E211B 
 925 0def 0B26BD63 		.ascii	"\013&\275c\020bk\223\036\367n?\213^\214\215\350\315"
 925      10626B93 
 925      1EF76E3F 
 925      8B5E8C8D 
 925      E8CD
 926 0e01 4507939B 		.ascii	"E\007\223\233\030\320\177Ft>Fp\236>\013RGd\361z8\201"
 926      18D07F46 
 926      743E4670 
 926      9E3E0B52 
 926      4764F17A 
 927 0e17 97A2A772 		.ascii	"\227\242\247r\200\322\035\357nk\010\025\264\037\201"
 927      80D21DEF 
 927      6E6B0815 
 927      B41F81
ARM GAS  C:\Users\AMANRA~1\AppData\Local\Temp\ccu0ZXx6.s 			page 75


 928 0e26 5702F08A 		.ascii	"W\002\360\212\241\032.\002]\000:\017t\016\3504\320)"
 928      A11A2E02 
 928      5D003A0F 
 928      740EE834 
 928      D029
 929 0e38 A0931655 		.ascii	"\240\223\026UR\375!\013\013\011\372\034X%Zl\356G\352"
 929      52FD210B 
 929      0B09FA1C 
 929      58255A6C 
 929      EE47EA
 930 0e4b 8A25F3C9 		.ascii	"\212%\363\311\374\267I\227\275\313T\347\202\260IiSX"
 930      FCB74997 
 930      BDCB54E7 
 930      82B04969 
 930      5358
 931 0e5d 32E8CF58 		.ascii	"2\350\317X\014\372\\+\203\276\003\256\336$\375#\241"
 931      0CFA5C2B 
 931      83BE03AE 
 931      DE24FD23 
 931      A1
 932 0e6e 0ACFF084 		.ascii	"\012\317\360\204\344\203\307g\301\263<\3213\210\351"
 932      E483C767 
 932      C1B33CD1 
 932      3388E9
 933 0e7d C4907A74 		.ascii	"\304\220zt\214=,#ki\024\357`{\320\017\277H&\010a\304"
 933      8C3D2C23 
 933      6B6914EF 
 933      607BD00F 
 933      BF482608 
 934 0e93 9FB13EE2 		.ascii	"\237\261>\342y\302\267\252I9\237\301\362\015!\313e\375"
 934      79C2B7AA 
 934      49399FC1 
 934      F20D21CB 
 934      65FD
 935 0ea5 619E4B72 		.ascii	"a\236Kr\2437\330\266\353|3S\304\243Z\000\201\212z\256"
 935      A337D8B6 
 935      EB7C3353 
 935      C4A35A00 
 935      818A7AAE 
 936 0eb9 401582A4 		.ascii	"@\025\202\244\030\250\002\026(\033\353)*\202\360\210"
 936      18A80216 
 936      281BEB29 
 936      2A82F088 
 937 0ec9 4BAAB928 		.ascii	"K\252\271(\247\256\223\321J4\355\024\357o\304RU\346"
 937      A7AE93D1 
 937      4A34ED14 
 937      EF6FC452 
 937      55E6
 938 0edb 49AAB092 		.ascii	"I\252\260\222;\002\213\341\256g\372A\202R\300W'\342"
 938      3B028BE1 
 938      AE67FA41 
 938      8252C057 
 938      27E2
 939 0eed 75F4B749 		.ascii	"u\364\267I\017\277\303\252\203\010\307\330\026fp\237"
 939      0FBFC3AA 
 939      8308C7D8 
 939      1666709F 
ARM GAS  C:\Users\AMANRA~1\AppData\Local\Temp\ccu0ZXx6.s 			page 76


 940 0efd 9CA38FE5 		.ascii	"\234\243\217\345@\306\312\243\306\343\213CCM\211+\351"
 940      40C6CAA3 
 940      C6E38B43 
 940      434D892B 
 940      E9
 941 0f0e 8DD9DD4A 		.ascii	"\215\331\335J6p\370=)6lj\244\007\305\327\022M%\301\230"
 941      3670F83D 
 941      29366C6A 
 941      A407C5D7 
 941      124D25C1 
 942 0f23 DE5BDD67 		.ascii	"\336[\335gMx\265\344\200\303e\311=\324tk\262\322G\255"
 942      4D78B5E4 
 942      80C365C9 
 942      3DD4746B 
 942      B2D247AD 
 943 0f37 393C89B9 		.ascii	"9<\211\271\260#=\254\224\015\337\205\347\270\366\237"
 943      B0233DAC 
 943      940DDF85 
 943      E7B8F69F 
 944 0f47 32F70B41 		.ascii	"2\367\013A\374\214uq\351A\340\237\305\271\274H.\275"
 944      FC8C7571 
 944      E941E09F 
 944      C5B9BC48 
 944      2EBD
 945 0f59 F07CD32E 		.ascii	"\360|\323.\021\277`]\\\222\211\272\243<od\023}Q.\276"
 945      11BF605D 
 945      5C9289BA 
 945      A33C6F64 
 945      137D512E 
 946 0f6e F04C59C6 		.ascii	"\360LY\306\265\223MH\250|\207\264`TM\377\304r%\215\177"
 946      B5934D48 
 946      A87C87B4 
 946      60544DFF 
 946      C472258D 
 947 0f83 D6B87A92 		.ascii	"\326\270z\222\305&\322x\033\023\351\310#R\263\244\272"
 947      C526D278 
 947      1B13E9C8 
 947      2352B3A4 
 947      BA
 948 0f94 B78BAB50 		.ascii	"\267\213\253P<\346Og\233\302{\242"
 948      3CE64F67 
 948      9BC27BA2 
 949 0fa0 1C70BE03 		.ascii	"\034p\276\003\335V\027O\216\267h\345O\204\315\323G="
 949      DD56174F 
 949      8EB768E5 
 949      4F84CDD3 
 949      473D
 950 0fb2 8C095BD3 		.ascii	"\214\011[\323G\2460}Ln%7\220\353@\254V\264vF\260v\356"
 950      47A6307D 
 950      4C6E2537 
 950      90EB40AC 
 950      56B47646 
 951 0fc9 C2BD55EC 		.ascii	"\302\275U\354\364\260\214\354\374;\037\226\360\327\016"
 951      F4B08CEC 
 951      FC3B1F96 
 951      F0D70E
 952 0fd8 7AC83394 		.ascii	"z\3103\224\230\341\326\036\015.\247XTeq1+\021\331f["
ARM GAS  C:\Users\AMANRA~1\AppData\Local\Temp\ccu0ZXx6.s 			page 77


 952      98E1D61E 
 952      0D2EA758 
 952      54657131 
 952      2B11D966 
 953 0fed 80B9069B 		.ascii	"\200\271\006\233\306\006L\"\320\304\221\264\002\222"
 953      C6064C22 
 953      D0C491B4 
 953      0292
 954 0ffb 1640D26C 		.ascii	"\026@\322l9"
 954      39
 955 1000 919D5B9E 		.ascii	"\221\235[\236<\026F'2\362\270\271\021\260\220\016\346"
 955      3C164627 
 955      32F2B8B9 
 955      11B0900E 
 955      E6
 956 1011 FD8F2C43 		.ascii	"\375\217,Cdi\374\036\2139\201\336\211\230\270\331uy"
 956      6469FC1E 
 956      8B3981DE 
 956      8998B8D9 
 956      7579
 957 1023 CCEF27B1 		.ascii	"\314\357'\261\347\370MX\376\266F\336\356\301f\027|\205"
 957      E7F84D58 
 957      FEB646DE 
 957      EEC16617 
 957      7C85
 958 1035 C5B3B6FE 		.ascii	"\305\263\266\376Q\266\263<\236\202\013\350\006 \267"
 958      51B6B33C 
 958      9E820BE8 
 958      0620B7
 959 1044 E5053F44 		.ascii	"\345\005?D'\263'\353 \324&F\263I\210\346h\356\305\015"
 959      27B327EB 
 959      20D42646 
 959      B34988E6 
 959      68EEC50D 
 960 1058 160FD62D 		.ascii	"\026\017\326-\226\202v\314\037\254c\362$=w\260\265\305"
 960      968276CC 
 960      1FAC63F2 
 960      243D77B0 
 960      B5C5
 961 106a 452A5C67 		.ascii	"E*\\g!|\223\013\337\244\302O\252\022\262\235p\027s\""
 961      217C930B 
 961      DFA4C24F 
 961      AA12B29D 
 961      70177322 
 962 107e 79AAA8DC 		.ascii	"y\252\250\334\346\243\350.l\353\201\353\355\247\352"
 962      E6A3E82E 
 962      6CEB81EB 
 962      EDA7EA
 963 108d 2976F3BE 		.ascii	")v\363\276\023V\222\016,{\354JZI\011\224^(v\350\206"
 963      1356920E 
 963      2C7BEC4A 
 963      5A490994 
 963      5E2876E8 
 964 10a2 80931754 		.ascii	"\200\223\027T\026Q\327\021b\177\341\233\020\345\347"
 964      1651D711 
 964      627FE19B 
 964      10E5E7
ARM GAS  C:\Users\AMANRA~1\AppData\Local\Temp\ccu0ZXx6.s 			page 78


 965 10b1 850F62ED 		.ascii	"\205\017b\355\320\252d_\\\2240B\027dnQr\035JA/\375\307"
 965      D0AA645F 
 965      5C943042 
 965      17646E51 
 965      721D4A41 
 966 10c8 1520A956 		.ascii	"\025 \251Vv\235\231\023>\012&\317\360\210\375X\223R"
 966      769D9913 
 966      3E0A26CF 
 966      F088FD58 
 966      9352
 967 10da 3426E9B2 		.ascii	"4&\351\262\000\253\302|\331\014Jt\022\361\232\3518\361"
 967      00ABC27C 
 967      D90C4A74 
 967      12F19AE9 
 967      38F1
 968 10ec E08ABA07 		.ascii	"\340\212\272\007F\270\002}\342\254\210\266\363cO\233"
 968      46B8027D 
 968      E2AC88B6 
 968      F3634F9B 
 969 10fc 67DB5B31 		.ascii	"g\333[1\216wd\007\346\316k\251j\372\026O;r\344o\366"
 969      8E776407 
 969      E6CE6BA9 
 969      6AFA164F 
 969      3B72E46F 
 970 1111 0C0C866C 		.ascii	"\014\014\206l\321\332|M\247\037\223\327t\3720\177M\347"
 970      D1DA7C4D 
 970      A71F93D7 
 970      74FA307F 
 970      4DE7
 971 1123 EC99FA57 		.ascii	"\354\231\372W_I3\225\364\230J\332\242\264\341\267\206"
 971      5F493395 
 971      F4984ADA 
 971      A2B4E1B7 
 971      86
 972 1134 4CC13A0D 		.ascii	"L\301:\015\021B\275bj\340'\374\355\301=\010u\343n\200"
 972      1142BD62 
 972      6AE027FC 
 972      EDC13D08 
 972      75E36E80 
 973 1148 33805F21 		.ascii	"3\200_!7\310\343\217\274\212\333\030\220Ke]\025\316"
 973      37C8E38F 
 973      BC8ADB18 
 973      904B655D 
 973      15CE
 974 115a 1448BD19 		.ascii	"\024H\275\031\310\301\214\203u\032\341\255\243A\314"
 974      C8C18C83 
 974      751AE1AD 
 974      A341CC
 975 1169 DAF6DD9E 		.ascii	"\332\366\335\236\2617\277vt\2335\206\337\016\036\300"
 975      B137BF76 
 975      749B3586 
 975      DF0E1EC0 
 976 1179 662FEEB0 		.ascii	"f/\356\260\306\275\023\305\177\224z\361\351\213\022"
 976      C6BD13C5 
 976      7F947AF1 
 976      E98B12
 977 1188 2F86A917 		.ascii	"/\206\251\027C\202\027\247\373\032\316\331\201\033="
ARM GAS  C:\Users\AMANRA~1\AppData\Local\Temp\ccu0ZXx6.s 			page 79


 977      438217A7 
 977      FB1ACED9 
 977      811B3D
 978 1197 3D640C3A 		.ascii	"=d\014:\302\234\032b2\005+\211\030\272%\372qK\356\307"
 978      C29C1A62 
 978      32052B89 
 978      18BA25FA 
 978      714BEEC7 
 979 11ab 5DEAC7A3 		.ascii	"]\352\307\243\203\211\227tx\2249\2222\020\265Sm\006"
 979      83899774 
 979      78943992 
 979      3210B553 
 979      6D06
 980 11bd C81C293F 		.ascii	"\310\034)?6S\302\360A(\3571x\265\017b\313Tf\314\367"
 980      3653C2F0 
 980      4128EF31 
 980      78B50F62 
 980      CB5466CC 
 981 11d2 5963CEBE 		.ascii	"Yc\316\276\350\317mb~@1\217\012\230k#K\334\001r\032"
 981      E8CF6D62 
 981      7E40318F 
 981      0A986B23 
 981      4BDC0172 
 982 11e7 406EFC21 		.ascii	"@n\374!C\0143$\010\241\021\021\361\210\034\361C\212"
 982      430C3324 
 982      08A11111 
 982      F1881CF1 
 982      438A
 983 11f9 B8BFADEF 		.ascii	"\270\277\255\357\216\023\236\377{k\340\021E2. \031<"
 983      8E139EFF 
 983      7B6BE011 
 983      45322E20 
 983      193C
 984 120b D09961CF 		.ascii	"\320\231a\317\243Ww\304\331\034=\020Cc\"\22619\226\307"
 984      A35777C4 
 984      D91C3D10 
 984      43632296 
 984      313996C7 
 985 121f 144BE9E3 		.ascii	"\024K\351\343\360(\035\216tb\217V\216v\216h\271W\325"
 985      F0281D8E 
 985      74628F56 
 985      8E768E68 
 985      B957D5
 986 1232 3F337B45 		.ascii	"?3{E4=\0215=\221k\232\240\232\036\026d\216c\234\350"
 986      343D1135 
 986      3D916B9A 
 986      A09A1E16 
 986      648E639C 
 987 1247 247B654D 		.ascii	"${eM/8u(\256\354\241\030\362)^;Y\241Q\3666c>C=\235\026"
 987      2F387528 
 987      AEECA118 
 987      F2295E3B 
 987      59A151F6 
 988 1262 3C4DBBD3 		.ascii	"<M\273\323\177\027qO\347\216\213u\002bhR\3047)\3077"
 988      7F17714F 
 988      E78E8B75 
 988      02626852 
ARM GAS  C:\Users\AMANRA~1\AppData\Local\Temp\ccu0ZXx6.s 			page 80


 988      C43729C7 
 989 1277 4BF1C566 		.ascii	"K\361\305f\025G\252\360A\206o\317\205*@\315TM\277c\241"
 989      1547AAF0 
 989      41866FCF 
 989      852A40CD 
 989      544DBF63 
 990 128c E9A9A8E9 		.ascii	"\351\251\250\351\251\\\323\034\325\324\267/s\336\001"
 990      A95CD31C 
 990      D5D4B72F 
 990      73DE01
 991 129b 9F907B6A 		.ascii	"\237\220{j\343\345<\223\2126^\330\325\245g\336\303V"
 991      E3E53C93 
 991      8A365ED8 
 991      D5A567DE 
 991      C356
 992 12ad 2498B5CD 		.ascii	"$\230\265\315\317\206\017*mz\037\252\"\336\207\250\270"
 992      CF860F2A 
 992      6D7A1FAA 
 992      22DE87A8 
 992      B8
 993 12be F717EFC5 		.ascii	"\367\027\357\305\236u\342\220\033\177nN\016H\241y\021"
 993      9E75E290 
 993      1B7F6E4E 
 993      0E48A179 
 993      11
 994 12cf F2BC1C72 		.ascii	"\362\274\034r\230\212@n\036\3357\243\303uN\3177H\266"
 994      988A406E 
 994      1EDD37A3 
 994      C3754ECF 
 994      3748B6
 995 12e2 327819DD 		.ascii	"2x\031\335\203=*3\346m\254\361\\H\314\270\332&\346p"
 995      833D2A33 
 995      E66DACF1 
 995      5C48CCB8 
 995      DA26E670 
 996 12f6 8A79BB80 		.ascii	"\212y\273\200y\346i\314C\255\020\346w\315\230A\012m"
 996      79E669CC 
 996      43AD10E6 
 996      77CD9841 
 996      0A6D
 997 1308 519931C3 		.ascii	"Q\2311\303OK\314;(\346\362\372\355yj|\213a>X\2279\353"
 997      4F4BCC3B 
 997      28E6F2FA 
 997      ED796A7C 
 997      8B613E58 
 998 131f 42B19085 		.ascii	"B\261\220\205\207a\276\224p\375Wfx\221\014^s\346D\243"
 998      8761BE94 
 998      70FD5766 
 998      78910C5E 
 998      73E644A3 
 999 1333 C6E6D0D9 		.ascii	"\306\346\320\331I\341E\011\360z\342R\037:px]\325\316"
 999      49E14509 
 999      F07AE252 
 999      1F3A7078 
 999      5DD5CE
 1000 1346 667C2086 		.ascii	"f| \206\"D|\021r|\273(\276\307\267\232\217\253\260\311"
 1000      22447C11 
ARM GAS  C:\Users\AMANRA~1\AppData\Local\Temp\ccu0ZXx6.s 			page 81


 1000      727CBB28 
 1000      BEC7B79A 
 1000      8FABB0C9 
 1001 135a 99E28B3A 		.ascii	"\231\342\213:r\274CP5\366\261\205\246hQS\264\\S\014"
 1001      72BC4350 
 1001      35F6B185 
 1001      A6685153 
 1001      B45C530C 
 1002 136e D5343830 		.ascii	"\3254803c\207\223\235m\015\235\341\264\364\253.fOc\231"
 1002      33638793 
 1002      9D6D0D9D 
 1002      E1B4F4AB 
 1002      2E664F63 
 1003 1383 A7E74D39 		.ascii	"\247\347M9\375\0166\023\261\207z\032'x\332v\272\253"
 1003      FD0E3613 
 1003      B1877A1A 
 1003      2778DA76 
 1003      BAAB
 1004 1395 C7459862 		.ascii	"\307E\230b\257\213C\007\304\320n\021\337n9\276x\212"
 1004      AF8B4307 
 1004      C4D06E11 
 1004      DF6E39BE 
 1004      788A
 1005 13a7 AF636E24 		.ascii	"\257cn$\307\036\3470|\363\247\257t\261J\2116gb_\\[1"
 1005      C71EE730 
 1005      7CF3A7AF 
 1005      74B14A89 
 1005      3667625F 
 1006 13be 5B3F60AB 		.ascii	"[?`\253\201\022\031\300\246S\351s\266\001&S\200I\002"
 1006      811219C0 
 1006      A653E973 
 1006      B6012653 
 1006      804902
 1007 13d1 C043BDD5 		.ascii	"\300C\275\325\223*\002\220m8\013C\267F\231\016 *\206"
 1007      932A0290 
 1007      6D380B43 
 1007      B746990E 
 1007      202A86
 1008 13e4 12448009 		.ascii	"\022D\200\011*\366\350\036\355\245\300\016\306\315\376"
 1008      2AF6E81E 
 1008      EDA5C00E 
 1008      C6CDFE
 1009 13f3 1A17315C 		.ascii	"\032\0271\\9\221\363q\266\0133\225\232\363\027\254\325"
 1009      3991F371 
 1009      B60B3395 
 1009      9AF317AC 
 1009      D5
 1010 1404 E4E76AB8 		.ascii	"\344\347j\270\265\273U\352\343\365[K~CeP\212h+E\260"
 1010      B5BB55EA 
 1010      E3F55B4B 
 1010      7E436550 
 1010      8A682B45 
 1011 1419 B58FDA4A 		.ascii	"\265\217\332J\230\030\014v\306\265\314XH\177J\214\275"
 1011      98180C76 
 1011      C6B5CC58 
 1011      487F4A8C 
 1011      BD
ARM GAS  C:\Users\AMANRA~1\AppData\Local\Temp\ccu0ZXx6.s 			page 82


 1012 142a D9611684 		.ascii	"\331a\026\204\210\253\345a\310&\200\003\024@\232\340"
 1012      88ABE561 
 1012      C8268003 
 1012      14409AE0 
 1013 143a EFA5BCE8 		.ascii	"\357\245\274\350{.\034\301\370\220\272\246\234\"\000"
 1013      7B2E1CC1 
 1013      F890BAA6 
 1013      9C2200
 1014 1449 21B45F44 		.ascii	"!\264_D\260_@\220N\021\0145V\376\005\267;\333\034\017"
 1014      B05F4090 
 1014      4E110C35 
 1014      56FE05B7 
 1014      3BDB1C0F 
 1015 145d A1D13B8A 		.ascii	"\241\321;\212\325fP\007Y\026v\334\035\315\262x\355\227"
 1015      D5665007 
 1015      591676DC 
 1015      1DCDB278 
 1015      ED97
 1016 146f 1C334558 		.ascii	"\0343EX\231\024\326!\001\326\236\242\221z\314a\325\245"
 1016      9914D621 
 1016      01D69EA2 
 1016      917ACC61 
 1016      D5A5
 1017 1481 2C3E109A 		.ascii	",>\020\232\346FDP\206\010*C\000u\230\202\272\177?e\237"
 1017      E6464450 
 1017      86082A43 
 1017      00759882 
 1017      BA7F3F65 
 1018 1496 131E61A8 		.ascii	"\023\036a\2502\206\317\227\363g\323N\244n\322\343\016"
 1018      3286CF97 
 1018      F367D34E 
 1018      A46ED2E3 
 1018      0E
 1019 14a7 A9D851E0 		.ascii	"\251\330Q\340\016\271|\240v<^\207\247\231\354`A\334"
 1019      0EB97CA0 
 1019      763C5E87 
 1019      A799EC60 
 1019      41DC
 1020 14b9 259D4EBC 		.ascii	"%\235N\274\217O:\211[\327\034\025y\177\302\235\355\324"
 1020      8F4F3A89 
 1020      5BD71C15 
 1020      797FC29D 
 1020      EDD4
 1021 14cb C9CB02A6 		.ascii	"\311\313\002\246\206Q\365\342h\276\345~\017\321\027"
 1021      8651F5E2 
 1021      68BEE57E 
 1021      0FD117
 1022 14da 398EAA96 		.ascii	"9\216\252\226\241,\025\021?\246Z,t\2425\232\220\362"
 1022      A12C1511 
 1022      3FA65A2C 
 1022      74A2359A 
 1022      90F2
 1023 14ec 502B952E 		.ascii	"P+\225.x\226tf\355\231\375.?\31205\224\320mT\324\255"
 1023      78967466 
 1023      ED99FD2E 
 1023      3FCA3035 
 1023      94D06D54 
ARM GAS  C:\Users\AMANRA~1\AppData\Local\Temp\ccu0ZXx6.s 			page 83


 1024 1502 3053F056 		.ascii	"0S\360V8\007\034W-F\331\3408\254\224\222\316G\240\345"
 1024      38071C57 
 1024      2D46D9E0 
 1024      38AC9492 
 1024      CE47A0E5 
 1025 1516 4F4A053A 		.ascii	"OJ\005:\241\372\021\364\215\2776\266\337\001\207\272"
 1025      A1FA11F4 
 1025      8DBF36B6 
 1025      DF0187BA 
 1026 1526 50974E16 		.ascii	"P\227N\026\205\335\343o\336\227\220\243\317x\302\226"
 1026      85DDE36F 
 1026      DE9790A3 
 1026      CF78C296 
 1027 1536 703B168E 		.ascii	"p;\026\216\357\022\367O\334\037\261\263\351q\256\340"
 1027      EF12F74F 
 1027      DC1FB1B3 
 1027      E971AEE0 
 1028 1546 F16915F5 		.ascii	"\361i\025\365x\"\362X\213\263\334\343S\000\203\037\241"
 1028      7822F258 
 1028      8BB3DCE3 
 1028      5300831F 
 1028      A1
 1029 1557 A90FB982 		.ascii	"\251\017\271\202\017;\236^iEr\217mJ\037.\274;\343\304"
 1029      0F3B9E5E 
 1029      6945728F 
 1029      6D4A1F2E 
 1029      BC3BE3C4 
 1030 156b 3D2EFB7E 		.ascii	"=.\373~pZI\360r\224\307\275\205]\225\244\343I\356\355"
 1030      705A49F0 
 1030      7294C7BD 
 1030      855D95A4 
 1030      E349EEED 
 1031 157f 59EA6DCC 		.ascii	"Y\352m\314\203\261X\215M\017\362\005\017V\2627\315\012"
 1031      83B1588D 
 1031      4D0FF205 
 1031      0F56B237 
 1031      CD0A
 1032 1591 EFCFA8E4 		.ascii	"\357\317\250\344\016\210\225w\216B\242}(C\366=3\307"
 1032      0E889577 
 1032      8E42A27D 
 1032      2843F63D 
 1032      33C7
 1033 15a3 0AF80B97 		.ascii	"\012\370\013\227\032\362\016\304\325\260\"\007\233\326"
 1033      1AF20EC4 
 1033      D5B02207 
 1033      9BD6
 1034 15b1 0A046BE7 		.ascii	"\012\004k\347Y\274\036\355\3302\301_\032!oV\012\257"
 1034      59BC1EED 
 1034      D832C15F 
 1034      1A216F56 
 1034      0AAF
 1035 15c3 062F65AF 		.ascii	"\006/e\257\006g\367\305\325 9\230\"p\263\220&\365\002"
 1035      0667F7C5 
 1035      D5203998 
 1035      2270B390 
 1035      26F502
 1036 15d6 0553C0C0 		.ascii	"\005S\300\300\\\240`r&{r-\236\365\221\027\315E\363\027"
ARM GAS  C:\Users\AMANRA~1\AppData\Local\Temp\ccu0ZXx6.s 			page 84


 1036      5CA06072 
 1036      267B722D 
 1036      9EF59117 
 1036      CD45F317 
 1037 15ea 55EC6C05 		.ascii	"U\354l\005\337\344\245\216;\307\235p\014\253\202\222"
 1037      DFE4A58E 
 1037      3BC79D70 
 1037      0CAB8292 
 1038 15fa D627950E 		.ascii	"\326'\225\016|W>q\316\255\340\372\035\223\011\324\204"
 1038      7C573E71 
 1038      CEADE0FA 
 1038      1D9309D4 
 1038      84
 1039 160b 2115DD5F 		.ascii	"!\025\335_\024\213C\251X>\335\226\320!\325p\2770\322"
 1039      148B43A9 
 1039      583EDD96 
 1039      D021D570 
 1039      BF30D2
 1040 161e 01EF65DA 		.ascii	"\001\357e\332JK\343\242\354\271\266\231\021mg\315VS"
 1040      4A4BE3A2 
 1040      ECB9B699 
 1040      116D67CD 
 1040      5653
 1041 1630 03C4E343 		.ascii	"\003\304\343C6]\225\212\312J\345\312\312\250\262\236"
 1041      365D958A 
 1041      CA4AE5CA 
 1041      CAA8B29E 
 1042 1640 FDB7639D 		.ascii	"\375\267c\235p\003S\326\226Yt\032se\343\251\352\341"
 1042      700353D6 
 1042      9659741A 
 1042      7365E3A9 
 1042      EAE1
 1043 1652 5C111AD1 		.ascii	"\\\021\032\321V.j+\227k\273D\265\265\015\226y\343\016"
 1043      562E6A2B 
 1043      976BBB44 
 1043      B5B50D96 
 1043      79E30E
 1044 1665 A6ECE8B1 		.ascii	"\246\354\350\261}'\235\3610c\"\312\312S\310i\001U\320"
 1044      7D279DF1 
 1044      306322CA 
 1044      CA53C869 
 1044      0155D0
 1045 1678 E9015A2A 		.ascii	"\351\001Z*\217\344\225\":\033\015\231w\031\011M\351"
 1045      8FE49522 
 1045      3A1B0D99 
 1045      7719094D 
 1045      E9
 1046 1689 054E36A7 		.ascii	"\005N6\247\310*:\027]\021\346\242\253\373\232O\2508"
 1046      C82A3A17 
 1046      5D11E6A2 
 1046      ABFB9A4F 
 1046      A838
 1047 169b D8CA79ED 		.ascii	"\330\312y\355\315Qr\007.\330\364\336\025%\221D\227\005"
 1047      CD517207 
 1047      2ED8F4DE 
 1047      15259144 
 1047      9705
ARM GAS  C:\Users\AMANRA~1\AppData\Local\Temp\ccu0ZXx6.s 			page 85


 1048 16ad B0A852A5 		.ascii	"\260\250R\245\"\234%\336j\2127r\313\321`-.ZD16\244_"
 1048      229C25DE 
 1048      6A8A3772 
 1048      CBD1602D 
 1048      2E5A4431 
 1049 16c4 EE75E20A 		.ascii	"\356u\342\012\347G\264U\021\021L\341\207\324\371\032"
 1049      E747B455 
 1049      11114CE1 
 1049      87D4F91A 
 1050 16d4 D1F91AB9 		.ascii	"\321\371\032\271\262\253TY\346\304d\2043\256`\312\206"
 1050      B2AB5459 
 1050      E6C46484 
 1050      33AE60CA 
 1050      86
 1051 16e5 F68DE539 		.ascii	"\366\215\3459\210\241,\220\205\262V\324V+\327VG\265"
 1051      88A12C90 
 1051      85B256D4 
 1051      562BD756 
 1051      47B5
 1052 16f7 158FDF30 		.ascii	"\025\217\3370\251q\003\323v|\354\321q\015+^\362\242"
 1052      A97103D3 
 1052      767CECD1 
 1052      710D2B5E 
 1052      F2A2
 1053 1709 7A4C67E9 		.ascii	"zLg\351\264\223\315\312\277&T~\003\253\374\220\320k"
 1053      B493CDCA 
 1053      BF26547E 
 1053      03ABFC90 
 1053      D06B
 1054 171b A717CC14 		.ascii	"\247\027\314\024\342\377 h\244\265}M\030\373\247&\347"
 1054      E2FF2068 
 1054      A4B57D4D 
 1054      18FBA726 
 1054      E7
 1055 172c C7D5F299 		.ascii	"\307\325\362\231\302\246t\364pF\274dn\354\350\347sc"
 1055      C2A674F4 
 1055      7046BC64 
 1055      6EECE8E7 
 1055      7363
 1056 173e 139F2DE0 		.ascii	"\023\237-\340D#\351\\\317g\213f:[\354\310{\324l\361"
 1056      4423E95C 
 1056      CF678B66 
 1056      3A5BECC8 
 1056      7BD46CF1 
 1057 1752 CA1B3998 		.ascii	"\312\0339\230\212n\264\360\021\324BGP\372\305\247a\032"
 1057      8A6EB4F0 
 1057      11D44247 
 1057      50FAC5A7 
 1057      611A
 1058 1764 DCC5C2D1 		.ascii	"\334\305\302\321v#\354<\377\017\003\016da\313\271xV"
 1058      7623EC3C 
 1058      FF0F030E 
 1058      6461CBB9 
 1058      7856
 1059 1776 6D331CD7 		.ascii	"m3\034\327\205p\264\261p\334\037\311\314^\260T\0107"
 1059      8570B4B1 
 1059      70DC1FC9 
ARM GAS  C:\Users\AMANRA~1\AppData\Local\Temp\ccu0ZXx6.s 			page 86


 1059      CC5EB054 
 1059      0837
 1060 1788 7D14E806 		.ascii	"}\024\350\006u\360\272\340\340\331\212\244\307:y8lJ"
 1060      75F0BAE0 
 1060      E0D98AA4 
 1060      C73A7938 
 1060      6C4A
 1061 179a C79F389C 		.ascii	"\307\2378\234%\204\243\335\235M\234\355<\024p\314\220"
 1061      2584A3DD 
 1061      9D4D9CED 
 1061      3C1470CC 
 1061      90
 1062 17ab 746CE5A1 		.ascii	"tl\345\241\270IC\321\322\333:e/\015\005\331\327\210"
 1062      B84943D1 
 1062      D2DB3A65 
 1062      2F0D05D9 
 1062      D788
 1063 17bd 2E74F050 		.ascii	".t\360Pt\260PLfl\267\270\253s\300B\270\223\013"
 1063      74B0504C 
 1063      666CB7B8 
 1063      AB73C042 
 1063      B8930B
 1064 17d0 7752E1FD 		.ascii	"wR\341\375\2633I\316R\341T\013\341..\334E\205g\302."
 1064      B33349CE 
 1064      52E1540B 
 1064      E12E2EDC 
 1064      458567C2 
 1065 17e5 CF3BE211 		.ascii	"\317;\342\021\026\344\007U]E:\363<\365\263\353\222y"
 1065      16E40755 
 1065      5D453AF3 
 1065      3CF5B3EB 
 1065      9279
 1066 17f7 8A6C0BBB 		.ascii	"\212l\013\273\305\012\356\226Wp\017\255\340\312\355"
 1066      C50AEE96 
 1066      57700FAD 
 1066      E0CAED
 1067 1806 75B794F8 		.ascii	"u\267\224\370)\323Vx\266,I\030\255\303\377\3116\230"
 1067      29D35678 
 1067      B62C4918 
 1067      ADC3FFC9 
 1067      3698
 1068 1818 07D806B3 		.ascii	"\007\330\006\263W\324\324+\327\324G5\0256&\234\327\341"
 1068      57D4D42B 
 1068      D7D44735 
 1068      1536269C 
 1068      D7E1
 1069 182a E817A8A6 		.ascii	"\350\027\250\246\244\360p\276i8G\026\321\307S;\356\363"
 1069      A4F070BE 
 1069      69384716 
 1069      D1C7533B 
 1069      EEF3
 1070 183c 97135E04 		.ascii	"\227\023^\004\266\365vs\025\266Y\013\203B-\334b\265"
 1070      B6F57673 
 1070      15B6590B 
 1070      83422DDC 
 1070      62B5
 1071 184e 70E0F49E 		.ascii	"p\340\364\236\313\013\326\240\001\025[d\025\3506\315"
ARM GAS  C:\Users\AMANRA~1\AppData\Local\Temp\ccu0ZXx6.s 			page 87


 1071      CB0BD6A0 
 1071      01155B64 
 1071      15E836CD 
 1072 185e EEA090DD 		.ascii	"\356\240\220\335\366\226\271J,\257\005\233\322\327\243"
 1072      F696B94A 
 1072      2CAF059B 
 1072      D2D7A3
 1073 186d 1E9CD68A 		.ascii	"\036\234\326\212Cc\3526\037\032wx=\300)F\322\271\237"
 1073      4363EA36 
 1073      1F1A7778 
 1073      3DC02946 
 1073      D2B99F
 1074 1880 D7C310AD 		.ascii	"\327\303\020\255\207\274\264\333\003\026\377\277*\323"
 1074      87BCB4DB 
 1074      0316FFBF 
 1074      2AD3
 1075 188e 226BC33C 		.ascii	"\"k\303<k\3034k\325\315\205yH*\274\323B\370.\027&\337"
 1075      6BC3346B 
 1075      D5CD8579 
 1075      482ABCD3 
 1075      42F82E17 
 1076 18a4 6A4F5F9F 		.ascii	"jO_\237\365\376\016\001\237}a\3602\352\203|\376b\370"
 1076      F5FE0E01 
 1076      9F7D61F0 
 1076      32EA837C 
 1076      FE62F8
 1077 18b7 E98A15EE 		.ascii	"\351\212\025\356\360\317k\203\317g>\001A\036\357x\254"
 1077      F0CF6B83 
 1077      CF673E01 
 1077      411EEF78 
 1077      AC
 1078 18c8 740F0882 		.ascii	"t\017\010\202\177\276>\237\271\007\005z\301\005?\203"
 1078      7FBE3E9F 
 1078      B907057A 
 1078      C1053F83 
 1079 18d8 DFC68000 		.ascii	"\337\306\200\000\337\240\025^v\277\374\365\357\227\177"
 1079      DFA0155E 
 1079      76BFFCF5 
 1079      EF977F
 1080 18e7 E0E1A1D0 		.ascii	"\340\341\241\320\220\236z\243\267\327\277\254\243\035"
 1080      909E7AA3 
 1080      B7D7BFAC 
 1080      A31D
 1081 18f5 838C9BBC 		.ascii	"\203\214\233\274}\002\326\031\211\330\272\365\376\233"
 1081      7D02D619 
 1081      89D8BAF5 
 1081      FE9B
 1082 1903 96D35FCB 		.ascii	"\226\323_\313=\003\375\226\033\374>3x{\033\274\327\275"
 1082      3D03FD96 
 1082      1BFC3E33 
 1082      787B1BBC 
 1082      D7BD
 1083 1915 B562E5F2 		.ascii	"\265b\345\362U+=\336\372\363\353\353@\367\272\365^^"
 1083      552B3DDE 
 1083      FAF3EBEB 
 1083      40F7BAF5 
 1083      5E5E
ARM GAS  C:\Users\AMANRA~1\AppData\Local\Temp\ccu0ZXx6.s 			page 88


 1084 1927 EBE0FA6B 		.ascii	"\353\340\372k\376\001\376\206\327\014\236\237\371\200"
 1084      FE01FE86 
 1084      D70C9E9F 
 1084      F980
 1085 1935 C0AA151E 		.ascii	"\300\252\025\036\353|\374\275|7y\033\326\005\031\241"
 1085      EB7CFCBD 
 1085      7C37791B 
 1085      D60519A1 
 1086 1945 D7E72B36 		.ascii	"\327\347+6(T\376\206o\214\016\004\201~\203\301\323\333"
 1086      2854FE86 
 1086      6F8C0E04 
 1086      817E83C1 
 1086      D3DB
 1087 1957 10B8F219 		.ascii	"\020\270\362\031\210yo)\352\015\012\273\215\201\001"
 1087      88796F29 
 1087      EA0D0ABB 
 1087      8D8101
 1088 1966 5FF9404F 		.ascii	"_\371@OGh\\o0~\276\311\337Kot\177^5^\001\201\006\320"
 1088      47685C6F 
 1088      307EBEC9 
 1088      DF4B6F74 
 1088      7F5E355E 
 1089 197e E2043F03 		.ascii	"\342\004?\003\0027\353)\022#\0162\370\251\377\274\311"
 1089      0237EB29 
 1089      12230E32 
 1089      F8A9FFBC 
 1089      C9
 1090 198f B0C96017 		.ascii	"\260\311`\027h\360\364\335\030\350\023\240\323\3537"
 1090      68F0F4DD 
 1090      18E813A0 
 1090      D3EB37
 1091 199e F9F81B57 		.ascii	"\371\370\033W\257\322\033?\377;\003c\031\020!\024~\236"
 1091      AFD21B3F 
 1091      FF3B0363 
 1091      19102114 
 1091      7E9E
 1092 19b0 A0CBDFB0 		.ascii	"\240\313\337\260N\017\001\361\334\344k\324\0337o4P\307"
 1092      4E0F01F1 
 1092      DCE46BD4 
 1092      1B376F34 
 1092      50C7
 1093 19c2 047B7FF8 		.ascii	"\004{\177\370?\265\027\2649h\235\036\342\017\312\301"
 1093      3FB517B4 
 1093      39689D1E 
 1093      E20FCAC1 
 1094 19d2 88D6489C 		.ascii	"\210\326H\234\323\033\337\267\032/\257\000?\277\000"
 1094      D31BDFB7 
 1094      1A2FAF00 
 1094      3FBF00
 1095 19e1 7FF78D01 		.ascii	"\177\367\215\001\201\306 \367\367\177\373\361\007\037"
 1095      81C620F7 
 1095      F77FFBF1 
 1095      071F
 1096 19ef 7F43DA36 		.ascii	"\177C\3326\372\370\032\002\203\334\177\371\301\007\320"
 1096      FAF81A02 
 1096      83DC7FF9 
 1096      C107D0
ARM GAS  C:\Users\AMANRA~1\AppData\Local\Temp\ccu0ZXx6.s 			page 89


 1097 19fe 4180ABF5 		.ascii	"A\200\253\3653~\343\013\020\325\001_\373\033\002\265"
 1097      337EE30B 
 1097      10D5015F 
 1097      FB1B02B5 
 1098 1a0e 7E9B8C86 		.ascii	"~\233\214\206o\364F;\257\015z\372\323\316\260\321\340"
 1098      6FF4463B 
 1098      AF0D7AFA 
 1098      D3CEB0D1 
 1098      E0
 1099 1a1f 0F46D73B 		.ascii	"\017F\327;\030\2762\370\033\375<\203\276\204\253~A\353"
 1099      18BE32F8 
 1099      1BFD3C83 
 1099      BE84AB7E 
 1099      41EB
 1100 1a31 6998B55F 		.ascii	"i\230\265_{\372\030\341\242\013\210\0337@\314\275\203"
 1100      7BFA18E1 
 1100      A20B881B 
 1100      3740CCBD 
 1100      83
 1101 1a42 F44499B3 		.ascii	"\364D\231\263\224\321\033\321&\215\341k\322U\363\265"
 1101      94D11BD1 
 1101      268DE16B 
 1101      D255F3B5 
 1102 1a52 11CC6D84 		.ascii	"\021\314m\204/\310\324Fm\020\321\030\264\336^\257\347"
 1102      2FC8D446 
 1102      6D10D118 
 1102      B4DE5EAF 
 1102      E7
 1103 1a63 21D3F26F 		.ascii	"!\323\362o5\264\302\337\257\215\306\300\215\213\231"
 1103      35B4C2DF 
 1103      AF8DC6C0 
 1103      8D8B99
 1104 1a72 2E7DA0E1 		.ascii	".}\240\341sC\240\301\337\013J\034\372\303`\331hg\370"
 1104      7343A0C1 
 1104      DF0B4A1C 
 1104      FAC360D9 
 1104      6867F8
 1105 1a85 C6C7E815 		.ascii	"\306\307\350\025\340m\320\004zo\206\036*\020\011\262"
 1105      E06DD004 
 1105      7A6F861E 
 1105      2A1009B2 
 1106 1a95 67097F1B 		.ascii	"g\011\177\033\224\011\337F\322\016\352>\367\365\\\037"
 1106      9409DF46 
 1106      D20EEA3E 
 1106      F7F55C1F 
 1107 1aa5 A435FA41 		.ascii	"\2445\372A\017\340\202\214\236F\203\235\221~\021\225"
 1107      0FE0828C 
 1107      9E46839D 
 1107      917E1195 
 1108 1ab5 9E9F7906 		.ascii	"\236\237y\006\031x\271\274\371:8)\374\320\005\031\277"
 1108      1978B9BC 
 1108      F93A3829 
 1108      FCD00519 
 1108      BF
 1109 1ac6 A423546F 		.ascii	"\244#To\\\365\374\341\336\300+T\345\357\351gPym\360"
 1109      5CF5FCE1 
 1109      DEC02B54 
ARM GAS  C:\Users\AMANRA~1\AppData\Local\Temp\ccu0ZXx6.s 			page 90


 1109      E5EFE967 
 1109      50796DF0 
 1110 1ada 0C5407F8 		.ascii	"\014T\007\370B\271\253\375\015_\033\002\261\227\361"
 1110      42B9ABFD 
 1110      0D5F1B02 
 1110      B197F1
 1111 1ae9 1B65D046 		.ascii	"\033e\320F\245o T\352z\3108\024o\240\207\007\320Je\340"
 1111      A56F2054 
 1111      EA7AC838 
 1111      146FA087 
 1111      07D04A65 
 1112 1afe 3BCAC0B7 		.ascii	";\312\300\267\225\201o)\003\337T\006\276\241\014|\035"
 1112      95816F29 
 1112      03DF5406 
 1112      BEA10C7C 
 1112      1D
 1113 1b0f 07ADF600 		.ascii	"\007\255\366\000Z\211\203V\275\003\3646\320[@o\002\275"
 1113      5A898356 
 1113      BD03F436 
 1113      D05B406F 
 1113      02BD
 1114 1b21 0104D757 		.ascii	"\001\004\327W\255\006Z\005\004r\253@\316\003\344<@\316"
 1114      AD065A05 
 1114      0472AB40 
 1114      CE03E43C 
 1114      40CE
 1115 1b33 03E43CDE 		.ascii	"\003\344<\336t \310H\210\301\350\233\177\243\007\372"
 1115      7420C848 
 1115      88C1E89B 
 1115      7FA307FA 
 1116 1b43 AFDEF203 		.ascii	"\257\336\362\003/\034\251\012\257\000\177(\011\243\212"
 1116      2F1CA90A 
 1116      AF007F28 
 1116      09A38A
 1117 1b52 D49EBD39 		.ascii	"\324\236\2759\345j:\246\355x\232\214\213$\265@\213\004"
 1117      E56A3AA6 
 1117      ED789A8C 
 1117      8B24B540 
 1117      8B04
 1118 1b64 C40D5FB9 		.ascii	"\304\015_\271X4\351\215\216 \0055\340\271q\003\030\301"
 1118      5834E98D 
 1118      8E200535 
 1118      E0B97103 
 1118      18C1
 1119 1b76 5EFE4635 		.ascii	"^\376F5\220\336\370\023\253\360\002\215\222\301\037"
 1119      90DEF813 
 1119      ABF0028D 
 1119      92C11F
 1120 1b85 E4B5C11B 		.ascii	"\344\265\301\033\020\271}\273$\224\032\010\276\366\034"
 1120      10B97DBB 
 1120      24941A08 
 1120      BEF61C
 1121 1b94 2A370709 		.ascii	"*7\007\011\303\3419\324\002l\020t0\243\327C@ \000\337"
 1121      C3E139D4 
 1121      026C1074 
 1121      30A3D743 
 1121      402000DF 
ARM GAS  C:\Users\AMANRA~1\AppData\Local\Temp\ccu0ZXx6.s 			page 91


 1122 1ba8 59BFC933 		.ascii	"Y\277\3113\020\206\262\336bJr\002\335\020yC\340W\236"
 1122      1086B2DE 
 1122      624A7202 
 1122      DD107943 
 1122      E0579E
 1123 1bbb BECFE59E 		.ascii	"\276\317\345\236\321\307\217\224\315\022\257\015\277"
 1123      D1C78F94 
 1123      CD12AF0D 
 1123      BF
 1124 1bc8 0105EFFB 		.ascii	"\001\005\357\373\372\006x\255Y\261\3213\320\270b\345"
 1124      FA0678AD 
 1124      59B1D133 
 1124      D0B862E5 
 1125 1bd8 CFFE8655 		.ascii	"\317\376\206UA\361]\246\340\277\350\242\262\306\337"
 1125      41F15DA6 
 1125      E0BFE8A2 
 1125      B2C6DF
 1126 1be7 C7F83E29 		.ascii	"\307\370>)a\203\267\013k\377(\300\323\373\375\300@\317"
 1126      6183B70B 
 1126      6BFF28C0 
 1126      D3FBFDC0 
 1126      40CF
 1127 1bf9 CD8E5243 		.ascii	"\315\216RC\016\022\206\377\376\217@\203a\215N\374\375"
 1127      0E1286FF 
 1127      FE8F4083 
 1127      618D4EFC 
 1127      FD
 1128 1c0a B2D7865F 		.ascii	"\262\327\206_2G\255\252\177\321\342\262\331\312\367"
 1128      3247ADAA 
 1128      7FD1E2B2 
 1128      D9CAF7
 1129 1c19 2D9AA9FE 		.ascii	"-\232\251\376\337\201\243\001\233\214k\277g\363\322"
 1129      DF81A301 
 1129      9B8C6BBF 
 1129      67F3D2
 1130 1c28 0B165788 		.ascii	"\013\026W\210q\000\277\326\340'\032\205Z[\353\265\341"
 1130      7100BFD6 
 1130      E0271A85 
 1130      5A5BEBB5 
 1130      E1
 1131 1c39 B706A809 		.ascii	"\267\006\250\011\203\367&_\303ZG*\260\026\240x\372\256"
 1131      83F7265F 
 1131      C35A472A 
 1131      B016A078 
 1131      FAAE
 1132 1c4b 798132FF 		.ascii	"y\2012\377\015S\224`\313I\257\247\353\214~\305\333\253"
 1132      0D539460 
 1132      CB49AFA7 
 1132      EB8C7EC5 
 1132      DBAB
 1133 1c5d 57BD6327 		.ascii	"W\275c'p\322f\2177\354y\020\274\275!\004k7\007\375\336"
 1133      70D2668F 
 1133      37EC7910 
 1133      BCBD2104 
 1133      6B3707FD 
 1134 1c72 1F207DF9 		.ascii	"\037 }\371<\205\261\231T\020\033m\233h'P\034d0\352\177"
 1134      3C85B199 
ARM GAS  C:\Users\AMANRA~1\AppData\Local\Temp\ccu0ZXx6.s 			page 92


 1134      54101B6D 
 1134      9B682750 
 1134      1C6430EA 
 1135 1c87 F1FEDA7F 		.ascii	"\361\376\332\177\377\315o\3278y\372~\355\2719\010F\242"
 1135      FFCD6FD7 
 1135      3879FA7E 
 1135      EDB93908 
 1135      46A2
 1136 1c99 2FAC1C1F 		.ascii	"/\254\034\037<k$\302(#\343\320\375\203\217\327\256Y"
 1136      3C6B24C2 
 1136      2823E3D0 
 1136      FD838FD7 
 1136      AE59
 1137 1cab EBFE0154 		.ascii	"\353\376\001T\231\373\032\301\216_\220O\220\036Vj\260"
 1137      99FB1AC1 
 1137      8E5F904F 
 1137      901E566A 
 1137      B0
 1138 1cbc 654F017E 		.ascii	"eO\001~\004\226\354\251UnS\364\321C\312\255~g\221e\254"
 1138      0496ECA9 
 1138      556E53F4 
 1138      D143CAAD 
 1138      7E679165 
 1139 1cd1 BDBD172F 		.ascii	"\275\275\027/\010\361\032i\2177^\377_2B|O"
 1139      08F11A69 
 1139      8F375EFF 
 1139      5F32427C 
 1139      4F
 1140              		.text
 1141              		.section	.gnu.lto_.symtab.c3c01d24,"",%progbits
 1142 0000 6368506F 		.ascii	"chPoolObjectInitAligned\000"
 1142      6F6C4F62 
 1142      6A656374 
 1142      496E6974 
 1142      416C6967 
 1143 0018 00       		.ascii	"\000"
 1144 0019 00       		.ascii	"\000"
 1145 001a 00       		.ascii	"\000"
 1146 001b 00000000 		.ascii	"\000\000\000\000\000\000\000\000"
 1146      00000000 
 1147 0023 EB010000 		.ascii	"\353\001\000\000"
 1148 0027 6368506F 		.ascii	"chPoolLoadArray\000"
 1148      6F6C4C6F 
 1148      61644172 
 1148      72617900 
 1149 0037 00       		.ascii	"\000"
 1150 0038 00       		.ascii	"\000"
 1151 0039 00       		.ascii	"\000"
 1152 003a 00000000 		.ascii	"\000\000\000\000\000\000\000\000"
 1152      00000000 
 1153 0042 F1010000 		.ascii	"\361\001\000\000"
 1154 0046 6368506F 		.ascii	"chPoolAllocI\000"
 1154      6F6C416C 
 1154      6C6F6349 
 1154      00
 1155 0053 00       		.ascii	"\000"
 1156 0054 00       		.ascii	"\000"
ARM GAS  C:\Users\AMANRA~1\AppData\Local\Temp\ccu0ZXx6.s 			page 93


 1157 0055 00       		.ascii	"\000"
 1158 0056 00000000 		.ascii	"\000\000\000\000\000\000\000\000"
 1158      00000000 
 1159 005e F5010000 		.ascii	"\365\001\000\000"
 1160 0062 6368506F 		.ascii	"chPoolAlloc\000"
 1160      6F6C416C 
 1160      6C6F6300 
 1161 006e 00       		.ascii	"\000"
 1162 006f 00       		.ascii	"\000"
 1163 0070 00       		.ascii	"\000"
 1164 0071 00000000 		.ascii	"\000\000\000\000\000\000\000\000"
 1164      00000000 
 1165 0079 F7010000 		.ascii	"\367\001\000\000"
 1166 007d 6368506F 		.ascii	"chPoolFreeI\000"
 1166      6F6C4672 
 1166      65654900 
 1167 0089 00       		.ascii	"\000"
 1168 008a 00       		.ascii	"\000"
 1169 008b 00       		.ascii	"\000"
 1170 008c 00000000 		.ascii	"\000\000\000\000\000\000\000\000"
 1170      00000000 
 1171 0094 FC010000 		.ascii	"\374\001\000\000"
 1172 0098 6368506F 		.ascii	"chPoolFree\000"
 1172      6F6C4672 
 1172      656500
 1173 00a3 00       		.ascii	"\000"
 1174 00a4 00       		.ascii	"\000"
 1175 00a5 00       		.ascii	"\000"
 1176 00a6 00000000 		.ascii	"\000\000\000\000\000\000\000\000"
 1176      00000000 
 1177 00ae FE010000 		.ascii	"\376\001\000\000"
 1178 00b2 63684775 		.ascii	"chGuardedPoolObjectInitAligned\000"
 1178      61726465 
 1178      64506F6F 
 1178      6C4F626A 
 1178      65637449 
 1179 00d1 00       		.ascii	"\000"
 1180 00d2 00       		.ascii	"\000"
 1181 00d3 00       		.ascii	"\000"
 1182 00d4 00000000 		.ascii	"\000\000\000\000\000\000\000\000"
 1182      00000000 
 1183 00dc 04020000 		.ascii	"\004\002\000\000"
 1184 00e0 63684775 		.ascii	"chGuardedPoolLoadArray\000"
 1184      61726465 
 1184      64506F6F 
 1184      6C4C6F61 
 1184      64417272 
 1185 00f7 00       		.ascii	"\000"
 1186 00f8 00       		.ascii	"\000"
 1187 00f9 00       		.ascii	"\000"
 1188 00fa 00000000 		.ascii	"\000\000\000\000\000\000\000\000"
 1188      00000000 
 1189 0102 0A020000 		.ascii	"\012\002\000\000"
 1190 0106 63684775 		.ascii	"chGuardedPoolAllocTimeoutS\000"
 1190      61726465 
 1190      64506F6F 
 1190      6C416C6C 
ARM GAS  C:\Users\AMANRA~1\AppData\Local\Temp\ccu0ZXx6.s 			page 94


 1190      6F635469 
 1191 0121 00       		.ascii	"\000"
 1192 0122 00       		.ascii	"\000"
 1193 0123 00       		.ascii	"\000"
 1194 0124 00000000 		.ascii	"\000\000\000\000\000\000\000\000"
 1194      00000000 
 1195 012c 0F020000 		.ascii	"\017\002\000\000"
 1196 0130 63684775 		.ascii	"chGuardedPoolAllocTimeout\000"
 1196      61726465 
 1196      64506F6F 
 1196      6C416C6C 
 1196      6F635469 
 1197 014a 00       		.ascii	"\000"
 1198 014b 00       		.ascii	"\000"
 1199 014c 00       		.ascii	"\000"
 1200 014d 00000000 		.ascii	"\000\000\000\000\000\000\000\000"
 1200      00000000 
 1201 0155 11020000 		.ascii	"\021\002\000\000"
 1202 0159 63684775 		.ascii	"chGuardedPoolFree\000"
 1202      61726465 
 1202      64506F6F 
 1202      6C467265 
 1202      6500
 1203 016b 00       		.ascii	"\000"
 1204 016c 00       		.ascii	"\000"
 1205 016d 00       		.ascii	"\000"
 1206 016e 00000000 		.ascii	"\000\000\000\000\000\000\000\000"
 1206      00000000 
 1207 0176 16020000 		.ascii	"\026\002\000\000"
 1208 017a 63685365 		.ascii	"chSemObjectInit\000"
 1208      6D4F626A 
 1208      65637449 
 1208      6E697400 
 1209 018a 00       		.ascii	"\000"
 1210 018b 02       		.ascii	"\002"
 1211 018c 00       		.ascii	"\000"
 1212 018d 00000000 		.ascii	"\000\000\000\000\000\000\000\000"
 1212      00000000 
 1213 0195 1B020000 		.ascii	"\033\002\000\000"
 1214 0199 63685363 		.ascii	"chSchRescheduleS\000"
 1214      68526573 
 1214      63686564 
 1214      756C6553 
 1214      00
 1215 01aa 00       		.ascii	"\000"
 1216 01ab 02       		.ascii	"\002"
 1217 01ac 00       		.ascii	"\000"
 1218 01ad 00000000 		.ascii	"\000\000\000\000\000\000\000\000"
 1218      00000000 
 1219 01b5 1E020000 		.ascii	"\036\002\000\000"
 1220 01b9 63685365 		.ascii	"chSemSignalI\000"
 1220      6D536967 
 1220      6E616C49 
 1220      00
 1221 01c6 00       		.ascii	"\000"
 1222 01c7 02       		.ascii	"\002"
 1223 01c8 00       		.ascii	"\000"
ARM GAS  C:\Users\AMANRA~1\AppData\Local\Temp\ccu0ZXx6.s 			page 95


 1224 01c9 00000000 		.ascii	"\000\000\000\000\000\000\000\000"
 1224      00000000 
 1225 01d1 22020000 		.ascii	"\"\002\000\000"
 1226 01d5 63685365 		.ascii	"chSemWaitTimeoutS\000"
 1226      6D576169 
 1226      7454696D 
 1226      656F7574 
 1226      5300
 1227 01e7 00       		.ascii	"\000"
 1228 01e8 02       		.ascii	"\002"
 1229 01e9 00       		.ascii	"\000"
 1230 01ea 00000000 		.ascii	"\000\000\000\000\000\000\000\000"
 1230      00000000 
 1231 01f2 27020000 		.ascii	"'\002\000\000"
 1232              		.text
 1233              		.section	.gnu.lto_.opts,"",%progbits
 1234 0000 272D666D 		.ascii	"'-fmath-errno' '-fsigned-zeros' '-ftrapping-math' '"
 1234      6174682D 
 1234      6572726E 
 1234      6F272027 
 1234      2D667369 
 1235 0033 2D666E6F 		.ascii	"-fno-trapv' '-fno-openmp' '-fno-openacc' '-mcpu=cor"
 1235      2D747261 
 1235      70762720 
 1235      272D666E 
 1235      6F2D6F70 
 1236 0066 7465782D 		.ascii	"tex-m4' '-mthumb' '-mfloat-abi=hard' '-mfpu=fpv4-sp"
 1236      6D342720 
 1236      272D6D74 
 1236      68756D62 
 1236      2720272D 
 1237 0099 2D643136 		.ascii	"-d16' '-O2' '-fomit-frame-pointer' '-falign-functio"
 1237      2720272D 
 1237      4F322720 
 1237      272D666F 
 1237      6D69742D 
 1238 00cc 6E733D31 		.ascii	"ns=16' '-ffunction-sections' '-fdata-sections' '-fn"
 1238      36272027 
 1238      2D666675 
 1238      6E637469 
 1238      6F6E2D73 
 1239 00ff 6F2D636F 		.ascii	"o-common' '-flto'\000"
 1239      6D6D6F6E 
 1239      2720272D 
 1239      666C746F 
 1239      2700
 1240              		.text
 1241              		.comm	__gnu_lto_v1,1,1
 1242              		.comm	__gnu_lto_slim,1,1
 1243              		.ident	"GCC: (GNU Tools for Arm Embedded Processors 7-2017-q4-major) 7.2.1 20170904 (release) [ARM
ARM GAS  C:\Users\AMANRA~1\AppData\Local\Temp\ccu0ZXx6.s 			page 96


DEFINED SYMBOLS
                            *ABS*:00000000 chmempools.c
                            *COM*:00000001 __gnu_lto_v1
                            *COM*:00000001 __gnu_lto_slim

NO UNDEFINED SYMBOLS
