ARM GAS  C:\Users\AMANRA~1\AppData\Local\Temp\ccui46Te.s 			page 1


   1              		.cpu cortex-m4
   2              		.eabi_attribute 27, 1
   3              		.eabi_attribute 28, 1
   4              		.eabi_attribute 20, 1
   5              		.eabi_attribute 21, 1
   6              		.eabi_attribute 23, 3
   7              		.eabi_attribute 24, 1
   8              		.eabi_attribute 25, 1
   9              		.eabi_attribute 26, 1
  10              		.eabi_attribute 30, 2
  11              		.eabi_attribute 34, 1
  12              		.eabi_attribute 18, 4
  13              		.file	"hal_serial_usb.c"
  14              		.section	.gnu.lto_.profile.c3bff927,"",%progbits
  15 0000 789C6363 		.ascii	"x\234cc```\003bF\206\317\254\017\230\000\006A\001\350"
  15      60606003 
  15      624686CF 
  15      AC0F9800 
  15      064101E8 
  16              		.text
  17              		.section	.gnu.lto_.icf.c3bff927,"",%progbits
  18 0000 789C6363 		.ascii	"x\234cc``\330\315\200\000\362\014\017f\354\236\305\310"
  18      6060D8CD 
  18      8000F20C 
  18      0F66EC9E 
  18      C5C8
  19 0012 F8FECEEA 		.ascii	"\370\376\316\352\031\314L\317\366\255\352\342b~\377"
  19      19CC4CCF 
  19      F6ADEAE2 
  19      627EFF
  20 0021 75DD416E 		.ascii	"u\335An\0260\233\025\314f\373\377\341\313in\366\367"
  20      16309B15 
  20      CC66FBFF 
  20      E1CB696E 
  20      F6F7
  21 0033 D7967D64 		.ascii	"\327\226}d\345X\377\344\337\023.\316\343\247\2365\360"
  21      E558FFE4 
  21      DF132ECE 
  21      E3A79E35 
  21      F0
  22 0044 72BDFEFF 		.ascii	"r\275\376\377\276\233\217\373\332\254\217\237\031y\266"
  22      BE9B8FFB 
  22      DAAC8F9F 
  22      1979B6
  23 0053 6CDE7196 		.ascii	"l\336q\226\223\267\263g\362\022&\276[wN_\342\343?\275"
  23      93B7B367 
  23      F21226BE 
  23      5B774E5F 
  23      E2E33FBD 
  24 0067 E2EC272E 		.ascii	"\342\354'.\201\331\317\337\266q\012\316\371\271\343"
  24      81D9CFDF 
  24      B6710ACE 
  24      F9B9E3
  25 0076 019BD0E3 		.ascii	"\001\233\320\343s;V0\013\377<}\356\017\267H\303\335"
  25      733B5630 
  25      0BFF3C7D 
  25      EE0FB748 
ARM GAS  C:\Users\AMANRA~1\AppData\Local\Temp\ccui46Te.s 			page 2


  25      C3DD
  26 0088 B9731845 		.ascii	"\271s\030E{n\315\230\301+\366q\311\267>v\361\355/\036"
  26      7B6ECD98 
  26      C12BF671 
  26      C9B73E76 
  26      F1ED2F1E 
  27 009c CFE49178 		.ascii	"\317\344\221x\322:\347\002\227\344\342\005\335\235,"
  27      D23AE702 
  27      97E4E205 
  27      DD9D2C
  28 00ab 52F74FF7 		.ascii	"R\367O\367\034\340\225\236z\342\343\013\016\231\337"
  28      1CE0959E 
  28      7AE2E30B 
  28      0E99DF
  29 00ba CF56FDE3 		.ascii	"\317V\375\343\220}\270t_\242\034\330\311\014\000\225"
  29      907DB874 
  29      5FA21CD8 
  29      C90C0095 
  30 00ca 2D6233   		.ascii	"-b3"
  31              		.text
  32              		.section	.gnu.lto_.jmpfuncs.c3bff927,"",%progbits
  33 0000 789CAD56 		.ascii	"x\234\255VKo\323@\020\236\331ul\307i\036-)\317\026q"
  33      4B6FD340 
  33      109ED975 
  33      6CC7691E 
  33      2D29CF16 
  34 0015 E277F137 		.ascii	"\342w\3617ri\202\304\343\000\334P\017\310\022\\+.<Z"
  34      726982C4 
  34      E300DC50 
  34      0FC8125C 
  34      2B2E3C5A 
  35 0029 206D8112 		.ascii	" m\201\022Z\201\020\022\342\2148r\343\204\220\312\001"
  35      5A811012 
  35      E28C3872 
  35      E38490CA 
  35      01
  36 003a 5466BCE3 		.ascii	"Tf\274\343\304\336\3358i!\322(\362zf\276\357\233\331"
  36      C4DEDD38 
  36      6921D228 
  36      F27A66BE 
  36      EF9BD9
  37 004d 596F0800 		.ascii	"Yo\010\000\227\023\030\377VA#\"@\252\331\220\377\351"
  37      971318FF 
  37      56412322 
  37      40AAD990 
  37      FFE9
  38 005f 19FBA956 		.ascii	"\031\373\251V1\000\356\005\010dG\364kC\341\031\241\342"
  38      3100EE05 
  38      086447F4 
  38      6B43E119 
  38      A1E2
  39 0071 65F61C58 		.ascii	"e\366\034X\013\250\356j\\\277>\372\024\335\322\251&"
  39      0BA8EE6A 
  39      5CBF3EFA 
  39      14DDD2A9 
  39      26
  40 0082 247C8A2B 		.ascii	"$|\212+l\023\277\337\256\037\275\300M\362#S\001\023"
ARM GAS  C:\Users\AMANRA~1\AppData\Local\Temp\ccui46Te.s 			page 3


  40      6C13BFDF 
  40      AE1FBDC0 
  40      4DF22353 
  40      0113
  41 0094 6BF79961 		.ascii	"k\367\231a\252kd!Y\024\353+\200\026\266\352\241\273"
  41      AA6B6421 
  41      5914EB2B 
  41      8016B6EA 
  41      A1BB
  42 00a6 A46C86AA 		.ascii	"\244l\206\252\247\355%\315\305\210\212\020'O\217\244"
  42      A7ED25CD 
  42      C5888A10 
  42      274F8FA4 
  43 00b6 E3EBFB8D 		.ascii	"\343\353\373\215\207\232u\304R\204-\322\213\271\013"
  43      879A75C4 
  43      52842DD2 
  43      8BB90B
  44 00c5 BB435092 		.ascii	"\273CP\222U\237\310z\020\374?]\265\242\256\272\321u"
  44      559FC87A 
  44      10FC3F5D 
  44      B5A2AEBA 
  44      D175
  45 00d7 E2FCE851 		.ascii	"\342\374\350Q\021*D-\371\243\300_3;Od\366\031\370\334"
  45      112A442D 
  45      F9A3C05F 
  45      333B4F64 
  45      F619F8DC 
  46 00eb 7D187151 		.ascii	"}\030qQD\302@\341\024\021\245\215\352QP/\260M\346J\342"
  46      44C240E1 
  46      1411A58D 
  46      EA51502F 
  46      B04DE64A 
  47 0100 E39318FE 		.ascii	"\343\223\030\376\015\345\341\177\274\331\341\255\362"
  47      0DE5E17F 
  47      BCD9E1AD 
  47      F2
  48 010d E3DBD55F 		.ascii	"\343\333\325_\212\267J\210\003\205\317\004m\2402\250"
  48      8AB74A88 
  48      0385CF04 
  48      6DA032A8 
  49 011d 460EA57A 		.ascii	"F\016\245z\016\324\202\214\253\243\262)A\201\276\344"
  49      0ED4828C 
  49      ABA3B229 
  49      4181BEE4 
  50 012d 453C383A 		.ascii	"E<8:\334k\233\315\251\360\271\000\032<n\211/d\367\311"
  50      DC6B9BCD 
  50      A9F0B900 
  50      1A3C6E89 
  50      2F64F7C9 
  51 0141 9D43E490 		.ascii	"\235C\344\220\005\\\303\027\022\262&!TFw\253\224\235"
  51      055CC317 
  51      12B22621 
  51      544677AB 
  51      949D
  52 0153 5A8652B3 		.ascii	"Z\206R\2633.\235\247\366\336L\316)\221\037\013\377v"
  52      332E9DA7 
  52      F6DE4CCE 
ARM GAS  C:\Users\AMANRA~1\AppData\Local\Temp\ccui46Te.s 			page 4


  52      29911F0B 
  52      FF76
  53 0165 4A2D022C 		.ascii	"J-\002,\011\227\226\007\226`\344\224b\365[7?>NX=\313"
  53      09979607 
  53      9660E494 
  53      62F55B37 
  53      3F3E4E58 
  54 017b 188AB0CC 		.ascii	"\030\212\260\314\337\215+\036bmR\270M)\330\354\316f"
  54      DF8D2B1E 
  54      626D52B8 
  54      4D29D8EC 
  54      CE66
  55 018d 55BD7F7B 		.ascii	"U\275\177{#1\255W\270Sj\004\277\036\016\277\177\211"
  55      2331AD57 
  55      B8536A04 
  55      BF1E0EBF 
  55      7F89
  56 019f FA7F0671 		.ascii	"\372\177\006q\252;\353\232\241v\261_\205\327!\274\227"
  56      AA3BEB9A 
  56      A176B15F 
  56      85D721BC 
  56      97
  57 01b0 844546FB 		.ascii	"\204EF\373\305\226\334r{[\016_\244\360W\024\3166K\346"
  57      C596DC72 
  57      7B5B0E5F 
  57      A4F05714 
  57      CE364BE6 
  58 01c4 745D3385 		.ascii	"t]3\205\360\342kWH\005\363\256\214m\203liY\332\006\252"
  58      F0E26B57 
  58      4805F3AE 
  58      8C6D836C 
  58      6959DA06 
  59 01d9 B26FCAA7 		.ascii	"\262o\312\2476\227\347\231\214r)N\361\336$_6kDNW\214"
  59      3697E799 
  59      8C72294E 
  59      F1DE245F 
  59      366B444E 
  60 01ef E499C2E4 		.ascii	"\344\231\302\3449'\033\345\337\334\177w#6\223\207\370"
  60      39271BE5 
  60      DFDC7F77 
  60      23369387 
  60      F8
  61 0200 A654E1B3 		.ascii	"\246T\341\263\205\264\316'\325Gw\302\257\234hvYlf\347"
  61      85B4CE27 
  61      D54777C2 
  61      AF9C6876 
  61      596C66E7 
  62 0214 64387D8A 		.ascii	"d8}\212\316W\250\275 mi\222uc\017o\3730\255,\3712\245"
  62      CE57A8BD 
  62      206D6992 
  62      75630F6F 
  62      FB30AD2C 
  63 022b 1F11C991 		.ascii	"\037\021\311\221\231\271\361zH\353oE!\230\357\301\361"
  63      99B9F17A 
  63      48EB6F45 
  63      2198EFC1 
  63      F1
ARM GAS  C:\Users\AMANRA~1\AppData\Local\Temp\ccui46Te.s 			page 5


  64 023c A1E6B8A5 		.ascii	"\241\346\270\245L\275\226\214\357!SC<\311\362\346\220"
  64      4CBD968C 
  64      EF215343 
  64      3CC9F2E6 
  64      90
  65 024d 927B3B3F 		.ascii	"\222{;??\324L\323c\334\027%q\246d\245XA\347\034\367"
  65      3FD44CD3 
  65      63DC1725 
  65      71A664A5 
  65      5841E71C 
  66 0262 A495FD3B 		.ascii	"\244\225\375;\207g\201\300\347k\217R\271\214\004x \004"
  66      876781C0 
  66      E76B8F52 
  66      B98C0478 
  66      2004
  67 0274 828CC0AA 		.ascii	"\202\214\300\2522w\300&Y\367b~#l\3467B\370\013\233\377"
  67      3277C026 
  67      59F7627E 
  67      236CE637 
  67      42F80B9B 
  68 0289 B26E     		.ascii	"\262n"
  69              		.text
  70              		.section	.gnu.lto_.inline.c3bff927,"",%progbits
  71 0000 789CAD54 		.ascii	"x\234\255T\317k\023Q\020\376f\337\333\335\227M\262I"
  71      CF6B1351 
  71      10FE66DF 
  71      DBDD974D 
  71      B249
  72 0012 6C9398B4 		.ascii	"l\223\230\2645i\025R\020\013\"\366\2509\211\247\374"
  72      35691552 
  72      100B22F6 
  72      A83989A7 
  72      FC
  73 0023 21CD3FE1 		.ascii	"!\315?\341E\010(!\024\011TD\203\247\210\336\374\321"
  73      45082821 
  73      14095444 
  73      83A788DE 
  73      FCD1
  74 0035 1E7210EF 		.ascii	"\036r\020\357\242'\011\010\022\350\245\007\021\005\017"
  74      A2270908 
  74      12E8A507 
  74      11050F
  75 0044 1E9DF776 		.ascii	"\036\235\367v7\331M\242\361`6\314\233}3o\33673\337\254"
  75      37D94DA2 
  75      F16036CC 
  75      9B7D336F 
  75      DE3733DF 
  76 0059 03E0B98D 		.ascii	"\003\340\271\215\351o\013\020\026\301b\325\031\324\364"
  76      E96F0B10 
  76      16C162D5 
  76      19D4F4
  77 0068 0292B534 		.ascii	"\002\222\2654\021\352\0041\020\362\322\250\035X\350"
  77      11EA0431 
  77      10F2D2A8 
  77      1D58E8
  78 0077 CC9581D4 		.ascii	"\314\225\201\324N\266\017\310^+xd\026\260z-\216\222"
  78      4EB60FC8 
ARM GAS  C:\Users\AMANRA~1\AppData\Local\Temp\ccui46Te.s 			page 6


  78      5E2B7864 
  78      16B07A2D 
  78      8E92
  79 0089 2A042713 		.ascii	"*\004'\023\001\235\\\314W\254\364\201\374\2070\366\352"
  79      019D5CCC 
  79      57ACF481 
  79      FC8730F6 
  79      EA
  80 009a 300EDCDC 		.ascii	"0\016\334\334\022\227\020l\257\345\376\325\016\005\225"
  80      1297106C 
  80      AFE5FED5 
  80      0E0595
  81 00a9 5F62D689 		.ascii	"_b\326\211\213\340\206\324\012\017x\310W#\207\324\247"
  81      8BE086D4 
  81      0A0F78C8 
  81      572387D4 
  81      A7
  82 00ba EB70BF5C 		.ascii	"\353p\277\\4\036\"\303U\346\034f5D\032\353\036I\250"
  82      341E22C3 
  82      55E61C66 
  82      35441AEB 
  82      1E49A8
  83 00cd F60341A3 		.ascii	"\366\003A\243'\367\237y\367\304#Q\"\213^\322\246hB\035"
  83      27F79F79 
  83      F7C42351 
  83      228B5ED2 
  83      A668421D 
  84 00e1 848AEECA 		.ascii	"\204\212\356\312\3446\024/MW\275\2751\355M>\220\240"
  84      E436142F 
  84      4D57BDBD 
  84      31ED4D3E 
  84      90A0
  85 00f3 5F56DD82 		.ascii	"_V\335\202=\366\353\310\014\263*\274N\351\3732p\374"
  85      3DF6EBC8 
  85      0CB32ABC 
  85      4EE9FB32 
  85      70FC
  86 0105 596323C4 		.ascii	"Yc#\304\311\276Zi\003-\013\1777Bn}\314A}\337\233\"\327"
  86      C9BE5A69 
  86      032D0B7F 
  86      37426E7D 
  86      CC417DDF 
  87 011c C5995F7D 		.ascii	"\305\231_}\024S\032\376\001\303\377\361\376\341\251"
  87      14531AFE 
  87      01C3FFF1 
  87      FEE1A9
  88 012b AFE197A9 		.ascii	"\257\341\227\251N\257\030\36504t>\177\375\231\011\014"
  88      4EAF18F5 
  88      3034743E 
  88      7FFD9909 
  88      0C
  89 013c DBF43A66 		.ascii	"\333\364:f8\354\036\037Z\201a\207\336\204\006F9\224"
  89      38EC1E1F 
  89      5A816187 
  89      DE840646 
  89      3994
  90 014e 5E0C25A7 		.ascii	"^\014%\247U\030\336\252C|\2639Y-\265PFUZH\243\2324\362"
ARM GAS  C:\Users\AMANRA~1\AppData\Local\Temp\ccui46Te.s 			page 7


  90      5518DEAA 
  90      437CB339 
  90      592DB550 
  90      46555A48 
  91 0166 B2B811E1 		.ascii	"\262\270\021\341O?\275\006\267\273\023\257|\324\343"
  91      4F3FBD06 
  91      B7BB13AF 
  91      7CD4E3
  92 0175 048B0B0B 		.ascii	"\004\213\013\013\223p\016\245F\024E\234\224\221\032"
  92      93700EA5 
  92      4614459C 
  92      94911A
  93 0184 EF9B7D55 		.ascii	"\357\233}U\000\\>\316\177\260\230{]\307Z\201\343T'#"
  93      005C3ECE 
  93      7FB0987B 
  93      5DC75A81 
  93      E3542723 
  94 0198 42A6D732 		.ascii	"B\246\3272'\212\330\272IV\324=\035P\326\316N)\210\230"
  94      278AD8BA 
  94      4956D43D 
  94      1D50D6CE 
  94      4E298898 
  95 01ac EC0079B3 		.ascii	"\354\000y\2636\204KT\345\022\3229r\002\222\364\357\276"
  95      36844B54 
  95      E512D239 
  95      720292F4 
  95      EFBE
  96 01be FBE0EA9A 		.ascii	"\373\340\352\232\371\004:\346\232\015H\263$\322\332"
  96      F9043AE6 
  96      9A0D48B3 
  96      24D2DA
  97 01cd 469BC868 		.ascii	"F\233\310ho\022TT\2334\006\351\304\012\333d\276t\032"
  97      6F125454 
  97      9B3406E9 
  97      C40ADB64 
  97      BE741A
  98 01e0 4DD063FB 		.ascii	"M\320c\373\0161\022\273_\3455d\303\256\006P\2161}\031"
  98      0E3112BB 
  98      5FE53564 
  98      C3AE0650 
  98      8E317D19 
  99 01f4 1DCEC3BF 		.ascii	"\035\316\303\277\272\314>\207?\231U\005\236\376\316"
  99      BACC3E87 
  99      3F995505 
  99      9EFECE
 100 0203 1858728E 		.ascii	"\030Xr\216\216\356x_\306\372U\305Z0\035\377c\034\370"
 100      8EEE785F 
 100      C6FA55C5 
 100      5A301DFF 
 100      631CF8
 101 0216 7A330E1B 		.ascii	"z3\016\033ro\233\007\214\317\302 \027\227_t\271#\375"
 101      726F9B07 
 101      8CCFC220 
 101      17975F74 
 101      B923FD
 102 0229 2B163807 		.ascii	"+\0268\007}\275\214\023\344\017\237\274d\206\233\250"
 102      7DBD8C13 
ARM GAS  C:\Users\AMANRA~1\AppData\Local\Temp\ccui46Te.s 			page 8


 102      E40F9FBC 
 102      64869BA8 
 103 0239 30EF4C4C 		.ascii	"0\357LLQ99\"\270\235F,\\\322{vlk\201z\027\026v\360\033"
 103      51393922 
 103      B89D462C 
 103      5CD27B76 
 103      6C6B817A 
 104 0252 86E4C8FE 		.ascii	"\206\344\310\376"
 105              		.text
 106              		.section	.gnu.lto_.pureconst.c3bff927,"",%progbits
 107 0000 789C0DC3 		.ascii	"x\234\015\303\207\015\200@\014\003@\207\336\005\210"
 107      870D8040 
 107      0C034087 
 107      DE0588
 108 000f 62079E55 		.ascii	"b\007\236U\330;\323\301IW\001x\377\0110e\314Y\260d\305"
 108      D83BD3C1 
 108      49570178 
 108      FF093065 
 108      CC59B064 
 109 0024 9A0D5B76 		.ascii	"\232\015[v\3525h\364\311g-X}\013\333\303\016\235N\227"
 109      EA3568F4 
 109      C9672D58 
 109      7D0BDBC3 
 109      0E9D4E97 
 110 0038 5C57D81D 		.ascii	"\\W\330\035\226\360\340\003\266\366\007\010"
 110      96F0E003 
 110      B6F60708 
 111              		.text
 112              		.section	.gnu.lto__ctl.c3bff927,"",%progbits
 113 0000 789C6D91 		.ascii	"x\234m\221\315KTQ\030\306\337\347\274\327q\014\234\265"
 113      CD4B5451 
 113      18C6DFE7 
 113      BCD7710C 
 113      9CB5
 114 0012 948B16CA 		.ascii	"\224\213\026\312$\310L\003n\332\264p\321\277\021\343"
 114      24C84C03 
 114      6EDAB470 
 114      D1BF11E3 
 115 0022 287A419A 		.ascii	"(zA\232an\256=9I#JH:\012r\213Q\0314\\\244\250}:u1\010"
 115      616EAE3D 
 115      3949234A 
 115      483A0A72 
 115      8B511934 
 116 003e 17CDE4E7 		.ascii	"\027\315\344\347\254\\DA-\224\314E\020-\314\367\\\025"
 116      AC5C4441 
 116      2D94CC45 
 116      102DCCF7 
 116      5C15
 117 0050 523A9CCB 		.ascii	"R:\234\313\373\301\363;\357\271\317\011\020\321\007"
 117      FBC1F33B 
 117      EFB9CF09 
 117      10D107
 118 005f 10DD9278 		.ascii	"\020\335\222xE>0A\015\227\211\356\005\025`\022\035\004"
 118      453E3041 
 118      0D9789EE 
 118      05156012 
 118      1D04
ARM GAS  C:\Users\AMANRA~1\AppData\Local\Temp\ccui46Te.s 			page 9


 119 0071 F52AF462 		.ascii	"\365*\364b\210G\031\033\367\347]\036dWd\226\224\207"
 119      8847191B 
 119      F7E75D1E 
 119      64576496 
 119      9487
 120 0083 A589AF21 		.ascii	"\245\211\257!S\002W\245,\0243+h\232\321\262\274\361"
 120      530257A5 
 120      2C14332B 
 120      689AD1B2 
 120      BCF1
 121 0095 47979E2C 		.ascii	"G\227\236,\255\353\032\227\025\215\211|\011\365XD\275"
 121      ADEB1A97 
 121      158D897C 
 121      09F55844 
 121      BD
 122 00a6 99B18C26 		.ascii	"\231\261\214&\021o\225v\206\2539\006\222|\344\327\236"
 122      116F9576 
 122      86AB3906 
 122      927CE4D7 
 122      9E
 123 00b7 A7C205AD 		.ascii	"\247\302\005\255\373\264\367q\232u\203\313\214\347\340"
 123      FBB4F771 
 123      9A7583CB 
 123      8CE7E0
 124 00c6 7F416911 		.ascii	"\177Ai\021^ ,\362\312x\251\034\342\026\037\335\317\035"
 124      5E202CF2 
 124      CA78A91C 
 124      E2161FDD 
 124      CF1D
 125 00d8 4CF229BA 		.ascii	"L\362)\272]\360Q\013//\242\026\341\225\217\356\351\301"
 125      5DF0510B 
 125      2F2FA216 
 125      E1958FEE 
 125      E9C1
 126 00ea 22F8A68F 		.ascii	"\"\370\246\217\026\036\376^8\233\272;s:\365\365\177"
 126      161EFE5E 
 126      389BBA3B 
 126      733AF5F5 
 126      7F
 127 00fb A6BE41D8 		.ascii	"\246\276A\330\350\335\317\207OC\334\352\263\033?\037"
 127      E8DDCF87 
 127      4F43DCEA 
 127      B31B3F1F 
 128 010b FFE1C669 		.ascii	"\377\341\306i\237\255\314\326Me\364\232\266\\\256\302"
 128      9FADCCD6 
 128      4D65F49A 
 128      B65CAEC2 
 129 011b CA79DE2C 		.ascii	"\312y\336,\221\177Y8\312\325\006,\024\321\230g2\206"
 129      917F5938 
 129      CAD5062C 
 129      14D19867 
 129      3286
 130 012d 880F6F11 		.ascii	"\210\017o\021 \361\236\236mVy\372\350\357\003\355\225"
 130      20F19E9E 
 130      6D5679FA 
 130      E8EF03ED 
 130      95
ARM GAS  C:\Users\AMANRA~1\AppData\Local\Temp\ccui46Te.s 			page 10


 131 013e AF65DF57 		.ascii	"\257e\337W\346\224\330i\376\224(+:y\004\355\321\200"
 131      E694D869 
 131      FE94282B 
 131      3A7904ED 
 131      D180
 132 0150 D82859C6 		.ascii	"\330(Y\306\243o\350\313\317\2156\033\332\0347\301\240"
 132      A36FE8CB 
 132      CF8D361B 
 132      DA1C37C1 
 132      A0
 133 0161 1FD2FA9E 		.ascii	"\037\322\372\236\273lZ2k\254\177\365S\265y\024\005\302"
 133      BB6C5A32 
 133      6BAC7FF5 
 133      53B57914 
 133      05C2
 134 0173 BB933B64 		.ascii	"\273\223;dE%\270\"\212D\"Q\331\211.\273\315N:\261\033"
 134      4525B822 
 134      8A442251 
 134      D9892EBB 
 134      CD4E3AB1 
 135 0188 B1EBD1A4 		.ascii	"\261\353\321\244\023\355\212wG\235t\302\304\333NG\332"
 135      13ED8A77 
 135      479D74C2 
 135      C4DB4E47 
 135      DA
 136 0199 96D0E3B4 		.ascii	"\226\320\343\264E\022\244\354TM2\325\221\216\337\265"
 136      4512A4EC 
 136      544D32D5 
 136      918EDFB5 
 137 01a9 9377389E 		.ascii	"\223w8\236\356\264\234\366\236\3241\332\322\251\247"
 137      EEB49CF6 
 137      9ED431DA 
 137      D2A9A7
 138              		.text
 139              		.section	.gnu.lto_obnotify.c3bff927,"",%progbits
 140 0000 789C9595 		.ascii	"x\234\225\225\355O\\E\024\306\347\271s\337\366\225*"
 140      ED4F5C45 
 140      14C6E7B9 
 140      73DFF695 
 140      2A
 141 0011 141157C3 		.ascii	"\024\021W\303\007I\323/\254DM\2521\361O1\2026%1\266"
 141      0749D32F 
 141      AC444DAA 
 141      31F14F31 
 141      82362531 
 142 0026 76C307FD 		.ascii	"v\303\007\375\302-oK\003\211M\323\256\221,\272\255i"
 142      C22D6F4B 
 142      03894DD3 
 142      AE912CBA 
 142      AD69
 143 0038 943442AD 		.ascii	"\2244B\255\264\226\026q\241-\245\255P@l\021\332\355"
 143      B4961671 
 143      A12DA5AD 
 143      50406C11 
 143      DAED
 144 004a DA2AC686 		.ascii	"\332*\306\206\324\256!\306\222\202\2363\367./-\326p"
 144      D4AE21C6 
ARM GAS  C:\Users\AMANRA~1\AppData\Local\Temp\ccui46Te.s 			page 11


 144      92829E33 
 144      F72E2F2D 
 144      D670
 145 005c C3CEBD33 		.ascii	"\303\316\2753s\316\357\2319g\316`\012!\372-!^\247\367"
 145      73CEEF99 
 145      3967CE60 
 145      0A21FA2D 
 145      215EA7F7 
 146 0070 76FAC127 		.ascii	"v\372\301'\240\355\033\025b\217\255i\326\360\213\302"
 146      A0ED1B15 
 146      628FAD69 
 146      D6F08BC2 
 147 0080 F1CBE152 		.ascii	"\361\313\341R\341\004\245\327\323UO\327\214\261\010"
 147      E104A5D7 
 147      D3554FD7 
 147      8CB108
 148 008f F5CC7425 		.ascii	"\365\314t%\365\014\230\256\213\011\333\375\260\362\037"
 148      F50C98AE 
 148      8B09DBFD 
 148      B0F21F
 149 009e 36C01F8E 		.ascii	"6\300\037\216\015Q\247I\3350-\033uh\223\007$\006\343"
 149      0D51A749 
 149      DD302D1B 
 149      75689307 
 149      2406E3
 150 00b1 B3BDDAD6 		.ascii	"\263\275\332\326\317\035z\322\037M\006:\2341G&\245\020"
 150      CF1D7AD2 
 150      1F4D063A 
 150      9C314726 
 150      A510
 151 00c3 09FAF183 		.ascii	"\011\372\361\203\257\261\225\314\306\033\217%e+\315"
 151      AFB195CC 
 151      C61B8F25 
 151      652BCD
 152 00d2 003A7573 		.ascii	"\000:us#\355\267\303\334\325PF\335\321K\037f5Y\011A"
 152      23EDB7C3 
 152      DCD55046 
 152      DDD14B1F 
 152      66355909 
 153 00e7 DF876FF4 		.ascii	"\337\207o\364M\312-G\034\247\336IO\036\221\316\363I"
 153      4DCA2D47 
 153      1CA7DE49 
 153      4F1E91CE 
 153      F349
 154 00f9 29711292 		.ascii	")q\022\222\2008\201\010z\020\0214$\360\015\266\260}"
 154      80388108 
 154      7A101134 
 154      24F00DB6 
 154      B07D
 155 010b 329BEB0C 		.ascii	"2\233\353\014\313\227\225\357\370\275\216\005Y\376\231"
 155      CB9795EF 
 155      F8BD8E05 
 155      59FE99
 156 011a F29DED2A 		.ascii	"\362\235\355*9\334\340\014;zR\3528\265\326\237\0372"
 156      39DCE00C 
 156      3B7A52EA 
 156      38B5D69F 
ARM GAS  C:\Users\AMANRA~1\AppData\Local\Temp\ccui46Te.s 			page 12


 156      1F32
 157 012c 5F740E24 		.ascii	"_t\016$\302\362U\345:\235i\035\010\220k\232\\3]E\207"
 157      C2F255E5 
 157      3A9D691D 
 157      08906B9A 
 157      5C335D45 
 158 0141 3C5703A7 		.ascii	"<W\003\247\327u\275\365\325\322\301\220\251\343\014"
 158      D775BDF5 
 158      D5D2C190 
 158      A9E30C
 159 0150 CAD18BF2 		.ascii	"\312\321\213\362T~\307\350\203\011\232?:\277xY\227\257"
 159      547EC7E8 
 159      83099A3F 
 159      3ABF7859 
 159      97AF
 160 0162 29F49989 		.ascii	")\364\231\211C\177\300[\325\350\251H\036m\342\333\307"
 160      437FC05B 
 160      D5E8A948 
 160      1E6DE2DB 
 160      C7
 161 0173 A2FB51AE 		.ascii	"\242\373Q\256p\004\375\216\240B\310\274\032OuO\030i"
 161      7004FD8E 
 161      A042C8BC 
 161      1A4F754F 
 161      1869
 162 0185 67E99FB8 		.ascii	"g\351\237\270\223\276Zqs~\250\260\024\024\025K\243\306"
 162      93BE5A71 
 162      737EA8B0 
 162      1414154B 
 162      A3C6
 163 0197 96D4F874 		.ascii	"\226\324\370tj\374\0065\001\223\232\240EM\310\346\306"
 163      6AFC0635 
 163      01939AA0 
 163      454DC8E6 
 163      C6
 164 01a8 C7637E6E 		.ascii	"\307c~n\002\324\204\203\354\026b\2670\333\025\260I!"
 164      02D48483 
 164      EC1662B7 
 164      30DB15B0 
 164      4921
 165 01ba 38B84582 		.ascii	"8\270E\202\265\212\205Z\210h\241\335\321\031p\322b\257"
 165      B58A855A 
 165      8868A1DD 
 165      D11970D2 
 165      62AF
 166 01cc D4F8AB21 		.ascii	"\324\370\253!-\356\240\376\364\357sM\001^e\273,\242"
 166      2DEEA0FE 
 166      F4EF734D 
 166      015E65BB 
 166      2CA2
 167 01de B5279A06 		.ascii	"\265'\232\006\257X\234W\251v\336782d\246\360\311\036"
 167      AF589C57 
 167      A976DE37 
 167      383264A6 
 167      F0C91E
 168 01f1 3A1DA9BB 		.ascii	":\035\251\273\274\302\202vY\2104o\226\203\324?\377\227"
 168      BCC28276 
ARM GAS  C:\Users\AMANRA~1\AppData\Local\Temp\ccui46Te.s 			page 13


 168      5988346F 
 168      9683D43F 
 168      FF97
 169 0203 11FD92CF 		.ascii	"\021\375\222\317NYRn\302\000R8\250\316\015\006\021\025"
 169      4E59526E 
 169      C2005238 
 169      A8CE0D06 
 169      1115
 170 0215 B3A84F1D 		.ascii	"\263\250O\035\207\212(-\204\004\\\301\277\233LW\020"
 170      878A282D 
 170      84045CC1 
 170      BF9B4C57 
 170      10
 171 0226 AB05F547 		.ascii	"\253\005\365G\004\011\371\0049\341\254\2476\031\237"
 171      0409F904 
 171      39E1ACA7 
 171      36199F
 172 0235 CA0496D5 		.ascii	"\312\004\226\325,\234Sj`\265\363\244\306l\237\013\326"
 172      2C9C536A 
 172      60B5F3A4 
 172      C66C9F0B 
 172      D6
 173 0246 5683ADF5 		.ascii	"V\203\255\365\300O\222:\206<p\256u\377\024\010\274O"
 173      C04F923A 
 173      863C70AE 
 173      75FF1408 
 173      BC4F
 174 0258 4D15E282 		.ascii	"M\025\342\202\002k\014\036^\013\226\253\301\205\353"
 174      026B0C1E 
 174      5E0B96AB 
 174      C185EB
 175 0267 818B481D 		.ascii	"\201\213H\035\027\327]\361f\\R`u\314.\023\370W4\316"
 175      17D75DF1 
 175      665C5260 
 175      75CC2E13 
 175      F85734CE 
 176 027b 9C7D6985 		.ascii	"\234}i\205<\220=\236\0130y3t|\357\035\250\275d?\\\232"
 176      3C903D9E 
 176      0B307933 
 176      747CEF1D 
 176      A8BD643F 
 177 0291 4FD6FD26 		.ascii	"O\326\375&\313\265\3277\024\254b\214(i\235\245G\363"
 177      CBB5D737 
 177      14AC628C 
 177      28699DA5 
 177      47F3
 178 02a3 D243DD0F 		.ascii	"\322C\335\017\260\212\366i[\247\237\325\213\241\341"
 178      B08AF669 
 178      5BA79FD5 
 178      8BA1E1
 179 02b2 CAB2BA2E 		.ascii	"\312\262\272.\032}y\365\245|\346\214\015m\374)\214)"
 179      1A7D79F5 
 179      A57CE68C 
 179      0D6DFC29 
 179      8C29
 180 02c4 7583D5C7 		.ascii	"u\203\325\307\327F\324\334PnJ0\241H&\223~pI\177\306"
 180      D746D4DC 
ARM GAS  C:\Users\AMANRA~1\AppData\Local\Temp\ccui46Te.s 			page 14


 180      506E4A30 
 180      A1482693 
 180      7E70497F 
 181 02d9 BD4D5844 		.ascii	"\275MXD\243\201\206{\315\336\200M\376=\347.4\333\274"
 181      A381867B 
 181      CDDE804D 
 181      FE3DE72E 
 181      34DBBC
 182 02ec AB108049 		.ascii	"\253\020\200ID\310l\215\223\217\314\330\351A\363\373"
 182      44C86C8D 
 182      938FCCD8 
 182      E941F3FB 
 183 02fc EE809F76 		.ascii	"\356\200\237vG\303\034\241\351|r\374\004\352\236\353"
 183      47C31CA1 
 183      E97C72FC 
 183      04EA9EEB 
 184 030c BD1F6250 		.ascii	"\275\037bP\000\002?.\207\307\020_H7<\013\361\216\334"
 184      00023F2E 
 184      87C7105F 
 184      48373C0B 
 184      F18EDC
 185 031f 3170A9B7 		.ascii	"1p\251\267\313\300#\265\303\205\375\230\004=\215\253"
 185      CBC023B5 
 185      C385FD98 
 185      043D8DAB 
 186 032f 6A63967B 		.ascii	"jc\226{\205\034\035\271\2231\353\026y\222*\210\252\034"
 186      851C1DB9 
 186      9331EB16 
 186      79922A88 
 186      AA1C
 187 0341 D768B302 		.ascii	"\327h\263\002S\250\023shJ}\340\312\024\223io\357\334"
 187      53A81373 
 187      684A7DE0 
 187      CA149369 
 187      6FEFDC
 188 0354 8C45A676 		.ascii	"\214E\246vR\226&\270\032\360\023\031\271K\310\235\350"
 188      529626B8 
 188      1AF01319 
 188      B94BC89D 
 188      E8
 189 0365 F925B80A 		.ascii	"\371%\270\012\363\214\272\200\310U`\032uI\031Q%\252"
 189      F38CBA80 
 189      C855601A 
 189      75491951 
 189      25AA
 190 0377 607C4910 		.ascii	"`|I\020\320\315s\353oaW \270\301\222\234Y)\311\353^"
 190      D0CD73EB 
 190      6F615720 
 190      B8C1929C 
 190      5929C9EB 
 191 038c 9E2F1A2E 		.ascii	"\236/\032.*\364pH\2728$\224\353\340z\271N\025s}\335"
 191      2AF47048 
 191      BA382494 
 191      EBE07AB9 
 191      4E15737D 
 192 03a1 5829C4CC 		.ascii	"X)\304\314\362\261Q\264\360\303\264~\371?\264\022\334"
 192      F2B151B4 
ARM GAS  C:\Users\AMANRA~1\AppData\Local\Temp\ccui46Te.s 			page 15


 192      F0C3B47E 
 192      F93FB412 
 192      DC
 193 03b2 5C393A59 		.ascii	"\\9:Y\227\226\360h\005\034\027\012l\274L\005gmT\237"
 193      9796F068 
 193      051C170A 
 193      6CBC4C05 
 193      676D549F 
 194 03c6 4DF00AF0 		.ascii	"M\360\012\360\263\212j\210\244)L\344\222\224\317\251"
 194      B38A6A88 
 194      A4294CE4 
 194      9294CFA9 
 195 03d6 0360E6EB 		.ascii	"\003`\346\353c\360\272{\325\021\212\000\037g\323\373"
 195      63F0BA7B 
 195      D5118A00 
 195      1F67D3FB 
 196 03e6 8D6D279D 		.ascii	"\215m'\235\026\012\273!p\013\333\224\265%\332\316\013"
 196      160ABB21 
 196      700BDB94 
 196      B525DACE 
 196      0B
 197 03f7 CFBC73C1 		.ascii	"\317\274s\301\370o\207\333\236\203\355]\325w\241\271"
 197      F86F87DB 
 197      9E83ED5D 
 197      D577A1B9 
 198 0407 FF8F5B28 		.ascii	"\377\217[(\2744D\275\212\212\212(\375U\357\250\251\252"
 198      BC3444BD 
 198      8A8A8A28 
 198      FD55EFA8 
 198      A9AA
 199 0419 D919AB7C 		.ascii	"\331\031\253|\245\362\205\350\316Xt\307\233\357Dc\273"
 199      A5F285E8 
 199      CE5874C7 
 199      9BEF4463 
 199      BB
 200 042a ABF9FD46 		.ascii	"\253\371\375F\354\355\3355\364\252\215UUT\013Y\365\336"
 200      ECEDDD35 
 200      F4AA8D55 
 200      55540B59 
 200      F5DE
 201 043c 2E3DF656 		.ascii	".=\366V\355.\274+\253j\267\377\013\250\305\216Q"
 201      ED2EBC2B 
 201      AB6AB7FF 
 201      0BA8C58E 
 201      51
 202              		.text
 203              		.section	.gnu.lto__readt.c3bff927,"",%progbits
 204 0000 789C5D91 		.ascii	"x\234]\221\313k\023Q\024\306\3577g23\261\232\265`\027"
 204      CB6B1351 
 204      14C6EF37 
 204      673233B1 
 204      9AB56017 
 205 0014 5908A19B 		.ascii	"Y\010\241\233\214\001A\272s\247\377\2054\241\220\210"
 205      8C0141BA 
 205      73A7FF85 
 205      34A19088 
 206 0024 9AD269D7 		.ascii	"\232\322i\327\271M\225T*\0221\035a\030l\240\246]\210"
ARM GAS  C:\Users\AMANRA~1\AppData\Local\Temp\ccui46Te.s 			page 16


 206      B94D9554 
 206      2A12311D 
 206      61186CA0 
 206      A65D88
 207 0037 A8181FD1 		.ascii	"\250\030\037\321j\307\010\335h|\027\004\245\013\255"
 207      6AC708DD 
 207      687C1704 
 207      A50BAD
 208 0046 8A35165D 		.ascii	"\2125\026]\250Pi\352\271c\013\022\230\3139g\316\367"
 208      A85069EA 
 208      B9630B12 
 208      98CB3967 
 208      CEF7
 209 0058 3B8F7B0D 		.ascii	";\217{\015!\304\200&\304A\266{\370\200\004\264\362S"
 209      21C48026 
 209      C441B67B 
 209      F88004B4 
 209      F253
 210 006a 21C62C0D 		.ascii	"!\306,\015P\216\264 \012\032\0128C\025\302\213\223\327"
 210      508EB420 
 210      0A1A0A38 
 210      4315C28B 
 210      93D7
 211 007c 7C9A249F 		.ascii	"|\232$\237e:\207?Z\336\207\230\012\2018\207\355\265"
 211      653A873F 
 211      5ADE8798 
 211      0A813887 
 211      EDB5
 212 008e C5FACEBE 		.ascii	"\305\372\316\2769)\2132\270\360\313\234\256?\227Q\237"
 212      39298B32 
 212      B8F0CB9C 
 212      AE3F9751 
 212      9F
 213 009f 34E1B2BC 		.ascii	"4\341\262\274\216^\334@\257\352q\023},~\325Z*\233\224"
 213      8E5EDC40 
 213      AFEA7113 
 213      7D2C7ED5 
 213      5A2A9B94 
 214 00b3 8260FFFC 		.ascii	"\202`\377\374\317\257\201\226\250\205\340\312\014\311"
 214      CFAF8196 
 214      A885E0CA 
 214      0CC9
 215 00c1 BD3E116E 		.ascii	"\275>\021n\201\376\007\371\227\300m$X\376gr\311\215"
 215      81FE07F9 
 215      97C06D24 
 215      58FE6772 
 215      C98D
 216 00d3 D2FE103D 		.ascii	"\322\376\020=\367y\256\203-\364I-Du\334\351Fu\201F\210"
 216      F779AE83 
 216      2DF4492D 
 216      4475DCE9 
 216      46758146 
 217 00e8 6EC88A1B 		.ascii	"n\310\212\033\243\003!\272\362x\246lnw\235\015Q\015"
 217      A30321BA 
 217      F278A66C 
 217      6E779D0D 
 217      510D
ARM GAS  C:\Users\AMANRA~1\AppData\Local\Temp\ccui46Te.s 			page 17


 218 00fa 77BB514D 		.ascii	"w\273QM\340^\210\276;[\371\030\243\376\020\375\376\345"
 218      E05E88BE 
 218      3B5BF918 
 218      A3FE10FD 
 218      FEE5
 219 010c F77A6C0B 		.ascii	"\367zl\013\3754\275\373\322\270<\354S\004\363\335pD"
 219      FD34BDFB 
 219      D2B83CEC 
 219      5304F3DD 
 219      7044
 220 011e E03E128A 		.ascii	"\340>\022\212x\177\2753\265\313\320\325]\360\025<\200"
 220      787FBD33 
 220      B5CBD0D5 
 220      5DF0153C 
 220      80
 221 012f 21C0CED5 		.ascii	"!\300\316\325\227\221@v6K2h\327\260y(\012f\014\276y"
 221      97914076 
 221      364B3268 
 221      D7B07928 
 221      0A660CBE 
 222 0144 DE53871A 		.ascii	"\336S\207\0329\002\325\335\200*c\205\323\210\011\256"
 222      3902D5DD 
 222      802A6385 
 222      D38809AE 
 223 0154 C02F2303 		.ascii	"\300/#\003q\232C\366\306\003\261\212\342z\351\333BV"
 223      719A43F6 
 223      C603B18A 
 223      E27AE9DB 
 223      4256
 224 0166 15F608DC 		.ascii	"\025\366\010\334\317=\325|f\252\2471\303\201\347\233"
 224      CF3DD57C 
 224      66AAA731 
 224      C381E79B 
 225 0176 AD45A38A 		.ascii	"\255E\243\212\213cR\312\352,q%\313\343m\027\324\213"
 225      8B6352CA 
 225      EA2C7125 
 225      CBE36D17 
 225      D48B
 226 0188 70FA75E9 		.ascii	"p\372u\351\315r\217}\205\2232\356S\024\001\252\230R"
 226      CD728F7D 
 226      859332EE 
 226      531401AA 
 226      9852
 227 019a 93AAE4E5 		.ascii	"\223\252\344\345\326\352\262Q\330P\311\352Q\236\017"
 227      D6EAB251 
 227      D850C9EA 
 227      519E0F
 228 01a9 0F61F30E 		.ascii	"\017a\363\016M\024D\033\245\370\277\236\026\013\033"
 228      4D14441B 
 228      A5F8BF9E 
 228      160B1B
 229 01b8 8DF65B93 		.ascii	"\215\366[\223\205\226O;\\\342\375\360\2105<\217G\272"
 229      85964F3B 
 229      5CE2FDF0 
 229      88353C8F 
 229      47BA
 230 01ca 47118F0C 		.ascii	"G\021\217\014\237z\304\032\212\333\214j0\301B^\202\027"
ARM GAS  C:\Users\AMANRA~1\AppData\Local\Temp\ccui46Te.s 			page 18


 230      9F7AC41A 
 230      8ADB8C6A 
 230      30C1425E 
 230      8217
 231 01dc 4B269336 		.ascii	"K&\2236\177\231l.\235\313;\251\376\324>;\357\330\331"
 231      7F996C2E 
 231      9DCB3BA9 
 231      FED43E3B 
 231      EFD8D9
 232 01ef 8163B633 		.ascii	"\201c\2663\234Q\366\21038\234c3\352\244\223\031\241"
 232      9C51F688 
 232      33389C63 
 232      33EAA493 
 232      19A1
 233 0201 E586B4F4 		.ascii	"\345\206\264\364\020N\230#\271\343\203\371\321\221\277"
 233      104E9823 
 233      B9E383F9 
 233      D191BF
 234 0210 EAC2D633 		.ascii	"\352\302\3263"
 235              		.text
 236              		.section	.gnu.lto__read.c3bff927,"",%progbits
 237 0000 789C5D51 		.ascii	"x\234]Q]k\023Q\020\235sg\263\233X\255?\300<\344A\010"
 237      5D6B1351 
 237      109D7367 
 237      B39B58AD 
 237      3FC03CE4 
 238 0016 7DC91A11 		.ascii	"}\311\032\021\324?\340\337\020\023\204D\304\226\006"
 238      D43FE0DF 
 238      10138444 
 238      C49606
 239 0025 9F731B95 		.ascii	"\237s\033\225T\352C\304v\205e\251\201\322\024)\242b"
 239      54EA43C4 
 239      768565A9 
 239      81D21429 
 239      A262
 240 0037 B446ABAE 		.ascii	"\264F\253\256A\212 \361\273 h\373\240\202PCAP\037,M"
 240      418A20F1 
 240      BB2068FB 
 240      A0825043 
 240      41501F2C 
 241 004c 9CBBB520 		.ascii	"\234\273\265 ]v\2713;\347\31493\327&\242\203\212\350"
 241      5D76B933 
 241      3BE7CC39 
 241      33D726A2 
 241      838AE8
 242 005f 889CFBE4 		.ascii	"\210\234\373\344\003\023T\355%\321X\\\001&\320qPY\241"
 242      031354ED 
 242      25D1585C 
 242      0126D071 
 242      5059A1
 243 0072 8C4B3CC9 		.ascii	"\214K<\311xs\376V\300\023\034\010\314\222\364G\307\377"
 243      7873FE56 
 243      C0131C08 
 243      CC92F447 
 243      C7FF
 244 0084 32685220 		.ascii	"2hR %iw}\251\271{hN\353\212\016\257\376\266\2575_\353"
 244      2569777D 
ARM GAS  C:\Users\AMANRA~1\AppData\Local\Temp\ccui46Te.s 			page 19


 244      A9B97B68 
 244      4EEB8A0E 
 244      AFFEB6AF 
 245 009b 44C08A3C 		.ascii	"D\300\212<\2017\221\304\035$\215\306]\014\011\370]g"
 245      813791C4 
 245      1D248DC6 
 245      5D0C09F8 
 245      5D67
 246 00ad B9E67016 		.ascii	"\271\346p\026$\361\225_\337C\225\236\215\210\237fX\357"
 246      24F1955F 
 246      DF43959E 
 246      8D889F66 
 246      58EF
 247 00bf 0F98710F 		.ascii	"\017\230q\017\374?Q~\021\026\220\026\370\306\304\262"
 247      FC3F517E 
 247      11169016 
 247      F8C6C4B2 
 248 00cf 97E04311 		.ascii	"\227\340C\021\365\362\267\271\036\376Q\237\315FT\013"
 248      F5F2B7B9 
 248      1EFE519F 
 248      CD46540B 
 249 00df F777522D 		.ascii	"\367wR-B+\242n\352Io\220\017G\324\257/fj\316\266j#\242"
 249      422BA26E 
 249      EA496F90 
 249      0F47D4AF 
 249      2F666ACE 
 250 00f7 2A3CD849 		.ascii	"*<\330IU\204\207H\033\374\347\333\275\251=\266e\306"
 250      55848748 
 250      1BFCE7DB 
 250      BDA93DB6 
 250      65C6
 251 0109 91291661 		.ascii	"\221)\026a\023$\270\3716\026\352^\277\252\303\237\015"
 251      1324B8F9 
 251      3616EA5E 
 251      BFAAC39F 
 251      0D
 252 011a F48FC9BA 		.ascii	"\364\217\311\272\002\216\311\362\304\252\005\243\032"
 252      028EC9F2 
 252      C4AA05A3 
 252      1A
 253 0127 8369E044 		.ascii	"\203i\340D\255h\\\270\262V\035\322EI%:\027\322\032*"
 253      AD685CB8 
 253      B2561DD2 
 253      4549253A 
 253      17D21A2A 
 254 013b 7FAA2B0B 		.ascii	"\177\252+\013\005\323\322g\210\222w\241\375\3121{\265"
 254      05D3D267 
 254      889277A1 
 254      FDCA317B 
 254      B5
 255 014c 23A38BED 		.ascii	"#\243\213\355\316\222]\307\364\230\326\272\336`\351"
 255      CE925DC7 
 255      F498D6BA 
 255      DE60E9
 256 015b E4F862F5 		.ascii	"\344\370b\365\221Y\247\224\337W?\254\016\2707\244\250"
 256      9159A794 
 256      DF573FAC 
ARM GAS  C:\Users\AMANRA~1\AppData\Local\Temp\ccui46Te.s 			page 20


 256      0EB837A4 
 256      A8
 257 016c 5301C7F1 		.ascii	"S\001\307\361\030uL\031\217\2468\337Y[\265\313\233\246"
 257      18754C19 
 257      8FA638DF 
 257      595BB5CB 
 257      9BA6
 258 017e 583F25CE 		.ascii	"X?%\316\360\004\256\270\017Q\246.\252\251-MG\200\255"
 258      F004AEB8 
 258      0F51A62E 
 258      AAA92D4D 
 258      4780AD
 259 0191 56F7A323 		.ascii	"V\367\243#\300x\300\011\217e2<\025\214\370\361\331\362"
 259      C078C009 
 259      8F65323C 
 259      158CF8F1 
 259      D9F2
 260 01a3 39268895 		.ascii	"9&\210\225\347\327\347\243\313\337\205\276<{\321F2\340"
 260      E7D7E7A3 
 260      CBDF85BE 
 260      3C7BD146 
 260      32E0
 261 01b5 015A4765 		.ascii	"\001ZGe\273\217\021\035\027\262\014&\303f2\031W\336"
 261      BB8F111D 
 261      17B20C26 
 261      C3663219 
 261      57DE
 262 01c7 7CA1982B 		.ascii	"|\241\230+\016\227\262G\263\007\334\341\222[8q\332-"
 262      0E97B247 
 262      B307DCE1 
 262      925B3871 
 262      DA2D
 263 01d9 8DE6CD79 		.ascii	"\215\346\315y\274tr\264(\307\331R.\223'U\034Q\271\021"
 263      BC7472B4 
 263      28C7D952 
 263      2E932755 
 263      1C51B911 
 264 01ed 9CF90BFA 		.ascii	"\234\371\013\372\027\306U"
 264      17C655
 265              		.text
 266              		.section	.gnu.lto__writet.c3bff927,"",%progbits
 267 0000 789C5D91 		.ascii	"x\234]\221Kk\023Q\024\307\357\177\316dfb5\037\240v\221"
 267      4B6B1351 
 267      14C7EF7F 
 267      CE646662 
 267      351FA076 
 268 0015 8510BAC9 		.ascii	"\205\020\272\311\030\020\244;w\372-\244\011\205D\324"
 268      1810A43B 
 268      77FA2DA4 
 268      098544D4 
 269 0025 944EBBCE 		.ascii	"\224N\273\316m\252\244R\225\210i\204a\250\201Z\003\212"
 269      6DAAA452 
 269      95886984 
 269      61A8815A 
 269      038A
 270 0037 A8181FD1 		.ascii	"\250\030\037\321j\307(\335H|\027DK\027>\020k(\212\217"
 270      6AC728DD 
ARM GAS  C:\Users\AMANRA~1\AppData\Local\Temp\ccui46Te.s 			page 21


 270      487C1744 
 270      4B173E10 
 270      6B288A8F 
 271 004b 42A5D173 		.ascii	"B\245\321s\307\010\022\230\3139g\316\377w\036\367\032"
 271      C7081298 
 271      CB3967CE 
 271      FF771EF7 
 271      1A
 272 005c 4288414D 		.ascii	"B\210AM\210=l\267\363\001\011h\305\307B\214[\032\240"
 272      883D6CB7 
 272      F3010968 
 272      C5C7428C 
 272      5B1AA0
 273 006f 1C6941E4 		.ascii	"\034iA\3444\344p\234J\204gG\256x4E\036\313t\016\277"
 273      34E4709C 
 273      4A846747 
 273      AE783445 
 273      1ECB740E 
 274 0084 36DD7711 		.ascii	"6\335w\021\025\002Q\016[k\213\265\255\375U)\363\322"
 274      1502510E 
 274      5B6B8BB5 
 274      ADFD5529 
 274      F3D2
 275 0096 3FF3DA3C 		.ascii	"?\363\332<[{*\303\036i\242\314\362\032\372p\015}\252"
 275      5B7B2AC3 
 275      1E69A2CC 
 275      F21AFA70 
 275      0D7DAA
 276 00a9 C775F4B3 		.ascii	"\307u\364\263\370Es\251hR\002\202\375\323?>\373Zl.\000"
 276      F84573A9 
 276      68520282 
 276      FDD33F3E 
 276      FB5A6C2E 
 277 00be 5BB32477 		.ascii	"[\263$wxD\270\001\372\037\344_\0027\021c\371\257\251"
 277      7844B801 
 277      FA1FE45F 
 277      02371163 
 277      F9AFA9
 278 00d1 A5729876 		.ascii	"\245r\230v\005\350\251\217\3256:\350\303\363\001\252"
 278      05E8A98F 
 278      D5363AE8 
 278      C3F301AA 
 279 00e1 E35637AA 		.ascii	"\343V7\252\013\324\003tS\226\312\021\332\035\240\357"
 279      0BD40374 
 279      5396CA11 
 279      DA1DA0EF 
 280 00f1 1FCD16CD 		.ascii	"\037\315\026\315\016\272\\\015P\015\267\273QM\340N\200"
 280      0EBA5C0D 
 280      500DB7BB 
 280      514DE04E 
 280      80
 281 0102 2E9F2C7D 		.ascii	".\237,}\210\320@\200~\371\264\276\021\351\240?gz\317"
 281      88D04080 
 281      7EF9B4BE 
 281      11E9A03F 
 281      677ACF
 282 0115 4DC87D1E 		.ascii	"M\310}\036\2050\337\015\207\004\356\"\246\210\267W\333"
ARM GAS  C:\Users\AMANRA~1\AppData\Local\Temp\ccui46Te.s 			page 22


 282      8530DF0D 
 282      8704EE22 
 282      A688B757 
 282      DB
 283 0126 D3DB0C5D 		.ascii	"\323\333\014]\335\005_\301=\030\002\354\\~\036\362e"
 283      DD055FC1 
 283      3D1802EC 
 283      5C7E1EF2 
 283      65
 284 0137 FB7741FA 		.ascii	"\373wA\372\337\347\360mo\030\314\030|\363\274\247\016"
 284      DFE7F06D 
 284      6F18CC18 
 284      7CF3BCA7 
 284      0E
 285 0148 357208AA 		.ascii	"5r\010\252\273\001U\306\012\246\021\223\\\201_F\372"
 285      BB0155C6 
 285      0AA61193 
 285      5C815F46 
 285      FA
 286 0159 E21887EC 		.ascii	"\342\030\207\354M\370b\025\371\215\302\211\205\264*"
 286      4DF86215 
 286      F98DC289 
 286      85B42A
 287 0168 EC12B85F 		.ascii	"\354\022\270_\371h\343\211\251\236\306\014\006\236o"
 287      F968E389 
 287      A99EC60C 
 287      069E6F
 288 0177 34178D0A 		.ascii	"4\027\215\012f\306\245\224\225\013\304\225,\227\267"
 288      66C6A594 
 288      950BC495 
 288      2C97B7
 289 0186 5D502FC2 		.ascii	"]P/\302\351\227\205W+=\366%N\312\250Ga\370\250`ZM\252"
 289      E9978557 
 289      2B3DF625 
 289      4ECAA847 
 289      61F8A860 
 290 019d 92179BAB 		.ascii	"\222\027\233\253+FnS%+\007x>\334\207\315;4\220\023-"
 290      2B466E53 
 290      252B0778 
 290      3EDC87CD 
 290      3B349013 
 291 01b2 14A27F7B 		.ascii	"\024\242\177{Z,\254\327[oL\026Z\036m)\023\357\207\007"
 291      5A2CACD7 
 291      5B6F4C16 
 291      5A1E6D29 
 291      13EF8707 
 292 01c6 ACE1795C 		.ascii	"\254\341y\\\322]\012\271dx\324#\326\220\377\307\250"
 292      D25D0AB9 
 292      6478D423 
 292      D690FFC7 
 292      A8
 293 01d7 06932CE4 		.ascii	"\006\223,\344%x\261x<n\363\227Jg\222\231\254\223\030"
 293      2578B178 
 293      3C6EF397 
 293      4A679299 
 293      AC9318
 294 01ea 48ECB4B3 		.ascii	"H\354\264\263\216\235\036<h;#)e\367;C#\0316cN2\236\022"
ARM GAS  C:\Users\AMANRA~1\AppData\Local\Temp\ccui46Te.s 			page 23


 294      8E9D1E3C 
 294      683B2329 
 294      65F73B43 
 294      23193663 
 295 0202 5A66584B 		.ascii	"ZfXK\016\343\2609\23294\224\035\033\375\003V\276\325"
 295      0EE3B039 
 295      9A393494 
 295      1D1BFD03 
 295      56BED5
 296 0215 C2       		.ascii	"\302"
 297              		.text
 298              		.section	.gnu.lto__write.c3bff927,"",%progbits
 299 0000 789C5D91 		.ascii	"x\234]\221Mk\023Q\024\206\317{\317d&\261Z\177\200Yd"
 299      4D6B1351 
 299      1486CF7B 
 299      CF6426B1 
 299      5A7F8059 
 300 0015 21846E32 		.ascii	"!\204n2F\004\365\017\3707\304\004!\021\261\245\203\353"
 300      4604F50F 
 300      F837C404 
 300      2111B1A5 
 300      83EB
 301 0027 DC462595 		.ascii	"\334F%\225\272\210\330\2160\014\032(%h\021\025S5Zu\314"
 301      BA88D88E 
 301      300C1A28 
 301      25681115 
 301      53355A75 
 302 003c A208123F 		.ascii	"\242\010\022?[\020\305.\264 \324P\020q\243&\365\334"
 302      5B10C52E 
 302      B420D450 
 302      1071A326 
 302      F5DC
 303 004e B1827498 		.ascii	"\261\202t\230\341\2363\347}\316\327\265\211h\277\":"
 303      E19E33E7 
 303      7DCED7B5 
 303      8968BF22 
 303      3A
 304 005f 24E71EF9 		.ascii	"$\347\036\371\300\004U\177A4\221T\2001t\022TQ\250\340"
 304      C004557F 
 304      41349154 
 304      80317412 
 304      5451A8E0 
 305 0073 024F335E 		.ascii	"\002O3^\237\275\025\362\024\207\"\263\304\375\326\015"
 305      9FBD15F2 
 305      148722B3 
 305      C4FDD60D 
 306 0083 3E0F1B17 		.ascii	">\017\033\027\310\210\333\333Xj\355\034ij]\325\321\345"
 306      C888DBDB 
 306      586AED1C 
 306      696A5DD5 
 306      D1E5
 307 0095 F7F6D5D6 		.ascii	"\367\366\325\326+\235\012Y\221/\362\026\322\270\203"
 307      2B9D0A59 
 307      912FF216 
 307      D2B883
 308 00a4 B4A9B180 		.ascii	"\264\251\261\200\021\021\277\355\256\324\035\316\203"
 308      1111BFED 
ARM GAS  C:\Users\AMANRA~1\AppData\Local\Temp\ccui46Te.s 			page 24


 308      AED41DCE 
 308      83
 309 00b1 C4BEF4E3 		.ascii	"\304\276\364\343k\244\262s1\2706\313zo\310\214\273\340"
 309      6BA4B273 
 309      31B836CB 
 309      7A6FC88C 
 309      BBE0
 310 00c3 FF41F945 		.ascii	"\377A\371E\270\207\254\310\177M\255\370)>\020\243\027"
 310      B887ACC8 
 310      7F4DADF8 
 310      293E10A3 
 310      17
 311 00d4 BF3407D8 		.ascii	"\2774\007\330B\177\317\305\250\205\373\333Q\213\320"
 311      427FCFC5 
 311      A885FBDB 
 311      518BD0
 312 00e3 8ED1BE9E 		.ascii	"\216\321\276\236\366\207\371`\214\256=\237\255;[\350"
 312      F687F960 
 312      8CAE3D9F 
 312      AD3B5BE8 
 313 00f3 72334615 		.ascii	"r3F\025\036lG\025\341!\262F\377\351\366`f\227m\231q"
 313      1E6C4715 
 313      E121B246 
 313      FFE9F660 
 313      66976D99 
 314 0108 648A45D8 		.ascii	"d\212E\330\0041n\276IDz\260Y\323Q\257\211\357Gd]!'d"
 314      04316EBE 
 314      49447AB0 
 314      59D351AF 
 314      89EF4764 
 315 0120 79D2AA05 		.ascii	"y\322\252\005S5\001\223\300\211S\321\244\260\262V\035"
 315      53350193 
 315      C08953D1 
 315      A4B0B256 
 315      1D
 316 0131 D17971C5 		.ascii	"\321yq\305:\023\321:\252?k\375\205\222I\0310\244\222"
 316      3A13D13A 
 316      AA3F6BFD 
 316      85924919 
 316      30A492
 317 0144 7FAEF3D2 		.ascii	"\177\256\363\3221{\265\343F\027;\335%\273\201+\023Z"
 317      317BB5E3 
 317      46173BDD 
 317      25BB812B 
 317      135A
 318 0156 EBC67596 		.ascii	"\353\306u\226LN \255>2\353\224\360r\355\335\352\220"
 318      4C4E20AD 
 318      3E32EB94 
 318      F072EDDD 
 318      EA90
 319 0168 7B43823A 		.ascii	"{C\202:\023r\022\217\321\300\214\351\321\004\347\273"
 319      1372128F 
 319      D1C08CE9 
 319      D104E7BB 
 320 0178 EBAB76A5 		.ascii	"\353\253v\245o\202\215\023\322\031\236\300\225\356#"
 320      6F828D13 
 320      D2199EC0 
ARM GAS  C:\Users\AMANRA~1\AppData\Local\Temp\ccui46Te.s 			page 25


 320      95EE23
 321 0187 54A8875A 		.ascii	"T\250\207Z\346oMG\204\355v\357\203#\302d\310)\237e2"
 321      E66F4D47 
 321      84ED76EF 
 321      8323C264 
 321      C8299F65 
 322 019c 3C158DF4 		.ascii	"<\025\215\364\023\260\025pB\024\037\237]\233\217/\177"
 322      13B01570 
 322      42141F9F 
 322      5D9B8F2F 
 322      7F
 323 01ad 0736E5D9 		.ascii	"\0076\345\331\215\016\322!\017\321\006\252\377\362\230"
 323      8D0ED221 
 323      0FD106AA 
 323      FFF298
 324 01bc A29302CB 		.ascii	"\242\223\002\313`2l.\227s\345-\226\312\205\362\250\227"
 324      60326C2E 
 324      9773E52D 
 324      96CA85F2 
 324      A897
 325 01ce 3F9CDFE7 		.ascii	"?\234\337\347\216zn\351\330I\327\033/\232\363\250w|"
 325      8E7A6EE9 
 325      D849D71B 
 325      2F9AF3A8 
 325      777C
 326 01e0 BC2CC769 		.ascii	"\274,\307i\257\220+\222*\217\251\302\030N\375\001/0"
 326      AF902B92 
 326      2A8FA9C2 
 326      184EFD01 
 326      2F30
 327 01f2 C681     		.ascii	"\306\201"
 328              		.text
 329              		.section	.gnu.lto__gett.c3bff927,"",%progbits
 330 0000 789C5D50 		.ascii	"x\234]POk\023q\020\235\267\263\335M\025\363\005\354"
 330      4F6B1371 
 330      109DB7B3 
 330      DD4D15F3 
 330      05EC
 331 0012 218742E8 		.ascii	"!\207B\350%k\300\213\370\001\374\030bC!+\226H\267=\347"
 331      256BC08B 
 331      F801FC18 
 331      6243212B 
 331      9648B73D 
 332 0027 D7D4928A 		.ascii	"\327\324\222\212\"\005\333\010a)A\211\036\244\330b\375"
 332      2205DB08 
 332      61294189 
 332      1EA4D862 
 332      FD
 333 0038 134D74E9 		.ascii	"\023Mt\351\301[\264j\245\202\322\203\177\016\326 z\020"
 333      C15BB46A 
 333      A582D283 
 333      7F0ED620 
 333      7A10
 334 004a A160F5FD 		.ascii	"\241`\365\375R\005q\331efv\336\233y\363<\021\331\202"
 334      520571D9 
 334      656676DE 
 334      9B79F33C 
ARM GAS  C:\Users\AMANRA~1\AppData\Local\Temp\ccui46Te.s 			page 26


 334      11D982
 335 005d C871C6C3 		.ascii	"\310q\306\303\374\240\002g\376\251\310t\312\001lbR\220"
 335      FCA00267 
 335      FEA9C874 
 335      CA016C62 
 335      5290
 336 006f B283322E 		.ascii	"\262\2032.\352\202\342\371\271\225X/hL\230\313\362["
 336      EA82E2F9 
 336      B995582F 
 336      684C98CB 
 336      F25B
 337 0081 B7FE3E6D 		.ascii	"\267\376>mK \303\262\331\231ic\344\206\341\223\\\331"
 337      4B20C3B2 
 337      D9996963 
 337      E486E193 
 337      5CD9
 338 0093 F097D636 		.ascii	"\360\227\3266\314`\254\216\324\010_\303\020nc\310\356"
 338      CC60AC8E 
 338      D4085FC3 
 338      106E63C8 
 338      EE
 339 00a4 B8831182 		.ascii	"\270\203\021\202_v_\315\373\232\2070\277\374\375s\342"
 339      5F765FCD 
 339      FB9A8730 
 339      BFFCFD73 
 339      E2
 340 00b5 649BC654 		.ascii	"d\233\306TL\262yM\315p\254\212\273\320\177\211\374%"
 340      4CB2794D 
 340      CD70AC8A 
 340      BBD07F89 
 340      FC25
 341 00c7 B8872CE1 		.ascii	"\270\207,\341o/-|L\353\321>\365\353\247\037\273\351"
 341      6F2F2D7C 
 341      4CEBD13E 
 341      F5EBA71F 
 341      BBE9
 342 00d9 3FD40FCD 		.ascii	"?\324\017\315>\325\305\375\377\251\256\240\205\254\305"
 342      3ED5C5FD 
 342      FFA9AEA0 
 342      85ACC5
 343 00e8 BF5BDD5B 		.ascii	"\277[\335[<\344\271V\023\245<\200'<_n\275\030H\314\336"
 343      3CE4B956 
 343      13A53C80 
 343      273C5F6E 
 343      BD1848CC 
 344 00fd AFAA497A 		.ascii	"\257\252Iz\327\261u\302\0079\003t\200\373\\X\252'\366"
 344      D7B175C2 
 344      07390374 
 344      80FB5C58 
 344      AA27F6
 345 0110 1099238B 		.ascii	"\020\231#\213\256\230D\316\263d6\223\310\016*\273\325"
 345      AE9844CE 
 345      B3643693 
 345      C80E2ABB 
 345      D5
 346 0121 E54ED10E 		.ascii	"\345N\321\016\253+\270\2436\273\376\314\267\266x}\211"
 346      AB2BB8A3 
ARM GAS  C:\Users\AMANRA~1\AppData\Local\Temp\ccui46Te.s 			page 27


 346      36BBFECC 
 346      B7B6787D 
 346      89
 347 0132 EDF5EE13 		.ascii	"\355\365\356\023\257\201\245i\372\322\270\252\234\344"
 347      AF81A569 
 347      FAD2B8AA 
 347      9CE4
 348 0140 D7D5C143 		.ascii	"\327\325\301C\353\006\333\233\325\327\333\007\203e\353"
 348      EB06DB9B 
 348      D5D7DB07 
 348      8365EB
 349 014f 5A26D614 		.ascii	"Z&\326\024\332h`\321\252\263\315\233\335\235m\257\374"
 349      DA6860D1 
 349      AAB3CD9B 
 349      DD9D6DAF 
 349      FC
 350 0160 D3361BA7 		.ascii	"\3236\033\247\251\011\035\004\324\375\010e\351a6\263"
 350      A9091D04 
 350      D4FD0865 
 350      E96136B3 
 351 0170 BFD323B0 		.ascii	"\277\323#\260\325\352\275\361\011L\305:XS\336\204\307"
 351      D5EABDF1 
 351      094CC53A 
 351      5853DE84 
 351      C7
 352 0181 C4504F5D 		.ascii	"\304PO]\335X\017\310\027T\376\242\355\3509B(\237'\345"
 352      DD580FC8 
 352      1754FEA2 
 352      EDE83942 
 352      289F27E5 
 353 0195 72B9806F 		.ascii	"r\271\200o\241\030\216\206\245(\177,\177$(EA\361\324"
 353      A1188E86 
 353      A5287F2C 
 353      7F242845 
 353      41F1D4
 354 01a8 99209A28 		.ascii	"\231 \232(\330x2\032\233\010\031\246\242\321\\A\234"
 354      D878321A 
 354      9B0819A6 
 354      A2D15C41 
 354      9C
 355 01b9 F0AC3F19 		.ascii	"\360\254?\031\216\217\225\246&\177\003\031\301\253\020"
 355      8E8F95A6 
 355      267F0319 
 355      C1AB10
 356              		.text
 357              		.section	.gnu.lto__get.c3bff927,"",%progbits
 358 0000 789C4D50 		.ascii	"x\234MP\301J\033Q\024\275gn2\023[\264\037`\026Y\024"
 358      C14A1B51 
 358      14BD676E 
 358      32135BB4 
 358      1F601659 
 359 0015 C44DA6A1 		.ascii	"\304M\246\241+\277\300\317\020\015B\"\005\213\203\353"
 359      2BBFC0CF 
 359      100D4222 
 359      058B83EB 
 360 0025 3C63254A 		.ascii	"<c%J+\010\326\0102HPDT\304\212\33265\312\340B\\4m\265"
 360      2B08D608 
ARM GAS  C:\Users\AMANRA~1\AppData\Local\Temp\ccui46Te.s 			page 28


 360      32485044 
 360      54C48ADA 
 360      3635CAE0 
 361 003e 0A855217 		.ascii	"\012\205R\027v\247Ap\321M\241\352y\212\320\307<\356"
 361      76A74170 
 361      D14DA1EA 
 361      798AD0C7 
 361      3CEE
 362 0050 BDEF9E7B 		.ascii	"\275\357\236{\3569\343\212\3102D\2363\266\362B\005\316"
 362      EE39E38A 
 362      C832449E 
 362      33B6F242 
 362      05CE
 363 0062 C41791A1 		.ascii	"\304\027\221\241\204\003\330\304$ \005\007\005\274\321"
 363      8403D8C4 
 363      24200507 
 363      05BCD1
 364 0071 B78AC357 		.ascii	"\267\212\303W\357B}\255!a1\226W\365\231\337-\266\004"
 364      EF427DAD 
 364      21613196 
 364      57F599DF 
 364      2DB604
 365 0084 522C1776 		.ascii	"R,\027v\206kh_4<\321t\350\315n~3M\241:R&|\023Il iwl"
 365      866B685F 
 365      343CD174 
 365      E8CD6E7E 
 365      334DA13A 
 366 00a2 A19DE0EF 		.ascii	"\241\235\340\357\365\223\011O3\020\346\223\177.\"\247"
 366      F593094F 
 366      3310E693 
 366      7F2E22A7 
 367 00b2 6DC198A2 		.ascii	"m\301\230\242\211>\317\253y\032\252\342=\364\377A>\011"
 367      893ECFAB 
 367      791AAAE2 
 367      3DF4FF41 
 367      3E09
 368 00c4 3EA0CDE2 		.ascii	">\240\315\342\317\326\257\247\232\335\230%&\337G\270"
 368      CFD6AFA7 
 368      9ADD9825 
 368      26DF47B8 
 369 00d4 420FB276 		.ascii	"B\017\262v\024\217\314\365M\311D\215ylt\272\340L\214"
 369      148FCCF5 
 369      4DC9448D 
 369      796C74BA 
 369      E04C8C
 370 00e7 36381417 		.ascii	"68\024\027\253CF\211\247)\023\311\030Kf\303\221\234"
 370      AB434689 
 370      A72913C9 
 370      184B66C3 
 370      919C
 371 00f9 A3F8B734 		.ascii	"\243\370\2674\276\235\26343\012\262\227G\366\276z\326"
 371      BE9DB334 
 371      330AB297 
 371      47F6BE7A 
 371      D6
 372 010a 55FC4E5C 		.ascii	"U\374N\\m\257\276\357V0;D[\2259%\023q\016\252\326\014"
 372      6DAFBEEF 
ARM GAS  C:\Users\AMANRA~1\AppData\Local\Temp\ccui46Te.s 			page 29


 372      56303B44 
 372      5B953925 
 372      13710EAA 
 373 0120 DBC7A51F 		.ascii	"\333\307\245\037\247\217\375Uk:\025\252\207O\250`\312"
 373      A78FFD55 
 373      6B3A15AA 
 373      874FA860 
 373      CA
 374 0131 EAB2CD95 		.ascii	"\352\262\315\225\372\371\251[\370g\233\225>\252\301"
 374      FAF9A95B 
 374      F8679B95 
 374      3EAAC1
 375 0140 367C2AAE 		.ascii	"6|*\256\241 \015\214\244\356w\306\011\254V\033?=\002"
 375      A1200D8C 
 375      A4EE77C6 
 375      09AC561B 
 375      3F3D02
 376 0153 13A126CA 		.ascii	"\023\241&\312J7\330!\346^\317\257\203\245\225\273\237"
 376      4A37D821 
 376      E65ECFAF 
 376      83A595BB 
 376      9F
 377 0164 DE841B9E 		.ascii	"\336\204\033\236'\330E2\324Gr\211\342\003\203]7\312"
 377      27D84532 
 377      D4477289 
 377      E203835D 
 377      37CA
 378 0176 315AA2CD 		.ascii	"1Z\242\315t:\355\363\313\346\362=\371\376 \323\221y"
 378      743AEDF3 
 378      CBE6F23D 
 378      F9FE20D3 
 378      9179
 379 0188 E6F7077E 		.ascii	"\346\367\007~\256\373\205\037\014dm\354\012z\007\362"
 379      AEFB851F 
 379      0C646DEC 
 379      0A7A07F2 
 380 0198 0C83414F 		.ascii	"\014\203AO:+N\376\345-\340\007\234F"
 380      3A2B4EFE 
 380      E52DE007 
 380      9C46
 381              		.text
 382              		.section	.gnu.lto__putt.c3bff927,"",%progbits
 383 0000 789C5D50 		.ascii	"x\234]P\315k\023q\020\235\267\263_\265\232\263b\016"
 383      CD6B1371 
 383      109DB7B3 
 383      5FB59AB3 
 383      620E
 384 0012 3908A197 		.ascii	"9\010\241\227l\203\"x\360o\021\023\012YQ\"\335\366\234"
 384      6C832278 
 384      F06F1113 
 384      0A595122 
 384      DDF69C
 385 0025 5FD3DA54 		.ascii	"_\323\332T\024)\264\215\260,%(UPD\305Z\215Mu-E\004\211"
 385      1429B48D 
 385      B02C2528 
 385      555044C5 
 385      5A8D4D75 
ARM GAS  C:\Users\AMANRA~1\AppData\Local\Temp\ccui46Te.s 			page 30


 386 003d 9F15C48F 		.ascii	"\237\025\304\217\036\224\036\254E\024\324B\321\352\374"
 386      1E941EAC 
 386      4514D442 
 386      D1EAFC
 387 004c B616C465 		.ascii	"\266\026\304e\227\231\331yo\336\314\263\211h\227AtP"
 387      9799D979 
 387      6FDECCB3 
 387      89689741 
 387      7450
 388 005e E26EF9C0 		.ascii	"\342n\371\300\004c\3641\321\200k\000:Q.\250b\240\202"
 388      0463F431 
 388      D1806B00 
 388      3A512EA8 
 388      62A082
 389 0071 D33CCE78 		.ascii	"\323<\316x6t-\342S\034\011\314\224\362k;\374\220\322"
 389      36742DE2 
 389      531C09CC 
 389      94F26B3B 
 389      FC90D2
 390 0084 25909172 		.ascii	"%\220\221rjn\260\205\256\213J\236\370\354\21439\375"
 390      6A6EB085 
 390      AE8B4A9E 
 390      F8EC8C33 
 390      39FD
 391 0096 5475446C 		.ascii	"TuDlP]\340\323H\343\006\322Z\343&\272\004\374\242\375"
 391      505DE0D3 
 391      48E306D2 
 391      5AE326BA 
 391      04FCA2FD 
 392 00aa 72D4E13C 		.ascii	"r\324\341<H\362\261\357\237b#;\245TU\305\213\347Y\355"
 392      48F2B1EF 
 392      9F62233B 
 392      A55455C5 
 392      8BE759ED 
 393 00be 89983103 		.ascii	"\211\2301\003\376\227(\277\010\267\220\025x4|i\231y"
 393      FE9728BF 
 393      08B79015 
 393      78347C69 
 393      9979
 394 00d0 5F427DF4 		.ascii	"_B}\364\343\341\302\026\365\333\020\253\355\021\233"
 394      E3E1C216 
 394      F5DB10AB 
 394      ED119B
 395 00df B8BD49DD 		.ascii	"\270\275I\335\233F\267&\232\204fB|{f|9\305\373\023\342"
 395      9B46B726 
 395      9A846642 
 395      7C7B667C 
 395      39C5FB13 
 396 00f4 978F6BEB 		.ascii	"\227\217k\353\251\277\304\237\027\022M\013w\376\327"
 396      A9BFC49F 
 396      17124D0B 
 396      77FED7
 397 0103 B408B3C8 		.ascii	"\264\010\263\310j\374\373\353\033\023;lS\037#7\264`"
 397      6AFCFBEB 
 397      1B133B6C 
 397      531F2337 
 397      B460
ARM GAS  C:\Users\AMANRA~1\AppData\Local\Temp\ccui46Te.s 			page 31


 398 0115 1324B9FA 		.ascii	"\023$\271\372\334\212\325\306\357\232\212\027v\276^"
 398      DC8AD5C6 
 398      EF9A8A17 
 398      76BE5E
 399 0124 73C5AC88 		.ascii	"s\305\254\210m\261N\0265\241U-\350\001\016i\037hD\270"
 399      6DB14E16 
 399      35A1552D 
 399      E8010E69 
 399      1F6844B8 
 400 0138 62AA8AE9 		.ascii	"b\252\212\351\244\224\222\015\306\264\202\352z\355\335"
 400      A494920D 
 400      C6B482EA 
 400      7AEDDD
 401 0147 6C498F0C 		.ascii	"lI\217\014\031\242T?1\377\304\321\256:\311\242\255\371"
 401      19A2543F 
 401      31FFC4D1 
 401      AE3AC9A2 
 401      ADF9
 402 0159 F603BB81 		.ascii	"\366\003\273\201\311\001\261\265q\216e\222\033\262\201"
 402      C901B1B5 
 402      718E6592 
 402      1BB281
 403 0168 396DA6B4 		.ascii	"9m\246\264\027k\257\226:\275+\332\364L\304\035\270\213"
 403      176BAF96 
 403      3ABD2BDA 
 403      F44CC41D 
 403      B88B
 404 017a 0626F48E 		.ascii	"\006&\364\216\272y\271\275\262dW~\351f\343\210l\206"
 404      BA79B9BD 
 404      B264577E 
 404      E966E388 
 404      6C86
 405 018c 7BF064FB 		.ascii	"{\360d\373\030\025Z\305pfS\323\021`\263\271\372\306"
 405      18155AC5 
 405      706653D3 
 405      1160B3B9 
 405      FAC6
 406 019e 11A01BF1 		.ascii	"\021\240\033\361\266:\313e\270/\030\331'd3d+\342N\372"
 406      B63ACB65 
 406      B82F18D9 
 406      27643364 
 406      2BE24EFA 
 407 01b2 8CEA1641 		.ascii	"\214\352\026AO\037\021\224\\ W\345r9O\336b\311/\370"
 407      4F1F1194 
 407      5C2057E5 
 407      72394FDE 
 407      62C92FF8 
 408 01c6 E5207F20 		.ascii	"\345 \177 \337\355\225\003\257t\370\250\027\364\026"
 408      DFED9503 
 408      AF74F8A8 
 408      17F416
 409 01d5 753C14F4 		.ascii	"u<\024\364\364\372\022\372\203B\256H\206\177\034\005"
 409      F4FA12FA 
 409      8342AE48 
 409      867F1C05 
 410 01e5 A7CF3FD6 		.ascii	"\247\317?\326S\356\357\373\003\037\001\275\266"
 410      53EEEFFB 
ARM GAS  C:\Users\AMANRA~1\AppData\Local\Temp\ccui46Te.s 			page 32


 410      031F01BD 
 410      B6
 411              		.text
 412              		.section	.gnu.lto__put.c3bff927,"",%progbits
 413 0000 789C4D51 		.ascii	"x\234MQMkSQ\020\235\363\346\365\275\324\372\361\003"
 413      4D6B5351 
 413      109DF3E6 
 413      F5BDD4FA 
 413      F103
 414 0012 CC220B21 		.ascii	"\314\"\013!t\223\327\240.\374\005\376\0141AHD\250\364"
 414      7493D7A0 
 414      2EFC05FE 
 414      0C314148 
 414      44A8F4
 415 0025 E13AB769 		.ascii	"\341:\267im*\272(j#\206K\011J\020-\242b\375\210&\372"
 415      6D2ABA28 
 415      6A23864B 
 415      094A102D 
 415      A262FD88 
 416 003b 28450A1A 		.ascii	"(E\012\032\277\005A\354BqS\203\340B\027\202\255\347"
 416      BF0541EC 
 416      42715383 
 416      E0421782 
 416      ADE7
 417 004d A614BCDC 		.ascii	"\246\024\274\334\307\314\2749g\346\314\334@D\372\020"
 417      C7CCBC39 
 417      67E6CCDC 
 417      4044FA10 
 418 005d 3948BB97 		.ascii	"9H\273\227\037T\340\315\275\024\231Ly\200sL\012R\361"
 418      1F54E0CD 
 418      BD14994C 
 418      7980734C 
 418      0A52F1
 419 0070 50C139BD 		.ascii	"P\3019\275\250x3}\333\352Y\265\204\371\014\177\366\032"
 419      A878337D 
 419      DBEA59B5 
 419      84F90C7F 
 419      F61A
 420 0082 5F77BB10 		.ascii	"_w\273\020\3100lu\247:\030\275fx\222K\347\303\205\245"
 420      C8306C75 
 420      A73A18BD 
 420      6678924B 
 420      E7C385A5 
 421 0096 D766D8AA 		.ascii	"\327f\330\252'u\302\227\220\306]\244]\217{\030%\370"
 421      2775C297 
 421      90C65DA4 
 421      5D8F7B18 
 421      25F8
 422 00a8 5DEFC35C 		.ascii	"]\357\303\\\250y\010\375\013\277\276'^\266eL\325$/\256"
 422      A87908FD 
 422      0BBFBE27 
 422      5EB6654C 
 422      D5242FAE 
 423 00bc AAD96755 		.ascii	"\252\331gUq\037\372?\221\277\004\017\220%\334\316\334"
 423      711FFA3F 
 423      91BF040F 
 423      9025DCCE 
ARM GAS  C:\Users\AMANRA~1\AppData\Local\Temp\ccui46Te.s 			page 33


 423      DC
 424 00cd F8A67A60 		.ascii	"\370\246z`@}\376{ue\233\332\237V\263\323\252\217\207"
 424      407DFE7B 
 424      75659BDA 
 424      9F56B3D3 
 424      AA8F87
 425 00e0 5BD4FD69 		.ascii	"[\324\375i\2149\242/h#\353\320_\356l\314\357\012|\247"
 425      8C39A22F 
 425      6823EBD0 
 425      5FEE6CCC 
 425      EF0A7CA7 
 426 00f4 88421E21 		.ascii	"\210B\036!\020\016/\267\336\016%fc\263f\222\225\026"
 426      100E2FB7 
 426      DE0E2566 
 426      63B36692 
 426      9516
 427 0106 2E1F0E41 		.ascii	".\037\016A\316\020\347g7\037\216\032\210\033Cf\311\342"
 427      CE10E767 
 427      371F8E1A 
 427      881B4366 
 427      C9E2
 428 0118 4E4C2267 		.ascii	"NL\"g\030\322\233Jd\035\325?\265n\273\344\2125\024\354"
 428      18D29B4A 
 428      641DD53F 
 428      B56EBBE4 
 428      8A3514EC 
 429 012c 513FBDFC 		.ascii	"Q?\275\374*tK\011\006\002;\313\275gA\023\013\223\334"
 429      2A744B09 
 429      06023BCB 
 429      BD674113 
 429      0B93DC
 430 013f 4AF38AB2 		.ascii	"J\363\212\262R\330P\017\217\335.\230~_\373\2706\022"
 430      52D8500F 
 430      8FDD2E98 
 430      7E5FFBB8 
 430      3612
 431 0151 DD743BCB 		.ascii	"\335t;\313XM\241\203&\346\235:\227\\\354\255\257\005"
 431      584DA183 
 431      26E69D3A 
 431      975CECAD 
 431      AF05
 432 0163 95BF2ED9 		.ascii	"\225\277.\331<NM\350\"\242\356'\250\360\325f2[=\003"
 432      3C4E4DE8 
 432      22A2EE27 
 432      A8F0D566 
 432      325B3D03 
 433 0177 02DBEDFE 		.ascii	"\002\333\355\376\247\220\300\224\325\341\272r&<%\206"
 433      A790C094 
 433      D5E1BA72 
 433      263C2586 
 434 0187 7A1AEADE 		.ascii	"z\032\352\336\351\363\352\365\305\301\263\355\300&\317"
 434      E9F3EAF5 
 434      C5C1B3ED 
 434      C026CF
 435 0196 1E24485B 		.ascii	"\036$H[\035\221\037\250n\027q\035g\311\344T\2344\227"
 435      1D911FA8 
 435      6E17711D 
ARM GAS  C:\Users\AMANRA~1\AppData\Local\Temp\ccui46Te.s 			page 34


 435      67C9E454 
 435      9C3497
 436 01a9 CB45BCC5 		.ascii	"\313E\274\305R\271P\036\217\363\207\362c\321x\034\225"
 436      52B9501E 
 436      8FF387F2 
 436      63D1781C 
 436      95
 437 01ba 8E9E88E2 		.ascii	"\216\236\210\342\211\242\263G\342c\023e\232Sq!W\024"
 437      89A2B347 
 437      E2631365 
 437      9A537121 
 437      5714
 438 01cc AF7C1285 		.ascii	"\257|\022\205\177\201b\257\215"
 438      7F8162AF 
 438      8D
 439              		.text
 440              		.section	.gnu.lto_sdu_start_receive.part.0.c3bff927,"",%progbits
 441 0000 789C8D52 		.ascii	"x\234\215R\337KTA\030\235s\277{\357\256\272n\331S\017"
 441      DF4B5441 
 441      189D73BF 
 441      7BEFAEBA 
 441      6ED9530F 
 442 0014 4B182422 		.ascii	"K\030$\"\310\256\022\005B\377K\244&\012\201\341\342"
 442      C8AE1205 
 442      42FF4BA4 
 442      260A81E1 
 442      E2
 443 0025 F38EBAB2 		.ascii	"\363\216\272\262\212=H\344\026\353%V\"#$J\312\312\037"
 443      8A3D48E4 
 443      16EB2556 
 443      2223244A 
 443      CACA1F
 444 0038 95A95966 		.ascii	"\225\251Yf\246I\220\030\211$\026\211$FH\010Z\3377\273"
 444      A6499018 
 444      89241689 
 444      24464808 
 444      5ADF37BB 
 445 004c 94F6E465 		.ascii	"\224\366\344ew\276\231\271g\3169\337\271\343*\245\022"
 445      77BE99B9 
 445      67CE39DF 
 445      B9E32AA5 
 445      12
 446 005d A45405D7 		.ascii	"\244T\005\3273\374\207\253\340t\276\345\211\003\313"
 446      33FC87AB 
 446      E074BEE5 
 446      8903CB
 447 006c 54CBB27B 		.ascii	"T\313\262{\216+\235K\033\245J\007\010\266\3546\371m"
 447      8E2B9D4B 
 447      1BA54A07 
 447      08B6EC36 
 447      F96D
 448 007e 4026DA0F 		.ascii	"@&\332\017\025s,\262\021\303%\272B\350j\037\376\220"
 448      15732CB2 
 448      11C325BA 
 448      42E86A1F 
 448      FE90
 449 0090 5F724BEB 		.ascii	"_rK\353f=zu\361TSK\353Q\217\371\223\244p2\204\262\220"
ARM GAS  C:\Users\AMANRA~1\AppData\Local\Temp\ccui46Te.s 			page 35


 449      663D7A75 
 449      F154534B 
 449      EB518FF9 
 449      93A47032 
 450 00a7 68DC4709 		.ascii	"h\334G\011#\337\305\357y\324A\036\0016/7gR+AYZ(\344"
 450      23DFC5EF 
 450      79D4411E 
 450      01362F37 
 450      67522B41 
 451 00bf A5B7BC79 		.ascii	"\245\267\274y;H\345P<\237\235\353\236\317)\276i8'zI"
 451      3B48E550 
 451      3C9F9DEB 
 451      9ECF29BE 
 451      6938277A 
 452 00d4 9FF088F0 		.ascii	"\237\360\210\360\020$\244\003\010\341\001B\212\267\024"
 452      1024A403 
 452      08E10142 
 452      8AB714
 453 00e3 1EA158F0 		.ascii	"\036\241X\360}?w\246m:m\316\016\317\367l\240\350\206"
 453      7D3F77A6 
 453      6D3A6DCE 
 453      0ECFF76C 
 453      A0E886
 454 00f6 39BB3549 		.ascii	"9\2735I)=\032/\364\330\356\343\375\307\345a\364\347"
 454      293D1A2F 
 454      F4D8EEE3 
 454      FDC7E561 
 454      F4E7
 455 0108 FEDDAE7C 		.ascii	"\376\335\256|\327\306 \212\214\345!\311\303\014l[v\357"
 455      D7C6208A 
 455      8CE521C9 
 455      C30C6C5B 
 455      76EF
 456 011a CE3B5AEF 		.ascii	"\316;Z\357\376Nh\275]\\\020\000D\322bq\207\301\374\332"
 456      FE4E68BD 
 456      5D5C1000 
 456      44D26271 
 456      87C1FCDA 
 457 012e E6A9EBF0 		.ascii	"\346\251\353\360\340sy\360\373\224\364\256\332x\220"
 457      E07379F0 
 457      FB94F4AE 
 457      DA7890
 458 013d B0DAC891 		.ascii	"\260\332\310\221J\355d\231\272\206\346\355\304\247\376"
 458      4AED6499 
 458      BA86E6ED 
 458      C4A7FE
 459 014c 6A514891 		.ascii	"jQH\221\305\372\311\326\261Y\237\204@\306\374\310\330"
 459      C5FAC9D6 
 459      B1599F84 
 459      40C6FCC8 
 459      D8
 460 015d CCA49BC6 		.ascii	"\314\244\233\306ux\224\223\342\234\206\305)\357\277"
 460      75789493 
 460      E29C86C5 
 460      29EFBF
 461 016c 4F2C2CE5 		.ascii	"O,,\345E\356h~\322\275\226G\271\030A\032]\224\355\242"
 461      45EE687E 
ARM GAS  C:\Users\AMANRA~1\AppData\Local\Temp\ccui46Te.s 			page 36


 461      D2BD9647 
 461      B918411A 
 461      5D94EDA2 
 462 0180 6F666DC9 		.ascii	"ofm\311\215\355\230\3275\354\015O\020a\377O\021S\353"
 462      8DED98D7 
 462      35EC0D4F 
 462      1061FF4F 
 462      1153EB
 463 0193 88A78F65 		.ascii	"\210\247\217e\364\344k\015\016\256\177\3641\322\357"
 463      F4E46B0D 
 463      0EAE7FF4 
 463      31D2EF
 464 01a2 515E92A4 		.ascii	"Q^\222\244\311g\014b/\036\005\324\0274\027\012T\032"
 464      C9670C62 
 464      2F1E05D4 
 464      1734170A 
 464      541A
 465 01b4 63B85A45 		.ascii	"c\270ZE|q|\353Z\340\337\361\277vm(\214fclg\350F\251"
 465      7C717CEB 
 465      5AE0DFF1 
 465      BF766D28 
 465      8C66636C 
 466 01cc 3437F4AD 		.ascii	"47\364\255\273%\230A\333\007\353\206?\215\213\347\246"
 466      BB259841 
 466      DB07EB86 
 466      3F8D8BE7 
 466      A6
 467 01dd 17C84D19 		.ascii	"\027\310M\031c\343B4E\031\032g\257\250\373\177F\371"
 467      63E34234 
 467      45191A67 
 467      AFA8FB7F 
 467      46F9
 468 01ef AC83F12C 		.ascii	"\254\203\361,\353f\307\345\0050k\247a\015b\302\260Z"
 468      EB66C7E5 
 468      05306BA7 
 468      610D62C2 
 468      B05A
 469 0201 C2FA22CB 		.ascii	"\302\372\"\313\232\223!u\017\314r\010\223\206E\202\306"
 469      9A932175 
 469      0FCC7208 
 469      93864582 
 469      C6
 470 0212 4B665947 		.ascii	"KfYG\302D\244\366gy8)Bxe\262tX!\023\327\217\325\246"
 470      C244A4F6 
 470      67793829 
 470      427865B2 
 470      74582113 
 471 022a 5F96382F 		.ascii	"_\2268/\200\2660\205\220GGL`\266\271\016\337a1\334\307"
 471      80B63085 
 471      9047474C 
 471      60B6B90E 
 471      DF6131DC 
 472 023f 3B5BF031 		.ascii	";[\3601| \361\246?W\340|\365\360\032!k{e\031{\003\340"
 472      7C20F1A6 
 472      3F57E07C 
 472      F5F01A21 
 472      6B7B6519 
ARM GAS  C:\Users\AMANRA~1\AppData\Local\Temp\ccui46Te.s 			page 37


 473 0256 5B896984 		.ascii	"[\211i\204h\361\353\034\370rAXX7\034\016G\370WU[WYW"
 473      68F1EB1C 
 473      F8724158 
 473      58371C0E 
 473      47F85755 
 474 026e 1F2DAF28 		.ascii	"\037-\257(/\213\324G#\265\347.D\242\015UR\317F\3177"
 474      2F8BD447 
 474      23B5E72E 
 474      44A20D55 
 474      52CF46CF 
 475 0283 D471698C 		.ascii	"\324qi\214V\206\253\224\035\255n\274H\225\2155\177\000"
 475      5686AB94 
 475      1DAD6EBC 
 475      48958D35 
 475      7F00
 476 0295 4D532AC8 		.ascii	"MS*\310"
 477              		.text
 478              		.section	.gnu.lto_sdu_start_receive.c3bff927,"",%progbits
 479 0000 789C9553 		.ascii	"x\234\225S[KTQ\024\336\337\331\347\234\2719\343\330"
 479      5B4B5451 
 479      14DEDFD9 
 479      E79CB939 
 479      E3D8
 480 0012 057A18C9 		.ascii	"\005z\030\311\207D|\231\013]\310\237\321/\210\306\012"
 480      87447C99 
 480      0B5DC89F 
 480      D12F88C6 
 480      0A
 481 0023 85C070F0 		.ascii	"\205\300p\360y\216\327\321\234\007\0115\230\016iD\206"
 481      798ED7D1 
 481      9C070935 
 481      980E6944 
 481      86
 482 0034 4598A5E5 		.ascii	"E\230\245\345\250\325xI+\257I\224$\204$\025\205X\023"
 482      A8D57849 
 482      2BAF4994 
 482      24842415 
 482      855813
 483 0047 2174515B 		.ascii	"!tQ[{\317\2149\340\213\303\231\265\366Z{\255\357[\227"
 483      7BCF8C39 
 483      E08BC399 
 483      B5F65A7B 
 483      ADEF5B97 
 484 005b 7374C658 		.ascii	"st\306X\253\312X\011\351S\364\207\205Ai\231e\254\332"
 484      ABCA5809 
 484      E953F487 
 484      85416999 
 484      65ACDA
 485 006e AA28FAA2 		.ascii	"\252(\372\242\237\031v>\220\317\214\034\236\266Ti\251"
 485      9F19763E 
 485      90CF8C1C 
 485      9EB65469 
 485      A9
 486 007f 8A9E0890 		.ascii	"\212\236\010\220\245\315{\310\322\240\213\024\350\200"
 486      A5CD7BC8 
 486      D2A08B14 
 486      E880
ARM GAS  C:\Users\AMANRA~1\AppData\Local\Temp\ccui46Te.s 			page 38


 487 008d D086152C 		.ascii	"\320\206\025,\254pU\323\021F\224\267r\2645\015\275u"
 487      AC7055D3 
 487      114694B7 
 487      72B4350D 
 487      BD75
 488 009f 16DF328C 		.ascii	"\026\3372\214\032#q\345\335\361\352\332\372C&g\254\235"
 488      1A2371E5 
 488      DDF1EADA 
 488      FA432667 
 488      AC9D
 489 00b1 331CF5C0 		.ascii	"3\034\365\300\357\021\304\017PL\221\257\352\356\231"
 489      EF11C40F 
 489      504C91AF 
 489      EAEE99
 490 00c0 BC999B1C 		.ascii	"\274\231\233\034P\311L\316\304V\\\302TP@\246\271\234"
 490      50C94CCE 
 490      C4565CC2 
 490      545040A6 
 490      B99C
 491 00d2 EC76F100 		.ascii	"\354v\361\000\030\235\347\346\257.\330\212nJ\314\361"
 491      189DE7E6 
 491      AF2ED88A 
 491      6E4ACCF1 
 492 00e2 2E6E1C31 		.ascii	".n\03419\307Cp\001\332\017\017\372\340a\344bx\204\""
 492      39C74370 
 492      01DA0F0F 
 492      FAE061E4 
 492      62788422 
 493 00f6 117FE7E7 		.ascii	"\021\177\347\347\306\224\312O\310\334\241\205\353\337"
 493      C694CA4F 
 493      C8DCA185 
 493      EBDF
 494 0104 507843E6 		.ascii	"PxC\346\256O\360\230\221\250+0\271\212\201\354t\361"
 494      AE4FF098 
 494      91A82B30 
 494      B98A81EC 
 494      74F1
 495 0116 A3E80FBD 		.ascii	"\243\350\017\275\233mN]E\034\205\242d\252u\020:\003"
 495      9B6D4E5D 
 495      451C85A2 
 495      64AA7510 
 495      3A03
 496 0128 1D7A16B4 		.ascii	"\035z\026\264\204\261\271\0251\022k\237\320\265\025"
 496      84B1B915 
 496      31126B9F 
 496      D0B515
 497 0137 451E8853 		.ascii	"E\036\210SSH\350\234\204E%a\325H0\013\011\233\215\204"
 497      5348E89C 
 497      84452561 
 497      D548300B 
 497      099B8D84 
 498 014b DD4EC2E1 		.ascii	"\335N\302\341\020\"G\370\234B\270D\210\033\262V\326"
 498      102247F8 
 498      9C42B844 
 498      881BB256 
 498      D6
 499 015c 481C3447 		.ascii	"H\0344G#\301\232\270\"N\265\011\366\0255\203_~\373\005"
ARM GAS  C:\Users\AMANRA~1\AppData\Local\Temp\ccui46Te.s 			page 39


 499      23C19AB8 
 499      224EB509 
 499      F6153583 
 499      5F7EFB05 
 500 0170 738C838A 		.ascii	"s\214\203\212j\257\037\235\263\210\311p\331\321\360"
 500      6AAF1F9D 
 500      B388C970 
 500      D9D1F0
 501 017f E8CC84DE 		.ascii	"\350\314\204\336\211k\325\206aP+91\356\306\220h\201"
 501      896BD586 
 501      61502B39 
 501      31EEC690 
 501      6881
 502 0191 EE5E4716 		.ascii	"\356^G\026\337;|w\215\324\225\206at\242M\364\301\360"
 502      DF3B7C77 
 502      8DD49586 
 502      6174A24D 
 502      F4C1F0
 503 01a4 183E096D 		.ascii	"\030>\011mK\001+;\201\265\335\200\235\304\216'i\340"
 503      4B012B3B 
 503      81B5DD80 
 503      9DC48E27 
 503      69E0
 504 01b6 64F3E545 		.ascii	"d\363\345E\020p\213\274r\341\251\004\026\203A\"\033"
 504      10708BBC 
 504      72E1A904 
 504      16834122 
 504      1B
 505 01c7 98EF0476 		.ascii	"\230\357\004v\355\006\234K\354\030\331\265b7F%\260\""
 505      ED069C4B 
 505      EC18D9B5 
 505      62374625 
 505      B022
 506 01d9 80C708F8 		.ascii	"\200\307\010\370#\352\226\306\216\375G\036Y\276\237"
 506      23EA96C6 
 506      8EFD471E 
 506      59BE9F
 507 01e8 74086437 		.ascii	"t\010d7T\214\247\027\327D\273\037\310\317\214\356\317"
 507      548CA717 
 507      D744BB1F 
 507      C8CF8CEE 
 507      CF
 508 01f9 C954B8BA 		.ascii	"\311T\270\272\247Y\345\341\231d\226K\237\3100\277\371"
 508      A759E5E1 
 508      9964964B 
 508      9FC830BF 
 508      F9
 509 020a 9CBB03AC 		.ascii	"\234\273\003\254#\332m\027\334yP0\271\315\255\262\250"
 509      23DA6D17 
 509      DC795030 
 509      B9CDADB2 
 509      A8
 510 021b 23C3DDB8 		.ascii	"#\303\335\270\202T\274eOm\357\303sI\256\012\362\027"
 510      8254BC65 
 510      4F6DEFC3 
 510      7349AE0A 
 510      F217
ARM GAS  C:\Users\AMANRA~1\AppData\Local\Temp\ccui46Te.s 			page 40


 511 022d D9F3B4ED 		.ascii	"\331\363\264\355i3\373\361R\"i\002i*\205\364#\222.\312"
 511      6933FBF1 
 511      52226902 
 511      692A85F4 
 511      23922ECA 
 512 0241 4E68E4A8 		.ascii	"Nh\344\250\375\336\220v8(\277o|\262\301*\272r\000\230"
 512      FDDE9076 
 512      3828BF6F 
 512      7CB2C12A 
 512      BA720098 
 513 0255 8687C2B2 		.ascii	"\206\207\302\262\222hf\016\221\3647\223D\354\026rg\255"
 513      9268660E 
 513      91F43793 
 513      44EC1672 
 513      67AD
 514 0267 C649403D 		.ascii	"\306I@=\253\361_N\001d\003\303\314\366x4\326\250\322"
 514      ABF15F4E 
 514      016403C3 
 514      CCF67834 
 514      D6A8D2
 515 027a 7856695F 		.ascii	"xVi_2T\243\320x|u\311\022\3360\254&?\320.\336\"\314"
 515      3254A3D0 
 515      787C75C9 
 515      12DE30AC 
 515      263FD02E 
 516 0291 22CC6839 		.ascii	"\"\314h9&?(\223\364\364\267\260\006\205\334.\362\255"
 516      263F2893 
 516      F4F4B7B0 
 516      0685DC2E 
 516      F2AD
 517 02a3 C34589FD 		.ascii	"\303E\211\375\221\351^\271\002F\305\316\301\303c\035"
 517      91E95EB9 
 517      0246C5CE 
 517      C1C3631D 
 518 02b3 2EA1D5DB 		.ascii	".\241\325\333A\241\224K\207\211@\023\337\025\004\002"
 518      41A1944B 
 518      87894013 
 518      DF150402 
 519 02c3 BD465EAF 		.ascii	"\275F^\257\327GOiYy\260\274\"\024(\011\370}\025!_\331"
 519      D7474F69 
 519      5979B0BC 
 519      22142809 
 519      F87D1521 
 520 02d9 990BBE50 		.ascii	"\231\013\276Pe\251\320\247C\347*\313IU\205\202\336R"
 520      65A9D0A7 
 520      43E72ACB 
 520      49558582 
 520      DE52
 521 02eb A686CE56 		.ascii	"\246\206\316V]\344\301\252\363\377\000W&\177\256"
 521      5DE4C1AA 
 521      F3FF0057 
 521      267FAE
 522              		.text
 523              		.section	.gnu.lto_ibnotify.c3bff927,"",%progbits
 524 0000 789C5550 		.ascii	"x\234UP\317K\033Q\020\236og\263\011Hs\350I\250\007\017"
 524      CF4B1B51 
 524      109E6F67 
ARM GAS  C:\Users\AMANRA~1\AppData\Local\Temp\ccui46Te.s 			page 41


 524      B3094873 
 524      E849A807 
 525 0015 8A7830DB 		.ascii	"\212x0\333\034<\370\327H\023\005\003\202\326\305s\236"
 525      1C3CF8D7 
 525      48130503 
 525      82D6C573 
 525      9E
 526 0026 5149A482 		.ascii	"QI\244\202=\230\024\302F\026EDD\264?\264F\243,9\210"
 526      3D9814C2 
 526      46164544 
 526      44B43FB4 
 526      46A32C39 
 527 003b 144C9B92 		.ascii	"\024L\233\222K)b\260 h\325*H\017\205\332\316\333\236"
 527      4B2962B0 
 527      2068D52A 
 527      480F85DA 
 527      CEDB9E
 528 004e 3ABCC7FC 		.ascii	":\274\307\374x\3377o\346\263\210\350\010D}\342\237\310"
 528      78DF376F 
 528      E6B388E8 
 528      08447DE2 
 528      9FC8
 529 0060 05138C97 		.ascii	"\005\023\214\2275\242\211\210\001\350@E@i\003i\314\362"
 529      35A28988 
 529      01E84045 
 529      40690369 
 529      CCF2
 530 0072 3CA39A3D 		.ascii	"<\243\232=/\033\335+J\314\177\265\331RR\237\024\273"
 530      2F1BDD2B 
 530      4ACC7FB5 
 530      D952529F 
 530      14BB
 531 0084 4C5490AB 		.ascii	"LT\220\253\015o\321-\260\372\324\246\313/\344\0050%"
 531      0D6FD12D 
 531      B0FAD4A6 
 531      CB2FE405 
 531      3025
 532 0096 BD3B2E7E 		.ascii	"\275;.~\213\352\324@\273\244\265\017sM\203\343 \211"
 532      8BEAD440 
 532      BBA4B50F 
 532      734D83E3 
 532      2089
 533 00a8 174F2A0D 		.ascii	"\027O*\015\356ZV*\243\374\3062\253\016\227\031\333`"
 533      EE5A562A 
 533      A3FCC632 
 533      AB0E9719 
 533      DB60
 534 00ba 69882DB4 		.ascii	"i\210-\264\341\035\332HJ\204\367\350\322x\267y\267\032"
 534      E11DDA48 
 534      4A84F7E8 
 534      D278B779 
 534      B71A
 535 00cc E5DE805B 		.ascii	"\345\336\200[\277-\375\342\316\245\200[[o]\234TG\312"
 535      BF2DFDE2 
 535      CEA5805B 
 535      5B6F5D9C 
 535      5447CA
ARM GAS  C:\Users\AMANRA~1\AppData\Local\Temp\ccui46Te.s 			page 42


 536 00df 74D9C4CE 		.ascii	"t\331\304\316\377|m\002?{\375\220\177d\231(\243\363"
 536      FF7C6D02 
 536      3F7BFD90 
 536      7F649928 
 536      A3F3
 537 00f1 DFBCD885 		.ascii	"\337\274\330\205E\262<ti\343s\310W\017\177\262\312?"
 537      45B23C74 
 537      69E373C8 
 537      570F7FB2 
 537      CA3F
 538 0103 EC39BDBF 		.ascii	"\3549\275\277~\034\222\375\345Oi\243\361\224\023\202"
 538      7E1C92FD 
 538      E54F69A3 
 538      F1941382 
 539 0113 C8A17C9A 		.ascii	"\310\241|\232aCG\223>]\"\263{\361e\272E\367)\262\226"
 539      61434793 
 539      3E5D22B3 
 539      7BF165BA 
 539      45F729B2 
 540 0128 A7305DFD 		.ascii	"\2470]\375\030\326\213r0`\245z|hyX\230\020\271\274\033"
 540      18D68B72 
 540      3060A57A 
 540      7C687958 
 540      9810B9BC 
 541 013d C822A1A2 		.ascii	"\310\"\241\242h\260\247g\222\347\265\203\373\237!{]"
 541      68B0A767 
 541      92E7B583 
 541      FB9F217B 
 541      5D
 542 014e 8BD9EEB2 		.ascii	"\213\331\356\262\205\012<\344\003!\261\017\233\316\221"
 542      850A3CE4 
 542      0321B10F 
 542      9BCE91
 543 015d F1DE4037 		.ascii	"\361\336@7\327#\310\007t\205)\357{\201\203\271\205_"
 543      D723C807 
 543      748529EF 
 543      7B8183B9 
 543      855F
 544 016f 2E5F7D0D 		.ascii	"._}\015\247\177\253\210\313a\251\012\355\000i\022\240"
 544      A77FAB88 
 544      CB61A90A 
 544      ED006912 
 544      A0
 545 0180 CB11BA11 		.ascii	"\313\021\272\021\366\217B@\017\004\310\011@\3066\210"
 545      F68F4240 
 545      0F04C809 
 545      40C63688 
 546 0190 62B1982D 		.ascii	"b\261\230-'9\224J\244F\234x_\374\251=\342\330C\317\206"
 546      2739944A 
 546      A4469C78 
 546      5FFCA93D 
 546      E2D843CF 
 547 01a5 6D672CA9 		.ascii	"mg,\251}\27738\226\0227\356$bI\342\304\363Q\323\031"
 547      7DBF3338 
 547      961237EE 
 547      246249E2 
 547      C4F351D3 
ARM GAS  C:\Users\AMANRA~1\AppData\Local\Temp\ccui46Te.s 			page 43


 548 01ba 181FFD0B 		.ascii	"\030\037\375\013\217\035\247]"
 548      8F1DA75D 
 549              		.text
 550              		.section	.gnu.lto_sduSuspendHookI.part.1.c3bff927,"",%progbits
 551 0000 789C9595 		.ascii	"x\234\225\225\317O\023Q\020\307\337\354lK\013\026\177"
 551      CF4F1351 
 551      10C7DFEC 
 551      6C4B0B16 
 551      7F
 552 0011 D403070F 		.ascii	"\324\003\007\017\034$\312\301\256\\L\364\342\237b\024"
 552      1C24CAC1 
 552      AE5C4CF4 
 552      E29F6214 
 553 0021 11482420 		.ascii	"\021H$ \253W\273\022\260\0301j\224\232\324UI\304\240"
 553      AB57BB12 
 553      B018316A 
 553      949AD455 
 553      49C4A0
 554 0034 312AA0A8 		.ascii	"1*\240\250U\324Z\305\037H\013\024\024\025,D\023\016"
 554      55D45AC5 
 554      1F480B14 
 554      14152C44 
 554      130E
 555 0046 064DFC11 		.ascii	"\006M\374\021kP\2533\257u\265i1v\323}\263o\347\315\314"
 555      6B50AB33 
 555      AF75B569 
 555      3176D37D 
 555      B36FE7CD 
 556 005b 7BF3FDB4 		.ascii	"{\363\375\264\265\013!\274v!\032\310\256\241\033l\002"
 556      B50B21BC 
 556      76211AC8 
 556      AEA11B6C 
 556      02
 557 006c D443517A 		.ascii	"\324CQzPA\221V\001d\273\307\201\000\374`8@xU\005\301"
 557      50419156 
 557      0164BBC7 
 557      8100FC60 
 557      38407855 
 558 0082 0B6D7814 		.ascii	"\013mx\024!\354\233\015*\345]\006]\241cS\356\275FK\211"
 558      21EC9B0D 
 558      2AE55D06 
 558      5DA16353 
 558      EEBD464B 
 559 0097 8942F8E9 		.ascii	"\211B\370\351\346\013.C9\255\032m\3566q?\232\224D\245"
 559      E60B2E43 
 559      39AD1A6D 
 559      EE36713F 
 559      9A9444A5 
 560 00ab E98748E0 		.ascii	"\351\207H\340M1O\025(\245\2519\363\341\\1V\200\240\347"
 560      4D314F15 
 560      28A5A939 
 560      F3E15C31 
 560      5680A0E7 
 561 00bf E191E331 		.ascii	"\341\221\3431\347\2523\206\321d\204\276w\242\261\322"
 561      E7AA3386 
 561      D16484BE 
 561      77A2B1D2 
ARM GAS  C:\Users\AMANRA~1\AppData\Local\Temp\ccui46Te.s 			page 44


 562 00cf 4484AB80 		.ascii	"D\204\253\200\224\020\372`\005\\\201\025\202^\011\270"
 562      9410FA60 
 562      055C8115 
 562      825E09B8 
 563 00df 06AB78FD 		.ascii	"\006\253x\375\353\236d\273\313\256rA\270\016\366\364"
 563      EB9E64BB 
 563      CBAE7241 
 563      B80EF6F4 
 564 00ef 40952FC5 		.ascii	"@\225/\305l\206\221\374\3513\214\371\215\313\213\000"
 564      6C8691FC 
 564      E9338CF9 
 564      8DCB8B00 
 565 00ff 3840A150 		.ascii	"8@\241P\025i\260\251<\010\321J\333\344S\265\242\312"
 565      1569B0A9 
 565      3C08D14A 
 565      DBE453B5 
 565      A2CA
 566 0111 16F7A122 		.ascii	"\026\367\241\"\355[h\232\367EN\2718[\000\025\252\343"
 566      ED5B689A 
 566      F7454EB9 
 566      385B0015 
 566      AAE3
 567 0123 6F090F17 		.ascii	"o\011\017\027\360\226Qn\263?\034y`\357\200\223`\"-\000"
 567      F096516E 
 567      B33F1C79 
 567      60EF8093 
 567      60222D00 
 568 0137 08D2B6F8 		.ascii	"\010\322\266\370\375\270\357y\274H\273\300\355(5\261"
 568      FDB8EF79 
 568      BC48BBC0 
 568      ED2835B1 
 569 0147 006E4007 		.ascii	"\000n@\007\264\313^\220\363|\344m\334\356\375\221v\252"
 569      B4CB5E90 
 569      F37CE46D 
 569      DCEEFD91 
 569      76AA
 570 0159 701334EA 		.ascii	"p\0234\352P?x\305,4\225r-Ztbbf\316\211\353d\225\356"
 570      503F78C5 
 570      2C349572 
 570      2D5A7462 
 570      6266CE89 
 571 0171 40C27094 		.ascii	"@\302p\224\235\226\315\370\022]\0240B\3152\360Vf?d\243"
 571      9D96CDF8 
 571      125D1430 
 571      42CD32F0 
 571      56663F64 
 572 0186 6F4319ED 		.ascii	"oC\031\355\2243u|\352\302t\262\366\300l\011n\220\271"
 572      9433757C 
 572      EAC274B2 
 572      F6C06C09 
 572      6E90B9
 573 0199 0E4F06E2 		.ascii	"\016O\006\342\256\254\\\016\270\223#W\010\312(b\340"
 573      AEAC5C0E 
 573      B8932357 
 573      08CA2862 
 573      E0
 574 01aa 6722B498 		.ascii	"g\"\264\230\217\354$\012\356\222o\016ZfN\267%\023%V"
ARM GAS  C:\Users\AMANRA~1\AppData\Local\Temp\ccui46Te.s 			page 45


 574      8FEC240A 
 574      EE926F0E 
 574      5A664EB7 
 574      25132556 
 575 01be DF9BA5EE 		.ascii	"\337\233\245\356G\276\2729\204\267 \373\357O\365\350"
 575      47BEBA39 
 575      84B720FB 
 575      EF4FF5E8 
 576 01ce B7341006 		.ascii	"\2674\020\006;\334cYx G087Y@}p\230X\350'\006\302\354"
 576      3BDC6359 
 576      78204730 
 576      38375940 
 576      7D709858 
 577 01e7 BB4F6DA0 		.ascii	"\273Om\240\003p!\023\213\254\216\310\244\177f!\236\221"
 577      03702113 
 577      8BAC8EC8 
 577      A47F6621 
 577      9E91
 578 01f9 3A9FCFFE 		.ascii	":\237\317\376p\246\317\370\177R,\202\001)\005\244\244"
 578      70A6CFF8 
 578      7F522C82 
 578      012905A4 
 578      A4
 579 020a B8F8AE29 		.ascii	"\270\370\256)\252ZN\027<\000\255\235\272Gg\177\010\032"
 579      AA5A4E17 
 579      3C00AD9D 
 579      BA47677F 
 579      081A
 580 021c F9FB7C43 		.ascii	"\371\373|C=\205|v\027\221\363\2102J\" \305\003\346Q"
 580      3D857C76 
 580      1791F388 
 580      324A2220 
 580      C503E651 
 581 0230 F5F1C255 		.ascii	"\365\361\302U\213a\220\253b\312\327{d\360\020Xp\330"
 581      8B6190AB 
 581      62CAD77B 
 581      64F01058 
 581      70D8
 582 0242 E0898463 		.ascii	"\340\211\204c(\023\216\251\343\361\244\023ke{\207\016"
 582      28138EA9 
 582      E3F1A413 
 582      6B657B87 
 582      0E
 583 0253 5E3C5C94 		.ascii	"^<\\\224%\250\015\"9\004\2152\034(\341HXp\014u\007'"
 583      25A80D22 
 583      39048D32 
 583      1C28E148 
 583      58700C75 
 584 0269 54AC93C9 		.ascii	"T\254\223\311B\235/G%i\306\337\311\026\303p\216d#\222"
 584      429D2F47 
 584      2569C6DF 
 584      C916C370 
 584      8E642392 
 585 027d 8EFEDE03 		.ascii	"\216\376\336\003\011\340\016-\201\3350j\321\361\361"
 585      09E00E2D 
 585      81DD306A 
 585      D1F1F1
ARM GAS  C:\Users\AMANRA~1\AppData\Local\Temp\ccui46Te.s 			page 46


 586 028c 4B161DF3 		.ascii	"K\026\035\363n\016\341=\244\351\300\014:b$\353\030\023"
 586      6E0EE13D 
 586      A4E9C00C 
 586      3A6224EB 
 586      1813
 587 029e 309645C7 		.ascii	"0\226E\307R?\301\036c\337\270\244\003\271\220\211\313"
 587      523FC11E 
 587      63DFB8A4 
 587      03B99089 
 587      CB
 588 02af FEF010CD 		.ascii	"\376\360\020\315\240c\304\242#\231\037\035nx*uRs\323"
 588      A063C4A2 
 588      23991F1D 
 588      6E782A75 
 588      5273D3
 589 02c2 F1CCA263 		.ascii	"\361\314\242c\002\264,\034\324<\312<_\270L1\274\370"
 589      02B42C1C 
 589      D43CCA3C 
 589      5FB84C31 
 589      BCF8
 590 02d4 070E2F25 		.ascii	"\007\016/%\016\223\2318\344\203\300\024#\240J\004\276"
 590      0E939938 
 590      E483C014 
 590      23A04A04 
 590      BE
 591 02e5 5908E423 		.ascii	"Y\010\344#\373+\322\360\237:\177w\3135S\013\350\034"
 591      FB2BD2F0 
 591      9F3A7F77 
 591      CB35530B 
 591      E81C
 592 02f7 2781A659 		.ascii	"'\201\246Y\313\351\334:\307\3317#uV\177\353,\304>\312"
 592      CBE9DC3A 
 592      C7D93723 
 592      75567FEB 
 592      2CC43ECA 
 593 030b C2BFC8EF 		.ascii	"\302\277\310\357AI\375\243\264\322\227\211^\320\314"
 593      4149FDA3 
 593      B4D29789 
 593      5ED0CC
 594 031a E3F168F4 		.ascii	"\343\361h\364\251\254\251\335R[\257W\254\257X\253\325"
 594      A9ACA9DD 
 594      525BAF57 
 594      ACAF58AB 
 594      D5
 595 032b EB5ACDE6 		.ascii	"\353Z\315\346\355\232\336X\311v\223^\325XKf\227\276"
 595      ED9ADE58 
 595      C976935E 
 595      D5584B66 
 595      97BE
 596 033d C5532954 		.ascii	"\305S)T}\353\256\006\254\322\033l\333\266o\256\326W"
 596      7DEBAE06 
 596      ACD21B6C 
 596      DBB66FAE 
 596      D657
 597 034f 2F185DAF 		.ascii	"/\030]\257\323\320\270SZO\215\300\235;\032\260N\257"
 597      D3D0B853 
 597      5A4F8DC0 
ARM GAS  C:\Users\AMANRA~1\AppData\Local\Temp\ccui46Te.s 			page 47


 597      9D3B1AB0 
 597      4EAF
 598 0361 FE05046A 		.ascii	"\376\005\004j2\212"
 598      328A
 599              		.text
 600              		.section	.gnu.lto_sduRequestsHook.part.2.c3bff927,"",%progbits
 601 0000 789C9D94 		.ascii	"x\234\235\224\333KTA\034\307\347{\346\354\331U\327\365"
 601      DB4B5441 
 601      1CC7E77B 
 601      E6ECD955 
 601      D7F5
 602 0012 41B01E36 		.ascii	"A\260\0366\260\013\210\010\256K\365\320\377\321c\020"
 602      B00B8808 
 602      AE4BF5D0 
 602      FFD16310 
 603 0022 29814260 		.ascii	")\201B`\270\364\274g\275\344\232\021\262x\001\331l\221"
 603      B8F4BC67 
 603      BDE49A11 
 603      B27801D9 
 603      6C91
 604 0034 2E288849 		.ascii	".(\210I\232\232\246ffe\256\346\245\334\324,\365E\303"
 604      9A9AA666 
 604      6665AEE6 
 604      A5DCD42C 
 604      F545C3
 605 0047 0B961519 		.ascii	"\013\226\025\031j\277\231\343a\365\245Z\227\263\363"
 605      6ABF99E3 
 605      61F5A55A 
 605      97B3F3
 606 0056 9BDBF73B 		.ascii	"\233\333\367;\277\371\3149\2431\30624\306\316R\274@"
 606      BFF9CC39 
 606      A331C632 
 606      34C6CE52 
 606      BC40
 607 0068 7FD818AC 		.ascii	"\177\330\030\254\025#T\261B\221QQ\265\201d\246\333T"
 607      152354B1 
 607      42915151 
 607      B58164A6 
 607      DB54
 608 007a 5972595A 		.ascii	"YrYZ\214:41\303gS\315\212\305\254h\200\250\35060\257"
 608      8C3A3431 
 608      C36753CD 
 608      8AC5AC68 
 608      80A8E836 
 609 0090 55E1AA45 		.ascii	"U\341\252E\203\0277y%GUY\327Tb\372\003]/\324\373j\""
 609      83173779 
 609      25475559 
 609      D75462FA 
 609      035D2FD4 
 610 00a7 47AE1795 		.ascii	"G\256\027\225\034\015r\306\2529\303i'\262\234\"\207"
 610      1C0D72C6 
 610      AA39C369 
 610      27B29C22 
 610      87
 611 00b8 4748A799 		.ascii	"GH\247\231c\305\017\203\274\234\0079\240Rs#\\\273\350"
 611      63C50F83 
 611      BC9C0739 
ARM GAS  C:\Users\AMANRA~1\AppData\Local\Temp\ccui46Te.s 			page 48


 611      A0527323 
 611      5CBBE8
 612 00cb 104D05A9 		.ascii	"\020M\005\251\324\\\036k\231L\342n0\252/\315\327\235"
 612      D45C1E6B 
 612      994CE26E 
 612      30AA2FCD 
 612      D79D
 613 00dd 4FBB272D 		.ascii	"O\273'-\207\357r\375T\220s<\006\027\236mp\242\025NF"
 613      87EF72FD 
 613      5490733C 
 613      06179E6D 
 613      70A2154E 
 614 00f2 5D0CED48 		.ascii	"]\014\355H\023\323\027Zv\252\0225U\256\331\001m\257"
 614      13D3175A 
 614      76AA1235 
 614      55AED901 
 614      6DAF
 615 0104 A0859BC7 		.ascii	"\240\205\233\307-\272\276\263[\252\353['S\222\000!P"
 615      2DBABEB3 
 615      5BAAEB5B 
 615      27539200 
 615      2150
 616 0116 48AA7226 		.ascii	"H\252r&rd~*\304\266\374\334*\"/\343\212\214_P\330\263"
 616      72647E2A 
 616      C4B6FCDC 
 616      2A222FE3 
 616      8A8C5F50 
 617 012c BC5EEE10 		.ascii	"\274^\356\020F\265\\\241%\252K\372G\255\"Y.\023\354"
 617      46B55CA1 
 617      25AA4BFA 
 617      47AD2259 
 617      2E13EC
 618 013f EE0F0F6A 		.ascii	"\356\017\017j!\324!\310-\265\264\237N\312H\364O\226"
 618      21D421C8 
 618      2DB5B49F 
 618      4ECA48F4 
 618      4F96
 619 0151 46E6125C 		.ascii	"F\346\022\\M:\375B\367iP\303\023\204P%\326\022\303\023"
 619      4D3AFD42 
 619      F76950C3 
 619      13845025 
 619      D612C313 
 620 0165 D5DF239A 		.ascii	"\325\337#\232\273Y\016/\320\260\025]p!C0b\350\206\233"
 620      BB590E2F 
 620      D0B0155D 
 620      70214330 
 620      62E8869B 
 621 0179 2DA32494 		.ascii	"-\243$\224\022]\265i\342\316\032\002\250\360\025\223"
 621      125DB569 
 621      E2CE1A02 
 621      A8F01593 
 622 0189 A0E14C90 		.ascii	"\240\341L\220\333\030\253\221fxJ\375\373!\252\022\342"
 622      DB18AB91 
 622      66784AFD 
 622      FB21AA12 
 622      E2
 623 019a F6BA6F9A 		.ascii	"\366\272o\232\233\202U\027\011\320C\251\325pA\003\275"
ARM GAS  C:\Users\AMANRA~1\AppData\Local\Temp\ccui46Te.s 			page 49


 623      9B825517 
 623      09D043A9 
 623      D5704103 
 623      BD
 624 01ab 86C63FB3 		.ascii	"\206\306?\263\262i74\307\251\331PQ9\35305\363R\323'"
 624      B2693734 
 624      C7A9D950 
 624      5139EB30 
 624      35F352D3 
 625 01c0 358AD03C 		.ascii	"5\212\320<34\201[\355\001\305\320\234\240f\307\327\265"
 625      3334815B 
 625      ED01C5D0 
 625      9CA066C7 
 625      D7B5
 626 01d2 1ABBA9F9 		.ascii	"\032\273\251\371%5\375R#\222\303s\322P,\243\326@2_\202"
 626      2535FD52 
 626      2392C373 
 626      D2502CA3 
 626      D640325F 
 627 01e7 8F6CC5A6 		.ascii	"\217l\305\246\204%\241\335*\275\335{L\264\377\017dj"
 627      8425A1DD 
 627      2ABDDD7B 
 627      4CB4FF0F 
 627      646A
 628 01f9 90C76140 		.ascii	"\220\307a@b\224\273x\001\327\376\003\211\227\007\322"
 628      6294BB78 
 628      01D7FE03 
 628      899707D2 
 629 0209 D9B93263 		.ascii	"\331\2712c\365n\3536\352\010qUz\264\026m\004\034\206"
 629      F56EEB36 
 629      EA087155 
 629      7AB4166D 
 629      041C86
 630 021c 77025ED2 		.ascii	"w\002^\322\373:\270g\336\2631\264\350\240\311~i\036"
 630      FB3AB867 
 630      DEB331B4 
 630      E8A0C97E 
 630      691E
 631 022e 8F57644E 		.ascii	"\217WdN\306\257\341\025\351m\332b\312\315\216!\231\233"
 631      C6AFE115 
 631      E96DDA62 
 631      CACD8E21 
 631      999B
 632 0240 A4F546E6 		.ascii	"\244\365F\346\266y\243\344\247|\321\023\351\243\033"
 632      B679A3E4 
 632      A77CD113 
 632      E9A31B
 633 024f 2655ECAE 		.ascii	"&U\354\256\016\204\245\253\3449rp\307\0160\214\012\025"
 633      0E84A5AB 
 633      E4397270 
 633      C70E308C 
 633      0A15
 634 0261 11564DC2 		.ascii	"\021VM\302\353\315\026\0031\014\304\341\230\021\277"
 634      EBCD1603 
 634      310CC4E1 
 634      9811BF
 635 0270 8D221E93 		.ascii	"\215\"\036\223\013\376\223\351\370_\230N\030L'\017\311"
ARM GAS  C:\Users\AMANRA~1\AppData\Local\Temp\ccui46Te.s 			page 50


 635      0BFE93E9 
 635      F85F984E 
 635      184C270F 
 635      C9
 636 0281 F45D94E9 		.ascii	"\364]\224\351{\372D\016\013q*\0121B6&5\213I\355\267"
 636      7BFA440E 
 636      0B712A0A 
 636      31423626 
 636      358B49ED 
 637 0296 498D4BFB 		.ascii	"I\215K\373%\377*b\244\366!Jm\372\3401\305\3211\315\034"
 637      25FF2A62 
 637      A4F6214A 
 637      6DFAE031 
 637      C5D131CD 
 638 02ab 2A6F3B66 		.ascii	"*o;f\243\333\377x\320\325N\256s\207\244\361)J\343\363"
 638      A3DBFF78 
 638      D0D54EAE 
 638      7387A4F1 
 638      294AE3F3 
 639 02bf 3E1A9ABC 		.ascii	">\032\232\274\363\226\000y\267\254Aa\265r\322\017\360"
 639      F3960079 
 639      B7AC4161 
 639      B572D20F 
 639      F0
 640 02d0 FD2BD38D 		.ascii	"\375+\323\215\212y8\225\255\372o\342Fh+\035n\2117\372"
 640      8A793895 
 640      ADFA6FE2 
 640      46682B1D 
 640      6E8937FA 
 641 02e4 810538F9 		.ascii	"\201\0058\371\320\216\"\242\332\270+\243\245\261\236"
 641      D08E22A2 
 641      DAB82BA3 
 641      A5B19E
 642 02f3 D3C50A61 		.ascii	"\323\305\012aN\033\311\314\314t\321\223\223\233\227"
 642      4E1BC9CC 
 642      CC74D193 
 642      939B97
 643 0302 9D97EF71 		.ascii	"\235\227\357q\237sg\271\362=\256\334KW\\\236\202\034"
 643      9F7367B9 
 643      F23DAEDC 
 643      4B575C9E 
 643      821C
 644 0314 112F7A2E 		.ascii	"\021/z.\027\344Q\270\346\311\316\314a*\205\253\177\000"
 644      17E451B8 
 644      E6C9CECC 
 644      612A85AB 
 644      7F00
 645 0326 2D7C09FB 		.ascii	"-|\011\373"
 646              		.text
 647              		.section	.gnu.lto_linecoding.c3bff927,"",%progbits
 648 0000 789C6363 		.ascii	"x\234cc``\330\000\304\214\014\0200\205\231q\326\356"
 648      6060D800 
 648      C48C0C10 
 648      30859971 
 648      D6EE
 649 0012 2FA758BB 		.ascii	"/\247X\273\231\347030r\000\271\353\337\354\374\311\013"
 649      99E73033 
ARM GAS  C:\Users\AMANRA~1\AppData\Local\Temp\ccui46Te.s 			page 51


 649      307200B9 
 649      EBDFECFC 
 649      C90B
 650 0024 E182640F 		.ascii	"\341\202d\017}\332\260\234\007\304edd\006r\217\376\377"
 650      7DDAB09C 
 650      07C46564 
 650      6406728F 
 650      FEFF
 651 0036 7E801FC2 		.ascii	"~\200\037\302e\002r\177~\237\363\035\252w\032#\220?"
 651      6502727F 
 651      7E9FF31D 
 651      AA771A23 
 651      903F
 652 0048 63E9B9AB 		.ascii	"c\351\271\253L\026\333\032:\02648\314afb4\224a\334\302"
 652      4C16DB1A 
 652      3A163438 
 652      CC616662 
 652      349461DC 
 653 005d 28C36824 		.ascii	"(\303h$\303\270\035Hmc\204p\267Bh\220\361;ov\334\346"
 653      C3B81D48 
 653      6D638470 
 653      B7426890 
 653      F13B6F76 
 654 0073 876B609E 		.ascii	"\207k`\236\0124h\007\243\305T\240\361@\005S\201&\200"
 654      0A346807 
 654      A3C554A0 
 654      F1400553 
 654      812680
 655 0086 2966C6CD 		.ascii	")f\306\315@\345\214;\031-\030\000\325\3506+"
 655      40E58C3B 
 655      192D1800 
 655      D5E8362B 
 656              		.text
 657              		.section	.gnu.lto_sduSOFHookI.part.3.c3bff927,"",%progbits
 658 0000 789C8D53 		.ascii	"x\234\215S[OSA\020\336\357\3549\247\345V\274\"1\225"
 658      5B4F5341 
 658      10DEEFEC 
 658      39A7E556 
 658      BC223195 
 659 0014 34464278 		.ascii	"4FBximb\010^\376\213\021\324@b\304\320\360\342KW\004"
 659      696D6208 
 659      5EFE8B11 
 659      D44062C4 
 659      D0F0E24B 
 660 002a 5B820F84 		.ascii	"[\202\017\204@\215\365\304\224\2501\206\030o\\,\027"
 660      408DF5C4 
 660      94A83186 
 660      186F5C2C 
 660      17
 661 003b 2D4511D4 		.ascii	"-E\021\324\002\022\036@\010!^\232H*\206\304'\022\320"
 661      02121E40 
 661      08215E9A 
 661      482A86C4 
 661      2712D0
 662 004e D93DF582 		.ascii	"\331=\365\202\361\201M\317\314\356\354\31473\337lM\306"
 662      F1814DCF 
 662      CCEEECCC 
ARM GAS  C:\Users\AMANRA~1\AppData\Local\Temp\ccui46Te.s 			page 52


 662      3733DF6C 
 662      4DC6
 663 0060 D8419DB1 		.ascii	"\330A\235\261\343\244O\320\007\223\301h\233\244\215"
 663      E3A44FD0 
 663      0793C168 
 663      9BA48D
 664 006f 014D694D 		.ascii	"\001MiM\343\323n&r\365\204\237\211|\016]Z/9u@n\204\023"
 664      E3D36E26 
 664      72F5849F 
 664      897C0E5D 
 664      5A2F3975 
 665 0087 2C68685C 		.ascii	",hh\\G\020Wy\007G2\224\216k\345w\005\255\304\265\331"
 665      47105779 
 665      07473294 
 665      8E6BE577 
 665      05ADC4B5 
 666 009c FD574473 		.ascii	"\375WDs\261\305\031\213\320'\027\236\240\234\274\336"
 666      B1C5198B 
 666      D027179E 
 666      A09CBCDE 
 667 00ac 353DB478 		.ascii	"5=\264x+\2678\240\323q-\025\375\350\222G\015\036:Z\313"
 667      2BB738A0 
 667      D3712D15 
 667      FDE89247 
 667      0D1E3A5A 
 668 00c1 6BF75CDC 		.ascii	"k\367\\\334\017F\373\251\351\03339ew\204h\024\211\305"
 668      0F46FBA9 
 668      E91B3339 
 668      65778468 
 668      1489C5
 669 00d4 DB5C1CB2 		.ascii	"\333\\\034\2628G\0378\001\242\027n\364\300\315\310\304"
 669      38471F38 
 669      01A2176E 
 669      F4C0CDC8 
 669      C4
 670 00e5 D08F32E9 		.ascii	"\320\2172\351\377\341\321fg\201\251\313\204x*\273!\001"
 670      FFE1D166 
 670      6781A9CB 
 670      84782ABB 
 670      2101
 671 00f7 B2777FDF 		.ascii	"\262w\177\337x\243\363\012\20598\323\365\015\245\267"
 671      78A3F30A 
 671      853938D3 
 671      F50DA5B7 
 672 0107 14E66AC6 		.ascii	"\024\346j\306\335uY\214\013\335\242\036\342[q\345\""
 672      DD75598C 
 672      0BDDA21E 
 672      E25B71E5 
 672      22
 673 0118 F70DD111 		.ascii	"\367\015\321\021q\361c*\364\375R\353H\036\205&(4\235"
 673      71F1632A 
 673      F4FD52EB 
 673      481E8526 
 673      28349D
 674 012b 29FE156A 		.ascii	")\376\025j`\360\277\241\331j0\204R\014\240\324\256f"
 674      60F0BFA1 
 674      D96A3084 
ARM GAS  C:\Users\AMANRA~1\AppData\Local\Temp\ccui46Te.s 			page 53


 674      520CA0D4 
 674      AE66
 675 013d 58964502 		.ascii	"X\226E\002\214\361\030\305\320\205tx0c\010\261\371#"
 675      8CF118C5 
 675      D0857478 
 675      306308B1 
 675      F923
 676 014f 24C47A45 		.ascii	"$\304zEQ! ;\322\2507\223\223p\350\312\317\240\255\323"
 676      5121203B 
 676      D2A83793 
 676      9370E8CA 
 676      CFA0ADD3 
 677 0163 2491E320 		.ascii	"$\221\343 \221\353$\221\307X\230\310\225\303\010sCj"
 677      91EB2491 
 677      C75898C8 
 677      95C30873 
 677      436A
 678 0175 DEC235A5 		.ascii	"\336\3025\245W\320\270\036\032\236? \263F\271F\365D"
 678      57D0B81E 
 678      1A9E3F20 
 678      B346B946 
 678      F544
 679 0187 9A93530E 		.ascii	"\232\223S\016I4W\335\014%Scf\0147a\361\374(\315\342"
 679      493457DD 
 679      0C255363 
 679      660C3761 
 679      F1FC28CD 
 680 019c 99AC9CEC 		.ascii	"\231\254\234\354\263\241\271\245<\337}9\304X\232.\013"
 680      B3A1B9A5 
 680      3CDF7D39 
 680      C4589A2E 
 680      0B
 681 01ad F01C3174 		.ascii	"\360\0341t\362lW\335\251\225%3\270\241\256K\250@$\340"
 681      F26C57DD 
 681      A9952533 
 681      B8A1AE4B 
 681      A84024E0 
 682 01c1 A3D18E20 		.ascii	"\243\321\216 \3102h\362\330\351\344c\210\3073\013\016"
 682      C83268F2 
 682      D8E9E463 
 682      88C7330B 
 682      0E
 683 01d2 72745ADC 		.ascii	"rtZ\334\025\241\224\014I\362\241R,^\310>\243ia\364\310"
 683      15A1940C 
 683      49F2A152 
 683      2C5EC83E 
 683      A36961F4 
 684 01e7 1FE7DFB5 		.ascii	"\037\347\337\2659\3000\232\345\260\205F;\355\346\031"
 684      39C0309A 
 684      E5B08546 
 684      3BEDE619 
 685 01f7 34C7FAFB 		.ascii	"4\307\372\373J$kQ\256oE\336\021\241v\031^\330\310\362"
 685      4A246B51 
 685      AE6F45DE 
 685      11A17619 
 685      5ED8C8F2 
 686 020b 35F5F67C 		.ascii	"5\365\366|\312\317\226\367\230\252\337\251\350W\254"
ARM GAS  C:\Users\AMANRA~1\AppData\Local\Temp\ccui46Te.s 			page 54


 686      CACF96F7 
 686      98AADFA9 
 686      E857AC
 687 021a BF44D0E2 		.ascii	"\277D\320\342\273X\032\215\261\213j\004\304)\0012bj"
 687      BB581A8D 
 687      B18B6A04 
 687      C4290132 
 687      626A
 688 022c E0CBFC57 		.ascii	"\340\313\374W\227\235\300\330\0365\036\232\005\306\024"
 688      979DC0D8 
 688      1E351E9A 
 688      05C614
 689 023b 31904FFB 		.ascii	"1\220O\373\025\261 \201&\014\033\306\374\273)\347\277"
 689      15B12081 
 689      260C1BC6 
 689      FCBB29E7 
 689      BF
 690 024c 84EFA63C 		.ascii	"\204\357\246<\030\317\242\256\265\266\317\201P\333\024"
 690      18CFA2AE 
 690      B5B6CF81 
 690      50DB14
 691 025b EA1E4C28 		.ascii	"\352\036L(TM\242\276\316\242\346\330\240\216m\243\354"
 691      544DA2BE 
 691      CEA2E6D8 
 691      A08E6DA3 
 691      EC
 692 026c C51B8522 		.ascii	"\305\033\205\"\247\206\2676J$\213\342\224\224\320\260"
 692      A786B736 
 692      4A248BE2 
 692      9494D0B0 
 693 027c 421EC5CB 		.ascii	"B\036\305\313VB\213\"2\006)E\250LI\014Q\210\305\367"
 693      56428B22 
 693      32062945 
 693      A84C490C 
 693      5188C5F7 
 694 0290 11447211 		.ascii	"\021Dr\021\2128\212\247\250\353\313\211v\243\262O\204"
 694      8A388AA7 
 694      A8EBCB89 
 694      76A3B24F 
 694      84
 695 02a1 A9148361 		.ascii	"\251\024\203a\022\225jf\272z~\253\320\354?}\230\370"
 695      12956A66 
 695      BA7A7EAB 
 695      D0EC3F7D 
 695      98F8
 696 02b3 21039DBC 		.ascii	"!\003\235\274^\257\217~\3255\265U\265u\001\377Q\377"
 696      5EAF8F7E 
 696      D535B555 
 696      B57501FF 
 696      51FF
 697 02c5 615F5DC0 		.ascii	"a_]\300Ws\352\234/P_-\365\311\300\231\372ZR\015\201"
 697      5773EA9C 
 697      2F505F2D 
 697      F5C9C099 
 697      FA5A520D 
 698 02da 2A6F35D3 		.ascii	"*o5\323\003\247\033.\360\252\206\2638\377\023\313+Z"
 698      03A71B2E 
ARM GAS  C:\Users\AMANRA~1\AppData\Local\Temp\ccui46Te.s 			page 55


 698      F0AA86B3 
 698      38FF13CB 
 698      2B5A
 699 02ec 82       		.ascii	"\202"
 700              		.text
 701              		.section	.gnu.lto_sduInit.c3bff927,"",%progbits
 702 0000 789C6363 		.ascii	"x\234cc``\250\003b\003 \226\006bFf\006F\246\011\347"
 702      6060A803 
 702      62032096 
 702      06624666 
 702      0646A609 
 703 0015 18181A39 		.ascii	"\030\030\0329\230\030\031A\214\006\016F\206z&\306z\306"
 703      98181941 
 703      8C060E46 
 703      867A26C6 
 703      7AC6
 704 0027 1EE629CC 		.ascii	"\036\346)\314\214\207\332\237\355d\322\\\336\000\004"
 704      8C87DA9F 
 704      ED64D25C 
 704      DE0004
 705 0036 07A65FE1 		.ascii	"\007\246_\341kkh\225\230\303\314\3000\015\210A\200q"
 705      6B6B6895 
 705      98C3CCC0 
 705      300D8841 
 705      8071
 706 0048 33A32603 		.ascii	"3\243&\003P\331\243\215\377\246\362\262\261@\304\031"
 706      50D9A38D 
 706      FFA6F2B2 
 706      B140C419 
 707 0058 B730B231 		.ascii	"\2670\26210\002\031\353/\261\036h\370\367\277\275\341"
 707      300219EB 
 707      2FB11E68 
 707      F8F7BFBD 
 707      E1
 708 0069 C093458C 		.ascii	"\300\223E\214\327\375\230\030\030:\200\362@K\032\016"
 708      D7FD9818 
 708      183A80F2 
 708      404B1A0E 
 709 0079 30743233 		.ascii	"0t23\201X\315\007\030\33616)\200\265\200@\0073#H\030"
 709      8158CD07 
 709      18DE3136 
 709      2980B580 
 709      40073323 
 710 008f A8544F4F 		.ascii	"\250TOOO\037\210\22232\2232\363\213\015-\015\015\364"
 710      4F1F8892 
 710      33329332 
 710      F38B0D2D 
 710      0D0DF4
 711 00a2 F38BF533 		.ascii	"\363\213\3653\022s\364\213\213\222At|qjQ&\220*-N\322"
 711      1273F48B 
 711      8B924174 
 711      7C716A51 
 711      26902A2D 
 712 00b8 4B660000 		.ascii	"Kf\000\000\274):\313"
 712      BC293ACB 
 713              		.text
 714              		.section	.gnu.lto_sduObjectInit.c3bff927,"",%progbits
ARM GAS  C:\Users\AMANRA~1\AppData\Local\Temp\ccui46Te.s 			page 56


 715 0000 789C9554 		.ascii	"x\234\225T\373O\024W\030\275g\356\354\314.+\253\265"
 715      FB4F1457 
 715      18BD67EE 
 715      ECCC2E2B 
 715      ABB5
 716 0012 5A8DDD34 		.ascii	"Z\215\3354\374\240Ac\262[\322\304\304\377\304\337\214"
 716      FCA04163 
 716      B25BD2C4 
 716      C4FFC4DF 
 716      8C
 717 0023 E2269010 		.ascii	"\342&\220\020!\0144\361\027wX\244\273\246j\232F\267"
 717      210C34F1 
 717      177758A4 
 717      BBA66A9A 
 717      46B7
 718 0035 663BE826 		.ascii	"f;\350&\3324\306\030_\210\256\240\256\370D\004\004\037"
 718      DA34C618 
 718      5F88AEA0 
 718      AEF84404 
 718      041F
 719 0047 E0A3B8AD 		.ascii	"\340\243\270\255o\245$h_k\254\372}w\026\243\010\264"
 719      6FA52468 
 719      5F6BACFA 
 719      7D7716A3 
 719      08B4
 720 0059 DCECDCD7 		.ascii	"\334\354\334\327|\367\234\363\235\357\316\032B\210\025"
 720      7CF79CF3 
 720      9DEFCE1A 
 720      428815
 721 0068 86105B68 		.ascii	"\206\020[h\374\234\036H\001\355\273\036!\032\274\032"
 721      FC9C1E48 
 721      01EDBB1E 
 721      211ABC1A 
 722 0078 C013DB0B 		.ascii	"\300\023\333\013\021\325\020\305&\271U\242#\3760\243"
 722      11D510C5 
 722      26B955A2 
 722      23FE30A3 
 723 0088 2DF9D9A6 		.ascii	"-\371\331\246\226\375\341U\340\033\273i\276#\205H\322"
 723      96FDE155 
 723      E01BBB69 
 723      BE238548 
 723      D2
 724 0099 C30D87B1 		.ascii	"\303\015\207\261\204\242\3726\034p\344\267\322\221\200"
 724      84A2FA36 
 724      1C70E4B7 
 724      D29180
 725 00a8 4ECBD1EE 		.ascii	"N\313\321\356\324\275\000/5\224\320\322\311\215\356"
 725      D4BD002F 
 725      3594D0D2 
 725      C98DEE
 726 00b7 09C83208 		.ascii	"\011\3102\010\232\367^\371\261\337W\372\223m\307\354"
 726      9AF75EF9 
 726      B1DF57FA 
 726      936DC7EC 
 727 00c7 ECF06E69 		.ascii	"\354\360ni/t\244D+$\001\342\010\202hAP\320\226\300Q"
 727      2F74A444 
 727      2B2401E2 
ARM GAS  C:\Users\AMANRA~1\AppData\Local\Temp\ccui46Te.s 			page 57


 727      08826841 
 727      50D096C0 
 728 00dc 9472FC6F 		.ascii	"\224r\374o\007_o+6t\227\020\307`\2006\233\007r\303>"
 728      075F6F2B 
 728      36749710 
 728      C7608036 
 728      9B0772C3 
 729 00f1 B94C011E 		.ascii	"\271L\001\036H\375m{\027\355R\200-\013\322\261Y\216"
 729      48FD6D7B 
 729      17ED5280 
 729      2D0BD2B1 
 729      598E
 730 0103 D491F910 		.ascii	"\324\221\371\020\220\333;\254\015*\227\236v\003\307"
 730      90DB3BAC 
 730      0D2A979E 
 730      7603C7
 731 0112 B1484126 		.ascii	"\261HA&\345GH\003\361\257\232\007\037\333\366\3676\376"
 731      E5474803 
 731      F1AF9A07 
 731      1FDBF6F7 
 731      36FE
 732 0124 1FDE5F77 		.ascii	"\037\336_w(\217v\006lc@\355}\3558A\262O\302\020\334"
 732      288F7606 
 732      6C6340ED 
 732      7DED3841 
 732      B24FC210 
 733 0139 81CEEEEF 		.ascii	"\201\316\356\357\367d\355\327o\342di\260\255\365\311"
 733      F764EDD7 
 733      6FE26469 
 733      B0ADF5C9 
 734 0149 CDD26250 		.ascii	"\315\322bP\322\272F\235GRGg\034izxfB9!\022\224?U\307"
 734      D2BA469D 
 734      47524767 
 734      1C697A78 
 734      66423921 
 735 0162 CE8A8D04 		.ascii	"\316\212\215\004N\263\306\254x\212\330\313\370\346|"
 735      4EB3C6AC 
 735      788AD8CB 
 735      F8E67C
 736 0171 1DE74074 		.ascii	"\035\347@t\311\246\216^\223]w\323i\357\350>o\244\261"
 736      C9A68E5E 
 736      935D77D3 
 736      69EFE83E 
 736      6FA4B1
 737 0184 A381E4A5 		.ascii	"\243\201\344\245\277p\2447%M\234b\365\364\362Z|p\310"
 737      BF70A437 
 737      254D9C62 
 737      F5F4F25A 
 737      7C70C8
 738 0197 1FDEC7D2 		.ascii	"\037\336\307\322K\034\351C\026ilS5\305i\204\337\007"
 738      4B1CE943 
 738      16696C53 
 738      35C56984 
 738      DF07
 739 01a9 F329B0C6 		.ascii	"\363)\260\306\227\247^\004\242\377\332T|_Z\272\351\347"
 739      97A75E04 
 739      A2FFDA54 
ARM GAS  C:\Users\AMANRA~1\AppData\Local\Temp\ccui46Te.s 			page 58


 739      7C5F5ABA 
 739      E9E7
 740 01bb FB7E4FF8 		.ascii	"\373~O\370\231\200,/\302\031\2721\035\005\364\306\335"
 740      99802C2F 
 740      C219BA31 
 740      1D05F4C6 
 740      DD
 741 01cc 879B40D1 		.ascii	"\207\233@\321\333\211y=C\234%x\202>\207\250+\2729?\203"
 741      DB89793D 
 741      439C2578 
 741      823E87A8 
 741      2BBA393F 
 742 01e1 45A724C6 		.ascii	"E\247$\306\013}\316NL!\325\217\363J*\\\015{\273\237"
 742      0B7DCE4E 
 742      4C21D58F 
 742      F34A2A5C 
 742      0D7BBB9F 
 743 01f5 0E19C4C4 		.ascii	"\016\031\304\304G\003\\\251\013\010\023\321E\"z\210"
 743      47035CA9 
 743      0B0813D1 
 743      45227A88 
 744 0205 5889BA30 		.ascii	"X\211\2720Tf\"\242\265&\270B<'\021\251|\327\231\221"
 744      546622A2 
 744      B526B842 
 744      3C2711A9 
 744      7CD79991 
 745 0219 7EC92521 		.ascii	"~\311%!\234\323\271C\243~NWW\027\370\326N\347\225\207"
 745      9CD3B943 
 745      A37E4E57 
 745      5717F8D6 
 745      4EE79587 
 746 022d 2451F1FD 		.ascii	"$Q\361\375\254\245\263\240\245\245\363\317\314LWKz\201"
 746      ACA5B3A0 
 746      A5A5F3CF 
 746      CC4C574B 
 746      7A81
 747 023f 2367E092 		.ascii	"#g\340\222\022\243\251\022\013t!\3542\305r\317\356e"
 747      12A3A912 
 747      0B7421EC 
 747      32C572CF 
 747      EE65
 748 0251 2E40F109 		.ascii	".@\361\011\265\336\330i\216\211\021L\377\307\343K\217"
 748      B5DED869 
 748      8E89114C 
 748      FFC7E34B 
 748      8F
 749 0262 CC42E1A6 		.ascii	"\314B\341\246Q\251b\\V\214\352k\350V\225:\022\277|\260"
 749      51A9625C 
 749      568CEA6B 
 749      E856953A 
 749      12BF7CB0 
 750 0276 88A51703 		.ascii	"\210\245\027\003\350\241S\312\341\023c\016k\343\011"
 750      E8A153CA 
 750      E113630E 
 750      6BE309
 751 0285 8EFF87C3 		.ascii	"\216\377\207\303\001\364*\012}B\207=\270\242\034\356"
 751      01F42A0A 
ARM GAS  C:\Users\AMANRA~1\AppData\Local\Temp\ccui46Te.s 			page 59


 751      7D42873D 
 751      B8A21CEE 
 752 0295 1B2B65DE 		.ascii	"\033+e\336\347\362\310\361<#\332\324<3\321\257x<\037"
 752      E7F2C8F1 
 752      3C23DAD4 
 752      3C33D1AF 
 752      783C1F
 753 02a8 F39CD4E8 		.ascii	"\363\234\324\350\346\343\252\"\272FD\303H\331\367\301"
 753      E6E3AA22 
 753      BA4644C3 
 753      48D9F7C1 
 754 02b8 3C1C99C9 		.ascii	"<\034\231\311\014\3376)\322\353\310YIv\002\327)\306"
 754      0CDF3629 
 754      D2EBC859 
 754      497602D7 
 754      29C6
 755 02ca CDF49D19 		.ascii	"\315\364\235\031\237\220\0317\020tu=\177\320\360\217"
 755      9F901937 
 755      1074753D 
 755      7FD0F08F 
 756 02da C6BBB361 		.ascii	"\306\273\263ak\030@\220\265\356\334\264\247\310\335"
 756      6B184090 
 756      B5EEDCB4 
 756      A7C8DD
 757 02e9 D330A8B6 		.ascii	"\3230\250\266\306\200\023J\337\247I\272\014L\211\233"
 757      C680134A 
 757      DFA749BA 
 757      0C4C899B 
 758 02f9 88521A8E 		.ascii	"\210R\032\216\234\343f\374`\235\233\261>]g\347\342\226"
 758      9CE366FC 
 758      609D9BB1 
 758      3E5D67E7 
 758      E296
 759 030b CAD898D0 		.ascii	"\312\330\230\320Y\023\267U\302w\306;\353\231\276\263"
 759      5913B755 
 759      C277C63B 
 759      EB99BEB3 
 760 031b BF281E73 		.ascii	"\277(\036s2g\207\024\321\335\251\234\375,\311\205AN"
 760      32678714 
 760      D1DDA99C 
 760      FD2CC985 
 760      414E
 761 032d 39ABBB56 		.ascii	"9\253\273Vz\330\272\311\2742\\\257~-x5O\214 \226~\264"
 761      7AD8BAC9 
 761      BC325CAF 
 761      7E2D7835 
 761      4F8C2096 
 762 0343 C3C5E696 		.ascii	"\303\305\346\226\240/\203\376\2674!B\241P\230~\345\025"
 762      A02F83FE 
 762      B7342142 
 762      A150987E 
 762      E515
 763 0355 95AB2BAB 		.ascii	"\225\253+\253\255\262\345e_\206\253\255p\305\252\252"
 763      ADB2E565 
 763      5F86ABAD 
 763      70C5AAAA 
 764 0365 B0555BCE 		.ascii	"\260U[\316\343J+R[IC\275\265:T.tkM}\215\214X5\213'="
ARM GAS  C:\Users\AMANRA~1\AppData\Local\Temp\ccui46Te.s 			page 60


 764      E34A2B52 
 764      5B4943BD 
 764      B53A542E 
 764      746B4D7D 
 765 0380 576D5157 		.ascii	"WmQW[\247\306P\205X:a \275\257\\[^U\277&Bo\"_G\326\326"
 765      5BA7C650 
 765      85583A61 
 765      20BDAF5C 
 765      5B5E55BF 
 766 039c 5914FB16 		.ascii	"Y\024\373\026aFJ\017"
 766      61464A0F 
 767              		.text
 768              		.section	.gnu.lto_vmt.c3bff927,"",%progbits
 769 0000 789C6D8F 		.ascii	"x\234m\217\275J\003Q\020\205\347\354\331\277\010\346"
 769      BD4A0351 
 769      1085E7EC 
 769      D9BF08E6 
 770 0010 097C86DD 		.ascii	"\011|\206\335\244[}\010_A\314\"dE\022\310\222z\267\014"
 770      A45B7D08 
 770      5F41CC22 
 770      644512C8 
 770      927AB70C 
 771 0024 A4756F75 		.ascii	"\244uou\213\255,\004\261P\243\353Oo\243/`c+\344\005"
 771      8BAD2C04 
 771      B150A3EB 
 771      4F6FA32F 
 771      60632BE4 
 772 0039 4444EF8D 		.ascii	"DD\357\215\345u\030\370\230\363\301\014\023\212\310"
 772      E57518F8 
 772      98F3C10C 
 772      138AC8
 773 0048 3E4406F2 		.ascii	">D\006\362W\247D\327\255\337\242\352\273^\324\365\373"
 773      57A744D7 
 773      ADDFA2EA 
 773      BB5ED4F5 
 773      FB
 774 0059 F239A0A6 		.ascii	"\3629\240\246(:\252\375i\3664\241\010\307\234A\323S"
 774      283AAAFD 
 774      69F634A1 
 774      08C79C41 
 774      D353
 775 006b F41C71AC 		.ascii	"\364\034q\254IE:y_\323W\364\235\374\253\3114\003\305"
 775      49453A79 
 775      5FD357F4 
 775      9DFCABC9 
 775      3403C5
 776 007e C031E7E6 		.ascii	"\3001\347\346D\250\030:b\242\031)F\377\235\210\025\343"
 776      44A8183A 
 776      62A21929 
 776      46FF9D88 
 776      15E3
 777 0090 4D7EB9EE 		.ascii	"M~\271\356>\267\227\346\257\036\354\370\361\362z\321"
 777      3EB797E6 
 777      AF1EECF8 
 777      F1F27AD1 
 778 00a0 CF56F5A2 		.ascii	"\317V\365\242\255[\023n5\024<b\247!\360\200\252\241"
 778      AD5B136E 
ARM GAS  C:\Users\AMANRA~1\AppData\Local\Temp\ccui46Te.s 			page 61


 778      35143C62 
 778      A721F080 
 778      AAA1
 779 00b2 877B0BB3 		.ascii	"\207{\013\263\317\302\307\235E\200[\213\020+\213\010"
 779      CFC2C79D 
 779      45805B8B 
 779      102B8B08 
 780 00c2 371631AE 		.ascii	"7\0261\256-z\270B%xB&I\222\244\246\363q1*\246\345pw"
 780      2D7AB842 
 780      25784226 
 780      4992A4A6 
 780      F371312A 
 781 00da 3848A765 		.ascii	"8H\247e:><I\313YnyP\036\315\012\203y9Jr\371\005y\\\212"
 781      3A3E3C49 
 781      CB596E79 
 781      501ECD0A 
 781      8379394A 
 782 00f4 BA       		.ascii	"\272"
 783              		.text
 784              		.section	.gnu.lto_sduStart.c3bff927,"",%progbits
 785 0000 789C9555 		.ascii	"x\234\225U]L\024W\024\276g\356\335\331_\026\312\203"
 785      5D4C1457 
 785      14BE67EE 
 785      DDD95F16 
 785      CA83
 786 0012 E98369D6 		.ascii	"\351\203i\326\264D4\206\221\206\3304i\037\032\236| "
 786      B4443486 
 786      9186D834 
 786      691F1A9E 
 786      7C20
 787 0024 69F4B14D 		.ascii	"i\364\261M\210\256\253n\342\272dG\032\355\213#(+\301"
 787      88AEAB6E 
 787      E2BA6447 
 787      1AED8B23 
 787      282BC1
 788 0037 26B60524 		.ascii	"&\266\005$\353*k[\253\224(U\253-*\260\005\213`\213?"
 788      EB2A6B5B 
 788      AB942855 
 788      AB2D2AB0 
 788      058B608B 
 789 004c 88544BFD 		.ascii	"\210TK\375\203\212\256.FI\037l\322b\317\271\263 \356"
 789      838AAE2E 
 789      46491F6C 
 789      D262CFB9 
 789      B320EE
 790 005f 22C6C9EE 		.ascii	"\"\306\311\356\235;\367\234\357\273\347|\367\314\031"
 790      9D3BF79C 
 790      EFBBE77C 
 790      F7CC19
 791 006e 953116B0 		.ascii	"\2251\026\2601\36660V\204s\2600Pv\236gl\213MQx\303B"
 791      31F63630 
 791      568473B0 
 791      3050769E 
 791      676C8B4D 
 792 0086 6638C493 		.ascii	"f8\304\2237\231\341\342 \314e\001@\023\303\006l\263"
 792      3799E1E2 
 792      20CC6501 
ARM GAS  C:\Users\AMANRA~1\AppData\Local\Temp\ccui46Te.s 			page 62


 792      4013C306 
 792      6CB3
 793 0098 C2056C86 		.ascii	"\302\005l\206\035\274\226Cgx\264UYp\300\300+\276k0\273"
 793      1DBC9643 
 793      6778B455 
 793      5970C0C0 
 793      2BBE6B30 
 794 00ad CAD8F67A 		.ascii	"\312\330\366z\2243V\217\177\272\340\030,@\257K[\277"
 794      9433568F 
 794      7FBAE018 
 794      2C40AF4B 
 794      5BBF
 795 00bf 8FF21A1E 		.ascii	"\217\362\032\036\345\000\002\037\037\367EF\334\364\250"
 795      E500021F 
 795      1FF74546 
 795      DCF4A8
 796 00ce 80071FA3 		.ascii	"\200\007\037\243\267\0367\271y!0\234_\270\270\273\337"
 796      B71E37B9 
 796      7921309C 
 796      5FB8B8BB 
 796      DF
 797 00df 3E7FBF61 		.ascii	">\177\277aT\030\3613\337p\343\255(\347p\0028\022\302"
 797      5418F133 
 797      DF70E3AD 
 797      28E77002 
 797      3812C2
 798 00f2 71980B3F 		.ascii	"q\230\013?\300\\\206K\014~\204\371\350\236\230h\271"
 798      C05C864B 
 798      0C7E84F9 
 798      E89E9868 
 798      B9
 799 0103 2BF81209 		.ascii	"+\370\022\011=\221l\354v\246\240\311\003\022*\340\247"
 799      3D916CEC 
 799      76A6A0C9 
 799      03122AE0 
 799      A7
 800 0114 74A860D0 		.ascii	"t\250`\320\012\363\311?q\351\310@6\177_bo\036\377\366"
 800      0AF3C93F 
 800      71E9C840 
 800      367F5F62 
 800      6F1EFFF6 
 801 0128 913DEF6B 		.ascii	"\221=\357k\211\035m\237\273\257\322\3501D\224[\340\344"
 801      891D6D9F 
 801      BBAFD2E8 
 801      3144945B 
 801      E0E4
 802 013a F378BAD0 		.ascii	"\363x\272\320}\370\310D]\226*\340\024\344\305&\263\205"
 802      7DF8C844 
 802      5D962AE0 
 802      14E4C526 
 802      B385
 803 014c D3A0C294 		.ascii	"\323\240\302\224m\253T\244\273C\225\353\365\034X\232"
 803      6DAB54A4 
 803      BB4395EB 
 803      F51C589A 
 804 015c E972C37B 		.ascii	"\351r\303{\233\031\264\221MI\267\015\355Y\3641\203v"
 804      9B19B491 
ARM GAS  C:\Users\AMANRA~1\AppData\Local\Temp\ccui46Te.s 			page 63


 804      4D49B70D 
 804      ED59F431 
 804      8376
 805 016e B271B2ED 		.ascii	"\262q\262\355?\327\337\341\344\265 I\232\016\357kp\245"
 805      3FD7DFE1 
 805      E4B52049 
 805      9A0EEF6B 
 805      70A5
 806 0180 42BDDB9C 		.ascii	"B\275\333\234\277\273\262\3463#V\221\023\345*\304g\011"
 806      BFBBB2E6 
 806      33235691 
 806      13E52AC4 
 806      6709
 807 0192 D6641E24 		.ascii	"\326d\036$9\177\206<\006\035\304.\246%\303\240\023\023"
 807      397F863C 
 807      061DC42E 
 807      A625C3A0 
 807      1313
 808 01a4 E8028C18 		.ascii	"\350\002\214\030\007\254\013\240\364Z\372-qc\342i\030"
 808      07AC0BA0 
 808      F45AFA2D 
 808      7163E269 
 808      18
 809 01b5 4F774E7B 		.ascii	"OwN{\244\252\355s\313\034\216*Z\005\0166\013\015*=Z"
 809      A4AAED73 
 809      CB1C8E2A 
 809      5A050E36 
 809      0B0D2A3D 
 810 01ca 6966A3C1 		.ascii	"if\243\301N\217\016\2329ip\001\311\235\305\210\313\015"
 810      4E8F0E9A 
 810      39697001 
 810      C99DC588 
 810      CB0D
 811 01dc 746A8C6D 		.ascii	"tj\214mG\271\260\226\2148\253\306\334qV\031g\367\241"
 811      47B9B096 
 811      8C38ABC6 
 811      DC715619 
 811      67F7A1
 812 01ef E2642279 		.ascii	"\342d\"y\326JjEx\026\206U\277\255\363\202\225\212D\310"
 812      D64A6A45 
 812      78168655 
 812      BFADF382 
 812      958A44C8 
 813 0203 B44F77F6 		.ascii	"\264Ow\366u\2531\330\273\005\323\210=\004\344\266G\270"
 813      75AB31D8 
 813      BB05D388 
 813      3D04E4B6 
 813      47B8
 814 0215 0BCE509E 		.ascii	"\013\316P\236TR5_\\\005\355\220\261\3230<Q\356\200_"
 814      5452355F 
 814      5C05ED90 
 814      B1D3303C 
 814      51EE805F 
 815 0229 200675B2 		.ascii	" \006u\262\010\241\03346\012\025\261O\345\011a\034\310"
 815      08A11B34 
 815      360A15B1 
 815      4FE50961 
ARM GAS  C:\Users\AMANRA~1\AppData\Local\Temp\ccui46Te.s 			page 64


 815      1CC8
 816 023b 8F0B0A23 		.ascii	"\217\013\012#!\020\032N\030m\2026R\301\003g\221\357"
 816      21101A4E 
 816      186D8236 
 816      52C10367 
 816      91EF
 817 024d 01540CB7 		.ascii	"\001T\014\267\3549y\023L!\200\355R\320\355\253\306\243"
 817      EC397913 
 817      4C2180ED 
 817      52D0EDAB 
 817      C6A3
 818 025f 4F1CF30E 		.ascii	"O\034\363\016*\215F\003\356\340\244M\017\215\2342lB"
 818      2A8D4603 
 818      EEE0A44D 
 818      0F8D9C32 
 818      6C42
 819 0271 C13D7A60 		.ascii	"\301=z`\236\014\343Qr`H\301\025\350\005!\271\030\234"
 819      9E0CE351 
 819      726048C1 
 819      15E80521 
 819      B9189C
 820 0284 93257FB0 		.ascii	"\223%\177\260\275\353\216k^s\012\355\"\337\361\303G"
 820      BDEB8E6B 
 820      5E730AED 
 820      22DFF1C3 
 820      47
 821 0295 AF3825FA 		.ascii	"\2578%\372WB\303o (\316[\217\353j\327\310\330\230T\345"
 821      5742C36F 
 821      2028CE5B 
 821      8FEB6AD7 
 821      C8D89854 
 822 02aa 9FE1895E 		.ascii	"\237\341\211^n\312\302\323t\360\314*B\026\364I\021\200"
 822      6ECAC2D3 
 822      74F0CC2A 
 822      4216F449 
 822      1180
 823 02bc 44388F22 		.ascii	"D8\217\" \333x\030L*\201l\270PY_\325j7W,\270\210\034"
 823      20DB7818 
 823      4C2A816C 
 823      B850595F 
 823      D56A3757 
 824 02d4 D77B9A9A 		.ascii	"\327{\232\232\345\253j\203\247xe\303\005$Gd\244\367"
 824      E5AB6A83 
 824      A77865C3 
 824      05244764 
 824      A4F7
 825 02e6 23F29B7E 		.ascii	"#\362\233~0\226\314\203y#\312\335(/\\LE4\020\276z\303"
 825      3096CC83 
 825      7923CADD 
 825      282F5C4C 
 825      453410BE 
 826 02fc 891199C1 		.ascii	"\211\021\231\301f\303%\031\221b\026\346\261\261{GDa"
 826      66C32519 
 826      916216E6 
 826      B1B17B47 
 826      4461
 827 030e 0B1963DF 		.ascii	"\013\031c\337A\224\347@?h\030\210<\265\313P\030\341"
ARM GAS  C:\Users\AMANRA~1\AppData\Local\Temp\ccui46Te.s 			page 65


 827      4194E740 
 827      3F681888 
 827      3CB5CB50 
 827      18E1
 828 0320 6EB32EFE 		.ascii	"n\263.\376=\3536cT_Q\200\001\271\235|;\257\244\011`"
 828      3DEB3663 
 828      545F5180 
 828      01B99D7C 
 828      3BAFA409 
 829 0335 45365380 		.ascii	"E6S\200k)\001l\270\230\231\355+\2457(\367\023\231\351"
 829      6B29016C 
 829      B89899ED 
 829      2BA53728 
 829      F71399E9 
 830 0349 1D96E9FD 		.ascii	"\035\226\351\375N\351\331dzW\247\245\367\337\201T\331"
 830      4EE9D964 
 830      7A57A7A5 
 830      F7DF8154 
 830      D9
 831 035a DB5F31BD 		.ascii	"\333_1\275kr;\322\013\376\300\364\356\300\326\241\256"
 831      6B723BD2 
 831      0BFEC0F4 
 831      EEC0D6A1 
 831      AE
 832 036b A2675453 		.ascii	"\242gTS\007\225\205E<\224j\010\325(G\303B\363\215\033"
 832      07958545 
 832      3C946A08 
 832      D52847C3 
 832      42F38D1B 
 833 037f 0F8F3D4D 		.ascii	"\017\217=M\246\364p \306\324\2437\245\207\023\027_\242"
 833      A6F47020 
 833      C6D4A337 
 833      A5871317 
 833      5FA2
 834 0391 C76AF612 		.ascii	"\307j\366\022A\376|\321y\037\225\202\\'A\234R\220\033"
 834      41FE7CD1 
 834      791F9582 
 834      5C27419C 
 834      52901B
 835 03a4 A62014A0 		.ascii	"\246 \024\240x\326\023\"\211\355\325\216\364\272\343"
 835      78D61322 
 835      89EDD58E 
 835      F4BAE3
 836 03b3 33D6DD6B 		.ascii	"3\326\335k\010\207\2333\306!\340\226\214C\245\215n\323"
 836      08879B33 
 836      C621E096 
 836      8C43A58D 
 836      6ED3
 837 03c5 9E2E22FF 		.ascii	"\236.\"\377\373^u\302\372\202c\236\205-\027\206%\233"
 837      FB5E75C2 
 837      FA82639E 
 837      852D1786 
 837      259B
 838 03d7 95D84640 		.ascii	"\225\330F@#t\343\216&\007\205\226\013\012\374\205(j"
 838      2374E38E 
 838      26078596 
 838      0B0AFC85 
ARM GAS  C:\Users\AMANRA~1\AppData\Local\Temp\ccui46Te.s 			page 66


 838      286A
 839 03e9 2F99BD7A 		.ascii	"/\231\275z\357\354\275\032\356\310~4\225'\365\236\321"
 839      EFECBD1A 
 839      EEC87E34 
 839      9527F59E 
 839      D1
 840 03fa E9FD28AD 		.ascii	"\351\375(\255\231\177Y\233\233\372\272X2\277.\371\325"
 840      997F599B 
 840      9BFABA58 
 840      32BF2EF9 
 840      D5
 841 040b C87E978C 		.ascii	"\310~\227\214\352sM\376\036\266\264\004\250\231\237"
 841      EA734DFE 
 841      1EB6B404 
 841      A8999F
 842 041a 9CFC5246 		.ascii	"\234\374RF\206z\314+\3156\322\\\264\227Sp\014\356g~"
 842      867ACC2B 
 842      CD36D25C 
 842      B4975370 
 842      0CEE677E 
 843 042e 351E2061 		.ascii	"5\036 a\222\276\032\311i\315r\242\361v\273s\262\017"
 843      92BE1AC9 
 843      69CD72A2 
 843      F176BB73 
 843      B20F
 844 0440 8ECA3E38 		.ascii	"\216\312>8&\373`z\323{h6=\217L\236\261\207\330\377j"
 844      26FB607A 
 844      D37B6836 
 844      3D8F4C9E 
 844      B187D8FF 
 845 0455 6A165056 		.ascii	"j\026PVR\222\355x\326X\014\350_PP\240\341\317\273\326"
 845      5292ED78 
 845      D6580CE8 
 845      5F5050A0 
 845      E1CFBBD6 
 846 0469 BFD21FD4 		.ascii	"\277\322\037\324\013\337-\\\254\005um\355\212u\232\036"
 846      0BDF2D5C 
 846      AC05756D 
 846      ED8A759A 
 846      1E
 847 047a F2D2BD54 		.ascii	"\362\322\275T\367\205\374x+\327W\026x\231\320W\225\227"
 847      F785FC78 
 847      2BD75716 
 847      7899D057 
 847      9597
 848 048c A9DEE0FA 		.ascii	"\251\336\340\372\325\3765\002\227\312\362_\210\017\352"
 848      D5FE3502 
 848      97CAF25F 
 848      880FEA
 849 049b 388436C8 		.ascii	"8\2046\310{\301Z6\263#\332\375\353\275\353\312W\371"
 849      7BC15A36 
 849      B323DAFD 
 849      EBBDEBCA 
 849      57F9
 850 04ad D0A26FD2 		.ascii	"\320\242o\322\321\321\272r\205\356\3730\344_2#\300\033"
 850      D1D1BA72 
 850      85EEFB30 
ARM GAS  C:\Users\AMANRA~1\AppData\Local\Temp\ccui46Te.s 			page 67


 850      E45F3223 
 850      C01B
 851 04bf 0C0482EB 		.ascii	"\014\004\202\353\265\262`h\203\256}\260\254\244\270"
 851      B5B26068 
 851      83AE7DB0 
 851      ACA4B8
 852 04ce 6423BA78 		.ascii	"d#\272x\203!_\351'\357\004\020^<\033\314\267q\003\201"
 852      83215FE9 
 852      27EF0410 
 852      5E3C1BCC 
 852      B7710381 
 853 04e2 B4E292E5 		.ascii	"\264\342\222\345K\227k\305\210\322\226Nn\037\320\375"
 853      4B976BC5 
 853      88D2964E 
 853      6E1FD0FD 
 854 04f2 7AE91AAF 		.ascii	"z\351\032\257\0279rJ\226/\363P\030e!\377\"O\336b\246"
 854      1739724A 
 854      962FF350 
 854      186521FF 
 854      224FDE62 
 855 0507 849835E0 		.ascii	"\204\2305\340\013\004C\233\330\377P\310\033V"
 855      0B04439B 
 855      D8FF50C8 
 855      1B56
 856              		.text
 857              		.section	.gnu.lto_sduStop.c3bff927,"",%progbits
 858 0000 789C9D57 		.ascii	"x\234\235WkLTG\024\236s\347\356\262/\236\326\226\266"
 858      6B4C5447 
 858      149E73E7 
 858      EEB22F9E 
 858      D696B6
 859 0013 942E6DA9 		.ascii	"\224.m\251b\014+\211\265\351/\323\360\313\037$\215\376"
 859      620C2B89 
 859      B5E92FD3 
 859      F0CB1F24 
 859      8DFE
 860 0025 6D627445 		.ascii	"mbtE%\021\227\354j\243\375\303\225\207+\241&\266\225"
 860      251197EC 
 860      6AA3FDC3 
 860      95872BA1 
 860      26B695
 861 0038 15D72DAC 		.ascii	"\025\327-\254Zm\301\212\242\245-\240\260\305\252`\305"
 861      5A6DC18A 
 861      A2A52DA0 
 861      B0C5AA60 
 861      C5
 862 0049 0745A5A5 		.ascii	"\007E\245\245\"JEQ\020A\353\003\025z\316\334\345\265"
 862      224A4551 
 862      1041EB03 
 862      157ACEDC 
 862      E5B5
 863 005b 0B187AA3 		.ascii	"\013\030z\243\263\367\316\231\363\315w\2763sf\3202\306"
 863      B3F7CE99 
 863      F3CD77BE 
 863      337366D0 
 863      32C6
 864 006d EE1919FB 		.ascii	"\356\031\031\373\000\030\233\217\357\240a m;\307\330"
ARM GAS  C:\Users\AMANRA~1\AppData\Local\Temp\ccui46Te.s 			page 68


 864      00189B8F 
 864      EFA06120 
 864      6D3BC7D8 
 865 007d 269D24F1 		.ascii	"&\235$\361\3029L1\310O\336e\212\211\203\254v\313\000"
 865      C2394C31 
 865      C84FDE65 
 865      8A8983AC 
 865      76CB00
 866 0090 F4A2E880 		.ascii	"\364\242\350\200eJ\\\206L\370\202o\347P\347\354\254"
 866      654A5C86 
 866      4CF8826F 
 866      E750E7EC 
 866      AC
 867 00a1 9412BE53 		.ascii	"\224\022\276S\360\361\3558\026\265Y\311\215\366p\306"
 867      F0F1ED38 
 867      16B559C9 
 867      8DF670C6 
 868 00b1 5CF89F1E 		.ascii	"\\\370\237\0368\012\0118\352b\316a\017\317\347\036\016"
 868      380A0938 
 868      EA62CE61 
 868      0FCFE71E 
 868      0E
 869 00c2 20E3675F 		.ascii	" \343g_\243\273#\214>%0\343\247\247\275\257$\214'\001"
 869      A3BB238C 
 869      3E2530E3 
 869      A7A7BDAF 
 869      248C2701 
 870 00d6 C3F7F317 		.ascii	"\303\367\363\027v5\351g\355S\224,\305\367|/W\336\363"
 870      7635E967 
 870      ED53942C 
 870      C5F77C2F 
 870      57DEF3
 871 00e9 700E3F01 		.ascii	"p\016?\001G@\250\200\030\370\021b\030v1\370\031f\321"
 871      4740A880 
 871      18F81162 
 871      187631F8 
 871      1966D1
 872 00fc F8AE8BE5 		.ascii	"\370\256\213\345\315\341|\201\360\275V\261\377\276>"
 872      CDE17C81 
 872      F0BD56B1 
 872      FFBE3E
 873 010b 7EAFF01D 		.ascii	"~\257\360\035l\210\331\235\255\324+\262\007\271\376"
 873      6C88D99D 
 873      ADD42BB2 
 873      07B9FE
 874 011a 32DE9F1E 		.ascii	"2\336\237\036\034~\243|\260 T+C%\304{\207)C\025ha\304"
 874      1C7EA37C 
 874      B020542B 
 874      4325C47B 
 874      87294315 
 875 0131 9623C26A 		.ascii	"\226#\302j;\243\025\375.\016,\300\324zka\010\203j\262"
 875      3BA315FD 
 875      2E0E2CC0 
 875      D47A6B61 
 875      08836AB2 
 876 0145 4981B60E 		.ascii	"I\201\266\016\317\334O\031\034#\033'\333\2763M\265F"
 876      CFDC4F19 
ARM GAS  C:\Users\AMANRA~1\AppData\Local\Temp\ccui46Te.s 			page 69


 876      1C231B27 
 876      DBBE334D 
 876      B546
 877 0157 BE150448 		.ascii	"\276\025\004HI\331\356B\223\237jo\351\354]\331\371["
 877      49D9EE42 
 877      939F6A6F 
 877      E9EC5DD9 
 877      F95B
 878 0169 156F5684 		.ascii	"\025oV\204\207k\240f\012\262*\362e\322\244\026\342\031"
 878      876BA066 
 878      0AB22AF2 
 878      65D2A416 
 878      E219
 879 017b 1C277479 		.ascii	"\034'tyL0\014|\030\300\257\200\214\261\301\344\002\205"
 879      4C300C7C 
 879      18C0AF80 
 879      8CB1C1E4 
 879      0285
 880 018d 77A849E3 		.ascii	"w\250I\343S\006\207\234\230\242\230\006wWKB,\240\210"
 880      5306879C 
 880      98A29806 
 880      77574B42 
 880      2CA088
 881 01a0 381A1B0D 		.ascii	"8\032\033\0156!Zlt!\324\350\350SOo\006j\214\364i\242"
 881      36215A6C 
 881      7421D4E8 
 881      E8534F6F 
 881      066A8CF4 
 882 01b6 B7506AC2 		.ascii	"\267Pj\302\260\321\207cc\210\300\306\030\011\224\206"
 882      B0D18763 
 882      6388C0C6 
 882      18099486 
 883 01c6 28467330 		.ascii	"(Fs0\266\005\005\304%\242\370X\036\252\201o\331>v\007"
 883      B60505C4 
 883      25A2F858 
 883      1EAA816F 
 883      D93E7607 
 884 01da B2AABA8A 		.ascii	"\262\252\272\212K\302H?7'e]\271u\347C(\367\252\232\307"
 884      4BC2483F 
 884      3727655D 
 884      B975E743 
 884      28F7AA9A 
 885 01ef EA1A4F69 		.ascii	"\352\032Oi\275P\264\011\0033{\270\311\315#\241\216\302"
 885      BD50B409 
 885      03337BB8 
 885      C9CD23A1 
 885      8EC2
 886 0201 465BB3B3 		.ascii	"F[\263\263\245\315h9\250\250&-\234\000/\024\210\205"
 886      A5CD6839 
 886      A8A8262D 
 886      9C002F14 
 886      8885
 887 0213 05BF8145 		.ascii	"\005\277\201E`7\304\252\310Qc\221\265A\310\336\375\022"
 887      6037C4AA 
 887      C8516391 
 887      B541C8DE 
 887      FD12
ARM GAS  C:\Users\AMANRA~1\AppData\Local\Temp\ccui46Te.s 			page 70


 888 0225 F20D4506 		.ascii	"\362\015E\006p\322\017\336\227\377U\013 \3706\001\036"
 888      70D20FDE 
 888      97FF550B 
 888      20F83601 
 888      1E
 889 0236 06A70438 		.ascii	"\006\247\0048\020\370i\004\357\204,\357\347b5`l\210"
 889      10F86904 
 889      EF842CEF 
 889      E7623560 
 889      6C88
 890 0248 8F1D1223 		.ascii	"\217\035\022#\321\321\325\331\245\034\227i\"\015\230"
 890      D1D1D5D9 
 890      A51C9769 
 890      220D98
 891 0257 A11EF1EE 		.ascii	"\241\036\361\356B\326\215\007\236\252k\240\212\016l"
 891      42D68D07 
 891      9EAA6BA0 
 891      8A0E6C
 892 0266 9B84C3F6 		.ascii	"\233\204\303\366\024\037yb\210\333-\025+\2058C8Mz\260"
 892      141F7962 
 892      88DB2D15 
 892      2B853843 
 892      384D7AB0 
 893 027a A35AD1C9 		.ascii	"\243Z\321\311\022\316\321\000q\202\306\375\356\346V"
 893      12CED100 
 893      7182C6FD 
 893      EEE656
 894 0289 097BE00C 		.ascii	"\011{\340\014\310\002\213\301\357b\217|_s\342\246)\356"
 894      C8028BC1 
 894      EF628F7C 
 894      5F73E2A6 
 894      29EE
 895 029b 5BBF7704 		.ascii	"[\277w\004\215\355/;r\311(\274\317\22274\202L<\333+"
 895      8DED2F3B 
 895      72C928BC 
 895      CF923734 
 895      824C3CDB 
 896 02b0 0AB6AF12 		.ascii	"\012\266\257\022\334\230\320\344\351\236\262\001I\225"
 896      DC98D0E4 
 896      E99EB201 
 896      4995
 897 02be 459EA6C2 		.ascii	"E\236\246\302\347F\025>?\254\360B\025J\023\014\205z"
 897      E746153E 
 897      3FACF042 
 897      154A130C 
 897      857A
 898 02d0 CA93E819 		.ascii	"\312\223\350\031\011\027\004\224DP\027U\250~'\250P\204"
 898      09170494 
 898      44501755 
 898      A87E27A8 
 898      5084
 899 02e2 861DD9AE 		.ascii	"\206\035\331\256\315;\215jO\010v\"\306\325\372\222\003"
 899      CD3B8D6A 
 899      4F087622 
 899      C6D5FA92 
 899      03
 900 02f3 A24CE860 		.ascii	"\242L\350`\010\237phBp\364|X\237F\343\306\346X\016\316"
ARM GAS  C:\Users\AMANRA~1\AppData\Local\Temp\ccui46Te.s 			page 71


 900      089F7068 
 900      4270F47C 
 900      589F46E3 
 900      C6E6580E 
 901 0308 71AC8747 		.ascii	"q\254\207Ga\246\340\217\011\203\233\001\315\202\021"
 901      61A6E08F 
 901      09839B01 
 901      CD8211
 902 0317 57F7D3D1 		.ascii	"W\367\323\321\236\333\345r\322!2zK\301\303_\201K`A\""
 902      9EDBE572 
 902      D221327A 
 902      4BC1C35F 
 902      814B6041 
 903 032c 22F6CB90 		.ascii	"\"\366\313\220\004\2111\352\342\255\312\213R9\352\246"
 903      048931EA 
 903      E2ADCA8B 
 903      5239EAA6 
 904 033c 29C01531 		.ascii	")\300\0251\235Lx-\001\002\350\021M\025\240\322/\200"
 904      9D4C782D 
 904      0102E811 
 904      4D15A0D2 
 904      2F80
 905 034e 013B83A3 		.ascii	"\001;\203\243\235Vx\177\212\3714\301\341\225\211\360"
 905      9D56787F 
 905      8AF934C1 
 905      E19589F0 
 906 035e FEA2F00C 		.ascii	"\376\242\360\014\"\274\326\321\360J\252\365*\001\343"
 906      22BCD6D1 
 906      F04AAAF5 
 906      2A01E3
 907 036d 34A3FB5B 		.ascii	"4\243\373[\314\246%\270\253\030\335M\310i=1\177\024"
 907      CCA625B8 
 907      AB18DD4D 
 907      C8693D31 
 907      7F14
 908 037f 6A244F91 		.ascii	"j$O\221\270\035\332\374e,\017\305/\234\243V\205~g\343"
 908      B81DDAFC 
 908      652C0FC5 
 908      2F9CA356 
 908      857E67E3 
 909 0393 8E7DFE55 		.ascii	"\216}\376U\212K\322\250\312Q\342\227\003\2476\275D\216"
 909      8A4BD2A8 
 909      CA51E297 
 909      03A736BD 
 909      448E
 910 03a5 95EC257A 		.ascii	"\225\354%z\\\233,\335G\204\036\355\244G\250\320\343"
 910      5C9B2CDD 
 910      47841EED 
 910      A447A8D0 
 910      E3
 911 03b6 BAAA0711 		.ascii	"\272\252\007\021\224G\353\326\303\3335y\206I\0221\345"
 911      9447EBD6 
 911      C3DB3579 
 911      86491231 
 911      E5
 912 03c7 26BA31BA 		.ascii	"&\2721\272\211:\300\"\024\024p\265\377\007n&\374#\340"
 912      893AC022 
ARM GAS  C:\Users\AMANRA~1\AppData\Local\Temp\ccui46Te.s 			page 72


 912      141470B5 
 912      FF076E26 
 912      FC23E0
 913 03da 6861C24D 		.ascii	"ha\302M\260\340\200\012\347\331r\003i;\023\000:U\364"
 913      B0E0800A 
 913      E7D97203 
 913      693B1300 
 913      3A55F4
 914 03ed 01E7C19D 		.ascii	"\001\347\301\235\241\252va\323\332\363\257\302-\201"
 914      A1AA7661 
 914      D3DAF3AF 
 914      C22D81
 915 03fc AF53753A 		.ascii	"\257Su:\320x\247M\233\371\302o\324\303m\314-\203.\310"
 915      D078A74D 
 915      9BF9C26F 
 915      D4C36DCC 
 915      2D832EC8 
 916 0410 A44263F6 		.ascii	"\244Bc\366\323\377\346J{\267\236\377 \211-x\330\375"
 916      D3FFE64A 
 916      7BB79EFF 
 916      20892D78 
 916      D8FD
 917 0422 58D1F94F 		.ascii	"X\321\371O\262G\015&\267\342\313\021\236w\202\2171\270"
 917      B2470D26 
 917      B7E2CB11 
 917      9E77828F 
 917      31B8
 918 0434 4BA5344C 		.ascii	"K\2454L\324\326\003\373\271\037\255\300\335\031\315"
 918      D4D603FB 
 918      B91FADC0 
 918      DD19CD
 919 0443 0FAB605F 		.ascii	"\017\253`_\266\272\333B\203\300^\203\356\011\300zD-"
 919      B6BADB42 
 919      83C05E83 
 919      EE09C07A 
 919      442D
 920 0455 3E39F4D8 		.ascii	">9\364\330\027NbD\203\004\367\320\326\015\271\355\275"
 920      174E6244 
 920      8304F7D0 
 920      D60DB9ED 
 920      BD
 921 0466 0F6A4F07 		.ascii	"\017jO\007\236\342_o\237A.\304\301\177\232k\306\235"
 921      9EE25F6F 
 921      9F412EC4 
 921      C17F9A6B 
 921      C69D
 922 0478 9BBD58B9 		.ascii	"\233\275X\271\357\323\271I\015\032*+\273[CP\011\235"
 922      EFD3B949 
 922      0D1A2A2B 
 922      BB5B4350 
 922      099D
 923 048a 87BFEEC2 		.ascii	"\207\277\356\302\254\366\222\255\017\205\300\010h\""
 923      ACF692AD 
 923      0F85C008 
 923      6822
 924 0498 0F7F6344 		.ascii	"\017\177cD\023\001:\372\325\343\257\304\003\316\212"
 924      13013AFA 
ARM GAS  C:\Users\AMANRA~1\AppData\Local\Temp\ccui46Te.s 			page 73


 924      D5E3AFC4 
 924      03CE8A
 925 04a7 9DFE1D1F 		.ascii	"\235\376\035\037\036\230\365R:\201\247\310\313\233\320"
 925      1E98F552 
 925      3A81A7C8 
 925      CB9BD0
 926 04b6 2FF2A20F 		.ascii	"/\362\242\017\312\2137\014\217_x \022\363\020\371tC"
 926      CA8B370C 
 926      8F5F7820 
 926      12F310F9 
 926      7443
 927 04c8 8E983680 		.ascii	"\216\2306\200t\214\213\326\014\374+\030\207{\370[*\243"
 927      748C8BD6 
 927      0CFC2B18 
 927      877BF85B 
 927      2AA3
 928 04da 93C38C22 		.ascii	"\223\303\214\"\246\313(\026\036\011F\206\011\031\031"
 928      A6CB2816 
 928      1E094686 
 928      091919
 929 04e9 E1B160F4 		.ascii	"\341\261`\364drFo\273h\225\301S\301\010\257:f\034\230"
 929      6472466F 
 929      BB6895C1 
 929      53C108AF 
 929      3A661C98 
 930 04fd DDDEB3B7 		.ascii	"\335\336\263\267Z\033\230*\367\014\177\212\364\343R"
 930      5A1B982A 
 930      F70C7F8A 
 930      F4E352
 931 050c 3480DA3E 		.ascii	"4\200\332>\2434<\013\302\216s\241&\003d{\216\360\036"
 931      A3343C0B 
 931      C28E73A1 
 931      2603647B 
 931      8EF01E
 932 051f FE8E38AF 		.ascii	"\376\2168\257\203/ZES_\264\340\205XT#\325K\203\325k"
 932      832F5A45 
 932      535FB4E0 
 932      85585423 
 932      D54B83D5 
 933 0534 70EC011F 		.ascii	"p\354\001\037\310\264h\230\2511\350jx\372\375h\006C"
 933      C8B46898 
 933      A931E86A 
 933      78FAFD68 
 933      0643
 934 0546 64338D8B 		.ascii	"d3\215\213B\221\264\260I\322\006_\027g/edpaU\012\260"
 934      4291B4B0 
 934      49D2065F 
 934      17672F65 
 934      64706155 
 935 055c DD2D9D5F 		.ascii	"\335-\235_\304\211\033\203,)\350\306\227\215\2009\010"
 935      C4891B83 
 935      2C29E8C6 
 935      978D8039 
 935      08
 936 056d 48CDC8E5 		.ascii	"H\315\310\345c\260\370z\215q\370^1(\356\025\271\222"
 936      63B0F87A 
 936      8D71F85E 
ARM GAS  C:\Users\AMANRA~1\AppData\Local\Temp\ccui46Te.s 			page 74


 936      3128EE15 
 936      B992
 937 057f 3CC12562 		.ascii	"<\301%b\263$.\021f\021;\376Q\200\367\211\374\226\004"
 937      B3242E11 
 937      66113BFE 
 937      5180F789 
 937      FC9604
 938 0592 913E7AB6 		.ascii	"\221>z\266\340\225\010K\"\216OLL\264\340?\353\352\264"
 938      E095084B 
 938      228E4F4C 
 938      4CB4E03F 
 938      EBEAB4
 939 05a5 E5693647 		.ascii	"\345i6G\322GI\363,6\207e\365\2625\026\207\335J\277K"
 939      D24749F3 
 939      2C368765 
 939      F5B23516 
 939      87DD4ABF 
 940 05ba 1DA9F634 		.ascii	"\035\251\3664\374Y\357X\236he\262c\305\372\014\031\337"
 940      FC59EF58 
 940      9E6865B2 
 940      63C5FA0C 
 940      19DF
 941 05cc 33664FEA 		.ascii	"3fO\352hs`c_'~\023W\263\211\007\242=m\255u\315\372\025"
 941      68736063 
 941      5F277E13 
 941      57B38907 
 941      A23D6DAD 
 942 05e4 A968716C 		.ascii	"\251hqlt\340\300\220\345\313\034\251\237\330\323\026"
 942      74E0C090 
 942      E5CB1CA9 
 942      9FD8D316 
 943 05f4 4CE860B5 		.ascii	"L\350`\265\245\247\333\326Z2l\366u\016\313\307\213S"
 943      A5A7DBD6 
 943      5A326CF6 
 943      750ECBC7 
 943      8B53
 944 0606 925336E0 		.ascii	"\222S6\340\020\253\315\236\272\364\263\017\323\321="
 944      10ABCD9E 
 944      BAF4B30F 
 944      D3D13D
 945 0615 792AB7D4 		.ascii	"y*\267\324\015\353\310\311\222\234\262d\321\022K2zY"
 945      0DEBC8C9 
 945      929CB264 
 945      D1124B32 
 945      7A59
 946 0627 160D4F9F 		.ascii	"\026\015O\237\356Hs,]e\265\"FD\312\222\305f\242\221"
 946      EE48732C 
 946      5D65B522 
 946      4644CA92 
 946      C566A291 
 947 063b 614F9B6B 		.ascii	"aO\233k\216\237\307$;\013IOM\267\33172\236\352\310\320"
 947      8E9FC724 
 947      3B0B494F 
 947      4DB7D937 
 947      329EEAC8 
 948 0650 AC5CB36C 		.ascii	"\254\\\263l\225\343?\320\011>\344"
 948      95E33FD0 
ARM GAS  C:\Users\AMANRA~1\AppData\Local\Temp\ccui46Te.s 			page 75


 948      093EE4
 949              		.text
 950              		.section	.gnu.lto_sduSuspendHookI.c3bff927,"",%progbits
 951 0000 789C9592 		.ascii	"x\234\225\222\317k\023Q\020\307\347\373\346\355&\365"
 951      CF6B1351 
 951      10C7E7FB 
 951      E6ED26F5 
 952 0010 472F5E14 		.ascii	"G/^\024z((\224\212d\015T\301\253\370\037x\361&6\012"
 952      7A282894 
 952      8A640D54 
 952      C1ABF81F 
 952      78F12636 
 953 0025 0D08952E 		.ascii	"\015\010\225.=\3475\266MK=x0Q\342\"=XD\250\277\360g"
 953      3DE735B6 
 953      4D4B3D78 
 953      3051E222 
 953      3D5844A8 
 954 003c 6AD53582 		.ascii	"j\3255\202\320C[-\036\204\212\210\277@\211Bo\012\332"
 954      D0435B2D 
 954      1E848A88 
 954      BF408942 
 954      6F0ADA
 955 004f 3AB389C5 		.ascii	":\263\211\305C/>\366\355\314\274\371\365\231\307\363"
 955      432F3EF6 
 955      EDCCBCF9 
 955      F599C7F3 
 956 005f 89E89021 		.ascii	"\211\350\220!\332'\362\240l\370\004sv\201h(m\014O\367"
 956      DA27F2A0 
 956      6CF80473 
 956      76816828 
 956      6D0C4FF7 
 957 0073 90DB643F 		.ascii	"\220\333d?\356 \267\205\215\367c\247Z\027v\213e\341"
 957      EE20B785 
 957      8DF763A7 
 957      5A17768B 
 957      65E1
 958 0085 69103C40 		.ascii	"i\020<@\245K\203\012\206\255\207\002\316\3609F\275\364"
 958      A54B830A 
 958      86AD8702 
 958      CEF03946 
 958      BDF4
 959 0097 B966BAAF 		.ascii	"\271f\272\2578Y\361\3717\333F\335\310\366\210\211*\262"
 959      3859F1F9 
 959      37DB46DD 
 959      C8F68889 
 959      2AB2
 960 00a9 75E136BA 		.ascii	"u\3416\272%\352\345\360\315\210'8b\300\212\2712_\375"
 960      25EAE5F0 
 960      CD882738 
 960      62C08AB9 
 960      325FFD
 961 00bc D0AEA641 		.ascii	"\320\256\246A\247\230\321\273\225\253\355\234\005\211"
 961      A798D1BB 
 961      95ABED9C 
 961      0589
 962 00ca BEF8E2E2 		.ascii	"\276\370\342\342R[\327\224sE\027\377\272\314nW\304\214"
 962      525BD794 
ARM GAS  C:\Users\AMANRA~1\AppData\Local\Temp\ccui46Te.s 			page 76


 962      734517FF 
 962      BACC6E57 
 962      C48C
 963 00dc 7B602988 		.ascii	"{`)\210\273\350\300\035t\220\034\021\356\243K\343\337"
 963      BBE8C01D 
 963      74901C11 
 963      EEA34BE3 
 963      DF
 964 00ed DF5A2D6F 		.ascii	"\337Z-o\365m\263!\036\350T\242\334X\362b\267\272Vrq"
 964      F56DB321 
 964      1EE854A2 
 964      DC58F262 
 964      B7BA5672 
 965 0102 630A6B87 		.ascii	"c\012k\207S\220\034k\364g\221d\322\230\304\313@.\246"
 965      53901C6B 
 965      F4679164 
 965      D298C4CB 
 965      402EA6
 966 0115 7136AA9D 		.ascii	"q6\252\235\216\351+\2123_~\316A\313T\031R\2752R_L)("
 966      8EE92B8A 
 966      335F7ECE 
 966      41CB5419 
 966      52BD3252 
 967 012d 2770B3F5 		.ascii	"'p\263\365\371\347\376$.\015\311\264\235\021{U\266\250"
 967      F9E7FE24 
 967      2E0DC9B4 
 967      9D117B55 
 967      B6A8
 968 013f 0990FA5E 		.ascii	"\011\220\372^\225^\277\335\034\\sM\227\217\031L\242"
 968      955EBFDD 
 968      1C5C734D 
 968      978F194C 
 968      A2
 969 0150 9CDC8238 		.ascii	"\234\334\2028\257\177+.\330u\247\305C\004eVP\314\"\240"
 969      AF7F2B2E 
 969      D875A7C5 
 969      43046556 
 969      50CC22A0 
 970 0164 4F185E7E 		.ascii	"O\030^~\266g\203\256\026\204GZ_\326\270\014=\335\323"
 970      B66783AE 
 970      1684475A 
 970      5FD6B80C 
 970      3DDDD3
 971 0177 A29C3BD2 		.ascii	"\242\234;\322\2146\377\005\225\302\343\004\312l\014"
 971      8C36FF05 
 971      95C2E304 
 971      CA6C0C
 972 0186 F5641D2A 		.ascii	"\365d\035*\376\013\325\260\255>\377`X\032\335/\030\015"
 972      FE0BD5B0 
 972      AD3EFF60 
 972      581ADD2F 
 972      180D
 973 0198 243E2D54 		.ascii	"$>-T\2535\226S\205\337.\035q\272\242\025\360\024\005"
 973      AB359653 
 973      85DF2E1D 
 973      71BAA215 
 973      F01405
ARM GAS  C:\Users\AMANRA~1\AppData\Local\Temp\ccui46Te.s 			page 77


 974 01ab 128E88DB 		.ascii	"\022\216\210\333\222\024\257u\301\337a\232\317bL\242"
 974      9214AF75 
 974      C1DF619A 
 974      CF624CA2 
 975 01bb E448AC4C 		.ascii	"\344H\254L&\023\310\227\353\313\367\346\373\303\354"
 975      2613C897 
 975      EBCBF7E6 
 975      FBC3EC
 976 01ca 81ECDEA0 		.ascii	"\201\354\336\240?\014\372\216\235\014\302\201\234\312"
 976      3F0CFA8E 
 976      9D0CC281 
 976      9CCA
 977 01d8 A3E18981 		.ascii	"\243\341\211\201\274\210\301\2607\223#\033\036\037<"
 977      BC88C1B0 
 977      3793231B 
 977      1E1F3C
 978 01e7 F5077FE9 		.ascii	"\365\007\177\351\314\256"
 978      CCAE
 979              		.text
 980              		.section	.gnu.lto_sduWakeupHookI.c3bff927,"",%progbits
 981 0000 789C9552 		.ascii	"x\234\225R\337KSQ\034?\237\235\273\273-7\037E\310\207"
 981      DF4B5351 
 981      1C3F9F9D 
 981      BBBB2D37 
 981      1F45C887 
 982 0014 3D24E6CB 		.ascii	"=$\346\313n\276\004\365\207\364\032\272\254\015\004"
 982      6EBE04F5 
 982      87F41ABA 
 982      AC0D04
 983 0023 C59BCF3B 		.ascii	"\305\233\317;.\347\214|(j\013n\267\030\230\244\230e"
 983      2EE78C7C 
 983      286A0B6E 
 983      B71898A4 
 983      9865
 984 0035 683F6666 		.ascii	"h?ff\267e\332\017\246%E\205 \243b\017\262\004A\020\002"
 984      B765DA0F 
 984      A6254585 
 984      20A3620F 
 984      B2044110 
 985 004a 67DF7366 		.ascii	"g\337sf\253\310\240\016;\367\234\357\276\337\357\347"
 985      ABC8A00E 
 985      3BF79CEF 
 985      BEDFEFE7 
 986 005a F3FD7EBE 		.ascii	"\363\375~\276Gg\214E8m:\367\323\006gp\235_d\254\327"
 986      47678C45 
 986      386D3AF7 
 986      D3066770 
 986      9D5F64AC 
 987 006f EB02E445 		.ascii	"\353\002\344Ex\301b.\3040\310/q\344\222\305\254\253"
 987      78C1622E 
 987      C430C82F 
 987      71E492C5 
 987      ACAB
 988 0081 F986A0E5 		.ascii	"\371\206\240\345\\\236\256\353\027\211z\233\322\323"
 988      5C9EAEEB 
 988      17897A9B 
 988      D2D3
ARM GAS  C:\Users\AMANRA~1\AppData\Local\Temp\ccui46Te.s 			page 78


 989 008f B4E5C224 		.ascii	"\264\345\302$\232)\352M\337\204\315\317q\233\003\032"
 989      9A29EA4D 
 989      DF84CDCF 
 989      719B031A 
 990 009f 991B79EB 		.ascii	"\231\033y\353s\2554]\010\222i\0276Fky\013\030\335\227"
 990      73AD345D 
 990      08926917 
 990      36466B79 
 990      0B18DD97 
 991 00b3 5E5F59F6 		.ascii	"^_Y\3665\015\013\021\027\316\346u.\016\330\234\343\036"
 991      350D0B11 
 991      17CEE675 
 991      2E0ED89C 
 991      E31E
 992 00c5 3801E22E 		.ascii	"8\001\342.\0320\205\006F\1771\334G\223\214\377t\247"
 992      1A308506 
 992      467F31DC 
 992      47938CFF 
 992      74A7
 993 00d7 9C0AE85A 		.ascii	"\234\012\350Z\205\020\017\2403\320\345\366\262\333\021"
 993      85100FA0 
 993      33D0E5F6 
 993      B2DB11
 994 00e6 E59DA470 		.ascii	"\345\235\244p\276\014\343\3351\017(G\243\372e\022\033"
 994      BE0CE3DD 
 994      310F2847 
 994      A3FA6512 
 994      1B
 995 00f7 A0506A44 		.ascii	"\240PjD8\354,w\311\333\031\207\255!\376-\271=\031\220"
 995      38EC2C77 
 995      C9DB1987 
 995      AD21FE2D 
 995      B93D1990 
 996 010b 08160701 		.ascii	"\010\026\007\001\247\023\271%\217\254\221\253\272fr"
 996      A713B925 
 996      8FAC91AB 
 996      BA6672
 997 011a F9793D83 		.ascii	"\371y=\203k\275\324h\320\346n\213j\317R-\322\3676\371"
 997      6BBDD468 
 997      D0E66E8B 
 997      6ACF522D 
 997      D2F736F9 
 998 012e 61B5C618 		.ascii	"a\265\306\030\027\025\227\216id\220R\002\220s,\277\266"
 998      1715978E 
 998      69649052 
 998      0290732C 
 998      BFB6
 999 0140 AAC7B677 		.ascii	"\252\307\266w\235\032\036\302\240Bg\020cE\304\203\222"
 999      9D1A1EC2 
 999      A0426710 
 999      6345C483 
 999      92
 1000 0151 8F82AEBE 		.ascii	"\217\202\256\276/\224|\374\260b\232\260\266\204\267"
 1000      2F947CFC 
 1000      B0629AB0 
 1000      B684B7
 1001 0160 714829B0 		.ascii	"qH)\260\376\321o\011\247O%>\372]\004\245\356,\032\251"
ARM GAS  C:\Users\AMANRA~1\AppData\Local\Temp\ccui46Te.s 			page 79


 1001      FED16F09 
 1001      A74F253E 
 1001      FA5D04A5 
 1001      EE2C1AA9 
 1002 0174 5A8994D9 		.ascii	"Z\211\224\331\271\311w\301RV\261\236\037UX\027V\254"
 1002      B9C977C1 
 1002      5256B19E 
 1002      1F555817 
 1002      56AC
 1003 0186 D5C01F58 		.ascii	"\325\300\037X\036<\336\003\313A#eL\315-\364{e\333^\000"
 1003      1E3CDE03 
 1003      CB412365 
 1003      4CCD2DF4 
 1003      7B65DB5E 
 1004 019b 4FC85742 		.ascii	"O\310WB\24204X\336\252\257\212\335\247\206}q\266N\246"
 1004      A2303458 
 1004      DEAAAF8A 
 1004      DDA7867D 
 1004      71B64EA6 
 1005 01af C81294EE 		.ascii	"\310\022\224\356\351\212N?\346\201\034t<\225\343\220"
 1005      E98A4E3F 
 1005      E6811C74 
 1005      3C95E390 
 1006 01bf 1F7264B3 		.ascii	"\037rd\263\245\025\017\351\340\265\271/M\342\345\244"
 1006      A5150FE9 
 1006      E0B5B92F 
 1006      4DE2E5A4 
 1007 01cf 6F8E64A0 		.ascii	"o\216d\240\006$\221\315\367U\025Q\240?-GZ4\241\315\221"
 1007      062491CD 
 1007      F7551551 
 1007      A03F2D47 
 1007      5A34A1CD 
 1008 01e4 919ADD1E 		.ascii	"\221\232\335\036\377}\0345x\246\306\201\3128n}\215/"
 1008      FF7D1C35 
 1008      78A6C681 
 1008      CA386E7D 
 1008      8D2F
 1009 01f6 6A55A71F 		.ascii	"jU\247\037\3630R\364\012\250\377\005\030\277\216\335"
 1009      F33052F4 
 1009      0AA8FF05 
 1009      18BF8EDD 
 1010 0206 0F86E784 		.ascii	"\017\206\347\204\250xG\377\2377\200\027\212\227\357"
 1010      A87847FF 
 1010      9F378017 
 1010      8A97EF
 1011 0215 CDFBB2CA 		.ascii	"\315\373\262\312\373\012\206\"Z\247!\216\215C\275a\271"
 1011      FB0A8622 
 1011      5AA7218E 
 1011      8D43BD61 
 1011      B9
 1012 0226 06A8647A 		.ascii	"\006\250dz\234\024\023\012\205\014\372\205#\321\266"
 1012      9C14130A 
 1012      850CFA85 
 1012      23D1B6
 1013 0235 68A7D972 		.ascii	"h\247\331r\244\345\220\321i\032\221\326\016\303\354"
 1013      A4E590D1 
 1013      691A91D6 
ARM GAS  C:\Users\AMANRA~1\AppData\Local\Temp\ccui46Te.s 			page 80


 1013      0EC3EC
 1014 0244 0ECBF3B8 		.ascii	"\016\313\363\270\331\336\035\245\243\307l\013\205\231"
 1014      D9DE1DA5 
 1014      A3C76C0B 
 1014      8599
 1015 0252 669EE8E9 		.ascii	"f\236\350\351\342\355f\227\373dG\353)\363\340_\263;"
 1015      E2ED6697 
 1015      FB6447EB 
 1015      29F3E05F 
 1015      B33B
 1016 0264 4DFA749F 		.ascii	"M\372t\237Vg(\302\276\003[O8A"
 1016      566728C2 
 1016      BE035B4F 
 1016      3841
 1017              		.text
 1018              		.section	.gnu.lto_sduConfigureHookI.c3bff927,"",%progbits
 1019 0000 789C9553 		.ascii	"x\234\225SKO\023Q\024\276\337\334i)\266\305\267\222"
 1019      4B4F1351 
 1019      14BEDFDC 
 1019      6929B6C5 
 1019      B792
 1020 0012 C8A20B09 		.ascii	"\310\242\013\011\262\351\310\306D\377\210K\003\210\226"
 1020      B2E9C8C6 
 1020      44FF884B 
 1020      038896
 1021 0021 8404C2C8 		.ascii	"\204\004\302\310\272C-\024#\013_-I\035M\023B\020\215"
 1021      BA432D14 
 1021      230B5F2D 
 1021      491D4D13 
 1021      42108D
 1022 0034 8011C52A 		.ascii	"\200\021\305*\342P\021P)\205J\242\011\261!\232\260 "
 1022      E2501150 
 1022      29854AA2 
 1022      09B1219A 
 1022      B020
 1023 0046 D5844425 		.ascii	"\325\204D%1\212\236{!\245\362\210a2s\037s\316\371\316"
 1023      318A9E7B 
 1023      21A5F288 
 1023      6132731F 
 1023      73CEF9CE 
 1024 005a 77BE7B8F 		.ascii	"w\276{\217\23516\2422\346\243\371\010}\340\014\312\225"
 1024      9D3136A2 
 1024      32E6A3F9 
 1024      087DE00C 
 1024      CA95
 1025 006c 29C69A1D 		.ascii	")\306\232\035\012 \026\206\003\314\257\300\217v~\203"
 1025      0A201686 
 1025      03CCAFC0 
 1025      8F767E83 
 1026 007c 23115A88 		.ascii	"#\021Z\210+\345\335\006=V\307\217C\255FK\261\311\031"
 1026      2BE5DD06 
 1026      3D56C78F 
 1026      43AD464B 
 1026      B1C919
 1027 008f 8BD0271E 		.ascii	"\213\320'\036<D9y\315\004\373M~\231\233\034Pi\273\224"
 1027      3C443979 
 1027      CD04FB4D 
ARM GAS  C:\Users\AMANRA~1\AppData\Local\Temp\ccui46Te.s 			page 81


 1027      7E999B1C 
 1027      5069BB94 
 1028 00a3 8C7E2E12 		.ascii	"\214~.\022[\005\036\332\232\363K=E\274\002\214\326\251"
 1028      5B051EDA 
 1028      9AF34B3D 
 1028      45BC028C 
 1028      D6A9
 1029 00b5 E99BE9C2 		.ascii	"\351\233\351\302\262.\303\010\030\326d\0277\216\232"
 1029      B22EC308 
 1029      18D66417 
 1029      378E9A
 1030 00c4 9CE33138 		.ascii	"\234\34318\001\342\021J0\200\022F\277\030\006Q&\374"
 1030      01E2114A 
 1030      30801246 
 1030      BF180651 
 1030      26FC
 1031 00d6 3F3D5809 		.ascii	"?=X\011\273\355\352jB<\201\235\201\026}i\233e\254\374"
 1031      BBEDEA6A 
 1031      423C819D 
 1031      81167D69 
 1031      9B65ACFC 
 1032 00ea 0919D6AF 		.ascii	"\011\031\326\257.t\234v\201bT\205\006\033\247\301\256"
 1032      2E749C76 
 1032      81625485 
 1032      061BA7C1 
 1032      AE
 1033 00fb 4286B336 		.ascii	"B\206\2636\012\242\222\014\213]\342\212X]\264\330\""
 1033      0AA2920C 
 1033      8B5DE28A 
 1033      585DB4D8 
 1033      22
 1034 010c 023F431F 		.ascii	"\002?C\037\007\335\002+\312A)\"-\211T\201`\313%\303"
 1034      07DD022B 
 1034      CA412922 
 1034      2D895481 
 1034      60CB25C3 
 1035 0120 A14472CC 		.ascii	"\241Dr\314\036\303\355f*9vW \027D\271\2128\021\023\346"
 1035      1EC3ED66 
 1035      2A397657 
 1035      201744B9 
 1035      8A381113 
 1036 0135 D9D0878C 		.ascii	"\331\320\207\214S\273/\004\361\230\334\201\247\210!"
 1036      53BB2F04 
 1036      F198DC81 
 1036      A78821
 1037 0144 2CD520E3 		.ascii	",\325 \343\275\344b\306\356\377-\214\261\"\242\204g"
 1037      BDE462C6 
 1037      EEFF2D8C 
 1037      B122A284 
 1037      67
 1038 0155 D088F610 		.ascii	"\320\210\366\020\374,\213\240G\362'\267x<;W@n\016\223"
 1038      FC2C8BA0 
 1038      47F227B7 
 1038      783C3B57 
 1038      406E0E93 
 1039 0169 1746282B 		.ascii	"\027F(+\303s\362 6&\337%\010~\2733\354\024\276\033\330"
 1039      C373F220 
ARM GAS  C:\Users\AMANRA~1\AppData\Local\Temp\ccui46Te.s 			page 82


 1039      3626DF25 
 1039      087EBB33 
 1039      EC14BE1B 
 1040 017e 78FE4365 		.ascii	"x\376Ce8\237J\357\227\300\224\2323:\361\002ZX\244b\260"
 1040      389F4AEF 
 1040      97C0949A 
 1040      333AF102 
 1040      5A58A462 
 1041 0193 A0E557ED 		.ascii	"\240\345W\355\004\303\010!Ja\276\017bU\030e\247J\270"
 1041      04C30821 
 1041      4A61BE0F 
 1041      62551865 
 1041      A74AB8
 1042 01a6 9090E995 		.ascii	"\220\220\351\225-\225\260\341\245Tbt{%\334\021\021\213"
 1042      2D95B0E1 
 1042      A5546274 
 1042      7B25DC11 
 1042      118B
 1043 01b8 575209C5 		.ascii	"WR\011\305\344E\253JL\354\\\011\027\306\362\251lTb<"
 1043      E445AB4A 
 1043      4CEC5C09 
 1043      17C6F2A9 
 1043      6C54623C 
 1044 01cc A7C404B4 		.ascii	"\247\304\004\264\365\322\303\361\265\322\371\216\222"
 1044      F5D2C3F1 
 1044      B5D2F98E 
 1044      92
 1045 01d9 EDC66B99 		.ascii	"\355\306k\231\214o\252\233\214v\274\221e\277\245\242"
 1045      8C6FAA9B 
 1045      8C76BC91 
 1045      65BFA5A2 
 1046 01e9 1610F0AC 		.ascii	"\026\020\360\254\225r\353\375|\266\220\237\220\327\255"
 1046      9572EBFD 
 1046      7CB6909F 
 1046      90D7AD
 1047 01f8 3FBA6C38 		.ascii	"?\272l8J;eCd\346\\Q\303\012\312\300\311\177{B6[\022"
 1047      4A3B6543 
 1047      64E65C51 
 1047      C30ACAC0 
 1047      C97F7B42 
 1048 020f A5444F20 		.ascii	"\245DO \305\272{\371\032X8\272P\314OI\254\253s\321\214"
 1048      C5BA7BF9 
 1048      1A5838BA 
 1048      50CC4F49 
 1048      ACAB73D1 
 1049 0224 7B13D61E 		.ascii	"{\023\326\036Lm\201\225B)E\014\214\216\267:\304-\330"
 1049      4C6D8195 
 1049      4229450C 
 1049      8C8EB73A 
 1049      C42DD8
 1050 0237 0B609A6C 		.ascii	"\013`\232lY\264\314w\266\257,\027\347z/({\377\372\265"
 1050      59B4CC77 
 1050      B6AF2C17 
 1050      E77A2F28 
 1050      7BFFFAB5 
 1051 024b C3224450 		.ascii	"\303\"DP\220m\030!\036y\355\211\031\330\221\026\335"
 1051      906D1821 
ARM GAS  C:\Users\AMANRA~1\AppData\Local\Temp\ccui46Te.s 			page 83


 1051      1E79ED89 
 1051      19D89116 
 1051      DD
 1052 025c 99DE74B0 		.ascii	"\231\336t\260\373\"$\336\214\260\275\223g\313E\"\223"
 1052      FB2224DE 
 1052      8CB0BD93 
 1052      67CB4522 
 1052      93
 1053 026d EFCF2922 		.ascii	"\357\317)\"A\327w)\261\243K\022\353\361nqM\016D\270"
 1053      41D77729 
 1053      B1A34B12 
 1053      EBF16E71 
 1053      4D0E44B8 
 1054 0281 8DE8CF4A 		.ascii	"\215\350\317J(\325\344\007\331W\222\243\257W\036\236"
 1054      28D5E407 
 1054      D95792A3 
 1054      AF571E9E 
 1055 0291 2CAD8D0E 		.ascii	",\255\215\016\227z\235N\337\353\365j\364V\373j\253j"
 1055      977A9D4E 
 1055      DFEBF56A 
 1055      F456FB6A 
 1055      AB6A
 1056 02a3 EBF58A93 		.ascii	"\353\365\212\223\025\307\265z]\363U\326izc\265\230\317"
 1056      15C7B57A 
 1056      5DF355D6 
 1056      697A63B5 
 1056      98CF
 1057 02b5 E8358DB5 		.ascii	"\3505\215\26545\351U\336j\246\352g\233\032x\215\336"
 1057      3435E955 
 1057      DE6AA6EA 
 1057      679B1A78 
 1057      8DDE
 1058 02c7 603B5757 		.ascii	"`;WWy^?\266mt\275NC\343\0059{}\354/\275\362\250\237"
 1058      795E3FB6 
 1058      6D74BD4E 
 1058      43E30539 
 1058      7B7DEC2F 
 1059              		.text
 1060              		.section	.gnu.lto_sduRequestsHook.c3bff927,"",%progbits
 1061 0000 789C4D52 		.ascii	"x\234MR\317k\023Q\020\236\357\315\313f[\255=\352a\013"
 1061      CF6B1351 
 1061      109EEFCD 
 1061      CB665BAD 
 1061      3DEA610B 
 1062 0014 3D08A51E 		.ascii	"=\010\245\036\262\011\325\203\377\207'/b\203\320\200"
 1062      B209D583 
 1062      FF87272F 
 1062      6283D080 
 1063 0024 5049F09C 		.ascii	"PI\360\234\327\244\265\026=(\230\024\302R\003V<i-\376"
 1063      D7A4B516 
 1063      3D289814 
 1063      C2520356 
 1063      3C692DFE 
 1064 0038 4A4CAD4B 		.ascii	"JL\255K\005OV\251-\030+\210?\020Z-\005\017z\252\325"
 1064      054F56A9 
 1064      2D182B88 
 1064      3F105A2D 
ARM GAS  C:\Users\AMANRA~1\AppData\Local\Temp\ccui46Te.s 			page 84


 1064      050F7AAA 
 1065 004d 99D44361 		.ascii	"\231\324Ca\367\315\314\233\371\276ofv=\"\012\014\321"
 1065      F7CDCC9B 
 1065      F9BE6F66 
 1065      763D220A 
 1065      0CD1
 1066 005f 09B143F2 		.ascii	"\011\261C\362\"A0\327^\023\215\371\306p\243\217\\\267"
 1066      224130D7 
 1066      5E138DF9 
 1066      C670A38F 
 1066      5CB7
 1067 0071 6DA7C91D 		.ascii	"m\247\311\035dX\275\206\005\324:\037T4lQ\304U\276\301"
 1067      6458BD86 
 1067      05D43A1F 
 1067      54346C51 
 1067      C455BEC1 
 1068 0085 A84CB5DE 		.ascii	"\250L\265\336\365\014\336q\256\344\342\351\366\341K"
 1068      F50CDE71 
 1068      AEE4E2E9 
 1068      F6E14B
 1069 0094 E5892311 		.ascii	"\345\211#\021\023U\2310\024 \035(\365\003\014J\345\312"
 1069      13559930 
 1069      14201D28 
 1069      F5030C4A 
 1069      E5CA
 1070 00a6 F8FD88AF 		.ascii	"\370\375\210\257p\304\200\225\360\347r\355\353!\015"
 1070      70C48095 
 1070      F0E772ED 
 1070      EB210D
 1071 00b5 0DFA25DC 		.ascii	"\015\372%\334\\\231_\353\345\014H\374\215\3173\247\006"
 1071      5C995FEB 
 1071      E50C48FC 
 1071      8DCF33A7 
 1071      06
 1072 00c6 6E77285F 		.ascii	"nw(_\315\262;\0321\3431X9\037!\300C\004$W\204'\030\320"
 1072      CDB23B1A 
 1072      31E33158 
 1072      391F21C0 
 1072      43042457 
 1073 00de F22FF3BB 		.ascii	"\362/\363\273\225\036\317\252\246\2105\340\021\304\231"
 1073      951ECFAA 
 1073      A68835E0 
 1073      11C499
 1074 00ed 7B9B88DD 		.ascii	"{\233\210\335\356\337I\027\357\314\342\346\351.\010"
 1074      EEDF4917 
 1074      EFCCE2E6 
 1074      E92E08
 1075 00fc C61A3928 		.ascii	"\306\0329(\241G\022\012\367\365\222\350\262 e8\027\323"
 1075      A147120A 
 1075      F7F592E8 
 1075      B2206538 
 1075      17D3
 1076 010e 141BF5CA 		.ascii	"\024\033\365\3121}Giqs\373G\267\022\326\030\242S\235"
 1076      317D4769 
 1076      7173FB47 
 1076      B712D618 
 1076      A2539D
ARM GAS  C:\Users\AMANRA~1\AppData\Local\Temp\ccui46Te.s 			page 85


 1077 0121 587A93D4 		.ascii	"Xz\223\324\216\271\323\345\302\322\362K\257\216\231"
 1077      8EB9D3E5 
 1077      C2D2F24B 
 1077      AF8E99
 1078 0130 31E75C3D 		.ascii	"1\347\\=/D\211\032'\321\224\3464\2736\331\376x \274"
 1078      2F44891A 
 1078      27D194E6 
 1078      34BB36D9 
 1078      FE7820BC 
 1079 0144 2B39D71F 		.ascii	"+9\327\037\261\207\247\250\243\242\015jr\265\372\253"
 1079      B187A7A8 
 1079      A3A20D6A 
 1079      72B5FAAB 
 1080 0154 ED65E634 		.ascii	"\355e\3464Y\277\207H`-\2048\246\313\", #\342\345\035"
 1080      59BF8748 
 1080      602D8438 
 1080      A6CB222C 
 1080      2023E2E5 
 1081 0169 8F6AECEF 		.ascii	"\217j\354\357)\227Z\357\257\367\252\262\305'\3023\221"
 1081      29975AEF 
 1081      AFF7AAB2 
 1081      C527C233 
 1081      91
 1082 017a F886F1F5 		.ascii	"\370\206\361\365\027\307\367z\363\367o\323\242\037\213"
 1082      17C7F77A 
 1082      F3F76FD3 
 1082      A21F8B
 1083 0189 E830C930 		.ascii	"\3500\3110L\215>\231eK\276^\247\324Hi\263\271\365!Y"
 1083      4C8D3E99 
 1083      654BBE5E 
 1083      A7D44869 
 1083      B3B9F521 
 1084 019e FCE3FC88 		.ascii	"\374\343\374\210\375\252\214Bx\216\242h%#\356\352\200"
 1084      FDAA8C42 
 1084      788EA268 
 1084      2523EEEA 
 1084      80
 1085 01af ECFF0D6C 		.ascii	"\354\377\015l\0004--o\303H:!\271\337\220\031\015\323"
 1085      00342D2D 
 1085      6FC3483A 
 1085      21B9DF90 
 1085      190DD3
 1086 01c2 FE65C8B2 		.ascii	"\376e\310\262\021#0\353\267V!\213\204\202\345\277J\245"
 1086      112330EB 
 1086      B756218B 
 1086      8482E5BF 
 1086      4AA5
 1087 01d4 52A13CD9 		.ascii	"R\241<\331\221\334pn\264\2209\231I\207\243\205p\344"
 1087      91DC706E 
 1087      B4903999 
 1087      4987A385 
 1087      70E4
 1088 01e6 ECF9B090 		.ascii	"\354\371\260\220\317\252=S8\227\317\211\271X\030Ne\311"
 1088      CFAA3D53 
 1088      3897CF89 
 1088      B958184E 
 1088      65C9
ARM GAS  C:\Users\AMANRA~1\AppData\Local\Temp\ccui46Te.s 			page 86


 1089 01f8 8AB9F00F 		.ascii	"\212\271\360\017**\272\003"
 1089      2A2ABA03 
 1090              		.text
 1091              		.section	.gnu.lto_sduSOFHookI.c3bff927,"",%progbits
 1092 0000 789C9593 		.ascii	"x\234\225\223\337KTA\024\307\347{g\356\217\275\373C"
 1092      DF4B5441 
 1092      14C7E77B 
 1092      67EE8FBD 
 1092      FB43
 1093 0012 FBF110B5 		.ascii	"\373\361\020\265\202\017\201\370\262\353B=\364g\364"
 1093      820F81F8 
 1093      B2EB423D 
 1093      F467F4
 1094 0021 DC43A405 		.ascii	"\334C\244\005\012\201\341\342\363\216?WQA\"\015\354"
 1094      0A81E1E2 
 1094      F38E3F57 
 1094      5141220D 
 1094      EC
 1095 0032 523E24E1 		.ascii	"R>$\341C\331\017K\327\264\256\253i?4M|\020\214\220\242"
 1095      43D90F4B 
 1095      D7B4AEAB 
 1095      693F344D 
 1095      7C108C90 
 1096 0047 20B1687B 		.ascii	" \261h{\010\002\263\316\334\3355\027\366e\207\275g\346"
 1096      0802B3CE 
 1096      DCDD3517 
 1096      F66587BD 
 1096      67E6
 1097 0059 CC9CF3F9 		.ascii	"\314\234\363\371\316\234\3311\030c'\004c\247\251?K\037"
 1097      CE9CD931 
 1097      18632704 
 1097      63A7A93F 
 1097      4B1F
 1098 006b 4C06ADFF 		.ascii	"L\006\255\377-c-\226\246\031\0335L\332|\262\202\311"
 1098      2D632D96 
 1098      A6191B35 
 1098      4CDA7CB2 
 1098      82C9
 1099 007d 00CF79C2 		.ascii	"\000\317y\302\363\204f\2701\362\364\3250y:\014\225\002"
 1099      F38466B8 
 1099      31F2F4D5 
 1099      30793A0C 
 1099      9502
 1100 008f 0350BDB4 		.ascii	"\003P\275\264\300\022\032\027\272\201\004z\3715\216"
 1100      C0121A17 
 1100      BA81047A 
 1100      F9358E
 1101 009e 74F24B4A 		.ascii	"t\362KJ\253\276#\251\271\327\327\217w\312\216c\016g"
 1101      ABBE23A9 
 1101      B9D7D78F 
 1101      77CA8E63 
 1101      0E67
 1102 00b0 6C903ED5 		.ascii	"l\220>\325\360\010\325\024\365\256\375\276\303{\270"
 1102      F008D514 
 1102      F5AEFDBE 
 1102      C37BB8
 1103 00bf C301416E 		.ascii	"\303\001Anfy\350SH\271\032*\311u\2662\243!\036\003\243"
ARM GAS  C:\Users\AMANRA~1\AppData\Local\Temp\ccui46Te.s 			page 87


 1103      6679E853 
 1103      48B91A2A 
 1103      C975B632 
 1103      A3211E03 
 1104 00d4 F1CAEA8D 		.ascii	"\361\312\352\2155_\325\210\224\255\322}\177\233\313"
 1104      355FD588 
 1104      94ADD27D 
 1104      7F9BCB
 1105 00e3 930EE778 		.ascii	"\223\016\347x\002N@<F\030\343\0103\232b\230@\225\212"
 1105      024E403C 
 1105      4618E308 
 1105      339A6298 
 1105      40958A
 1106 00f6 FFF8606F 		.ascii	"\377\370`o h\210\341\274&&a0\320`lMw\345\336\337\244"
 1106      206888E1 
 1106      BC262661 
 1106      30D0606C 
 1106      4D77E5DE 
 1107 010c 74974630 		.ascii	"t\227F0q\256\014\224&42:'c\0102\246I\306\262\310\370"
 1107      71AE0C94 
 1107      2634323A 
 1107      27630832 
 1107      A649C6B2 
 1108 0122 7C646C5B 		.ascii	"|dl[\031\277\232\013(\023\202'\302\272\210K\207\227"
 1108      19BF9A0B 
 1108      28138227 
 1108      C2BA884B 
 1108      8797
 1109 0134 2EEBE69A 		.ascii	".\353\346\232\032\265\271l\033\255S_\357\365\031Jn\210"
 1109      1AB5B96C 
 1109      1BAD535F 
 1109      EFF5194A 
 1109      6E88
 1110 0146 833632D8 		.ascii	"\20362\330\221^1\325\231\270w\216\351\364\362\2021\214"
 1110      915E31D5 
 1110      99B8778E 
 1110      E9F4F282 
 1110      318C
 1111 0158 9B2D5498 		.ascii	"\233-T\230J\207\373\207x\010)\332\273Z[On|\360G\357"
 1111      4A87FB87 
 1111      780829DA 
 1111      BB5A5B4F 
 1111      6E7CF047 
 1112 016d CAEC92C0 		.ascii	"\312\354\222\300\024\2061\340\025\014O\021\365\330\276"
 1112      148631E0 
 1112      150C4F11 
 1112      F5D8BE
 1113 017c 2C583B08 		.ascii	",X;\010\026\305\300\001R\307t\016\234\351\271\272\001"
 1113      16C5C001 
 1113      52C7740E 
 1113      9CE9B9BA 
 1113      01
 1114 018d 02F77B4B 		.ascii	"\002\367{KA\314x`U\015<+\004\363\203\340`1p\210\324"
 1114      41CC7860 
 1114      550D3C2B 
 1114      04F383E0 
 1114      60317088 
ARM GAS  C:\Users\AMANRA~1\AppData\Local\Temp\ccui46Te.s 			page 88


 1115 01a2 F1BCE88E 		.ascii	"\361\274\350\216\313\340z`M\201g\011\374\031\355\233"
 1115      CBE07A60 
 1115      4D816709 
 1115      FC19ED9B 
 1116 01b2 73A7FE93 		.ascii	"s\247\376\223g\267\036f\374\212\\\006\201\264bP\353"
 1116      67B71E66 
 1116      FC8A5C06 
 1116      81B46250 
 1116      EB
 1117 01c3 A65B9BAC 		.ascii	"\246[\233\254\310\327n\254\317\314\306\213\222\212U"
 1117      C8D76EAC 
 1117      CFCCC68B 
 1117      928A55
 1118 01d2 8E394FDA 		.ascii	"\2169O\332\273\352\371\274\364\257\355]\034\240\335"
 1118      BBEAF9BC 
 1118      F4AFED5D 
 1118      1CA0DD
 1119 01e1 EA1DB595 		.ascii	"\352\035\265\225z94\274\330W\027\254\327\237W\237\371"
 1119      7A3934BC 
 1119      D85717AC 
 1119      D79F579F 
 1119      F9
 1120 01f2 968B374B 		.ascii	"\226\2137K:\370!,x\352B\251/\026V\324*\351n\016\343"
 1120      3AF8212C 
 1120      78EA42A9 
 1120      2F1656D4 
 1120      2AE96E0E 
 1121 0207 A547D215 		.ascii	"\245G\322\025\351U\226\3643\231\333\224\217h4\321\366"
 1121      E95596F4 
 1121      3399DB94 
 1121      8F6834D1 
 1121      F6
 1122 0218 A3333761 		.ascii	"\24337aS\376\370\374b\247\245Ne\003x\2150\205\025$Q"
 1122      53FEF8FC 
 1122      62A7A54E 
 1122      6503788D 
 1122      30851524 
 1123 022d D16C95B4 		.ascii	"\321l\225\264\233O\"u\223\246\013.'@\240\261\235\324"
 1123      9B4F2275 
 1123      93A60B2E 
 1123      2740A0B1 
 1123      9DD4
 1124 023f EFA002D1 		.ascii	"\357\240\002\321[\306\233\375\362\350\254KPyv\350\306"
 1124      5BC69BFD 
 1124      F2E8AC4B 
 1124      507976E8 
 1124      C6
 1125 0250 D413A2C0 		.ascii	"\324\023\242\300Tjg\323L\374\221\226\303\217\014\252"
 1125      546A67D3 
 1125      4CFC9196 
 1125      C38F0CAA 
 1126 0260 7F119690 		.ascii	"\177\021\226\220`t7\016?\352\245\030\271\307\360\035"
 1126      6074370E 
 1126      3FEAA518 
 1126      B9C7F01D 
 1127 0270 5AF6B577 		.ascii	"Z\366\265wQ\024M\221\027\211D\242\364\253\253o\250m"
 1127      51144D91 
ARM GAS  C:\Users\AMANRA~1\AppData\Local\Temp\ccui46Te.s 			page 89


 1127      178944A2 
 1127      F4ABAB6F 
 1127      A86D
 1128 0282 688CC7CE 		.ascii	"h\214\307\316\304j\242\215\361h\375\205\313\321xS\235"
 1128      C46AA28D 
 1128      F168FD85 
 1128      CBD17853 
 1128      9D
 1129 0293 EACFC72F 		.ascii	"\352\317\307/55P\327\034\257\215\3241\021\277\330|\345"
 1129      353550D7 
 1129      1CAF8DD4 
 1129      3111BFD8 
 1129      7CE5
 1130 02a5 1F55E65A 		.ascii	"\037U\346Z\262"
 1130      B2
 1131              		.text
 1132              		.section	.gnu.lto_sduDataTransmitted.c3bff927,"",%progbits
 1133 0000 789C9557 		.ascii	"x\234\225W}PT\327\025\277\347\336\267\337\273\240\230"
 1133      7D5054D7 
 1133      15BFE7DE 
 1133      B7DFBBA0 
 1133      98
 1134 0011 90B56E29 		.ascii	"\220\265n)6P\245uX\231:\251\351t\234v\354?\231\2113"
 1134      3650A575 
 1134      58993AA9 
 1134      E9749C76 
 1134      EC3F9989 
 1135 0026 9DD8FF1D 		.ascii	"\235\330\377\035\335\254\221\031\371\230]\355$\177\361"
 1135      DDAC9119 
 1135      F9985DED 
 1135      247FF1
 1136 0035 E46B31E8 		.ascii	"\344k1\350Lju\253\333\025W\032\277b\211\321D+hp\003"
 1136      4C6A75AB 
 1136      DB15571A 
 1136      BF6289D1 
 1136      442B6870 
 1137 004a 2D355A62 		.ascii	"-5Zb\244\304XQ>D\211\020\002B4*\021\3549\367\275\005"
 1137      A4C45851 
 1137      3E448910 
 1137      0242342A 
 1137      11EC39F7 
 1138 0060 DC5D70FA 		.ascii	"\334]p\372\206\275\357\335{>\3579\277s\357\301\310\030"
 1138      86BDEFDD 
 1138      7B3EEF39 
 1138      BF73EFC1 
 1138      C818
 1139 0072 6B7030B6 		.ascii	"kp0\266\002\030\333\215\337\340`\300\337\371\214\261"
 1139      0218DB8D 
 1139      DFE060C0 
 1139      DFF98CB1 
 1140 0082 2D66CE6D 		.ascii	"-f\316muYL\265\212\336\034\246\332\005Wn\315\307\231"
 1140      75594CB5 
 1140      8ADE1CA6 
 1140      DA05576E 
 1140      CDC799
 1141 0095 E16FCB70 		.ascii	"\341o\313p\246\200Ac2p#\221\255&b\265\033\301\252-\233"
 1141      A6804163 
ARM GAS  C:\Users\AMANRA~1\AppData\Local\Temp\ccui46Te.s 			page 90


 1141      32702391 
 1141      AD2662B5 
 1141      1BC1AA2D 
 1142 00aa B879F74F 		.ascii	"\270y\367Oq\331\372\360E\\6s\313\347.\232E\363pf\211"
 1142      71D9FAF0 
 1142      455C3673 
 1142      CBE72E9A 
 1142      45F37066 
 1143 00bf 3159C1AE 		.ascii	"1Y\301\256}\330b\037v\000\372P\315\300J\270P\014F\223"
 1143      7DD8621F 
 1143      7600FA50 
 1143      CDC04AB8 
 1143      500C4693 
 1144 00d3 D962B5D9 		.ascii	"\331b\265\331\241\004\266\211\235\002\232\002}\365<"
 1144      A104B689 
 1144      9D029A02 
 1144      7DF53C
 1145 00e2 E7908A4F 		.ascii	"\347\220\212O\364\317\327\026T\252\025\316\260`,\210"
 1145      F4CFD716 
 1145      54AA15CE 
 1145      B0602C88 
 1146 00f2 3F7AE043 		.ascii	"?z\340C\310A\256\313\345\037\204E\265\010\013\000\005"
 1146      C841AECB 
 1146      E51F8445 
 1146      B5080B00 
 1146      05
 1147 0103 A723ADA1 		.ascii	"\247#\255\241\336\024\232r\310\304i\377\345\343\355"
 1147      DE149A72 
 1147      C8C469FF 
 1147      E5E3ED
 1148 0112 A9220F18 		.ascii	"\251\"\017\030~\337\351\251\371\375\242\003\252Z\252"
 1148      7EDFE9A9 
 1148      F9FDA203 
 1148      AA5AAA
 1149 0121 466FBD2B 		.ascii	"Fo\275+\324\254\260\020p\012\004\352\203\223\340\202"
 1149      D4ACB010 
 1149      700A04EA 
 1149      8393E082 
 1150 0131 8FC0C570 		.ascii	"\217\300\305p\211\301\337a\021r\367\004\016>N\021/I"
 1150      89C1DF61 
 1150      1172F704 
 1150      0E3E4E11 
 1150      2F49
 1151 0143 C9AEAADA 		.ascii	"\311\256\252\332a\207.\332^)T{X(pZ\023\375\271\013\226"
 1151      61872EDA 
 1151      5E29547B 
 1151      5828705A 
 1151      13FDB90B 
 1152 0158 92A0C2A0 		.ascii	"\222\240\302\240\036\026\021w\270{\344H\212xYJ^\276"
 1152      1E161177 
 1152      B87BE448 
 1152      8A78594A 
 1152      5EBE
 1153 016a BB774C64 		.ascii	"\273wLd\377UJ\266\014;k\313\324\363\252\022\026\006"
 1153      FF554AB6 
 1153      0C3B6BCB 
 1153      D4F3AA12 
ARM GAS  C:\Users\AMANRA~1\AppData\Local\Temp\ccui46Te.s 			page 91


 1153      1606
 1154 017c 6878DA30 		.ascii	"hx\3320=\310>\256\356\014\246\210\025R\364Zg\365'6\024"
 1154      3DC83EAE 
 1154      EE0CA688 
 1154      1552F45A 
 1154      67F52736 
 1155 0191 8DA2E8C4 		.ascii	"\215\242\350\304\320s\373uQ#\234M*z\364\336\370EE\374"
 1155      D073FB75 
 1155      51239C4D 
 1155      2A7AF4DE 
 1155      F84545FC 
 1156 01a5 5A8A9E69 		.ascii	"Z\212\236i\333?\014\272\325\357\206\2341Q\0234&\025"
 1156      DB3F0CBA 
 1156      D5EF869C 
 1156      31511334 
 1156      2615
 1157 01b7 BD797C62 		.ascii	"\275y|b\227\303\250\3009\310\206\217\361w\006\262\265"
 1157      97C3A8C0 
 1157      39C8868F 
 1157      F17706B2 
 1157      B5
 1158 01c8 2843148C 		.ascii	"(C\024\214\014\241\"\246\223\216\265\031\242\352\304"
 1158      0CA122A6 
 1158      938EB519 
 1158      A2EAC4
 1159 01d7 93801A1D 		.ascii	"\223\200\032\035*\034\272\327\365B\026\340\356\315\234"
 1159      2A1CBAD7 
 1159      F54216E0 
 1159      EECD9C
 1160 01e6 06818345 		.ascii	"\006\201\203E\301\301j\300\301f\304\301n\"\202\031\007"
 1160      C1C16AC0 
 1160      C166C4C1 
 1160      6E228219 
 1160      07
 1161 01f7 8785062B 		.ascii	"\207\205\006+MmD\265\023\325A\323\024\034RR\351k\016"
 1161      4D6D44B5 
 1161      13D541D3 
 1161      141C5252 
 1161      E96B0E
 1162 020a 0D736948 		.ascii	"\015siH\303!5\035(\246N\240\224\314gd\334\305\310\025"
 1162      C321351D 
 1162      28A64EA0 
 1162      94CC6764 
 1162      DCC5C815 
 1163 021e C6AAD03D 		.ascii	"\306\252\320=\304\216\032e[\005\247\257\262(\033\200"
 1163      C48E1A65 
 1163      5B05A7AF 
 1163      B2281B80 
 1164 022e D2D1C0F6 		.ascii	"\322\321\300\366\256G\234\334\016\011\010\211t\\+\013"
 1164      AE479CDC 
 1164      0E090889 
 1164      745C2B0B 
 1165 023e 5682B6C0 		.ascii	"V\202\266\300q\015w{\343\374\221\243\0220fx\202O*|\202"
 1165      710D777B 
 1165      E3FC91A3 
 1165      12306678 
 1165      824F2A7C 
ARM GAS  C:\Users\AMANRA~1\AppData\Local\Temp\ccui46Te.s 			page 92


 1166 0253 9140D9C6 		.ascii	"\221@\331\306O\227h|\363\221)X\321t\311DLB\006\364l"
 1166      4F97687C 
 1166      F3912958 
 1166      D174C944 
 1166      4C4206F4 
 1167 0268 536B8B31 		.ascii	"Sk\2131\0025[\020\213\221\011\332\360\234\220pB\023"
 1167      02355B10 
 1167      8B9109DA 
 1167      F09C9070 
 1167      4213
 1168 027a C510C9ED 		.ascii	"\305\020\311\355\201\253\2356w\035!53,\346B3D`\227\320"
 1168      81AB9D36 
 1168      771D2135 
 1168      332CE642 
 1168      33446097 
 1169 028f A3FBE137 		.ascii	"\243\373\3417w\216+y\307\210\030\031\340a\221\006\377"
 1169      778E2B79 
 1169      C7881819 
 1169      E0619106 
 1169      FF
 1170 02a0 00377A23 		.ascii	"\0007z#1\374O\310c}P\0329!}\244\035\242}v\033\312\257"
 1170      31FC4FC8 
 1170      637D501A 
 1170      39217DA4 
 1170      1DA27D76 
 1171 02b7 355F19B6 		.ascii	"5_\031\266'\361\307\000\014Z\364\324mE\264\366\346\340"
 1171      27F1C700 
 1171      0C5AF4D4 
 1171      6D45B4F6 
 1171      E6E0
 1172 02c9 CEFB8093 		.ascii	"\316\373\200\223\245\003\027\332\316\331\304o\245\307"
 1172      A50317DA 
 1172      CED9C46F 
 1172      A5C7
 1173 02d7 47DEDFBF 		.ascii	"G\336\337\277\333\256C\340\253=\213\377RV\275]\215\224"
 1173      DBAE43E0 
 1173      AB3D8BFF 
 1173      5256BD5D 
 1173      8D94
 1174 02e9 CE098B79 		.ascii	"\316\011\213y\360\257D\020\300y\310F\241@\277\372\261"
 1174      F0AF4410 
 1174      C079C846 
 1174      A140BFFA 
 1174      B1
 1175 02fa 4256E641 		.ascii	"BV\346A&|\212\264\257\241\364\346\261\235\015]0\211"
 1175      267C8AB4 
 1175      AFA1F4E6 
 1175      B19D0D5D 
 1175      3089
 1176 030c 9272598E 		.ascii	"\222rY\216\177z\274@\202#\250\205g:\351\373\323\313"
 1176      7F7ABC40 
 1176      8223A885 
 1176      673AE9FB 
 1176      D3CB
 1177 031e DE46ED17 		.ascii	"\336F\355\027\210\310\343\211\315\215K\362\031\\$\232"
 1177      88C8E389 
 1177      CD8D4BF2 
ARM GAS  C:\Users\AMANRA~1\AppData\Local\Temp\ccui46Te.s 			page 93


 1177      195C249A 
 1178 032e 88A7F5EE 		.ascii	"\210\247\365\356Yr\030\005\377MD%\236\330\206\365\215"
 1178      59721805 
 1178      FF4D4425 
 1178      9ED886F5 
 1178      8D
 1179 033f 3E326825 		.ascii	">2h%\262a\032j\031|\206\201\273D@\305\001\243\303\366"
 1179      B2611A6A 
 1179      197C8681 
 1179      BB4440C5 
 1179      01A3C3F6 
 1180 0353 70A4D6EE 		.ascii	"p\244\326\356;\361\320\272\360=\276O\335\215)y\216\004"
 1180      3BF1D0BA 
 1180      F03DBE4F 
 1180      DD8D2979 
 1180      8E04
 1181 0365 EA7ACFA8 		.ascii	"\352z\317\250f\005\343\016\237\303B\231\232\273\203"
 1181      6605E30E 
 1181      9FC34299 
 1181      9ABB83
 1182 0374 ED1D1C57 		.ascii	"\355\035\034W\3402(r\277\014\332\344)r\270\261\371\266"
 1182      E0322872 
 1182      BF0CDAE4 
 1182      2972B8B1 
 1182      F9B6
 1183 0386 7D619D2E 		.ascii	"}a\235.\375<\361\216\276\177\342\013\233\224\376\017"
 1183      FD3CF18E 
 1183      BE7FE20B 
 1183      9B94FE0F 
 1184 0396 49433B28 		.ascii	"IC;(\224\271L\031;F\000\032\013\034z\367WZ\312D\034"
 1184      94B94C19 
 1184      3B46001A 
 1184      0B1C7AF7 
 1184      575ACA44 
 1185 03ab 6650493A 		.ascii	"fPI:&R\313\\\002`^\200/$`@\257\344\326\201Nc\311\270"
 1185      2652CB5C 
 1185      02605E80 
 1185      2F246040 
 1185      AFE4D681 
 1186 03c3 4EB4C015 		.ascii	"N\264\300\025p\243\275/\241D\332#\003\310\264\367\313"
 1186      70A3BD2F 
 1186      A144DA23 
 1186      03C8B4F7 
 1186      CB
 1187 03d4 EE418B38 		.ascii	"\356A\2138\311e\374?\010=P\315z\262\207\206\354!5Z."
 1187      C965FC3F 
 1187      083D50CD 
 1187      7AB28786 
 1187      EC21355A 
 1188 03e9 25AF26C9 		.ascii	"%\257&\311\364\177\011bB\202\356\320Y\241k\333\025\352"
 1188      F47F0962 
 1188      4282EED0 
 1188      59A16BDB 
 1188      15EA
 1189 03fb 738A7A4D 		.ascii	"s\212zM\331\037;B\235\216\004eN\270\226DY\207\204M\350"
 1189      D91F3B42 
 1189      9D8E0465 
ARM GAS  C:\Users\AMANRA~1\AppData\Local\Temp\ccui46Te.s 			page 94


 1189      4EB89644 
 1189      5987844D 
 1190 0410 CCBD0B06 		.ascii	"\314\275\013\006\202\315|0\303u\244\015BE\367\271\360"
 1190      82CD7C30 
 1190      C375A40D 
 1190      4245F7B9 
 1190      F0
 1191 0421 C403673C 		.ascii	"\304\003g<lvd\220\010\371\240\303\307\370T&o`\002;)"
 1191      6C766490 
 1191      08F9A0C3 
 1191      C7F85426 
 1191      6F60023B 
 1192 0436 933420A1 		.ascii	"\2234 \241\276~\260\303\204\2210\207\305\017\202x|\335"
 1192      BE7EB0C3 
 1192      84913087 
 1192      C50F8278 
 1192      7CDD
 1193 0448 205A1706 		.ascii	" Z\027\006\002w@\206\302b\301dL\244\322\251Y\207\236"
 1193      02774086 
 1193      C262C164 
 1193      4CA4D2A9 
 1193      59879E
 1194 045b 94D140EB 		.ascii	"\224\321@\353\310~\375\000P\264\023\241\264\321\242"
 1194      C87EFD00 
 1194      50B413A1 
 1194      B4D1A2
 1195 046a CD0DF195 		.ascii	"\315\015\361\225]8{a\273\240[\346\211kyj\031\356\271"
 1195      5D387B61 
 1195      BBA05BE6 
 1195      896B796A 
 1195      19EEB9
 1196 047d 182BEC5A 		.ascii	"\030+\354Z\300\023\015z\250\260\025\031\231\233X\330"
 1196      C0130D7A 
 1196      A8B01519 
 1196      999B58D8 
 1197 048d 68AA2176 		.ascii	"h\252!v\250\030\247\027\261-\341PA\355?D\207\240W7<"
 1197      A818A717 
 1197      B12DE150 
 1197      41ED3F44 
 1197      87A05737 
 1198 04a2 52BDE32A 		.ascii	"R\275\343*\240\341w$)\003nI\303\362L\276\215p\220\232"
 1198      A0E17724 
 1198      29036E49 
 1198      C3F24CBE 
 1198      8D70909A 
 1199 04b6 57689A4D 		.ascii	"Wh\232M\3235g$\323\374#4\017}I\267d\204\257\244fr\032"
 1199      D3356724 
 1199      D3FC2334 
 1199      0F7D49B7 
 1199      6484AFA4 
 1200 04cd EEA0663C 		.ascii	"\356\240f<z:\232\227%\321L\245\325?y\360(\354\266C;"
 1200      7A3A9A97 
 1200      25D14CA5 
 1200      D53F79F0 
 1200      28ECB643 
 1201 04e2 72C70237 		.ascii	"r\307\0027F\236\327\370\315\361\361<H\267\302,\300\317"
 1201      469ED7F8 
ARM GAS  C:\Users\AMANRA~1\AppData\Local\Temp\ccui46Te.s 			page 95


 1201      CDF1F13C 
 1201      48B7C22C 
 1201      C0CF
 1202 04f4 840169DD 		.ascii	"\204\001i\335\220\000\374H:\336\025\360\265D\376 &|"
 1202      9000FC48 
 1202      3ADE15F0 
 1202      B544FE20 
 1202      267C
 1203 0506 10CA655E 		.ascii	"\020\312e^\343P\2610(\314\310\361\215\204\004\316\177"
 1203      E350B130 
 1203      28CCC8F1 
 1203      8D8404CE 
 1203      7F
 1204 0517 2C9D3368 		.ascii	",\2353h\247\242tn\357\267^\3159K\274s\265\317tnh&\347"
 1204      A7A2746E 
 1204      EFB75ECD 
 1204      394BBC73 
 1204      B5CF746E 
 1205 052e D69373C3 		.ascii	"\326\223s\303\322\271\273\322\271\212H\206f\305\365"
 1205      D2B9BBD2 
 1205      B98A4886 
 1205      66C5F5
 1206 053d B47F2F06 		.ascii	"\264\177/\006\205\005\231F\244\177\344\301\310\311\217"
 1206      85059946 
 1206      A47FE4C1 
 1206      C8C98F
 1207 054c 6ED9A7B4 		.ascii	"n\331\247\264d\311KU\336\262\243P\022\026\331\262.\245"
 1207      64C94B55 
 1207      DEB2A350 
 1207      1216D9B2 
 1207      2EA5
 1208 055e 2EBAE750 		.ascii	".\272\347P\237\226\220\316G\366)\375\223)1aJ\276\235"
 1208      9F9690CE 
 1208      47F629FD 
 1208      93293161 
 1208      4ABE9D
 1209 0571 4C89911D 		.ascii	"L\211\221\035M\327v\035\354\2579\246C\336J\006\320\301"
 1209      4DD7761D 
 1209      ECAF39A6 
 1209      43DE4A06 
 1209      D0C1
 1210 0583 40B2E8FD 		.ascii	"@\262\350\375$(\254\350\335=\351\2353D\301p\241HX,\222"
 1210      2428ACE8 
 1210      DD3DE99D 
 1210      3344C170 
 1210      A148582C 
 1211 0598 0A4DECF4 		.ascii	"\012M\354\364<Mac\377\341K6M\241-!\307\317\270\015]"
 1211      3C4D6163 
 1211      FFE14B36 
 1211      4DA12D21 
 1211      C7CFB80D 
 1212 05ad 707FA6A2 		.ascii	"p\177\246\242i\220E\363\335T\321<\210\025\315/5c\366"
 1212      699045F3 
 1212      DD54D13C 
 1212      8815CD2F 
 1212      3563F6
 1213 05c0 A455629B 		.ascii	"\244Ub\233\261J\036NU\311\243X\225\274\252\251r$-\013"
ARM GAS  C:\Users\AMANRA~1\AppData\Local\Temp\ccui46Te.s 			page 96


 1213      B14A1E4E 
 1213      55C9A358 
 1213      95BCAAA9 
 1213      72242D0B 
 1214 05d4 FB8C6531 		.ascii	"\373\214e16U\026\337\307\312\342\272\036T\307\264B0"
 1214      365516DF 
 1214      C7CAE2BA 
 1214      1E54C7B4 
 1214      4230
 1215 05e6 B373562D 		.ascii	"\263sV-H\015\375\357\015\247i\014)\377\227\337\213\341"
 1215      480DFDEF 
 1215      0DA7690C 
 1215      29FF97DF 
 1215      8BE1
 1216 05f8 B1346624 		.ascii	"\2614f$c\343\232\337\243\201~\241\351JEuZ\033\263\325"
 1216      63E39ADF 
 1216      A3817EA1 
 1216      E94A4575 
 1216      5A1BB3D5 
 1217 060c A1AD60B0 		.ascii	"\241\255`\260cMK\331\343\312\275\367c\015\317\\\364"
 1217      634D4BD9 
 1217      E3CABDF7 
 1217      630DCF5C 
 1217      F4
 1218 061d 0CA95AF7 		.ascii	"\014\251Z\367\3202vE\367v\3564o-lP\304*c\374\376\001"
 1218      D0327645 
 1218      F776EE34 
 1218      6F2D6C50 
 1218      C42A63FC 
 1219 0633 5D302D3E 		.ascii	"]0->\247\247\370\3549\315\201\011\351\261)\2614\016"
 1219      A7A7F8EC 
 1219      39CD8109 
 1219      E9B129B1 
 1219      340E
 1220 0645 6287930A 		.ascii	"b\207\223\012Odm\250\234j#\020I\237\031{[\370\024\366"
 1220      4F646DA8 
 1220      9C6A2310 
 1220      499F197B 
 1220      5BF814F6 
 1221 0659 D2C8D118 		.ascii	"\322\310\321\030\370\254Ou6q\335L\3153\272\231R\236"
 1221      F8AC4F75 
 1221      3671DD4C 
 1221      CD33BA99 
 1221      529E
 1222 066b 3DBD4EE6 		.ascii	"=\275N\346a\235\224\361\331\272\231\014\375:\262%v3"
 1222      619D94F1 
 1222      D9BA990C 
 1222      FD3AB225 
 1222      7633
 1223 067d 99DB507B 		.ascii	"\231\333P{9G\242=\261\233\311\332\310\240\202h\216\304"
 1223      3947A23D 
 1223      B19BC9DA 
 1223      C8A08268 
 1223      8EC4
 1224 068f 6E66F911 		.ascii	"nf\371\021\024\254$bJ<q\240F\220\217\014\002<\241\233"
 1224      14AC2462 
 1224      4A3C71A0 
ARM GAS  C:\Users\AMANRA~1\AppData\Local\Temp\ccui46Te.s 			page 97


 1224      46908F0C 
 1224      023CA19B 
 1225 06a3 A9E246D8 		.ascii	"\251\342F\330\312\361@\300a\262\233\231\330\327\323"
 1225      CAF140C0 
 1225      61B29B99 
 1225      D8D7D3
 1226 06b2 688B352A 		.ascii	"h\2135*\264\025\006os%IWR\315c]\011\351\307D7i\240\245"
 1226      B415066F 
 1226      73254957 
 1226      52CD635D 
 1226      09E9C744 
 1227 06ca 6300D9F7 		.ascii	"c\000\331\367tGw\030\226\237R\253\260\362\320\3046\276"
 1227      74477718 
 1227      969F52AB 
 1227      B0F2D0C4 
 1227      36BE
 1228 06dc 5C06DBC6 		.ascii	"\\\006\333\306\352\262$,\232\256?\272\331\370\263\231"
 1228      EAB2242C 
 1228      9AAE3FBA 
 1228      D9F8B399 
 1229 06ec 05B6EB02 		.ascii	"\005\266\353\002v\275\345\036\002\256\3753V\205\315"
 1229      76BDE51E 
 1229      02AEFD33 
 1229      5685CD
 1230 06fb 0B2EE12C 		.ascii	"\013.\341,77\327\215\177\236\015\371\353\362\213\374"
 1230      3737D78D 
 1230      7F9E0DF9 
 1230      EBF28BFC 
 1231 070b 792FE72D 		.ascii	"y/\347-u\027\371\335\033\326nt\373}\036z\257\361{}\371"
 1231      7517F9DD 
 1231      1BD66E74 
 1231      FB7D1E7A 
 1231      AFF17B7D 
 1232 0720 F8DAEC5F 		.ascii	"\370\332\354_\227\353a\012\276\212\271\267X\361\277"
 1232      97EB610A 
 1232      BE8AB9B7 
 1232      58F1BF
 1233 072f BEB9180A 		.ascii	"\276\271\030\012\305\272\315\353M\353\326\372\275\277"
 1233      C5BACDEB 
 1233      4DEBD6FA 
 1233      BDBF
 1234 073d F3E5BF94 		.ascii	"\363\345\277\224T\223\247\250\240\240\250\320]\\\344"
 1234      5493A7A8 
 1234      A0A0A8D0 
 1234      5D5CE4
 1235 074c DBE477FF 		.ascii	"\333\344w\377\346\265U+W\275\211,\236\"\237w\315\037"
 1235      E6B5552B 
 1235      57BD892C 
 1235      9E229F77 
 1235      CD1F
 1236 075e 7E5190BB 		.ascii	"~Q\220\273\201\255\234M\314\373\346&\022r\257\\\265"
 1236      81AD9C4D 
 1236      CCFBE626 
 1236      1272AF5C 
 1236      B5
 1237 076f FA95D5EE 		.ascii	"\372\225\325\356\225(\345~\245\320\263q\363\353^\267"
 1237      9528E57E 
ARM GAS  C:\Users\AMANRA~1\AppData\Local\Temp\ccui46Te.s 			page 98


 1237      A5D0B371 
 1237      F3EB5EB7 
 1238 077f A7C09FEF 		.ascii	"\247\300\237\357_\363\206\307\203:\026\317\270\211\""
 1238      5FF386C7 
 1238      833A16CF 
 1238      B88922
 1239 078e 3F0EBE4D 		.ascii	"?\016\276M\362=##\322\363cZ7\370\337\362#\343\234U\253"
 1239      F23D2323 
 1239      D2F3635A 
 1239      37F8DFF2 
 1239      23E39C55 
 1240 07a3 5FCBA48D 		.ascii	"_\313\244\215\025\373\362\227df/e\334\307L\005\336\202"
 1240      15FBF297 
 1240      64662F65 
 1240      DCC74C05 
 1240      DE82
 1241 07b5 22DF5B4C 		.ascii	"\"\337[Lx\375\305\206\365\033\327\276\341\377\037\366"
 1241      78FDC586 
 1241      F51BD7BE 
 1241      E1FF1FF6 
 1242 07c5 51E47D   		.ascii	"Q\344}"
 1243              		.text
 1244              		.section	.gnu.lto_sduDataReceived.c3bff927,"",%progbits
 1245 0000 789C9556 		.ascii	"x\234\225ViLTW\024\276\347\3357\013\263\310R\027\254"
 1245      694C5457 
 1245      14BEE7DD 
 1245      370BB3C8 
 1245      5217AC
 1246 0013 B40C56AA 		.ascii	"\264\014V\252&\204\221\324\330\362\243M\032~\371\203"
 1246      268491D4 
 1246      D8F2A34D 
 1246      1A7EF983 
 1247 0023 A4D1FE37 		.ascii	"\244\321\37672Ne\032p\310\214\032m\322\360\330\034\255"
 1247      324E651A 
 1247      70C88C1A 
 1247      6DD2F0D8 
 1247      1CAD
 1248 0035 9AD85611 		.ascii	"\232\330V\021\247#\214\266V\011\256\250\255\250\340"
 1248      A7238CB6 
 1248      5609AEA8 
 1248      ADA8E0
 1249 0044 142C7503 		.ascii	"\024,u\003\013\342R\251,\242T\001\021\260Ee\355\271"
 1249      0BE252A9 
 1249      2CA25401 
 1249      11B04565 
 1249      EDB9
 1250 0056 F73DE838 		.ascii	"\367=\35083\332\370\002\367\275{\3179\337\331\357\031"
 1250      33DAF802 
 1250      F7BD7BCF 
 1250      39DFD9EF 
 1250      19
 1251 0067 352164AD 		.ascii	"5!d\255\216\220\017\201\220T\374\006\015\001a[=!9ZA"
 1251      8E900F81 
 1251      9054FC06 
 1251      0D01615B 
 1251      3D21395A 
 1252 007c 500F4C25 		.ascii	"P\017L%\222\216\026'\023\311@\005\361\336L\334\251\016"
ARM GAS  C:\Users\AMANRA~1\AppData\Local\Temp\ccui46Te.s 			page 99


 1252      928E1627 
 1252      13C94005 
 1252      F1DE4CDC 
 1252      A90E
 1253 008e 2EC49D08 		.ascii	".\304\235\010*\231I\005j\371C\015\300>$-\220l\201\212"
 1253      2A994905 
 1253      6AF9430D 
 1253      C03E242D 
 1253      906C818A 
 1254 00a2 2A3564C3 		.ascii	"*5d\303\026\272\235B\265\253\263B\230\277_\302\307\267"
 1254      16BA9D42 
 1254      B5ABB342 
 1254      98BF5FC2 
 1254      C7B7
 1255 00b4 B33C7683 		.ascii	"\263<v\203T\020\355\241\204\024\342?{\3408\314G\256"
 1255      5410EDA1 
 1255      8414E23F 
 1255      7BE038CC 
 1255      47AE
 1256 00c6 86FCA31E 		.ascii	"\206\374\243\036\272\231z(\200\210\333\376:w\307\024"
 1256      BA997A28 
 1256      8088DBFE 
 1256      3A77C714 
 1257 00d6 B615C084 		.ascii	"\266\025\300\204\333\207\015\307\232\302i\022\020\374"
 1257      DB870DC7 
 1257      9AC26912 
 1257      10FC
 1258 00e4 7ED05EFC 		.ascii	"~\320^\374\351\334}\222\224+\371\256\374@\2459\036J"
 1258      E9DC7D92 
 1258      942BF9AE 
 1258      FC40A539 
 1258      1E4A
 1259 00f6 E127A088 		.ascii	"\341'\240\210\007'!\006N@\014\301#\002?\303\\\344nw"
 1259      07272106 
 1259      4E400CC1 
 1259      23023FC3 
 1259      5CE46E77 
 1260 010a FD383285 		.ascii	"\37582\205.\342\222\255\033\367>6*\242#\005T2x\250\010"
 1260      2EE292AD 
 1260      1BF73E36 
 1260      2AA22305 
 1260      543278A8 
 1261 011f A764D1F7 		.ascii	"\247d\321\367b`\001\023\024\011T\300\\\306\355i\353"
 1261      62600113 
 1261      140954C0 
 1261      5CC6ED69 
 1261      EB
 1262 0130 2F9D4293 		.ascii	"/\235B\223\271dC\337\356!\032\377=\227l\031\215\336"
 1262      B96443DF 
 1262      EE211AFF 
 1262      3D976C19 
 1262      8DDE
 1263 0142 9B275D90 		.ascii	"\233']\220D\017U\301\351\027\025\263\007\331\367\346"
 1263      440F55C1 
 1263      E91715B3 
 1263      07D9F7E6 
 1264 0152 5CBF6CA4 		.ascii	"\\\277l\244\037q\321\262\222\234R\235\"zct\352\036E"
ARM GAS  C:\Users\AMANRA~1\AppData\Local\Temp\ccui46Te.s 			page 100


 1264      1F71D1B2 
 1264      929C529D 
 1264      227A6374 
 1264      EA1E45
 1265 0165 540D6743 		.ascii	"T\015gC\212\336=6\266\303\250\026\241\022\342\341\014"
 1265      8ADE3D36 
 1265      B6C3A816 
 1265      A112E2E1 
 1265      0C
