ARM GAS  C:\Users\AMANRA~1\AppData\Local\Temp\ccy7qQxb.s 			page 1


   1              		.cpu cortex-m4
   2              		.eabi_attribute 27, 1
   3              		.eabi_attribute 28, 1
   4              		.eabi_attribute 20, 1
   5              		.eabi_attribute 21, 1
   6              		.eabi_attribute 23, 3
   7              		.eabi_attribute 24, 1
   8              		.eabi_attribute 25, 1
   9              		.eabi_attribute 26, 1
  10              		.eabi_attribute 30, 2
  11              		.eabi_attribute 34, 1
  12              		.eabi_attribute 18, 4
  13              		.file	"hal_usb.c"
  14              		.section	.gnu.lto_.profile.c3bfe3c9,"",%progbits
  15 0000 789C6363 		.ascii	"x\234cc```\003bF\206\177\034=\254\000\005\321\001\245"
  15      60606003 
  15      6246867F 
  15      1C3DAC00 
  15      05D101A5 
  16              		.text
  17              		.section	.gnu.lto_.icf.c3bfe3c9,"",%progbits
  18 0000 789C6363 		.ascii	"x\234cc``\350d@\000q\206u\335\207\276s1N\354\330^\305"
  18      6060E864 
  18      40007186 
  18      75DD87BE 
  18      73314EEC 
  19 0017 B4FBF08E 		.ascii	"\264\373\360\216\011,\314OO^\375\317\313\362\375\323"
  19      092CCC4F 
  19      4F5EFDCF 
  19      CBF2FDD3 
  20 0027 D5F9BCAC 		.ascii	"\325\371\274\254\377v-\336\303\316v\351\346\207E\334"
  20      FF762DDE 
  20      C3CE76E9 
  20      E68745DC 
  21 0037 ECD3FBB7 		.ascii	"\354\323\373\267\375g\345\330\321\271\3621\033\347\255"
  21      FD67E5D8 
  21      D1B9F231 
  21      1BE7AD
  22 0046 A65DAE5C 		.ascii	"\246]\256\\\347\033\232\332x\270AL\236c\017\273\346"
  22      E71B9ADA 
  22      78B8414C 
  22      9E630FBB 
  22      E6
  23 0057 F1F18249 		.ascii	"\361\361\202I\276\326\203\353/\360\363\203I\201s_\357"
  23      BED683EB 
  23      2FF0F383 
  23      4981735F 
  23      EF
  24 0068 F672092E 		.ascii	"\366r\011.xxb3\247\320\277\253'\326r\012O:\364\342/"
  24      78786233 
  24      A7D0BFAB 
  24      27D6720A 
  24      4F3AF4E2 
  25 007d 9BC8D469 		.ascii	"\233\310\324iSg2\213\256\374~\365\010\267\330\2267S"
  25      5367328B 
  25      AEFC7EF5 
  25      08B7D896 
ARM GAS  C:\Users\AMANRA~1\AppData\Local\Temp\ccy7qQxb.s 			page 2


  25      3753
  26 008f 4EF13100 		.ascii	"N\3611\000\000\256\260D\271"
  26      00AEB044 
  26      B9
  27              		.text
  28              		.section	.gnu.lto_.jmpfuncs.c3bfe3c9,"",%progbits
  29 0000 789CD595 		.ascii	"x\234\325\225\275K\303@\030\306\357\271\273&\325\252"
  29      BD4BC340 
  29      18C6EFB9 
  29      BB26D5AA 
  30 0010 A91A9D32 		.ascii	"\251\032\2352t\366\037\020\374\317:\305EDt\021D\020"
  30      74F61F10 
  30      FCCF3AC5 
  30      45447411 
  30      4410
  31 0022 2A3A89A2 		.ascii	"*:\211\242\213\237\325\372\325\352*\010\202\340\250"
  31      8B9FD5FA 
  31      D5EA2A08 
  31      82E0A8
  32 0031 88938BDD 		.ascii	"\210\223\213\335E\275K\336\3063\275\332\270\210\006"
  32      45BD4BDE 
  32      C633BDDA 
  32      B88806
  33 0040 0E9A37CF 		.ascii	"\016\2327\317\357x\356\375\270:\214\261\371<K\036\237"
  33      EF78EEFD 
  33      B83A8CB1 
  33      F93C4B1E 
  33      9F
  34 0051 01082B82 		.ascii	"\001\010+\202q^V\257\250K0\265\336\325\3431i\211aA`"
  34      715E56AF 
  34      A84B30B5 
  34      DED5E331 
  34      69896141 
  35 0066 7FFA6ABB 		.ascii	"\177\372j\273wVT\204b\261\213 \222D2\026\226\320\332"
  35      77565484 
  35      62B18B20 
  35      92443216 
  35      96D0DA
  36 0079 502B9BAF 		.ascii	"P+\233\257\313\325\036\255\344\360\261GJ?Rr\265\265"
  36      CBD51EAD 
  36      E4F0B147 
  36      4A3F5272 
  36      B5B5
  37 008b 20ADE480 		.ascii	" \255\344\200\320?\324\0226'9\022Zm:z\033\227p\251V"
  37      D03FD412 
  37      36273912 
  37      5A6D3A7A 
  37      1B9770A9 
  38 00a0 CE669C97 		.ascii	"\316f\234\227a\204\300\234\266\223a,HB,:\350\315\313"
  38      6184C09C 
  38      B693612C 
  38      48422C3A 
  38      E8CDCB
  39 00b3 D57241DB 		.ascii	"\325rA\333wP\304>\331/F\237\273\342)\275\373M\236\363"
  39      7750C43E 
  39      D92F469F 
  39      BBE229BD 
ARM GAS  C:\Users\AMANRA~1\AppData\Local\Temp\ccy7qQxb.s 			page 3


  39      FB4D9EF3 
  40 00c7 491ACA0C 		.ascii	"I\032\312\014\251o\237Z\017\332\322\342\324\305\265"
  40      A96F9F5A 
  40      0FDAD2E2 
  40      D4C5B5
  41 00d6 AB2DA920 		.ascii	"\253-\251 \016\020\250\320\326Z\263\356\305!\017U\004"
  41      0E10A8D0 
  41      D65AB3EE 
  41      C5210F55 
  41      04
  42 00e7 5DB7D1DC 		.ascii	"]\267\321\334\177\021\332\362\305-p\247^=Y\231\333\240"
  42      7F11DAF2 
  42      C52D70A7 
  42      5E3D5999 
  42      DBA0
  43 00f9 5EE538A4 		.ascii	"^\3458\244\222p\352\325N\320Lei\323\215!\201#\202\004"
  43      9270EAD5 
  43      4ED04C65 
  43      69D38D21 
  43      81238204 
  44 010d 41F96FAD 		.ascii	"A\371o\255\253\316\352\364\362.\276V\320U\273\324\242"
  44      ABCEEAF4 
  44      F22EBE56 
  44      D055BBD4 
  44      A2
  45 011e 0AD6EE6E 		.ascii	"\012\326\356n\307\343\210\026\035#\010K}R\017\222gt"
  45      C7E38816 
  45      1D23084B 
  45      7D520F92 
  45      6774
  46 0130 755EAD9E 		.ascii	"u^\255\236,\235\335\337\206\366fE\007\214A\224\266\032"
  46      2C9DDDDF 
  46      86F66645 
  46      078C4194 
  46      B61A
  47 0142 A501EFA7 		.ascii	"\245\001\357\247@\321\230\203\264v\320\234\021`U\230"
  47      40D19883 
  47      B476D09C 
  47      11605598 
  48 0152 D92A28F5 		.ascii	"\331*(\365\211\352\211LUO((\352\024\346`\206\245!c\334"
  48      89EA894C 
  48      554F2828 
  48      EA14E660 
  48      86A52163 
  49 0167 6C70E37E 		.ascii	"lp\343~\247Y\210a\2113\202%\301\303]\340\267\347\207"
  49      A7598861 
  49      89338225 
  49      C1C35DE0 
  49      B7E787
  50 017a E7FE18CE 		.ascii	"\347\376\030\316\341\234\340\034\301~+[\240l\265_\""
  50      E19CE01C 
  50      C17E2B5B 
  50      A06CB55F 
  50      22
  51 018b 075FCCFE 		.ascii	"\007_\314\376G\215\365\212\316\320{\251\357\340f\035"
  51      478DF58A 
  51      CED07BA9 
ARM GAS  C:\Users\AMANRA~1\AppData\Local\Temp\ccy7qQxb.s 			page 4


  51      EFE0661D 
  52 019b FB74AFE8 		.ascii	"\373t\257\350\352\307W\207-\363O\353\227\2174\351\016"
  52      EAC75787 
  52      2DF34FEB 
  52      978F34E9 
  52      0E
  53 01ac 1A64C9A1 		.ascii	"\032d\311\241\314\333L\205\245\021\336\372_\371A=\322"
  53      CCDB4C85 
  53      A511DEFA 
  53      5FF9413D 
  53      D2
  54 01bd 5DFBBBB9 		.ascii	"]\373\273\271\266\035\254\3556\232\230\224\243\177\353"
  54      B61DACED 
  54      369A9894 
  54      A37FEB
  55 01cc 68596DB3 		.ascii	"hYm\263\017j\360\030\255"
  55      0F6AF018 
  55      AD
  56              		.text
  57              		.section	.gnu.lto_.inline.c3bfe3c9,"",%progbits
  58 0000 789C9554 		.ascii	"x\234\225T\337k\\E\024\376\316\334\331\273\263?\356"
  58      DF6B5C45 
  58      14FECEDC 
  58      D9BBB33F 
  58      EE
  59 0011 EECD9A6D 		.ascii	"\356\315\232mR\260\365\226D\002\005K@\010\342\203\336"
  59      52B0F596 
  59      4402054B 
  59      4008E283 
  59      DE
  60 0022 A73E8682 		.ascii	"\247>\206\202>\371\244\202\210\211\375\023\204A(-X$"
  60      3EF9A482 
  60      8889FD13 
  60      8441282D 
  60      5824
  61 0034 8A94520A 		.ascii	"\212\224R\012F(\262\017\"km5\255\266M\025!\242mj\037"
  61      4628B20F 
  61      226B6D35 
  61      ADB64D15 
  61      21A26D6A 
  62 0049 348F1129 		.ascii	"4\217\021)*}0B\037Z[\212\347\314\314\335\334MKKv\341"
  62      2A7D3042 
  62      1F5A5B8A 
  62      E7CCCCDD 
  62      DC4D4B4B 
  63 005f 9C6FE69B 		.ascii	"\234o\346\2333\367\2343\347\234\030\300\224\301\340"
  63      33F79C33 
  63      E79C18C0 
  63      94C1E0
  64 006e 370A8C4C 		.ascii	"7\012\214L\022\301\020\242\276\326\265\336~\324\326"
  64      12C110A2 
  64      BED6B5DE 
  64      7ED4D6
  65 007d 6614E8AF 		.ascii	"f\024\350\257\252\366RN\251\006@\013\263\225\021\206"
  65      AAF6524E 
  65      A906400B 
  65      B3951186 
ARM GAS  C:\Users\AMANRA~1\AppData\Local\Temp\ccy7qQxb.s 			page 5


  66 008d 0BB32024 		.ascii	"\013\263 $]\266\311\330f\261\242\223\2257P=2\365P\033"
  66      5DB6C9D8 
  66      66B1A293 
  66      9537503D 
  66      32F5501B 
  67 00a1 28E8A648 		.ascii	"(\350\246H ^|J\024\250\316\"Bs\214\267\233\366?B\263"
  67      205E7C4A 
  67      14A8CE22 
  67      42738CB7 
  67      9BF63F42 
  68 00b6 7FD0111A 		.ascii	"\177\320\021\032\311\004\357%\033=\205\332\302\254*"
  68      C904EF25 
  68      1B3D85DA 
  68      C2AC2A
  69 00c5 7F18AD67 		.ascii	"\177\030\255g\266R\356\236\300\307\350N\220V\331\374"
  69      B652EE9E 
  69      C0C7E84E 
  69      9056D9FC 
  70 00d5 47111D3B 		.ascii	"G\021\035;\364\335j\365\275\350d\224\020\350Kz2Z$\225"
  70      F4DD6AF5 
  70      BDE86494 
  70      10E84B7A 
  70      325A2495 
  71 00e9 CD05441C 		.ascii	"\315\005D\034'\224s\234t\274\261\017fc\237s9S\250\034"
  71      2794739C 
  71      74BCB10F 
  71      66639F73 
  71      3953A81C 
  72 00fd 99CAF8CA 		.ascii	"\231\312\370\312\024Q\323\205\2710\253\023\366\224\343"
  72      1451D385 
  72      B930AB13 
  72      F694E3
  73 010c 0503ED51 		.ascii	"\005\003\355Q\025\355=\244\220\362\015\271\223\007\342"
  73      15ED3DA4 
  73      90F20DB9 
  73      9307E2
  74 011b DAEDEB04 		.ascii	"\332\355\353\004N\\\221\200hiL\0134\016\232R\030\006"
  74      4E5C9180 
  74      68694C0B 
  74      340E9A52 
  74      1806
  75 012d 2B344E1D 		.ascii	"+4N\035\2309\366\363\354\341\237\277\250\213\237-\""
  75      9839F6F3 
  75      ECE19FBF 
  75      A88B9F2D 
  75      22
  76 013e 3AC3DEF5 		.ascii	":\303\336\3655\314|\201R9r\357\322\337\0376\345H\233"
  76      35CC7C81 
  76      523972EF 
  76      D2DF1F36 
  76      E5489B
  77 0151 6C9DCE4A 		.ascii	"l\235\316J\004\314\314\027\310]sy\375\364\277\0159\223"
  77      04CCCC17 
  77      C85D7379 
  77      FDF4BF0D 
  77      3993
  78 0163 92A6AF98 		.ascii	"\222\246\257\230\200\334R\200r>Z\234\217\257\303w\346"
ARM GAS  C:\Users\AMANRA~1\AppData\Local\Temp\ccy7qQxb.s 			page 6


  78      80DC5280 
  78      723E5A9C 
  78      8FAFC377 
  78      E6
  79 0174 064852E1 		.ascii	"\006HR\341U\317+\310\273:\021encI\207\352p\361\206\303"
  79      55CF2BC8 
  79      BB3A1165 
  79      6E634987 
  79      EA70F186 
  80 0189 CB7EB5AE 		.ascii	"\313~\265\256w\275|g7\366\376\350\263h}\314\326\270"
  80      77BD7C67 
  80      37F6FEE8 
  80      B3687DCC 
  80      D6B8
  81 019b 45EA1729 		.ascii	"E\352\027)f\372\007\3558\350%+Y\3768\262\031\222k\224"
  81      66FA07ED 
  81      38E8252B 
  81      59FE38B2 
  81      19926B94 
  82 01af 239ACE95 		.ascii	"#\232\316\225\354Z\012\312I\345\027\376\244\345|vW\023"
  82      EC5A0ACA 
  82      49E517FE 
  82      A4E57C76 
  82      5713
  83 01c1 D66ED384 		.ascii	"\326n\323\204]\003\365\212\265\251\260;>\217\035B\374"
  83      5D03F58A 
  83      B5A9B03B 
  83      3E8F1D42 
  83      FC
  84 01d2 BE92B553 		.ascii	"\276\222\265SP\317Y\233\311\252G\002`\326\271<\234t"
  84      50CF599B 
  84      C9AA4702 
  84      60D6B93C 
  84      9C74
  85 01e4 F7B067B5 		.ascii	"\367\260g\265\0374ky\034~n\261\220\007\177,\224\212"
  85      1F346B79 
  85      1C7E6EB1 
  85      90077F2C 
  85      948A
  86 01f6 1806FCB4 		.ascii	"\030\006\374\264\271\274-\353\264\334#\254s\007\014"
  86      B9BC2DEB 
  86      B4DC23AC 
  86      73070C
  87 0205 B7989693 		.ascii	"\267\230\226\223\362o\242=\026\312\347\200\253\305\270"
  87      F26FA23D 
  87      16CAE780 
  87      ABC5B8
  88 0214 2E474211 		.ascii	".GB\021\026\335\243\256\265\215\010\256C\230\315rL6"
  88      16DDA3AE 
  88      B58D08AE 
  88      4398CD72 
  88      4C36
  89 0226 8DF36D1B 		.ascii	"\215\363m\033\267\320h\014\177\271\350\311\255\266\334"
  89      B7D0680C 
  89      7FB9E8C9 
  89      ADB6DC
  90 0235 16CD9017 		.ascii	"\026\315\220\027o\332\3364\315\267i\232\302\030\212"
ARM GAS  C:\Users\AMANRA~1\AppData\Local\Temp\ccy7qQxb.s 			page 7


  90      6FDADE34 
  90      CDB7699A 
  90      C2188A
  91 0244 7CA5DEBF 		.ascii	"|\245\336\277\371\373\315\304Wj\205\226\212J\015@\012"
  91      F9FBCDC4 
  91      576A8596 
  91      8A4A0D40 
  91      0A
  92 0255 4F97AE4D 		.ascii	"O\227\256M]?\246\241y\264dv\004;\237\347!\320\355\377"
  92      5D3FA6A1 
  92      79B46476 
  92      043B9FE7 
  92      21D0EDFF 
  93 0269 A9D0B6EF 		.ascii	"\251\320\266\357\014\315\207\220\364\016\332;\331\323"
  93      0CCD8790 
  93      F40EDA3B 
  93      D9D3
  94 0277 41194759 		.ascii	"A\031GYl\226_x E\2769E\312\035\205\361\023h\215\007"
  94      6C965F78 
  94      2045BE39 
  94      45CA1D85 
  94      F113688D 
  95 028c 635B09D6 		.ascii	"c[\011\326\325\265\231\007f\333\303\255Gq\017\277\201"
  95      D5B59907 
  95      66DBC3AD 
  95      47710FBF 
  95      81
  96 029d F496A66B 		.ascii	"\364\226\246kpQ\237\223v\225$\014\220\364Q\344\372,"
  96      70519F93 
  96      7695240C 
  96      90F451E4 
  96      FA2C
  97 02af 3E44BFAE 		.ascii	">D\277\256*<}\372\365\241\260\351V$\237cYJ\347\2664"
  97      2A3C7DFA 
  97      F5A1B0E9 
  97      56249F63 
  97      594AE7B6 
  98 02c4 0DC697FC 		.ascii	"\015\306\227\374KU)L\027\327\371\353\211\177\227\201"
  98      4B55294C 
  98      17D7F9EB 
  98      897F9781 
  99 02d4 AF23ECEB 		.ascii	"\257#\354\353\371\302W&n\364\276\377\243\356\211\230"
  99      F9C25726 
  99      6EF4BEFF 
  99      A3EE8998 
 100 02e4 BE2911C7 		.ascii	"\276)\021\307\256|p>\366D\215\276-\021W>\371\354j \352"
 100      AE7C703E 
 100      F6448DBE 
 100      2D11573E 
 100      F9EC6A20 
 101 02f9 74A144DC 		.ascii	"t\241D\334\275}\365B\370F\203.\006\342-&N}z\347\037"
 101      BD7DF542 
 101      F846832E 
 101      06E22D26 
 101      4E7D7AE7 
 102 030e E58951BA 		.ascii	"\345\211Q\272\024\2107\2318\361\313\361S\025Oti\331"
 102      14883799 
ARM GAS  C:\Users\AMANRA~1\AppData\Local\Temp\ccy7qQxb.s 			page 8


 102      38F1CBF1 
 102      53154F74 
 102      69D9
 103 0320 13C3F3BD 		.ascii	"\023\303\363\275\303\356^f\202{\223\347{@\233\251\215"
 103      C3EE5E66 
 103      827B93E7 
 103      7B409BA9 
 103      8D
 104 0331 D6BD7AD5 		.ascii	"\326\275z\325I\253;\245\352\222\001\260\253\267\237"
 104      49AB3BA5 
 104      EA9201B0 
 104      ABB79F
 105 0340 FB3F3EA9 		.ascii	"\373?>\251\031O^\334\3139_!\233\361\302k\320\3336\227"
 105      194F5EDC 
 105      CB395F21 
 105      9BF1C26B 
 105      D0DB3697 
 106 0354 9528E87E 		.ascii	"\225(\350~cZ\241s\374\331iNctT\035\225BYn\012p\347-"
 106      635AA173 
 106      FCD9694E 
 106      6374541D 
 106      9542596E 
 107 036c F128ABF0 		.ascii	"\361(\253\360\305\014d#w\327\344\341\361\334\261\360"
 107      C50C6423 
 107      77D7E4E1 
 107      F1DCB1F0 
 108 037c 30653C5D 		.ascii	"0e<]\200\264x\234\001\253S\2369n\260\354\300\213c\304"
 108      80B4789C 
 108      01AB539E 
 108      396EB0EC 
 108      C08B63C4 
 109 0390 F538FFC8 		.ascii	"\3658\377\310`\213(\315\304O\273\221\234\233,\252i\317"
 109      608B28CD 
 109      C44FBB91 
 109      9C9B2CAA 
 109      69CF
 110 03a2 DABBC4B1 		.ascii	"\332\273\304\261\234!\036\275\"A\257\211\2477\242\374"
 110      9C211EBD 
 110      2241AF89 
 110      A737A2FC 
 111 03b2 51855594 		.ascii	"Q\205U\224\013{\341Z\017\377\003\002\347e\012"
 111      0B7BE15A 
 111      0FFF0302 
 111      E7650A
 112              		.text
 113              		.section	.gnu.lto_.pureconst.c3bfe3c9,"",%progbits
 114 0000 789C0DC3 		.ascii	"x\234\015\303Y\022@@\020D\301.\313\360a7\204~\227p\377"
 114      59124040 
 114      1044C12E 
 114      CBF06137 
 114      847E9770 
 115 0015 3A1D1991 		.ascii	":\035\031\221%\"\336\177\015D\363\264tVo\025\006Fkb"
 115      2522DE7F 
 115      0D44F3B4 
 115      74566F15 
 115      06466B62 
 116 0029 66C935B7 		.ascii	"f\3115\267\33498\251\326e\335\326\007\224\010\006\362"
ARM GAS  C:\Users\AMANRA~1\AppData\Local\Temp\ccy7qQxb.s 			page 9


 116      DC3938A9 
 116      D665DDD6 
 116      07940806 
 116      F2
 117              		.text
 118              		.section	.gnu.lto_set_address.c3bfe3c9,"",%progbits
 119 0000 789C9552 		.ascii	"x\234\225RMk\023Q\024}g\356d\222&m\243]\007\311B\010"
 119      4D6B1351 
 119      147D67EE 
 119      6492266D 
 119      A35D07C9 
 120 0016 7591310B 		.ascii	"u\2211\013\027\256\005\177\201+7b\263iA\250\030\\\347"
 120      17AE057F 
 120      812B3762 
 120      B36941A8 
 120      185CE7
 121 0029 35A6A41F 		.ascii	"5\246\244\037\021J\261\221\206i\311\302\"\"\022\203"
 121      114AB191 
 121      8669C9C2 
 121      22221283 
 122 0039 B69AB4C6 		.ascii	"\266\232\264\3061\265\325\212U[\262(\024\024\255J+A"
 122      31B5D58A 
 122      555BB228 
 122      1414AD4A 
 122      2B41
 123 004b 28088268 		.ascii	"(\010\202h\353}/\202R\245\340cf\336\307\275\347\234"
 123      EB7D2F82 
 123      52A5E063 
 123      66DEC7BD 
 123      E79C
 124 005d 7BCF1B4B 		.ascii	"{\317\033K\010q\232\204\210\362|\214_x\004\214\221\027"
 124      08719A84 
 124      88F27C8C 
 124      5F78048C 
 124      9117
 125 006f 42F4F90C 		.ascii	"B\364\371\014\203\336,\011!\375f\311\024\262\225`6\317"
 125      83DE2C09 
 125      21FD66C9 
 125      14B29560 
 125      36CF
 126 0081 4D402DA4 		.ascii	"M@-\244\017\"i\220\211$\262t\205P\313|,\033\235\327"
 126      0F226990 
 126      8924B274 
 126      8550CB7C 
 126      2C1B9DD7 
 127 0095 250FF7EA 		.ascii	"%\017\367\352\2105!_Ir\2309\307\257\032\270\203NN[I"
 127      8835215F 
 127      49729839 
 127      C7AF1AB8 
 127      834E4E5B 
 128 00aa DF766898 		.ascii	"\337vh\230#\200\311\333\355\345\374F\273\332\032\010"
 128      2380C9DB 
 128      EDE5FC46 
 128      BBDA1A08 
 129 00ba F3766BA5 		.ascii	"\363vk\245T\017\322\021\010^o\276\235<\025\231\2222"
 129      540FD211 
 129      085E6FBE 
ARM GAS  C:\Users\AMANRA~1\AppData\Local\Temp\ccy7qQxb.s 			page 10


 129      9D3C1599 
 129      9232
 130 00cc 25DDF7D7 		.ascii	"%\335\367\327H\036v\2100\003b>L#\204\273\010\011>\022"
 130      481E7688 
 130      3003623E 
 130      4C2384BB 
 130      08093E12 
 131 00e0 B887884A 		.ascii	"\270\207\210J\177W\332\031k\263\314\246\036\356\303"
 131      7F57DA19 
 131      6BB3CCA6 
 131      1EEEC3
 132 00ef 12E04571 		.ascii	"\022\340Eq\325\343\312\235\335\214t\353S\2308\031\000"
 132      D5E3CA9D 
 132      DD8C74EB 
 132      53983819 
 132      00
 133 0100 634C833F 		.ascii	"cL\203?\036\342\217eA\303\305\000\203\270)\351\212A"
 133      1EE28F65 
 133      41C3C500 
 133      83B829E9 
 133      8A41
 134 0112 32D4EA92 		.ascii	"2\324\352\222+>!U\335\032\232\017*\256<\201%\026v\277"
 134      2B3E2155 
 134      DD1A9A0F 
 134      2AAE3C81 
 134      251676BF 
 135 0126 BA4155AC 		.ascii	"\272AU\254\027\006os\375\265\227^\265%]\357\\my\321"
 135      17066F73 
 135      FDB5975E 
 135      B5255DEF 
 135      5C6D79D1 
 136 013a 2A60B28F 		.ascii	"*`\262\217\035(T\225\220/O\026*\\\247\012\3273k\257"
 136      1D285495 
 136      902F4F16 
 136      2A5CA70A 
 136      D7336BAF 
 137 014e 03F62DE5 		.ascii	"\003\366-\345O\330\241\026\314\242\2001\355\015\007"
 137      4FD8A116 
 137      CCA28031 
 137      ED0D07
 138 015d BF576656 		.ascii	"\277WfV\375\261\242\012\026\276\301!?\346`\243\254\240"
 138      FDB1A20A 
 138      16BEC121 
 138      3FE660A3 
 138      ACA0
 139 016f DCCC03C4 		.ascii	"\334\314\003\304T5\365\241q\217*f\257\326\241}\225\374"
 139      5435F5A1 
 139      718F2A66 
 139      AFD6A17D 
 139      95FC
 140 0181 A86A25E5 		.ascii	"\250j%\345\006\036\302\346VD\003\351B1K\332%\006\224"
 140      061EC2E6 
 140      564403E9 
 140      42314BDA 
 140      250694
 141 0194 CB8D756F 		.ascii	"\313\215uo\362\207\3649\024\310\251D\270H\012\246t\250"
 141      F287F439 
ARM GAS  C:\Users\AMANRA~1\AppData\Local\Temp\ccy7qQxb.s 			page 11


 141      14C8A944 
 141      B8480AA6 
 141      74A8
 142 01a6 5509576E 		.ascii	"U\011Wn4s\363d\354\321\016\357+\355\301#-m(\351\032"
 142      3473F364 
 142      ECD10EEF 
 142      2BEDC123 
 142      2D6D28E9 
 143 01bb 6CCDD5D2 		.ascii	"l\315\325\322d\242?\015\364\374e \243\333X\016\363\277"
 143      64A23F0D 
 143      F4FC6520 
 143      A3DB580E 
 143      F3BF
 144 01cd 88B78747 		.ascii	"\210\267\207G\327\300\304#:\324\216\307\232X_\365\002"
 144      D7C0C423 
 144      3AD48EC7 
 144      9A585FF5 
 144      02
 145 01de 137F407A 		.ascii	"\023\177@z\375\304?\210\203\020Xl\272\3107K\202\177"
 145      FDC43F88 
 145      8310586C 
 145      BAC8374B 
 145      827F
 146 01f0 68BED906 		.ascii	"h\276\331\006\372\303\272w\316Vm2b:\363\274\344W\210"
 146      FAC3BA77 
 146      CE566D32 
 146      623AF3BC 
 146      E45788
 147 0203 03009E20 		.ascii	"\003\000\236 \344\320A\0151\177\377\014_6/ox\377\337"
 147      E4D0410D 
 147      317FFF0C 
 147      5F362F6F 
 147      78FFDF
 148 0216 FF0E3CD5 		.ascii	"\377\016<\325\265\232\252\326%\330\2340\350\214\337"
 148      B59AAAD6 
 148      25D89C30 
 148      E88CDF
 149 0225 D4E57580 		.ascii	"\324\345u\200\360\214Q\237\221*\314f\241kRc\200/\201"
 149      F08C519F 
 149      912ACC66 
 149      A16B5263 
 149      802F81
 150 0238 75D9B748 		.ascii	"u\331\267H4j\363\023\357\356\351\352\351M\304\216\307"
 150      346AF313 
 150      EFEEE9EA 
 150      E94DC48E 
 150      C7
 151 0249 8EDABD09 		.ascii	"\216\332\275\011\273\373\3549;q!\256\3463\027\023]\321"
 151      BBFBEC39 
 151      3B7121AE 
 151      E6331713 
 151      5DD1
 152 025b B830793A 		.ascii	"\2700y:\377\023\322r!\352"
 152      FF13D272 
 152      21EA
 153              		.text
 154              		.section	.gnu.lto_usbWakeupHost.part.0.c3bfe3c9,"",%progbits
ARM GAS  C:\Users\AMANRA~1\AppData\Local\Temp\ccy7qQxb.s 			page 12


 155 0000 789C9553 		.ascii	"x\234\225S\335KTA\024\237\337\235{\367CS\011|\364\301"
 155      DD4B5441 
 155      149FDF9D 
 155      7BF74353 
 155      097CF4C1 
 156 0014 87645368 		.ascii	"\207dSho>\366g\004\275F\250\005\012\302\206[\017=\355"
 156      6F3EF667 
 156      04BD46A8 
 156      050AC286 
 156      5B0F3DED 
 157 0028 B4BBF951 		.ascii	"\264\273\371Q>\364\220\033,7\021\244\217\227(km\333"
 157      3EF4901B 
 157      2C3711A4 
 157      8F97286B 
 157      6DDB
 158 003a CD6ADBFC 		.ascii	"\315j\333\374*\3232\226\010\002I\003Q\221 \242\0102"
 158      2AD33296 
 158      08024903 
 158      519120A2 
 158      0832
 159 004c B773E6AE 		.ascii	"\267s\346\256n\026F\015\367\236sf\346\314\3577s~3\036"
 159      6E16460D 
 159      F79E7366 
 159      E6CCEF37 
 159      737E331E 
 160 0060 21C48A14 		.ascii	"!\304\212\024\342(\371\003\364\303\0220/\316Q`\302\320"
 160      E228F903 
 160      F4C31230 
 160      2FCE5160 
 160      C2D0
 161 0072 DE80647F 		.ascii	"\336\200d\177\326'\001\016\224\017\"b\032\022\021\364"
 161      D627010E 
 161      940F2262 
 161      1A1211F4 
 162 0082 CB4B12F9 		.ascii	"\313K\022\371\236\345\214\321x]Q\313]v\232\026\325+"
 162      9EE58CD1 
 162      785D51CB 
 162      5D769A16 
 162      D52B
 163 0094 251D424C 		.ascii	"%\035BL\320\317\015w\321Hi\363\361\333\216\274@3\200"
 163      D0CF0D77 
 163      D14869F3 
 163      F1DB8EBC 
 163      403380
 164 00a7 49DD4FB3 		.ascii	"I\335O\263\311\017\325\3345PO\335\325\371\221B\215l"
 164      C90FD5DC 
 164      35504FDD 
 164      D5F99142 
 164      8D6C
 165 00b9 82A07865 		.ascii	"\202\240xeq\360H\340\252RQ\225\333\030\226j\237#%\356"
 165      71F048E0 
 165      AA525195 
 165      DB18966A 
 165      9F2325EE 
 166 00cd 41121E46 		.ascii	"A\022\036FQ\207\024\352\004\015\011\244\021\340\364"
 166      518714EA 
 166      040D09A4 
ARM GAS  C:\Users\AMANRA~1\AppData\Local\Temp\ccy7qQxb.s 			page 13


 166      11E0F4
 167 00dc A591CD81 		.ascii	"\245\221\315\201*\217\311|\270\017O\311\020\361\255"
 167      2A8FC97C 
 167      B80F4FC9 
 167      10F1AD
 168 00eb D796529B 		.ascii	"\327\226R\233\305\036\245\222\201\244\261\007\340\025"
 168      C51EA592 
 168      81A4B107 
 168      E015
 169 00f9 06AD3525 		.ascii	"\006\2555%\031\313dcq\327\303\221\227\215\020\275\264"
 169      19CB6463 
 169      71D7C391 
 169      978D10BD 
 169      B4
 170 010a 6B3E65AF 		.ascii	"k>e\2574\331\313>ih\277\206hv59Z\313\350Ii\020o\342"
 170      34D9CB3E 
 170      6968BF86 
 170      68763539 
 170      5ACBE849 
 171 0122 5CFEA597 		.ascii	"\\\376\245\227O \365\256\307\362\263\223\236!\014\302"
 171      4F20F5AE 
 171      C7F2B393 
 171      9E210CC2 
 172 0132 91940064 		.ascii	"\221\224\000dh\233<^\350y\273Pi\337\344\362\324\023"
 172      689B3C5E 
 172      E879BB50 
 172      69DFE4F2 
 172      D413
 173 0144 17B218C2 		.ascii	"\027\262\030\302\200.\015\036\300\026k\310g\375.\250"
 173      802E0D1E 
 173      C0166BC8 
 173      67FD2EA8 
 174 0154 FC15D4FC 		.ascii	"\374\025\324\374\035\324K\254\030+\201\276Ig\323U\004"
 174      1DD44BAC 
 174      182B81BE 
 174      4967D355 
 174      04
 175 0165 1AA7091F 		.ascii	"\032\247\011\037\036jH>2\036i\310\330\267n\270\230\246"
 175      1E6A483E 
 175      321E69C8 
 175      D8B76EB8 
 175      98A6
 176 0177 0B9B1A9F 		.ascii	"\013\233\032\237\352\3661\254EUxL D[8\257s\376\231%"
 176      EAF631AC 
 176      4555784C 
 176      20445B38 
 176      AF73FE99 
 177 018c 57667902 		.ascii	"Wfy\002\233\240\3052\242\365%\210\330\235\365\261\012"
 177      9BA0C532 
 177      A2F52588 
 177      D89DF5B1 
 177      0A
 178 019d 69EB4D8F 		.ascii	"i\353M\217\347RK\325\015\303Z\300\2577\344\265\230\232"
 178      E7524BD5 
 178      0DC35AC0 
 178      AF37E4B5 
 178      989A
ARM GAS  C:\Users\AMANRA~1\AppData\Local\Temp\ccy7qQxb.s 			page 14


 179 01af 56A623FD 		.ascii	"V\246#\375\310\357\024Q\327\340)\032\3706l\\I\373\335"
 179      C8EF1451 
 179      D7E0291A 
 179      F8366C5C 
 179      49FBDD
 180 01c2 FDD5629C 		.ascii	"\375\325b\234\346\326\021\177\237\216}\231\304\266\300"
 180      E6D6117F 
 180      9F8E7D99 
 180      C4B6C0
 181 01d1 71F782A5 		.ascii	"q\367\202\245\232\016\363\032\255r\302\255\374\326\005"
 181      9A0EF31A 
 181      AD72C2AD 
 181      FCD605
 182 01e0 C0043C98 		.ascii	"\300\004<\230d\361\331\320D&\263\376\316\033\371\241"
 182      64F1D9D0 
 182      4426B3FE 
 182      CE1BF9A1 
 183 01f0 7C8EAC48 		.ascii	"|\216\254H\320\271&xn\012\021\301\024\216\254\334>\200"
 183      D0B92678 
 183      6E0A11C1 
 183      148EACDC 
 183      3E80
 184 0202 46142C71 		.ascii	"F\024,qI\012\353?\004\235.\013\372l\247\240\177\326"
 184      490AEB3F 
 184      049D2E0B 
 184      FA6CA7A0 
 184      7FD6
 185 0214 D6DAA5B6 		.ascii	"\326\332\245\266\317\313\265\235q\025\334\330R\320\353"
 185      CFCBB59D 
 185      7115DCD8 
 185      52D0EB
 186 0223 E22CCCF4 		.ascii	"\342,\314\364\177\257v+\264Y,\026k\360\342\357*\356"
 186      7FAF762B 
 186      B4592C16 
 186      6BF0E2EF 
 186      2AEE
 187 0235 C6345B66 		.ascii	"\3064[f\232c\025\275\024\365\321k\342;\376\021\321\241"
 187      9A6315BD 
 187      14F5D16B 
 187      E23BFE11 
 187      D1A1
 188 0247 CF85BDFA 		.ascii	"\317\205\275\372\001q\353\245<\0327\204\010\004\203"
 188      0171EBA5 
 188      3C1A3784 
 188      080483
 189 0256 367D6DED 		.ascii	"6}m\355\035\255\035\241p\363\241\346\203v(l\267\267"
 189      1DAD1DA1 
 189      70F3A1E6 
 189      8376286C 
 189      B7B7
 190 0268 74DAE1AE 		.ascii	"t\332\341\2566\366\307N\207[\203m\302$w\322:~\242\263"
 190      36F6C74E 
 190      875B836D 
 190      C22477D2 
 190      3A7EA2B3 
 191 027c E5CCFE5D 		.ascii	"\345\314\376]\227\204\302d\272Ni\037l\027?\001\235\021"
 191      9784C264 
ARM GAS  C:\Users\AMANRA~1\AppData\Local\Temp\ccy7qQxb.s 			page 15


 191      BA4E691F 
 191      6C173F01 
 191      9D11
 192 028e 5135     		.ascii	"Q5"
 193              		.text
 194              		.section	.gnu.lto_usbInit.c3bfe3c9,"",%progbits
 195 0000 789C6363 		.ascii	"x\234cc``X\005\304\232@,\015\304\214\314\014\214L\023"
 195      60605805 
 195      C49A402C 
 195      0DC48CCC 
 195      0C8C4C13 
 196 0014 CE313034 		.ascii	"\316104r012\202\030\015\034\214\014\365L\214\365\214"
 196      72303132 
 196      82180D1C 
 196      8C0CF54C 
 196      8CF58C
 197 0027 3DCC5398 		.ascii	"=\314S\230\031\017\265?\333\311\244\271\274\001\010"
 197      190FB53F 
 197      DBC9A4B9 
 197      BC0108
 198 0036 0E4CDF23 		.ascii	"\016L\337#\324\326\320*1\207\231\201a\032\020\203\000"
 198      D4D6D02A 
 198      31879981 
 198      611A1083 
 198      00
 199 0047 E366464D 		.ascii	"\343fFM\006\240\262G\033\377M\345ec\201\2103nadc`\004"
 199      06A0B247 
 199      1BFF4DE5 
 199      65638188 
 199      336E6164 
 200 005e 32D65F62 		.ascii	"2\326_b=\320\360\357\177{\303\201'\213\030/\007\001"
 200      3DD0F0EF 
 200      7F7BC381 
 200      278B182F 
 200      0701
 201 0070 E53A8018 		.ascii	"\345:\200\030hI\303\001\206Nf&\020\253\371\000\303\033"
 201      6849C301 
 201      864E6626 
 201      10ABF900 
 201      C31B
 202 0082 C6E6058B 		.ascii	"\306\346\005\213\2272\203u\001\215\332\271\363\315m"
 202      97328375 
 202      018DDAB9 
 202      F3CD6D
 203 0091 F6FABF0D 		.ascii	"\366\372\277\015\034s\230\031\2471\003\215a\334\312"
 203      1C739819 
 203      A731038D 
 203      61DCCA
 204 00a0 58CF3007 		.ascii	"X\3170\007\250\374\035c\323\202\345K\031\301\012A\240"
 204      A8FC1D63 
 204      D382E54B 
 204      19C10A41 
 204      A0
 205 00b1 03280B34 		.ascii	"\003(\0134\202\211\201A]OO\037\210\22232\2232\363\213"
 205      82898141 
 205      5D4F4F1F 
 205      88923332 
ARM GAS  C:\Users\AMANRA~1\AppData\Local\Temp\ccy7qQxb.s 			page 16


 205      9332F38B 
 206 00c5 0D2D0D0D 		.ascii	"\015-\015\015\364\363\213\3653\022s\364\213\213\222"
 206      F4F38BF5 
 206      331273F4 
 206      8B8B92
 207 00d4 41747C69 		.ascii	"At|iq\222^2\003\000\006\336F\310"
 207      71925E32 
 207      030006DE 
 207      46C8
 208              		.text
 209              		.section	.gnu.lto_usbObjectInit.c3bfe3c9,"",%progbits
 210 0000 789C9D53 		.ascii	"x\234\235S\335KTA\024\237\337\235\271\273\333\256\037"
 210      DD4B5441 
 210      149FDF9D 
 210      B9BBDBAE 
 210      1F
 211 0011 903D8848 		.ascii	"\220=\210H\370\220\210=\354u\037\263?\241\307z\217\024"
 211      F890883D 
 211      EC751FB3 
 211      3FA1C77A 
 211      8F14
 212 0023 4221305A 		.ascii	"B!0Zzv\374\\\245\202\036r\205\345\"\033\262E\017a\353"
 212      7A76FC5C 
 212      A5821E72 
 212      85E5221B 
 212      B2450F61 
 213 0038 6796DA75 		.ascii	"g\226\332u]\277\332]M\221\350I\250h\321\250 \220\"("
 213      5DBFDA5D 
 213      4D91E849 
 213      A868D1A8 
 213      20902228 
 214 004c EDCCDC56 		.ascii	"\355\314\334V\223\"\310\341\336;3g\316\371\375\316\371"
 214      9322C8E1 
 214      DE3B3367 
 214      CEF9FDCE 
 214      F9
 215 005d 9DB91EC6 		.ascii	"\235\271\036\306\330Y\301X\035\315\347\351\205\207\301"
 215      D859C158 
 215      1DCDE7E9 
 215      8587C1
 216 006c B8BDC258 		.ascii	"\270\275\302X\233\317\200p\027\334]\314\372\204\301"
 216      9BCF8070 
 216      17DC5DCC 
 216      FA84C1
 217 007b B3F54CFA 		.ascii	"\263\365L\372\315t\031\223E&\240\314\322\007\326jpa"
 217      CD741993 
 217      4526A0CC 
 217      D207D66A 
 217      7061
 218 008d A2D5100C 		.ascii	"\242\325\020\014\216\000?\370\020\"\273\311\357p\244"
 218      8E003FF8 
 218      1022BBC9 
 218      EF70A4
 219 009c 22F949A3 		.ascii	"\"\371I\243\366\276\244\341\364\357\034\357\226]\345"
 219      F6BEA4E1 
 219      F4EF1CEF 
 219      965DE5
ARM GAS  C:\Users\AMANRA~1\AppData\Local\Temp\ccy7qQxb.s 			page 17


 220 00ab 369D46B5 		.ascii	"6\235F\265\007\321\216\240\226\274\326:\037\331\374"
 220      07D18EA0 
 220      96BCD63A 
 220      1FD9FC
 221 00ba 06B73920 		.ascii	"\006\2679 h\3739\027{[\242\266\006\252h\273\275\226"
 221      68FB3917 
 221      7B5BA2B6 
 221      06AA68BB 
 221      BD96
 222 00cc DC28E5A7 		.ascii	"\334(\345\247\301h\275\365z\340BMB\312v\351|\037\344"
 222      C168BDF5 
 222      7AE0424D 
 222      42CA76E9 
 222      7C1FE4
 223 00df F294CD39 		.ascii	"\362\224\3159\306\301\011\017c\250\304(*\031\231\030"
 223      C6C1090F 
 223      63A8C428 
 223      2A199918 
 224 00ef 2650A3DC 		.ascii	"&P\243\334\023\231\271\231\022n\351\320[/\242#f\365"
 224      1399B999 
 224      126EE9D0 
 224      5B2FA223 
 224      66F5
 225 0101 A08EDDCC 		.ascii	"\240\216\335\314\224\337\355\220KR\330\\\340\361\341"
 225      94DFED90 
 225      4B52D85C 
 225      E0F1E1
 226 0110 7835C8FD 		.ascii	"x5\310\375Mr\267\257\330#0\211j7]<Q\"\321\254LC\353"
 226      4D72B7AF 
 226      D8233089 
 226      6A375D3C 
 226      5122D1AC 
 227 0127 A62377F7 		.ascii	"\246#w\367\"\322yy.\267\223?Q\004\246\314\002\2129\240"
 227      22D27979 
 227      2EB7933F 
 227      5104A6CC 
 227      028A39A0 
 228 013b D78CF550 		.ascii	"\327\214\365PX\272L:\254\227\033\264\350p\330{\264\357"
 228      58BA4C3A 
 228      AC971BB4 
 228      E870D87B 
 228      B4EF
 229 014d 6C4D2F07 		.ascii	"lM/\007\024\026qD\273R\253^U(\327\031N\245r\013\236"
 229      14167144 
 229      BB52AB5E 
 229      5528D719 
 229      4EA5720B 
 230 0162 3806DA48 		.ascii	"8\006\332H\255\370I\233\2331\312\356\251J\211\0167\""
 230      ADF8499B 
 230      9B31CAEE 
 230      A94A890E 
 230      3722
 231 0174 AF3603D6 		.ascii	"\2576\003\326C\245d\225\315=\230B\034}ZFL\303\"\207"
 231      43A56495 
 231      CD3D9842 
 231      1C7D5A46 
 231      4CC32287 
ARM GAS  C:\Users\AMANRA~1\AppData\Local\Temp\ccy7qQxb.s 			page 18


 232 0188 B14836E9 		.ascii	"\261H6\351W`\036\0003\024\245\311f\366\311\376\003\335"
 232      57601E00 
 232      3314A5C9 
 232      66F6C9FE 
 232      03DD
 233 019a 8B671A1D 		.ascii	"\213g\032\035\012\335\321\350\373\251z\251\322Y\212"
 233      0ADDD1E8 
 233      FBA97AA9 
 233      D2598A
 234 01a9 CAA33DBE 		.ascii	"\312\243=\276\227\250P\340\252Zr\031\3720\371\255X\271"
 234      97A850E0 
 234      AA5A7219 
 234      FA30F9AD 
 234      58B9
 235 01bb 08724969 		.ascii	"\010rIi%{\251\027\331\372B\341K\017J\376\226\313e\366"
 235      257BA917 
 235      D9FA42E1 
 235      4B0F4AFE 
 235      96CB65F6 
 236 01cf CF647C98 		.ascii	"\317d|\230\323\311\030n_F>n%EhH\035\306\207a\363cH\303"
 236      D3C9186E 
 236      5F463E6E 
 236      25456848 
 236      1DC68761 
 237 01e7 8AE95419 		.ascii	"\212\351T\031\346\021B\360W\345\313Gd[\320l\374O\266"
 237      E61142F0 
 237      57E5CB47 
 237      645BD06C 
 237      FC4FB6
 238 01fa 71CDB678 		.ascii	"q\315\266x\300\266T`\353\210v\377\350OpE\027\343\001"
 238      C0B65460 
 238      EB8876FF 
 238      E84F7045 
 238      17E301
 239 020d 3AA6C8D1 		.ascii	":\246\310\321\364b\267\317U\003Xv\005\253*\250E^Z\035"
 239      F462B7CF 
 239      55035876 
 239      05AB2AA8 
 239      455E5A1D 
 240 0221 C1E85722 		.ascii	"\301\350W\"y\3620\230k\007{\207\316\325\271J\027K\001"
 240      79F23098 
 240      6B077B87 
 240      CED5B94A 
 240      174B01
 241 0234 CDEF7D75 		.ascii	"\315\357}uJ] \003\317\335\013\372\2050Iac]\361\361\341"
 241      4A5D2003 
 241      CFDD0BFA 
 241      85304961 
 241      635DF1F1 
 242 0249 0A82327F 		.ascii	"\012\2022\177\273a\231\2434\335\217\214\256\\\250\322"
 242      BB6199A3 
 242      34DD8F8C 
 242      AE5CA8D2 
 243 0259 B2879BEE 		.ascii	"\262\207\233\356\247\216\346\012W*{4\364\025\215n*\364"
 243      A78EE60A 
 243      572A7B34 
 243      F4158D6E 
ARM GAS  C:\Users\AMANRA~1\AppData\Local\Temp\ccy7qQxb.s 			page 19


 243      2AF4
 244 026b 55581AEE 		.ascii	"UX\032\356\023\335\241\211{\320\177\226\032=T~\272\214"
 244      13DDA189 
 244      7BD07F96 
 244      1A3D547E 
 244      BA8C
 245 027d 1A5D130C 		.ascii	"\032]\023\014Z\36446574\267\204CgBuVK\330j\272t\305"
 245      5AF43436 
 245      353734B7 
 245      84436742 
 245      75564BD8 
 246 0295 0A5F6B54 		.ascii	"\012_kT\363\305\353\341\206`#\0234]E\363O\024+s\317"
 246      F3C5EBE1 
 246      86602313 
 246      345D45F3 
 246      4F142B73 
 247              		.text
 248              		.section	.gnu.lto_usbStart.c3bfe3c9,"",%progbits
 249 0000 789C7D54 		.ascii	"x\234}TkL\024W\024>g\356\354\243\273<L\374C\0141KR\012"
 249      6B4C1457 
 249      143E67EE 
 249      ECA3BB3C 
 249      4CFC430C 
 250 0018 348691A4 		.ascii	"4\206\221\244\321\364\217M\303/\177\2204\322\237M\210"
 250      D1F48F4D 
 250      C32F7F90 
 250      34D29F4D 
 250      88
 251 0029 6C113671 		.ascii	"l\0216qY\262\213\215\366\017# h\221\244Iek\350\204]"
 251      59B28B8D 
 251      F60F2320 
 251      6891A449 
 251      656BE884 
 252 003e 6A2CC544 		.ascii	"j,\305D\361U[Dq]\024T\004\026\304WiE \202\330MmI\323"
 252      F1555B44 
 252      715D1454 
 252      0416C457 
 252      69452082 
 253 0057 94A6DDF6 		.ascii	"\224\246\335\366\234;`y\225\233\311\314\235{\316w\316"
 253      9C3B6079 
 253      959BC9CC 
 253      9D7BCE77 
 253      CE
 254 0068 775ED70A 		.ascii	"w^\327\012\000\333\255\000\331\010PH{\264\002*\237\016"
 254      00DBAD00 
 254      D9085048 
 254      7BB4022A 
 254      9F0E
 255 007a 021CB42B 		.ascii	"\002\034\264+\250\232\033an\256\333UEDv\200\356\260"
 255      A89A1B61 
 255      6EAEDB55 
 255      45447680 
 255      EEB0
 256 008c C452414F 		.ascii	"\304RAO\262 \362\261nG\250R\204j\301*E\005\214\250\250"
 256      B220F2B1 
 256      6E47A852 
 256      846AC12A 
ARM GAS  C:\Users\AMANRA~1\AppData\Local\Temp\ccy7qQxb.s 			page 20


 256      45058CA8 
 257 00a1 FEF7228B 		.ascii	"\376\367\"\213pT\034\023\030\255\237\356Tr\332tZ\221"
 257      70541C13 
 257      18AD9FEE 
 257      5472DA74 
 257      5A91
 258 00b3 CFBB37D6 		.ascii	"\317\2737\326\351\207\322\014\001\020\024 \027^\300"
 258      E987D20C 
 258      01101420 
 258      175EC0
 259 00c2 1CD21AAE 		.ascii	"\034\322\032\256=k\210\006a\010D\225~\177\035h\236J"
 259      3D6B8806 
 259      61084495 
 259      7E7F1D68 
 259      9E4A
 260 00d4 E15F055D 		.ascii	"\341_\005]\364;;|n4U\274\211@\373\347\023-\357g\235"
 260      F43B3B7C 
 260      6E3455BC 
 260      8940FBE7 
 260      132DEF67 
 261 00e9 D4F56A3D 		.ascii	"\324\365j=2zB\350\257\033B\340%\024d\017\277\301t\274"
 261      327A42E8 
 261      AF1B42E0 
 261      2514640F 
 261      BFC174BC 
 262 00fd 88E94047 		.ascii	"\210\351@G\200\337b\026#\023\0353\252\320$\362R<\324"
 262      80DF6216 
 262      23131D33 
 262      AAD024F2 
 262      523CD4
 263 0110 EB5C80DE 		.ascii	"\353\\\200\336\375JBU\374n%\224\"\351\304,\326?\331"
 263      FD4A4255 
 263      FC6E2594 
 263      22E9C42C 
 263      D63FD9
 264 0123 DFD39D22 		.ascii	"\337\323\235\"\266Ilc,x\301\222yBb{\007\323Zk\364[\272"
 264      B6496C63 
 264      2C78C192 
 264      7942627B 
 264      07D35A6B 
 265 013a 6A080B5E 		.ascii	"j\010\013^^\216\347E\352\223\347\022M\311V\025\2730"
 265      5E8EE745 
 265      EA93E712 
 265      4DC95615 
 265      BB30
 266 014c 33BC182C 		.ascii	"3\274\030,^A+\276\222\325\312\204L\017Z\345yP \254\020"
 266      5E412BBE 
 266      92D5CA84 
 266      4C0F5AE5 
 266      795020AC 
 267 0161 F5CCBC63 		.ascii	"\365\314\274c\003\274\3122e\245\254\337\330\362\001"
 267      03BCCA32 
 267      65A5ACDF 
 267      D8F201
 268 0170 6037CB84 		.ascii	"`7\313\204dzg\344\232S|\202\322H\373\231\326\343I\013"
 268      647A67E4 
 268      9A537C82 
ARM GAS  C:\Users\AMANRA~1\AppData\Local\Temp\ccy7qQxb.s 			page 21


 268      D248FB99 
 268      D6E3490B 
 269 0184 541F9ECA 		.ascii	"T\037\236\312\376\242\246\241Q\017Wo0\204\025#\353\220"
 269      FEA2A6A1 
 269      510F576F 
 269      30841523 
 269      EB90
 270 0196 352D3FE0 		.ascii	"5-?\340t^\307L\300kl]]\022\014`\224\002\350\341>\241"
 270      745EC74C 
 270      C06B6C5D 
 270      5D120C60 
 270      9402E8E1 
 271 01ac 17750D72 		.ascii	"\027u\015rx\035#\226\210\236\370\247\236\212\273y`n"
 271      781D2396 
 271      889EF8A7 
 271      9E8ABB79 
 271      606E
 272 01be 3691938C 		.ascii	"6\221\223\214\300\347*r\005\250S(\231\016y\002p\230"
 272      C0E72A72 
 272      05A85328 
 272      990E7902 
 272      7098
 273 01d0 D2104BD5 		.ascii	"\322\020K\325#p\204B\212\245\326D`\032\025`w\344\245"
 273      23708442 
 273      8AA5D644 
 273      601A1560 
 273      77E4A5
 274 01e3 7E56BFAA 		.ascii	"~V\277\252r\311\255\350\302\033\304\356'\254\236\234"
 274      72C9ADE8 
 274      C21BC4EE 
 274      27AC9E9C 
 275 01f3 312E8FA3 		.ascii	"1.\217\243\351\016\241Q!\265/C\347\377pd\264(!\375\270"
 275      E90EA151 
 275      21B52F43 
 275      E7FF7064 
 275      B42821FD 
 276 0208 CB1036E6 		.ascii	"\313\0206\346wz\252K\247\016%B71CF\364K|tL\241\023\354"
 276      777AAA4B 
 276      A70E2542 
 276      37314346 
 276      F44B7C74 
 277 0220 A56E645B 		.ascii	"\245nd[\200}\262\257\276\356\356y\226\224\321\272\200"
 277      807DB2AF 
 277      BEEEEE79 
 277      9694D1BA 
 277      80
 278 0231 B6B3EEDC 		.ascii	"\266\263\356\334\231\363\367\235\022}\213\321x\233z"
 278      99F3F79D 
 278      127D8BD1 
 278      789B7A
 279 0240 771AAB9F 		.ascii	"w\032\253\237\2667\035+\225\334\000^`u\363\374dWT\341"
 279      B6371D2B 
 279      95DC005E 
 279      6075F3FC 
 279      645754E1 
 280 0254 52112478 		.ascii	"R\021$x(:dc\252f\325\256D\007z\255al9H\011\014o6\304"
 280      283A6463 
ARM GAS  C:\Users\AMANRA~1\AppData\Local\Temp\ccy7qQxb.s 			page 22


 280      AA66D5AE 
 280      44077AAD 
 280      616C3948 
 281 026d 6BCDD457 		.ascii	"k\315\324Ww\330+\011G\353\037=qj\2479\271.\356\267~"
 281      77D82B09 
 281      47EB1F3D 
 281      716AA739 
 281      B92EEEB7 
 282 0282 0C6393EC 		.ascii	"\014c\223\354}\274\213Z\263\260\260\263\360T\333&\331"
 282      7DBC8B5A 
 282      B3B0B0B3 
 282      F054DB26 
 282      D9
 283 0293 1E5D3215 		.ascii	"\036]2\025\035\361\316\371d\266o\241\260\007d\241\216"
 283      1DF1CEF9 
 283      64B66FA1 
 283      B00764A1 
 283      8E
 284 02a4 50A1233B 		.ascii	"P\241#;(c\304\345\267\347\363\267\035\013T\226\371\336"
 284      2863C4E5 
 284      B7E7F3B7 
 284      1D0B5496 
 284      F9DE
 285 02b6 03EB3A77 		.ascii	"\003\353:w\340\240t\216f\331{_N\364\253y\035,\014\177"
 285      E0A0748E 
 285      66D97B5F 
 285      4EF4AB79 
 285      1D2C0C7F 
 286 02ca 6C08270E 		.ascii	"l\010'\0161\037\224\324b\230\2674N'\361\030&\233/\260"
 286      311F94D4 
 286      6298B734 
 286      4E27F118 
 286      269B2FB0 
 287 02de 2658D718 		.ascii	"&X\327\030j\027\354\275Y8H\235\324.\336\350\253\263"
 287      6A17ECBD 
 287      5938489D 
 287      D42EDEE8 
 287      ABB3
 288 02f0 9B741147 		.ascii	"\233t\021GH\215\"r-\206CZ\222\276\012te,V\\\236#<\303"
 288      488D2272 
 288      2D86435A 
 288      92BE0A74 
 288      652C565C 
 289 0308 DAA19E74 		.ascii	"\332\241\236t\323\026\033\212\316\235mK2\015\011\274"
 289      D3161B8A 
 289      CE9D6D4B 
 289      320D09BC 
 290 0318 6736E8EF 		.ascii	"g6\350\357d\223R\240\214\260?1\262\211LY\314\336\211"
 290      649352A0 
 290      8CB03F31 
 290      B2894C59 
 290      CCDE89
 291 032b 636DF865 		.ascii	"cm\370e\233\244\302\341tv\306\307lU\177\353vC$\005I"
 291      9BA4C2E1 
 291      7476C6C7 
 291      6C557FEB 
 291      76432405 
ARM GAS  C:\Users\AMANRA~1\AppData\Local\Temp\ccy7qQxb.s 			page 23


 292 0340 077014AB 		.ascii	"\007p\024\253\200\262a\210d3k\177\315\332\326\312\332"
 292      80B26188 
 292      64336B7F 
 292      CDDAD6CA 
 292      DA
 293 0351 FA154BC1 		.ascii	"\372\025K\301\3732i\012\247\345\001j\214\016\035mw0"
 293      FB32690A 
 293      A7E5016A 
 293      8C0E1D6D 
 293      7730
 294 0363 CD1454F0 		.ascii	"\315\024T\360\241\214WYc\360Z\326\037<|$k\375*\307\334"
 294      A18C5759 
 294      63F05AD6 
 294      1F3C7C24 
 294      6BFD2AC7 
 295 0378 E28F97B6 		.ascii	"\342\217\227\266\375\212\311\374\354\317\215\013W\205"
 295      FD8AC9FC 
 295      ECCF8D0B 
 295      5785
 296 0386 75D555D1 		.ascii	"u\325U\321\367F\032\340\367,\263-\033\3301\252\301\017"
 296      F7461AE0 
 296      F72CB32D 
 296      1BD831AA 
 296      C10F
 297 0398 B84ABFDF 		.ascii	"\270J\277\337\310.\002\026\004\315\021X*\273w\352\255"
 297      C82E0216 
 297      04CD1158 
 297      2ABB77EA 
 297      AD
 298 03a9 16C1DC00 		.ascii	"\026\301\334\000\177\\}\003<!\203\343|\003\214/\031"
 298      7F5C7D03 
 298      3C2183E3 
 298      7C038C2F 
 298      19
 299 03ba C94468A2 		.ascii	"\311Dh\242\333\2718m\217\345\264=\225\323\266r\264&"
 299      DBB9386D 
 299      8FE5B43D 
 299      95D3B672 
 299      B426
 300 03cc CCD172C9 		.ascii	"\314\321r\311\330\001~\246)kH\344\310\002\362:L-\021"
 300      D8017EA6 
 300      296B48E4 
 300      C802F23A 
 300      4C2D11
 301 03df 4B25F5AC 		.ascii	"K%\365\254\334\\\215\036w\231\247\330\343\013\344\275"
 301      DC5C8D1E 
 301      7799A7D8 
 301      E30BE4BD 
 302 03ef 9DB755F3 		.ascii	"\235\267U\363\005\264\262\335{\265\200\337\315\337\242"
 302      05B4B2DD 
 302      7BB580DF 
 302      CDDFA2
 303 03fe 7D81E25C 		.ascii	"}\201\342\\7\250\364\251\260\272}\345{<\245\350\311"
 303      37A8F4A9 
 303      B0BA7DE5 
 303      7B3CA5E8 
 303      C9
ARM GAS  C:\Users\AMANRA~1\AppData\Local\Temp\ccy7qQxb.s 			page 24


 304 040f FE5F942F 		.ascii	"\376_\224/@/\177\245\374\346\226\301\332\212$\367\224"
 304      402F7FA5 
 304      FCE696C1 
 304      DA8A24F7 
 304      94
 305 0420 BBF7EEFB 		.ascii	"\273\367\356\373\260\204$\201\003\001R\264\025\357\016"
 305      B0842481 
 305      030152B4 
 305      15EF0E
 306 042f 94BCE7F7 		.ascii	"\224\274\347\367l[\023\340\366y\275\276r\255\302\347"
 306      6C5B13E0 
 306      F679BDBE 
 306      72ADC2E7 
 307 043f AF0C68EF 		.ascii	"\257\014h\357\356*\310/\330O*n\237\277\244\350\243\355"
 307      EE2AC82F 
 307      D84F2A6E 
 307      9FBFA4E8 
 307      A3ED
 308 0451 5E82E7AF 		.ascii	"^\202\347\257\007+\331_\311 -\277\240pg\241\226O(m\347"
 308      072BD95F 
 308      C9202DBF 
 308      A07067A1 
 308      964F286D 
 309 0466 A27B6FC0 		.ascii	"\242{o\300\023(*u\273\311\306\206\202\302].\246Q\341"
 309      13282A75 
 309      BBC9C686 
 309      82C25D2E 
 309      A651E1
 310 0479 F76C7165 		.ascii	"\367lqen\005\305\0176o\211\327\347?\000\377\002L/b`"
 310      6E05C50F 
 310      366F89D7 
 310      E73F00FF 
 310      024C2F62 
 311              		.text
 312              		.section	.gnu.lto_usbStop.c3bfe3c9,"",%progbits
 313 0000 789C9554 		.ascii	"x\234\225T[L\034e\024>g\376\331\013\273\013\313\223"
 313      5B4C1C65 
 313      143E67FE 
 313      D90BBB0B 
 313      CB93
 314 0012 9286344B 		.ascii	"\222\2064K\"B/aJb4\276\324\030\236\372@b\212\217&\244"
 314      22422F61 
 314      4A6234BE 
 314      D4189EFA 
 314      40628A8F 
 315 0028 AC5836E9 		.ascii	"\254X6\351v\311\0165\255/LY\012%Hb\"\3356\333\311\262"
 315      76C90E35 
 315      AD2F4C59 
 315      0A254862 
 315      22DD36DB 
 316 003e 9534482A 		.ascii	"\2254H*\245\364b\335^\350\026\352\266v\241,\224\326"
 316      A5F462DD 
 316      5EE816EA 
 316      B676A12C 
 316      94D6
 317 0050 45B4DC52 		.ascii	"E\264\334RB\025o\2151\372 z\376\177X\204\005I\234Lf"
 317      42156F8D 
ARM GAS  C:\Users\AMANRA~1\AppData\Local\Temp\ccy7qQxb.s 			page 25


 317      31FA207A 
 317      FE7F5884 
 317      05499C4C 
 318 0065 FEF9CF39 		.ascii	"\376\371\3179\337\377\235\3137f\000\2502\003\024 @\005"
 318      DFFF9DCB 
 318      376600A8 
 318      32031420 
 318      4005
 319 0077 ADD10C28 		.ascii	"\255\321\014(}\364\000\340\250UB\331X0cq\333*K,\266"
 319      7DF400E0 
 319      A85542D9 
 319      58306371 
 319      DB2A4B2C 
 320 008c 1B349B29 		.ascii	"\0334\233)\351\004\315aB\344\333\232\025\241^b\262\011"
 320      E904CD61 
 320      42E4DB9A 
 320      15A15E62 
 320      B209
 321 009e EB251930 		.ascii	"\353%\0310&\243\374\357\203\020\341C\326\316p\240y>"
 321      26A3FCEF 
 321      8310E143 
 321      D6CE70A0 
 321      793E
 322 00b0 2A6DEBD2 		.ascii	"*m\353\322\350\212\235\014\277\320\244\035\313\323\031"
 322      E88A9D0C 
 322      BFD0A41D 
 322      CBD319
 323 00bf 409081B8 		.ascii	"@\220\201\270\360\022n#\257\321\306\013:ke:C\224\351"
 323      F0126E23 
 323      AFD1C60B 
 323      3A6B653A 
 323      4394E9
 324 00d2 F3D7E1D0 		.ascii	"\363\327\341\320\\\016\377\224\320E\237\317F\373\306"
 324      5C0EFF94 
 324      D0459FCF 
 324      46FBC6
 325 00e1 9D6C3B02 		.ascii	"\235l;\002\255\027f\302o\027\235\325\264\006-6\324\311"
 325      AD1766C2 
 325      6F179DD5 
 325      B4062D36 
 325      D4C9
 326 00f3 B49774C6 		.ascii	"\264\227t\306\360sd\204\207W0\037/c>\320\026\340U,\342"
 326      F0736484 
 326      8757301F 
 326      2F633ED0 
 326      16E0552C 
 327 0108 EE671383 		.ascii	"\356g\023\203\3759L\021\241m\311\340%Sa\247\210\215"
 327      FD394C11 
 327      A16DC9E0 
 327      255361A7 
 327      888D
 328 011a 4FE49D09 		.ascii	"O\344\235\011h\3674Yg2~\2616\236_\344>\333\267t\"\333"
 328      68F73459 
 328      67327EB1 
 328      369E5FE4 
 328      3EDBB774 
 329 0130 2C63140B 		.ascii	",c\024\013#i\306x\015\315\270bk\024Y\315O\230\305~\220"
ARM GAS  C:\Users\AMANRA~1\AppData\Local\Temp\ccy7qQxb.s 			page 26


 329      2369C678 
 329      0DCDB862 
 329      6B1459CD 
 329      4F98C57E 
 330 0145 21649812 		.ascii	"!d\230\022\363oX\000\257s\233\224i{xz\347;\2007\270"
 330      F36F5800 
 330      AF739B94 
 330      697B787A 
 330      E73B8037 
 331 015a 8D09A6F7 		.ascii	"\215\011\246\367\307n\331Y\000\005H\367\3713\247\034"
 331      C76ED959 
 331      000548F7 
 331      F933A71C 
 332 016a CB54A7BA 		.ascii	"\313T\247\272\213O\007Z\333\264HC\256\316L\330\277\011"
 332      8B4F075A 
 332      DBB44843 
 332      AECE4CD8 
 332      BF09
 333 017c 5903F931 		.ascii	"Y\003\3711\257\311-,\004\274\311\321\345U\311P\233("
 333      AFC92D2C 
 333      04BCC9D1 
 333      E555C950 
 333      9B28
 334 018e 81DBBCD9 		.ascii	"\201\333\274\331\364\240\326#O\257w\314\024\323\226"
 334      F4A0D623 
 334      4FAF77CC 
 334      14D396
 335 019d FE6EA60E 		.ascii	"\376n\246\016mM--\244vd#\360}\031y\031\263\304\032\340"
 335      6D4D2D2D 
 335      A4766423 
 335      F07D1979 
 335      19B3C41A 
 336 01b2 381520E9 		.ascii	"8\025 \351\324b\320B\311$\235\201\030\314\243\004\374"
 336      D462D042 
 336      C9249D81 
 336      18CCA304 
 336      FC
 337 01c3 20C26F7E 		.ascii	" \302o~\246\335\224y\307L\350\302\001\342\365\0036\314"
 337      A6DD9479 
 337      C74CE8C2 
 337      01E2F503 
 337      36CC
 338 01d5 9ED3AF4D 		.ascii	"\236\323\257M\241q\020B\223Dn\237t\\\374\303VpR\352"
 338      A1711042 
 338      93446E9F 
 338      745CFCC3 
 338      567052EA 
 339 01e9 D04EB974 		.ascii	"\320N\271tf\346\314z\346\256k4`De\020\013D.\277,\216"
 339      66E6CC7A 
 339      E6AE6B34 
 339      60446510 
 339      0B442EBF 
 340 01ff 4F4AB483 		.ascii	"OJ\264\203wh\2308\026\340\227b,>\355\037|\352(\010-"
 340      77689838 
 340      16E09762 
 340      2C3EED1F 
 340      7CEA2808 
ARM GAS  C:\Users\AMANRA~1\AppData\Local\Temp\ccy7qQxb.s 			page 27


 341 0214 475BB8EF 		.ascii	"G[\270\357\363\363\027\037\331Et\234G\343]\032\275y"
 341      F3F3171F 
 341      D945749C 
 341      47E35D1A 
 341      BD79
 342 0226 6C98FEB1 		.ascii	"l\230\376\261\275}\277\340\006\260\210\215\323-\347"
 342      BD7DBFE0 
 342      06B0888D 
 342      D32DE7
 343 0235 ECBC453C 		.ascii	"\354\274E<\"\032]\234\264\324\377\245Yuf\0152\023\305"
 343      221A5D9C 
 343      B4D4FFA5 
 343      5975660D 
 343      3213C5
 344 0248 DCC37A08 		.ascii	"\334\303z\0101\232\204,\370\036\033~[\370\254\325\306"
 344      319A842C 
 344      F81E1B7E 
 344      5BF8ACD5 
 344      C6
 345 0259 9DC93778 		.ascii	"\235\3117xl`\304\302\2632Z{c`8n\216`\370(U9\262Ug6\212"
 345      6C60C4C2 
 345      B3325A7B 
 345      6360386E 
 345      8E60F828 
 346 0274 C2AF3841 		.ascii	"\302\2578A2\2167\247\236\330\225\036\336\001\"g\307"
 346      328E37A7 
 346      9ED8951E 
 346      DE012267 
 346      C7
 347 0285 FB18C113 		.ascii	"\373\030\301\023b\3121\201\312j0;\225c\210\242\304a"
 347      62CA3181 
 347      CA6A303B 
 347      956388A2 
 347      C461
 348 0297 3D2B87FD 		.ascii	"=+\207\375\017t\007\016\013t\344\350\017\004\372\225"
 348      0F74070E 
 348      0B74E4E8 
 348      0F04FA95 
 349 02a7 E6A13E1B 		.ascii	"\346\241>\033Gw \342\010EQ\025\"s=[\304\304FE\217z\027"
 349      477720E2 
 349      08455115 
 349      22733D5B 
 349      C4C44645 
 350 02be A37F6673 		.ascii	"\243\177fs\027\231\010$\305\354\264\320\354\305vS+\005"
 350      17990824 
 350      C5ECB4D0 
 350      ECC57653 
 350      2B05
 351 02d0 97446243 		.ascii	"\227DbC.\357\301\246d\262qT\220\221\214I\214\377<\223"
 351      2EEFC1A6 
 351      64B27154 
 351      90918C49 
 351      8CFF3C93 
 352 02e4 904B7BB9 		.ascii	"\220K{\2711\362\201\316rp\014\225\220`\012\370\020K"
 352      31F281CE 
 352      72700C95 
 352      90600AF8 
ARM GAS  C:\Users\AMANRA~1\AppData\Local\Temp\ccy7qQxb.s 			page 28


 352      104B
 353 02f6 57172287 		.ascii	"W\027\"\207x\214\213B\004\202MmW\273\031?=\304\262\310"
 353      788C8B42 
 353      04824D6D 
 353      57BB193F 
 353      3DC4B2C8 
 354 030a 9DDC2EDF 		.ascii	"\235\334.\337\271\333d5\350\">22r\245\323!/A_\006\372"
 354      B9DB6435 
 354      E8223E32 
 354      3272A5D3 
 354      212F415F 
 355 0320 15A54751 		.ascii	"\025\245GQ\354#<\305\306\221\301|\003\213\003\015<\277"
 355      EC233CC5 
 355      C691C17C 
 355      038B030D 
 355      3CBF
 356 0332 D0E53080 		.ascii	"\320\3450\200\030>64\363;aR\011\2441~\036\033\333BP"
 356      183E3634 
 356      F33B6152 
 356      09A4317E 
 356      1E1BDB42 
 357 0347 2663A817 		.ascii	"&c\250\02710\335\325y=\236)\363\217C/.\313\334\274F"
 357      3130DDD5 
 357      793D9E29 
 357      F38F432F 
 357      2ECBDCBC 
 358 035c 505F13A1 		.ascii	"P_\023\241\024\027Tj\335|9\203\314\302\355\200\0234"
 358      1417546A 
 358      DD7C3983 
 358      CCC2ED80 
 358      1334
 359 036e 623ACB15 		.ascii	"b:\313\0254\327\313;\274\271\274\361\033\321\276\225"
 359      34D7CB3B 
 359      BCB9BCF1 
 359      1BD1BE95 
 360 037e B299A86C 		.ascii	"\262\231\250l\223\253%\226\3114\234fj]\367C\212\277"
 360      93AB2596 
 360      C9349C66 
 360      6A5DF743 
 360      8ABF
 361 0390 9C07F82D 		.ascii	"\234\007\370-\267e\255\311\342;\312\342\011\232\327"
 361      B765ADC9 
 361      E23BCAE2 
 361      099AD7
 362 039f FFA48A2B 		.ascii	"\377\244\212+\201\033\202\314\226i\233\354~%\31487\300"
 362      811B82CC 
 362      96699BEC 
 362      7E25CC38 
 362      37C0
 363 03b1 A9F5FF99 		.ascii	"\251\365\377\231i\002\234\341\251\317\254\222\377R\307"
 363      69029CE1 
 363      A9CFAC92 
 363      FF52C7
 364 03c0 4CBF3DAD 		.ascii	"L\277=\255\354I\241\354Y\241\354L\031\317\0312v\211"
 364      EC49A1EC 
 364      59A1EC4C 
 364      19CF1932 
ARM GAS  C:\Users\AMANRA~1\AppData\Local\Temp\ccy7qQxb.s 			page 29


 364      7689
 365 03d2 DC017E22 		.ascii	"\334\001~\"E\267\246v\010\011\363\3538u9\351$\367\242"
 365      45B7A676 
 365      0809F3EB 
 365      387539E9 
 365      24F7A2
 366 03e5 9212856E 		.ascii	"\222\022\205nw\215\247\312\343SK_/\335\245\370T\245"
 366      778DA7CA 
 366      E3534B5F 
 366      2FDDA5F8 
 366      54A5
 367 03f7 66DF0145 		.ascii	"f\337\001E\365\273\371\273\362\220ZU\342\006\231^\265"
 367      F5BBF9BB 
 367      F2905A55 
 367      E206995E 
 367      B5
 368 0408 E829FE4F 		.ascii	"\350)\376Ow\237J\017\177\235x\227\324\300\306\216d\367"
 368      779F4A0F 
 368      7F9D7897 
 368      D4C0C68E 
 368      64F7
 369 041a 1C741F38 		.ascii	"\034t\0378\364n5Y\324#*9Z\252\366\251\325o\371=\257"
 369      F46E3559 
 369      D4232A39 
 369      5AAAF6A9 
 369      D56FF93D 
 370 042f 6E18E0F6 		.ascii	"n\030\340\366y\275\276\203J\255\317_\247*o\356-/+?L"
 370      79BDBE83 
 370      4AADCF5F 
 370      A72A6FEE 
 370      2D2F2B3F 
 371 0444 2E6E9FBF 		.ascii	".n\237\277\272\362\375\327\274\024^\266YX\365\341:\036"
 371      BAF2FDD7 
 371      BC145EB6 
 371      5958F5E1 
 371      3A1E
 372 0456 A4949557 		.ascii	"\244\224\225W\354\251P\312(J\331\223>\336\253z\324\312"
 372      ECA950CA 
 372      284AD993 
 372      3EDEAB7A 
 372      D4CA
 373 0468 FD6E3761 		.ascii	"\375n7a\344\226W\354uq\032\265~\317NW\341.\220\374`"
 373      E49657EC 
 373      75711AB5 
 373      7ECF4E57 
 373      E12E90FC 
 374 047d F1567B7D 		.ascii	"\361V{}\376#\360\017\024Hm\372"
 374      FE23F00F 
 374      14486DFA 
 375              		.text
 376              		.section	.gnu.lto_usbInitEndpointI.c3bfe3c9,"",%progbits
 377 0000 789C9552 		.ascii	"x\234\225RQK\024Q\030\275g\356\235\331U\327\325z\251"
 377      514B1451 
 377      18BD67EE 
 377      9DD955D7 
 377      D57AA9
 378 0013 87250C84 		.ascii	"\207%\014\204eE\034\267\"\350G\364\326S/\222\213\240"
ARM GAS  C:\Users\AMANRA~1\AppData\Local\Temp\ccy7qQxb.s 			page 30


 378      65451CB7 
 378      22E847F4 
 378      D6532F92 
 378      8BA0
 379 0025 10B8B9F4 		.ascii	"\020\270\271\364\274\343\226\256\242\220Dn\260\2142"
 379      BCE396AE 
 379      A290446E 
 379      B08C32
 380 0034 44D99398 		.ascii	"D\331\223\230\264e\253\226\323j\246\231\205\342\203"
 380      B465AB96 
 380      D36AA699 
 380      85E283
 381 0043 2018B614 		.ascii	" \030\266\024\032\226\232A/e}wv-3\011\272\314\314\275"
 381      1A969A41 
 381      2F657D77 
 381      762D3309 
 381      BACCCCBD 
 382 0057 F7BBF79C 		.ascii	"\367\273\367\234\363\235\357\033\21516\306\031;M\363"
 382      F39DEF1B 
 382      8D3136C6 
 382      193B4DF3 
 383 0067 597AE162 		.ascii	"Yz\341bP\272^1\326\354V\024\236\0150\243P\364\2273\303"
 383      50BA5E31 
 383      D6EC5614 
 383      9E0D30A3 
 383      50F49733 
 384 007c C3217261 		.ascii	"\303!ra\241\250\233\225\024\326\254\343\024V\241\345"
 384      A1A89B95 
 384      14D6ACE3 
 384      1456A1E5 
 385 008c C21A2017 		.ascii	"\302\032 \027\206\033,\252p\241j\210\242\223\337\340"
 385      861B2CAA 
 385      70A16A88 
 385      A293DFE0 
 386 009c C8C4DFA7 		.ascii	"\310\304\337\247\225\300]\203\206}s\371H\253\321r\324"
 386      95C05D83 
 386      867D73F9 
 386      48ABD172 
 386      D4
 387 00ad 24C104BD 		.ascii	"$\301\004\275r\340>\002tk\356\352=\223wp\223\003\202"
 387      72E03E02 
 387      746BEEEA 
 387      3D937770 
 387      930382
 388 00c0 B65BB3C9 		.ascii	"\266[\263\311\254Wn\025\224\321vmnp\241\204W\200\321"
 388      AC576E15 
 388      94D1766D 
 388      6E70A184 
 388      5780D1
 389 00d3 7A75A5F7 		.ascii	"zu\245\367\234\377\216a\304\014{\34167\312M\316\361"
 389      9CFF8E61 
 389      C40C7BE1 
 389      3637CA4D 
 389      CEF1
 390 00e5 109CF8F0 		.ascii	"\020\234\370\360\000>\244\340c\024b\030\202\237n\257"
 390      003EA4E0 
 390      63146218 
ARM GAS  C:\Users\AMANRA~1\AppData\Local\Temp\ccy7qQxb.s 			page 31


 390      829F6EAF 
 391 00f5 C4FBBE79 		.ascii	"\304\373\276y\271\356 \337\264\335\332(\316C'Z\271\341"
 391      B9EE20DF 
 391      B4DDDA28 
 391      CE43275A 
 391      B9E1
 392 0107 31B9C0A3 		.ascii	"1\271\300\243\034\364\244\017\325\022(\030\322\016p"
 392      1CF4A40F 
 392      D5122818 
 392      D20E70
 393 0116 2666CD0B 		.ascii	"&f\315\013~\302\001Nm\367\256\272\362\300LM\322\260"
 393      7EC2014E 
 393      6DF7AEBA 
 393      F2C04C4D 
 393      D2B0
 394 0128 85C9550C 		.ascii	"\205\311U\014\357\027U\031F\340\227\200\267\203;\335"
 394      EF175519 
 394      46E09780 
 394      B7833BDD 
 395 0138 C59AB076 		.ascii	"\305\232\260v}b\024\032\003-\006\346U\333\330\371\021"
 395      7D62141A 
 395      032D06E6 
 395      55DBD8F9 
 395      11
 396 0149 37EC2F7D 		.ascii	"7\354/}\0309\357\005\244\234 \260\246\322\307\245\321"
 396      1839EF05 
 396      A49C20B0 
 396      A6D2C7A5 
 396      D1
 397 015a C7ED864C 		.ascii	"\307\355\206L\276\000\016\033k#\002\252\254a\263v\256"
 397      BE000E1B 
 397      6B2302AA 
 397      AC61B376 
 397      AE
 398 016b C8D5159B 		.ascii	"\310\325\025\233}@\354s\274g\356\222\344Mr\221\344\220"
 398      7D40EC73 
 398      BC67EE92 
 398      E44D7291 
 398      E490
 399 017d A1E47440 		.ascii	"\241\344t@\006H?\321\222y\355\222\345\343N\376\243\231"
 399      06483FD1 
 399      9279ED92 
 399      E5E34EFE 
 399      A399
 400 018f D949CD42 		.ascii	"\331I\315Bo3\365\300:f\362\202$w\3431\345,\017\027\342"
 400      6F33F5C0 
 400      3A66F282 
 400      2477E331 
 400      E52C0F17 
 401 01a4 8BCB457A 		.ascii	"\213\313Ez\277\354O\231\311\013\361\004\026\272\235"
 401      BFEC4F99 
 401      C90BF104 
 401      16BA9D
 402 01b3 E6D0E1E4 		.ascii	"\346\320\341\344\306\312\214\010\016\310C\253I\232\036"
 402      C6CA8C08 
 402      0EC843AB 
 402      499A1E
ARM GAS  C:\Users\AMANRA~1\AppData\Local\Temp\ccy7qQxb.s 			page 32


 403 01c2 834E824E 		.ascii	"\203N\202N\343l\004\223\274@\012\017\257u~\324r\271"
 403      E36C0493 
 403      BC400A0F 
 403      AF757ED4 
 403      72B9
 404 01d4 A87BD5D5 		.ascii	"\250{\325\325\277\324I\241\210@x\232\027\337\352\270"
 404      BFD449A1 
 404      8840789A 
 404      17DFEAB8 
 405 01e4 BE0812EF 		.ascii	"\276\010\022\357r\216<\3108\342\262R\030\207\316\336"
 405      728E3CC8 
 405      38E2B252 
 405      1887CEDE 
 406 01f4 E1EAD2F8 		.ascii	"\341\352\322\370\251\003\230=`\230\220\0344\332\251"
 406      A903983D 
 406      6098901C 
 406      34DAA9
 407 0203 DBD90055 		.ascii	"\333\331\000Ue\035\255\326PJu\212M\227\323\351\365%"
 407      651DADD6 
 407      504A758A 
 407      4D97D3E9 
 407      F525
 408 0215 57F4BBE1 		.ascii	"W\364\273\3416yqBr\342\031\242\214\210P\341\243\343"
 408      36797142 
 408      72E219A2 
 408      8C8850E1 
 408      A3E3
 409 0227 F9CD973D 		.ascii	"\371\315\227=E\222\313\213RL\302g\362\022\207L\374\256"
 409      4592CB8B 
 409      524CC267 
 409      F212874C 
 409      FCAE
 410 0239 F1F0DAB5 		.ascii	"\361\360\332\265]_\332\177\031)\305s\307\210\"\215L"
 410      5D5FDA7F 
 410      1929C573 
 410      C788228D 
 410      4C
 411 024a ED33F247 		.ascii	"\3553\362G\203J\311\310\364/#*\333\254\314\033\311\376"
 411      834AC9C8 
 411      F42F232A 
 411      DBACCC1B 
 411      C9FE
 412 025c CBC80BC7 		.ascii	"\313\310\013\307\210FF\366f\256\3453_G\213\265\235\342"
 412      884646F6 
 412      66AEE533 
 412      5F478BB5 
 412      9DE2
 413 026e 07C00F25 		.ascii	"\007\300\017%dJ\230q\340n\372mL~\230}B\314\372\232\202"
 413      644A9871 
 413      E06EFA6D 
 413      4C7E987D 
 413      42CCFA9A 
 414 0283 735D8E36 		.ascii	"s]\2166\222 \"\272\350\257\252\322\351\011\3257\324"
 414      922022BA 
 414      E8AFAAD2 
 414      E909D537 
 414      D4
ARM GAS  C:\Users\AMANRA~1\AppData\Local\Temp\ccy7qQxb.s 			page 33


 415 0294 36344682 		.ascii	"64F\202g\202\325zcD\257\277pQ\2174\205\344\\s9R[\025"
 415      6782D57A 
 415      6344AFBF 
 415      70518F34 
 415      85E45C73 
 416 02ac 6282A6B0 		.ascii	"b\202\246\260R\027\026u\341P\370'\2025Fh"
 416      52171675 
 416      E150F827 
 416      82354668 
 417              		.text
 418              		.section	.gnu.lto_usbDisableEndpointsI.c3bfe3c9,"",%progbits
 419 0000 789C9D53 		.ascii	"x\234\235S\335KTA\024\237s\317\334\335\353\352\332\203"
 419      DD4B5441 
 419      149F73CF 
 419      DCDDEBEA 
 419      DA83
 420 0012 10223EF8 		.ascii	"\020\">\370\220\210A^\3671\377\215z\217\024B)0Zz\351"
 420      9088415E 
 420      F731FF8D 
 420      7A8F1442 
 420      29305A7A 
 421 0027 65475777 		.ascii	"eGWw\265\017\350!7\220\213\334(\021\037Be\325m\315\354"
 421      B50FE821 
 421      37908BDC 
 421      28111F42 
 421      65D56DCD 
 422 003c BA6E7EAD 		.ascii	"\272n~\255\233)\022E!X$ZR\024\213/\225uf\006\261\302"
 422      9B291245 
 422      2158245A 
 422      52148B2F 
 422      95756606 
 423 0052 0769B877 		.ascii	"\007i\270w>\316\234\371\375~\347\234\031\037c\354;2"
 423      3ECE9CF9 
 423      FD7EE79C 
 423      191F63EC 
 423      3B32
 424 0064 564FE319 		.ascii	"VO\343\031\372\301\307\300\270\375\234\2616\313\000"
 424      FAC1C7C0 
 424      B8FD9CB1 
 424      36CB00
 425 0073 AE27A827 		.ascii	"\256'\250'\323\0267p\251\201\211\200\231-c\242\304\004"
 425      D3163770 
 425      A9818980 
 425      992D63A2 
 425      C404
 426 0085 90666101 		.ascii	"\220fa\001\213\030\310M\210\030\234\201\307\001\017"
 426      8B18C84D 
 426      88189C81 
 426      C7010F
 427 0094 3A426437 		.ascii	":Bd7\361\016B&\276\2316j\007\0045\357n\241\"&:\313\035"
 427      F10E4226 
 427      BE99366A 
 427      070435EF 
 427      6EA12226 
 428 00ab DA4D280F 		.ascii	"\332M(\017\242MB-y\255t\014;x\003\035\004\340\264\374"
 428      A24D422D 
 428      79AD740C 
ARM GAS  C:\Users\AMANRA~1\AppData\Local\Temp\ccy7qQxb.s 			page 34


 428      3B78031D 
 428      04E0B4FC 
 429 00bf 9AEF7D5F 		.ascii	"\232\357}_*\227\006T\321r{ed\355\030\236\004F\363\255"
 429      2A970654 
 429      D1727B65 
 429      64ED189E 
 429      0446F3AD 
 430 00d3 8DBEB335 		.ascii	"\215\276\2635\375B\264\013\257\360\000\305\011\007\021"
 430      FD42B40B 
 430      AFF000C5 
 430      090711
 431 00e2 C601090F 		.ascii	"\306\001\011\017\306\240\022F\241\222\221\211A\012j"
 431      C6A01246 
 431      A1929189 
 431      410A6A
 432 00f1 A47B7F6E 		.ascii	"\244{\177nf\252\024mu\364\326\213D\322\254\276\257\316"
 432      66AA146D 
 432      75F4D68B 
 432      44D2ACBE 
 432      AFCE
 433 0103 AE7F2ABF 		.ascii	"\256\177*\277\027\025\363\202;\310\341\321\337\347e"
 433      1715F382 
 433      3BC8E1D1 
 433      DFE765
 434 0112 23F77723 		.ascii	"#\367w#{=A\037\2074T\273\373\212aB\346\211Fi\035Z5="
 434      7B3D411F 
 434      873454BB 
 434      FB8A6142 
 434      E6894669 
 435 012a B1F72B2E 		.ascii	"\261\367+.\274\227\027\337\026v\217\227\002\223f\203"
 435      BC9717DF 
 435      16768F97 
 435      02936683 
 436 013a 0498283B 		.ascii	"\004\230(;.;Sv\026HAA\265\317X\027Ae\313\204\307\272"
 436      2E3B5376 
 436      16484141 
 436      B5CF5817 
 436      4165CB84 
 437 0150 D1A049D4 		.ascii	"\321\240I\324c\037\241}b{!_,\361{\321 \366Dgf\331/S"
 437      631FA17D 
 437      627B215F 
 437      2CF17BD1 
 437      20F64467 
 438 0168 804AFB64 		.ascii	"\200J\373d&?\353s\241\257\215\362X\345 9Y\360Xj\245"
 438      263FEB73 
 438      A1AF8DF2 
 438      58E52039 
 438      59F0586A 
 439 017d BDB5F8AB 		.ascii	"\275\265\370\253\365b\373\224\203~\230\004\027zTj\341"
 439      F562FB94 
 439      837E9804 
 439      177A546A 
 439      E1
 440 018e 09D8041B 		.ascii	"\011\330\004\033\375\021\003\015\212\032w,\2764\022"
 440      FD11030D 
 440      8A1A772C 
 440      BE3412
ARM GAS  C:\Users\AMANRA~1\AppData\Local\Temp\ccy7qQxb.s 			page 35


 441 019d 90B87E00 		.ascii	"\220\270~\000\230\"\004\242^\273\256|\216N\363\364\200"
 441      982204A2 
 441      5EBBAE7C 
 441      8E4EF3F4 
 441      80
 442 01ae C6039BB0 		.ascii	"\306\003\233\260U\000\203\213AM\305\217\2164\255\220"
 442      5500838B 
 442      414DC58F 
 442      8E34AD90 
 443 01be 402265FE 		.ascii	"@\"e\376\021l\022\320\177+\2349\300\315J\205&\333\204"
 443      116C12D0 
 443      7F2B9C39 
 443      C0CD4A85 
 443      26DB84
 444 01d1 7637395E 		.ascii	"v79^!ad\025\310}4;\027\263d*8\245\342\231*|7\205\262"
 444      21616415 
 444      C87D343B 
 444      17B3642A 
 444      38A5E299 
 445 01ea D4A00B52 		.ascii	"\324\240\013R\330\332\312\007\016au/\260Cy\037\012-"
 445      D8DACA07 
 445      0E61752F 
 445      B043791F 
 445      0A2D
 446 01fc C9825945 		.ascii	"\311\202YEn\350k4\373e#\307CCr\323\275\346`\021\314"
 446      6EE86B34 
 446      FB6523C7 
 446      434372D3 
 446      BDE66011 
 447 0211 493DA092 		.ascii	"I=\240\2227\017\241?K]D\027hA\005\034M\304\362\257\007"
 447      370FA13F 
 447      4B5D4417 
 447      6841051C 
 447      4DC4F2AF 
 448 0226 51272248 		.ascii	"Q'\"H\356J\037\205P\265\257\237\314J/g\364\026I\360"
 448      EE4A1F85 
 448      50B5AF9F 
 448      CC4A2F67 
 448      F41649F0 
 449 023a 26184CDB 		.ascii	"&\030L\333\201}\200\216\345\231J}\030\344\033\3746<"
 449      817D808E 
 449      E5994A7D 
 449      18E41BFC 
 449      363C
 450 024c 50A20345 		.ascii	"P\242\003EX\3247|W\307l\254J\002\\\255 (S\337\305\035"
 450      58D4377C 
 450      57C76CAC 
 450      4A025CAD 
 450      202853DF 
 451 0262 E8709329 		.ascii	"\350p\223)\305-\365\247\323;o\374\221\237\302r0\220"
 451      C52DF5A7 
 451      D33B6FFC 
 451      919FC272 
 451      3090
 452 0274 90BA2107 		.ascii	"\220\272!\007\021F\341;X\314>SRS)U\033\365l\272\310"
 452      1146E13B 
 452      58CC3E53 
ARM GAS  C:\Users\AMANRA~1\AppData\Local\Temp\ccy7qQxb.s 			page 36


 452      52532955 
 452      1BF56CBA 
 453 0289 215B4691 		.ascii	"![F\221\327\324\325\331\36455\2674\266\264\206C\247"
 453      D7D4D5D9 
 453      F43535B7 
 453      34B6B486 
 453      43A7
 454 029b 43F5766B 		.ascii	"C\365vk\330n>\177\311\016_i\222\343\271\253\341\306"
 454      D86E3E7F 
 454      C90E5F69 
 454      92E3B9AB 
 454      E1C6
 455 02ad BA26C669 		.ascii	"\272&\306i\270\014-\277\001\323\006Pa"
 455      B80C2DBF 
 455      01D30650 
 455      61
 456              		.text
 457              		.section	.gnu.lto_default_handler.c3bfe3c9,"",%progbits
 458 0000 789CA55A 		.ascii	"x\234\245ZyP\224I\226\377\336\227EUQ\305}\310a\201\234"
 458      79509449 
 458      96FFDE97 
 458      455551C5 
 458      7DC86181 
 459 0015 02768FE0 		.ascii	"\002v\217\340\314\356L\354\316\306\366L\033\0331\363"
 459      CCEE4CEC 
 459      CEC6F64C 
 459      1B1B31F3 
 460 0025 47476C4C 		.ascii	"GGlL\357\337\3331M\033\253\033\355\350\200\335;\316"
 460      EFDFDB31 
 460      4D1BAB1B 
 460      EDE880DD 
 460      3BCE
 461 0037 6CAC2520 		.ascii	"l\254% x\34016\202\322\200\250\215g+^\255r\010x#\036"
 461      78E03136 
 461      82D280A8 
 461      8D672B5E 
 461      AD720878 
 462 004d DD2AB608 		.ascii	"\335*\266\010^x\002\212\212x\242\310\276\227\371]\305"
 462      5E78028A 
 462      8A78A2C8 
 462      BE97F95D 
 462      C5
 463 005e 65536518 		.ascii	"eSe\030Y\371e\346;\276\367~\357\345\313\3740K\222\024"
 463      59F965E6 
 463      3BBEF77E 
 463      EFE5CBFC 
 463      304B9214 
 464 0072 3D599292 		.ascii	"=Y\222\222@\222\376M\226$\230$\201\274\342\254$\315"
 464      4092FE4D 
 464      96249824 
 464      81BCE2AC 
 464      24CD
 465 0084 B7CA3E29 		.ascii	"\267\312>)\207\314\222\323\312x\033\312\333q\2745\361"
 465      87CC92D3 
 465      CA781BCA 
 465      DB71BC35 
 465      F1
ARM GAS  C:\Users\AMANRA~1\AppData\Local\Temp\ccy7qQxb.s 			page 37


 466 0095 368AB766 		.ascii	"6\212\267f\336\306\363\326\312[;o}y\353'8@\212`i\222"
 466      DEC6F3D6 
 466      CA5B3B6F 
 466      7D79EB27 
 466      38408A60 
 467 00ab BD1A2325 		.ascii	"\275\032#%\247-\245\361\027\222\323\307K\0356\313\026"
 467      A72DA5F1 
 467      1792D3C7 
 467      4B1D36CB 
 467      16
 468 00bc C3B0451D 		.ascii	"\303\260E\035\266\312\336/\002q\330\266\346_p\330\033"
 468      B6CADE2F 
 468      0271D8B6 
 468      E65F70D8 
 468      1B
 469 00cd 6C62D8A6 		.ascii	"lb\330\246\316\333\345\224\003a8\357\323\362K\234\367"
 469      CEDBE594 
 469      036138EF 
 469      D3F24B9C 
 469      F7
 470 00de 51877DD5 		.ascii	"Q\207}\325\216\237\354\337\341\217\363\201\233\377\025"
 470      8E9FECDF 
 470      E18FF381 
 470      9BFF15
 471 00ed E7FDE580 		.ascii	"\347\375\345\200\234\223\022=\346{\341c\000\004\212"
 471      9C93123D 
 471      E67BE163 
 471      00048A
 472 00fc 558172D0 		.ascii	"U\201r\320\352I8\034\3622\036\207\203\344\340\353|U"
 472      EA49381C 
 472      F2321E87 
 472      83E4E0EB 
 472      7C55
 473 010e C82E133E 		.ascii	"\310.\023>\006C\210X\025\2422\015U;\343\344\260\025"
 473      06438858 
 473      15A2320D 
 473      553BE3E4 
 473      B015
 474 0120 0E5C18E9 		.ascii	"\016\\\030\351\3749.\014c)\013\360\025\254\341\274\215"
 474      FC392E0C 
 474      63290BF0 
 474      15ACE1BC 
 474      8D
 475 0131 107D7569 		.ascii	"\020}ui\204\332\211TV\215\347\255C\364\325I\207\332"
 475      84DA8954 
 475      568DE7AD 
 475      43F4D549 
 475      87DA
 476 0143 89925348 		.ascii	"\211\222SH\027[4\351\345\023-O\340\372\305q\375&\310"
 476      175B34E9 
 476      E5132D4F 
 476      E0FAC571 
 476      FD26C8
 477 0156 315C6A2C 		.ascii	"1\\j,\227\032\003q\202$V\355\304\251L\342\025&\011\234"
 477      971A0371 
 477      822456ED 
 477      C4A94CE2 
ARM GAS  C:\Users\AMANRA~1\AppData\Local\Temp\ccy7qQxb.s 			page 38


 477      1526099C 
 478 016a 49829CB8 		.ascii	"I\202\234\2700\011\237\222\251\365I\224'r&I\234\311"
 478      30099F92 
 478      A9F54994 
 478      27722649 
 478      9CC9
 479 017c 44481624 		.ascii	"DH\026$Ij'Ye\222\002@\035\247\025\244y23y\231-Vo\233"
 479      496A2759 
 479      65920240 
 479      1DA715A4 
 479      79323379 
 480 0195 DDC7D7CF 		.ascii	"\335\307\327\317? 0(8$t\\XxD\344xGT\364\204\230\330"
 480      3F203028 
 480      3824745C 
 480      587844E4 
 480      784754F4 
 481 01ac B8F884C4 		.ascii	"\270\370\204\304\211I\311)0\017\362Y\001\203U\213j."
 481      8949C929 
 481      300FF259 
 481      0183558B 
 481      6A2E
 482 01be F9A66C72 		.ascii	"\371\246lr:\263\234\015E-\346\322\235?8Y\011\223\244"
 482      3AB39C0D 
 482      452DE6D2 
 482      9D3F3859 
 482      0993A4
 483 01d1 4226C12F 		.ascii	"B&\301/\034\220\346@\344\301\036H\301\245\347rv\226"
 483      1C90E640 
 483      E4C11E48 
 483      C1A5E772 
 483      7696
 484 01e3 B025380B 		.ascii	"\260%8\013`\302\307\2363\305\267\374\350Q\206\030|\354"
 484      60C2C79E 
 484      33C5B7FC 
 484      E8518618 
 484      7CEC
 485 01f5 3CB7ABD9 		.ascii	"<\267\253\331\237M\002\011\373\035\355e\377\221T\301"
 485      9F4D0209 
 485      FB1DED65 
 485      FF9154C1 
 486 0205 791EAD60 		.ascii	"y\036\255`\316\204\022\306`\0370\342\371\0358`/8$\034"
 486      CE8412C6 
 486      601F30E2 
 486      F91D3860 
 486      2F38241C 
 487 0219 92603F24 		.ascii	"\222`?$\321\362\262G\253\256\370\262TNZ\323\273\364"
 487      D1F2B247 
 487      ABAEF8B2 
 487      544E5AD3 
 487      BBF4
 488 022b A9397103 		.ascii	"\2519q\003\247}X\034\260!\333\331\3504\2250\023\034"
 488      A77D581C 
 488      B021DBD9 
 488      E8349530 
 488      131C
 489 023d 70A5A77F 		.ascii	"p\245\247\177\270\374\346\256\267\253|\315&\250\202"
 489      B8FCE6AE 
ARM GAS  C:\Users\AMANRA~1\AppData\Local\Temp\ccy7qQxb.s 			page 39


 489      B7AB7CCD 
 489      26A882
 490 024c 44521975 		.ascii	"DR\031u\255\006\263\204Q\"\323\020.86\360\242\301_("
 490      AD06B384 
 490      5122D310 
 490      2E3836F0 
 490      A2C15F28 
 491 0260 2DE3E3F9 		.ascii	"-\343\343\371\307\247K\355B\351\000|\254[\326\277\317"
 491      C7A74BED 
 491      42E9007C 
 491      AC5BD6BF 
 491      CF
 492 0271 CA7ECE25 		.ascii	"\312~\316%\037\311\335\372\304_\221|\3678[\343l\310"
 492      1FC9DDFA 
 492      C45F917C 
 492      F7385BE3 
 492      6CC8
 493 0283 8A29615E 		.ascii	"\212)a^pP\010\256E\3015\212`\250\203\304\312\363^\015"
 493      705008AE 
 493      45C1358A 
 493      60A883C4 
 493      CAF35E0D 
 494 0297 CEB70379 		.ascii	"\316\267\003y\2708\362\332\323\243!\177\005|'\263\214"
 494      B838F2DA 
 494      D3A3217F 
 494      057C27B3 
 494      8C
 495 02a8 8D8551CF 		.ascii	"\215\205Q\317D=/j\314\324X\260\261Zi\302\033\033o\033"
 495      443D2F6A 
 495      CCD458B0 
 495      B15A69C2 
 495      1B1B6F1B 
 496 02bc 35767AF4 		.ascii	"5vz\364\241\236/5~\324\370cc\013\300\306\036H\263A\324"
 496      A19E2F35 
 496      7ED4F863 
 496      630BC0C6 
 496      1E48B341 
 497 02d1 0463E313 		.ascii	"\004c\343\023\202\215o(6~\343\260\361\017\243u\341\330"
 497      828D6F28 
 497      367EE3B0 
 497      F10FA375 
 497      E1D8
 498 02e3 0444D092 		.ascii	"\004D\320\222Hz\034O\217dZs\0246\201\321\324\233\200"
 498      487A1C4F 
 498      8F645A73 
 498      143681D1 
 498      D49B80
 499 02f6 4D500CF5 		.ascii	"MP\014\365b\251\027G\275xj\022hI\"\365&R\223D\217\311"
 499      62A91747 
 499      BD786A12 
 499      684922F5 
 499      26529344 
 500 030c D8486940 		.ascii	"\330Hi@~\3715\015~@\315o\250\371P\"{\316\246\356\237"
 500      7EF9350D 
 500      7E40CD6F 
 500      A8F95022 
 500      7BCEA6EE 
ARM GAS  C:\Users\AMANRA~1\AppData\Local\Temp\ccy7qQxb.s 			page 40


 501 0321 B109CEA0 		.ascii	"\261\011\316\240&\023\233\2209\324|A\315\227\334.si"
 501      26139B90 
 501      39D47C41 
 501      CD97DC2E 
 501      7369
 502 0333 8D242D44 		.ascii	"\215$-Dg (\235\015\322\"&S/\273A\352\202\254\272\316"
 502      6720289D 
 502      0DD22226 
 502      532FBB41 
 502      EA82ACBA 
 503 0348 034782C8 		.ascii	"\003G\202\310G\305\014\320\346\205\013\016\177o!w0\356"
 503      47C50CD0 
 503      E6850B0E 
 503      7F6F2177 
 503      30EE
 504 035a 82DAC367 		.ascii	"\202\332\303g\216\233\313\241l\276\323\351,\177H\006"
 504      8E9BCBA1 
 504      6CBED3E9 
 504      2C7F4806 
 505 036a 0D2D6669 		.ascii	"\015-fiPOf\307\351\346\274\226k\366\324\3558\351D\317"
 505      504F66C7 
 505      E9E6BC96 
 505      6BF6D4ED 
 505      38E944CF 
 506 037e 8C830628 		.ascii	"\214\203\006(\207ULA\302\205\302g-\346)\2254Y\276U."
 506      87554C41 
 506      C285C267 
 506      2DE62995 
 506      3459BE55 
 507 0393 61617008 		.ascii	"aap\010Ra\022w\030\034\206)(=\373\215Y*f\277\026\242"
 507      52611277 
 507      181C8629 
 507      283DFB8D 
 507      592A66BF 
 508 03a9 B76EB851 		.ascii	"\267n\270Q\346M\242\3150 \301\021\024\201\352=\311\353"
 508      E64DA2CD 
 508      3020C111 
 508      1481EA3D 
 508      C9EB
 509 03bb F416DAC9 		.ascii	"\364\026\332\311\270P(\\\255*\314\306\256\341\321\321"
 509      B850285C 
 509      AD2ACCC6 
 509      AEE1D1D1 
 510 03cb 353C861A 		.ascii	"5<\206\032\276'4<\3165D\005.3!\315\204\002I\347\307"
 510      BE27343C 
 510      CE354405 
 510      2E3321CD 
 510      840249E7 
 511 03e0 B9AA4A5E 		.ascii	"\271\252J^8\210l\212k\2366y\221\342\276`\205\023\\\357"
 511      38886C8A 
 511      6B9E3679 
 511      91E2BE60 
 511      85135CEF 
 512 03f4 EC97B9A5 		.ascii	"\354\227\271\245\373\337(\204By/\251\023\312\234{\257"
 512      FBDF2884 
 512      42792FA9 
 512      13CA9C7B 
ARM GAS  C:\Users\AMANRA~1\AppData\Local\Temp\ccy7qQxb.s 			page 41


 512      AF
 513 0405 4C510691 		.ascii	"LQ\006\221p\373\205\265\017a%\254\230\237\203\012\274"
 513      70FB85B5 
 513      0F6125AC 
 513      989F830A 
 513      BC
 514 0416 9A50C2C2 		.ascii	"\232P\302\302%\251\210+\007\2158\216+*\037T\275\362"
 514      25A9882B 
 514      078D388E 
 514      2B2A1F54 
 514      BDF2
 515 0428 25D616EE 		.ascii	"%\326\026\356\216\213+w\325\371\252\004\335\276H\000"
 515      8E8B2B77 
 515      D5F9AA04 
 515      DDBE4800 
 516 0438 27515E11 		.ascii	"'Q^\021:\013i\232\004\315\336\243'r\255\202\206\036"
 516      3A0B699A 
 516      04CDDEA3 
 516      2772AD82 
 516      861E
 517 044a 8F67BF39 		.ascii	"\217g\2779g\327h\306\021\315)N#\023\315iA\243\005\245"
 517      67D768C6 
 517      11CD294E 
 517      2313CD69 
 517      41A305A5 
 518 045e 8507E5E5 		.ascii	"\205\007\345\345\316\216N\223J\263=\214h\316p\032\036"
 518      CE8E4E93 
 518      4AB33D8C 
 518      68CE701A 
 518      1E
 519 046f D06705CD 		.ascii	"\320g\005\315\216\216\372\022\233\240q\022\321\352#"
 519      8E8EFA12 
 519      9BA07112 
 519      D1EA23
 520 047e B7F77BA9 		.ascii	"\267\367{\251D\375\\\271\3579\221\211\210~\020D\265"
 520      44FD5CB9 
 520      EF399189 
 520      887E1044 
 520      B5
 521 048f C7B6E59B 		.ascii	"\307\266\345\233\005Q\026\021\275\274\260\332\251I:"
 521      05511611 
 521      BDBCB0DA 
 521      A9493A
 522 049e 184544E7 		.ascii	"\030ED\3478\221\027\021\235\027D\267+n\227{+\222\310"
 522      38911711 
 522      9D1744B7 
 522      2B6E977B 
 522      2B92C8
 523 04b1 6EA52F96 		.ascii	"n\245/\226\324\370\253D\355~Dt\201\023\231\211\250Y"
 523      D4F8AB44 
 523      ED7E4474 
 523      81139989 
 523      A859
 524 04c3 79A59A9D 		.ascii	"y\245\232\235\215\212\031\262\210\350\302\374\257^k"
 524      8D8A19B2 
 524      88E8C2FC 
 524      AF5E6B
ARM GAS  C:\Users\AMANRA~1\AppData\Local\Temp\ccy7qQxb.s 			page 42


 525 04d2 C63E184D 		.ascii	"\306>\030MD\0279\221\205\210~\024Do\352;W\372(\222l"
 525      44173991 
 525      85887E14 
 525      446FEA3B 
 525      57FA2892 
 526 04e7 F89CDBD1 		.ascii	"\370\234\333\321\031\245\322T\370\023\315%Nc%\232\026"
 526      19A5D254 
 526      F813CD25 
 526      4E63259A 
 526      16
 527 04f8 41D3F7A8 		.ascii	"A\323\367\250\277\321O\320\314\367\301\347\023\017~"
 527      BFD14FD0 
 527      CCF7C1E7 
 527      130F7E
 528 0507 3C695178 		.ascii	"<iQx\320\363\332\365\005\315\232\003\3729\223VL]\227"
 528      D0F3DAF5 
 528      05CD9A03 
 528      FA399356 
 528      4C5D97
 529 051a C151C4BC 		.ascii	"\301Q\304\274\211O\233\340\323}\372\316z\223BG\2510"
 529      894F9BE0 
 529      D37DFACE 
 529      7A934247 
 529      A930
 530 052c A7B670A9 		.ascii	"\247\266p\251U\245\353\011!\272+\\\270\215\210\256\012"
 530      55A5EB09 
 530      21BA2B5C 
 530      B88D88AE 
 530      0A
 531 053d A24DABCE 		.ascii	"\242M\253\316\236R\211\202\210I\376\371r?\225h](\021"
 531      9E528982 
 531      8849FEF9 
 531      723F9568 
 531      5D2811
 532 0550 5DE34476 		.ascii	"]\343Dv\"\272.\210\232:s\3270\3054\341\370|\370\346"
 532      22BA2E88 
 532      9A3A73D7 
 532      30C534E1 
 532      F87CF8E6 
 533 0564 B21A6F4D 		.ascii	"\262\032oM\022\207\310\015\035\"\355H\204\277\213\320"
 533      1287C80D 
 533      1D22ED48 
 533      84BF8BD0 
 534 0574 F987CC98 		.ascii	"\371\207\314\2304:`>b\217PL\270\303\020\351\313\273"
 534      343A603E 
 534      628F504C 
 534      B8C310E9 
 534      CBBB
 535 0586 BA3F44A0 		.ascii	"\272?D\240\3322(\"cF\015G/\270\311\303\021D8n;\323u"
 535      DA322822 
 535      63460D47 
 535      2FB8C9C3 
 535      1144386E 
 536 059d CD3CAF5F 		.ascii	"\315<\257_\231\264\302-HE\361\267a\036\011i^\014$bL"
 536      99B4C22D 
 536      4845F1B7 
 536      611E0969 
ARM GAS  C:\Users\AMANRA~1\AppData\Local\Temp\ccy7qQxb.s 			page 43


 536      5E0C2462 
 537 05b2 FCFDE00E 		.ascii	"\374\375\340\016\347\317_\343.\244\242~\304\352\251"
 537      E7CF5FE3 
 537      2EA4A27E 
 537      C4EAA9
 538 05c1 75CC9C22 		.ascii	"u\314\234\"\340\036\347\304\361\337\001\251D\2746\177"
 538      E01EE7C4 
 538      F1DF01A9 
 538      44BC367F 
 539 05d1 0B877F04 		.ascii	"\013\207\177\004\310\320)\262\225\033\234#\241\213s"
 539      C8D029B2 
 539      951B9C23 
 539      A18B73
 540 05e0 E641729F 		.ascii	"\346Ar\237s\326rp$H\360\200\357p\213p^3\376\300R&\254"
 540      73D67270 
 540      2448F080 
 540      EF708B70 
 540      5E33FEC0 
 541 05f7 6F12F9B0 		.ascii	"o\022\371\260)\333.\254o5Fr0\217d\227\364\370\345\273"
 541      29DB2EAC 
 541      6F354672 
 541      308F6497 
 541      F4F8E5BB 
 542 060b B2E34363 		.ascii	"\262\343Ccv|S\275\357\274M\311\216\273\201\262\343#"
 542      767C53BD 
 542      EFBC4DC9 
 542      8EBB81B2 
 542      E323
 543 061d CC8EDD62 		.ascii	"\314\216\335b\307\205\307\230\036\357@N\353\221\243"
 543      C785C798 
 543      1EEF404E 
 543      EB91A3
 544 062c A00BFF2E 		.ascii	"\240\013\377.\357\364.n\2230\000\350Q\366\346E\030\313"
 544      EFF42E6E 
 544      933000E8 
 544      51F6E645 
 544      18CB
 545 063e 5FCB62B7 		.ascii	"_\313b\267\251\356<\245*\353\375\223\314\3643B\311\023"
 545      A9EE3CA5 
 545      2AEBFD93 
 545      CCF43342 
 545      C913
 546 0650 0D25D08B 		.ascii	"\015%\320\213\230\240}#W\221j\023\214.-|\232\305\303"
 546      98A07D23 
 546      57916A13 
 546      8C2E2D7C 
 546      9AC5C3
 547 0663 C00BFA07 		.ascii	"\300\013\372\007\030<\025\356\030\013f\270\240g\272"
 547      183C15EE 
 547      180B66B8 
 547      A067BA
 548 0672 A0E70417 		.ascii	"\240\347\004\027\033wj\307\351[\356`\357\205\216\275"
 548      1B776AC7 
 548      E95BEE60 
 548      EF858EBD 
 549 0682 97AE7EF5 		.ascii	"\227\256~\365C\277\276r\0331\021\320\247c\361\265+\347"
 549      43BFBE72 
ARM GAS  C:\Users\AMANRA~1\AppData\Local\Temp\ccy7qQxb.s 			page 44


 549      1B3111D0 
 549      A763F1B5 
 549      2BE7
 550 0694 08E4FCC6 		.ascii	"\010\344\374\306\003,\366\353X|\213\316V\301g\326\301"
 550      032CF6EB 
 550      587C8BCE 
 550      56C167D6 
 550      C1
 551 06a5 776B9902 		.ascii	"wk\231\002>\263\000_\233\352O\373\230\32160:\332\234"
 551      3EB3005F 
 551      9BEA4FFB 
 551      98D13630 
 551      3ADA9C
 552 06b8 B28EB6F9 		.ascii	"\262\216\266\371\362 \264\331\015\360\262\030\340uE"
 552      F220B4D9 
 552      0DF0B218 
 552      E07545
 553 06c7 55C7E7A7 		.ascii	"U\307\347\247{=K\326\274\236-\247\212\335[\021\343+"
 553      7B3D4BD6 
 553      BC9E2DA7 
 553      8ADD5B11 
 553      E32B
 554 06d9 186941E5 		.ascii	"\030iA\345\215\261\236#\273\007\256\005\272\230\\\031"
 554      8DB19E23 
 554      BB07AE05 
 554      BA985C19 
 555 06e9 C1E52BC0 		.ascii	"\301\345+\300u\325-p\345\311\032\270\026\242\235<A\323"
 555      75D52D70 
 555      E5C91AB8 
 555      16A29D3C 
 555      41D3
 556 06fb 225943D3 		.ascii	"\"YC\323bd\345\011|\226\310\032|\362e\035>V\035>\233"
 556      6264E509 
 556      7C96C81A 
 556      7CF2651D 
 556      3E561D3E 
 557 0710 962BF0B1 		.ascii	"\226+\360\261\222\220\332\316\207\331\321\302\322~\310"
 557      9290DACE 
 557      87D9D1C2 
 557      D27EC8
 558 071f 6EDFF582 		.ascii	"n\337\365\202E>\342,Pn2\236\015\200\237\015n_\256.F"
 558      453EE22C 
 558      506E329E 
 558      0D809F0D 
 558      6E5FAE2E 
 559 0734 C89481A2 		.ascii	"\310\224\201\242\305d\241\304\253#=\305\376i;\024%\274"
 559      C564A1C4 
 559      AB233DC5 
 559      FE693B14 
 559      25BC
 560 0746 61392A01 		.ascii	"a9*\001\313d\007,EGI\260BNs\205\216\237q\237\367\306"
 560      CB64072C 
 560      454749B0 
 560      424E7385 
 560      8E9F719F 
 561 075c 7D1EFE2E 		.ascii	"}\036\376.\253P\362\226\352\0015}\0009\345\267\226["
 561      AB50F296 
ARM GAS  C:\Users\AMANRA~1\AppData\Local\Temp\ccy7qQxb.s 			page 45


 561      EA01357D 
 561      0039E5B7 
 561      965B
 562 076e F8D10557 		.ascii	"\370\321\005WWU=h\263\340\306d-a\343\013\311\203\260"
 562      57553D68 
 562      B3E0C664 
 562      2D61E30B 
 562      C983B0
 563 0781 529E8785 		.ascii	"R\236\207\205kZ\011\023/h\023/\310\375\331\267\301\035"
 563      6B5A0913 
 563      2F68132F 
 563      C8FDD9B7 
 563      C11D
 564 0793 7F7EA5FB 		.ascii	"\177~\245\373\263\300C\177\256\322\375Y\350\241?\213"
 564      B3C0437F 
 564      AED2FD59 
 564      E8A13F8B 
 565 07a3 747FAE36 		.ascii	"t\177\2566\370\323n\330\213T\177z\213\370[|\314\"\254"
 565      F8D36ED8 
 565      8B547F7A 
 565      8BF85B7C 
 565      CC22AC
 566 07b6 EC3F2651 		.ascii	"\354?&Q6X\303E\361\252\257\230\007aV\365\311\311\202"
 566      3658C345 
 566      F1AAAF98 
 566      076156F5 
 566      C9C982
 567 07c9 558031C3 		.ascii	"U\2001\303\331\206\234"
 567      D9869C
 568 07d0 4B903C0A 		.ascii	"K\220<\012\345\301\327\262\340\334\263de\013 \347\025"
 568      E5C1D7B2 
 568      E0DCB364 
 568      650B20E7 
 568      15
 569 07e1 7C2A1A4A 		.ascii	"|*\032J8g^\032\226\012\316u'#\005\347\300\3019k7{W\322"
 569      38675E1A 
 569      960ACE75 
 569      272305E7 
 569      C0C1396B 
 570 07f9 2A934738 		.ascii	"*\223G8@\3747\345\254\265h\245\367E\312*\227\371\371"
 570      40FC37E5 
 570      ACB568A5 
 570      F745CA2A 
 570      97F9F9
 571 080c A14E392B 		.ascii	"\241N9+\004\015\026UY\360\237\357\222\265N\036!An+\210"
 571      040D1655 
 571      59F09FEF 
 571      92B54E1E 
 571      21416E2B 
 572 0821 2469EB0D 		.ascii	"$i\353\015\031r\003\212\273\013Y1\212\227\013\356.|"
 572      1972038A 
 572      BB0B5931 
 572      8A970BEE 
 572      2E7C
 573 0833 E63F6933 		.ascii	"\346?i3\255n\370\361\015[\227\235\203Q\343'\211\177"
 573      AD6EF8F1 
 573      0D5B979D 
ARM GAS  C:\Users\AMANRA~1\AppData\Local\Temp\ccy7qQxb.s 			page 46


 573      8351E327 
 573      897F
 574 0845 F08D3CC9 		.ascii	"\360\215<\311x}\020\314\257\017\\\264\333S0\367]\332"
 574      787D10CC 
 574      AF0F5CB4 
 574      DB5330F7 
 574      5DDA
 575 0857 6D346AB7 		.ascii	"m4j\267.\177Y\255\252\335z\037Rn\023*W!\002\013\347"
 575      2E7F59AD 
 575      AADD7A1F 
 575      526E132A 
 575      5721020B 
 576 086c 7B9F5CBA 		.ascii	"{\237\\\272#\213\332Nh\357\007\233\345)\342n`\013\006"
 576      238BDA4E 
 576      68EF079B 
 576      E529E26E 
 576      600B06
 577 087f 9341F5D3 		.ascii	"\223A\365\323\015\213*m\354\037\271\237_\027U\3351\251"
 577      0D8B2A6D 
 577      EC1FB99F 
 577      5F1755DD 
 577      31A9
 578 0891 5700C591 		.ascii	"W\000\305\221\353\224\313\007?\330*\017\271|\200mr\""
 578      EB94CB07 
 578      3FD82A0F 
 578      B97C806D 
 578      7222
 579 08a3 BD19F12A 		.ascii	"\275\031\361*\257\271/k\227\0219\302\012\233C\200\226"
 579      AFB92F6B 
 579      971139C2 
 579      0A9B4380 
 579      96
 580 08b4 F00B8942 		.ascii	"\360\013\211B\0145\303e\005\236\222%\370V6\303v\031"
 580      0C35C365 
 580      059E9225 
 580      F85636C3 
 580      7619
 581 08c6 F5C18616 		.ascii	"\365\301\206\026\342\374\306\347\257\272\331\357\216"
 581      E2FCC6E7 
 581      AFBAD9EF 
 581      8E
 582 08d3 73AD9123 		.ascii	"s\255\221#\011F\001\220\346\020\013w\310\277#\027\277"
 582      09460190 
 582      E6100B77 
 582      C8BF2317 
 582      BF
 583 08e4 595CE545 		.ascii	"Y\\\345E\003\305\3547\224,*\262\253d\261\3137r8^;z\324"
 583      03C5EC37 
 583      942C2AB2 
 583      AB64B1CB 
 583      3772385E 
 584 08fb 2AB25618 		.ascii	"*\262V\030\231\263\222g\245\235h<\256h4\027W\307\257"
 584      99B39267 
 584      A59D683C 
 584      AE683417 
 584      57C7AF
 585 090e 46EEDDAF 		.ascii	"F\356\335\257\371\374o\257\324\342\030\331\0111\273"
ARM GAS  C:\Users\AMANRA~1\AppData\Local\Temp\ccy7qQxb.s 			page 47


 585      F9FC6FAF 
 585      D4E218D9 
 585      0931BB
 586 091d E4BF0931 		.ascii	"\344\277\0111\375\3356!g6.\336\271\241\256\316_\310"
 586      FDDD3621 
 586      67362EDE 
 586      B9A1AECE 
 586      5FC8
 587 092f 3949725A 		.ascii	"9IrZ\276\272\262\316l\220\263\233\313\331Cr\3701v\015"
 587      BEBAB2CE 
 587      6C90B39B 
 587      CBD94372 
 587      F831760D 
 588 0943 13B47F46 		.ascii	"\023\264\177Fr\345\030\253h\235\201\203\312\271\025"
 588      72E518AB 
 588      689D8183 
 588      CAB915
 589 0952 D7CD1083 		.ascii	"\327\315\020\203\2318.\006@\014\314A}\324\275\221\017"
 589      99382E06 
 589      400CCC41 
 589      7DD4BD91 
 589      0F
 590 0963 7CC117CD 		.ascii	"|\301\027\315qY\364%\016\013_*o\205C\3745\321\347dw"
 590      7159F425 
 590      0E0B5F2A 
 590      6F8543FC 
 590      35D1E764 
 591 0978 EE00CDD9 		.ascii	"\356\000\315\331\334\356\230l\363\312?\025A\362!\006"
 591      DCEE986C 
 591      F3CA3F15 
 591      41F22106 
 592 0988 3BE5558C 		.ascii	";\345U\214L\214\030\244-a\023\364\325U\304\356C\221"
 592      4C8C18A4 
 592      2D6113F4 
 592      D555C4EE 
 592      4391
 593 099a CCBB9215 		.ascii	"\314\273\222\025\012cn0a\365\263W\313\345>\322\011\223"
 593      0A636E30 
 593      61F5B357 
 593      CBE53ED2 
 593      0993
 594 09ac 5A16ACA9 		.ascii	"Z\026\254\251P\222\177\360\320\344\021\203\\\004\331"
 594      50927FF0 
 594      D0E41183 
 594      5C04D9
 595 09bb 90E4110B 		.ascii	"\220\344\021\013\337q\220\363#\342>\221<\334;\210\354"
 595      DF7190F3 
 595      23E23E91 
 595      3CDC3B88 
 595      EC
 596 09cc D7F3FB01 		.ascii	"\327\363\373\001\332\374\203\271^Jn\010\031\223RqP\305"
 596      DAFC83B9 
 596      5E4A6E08 
 596      19935271 
 596      50C5
 597 09de 99F13368 		.ascii	"\231\3613h\265\373JE@\215\276S\324\222R!no\024\007\365"
 597      B5FB4A45 
ARM GAS  C:\Users\AMANRA~1\AppData\Local\Temp\ccy7qQxb.s 			page 48


 597      408DBE53 
 597      D4925221 
 597      6E6F1407 
 598 09f3 8DA2CEB0 		.ascii	"\215\242\316\260Q\370\352\033Eo\201\262Q\330\304\221"
 598      51F8EA1B 
 598      456F81B2 
 598      51D8C491 
 599 0a03 B1FB8272 		.ascii	"\261\373\202rd\014\035\223\2500\250\347\242\274\207"
 599      640C1D93 
 599      A830A8E7 
 599      A2BC87
 600 0a12 3B32FA41 		.ascii	";2\372A\203LG\306C\262\007G\306\303\272\247\216\220"
 600      834C47C6 
 600      43B20747 
 600      C6C3BAA7 
 600      8E90
 601 0a24 5142DDDE 		.ascii	"QB\335\336\210\217\352\346=&\247\032\217G\021x<:.\273"
 601      888FEAE6 
 601      3D26A71A 
 601      8F471178 
 601      3C3A2EBB 
 602 0a38 BF2F9FD0 		.ascii	"\277/\237\320\315\335h0\267\237n\356\015\253\024s\333"
 602      CDDD6830 
 602      B79F6EEE 
 602      0DAB1473 
 602      DB
 603 0a49 450054DD 		.ascii	"E\000T\335Q\366\345qc\022\025\017'\271(~\345\320\204"
 603      51F6E571 
 603      6312150F 
 603      27B9287E 
 603      E5D084
 604 0a5c C6E5C1D7 		.ascii	"\306\345\301\327\014:\257C7v\367\360\032-\036LpJ\013"
 604      0C3AAF43 
 604      3776F7F0 
 604      1A2D1E4C 
 604      704A0B
 605 0a6f 3E7F690B 		.ascii	">\177i\013\025Rw\201\347\331\212\246\363\365v\366+\236"
 605      15527781 
 605      E7D98AA6 
 605      F3F576F6 
 605      2B9E
 606 0a81 D2B7EC58 		.ascii	"\322\267\354X\267\332GI\351\003'&\257i\351p:W:1k%\300"
 606      B7DA4749 
 606      E9032726 
 606      AF69E970 
 606      3A573A31 
 607 0a98 E96192FA 		.ascii	"\351a\222\372\031\236\210\363:\235\007\371\371.\001"
 607      199E88F3 
 607      3A9D07F9 
 607      F92E01
 608 0aa7 62E02C4A 		.ascii	"b\340,J\271\017Y7k\226W_\207AY\276\350\271-B\311\360"
 608      B90F5937 
 608      6B96575F 
 608      874159BE 
 608      E8B92D42 
 609 0abd 4C1A3477 		.ascii	"L\0324w\251\362\037\026\247K\360\275\214\223\246\301"
 609      A9F21F16 
ARM GAS  C:\Users\AMANRA~1\AppData\Local\Temp\ccy7qQxb.s 			page 49


 609      A74BF0BD 
 609      8C93A6C1 
 610 0acd 936DB5EF 		.ascii	"\223m\265\357\317\220\340\007\232\363\032<\367\372^"
 610      CF90E007 
 610      9AF31A3C 
 610      F7FA5E
 611 0adc 5CA404E7 		.ascii	"\\\244\004\347h\316<x\356<V\247ghW9O\323\026\303\256"
 611      68CE3C78 
 611      EE3C56A7 
 611      67685739 
 611      4FD316C3 
 612 0af1 22C105CC 		.ascii	"\"\301\005\314\201\315\224\301\261\301\324$\345\323"
 612      81CD94C1 
 612      B1C1D424 
 612      E5D3
 613 0aff 9EB47EED 		.ascii	"\236\264~\355\356\227\266\330Ry\255s5\0328\221\010\266"
 613      EE97B6D8 
 613      5279AD73 
 613      351A3891 
 613      08B6
 614 0b11 DFAA715A 		.ascii	"\337\252qZM\364\025\351\242\034\313\275\360\370As\233"
 614      4DF415E9 
 614      A21CCBBD 
 614      F0F84173 
 614      9B
 615 0b22 8C23F0A3 		.ascii	"\214#\360\243l\342\357+\301%\2316\351\315uG\356\370"
 615      6CE2EF2B 
 615      C1259936 
 615      E9CD7547 
 615      EEF8
 616 0b34 C4962BD4 		.ascii	"\304\226+\324\023i\355\223\035\273/\3329u\013Q\303e"
 616      1369ED93 
 616      1DBB2FDA 
 616      39750B51 
 616      C365
 617 0b46 D9C47326 		.ascii	"\331\304s&\267\035\245\327\234\033Kj+\314\303\027\263"
 617      B71DA5D7 
 617      9C1B4B6A 
 617      2BCCC317 
 617      B3
 618 0b57 9844A055 		.ascii	"\230D\240U/f\025\177\271\372\350\237\337\345\2436\356"
 618      2F66157F 
 618      B9FAE89F 
 618      DFE5A336 
 618      EE
 619 0b68 232D0D27 		.ascii	"#-\015'\340\273^\031\315G}\232\217\274\207\372(&\037"
 619      E0BB5E19 
 619      CD477D9A 
 619      8FBC87FA 
 619      28261F
 620 0b7b 7D74958C 		.ascii	"}t\225\214i\033\352\243\204\317%\270Fs\366!>:\221\204"
 620      691BEAA3 
 620      84CF25B8 
 620      4673F621 
 620      3E3A9184 
 621 0b8f 3EBA4E73 		.ascii	">\272Ns>\203\347\272\312\030\351(\301\215\241>jG\327"
 621      3E83E7BA 
ARM GAS  C:\Users\AMANRA~1\AppData\Local\Temp\ccy7qQxb.s 			page 50


 621      CA18E928 
 621      C18DA13E 
 621      6A47D7
 622 0ba2 DC241FDD 		.ascii	"\334$\037\3354\370\350\355\332\366:\273j\376+\334\374"
 622      34F8E8ED 
 622      DAF63ABB 
 622      6AFE2BDC 
 622      FC
 623 0bb3 B7B8F907 		.ascii	"\267\270\371\007\333\372\266fk\342\317\343\371\345\341"
 623      DBFAB666 
 623      6BE2CFE3 
 623      F9E5E1
 624 0bc2 CA4E364C 		.ascii	"\312N6LL\277\353<\034\006w\264\314\006we\227c}\030j"
 624      4CBFEB3C 
 624      1C0677B4 
 624      CC067765 
 624      97637D18 
 625 0bd7 764FC917 		.ascii	"vO\311\027\035\365\025v7\330\307C\207\036\311\235\234"
 625      1DF51576 
 625      37D8C743 
 625      871EC99D 
 625      9C
 626 0be8 FDA29235 		.ascii	"\375\242\2225\333,\"t\031t\011\366\325\235\215\002*"
 626      DB2C2274 
 626      197409F6 
 626      D59D8D02 
 626      2A
 627 0bf9 C52C6C8C 		.ascii	"\305,l\214\025\374}\275\202\177\240T\360\312\376\026"
 627      15FC7DBD 
 627      827FA054 
 627      F0CAFE16 
 628 0c09 3E6CC51E 		.ascii	">l\305\0366B\305\236\004\335\234\023\277\261|(rN\333"
 628      3642C59E 
 628      04DD9C13 
 628      BFB17C28 
 628      724EDB
 629 0c1c 549D9366 		.ascii	"T\235\223f\225d\264\312#-\343\004He\342\350\266\200"
 629      9564B4CA 
 629      232DE304 
 629      4865E2E8 
 629      B680
 630 0c2e 570B88E8 		.ascii	"W\013\210\350pB\265\361=S\360=\037\313\216\0226\211"
 630      7042B5F1 
 630      3D53F03D 
 630      1FCB8E12 
 630      3689
 631 0c40 53046AA7 		.ascii	"S\004j\247\266\272\316\246c\312\275A\304`\273\376\337"
 631      B6BACEA6 
 631      63CABD41 
 631      C460BBFE 
 631      DF
 632 0c51 BBEAE09E 		.ascii	"\273\352\340\236\221\252\364j~\215\361\304P\244\367"
 632      91AAF46A 
 632      7E8DF1C4 
 632      50A4F7
 633 0c60 8A6B8C36 		.ascii	"\212k\2146-\203Fp\267\212\027\010\222\0163\241N\363"
 633      2D834670 
ARM GAS  C:\Users\AMANRA~1\AppData\Local\Temp\ccy7qQxb.s 			page 51


 633      B78A1708 
 633      920E33A1 
 633      4EF3
 634 0c72 E233979F 		.ascii	"\3423\227\237\016\267w\275\033COu\014=\243\335+B`\346"
 634      0EB777BD 
 634      1B434F75 
 634      0C3DA3DD 
 634      2B4260E6 
 635 0c86 8C9B9879 		.ascii	"\214\233\230y\256c\346\005\276\307)\025$gU\220D\216"
 635      AE63E605 
 635      BEC72915 
 635      24675590 
 635      448E
 636 0c98 11242F75 		.ascii	"\021$/u\220\274r\005\311\370aA\0229\"H\372t\220\274"
 636      90BC7205 
 636      C9F86141 
 636      12392248 
 636      FA7490BC 
 637 0cac 7605C978 		.ascii	"v\005\311x\003*\202\245-\314\025\025\343\025Th\367\267"
 637      032A82A5 
 637      2DCC1515 
 637      E3155468 
 637      F7B7
 638 0cbe 2920C31B 		.ascii	") \303\033\035\025!\206\263\374\345\012w*\210~\275\202"
 638      1D152186 
 638      B3FCE50A 
 638      772A887E 
 638      BD82
 639 0cd0 78EBE159 		.ascii	"x\353\341Y~@/!\234\314\263\263\374|\246\325\014YL\257"
 639      7E402F21 
 639      9CCCB3B3 
 639      FC7CA6D5 
 639      0C594CAF 
 640 0ce4 1942F59A 		.ascii	"\031B\365\232\341Q\241R3\310\242D[z5\304\215\267\317"
 640      E151A152 
 640      33C8A244 
 640      5B7A35C4 
 640      8DB7CF
 641 0cf7 66DADBE7 		.ascii	"f\332\333\3470\227,\366\036\337\377\263\373\352{\375"
 641      30972CF6 
 641      1EDFFFB3 
 641      FBEA7BFD 
 642 0d07 70FF09C7 		.ascii	"p\377\011\307\201r\314\325\374\012\347\\\367B;\361\017"
 642      8172CCD5 
 642      FC0AE75C 
 642      F7423BF1 
 642      0F
 643 0d18 2861EF43 		.ascii	"(a\357C.\233\007\013\230\340\236\375\315\236\005\200"
 643      2E9B070B 
 643      98E09EFD 
 643      CD9E0580 
 644 0d28 AB5773EE 		.ascii	"\253Ws\356\357A\036r\247;/6\317\375\373.\246\337w\241"
 644      EF411E72 
 644      A73B2F36 
 644      CFFDFB2E 
 644      A6DF77A1 
 645 0d3c 213CB9BA 		.ascii	"!<\271\272_\242\3334\337`\323q\272M+\213\024\2332\221"
ARM GAS  C:\Users\AMANRA~1\AppData\Local\Temp\ccy7qQxb.s 			page 52


 645      5FA2DB34 
 645      DF60D371 
 645      BA4D2B8B 
 645      149B3291 
 646 0d50 67BA2B94 		.ascii	"g\272+\224<\343\030\034\213\177}W\236Y\312F8o\357\343"
 646      3CE3181C 
 646      8B7F7D57 
 646      9E59CA46 
 646      386FEFE3 
 647 0d64 796619D3 		.ascii	"yf\031\323\316\333\260\234)\337.\267(\301\205\221\344"
 647      CEDBB09C 
 647      29DF2EB7 
 647      28C18591 
 647      E4
 648 0d75 A01039AB 		.ascii	"\240\0209\253\335\202E\031=\023\210\231t\005Sc&L\372"
 648      DD824519 
 648      3D138899 
 648      74055363 
 648      264CFA
 649 0d88 56DCA766 		.ascii	"V\334\247f\277\311\355\276\372\277b}\264P\371\333\215"
 649      BFC9EDBE 
 649      FABF627D 
 649      B450F9DB 
 649      8D
 650 0d99 3DE226F4 		.ascii	"=\342&\364g\340\017\177G\0225\262\212\331\004\327\342"
 650      67E00F7F 
 650      471235B2 
 650      8AD904D7 
 650      E2
 651 0daa 62722196 		.ascii	"br!\226\377\022\254d\363\304\211.\272\204\245J\235\220"
 651      FF12AC64 
 651      F3C4892E 
 651      BA84A54A 
 651      9D90
 652 0dbc 531EAD2F 		.ascii	"S\036\255/w\371\000\272\305a\374\000\372\025\343\237"
 652      77F900BA 
 652      C561FC00 
 652      FA15E39F 
 653 0dcc AAB49239 		.ascii	"\252\264\2229\210\177\314\\Zuq\251\366\245\352 \377"
 653      887FCC5C 
 653      5A7571A9 
 653      F6A5EA20 
 653      FF
 654 0ddd 3059C0E8 		.ascii	"0Y\300\350K\225/\321\254\0224Zd\007\361O m\333\257\337"
 654      4B952FD1 
 654      AC12345A 
 654      6407F14F 
 654      206DDBAF 
 655 0df2 D63E9AF6 		.ascii	"\326>\232\366p\232BNC\327!P\304\224\257[\341\322mIq"
 655      709A424E 
 655      43D72150 
 655      C494AF5B 
 655      E1D26D49 
 656 0e07 DAC130E1 		.ascii	"\332\3010\3413_\021\007\245\327?s#\016V\353q\260\206"
 656      335F1107 
 656      A5D73F73 
 656      230E56EB 
ARM GAS  C:\Users\AMANRA~1\AppData\Local\Temp\ccy7qQxb.s 			page 53


 656      71B086
 657 0e1a C7812BF0 		.ascii	"\307\201+\360\375\207\001~\361(\300\377Z\000\277\304"
 657      FD87017E 
 657      F128C0FF 
 657      5A00BFC4 
 658 0e2a 03E097EA 		.ascii	"\003\340\227\352\300/\363\020\370ku\340\227\033\200"
 658      C02FF310 
 658      F86B75E0 
 658      971B80
 659 0e39 1FA1DBB0 		.ascii	"\037\241\333\260\267\310\"\214\350\247\234\367\3342"
 659      B7C8228C 
 659      E8A79CF7 
 659      DC32
 660 0e47 E23ADD88 		.ascii	"\342:\335\210\353\2071b\3000F\3340\212\021\277\021F"
 660      EB873162 
 660      C03046DC 
 660      308A11BF 
 660      1146
 661 0e59 ACF0C088 		.ascii	"\254\360\300\210\033u#n\362\320\210\233u#n1\0301RZe"
 661      1B75236E 
 661      F2D0889B 
 661      75236E31 
 661      1831525A 
 662 0e6e 52C3AFBF 		.ascii	"R\303\257\277G\011\277\030\014\277A\361\026;$\336\020"
 662      4709BF18 
 662      0CBF41F1 
 662      163B24DE 
 662      10
 663 0e7f D0B0558D 		.ascii	"\320\260U\215\267\230A\361\026;8\336\266G\031\343m\233"
 663      B79841F1 
 663      163B38DE 
 663      B64719E3 
 663      6D9B
 664 0e91 881D9700 		.ascii	"\210\035\227\000kw\350\001\026H\213\276\025\213\\\""
 664      6B77E801 
 664      16488BBE 
 664      158B5C22 
 665 0ea1 EA99438F 		.ascii	"\352\231C\217\250 Z\264]\215\250\361\322nP\320\320\356"
 665      A8205AB4 
 665      5D8DA8F1 
 665      D26E50D0 
 665      D0EE
 666 0eb3 10600814 		.ascii	"\020`\010\024`\330\336\353\016\030v\350`\250\374\211"
 666      60D8DEEB 
 666      0E1876E8 
 666      60A8FC89 
 667 0ec3 11B57314 		.ascii	"\021\265s\0240\354\022`\330\355\001\030\366\350`\330"
 667      30EC1260 
 667      D8ED0118 
 667      F6E860D8 
 668 0ed3 EB2118BE 		.ascii	"\353!\030\276\323\301\260\317\000\006\207n\303\027%"
 668      D3C1B0CF 
 668      0006876E 
 668      C31725
 669 0ee2 4A440509 		.ascii	"JD\005\011#\366\273e\304\375\272\021\017\374\304\210"
 669      23F6BB65 
 669      C4FDBA11 
ARM GAS  C:\Users\AMANRA~1\AppData\Local\Temp\ccy7qQxb.s 			page 54


 669      0FFCC488 
 670 0ef2 AA1AC588 		.ascii	"\252\032\305\210\325\302\2105\036\030\261V7\342A\017"
 670      D5C28835 
 670      1E18B156 
 670      37E2410F 
 671 0f02 8D58A71B 		.ascii	"\215X\247\033\261\336`\304(}?\256/U\366c/\261\037W\345"
 671      B1DE60C4 
 671      287D3FAE 
 671      2F55F663 
 671      2FB11F57 
 672 0f17 29FB71DC 		.ascii	")\373q\334\030k\343q\320\300F\250\373\305\347\313CL"
 672      186BE371 
 672      D0C046A8 
 672      FBC5E7CB 
 672      434C
 673 0f29 AFFB0F33 		.ascii	"\257\373\0173\245\356Ww\3378C\335\037\255\325\375u\235"
 673      A5EE5777 
 673      DF3843DD 
 673      1FADD5FD 
 673      759D
 674 0f3b 073729EA 		.ascii	"\0077)\352\304\217\271<82zyp\324P\036\034c\372\037_"
 674      C48FB93C 
 674      38327A79 
 674      70D4501E 
 674      1C63FA1F 
 675 0f50 CD15B276 		.ascii	"\315\025\262v<y\272\303,\376\370\312\037\216\213bAW"
 675      3C79BAC3 
 675      2CFEF8CA 
 675      1F8E8B62 
 675      4157
 676 0f62 776E81E1 		.ascii	"wn\201\341O\221\350\230|B+\026&H\275 \264\177\222\327"
 676      4F91E898 
 676      7C422B16 
 676      2648BD20 
 676      B47F92D7 
 677 0f76 FD62A72C 		.ascii	"\375b\247,\010\022\220\253\2507\324\223N\202\241\300"
 677      081290AB 
 677      A837D493 
 677      4E82A1C0 
 678 0f86 88912E49 		.ascii	"\210\221.I\242(/\037(\215\030\346b\"\255\220\242\031"
 678      A2282F1F 
 678      288D18E6 
 678      6222AD90 
 678      A219
 679 0f98 1AD55C36 		.ascii	"\032\325\\6\267\0045&"
 679      B7043526 
 680 0fa0 CA58E96B 		.ascii	"\312X\351k\345\220W\276%zxBD0\234\034B\030\247\031\031"
 680      E59057BE 
 680      257A7842 
 680      44309C1C 
 680      4218A719 
 681 0fb5 0F439BDC 		.ascii	"\017C\233\334\251\352\233\364\3009\305<\253\352O\353"
 681      A9EA9BF4 
 681      C039C53C 
 681      ABEA4FEB 
 682 0fc5 883FE361 		.ascii	"\210?\343aU\177VG\374\367\006\304\307\033\020_\246 "
 682      557F5647 
ARM GAS  C:\Users\AMANRA~1\AppData\Local\Temp\ccy7qQxb.s 			page 55


 682      FCF706C4 
 682      C71B105F 
 682      A620
 683 0fd7 DE222076 		.ascii	"\336\" vYE|\342\230\021\377\303\350\210?g@\374\371\301"
 683      59457CE2 
 683      9811FFC3 
 683      E8883F67 
 683      40FCF9C1 
 684 0feb 884F3420 		.ascii	"\210O4 >\301\200\370\253*\342'\216\031\361\027FG|\263"
 684      3EC180F8 
 684      AB2AE227 
 684      8E19F117 
 684      46477CB3 
 685 0fff 01       		.ascii	"\001"
 686 1000 F1170D88 		.ascii	"\361\027\015\210\377\000e\015\205\370\007\006L'J\355"
 686      FF00650D 
 686      85F80706 
 686      4C274AED 
 687 1010 3AA65FAB 		.ascii	":\246_\253\230NB:WL'\0310=Q:\247a\272l\004L\007\322"
 687      984E423A 
 687      574C2719 
 687      303D513A 
 687      A761BA6C 
 688 1028 1F9AA9D0 		.ascii	"\037\232\251\320\374@\205f\222\264B\303\364\204\341"
 688      FC408566 
 688      92B442C3 
 688      F484E1
 689 1037 0983E8FE 		.ascii	"\011\203\350\376o\010a\262\001\323\335na\272E\307\364"
 689      6F0861B2 
 689      01D3DD6E 
 689      61BA45C7 
 689      F4
 690 1048 650F31DD 		.ascii	"e\0171\335\252c\272\315CL_\3211}\325\200\351\024)\377"
 690      AA63BACD 
 690      434C5FD1 
 690      317DD580 
 690      E91429FF 
 691 105c ACA82E81 		.ascii	"\254\250.\201\027-\017AF\203$\343\334sH6\036\025$\000"
 691      172D0F41 
 691      468324E3 
 691      DC734836 
 691      1E152400 
 692 1070 B8C61CAC 		.ascii	"\270\306\034\254\365\321\015\336\361\252\356}\354\362"
 692      F5D10DDE 
 692      F1AAEE7D 
 692      ECF2
 693 107e B7AD1266 		.ascii	"\267\255\022f\260\353\314a\352\353\025\013,\255/\036"
 693      B0EBCC61 
 693      EAEB150B 
 693      2CAD2F1E 
 694 108e 038D988B 		.ascii	"\003\215\230\213\373\304\210\255i\036=\333[7\364\360"
 694      FBC488AD 
 694      691E3DDB 
 694      5B37F4F0 
 695 109e 679FBE8D 		.ascii	"g\237\276\215\355\274\343\333\265\211\377\2064\355\343"
 695      EDBCE3DB 
 695      B589FF86 
ARM GAS  C:\Users\AMANRA~1\AppData\Local\Temp\ccy7qQxb.s 			page 56


 695      34EDE3
 696 10ad BFA14DD5 		.ascii	"\277\241M\325\3747\274\257\356\220L\235\210\30579\253"
 696      FC37BCAF 
 696      EE904C9D 
 696      88C53739 
 696      AB
 697 10be B0AE9B7C 		.ascii	"\260\256\233|b\374\342{\374\327\261\265\213\217G.\276"
 697      62FCE27B 
 697      FCD7B1B5 
 697      8B8F472E 
 697      BE
 698 10cf CF7FA35A 		.ascii	"\317\177\243Z\037\012\326q\255\275\355|$\276\365\271"
 698      1F0AD671 
 698      ADBDED7C 
 698      24BEF5B9 
 699 10df 18496E7D 		.ascii	"\030In}-F\344\256\001\220\0262\240\027G'%M\236\234\212"
 699      2D46E4AE 
 699      01901632 
 699      A0174727 
 699      254D9E9C 
 700 10f4 FFD3A7CF 		.ascii	"\377\323\247\317\370t\306\254\314)\3774%-uVf\352\364"
 700      F874C6AC 
 700      CC29FF34 
 700      252D7556 
 700      66EAF4
 701 1107 3F7E9E9A 		.ascii	"?~\236\232\231\221N\277\237|\221\371\351\344t\311\204"
 701      99914EBF 
 701      9F7C91F9 
 701      E9E474C9 
 701      84
 702 1118 3FB3E5CF 		.ascii	"?\263\345\317f\313\323\377\007f[>\375c\346\264\177\317"
 702      66CBD3FF 
 702      07665B3E 
 702      FD63E6B4 
 702      7FCF
 703 112a 98F1CB61 		.ascii	"\230\361\313a\211\323g\315\2349\353O\251\263ge\314\311"
 703      89D367CD 
 703      9C39EB4F 
 703      A9B36765 
 703      CCC9
 704 113c 4CFDED1F 		.ascii	"L\375\355\037>\232\372\321_pI\372\254\214i\237|\371"
 704      3E9AFAD1 
 704      5F7049FA 
 704      AC8C699F 
 704      7CF9
 705 114e AB9993A7 		.ascii	"\253\231\223\247KSG#\233\366\2279D\224:\365\243\217"
 705      4B534723 
 705      9BF69739 
 705      44943AF5 
 705      A38F
 706 1160 7FFF71EA 		.ascii	"\177\377q\352T\244J\375\375\237\322?\377\342\263i\251"
 706      54A44AFD 
 706      FD9FD23F 
 706      FFE2B369 
 706      A9
 707 1171 E9333367 		.ascii	"\35133gd~\362_\351\351\310#yD\275geb\2231\207\377\216"
 707      647EF25F 
ARM GAS  C:\Users\AMANRA~1\AppData\Local\Temp\ccy7qQxb.s 			page 57


 707      E9E9C823 
 707      7944BD67 
 707      65629331 
 708 1188 B810E767 		.ascii	"\270\020\347g\250\\\247g\316\315\304\205\001\037}\374"
 708      A85CA767 
 708      CECDC485 
 708      011F7DFC 
 709 1198 87187AB1 		.ascii	"\207\030z\261\331\0313\336\217IL\223\344\014\3112s\332"
 709      D91933DE 
 709      8F494C93 
 709      E40CC932 
 709      73DA
 710 11aa CC591973 		.ascii	"\314Y\031s\245\377\007\362\351\226m"
 710      A5FF07F2 
 710      E9966D
 711              		.text
 712              		.section	.gnu.lto_zero_status.c3bfe3c9,"",%progbits
 713 0000 789C6363 		.ascii	"x\234cc``0\001bF\006\010\230\302\314\270\376\315\316"
 713      60603001 
 713      62460608 
 713      98C2CCB8 
 713      FECDCE
 714 0013 9FBCDDCC 		.ascii	"\237\274\335\314s\230\201\202@n\343\226\017\235\274"
 714      73988182 
 714      406EE396 
 714      0F9DBC
 715 0022 16DB1A3A 		.ascii	"\026\333\032:\0264(\314afd4\224a\334\314(\303h\004\246"
 715      163428CC 
 715      61666434 
 715      9461DCCC 
 715      28C36804 
 716 0037 1818B730 		.ascii	"\030\030\2670Z0\000\000\374\235\017\262"
 716      5A300000 
 716      FC9D0FB2 
 717              		.text
 718              		.section	.gnu.lto_halted_status.c3bfe3c9,"",%progbits
 719 0000 789C6363 		.ascii	"x\234cc``p\006bF\006\010\230\302\314\270\376\315\316"
 719      60607006 
 719      62460608 
 719      98C2CCB8 
 719      FECDCE
 720 0013 9FBCDDCC 		.ascii	"\237\274\335\314s\230\201\202@\356\226#\307\3338 \\"
 720      73988182 
 720      40EE9623 
 720      C7DB3820 
 720      5C
 721 0024 462077D5 		.ascii	"F w\325\316\217\3539,\2665t,hP\230\303\314\310h(\303"
 721      CE8FEB39 
 721      2CB63574 
 721      2C685098 
 721      C3CCC868 
 722 003a B8855186 		.ascii	"\270\205Q\206\321H\206q3\243\014\003\343VF\013\006\000"
 722      D1488671 
 722      33A30C03 
 722      E356460B 
 722      0600
 723 004c 37DB14A7 		.ascii	"7\333\024\247"
ARM GAS  C:\Users\AMANRA~1\AppData\Local\Temp\ccy7qQxb.s 			page 58


 724              		.text
 725              		.section	.gnu.lto_active_status.c3bfe3c9,"",%progbits
 726 0000 789C6363 		.ascii	"x\234cc``0\001bF\006\010\230\302\314\270\376\315\316"
 726      60603001 
 726      62460608 
 726      98C2CCB8 
 726      FECDCE
 727 0013 9FBCDDCC 		.ascii	"\237\274\335\314s\230\201\202@n\343\226\017\235\274"
 727      73988182 
 727      406EE396 
 727      0F9DBC
 728 0022 16DB1A3A 		.ascii	"\026\333\032:\0264(\314afd4\224a\334\314(\303h\004\246"
 728      163428CC 
 728      61666434 
 728      9461DCCC 
 728      28C36804 
 729 0037 1818B730 		.ascii	"\030\030\2670Z0\000\000\374\235\017\262"
 729      5A300000 
 729      FC9D0FB2 
 730              		.text
 731              		.section	.gnu.lto_usbStartReceiveI.c3bfe3c9,"",%progbits
 732 0000 789C9D53 		.ascii	"x\234\235S[KTQ\030\335k\366\231s\346\342\250\325CQ\022"
 732      5B4B5451 
 732      18DD6BF6 
 732      9973E6E2 
 732      A8D54351 
 733 0015 3E144341 		.ascii	">\024CA\236,\210\242?\320\017\350=R\212\202Hi(z\363"
 733      9E2C88A2 
 733      3FD00FE8 
 733      3D528A82 
 733      4869287A 
 734 002a 34E68C65 		.ascii	"4\346\214e\017\022e4\034d\310.t\261\013]\307\324\246"
 734      0F126534 
 734      1C64C82E 
 734      74B10B5D 
 734      C7D4A6
 735 003d C94C332B 		.ascii	"\311L3+m\242 P\354F\023\222]\254\346!\247\276o\237\351"
 735      6DA22050 
 735      EC461392 
 735      5DACE621 
 735      A7BE6F9F 
 736 0052 663E549B 		.ascii	"f>T\233s\366\365[k}\227\275u!\304\022\267\020+i\234"
 736      73F6F55B 
 736      6B7D97BD 
 736      7521C412 
 736      B7102B69 
 737 0067 433FA480 		.ascii	"C?\244\200\253\361\256\020;<.\200'\226\007\242\306\205"
 737      ABF1AE10 
 737      3B3C2E80 
 737      279607A2 
 737      C685
 738 0079 1AEC91FB 		.ascii	"\032\354\221\373$R\321\227\011\327\202c\026\265\344"
 738      2452D197 
 738      09D78263 
 738      16B5E4
 739 0088 81D8DC88 		.ascii	"\201\330\334\210U7\313\226B4\321\317\015\347\261\200"
 739      5537CB96 
ARM GAS  C:\Users\AMANRA~1\AppData\Local\Temp\ccy7qQxb.s 			page 59


 739      4234D1CF 
 739      0DE7B180 
 740 0098 AC06769E 		.ascii	"\254\006v\236\265e\203\264%\240\321\362]\177\354Y!/"
 740      B56583B4 
 740      25A0D1F2 
 740      5D7FEC59 
 740      212F
 741 00aa 5D28A565 		.ascii	"](\245ef\340\\\272H.\204\240\371\253\221\346\325\301"
 741      66E05CBA 
 741      482E84A0 
 741      F9AB91E6 
 741      D5C1
 742 00bc 239615B6 		.ascii	"#\226\025\266\222\351\303\322\232gK\211K\220\304\207"
 742      92E9C3D2 
 742      9A674B89 
 742      4B90C487 
 743 00cc 8B28C105 		.ascii	"\213(\301\005\224\010\332\022\270\214 Y\217D\217~)\224"
 743      9408DA12 
 743      B88C2059 
 743      8F448F7E 
 743      2994
 744 00de A6420ED7 		.ascii	"\246B\016\327\037\032\013\344\241]\021i\025\330R\303"
 744      1F1A0BE4 
 744      A15D1169 
 744      15D852C3 
 745 00ee 1507BAB4 		.ascii	"\025\007\272\264\004\213\031\250\011$\024\360\344\370"
 745      048B19A8 
 745      092414F0 
 745      E4F8
 746 00fc 449F2697 		.ascii	"D\237&\227(\340\213\\\303(\362\300O\331\342\303\265"
 746      28E08B5C 
 746      C328F2C0 
 746      4FD9E2C3 
 746      B5
 747 010d D62A5BBA 		.ascii	"\326*[\272\3216Y\325-pU\201'\254}M\205r\231\002?\357"
 747      D13659D5 
 747      2D705581 
 747      27AC7D4D 
 747      85729902 
 748 0123 6B6934F2 		.ascii	"ki4\362\340\347G\224\303:\332'Cu\201\016\004\331\376"
 748      E0E74794 
 748      C33ADA27 
 748      4375810E 
 748      04D9FE
 749 0136 EA934769 		.ascii	"\352\223Gi\237\\\256\260\243\203\017\263\236\371-\012"
 749      9F5CAEB0 
 749      A3830FB3 
 749      9EF92D0A 
 750 0146 9BCB16B7 		.ascii	"\233\313\026\267\324Z=\226fK\003\235\277\343\271\221"
 750      D45A3D96 
 750      664B039D 
 750      BFE3B991 
 751 0156 F9D373B9 		.ascii	"\371\323s\271\375\001]\3035\314\217\177O1\222 n\032"
 751      FD015DC3 
 751      35CC8F7F 
 751      4F319220 
 751      6E1A
ARM GAS  C:\Users\AMANRA~1\AppData\Local\Temp\ccy7qQxb.s 			page 60


 752 0168 79F7CCA0 		.ascii	"y\367\314\240;i\345\276F)\214\355\303\343C3gP\305(O"
 752      3B69E5BE 
 752      46298CED 
 752      C3E34333 
 752      6750C528 
 753 017d 94740A9A 		.ascii	"\224t\012\232\274'\023\235\234\361\030\324y=\334yy\351"
 753      BC27139D 
 753      9CF118D4 
 753      793DDC79 
 753      79E9
 754 018f E3CE4F9D 		.ascii	"\343\316O\235\257\200:\177\000\034f\021\224\307\242"
 754      AF803A7F 
 754      001C6611 
 754      94C7A2
 755 019e 9E54A8EA 		.ascii	"\236T\250\352VR\354\222.\236\325&\305k\204\3332\315"
 755      5652EC92 
 755      2E9ED526 
 755      C56B84DB 
 755      32CD
 756 01b0 633E168F 		.ascii	"c>\026\217I\235\\k\252K\3353\270\240R\005\326\236\352"
 756      499D5C6B 
 756      AA4BDD33 
 756      B8A05205 
 756      D69EEA
 757 01c3 EFD6E368 		.ascii	"\357\326\343h\336A\267\242\324\226\0051*\364u\016\204"
 757      DE41B7A2 
 757      D4960531 
 757      2AF4750E 
 757      84
 758 01d4 CED2D1C7 		.ascii	"\316\322\321\307C~s\221-\003H!\216\375\352\242\340\006"
 758      437E7391 
 758      2D034821 
 758      8EFDEAA2 
 758      E006
 759 01e6 4CA67D1F 		.ascii	"L\246}\037=\030pX\215\030U\3715j\337F2~g\307C\340\013"
 759      3D187058 
 759      8D1855F9 
 759      356ADF46 
 759      327E67C7 
 760 01fd 5DB7221E 		.ascii	"]\267\"\036\326\361\002\350B\011\3319\260\214\3331\362"
 760      D6F102E8 
 760      4209D939 
 760      B08CDB31 
 760      F2
 761 020e 921DC3B2 		.ascii	"\222\035\303\262\221D~\307G\036\322>\233\245w\203\367"
 761      91447EC7 
 761      471ED23E 
 761      9BA57783 
 761      F7
 762 021f FEDEC19B 		.ascii	"\376\336\301\233?\035\354\206I\\\216X\353\307\343p\310"
 762      3F1DEC86 
 762      495C8E58 
 762      EBC7E370 
 762      C8
 763 0230 FD8E97E1 		.ascii	"\375\216\227\341N\257\263.\230\304\035\337&\246do\265"
 763      4EAFB32E 
 763      98C41DDF 
ARM GAS  C:\Users\AMANRA~1\AppData\Local\Temp\ccy7qQxb.s 			page 61


 763      26A6646F 
 763      B5
 764 0241 1CE142DC 		.ascii	"\034\341B\334R\022p*\334=6\322\247\225\237\341\303\370"
 764      5212702A 
 764      DC3D36D2 
 764      A7959FE1 
 764      C3F8
 765 0253 09502DD0 		.ascii	"\011P-\320\303\262~\345A/\312U\346{\015G\313\375k\336"
 765      C3B27EE5 
 765      412FCA55 
 765      E67B0D47 
 765      CBFD6BDE 
 766 0267 FD7FE43D 		.ascii	"\375\177\344=\336\006\322.\"\237p;\257\375\256a\357"
 766      DE06D22E 
 766      229F703B 
 766      AFFDAE61 
 766      EF
 767 0278 639076A3 		.ascii	"c\220v\243\322.F\237\322v1\371\035\312\377K\204\343"
 767      D22E469F 
 767      D27631F9 
 767      1DCAFF4B 
 767      84E3
 768 028a 73999B2F 		.ascii	"s\231\233/\012\361\263Z,sj\314\310'\355\207\230\361"
 768      0AF1B35A 
 768      2C736ACC 
 768      C827ED87 
 768      98F1
 769 029c A7D86C5B 		.ascii	"\247\330l[N#\010\372\247\014\323\215\273JJ\335\330{"
 769      4E2308FA 
 769      A70CD38D 
 769      BB4A4ADD 
 769      D87B
 770 02ae 1C52C021 		.ascii	"\034R\300!o\375A\376\017l:\356+6\215\331\006\230\255"
 770      6FFD41FE 
 770      0F6C3AEE 
 770      2B368DD9 
 770      0698AD
 771 02c1 88D9C65F 		.ascii	"\210\331\306_\235\376?\266A\305\346f\266\0070\177\015"
 771      9DFE3FB6 
 771      41C5E666 
 771      B607307F 
 771      0D
 772 02d2 5487409A 		.ascii	"T\207@\232P\243\250\213\177\350\220\352\261\321y\"1"
 772      50A3A88B 
 772      7FE890EA 
 772      B1D17922 
 772      31
 773 02e3 FAC4A899 		.ascii	"\372\304\250\231\260<\266\234\336\304\265\303C\324\010"
 773      B03CB69C 
 773      DEC4B5C3 
 773      43D408
 774 02f2 AA32DD06 		.ascii	"\2522\335\006[\316\020o(\221\237;\324\025Qo\267\236"
 774      5BCE106F 
 774      28919F3B 
 774      D415516F 
 774      B79E
 775 0304 6CE8E550 		.ascii	"l\350\345P\242\203ee&}\225\0336Vl\254\012\225\257(_"
ARM GAS  C:\Users\AMANRA~1\AppData\Local\Temp\ccy7qQxb.s 			page 62


 775      A2836565 
 775      267D951B 
 775      36566CAC 
 775      0A95AF28 
 776 0319 6C5685CC 		.ascii	"lV\205\314\015k7\231\241-\225<\256\331\032\252(\253"
 776      0D6B3799 
 776      A12D953C 
 776      AED91AAA 
 776      28AB
 777 032b 141A0DD5 		.ascii	"\024\032\015\325\256u\325\262b\353zl\226U\241\352o\213"
 777      AE75D5B2 
 777      62EB7A6C 
 777      9655A1EA 
 777      6F8B
 778 033d CDB676   		.ascii	"\315\266v"
 779              		.text
 780              		.section	.gnu.lto_usbStartTransmitI.c3bfe3c9,"",%progbits
 781 0000 789C9D53 		.ascii	"x\234\235SkK\024Q\030>\317\234\331\231]\327\325\314"
 781      6B4B1451 
 781      183ECF9C 
 781      D9995DD7 
 781      D5CC
 782 0012 2F51627D 		.ascii	"/Qb}\250\304 \307-\210\242?\320\017\350{\244\025\011"
 782      A8C420C7 
 782      2D88A23F 
 782      D00FE87B 
 782      A41509
 783 0025 51D252DF 		.ascii	"Q\322R\337\302Qs\327\262\017\022i\265L\261\244\025\025"
 783      C25173D7 
 783      B20F1269 
 783      B54CB1A4 
 783      1515
 784 0037 61915DB4 		.ascii	"a\221]\264\333f\246\231\267\264\015\214\242\260\213"
 784      DB66A699 
 784      B7B40D8C 
 784      A2B08B
 785 0046 64986644 		.ascii	"d\230fD\004\271\326\373\236\331n\326\207\3520s\316\234"
 785      04B9D6FB 
 785      9ED96ED6 
 785      87EA3073 
 785      CE9C
 786 0058 F7BCCFF3 		.ascii	"\367\274\317\363\274\2273\206\020\"\350\021b5\255\363"
 786      BC973386 
 786      1022E811 
 786      6235ADF3 
 787 0068 E88514D0 		.ascii	"\350\205\024\320j\373\204(\367j\000\177\330^\2102\015"
 787      6AFB8428 
 787      F76A007F 
 787      D85E8832 
 787      0D
 788 0079 65D8270F 		.ascii	"e\330'\017H\264EFZ\264\374\2236\215\370\301+\363\303"
 788      48B44546 
 788      5AB4FC93 
 788      368DF8C1 
 788      2BF3C3
 789 008c 76D51C47 		.ascii	"v\325\034G\012QO/\017\\@>y\015\354>\347\310\032\351"
 789      0A514F2F 
ARM GAS  C:\Users\AMANRA~1\AppData\Local\Temp\ccy7qQxb.s 			page 63


 789      0F5C403E 
 789      790DEC3E 
 789      E7C81AE9 
 790 00a0 4840A7ED 		.ascii	"H@\247\355do\364E\006o5,\240\355\350\300\371D\246\\"
 790      646FF445 
 790      066F352C 
 790      A0EDE8C0 
 790      F944A65C 
 791 00b4 0241DFAF 		.ascii	"\002A\337\257\207\217\256\315;n\333\025v\374I\243\264"
 791      878FAECD 
 791      3B6EDB15 
 791      76FC49A3 
 791      B4
 792 00c5 173A52E2 		.ascii	"\027:R\342\022$\361\341\"r\320\214\034A&\201\313\310"
 792      1224F1E1 
 792      2272D08C 
 792      1C412681 
 792      CBC8
 793 00d7 23EFE1C8 		.ascii	"#\357\341\310\211\251\014i)\344\263\352c\023\201\024"
 793      89A90C69 
 793      29E4B3EA 
 793      63138114 
 794 00e7 B4272CED 		.ascii	"\264',\355tG\352\270\342B\227\347\240\220\201\272@\213"
 794      7447EAB8 
 794      E24297E7 
 794      A09081BA 
 794      408B
 795 00f9 029EF990 		.ascii	"\002\236\371\220\354\326\3452\005|5]3\206\024p<\231"
 795      ECD6E532 
 795      057C355D 
 795      33861470 
 795      3C99
 796 010b DB5869AF 		.ascii	"\333Xi\257q\244\007\2553U=\002W\0258i\037\250\317\220"
 796      71A407AD 
 796      33553D02 
 796      57153869 
 796      1FA8CF90 
 797 011f 2B14F865 		.ascii	"+\024\370ewC\255\371-\340\023*`\003\327fB\015\201\353"
 797      7743ADF9 
 797      2DE0132A 
 797      6003D766 
 797      420D81EB 
 798 0133 C863FFCE 		.ascii	"\310c\377\316\206\304\006\271RA\033\037%\026/jP\310"
 798      86C406B9 
 798      52411B1F 
 798      25162F6A 
 798      50C8
 799 0145 8FC9DC63 		.ascii	"\217\311\334c\225\366][w\244\211\033\277\242y\220\367"
 799      95F65D5B 
 799      77A4891B 
 799      BFA27990 
 799      F7
 800 0156 F3F3D375 		.ascii	"\363\363\323u\001C\307M,\212}+0\342 fZ\331\3324\350"
 800      0143C74D 
 800      2C8A7D2B 
 800      30E22066 
 800      5AD9DA34 
ARM GAS  C:\Users\AMANRA~1\AppData\Local\Temp\ccy7qQxb.s 			page 64


 801 016b 89DBD35F 		.ascii	"\211\333\323_\"\224\304\256\361\346\216CZ65\214\312"
 801      2294C4AE 
 801      F1E68E43 
 801      5A36358C 
 801      CA
 802 017c 4435A79C 		.ascii	"D5\247\234)x\3621(\026\257I\223\317\313\223\217\267"
 802      2978F231 
 802      2816AF49 
 802      93CFCB93 
 802      8FB7
 803 018e 693CF969 		.ascii	"i<\371iJK\247\311\037\000g\231\011\025\260\250&\031"
 803      4A4BA7C9 
 803      1F006799 
 803      0915B0A8 
 803      2619
 804 01a0 6ABA1D17 		.ascii	"j\272\035\027{\244\306_\225q\361\006\025\255\243o\373"
 804      7BA4C65F 
 804      9571F106 
 804      15ADA36F 
 804      FB
 805 01b1 FDAC1E95 		.ascii	"\375\254\036\225\006\305V_\325\326or?\245J\354Z[o\207"
 805      06C5565F 
 805      D5D66F72 
 805      3FA54AEC 
 805      5A5B6F87 
 806 01c5 11C3D172 		.ascii	"\021\303\321r\272\024\013\034\231\036\245>\337\342L"
 806      BA140B1C 
 806      991EA53E 
 806      DFE24C
 807 01d4 E82C1119 		.ascii	"\350,\021\031z\352\267\226:2\2006\304P\247\356\011n"
 807      7AEAB796 
 807      3A328036 
 807      C450A7EE 
 807      096E
 808 01e6 C362DAF7 		.ascii	"\303b\332\367\221\256\200\313jF\251\311oP\371.|8e\361"
 808      91AE80CB 
 808      6A46A9C9 
 808      6F50F92E 
 808      7C3865F1 
 809 01fa 12B8B9BD 		.ascii	"\022\270\271\2753\354e\035\037\200v\344\220\237\013"
 809      33EC651D 
 809      1F8076E4 
 809      909F0B
 810 0209 3B6CBA4E 		.ascii	";l\272N>\362c\330\247\360\250\307\265\244Q\204dg\267"
 810      3EF263D8 
 810      A7F0A8C7 
 810      B5A45184 
 810      6467B7
 811 021c C45EB0ED 		.ascii	"\304^\260\355\357\003\274\363#\300\016X\304\345\212"
 811      EF03BCF3 
 811      23C00E58 
 811      C4E58A
 812 022b 1DF9720A 		.ascii	"\035\371r\012.\271\337\215\262\342\206\317\335\247\317"
 812      2EB9DF8D 
 812      B2E286CF 
 812      DDA7CF
 813 023a E08EED14 		.ascii	"\340\216\355\024\177d?k\273\302\031\350T\022p[\3341"
ARM GAS  C:\Users\AMANRA~1\AppData\Local\Temp\ccy7qQxb.s 			page 65


 813      7F643F6B 
 813      BBC219E8 
 813      5412705B 
 813      DC31
 814 024c 31DCAD07 		.ascii	"1\334\255\007\233\3700v\032\324\013\334eY\277\212\240"
 814      9BF83076 
 814      1AD40BDC 
 814      6559BF8A 
 814      A0
 815 025d 0B4155F9 		.ascii	"\013AU\371\256T\252\236\237\353\356\377\255\356\261"
 815      AE54AA9E 
 815      9FEBEEFF 
 815      ADEEB1
 816 026c 56907626 		.ascii	"V\220v&\305\204{)\355\311\232\375C \355Z\245=\013\335"
 816      C5847B29 
 816      EDC99AFD 
 816      4320ED5A 
 816      A53D0BDD 
 817 0280 4A5B63F2 		.ascii	"J[c\362\036\252\377\010*b\271\314\315\027\205\370Y-"
 817      1EAAFF08 
 817      2A62B9CC 
 817      CD1785F8 
 817      592D
 818 0292 3AFA79C2 		.ascii	":\372y\302L\025\355\273\230\371\273\330\\Gf\021\004"
 818      4C15EDBB 
 818      98F9BBD8 
 818      5C476611 
 818      04
 819 02a3 BD7F4CD3 		.ascii	"\275\177L\323\203>%\245\256l?\247\024p\311\247\276\223"
 819      833E25A5 
 819      AE6C3FA7 
 819      1470C9A7 
 819      BE93
 820 02b5 FF039B81 		.ascii	"\377\003\233\201\373\212Mg\266\001f\313d\266\017\257"
 820      FB8A4D67 
 820      B60166CB 
 820      64B60FAF 
 821 02c5 93FFC736 		.ascii	"\223\377\3076\250\330<\314\366\000\326\317\211\032\020"
 821      A8D83CCC 
 821      F600D6CF 
 821      891A10
 822 02d4 48106A0C 		.ascii	"H\020j\014U\261\246\366\240\372\333\350\274\245e\354"
 822      55B1A6F6 
 822      A0FADBE8 
 822      BCA565EC 
 823 02e4 B15996B4 		.ascii	"\261Y\226\264\275\216\234]\317\275\303C\224\011\352"
 823      BD8E9C5D 
 823      CFBDC343 
 823      9409EA
 824 02f3 32DD0647 		.ascii	"2\335\006Gf\213q*\344\205\366,\345\316\243\232|\350"
 824      668B712A 
 824      E485F62C 
 824      E5CEA39A 
 824      7CE8
 825 0305 CFA142E7 		.ascii	"\317\241B\347\025\024X\364\024o.)*\331\026\012\256\012"
 825      151458F4 
 825      146F2E29 
ARM GAS  C:\Users\AMANRA~1\AppData\Local\Temp\ccy7qQxb.s 			page 66


 825      2AD9160A 
 825      AE0A
 826 0317 165ADB42 		.ascii	"\026Z\333B\326\346\365[\254\320\366b^\327\355\010\025"
 826      D6E6F55B 
 826      ACD0F662 
 826      5ED7ED08 
 826      15
 827 0328 15140B9D 		.ascii	"\025\024\013\235\226Rmc\251,\332\261\011[eI\250\364"
 827      96526D63 
 827      A92CDAB1 
 827      095B6549 
 827      A8F4
 828 033a 2BC033B5 		.ascii	"+\3003\265\275"
 828      BD
 829              		.text
 830              		.section	.gnu.lto_usbStallReceiveI.c3bfe3c9,"",%progbits
 831 0000 789C5552 		.ascii	"x\234UR\317k\023Q\020\236og\263\331\304\244\336e\017"
 831      CF6B1351 
 831      109E6F67 
 831      B3D9C4A4 
 831      DE650F
 832 0013 3D88A11E 		.ascii	"=\210\241\036\262\015\366\342\377\341]l\020Z\020Z\014"
 832      B20DF6E2 
 832      FFE15D6C 
 832      105A105A 
 832      0C
 833 0024 9EF3FA2B 		.ascii	"\236\363\372+i0\007\021S!,%\370\243\236\244\015m\325"
 833      69300711 
 833      53212C25 
 833      F8A39EA4 
 833      0D6DD5
 834 0037 A451D758 		.ascii	"\244Q\327X\364bk*\001\205B%\376@+\301j\017\202P\253"
 834      F4626B2A 
 834      01854225 
 834      FE402BC1 
 834      6A0F8250 
 835 004c F39208BA 		.ascii	"\363\222\010\272\354\316\2337o\276o\276\231\267\026"
 835      ECCE9B37 
 835      6FBE6FBE 
 835      99B716
 836 005b 115D3588 		.ascii	"\021]5\210\022\262\016\311\207\000\301\270\262I4a\033"
 836      12B20EC9 
 836      8700C1B8 
 836      B2493461 
 836      1B
 837 006c 86E92748 		.ascii	"\206\351'H\205\271\341\220\2120\314n\330\004\264\243"
 837      85B9E190 
 837      8A30CC6E 
 837      D804B4A3 
 838 007c 6C50DA60 		.ascii	"lP\332`\023i\344\371\032\243\220[{\035\035\270\243\324"
 838      1369E4F9 
 838      1AA3905B 
 838      7B1D1DB8 
 838      A3D4
 839 008e A4F2AFEF 		.ascii	"\244\362\257\357\234h-5\024{L4\307\204S\016\006\035"
 839      9C682D35 
 839      147B4C34 
ARM GAS  C:\Users\AMANRA~1\AppData\Local\Temp\ccy7qQxb.s 			page 67


 839      C784530E 
 839      061D
 840 00a0 4DBE8C01 		.ascii	"M\276\214\001I\335\232^\362\370\262\234\002\246l\277"
 840      49DD9A5E 
 840      F2F8B29C 
 840      02A66CBF 
 841 00b0 6F14DFF7 		.ascii	"o\024\337\367\351\255\201~\331\356n\225\233G\371$H\374"
 841      E9AD817E 
 841      D9EE6E95 
 841      9B47F924 
 841      48FC
 842 00c2 CFADF933 		.ascii	"\317\255\3713\261\333\035\316\346-V\307=f\334\003k\316"
 842      B1DB1DCE 
 842      E62D56C7 
 842      3D66DC03 
 842      6BCE
 843 00d4 55385881 		.ascii	"U8X\201C\022\"\334GL\262[\331\205\203>v;\310\267\263"
 843      431222DC 
 843      474CB25B 
 843      D985833E 
 843      763BC8B7 
 844 00e9 37F6A23D 		.ascii	"7\366\242=\350z\206U\304\023\251\017\272\320\256\034"
 844      E87A8655 
 844      C413A90F 
 844      BAD0AE1C 
 845 00f9 09102A88 		.ascii	"\011\020*\210\351\354w\345\303B\3242K]\275\"\264\012"
 845      E9EC77E5 
 845      C342D432 
 845      4B5DBD22 
 845      B40A
 846 010b 8B20CEE2 		.ascii	"\213 \316\342\253\200\257\016\177g\225\377a\001\205"
 846      AB80AF0E 
 846      7F6795FF 
 846      610185
 847 011a 4F760482 		.ascii	"Ov\004\202\013\030b,\326\306\324\333\2006\226\030\012"
 847      0B18622C 
 847      D6C6D4DB 
 847      80369618 
 847      0A
 848 012b 414B09A3 		.ascii	"AK\011\243\303K\263B%\243R>\345\330\320\336\224O_0Y"
 848      C34BB342 
 848      25A3523E 
 848      E5D8D0DE 
 848      944F5F30 
 849 0140 DDAD2D3B 		.ascii	"\335\255-;\272B\221!\265\347f\352/\203\272}\356\010"
 849      BA429121 
 849      B5E766EA 
 849      2F83BA7D 
 849      EE08
 850 0152 AFD5379E 		.ascii	"\257\3257\236Y%\314O(\245\372=\016\0269\2045\351S\237"
 850      5925CC4F 
 850      28A5FA3D 
 850      0E163984 
 850      35E9539F 
 851 0166 35B36F76 		.ascii	"5\263ov\216\270wU\367\310F\015%\024\264^\302C\270\232"
 851      8EB87755 
 851      F7C8460D 
ARM GAS  C:\Users\AMANRA~1\AppData\Local\Temp\ccy7qQxb.s 			page 68


 851      2514B45E 
 851      C243B89A 
 852 017a 7B3F8B2E 		.ascii	"{?\213.\263Q\344\260\004\246\276ez\001}G+\353\3173\266"
 852      B351E4B0 
 852      04A6BE65 
 852      7A017D47 
 852      2BEBCF33 
 853 018f 2E650178 		.ascii	".e\001x\004G\322\376\003\231\222\246A\007\177A\001\221"
 853      0447D2FE 
 853      039992A6 
 853      41077F41 
 853      0191
 854 01a1 2861FA88 		.ascii	"(a\372\210\351\355\247C\275\230\020-\266+?\243\232("
 854      E9EDA743 
 854      BD98102D 
 854      B62B3FA3 
 854      9A28
 855 01b3 00C263AD 		.ascii	"\000\302c\255N\236\234\200\033\216\364\330\306L\351"
 855      4E9E9C80 
 855      1B8EF4D8 
 855      C64CE9
 856 01c2 E666A233 		.ascii	"\346f\2423DI\256T\332\333\301\364/e{\034\232\223&\011"
 856      4449AE54 
 856      DADBC1F4 
 856      2F657B1C 
 856      9A932609 
 857 01d6 3ED2247D 		.ascii	">\322$}\211DOTj\244\331\033\317W\030rbI\354\007,\301"
 857      89444F54 
 857      6AA4D91B 
 857      CF571872 
 857      6249EC07 
 858 01ec AE665F94 		.ascii	"\256f_\224\303\272\020\211\342'p\214\352^\336\371wh"
 858      C3BA1089 
 858      E227708C 
 858      EA5EDEF9 
 858      7768
 859 01fe 724BA8C3 		.ascii	"rK\250\303\341\352~\376\230\014\034\232G~\347X<\356"
 859      E1EA7EFE 
 859      980C1C9A 
 859      477EE758 
 859      3CEE
 860 0210 CA9B1C19 		.ascii	"\312\233\034\031\035\036\035K%N'\006\335\261\224;r\356"
 860      1D1E1D4B 
 860      254E2706 
 860      DDB1943B 
 860      72EE
 861 0222 829BBA98 		.ascii	"\202\233\272\230\324\353\331K\251\341x\222LY\306\215"
 861      D4EBD94B 
 861      A9E17892 
 861      4C59C68D 
 862 0232 F3E37F00 		.ascii	"\363\343\177\000\036 \333\333"
 862      1E20DBDB 
 863              		.text
 864              		.section	.gnu.lto_usbStallTransmitI.c3bfe3c9,"",%progbits
 865 0000 789C5552 		.ascii	"x\234UR\317k\023Q\020\236og\263\331\304\244\336e\017"
 865      CF6B1351 
 865      109E6F67 
ARM GAS  C:\Users\AMANRA~1\AppData\Local\Temp\ccy7qQxb.s 			page 69


 865      B3D9C4A4 
 865      DE650F
 866 0013 3D08A11E 		.ascii	"=\010\241\036\262\015\366\342\377\341]l\020Z\020Z\014"
 866      B20DF6E2 
 866      FFE15D6C 
 866      105A105A 
 866      0C
 867 0024 9EF3FA2B 		.ascii	"\236\363\372+i0\007\021\023!,%\210\326\223\264\241\255"
 867      69300711 
 867      13212C25 
 867      88D693B4 
 867      A1AD
 868 0036 9AB6EA1A 		.ascii	"\232\266\352\032E/\255M\245\240\264\242D\221Z\211?\017"
 868      452FAD4D 
 868      A5A0B4A2 
 868      44915A89 
 868      3F0F
 869 0048 4AB146E7 		.ascii	"J\261F\347%\021t\331\2357o\336|\337|3o-\"\272d\020%"
 869      251174D9 
 869      9D376FDE 
 869      7CDF7C33 
 869      6F2D22BA 
 870 005f 641D900F 		.ascii	"d\035\220\017\001\202q\361)\321\230m\030\246\237 \025"
 870      018271F1 
 870      29D1986D 
 870      18A69F20 
 870      15
 871 0070 E6BA432A 		.ascii	"\346\272C*\3020;a\023\320\216\262Ai\203M\244\221\347"
 871      C2303B61 
 871      13D08EB2 
 871      4169834D 
 871      A491E7
 872 0083 CB8C426E 		.ascii	"\313\214Bn\345y\264\357\206R\343\312\277R\2175\346\353"
 872      E579B4EF 
 872      8652E3CA 
 872      BF528F35 
 872      E6EB
 873 0095 8A3D262A 		.ascii	"\212=&*2\341\270\203~G\223/\240OR7'\347=\276 \247\200"
 873      32E1B883 
 873      7E47932F 
 873      A04F5237 
 873      27E73DBE 
 874 00ac 29DBAFEB 		.ascii	")\333\257\353\245\267=zk\240W\266{\233\225\255\303|"
 874      A5B73D7A 
 874      6BA057B6 
 874      7B9B95AD 
 874      C37C
 875 00be 0C24FEFB 		.ascii	"\014$\376\373\306\314\311\330\3656\347\313k\254\216"
 875      C6CCC9D8 
 875      F536E7CB 
 875      6BAC8E
 876 00cd 7ACCB805 		.ascii	"z\314\270\005\326\234Kp\260\010\207$D\270\215\230d7"
 876      D69C4B70 
 876      B0088724 
 876      44B88D98 
 876      6437
 877 00df B2B3073D 		.ascii	"\262\263\007=\354\266\221\257\247\257~\216v\241k\031"
ARM GAS  C:\Users\AMANRA~1\AppData\Local\Temp\ccy7qQxb.s 			page 70


 877      ECB691AF 
 877      A7AF7E8E 
 877      76A16B19 
 878 00ef 56114FA4 		.ascii	"V\021O\244\336\351@;r$@\250\"\246\263\337TZ\205\250"
 878      DEE9403B 
 878      722440A8 
 878      22A6B3DF 
 878      545A85A8 
 879 0103 65963B7A 		.ascii	"e\226;zE\3502,\2028s\317\002\276j\375\316*\2779\213"
 879      45E8322C 
 879      823873CF 
 879      02BE6AFD 
 879      CE2ABF39 
 880 0118 1FBB7604 		.ascii	"\037\273v\004\202\013\030b,\326\306\324\333\2006\226"
 880      820B1862 
 880      2CD6C6D4 
 880      DB803696 
 881 0128 180A414B 		.ascii	"\030\012AK\011\243\315K\323B%\243R>\345\330\320\336"
 881      09A3CD4B 
 881      D34225A3 
 881      523EE5D8 
 881      D0DE
 882 013a 844F1F30 		.ascii	"\204O\0370\276\274\367q\301\321\025J\014\251]\234\252"
 882      BEBCF771 
 882      C1D1154A 
 882      0CA95D9C 
 882      AA
 883 014b 6D0475FB 		.ascii	"m\004u\373\334\026\276Z[\177l\22513\246\224\352\365"
 883      DC16BE5A 
 883      5B7F6C95 
 883      3133A694 
 883      EAF5
 884 015d 3858E210 		.ascii	"8X\342\020V\244O}\266\225}\361\352\220{Su\216l\254\242"
 884      56A44F7D 
 884      B6957DF1 
 884      EA907B53 
 884      758E6CAC 
 885 0172 8C82D64B 		.ascii	"\214\202\326K\270\013Ws\177\313\242\303l\2248,\201\211"
 885      B80B5773 
 885      7FCBA2C3 
 885      6C94382C 
 885      8189
 886 0184 2F996E40 		.ascii	"/\231n@\337\321\342\243'\031[\227\262\000\334\203#i"
 886      DFD1E2A3 
 886      27195B97 
 886      B200DC83 
 886      2369
 887 0196 FF814C49 		.ascii	"\377\201LI\323\240\203\277\240\200H\2240\275\303\344"
 887      D3A083BF 
 887      A0804894 
 887      30BDC3E4 
 888 01a6 CEC3816E 		.ascii	"\316\303\201nL\210\346\232\325\375\250&\012\200p_\253"
 888      4C88E69A 
 888      D5FDA826 
 888      0A80705F 
 888      AB
 889 01b7 932727E0 		.ascii	"\223''\340\272#=61U\336\335H\264\207(\311\325js'\230"
ARM GAS  C:\Users\AMANRA~1\AppData\Local\Temp\ccy7qQxb.s 			page 71


 889      BA233D36 
 889      3155DEDD 
 889      48B48728 
 889      C9D56A73 
 890 01cd FEA56C8F 		.ascii	"\376\245l\217CEi\222\340#M\322\227H\364D\245F\232\335"
 890      43456992 
 890      E0234DD2 
 890      9748F444 
 890      A5469ADD 
 891 01e1 F17C8221 		.ascii	"\361|\202!'\226\304\276\303\022\354Rv\255\022\326\205"
 891      2796C4BE 
 891      C312EC52 
 891      76AD12D6 
 891      85
 892 01f2 48143F80 		.ascii	"H\024?\200cl\377\314;\377\016Mn\01158\274\335\312\037"
 892      636CFFCC 
 892      3BFF0E4D 
 892      6E093538 
 892      BCDDCA1F 
 893 0206 918143F3 		.ascii	"\221\201C\363\310\357\034\213\307]y\223C\303\203\303"
 893      C8EF1C8B 
 893      C75D7993 
 893      43C383C3 
 894 0216 23A9C489 		.ascii	"#\251\304\211D\277;\222r\207N\237uS\347\222z=u>5\030"
 894      44BF3B92 
 894      72874E9F 
 894      7553E792 
 894      7A3D753E 
 895 022c 4F9229CB 		.ascii	"O\222)\313\250qf\364\017y\313\335\026"
 895      A87166F4 
 895      0F79CBDD 
 895      16
 896              		.text
 897              		.section	.gnu.lto_usbWakeupHost.c3bfe3c9,"",%progbits
 898 0000 789C4550 		.ascii	"x\234EPAK\033A\024~\337\276\331\315\242\265%w\0179\010"
 898      414B1B41 
 898      147EDFBE 
 898      D9CDA2B5 
 898      25770F39 
 899 0015 410FD94A 		.ascii	"A\017\331J\275\024\374\031\275\213\346\222@@i\3509c"
 899      BD14FC19 
 899      BD8BE692 
 899      404069E8 
 899      3963
 900 0027 6A89520F 		.ascii	"j\211R\017=h\332\206E\002*\236D\203F]ka\211\320\233"
 900      3D68DA86 
 900      45022A9E 
 900      4483465D 
 900      6B6189D0 
 901 003c 6D951C4A 		.ascii	"m\225\034J\013\205\264(U\203Pz\360\242\3217\253\320"
 901      0B85B428 
 901      5583507A 
 901      F0A2D137 
 901      ABD0
 902 004e C70C6FDE 		.ascii	"\307\014o\336\274\357}\363}\343\020\321\022\210R\222"
 902      BCEF7DF3 
 902      7DE310D1 
ARM GAS  C:\Users\AMANRA~1\AppData\Local\Temp\ccy7qQxb.s 			page 72


 902      12885292 
 903 005e 9FC8864D 		.ascii	"\237\310\206M\260\336|&\232t-\213/\343\244\273\324\373"
 903      B0DE7C26 
 903      9A742D8B 
 903      2FE3A4BB 
 903      D4FB
 904 0070 61D20F18 		.ascii	"a\322\017\030\312\\C\001&k\027T\260X\241\200Y\236c4"
 904      CA5C4301 
 904      266B1754 
 904      B058A180 
 904      599E6334 
 905 0084 4A2781D5 		.ascii	"J'\201\325\277\242%\302\267\376@K\177\325\3543QY\266"
 905      BFA225C2 
 905      B7FE404B 
 905      7FD5EC33 
 905      5159B6
 906 0097 096CA05F 		.ascii	"\011l\240_`\207S\353>\277\226\016\240\244\374{P\371"
 906      608753EB 
 906      3EBF960E 
 906      A0A4FC7B 
 906      50F9
 907 00a9 FDD09416 		.ascii	"\375\320\224\026\022R\236\036\326\232\217x\000$\347"
 907      12529E1E 
 907      D69A8F78 
 907      0024E7
 908 00b8 3FAD8567 		.ascii	"?\255\205g\311e\255\213:\274Zd\335\3473c\013,|\250\243"
 908      C965AD8B 
 908      3ABC5A64 
 908      DDE73363 
 908      0B2C7CA8 
 909 00cd 179BE825 		.ascii	"\027\233\350%\271\"l#i\340\277j\235\371\036G\335\275"
 909      B9226C23 
 909      69E0BF6A 
 909      9DF91E47 
 909      DDBD
 910 00df 871D3824 		.ascii	"\207\0358$\246h\355\310\016u\347\246\244\303\366\022"
 910      A668EDC8 
 910      0E75E7A6 
 910      A4C3F612 
 911 00ef 8233D781 		.ascii	"\2023\327\201\014)\033\321\024M\013V\274\350\220f\330"
 911      0C291BD1 
 911      144D0B56 
 911      BCE89066 
 911      D8
 912 0100 32A79721 		.ascii	"2\247\227!\235\241\270{\372\256\2363\024\025\2060\227"
 912      9DA1B87B 
 912      FAAE9E33 
 912      14158630 
 912      97
 913 0111 5F35BEC4 		.ascii	"_5\276\304\214F\216t\3555\016>9U,L\212\323\204\317v"
 913      8C468E74 
 913      ED350E3E 
 913      39552C4C 
 913      8AD384CF 
 914 0126 856D0422 		.ascii	"\205m\004\"\306\364\232\245o?\273\275U}\327r\260\213"
 914      C6F49AA5 
 914      6F3FBBBD 
ARM GAS  C:\Users\AMANRA~1\AppData\Local\Temp\ccy7qQxb.s 			page 73


 914      557DD772 
 914      B08B
 915 0138 2AE6A30F 		.ascii	"*\346\243\017\300\007xt\214\251\357\373C\377\231;\347"
 915      C0077874 
 915      8CA9EFFB 
 915      43FF993B 
 915      E7
 916 0149 ADF31EC3 		.ascii	"\255\363\036\303\354\300\306\236\341\220\230\021S\227"
 916      ECC0C69E 
 916      E1909811 
 916      5397
 917 0157 7151D296 		.ascii	"qQ\322\226\2576>\004\030\004\355\037\261\302\265v}\216"
 917      AF363E04 
 917      1804ED1F 
 917      B1C2B576 
 917      7D8E
 918 0169 954506E1 		.ascii	"\225E\006\341#\012$/\373\354F#\352^\375\005\212\325"
 918      230A242F 
 918      FBEC4623 
 918      EA5EFD05 
 918      8AD5
 919 017b 7FCD7834 		.ascii	"\177\315x4gbZ\300\322\261\210\222\251\224'+\235\311"
 919      67625AC0 
 919      D2B18892 
 919      A994272B 
 919      9DC9
 920 018d 8E65C7F3 		.ascii	"\216e\307\363\203O\007\037{\343y/3\232\363\362\317\323"
 920      834F071F 
 920      7BE3792F 
 920      339AF3F2 
 920      CFD3
 921 019f 268FBCC8 		.ascii	"&\217\274\310\217\245\322\244$M\334\002\244\366\232"
 921      8FA5D2A4 
 921      244DDC02 
 921      A4F69A
 922 01ae 25       		.ascii	"%"
 923              		.text
 924              		.section	.gnu.lto__usb_reset.c3bfe3c9,"",%progbits
 925 0000 789C9D94 		.ascii	"x\234\235\224\333KTA\034\307\347{\346\334vsw\313z\012"
 925      DB4B5441 
 925      1CC7E77B 
 925      E6DC7673 
 925      77CB7A0A 
 926 0014 91850AB1 		.ascii	"\221\205\012\261\007O\373\320C/\021\364/\364\036)\204"
 926      074FFBD0 
 926      432F11F4 
 926      2FF41E29 
 926      84
 927 0025 425124BD 		.ascii	"BQ$\275\364\342IM\023\015$r\0039\324FHY\204I\232m\231"
 927      F4E2494D 
 927      130D2472 
 927      0339D446 
 927      48598449 
 928 003c 9DB4ACCD 		.ascii	"\235\264\254\315\324u3\265\354f\027\251\224\242\210"
 928      D47533B5 
 928      EC6617A9 
 928      94A288
ARM GAS  C:\Users\AMANRA~1\AppData\Local\Temp\ccy7qQxb.s 			page 74


 929 004b 2022EB37 		.ascii	" \"\3537s\\]\273\0109\354\236\271\375~\237\337e~3:c"
 929      735C5DBB 
 929      0839EC9E 
 929      B9FD7E9F 
 929      DF657E33 
 930 0061 2C57676C 		.ascii	",Wgl\003\365\273\351\017\223A\251\037`\354\240\251@"
 930      03F5BBE9 
 930      0F9341A9 
 930      1F60ECA0 
 930      A940
 931 0073 F506DC1B 		.ascii	"\365\006\334\033\3344U\205\273\233\231\355\327\222!"
 931      DC345585 
 931      BB9B99ED 
 931      D79221
 932 0082 6667698A 		.ascii	"fgi\212\376<\301hj\264\2524\325ax\342\006 \006\266\011"
 932      FE3CC168 
 932      6AB4AA34 
 932      D56178E2 
 932      062006B6 
 933 0097 56A67055 		.ascii	"V\246pU\323\015\224)*\203\253B\235\377\220-V\307\217"
 933      D30D9429 
 933      2A83AB42 
 933      9DFF902D 
 933      56C78F
 934 00aa 7174574F 		.ascii	"qtWO\306\225\374365\367\370\263\365\023v\322\346\016"
 934      C695FC33 
 934      3635F7F8 
 934      B3F51376 
 934      D2E60E
 935 00bd 672CCA99 		.ascii	"g,\312\231l\270\204|\022\033\252\274\350\360Z\332\001"
 935      6CB8847C 
 935      121BAABC 
 935      E8F05ADA 
 935      01
 936 00ce 549A7EEA 		.ascii	"T\232~\352o|\025\024S\005a\232\276\033j\035\016\361"
 936      6F7C1514 
 936      5305619A 
 936      BE1B6A1D 
 936      0EF1
 937 00e0 F560347E 		.ascii	"\365`4~;qb[^\223m\227\333\356\353\323\334^\353p\216"
 937      3B71625B 
 937      5E936D97 
 937      DBEEEBD3 
 937      DC5EEB70 
 938 00f5 CBE0C443 		.ascii	"\313\340\304C;r\320\206\034FK\014\035\310\023\342M}"
 938      3B72D086 
 938      1C464B0C 
 938      1DC813E2 
 938      4D7D
 939 0107 3D5D416E 		.ascii	"=]AnI\325#\311\350%m\335i\251\333{\236;m\266]\263\305"
 939      49D523C9 
 939      E8256DDD 
 939      69A9DB7B 
 939      9E3B6DB6 
 940 011e E12AAE2C 		.ascii	"\341*\256,\324\027\215\304_\266\3164\004t\025q\254\363"
 940      D4178DC4 
 940      5FB6CE34 
ARM GAS  C:\Users\AMANRA~1\AppData\Local\Temp\ccy7qQxb.s 			page 75


 940      04741571 
 940      ACF3
 941 0130 DCC555E8 		.ascii	"\334\305U\350\014\324\213\245\226\224\346\3323?\253"
 941      0CD48BA5 
 941      9694E6DA 
 941      333FAB
 942 013f 6D77E61C 		.ascii	"mw\346\034N%\276\266\254Y\011\262\254)\364\321\011F"
 942      4E25BEB6 
 942      AC5909B2 
 942      AC29F4D1 
 942      0946
 943 0151 22942AF2 		.ascii	"\"\224*\362\"[\216\031;L\210d\310vY\015WhP\341\262\367"
 943      225B8E19 
 943      3B4C8864 
 943      C876590D 
 943      576850E1 
 944 0167 28FFF2F6 		.ascii	"(\377\362\366Z{'\004\230\014F\017u\017\032\"j.\335\355"
 944      5A7B2704 
 944      980C460F 
 944      750F1A22 
 944      6A2EDDED 
 945 017b ECEEEFD5 		.ascii	"\354\356\357\325c8q\220r\027\313u\270\321\310\015\\"
 945      63387190 
 945      7217CB75 
 945      B8D1C80D 
 945      5C
 946 018c 13FED1E6 		.ascii	"\023\376\321\346p\365\330\263e\326\005\221\327\260\303"
 946      70F5D8B3 
 946      65D60591 
 946      D7B0C3
 947 019b 4D742286 		.ascii	"Mt\"\206\006\231S\\\207%\264O\3265\373\005\314\204\202"
 947      0699535C 
 947      8725B44F 
 947      D635FB05 
 947      CC8482
 948 01ae 2ED292D6 		.ascii	".\322\222\326\272\346\255\375\007\336\207\033\022\017"
 948      BAE6ADFD 
 948      07DE871B 
 948      120F
 949 01bc 8177257E 		.ascii	"\201w%~\316W\037\030n\246\3617\226\204\367\243[\342"
 949      CE571F18 
 949      6EA6F137 
 949      9684F7A3 
 949      5BE2
 950 01ce 1581EF59 		.ascii	"\025\201\357Y\210\367\023\376V\032\177w\211\370\333"
 950      88F713FE 
 950      561A7F77 
 950      89F8DB
 951 01dd 122F8FB0 		.ascii	"\022/\217\260\027\326</\261\304l\334\221<Q\344\270K"
 951      17D63C2F 
 951      B1C46CDC 
 951      913C51E4 
 951      B84B
 952 01ef BCB9F0EF 		.ascii	"\274\271\360\357-\221\227\220<M\360\356\315\362&Q\036"
 952      2D919790 
 952      3C4DF0EE 
 952      CDF22651 
ARM GAS  C:\Users\AMANRA~1\AppData\Local\Temp\ccy7qQxb.s 			page 76


 952      1E
 953 0200 EB1839C5 		.ascii	"\353\0309\305\005N\324\017i\265L\307\277\005DNT\312"
 953      054ED40F 
 953      69B54CC7 
 953      BF05444E 
 953      54CA
 954 0212 499FACD3 		.ascii	"I\237\254\323\032\012\312\335\234.\245\251\366\263\177"
 954      1A0ACADD 
 954      9C2EA5A9 
 954      F6B37F
 955 0221 35BF932D 		.ascii	"5\277\223-j\177\031\356K\373\272W\366\275\037'\372\324"
 955      6A7F19EE 
 955      4BFBBA57 
 955      F6BD1F27 
 955      FAD4
 956 0233 488BD88C 		.ascii	"H\213\330\214\035px\026\372a5r\257\264\006\020\311<"
 956      1D707816 
 956      FA613572 
 956      AFB40610 
 956      C93C
 957 0245 9C2C7264 		.ascii	"\234,rdP\006_\021\255z\372\250j\243\260\336\310\263"
 957      50065F11 
 957      AD7AFAA8 
 957      6AA3B0DE 
 957      C8B3
 958 0257 499CC4DA 		.ascii	"I\234\304\332n\335\2512=\177\201\244\027S8\035\017I"
 958      6EDDA932 
 958      3D7F81A4 
 958      1753381D 
 958      0F49
 959 0269 49FF5546 		.ascii	"I\377UF\257\011\0050\011\205y\353\234\275A\345`O\216"
 959      AF090530 
 959      098579EB 
 959      9CBD41E5 
 959      604F8E
 960 027c C7926FC8 		.ascii	"\307\222o\310\347\213g\262<\020\275\024\336\005\375"
 960      E78B67B2 
 960      3C10BD14 
 960      DE05FD
 961 028b 4A43CA81 		.ascii	"JC\312\201\222\022\366xj5\241\264\214[\365\361\037\251"
 961      9212F678 
 961      6A35A1B4 
 961      8C5BF5F1 
 961      1FA9
 962 029d 58FC2402 		.ascii	"X\374$\002H\311L\030\"\326\007\013\0131@\261\016\223"
 962      48C94C18 
 962      22D6070B 
 962      0B3140B1 
 962      0E93
 963 02af D6342A63 		.ascii	"\3264*cS\243\021\371\026\320~<>=n\224\375\260M\207\007"
 963      53A311F9 
 963      16D07E3C 
 963      3E3D6E94 
 963      FDB04D87 
 964 02c4 A3E282E0 		.ascii	"\243\342\202\340!\312\030\231pxH\270r\265\371\307lV"
 964      21CA1899 
 964      707848B8 
ARM GAS  C:\Users\AMANRA~1\AppData\Local\Temp\ccy7qQxb.s 			page 77


 964      72B5F9C7 
 964      6C56
 965 02d6 F09B2FE1 		.ascii	"\360\233/\341E]\3210\"]1\205+\243\260$\313\347\221\224"
 965      455DD130 
 965      225D3185 
 965      2BA3B024 
 965      CBE79194 
 966 02ea 4CBFB43F 		.ascii	"L\277\264?\336\012\322^N\34606\013\376T{t\014\004\256"
 966      DE0AD25E 
 966      4EE63036 
 966      0BFE547B 
 966      740C04AE 
 967 02fe 975B2BF0 		.ascii	"\227[+\360H\202}\002\374\230\300\224\355\361\255\177"
 967      48827D02 
 967      FC98C094 
 967      EDF1AD7F 
 968 030e 016753C0 		.ascii	"\001gS\300\343\263\257a\015\025\307\213 %w\032\207\344"
 968      E3B3AF61 
 968      0D15C78B 
 968      2025771A 
 968      87E4
 969 0320 1152848A 		.ascii	"\021R\204\212\2102S\201\336?<A\216\303WI\015\303;\216"
 969      88325381 
 969      DE3F3C41 
 969      8EC35749 
 969      0DC33B8E 
 970 0334 0F54C8DF 		.ascii	"\017T\310\337GWH%\321\016S\222\222!\272\352y\005\005"
 970      47574825 
 970      D10E5392 
 970      9221BAEA 
 970      790505
 971 0347 16FD8A8A 		.ascii	"\026\375\212\212K\012K\366\224F6E6X{J\255\342\035\273"
 971      4B0A4BF6 
 971      94463645 
 971      36587B4A 
 971      ADE21DBB 
 972 035b ACD27D45 		.ascii	"\254\322}E\242\337\276\277\264\260\240\210\251\324\355"
 972      A2DFBEBF 
 972      B4B0A088 
 972      A9D4ED
 973 036a 45C92FF0 		.ascii	"E\311/\360\027\024:"
 973      17143A
 974              		.text
 975              		.section	.gnu.lto__usb_suspend.c3bfe3c9,"",%progbits
 976 0000 789C9D92 		.ascii	"x\234\235\222\317k\023A\024\307\347\273ov\273\315\017"
 976      CF6B1341 
 976      14C7E7BB 
 976      6F76BBCD 
 976      0F
 977 0011 C57B901C 		.ascii	"\305{\220\034\204P\017\273\366\340\301\263\377\202w"
 977      84500FBB 
 977      F6E0C1B3 
 977      FF8277
 978 0020 69736941 		.ascii	"isiA\250\030<w\032[\322Z\017El\205\260\015\201*\342"
 978      A8183C77 
 978      1A5BD25A 
 978      0F456C85 
ARM GAS  C:\Users\AMANRA~1\AppData\Local\Temp\ccy7qQxb.s 			page 78


 978      B00D812A 
 979 0035 4134B51A 		.ascii	"A4\265\032\233V\335F\255x\250Z\311\241\"T\343/Z[\224"
 979      9B56DD46 
 979      AD78A85A 
 979      C9A12254 
 979      E32F5A5B 
 980 004a 40CFB16F 		.ascii	"@\317\261of\013\212\024D\037\2733o\346\275\367\231\367"
 980      660B8A14 
 980      441FBB33 
 980      6FE6BDF7 
 980      99F7
 981 005c DE8C2358 		.ascii	"\336\214#XH\010\217\247\343\374\303\026\260&^\0121\344"
 981      48088FA7 
 981      E3FCC316 
 981      B0265E0A 
 981      31E4
 982 006e 5A16BD7F 		.ascii	"Z\026\275\177!\204\212\311\212\024*A\220\321\276\004"
 982      21848AC9 
 982      8A142A41 
 982      90D1BE04 
 983 007e B4A25C88 		.ascii	"\264\242\\\210A\213$\006q\211\256\020\352\205\257\363"
 983      418B2406 
 983      7189AE10 
 983      EA85AFF3 
 984 008e 56D70DC5 		.ascii	"V\327\015\305\022^\235\365\232\352\265\242\200\311S"
 984      125E9DF5 
 984      9AEAB5A2 
 984      80C953
 985 009d 248CE02E 		.ascii	"$\214\340.\272\330mu\370N@\343l\001$/[+\305O\007\364"
 985      BAD86D75 
 985      F84E40E3 
 985      6C01242F 
 985      5B2BC54F 
 986 00b3 D2429A97 		.ascii	"\322B\232\227\233\253\225\306A:\012\301\372F\263t*s"
 986      9BAB95C6 
 986      413A0AC1 
 986      FA46B374 
 986      2A73
 987 00c5 5DA9BC0A 		.ascii	"]\251\274\012wfH\035\011\210p\037\304<\334C\012sH\011"
 987      7766481D 
 987      0988701F 
 987      C43CDC43 
 987      0A734809 
 988 00d9 DE12A822 		.ascii	"\336\022\250\"\243\335?V\332\223IGF\347\341\001\034"
 988      A3DD3F56 
 988      DA934947 
 988      46E7E101 
 988      1C
 989 00ea 01566EBF 		.ascii	"\001Vn\277\261C\325\376YP\341\347k\230\376\341\306\300"
 989      B143D5FE 
 989      5950E1E7 
 989      6B98FEE1 
 989      C6C0
 990 00fc 41D2E2C1 		.ascii	"A\322\342\301&\036\034\007&^\214r\024W\245B1F\226\326"
 990      261E1C07 
 990      265E8C72 
 990      1457A542 
ARM GAS  C:\Users\AMANRA~1\AppData\Local\Temp\ccy7qQxb.s 			page 79


 990      314696D6 
 991 0110 2E84E21B 		.ascii	".\204\342\033\362\265\315\351\35264\255H\340C\246F\352"
 991      F2B5CDE9 
 991      EA3634AD 
 991      48E043A6 
 991      46EA
 992 0122 AF3A74BA 		.ascii	"\257:t\272dR\\\254\257,;e\224\206\270\350t@\035Er0\317"
 992      64525CAC 
 992      AF2C3B65 
 992      9486B8E8 
 992      74401D45 
 993 0139 79695BA3 		.ascii	"yi[\243\260\266\036\367o\251\310\344\242\2062&M/\260"
 993      B0B61EF7 
 993      6FA9C8E4 
 993      A2863226 
 993      4D2FB0
 994 014c 005FC31B 		.ascii	"\000_\303\033\027\337\332\032\375\007\250|\370/\244"
 994      17DFDA1A 
 994      FD07A87C 
 994      F82FA4
 995 015b 4543D2D5 		.ascii	"EC\322\325\341!|NL\303v6J\3259\374\017\356\321\257\304"
 995      E1217C4E 
 995      4CC37636 
 995      4AD539FC 
 995      0FEED1AF 
 996 0170 1EC36787 		.ascii	"\036\303g\207\366Vs+\251\213ta#\344(\323\210\233\325"
 996      F656732B 
 996      A98B7461 
 996      23E428D3 
 996      889BD5
 997 0183 44D407EB 		.ascii	"D\324\007\353\237\012\267\261d\370\226\346\327\243\302"
 997      9F0AB7B1 
 997      64F896E6 
 997      D7A3C2
 998 0192 6B9D1189 		.ascii	"k\235\021\211~\357\250\275_G;\3718<\331\003\267\306"
 998      7EEFA8BD 
 998      5F473BF9 
 998      383CD903 
 998      B7C6
 999 01a4 2FAF81C1 		.ascii	"/\257\201\301\023\306\024\303S\0036\327\375\214\301"
 999      13C614C3 
 999      530336D7 
 999      FD8CC1
 1000 01b3 5F30FCEE 		.ascii	"_0\374\356\344>\3408\004\2265\202e\214\335\371Q\363"
 1000      E43EE038 
 1000      04963582 
 1000      658CDDF9 
 1000      51F3
 1001 01c5 E56E6324 		.ascii	"\345nc$m^\011{\363\257\273\266\364a\266\025\327\021"
 1001      6D5E097B 
 1001      F3AFBBB6 
 1001      F461B615 
 1001      D711
 1002 01d7 09483C47 		.ascii	"\011H<G*\240\244\011\221{\357\341;\362\345\205\365C"
 1002      2AA0A409 
 1002      917BEFE1 
 1002      3BF2E585 
ARM GAS  C:\Users\AMANRA~1\AppData\Local\Temp\ccy7qQxb.s 			page 80


 1002      F543
 1003 01e9 264ACB28 		.ascii	"&J\313(w\236-\\Y\306\363|\376\262}\375\275\375\003\271"
 1003      779E2D5C 
 1003      59C6F37C 
 1003      FEB27DFD 
 1003      BDFD03B9 
 1004 01fd EE13DDC7 		.ascii	"\356\023\335\307\374\201\234\337\327s\306\317\235\313"
 1004      FC819CDF 
 1004      D773C6CF 
 1004      9DCB
 1005 020b EAF9F4F9 		.ascii	"\352\371\364\371\\\257\227\025\222\247\263\273\375i"
 1005      5CAF9715 
 1005      92A7B3BB 
 1005      FD69
 1006 0219 0886     		.ascii	"\010\206"
 1007              		.text
 1008              		.section	.gnu.lto__usb_wakeup.c3bfe3c9,"",%progbits
 1009 0000 789C9592 		.ascii	"x\234\225\222AkSA\020\307\347\277\263\3575i\023\305"
 1009      416B5341 
 1009      10C7E7BF 
 1009      B3EF3569 
 1009      13C5
 1010 0012 7B901C84 		.ascii	"{\220\034\204P\017y\366\340\301\263_\301\273\330\\Z"
 1010      500F79F6 
 1010      E0C1B35F 
 1010      C1BBD85C 
 1010      5A
 1011 0023 102A06CF 		.ascii	"\020*\006\317\335\306\226\264\326C\021[!<JD\305\223"
 1011      DDC696B4 
 1011      D643115B 
 1011      213C4A44 
 1011      C593
 1012 0035 68B01A1B 		.ascii	"h\260\032\033\253>\243\010\036\252\266\344PP,\261(\326"
 1012      AB3EA308 
 1012      1EAAB6E4 
 1012      50502CB1 
 1012      28D6
 1013 0047 064B8E5E 		.ascii	"\006K\216^\242\263\373z(R\020\207\267\273\263;3\277"
 1013      A2B3FB7A 
 1013      28521087 
 1013      B7BBB33B 
 1013      33BF
 1014 0059 9D997D3E 		.ascii	"\235\231}>\021\335TDyYO\312\200GPs\357\210&\022J\361"
 1014      11DD5444 
 1014      79594FCA 
 1014      80475073 
 1014      EF882612 
 1015 006f E65B22D3 		.ascii	"\346[\"\323\257k\232L\212\241\343s\015X\305$@\343\212"
 1015      AF6B9A4C 
 1015      8AA1E373 
 1015      0D58C524 
 1015      40E38A
 1016 0082 35C67195 		.ascii	"5\306q\225\2573\232\345o\313j\360\256\021\211n\254\007"
 1016      AF339AE5 
 1016      6FCB6AF0 
 1016      AE11896E 
 1016      AC07
ARM GAS  C:\Users\AMANRA~1\AppData\Local\Temp\ccy7qQxb.s 			page 81


 1017 0094 6DF3C170 		.ascii	"m\363\301p\310D\0132\254\340!\006\305mm\362A\310\263"
 1017      C8440B32 
 1017      ACE02106 
 1017      C56D6DF2 
 1017      41C8B3
 1018 00a7 6201B46C 		.ascii	"b\001\264l\273\253\225\255Cv\253\220\225\355\366Z\255"
 1018      BBAB95AD 
 1018      4376AB90 
 1018      95EDF65A 
 1018      AD
 1019 00b8 75988F83 		.ascii	"u\230\217\203D\377\336^<\223\273cL\311D\235[l\216\205"
 1019      44FFDE5E 
 1019      3C93BB63 
 1019      4CC9449D 
 1019      5B6C8E85 
 1020 00cc CC780C16 		.ascii	"\314x\014\026\036\036!\203%dH\216\010u\344\254\373\227"
 1020      1E1E2183 
 1020      2564488E 
 1020      0875E4AC 
 1020      FB97
 1021 00de 5A6F3EED 		.ascii	"Zo>\355\353\370><\201O\020\345\376\272\027\231\336\357"
 1021      EBF83E3C 
 1021      814F10E5 
 1021      FEBA1799 
 1021      DEEF
 1022 00f0 B2893EDD 		.ascii	"\262\211>\335Fw7\221\204\004i%\223\3072\371>\\<MK\224"
 1022      46773791 
 1022      84046925 
 1022      93C732F9 
 1022      3E5C3C4D 
 1023 0106 5465229A 		.ascii	"Te\"\232ae\265\313\021\375@\251\261\335\251/\301\322"
 1023      6165B5CB 
 1023      11FD40A9 
 1023      B1DDA92F 
 1023      C1D2
 1024 0118 2A0CB964 		.ascii	"*\014\271da\252\371\276\317\246\313.\305\225\346\352"
 1024      61AAF9BE 
 1024      CFA6CB2E 
 1024      C595E6EA 
 1025 0128 1BBF8AC5 		.ascii	"\033\277\212\305\011):\033r_\205},K^\326\326*o|\036"
 1025      09293A1B 
 1025      725F857D 
 1025      2C4B5ED6 
 1025      D62A6F7C 
 1026 013d 08EE99D8 		.ascii	"\010\356\231\330\224@\003U\314\273^\340)\002\013o]\371"
 1026      94400355 
 1026      CCBB5EE0 
 1026      29020B6F 
 1026      5DF9
 1027 014f C516FD17 		.ascii	"\305\026\375\027\250z\364\037\244\025G\262\325\341\031"
 1027      A87AF41F 
 1027      A41547B2 
 1027      D5E119
 1028 015e 02492CCE 		.ascii	"\002I,\316t\267\236\212\023U\377\225\231\207\347\216"
 1028      74B79E8A 
 1028      1355FF95 
 1028      9987E78E 
ARM GAS  C:\Users\AMANRA~1\AppData\Local\Temp\ccy7qQxb.s 			page 82


 1029 016e A72CEF45 		.ascii	"\247,\357E\234Y#\031\223x\177\311\336A%'\345:D{\340"
 1029      9C592319 
 1029      93787FC9 
 1029      DE412527 
 1029      E53A447B 
 1030 0183 EEECB50D 		.ascii	"\356\354\265\015\010x\316\231\372\361\322\201\335{4"
 1030      0878CE99 
 1030      FAF1D281 
 1030      DD7B34
 1031 0192 05FC1593 		.ascii	"\005\374\025\223\037O\037\000\036\000\341\225E\210\314"
 1031      1F4F1F00 
 1031      1E00E195 
 1031      4588CC
 1032 01a1 88BBFC75 		.ascii	"\210\273\374u\322\375\016\246\262\356\031\305[\206\355"
 1032      D2FD0EA6 
 1032      B2EE19C5 
 1032      5B86ED
 1033 01b0 526FA7BD 		.ascii	"Ro\247\275\223\266\021)xx\215L\310i\027\242\367\036"
 1033      93B61129 
 1033      78788D4C 
 1033      C86917A2 
 1033      F71E
 1034 01c2 EC274AD5 		.ascii	"\354'J\325\255\315#.\312\312\264\264F,RY.\237\017\344"
 1034      ADCD232E 
 1034      CACAB4B4 
 1034      462C5259 
 1034      2E9F0FE4 
 1035 01d6 2B8C8C0E 		.ascii	"+\214\214\016\217\216\025\207N\015\235\010\306\212\301"
 1035      8F8E1587 
 1035      4E0D9D08 
 1035      C68AC1
 1036 01e5 C8B9F341 		.ascii	"\310\271\363A\361b\301\256g/\025\207\363\005\322\262"
 1036      F162C1AE 
 1036      672F1587 
 1036      F305D2B2 
 1037 01f5 5CF8033D 		.ascii	"\\\370\003=p\351\353"
 1037      70E9EB
 1038              		.text
 1039              		.section	.gnu.lto__usb_ep0setup.c3bfe3c9,"",%progbits
 1040 0000 789CA55A 		.ascii	"x\234\245Z{T\225U\026\377\366w\356\213{y\\\256\3264"
 1040      7B549555 
 1040      16FFF677 
 1040      EE8B7B79 
 1040      5CAED634 
 1041 0014 A546534A 		.ascii	"\245FSJ:\306\0253\313\246\227\361\317\314\037\315\232"
 1041      3AC61533 
 1041      CBA697F1 
 1041      CFCC1FCD 
 1041      9A
 1042 0025 55F37F53 		.ascii	"U\363\177Sd#ki\030\324L\255Yk\272\002\212\257HK\021"
 1042      64236B69 
 1042      18D44CAD 
 1042      596BBA02 
 1042      8AAF484B 
 1043 003a F186F8C8 		.ascii	"\361\206\370\310\024E\324\314\274 \212\240\370\004\225"
 1043      1445D4CC 
 1043      BC208AA0 
ARM GAS  C:\Users\AMANRA~1\AppData\Local\Temp\ccy7qQxb.s 			page 83


 1043      F80495
 1044 0049 C87C94E6 		.ascii	"\310|\224\346\003\024E05\005y8{\237s\356w\337\367r\031"
 1044      03144530 
 1044      35057938 
 1044      7B9F73EE 
 1044      77DFF772 
 1045 005e 961EBEEF 		.ascii	"\226\036\276\357\234\263\177\373\234\275\367\331\277"
 1045      9CB37FFB 
 1045      9CBDF7D9 
 1045      BF
 1046 006b 7DBE8541 		.ascii	"}\276\205AQ\024\375XE\231\004\212\302\360?<\240\200"
 1046      5114FD58 
 1046      4599048A 
 1046      C2F03F3C 
 1046      A080
 1047 007d BAB05151 		.ascii	"\272\260QQf\232T\225\315IV\034f\035\265\261\014t\242"
 1047      669A5495 
 1047      CD49561C 
 1047      661DB5B1 
 1047      0C74A2
 1048 0090 5BA71A16 		.ascii	"[\247\032\026\350\261[\237wP\301~\275j\340\343\026>"
 1048      E8B15B9F 
 1048      7750C17E 
 1048      BD6AE0E3 
 1048      163E
 1049 00a2 D7A09AF8 		.ascii	"\327\240\232\370o#\3573\21279fRc\316\221\210\331\274"
 1049      6F23EF33 
 1049      8A373966 
 1049      5263CE91 
 1049      88D9BC
 1050 00b5 45879D31 		.ascii	"E\207\2351`\026\200f\030*\036,j,\237\030\307\205b!N"
 1050      60168066 
 1050      182A1E2C 
 1050      6A2C9F18 
 1050      C7856221 
 1051 00ca 74C7A9F1 		.ascii	"t\307\251\361\013\207aw\242c<v\307\253\011|\222\225"
 1051      0B876177 
 1051      A2633C76 
 1051      C7AB097C 
 1051      9295
 1052 00dc 4F4A70CB 		.ascii	"OJp\313Z\335\017\211\252\255\353q\034\037R4\006\307"
 1052      5ADD0F89 
 1052      AAADEB71 
 1052      1C1F5234 
 1052      06C7
 1053 00ee 6DEEEE21 		.ascii	"m\356\356!\356\207\241\000\364\3400\201\362\211\312"
 1053      EE87A100 
 1053      F4E03081 
 1053      F289CA
 1054 00fd 747A83D1 		.ascii	"tz\203\321\024c\266\304\306\305'X\023mC\206\302'\260"
 1054      1463B6C4 
 1054      C6C52758 
 1054      136D4386 
 1054      C227B0
 1055 0110 802D6650 		.ascii	"\200-fP\233\337\352RG\177\355\300\237\232\245E\343\317"
 1055      9BDFEA52 
 1055      477FEDC0 
ARM GAS  C:\Users\AMANRA~1\AppData\Local\Temp\ccy7qQxb.s 			page 84


 1055      9F9AA545 
 1055      E3CF
 1056 0122 3B8E3998 		.ascii	";\2169\230\223)J!\376\247\037\370\006F\343\264\343y"
 1056      93294A21 
 1056      FEA71FF8 
 1056      0646E3B4 
 1056      E379
 1057 0134 9B9D6C3E 		.ascii	"\233\235l>\216\000\350\360\365\327\206\342\213\361\364"
 1057      8E00E8F0 
 1057      F5D786E2 
 1057      8BF1F4
 1058 0143 AA4212BE 		.ascii	"\252B\022\276\266\035\337\322\234\300\306\200\202\317"
 1058      B61DDFD2 
 1058      9CC0C680 
 1058      82CF
 1059 0151 57CE97FC 		.ascii	"W\316\227\374=\371+\207#\307Q\323\273\2329\236p2\006"
 1059      3DF92B87 
 1059      23C751D3 
 1059      BB9A399E 
 1059      703206
 1060 0164 DB81211E 		.ascii	"\333\201!\036|\013\303`\033\014S\260K\201\357 \031g"
 1060      7C0BC360 
 1060      1B0C53B0 
 1060      4B81EF20 
 1060      1967
 1061 0176 9FCF5FDB 		.ascii	"\237\317_\333\033\317\354\\\362\334\234U\235qR\264}"
 1061      1BCFEC5C 
 1061      F2DC9C55 
 1061      9D7152B4 
 1061      7D
 1062 0187 1673C43A 		.ascii	"\026s\304:\231\016v\010\321\247\207\3018\022\324)\340"
 1062      990E7608 
 1062      D1A787C1 
 1062      3812D429 
 1062      E0
 1063 0198 82649ABD 		.ascii	"\202d\232\275\250\276ec\014\033\317%\177\\\334\276\325"
 1063      A8BE6563 
 1063      0C1BCF25 
 1063      7F5CDCBE 
 1063      D5
 1064 01a9 38723597 		.ascii	"8r5\227\3548\300\212\2679\034s_q2=T\372*\246\037\234"
 1064      EC38C08A 
 1064      B7391C73 
 1064      5F71323D 
 1064      54FA2AA6 
 1065 01bf 7E614BFF 		.ascii	"~aK\377\2228\203\016\252`\244\330'\354\004\203\202A"
 1065      9238830E 
 1065      AA60A4D8 
 1065      27EC0483 
 1065      8241
 1066 01d1 61A02E9C 		.ascii	"a\240.\234\260\357\376\335\232\004\261[\025_\233n\034"
 1066      B0EFFEDD 
 1066      9A04B15B 
 1066      155F9B6E 
 1066      1C
 1067 01e2 F9D22276 		.ascii	"\371\322\"vk\305\327]\005}\333Ml\"\327\\7\273\354f\202"
 1067      6BC5D75D 
ARM GAS  C:\Users\AMANRA~1\AppData\Local\Temp\ccy7qQxb.s 			page 85


 1067      057DDB4D 
 1067      6C22D75C 
 1067      37BBEC66 
 1068 01f7 D4DC5ACF 		.ascii	"\324\334Z\317\2269jr\222\234\314\000\273\205\342]\250"
 1068      96396A72 
 1068      929CCC00 
 1068      BB85E25D 
 1068      A8
 1069 0208 B85A2A86 		.ascii	"\270Z*\206\032\216\275\177u\363;l\022\027^s\252y\224"
 1069      1A8EBD7F 
 1069      75F33B6C 
 1069      12175E73 
 1069      AA7994
 1070 021b 94BDD337 		.ascii	"\224\275\3237bU\256\343\200C\347dF\330\023\270j\250"
 1070      6255AEE3 
 1070      8043E764 
 1070      46D813B8 
 1070      6AA8
 1071 022d E5C25567 		.ascii	"\345\302Ug~l6\263\027\271t{\323\017]&)\336\337e]-\305"
 1071      7E6C36B3 
 1071      17B9747B 
 1071      D30F5D26 
 1071      29DEDF65 
 1072 0244 4D501744 		.ascii	"MP\027D|/\027\367\0269\006a\246\357\343\323\243Y_=\214"
 1072      7C2F17F7 
 1072      16390661 
 1072      A6EFE3D3 
 1072      A3595F3D 
 1073 0259 AC68D2D7 		.ascii	"\254h\322\3278\372\357\347\243%\016\300\242\206\326"
 1073      38FAEFE7 
 1073      A3250EC0 
 1073      A286D6
 1074 0268 9F1EFF07 		.ascii	"\237\036\377\007\240\313bTl\314\014\033\213\016\233"
 1074      A0CB6254 
 1074      6CCC0C1B 
 1074      8B0E9B
 1075 0277 583D3671 		.ascii	"X=6q\006l\342\215\364d\242\201\030l\022\314\330X-4\020"
 1075      066CE28D 
 1075      F464A281 
 1075      186C12CC 
 1075      D8582D34 
 1076 028c 8B4D621C 		.ascii	"\213Mb\034\275\306ccK\240'+5\211\364j\243\247G\200\""
 1076      BDC66363 
 1076      4BA0272B 
 1076      3589F46A 
 1076      A3A74780 
 1077 02a1 68385038 		.ascii	"h8P8\214$\231Q\0129o,=>\205\315\220\024j\354\330\014"
 1077      8C249951 
 1077      0A396F2C 
 1077      3D3E85CD 
 1077      90146AEC 
 1078 02b7 1D474D2A 		.ascii	"\035GM*5\343\271\023\236\306\307\007&P\363\0146\017"
 1078      35E3B913 
 1078      9EC6C707 
 1078      2650F30C 
 1078      360F
 1079 02c9 4EE4C67D 		.ascii	"N\344\306}\226\336\237\243f\022u>\317M\366'z\177\201"
ARM GAS  C:\Users\AMANRA~1\AppData\Local\Temp\ccy7qQxb.s 			page 86


 1079      96DE9FA3 
 1079      6612753E 
 1079      CF4DF627 
 1079      7A7F81
 1080 02dc 9A17A9F3 		.ascii	"\232\027\251\363%n\230\227\351\375\025j&S\347\253|\357"
 1080      256E9897 
 1080      E9FD156A 
 1080      2653E7AB 
 1080      7CEF
 1081 02ee 69A45751 		.ascii	"i\244WQ\346`4\341\251s\324(s\231JO\2715\312U\310\251"
 1081      E66034E1 
 1081      A973D428 
 1081      73994A4F 
 1081      B935CA55 
 1082 0304 6C5BE69A 		.ascii	"l[\346\232FAV\314\000\355Z8\253\366\250\221\342\211"
 1082      464156CC 
 1082      00ED5A38 
 1082      ABF6A891 
 1082      E289
 1083 0316 7147EEAC 		.ascii	"qG\356\254m\2507\224B\311L<\203\030<\277+f\217\300~"
 1083      6DA83794 
 1083      42C94C3C 
 1083      83183CBF 
 1083      2B668FC0 
 1084 032b B22B8E35 		.ascii	"\262+\2165\347\237<k\261\227;\304\320Cp\000Ja\011?\232"
 1084      E79F3C6B 
 1084      B1973BC4 
 1084      D0437000 
 1084      4A61093F 
 1085 0340 7010EC4A 		.ascii	"p\020\354J\013\344\235\251\233\020\004\371!P\340\220"
 1085      0BE49DA9 
 1085      9B1004F9 
 1085      2150E090 
 1086 0350 F4CD5C3C 		.ascii	"\364\315\\<ns\222\305Jn_)qm\006\022\360S\\\372\256\022"
 1086      6E7392C5 
 1086      4A6E5F29 
 1086      716D0612 
 1086      F0535CFA 
 1087 0366 41F5618F 		.ascii	"A\365a\217\352#`\227\350s\361Dj\333\274\227_\276d?\210"
 1087      EA236097 
 1087      E873F144 
 1087      6ADBBC97 
 1087      5FBE643F 
 1088 037b D5A8516D 		.ascii	"\325\250Qm\354\367\320\300\321A\034\320\015\015W\317"
 1088      ECF7D0C0 
 1088      D1411CD0 
 1088      0D0D57CF 
 1089 038b 1A3EE993 		.ascii	"\032>\351\223\203fh\304\255*p\024>Q\332av\022?\2558"
 1089      836668C4 
 1089      AD2A7014 
 1089      3E51DA61 
 1089      76123FAD 
 1090 03a0 CBE56A3F 		.ascii	"\313\345j?c\304Y&'{\270\220\347\364c8\003\225\024\263"
 1090      63C45926 
 1090      277BB890 
 1090      E7F46338 
 1090      039514B3 
ARM GAS  C:\Users\AMANRA~1\AppData\Local\Temp\ccy7qQxb.s 			page 87


 1091 03b4 E1B80027 		.ascii	"\341\270\000'{D\330\276\3025C\254\211E\265&\013\034"
 1091      7B44D8BE 
 1091      C23543AC 
 1091      8945B526 
 1091      0B1C
 1092 03c6 E76B5269 		.ascii	"\347kRi\307M\270\002\002;8V@\351\274\215m\011\346\306"
 1092      C74DB802 
 1092      023B3856 
 1092      40E9BC8D 
 1092      6D09E6C6 
 1093 03da 61A80FBE 		.ascii	"a\250\017\276\227\310\277\316\377\374$ \362B>4\034\232"
 1093      97C8BFCE 
 1093      FFFC2420 
 1093      F2423E34 
 1093      1C9A
 1094 03ec 39324F3D 		.ascii	"92O=?\0107\236v\273\321\007y\004\272\361\204\346F\275"
 1094      3F08379E 
 1094      76BBD107 
 1094      7904BAF1 
 1094      84E646BD 
 1095 0400 825484A6 		.ascii	"\202T\204\246n\207\274\322\213-\213\230\020\320\243"
 1095      6E87BCD2 
 1095      8B2D8B98 
 1095      10D0A3
 1096 040f 0CEDDAC9 		.ascii	"\014\355\332\311\036\025\361\320\177(\367a9\344\215"
 1096      1E15F1D0 
 1096      7F28F761 
 1096      39E48D
 1097 041e 1587583F 		.ascii	"\025\207X?jX\006\245q\264\360\332\256\266j\327\016\351"
 1097      6A5806A5 
 1097      71B4F0DA 
 1097      AEB66AD7 
 1097      0EE9
 1098 0430 B580A8F8 		.ascii	"\265\200\250\370o\370\250\370=\234\364\366\333\367\205"
 1098      6FF8A8F8 
 1098      3D9CF4F6 
 1098      DBF785
 1099 043f BF9D34A4 		.ascii	"\277\2354\244V\320`i%8Y\022\234\302H\031\303u\302iH"
 1099      56D06069 
 1099      25385912 
 1099      9CC24819 
 1099      C375C269 
 1100 0454 4575B9BD 		.ascii	"Eu\271\275\006\\l\232P\225Suj\021\317\263\361\360\213"
 1100      065C6C9A 
 1100      50955375 
 1100      6A11CFB3 
 1100      F1F08B
 1101 0467 02675005 		.ascii	"\002gP\005\337\300^\271\2324\234R\321\356\352\216\023"
 1101      DFC05EB9 
 1101      9A349C52 
 1101      D1EEEA8E 
 1101      13
 1102 0478 5314F849 		.ascii	"S\024\370I[\276Q\271<TZ\242\247e\245\264\204\3217(b"
 1102      5BBE51B9 
 1102      3C545AA2 
 1102      A765A5B4 
 1102      84D13728 
ARM GAS  C:\Users\AMANRA~1\AppData\Local\Temp\ccy7qQxb.s 			page 88


 1103 048d 0BC977F0 		.ascii	"\013\311w\360\263\010\012\315<\035\207s\337\225\363"
 1103      B3080ACD 
 1103      3C1D8773 
 1103      DF95F3
 1104 049c BDEC6152 		.ascii	"\275\354aR\226?\312\001g\225V\264\276\037$\304\036+"
 1104      963FCA01 
 1104      679556B4 
 1104      BE1F24C4 
 1104      1E2B
 1105 04ae 247FC159 		.ascii	"$\177\301Y\201\346mX\035\256\354\034\014s\262?p\361"
 1105      81E66D58 
 1105      1DAEEC1C 
 1105      0C73B23F 
 1105      70F1
 1106 04c0 2DAD105C 		.ascii	"-\255\020\\\\\207\342\277\010q\367|\012\251\365\015"
 1106      5C87E2BF 
 1106      0871F77C 
 1106      0AA9F50D 
 1107 04d0 93C4724C 		.ascii	"\223\304rLQ\206\347yOx^\220\341\031#\220b\202\206\243"
 1107      5186E779 
 1107      4F785E90 
 1107      E1192390 
 1107      628286A3 
 1108 04e4 2944383E 		.ascii	")D8>\016\0279\222\216\220.\311\254\222\346A\3226\372"
 1108      0E173992 
 1108      8E902EC9 
 1108      AC92E641 
 1108      D236FA
 1109 04f7 046EB445 		.ascii	"\004n\264E\263X\214R9\\XL\234H\234,-\323\262\256\356"
 1109      B3588C52 
 1109      395C584C 
 1109      9C489C2C 
 1109      2DD3B2AE 
 1110 050c A2990446 		.ascii	"\242\231\004F\202\001Zi\247\243\270\204Y\330\230\247"
 1110      82015A69 
 1110      A7A3B884 
 1110      59D898A7 
 1111 051c A1461973 		.ascii	"\241F\031s\376\001\367^\2444t\331\223\206\256\200\335"
 1111      FE01F75E 
 1111      A43474D9 
 1111      9386AE80 
 1111      DD
 1112 052d 5BDB43A8 		.ascii	"[\333C\250\255Mf%\213r'\005U\265BNi\305\345Ez\251iq"
 1112      AD4D6625 
 1112      8B722705 
 1112      55B5424E 
 1112      69C5E545 
 1113 0545 EB9CDF12 		.ascii	"\353\234\337\022\306\254\343\305\316\211^\26627\017"
 1113      C6ACE3C5 
 1113      CE895EB6 
 1113      32370F
 1114 0554 83D4A6C8 		.ascii	"\203\324\246\310J\347*\214\3019\227z\312+yi3$pq\025"
 1114      4AE72A8C 
 1114      C139977A 
 1114      CA2B7969 
 1114      33247071 
 1115 0569 9767822E 		.ascii	"\227g\202.\302\201h\367>\020\375W\226m\267\310\003\261"
ARM GAS  C:\Users\AMANRA~1\AppData\Local\Temp\ccy7qQxb.s 			page 89


 1115      C28168F7 
 1115      3E10FD57 
 1115      966DB7C8 
 1115      03B1
 1116 057b 4BA50371 		.ascii	"K\245\003q\035\017\3045aC\034/\230Y\336\225 \022]\351"
 1116      1D0FC435 
 1116      61431C2F 
 1116      9859DE95 
 1116      20125DE9 
 1117 058f 5A5A0B74 		.ascii	"ZZ\013t@\252\250F:1Rp\371Ir\351Gj\346V\230\331d\236"
 1117      40AAA846 
 1117      3A315270 
 1117      F94972E9 
 1117      476AE656 
 1118 05a7 697A96BA 		.ascii	"iz\226\272Zt\356\242\343\000[+\211\331\0067\202\020"
 1118      5A74EEA2 
 1118      E3005B2B 
 1118      89D90637 
 1118      8210
 1119 05b9 F3AF3092 		.ascii	"\363\2570\222v\306MQuM\325\312\237<n\205\263\215l4M"
 1119      76C64D51 
 1119      754DD5CA 
 1119      9F3C6E85 
 1119      B38D6C34 
 1120 05ce E1255021 		.ascii	"\341%P!f\030\257\362\250\206\272o\242Qo\321z\260\241"
 1120      6618AFF2 
 1120      A886BA6F 
 1120      A2516FD1 
 1120      7AB0A1
 1121 05e1 8938BEF6 		.ascii	"\2118\276\366N\367u\366\347z\276hD$\305\250\000\353"
 1121      4EF775F6 
 1121      E77ABE68 
 1121      4424C5A8 
 1121      00EB
 1122 05f3 3331F136 		.ascii	"31\3616\374\231\\\334;\317\245\247\216bF2'\316v}\021"
 1122      FC995CDC 
 1122      3BCFA5A7 
 1122      8E624632 
 1122      27CE767D 
 1123 0608 4356B5C1 		.ascii	"CV\265\301!\322\221\267\345\313R4T\011%\011\262\346"
 1123      21D291B7 
 1123      E5CB5234 
 1123      54092509 
 1123      B2E6
 1124 061a 6FB45CB8 		.ascii	"o\264\\\270\203]|\241#\270:Q0]\276V5\355?\335\322\276"
 1124      835D7CA1 
 1124      23B83A51 
 1124      305DBE56 
 1124      35ED3FDD 
 1125 0630 0427D4DC 		.ascii	"\004'\324\334\205\377\0105}\327\315B\317X\234\274\252"
 1125      85FF0835 
 1125      7DD7CD42 
 1125      CF589CBC 
 1125      AA
 1126 0641 2CF75DA1 		.ascii	",\367]\241\3460\2519\335Y\373\240\227\226.\256\245\233"
 1126      E630A939 
 1126      DD59FBA0 
ARM GAS  C:\Users\AMANRA~1\AppData\Local\Temp\ccy7qQxb.s 			page 90


 1126      97962EAE 
 1126      A59B
 1127 0653 B4A0E8CD 		.ascii	"\264\240\350\315\374eLH>\205\302\224\233n\314n\223k"
 1127      FC654C48 
 1127      3E85C294 
 1127      9B6ECC6E 
 1127      936B
 1128 0665 4EC14E94 		.ascii	"N\301N\224/\256\272}HOxV0\301=\224\346b\031b\216\035"
 1128      2FAEBA7D 
 1128      484F7856 
 1128      30C13D94 
 1128      E6621962 
 1129 067b A7890E10 		.ascii	"\247\211\016\020\035\343pq\004\3235[v\244\362I\343|"
 1129      1DE37071 
 1129      04D3355B 
 1129      76A4F249 
 1129      E37C
 1130 068d 268DC76E 		.ascii	"&\215\307n\341X\271E\354\362\211S\356\016\315\365\334"
 1130      E158B945 
 1130      ECF28953 
 1130      EE0ECDF5 
 1130      DC
 1131 069e 0B02E063 		.ascii	"\013\002\340cq$GI\0011\\E\000\243\004\321]w\027\031"
 1131      71244749 
 1131      01315C45 
 1131      00A304D1 
 1131      5D771719 
 1132 06b2 E6A83289 		.ascii	"\346\2502\211\036zx\314\352)\\z\305\371?\351\246#s1"
 1132      1E7A78CC 
 1132      EA295C7A 
 1132      C5F93FE9 
 1132      A6237331 
 1133 06c6 3FBC74A6 		.ascii	"?\274t\246b\225\252\337\211\343[\330\326\341*\035L\025"
 1133      6295AADF 
 1133      89E35BD8 
 1133      D6E12A1D 
 1133      4C15
 1134 06d8 A1873E8F 		.ascii	"\241\207>\217\252~\260\027\313\314\020'\216+g\243.\327"
 1134      AA7EB017 
 1134      CBCC1027 
 1134      8E2B67A3 
 1134      2ED7
 1135 06ea 4699FF2D 		.ascii	"F\231\377-\376\350Y\221\330\350~(6\332\304\331\310\241"
 1135      FEE85991 
 1135      D8E87E28 
 1135      36DAC4D9 
 1135      C8A1
 1136 06fc 6A6C3453 		.ascii	"jl4SM\025V=e\021\312bQ\037\355\274\321\275\363X\357"
 1136      4D15563D 
 1136      6511CA62 
 1136      511FEDBC 
 1136      D1BDF358 
 1137 0711 D49788A9 		.ascii	"\324\227\210\251/Gu\247\276x\345\246\325]\331\335s}"
 1137      2F4775A7 
 1137      BE78E5A6 
 1137      D55DD9DD 
 1137      737D
ARM GAS  C:\Users\AMANRA~1\AppData\Local\Temp\ccy7qQxb.s 			page 91


 1138 0723 20E6C745 		.ascii	" \346\307Ei\364\\U\263D\236j\367e\2768o\335z\324=K\323"
 1138      69F45C55 
 1138      B3449E6A 
 1138      F765BE38 
 1138      6FDD7AD4 
 1139 073a 9DA0B84C 		.ascii	"\235\240\270L\356$\332;\330$:[\325\222h\276JI\264\260"
 1139      EE24DA3B 
 1139      D8243A5B 
 1139      D59268BE 
 1139      4A49B4B0 
 1140 074e 6151A541 		.ascii	"aQ\245A$\321\030\230\203\312ZA%\301\257\0165\355\266"
 1140      24D11898 
 1140      83CA5A41 
 1140      25C1AF0E 
 1140      35EDB6
 1141 0761 B0349E76 		.ascii	"\2604\236v\326oZY\024+\323\316\271eO.\317\235\377\251"
 1141      D66F5A59 
 1141      142BD3CE 
 1141      B9654F2E 
 1141      CF9DFFA9 
 1142 0775 A334C7EA 		.ascii	"\2434\307\352d\3110W\015L<\363T:\275\371m\216j\035\001"
 1142      64C93057 
 1142      0D4C3CF3 
 1142      543ABDF9 
 1142      6D8E6A1D 
 1143 078a 274312CC 		.ascii	"'C\022\314G\340k\220sa\303\342\312s\340\227\211\226"
 1143      47E06B90 
 1143      7361C3E2 
 1143      CA73E097 
 1143      8996
 1144 079c DE7BFA7D 		.ascii	"\336{\372}\231\205\014\212\337\330\335\035\023\346\245"
 1144      99850C8A 
 1144      DFD8DD1D 
 1144      13E6A5
 1145 07ab 2BB040C5 		.ascii	"+\260@\305A\243\377`O\365\330\014\005>\2451\223\377"
 1145      41A3FF60 
 1145      4FF5D80C 
 1145      053EA531 
 1145      93FF
 1146 07bd D8996563 		.ascii	"\330\231ec\327\341\272\012h0\306\177\260\011\357w\270"
 1146      D7E1BA0A 
 1146      6830C67F 
 1146      B009EF77 
 1146      B8
 1147 07ce 4805     		.ascii	"H\005"
 1148 07d0 3EA361B3 		.ascii	">\243a\263W\352S`\241j\200E*\246\031l\320\374J\021%"
 1148      57EA5360 
 1148      A16A8045 
 1148      2AA6196C 
 1148      D0FC4A11 
 1149 07e5 CE552BB6 		.ascii	"\316U+\266v\231\037[\257\256p\024\241\025\237$\201\362"
 1149      76991F5B 
 1149      AFAE7014 
 1149      A1159F24 
 1149      81F2
 1150 07f7 8B550E93 		.ascii	"\213U\016\223\216\312\214\317\325\307\270\251o\2647"
 1150      8ECA8CCF 
ARM GAS  C:\Users\AMANRA~1\AppData\Local\Temp\ccy7qQxb.s 			page 92


 1150      D5C7B8A9 
 1150      6FB437
 1151 0806 9F51B107 		.ascii	"\237Q\261\007\276Pu|\303\012,V\251\250[\267\253\256"
 1151      BE50757C 
 1151      C30A2C56 
 1151      A9A85BB7 
 1151      ABAE
 1152 0818 25F6B18D 		.ascii	"%\366\261\215Rz4\315\275\271i\353\017\026.\275\204\244"
 1152      527A34CD 
 1152      BDB969EB 
 1152      0F162EBD 
 1152      84A4
 1153 082a A150D5F1 		.ascii	"\241P\325\361\223\315\215\307O}ew\355\356\202\277\212"
 1153      93CD8DC7 
 1153      4F7D6577 
 1153      EDEE82BF 
 1153      8A
 1154 083b A0888F2A 		.ascii	"\240\210\217*\300l\260\224;\331@\276(Re\371j\024P\011"
 1154      C06CB094 
 1154      3BD940BE 
 1154      285265F9 
 1154      6A145009 
 1155 084f FE11B39D 		.ascii	"\376\021\263\235\205\011\231\322\021\024\204\313<\361"
 1155      850999D2 
 1155      111484CB 
 1155      3CF1
 1156 085d 5A8C705E 		.ascii	"Z\214p^\334t\356\333\2657b\002\371(\340\336\317\303"
 1156      DC74EEDB 
 1156      B5376202 
 1156      F928E0DE 
 1156      CFC3
 1157 086f 62B98A09 		.ascii	"b\271\212\011\353\021\236\361z.\277/\021\372/\314?\252"
 1157      EB119EF1 
 1157      7A2EBF2F 
 1157      11FA2FCC 
 1157      3FAA
 1158 0881 7A1066E7 		.ascii	"z\020f\347:\212\010\301\357\372\317\345\235\352H\252"
 1158      3A8A08C1 
 1158      EFFACFE5 
 1158      9DEA48AA 
 1159 0891 9EFC0036 		.ascii	"\236\374\0006\334\356;\254c\333T\036\250UM+;!p=c\340"
 1159      DCEE3BAC 
 1159      63DB541E 
 1159      A8554D2B 
 1159      3B21703D 
 1160 08a7 CB20615A 		.ascii	"\313 aZB\353\211\367\203\353s,.\214g;\004\334\374\216"
 1160      42EB89F7 
 1160      83EB732C 
 1160      2E8C673B 
 1160      04DCFC8E 
 1161 08bb 2FF2836C 		.ascii	"/\362\203lO\017+\202\300\225\022\\\202\314\307G-~!w"
 1161      4F0F2B82 
 1161      C095125C 
 1161      82CCC747 
 1161      2D7E2177 
 1162 08cf E728169D 		.ascii	"\347(\026\2358\205\264\362\235,W\335\324k\361\246\336"
 1162      3885B4F2 
ARM GAS  C:\Users\AMANRA~1\AppData\Local\Temp\ccy7qQxb.s 			page 93


 1162      9D2C57DD 
 1162      D46BF1A6 
 1162      DE
 1163 08e0 5AA2DE95 		.ascii	"Z\242\336\225\030z\253(\006\261)fO{\271\014\202\372"
 1163      187AAB28 
 1163      06B12966 
 1163      4F7BB90C 
 1163      82FA
 1164 08f2 EA29FAF0 		.ascii	"\352)\372\360\260\232{\311\310\245\025X\303\375\216"
 1164      B09A7BC9 
 1164      C8A51558 
 1164      C3FD8E
 1165 0901 84F4739F 		.ascii	"\204\364s\237\013\004\316\004\001\265m\357\376\331&"
 1165      0B04CE04 
 1165      01B56DEF 
 1165      FED926
 1166 0910 3A970F00 		.ascii	":\227\017\000\300W*g\266\346y|\316\300\024\255\365Q"
 1166      C0572A67 
 1166      B6E6797C 
 1166      CEC014AD 
 1166      F551
 1167 0922 F4B58AB9 		.ascii	"\364\265\212\271|\202H\340\335G\315B\3253\021\221Dx"
 1167      7C8248E0 
 1167      DD47CD42 
 1167      D5331191 
 1167      4478
 1168 0934 FDCBC9FE 		.ascii	"\375\313\311\376\010\3538\236I\340\371e\3572\224~\020"
 1168      08EB389E 
 1168      49E0F965 
 1168      EF32947E 
 1168      10
 1169 0945 D6CBEC2D 		.ascii	"\326\313\354-4\226\211\004N!\315\225M\364N\231\017\372"
 1169      34968904 
 1169      4E21CD95 
 1169      4DF44E99 
 1169      0FFA
 1170 0957 DCC8507A 		.ascii	"\334\310Pz,\256\0066\250\001\345/\277\246<\005\033\271"
 1170      2CAE0636 
 1170      A801E52F 
 1170      BFA63C05 
 1170      1BB9
 1171 0969 F218095D 		.ascii	"\362\030\011].\302\033\253\020D&_ :\351*n\353\3514J"
 1171      2EC21BAB 
 1171      1044265F 
 1171      203AE92A 
 1171      6EEBE934 
 1172 097e 0B69AA8C 		.ascii	"\013i\252\214\376\252\260t\230\010\233\324\300m>L!X"
 1172      FEAAB074 
 1172      98089BD4 
 1172      C06D3E4C 
 1172      2158
 1173 0990 C13599A5 		.ascii	"\3015\231\245\246\315d\266x\201\335\253a\017\020L\017"
 1173      A6CD64B6 
 1173      7881DDAB 
 1173      610F104C 
 1173      0F
 1174 09a1 5B389845 		.ascii	"[8\230E\202m%\260\004\301\014}\321\203}\303\301b%\330"
ARM GAS  C:\Users\AMANRA~1\AppData\Local\Temp\ccy7qQxb.s 			page 94


 1174      826D25B0 
 1174      04C10C7D 
 1174      D1837DC3 
 1174      C16225D8 
 1175 09b5 36343691 		.ascii	"646\221\016\277\020\355M\345\201\030p\243\211\025s\277"
 1175      0EBF10ED 
 1175      4DE58118 
 1175      70A38915 
 1175      73BF
 1176 09c7 557D2E35 		.ascii	"U}.5^G\211\307\267\247Xq\372\274\225\370\274\225\372"
 1176      5E4789C7 
 1176      B7A75871 
 1176      FABC95F8 
 1176      BC95FA
 1177 09da BCD58A1A 		.ascii	"\274\325\212\032H\015\302;%\021xg;\347\035\315?\311"
 1177      480DC23B 
 1177      25117867 
 1177      3BE71DCD 
 1177      3FC9
 1178 09ec 98BEBF0B 		.ascii	"\230\276\277\013\307;\375\032\357\304\005\362N\322\002"
 1178      C73BFD1A 
 1178      EFC405F2 
 1178      4ED202
 1179 09fb E49D1DC4 		.ascii	"\344\235\035\304\017\361\201\274\363\3044\005\\4\226"
 1179      0FF181BC 
 1179      F3C43405 
 1179      5C3496
 1180 0a0a 10C83BCF 		.ascii	"\020\310;\317\255\307uU\322\240\325\177\360j\011\243"
 1180      ADC77555 
 1180      D2A0D57F 
 1180      F06A09A3 
 1181 0a1a 452A5015 		.ascii	"E*P\025\310;;1\340\252\311\246\325^\274\323\277\342"
 1181      C83B3B31 
 1181      E0AAC9A6 
 1181      D55EBCD3 
 1181      BFE2
 1182 0a2c FC2E8B9B 		.ascii	"\374.\213\233R\276\343\224\262\213S\212?\177\354\326"
 1182      52BEE394 
 1182      B28B538A 
 1182      3F7FECD6 
 1183 0a3c F883F079 		.ascii	"\370\203\360y\271`\365\224\013]9\027\013R\006U.\324"
 1183      B960F594 
 1183      0B5D3917 
 1183      0B520655 
 1183      2ED4
 1184 0a4e 78CA853D 		.ascii	"x\312\205=\274\\X\263\266\273S\025\345\302P\250\365"
 1184      BC5C58B3 
 1184      B6BB5315 
 1184      E5C250A8 
 1184      F5
 1185 0a5f 940B5196 		.ascii	"\224\013Q\226\010u\230\001\303\326\004\316\211\221j"
 1185      08759801 
 1185      C3D604CE 
 1185      89916A
 1186 0a6e 82BD616A 		.ascii	"\202\275aj\202}\341j\202\372\2205A\035\371f\177\240"
 1186      827DE16A 
 1186      82FA9035 
ARM GAS  C:\Users\AMANRA~1\AppData\Local\Temp\ccy7qQxb.s 			page 95


 1186      411DF966 
 1186      7FA0
 1187 0a80 6F0EA04B 		.ascii	"o\016\240K\016\222o\016z\371&\010\335\037\012\352\233"
 1187      0E926F0E 
 1187      7AF92608 
 1187      DD1F0AEA 
 1187      9B
 1188 0a91 C39A6FEA 		.ascii	"\303\232o\352d\244\3772\277\240j\330`(\364\210\207B"
 1188      64A4FF32 
 1188      BFA06AD8 
 1188      6028F488 
 1188      8742
 1189 0aa3 ABDA0741 		.ascii	"\253\332\007A\241\015^\024\352\001\010\301\232\266\240"
 1189      A10D5E14 
 1189      EA0108C1 
 1189      9AB6A0
 1190 0ab2 ACD9E87B 		.ascii	"\254\331\350{\310lh\217\243\252?bT\304y\014\0275K\360"
 1190      C86C688F 
 1190      A3AA3F62 
 1190      54C4790C 
 1190      17354BF0 
 1191 0ac6 50655B49 		.ascii	"Pe[I\247\331\3171\375'1\323\322\034\324\3147pDc\316"
 1191      A7D9CF31 
 1191      FD2731D3 
 1191      D21CD4CC 
 1191      37704463 
 1192 0adb 446FE6DC 		.ascii	"Do\346\334K\314y\034\035\324D\236j\"fxv`\204\366=\017"
 1192      4BCC791C 
 1192      1DD4449E 
 1192      6A226678 
 1192      766084F6 
 1193 0af1 F2382EAD 		.ascii	"\3628.\255@\263\2339\257\337*\007\201\363\034BySe\323"
 1193      40B39B39 
 1193      AFDF2A07 
 1193      81F31C42 
 1193      795365D3 
 1194 0b05 40A9F207 		.ascii	"@\251\362\007\037\344\023\224\246\237\023TY\206T\311"
 1194      1FE41394 
 1194      A69F1354 
 1194      598654C9 
 1195 0b15 B1274543 		.ascii	"\261'EC\225?\272\251\362x(\252<\351\246J\256\361\224"
 1195      953FBAA9 
 1195      F27828AA 
 1195      3CE9A64A 
 1195      AEF194
 1196 0b28 872AB9B2 		.ascii	"\207*\271\262\347\003\270qRHn\264\303i\256-^b\235\321"
 1196      E703B871 
 1196      52486EB4 
 1196      C369AE2D 
 1196      5E629DD1 
 1197 0b3c B811A1C8 		.ascii	"\270\021\241\310\332\010'\370kc\247Q\232D\013\013\223"
 1197      DA0827F8 
 1197      6B63A751 
 1197      9A440B0B 
 1197      93
 1198 0b4d 3F37E20D 		.ascii	"?7\342\015\371y\370)8\003\331\340g\256)Aj:\213{8*\254"
 1198      F979F829 
ARM GAS  C:\Users\AMANRA~1\AppData\Local\Temp\ccy7qQxb.s 			page 96


 1198      3803D9E0 
 1198      67AE2941 
 1198      6A3A8B7B 
 1199 0b64 5DDC56AE 		.ascii	"]\334V\256\201\017\020M\017\3478\232U\242\375\"\371"
 1199      810F104D 
 1199      0FE7389A 
 1199      55A2FD22 
 1199      F9
 1200 0b75 8CB3E3A6 		.ascii	"\214\263\343\246\350\321\316s\264D\211v\301\213\035"
 1200      E8D1CE73 
 1200      B4448976 
 1200      C18B1D
 1201 0b84 6F55331E 		.ascii	"oU3\036l\001\354h\023s/\006\262\343nqDx\014{8\257\301"
 1201      6C01EC68 
 1201      13732F06 
 1201      B2E36E71 
 1201      44780C7B 
 1202 0b9b E7ADD1E7 		.ascii	"\347\255\321\347\355\230\317\333\336\301\263\343%<:"
 1202      ED98CFDB 
 1202      DEC1B3E3 
 1202      253C3A
 1203 0baa 61E970F3 		.ascii	"a\351p\363\304Ht\330\022\206\016[\303\321\341\345\220"
 1203      C44874D8 
 1203      12860E5B 
 1203      C3D1E1E5 
 1203      90
 1204 0bbb 7478890E 		.ascii	"tx\211\016\363\225\300\224\333\2061v\225\214x5<\035"
 1204      F395C094 
 1204      DB863176 
 1204      958C7835 
 1204      3C1D
 1205 0bcd 5E0B9A72 		.ascii	"^\013\232r\333\265\224{\311M\207\211J\336\010ys\357"
 1205      DBB5947B 
 1205      C94D8789 
 1205      4ADE0879 
 1205      73EF
 1206 0bdf CEB95A30 		.ascii	"\316\271Z0\\\\\207\254Q^\335\257{\256B\035\376Ww\253"
 1206      5C5C87AC 
 1206      515EDDAF 
 1206      7BAE421D 
 1206      FE5777AB 
 1207 0bf3 D75DDDA6 		.ascii	"\327]\335\246\\\211s\337\325\313\252\006yW\357\364\220"
 1207      5C8973DF 
 1207      D5CBAA06 
 1207      7957EFF4 
 1207      90
 1208 0c04 EF0D4EBE 		.ascii	"\357\015N\276\305\307\213\326\350\005\371>\000\277\016"
 1208      C5C78BD6 
 1208      E805F93E 
 1208      00BF0E
 1209 0c13 9A7C6F46 		.ascii	"\232|oF\"\337\023\021\311\367V\030\362\275\035\216|"
 1209      22DF1311 
 1209      C9F75618 
 1209      F2BD1D8E 
 1209      7C
 1210 0c24 7F0B49BE 		.ascii	"\177\013I\2767)\022\356\004F\302]\014\200.\212\204\256"
 1210      372912EE 
ARM GAS  C:\Users\AMANRA~1\AppData\Local\Temp\ccy7qQxb.s 			page 97


 1210      0446C25D 
 1210      0C802E8A 
 1210      84AE
 1211 0c36 F0E4DB1D 		.ascii	"\360\344\333\0354\022\356i\221pS\273X\347\\+\220\267"
 1211      3412EE69 
 1211      917053BB 
 1211      58E75C2B 
 1211      90B7
 1212 0c48 E1447F9F 		.ascii	"\341D\177\237\254\212t\033\266A\217\347r\335\253\372"
 1212      AC8A741B 
 1212      B6418FE7 
 1212      72DDABFA 
 1213 0c58 7C7CB7F9 		.ascii	"||\267\371\243\365G\276[\367y\002\252\377\377\270[\337"
 1213      A3F547BE 
 1213      5BF77902 
 1213      AAFFFFB8 
 1213      5BDF
 1214 0c6a F71406DF 		.ascii	"\367\024\006\337\\\037Da\340`\236\302\300\003\020Ua"
 1214      5C1F4461 
 1214      E0609EC2 
 1214      C0031055 
 1214      61
 1215 0c7b 3093E112 		.ascii	"0\223\341\022\022\375\020\242*\004r\010\301\026\252"
 1215      12FD10A2 
 1215      2A047208 
 1215      C116AA
 1216 0c8a 0E683D8D 		.ascii	"\016h=\215u\000N!E|\275\367\203\327\001\373\250\016"
 1216      75004E21 
 1216      457CBDF7 
 1216      83D701FB 
 1216      A80E
 1217 0c9c C845F2CD 		.ascii	"\310E\362\315C'QS\314\37640\266\236\305$[\347\222\344"
 1217      43275153 
 1217      CCFE3430 
 1217      B69EC524 
 1217      5BE792E4 
 1218 0cb0 6CE65D07 		.ascii	"l\346]\007p\234\027\020\312\273\016\310c\003\254\003"
 1218      709C1710 
 1218      CABB0EC8 
 1218      6303AC03 
 1219 0cc0 F27D90E7 		.ascii	"\362}\220\347\320\267\341\027<u\000\307~1\232:`.\223"
 1219      D0B7E117 
 1219      3C7500C7 
 1219      7E319A3A 
 1219      602E93
 1220 0cd3 75402E0B 		.ascii	"u@.\013Q\007\314c\262\016\340\032\3473\255\016\340\312"
 1220      5107CC63 
 1220      B20EE01A 
 1220      E733AD0E 
 1220      E0CA
 1221 0ce5 5E0AA803 		.ascii	"^\012\250\003^\014S\007,`\262\016\340X\2372w\035\200"
 1221      5E0C5307 
 1221      2C60B20E 
 1221      E0589F32 
 1221      771D80
 1222 0cf8 50646D84 		.ascii	"Pdm\204\363\324\001\001&Ar})4\361\0270I\374\034\372"
 1222      F3D40101 
ARM GAS  C:\Users\AMANRA~1\AppData\Local\Temp\ccy7qQxb.s 			page 98


 1222      2641727D 
 1222      2934F117 
 1222      3049FC1C 
 1223 0d0d 33324CA2 		.ascii	"32L\242\207\367\243\002\323\303B&y\237\203-\"0\233\207"
 1223      87F7A302 
 1223      D3C34226 
 1223      799F832D 
 1223      22309B87 
 1224 0d21 F6A304FB 		.ascii	"\366\243\004\373\234I\332\347`_0_\332\317cAi\237\317"
 1224      9C49DAE7 
 1224      605F305F 
 1224      DACF6341 
 1224      699FCF
 1225 0d34 5DCC0268 		.ascii	"]\314\002h_\036\010\036\262\0362\307 \366z\233\351\363"
 1225      5F1E081E 
 1225      B21E32C7 
 1225      20F67A9B 
 1225      E9F3
 1226 0d46 96E3F3B6 		.ascii	"\226\343\363\266o\360\264\277\204E\240\375\323\021i"
 1226      6FF0B4BF 
 1226      8445A0FD 
 1226      D31169
 1227 0d55 1F692024 		.ascii	"\037i $\355/eah\277\210\205\242}\\\225\002\313X@\262"
 1227      ED2F6561 
 1227      68BF8885 
 1227      A27D5C95 
 1227      02CB5840 
 1228 0d6a 2FC6905A 		.ascii	"/\306\220ZNF\304&\034\355;Y\260d\377%s'{\302\347D<D"
 1228      4E46C426 
 1228      1CED3B59 
 1228      B064FF25 
 1228      73277BC2 
 1229 0d82 715ADDB7 		.ascii	"qZ\335\267\340\332\216A\336\202K\230F\304+\030\021q"
 1229      E0DA8E41 
 1229      DE824B98 
 1229      46C42B18 
 1229      1171
 1230 0d94 4F5763B5 		.ascii	"OWc\265\374k\013\013\224\262\301\022\361J\026\201\210"
 1230      FC6B0B0B 
 1230      94B2C112 
 1230      F14A1681 
 1230      88
 1231 0da5 BB2212F1 		.ascii	"\273\"\022\361*\026\232\210W\2630D\274\206\205\"\342"
 1231      2A169A88 
 1231      57B33044 
 1231      BC868522 
 1231      E2
 1232 0db6 95E49BAF 		.ascii	"\225\344\233\257\002}\263\026]\3625\371\346k\026\226"
 1232      027DB316 
 1232      5DF235F9 
 1232      E66B1696 
 1233 0dc6 88D705F5 		.ascii	"\210\327\005\365\315z\3157+\231\373\026\274sp\267\340"
 1233      CD7ACD37 
 1233      2B99FB16 
 1233      BC7370B7 
 1233      E0
 1234 0dd7 32A691DD 		.ascii	"2\246\221\335\255\301\220\335\006/\262\273\025\211\354"
ARM GAS  C:\Users\AMANRA~1\AppData\Local\Temp\ccy7qQxb.s 			page 99


 1234      ADC190DD 
 1234      062FB2BB 
 1234      1589EC
 1235 0de6 827F3BDE 		.ascii	"\202\177;\336\310|n\301c\320\036\345\314\0371*\362\333"
 1235      C87C6EC1 
 1235      63D01EE5 
 1235      CC1F312A 
 1235      F2DB
 1236 0df8 C4BC6EC1 		.ascii	"\304\274n\301\201\337\217;\316 \373\321\034\324\314"
 1236      81DF8F3B 
 1236      CE20FBD1 
 1236      1CD4CC
 1237 0e07 3750C682 		.ascii	"7P\306\202~?\256'\366\253@\007m&Om\246d\377\362\300"
 1237      7E3FAE27 
 1237      F6AB4007 
 1237      6D264F6D 
 1237      A664FFF2 
 1238 0e1c 386A0B93 		.ascii	"8j\013\223\237u+Hr+\363\376~\314q^A(o\366\333<P\366"
 1238      9F752B48 
 1238      722BF3FE 
 1238      7ECC715E 
 1238      41286FF6 
 1239 0e34 FBC60779 		.ascii	"\373\306\007y\033\345\345W<\037\2149\366\344h\330\357"
 1239      1BE5E557 
 1239      3C1F8C39 
 1239      F6E468D8 
 1239      EF
 1240 0e45 5B37FB55 		.ascii	"[7\373U\204b\277\355n\366\343\032\277\363\260\037W\366"
 1240      8462BFED 
 1240      6EF6E31A 
 1240      BFF3B01F 
 1240      57F6
 1241 0e57 6A00FB4D 		.ascii	"j\000\373M\016\363\205x\007\223_\2109\226Kc?\204\"k"
 1241      0EF38578 
 1241      07935F88 
 1241      39964B63 
 1241      3F84226B 
 1242 0e6b 239CE70B 		.ascii	"#\234\347\013q\200IRp8\364'\341J&?\011s\350*\\4\005"
 1242      71804952 
 1242      7038F427 
 1242      E14A263F 
 1242      0973E82A 
 1243 0e82 91F64D38 		.ascii	"\221\366M8*4=\354d\362\2330G\253f^\327\336\276\350\321"
 1243      2A343DEC 
 1243      64F29B30 
 1243      47AB665E 
 1243      D7DEBEE8 
 1244 0e97 7631F951 		.ascii	"v1\371Q\230\243\355f\276\037\2057\007\343\277X1\267"
 1244      98A3ED66 
 1244      BE1F8537 
 1244      07E3BF58 
 1244      31B7
 1245 0ea9 2690FFEE 		.ascii	"&\220\377\356J\376+\363a\265\015>o\033}\3366\371\274"
 1245      4AFE2BF3 
 1245      61B50D3E 
 1245      6F1B7DDE 
 1245      36F9BC
ARM GAS  C:\Users\AMANRA~1\AppData\Local\Temp\ccy7qQxb.s 			page 100


 1246 0ebc D50F9EFF 		.ascii	"\325\017\236\377\366D\342\277\336\210\374W\033\206\377"
 1246      F644E2BF 
 1246      DE88FC57 
 1246      1B86FF
 1247 0ecb EAC2F1DF 		.ascii	"\352\302\361\337\336\220\374\267\207N\357\276\300\034"
 1247      DE90FCB7 
 1247      874EEFBE 
 1247      C01C
 1248 0ed9 5B8F41B5 		.ascii	"[\217A\265\237\214\270?<\377\035\010\232c\017j9v\217"
 1248      9F8CB83F 
 1248      3CFF1D08 
 1248      9A630F6A 
 1248      39768F
 1249 0eec 9BFF86CA 		.ascii	"\233\377\206\312?\322\353\000U\374\261\313\034\006\324"
 1249      3FD2EB00 
 1249      55FCB1CB 
 1249      1C06D4
 1250 0efb 856FC929 		.ascii	"\205o\311))v\374\227>5\343\355\214\314\354\324I\251"
