ARM GAS  C:\Users\AMANRA~1\AppData\Local\Temp\ccxwg9sS.s 			page 1


   1              		.cpu cortex-m4
   2              		.eabi_attribute 27, 1
   3              		.eabi_attribute 28, 1
   4              		.eabi_attribute 20, 1
   5              		.eabi_attribute 21, 1
   6              		.eabi_attribute 23, 3
   7              		.eabi_attribute 24, 1
   8              		.eabi_attribute 25, 1
   9              		.eabi_attribute 26, 1
  10              		.eabi_attribute 30, 2
  11              		.eabi_attribute 34, 1
  12              		.eabi_attribute 18, 4
  13              		.file	"chmsg.c"
  14              		.section	.gnu.lto_.profile.3049ee85,"",%progbits
  15 0000 789C6363 		.ascii	"x\234cc```\001bF\006?u\000\001;\000\201"
  15      60606001 
  15      6246063F 
  15      7500013B 
  15      0081
  16              		.text
  17              		.section	.gnu.lto_.icf.3049ee85,"",%progbits
  18 0000 789C6363 		.ascii	"x\234cc``\020a@\000f\206\265+\026_gf\232{h\371\\N\346"
  18      60601061 
  18      40006686 
  18      B52B165F 
  18      67669A7B 
  19 0019 CD1BEFB5 		.ascii	"\315\033\357\265q0\000\000Z\362\010q"
  19      71300000 
  19      5AF20871 
  20              		.text
  21              		.section	.gnu.lto_.jmpfuncs.3049ee85,"",%progbits
  22 0000 789C6D8D 		.ascii	"x\234m\215\273\011\200@\020Dgv\017#9\033\260\321\213"
  22      BB098040 
  22      10446776 
  22      0F23391B 
  22      B0D18B
  23 0013 0E635331 		.ascii	"\016cS1\262\013-\3006\004\013\260\007\361\263\247\302"
  23      B20B2DC0 
  23      36040BB0 
  23      07F1B3A7 
  23      C2
  24 0024 250EBC60 		.ascii	"%\016\274`\007\336N\001\240G\216BH\215\203\302\240\260"
  24      07DE4E01 
  24      A0478E42 
  24      488D83C2 
  24      A0B0
  25 0036 53EE5BB7 		.ascii	"S\356[\267\260\325A\205%G\326\340\354X\032\200H0'\335"
  25      B0D54185 
  25      2547D6E0 
  25      EC581A80 
  25      483027DD 
  26 004a 302E4B05 		.ascii	"0.K\005\261:i\307\332\234\362j\236\323\247\371G\323"
  26      B13A69C7 
  26      DA9CF26A 
  26      9ED3A7F9 
  26      47D3
  27 005c B441DB30 		.ascii	"\264A\3330\350\376~\004\346*\0027_\020\"\015"
ARM GAS  C:\Users\AMANRA~1\AppData\Local\Temp\ccxwg9sS.s 			page 2


  27      E8FE7E04 
  27      E62A0237 
  27      5F10220D 
  28              		.text
  29              		.section	.gnu.lto_.inline.3049ee85,"",%progbits
  30 0000 789C6363 		.ascii	"x\234cc``\210c@\000f\006\006\021YFF\006\005F\006\006"
  30      60608863 
  30      40006606 
  30      06115946 
  30      46060546 
  31 0016 26F11B9B 		.ascii	"&\361\033\233\031\0318o\2301\201d\230\270\031\030\030"
  31      1919386F 
  31      98318164 
  31      98B81918 
  31      18
  32 0027 21E4043F 		.ascii	"!\344\004?&\006A\001 G\342\300nF\006\266\005\362H\012"
  32      26064101 
  32      2047E2C0 
  32      6E4606B6 
  32      05F2480A 
  33 003b 98193840 		.ascii	"\230\0318@2,\013\344\341\022\314<@\311\011~\023\374"
  33      322C0BE4 
  33      E112CC3C 
  33      40C9097E 
  33      13FC
  34 004d 1800F012 		.ascii	"\030\000\360\022\012x"
  34      0A78
  35              		.text
  36              		.section	.gnu.lto_.pureconst.3049ee85,"",%progbits
  37 0000 789C6363 		.ascii	"x\234cc``\340\002bf\206]\214L\273\030\231w1\002\000"
  37      6060E002 
  37      6266865D 
  37      8C4CBB18 
  37      99773102 
  38 0015 0C2F024A 		.ascii	"\014/\002J"
  39              		.text
  40              		.section	.gnu.lto_chMsgSend.3049ee85,"",%progbits
  41 0000 789C9556 		.ascii	"x\234\225VkLTW\020>s\317\335\273\013\273\"\326\244?"
  41      6B4C5457 
  41      103E73CF 
  41      DDBB0BBB 
  41      22D6A43F 
  42 0014 8C316B2A 		.ascii	"\2141k*A\033\303\325\306\264i\3224i\370S\177\2204\372"
  42      411BC3D5 
  42      C6B469D2 
  42      3469F853 
  42      7F9034FA 
  43 0028 B33F4C5D 		.ascii	"\263?L]\251\222t]\272K\215&M\271\356b\360Q\355KP\227"
  43      A992745D 
  43      BA4B8D26 
  43      4DB9EE62 
  43      F051ED4B 
  44 003e 8DAC521F 		.ascii	"\215\254R\037\215J\255P\025\020\330\212\305\007O\021"
  44      8D4AAD50 
  44      1510D88A 
  44      C5074F11 
  45 004e 9F504028 		.ascii	"\237P@(T\004|\365\001\212];s\356E\227uA\273\201\315"
ARM GAS  C:\Users\AMANRA~1\AppData\Local\Temp\ccxwg9sS.s 			page 3


  45      54047CF5 
  45      018A5D3B 
  45      73EE4597 
  45      7541BB81 
  46 0063 BDE7CCCC 		.ascii	"\275\347\314\3147\363}s\346\254\302\030\253\214c,\031"
  46      37F37D73 
  46      E6ACC218 
  46      AB8C632C 
  46      19
  47 0074 185B84CF 		.ascii	"\030[\204\317`b }\335\310\330z\213$\361\341iL\213\227"
  47      6062207D 
  47      DDC8D87A 
  47      8B24F1E1 
  47      694C8B97 
  48 0088 77BDC334 		.ascii	"w\275\3034\033\007Y_\226\001\350A\263\000\313\226\270"
  48      1B07595F 
  48      9601E841 
  48      B300CB96 
  48      B8
  49 0099 0CD9F025 		.ascii	"\014\331\360%\337\316\341b\316\321\000\337\302\003\234"
  49      DFCEE162 
  49      CED100DF 
  49      C2039C
  50 00a8 818CAFF7 		.ascii	"\201\214\257\367\033\374=\011\364\012`\307\327}\225"
  50      1BFC3D09 
  50      F40A60C7 
  50      D77D95
  51 00b7 BE5330EF 		.ascii	"\276S0\357\200\206\237\320\216\016\345\200o\303\373"
  51      80869FD0 
  51      8E0EE580 
  51      6FC3FB
  52 00c6 012EB17C 		.ascii	"\001.\261|\264.\205\231P\0023\011\373g\230\207\266g"
  52      B42E8599 
  52      50023309 
  52      FB679887 
  52      B667
  53 00d8 7A1FB758 		.ascii	"z\037\267X9&\204\317u9u\327\224\344}\232\346\325B\355"
  53      392684CF 
  53      753975D7 
  53      94E47D9A 
  53      E6D542ED 
  54 00ec 455C9B13 		.ascii	"E\\\233\023\340\034\216\003\217t\304%\006' \031\315"
  54      E01C8E03 
  54      8F74C425 
  54      06272019 
  54      CD
  55 00fd EB8F965D 		.ascii	"\353\217\226]\225\371\353\3025\357\270\357 'W\204\034"
  55      95F9EBC2 
  55      35EFB8EF 
  55      20275784 
  55      1C
  56 010e FC5EB84A 		.ascii	"\374^\270Jp2\332UbP\006\311d_\037.m\212\347)\302wsg"
  56      7032DA55 
  56      625006C9 
  56      645F1F2E 
  56      6D8AE729 
  57 0126 F5B039A9 		.ascii	"\365\2609\251H\300\326\026\314\330\343\323\316i2A\227"
ARM GAS  C:\Users\AMANRA~1\AppData\Local\Temp\ccxwg9sS.s 			page 4


  57      48C0D616 
  57      CCD8E3D3 
  57      CE693241 
  57      97
  58 0137 8FF7A70F 		.ascii	"\217\367\247\017\232w\377\024\316\233\242\310P\001I"
  58      9A77FF14 
  58      CE9BA2C8 
  58      500149
  59 0146 41CEA82A 		.ascii	"A\316\250*,\346\024(\360t/G\244\321\027P\304z>\207\010"
  59      2CE61428 
  59      F0742F47 
  59      A4D11750 
  59      C47A3E87 
  60 015b 37069568 		.ascii	"7\006\225hZ\005\012\2132\277T\373.\252QE\366\022\355"
  60      5A050A8B 
  60      32BF54FB 
  60      2EAA5145 
  60      F612ED
  61 016e EDBBD052 		.ascii	"\355\273\320Rm\345\037\012\337\037\212\367\354\264\031"
  61      6DE51F0A 
  61      DF1F8AF7 
  61      ECB419
  62 017d 197606E6 		.ascii	"\031v\006\346\356\366m\331\252\005\275\211\001\024$"
  62      EEF66DD9 
  62      AA05BD89 
  62      011424
  63 018c 34498E7A 		.ascii	"4I\216z\340;\273\261\224_ \211A5\005\347\343\2229\215"
  63      E03BBBB1 
  63      945F2089 
  63      413505E7 
  63      E392398D 
  64 01a0 C9D46032 		.ascii	"\311\324`2\364\205M\001T\325\217-\246\220\026~\222\213"
  64      F4854D01 
  64      54D58F2D 
  64      A690167E 
  64      928B
  65 01b2 E2CDF297 		.ascii	"\342\315\362\227\3667\2756\035\220;\223\204_\012\246"
  65      F637BD36 
  65      1D903B93 
  65      845F0AA6 
  66 01c2 88160A10 		.ascii	"\210\026\012\020\217\026 !\254\202S\233\020\206m\304"
  66      8F162021 
  66      AC82539B 
  66      10866DC4 
  67 01d2 7FEC172D 		.ascii	"\177\354\027-\3046a\025\370\344\013\261\333\340-\357"
  67      C4366115 
  67      F8E40BB1 
  67      DBE02DEF 
  68 01e2 3F596426 		.ascii	"?Yd&.\374\334\204\350\371\033N7\231\251]\314\242\272"
  68      2EFCDC84 
  68      E8F91B4E 
  68      3799A95D 
  68      CCA2BA
  69 01f5 B2B2C136 		.ascii	"\262\262\3016s\366\277\232\005\027\202H\026\255\225"
  69      73F6BF9A 
  69      05178248 
  69      16AD95
ARM GAS  C:\Users\AMANRA~1\AppData\Local\Temp\ccxwg9sS.s 			page 5


  70 0204 FAEE7F9B 		.ascii	"\372\356\177\233\020\204\335\020\340\026\370\025\333"
  70      1084DD10 
  70      E016F815 
  70      DB
  71 0211 EE0C1587 		.ascii	"\356\014\025\207\033\307\317\266\217Z\324#TY\260\030"
  71      1BC7CFB6 
  71      8F5AD423 
  71      5459B018 
  72 0221 77E3A016 		.ascii	"w\343\240\026\202\220\307\215\302\037]\365m\220\364"
  72      8290C78D 
  72      C21F5DF5 
  72      6D90F4
  73 0230 6D3B4978 		.ascii	"m;Ix\026\324<\012\311\340\034\250\254\017\274\3015B"
  73      16D43C0A 
  73      C9E01CA8 
  73      AC0FBCC1 
  73      3542
  74 0242 2B2C0273 		.ascii	"+,\002s\301\005)\006\277\005\223\363\013\347!\011\235"
  74      C1052906 
  74      BF0593F3 
  74      0BE72109 
  74      9D
  75 0253 72FBB54A 		.ascii	"r\373\265J\231\252\220\301\016\027po\000\274\335\003"
  75      99AA90C1 
  75      0E17706F 
  75      00BCDD03 
  76 0263 79E59DD1 		.ascii	"y\345\235\321\215\360\335\310X#\310\317\211\336\367"
  76      8DF0DDC8 
  76      5823C8CF 
  76      89DEF7
  77 0272 06325A47 		.ascii	"\0062ZG{\246\350\275\266\300\\<P\347I\270\372\347\205"
  77      7BA6E8BD 
  77      B6C05C3C 
  77      50E749B8 
  77      FAE785
  78 0285 6BC0221A 		.ascii	"k\300\"\032I\270F\022\016X\007\241\356-<6\022?\373."
  78      49B84612 
  78      0E5807A1 
  78      EE2D3C36 
  78      123FFB2E 
  79 0299 146A3BB1 		.ascii	"\024j;\261\372xr8\322S\241Yd\011\263n\202\331\202\242"
  79      FA787238 
  79      D253A159 
  79      6409B36E 
  79      82D982A2 
  80 02ad 7B83AD6D 		.ascii	"{\203\255m\022\256@3\310\"o\006\027\305)>XU\323k\233"
  80      12AE4033 
  80      C8226F06 
  80      17C5293E 
  80      5855D36B 
  81 02c2 FDC0F0B6 		.ascii	"\375\300\360\266\222\355\203\342c\227\255\302\273\205"
  81      92ED83E2 
  81      6397ADC2 
  81      BB85
  82 02d0 BCE112C8 		.ascii	"\274\341\022\310D\242]p\300HZ\377\303\275w\233%*/RX"
  82      44A25D70 
  82      C0485AFF 
ARM GAS  C:\Users\AMANRA~1\AppData\Local\Temp\ccxwg9sS.s 			page 6


  82      C3BD779B 
  82      252A2F52 
  83 02e5 BDE54F9D 		.ascii	"\275\345O\235n\250UP\304\365$\326\214\000\267!\345\320"
  83      6EA85550 
  83      C4F524D6 
  83      8C00B721 
  83      E5D0
  84 02f7 6A08D99A 		.ascii	"j\010\331\232{\255\303\372T\251)pY\310(\3512\026\017"
  84      7BADC3FA 
  84      54A92970 
  84      59C828E9 
  84      32160F
  85 030a 791B6543 		.ascii	"y\033eC\345\217\351(_!\035\305I\273\012\252\237+\004"
  85      E58FE928 
  85      5F211DC5 
  85      49BB0AAA 
  85      9F2B04
  86 031d FD2877E8 		.ascii	"\375(w\350\204M\357*\210B\263\0130\313\004`\011pM\200"
  86      844DEF2A 
  86      8842B30B 
  86      30CB0460 
  86      09704D80 
  87 0331 C93AD8A1 		.ascii	"\311:\330\241\206\333\035\012\366\237\276i\202\353\330"
  87      86DB1D0A 
  87      F69FBE69 
  87      82EBD8
  88 0340 290C6E40 		.ascii	")\014n@\266(\325(m`\343\271\003\026\243E\302\376\004"
  88      B628D528 
  88      6D60E3B9 
  88      0316A345 
  88      C2FE04
  89 0353 BF16CAB1 		.ascii	"\277\026\312\261\307\030O\242?\332\306\232\313\033\034"
  89      C7184FA2 
  89      3FDAC69A 
  89      CB1B1C
  90 0362 DDCA8D00 		.ascii	"\335\312\215\000\355\005\035\3418\376\010\0043\365_"
  90      ED051DE1 
  90      38FE0804 
  90      33F55F
  91 0371 157F637D 		.ascii	"\025\177c}.\232\011\332cD\373\215\242\201\316u8\267"
  91      2E9A09DA 
  91      6344FB8D 
  91      A281CE75 
  91      38B7
  92 0383 7DD7E751 		.ascii	"}\327\347Q}\262\343\261\302\311\210`\215>S\306\265J"
  92      7DB2E3B1 
  92      C2C98860 
  92      8D3E53C6 
  92      B54A
  93 0395 07764827 		.ascii	"\007vH'\265J\247Hd\214'\230X\220\256\321\302\304\202"
  93      B54AA748 
  93      648C2798 
  93      5890AED1 
  93      C2C482
  94 03a8 2220A6BA 		.ascii	"\" \246\272\004S&\021%Z\0317\021p\223\224Q\364}\350"
  94      04532611 
  94      255A1937 
ARM GAS  C:\Users\AMANRA~1\AppData\Local\Temp\ccxwg9sS.s 			page 7


  94      11709394 
  94      51F47DE8 
  95 03bc 2671403F 		.ascii	"&q@?\362e%\207%\202\364s\033\372\365m_\377\004\2505"
  95      F2652587 
  95      2582F473 
  95      1BFAF56D 
  95      5FFF04A8 
  96 03d1 4C301F5F 		.ascii	"L0\037_\233\367_\334\003z\022\011$T\217\221DE_\363\262"
  96      9BF75FDC 
  96      037A1209 
  96      24548F91 
  96      44455FF3 
  97 03e6 88E3FBBB 		.ascii	"\210\343\373\273@7\033\321{Q\030\014\335\272\271\337"
  97      40371BD1 
  97      7B51180C 
  97      DDBAB9DF 
  98 03f6 FCF2B504 		.ascii	"\374\362\265\004_\2452\372^T\306\037T\306\030\320-*"
  98      5FA532FA 
  98      5E54C61F 
  98      54C618D0 
  98      2D2A
  99 0408 C32628EF 		.ascii	"\303&(\357//\031\201\230h\266\230h\373\005k\375\223"
  99      2F2F1981 
  99      9868B698 
  99      68FB056B 
  99      FD93
 100 041a C07503E1 		.ascii	"\300u\003\341\335\216\244m\200\360L:^\3053\274\027\223"
 100      DD8EA46D 
 100      80F04C3A 
 100      5EC533BC 
 100      1793
 101 042c 44A78AC3 		.ascii	"D\247\212\303\3408\226\206\364`\330}][\252\034b\332"
 101      E0389686 
 101      F460D87D 
 101      5D5BAA1C 
 101      62DA
 102 043e 51673C6D 		.ascii	"Qg<mf\352\025\246KT]\244\350\347G\372_\347g*\334\021"
 102      66EA15A6 
 102      4B545DA4 
 102      E8E747FA 
 102      5FE7672A 
 103 0454 88166ACF 		.ascii	"\210\026j\317\273(J/\344\334\250Y\364,\324\320\225C"
 103      BB284A2F 
 103      E4DCA859 
 103      F42CD4D0 
 103      9543
 104 0466 87C5CF83 		.ascii	"\207\305\317\203\251\220\000\367\214F\336\204\347wx"
 104      A99000F7 
 104      8C46DE84 
 104      E77778
 105 0475 1A5E0883 		.ascii	"\032^\010\203\220\023,\332f\"\363\250\361\237\230\217"
 105      90132CDA 
 105      6622F3A8 
 105      F19F988F 
 106 0485 5530B88F 		.ascii	"U0\270\217G\017\321\003|\232p\223\215\213\204\374\016"
 106      470FD103 
 106      7C9A7093 
ARM GAS  C:\Users\AMANRA~1\AppData\Local\Temp\ccxwg9sS.s 			page 8


 106      8D8B84FC 
 106      0E
 107 0496 6DE331FC 		.ascii	"m\3431\374^\311\247\\\340\001\372\341\306\350\255\355"
 107      5EC9A75C 
 107      E001FAE1 
 107      C6E8ADED 
 108 04a6 D745AB29 		.ascii	"\327E\253)`\203?af\200O\327\313\255\353\001=Gk\364p"
 108      60833F61 
 108      66804FD7 
 108      CBADEB01 
 108      3D476BF4 
 109 04bb 72B3174C 		.ascii	"r\263\027L\247\277&\232N_\320t\372\233\304\214#6\376"
 109      A7BF269A 
 109      4E5FD074 
 109      FA9BC48C 
 109      2336FE
 110 04ce 316E9959 		.ascii	"1n\231Y\202i\274\030\021L\3342t\003GNH\031\207\366p"
 110      8269BC18 
 110      114CDC32 
 110      7403474E 
 110      481987F6 
 111 04e3 E4A5A1DF 		.ascii	"\344\245\241\337\300\306 \017\027\336\254\262\216\315"
 111      C0C6200F 
 111      17DEACB2 
 111      8ECD
 112 04f1 E86131A3 		.ascii	"\350a1\243G\304\214\216\036\310\017\365\201\334ud\333"
 112      47C48C8E 
 112      1EC80FF5 
 112      81DC7564 
 112      DB
 113 0502 8D950283 		.ascii	"\215\225\002\203\261;$|c\215\241\254\225\250\337\210"
 113      B13B247C 
 113      638DA1AC 
 113      95A8DF88 
 114 0512 67123944 		.ascii	"g\0229D\2679))*\3769Ve,\317py\026\276\275p\201\352\362"
 114      B7392929 
 114      2AFE3956 
 114      652CCF70 
 114      7916BEBD 
 115 052a A8EE2CD5 		.ascii	"\250\356,\325\343v\340\252\323\2632\305\301\244\254"
 115      E376E0AA 
 115      D3B332C5 
 115      C1A4AC
 116 0539 4C8E4FDC 		.ascii	"L\216O\334\221\2259w\"\373\214\325\216O>[\221\216;\236"
 116      91953977 
 116      22FB8CD5 
 116      8E4F3E5B 
 116      918E3B9E 
 117 054d 759E9455 		.ascii	"u\236\224U\314\274\374#O\372\007\356\2147c:8\\N\247"
 117      CCBCFC23 
 117      4FFA07EE 
 117      8C37633A 
 117      385C4EA7 
 118 0561 6BB59AE9 		.ascii	"k\265\232\351rgy\324\367\226\244\245\246\255E\023\207"
 118      726779D4 
 118      F796A4A5 
 118      A6AD4513 
ARM GAS  C:\Users\AMANRA~1\AppData\Local\Temp\ccxwg9sS.s 			page 9


 118      87
 119 0572 CB9DBE6C 		.ascii	"\313\235\276l\315[NtO\235\314-}m\0269\251\251iK\027"
 119      CD5B4E74 
 119      4F9DCC2D 
 119      7D6D1639 
 119      A9A9694B 
 120 0587 2F5553D1 		.ascii	"/US\321K]<\006\357\364dx\226\255t80Fb\332\322%vJ#\323"
 120      4B5D3C06 
 120      EFF46478 
 120      96AD7438 
 120      304662DA 
 121 05a1 9D31DF9E 		.ascii	"\2351\337\236\264\200Infv\246;]\356u\214g}\2329\357"
 121      B480496E 
 121      6676A63B 
 121      5DEE758C 
 121      677D9A39 
 122 05b6 256A71AC 		.ascii	"%jq\254Z\201\221\376\003Y(\210\262"
 122      5A8191FE 
 122      03592888 
 122      B2
 123              		.text
 124              		.section	.gnu.lto_chMsgWait.3049ee85,"",%progbits
 125 0000 789C8D55 		.ascii	"x\234\215UkL\024W\024\276g\3560\273\354\000\232\376"
 125      6B4C1457 
 125      14BE67EE 
 125      30BBEC00 
 125      9AFE
 126 0012 308D31CD 		.ascii	"0\2151\315\232tSH\014\243\215i\323\2461i\370S\177\220"
 126      9A745348 
 126      0CA38D69 
 126      D3A63169 
 126      F8537F90 
 127 0026 3492F4AF 		.ascii	"4\222\364\257)+\021\222\256Kw\251\321_\014\017\003\024"
 127      292B1192 
 127      AE4B77A9 
 127      D15F0C0F 
 127      0314
 128 0038 8DDA0A2A 		.ascii	"\215\332\012*\273\221Uj}Ej\225j\301\327\012\202\217"
 128      BB91556A 
 128      7D456A95 
 128      6AC1D70A 
 128      828F
 129 004a 0A02E2A3 		.ascii	"\012\002\342\243B\001QP\020\251\257R\253\025{\316\275"
 129      42015150 
 129      10A9AF52 
 129      AB157BCE 
 129      BD
 130 005b 83856525 		.ascii	"\203\205e%\020\262\231;\347\365\235\357|g\256\306\030"
 130      10B2993B 
 130      E7F59DEF 
 130      7C67AEC6 
 130      18
 131 006c FB2196B1 		.ascii	"\373!\226\261\317\200\261\305\370\0141\014\224M-\214"
 131      CF80B1C5 
 131      F80C310C 
 131      944D2D8C 
 132 007c E5D91585 		.ascii	"\345\331\025\205\327\317b\246CmY\302\3148\016\252|\255"
ARM GAS  C:\Users\AMANRA~1\AppData\Local\Temp\ccxwg9sS.s 			page 10


 132      D7CF62A6 
 132      436D59C2 
 132      CC380EAA 
 132      7CAD
 133 008e 02D08369 		.ascii	"\002\320\203i\007\226\253p\025ra=\337\302\241\255\360"
 133      0796AB70 
 133      1572613D 
 133      DFC2A1AD 
 133      F0
 134 009f 509097F2 		.ascii	"P\220\227\362 g\240\342\361Qs\305\355\004:\0028\361"
 134      2067A0E2 
 134      F15173C5 
 134      ED043A02 
 134      38F1
 135 00b1 383CD254 		.ascii	"8<\322T\023\227\264\3074\363\315\360\326\307\266@M\253"
 135      1397B4C7 
 135      34F3CDF0 
 135      D6C7B640 
 135      4DAB
 136 00c3 191BE40A 		.ascii	"\031\033\344\012+G\367\032\230\007G`\036\025\377\005"
 136      2B47F71A 
 136      98074760 
 136      1E15FF05 
 137 00d3 92187A9F 		.ascii	"\222\030z\237\355\377\267]\347\357\001=\337/>\277\307"
 137      EDFFB75D 
 137      E7EF013D 
 137      DF2F3EBF 
 137      C7
 138 00e4 EEAA1291 		.ascii	"\356\252\022\221\327*\347\356,0\317\233*\206\302Q\340"
 138      D72AE7EE 
 138      2C30CF9B 
 138      2A86C251 
 138      E0
 139 00f5 93A319B9 		.ascii	"\223\243\031\271\367\375<V\026\257\251p\014\\\224\034"
 139      F7FD3C56 
 139      16AFA970 
 139      0C5C941C 
 140 0105 73FE0A1A 		.ascii	"s\376\012\032\2746\024\232\370\027\276\266W\023\357"
 140      BC36149A 
 140      F817BEB6 
 140      5713EF
 141 0114 CB394C88 		.ascii	"\3139L\210aP\213\256u\240\261\010\367+\215K\220\225"
 141      61508BAE 
 141      75A0B108 
 141      F72B8D4B 
 141      9095
 142 0126 3AF257C8 		.ascii	":\362W\310\266\373b\373i\235\247\211\330}\325;\267\305"
 142      B6FB62FB 
 142      699DA789 
 142      D87DD53B 
 142      B7C5
 143 0138 59F07A02 		.ascii	"Y\360z\002\211;\012J7\230\241\374\331A\316\341\3044"
 143      893B0A4A 
 143      3798A1FC 
 143      D941CEE1 
 143      C434
 144 014a 0065E291 		.ascii	"\000e\342\221\035\350v\022\221\302qJ\316'\2019\205`"
ARM GAS  C:\Users\AMANRA~1\AppData\Local\Temp\ccxwg9sS.s 			page 11


 144      1DE87612 
 144      91C2714A 
 144      CE278139 
 144      8560
 145 015c 4E2318FA 		.ascii	"N#\030\372\301\341@\004\027\327\367\177\022\250*\262"
 145      C1E14004 
 145      17D7F77F 
 145      12A82AB2 
 146 016c 8A456503 		.ascii	"\212Ee\003\302\340\372\251=&l\216\275*B\326\337\252"
 146      C2E0FAA9 
 146      3D266C8E 
 146      BD2A42D6 
 146      DFAA
 147 017e 1CBDB7C1 		.ascii	"\034\275\267\3015\033\030\272+\364\303\361G\325\350"
 147      351B18BA 
 147      2BF4C3F1 
 147      47D5E8
 148 018d 29969E1C 		.ascii	")\226\236\034\"@\2473c\305H\035N\331\014\263\022<\342"
 148      2240A733 
 148      63C5481D 
 148      4ED90CB3 
 148      123CE2
 149 01a0 5341980D 		.ascii	"SA\230\015\200\022\245\343\300\364\035\303\031paP\321"
 149      8012A5E3 
 149      C0F41DC3 
 149      19706150 
 149      D1
 150 01b1 A0795225 		.ascii	"\240yR%9ppB=\332\356C~\337\223\255u=\221\243\371\376"
 150      39707042 
 150      3DDAEE43 
 150      7EDF93AD 
 150      753D91A3 
 151 01c7 99CD1A8D 		.ascii	"\231\315\032\215:e\014\375\357\343\030\032\310\026\023"
 151      3A650CFD 
 151      EFE3181A 
 151      C81613
 152 01d6 69EB0C24 		.ascii	"i\353\014$\242\324\316\020\225g\247R\331\210\0146\021"
 152      A2D4CE10 
 152      9567A752 
 152      D9880C36 
 152      11
 153 01e7 954D4425 		.ascii	"\225MD%0SA\353\256\312\303\317\034\3637+\225\3466gP"
 153      305341EB 
 153      AECAC3CF 
 153      1CF3372B 
 153      95E63667 
 154 01fc 663C78FB 		.ascii	"f<x\373\270iW\261}8\007\363\305\264\036\016wt*\370\006"
 154      B86957B1 
 154      7D3807F3 
 154      C5B41E0E 
 154      77742AF8 
 155 0211 CE832A70 		.ascii	"\316\203*p3\270 \364\275\367TC\177\334\374-V\264\220"
 155      33B820F4 
 155      BDF75443 
 155      7FDCFC2D 
 155      56B490
 156 0224 CCE3EAC3 		.ascii	"\314\343\352\303Wu\021}\221\242\3417P\221\263|\247\340"
ARM GAS  C:\Users\AMANRA~1\AppData\Local\Temp\ccxwg9sS.s 			page 12


 156      5775117D 
 156      91A2E137 
 156      5091B37C 
 156      A7E0
 157 0236 80B121C8 		.ascii	"\200\261!\310\257\373g\327\2530P{\025\234\032/_W\177"
 157      AFFB67D7 
 157      AB30507B 
 157      159C1A2F 
 157      5F577F
 158 0249 D946ACD8 		.ascii	"\331F\254\330\204\226jk\207;m\271/M;\276\010q)\227\232"
 158      84966A6B 
 158      873B6DB9 
 158      2F4D3BBE 
 158      08712997 
 159 025e 8247DF25 		.ascii	"\202G\337%\204`\007\004\271\035\232q\331.\021\0104\034"
 159      84600704 
 159      B91D9A71 
 159      D92E1108 
 159      341C
 160 0270 3DD7F5C2 		.ascii	"=\327\365\302n\034\244\356C}h\215\205\026\010A\031\267"
 160      6E1CA4EE 
 160      437D688D 
 160      85160841 
 160      19B7
 161 0282 64F6FC7A 		.ascii	"d\366\374z\301:\3052\247\223@.\203Q\206rG\\\255`\010"
 161      C13AC532 
 161      A793402E 
 161      83518672 
 161      475CAD60 
 162 0297 5C842342 		.ascii	"\\\204#BT-\225s\246]0h\003\027B\227\275\234\270p\265"
 162      542D9573 
 162      A65D3068 
 162      03174297 
 162      BD9CB870 
 163 02ac CD163187 		.ascii	"\315\0261\207\255\317mo\223\2235Cm\322\030\332\221\375"
 163      ADCF6D6F 
 163      93933543 
 163      6DD218DA 
 163      91FD
 164 02be 2B34862B 		.ascii	"+4\206+D\2006\221\000E\020p\242\276\271I\223\315:\260"
 164      44803691 
 164      00451070 
 164      A2BEB949 
 164      93CD3AB0 
 165 02d2 0C7458BD 		.ascii	"\014tX\275v\024\335\350\326e3\275Ov\317\251\370\"\310"
 165      7614DDE8 
 165      D66533BD 
 165      4F76CFA9 
 165      F822C8
 166 02e5 75B82ADA 		.ascii	"u\270*\332UDZr\252~\220\337\242Z\035\217\002\245\274"
 166      55445A72 
 166      AA7E90DF 
 166      A25A1D8F 
 166      02A5BC
 167 02f8 462D73E9 		.ascii	"F-s\351\000\327\261k\204\375\274h_\274\254\037;\263"
 167      00D7B16B 
 167      84FDBC68 
ARM GAS  C:\Users\AMANRA~1\AppData\Local\Temp\ccxwg9sS.s 			page 13


 167      5FBCAC1F 
 167      3BB3
 168 030a 82A1A39C 		.ascii	"\202\241\243\234\252\335\210\250v\240y\250[\303Y\221"
 168      AADD88A8 
 168      76A079A8 
 168      5BC35991 
 169 031a C77EF450 		.ascii	"\307~\364P\341w0d\245\233\220K\374\366\226\276,\320"
 169      E1773064 
 169      A59B904B 
 169      FCF696BE 
 169      2CD0
 170 032c C4D787F8 		.ascii	"\304\327\207\370`\375Px\263a\261\234=U\027|\226 \274"
 170      60FD5078 
 170      B361B19C 
 170      3D55177C 
 170      9620BC
 171 033f FA59B85B 		.ascii	"\372Y\270[\303P\030z\2611\206\314\021J\210+\3476$\276"
 171      C350187A 
 171      B13186CC 
 171      114A882B 
 171      E73624BE 
 172 0353 1393A2E1 		.ascii	"\023\223\242\341eW\336\230B\204\305C\002t\301\274 O"
 172      6557DE98 
 172      4284C543 
 172      0274C1BC 
 172      204F
 173 0365 1069546B 		.ascii	"\020iTkGi0\203\305\375\011\262\2162\023Q\375\021]TN"
 173      47693083 
 173      C5FD09B2 
 173      8E321351 
 173      FD115D54 
 174 037a 9254F71B 		.ascii	"\222T\367\033$\345$z{^+\252w\234\333\022.\013\363\011"
 174      24E5247A 
 174      7B5E2BAA 
 174      779CDB12 
 174      2E0BF309 
 175 038e DCE61145 		.ascii	"\334\346\021E\273\350\213\203\024+\321(v\022\301\267"
 175      BBE88B83 
 175      142BD128 
 175      7612C1B7 
 176 039e 2C825924 		.ascii	",\202Y$\273\351Dn\037V`p[2;\256\334\256@\367X,o\224"
 176      BBE9446E 
 176      1F566070 
 176      5B323BAE 
 176      DCAE40F7 
 177 03b6 DAB9B4B1 		.ascii	"\332\271\264\261z\263>U\306*\334\211\"\343~\2221\227"
 177      7AB33E55 
 177      C62ADC89 
 177      22E37E92 
 177      3197
 178 03c8 32DEDFD8 		.ascii	"2\336\337\330\263\375\343H\031orh\344d\311\330>\361"
 178      B3FDE348 
 178      196F7268 
 178      E464C9D8 
 178      3EF1
 179 03da 6609D3EB 		.ascii	"f\011\323\353\001\034\353]\032\366]j\327\201\346\201"
 179      011CEB5D 
ARM GAS  C:\Users\AMANRA~1\AppData\Local\Temp\ccxwg9sS.s 			page 14


 179      1AF65D6A 
 179      D781E681 
 180 03ea 2D79AFA0 		.ascii	"-y\257\240T(a\001\036[\177l\333\011\222b\235\332\276"
 180      54286101 
 180      1E5B7F6C 
 180      DB099262 
 180      9DDABE
 181 03fd 67B57D7C 		.ascii	"g\265}|\240u\271\245\344\003e\357\004\252tbrP\364\316"
 181      A075B9A5 
 181      E40365EF 
 181      04AA7462 
 181      7250F4CE 
 182 0411 455A0643 		.ascii	"EZ\006Cr?C\253)9\225\303\002r\260\027\216\034RdE}\212"
 182      723F43AB 
 182      293995C3 
 182      0272B017 
 182      8E1C5264 
 183 0428 781D51C5 		.ascii	"x\035Q\305K\213\240\303}\221_\225\371#V\345\260B\010"
 183      4B8BA0C3 
 183      7D915F95 
 183      F92356E5 
 183      B04208
 184 043b 86AD5511 		.ascii	"\206\255U\021\000\036\310qv|\273\335F\325f\324Mh.\245"
 184      001EC871 
 184      767CBBDD 
 184      46D566D4 
 184      4D682EA5 
 185 044f 1999D4C8 		.ascii	"\031\231\324\310\237` RJU1x\361\310\035\260\222M\306"
 185      9F602052 
 185      4A553178 
 185      F1C81DB0 
 185      924DC6
 186 0462 AD47C5ED 		.ascii	"\255G\305\355#\330\017\247\201]-6\374\021\301\216\261"
 186      23D80FA7 
 186      815D2D36 
 186      FC11C18E 
 186      B1
 187 0473 CA3DA672 		.ascii	"\312=\246r\\\256^q\243\370\314\212\031\276\226\214\030"
 187      5CAE5E71 
 187      A3F8CC8A 
 187      19BE968C 
 187      18
 188 0484 DDFFA763 		.ascii	"\335\377\247c\326W\371\351\275\222\3356KR\223D;\347"
 188      D657F9E9 
 188      BD92DD36 
 188      4B529344 
 188      3BE7
 189 0496 CDC4A264 		.ascii	"\315\304\242dg\301\023\201O#A=\005\003\035\252\206j"
 189      67C11381 
 189      4F23413D 
 189      05031DAA 
 189      866A
 190 04a8 1B62E476 		.ascii	"\033b\344v\306\303_\030EW&]\360\023?u\27020:\361\006"
 190      C6C35F18 
 190      4557265D 
 190      F0133F75 
 190      B832303A 
ARM GAS  C:\Users\AMANRA~1\AppData\Local\Temp\ccxwg9sS.s 			page 15


 191 04be 9417BC75 		.ascii	"\224\027\274u+\215U\336:\245\217_8\243\342\302\371["
 191      2B8D55DE 
 191      3AA58F5F 
 191      38A3E2C2 
 191      F95B
 192 04d0 5C3891B7 		.ascii	"\\8\221\267\3133y\273\364>\330ps\245\250\301\330\010"
 192      CB3379BB 
 192      F43ED870 
 192      73A5A8C1 
 192      D808
 193 04e2 75BEBE51 		.ascii	"u\276\276Q\223;\350 \245\027c5\3742`\330\273\311\311"
 193      933BE820 
 193      A5176335 
 193      FC3260D8 
 193      BBC9C9
 194 04f5 06FEBB33 		.ascii	"\006\376\2733\263\322\263\274\376E\037-Zhx\375\206/"
 194      B3D2B3BC 
 194      FE451F2D 
 194      5A6878FD 
 194      862F
 195 0507 C7F0FBDC 		.ascii	"\307\360\373\334\370\326\343_\231\354fJNv\342\233\374"
 195      F8D6E35F 
 195      99EC664A 
 195      4E76E29B 
 195      FC
 196 0518 B256B9BF 		.ascii	"\262V\271\277\372fE\006Z\374k\375\311\231\314\226\376"
 196      FA664506 
 196      5AFC6BFD 
 196      C999CC96 
 196      FE
 197 0529 A53FE373 		.ascii	"\245?\343s_\326\007Q\003\334^\217\307\273\312\310\366"
 197      5FD60751 
 197      03DC5E8F 
 197      C7BBCAC8 
 197      F6
 198 053a FA72FCC6 		.ascii	"\372r\374\306\247\313RSR\327\240\213\333\353\313X\276"
 198      A7CB5253 
 198      52D7A08B 
 198      DBEBCB58 
 198      BE
 199 054b FA430F86 		.ascii	"\372C\017\206'\315\240\216;s\005z\246LW cM\016\2457"
 199      27CDA08E 
 199      3B73057A 
 199      A64C5720 
 199      634D0EA5 
 200 0560 5252D396 		.ascii	"RR\323\226\246\031)\230\337X:\236\300\343\317\362/_"
 200      A6192998 
 200      DF583A9E 
 200      C0E3CFF2 
 200      2F5F
 201 0572 E976638E 		.ascii	"\351vc\216\331\251i\313\234\0048\333\227\265\300\351"
 201      D9A969CB 
 201      9C0438DB 
 201      97B5C0E9 
 202 0582 5AC8141F 		.ascii	"Z\310\024\037\263y2<^\337Z6\203\216\211\235L\306s\276"
 202      B379323C 
 202      5EDF5A36 
ARM GAS  C:\Users\AMANRA~1\AppData\Local\Temp\ccxwg9sS.s 			page 16


 202      838E899D 
 202      4CC673BE 
 203 0596 CEFE0FE6 		.ascii	"\316\376\017\346\312\215\273"
 203      CA8DBB
 204              		.text
 205              		.section	.gnu.lto_chMsgRelease.3049ee85,"",%progbits
 206 0000 789C8D53 		.ascii	"x\234\215S]HSa\030~\337\363\235\375\264YDWAQ\023\032"
 206      5D485361 
 206      187EDFF3 
 206      9DFDB459 
 206      44574151 
 207 0016 5AC44E75 		.ascii	"Z\304NuQt\023\304\256\274\030\204^t)\265\206\016Z\223"
 207      517413C4 
 207      AEBC1884 
 207      5E7429B5 
 207      860E5A93 
 208 002a 1D8BBAF2 		.ascii	"\035\213\272\362\344O\032&\004\265%:\322\262\250\214"
 208      E44F1A26 
 208      04B5253A 
 208      D2B2A88C 
 209 003a 9CFD3757 		.ascii	"\234\3757W\272feeZ.\373a^d\212\202(\322\017D\220?\275"
 209      BA666565 
 209      5A2EFB61 
 209      5E648A82 
 209      28D20F44 
 210 0051 DFB7193A 		.ascii	"\337\267\031:-:l\207\357\373\336\367y\277\347y\336\367"
 210      2D3A6C87 
 210      EFFBDEF7 
 210      79BFE779 
 210      DEF7
 211 0063 E801A05E 		.ascii	"\350\001\240^\006X\207\000kh\215\014P:\335\013p\334"
 211      06588700 
 211      6B688D0C 
 211      503ADD0B 
 211      70DC
 212 0075 2821F285 		.ascii	"(!\362\205fD(\221\260\004O\261\263\014c\225\243ai\343"
 212      66442891 
 212      B0044FB1 
 212      B30C6395 
 212      A36169E3 
 213 0089 158D9EE8 		.ascii	"\025\215\236\350\271\270\351\204V\261:\310\000\002\364"
 213      B9B8E984 
 213      56B13AC8 
 213      0002F4
 214 0098 E70FDEC6 		.ascii	"\347\017\336\306\215\224\325W\336\032d\325,\310\020"
 214      8D94D557 
 214      DE1A64D5 
 214      2CC810
 215 00a7 65DA7EED 		.ascii	"e\332~\355\251\033^\301\267\022Zh\373dd*nfY\010\264"
 215      A91B5EC1 
 215      B7125A68 
 215      FB64642A 
 215      6E665908 
 216 00bc EE2EEFFE 		.ascii	"\356.\357\376\250\317\272\254i\245Zt\242\211i\033\202"
 216      A8CFBAAC 
 216      69A55A74 
 216      A289691B 
ARM GAS  C:\Users\AMANRA~1\AppData\Local\Temp\ccxwg9sS.s 			page 17


 216      82
 217 00cd 8CE13D64 		.ascii	"\214\341=dT\020\357\342Z\274\203k\201\216\000\357c\026"
 217      5410EFE2 
 217      5ABC836B 
 217      818E00EF 
 217      6316
 218 00df A5BF6A0D 		.ascii	"\245\277j\015\177\220\331&\001\365\337+\273\3128\224"
 218      7F90D926 
 218      01F5DF2B 
 218      BBCA3894 
 219 00ef A84C5D12 		.ascii	"\250L]\022P\031\037\244Ce\3000f\361\374\241\2333\376"
 219      50191FA4 
 219      4365C030 
 219      66F1FCA1 
 219      9B33FE
 220 0102 E57AB971 		.ascii	"\345z\271q\216.\266\241\036\377\234\227\213:?\232\365"
 220      8E2EB6A1 
 220      1EFF9C97 
 220      8B3A3F9A 
 220      F5
 221 0113 E23CC070 		.ascii	"\342<\300p\036\0040B\251\017Q\017i\351\337\237\356\322"
 221      1E043042 
 221      A90F510F 
 221      69E9DF9F 
 221      EED2
 222 0125 010F0498 		.ascii	"\001\017\004\230\304c\227_\306;\314l\257\300^k\271P"
 222      C463975F 
 222      C63BCC6C 
 222      AFC05E6B 
 222      B950
 223 0137 9B616D12 		.ascii	"\233am\022\312f\353\263\317\227U\327h\215\245+\203L"
 223      CA66EBB3 
 223      CF9755D7 
 223      688DA52B 
 223      834C
 224 0149 87ED0B49 		.ascii	"\207\355\013I\362'\255\360\344y\262\241\003\255\200"
 224      F227ADF0 
 224      E479B2A1 
 224      03AD80
 225 0158 8F7871B6 		.ascii	"\217xq\266\200L\224\310<&2\374Em\203P\\\027\325ff+\251"
 225      804C94C8 
 225      3C2632FC 
 225      456D8350 
 225      5C17D566 
 226 016f 23AB9A1F 		.ascii	"#\253\232\037\214\205\254\006j\035\371E\356s\351PEj"
 226      8C85AC06 
 226      6A1DF945 
 226      EE73E950 
 226      456A
 227 0181 A9935A14 		.ascii	"\251\223Z\024N\022MZ\225Ea\024\245%H\326\377\233$\306"
 227      4E124D5A 
 227      95456114 
 227      A52548D6 
 227      FF9B24C6 
 228 0195 D04AA0CA 		.ascii	"\320J\240\3121\355\221\314\333\251C\013vRl\034K\207"
 228      31ED91CC 
 228      DBA9430B 
ARM GAS  C:\Users\AMANRA~1\AppData\Local\Temp\ccxwg9sS.s 			page 18


 228      76526C1C 
 228      4B87
 229 01a7 22FEB64F 		.ascii	"\"\376\266O\351n\236yoJ\271)/rnd\0339\367\204\307t\351"
 229      E96E9E79 
 229      6F4AB929 
 229      2F726E64 
 229      1B39F784 
 230 01be B15FF5D9 		.ascii	"\261_\365\331491\256\376\351b\365\317Ht\027W\337\305"
 230      343931AE 
 230      FEE962F5 
 230      CF487417 
 230      57DFC5
 231 01d1 D52324F8 		.ascii	"\325#$\370\255\027\033n\3754e\216c\203Vk\0112\321\247"
 231      AD171B6E 
 231      FD34658E 
 231      6383566B 
 231      0932D1A7 
 232 01e5 1BC311CD 		.ascii	"\033\303\021\315(K\304\3729f\012\203\277L\364\017Ht"
 232      284BC4FA 
 232      39660A83 
 232      BF4CF40F 
 232      4874
 233 01f7 822F5016 		.ascii	"\202/P\026\274\001_\212\371\274\332\3369\222\2219\231"
 233      BC015F8A 
 233      F9BCDADE 
 233      39929139 
 233      99
 234 0208 421B78EE 		.ascii	"B\033x\356\267\226[\357\314\002\335\315\321\370\012"
 234      B7965BEF 
 234      CC02DDCD 
 234      D1F80A
 235 0217 65F2ACD4 		.ascii	"e\362\254\324\"<\000\276\034<y]\307\305Q\362x\325\363"
 235      223C00BE 
 235      1C3C795D 
 235      C7C551F2 
 235      78D5F3
 236 022a 2BC6948B 		.ascii	"+\306\224\213\275\315\031uZ\264\334\262\304\034\013"
 236      BDCD1975 
 236      5AB4DCB2 
 236      C41C0B
 237 0239 0B7BD05A 		.ascii	"\013{\320ZG]\240\002\215!?K\025\210^J\364\211\002\332"
 237      475DA002 
 237      8D213F4B 
 237      15885E4A 
 237      F48902DA 
 238 024d FC028BA6 		.ascii	"\374\002\213\246Y\024\350\345\005\030L`\305`\244!\321"
 238      5914E8E5 
 238      05184C60 
 238      C560A421 
 238      D1
 239 025e B5C8F384 		.ascii	"\265\310\363\204\211\247\360{R\336\353\027\330\367\232"
 239      89A7F07B 
 239      52DEEB17 
 239      D8F79A
 240 026d 5C7BC3ED 		.ascii	"\\{\303\355{\223\034\347pxb\300P2\255\031\203\314\030"
 240      7B931CE7 
 240      707862C0 
ARM GAS  C:\Users\AMANRA~1\AppData\Local\Temp\ccxwg9sS.s 			page 19


 240      5032AD19 
 240      83CC18
 241 0280 60061E07 		.ascii	"`\006\036\007\354\303\022 \226tO\220-\023\272\305\307"
 241      ECC31220 
 241      96744F90 
 241      2D13BAC5 
 241      C7
 242 0291 D293929E 		.ascii	"\322\223\222\236\334\365&w\344g\207\030\213@E\354\265"
 242      DCF52677 
 242      E4678718 
 242      8B4045EC 
 242      B5
 243 02a2 21391680 		.ascii	"!9\026\200\361\324X\204\375m\353\223s\232\352\324L\303"
 243      F1D45884 
 243      FD6DEB93 
 243      739AEAD4 
 243      4CC3
 244 02b4 E776F35C 		.ascii	"\347v\363\\\023\342\242\011oE\023\322\035\357O:>8]\223"
 244      13E2A209 
 244      6F4513D2 
 244      1DEF4F3A 
 244      3E385D93 
 245 02c8 28105700 		.ascii	"(\020W\000L\322\266:d\345\267\013/\252\350+\245q&\314"
 245      4CD2B63A 
 245      64E5B70B 
 245      2FAAE82B 
 245      A57126CC 
 246 02dc 069B4DA1 		.ascii	"\006\233M\241\237\263\320\275\337\355U\267\356\334\272"
 246      9FB3D0BD 
 246      DFED55B7 
 246      EEDCBA
 247 02eb 45F1AA8A 		.ascii	"E\361\252\212\257XQ}N:\365\250\0056'H\305E\214V\331"
 247      AF58517D 
 247      4E3AF5A8 
 247      05362748 
 247      C5458C56 
 248 0300 7FCB751F 		.ascii	"\177\313u\037r\036<|\300E\021\365\230j+\004\303\376"
 248      721E3C7C 
 248      C04511F5 
 248      986A2B04 
 248      C3FE
 249 0312 7DAA6B8F 		.ascii	"}\252k\217\317\275}I\200\323\353\361x\017)E^_\261\252"
 249      CFBD7D49 
 249      80D3EBF1 
 249      780F2945 
 249      5E5FB1AA 
 250 0326 ECCE75D8 		.ascii	"\354\316u\330\035G)\305\351\365\271\362\217\354\360"
 250      1D4729C5 
 250      E9F5B9F2 
 250      8FECF0
 251 0335 10DCFE2F 		.ascii	"\020\334\376/\230\353h1\007)vG^N\236b'\224\2223w\275"
 251      98EB6831 
 251      07297647 
 251      5E4E9E62 
 251      27949233 
 252 034b 4775ABF9 		.ascii	"Gu\253\371\005N'\325X\351\310\313\265p\032E>\367f\213"
 252      054E27D5 
ARM GAS  C:\Users\AMANRA~1\AppData\Local\Temp\ccxwg9sS.s 			page 20


 252      58E9C8CB 
 252      B5701A45 
 252      3EF7668B 
 253 035f 750B483E 		.ascii	"u\013H>0x\\\036\257\357\030\374\207\016\256\273\020"
 253      30785C1E 
 253      AFEF18FC 
 253      870EAEBB 
 253      10
 254 0370 7E039B83 		.ascii	"~\003\233\203\317\232"
 254      CF9A
 255              		.text
 256              		.section	.gnu.lto_.symbol_nodes.3049ee85,"",%progbits
 257 0000 789C55C9 		.ascii	"x\234U\311=\012\0021\024E\341\223\373\222\331\206\263"
 257      3D0A0231 
 257      1445E193 
 257      FB92D986 
 257      B3
 258 0011 145DD94B 		.ascii	"\024]\331K!6\323\010.b\374+\246\236: X\270\007A\254"
 258      2136D308 
 258      2E62FC2B 
 258      A69E3A20 
 258      58B80741 
 259 0026 5C8318AD 		.ascii	"\\\203\030\255Lq\271\360\235\016\330\325\241Q\016\333"
 259      4C71B9F0 
 259      9D0ED8D5 
 259      A1510EDB 
 260 0036 1BD49BF3 		.ascii	"\033\324\233\363\012\322Q\364\337\262\227\207\246\350"
 260      0AD251F4 
 260      DFB29787 
 260      A6E8
 261 0044 205723E1 		.ascii	" W#\341,\267\237@\316\313\012'yl`\222\247\1770\022\217"
 261      2CB79F40 
 261      CECB0A27 
 261      796C6092 
 261      A77F3012 
 262 0059 EBD38CC8 		.ascii	"\353\323\214\310zx-L\221\262\271\230YG\271\277\003\037"
 262      7A782D4C 
 262      91B2B998 
 262      5947B9BF 
 262      031F
 263 006b 17AD23F7 		.ascii	"\027\255#\367"
 264              		.text
 265              		.section	.gnu.lto_.refs.3049ee85,"",%progbits
 266 0000 789C6363 		.ascii	"x\234cc``\340\003bF bdbb`da`\344f\000\000\002\016\000"
 266      6060E003 
 266      62462062 
 266      64626260 
 266      646160E4 
 267 001a 2D       		.ascii	"-"
 268              		.text
 269              		.section	.gnu.lto_.decls.3049ee85,"",%progbits
 270 0000 789CB55A 		.ascii	"x\234\265Z{T\024\351\225\357\252\257\350\206\246\001"
 270      7B5414E9 
 270      95EFAAAF 
 270      E886A601 
 271 0010 A3EE9C39 		.ascii	"\243\356\2349Y7\3073\353d\310\356\216\210N\346\261\233"
 271      5937C733 
ARM GAS  C:\Users\AMANRA~1\AppData\Local\Temp\ccxwg9sS.s 			page 21


 271      EB64C8EE 
 271      8E884EE6 
 271      B19B
 272 0022 CD263BBB 		.ascii	"\315&;\273'\3439\231\234\234\361d\263\233\230t\020Z"
 272      27E33999 
 272      9C9CF164 
 272      B39B9874 
 272      105A
 273 0034 658657BA 		.ascii	"e\206W\272[\035\377JA\343\003Q\001AEEA\360\305KP@\024"
 273      5B1DFF4A 
 273      41E30351 
 273      01414545 
 273      41F0C54B 
 274 004b 50790908 		.ascii	"Py\011\010\012(\312[^\"\012\243\202\240 \017a\357\367"
 274      0A28CA5B 
 274      5E220AA3 
 274      82A0200F 
 274      61EFF7
 275 005e 7D555DD5 		.ascii	"}U]\325E\265\232sv9^\253n\325\375\356\375\335\373\335"
 275      45B59A73 
 275      76395EAB 
 275      6ED5FDEE 
 275      FDDDFBDD 
 276 0072 FBBDBAB4 		.ascii	"\373\275\272\264\032\215&\370\023\215\246N\247\321,"
 276      1A8D26F8 
 276      138DA64E 
 276      A7D12C
 277 0081 65359A39 		.ascii	"e5\2329\370\343\340Y\031\020\002\2620\032\315\030\\"
 277      F8E3E059 
 277      191002B2 
 277      301ACD18 
 277      5C
 278 0092 9768E89F 		.ascii	"\227h\350\237\026(\037\236\025\002\225\000\225\002U"
 278      16281F9E 
 278      15029500 
 278      950255
 279 00a1 025501C1 		.ascii	"\002U\001\301?\315\373\254\306\341/\020\224,\206\353"
 279      3FCDFBAC 
 279      C6E12F10 
 279      942C86EB 
 280 00b1 420DBD8E 		.ascii	"B\015\275\216\011:K\341\372C\226\352\375\000\256\313"
 280      093A4BE1 
 280      FA4396EA 
 280      FD00AECB 
 281 00c1 803C817E 		.ascii	"\200<\201~\004\264\034\310\01221@<\220\007\220\017<"
 281      04B41CC8 
 281      0A323140 
 281      3C900790 
 281      0F3C
 282 00d3 AB80EB0A 		.ascii	"\253\200\353\012\270^\205\253\036c\202{\035\320^\340"
 282      B85E85AB 
 282      1E63827B 
 282      1DD05EE0 
 283 00e3 1381A280 		.ascii	"\023\201\242\2002\200l@\341@i@\311@n\002\346U \373c"
 283      32806C40 
 283      E1406940 
 283      C9406E02 
ARM GAS  C:\Users\AMANRA~1\AppData\Local\Temp\ccxwg9sS.s 			page 22


 283      E65520FB 
 284 00f8 A07F01FA 		.ascii	"\240\177\001\372W\240\177\003\372\017\226\342\307~`"
 284      57A07F03 
 284      FA0F96E2 
 284      C77E60
 285 0107 E85FB2F3 		.ascii	"\350_\262\363}\010\005\037\026\310|\220\343\027\361"
 285      7D08051F 
 285      16C87C90 
 285      E317F1
 286 0116 CA7DB00A 		.ascii	"\312}\260\012\270W\010\376]\025|\320\3110G\01183dX1"
 286      B85708FE 
 286      5D157CD0 
 286      C9304709 
 286      38336458 
 287 012b CE422738 		.ascii	"\316B'8\377\213\245\030\177\307\252\307y+\2421\371\223"
 287      FF8BA518 
 287      7FC7AAC7 
 287      792BA231 
 287      F993
 288 013d 02278E37 		.ascii	"\002'\2167\306*\342\374=P1C\333\270jh\037\252\331\373"
 288      C62AE2FC 
 288      3D503143 
 288      DBB86A68 
 288      1FAAD9FB 
 289 0151 032BF569 		.ascii	"\003+\365i\200\302V\002b:\367\344\366\353\020\313\340"
 289      80C25602 
 289      623AF7E4 
 289      F6EB10CB 
 289      E0
 290 0162 FBF2638F 		.ascii	"\373\362c\217cu\313\263x\372\347\372+\015\223\307 Q"
 290      6375CBB3 
 290      78FAE7FA 
 290      2B0D93C7 
 290      2051
 291 0174 F056646E 		.ascii	"\360Vdn\022\212F\314B=\303\001\373\354\346\341\373\236"
 291      128A46CC 
 291      423DC301 
 291      FBECE6E1 
 291      FB9E
 292 0186 C02ED633 		.ascii	"\300.\3263K\201-|\232Y\350A\337\226b\3513\003I{\015"
 292      4B812D7C 
 292      9A59E841 
 292      DF9662E9 
 292      3303497B 
 293 019b 94FF14D8 		.ascii	"\224\377\024\330;\215]'\021\362!V\356\325\244gbE\037"
 293      3B8D5D27 
 293      11F22156 
 293      EED5A467 
 293      62451F
 294 01ae E8199CA3 		.ascii	"\350\031\234\243^\360(\347\361\245I\017\372\010K\334"
 294      5EF028E7 
 294      F1A5490F 
 294      FA084BDC 
 295 01be 8E193DA1 		.ascii	"\216\031=\241C\237\342{\266\273m\272\323\223\321{\357"
 295      439FE27B 
 295      B6BB6DBA 
 295      D393D17B 
ARM GAS  C:\Users\AMANRA~1\AppData\Local\Temp\ccxwg9sS.s 			page 23


 295      EF
 296 01cf E4F9083E 		.ascii	"\344\371\010>\305\306\273}\241a.0K\230\002f\211\206"
 296      C5C6BB7D 
 296      A1612E30 
 296      4B980266 
 296      8986
 297 01e1 B9C278E3 		.ascii	"\271\302x\3436\371\314r\015S\014\017\213\340\341)\214"
 297      36F9CC72 
 297      0D530C0F 
 297      8BE0E129 
 297      8C
 298 01f2 BDB43BF1 		.ascii	"\275\264;\361\247\207Fy~)s\231\3213%\014\"2\020\204"
 298      A7874679 
 298      7E297399 
 298      D133250C 
 298      22321084 
 299 0206 0FF4D49B 		.ascii	"\017\364\324\233\364\023q\251Z\224\301\020\033\305G"
 299      F41371A9 
 299      5A94C110 
 299      1BC547
 300 0215 1E5C639D 		.ascii	"\036\\c\235\331(sn\343\354{U\333x\236eJ\301\306U\311"
 300      D928736E 
 300      E3EC7B55 
 300      DB789E65 
 300      4AC1C655 
 301 022a 0698A446 		.ascii	"\006\230\244F\370\204\351d\017\024C\202\313\016\333"
 301      F884E964 
 301      0F144382 
 301      CB0EDB
 302 0239 8E9C74EA 		.ascii	"\216\234t\352H\245S#s\265\237\336\335\201\215T\200\221"
 302      48A55323 
 302      73B59FDE 
 302      DD818D54 
 302      8091
 303 024b 72C948A9 		.ascii	"r\311H\251h\2443oO\205+j\243=x\270\370y\255\013\015"
 303      68A4336F 
 303      4F852B6A 
 303      A33D78B8 
 303      F879AD0B 
 304 0260 BB2BB0B1 		.ascii	"\273+\260\261\235\223%\356\250\227\276\313\234\210,"
 304      9D9325EE 
 304      A897BECB 
 304      9C882C
 305 026f F0420394 		.ascii	"\360B\003\224\021\373k\261\320_S\361\227\012\334\321"
 305      11FB6BB1 
 305      D05F53F1 
 305      970ADCD1 
 306 027f 63FAB2F2 		.ascii	"c\372\262\362~S\215\013\032\245LJy\357\207\310\206\310"
 306      7E538D0B 
 306      1AA54C4A 
 306      79EF87C8 
 306      86C8
 307 0291 7DD1FE92 		.ascii	"}\321\376\222'\256h'e\312^\265%\351Q\"en\217\3348\352"
 307      27AE6827 
 307      65CA5EB5 
 307      25E95122 
 307      656E8FDC 
ARM GAS  C:\Users\AMANRA~1\AppData\Local\Temp\ccxwg9sS.s 			page 24


 308 02a7 4E0D2F00 		.ascii	"N\015/\000\366\302\300\365*=U\3173\300\317\234lhuE)"
 308      F6C2C0F5 
 308      2A3D55CF 
 308      33C0CF9C 
 308      6C687545 
 309 02bc 54B6B8B0 		.ascii	"T\266\270\260\244J\000\271\002X[\377\321^O\224N\337"
 309      A44A00B9 
 309      02585BFF 
 309      D15E4F94 
 309      4EDF
 310 02ce 55C544EE 		.ascii	"U\305D\356\326\243\363\204a_\334z|H\353,d\315NCV\253"
 310      D6A3F384 
 310      615FDC7A 
 310      7C48EB2C 
 310      64CD4E43 
 311 02e4 FD197317 		.ascii	"\375\031s\027\242uG%ZG\306\356\015\272Q\333\3368\015"
 311      A2754725 
 311      5A47C6EE 
 311      0DBA51DB 
 311      DE380D
 312 02f7 8AC64E6A 		.ascii	"\212\306Nj\321\025j\273on\366kTM\357\243\262\242\252"
 312      D1156ABB 
 312      6F6EF66B 
 312      544DEFA3 
 312      B2A2AA
 313 030a 3C510365 		.ascii	"<Q\003eR\257\026?\326\241n\312\210\211\277\220&\376"
 313      52AF163F 
 313      D6A16ECA 
 313      8889BF90 
 313      26FE
 314 031c 99A1EE19 		.ascii	"\231\241\356\031\204\236\322w\275\235\325\271\236hD"
 314      849ED277 
 314      BD9DD5B9 
 314      9E6844
 315 032b 7073E248 		.ascii	"ps\342H\261\027\232\240\314\315\373s\243z4K\231\302"
 315      B1179AA0 
 315      CCCDFB73 
 315      A37A344B 
 315      99C2
 316 033d C3B3A51C 		.ascii	"\303\263\245\034\332\306\021f\333\236\354\2038TZZ\016"
 316      DAC61166 
 316      DB9EEC83 
 316      38545A5A 
 316      0E
 317 034e 3A78D43F 		.ascii	":x\324?2u\201\243\217\260C\337\302\243\243\207:\317"
 317      327581A3 
 317      8FB043DF 
 317      C2A3A387 
 317      3ACF
 318 0360 79A228D2 		.ascii	"y\242(\322\204\275\322t1\322\203\361\326\213\251\376"
 318      84BDD274 
 318      31D283F1 
 318      D68BA9FE 
 319 0370 F1A1119C 		.ascii	"\361\241\021\234\352\003\340s\277\344\263\026\273\274"
 319      EA03E073 
 319      BFE4B316 
 319      BBBC
ARM GAS  C:\Users\AMANRA~1\AppData\Local\Temp\ccxwg9sS.s 			page 25


 320 037e 138B2843 		.ascii	"\023\213(C\367\000B\247\025Bw\037\036\366\301C\2601"
 320      F70042A7 
 320      1542771F 
 320      1EF6C143 
 320      B031
 321 0390 3A3992CF 		.ascii	":9\222\317\241xj#/~&\321S\262qve\001I\365A\260\361P"
 321      A1786A23 
 321      2F7E26D1 
 321      53B27176 
 321      650149F5 
 322 03a8 B231C038 		.ascii	"\2621\30085\362H\335H/?}\310\200\216P#G\312S\363X\273"
 322      35F248DD 
 322      482F3F7D 
 322      C8808E50 
 322      2347CA53 
 323 03bf 91B9DA7F 		.ascii	"\221\271\332\177j&\251\376\030\214\014IF\006\235\033"
 323      6A26A9FE 
 323      188C0C49 
 323      46069D1B 
 324 03cf F94EDD48 		.ascii	"\371N\335H\364\376'\247<\321q\032\340\351G\011m\014"
 324      F4FE27A7 
 324      3CD1711A 
 324      E0E94709 
 324      6D0C
 325 03e1 ED3003B0 		.ascii	"\3550\003\260\021\305mq^45{H\346N\355\234\345\320Y*"
 325      11C56D71 
 325      5E34357B 
 325      48E64EED 
 325      9CE5D059 
 326 03f6 DBB2BBA9 		.ascii	"\333\262\273\251C\213.Pt\205u\235\323\310\216n\312\345"
 326      438B2E50 
 326      7485759D 
 326      D3C88E6E 
 326      CAE5
 327 0408 67CC1800 		.ascii	"g\314\030\000{\366V\300F\325\201U5\244\214\271\242\022"
 327      7BF656C0 
 327      46D58155 
 327      35A48CB9 
 327      A212
 328 041a 6AEC52DC 		.ascii	"j\354R\334>\250\246r\312t%F\027\273\243\273\224\271"
 328      3EA8A672 
 328      CA742546 
 328      17BBA3BB 
 328      94B9
 329 042c 12337AD1 		.ascii	"\0223z\321\015uRf\307\313\276\\/\364\200s\250\263\305"
 329      0D755266 
 329      C7CBBE5C 
 329      2FF48073 
 329      A8B3C5
 330 043f B4CE866C 		.ascii	"\264\316\206l\245\275\034zL\337\345l\353Ow\205wK \223"
 330      A5BD1C7A 
 330      4CDFE56C 
 330      EB4F7785 
 330      774B2093 
 331 0453 18D9A8BA 		.ascii	"\030\331\250\272\204\216\252\371\245c\331\034zF};\227"
 331      848EAAF9 
 331      A563D91C 
ARM GAS  C:\Users\AMANRA~1\AppData\Local\Temp\ccxwg9sS.s 			page 26


 331      7A467D3B 
 331      97
 332 0464 DDFFB52C 		.ascii	"\335\377\265,\203\226o#\201\237\003\377^I\376-\021\334"
 332      83966F23 
 332      819F03FF 
 332      5E49FE2D 
 332      11DC
 333 0476 8BE0F934 		.ascii	"\213\340\3714\036\275\253aV-aV\200s\263\340\334\022"
 333      1EBDAB61 
 333      562D6156 
 333      8073B3E0 
 333      DC12
 334 0488 C1B91970 		.ascii	"\301\271\031pn\232:\227\236|\246\322\003MS\003]\331"
 334      6E9A3A97 
 334      9E7CA6D2 
 334      034D5303 
 334      5DD9
 335 049a C3F54896 		.ascii	"\303\365H\226?\357\345\221\374\211`!\247Y\273\2059\306"
 335      3FEFE591 
 335      FC896021 
 335      A759BB85 
 335      39C6
 336 04ac 89897056 		.ascii	"\211\211pV\325DD|S\226\033\262\271\020\023\021\327b"
 336      D544447C 
 336      53961BB2 
 336      B9101311 
 336      D762
 337 04be 6FE9C4E1 		.ascii	"o\351\304\341\301\261\3716\225\346b\222\255\240\343"
 337      C1B1F936 
 337      95E66292 
 337      ADA0E3
 338 04cd 692420B1 		.ascii	"i$ \261IH\000\030\035!\366\037\036x\027E\023\013L\364"
 338      49480018 
 338      1D21F61F 
 338      1E781745 
 338      130B4CF4 
 339 04e1 EED91C84 		.ascii	"\356\331\034\204\342\250\271'{\317\024j\325\315E95w"
 339      E2A8B927 
 339      7BCF146A 
 339      D5CD4539 
 339      3577
 340 04f3 1BB26627 		.ascii	"\033\262f'X\332\241b\351\336\321\3411\016\035\242\246"
 340      58DAA162 
 340      E9DED1E1 
 340      310E1DA2 
 340      A6
 341 0504 4E54E4DC 		.ascii	"NT\344\334\322\241dj\252\355E]\274T\027\355\240c\017"
 341      D2A1646A 
 341      AAED455D 
 341      BC5417ED 
 341      A0630F
 342 0517 E88856EA 		.ascii	"\350\210V\352PA\262[=nO#\037\364\010\303\363\273x\264"
 342      5041B25B 
 342      3D6E4F23 
 342      1FF408C3 
 342      F3BB78B4 
 343 052b 4F485C85 		.ascii	"OH\\\205\316P\303ON\326\237\307#\242\267\236\371\213"
ARM GAS  C:\Users\AMANRA~1\AppData\Local\Temp\ccxwg9sS.s 			page 27


 343      CE50C34F 
 343      4ED69FC7 
 343      23A2B79E 
 343      F98B
 344 053d 2C69BC69 		.ascii	",i\274i\322$\305\365\035tC9\024\326\241\027\371\323"
 344      D224C5F5 
 344      1D744339 
 344      14D6A117 
 344      F9D3
 345 054f F6292CD7 		.ascii	"\366),\327\306\177/\334W\303\\\007+U8\345\023\300\264"
 345      C67F2FDC 
 345      57C35C07 
 345      2B5538E5 
 345      13C0B4
 346 0562 B7603A8E 		.ascii	"\267`:\216]\302\304\262\322d\374\303\243d2\216\007/"
 346      5DC2C4B2 
 346      D264FCC3 
 346      A364328E 
 346      072F
 347 0574 F6495E78 		.ascii	"\366I^x\013\201\330\021y&\306\035\025Q#\0111}\035:\371"
 347      0B81D811 
 347      7926C61D 
 347      15512309 
 347      317D1D3A 
 348 0589 C0534D12 		.ascii	"\300SM\022\347 4\335/5\215\227\0020\017\310\001\025"
 348      E72034DD 
 348      2F358D97 
 348      02300FC8 
 348      0115
 349 059b 20B8C272 		.ascii	" \270\302r:*9TA\255\274\210z\222\342\334\225\303N]\231"
 349      3A2A3954 
 349      41ADBC88 
 349      7A92E2DC 
 349      95C34E5D 
 350 05b0 B884EE55 		.ascii	"\270\204\356U\354\342y\2169\004\200\022%@\007\305^-"
 350      ECE2798E 
 350      39048012 
 350      254007C5 
 350      5E2D
 351 05c2 DAFD22D2 		.ascii	"\332\375\"\322\335\260\313>e\021Aq\\\3200GX\203\260"
 351      DDB0CB3E 
 351      65114171 
 351      5CD03047 
 351      5883B0
 352 05d5 A08AE8BB 		.ascii	"\240\212\350\273\320\314\240p-\211\363\335\227\227\247"
 352      D0CCA070 
 352      2D89F3DD 
 352      9797A7
 353 05e4 0C683B61 		.ascii	"\014h;a\270,[\306\010\307x/a\240\025C\003\201\327c\032"
 353      B82C5BC6 
 353      08C7782F 
 353      61A01543 
 353      0381D763 
 354 05f9 E638A83A 		.ascii	"\3468\250:\312\"q\371v\230\007\370#\177\301\217\341"
 354      CA2271F9 
 354      769807F8 
 354      237FC18F 
ARM GAS  C:\Users\AMANRA~1\AppData\Local\Temp\ccxwg9sS.s 			page 28


 354      E1
 355 060a DE955C55 		.ascii	"\336\225\\Ur\342\030x\203_i\230\024\360%\231F\343\\"
 355      72E21878 
 355      835F6998 
 355      14F02599 
 355      46E35C
 356 061d 52CDA49B 		.ascii	"R\315\244\233^\220\336\371&\351\336\227s\225\006\271"
 356      5E90DEF9 
 356      26E9DE97 
 356      739506B9 
 357 062d 53A90E4E 		.ascii	"S\251\016N\245\331\235*\273iKwG\321\324\251\276W\307"
 357      A5D99D2A 
 357      BB694B77 
 357      47D1D4A9 
 357      BE57C7
 358 0640 616D1947 		.ascii	"am\031G\231\227\211\327Ox\240\203\224\331\227\325\330"
 358      999789D7 
 358      4F78A083 
 358      94D997D5 
 358      D8
 359 0651 A2454728 		.ascii	"\242EG(#\216\310\013\205\021\271\353\354l\211\026\035"
 359      238EC80B 
 359      8511B9EB 
 359      EC6C8916 
 359      1D
 360 0662 A32F933B 		.ascii	"\243/\223;\237e\353\320q\302\260\315s\217\036\301(\356"
 360      9F65EBD0 
 360      71C2B0CD 
 360      738F1EC1 
 360      28EE
 361 0674 2D03F2A7 		.ascii	"-\003\362\247w\244A7\013\240\033\015B\217\320\376z\232"
 361      77A44137 
 361      0BA01B0D 
 361      428FD0FE 
 361      7A9A
 362 0686 F483709E 		.ascii	"\364\203p\236g\230L\326\300dH\275e4P\270\205\275\373"
 362      67984CD6 
 362      C06448BD 
 362      653450B8 
 362      85BDFB
 363 0699 AF0ACB81 		.ascii	"\257\012\313\201V\314\367DT5\271\242\014j\372\331\323"
 363      56CCF744 
 363      5435B9A2 
 363      0C6AFAD9 
 363      D3
 364 06aa 3B331EE8 		.ascii	";3\036\350,e\232\006\216G\012\013\332F\262\266\233\274"
 364      2C659A06 
 364      8E470A0B 
 364      DA46B2B6 
 364      9BBC
 365 06bc D2AE45E7 		.ascii	"\322\256E\347\351\313\216\375/{\334P\001e\242\257\025"
 365      E9CB8EFD 
 365      2F7BDC50 
 365      0165A2AF 
 365      15
 366 06cd 54090BE5 		.ascii	"T\011\013\345\032\314\327\334\215\276\312\241\213\364"
 366      1ACCD7DC 
ARM GAS  C:\Users\AMANRA~1\AppData\Local\Temp\ccxwg9sS.s 			page 29


 366      8DBECAA1 
 366      8BF4
 367 06db E5E9BA1E 		.ascii	"\345\351\272\036\336\005\025S\246dW\335\214+\272B\231"
 367      DE051553 
 367      A66457DD 
 367      8C2BBA42 
 367      99
 368 06ec C3453B22 		.ascii	"\303E;\"\364\250\2142\315\265\355\273\334Q%e\312\357"
 368      F4A88C32 
 368      CDB5EDBB 
 368      DC512565 
 368      CAEF
 369 06fe A636B8A0 		.ascii	"\2466\270\240\032\312\304\217\275\314b\320\015\312<"
 369      1ACAC48F 
 369      BDCC62D0 
 369      0DCA3C
 370 070d 38DF7153 		.ascii	"8\337qS\207\032)\223r\251\373\272\026\335\241\314hu"
 370      871A2993 
 370      72A9FBBA 
 370      16DDA1CC 
 370      6875
 371 071f D216D44A 		.ascii	"\322\026\324J\357w\346\267\357\323\243N\312\244\025"
 371      EF77E6B7 
 371      EFD3A34E 
 371      CAA415
 372 072e 3D2E43A8 		.ascii	"=.C\250\2072S;\316\355vC\375\224yX\273g\025zD\357\223"
 372      8732533B 
 372      CEED7643 
 372      FD947958 
 372      BB67157A 
 373 0745 06E7ACE8 		.ascii	"\006\347\254\3501\275\317\272_|E\207F(\223\330u.\222"
 373      31BDCFBA 
 373      5F7C4587 
 373      462893D8 
 373      752E92
 374 0758 43CF29D3 		.ascii	"C\317)\323rlj\312\035\275\244L\367\236\256\337\241\031"
 374      726C6ACA 
 374      1DBDA44C 
 374      F79EAEDF 
 374      A119
 375 076a 7A7FB579 		.ascii	"z\177\265y\327\214\001\361:\272\356\234\033\2131\240"
 375      D78C01F1 
 375      3ABAEE9C 
 375      1B8B31A0 
 376 077a 48CAD4A6 		.ascii	"H\312\324\246\215\227\013k\277~\314O\236{\366\334\225"
 376      8D970B6B 
 376      BF7ECC4F 
 376      9E7BF6DC 
 376      95
 377 078b CE6729DA 		.ascii	"\316g)\332\004\364\267Q\247:\213\030f\031\376[\264\314"
 377      04F4B751 
 377      A73A8B18 
 377      6619FE5B 
 377      B4CC
 378 079d F1CF9BFC 		.ascii	"\361\317\233\374\237\212\273\276\264z\010uf\356\332"
 378      9F8ABBBE 
 378      B47A0875 
ARM GAS  C:\Users\AMANRA~1\AppData\Local\Temp\ccxwg9sS.s 			page 30


 378      66EEDA
 379 07ac C3A794D3 		.ascii	"\303\247\224\323\256-\204\256md\027I\251PH\362\322\027"
 379      AE2D84AE 
 379      6D641749 
 379      A95048F2 
 379      D217
 380 07be 6FDA688B 		.ascii	"o\332h\213\332\265\207\371\322HD\244\313\224\322{Y\205"
 380      DAB587F9 
 380      D24844A4 
 380      CB94D27B 
 380      5985
 381 07d0 74F91F24 		.ascii	"t\371\037$\351\"\245\364m\242\373\002#\211\267\377Q"
 381      E922A5F4 
 381      6DA2FB02 
 381      2389B7FF 
 381      51
 382 07e1 123FAB14 		.ascii	"\022?\253\024\317f\225\342C2\355\027\324\221S\3618\234"
 382      CF6695E2 
 382      4332ED17 
 382      D49153F1 
 382      389C
 383 07f3 C3B1400C 		.ascii	"\303\261@\014\247aj\241\034\257\203.\246Fh\002\271\314"
 383      A7616AA1 
 383      1CAF832E 
 383      A6466802 
 383      B9CC
 384 0805 F440CAF7 		.ascii	"\364@\312\367\261\313\230N\240&\240V\240\007@]@7\200"
 384      B1CB984E 
 384      A026A056 
 384      A007405D 
 384      403780
 385 0818 5A807A81 		.ascii	"Z\200z\201n\003\265\003u\003\335\003\272\011\324\006"
 385      6E03B503 
 385      7503DD03 
 385      BA09D406 
 386 0828 7407A80E 		.ascii	"t\007\250\016\250\001\350\026P3\320]\240\016\240~\240"
 386      A801E816 
 386      5033D05D 
 386      A00EA07E 
 386      A0
 387 0839 7AA0FBEC 		.ascii	"z\240\373\35422\334P\360\2432\360\005J\360y\312@\366"
 387      3232DC50 
 387      F0A332F0 
 387      054AF079 
 387      CA40F6
 388 084c C9C27E45 		.ascii	"\311\302~E)\3359/\220C\277\227\304\257)\305\253\224"
 388      29DD392F 
 388      9043BF97 
 388      C4AF29C5 
 388      AB94
 389 085e 7D7A5B06 		.ascii	"}z[\006\345\242R\372\342<\345\345\262^:\257\024\317"
 389      E5A252FA 
 389      E23CE5E5 
 389      B25E3AAF 
 389      14CF
 390 0870 55229F92 		.ascii	"U\"\237\222)\317W\367S\256\374\266\314\321R\365\374"
 390      29CF57F7 
ARM GAS  C:\Users\AMANRA~1\AppData\Local\Temp\ccxwg9sS.s 			page 31


 390      53AEFCB6 
 390      CCD152F5 
 390      FC
 391 0881 928B8FCA 		.ascii	"\222\213\217\312\034\255TwT.^+\003sI\335S\031\364!\031"
 391      1CAD5477 
 391      542E5E2B 
 391      037349DD 
 391      5319F421 
 392 0896 96CB4AE9 		.ascii	"\226\313J\351\226y\225!\013\3139\365\260\310\241\364"
 392      96799521 
 392      0BCB39F5 
 392      B0C8A1F4 
 393 08a6 C9905729 		.ascii	"\311\220W)\305}\224\322S2(\305\352\205$/;\231t\271R"
 393      C57D94D2 
 393      533228C5 
 393      EA85242F 
 393      3B9974B9 
 394 08bb BA615E54 		.ascii	"\272a^TFe\342%\352~Rq:\027\324w, s\001\210i\204\211"
 394      4665E225 
 394      EA7E5271 
 394      3A17D477 
 394      2C207301 
 395 08d3 404AEBAE 		.ascii	"@J\353\256\316\205\2516\276f\005QvU=SeH\333eQ\250V\215"
 395      CE85A936 
 395      BE660551 
 395      76553D53 
 395      6548DB65 
 396 08eb 82BC0864 		.ascii	"\202\274\010d\021NW\012\237Q&\336m\231t\216\372`\"O"
 396      114E570A 
 396      9F5126DE 
 396      6D99748E 
 396      FA60224F 
 397 08ff 5319900A 		.ascii	"S\031\220\012\365\220\021i\030k\333\222\216\026y\310"
 397      F5901169 
 397      186BDB92 
 397      8E1679C8 
 398 090f 2771B92C 		.ascii	"'q\271,\354\345\354\223xWI\352\204\007\252&#6\032\231"
 398      ECE5EC93 
 398      785749EA 
 398      8407AA26 
 398      23361A99 
 399 0923 4DEE7661 		.ascii	"M\356va\274\027-\263/\200\016m\333\216\027@\203\216"
 399      BC172DB3 
 399      2F800E6D 
 399      DB8E1740 
 399      838E
 400 0935 618C13B6 		.ascii	"a\214\023\266Ad\254\262#x\010\220\006\205\261\352\021"
 400      4164ACB2 
 400      23780890 
 400      0685B1EA 
 400      11
 401 0946 8C55430E 		.ascii	"\214UC\016cIs\372\017h\320\3016sZ\020U\011#\236E\"\036"
 401      634973FA 
 401      0F68D0C1 
 401      36735A10 
 401      5509239E 
 402 095d 3E41E80E 		.ascii	">A\350\016\235E\276\033\310lfQ\033e\222\272\313\273"
ARM GAS  C:\Users\AMANRA~1\AppData\Local\Temp\ccxwg9sS.s 			page 32


 402      9D45BE1B 
 402      C86C6651 
 402      1B6592BA 
 402      CBBB
 403 096f 8439BC12 		.ascii	"\2049\274\022\363\027\272\023\242\014\302\224\202O\252"
 403      F317BA13 
 403      A20CC294 
 403      824FAA
 404 097e 1E8E8F37 		.ascii	"\036\216\2177k\321}*\2347\227\276\035\241A\302\374$"
 404      6BD17D2A 
 404      9C3797BE 
 404      1DA141C2 
 404      FC24
 405 0990 25FE71A6 		.ascii	"%\376q\246\027\263h\231a\021\236l\014\344f\031\276\367"
 405      17B36899 
 405      61119E6C 
 405      0CE46619 
 405      BEF7
 406 09a2 863F3C03 		.ascii	"\206?<\003\301\377\213\227\2217x\3661\030\274\355\323"
 406      C1FF8B97 
 406      913778F6 
 406      3118BCED 
 406      D3
 407 09b3 109D91BC 		.ascii	"\020\235\221\274\325\235n\207-\3243\301\351\335\310"
 407      D59D6E87 
 407      2DD433C1 
 407      E9DDC8
 408 09c2 9B197570 		.ascii	"\233\031up\272e\026\275\252\330K\347\2561\234>\202\264"
 408      BA6516BD 
 408      AAD84BE7 
 408      AE319C3E 
 408      82B4
 409 09d4 8ADFB2BE 		.ascii	"\212\337\262\276z\356\320W\270\035\015\275\303\024\361"
 409      7AEED057 
 409      B81D0DBD 
 409      C314F1
 410 09e3 14A68827 		.ascii	"\024\246\210'x\212\310\002\253\343\002\202L\270\317"
 410      788AC802 
 410      ABE30282 
 410      4CB8CF
 411 09f2 40CB9874 		.ascii	"@\313\230t\2403@\247\201N\001\235\004:\001\224\006\224"
 411      A03340A7 
 411      814E019D 
 411      043A0194 
 411      0694
 412 0a04 0A741C68 		.ascii	"\012t\034h/\320.\240(\240\235@/a\370\237\000z\3418\005"
 412      2FD02EA0 
 412      28A09D40 
 412      2F61F89F 
 412      007AE138 
 413 0a19 FC92E61C 		.ascii	"\374\222\346\034\254\265\206\241\323\306\235L\274\352"
 413      ACB586A1 
 413      D3C69D4C 
 413      BCEA
 414 0a27 D01E0B2D 		.ascii	"\320\036\013-\376\177\240\315\326-L#\031\205\217\313"
 414      FE7FA0CD 
 414      D62D4C23 
ARM GAS  C:\Users\AMANRA~1\AppData\Local\Temp\ccxwg9sS.s 			page 33


 414      19858FCB 
 415 0a37 2E310A70 		.ascii	".1\012p\363\347\204\256\272\305T~\022\3178\352\362\312"
 415      F3E784AE 
 415      BAC5547E 
 415      12CF38EA 
 415      F2CA
 416 0a49 AE9872E8 		.ascii	"\256\230r\350\212IZ6\016\3166\302[\\{\314-\3208%8\273"
 416      8A495A36 
 416      0ECE36C2 
 416      5B5C7BCC 
 416      2DD03825 
 417 0a5f 1D9C9D03 		.ascii	"\035\234\235\003\300\263@\323\016\240\357G\273\314\346"
 417      C0B340D3 
 417      0EA0EF47 
 417      BBCCE6
 418 0a6e F37C9496 		.ascii	"\363|\224\226\231\021\362a\312\331t \203\361\312\001"
 418      9911F261 
 418      CAD97420 
 418      83F1CA01 
 419 0a7e C6CCEB60 		.ascii	"\306\314\353`\354\000\323o\206\321w\032\361'\336%\271"
 419      EC00D36F 
 419      86D1771A 
 419      F127DE25 
 419      B9
 420 0a8f 55A38E41 		.ascii	"U\243\216A\034w`\034h>\250\013'I\300\243EL\255 n\337"
 420      1C77601C 
 420      683EA80B 
 420      2749C0A3 
 420      454CAD20 
 421 0aa5 40F9A827 		.ascii	"@\371\250'\201\375\3756\000\021\201(\240H\270\267A\207"
 421      81FDFD36 
 421      00118128 
 421      A048B8B7 
 421      4187
 422 0ab7 86234595 		.ascii	"\206#E\225\354\271&\253\222\033`\002\267P\233j\324m"
 422      ECB926AB 
 422      921B6002 
 422      B7509B6A 
 422      D46D
 423 0ac9 D4092D9C 		.ascii	"\324\011-\234\333\350\363\246y,V\341|\375\276\322\354"
 423      DBE8F3A6 
 423      792C56E1 
 423      7CFDBED2 
 423      EC
 424 0ada D17586CE 		.ascii	"\321u\206\316\036 $\037\366\350\313\341D\227=i\373\360"
 424      1E20241F 
 424      F6E8CBE1 
 424      44973D69 
 424      FBF0
 425 0aec A888C371 		.ascii	"\250\210\303qS:B\301\322\242\320\303h\227\311\\\274"
 425      533A42C1 
 425      D2A2D0C3 
 425      6897C95C 
 425      BC
 426 0afd 0D9E6255 		.ascii	"\015\236bUT\014\034\320\301\036\217\364j\275\324\036"
 426      540C1CD0 
 426      C11E8FF4 
ARM GAS  C:\Users\AMANRA~1\AppData\Local\Temp\ccxwg9sS.s 			page 34


 426      6ABDD41E 
 427 0b0d 8B8A709B 		.ascii	"\213\212p\233fQ\326\365\355|\254\0379\335lR&\253bY\012"
 427      6651D6F5 
 427      ED7CAC1F 
 427      39DD6C52 
 427      26AB6259 
 428 0b22 2A47574B 		.ascii	"*GWK]\324*\210\333\303\3232O\274|5\015G4\210\267)\265"
 428      5DD42A88 
 428      DBC3D332 
 428      4FBC7C35 
 428      0D473488 
 429 0b39 B728EA7A 		.ascii	"\267(\352z\336\240\267\007B\2546\350\011\336%\323\350"
 429      DEA0B707 
 429      42AC36E8 
 429      09DE25D3 
 429      E8
 430 0b4a 3D53731D 		.ascii	"=Ss\035\2427\033\033\016\201\301\226;$\347\237\211\316"
 430      A2371B1B 
 430      0E81C196 
 430      3B24E79F 
 430      89CE
 431 0b5c F3241FA2 		.ascii	"\363$\037\242\323\205|\210A\213\231{J\200\362\305\344"
 431      D3857C88 
 431      418B997B 
 431      4A80F2C5 
 431      E4
 432 0b6d 3E35841A 		.ascii	">5\204\032\322\016\303K\001x\311\220\015\307\200\216"
 432      D20EC34B 
 432      0178C990 
 432      0DC7808E 
 433 0b7d 021D024A 		.ascii	"\002\035\002J\004\332\007\024\007\024\353\220%\265_"
 433      04DA0714 
 433      0714EB90 
 433      25B55F
 434 0b8c D0B0E0A0 		.ascii	"\320\260\340\240w\201U\254\305\351T_\177U6\236t\277"
 434      778155AC 
 434      C5E9545F 
 434      7F55369E 
 434      74BF
 435 0b9e 49BAFCA7 		.ascii	"I\272\374\247Tu<20=\316\205eE\237\200\344E\017\355\346"
 435      54753C32 
 435      303DCE85 
 435      65459F80 
 435      E4450FED 
 436 0bb3 15FD30BC 		.ascii	"\025\3750\274}\212\333?\001\205\011B\376\037\004\217"
 436      7D8ADB3F 
 436      01850942 
 436      FE1F048F 
 437 0bc3 0F8067FB 		.ascii	"\017\200g\373%\317\360\341\3121\227\341\321G<\277\317"
 437      25CFF0E1 
 437      CA3197E1 
 437      D1473CBF 
 437      CF
 438 0bd4 408E5C7B 		.ascii	"@\216\\{\205\006\316\213~\350\035<@\210\025\217eU*^"
 438      8506CE8B 
 438      7EE81D3C 
 438      4088158F 
ARM GAS  C:\Users\AMANRA~1\AppData\Local\Temp\ccxwg9sS.s 			page 35


 438      65552A5E 
 439 0be8 E8F0ED2E 		.ascii	"\350\360\355.8\235\023\220r\255E\373\262\341\264X\333"
 439      389D1390 
 439      72AD45FB 
 439      B2E1B458 
 439      DB
 440 0bf9 6078E44D 		.ascii	"`x\344Mqj.\021\242z\030\002\365\374\255\002u\004$\245"
 440      716A2E11 
 440      A27A1802 
 440      F5FCAD02 
 440      750424A5 
 441 0c0d 401DA681 		.ascii	"@\035\246\201r2\2372I\020\036iJ\265'\345d+\256V\254"
 441      72329F32 
 441      49101E69 
 441      4AB527E5 
 441      642BAE56 
 442 0c22 E9859494 		.ascii	"\351\205\224\224cd\240\265\017R\305\325\202#0\031\216"
 442      6364A0B5 
 442      0F52C5D5 
 442      82233019 
 442      8E
 443 0c33 BFD60F1C 		.ascii	"\277\326\017\034\224\"av\302^O\274Iz\3503ax\002\341"
 443      94226176 
 443      C25E4FBC 
 443      497AE833 
 443      617802E1 
 444 0c47 97CE8529 		.ascii	"\227\316\205)\334\361\213Z\034o\220\231\277\266m>\273"
 444      DCF18B5A 
 444      1C6F9099 
 444      BFB66D3E 
 444      BB
 445 0c58 D066E313 		.ascii	"\320f\343\023W\2203\317)\241p\204\343\036Z6\223\362"
 445      579033CF 
 445      29A17084 
 445      E31E5A36 
 445      93F2
 446 0c6a 3DD88789 		.ascii	"=\330\207\211|i8\"\307\226\333Y\025\341U\262\275\203"
 446      7C693822 
 446      C796DB59 
 446      15E155B2 
 446      BD83
 447 0c7c 208B8F27 		.ascii	" \213\217'w\251\311\312:q K\350\304#\020\351\030\345"
 447      77A9C9CA 
 447      3A71204B 
 447      E8C42310 
 447      E918E5
 448 0c8f BA61FE16 		.ascii	"\272a\376\026\251\375\037\251\373i \236\244.._c\377"
 448      A9FD1FA9 
 448      FB69209E 
 448      A42E2E5F 
 448      63FF
 449 0ca1 8334969F 		.ascii	"\2034\226\237PJ\317\337:\264\313\304O\252\213\313z\242"
 449      504ACFDF 
 449      3AB4CBC4 
 449      4FAA8BCB 
 449      7AA2
 450 0cb3 3E43E837 		.ascii	">C\3507\274>=\245\024\237\277]+\027\264\343E\310w\352"
ARM GAS  C:\Users\AMANRA~1\AppData\Local\Temp\ccxwg9sS.s 			page 36


 450      BC3E3DA5 
 450      149FBF5D 
 450      2B17B4E3 
 450      45C877EA 
 451 0cc7 E232ED53 		.ascii	"\3422\355S?r\234I\307\325gR\241\237\323\351@:\356d "
 451      3F729C49 
 451      C7D56752 
 451      A19FD3E9 
 451      403AEE64 
 452 0cdc 7DFC1CE7 		.ascii	"}\374\034\347,\316\356\021\351\270k\234\014\244\330"
 452      2CCEEE11 
 452      E9B86B9C 
 452      0CA4D8
 453 0ceb 597C4059 		.ascii	"Y|@Yv\371\252{7\014\240\370\007\350\005\2445\303\320"
 453      76F9AA7B 
 453      370CA0F8 
 453      07E805A4 
 453      35C3D0
 454 0cfe FFE18A89 		.ascii	"\377\341\212\211\360s\342\037C\237\303S\226^\004Q\314"
 454      F073E21F 
 454      439FC353 
 454      965E0451 
 454      CC
 455 0d0f 884D18FB 		.ascii	"\210M\030\373\023V\320\301\212z\311?A\001#\327J\337"
 455      1356D0C1 
 455      8A7AC93F 
 455      410123D7 
 455      4ADF
 456 0d21 5373E29F 		.ascii	"Ss\342\237\206\312S<R;\372\210\225\214\311\232\314\303"
 456      86CA533C 
 456      523BFA88 
 456      958CC99A 
 456      CCC3
 457 0d33 AAB1BFB6 		.ascii	"\252\261\277\266\203\222\234$\367\370W\323\234\221\032"
 457      83929C24 
 457      F7F857D3 
 457      9C911A
 458 0d42 971E18CF 		.ascii	"\227\036\030\3175\314\377xjb]\203\351\357w\205\367/"
 458      35CCFF78 
 458      6A625D83 
 458      E9EF7785 
 458      F72F
 459 0d54 E950921B 		.ascii	"\351P\222\033a\236\217\264\314zq8H\270\000C8rd\177\362"
 459      619E8FB4 
 459      CC7A7138 
 459      48B80043 
 459      3872647F 
 460 0d69 621B479F 		.ascii	"b\033G\237A\342\344\"\362\360\332\334D\251p~\311\222"
 460      41E2E422 
 460      F2F0DADC 
 460      44A9707E 
 460      C992
 461 0d7b 63C38CEF 		.ascii	"c\303\214\357\277{\200\014\3116~\001KZC}1\347\021\356"
 461      BF7B800C 
 461      C9367E01 
 461      4B5A437D 
 461      31E711EE 
ARM GAS  C:\Users\AMANRA~1\AppData\Local\Temp\ccxwg9sS.s 			page 37


 462 0d8f CA3CF42E 		.ascii	"\312<\364.\374\177\016q\024GU\\\306!\335{)|J\017l\255"
 462      FC7F0E71 
 462      1447555C 
 462      C621DD7B 
 462      297C4A0F 
 463 0da5 B25C72EE 		.ascii	"\262\\r\356\017\362\274\236\303RL\016\262\367\037\334"
 463      0FF2BC9E 
 463      C3524C0E 
 463      B2F71FDC 
 464 0db5 C2FF6751 		.ascii	"\302\377gQ\017\303d\243n\300\234\217\336\203\306\273"
 464      0FC364A3 
 464      6EC09C8F 
 464      DE83C6BB 
 465 0dc5 B26BA2B4 		.ascii	"\262k\242\264\250\216\302\035\253J\255qu\260\013\010"
 465      A88EC21D 
 465      AB4AAD71 
 465      75B00B08 
 466 0dd5 25BB1788 		.ascii	"%\273\027\210\335\020\301l\376h\325N7\301l}\362;\307"
 466      DD10C16C 
 466      FE68D54E 
 466      37C16C7D 
 466      F23BC7
 467 0de8 6DFC191E 		.ascii	"m\374\031\036\347\015H1\005\222\335\002\245\335Bb7/"
 467      E70D4831 
 467      0592DD02 
 467      A5DD4262 
 467      372F
 468 0dfa E7F67316 		.ascii	"\347\366s\026\335}\3330]\242a\312\210\351\037\362\220"
 468      DD7DDB30 
 468      5DA261CA 
 468      88E91FF2 
 468      90
 469 0e0b 03FCD33B 		.ascii	"\003\374\323;2|\305\004_\221\030\227\263\225Y\375\254"
 469      327CC504 
 469      5F911897 
 469      B39559FD 
 469      AC
 470 0e1c 0830C300 		.ascii	"\0100\303\000\345\024\301\343\237\001@\214\271(\001"
 470      E514C1E3 
 470      9F01408C 
 470      B92801
 471 0e2b BCA80458 		.ascii	"\274\250\004XB\000\336zr\271\304\035\365Q\200\325q\023"
 471      4200DE7A 
 471      72B9C41D 
 471      F55180D5 
 471      7113
 472 0e3d DFE90818 		.ascii	"\337\351\010\030<JQ\200\0313\343\356N\241\\%P\256\210"
 472      3C4A5180 
 472      1933E3EE 
 472      4EA15C25 
 472      50AE88
 473 0e50 5022F35B 		.ascii	"P\"\363[\233\275\000J\017\235\2712c\266\357\341\217"
 473      9BBD004A 
 473      0F9DB932 
 473      63B6EFE1 
 473      8F
 474 0e61 33448CB9 		.ascii	"3D\214\271,A\271\214\350\271<SJ!\360\245s\260y\246\020"
ARM GAS  C:\Users\AMANRA~1\AppData\Local\Temp\ccxwg9sS.s 			page 38


 474      2C41B98C 
 474      E8B93C53 
 474      4A21F0A5 
 474      73B079A6 
 475 0e76 F65E1B6F 		.ascii	"\366^\033o5\330\343A!\334\337\373<\337\313y\177U\020"
 475      35D8E341 
 475      21DCDFFB 
 475      3CDFCB79 
 475      7F5510
 476 0e89 10E52288 		.ascii	"\020\345\"\210'q\315\263Z\001D\375\324\367\217\333R"
 476      2771CDB3 
 476      5A0144FD 
 476      D4F78FDB 
 476      52
 477 0e9a BCB10853 		.ascii	"\274\261\010S&\001(\023\001T\022\000\3219Y\003z4C\001"
 477      26012813 
 477      01541200 
 477      D1395903 
 477      7A344301 
 478 0eae 544E1F2B 		.ascii	"TN\037+\026}x:\265\2004\307\241\274&5\277&6\257\"\315"
 478      167D783A 
 478      B58034C7 
 478      A1BC2635 
 478      BF2636AF 
 479 0ec4 5B9E4F94 		.ascii	"[\236O\224\353Q\024\375\025hg\357\216&=\315\360\227"
 479      EB5114FD 
 479      156867EF 
 479      8E263DCD 
 479      F097
 480 0ed6 64339E36 		.ascii	"d3\2366=\341\"|=\200\177\260\236\033lK\023\266\340#"
 480      3DE1227C 
 480      3D807FB0 
 480      9E1B6C4B 
 480      13B6E023 
 481 0eea F8FD8181 		.ascii	"\370\375\201\201\233\243nh7m<\334k;\341\205\016R&\245"
 481      9BA36E68 
 481      376D3CDC 
 481      6B3BE185 
 481      0E5226A5 
 482 0efe 6E67BD1B 		.ascii	"ng\275\033:B\231\334\330\360p\2042)c\2138q\227\305\247"
 482      3A4299DC 
 482      D8F07084 
 482      3229638B 
 482      387197C5 
 483 0f13 13B6D7FF 		.ascii	"\023\266\327\377\304\200Z\317\345\237\360d`s\236\312"
 483      C4805ACF 
 483      E59FF064 
 483      60739ECA 
 484 0f23 47DAF8D2 		.ascii	"G\332\370\322\252\356wO\220\261\271\001\346\351z\360"
 484      AAEE774F 
 484      90B1B901 
 484      E6E97AF0 
 485 0f33 E796FA2A 		.ascii	"\347\226\372*^}\325zSh\200\027I\267a\025\320\210\344"
 485      5E7DD57A 
 485      53688017 
 485      49B76115 
 485      D088E4
ARM GAS  C:\Users\AMANRA~1\AppData\Local\Temp\ccxwg9sS.s 			page 39


 486 0f46 ABD6AA2E 		.ascii	"\253\326\252.:\330\336r\\\305\340\221\"\352E\016\207"
 486      3AD8DE72 
 486      5CC5E091 
 486      22EA450E 
 486      87
 487 0f57 0A0874B6 		.ascii	"\012\010t\266\244j\357\035w\306{\221}\020\256\261\221"
 487      A46AEF1D 
 487      77C67B91 
 487      7D10AEB1 
 487      91
 488 0f68 BDC05D50 		.ascii	"\275\300]P\334$E\370\026\331\013\250\343\270\003\266"
 488      DC2445F8 
 488      16D90BA8 
 488      E3B803B6 
 489 0f78 D570E023 		.ascii	"\325p\340#\362\304\301(\017TI\243\364\250f\374\201+"
 489      F2C4C128 
 489      0F5449A3 
 489      F4A866FC 
 489      812B
 490 0f8a AAA3CCF8 		.ascii	"\252\243\314\370\365\203\231\036\350\026\005qx\262\244"
 490      F583991E 
 490      E8160571 
 490      78B2A4
 491 0f99 C2E9472C 		.ascii	"\302\351G,\355\310\351"
 491      EDC8E9
 492 0fa0 F7251D2E 		.ascii	"\367%\035.\223\364\007\2556\244gZ\321\374O&z\263\312"
 492      93F407AD 
 492      36A4675A 
 492      D1FC4F26 
 492      7AB3CA
 493 0fb3 61948972 		.ascii	"a\224\211r'&\317fM\347\352I&\033\305DN9\034\235\353"
 493      2726CF66 
 493      4DE7EA49 
 493      261BC544 
 493      4E391C9D 
 494 0fc8 BCAEEF91 		.ascii	"\274\256\357\221<\356\024\3638%<\272\311E~\006\005\357"
 494      3CEE14F3 
 494      38253CBA 
 494      C9457E06 
 494      05EF
 495 0fda 65BDDC85 		.ascii	"e\275\334\205\304E\030\310\236)L\310tG{\211a6\1772\262"
 495      C44518C8 
 495      9E294CC8 
 495      74477B89 
 495      61367F32 
 496 0fef 8B65BC0D 		.ascii	"\213e\274\015\366\030\247\333\010\352^h\321-\241\356"
 496      F618A7DB 
 496      08EA5E68 
 496      D12DA1EE 
 497 0fff 22       		.ascii	"\""
 498 1000 0B3D27FA 		.ascii	"\013='\372\231\036\010\203\203\211\322\374\242<\003"
 498      991E0883 
 498      8389D2FC 
 498      A23C03
 499 100f 3A487D7B 		.ascii	":H}{6s\264P\310\342\305\300\276\352\216\215\325\011"
 499      3673B450 
 499      C8E2C5C0 
ARM GAS  C:\Users\AMANRA~1\AppData\Local\Temp\ccxwg9sS.s 			page 40


 499      BEEA8E8D 
 499      D509
 500 1021 E748F8E7 		.ascii	"\347H\370\347\364\354\224\261\243\010\235\241\262\245"
 500      F4EC94B1 
 500      A3089DA1 
 500      B2A5
 501 102f D3173B0C 		.ascii	"\323\027;\014(\2130\372\254\213yw\334\230E\344h\310"
 501      288B30FA 
 501      AC8B7977 
 501      DC9845E4 
 501      68C8
 502 1041 B0CC7B91 		.ascii	"\260\314{\221\303z\274\037-a\356C(\230A0>\"t\3610\334"
 502      C37ABC1F 
 502      2D61EE43 
 502      28984130 
 502      3E2274F1 
 503 1057 3F85F5F8 		.ascii	"?\205\365\370w@\217\201\206\200\036)\367\277s\327\245"
 503      77408F81 
 503      86801E29 
 503      F7BF73D7 
 503      A5
 504 1068 A5E50370 		.ascii	"\245\345\003pq\004\251\257Q\354!9K\267\240\017An@\012"
 504      7104A9AF 
 504      51EC2139 
 504      4BB7A00F 
 504      416E400A 
 505 107c C9085A24 		.ascii	"\311\010Z$\327\372J\334E\341\310u(\325\316_\313t5\010"
 505      D7FA4ADC 
 505      45E1C875 
 505      28D5CE5F 
 505      CB743508 
 506 1090 CBB62788 		.ascii	"\313\266'\210\356\302G\234\354\302\205U^\203\260T\302"
 506      EEC2479C 
 506      ECC28555 
 506      5E83B054 
 506      C2
 507 10a1 E9D4A2AE 		.ascii	"\351\324\242\256^\271V\177\350\260\251yB\327\352\302"
 507      5EB9567F 
 507      E8B0A979 
 507      42D7EAC2 
 508 10b1 D2556EBD 		.ascii	"\322Un\275Z\325\272,\006\365\015\264^G\320\374\243\311"
 508      5AD5BA2C 
 508      06F50DB4 
 508      5E47D0FC 
 508      A3C9
 509 10c3 79FDD127 		.ascii	"y\375\321'\200{S\177@o\237,\033/\325\243\022\332\365"
 509      807B537F 
 509      406F9F2C 
 509      1B2FD5A3 
 509      12DAF5
 510 10d6 33E7B367 		.ascii	"3\347\263g\264\250\21121\005\0353^\250\223\346\350\266"
 510      B4A88932 
 510      31051D33 
 510      5EA893E6 
 510      E8B6
 511 10e8 860B834E 		.ascii	"\206\013\203NK\360\305\353JP\370M\3719\304ll~\011j3"
 511      4BF0C5EB 
ARM GAS  C:\Users\AMANRA~1\AppData\Local\Temp\ccxwg9sS.s 			page 41


 511      4A50F84D 
 511      F939C46C 
 511      6C7E096A 
 512 10fd 0EDC8ED2 		.ascii	"\016\334\216\3221\364\024R\375\204\347\031\264\032\027"
 512      31F41452 
 512      FD84E719 
 512      B41A17
 513 110c 9C99044B 		.ascii	"\234\231\004K\323\340\300\004>%\003\232R&VR\235\220"
 513      D3E0C004 
 513      3E25039A 
 513      52265652 
 513      9D90
 514 111e 0262978E 		.ascii	"\002b\227\216\277\266K\307\333\024]:\356\244K\205Nh"
 514      BFB64BC7 
 514      DB145D3A 
 514      EEA44B85 
 514      4E68
 515 1130 1356A8F3 		.ascii	"\023V\250\363\266~XW\273\240\013\273:\252\256Kn\273"
 515      B67E5857 
 515      BBA00BBB 
 515      3AAAAE4B 
 515      6EBB
 516 1142 B94DD1FF 		.ascii	"\271M\321\377\363\241\212'\304\361\265\347\207th\200"
 516      F3A18A27 
 516      C4F1B5E7 
 516      87746880 
 517 1152 764547EE 		.ascii	"vEG\356\261\034\003\263\310[=Z\263\370x\364\015\321"
 517      B11C03B3 
 517      C85B3D5A 
 517      B3F878F4 
 517      0DD1
 518 1164 B25755B1 		.ascii	"\262WU\261\355\000\356\233W ?#\365\3158\251*0{\361\362"
 518      ED00EE9B 
 518      57203F23 
 518      F5CD38A9 
 518      2A307BF1 
 519 1179 939574D0 		.ascii	"\223\225t\320X\202\027\327\367\236\225\012\337\347\364"
 519      588217D7 
 519      F79E950A 
 519      DFE7F4
 520 1188 E04123B7 		.ascii	"\340A#\267~o\222\007\232\241\311\222\035\027\036\317"
 520      7E6F9207 
 520      9AA1C992 
 520      1D171ECF 
 521 1198 A2080361 		.ascii	"\242\010\003a\332v<\257uA\261\204q\035\335\331\322\310"
 521      DA763CAF 
 521      7541B184 
 521      711DDDD9 
 521      D2C8
 522 11aa 31C2AF9C 		.ascii	"1\302\257\234\213\354\035U\223)t\224\270\221\210\346"
 522      8BEC1D55 
 522      93297494 
 522      B89188E6 
 523 11ba 5EF77BD8 		.ascii	"^\367{\330x\247\020,q\023\344 \256\330\004\3413\274"
 523      78A7102C 
 523      7113E420 
 523      AED804E1 
ARM GAS  C:\Users\AMANRA~1\AppData\Local\Temp\ccxwg9sS.s 			page 42


 523      33BC
 524 11cc 4EC5B646 		.ascii	"N\305\266FE\275\2743\352\357\311\364\3338\205\274lK"
 524      45BDBC33 
 524      EAEFC9F4 
 524      DB3885BC 
 524      6C4B
 525 11de 266C5584 		.ascii	"&lU\204\337[@j\376\031\300l\307\302x\036\353\022w=X"
 525      DF5B406A 
 525      FE19C06C 
 525      C7C2781E 
 525      EB12773D 
 526 11f3 97CAAE87 		.ascii	"\227\312\256\207Z~*\367\354\244\272g\363\217\033yn\011"
 526      5A7E2AF7 
 526      ECA4BA67 
 526      F38F1B79 
 526      6E09
 527 1205 33874B3D 		.ascii	"3\207K=B\300\212\373{'\347\315Dq\313\230H\240\355@\273"
 527      42C08AFB 
 527      7B27E7CD 
 527      4471CB98 
 527      48A0ED40 
 528 121a 80B601ED 		.ascii	"\200\266\001\355\340\354\345\336?|`\220C\211\244k\330"
 528      E0ECE5DE 
 528      3F7C6090 
 528      4389A46B 
 528      D8
 529 122b D6B1F610 		.ascii	"\326\261\366\020\371\334\236T\021\203\323a/\250\333"
 529      F9DC9E54 
 529      1183D361 
 529      2FA8DB
 530 123a CDD9D301 		.ascii	"\315\331\323\001\373\350\314\372\036\260\370WXo|\236"
 530      FBE8CCFA 
 530      1EB0F857 
 530      586F7C9E 
 531 124a 06F3ED49 		.ascii	"\006\363\355I\232%\345)E\177\207r\350\375\363\370\366"
 531      9A25E529 
 531      457F8772 
 531      E8FDF3F8 
 531      F6
 532 125b 6E4F749E 		.ascii	"nOt\2362\203\331M\260\264\270D1^\177\0313\202\234\015"
 532      3283D94D 
 532      B0B4B844 
 532      315E7F19 
 532      33829C0D 
 533 126f 3C099CF3 		.ascii	"<\011\234\363oK\177r\207|\013\025\317\351\231}\334\274"
 533      6F4B7F72 
 533      877C0B15 
 533      CFE9997D 
 533      DCBC
 534 1281 7107A546 		.ascii	"q\007\245F\026\347xB\025-S]\264h\230\375\202W\007\300"
 534      16E77842 
 534      152D535D 
 534      B46898FD 
 534      825707C0 
 535 1295 C4414E5E 		.ascii	"\304AN^7\015\211\272\227\347\361\216b\377\274\316\307"
 535      370D89BA 
 535      97E7F18E 
ARM GAS  C:\Users\AMANRA~1\AppData\Local\Temp\ccxwg9sS.s 			page 43


 535      62FFBCCE 
 535      C7
 536 12a6 93C4419D 		.ascii	"\223\304A\235p\360\005\206\343\300\360~\316YU?K{tW\213"
 536      70F00586 
 536      E3C0F07E 
 536      CE59553F 
 536      4B7B7457 
 537 12bb 06A99F0F 		.ascii	"\006\251\237\017\256v\374\267\275/\236~\202\017<\016"
 537      AE76FCB7 
 537      BD2F9E7E 
 537      820F3C0E 
 538 12cb 43CB4409 		.ascii	"C\313D\011\372~\316\371\032\353\020\240TC\234\200t)"
 538      FA7ECEF9 
 538      1AEB10A0 
 538      54439C80 
 538      7429
 539 12dd BD37FEC8 		.ascii	"\2757\376\310\320\217\016\274\355gT%\331B\365\341u\334"
 539      D08F0EBC 
 539      ED675425 
 539      D942F5E1 
 539      75DC
 540 12ef 0D28FD64 		.ascii	"\015(\375dn\336\201\250\274\234\372\276\246\373x\234"
 540      6EDE81A8 
 540      BC9CFABE 
 540      A6FB789C 
 541 12ff 1AE11C15 		.ascii	"\032\341\034\025\267'\201\362p\247<\210\012\343\235"
 541      B72781F2 
 541      70A73C88 
 541      0AE39D
 542 130e 7A9DA0DB 		.ascii	"z\235\240\333\376\033\211\343\017\243\370((\210\306"
 542      FE1B89E3 
 542      0FA3F828 
 542      2888C6
 543 131d 0B7B1BCB 		.ascii	"\013{\033\313)\220\324\"gG\3410\325\325`\3431B\023\354"
 543      2990D422 
 543      6747E130 
 543      D5D560E3 
 543      314213EC 
 544 1331 F971F03C 		.ascii	"\371q\360<\0112.\005\350\010\320Q\240c\234\374X\260"
 544      09322E05 
 544      E808D051 
 544      A0639CFC 
 544      58B0
 545 1343 FC1B0A0D 		.ascii	"\374\033\012\015\217x\315\0024\373\320)?\247\021\026"
 545      8F78CD02 
 545      34FBD029 
 545      3FA71116 
 546 1353 C943B4CC 		.ascii	"\311C\264\314\2239\345\"\371\362\266\310q\0174E\373"
 546      9339E522 
 546      F9F2B6C8 
 546      710F3445 
 546      FB
 547 1364 EEE9AEF8 		.ascii	"\356\351\256\370\213\214\274\220nV\354\305\205t\002"
 547      8B8CBC90 
 547      6E56ECC5 
 547      857402
 548 1373 B4A74A1D 		.ascii	"\264\247J\035\230<\277\220\354n\244\001\364\267q\003"
ARM GAS  C:\Users\AMANRA~1\AppData\Local\Temp\ccxwg9sS.s 			page 44


 548      983CBF90 
 548      EC6EA401 
 548      F4B77103 
 549 1383 4CA7A7ED 		.ascii	"L\247\247\355O5\274\237&n\332bb\352x\3768K\214U\323"
 549      4F35BC9F 
 549      266EDA62 
 549      62EA78FE 
 549      384B8C55 
 550 1398 41DCAE56 		.ascii	"A\334\256V\203\237\300\377'\271\367\361\367o)\371\267"
 550      839FC0FF 
 550      27B9F7F1 
 550      F76F29F9 
 550      B7
 551 13a9 F5F2052A 		.ascii	"\365\362\005*\357\26089\305\221\305\011\276\202pT\343"
 551      EFB03839 
 551      C591C509 
 551      BE827054 
 551      E3
 552 13ba BE7E57B9 		.ascii	"\276~W\271\360\011N.|Z\020>M\204\343FF\343\265z\351"
 552      F0094E2E 
 552      7C5A103E 
 552      4D84E346 
 552      46E3B57A 
 553 13cf 6B513C65 		.ascii	"kQ<eH\262g8\374\311\225\0179;#\337D=\235\346\026\306"
 553      48B26738 
 553      FCC9950F 
 553      393B23DF 
 553      443D9DE6 
 554 13e5 0A61F819 		.ascii	"\012a\370\031C>\375\222V\325\351\334B\261\015a\360\240"
 554      433EFD92 
 554      56D5E9DC 
 554      42B10D61 
 554      F0A0
 555 13f7 359D5D24 		.ascii	"5\235]$|\227\254\305\237\340\334\210,qwj-S\264\226\301"
 555      7C97ACC5 
 555      9FE0DC88 
 555      2C71776A 
 555      2D53B496 
 556 140c 1173CF77 		.ascii	"\021s\317wm\233\020\276Y\302\3739\361\353\375\305\364"
 556      6D9B10BE 
 556      59C2FB39 
 556      F1EBFDC5 
 556      F4
 557 141d EBFDCCBE 		.ascii	"\353\375\314\276\204:F\011&\0332;\213\303\312\316\022"
 557      843A4609 
 557      261B323B 
 557      8BC3CACE 
 557      12
 558 142e 309914CC 		.ascii	"0\231\024\314Y\002fOt\332\034\222\007\246\302a\231\237"
 558      5902664F 
 558      74DA1C92 
 558      07A6C261 
 558      999F
 559 1440 23042687 		.ascii	"#\004&\207\004\246 i|\302K.|\325A8W\020\316%\302\215"
 559      04A62069 
 559      7CC24B2E 
 559      7CD54138 
ARM GAS  C:\Users\AMANRA~1\AppData\Local\Temp\ccxwg9sS.s 			page 45


 559      5710CE25 
 560 1456 4F8B77BB 		.ascii	"O\213w\273\243\355\036\364\323\244\335s\011.N\267\036"
 560      A3ED1EF4 
 560      D3A4DD73 
 560      092E4EB7 
 560      1E
 561 1467 E739F991 		.ascii	"\3479\371\221GYY\302\036|\344Q\332\303\2276e\350\356"
 561      475959C2 
 561      1E7CE451 
 561      DAC39736 
 561      65E8EE
 562 147a D56DE71B 		.ascii	"\325m\347\033!6_\0209\346\234\224\201p\353x\246\220"
 562      21365F10 
 562      39E69C94 
 562      8170EB78 
 562      A690
 563 148c C7E10D71 		.ascii	"\307\341\015qO\362\303x\017TL\015\267\234*9\217\004"
 563      4FF2C378 
 563      0F544C0D 
 563      B79C2A39 
 563      8F04
 564 149e 65154368 		.ascii	"e\025Ch(\357\021\317\203\003\221\014G\264\345K\332\362"
 564      28EF11CF 
 564      8303910C 
 564      47B4E54B 
 564      DAF2
 565 14b0 95DA0A88 		.ascii	"\225\332\012\210\266\226\201\362\000TM\225ed\037\313"
 565      B69681F2 
 565      00544D95 
 565      65641FCB 
 566 14c0 F5447729 		.ascii	"\365Dw)\023]^\221\244\205\015\026S\210\033\222\363\213"
 566      135D5E91 
 566      A4850D16 
 566      53881B92 
 566      F38B
 567 14d2 3305650C 		.ascii	"3\005e\014\331r\225\332\017X\0166\245\0269\337s\025"
 567      D97295DA 
 567      0F580E36 
 567      A51639DF 
 567      7315
 568 14e4 11C72F71 		.ascii	"\021\307/q\202\3477\216\335\311\341\004\260\335%\272"
 568      82E7378E 
 568      DDC9E104 
 568      B0DD25BA 
 569 14f4 8E613CAC 		.ascii	"\216a<\254\205\363?\253a\261$sA\004\313\\\3448\3149"
 569      85F33FAB 
 569      61B12473 
 569      4104CB5C 
 569      E438CC39 
 570 1508 E22D2678 		.ascii	"\342-&xwo\313\010\327\241\323\236\004cc\352\265^\017"
 570      776FCB08 
 570      D7A1D39E 
 570      046363EA 
 570      B55E0F
 571 151b 41614B86 		.ascii	"AaK\206\356zt4U\370\005q\276Dr\276D\251\3542Qvj\342"
 571      EE7A7434 
 571      55F80571 
ARM GAS  C:\Users\AMANRA~1\AppData\Local\Temp\ccxwg9sS.s 			page 46


 571      BE4472BE 
 571      44A9EC32 
 572 1533 65B4273A 		.ascii	"e\264':G\225\015\036\033-p\227BY\244\010\345\025I\333"
 572      47950D1E 
 572      1B2D7097 
 572      4259A408 
 572      E51549DB 
 573 1547 15A5B6AB 		.ascii	"\025\245\266\253D[e\355\330)WTL\265\0359u\271\231\236"
 573      445B65ED 
 573      D8295754 
 573      4CB51D39 
 573      75B9999E 
 574 155b 4641850A 		.ascii	"FA\205\012\301\312\233\270sTk?})\343\310\303\270\013"
 574      C1CA9BB8 
 574      73546B3F 
 574      7D29E3C8 
 574      C3B80B
 575 156e FB4BF54E 		.ascii	"\373K\365N#XA\"X.F0e\240$M+\346\316,:+\303\010\222L"
 575      23584122 
 575      582E4630 
 575      65A0244D 
 575      2BE6CE2C 
 576 1588 A96CEA54 		.ascii	"\251l\352Tb\254$\030\371'\355-,\252\241\030_\2154\276"
 576      62AC2418 
 576      F927ED2D 
 576      2CAAA118 
 576      5F8D34BE 
 577 159c 123E25D4 		.ascii	"\022>%\324'H_\026.\026\276,<~s\354\200\0365S\331\314"
 577      27485F16 
 577      2E16BE2C 
 577      3C7E73EC 
 577      801E3553 
 578 15b2 0B278B84 		.ascii	"\013'\213\204\217\327\335\360qa^i\003\353\264\252k\305"
 578      8FD7DDF0 
 578      71615E69 
 578      03EBB4AA 
 578      6BC5
 579 15c4 AABE4EAB 		.ascii	"\252\276N\253\272\237o\335\316*\353\266\032\352\266"
 579      BA9F6FDD 
 579      CE2AEBB6 
 579      1AEAB6
 580 15d3 8AD46D1D 		.ascii	"\212\324m\035\251[\322\010K\237*\273wN/\227N}\235\364"
 580      A95BD208 
 580      4B9F2ABB 
 580      774E2F97 
 580      4E7D9DF4 
 581 15e7 74E1502F 		.ascii	"t\341P/\202\001\266\261\224\034\\\026\335\217\344\303"
 581      8201B6B1 
 581      941C5C16 
 581      DD8FE4C3 
 582 15f7 B7C32C70 		.ascii	"\267\303,p\203[\310\324\340x\240\367d\215\257\301\223"
 582      835BC8D4 
 582      E078A0F7 
 582      648DAFC1 
 582      93
 583 1608 3F4252DF 		.ascii	"?BR\337$cl\365\215\366(=\352\366tz6v\363ZS\242\016\015"
 583      24636CF5 
ARM GAS  C:\Users\AMANRA~1\AppData\Local\Temp\ccxwg9sS.s 			page 47


 583      8DF6283D 
 583      EAF6747A 
 583      3676F35A 
 584 1620 1301EE48 		.ascii	"\023\001\356H\345\205\247\356\214\033\375\032\326{\007"
 584      E585A7EE 
 584      8C1BFD1A 
 584      D67B07
 585 162f F962D516 		.ascii	"\371b\325\026\273\200\261\177\261z\007\246\202[\234"
 585      BB80B17F 
 585      B17A07A6 
 585      825B9C
 586 163e 1B68B80D 		.ascii	"\033h\270\015\006\233\300 \376\030\026?!\037\310. \267"
 586      069BC020 
 586      FE18163F 
 586      211FC82E 
 586      20B7
 587 1650 B2AF6881 		.ascii	"\262\257h\201e\0329\373W\264\370|k\377\336A\207\263"
 587      651A39FB 
 587      57B4F87C 
 587      6BFFDE41 
 587      87B3
 588 1662 532C2265 		.ascii	"S,\"e\303]\222\015\015b6\304\325\235\216\020G\222\341"
 588      C35D920D 
 588      0D6236C4 
 588      D59D8E10 
 588      4792E1
 589 1675 2E5DB24D 		.ascii	".]\262MH\377\032\016K2\365R6\324+\263\241\231dCx\325"
 589      48FF1A0E 
 589      4B32F552 
 589      36D42BB3 
 589      A1996443 
 590 168b 699B0E1D 		.ascii	"i\233\016\035\363r\232\261\223=\251'\220\363\263\301"
 590      F3729AB1 
 590      933DA927 
 590      90F3B3C1 
 591 169b 3682A755 		.ascii	"6\202\247U\304\323\312\317F\262b9\316\242+y\375\267"
 591      C4D3CACF 
 591      46B26239 
 591      CEA22B79 
 591      FDB7
 592 16ad C2F9C591 		.ascii	"\302\371\305\221nX\216i\221\320\264(\321\264\0234\303"
 592      6E588E69 
 592      91D0B428 
 592      D1B41334 
 592      C3
 593 16be D3E9DF93 		.ascii	"\323\351\337\223\217\276\305\016\243o\2070\372v\220"
 593      8FBEC50E 
 593      A36F8730 
 593      FA7690
 594 16cd D1B7B3F0 		.ascii	"\321\267\263\360\236\315\013\345R\344\255\303\267[\364"
 594      9ECD0BE5 
 594      52E4ADC3 
 594      B75BF4
 595 16dc 521C066D 		.ascii	"R\034\006m\366a\000\253\350\224\014w*\015\337#\206K"
 595      F66100AB 
 595      E8940C77 
 595      2A0DDF23 
ARM GAS  C:\Users\AMANRA~1\AppData\Local\Temp\ccxwg9sS.s 			page 48


 595      864B
 596 16ee AA0FF25E 		.ascii	"\252\017\362^\350\012U\2266t\251B\3700\324\003\033J"
 596      E80A5596 
 596      3674A942 
 596      F830D403 
 596      1B4A
 597 1700 4D38C9D1 		.ascii	"M8\311\321\242x\204_\017\024%T\352\235&~\257\230\370"
 597      A278845F 
 597      0F142554 
 597      EA9D267E 
 597      AF98F8
 598 1713 F8874F5C 		.ascii	"\370\207O\\n|\343\260\2132\361{ 9\272I6\366\221T\356"
 598      6E7CE3B0 
 598      8B32F17B 
 598      2039BA49 
 598      36F69154 
 599 1728 155379EE 		.ascii	"\025Sy\356`\3223\2352\361\235J\037I\252\215r\227\022"
 599      60D2339D 
 599      32F19D4A 
 599      1F49AA8D 
 599      729712
 600 173b 3FEB8190 		.ascii	"?\353\201\220\370\367\205\304/\201\304\227\032w\011"
 600      F8F785C4 
 600      2F81C497 
 600      1A7709
 601 174a 89DFCFBD 		.ascii	"\211\337\317\275\257\371\373\345\313}\340\237\377\306"
 601      AFF9FBE5 
 601      CB7DE09F 
 601      FFC6
 602 1758 C07581A1 		.ascii	"\300u\201\241\026\337\317|W\370\204Z|\314V\037\213\331"
 602      16DFCF7C 
 602      57F8845A 
 602      7CCC561F 
 602      8BD9
 603 176a 1F9E065B 		.ascii	"\037\236\006[6,\367w\375\305\257~\263\364s__\215\253"
 603      362CF777 
 603      FDC5AF7E 
 603      B3F4735F 
 603      5F8DAB
 604 177d D9E41714 		.ascii	"\331\344\027\024f\016\014\325\033\215\233\002C\254\253"
 604      660E0CD5 
 604      1B8D9B02 
 604      43ACAB
 605 178c 561AADEB 		.ascii	"V\032\255\353\375\377y-im\261n\012\010\014]k\015\015"
 605      FDFF792D 
 605      696DB16E 
 605      0A080C5D 
 605      6B0D0D
 606 179f 0DB2ACDD 		.ascii	"\015\262\254\335\020\262i)\271[\352g\016^j\012^g\012"
 606      10B26929 
 606      B95BEA67 
 606      0E5E6A0A 
 606      5E670A
 607 17b2 083005AC 		.ascii	"\0100\005\254\375d\371\212\245+W\370~\362\347\217\326"
 607      FD64F98A 
 607      A52B57F8 
 607      7EF2E78F 
ARM GAS  C:\Users\AMANRA~1\AppData\Local\Temp\ccxwg9sS.s 			page 49


 607      D6
 608 17c3 C2F30F43 		.ascii	"\302\363\017CBCL\037\232\374\326\005\256"
 608      42434C1F 
 608      9AFCD605 
 608      AE
 609 17d0 0D0CF10F 		.ascii	"\015\014\361\017\332\024`Z\033\354\007\272BLk\215\001"
 609      DA14605A 
 609      1BEC07BA 
 609      424C6B8D 
 609      01
 610 17e1 A6F57E9B 		.ascii	"\246\365~\233\202\254F\353\3260\223e\371F\215\253h\357"
 610      82AC46EB 
 610      D6309365 
 610      F9468DAB 
 610      68EF
 611 17f3 F7FFA7F6 		.ascii	"\367\377\247\366,[-k\215\026k\000(\007#:+v\316h\375"
 611      2C5B2D6B 
 611      8D166B00 
 611      2807233A 
 611      2B76CE68 
 612 1808 B96A50FC 		.ascii	"\271jP\374C\203\203CC|\302B\315V\213\317\317\277\372"
 612      43838343 
 612      437CC242 
 612      CD568BCF 
 612      CFBFFA
 613 181b F2F32FBF 		.ascii	"\362\363/\277\305\317\302\002\203Lf\213\317/>\377\034"
 613      C5CFC202 
 613      834C668B 
 613      CF2F3EFF 
 613      1C
 614 182c 1A887075 		.ascii	"\032\210pu\301\326o\203\000\"\027b\372\326\352\022\272"
 614      C1D66F83 
 614      00221762 
 614      FAD6EA12 
 614      BA
 615 183d 25C46476 		.ascii	"%\304dv\371\363&\323&\323\002\377\215F\353F\210c\200"
 615      F9F326D3 
 615      26D302FF 
 615      8D46EB46 
 615      886380
 616 1850 C5481E70 		.ascii	"\305H\036paf\323f/\207GF\253.x\223\325\364\255\321\352"
 616      6166D366 
 616      2F874746 
 616      AB2E7893 
 616      D5F4ADD1 
 617 1865 0AD2E4D6 		.ascii	"\012\322\344\326\325\024f\012\001\224\033\334M\233M"
 617      D514660A 
 617      01941BDC 
 617      4D9B4D
 618 1874 21D6603F 		.ascii	"!\326`?\3137\360\026z\2074\320m\361\013\264\302K/\231"
 618      CB37F016 
 618      7A8734D0 
 618      6DF10BB4 
 618      C24B2F99 
 619 1888 726CDD53 		.ascii	"rl\335S\316\030\255\314&\255i\013n\252\335b\005|ap\261"
 619      CE18ADCC 
 619      26AD690B 
ARM GAS  C:\Users\AMANRA~1\AppData\Local\Temp\ccxwg9sS.s 			page 50


 619      6EAADD62 
 619      057C6170 
 620 189d 9882C390 		.ascii	"\230\202\303\220\177\210\325\315h\024\342\253\023\256"
 620      7F88D5CD 
 620      6814E2AB 
 620      13AE
 621 18ab 2EF0D468 		.ascii	".\360\324h5\200F\220\361\013\333\030j6\351,\330\264"
 621      35804690 
 621      F10BDB18 
 621      6A36E92C 
 621      D8B4
 622 18bd 65830B10 		.ascii	"e\203\013\020\010l\261Z\315a\013\251\011\243\331\264"
 622      086CB15A 
 622      CD610BA9 
 622      09A3D9B4 
 623 18cd DE643685 		.ascii	"\336d6\205\370\003xP\033\272\356\3530W\323\267\201V"
 623      F8037850 
 623      1BBAEEEB 
 623      3057D3B7 
 623      8156
 624 18df FFD00093 		.ascii	"\377\320\000\223\326\034\260\025Zp bq\243\211\363)\330"
 624      D61CB015 
 624      5A702062 
 624      71A389F3 
 624      29D8
 625 18f1 11AF56FC 		.ascii	"\021\257V\374\034\324\255\017\362\333`\321Y\203\241"
 625      1CD4AD0F 
 625      F2DB60D1 
 625      5983A1
 626 1900 057016AB 		.ascii	"\005p\026\253\237\325\344j%\027\254\322o\235\237\305"
 626      9FD5E46A 
 626      2517ACD2 
 626      6F9D9FC5 
 627 1910 24A4DDC7 		.ascii	"$\244\335\307\037\201\357\342\215\336b\375\306/(pC\210"
 627      1F81EFE2 
 627      8DDE62FD 
 627      C62F2870 
 627      4388
 628 1922 D1BAF2ED 		.ascii	"\321\272\362\355\273m\243?\370\003\375\304\205\370\005"
 628      BB6DA33F 
 628      F803FDC4 
 628      85F805
 629 1931 9B38FF8D 		.ascii	"\2338\377\215~f\227\320\240\000\350\244\020\323\026"
 629      7E6697D0 
 629      A000E8A4 
 629      10D316
 630 1940 9319F95B 		.ascii	"\223\031\371[\277e-al\220\0312~\003d\216\321\212\314"
 630      BF652D61 
 630      6C901932 
 630      7E03648E 
 630      D18ACC
 631 1953 BEBE402B 		.ascii	"\276\276@+X\363g\254\371S\326\374\011k\376\2305\377"
 631      58F367AC 
 631      F953D6FC 
 631      096BFE98 
 631      35FF
 632 1965 98357F84 		.ascii	"\2305\177\204,\253|\201V \313\312\317\200>\005\372\004"
ARM GAS  C:\Users\AMANRA~1\AppData\Local\Temp\ccxwg9sS.s 			page 51


 632      2CAB7C81 
 632      5620CBCA 
 632      CF803E05 
 632      FA04
 633 1977 E863A01F 		.ascii	"\350c\240\037\003\301\373\225\253\200V\002\201\334J"
 633      03C1FB95 
 633      AB805602 
 633      81DC4A
 634 1986 90F30539 		.ascii	"\220\363\0059_\220\363\0059\337\217\33512\034}0\372"
 634      5F90F305 
 634      39DF8FDD 
 634      31321C7D 
 634      30FA
 635 1998 F15FE981 		.ascii	"\361_\351\201q\363'\301\340\205\201\250\360\017\015"
 635      71F327C1 
 635      E08581A8 
 635      F00F0D
 636 19a7 814CB172 		.ascii	"\201L\261r8\207\335\354\231\340\022\034\006u\341*t\223"
 636      3887DDEC 
 636      99E0121C 
 636      0675E12A 
 636      7493
 637 19b9 F547CEEA 		.ascii	"\365G\316\352]\250\010xc\361\337\030\000J\275\337,\011"
 637      5DA80878 
 637      63F1DF18 
 637      004ABDDF 
 637      2C09
 638 19cb 4904821F 		.ascii	"I\004\202\037\276\205\312\255\026\2612\336B-$\034\010"
 638      BE85CAAD 
 638      16B132DE 
 638      422D241C 
 638      08
 639 19dc 820B5F5A 		.ascii	"\202\013_Z6\254\201\264_\366\026c\224 \376[(\004\003"
 639      36AC81B4 
 639      5FF61663 
 639      9420FE5B 
 639      280403
 640 19ef B9FBCA14 		.ascii	"\271\373\312\024d\202\224\361\360\337\270\306\177\343"
 640      648294F1 
 640      F0DFB8C6 
 640      7FE3
 641 19fd 2F42D704 		.ascii	"/B\327\004\231Lak\334\011\367\025Db\353j\003\271\377"
 641      994C616B 
 641      DC09F715 
 641      4462EB6A 
 641      03B9FF
 642 1a10 ADDF37A6 		.ascii	"\255\3377\246MakX\377\215\372`?\350\004\022&\024\260"
 642      4D616B58 
 642      FF8DFA60 
 642      3FE80412 
 642      2614B0
 643 1a23 8ED41286 		.ascii	"\216\324\022\206m\012\206\261h\335\246\015na~!\201\376"
 643      6D0A86B1 
 643      68DDA60D 
 643      6E617E21 
 643      81FE
 644 1a35 4630E629 		.ascii	"F0\346)\177\014\271\271\331\212\313\313%\300\024d\365"
ARM GAS  C:\Users\AMANRA~1\AppData\Local\Temp\ccxwg9sS.s 			page 52


 644      7F0CB9B9 
 644      D98ACBCB 
 644      25C01464 
 644      F5
 645 1a46 F38077A0 		.ascii	"\363\200w\240\305d\336\354\027\364V\301\266\006\006"
 645      C564DEEC 
 645      17F456C1 
 645      B60606
 646 1a55 933C5CBF 		.ascii	"\223<\\\277)\304\337u\263\025_\214V<Hl\0164[7a% `Fa"
 646      29C4DF75 
 646      B3155F8C 
 646      563C486C 
 646      0E345B37 
 647 1a6f 7E662F87 		.ascii	"~f/\207'F\353;J!Z\346\256A~\026+\346\3350L\270\032\255"
 647      2746EB3B 
 647      4A215AE6 
 647      AE417E16 
 647      2BE6DD30 
 648 1a87 7FA32206 		.ascii	"\177\243\"\006%f\306W\210\217\021\273\274\225<\325\371"
 648      2566C657 
 648      888F11BB 
 648      BC953CD5 
 648      F9
 649 1a98 6F324315 		.ascii	"o2C\025[\015\322#\243\325\315\036\011\326\032\254\015"
 649      5B0DD223 
 649      A3D5CD1E 
 649      09D61AAC 
 649      0D
 650 1aa9 5DBFDE62 		.ascii	"]\277\336b\262\352\314V2>|\360\026\036\342\316\\`\015"
 650      B2EACC56 
 650      323E7CF0 
 650      161EE2CE 
 650      5C600D
 651 1abc 36FA4399 		.ascii	"6\372C\231\2563\373Y\003C\241V\335\245\360\342\3735"
 651      AE33FB59 
 651      0343A156 
 651      DDA5F0E2 
 651      FB35
 652 1ace 5B2DBF09 		.ascii	"[-\277\011\011\012\365\377\346m\322c+\316#Z6\233H#\017"
 652      090AF5FF 
 652      E66DD263 
 652      2BCE235A 
 652      369B4823 
 653 1ae3 230C5256 		.ascii	"#\014RV\343\277\377|\315\177\376\372\253\325\036~A["
 653      E3BFFF7C 
 653      CD7FFEFA 
 653      ABD51E7E 
 653      415B
 654 1af5 FCB65AA0 		.ascii	"\374\266Z\240\244\202`*\371\374u%\005\345\202\013\312"
 654      A482602A 
 654      F9FC7525 
 654      05E5820B 
 654      CA
 655 1b06 E7F32FD7 		.ascii	"\347\363/\327\254^\343\3639T\224\317j\321N\260%\320"
 655      AC5EE3F3 
 655      395494CF 
 655      6AD14EB0 
ARM GAS  C:\Users\AMANRA~1\AppData\Local\Temp\ccxwg9sS.s 			page 53


 655      25D0
 656 1b18 62DCE0EF 		.ascii	"b\334\340\357OS\021\000\376\022,\271\021\253\330\246"
 656      4F531100 
 656      FE122CB9 
 656      11ABD8A6 
 657 1b28 810ED581 		.ascii	"\201\016\325\201!\026\223\331\012\000H\317\031\227\177"
 657      211693D9 
 657      0A0048CF 
 657      19977F
 658 1b37 BACAF723 		.ascii	"\272\312\367#W\221\363\"\231\270\332\362k:v\257v1\376"
 658      5791F322 
 658      99B8DAF2 
 658      6B3A76AF 
 658      7631FE
 659 1b4a 3BD4E2DB 		.ascii	";\324\342\333\024\026\244\364F\315\367\250\211\365\201"
 659      1416A4F4 
 659      46CDF7A8 
 659      89F581
 660 1b59 EB43A18F 		.ascii	"\353C\241\217\202C7\343l\226R{\215\334\352\312U\377"
 660      824337E3 
 660      6C96527B 
 660      8DDCEACA 
 660      55FF
 661 1b6b 0BD09F76 		.ascii	"\013\320\237v\235"
 661      9D
 662              		.text
 663              		.section	.gnu.lto_.symtab.3049ee85,"",%progbits
 664 0000 63684D73 		.ascii	"chMsgSend\000"
 664      6753656E 
 664      6400
 665 000a 00       		.ascii	"\000"
 666 000b 00       		.ascii	"\000"
 667 000c 00       		.ascii	"\000"
 668 000d 00000000 		.ascii	"\000\000\000\000\000\000\000\000"
 668      00000000 
 669 0015 B4010000 		.ascii	"\264\001\000\000"
 670 0019 63684D73 		.ascii	"chMsgWait\000"
 670      67576169 
 670      7400
 671 0023 00       		.ascii	"\000"
 672 0024 00       		.ascii	"\000"
 673 0025 00       		.ascii	"\000"
 674 0026 00000000 		.ascii	"\000\000\000\000\000\000\000\000"
 674      00000000 
 675 002e B7010000 		.ascii	"\267\001\000\000"
 676 0032 63684D73 		.ascii	"chMsgRelease\000"
 676      6752656C 
 676      65617365 
 676      00
 677 003f 00       		.ascii	"\000"
 678 0040 00       		.ascii	"\000"
 679 0041 00       		.ascii	"\000"
 680 0042 00000000 		.ascii	"\000\000\000\000\000\000\000\000"
 680      00000000 
 681 004a BC010000 		.ascii	"\274\001\000\000"
 682 004e 636800   		.ascii	"ch\000"
 683 0051 00       		.ascii	"\000"
ARM GAS  C:\Users\AMANRA~1\AppData\Local\Temp\ccxwg9sS.s 			page 54


 684 0052 02       		.ascii	"\002"
 685 0053 00       		.ascii	"\000"
 686 0054 00000000 		.ascii	"\000\000\000\000\000\000\000\000"
 686      00000000 
 687 005c 25020000 		.ascii	"%\002\000\000"
 688 0060 63685363 		.ascii	"chSchGoSleepS\000"
 688      68476F53 
 688      6C656570 
 688      5300
 689 006e 00       		.ascii	"\000"
 690 006f 02       		.ascii	"\002"
 691 0070 00       		.ascii	"\000"
 692 0071 00000000 		.ascii	"\000\000\000\000\000\000\000\000"
 692      00000000 
 693 0079 C0010000 		.ascii	"\300\001\000\000"
 694 007d 63685363 		.ascii	"chSchReadyI\000"
 694      68526561 
 694      64794900 
 695 0089 00       		.ascii	"\000"
 696 008a 02       		.ascii	"\002"
 697 008b 00       		.ascii	"\000"
 698 008c 00000000 		.ascii	"\000\000\000\000\000\000\000\000"
 698      00000000 
 699 0094 C4010000 		.ascii	"\304\001\000\000"
 700 0098 63685363 		.ascii	"chSchWakeupS\000"
 700      6857616B 
 700      65757053 
 700      00
 701 00a5 00       		.ascii	"\000"
 702 00a6 02       		.ascii	"\002"
 703 00a7 00       		.ascii	"\000"
 704 00a8 00000000 		.ascii	"\000\000\000\000\000\000\000\000"
 704      00000000 
 705 00b0 C6010000 		.ascii	"\306\001\000\000"
 706              		.text
 707              		.section	.gnu.lto_.opts,"",%progbits
 708 0000 272D666D 		.ascii	"'-fmath-errno' '-fsigned-zeros' '-ftrapping-math' '"
 708      6174682D 
 708      6572726E 
 708      6F272027 
 708      2D667369 
 709 0033 2D666E6F 		.ascii	"-fno-trapv' '-fno-openmp' '-fno-openacc' '-mcpu=cor"
 709      2D747261 
 709      70762720 
 709      272D666E 
 709      6F2D6F70 
 710 0066 7465782D 		.ascii	"tex-m4' '-mthumb' '-mfloat-abi=hard' '-mfpu=fpv4-sp"
 710      6D342720 
 710      272D6D74 
 710      68756D62 
 710      2720272D 
 711 0099 2D643136 		.ascii	"-d16' '-O2' '-fomit-frame-pointer' '-falign-functio"
 711      2720272D 
 711      4F322720 
 711      272D666F 
 711      6D69742D 
 712 00cc 6E733D31 		.ascii	"ns=16' '-ffunction-sections' '-fdata-sections' '-fn"
ARM GAS  C:\Users\AMANRA~1\AppData\Local\Temp\ccxwg9sS.s 			page 55


 712      36272027 
 712      2D666675 
 712      6E637469 
 712      6F6E2D73 
 713 00ff 6F2D636F 		.ascii	"o-common' '-flto'\000"
 713      6D6D6F6E 
 713      2720272D 
 713      666C746F 
 713      2700
 714              		.text
 715              		.comm	__gnu_lto_v1,1,1
 716              		.comm	__gnu_lto_slim,1,1
 717              		.ident	"GCC: (GNU Tools for Arm Embedded Processors 7-2017-q4-major) 7.2.1 20170904 (release) [ARM
ARM GAS  C:\Users\AMANRA~1\AppData\Local\Temp\ccxwg9sS.s 			page 56


DEFINED SYMBOLS
                            *ABS*:00000000 chmsg.c
                            *COM*:00000001 __gnu_lto_v1
                            *COM*:00000001 __gnu_lto_slim

NO UNDEFINED SYMBOLS
