ARM GAS  C:\Users\AMANRA~1\AppData\Local\Temp\cclHfkGS.s 			page 1


   1              		.cpu cortex-m4
   2              		.eabi_attribute 27, 1
   3              		.eabi_attribute 28, 1
   4              		.eabi_attribute 20, 1
   5              		.eabi_attribute 21, 1
   6              		.eabi_attribute 23, 3
   7              		.eabi_attribute 24, 1
   8              		.eabi_attribute 25, 1
   9              		.eabi_attribute 26, 1
  10              		.eabi_attribute 30, 2
  11              		.eabi_attribute 34, 1
  12              		.eabi_attribute 18, 4
  13              		.file	"chthreads.c"
  14              		.section	.gnu.lto_.profile.3049c3b6,"",%progbits
  15 0000 789C6363 		.ascii	"x\234cc```\003bF\206\253,\207\230\000\005\212\001\253"
  15      60606003 
  15      624686AB 
  15      2C879800 
  15      058A01AB 
  16              		.text
  17              		.section	.gnu.lto_.icf.3049c3b6,"",%progbits
  18 0000 789C01B2 		.ascii	"x\234\001\262\000M\377\006\000\000\000\242\000\000\000"
  18      004DFF06 
  18      000000A2 
  18      000000
  19 000f 00000000 		.ascii	"\000\000\000\000\000\000\000\000\033\000\262\371\327"
  19      00000000 
  19      1B00B2F9 
  19      D7
  20 001c E50601CA 		.ascii	"\345\006\001\312\373\220\250\013\003\243\303\332\305"
  20      FB90A80B 
  20      03A3C3DA 
  20      C5
  21 0029 0905E9D5 		.ascii	"\011\005\351\325\246\312\001\006\304\263\221\315\001"
  21      A6CA0106 
  21      C4B391CD 
  21      01
  22 0036 0789E5E9 		.ascii	"\007\211\345\351\207\014\010\216\341\2426\011\230\240"
  22      870C088E 
  22      E1A23609 
  22      98A0
  23 0044 D1AC0B0A 		.ascii	"\321\254\013\012\237\300\371\344\013\013\247\360\316"
  23      9FC0F9E4 
  23      0B0BA7F0 
  23      CE
  24 0051 CF0D0CE6 		.ascii	"\317\015\014\346\203\277\370\003\015\270\241\247\300"
  24      83BFF803 
  24      0DB8A1A7 
  24      C0
  25 005e 0E0EF8E8 		.ascii	"\016\016\370\350\217\300\007\017\260\343\2434\020\343"
  25      8FC0070F 
  25      B0E3A334 
  25      10E3
  26 006c F3BBCA0C 		.ascii	"\363\273\312\014\021\217\272\235\320\006\022\246\222"
  26      118FBA9D 
  26      D00612A6 
  26      92
ARM GAS  C:\Users\AMANRA~1\AppData\Local\Temp\cclHfkGS.s 			page 2


  27 0079 A5D50D13 		.ascii	"\245\325\015\023\274\313\312\371\016\024\202\307\351"
  27      BCCBCAF9 
  27      0E1482C7 
  27      E9
  28 0086 B70615FC 		.ascii	"\267\006\025\374\342\272\237\006\026\231\314\311\206"
  28      E2BA9F06 
  28      1699CCC9 
  28      86
  29 0093 0E179DE7 		.ascii	"\016\027\235\347\346\247\012\030\246\204\205\352\006"
  29      E6A70A18 
  29      A68485EA 
  29      06
  30 00a0 19FF91A7 		.ascii	"\031\377\221\247\306\001\032\323\345\206\207\001\033"
  30      C6011AD3 
  30      E5868701 
  30      1B
  31 00ad 8EB6C0F8 		.ascii	"\216\266\300\370\017\034\201\202\227\201\002\000\245"
  31      0F1C8182 
  31      97810200 
  31      A5
  32 00ba B951B4   		.ascii	"\271Q\264"
  33              		.text
  34              		.section	.gnu.lto_.jmpfuncs.3049c3b6,"",%progbits
  35 0000 789C9552 		.ascii	"x\234\225R\273N\3030\024\275\307N\322\244M\011\357W"
  35      BB4EC330 
  35      14BDC74E 
  35      D2A44D09 
  35      EF57
  36 0012 23F1057C 		.ascii	"#\361\005|`\247,0\261\"\006\324\0251 \225J@\241\205"
  36      60A72C30 
  36      B12206D4 
  36      15312095 
  36      4A40A185 
  37 0026 01756441 		.ascii	"\001udAl\374\003LU\027&\360\315u\252\326.\025D\262\254"
  37      6CFC034C 
  37      551726F0 
  37      CD75AAD6 
  37      2E1544B2 
  38 003b FA9EA7DD 		.ascii	"\372\236\247\335\210\210\016\003\232~-\002Pt4\2313<"
  38      88880E03 
  38      9A7E2D02 
  38      50743499 
  38      333C
  39 004d 0720B3BE 		.ascii	"\007 \263\276\315\227\221\373\033\332 k\0145\213)J\013"
  39      CD9791FB 
  39      1BDA206B 
  39      0C358B29 
  39      4A0B
  40 005f 55876687 		.ascii	"U\207f\207\331\225j{\254\250\232\271\003\006\3039\253"
  40      D9956A7B 
  40      ACA89AB9 
  40      0306C339 
  40      AB
  41 0070 59B09705 		.ascii	"Y\260\227\005\247\032\327\237\203\257\346\211\356h3"
  41      A71AD79F 
  41      83AFE689 
  41      EE6833
ARM GAS  C:\Users\AMANRA~1\AppData\Local\Temp\cclHfkGS.s 			page 3


  42 007f C00DF229 		.ascii	"\300\015\362)\204h\221q\\\246\302\201\011\030\232\025"
  42      84689171 
  42      5CA6C281 
  42      09189A15 
  43 008f 7160B3B8 		.ascii	"q`\263\270@\350\353;\202Iu)\013\204]l\335b\033v_\024"
  43      40E8EB3B 
  43      82497529 
  43      0B845D6C 
  43      DD621B76 
  44 00a5 C66B9F0A 		.ascii	"\306k\237\0128V\334\254;\236t#n\226 \303\255\025\317"
  44      3856DCAC 
  44      3B9E7423 
  44      6E9620C3 
  44      AD15CF
  45 00b8 A4994B6C 		.ascii	"\244\231Kl\312\025\305\363.\005\255,sg\223\253\376\305"
  45      CA15C5F3 
  45      2E05AD2C 
  45      736793AB 
  45      FEC5
  46 00ca 106292E0 		.ascii	"\020b\222\340\316\232$\245I&\\E\253VdML\352\001\023"
  46      CE9A24A5 
  46      49265C45 
  46      AB56644D 
  46      4CEA0113 
  47 00de CF1F272F 		.ascii	"\317\037'/\241\020c\364-1\226t\276\327\272H4\0028X\007"
  47      A11063F4 
  47      2D319674 
  47      BED7BA48 
  47      34023858 
  48 00f3 08963E3B 		.ascii	"\010\226>;\036\275\326X\272n\236\364\036\2719\372x\352"
  48      1EBDD658 
  48      BA6E9EF4 
  48      1EB939FA 
  48      78EA
  49 0105 BD877224 		.ascii	"\275\207r$\270\007\344\033\012\320,\3727aVb\332\246"
  49      B807E41B 
  49      0AD02CFA 
  49      37615662 
  49      DAA6
  50 0117 196D499C 		.ascii	"\031mI\234\264\274\202\321\270w\231J\023\215\201\025"
  50      B4BC82D1 
  50      B877994A 
  50      138D8115 
  51 0127 D1A5C8B6 		.ascii	"\321\245\310\266\265H\213\262\2663Um\270=wf\010\261"
  51      B5488BB2 
  51      B633556D 
  51      B83D7766 
  51      08B1
  52 0139 F74ABBD5 		.ascii	"\367J\273\325\224\237\312\373\267\315\311\025\264\367"
  52      949FCAFB 
  52      B7CDC915 
  52      B4F7
  53 0147 1FF0BE05 		.ascii	"\037\360\276\0057\213\352}\336\216z\035-\255\002\014"
  53      378BEA7D 
  53      DE8E7A1D 
  53      2DAD020C 
  54 0157 6DEEE0B7 		.ascii	"m\356\340\267\334\255\031\276\237;_:\245\037\210\246"
ARM GAS  C:\Users\AMANRA~1\AppData\Local\Temp\cclHfkGS.s 			page 4


  54      DCAD19BE 
  54      9F3B5F3A 
  54      A51F88A6 
  55 0167 01F3     		.ascii	"\001\363"
  56              		.text
  57              		.section	.gnu.lto_.inline.3049c3b6,"",%progbits
  58 0000 789C9554 		.ascii	"x\234\225TO\213\323P\020\377M\362\232\274\246\257i\332"
  58      4F8BD350 
  58      10FF4DF2 
  58      9ABCA6AF 
  58      69DA
  59 0012 6A57DB62 		.ascii	"jW\333b\003\202\273(\354\325\233\024\005\017\036\362"
  59      0382BB28 
  59      ECD59B14 
  59      050F1EF2 
  60 0022 0D0441F0 		.ascii	"\015\004A\360\260\013~\003\261\007\205\005/A\026A\334"
  60      B00B7E03 
  60      B1078505 
  60      2F411641 
  60      DC
  61 0033 43BD7914 		.ascii	"C\275y\024\365\260,\"\305\203x\020\364\023\210']\360"
  61      F5B02C22 
  61      C5837810 
  61      F4138827 
  61      5DF0
  62 0045 52F00B38 		.ascii	"R\360\0138\363^\022S\273\036\314af23o\376\374\362{\011"
  62      F35E1253 
  62      BB1ECC61 
  62      6632336F 
  62      FEFCF27B 
  63 005a 00DC55A8 		.ascii	"\000\334U\250\236\021\240\023\"\244\004\177\246\024"
  63      9E11A013 
  63      22A4047F 
  63      A614
  64 0068 1D8708F7 		.ascii	"\035\207\010\3676=\260\241\234\224,\337\000^\236\345"
  64      363DB0A1 
  64      9C942CDF 
  64      005E9EE5 
  65 0078 19A1DF73 		.ascii	"\031\241\337s\331\360\372\207\373\374z\374\200<\233"
  65      D9F0FA87 
  65      FBFC7AFC 
  65      803C9B
  66 0087 82C9390A 		.ascii	"\202\3119\012l\235\251\225\251\253\351J\317\235\202"
  66      6C9DA995 
  66      A9ABE94A 
  66      CF9D82
  67 0096 95B7E28B 		.ascii	"\225\267\342\213\371G\017\301|R\366\361\0177\224\230"
  67      F9470FC1 
  67      7C52F6F1 
  67      0F379498 
  68 00a6 DA3AB488 		.ascii	"\332:\264\210\304\232\211\210\324\232\251\210\2515\247"
  68      C49A8988 
  68      D49AA988 
  68      A935A7
  69 00b5 2266E439 		.ascii	"\"f\3449%\335\033\262\005<5\237\270\262\305\314\224"
  69      25DD1BB2 
  69      053C359F 
ARM GAS  C:\Users\AMANRA~1\AppData\Local\Temp\cclHfkGS.s 			page 5


  69      B8B2C5CC 
  69      94
  70 00c6 67019A43 		.ascii	"g\001\232C\216\260\343\257@\241B\264\306'\234\344m\313"
  70      8EB0E3AF 
  70      40A142B4 
  70      C6279CE4 
  70      6DCB
  71 00d8 448D748B 		.ascii	"D\215t\213<\222\235\355\342j\373\345\217bz\357KG\201"
  71      3C929DED 
  71      E26AFBE5 
  71      8F627AEF 
  71      4B4781
  72 00eb 8F9AFAB1 		.ascii	"\217\232\372\261\346\311\263H(\202\0169\244\027W\240"
  72      E6C9B348 
  72      28820E39 
  72      A41757A0 
  73 00fb 97DB36D4 		.ascii	"\227\3336\324\302\244\313\256\255\347\317\010\361\323"
  73      C2A4CBAE 
  73      ADE7CF08 
  73      F1D3
  74 0109 ABD6E7B5 		.ascii	"\253\326\347\265l\343B\031\014\177\201S.<^\252\252\242"
  74      6CE34219 
  74      0C7F8153 
  74      2E3C5EAA 
  74      AAA2
  75 011b 8DB124C9 		.ascii	"\215\261$\311h#\210\371\205\247Y\215\347Y\214\356\210"
  75      682388F9 
  75      85A7598D 
  75      E7598CEE 
  75      88
  76 012c 23C9F20E 		.ascii	"#\311\362\016\242\374\362Zqt\320\031p|\2608\240\352"
  76      A2FCF25A 
  76      7174D019 
  76      707CB038 
  76      A0EA
  77 013e 28452C92 		.ascii	"(E,\222\365I\273\377\330\013y\326\2031\0342\337n\256"
  77      F549BBFF 
  77      D80B79D6 
  77      83311C32 
  77      DF6EAE
  78 0151 85FA88E3 		.ascii	"\205\372\210\343:z~\374\366v\005\236\251g\236\202\221"
  78      3A7A7EFC 
  78      F676059E 
  78      A9679E82 
  78      91
  79 0162 2D92D9BD 		.ascii	"-\222\331\275\325QN#\352\261\277\371\342\272\243f\265"
  79      D5514E23 
  79      EAB1BFF9 
  79      E2BAA366 
  79      B5
  80 0173 FD00A64F 		.ascii	"\375\000\246O>\245;\373>=y\370\376s\370\310?\360#F\344"
  80      3EA53BFB 
  80      3E3D79F8 
  80      FE73F8C8 
  80      3FF02346 
  81 0188 358D41E9 		.ascii	"5\215A\351n\241\271i\243\202\206\247gN-\204i\376b\240"
  81      6EA1B969 
ARM GAS  C:\Users\AMANRA~1\AppData\Local\Temp\cclHfkGS.s 			page 6


  81      A38286A7 
  81      674E2D84 
  81      69FE62A0 
  82 019c A5986A43 		.ascii	"\245\230jC\333\0016\020\031\362\221\356\326\353\361"
  82      DB013610 
  82      19F291EE 
  82      D6EBF1
  83 01ab 48F486C6 		.ascii	"H\364\206\306B\335\235\322\020&\007%\243\034W\033{\233"
  83      42DD9DD2 
  83      10260725 
  83      A31C571B 
  83      7B9B
  84 01bd 5CF79D12 		.ascii	"\\\367\235\0222\037\265U1\244\022\244\317\224e\377\263"
  84      321FB555 
  84      31A412A4 
  84      CF9465FF 
  84      B3
  85 01ce 8EC8021F 		.ascii	"\216\310\002\037\345n\337Y\207P\364\375\006\364\207"
  85      E56EDF59 
  85      8750F4FD 
  85      06F487
  86 01dd 4B7566E5 		.ascii	"Kuf\345\331P\276\244b0\326\267w\3271,\033Y\010\232\213"
  86      D950BEA4 
  86      6230D6B7 
  86      77D7312C 
  86      1B59089A 
  87 01f2 6B5A7048 		.ascii	"kZpH\345\312\211*@\251\3431\222v\336\237\213\213F\370"
  87      E5CA892A 
  87      40A9E331 
  87      9276DE9F 
  87      8B8B46F8 
  88 0206 6A82F0EB 		.ascii	"j\202\360\353\371\225\337CI\377\202Wc\230\237\302L3"
  88      F995DF43 
  88      49FF8257 
  88      63989FC2 
  88      4C33
  89 0218 3F52D09F 		.ascii	"?R\320\237\356\027\337\313\362\024\277\001\034\273\215"
  89      EE17DFCB 
  89      F214BF01 
  89      1CBB8D
  90 0227 60       		.ascii	"`"
  91              		.text
  92              		.section	.gnu.lto_.pureconst.3049c3b6,"",%progbits
  93 0000 789C0DC3 		.ascii	"x\234\015\303\207\015\2000\000\003\301\274\020\241\367"
  93      870D8030 
  93      0003C1BC 
  93      10A1F7
  94 000f 9618E661 		.ascii	"\226\030\346ahO\007']\014!\274\377;dT\25041U\2466\215"
  94      684F0727 
  94      5D0C21BC 
  94      FF3B6454 
  94      A8343155 
  95 0026 694D677A 		.ascii	"iMgz\015f4\223\231\315bV\263\231\335\034:u))\033\351"
  95      0D663493 
  95      99CD6256 
  95      B399DD1C 
  95      3A752929 
ARM GAS  C:\Users\AMANRA~1\AppData\Local\Temp\cclHfkGS.s 			page 7


  96 003c D6A30F00 		.ascii	"\326\243\017\000b\016\""
  96      620E22
  97              		.text
  98              		.section	.gnu.lto_chThdRelease.part.1.3049c3b6,"",%progbits
  99 0000 789CA553 		.ascii	"x\234\245SKL\023Q\024}w\336tZ\001?;M`\301\302\206\217"
  99      4B4C1351 
  99      147D77DE 
  99      745A013F 
  99      3B4D60C1 
 100 0017 DA91C44F 		.ascii	"\332\221\304O\334\220\030\327$\306\215K\003\245I\233"
 100      DC9018D7 
 100      24C68D4B 
 100      03A5499B 
 101 0027 08259D62 		.ascii	"\010%\235bt\325\241\264\320\212F\243\320\232:!%\004"
 101      74D5A1B4 
 101      D08A46A3 
 101      D09A3A21 
 101      2504
 102 0039 F1133F44 		.ascii	"\361\023?DE\213\310\247\002\362\021PV&\032c4\020P\304"
 102      458BC8A7 
 102      02F21150 
 102      56261A63 
 102      341050C4 
 103 004d 18154244 		.ascii	"\030\025BD\360\336)\032)\020\027\276\314\2747\367\275"
 103      F0DE291A 
 103      291017BE 
 103      CCBC37F7 
 103      BD
 104 005e 7BEE3DF7 		.ascii	"{\356=\367\314}\022c,Md,\216\353.|\301\300@<?\202\037"
 104      CC7D1263 
 104      2C4D642C 
 104      8EEB2E7C 
 104      C1C0403C 
 105 0075 2208FA2A 		.ascii	"\"\010\372*\000\247\265\302\304\001\350C5\001\363\210"
 105      00A7B5C2 
 105      C401E843 
 105      3501F388 
 106 0085 02070F9C 		.ascii	"\002\007\017\234\341\265\034\342\325\0231!\247Y\305"
 106      E1B51CE2 
 106      D5133121 
 106      A759C5
 107 0094 D1156E4D 		.ascii	"\321\025nM\257R\375\3334\316X\010_\032p\027r\320\353"
 107      AF52FDDB 
 107      34CE5808 
 107      5F1A7017 
 107      72D0EB
 108 00a7 85EF8EC6 		.ascii	"\205\357\216\306k\270\206AD4\277\014G\336o\"S\200L4"
 108      6BB88641 
 108      4434BF0C 
 108      47DE6F22 
 108      53804C34 
 109 00bb 7BC617C6 		.ascii	"{\306\027\306R\371\016`\370=\344\033z)e5\251\252W\355"
 109      52F90E60 
 109      F83DE41B 
 109      7A296535 
 109      A9AA57ED 
 110 00cf 9A6EE4EA 		.ascii	"\232n\344\352v\215sh\005\216\001\341>d\300=\310`\270"
ARM GAS  C:\Users\AMANRA~1\AppData\Local\Temp\cclHfkGS.s 			page 8


 110      768D7368 
 110      058E01E1 
 110      3E64C03D 
 110      C860B8
 111 00e2 C5E00164 		.ascii	"\305\340\001d\221\377\273\226\305\272\215\222H\011\341"
 111      91FFBB96 
 111      C5BA8D92 
 111      4809E1
 112 00f1 2148FA24 		.ascii	"!H\372$\374\331\367\351\274\336\314'\366C\034\376\206"
 112      FCD9F7E9 
 112      BCDECC27 
 112      F6431CFE 
 112      86
 113 0102 400C2468 		.ascii	"@\014$hCL\222\373\327\336|\224\241\215\374\005:k\032"
 113      434C92FB 
 113      D7DE7C94 
 113      A18DFC05 
 113      3A6B1A
 114 0115 1CEB4CE5 		.ascii	"\034\353L\345Gu\354\265[\015\227\322\314\215:\275\245"
 114      4775ECB5 
 114      5B0D97D2 
 114      CC8D3ABD 
 114      A5
 115 0126 CBD9F595 		.ascii	"\313\331\365\2255g\325\250w\213\306Eh_I\222FR\340\231"
 115      3567D5A8 
 115      778BC645 
 115      685F4992 
 115      4652E099 
 116 013a 7AACE531 		.ascii	"z\254\3451\230\031<\242\340|\005\231\016$\323I\005\340"
 116      98193CA2 
 116      E07C0599 
 116      0E24D349 
 116      05E0
 117 014c 94840BBF 		.ascii	"\224\204\013\277N7\254Y@\027b\272W\0270\327\233\277"
 117      4E37AC59 
 117      401762BA 
 117      571730D7 
 117      9BBF
 118 015e 97D1C172 		.ascii	"\227\321\301r\001\377O\372\011\221\216\257&\335\203"
 118      01FF4FFA 
 118      09918EAF 
 118      26DD83
 119 016d 047A8934 		.ascii	"\004z\2114N\300\030\217\352\307-\237\346\273%\312wA"
 119      4EC0188F 
 119      EAC72D9F 
 119      E6BB25CA 
 119      7741
 120 017f EF892B95 		.ascii	"\357\211+\225\376~U\324\270\201%\247\202>0'\371?\357"
 120      FE7E55D4 
 120      B88125A7 
 120      823E3027 
 120      F93FEF
 121 0192 16D6737E 		.ascii	"\026\326s~\012\346\333c\006U]\\\252V\325H\326V\011\200"
 121      0AE6DB63 
 121      06555D5C 
 121      AA56D548 
 121      D6560980 
ARM GAS  C:\Users\AMANRA~1\AppData\Local\Temp\cclHfkGS.s 			page 9


 122 01a6 BA40C07E 		.ascii	"\272@\300~\2208#\010\013`\333Q\227\006\270H+\017\242"
 122      90382308 
 122      0B60DB51 
 122      9706B848 
 122      2B0FA2
 123 01b9 00B44E42 		.ascii	"\000\264NBE\264\261\335@\032\206Q\303\017\340m\233\012"
 123      45B4B1DD 
 123      401A8651 
 123      C30FE06D 
 123      9B0A
 124 01cb 9E4B253B 		.ascii	"\236K%;\302\251]B\376\370\250\221:2\241p{|\270O\212"
 124      C2A95D42 
 124      FEF8A891 
 124      3A32A170 
 124      7B7CB84F 
 125 01e0 423D68DC 		.ascii	"B=h\334\030\301\246\355'\016\270\177\243\343\333\254"
 125      18C1A6ED 
 125      270EB87F 
 125      A3E3DBAC 
 126 01f0 41BE49C2 		.ascii	"A\276I\302dbV\030\200(\324\351\255\016\203 S\334\205"
 126      64625618 
 126      8028D4E9 
 126      AD0E8320 
 126      53DC85
 127 0203 1416E174 		.ascii	"\024\026\341t1\306\007.V\245QD\023d\240\251\376\210"
 127      31C6072E 
 127      56A55144 
 127      1364A0A9 
 127      FE88
 128 0215 9E161311 		.ascii	"\236\026\023\021\015\024q\210\"\3023\304\263\011\360"
 128      0D147188 
 128      22C233C4 
 128      B309F0
 129 0224 466781B8 		.ascii	"Fg\201\270\240_\355D\340\373\346\334\253\272\364}S\274"
 129      A05FED44 
 129      E0FBE6DC 
 129      ABBAF47D 
 129      53BC
 130 0236 A1D207D4 		.ascii	"\241\322\007\324\356\313\267i\030r\021\214\010\375\277"
 130      EECBB769 
 130      1872118C 
 130      08FDBF
 131 0245 7E0CF437 		.ascii	"~\014\3647\233\226\377\353\334\365=\243\263\223$!\254"
 131      9B96FFEB 
 131      DCF53DA3 
 131      B3932421 
 131      AC
 132 0256 716374F0 		.ascii	"qct\360\010\230)\000\233\006\377\333\232\340g=#\205"
 132      08982900 
 132      9B06FFDB 
 132      9AE0673D 
 132      2385
 133 0268 89C5A65F 		.ascii	"\211\305\246_\031=?U\223\3067\204P8\006\243\340\301"
 133      193D3F55 
 133      93C63784 
 133      503806A3 
 133      E0C1
ARM GAS  C:\Users\AMANRA~1\AppData\Local\Temp\cclHfkGS.s 			page 10


 134 027a 2A042C44 		.ascii	"*\004,D\343)\010\015\"\203\204\214\300\302(\351\014"
 134      E329080D 
 134      2283848C 
 134      C0C228E9 
 134      0C
 135 028b E6D74700 		.ascii	"\346\327G\000\311\340\001Z\331\026\213\214\217\325\356"
 135      C9E0015A 
 135      D9168B8C 
 135      8FD5EE
 136 029a 28723895 		.ascii	"(r8\225\274\003y\273e\247\"\273\334\262\342\262\342"
 136      BC0379BB 
 136      65A722BB 
 136      DCB2E2B2 
 136      E2
 137 02ab AEDBEEB2 		.ascii	"\256\333\356\262\025\026+\026+\023\334e\353\372:J\255"
 137      15162B16 
 137      2B13DC65 
 137      EBFA3A4A 
 137      AD
 138 02bc C7CB8B6D 		.ascii	"\307\313\213mx\242\234R,vf,*Tl\207]\216}k\002\254\316"
 138      78A29C52 
 138      2C76662C 
 138      2A546C87 
 138      5D8E7D6B 
 139 02d3 921267A9 		.ascii	"\222\022g\251\\\346t\271\025\371\340\221\202C\005'\321"
 139      5CE674B9 
 139      15F9E091 
 139      82430527 
 139      D1
 140 02e4 C5EA74D9 		.ascii	"\305\352t\331\216\235\330_\202\360\235\377\316\363\233"
 140      8E9DD85F 
 140      82F09DFF 
 140      CEF39B
 141 02f3 979DFD02 		.ascii	"\227\235\375\002@J\210\361"
 141      404A88F1 
 142              		.text
 143              		.section	.gnu.lto__thread_init.3049c3b6,"",%progbits
 144 0000 789C9D96 		.ascii	"x\234\235\226\355OSg\024\300\237s\237\333KK\241\270"
 144      ED4F5367 
 144      14C09F73 
 144      9FDB4B4B 
 144      A1B8
 145 0012 69D4384D 		.ascii	"i\3248M\3700\203d\013\235\331\227\355\303\376\226\305"
 145      F8308364 
 145      0B9DD997 
 145      EDC3FE96 
 145      C5
 146 0023 15369A38 		.ascii	"\0256\2328a\264\373\314\245\340\300\261\305\315\360"
 146      61B4FBCC 
 146      A5E0C0B1 
 146      C5CDF0
 147 0032 B29466A9 		.ascii	"\262\224f\251s2\023\343\230\001\331x\331\254\214W\261"
 147      733213E3 
 147      9801D978 
 147      D9AC8C57 
 147      B1
 148 0043 0A589501 		.ascii	"\012X\225\0012\304\211\322\025\024e8\320\301\3169\267"
ARM GAS  C:\Users\AMANRA~1\AppData\Local\Temp\cclHfkGS.s 			page 11


 148      32C489D2 
 148      15146538 
 148      D0C1CE39 
 148      B7
 149 0054 742DE365 		.ascii	"t-\343ek\322\226{{\357\371\235s~\347\362<\325\204\020"
 149      6BD2967B 
 149      7BEFF99D 
 149      737EE7F2 
 149      3CD58410 
 150 0068 C72C4238 		.ascii	"\307,B8\361\357K\370\006)@\371\354\252\020%f\005\200"
 150      F1EF4BF8 
 150      062940F9 
 150      ECAA1025 
 150      660580
 151 007b 0E743388 		.ascii	"\016t3\210b\005\212\341\023Y%a\260\354;\237\254\224"
 151      62058AE1 
 151      13592561 
 151      B0EC3B9F 
 151      AC94
 152 008d 3EBC4DC5 		.ascii	">\274M\305\323\271\240\367\256\215N\0012\36142\333\335"
 152      D3B9A0F7 
 152      AE8D4E01 
 152      32F13432 
 152      DBDD
 153 009f 9496FD8D 		.ascii	"\224\226\375\215\256{\364@\355#\255\256i@\267\370\244"
 153      AE7BF440 
 153      ED23ADAE 
 153      6940B7F8 
 153      A4
 154 00b0 226AF0F6 		.ascii	"\"j\360\366&\330\013\215\260\227r\\\200l\274\271\363"
 154      26D80B8D 
 154      B097725C 
 154      806CBCB9 
 154      F3
 155 00c1 DEF321AB 		.ascii	"\336\363!\253|\005\004\036\367\227\365\017kY\24790\364"
 155      7C05041E 
 155      F797F50F 
 155      6B59A739 
 155      30F4
 156 00d3 B5D45FC6 		.ascii	"\265\324_\306(h\006\031\037H \370\036\262\360v\317d"
 156      28680619 
 156      1F4820F8 
 156      1EB2F076 
 156      CF64
 157 00e5 F34D9039 		.ascii	"\363M\2209\034\332u\351\314R\372jh=\207J\370am(\236"
 157      1CDA75E9 
 157      CC52FA6A 
 157      683D874A 
 157      F8616D28 
 158 00fa B470E859 		.ascii	"\264p\350Y\317\375\031)_\347\320\311\336;U\246hh\347"
 158      CFFD1929 
 158      5FE7D0C9 
 158      DE3B55A6 
 158      6868E7
 159 010d 6EAF1E50 		.ascii	"n\257\036P}R\205\326\265\261\252\2006\310\342\200\363"
 159      7D5285D6 
 159      B5B1AA80 
ARM GAS  C:\Users\AMANRA~1\AppData\Local\Temp\cclHfkGS.s 			page 12


 159      36C8E280 
 159      F3
 160 011e CBD5E99A 		.ascii	"\313\325\351\232J\375`\033\355\240\011\300\203\206!"
 160      4AFD601B 
 160      EDA009C0 
 160      838621
 161 012d 53405F5E 		.ascii	"S@_^)\327\003\363\273\275+\346]@\245*\370a\222\370\241"
 161      29D703F3 
 161      BBBD2BE6 
 161      5D40A52A 
 161      F86192F8 
 162 0142 9980AAD6 		.ascii	"\231\200\252\326\200 6\2402\204\250@\000\312\325\003"
 162      802036A0 
 162      3284A840 
 162      00CAD503 
 163 0152 E2187685 		.ascii	"\342\030v\205G\245\001\021\006\217w\272\365T*q1W\315"
 163      47A50111 
 163      068F77BA 
 163      F5542A71 
 163      3157CD
 164 0165 D18E6B29 		.ascii	"\321\216k)\244V\341Z\333;\202\335\232\037\276,\321u"
 164      A456E15A 
 164      DB3B82DD 
 164      9A1FBE2C 
 164      D175
 165 0177 DDBFD327 		.ascii	"\335\277\323'S\274\322\004?\222O\274\030*\037\036\267"
 165      53BCD204 
 165      3F924FBC 
 165      182A1F1E 
 165      B7
 166 0188 DACFE125 		.ascii	"\332\317\341%=\223Z\370\011\374PM5\012\270\010v\257"
 166      3D935AF8 
 166      09FC504D 
 166      350AB808 
 166      76AF
 167 019a D4083EFF 		.ascii	"\324\010>\377\240-\006\377\03743\004\230F\235\302%\260"
 167      A02D06FF 
 167      1F343304 
 167      98469DC2 
 167      25B0
 168 01ac 93F295A7 		.ascii	"\223\362\225\247\201\014*\315\002\012t`\024\323\333"
 168      810C2ACD 
 168      020A7460 
 168      14D3DB
 169 01bb 93A1A7C2 		.ascii	"\223\241\247\302\317LW\210\336\311\364\206H\313b\272"
 169      CF4C5788 
 169      DEC9F486 
 169      48CB62BA 
 170 01cb 4117D065 		.ascii	"A\027\320e\320\275\323}\311\320U\350f:\217\253'\316"
 170      D0BDD37D 
 170      C9D055E8 
 170      663A8FAB 
 170      27CE
 171 01dd C4E56468 		.ascii	"\304\345dhV\350e\232J\264>\25656$+\326zy\325D0\031z"
 171      56E8659A 
 171      4AB43EAE 
 171      3536242B 
ARM GAS  C:\Users\AMANRA~1\AppData\Local\Temp\cclHfkGS.s 			page 13


 171      D67A79D5 
 172 01f5 1AF433DD 		.ascii	"\032\3643\335D\364+\211&\322\221\036\\\245\217&C\267"
 172      44F42B89 
 172      26D2911E 
 172      5CA58F26 
 172      43B7
 173 0207 C155A66B 		.ascii	"\301U\246kD\277\306\364\246\316\236\217\314\206g\200"
 173      44BFC6F4 
 173      A6CE9E8F 
 173      CC866780 
 174 0217 8155CF63 		.ascii	"\201U\317c\311\320q]`z\012\321\207\310\263\215hK\345"
 174      C9D0715D 
 174      607A0AD1 
 174      87C8B38D 
 174      684BE5
 175 022a B7DBD2D6 		.ascii	"\267\333\322\326\241en\012S\340:\303\314\004\013%j\316"
 175      A1656E0A 
 175      53E03AC3 
 175      CC040B25 
 175      6ACE
 176 023c E0FF8596 		.ascii	"\340\377\205\226\226\310hJ\361_\272\031\277\360\323"
 176      96C8684A 
 176      F15FBA19 
 176      BFF0D3
 177 024b 6CA99BD2 		.ascii	"l\251\233\322\271\0236\344\203On\203\233\270\\\335\210"
 177      B91336E4 
 177      834F6E83 
 177      9BB85CDD 
 177      88
 178 025c C29B7BC6 		.ascii	"\302\233{\306\236\231c\360\027\340\026\303-F\324\231"
 178      9E9963F0 
 178      17E016C3 
 178      2D46D499 
 179 026c DE4F1B6D 		.ascii	"\336O\033mH\252\340\213/\3020\3301\351/PL\345\267Z\250"
 179      48AAE08B 
 179      2FC230D8 
 179      31E92F50 
 179      4CE5B75A 
 180 0281 76AF84FF 		.ascii	"v\257\204\377\222rd\223\224\243\361)\227n\225\036U\342"
 180      92726493 
 180      94A3F129 
 180      976E951E 
 180      55E2
 181 0293 9A1D037B 		.ascii	"\232\035\003{\265L\245^ocrL\033\372\030\222p6\3169\254"
 181      B54CA55E 
 181      6F63724C 
 181      1BFA1892 
 181      7036CE39 
 182 02a8 C4F99506 		.ascii	"\304\371\225\006\000<N\313\206$\330\2204\361\217\375"
 182      003C4ECB 
 182      8624D890 
 182      34F18FFD 
 183 02b8 3B443225 		.ascii	";D2%\220\266\0241\271\211\210\273\233\211\370-&\342"
 183      90B61431 
 183      B98988BB 
 183      9B89F82D 
 183      26E2
ARM GAS  C:\Users\AMANRA~1\AppData\Local\Temp\cclHfkGS.s 			page 14


 184 02ca 5E2CED52 		.ascii	"^,\355R\371\351\267\214!(k\237\310\257h\231\335D\311"
 184      F9E9B78C 
 184      21286B9F 
 184      C8AF6899 
 184      DD44C9
 185 02dd 7698E26C 		.ascii	"v\230\342liF\266\263\301\360\270\206uS\250\015\227f"
 185      6946B6B3 
 185      C1F0B886 
 185      7553A80D 
 185      9766
 186 02ef B8CFA37E 		.ascii	"\270\317\243~\200\243\236\002Of\264\273\345\252\276"
 186      80A39E02 
 186      4F66B4BB 
 186      E5AABE
 187 02fe 73AA7C83 		.ascii	"s\252|\203\237\262\023\217+\332\315\373O\361\356\320"
 187      9FB2138F 
 187      2BDACDFB 
 187      4FF1EED0 
 188 030e 5DB7F364 		.ascii	"]\267\363d\251\336\253\253\0249\235\270A\3602\033\206"
 188      A9DEABAB 
 188      14399DB8 
 188      41F0321B 
 188      86
 189 031f FD58239B 		.ascii	"\375X#\233Z|\336tq_l\263(\243\214\201\332P\212\244{"
 189      5A7CDE74 
 189      715F6CB3 
 189      28A38C81 
 189      DA508AA4 
 190 0334 78D3A891 		.ascii	"x\323\250\221\020\277\231\300\357\240A\204\366\222\010"
 190      10BF99C0 
 190      EFA04184 
 190      F69208
 191 0343 D770A13F 		.ascii	"\327p\241?0\302\017\273\011\016P\341\265\013\225\322"
 191      30C20FBB 
 191      090E50E1 
 191      B50B95D2 
 192 0353 90BB9DBA 		.ascii	"\220\273\235\272\235\211v\333\020\232\011K\243\333\211"
 192      9D8976DB 
 192      109A094B 
 192      A3DB89
 193 0362 27D7F7BD 		.ascii	"'\327\367\275G\012g\271\343tF\012xH\032\025jo\2422\354"
 193      470A67B9 
 193      E374460A 
 193      78481A15 
 193      6A6FA232 
 194 0377 A0CC5C82 		.ascii	"\240\314\\\202\341\365F\324\253\\\353\265~\013\257;"
 194      E1F546D4 
 194      AB5CEBB5 
 194      7E0BAF3B 
 195 0387 E01167B1 		.ascii	"\340\021g\261\255\353U\2039\366\3728\321\353X\335\370"
 195      ADEB5583 
 195      39F6FA38 
 195      D1EB58DD 
 195      F8
 196 0398 B245BECB 		.ascii	"\262E\276\313}_9\376\355\347\326\177{\325\340\311:^"
 196      7D5F39FE 
 196      EDE7D67F 
ARM GAS  C:\Users\AMANRA~1\AppData\Local\Temp\cclHfkGS.s 			page 15


 196      7BD5E0C9 
 196      3A5E
 197 03aa E7C9AB8C 		.ascii	"\347\311\253\214z\215t\015\312\265bGP\354|L\254\222"
 197      7A8D740D 
 197      CAB56247 
 197      50EC7C4C 
 197      AC92
 198 03bc 20F60FEC 		.ascii	" \366\017\354x\201L,p\021SU%+@b5x\025O\007\352\007O"
 198      78814C2C 
 198      70115355 
 198      252B4062 
 198      3578154F 
 199 03d4 82217607 		.ascii	"\202!v\007\265\3734\332n\333\324\300\333\253^\033w}"
 199      B5FB34DA 
 199      6EDBD4C0 
 199      DBAB5E1B 
 199      777D
 200 03e6 914662FF 		.ascii	"\221Fb\377\344\2263\030)`\221\304\032EM\267\237wG\361"
 200      E4963318 
 200      296091C4 
 200      1A454DB7 
 200      9F7747F1 
 201 03fa 5BF3FC7B 		.ascii	"[\363\374{\210\265\304\254mQ\3263\203\305C\2321\206"
 201      88B5C4AC 
 201      6D51D633 
 201      83C5439A 
 201      3186
 202 040c 44ED8859 		.ascii	"D\355\210Y\360\370\037\036\337c\014\211\366\004\374"
 202      F0F81F1E 
 202      DF630C89 
 202      F604FC
 203 041b CD00F44B 		.ascii	"\315\000\364K\001w\312\00399v|9\362\235\3578\013\\\007"
 203      0177CA03 
 203      3939767C 
 203      39F29DEF 
 203      380B5C07 
 204 042f DF3CF89A 		.ascii	"\337<\370\232\275\300e/r\333]E\016\374\326\235_\224"
 204      BDC0652F 
 204      72DB5D45 
 204      0EFCD69D 
 204      5F94
 205 0441 7728D795 		.ascii	"w(\327\225\343\020\212\273P=r\350\375<\265\260\310Y"
 205      E3108ABB 
 205      503D72E8 
 205      FD3CB5B0 
 205      C859
 206 0453 20DD870B 		.ascii	" \335\207\013\2637\212t\036q\034\37607\017\257\270\034"
 206      B3378A74 
 206      1E711CFE 
 206      30370FAF 
 206      B81C
 207 0465 F9B939F9 		.ascii	"\371\2719\371B\272?(\374\033\230\252G\231"
 207      42BA3F28 
 207      FC1B98AA 
 207      4799
 208              		.text
 209              		.section	.gnu.lto_chThdCreateSuspendedI.3049c3b6,"",%progbits
ARM GAS  C:\Users\AMANRA~1\AppData\Local\Temp\cclHfkGS.s 			page 16


 210 0000 789C9D97 		.ascii	"x\234\235\227\371S\024G\024\307\347M/{\263\234\242\202"
 210      F9531447 
 210      14C7E74D 
 210      2F7BB39C 
 210      A282
 211 0012 4988C632 		.ascii	"I\210\3062VRl\314/\251\244\222?\306\200U`y\020 ?\246"
 211      56526CCC 
 211      2FA9A492 
 211      3FC68055 
 211      60791020 
 212 0028 18581456 		.ascii	"\030X\024V<\020\001q\331\230M(\203)C\274P\271L6\334"
 212      3C100171 
 212      D9984D28 
 212      832943BC 
 212      50B94C36 
 213 003d 18110F44 		.ascii	"\030\021\017DTD\242\240\242`\304\030\215\250K\336\353"
 213      5444A2A0 
 213      A260C418 
 213      8DA84BDE 
 213      EB
 214 004e 9E1D7797 		.ascii	"\236\035w\227C6\0244st\177\336\367}\273\347\365\214"
 214      43361434 
 214      73747FDE 
 214      F77DBBE7 
 214      F58C
 215 0060 5E92247D 		.ascii	"^\222$}\224$m\304\377I\370\007L\002\271\344\234$\345"
 215      94246DC4 
 215      FF49F807 
 215      4C02B9E4 
 215      9C24E5
 216 0073 1965003A 		.ascii	"\031e\000:P\214 \345\312\220\013\333Y\031\203\013\005"
 216      508C20E5 
 216      CA900BDB 
 216      5919830B 
 216      05
 217 0084 47DCAC98 		.ascii	"G\334\254\230\271\261\233\016O'{\\\267mt\012\220\214"
 217      B9B19B0E 
 217      4F277B5C 
 217      B76D740A 
 217      908C
 218 0096 A7E30F3B 		.ascii	"\247\343\017;\352\254\253k\024%_\361\356\335o\251\252"
 218      EAACAB6B 
 218      14255FF1 
 218      EEDD6FA9 
 218      AA
 219 00a7 3BAF98DC 		.ascii	";\257\230\334L\226*\260{\035,\203\343\260\214b\234\200"
 219      4C962AB0 
 219      7B1D2C83 
 219      E3B08C62 
 219      9C80
 220 00b9 D5D8D9E3 		.ascii	"\325\330\331\343l\331\003\354\003\220\360\370e\357\276"
 220      6CD903EC 
 220      0390F0F8 
 220      65EFBE
 221 00c8 32FDAA03 		.ascii	"2\375\252\003|\340H\015S\336s3\006'\201\005\016\304"
 221      7CE0480D 
 221      53DE7333 
ARM GAS  C:\Users\AMANRA~1\AppData\Local\Temp\cclHfkGS.s 			page 17


 221      06278105 
 221      0EC4
 222 00da 4B129C82 		.ascii	"K\022\234\202U\324\277m\364\345E\013\263\363\261\017"
 222      55D4BF6D 
 222      F4E5450B 
 222      B3F3B10F 
 223 00ea 8ABA6A8C 		.ascii	"\212\272j\214+\253\371\330\216\332\304\357\035J\227"
 223      2BABF9D8 
 223      8EDAC4EF 
 223      1D4A97
 224 00f9 A2C3A850 		.ascii	"\242\303\250P\037<\236~\260\373\255\243\276\362H\275"
 224      1F3C9E7E 
 224      B0FBADA3 
 224      BEF248BD 
 225 0109 0E1A60A5 		.ascii	"\016\032`\245\207I$\015\0255\202^\002\374OW\017_\214"
 225      8749240D 
 225      1535825E 
 225      02FC4F57 
 225      0F5F8C
 226 011c F02ABEE9 		.ascii	"\360*\276\351B\305\353\373\320\331\332_//\007\211\256"
 226      42C5EBFB 
 226      D0D9DA5F 
 226      2F2F0789 
 226      AE
 227 012d 1B50816C 		.ascii	"\033P\201l\304Fg\302&\"\022H\214\015\017\321?l\242\261"
 227      C44667C2 
 227      26221248 
 227      8C0D0FD1 
 227      3F6CA2B1 
 228 0141 31C46063 		.ascii	"1\304`c\214\305\306\024\207\2159\036\033\213$\025a\014"
 228      8CC5C614 
 228      878D391E 
 228      1B8B2415 
 228      610C
 229 0153 B452F14A 		.ascii	"\264R\361JN4\003\217\034^\351>\3447\216M\214\306Rh\027"
 229      4E34038F 
 229      1C5EE93E 
 229      E4378E4D 
 229      8CC65268 
 230 0168 B3A1B08A 		.ascii	"\263\241\260\212--\275\006\362\222\361\264\232[z:\364"
 230      2D2DBD06 
 230      F292F1B4 
 230      9A5B7A3A 
 230      F4
 231 0179 1ED89FA7 		.ascii	"\036\330\237\247(J\262\233Y],\022\232(\015\262\275\270"
 231      284AB29B 
 231      595D2C12 
 231      9A280DB2 
 231      BDB8
 232 018b 7400ECB5 		.ascii	"t\000\354\265J\011\277\025\011\315\340\201rJD\202\323"
 232      4A09BF15 
 232      09CDE081 
 232      724A4482 
 232      D3
 233 019c 6047B6C3 		.ascii	"`G\266\303\2755C\220A\300k+O\\\262\212y\253\237\236"
 233      BD354390 
 233      41C06B2B 
ARM GAS  C:\Users\AMANRA~1\AppData\Local\Temp\cclHfkGS.s 			page 18


 233      4F5CB28A 
 233      79AB9F9E 
 234 01b0 9E8E825F 		.ascii	"\236\216\202_\021u\007\362\223\251\027e\207=\205\246"
 234      117507F2 
 234      93A91765 
 234      873D85A6 
 235 01c0 A951B318 		.ascii	"\251Q\263\030\031\025\246\210\337\270\010 \021^.\"\277"
 235      1915A688 
 235      DFB80820 
 235      115E2E22 
 235      BF
 236 01d1 6FDB1823 		.ascii	"o\333\030#\026v>\375\323\364\210L\361e\021\037/9nz\234"
 236      16763EFD 
 236      D3F4884C 
 236      F165111F 
 236      2F396E7A 
 237 01e6 3695ED49 		.ascii	"6\225\355Ip3\033*\205\337U\370\323\356\272*\035\302"
 237      70331B2A 
 237      85DF55F8 
 237      D3EEBA2A 
 237      1DC2
 238 01f8 455C3DB4 		.ascii	"E\\=\264p\270L\360V\260\2438\342O\025N\334\264\012\261"
 238      70B84CF0 
 238      56B0A338 
 238      E24F154E 
 238      DCB40AB1 
 239 020c D138E658 		.ascii	"\3218\346XA^\213\205b\230\240\317'b\\;\322\344\264b"
 239      415E8B85 
 239      6298A0CF 
 239      27625C3B 
 239      D2E4B462 
 240 0220 0C50F16D 		.ascii	"\014P\361m*\276\300\321vW\227\373\015\311iG2R; WH\006"
 240      2ABEC0D1 
 240      765797FB 
 240      0DC96947 
 240      32523B20 
 241 0237 5571A0BC 		.ascii	"Uq\240\274\344y\325EA'W\307\304\002k\252\356\354\265"
 241      E479D545 
 241      412757C7 
 241      C4026BAA 
 241      EEECB5
 242 024a 69370DD0 		.ascii	"i7\015\320\005\366r\246#\345\335\244<\232\333l\022\262"
 242      05F672A6 
 242      23E5DDA4 
 242      3C9ADB6C 
 242      12B2
 243 025c 63C2F238 		.ascii	"c\302\3628\032\316\360@\021\004\373\303\357\261_\260"
 243      1ACEF040 
 243      1104FBC3 
 243      EFB15FB0 
 244 026c B67E0CB3 		.ascii	"\266~\014\263\255\237\030\214\014gUl_\341\300\220E\223"
 244      AD9F188C 
 244      0C67556C 
 244      5FE1C090 
 244      4593
 245 027e 180B3D1C 		.ascii	"\030\013=\034\253'\3549\322\030\023\25016,\215q\320"
 245      AB27EC39 
ARM GAS  C:\Users\AMANRA~1\AppData\Local\Temp\cclHfkGS.s 			page 19


 245      D21813A8 
 245      31362C8D 
 245      71D0
 246 0290 CB610682 		.ascii	"\313a\006\202\235\017\325\030\216\250\013\234c$\316"
 246      9D0FD518 
 246      8EA80B9C 
 246      6324CE
 247 029f 4512152B 		.ascii	"E\022\025+\246\374\377\240.q\224\211P}`\307\016\015"
 247      A6FCFFA0 
 247      2E719489 
 247      507D60C7 
 247      0E0D
 248 02b1 0DE3D70D 		.ascii	"\015\343\327\015\271\257\224\"\336!\276\202\226-\\\026"
 248      B9AF9422 
 248      DE21BE82 
 248      962D5C16 
 249 02c1 4BA071CC 		.ascii	"K\240q\314\331\251\027\251\307\205\304\361L\2014w\366"
 249      D9A917A9 
 249      C785C4F1 
 249      4C813477 
 249      F6
 250 02d2 9EF56EB6 		.ascii	"\236\365n\266\010\372y,3\305\272\"\322\367\033\031\037"
 250      08FA792C 
 250      33C5BA22 
 250      D2F71B19 
 250      1F
 251 02e3 4ABB23BF 		.ascii	"J\273#\277\201\226\000\003\234f!\332U\244\371\237\330"
 251      81960003 
 251      9C6621DA 
 251      55A4F99F 
 251      D8
 252 02f4 90B2E7FB 		.ascii	"\220\262\347\3739a\336\262\007\327\304\003\216\303="
 252      3961DEB2 
 252      07D7C403 
 252      8EC33D
 253 0303 35EE4495 		.ascii	"5\356D\225\220\177\353d?\260\217\371j\311k??i\232I3"
 253      907FEB64 
 253      3FB08FF9 
 253      6AC96B3F 
 253      3F699A49 
 254 0318 C3F55968 		.ascii	"\303\365Yh\203D\213\013\241\035\312\277;\301\330'\234"
 254      83448B0B 
 254      A11DCABF 
 254      3BC1D827 
 254      9C
 255 0329 E6983CE6 		.ascii	"\346\230<\346\264\316\244-\206\033\263\320\206\210\026"
 255      B4CEA42D 
 255      861BB3D0 
 255      868816
 256 0338 4F46B9C6 		.ascii	"OF\271\306\032\253\315Z\211.\240\351\363\236\253\217"
 256      1AABCD5A 
 256      892EA0E9 
 256      F39EAB8F 
 257 0348 07EA4241 		.ascii	"\007\352BA)\015^\253+\260\022\274.\345\022\334\304\032"
 257      290D5EAB 
 257      2BB012BC 
 257      2EE512DC 
ARM GAS  C:\Users\AMANRA~1\AppData\Local\Temp\cclHfkGS.s 			page 20


 257      C41A
 258 035a 364C257C 		.ascii	"6L%|8\350\321\205\271\037[\317\203\035\021$\350O\356"
 258      38E8D185 
 258      B91F5BCF 
 258      831D1124 
 258      E84FEE
 259 036d AF952324 		.ascii	"\257\225#$\270E\353\214Kyr\257\251\332\034\006\016\353"
 259      B845EB8C 
 259      4B7972AF 
 259      A9DA1C06 
 259      0EEB
 260 037f D712B8CD 		.ascii	"\327\022\270\315a\221*l\204\257\264\366\351g\336(z*"
 260      61912A6C 
 260      84AFB4F6 
 260      E967DE28 
 260      7A2A
 261 0391 97820CA3 		.ascii	"\227\202\014\2438\222\303\233\303\205'\302\035\016\267"
 261      3892C39B 
 261      C38527C2 
 261      1D0EB7
 262 03a0 A9F0BB1C 		.ascii	"\251\360\273\034~x\274\341y\244\200KpO\300]c\335\341"
 262      7E78BCE1 
 262      79A4804B 
 262      704FC05D 
 262      63DDE1
 263 03b3 C217C318 		.ascii	"\302\027\303\030\207G\251\360\373\0016\234\011\027\226"
 263      8747A9F0 
 263      FB01369C 
 263      091796
 264 03c2 040F382C 		.ascii	"\004\0178,Z\205\215s\245ZqJB\245\023~\033z\302\205/"
 264      5A858D73 
 264      A55A714A 
 264      42A5137E 
 264      1B7AC285 
 265 03d7 83871C1E 		.ascii	"\203\207\034\036\243\302\377\012\266\301\202\360G~\370"
 265      A3C2FF0A 
 265      B6C182F0 
 265      477EF8
 266 03e6 F570E16F 		.ascii	"\365p\341o\301$\207\307\252\360\307\034^\327\326\271"
 266      C12487C7 
 266      AAF0C71C 
 266      5ED7D6B9 
 267 03f6 D5283C06 		.ascii	"\325(<\006\370\333\357\361`\270p3<\341\3608\025\376"
 267      F8DBEFF1 
 267      60B87033 
 267      3CE1F038 
 267      15FE
 268 0408 0F791C27 		.ascii	"\017y\034'J\332\215&\353\302a\311\364\214?\345\254x"
 268      4ADA8D26 
 268      EBC261C9 
 268      F48C3FE5 
 268      AC78
 269 041a 95F52CD8 		.ascii	"\225\365,\330\342\267\3713\350/qF\274\340\241\372F\271"
 269      E2B7F933 
 269      E82F7146 
 269      BCE0A1FA 
 269      46B9
ARM GAS  C:\Users\AMANRA~1\AppData\Local\Temp\cclHfkGS.s 			page 21


 270 042c 38264B55 		.ascii	"8&KU\374;\360\034\337\351\376U\371';\007_\0305~2Lq\376"
 270      FC3BF01C 
 270      DFE9FE55 
 270      F9273B07 
 270      5F18357E 
 271 0444 22C1C7FB 		.ascii	"\"\301\307\373\007\273v\034\267i\365\362]x\001v\021"
 271      07BB761C 
 271      B769F5F2 
 271      5D780176 
 271      11
 272 0455 FAA55A33 		.ascii	"\372\245Z3M\224\200\213\031\026\022\370\325<\201}!\201"
 272      4D94808B 
 272      191612F8 
 272      D53C817D 
 272      2181
 273 0467 A7AE38B6 		.ascii	"\247\2568\266\310\001\211O\323f\232\240\346\255\310"
 273      C801894F 
 273      D3669AA0 
 273      E6ADC8
 274 0476 DAF6129E 		.ascii	"\332\366\022\236}y2EY\254b\362e\234\012\003\237W\223"
 274      7D793245 
 274      59AC62F2 
 274      659C0A03 
 274      9F5793
 275 0489 0AD2BC94 		.ascii	"\012\322\274\224\203\366R\3015\200C\236m\237\221\241"
 275      83F652C1 
 275      3580439E 
 275      6D9F91A1 
 276 0499 400E9C96 		.ascii	"@\016\234\226-\304\205 \356\033\275\331*\317\355M\241"
 276      2DC48520 
 276      EE1BBDD9 
 276      2ACFED4D 
 276      A1
 277 04aa 3CBF3745 		.ascii	"<\2777Er\2007N-\370T\341\201/\304\354\030\027\270\\"
 277      7280374E 
 277      2DF854E1 
 277      812FC4EC 
 277      1817B85C 
 278 04be 7FC09BCB 		.ascii	"\177\300\233\313a\033\017\267D\013\327p\270l\300\202"
 278      611B0FB7 
 278      440BD770 
 278      B86CC082 
 279 04ce DAA9870D 		.ascii	"\332\251\207\015\337\202\241XV\027\301v9W\354L\"I_Y"
 279      DF82A158 
 279      5617C176 
 279      3957EC4C 
 279      22495F59 
 280 04e2 77AD8E7D 		.ascii	"w\255\216}\316\235+}\\\324\254\275\234Wi;\201\016v\310"
 280      CE9D2B7D 
 280      5CD4ACBD 
 280      9C57693B 
 280      810E76C8 
 281 04f6 3377829D 		.ascii	"3w\202\2352\356\004Fn\330\363\242\326\247WX\310^\260"
 281      32EE0446 
 281      6ED8F3A2 
 281      D6A75758 
 281      C85EB0
ARM GAS  C:\Users\AMANRA~1\AppData\Local\Temp\cclHfkGS.s 			page 22


 282 0509 B7CFC0A8 		.ascii	"\267\317\300\250\023\257\363\025\370\276\025\270\007"
 282      13AFF315 
 282      F8BE15B8 
 282      07
 283 0516 EC92F550 		.ascii	"\354\222\365P\"\243\032l\360\372H\315\343r\023\315\240"
 283      22A31A6C 
 283      F0FA48CD 
 283      E37213CD 
 283      A0
 284 0527 0E86D517 		.ascii	"\016\206\325\027N\367\243\242!\365ep9\245\276[\235\305"
 284      4EF7A3A2 
 284      21F56570 
 284      39A5BE5B 
 284      9DC5
 285 0539 4E5F470F 		.ascii	"N_G\017\023\251\017WoO\364Y\311\314R\236\375R\316\225"
 285      13A90F57 
 285      6F4FF459 
 285      C9CC529E 
 285      FD52CE95 
 286 054d 600FB969 		.ascii	"`\017\271i\244$\207\213\357\247Rx\256C\330{Y\265\327"
 286      A424878B 
 286      EFA75278 
 286      AE43D87B 
 286      59B5D7
 287 0560 B4407B7F 		.ascii	"\264@{\177\304\233+\240\214\007H\234\313\336\010(\367"
 287      C49B2BA0 
 287      8C07489C 
 287      CBDE0828 
 287      F7
 288 0571 DB5B116C 		.ascii	"\333[\021l\357`\325\220\317\304\326s{\317\356\372e\267"
 288      EF60D590 
 288      CFC4D673 
 288      7BCFEEFA 
 288      65B7
 289 0583 65A6BD11 		.ascii	"e\246\275\021\260w\026{+\311^\223\337\336\033\225\237"
 289      B077167B 
 289      2BC95E93 
 289      DFDE1B95 
 289      9F
 290 0594 85DA7B0D 		.ascii	"\205\332{\015\355\255\324\354\325\005\331\273\017\355"
 290      EDADD4EC 
 290      D505D9BB 
 290      0FED
 291 05a2 7591152E 		.ascii	"u\221\025.n\357\301\376S;\315do\004\214\250\366\276"
 291      6EEFC1FE 
 291      533BCD64 
 291      6F048CA8 
 291      F6BE
 292 05b4 3874EAAA 		.ascii	"8t\352\252E\244\276\202R\257R\355m/.\361Dj\366&\024"
 292      45A4BE82 
 292      52AF52ED 
 292      6D2F2EF1 
 292      446AF626 
 293 05c9 B702F9EB 		.ascii	"\267\002\371\353\346\351'q\260\004\337\222\277B\332"
 293      E6E92771 
 293      B004DF92 
 293      BF42DA
ARM GAS  C:\Users\AMANRA~1\AppData\Local\Temp\cclHfkGS.s 			page 23


 294 05d8 58F3D11C 		.ascii	"X\363\321\0345\310\002\210\236D\202\355\347\260e*\354"
 294      35C80288 
 294      9E4482ED 
 294      E7B0652A 
 294      EC
 295 05e9 3B01E393 		.ascii	";\001\343\2235!&\213\262\012|_\341o\022\257\277\177"
 295      3521268B 
 295      B20A7C5F 
 295      E16F12AF 
 295      BF7F
 296 05fb 0683CE86 		.ascii	"\006\203\316\206\350\354\241z\346\342_4\370\011\007"
 296      E8ECA17A 
 296      E6E25F34 
 296      F80907
 297 060a F4E1861F 		.ascii	"\364\341\206\037 \357\247\244\330\36175=\343\313\214"
 297      20EFA7A4 
 297      D8F13735 
 297      3DE3CB8C 
 298 061a CDD96B3E 		.ascii	"\315\331k>]\363\221}s\266=+\307\236\235\225\212Ws\322"
 298      5DF3917D 
 298      73B63D2B 
 298      C79E9D95 
 298      8A5773D2 
 299 062e B3D6AD4D 		.ascii	"\263\326\255M\313NI\225XNZ\246\234\223\251\333\264v"
 299      CB4E4995 
 299      584E5AA6 
 299      9C93A9DB 
 299      B476
 300 0640 E33A5D66 		.ascii	"\343:]fV\306f\226\263!s\365\\\24336\245n\370:m\035\336"
 300      56C66696 
 300      B32173F5 
 300      5CA33336 
 300      A56EF83A 
 301 0657 C94E4D4F 		.ascii	"\311NMOKI\307\341_e\376\007[\265\367\323"
 301      4B49C7E1 
 301      5F65FE07 
 301      5BB5F7D3 
 302              		.text
 303              		.section	.gnu.lto_chThdCreateSuspended.3049c3b6,"",%progbits
 304 0000 789C7D52 		.ascii	"x\234}RKL\023Q\024\275w\336\320VAd\255,Jb\003D\303\200"
 304      4B4C1351 
 304      14BD77DE 
 304      D0564164 
 304      AD2C4A62 
 305 0018 0B8D1B13 		.ascii	"\013\215\033\023\303\212\005\211\201\245\013\002\245"
 305      C38A0589 
 305      81A50B02 
 305      A5
 306 0025 81269692 		.ascii	"\201&\226\222\231j`\305\010(\020\324\220\000\025a\302"
 306      996A60C5 
 306      082810D4 
 306      90001561 
 306      C2
 307 0036 4743D005 		.ascii	"GC\320\005\250\210\037@\240\002\026D\371\210\272\001"
 307      A8881F40 
 307      A0021644 
 307      F988BA01 
ARM GAS  C:\Users\AMANRA~1\AppData\Local\Temp\cclHfkGS.s 			page 24


 308 0046 230881C4 		.ascii	"#\010\201\304@\020YiD\364\276\327b\370\311d\246}\357"
 308      40105969 
 308      44F4BED7 
 308      62F8C964 
 308      A67DEF
 309 0059 DD73EE3B 		.ascii	"\335s\356;\367\334k\002\200\005\006\360\223\376\217"
 309      F7DC6B02 
 309      800506F0 
 309      93FE8F
 310 0068 D2870C50 		.ascii	"\322\207\014P\252\030\003\270b\221\020\371B\267 \024"
 310      AA1803B8 
 310      629110F9 
 310      42B72014 
 311 0078 485880D7 		.ascii	"HX\200\327Y\025\303w\305\017\015V\316\014\202\311\264"
 311      5915C377 
 311      C50F0D56 
 311      CE0C82C9 
 311      B4
 312 0089 FD3E5A3B 		.ascii	"\375>Z;\037\316\267\210V\332.\257\370;\302b[t\275P\367"
 312      1FCEB788 
 312      56DA2EAF 
 312      F83BC262 
 312      5B74BD50 
 313 009e DD5A0DAF 		.ascii	"\335Z\015\257\353\230\320\017\030L\002/\301;0\022\037"
 313      EB98D00F 
 313      184C022F 
 313      C13B3012 
 313      1F
 314 00af 6324BFE3 		.ascii	"c$\277\343\011\306\022\270\261\254\277\022\331q\004"
 314      09C612B8 
 314      B1ACBF12 
 314      D97104
 315 00be 5AAF8FDF 		.ascii	"Z\257\217\337\2562E7\013\342\247\026\246\0373\030\303"
 315      AE324537 
 315      0BE2A716 
 315      A61F3318 
 315      C3
 316 00cf A7C8B612 		.ascii	"\247\310\266\022\351\010\360\031Fs\374\340\302\372d"
 316      E908F019 
 316      4673FCE0 
 316      C2FA64
 317 00de 28530477 		.ascii	"(S\004w\251t\270\305b\273+\270c\335G\232\212\364a]\246"
 317      A974B8C5 
 317      62BB2BB8 
 317      63DD479A 
 317      8AF4615D 
 318 00f3 5BF1F976 		.ascii	"[\361\371v>\177\010>\367h\243\372\220I\306N\2645R\341"
 318      3E7F083E 
 318      F768A3FA 
 318      9049C64E 
 318      B43552E1 
 319 0107 8420455D 		.ascii	"\204 E]h\302\177\261b\235\036\237\277\307$\316\275\014"
 319      68C27FB1 
 319      629D1E9F 
 319      BFC724CE 
 319      BD0C
 320 0119 B7D000BB 		.ascii	"\267\320\000\273\011\372\002M\260\003\376\336\1776\004"
ARM GAS  C:\Users\AMANRA~1\AppData\Local\Temp\cclHfkGS.s 			page 25


 320      09FA024D 
 320      B003FEDE 
 320      7F3604
 321 0128 78C04BF5 		.ascii	"x\300K\365R\254yd\262/\224]\020\334\373mM5aA\2053FL"
 321      52AC7964 
 321      B22F945D 
 321      10DCFB6D 
 321      4D356141 
 322 0140 7D51F90D 		.ascii	"}Q\371\015\275\2610\302`2\366\356\2431\220x\245\236"
 322      BDB130C2 
 322      6032F6EE 
 322      A3319078 
 322      A59E
 323 0152 ACE8431B 		.ascii	"\254\350C\033`\017O\316\266\211\361\221\230\227$\206"
 323      600F4FCE 
 323      B689F191 
 323      98972486 
 324 0162 FF20D5C1 		.ascii	"\377 \325\301\253z0\031\342\3237\376\224P\013\"\272"
 324      AB7A3019 
 324      E2D337FE 
 324      94500B22 
 324      BA
 325 0173 2BAEF5FC 		.ascii	"+\256\365\374\222\315\324J2\216\360\024\006(\245\222"
 325      92CDD44A 
 325      328EF014 
 325      0628A592 
 326 0183 A9B3BA0F 		.ascii	"\251\263\272\017\312H+\255\212|\260\210\322\036J\353"
 326      CA482BAD 
 326      8A7CB088 
 326      D21E4AEB 
 327 0193 F6578AFD 		.ascii	"\366W\212\375h#R\311W\275G\346C \243\025\007(\266\204"
 327      682352C9 
 327      57BD47E6 
 327      4320A315 
 327      0728B684 
 328 01a7 85734BD5 		.ascii	"\205sK\325]3;-\2554\016\007-\225w\331\267x\222\354\033"
 328      5D333B2D 
 328      AD340E07 
 328      2D9577D9 
 328      B77892EC 
 329 01bc E4B1909D 		.ascii	"\344\261\220\235\261i#\206\006\254\237[\360j\267\005"
 329      B1692386 
 329      06AC9F5B 
 329      F06AB705 
 330 01cc 7EAA7C88 		.ascii	"~\252|\210[0\304-@\370\314o\275\323\320\376\343`\324"
 330      5B30C42D 
 330      40F8CC6F 
 330      BDD3D0FE 
 330      E360D4
 331 01df 376CD06B 		.ascii	"7l\320k\254F c\353|\267n\221%R=\214Q\302\345\325\345"
 331      AC462063 
 331      EB7CB76E 
 331      9125523D 
 331      8C51C2E5 
 332 01f5 0FD3129D 		.ascii	"\017\323\022\235\340k\224\205n\300\0211\325\367z\007"
 332      E06B9485 
 332      6EC01131 
ARM GAS  C:\Users\AMANRA~1\AppData\Local\Temp\cclHfkGS.s 			page 26


 332      D5F77A07 
 333 0205 16C2A2D6 		.ascii	"\026\302\242\326\202l\321\352\265\266\366\217\241\202"
 333      826CD1EA 
 333      B5B6F68F 
 333      A182
 334 0213 FD86B3F1 		.ascii	"\375\206\263\361-\312\344Y\241Ux\000\260\214\305\263"
 334      2DCAE459 
 334      A1557800 
 334      B08CC5B3 
 335 0223 E5E343C8 		.ascii	"\345\343C\310\253\253e<Gg\347\362\264\271\340\267n1"
 335      ABAB653C 
 335      4767E7F2 
 335      B4B9E0B7 
 335      6E31
 336 0235 98D94B39 		.ascii	"\230\331K9\000G\261\000j\231d0\213`\212\231\243~\020"
 336      0047B100 
 336      6A996430 
 336      8B608A99 
 336      A37E10
 337 0248 5CB8CF7B 		.ascii	"\\\270\317{L<\357\325\376qs\300L\300\261\255f\006z\034"
 337      4C3CEFD5 
 337      FE7173C0 
 337      4CC0B1AD 
 337      66067A1C 
 338 025c 2C70A3E1 		.ascii	",p\243\341Ko\350\246\3661\241}\\h\337)t\" t\266\365"
 338      4B6FE8A6 
 338      F631A17D 
 338      5C68DF29 
 338      74222074 
 339 0272 E65496B8 		.ascii	"\346T\226\270\003`\205\266\345SC\246\240X\336\311R\032"
 339      036085B6 
 339      E55343A6 
 339      A058DEC9 
 339      521A
 340 0284 721A04A2 		.ascii	"r\032\004\242\305\304\305)\364\332\263\235\031N\267"
 340      C5C4C529 
 340      F4DAB39D 
 340      194EB7
 341 0293 96702621 		.ascii	"\226p&!^qk\212\352Q4\325N\247\236l\325\221\236\251\305"
 341      5E716B8A 
 341      EA5134D5 
 341      4EA79E6C 
 341      D5919EA9 
 342 02a8 D9817932 		.ascii	"\331\201y2s%O\356\177\361\316\034\373\305K\231\016\212"
 342      73254FEE 
 342      7FF1CE1C 
 342      FBC54B99 
 342      0E8A
 343 02ba 68F95A5C 		.ascii	"h\371Z\\6\2303\3225\307y\325yjO\202\335\355r\271s\224"
 343      369833D2 
 343      35C779D5 
 343      796A4F82 
 343      DDED72B9 
 344 02d0 5CB7EAD1 		.ascii	"\\\267\352\321\224s)\311\211\311y\004\261\273UG\332"
 344      947329C9 
 344      89C97904 
 344      B1BB5547 
ARM GAS  C:\Users\AMANRA~1\AppData\Local\Temp\cclHfkGS.s 			page 27


 344      DA
 345 02e1 E5D32EA2 		.ascii	"\345\323.\242'\356Gs\344y8IILNMJU\022\211\245$m^\357"
 345      27EE4773 
 345      E4793849 
 345      494C4E4D 
 345      4A551289 
 346 02fa D29C5A5A 		.ascii	"\322\234ZZ\226\335N9\"\222SS\254\\F\256\352<a\265\305"
 346      96DD4E39 
 346      22925353 
 346      AC5C46AE 
 346      EA3C61B5 
 347 030f 83A482D9 		.ascii	"\203\244\202\331\345p\271\325|\370\013\003N\215\371"
 347      E570B9D5 
 347      7CF80B03 
 347      4E8DF9
 348              		.text
 349              		.section	.gnu.lto_chThdCreateI.3049c3b6,"",%progbits
 350 0000 789C558F 		.ascii	"x\234U\217?K\003A\020\305\347\335$\227\010ja\251)R\010"
 350      3F4B0341 
 350      10C5E7DD 
 350      2497086A 
 350      61A92952 
 351 0015 310877A6 		.ascii	"1\010w\246\364#\330\372\0154\021\222*\222K\177k\014"
 351      F423D8FA 
 351      0D341192 
 351      2A924B7F 
 351      6B0C
 352 0027 68D04230 		.ascii	"h\320B0\236\030OH\241\246T1\032cu\210\330\371\267\325"
 352      9E184F48 
 352      A1A65431 
 352      1A637588 
 352      D8F9B7D5 
 353 003b 4ADB10B0 		.ascii	"J\333\020\260\327\350lDP\330e\347-\277\367f\306$\242"
 353      D7E86C44 
 353      50D865E7 
 353      2DBFF766 
 353      C624A2
 354 004e 191059F2 		.ascii	"\031\020Y\362\216\311\005\023\214\215;\242\245\250\001"
 354      8EC90513 
 354      8C8D3BA2 
 354      A5A801
 355 005d E8424541 		.ascii	"\350BEA\256\001\027\353\\e<\226\217}^c_\260\220\310"
 355      AE0117EB 
 355      5C653C96 
 355      8F7D5E63 
 355      5FB090C8 
 356 0071 F7DBDADB 		.ascii	"\367\333\332\333\260\226@\\d\247{\323\034L6\224*\251"
 356      B096405C 
 356      64A77BD3 
 356      1C4C3694 
 356      2AA9
 357 0083 60DB1BD9 		.ascii	"`\333\033\331m>\250\001\237\015\362\004o\"\206S\304"
 357      6D3EA801 
 357      9F0DF204 
 357      6F228653 
 357      C4
 358 0094 748F3324 		.ascii	"t\2173$\005\256W\2566\301\223 \251?\356w\252f\342\240"
ARM GAS  C:\Users\AMANRA~1\AppData\Local\Temp\cclHfkGS.s 			page 28


 358      05AE57AE 
 358      36C19320 
 358      A93FEE77 
 358      AA66E2A0 
 359 00a8 6F7C3964 		.ascii	"o|9d5\3563\343\034\374\327(_\204\026\022\232\177=\351"
 359      35EE33E3 
 359      1CFCD728 
 359      5F841612 
 359      9A7F3DE9 
 360 00bc 6D0D9921 		.ascii	"m\015\231!\035,y\0270Iv\240\243\247p\240z_+*\270n`o"
 360      1D2C7917 
 360      304976A0 
 360      A3A770A0 
 360      7A5F2B2A 
 361 00d4 3602F118 		.ascii	"6\002\361\0302\232\230L]\022\255\012/K\251\200*\"\245"
 361      329A984C 
 361      5D12AD0A 
 361      2F4BA980 
 361      2A22A5
 362 00e7 5A0EA883 		.ascii	"Z\016\250\203r\275\265?\252Sj\014\011o\267;\317\021"
 362      72BDB53F 
 362      AA536A0C 
 362      096FB73B 
 362      CF11
 363 00f9 F753457D 		.ascii	"\367SE}\016y,\301h\303\245\032\313\232aM\307\177P\363"
 363      0E792CC1 
 363      68C3A51A 
 363      CB9A614D 
 363      C77F50F3 
 364 010d 3F6A7ABA 		.ascii	"?jz\272\001.\373(|\216P\027\245_T\206\223\336\320\035"
 364      012EFB28 
 364      7C8E5017 
 364      A55F5486 
 364      93DED01D 
 365 0121 059AB02C 		.ascii	"\005\232\260,[N:\233\233\317\345\235\324tj\312\316;"
 365      5B4E3A9B 
 365      9BCFE59D 
 365      D4746ACA 
 365      CE3B
 366 0133 76A1683B 		.ascii	"v\241h;\205\264\374\026\263\205\205\271\214c\245\211"
 366      85B4FC16 
 366      B38585B9 
 366      8C63A589 
 367 0143 8B99C56F 		.ascii	"\213\231\305o\222LuP"
 367      924C7550 
 368              		.text
 369              		.section	.gnu.lto_chThdCreate.3049c3b6,"",%progbits
 370 0000 789C7D53 		.ascii	"x\234}SKL\023Q\024\275w\336\320\026\012\206\350NI,\306"
 370      4B4C1351 
 370      14BD77DE 
 370      D0160A86 
 370      E84E492C 
 371 0015 46888641 		.ascii	"F\210\206A\027\0327&\206\025\013\022#K\027\006J#M,%"
 371      171A3726 
 371      86150B12 
 371      234B1706 
 371      4A234D2C 
ARM GAS  C:\Users\AMANRA~1\AppData\Local\Temp\cclHfkGS.s 			page 29


 372 002a 33D5E88A 		.ascii	"3\325\350\212\0210`Pc\002T\304\011\240\006\320\205\342"
 372      11306050 
 372      630254C4 
 372      09A006D0 
 372      85E2
 373 003c 073F8062 		.ascii	"\007?\200b-\310W\276~bD\021!`\010\015*+I\020\275\357"
 373      2DC857BE 
 373      7E624411 
 373      2160080D 
 373      2A2B4910 
 374 0052 B5183ECA 		.ascii	"\265\030>\312\244\237\367\336\275\347\276s\316\275c"
 374      A49FF7DE 
 374      BDE7BE73 
 374      CEBD63
 375 0061 02806D32 		.ascii	"\002\200m2\300<\375o\241/2@\351R?\300\031\213\204\310"
 375      C03CFD6F 
 375      A12F3240 
 375      E9523FC0 
 375      198B84C8 
 376 0075 17BA0521 		.ascii	"\027\272\005!O\302<<\317\312\030\016\025\3365X\0113"
 376      4FC23C3C 
 376      CFCA180E 
 376      15DE3558 
 376      0933
 377 0087 284DA6ED 		.ascii	"(M\246\355\217\276\312\211\015|\213h\243mp\266\2431"
 377      8FBECA89 
 377      0D7C8B68 
 377      A36D70B6 
 377      A331
 378 0099 3AB15ED7 		.ascii	":\261^\327\363u\377\345\357\033\2576\016\352\221\006"
 378      F375FFE5 
 378      EF1BAF36 
 378      0EEA9106 
 379 00a9 93C047E9 		.ascii	"\223\300G\351\215\030\207\0170\216\337\361\020\023)"
 379      8D18870F 
 379      308EDFF1 
 379      101329
 380 00b8 B9E65CA0 		.ascii	"\271\346\\\240\024\331N\004Z/\014\\)3\355\250\025\300"
 380      14D94E04 
 380      5A2F0C5C 
 380      2933EDA8 
 380      15C0
 381 00ca 37754CDF 		.ascii	"7uL\337n0\206\217\220-\007\322\021\340c\334\301\363"
 381      6E30868F 
 381      902D07D2 
 381      11E063DC 
 381      C1F3
 382 00dc DB271786 		.ascii	"\333'\027\206\255L\021\330\231\342\256z\213\375\206"
 382      AD4C11D8 
 382      99E2AE7A 
 382      8BFD86
 383 00eb C0F6F76E 		.ascii	"\300\366\367n\276V\240w\3512\335\212OV\342\371C\351"
 383      BE56A077 
 383      E932DD8A 
 383      4F56E2F9 
 383      43E9
 384 00fd E3F716CB 		.ascii	"\343\367\026\313cL26\241\275\206\001\247F\214\232\321"
ARM GAS  C:\Users\AMANRA~1\AppData\Local\Temp\cclHfkGS.s 			page 30


 384      634C3236 
 384      A1BD8601 
 384      A7468C9A 
 384      D1
 385 010e 847F6385 		.ascii	"\204\177c\205:=\376w}&q\356c\270\014\006\330B\251O\321"
 385      3A3DFE77 
 385      7D2671EE 
 385      63B80C06 
 385      D842A94F 
 386 0123 04ABD25F 		.ascii	"\004\253\322_w\034\210\000\036\360\221^\212\325\366"
 386      771C8800 
 386      1EF0915E 
 386      8AD5F6
 387 0132 0C3FB7B2 		.ascii	"\014?\267\262#\002{\353\316\265\212\3500\303\317FBU"
 387      23027BEB 
 387      CEB58AE8 
 387      30C3CF46 
 387      4255
 388 0144 41C905BD 		.ascii	"A\311\005\275&?\326`2\266\256\3031Tx\266\212\254x\216"
 388      263FD660 
 388      32B6AEC3 
 388      315478B6 
 388      8AAC788E 
 389 0158 76C067BC 		.ascii	"v\300g\2748[A\306Od^\020\031\376\203\244\203\253j\030"
 389      385B41C6 
 389      4F645E10 
 389      19FE83A4 
 389      83AB6A18 
 390 016c 8EF0EB8B 		.ascii	"\216\360\353\213\277\213\250\005\261\275\243\323\237"
 390      BF8BA805 
 390      B1BDA3D3 
 390      9F
 391 0179 127927C9 		.ascii	"\022y'\3117J\247(@1)\246\306\352~8GTiU\340\207)\224"
 391      374AA728 
 391      403129A6 
 391      C6EA7E38 
 391      47546955 
 392 0191 FE41F4EA 		.ascii	"\376A\364\352\372D1\200v\002\025M\353\317d>\0032\332"
 392      FA443180 
 392      7602154D 
 392      EBCF643E 
 392      0332DA
 393 01a4 B08D6233 		.ascii	"\260\215b3\230?>S\336\374y\265\243\245U\233\302\216"
 393      983F3E53 
 393      DEFC79B5 
 393      A3A5559B 
 393      C28E
 394 01b6 CA6BDC9B 		.ascii	"\312k\334\233\332C\356\265\363X\304\352\330\210\221"
 394      DA43EEB5 
 394      F358C4EA 
 394      D88891
 395 01c5 40F315E0 		.ascii	"@\363\025\340\016\274\\\353@\007\011\357\344\016tr\007"
 395      0EBC5CEB 
 395      400709EF 
 395      E40E7472 
 395      07
 396 01d6 1046F9AD 		.ascii	"\020F\371\255\327\253\357\377\214\212\377\206\325z\205"
ARM GAS  C:\Users\AMANRA~1\AppData\Local\Temp\cclHfkGS.s 			page 31


 396      D7ABEFFF 
 396      8C8AFF86 
 396      D57A85
 397 01e5 CD0855BC 		.ascii	"\315\010U\274=\321\242[d\211Xwa\2740\371{\360\315\210"
 397      3DD1A25B 
 397      64895877 
 397      61BC30F9 
 397      7BF0CD88 
 398 01f9 4427D88D 		.ascii	"D'\330\215\262\340\015\330#\206\372fk\333dt\374\\\030"
 398      B2E00DD8 
 398      2386FA66 
 398      6BDB6474 
 398      FC5C18
 399 020c 2D3A3D77 		.ascii	"-:=w\347\376[\253@\367r4\276B\231<\313\267\011\017\000"
 399      E7FE5BAB 
 399      40F77234 
 399      BE42993C 
 399      CBB7090F 
 400 0221 82583856 		.ascii	"\202X8V\362\276\033\271\272J\306k45\005G\314y\277t\213"
 400      F2BE1BB9 
 400      BA4AC66B 
 400      34350547 
 400      CC79BF74 
 401 0236 C1CC3EAA 		.ascii	"\301\314>\252\001\330\207yP\311$\203Y\004R\214\034\365"
 401      01D88779 
 401      50C92483 
 401      5904528C 
 401      1CF5
 402 0248 83D2097E 		.ascii	"\203\322\011~\266\346k\035\343G\260\022\033\351cf\302"
 402      B6E66B1D 
 402      E347B012 
 402      1BE96366 
 402      C2
 403 0259 F60B2CAF 		.ascii	"\366\013,\257\333\020l\232\217\341fG\221\330\001\214"
 403      DB106C9A 
 403      8FE16647 
 403      91D8018C 
 404 0269 33985534 		.ascii	"3\230U4\217O\010\205}g\003\003\346P/\000\007\303\275"
 404      8F4F0885 
 404      7D670303 
 404      E6502F00 
 404      07C3BD
 405 027c 982E6FDE 		.ascii	"\230.o\336\032\032\220\260=\213\325_Z\255K\312\007\205"
 405      1A1A90B0 
 405      3D8BD55F 
 405      5AAD4BCA 
 405      0785
 406 028e F221A17C 		.ascii	"\362!\241|\265\314\341\220\314\261\333\027?\034\023"
 406      B5CCE190 
 406      CCB1DB17 
 406      3F1C13
 407 029d 5700CCD2 		.ascii	"W\000\314\322\266\344c\267),\225\317A1\275!4F\004KH"
 407      B6E463B7 
 407      292C95CF 
 407      4131BD21 
 407      3446044B 
 408 02b2 4A52E8E3 		.ascii	"JR\350\343\310ve\272<\332\356\375\273\223\025\217\246"
ARM GAS  C:\Users\AMANRA~1\AppData\Local\Temp\cclHfkGS.s 			page 32


 408      C87665BA 
 408      3CDAEEFD 
 408      BB93158F 
 408      A6
 409 02c3 A85E4553 		.ascii	"\250^ES\035t\352\315V\235\031YZ\222\003\2307+W\362\346"
 409      1D74EACD 
 409      569D1959 
 409      5A920398 
 409      372B57F2 
 410 02d8 FE37DF95 		.ascii	"\3767\337\225\3438~\"\313I\021\355\264\226\224\015\346"
 410      E3387E22 
 410      CB4911ED 
 410      B496940D 
 410      E6
 411 02e9 CC0CCD79 		.ascii	"\314\014\315yHu\355\375'\300\341q\273=9J\256G\365j\312"
 411      4875EDFD 
 411      27C0E171 
 411      BB3D394A 
 411      AE47F56A 
 412 02fe C1C36929 		.ascii	"\301\303i)i\247(\305\341Q\235GO\356s\023<e=\230\363"
 412      69A728C5 
 412      E1519D47 
 412      4FEE7313 
 412      3C653D98 
 413 0313 94978394 		.ascii	"\224\227\203\224\224\264\364\324t%\205PJ\352\322\365"
 413      94B4F4D4 
 413      74258550 
 413      4AEAD2F5 
 414 0323 6ECDA51D 		.ascii	"n\315\245\035=\346pP\215\330\264\364\3036N#Wu\355\262"
 414      3DE67050 
 414      8DD8B4F4 
 414      C3364E23 
 414      5775EDB2 
 415 0337 D9934152 		.ascii	"\331\223AR\301\354v\272=\352i\370\003k#\241\001"
 415      C1EC76BA 
 415      3DEA69F8 
 415      036B23A1 
 415      01
 416              		.text
 417              		.section	.gnu.lto_chThdCreateStatic.3049c3b6,"",%progbits
 418 0000 789C9557 		.ascii	"x\234\225W}PT\327\025\277\347\335\267_\354\202\200\011"
 418      7D5054D7 
 418      15BFE7DD 
 418      B75FEC82 
 418      8009
 419 0012 B5C4364B 		.ascii	"\265\3046K+#N\0357\231\351\264c\247\235i\307\177\352"
 419      2B234E1D 
 419      3799E9B4 
 419      63A79D69 
 419      C77FEA
 420 0025 1FCE74E2 		.ascii	"\037\316t\342\237\351\214c\220(3\"t\227\266I\377\341"
 420      9FE98C63 
 420      90283322 
 420      7497B649 
 420      FFE1
 421 0037 B1AB8021 		.ascii	"\261\253\200!D\243\270R\330\302\372\001&\245@\374\214"
 421      44A3B852 
ARM GAS  C:\Users\AMANRA~1\AppData\Local\Temp\cclHfkGS.s 			page 33


 421      D8C2FA01 
 421      26A540FC 
 421      8C
 422 0048 7C29F103 		.ascii	"|)\361\003QD\221`\244\362!J\005\3714\2405j\024z\316"
 422      51449160 
 422      A4F2214A 
 422      05F934A0 
 422      356A147A 
 423 005d 7D6FB7BB 		.ascii	"}o\267\273\313\207\300\354<\336{\367\374~\347\234\337"
 423      CB87C0EC 
 423      3CDE7BF7 
 423      FC7EE79C 
 423      DF
 424 006e 39F7DE77 		.ascii	"9\367\336w\365\214\261\221H\306\326\002co\340=p\006"
 424      F58CB191 
 424      48C6D602 
 424      636FE03D 
 424      7006
 425 0080 D2EE6B8C 		.ascii	"\322\356k\214e\032%\000\272Q\214\3002$\310\200\217y"
 425      651A2500 
 425      BA518CC0 
 425      3224C880 
 425      8F79
 426 0092 3E871BDB 		.ascii	">\207\033\333\277\360\360\\\356A3\031\037\307[\012\373"
 426      BFF0F05C 
 426      EE413319 
 426      1FC75B0A 
 426      FB
 427 00a3 22E811C0 		.ascii	"\"\350\021\300\212\217#c\215',+\216(\212Si\330\357\216"
 427      8A8F2363 
 427      8D272C2B 
 427      8E288A53 
 427      69D8EF8E 
 428 00b7 293AD1AA 		.ascii	"):\321\252\230<\\bn4?\001K\3418,%\037'a\005\0327\014"
 428      983C5C62 
 428      6E343F01 
 428      4BE1382C 
 428      251F2761 
 429 00cf F795CBFC 		.ascii	"\367\225\313\374g\300\360\276c\352xy\304\362R\001\354"
 429      67C0F0BE 
 429      63EA7879 
 429      C4F25201 
 429      EC
 430 00e0 3ACC9565 		.ascii	":\314\225e\036\316\341\024\360@ \276b\360%,G\363\203"
 430      1ECEE114 
 430      F04020BE 
 430      62F0252C 
 430      47F383
 431 00f3 99379BC3 		.ascii	"\2317\233\303\271M@{wV\344\311\032\364E\251\200\312"
 431      B94D407B 
 431      7756E4C9 
 431      1AF445A9 
 431      80CA
 432 0105 703A142A 		.ascii	"p:\024*3\250\026\320r\347\300(\347?\027\320{Mw\363u"
 432      33A816D0 
 432      72E7C028 
 432      E73F17D0 
ARM GAS  C:\Users\AMANRA~1\AppData\Local\Temp\cclHfkGS.s 			page 34


 432      7B4D77F3 
 433 011a 1AB4BF23 		.ascii	"\032\264\277#\366\260K\371\275\207\353\240&\024\254"
 433      F6B04BF9 
 433      BD87EBA0 
 433      2614AC
 434 0129 63502BC0 		.ascii	"cP+\300W\207jO\032\371j\001~\321z\346\264\305\027r\231"
 434      57876A4F 
 434      1AF96A01 
 434      7ED17AE6 
 434      B4C51772 
 435 013e F0AB87BA 		.ascii	"\360\253\207\272P\250\236A\275\200\016+\271\365\300"
 435      50A89E41 
 435      BD800E2B 
 435      B9F5C0
 436 014d 7F2DA0A5 		.ascii	"\177-\240\245\237<=*i\320\221#Z\266gf\310\366,,'\373"
 436      9F3C3D2A 
 436      69D09123 
 436      5AB66766 
 436      C8F62C2C 
 437 0163 0BF75FB4 		.ascii	"\013\367_\264\231\371o\005v8\247\351\2101\376\220\300"
 437      99F96F05 
 437      7638A7E9 
 437      8831FE90 
 437      C0
 438 0174 8E75C41E 		.ascii	"\216u\304\036p)M\212\214\032CC0\236\376(\305\243\223"
 438      70294D8A 
 438      8C1A4343 
 438      309EFE28 
 438      C5A393
 439 0187 FBC2F532 		.ascii	"\373\302\3652|\005\361^\316\250\020\250\3779\320\203"
 439      7C05F15E 
 439      CEA810A8 
 439      FF39D083 
 440 0197 7F6CBB82 		.ascii	"\177l\273\202\177\015c\335z\361\336\315!\000\306\340"
 440      7F0D63DD 
 440      7AF1DECD 
 440      2100C6E0 
 441 01a7 3C9A5E00 		.ascii	"<\232^\000=\0131\357,H\330\300h\300\215\325\245\214"
 441      3D0B31EF 
 441      2C48D8C0 
 441      68C08DD5 
 441      A58C
 442 01b9 AEB49D35 		.ascii	"\256\264\2355\363\255\002\373y\345\201\002\213\026\341"
 442      F3AD02FB 
 442      79E58102 
 442      8B16E1
 443 01c8 407142B1 		.ascii	"@qB\261+7O\361:#=\334\000\215s\304\250\305Q\214R\\\202"
 443      2B374FF1 
 443      3A233DDC 
 443      008D73C4 
 443      A8C5518C 
 444 01df 78061789 		.ascii	"x\006\027\211\234\007\005\323\204\301\\\306`\350\202"
 444      9C0705D3 
 444      84C15CC6 
 444      60E882
 445 01ee FD0A9455 		.ascii	"\375\012\224UU\233\256A\231\234\312\306\206[\322\221"
 445      559BAE41 
ARM GAS  C:\Users\AMANRA~1\AppData\Local\Temp\cclHfkGS.s 			page 35


 445      999CCAC6 
 445      865BD291 
 446 01fe 9F9557AF 		.ascii	"\237\225W\257[\006@\265\306\366\305f\221QH\246\303\213"
 446      5B0640B5 
 446      C6F6C566 
 446      915148A6 
 446      C38B
 447 0210 1161686E 		.ascii	"\021ahn\002\252\207\031H\332\010\240\262F\342\240\024"
 447      02AA8719 
 447      48DA08A0 
 447      B246E2A0 
 447      14
 448 0221 85175334 		.ascii	"\205\027S4^\302\030\313A\215\260\361\225\006\266\023"
 448      5EC218CB 
 448      418DB0F1 
 448      9506B613 
 449 0231 93C33B57 		.ascii	"\223\303;W\003\353\007i\206\324\212\346N\015\256@<\202"
 449      03EB0769 
 449      86D48AE6 
 449      4E0DAE40 
 449      3C82
 450 0243 B207957A 		.ascii	"\262\007\225z\231\346\210\001\254\320\214c\303\340\274"
 450      99E68801 
 450      ACD08C63 
 450      C3E0BC
 451 0252 F7D05D73 		.ascii	"\367\320]s'\264\006{'b\264\032\310\323\365^\371G\006"
 451      27B4067B 
 451      2762B41A 
 451      C8D3F55E 
 451      F94706
 452 0265 57694C17 		.ascii	"WiL\027:\326W\234\200\363\357\012i\3262]\263k(\325u"
 452      3AD6579C 
 452      80F3EF0A 
 452      69D6325D 
 452      B36B28D5 
 453 027a D2EC3A69 		.ascii	"\322\354:i\006\354!y=Xr\354iX\234\"\225(\005V\0177\023"
 453      06EC2179 
 453      3D5872EC 
 453      69589C22 
 453      95280556 
 454 0291 A0A2AF56 		.ascii	"\240\242\257V1\312\022F\335\012q\242,\337\216\264wJ"
 454      31CA1246 
 454      DD0A71A2 
 454      2CDF8EB4 
 454      774A
 455 02a3 F8066E80 		.ascii	"\370\006n\200,\342f\320&&\375gg\316\337\267\304\271"
 455      2CE266D0 
 455      2626FD67 
 455      67CEDFB7 
 455      C4B9
 456 02b5 34B4856C 		.ascii	"4\264\205l'*\217\3354\013\364\327\204\206v\220Q3\247"
 456      272A8FDD 
 456      340BF4D7 
 456      84867690 
 456      5133A7
 457 02c8 5568C0D8 		.ascii	"Uh\300\330\020\270\334YUO+\336\245\364\012\271\\\310"
 457      10B8DC59 
ARM GAS  C:\Users\AMANRA~1\AppData\Local\Temp\cclHfkGS.s 			page 36


 457      554F2BDE 
 457      A5F40AB9 
 457      5CC8
 458 02da 298A8A82 		.ascii	")\212\212\202\223_[\324\265\344\364\324\324\324\"\270"
 458      935F5BD4 
 458      B5E4F4D4 
 458      D4D422B8 
 459 02ea 894ED0D4 		.ascii	"\211N\320\324\223\225\254\332\341OBk\301$\232\026\013"
 459      9395ACDA 
 459      E14F426B 
 459      C1249A16 
 459      0B
 460 02fb 886FD1C6 		.ascii	"\210o\321\306Y8\330\334l\240w\310\343\336q\356\272\201"
 460      5938D8DC 
 460      6CA077C8 
 460      E3DE71EE 
 460      BA81
 461 030d 7824D17F 		.ascii	"x$\321\177u\347Z\032\365^(\316Dq\2741\036\036\216\020"
 461      75E75A1A 
 461      F55E28CE 
 461      4471BC31 
 461      1E1E8E10 
 462 0321 F886E2C7 		.ascii	"\370\206\342\307\301\366\354\216\036\263\255\202\204"
 462      C1F6EC8E 
 462      1EB3AD82 
 462      84
 463 032e C3D823E0 		.ascii	"\303\330#\340\026xa\037\027\325\352\000\033\372S\003"
 463      1678611F 
 463      17D5EA00 
 463      1BFA5303 
 464 033e 78591DAE 		.ascii	"xY\035\256\206\240C0\302\224\275{v\031\324P=\"\324\177"
 464      86A04330 
 464      C294BD7B 
 464      7619D450 
 464      3D22D47F 
 465 0352 8B509DED 		.ascii	"\213P\235\355\037\201\026D\240W\353\234N\027\301m\341"
 465      1F811644 
 465      A057EB9C 
 465      4E17C16D 
 465      E1
 466 0363 14D4EEAF 		.ascii	"\024\324\356\257\034u^\223\375\203F\350\004\333>\014"
 466      1C755E93 
 466      FD8346E8 
 466      04DB3E0C 
 467 0373 0303EAA2 		.ascii	"\003\003\352\242\200t\"[Sh\252\306i\251\"8\022\315\241"
 467      8074225B 
 467      5368AAC6 
 467      69A92238 
 467      12CDA1
 468 0386 7B46A751 		.ascii	"{F\247Q\320#\234\212\371\177\207\210MA\304\013a\352"
 468      D0239C8A 
 468      F97F8788 
 468      4D41C40B 
 468      61EA
 469 0398 154C3231 		.ascii	"\025L21\335%&31=\317\236E\2119\251\356\011*\035Q\365"
 469      DD252633 
 469      313DCF9E 
ARM GAS  C:\Users\AMANRA~1\AppData\Local\Temp\cclHfkGS.s 			page 37


 469      458939A9 
 469      EE092A1D 
 470 03ae 810D0DAA 		.ascii	"\201\015\015\252\253G:\015\031/\225\034a\020\355\306"
 470      AB473A0D 
 470      192F951C 
 470      6110EDC6 
 471 03be 6A33F80F 		.ascii	"j3\370\017d\370{ d\011\354\351\210\231s\011\204\373"
 471      64F87B20 
 471      6409ECE9 
 471      88997309 
 471      84FB
 472 03d0 6ACB20DC 		.ascii	"j\313 \334{\266\222k\014\316{\247\276\001\236\253\366"
 472      7BB6926B 
 472      0CCE7BA7 
 472      BE019EAB 
 472      F6
 473 03e1 4BE6C5D6 		.ascii	"K\346\305\326q\323t\272\305\320?\003\335\200\230\322"
 473      71D374BA 
 473      C5D03F03 
 473      DD8098D2 
 474 03f1 2525F56D 		.ascii	"%%\365mr\334\356\300\031p`p\357\004\005^\200M7P\271"
 474      72DCEEC0 
 474      19706070 
 474      EF04055E 
 474      804D3750 
 475 0406 DAC35F83 		.ascii	"\332\303_\203\007\020G\376\030\014\252\361\007\004\340"
 475      071047FE 
 475      180CAAF1 
 475      0704E0
 476 0415 1A3FB6D3 		.ascii	"\032?\266\3232\335\347\264\275G\370\034\242\024\"\324"
 476      32DDE7B4 
 476      BD47F81C 
 476      A21422D4 
 477 0425 AEAF3914 		.ascii	"\256\2579\024\0262\375\257u[\310\202\"\243d\265\025"
 477      1632FDAF 
 477      755BC882 
 477      22A364B5 
 477      15
 478 0436 C410B408 		.ascii	"\304\020\264\010\014\343\334\031\241HF\202*\004\263"
 478      0CE3DC19 
 478      A1484682 
 478      2A04B3
 479 0445 F7A97738 		.ascii	"\367\251w8OG\361\214\212\002\351\005\005\2031*\267\210"
 479      4F47F18C 
 479      8A02E905 
 479      0583312A 
 479      B788
 480 0457 E4F183DA 		.ascii	"\344\361\203\332Ca\013\240\303y\370:<\024d\006\215\354"
 480      43610BA0 
 480      C379F83A 
 480      3C146406 
 480      8DEC
 481 0469 5B51F08B 		.ascii	"[Q\360\213S\3375,\242\216\216\001\011\306\325Y\365\370"
 481      53DF352C 
 481      A28E8E01 
 481      09C6D559 
 481      F5F8
ARM GAS  C:\Users\AMANRA~1\AppData\Local\Temp\cclHfkGS.s 			page 38


 482 047b 41DD42C9 		.ascii	"A\335B\311\177\000\023\202\334\250\221?\022\344U#\325"
 482      7F001382 
 482      DCA8913F 
 482      12E45523 
 482      D5
 483 048c CFC25572 		.ascii	"\317\302Ur\006\217U\362\302\301\313\013%\327\301\177"
 483      068F55F2 
 483      C2C1CB0B 
 483      25D7C17F 
 484 049c 05B94923 		.ascii	"\005\271I#\177\022 \303\225\205\222-\201\357\004Y\230"
 484      7F1220C3 
 484      9585922D 
 484      81EF0459 
 484      98
 485 04ad 46F65444 		.ascii	"F\366TD\352\237\330K0\322g>\031Z\026J\376Cx.\310\315"
 485      EA9FD84B 
 485      30D2673E 
 485      195A164A 
 485      FE43782E 
 486 04c3 1AF9F7C1 		.ascii	"\032\371\367\3012\304\"\371\013\037y\347B\311\337\200"
 486      32C422F9 
 486      0B1F79E7 
 486      42C9DF80 
 487 04d3 9782DCA2 		.ascii	"\227\202\334\242\221O\012\362\023\027.e\031U\215\001"
 487      914F0AF2 
 487      13172E65 
 487      19558D01 
 488 04e3 A67C1A77 		.ascii	"\246|\032w-\224|1(\022\221\207k\344\231\222\355\025"
 488      2D947C31 
 488      28129187 
 488      6BE49992 
 488      ED15
 489 04f5 B3CA2965 		.ascii	"\263\312)e\250\013Ow\255e\376\276\254\264P\270\204\253"
 489      A80B4F77 
 489      AD65FEBE 
 489      ACB450B8 
 489      84AB
 490 0507 08CDD576 		.ascii	"\010\315\325v)\250\002K\305\252\340[\210\214\370\302"
 490      29A8024B 
 490      C5AAE05B 
 490      888CF8C2 
 491 0517 4B6B35A5 		.ascii	"Kk5\245\352\032\337\023\241\322\377\010\262\244\014"
 491      EA1ADF13 
 491      A1D2FF08 
 491      B2A40C
 492 0526 D821A9FC 		.ascii	"\330!\251\374\247.u}o\364\363\377\030\262\005\377\""
 492      A72E757D 
 492      6FF4F3FF 
 492      18B205FF 
 492      22
 493 0537 959F76CC 		.ascii	"\225\237v\314\246\274\343\021\376U\355M\310\221l\252"
 493      A6BCE311 
 493      FE55ED4D 
 493      C8916CAA 
 494 0547 EB9D6A0E 		.ascii	"\353\235j\0165&J\240\220G\316\307\361Gs8\316\015q\374"
 494      35264AA0 
 494      9047CEC7 
ARM GAS  C:\Users\AMANRA~1\AppData\Local\Temp\cclHfkGS.s 			page 39


 494      F1477338 
 494      CE0D71FC 
 495 055b FC966B87 		.ascii	"\374\226k\207\024\220\370\307\022n.\221Z\336y\222\315"
 495      1490F8C7 
 495      126E2E91 
 495      5ADE7992 
 495      CD
 496 056c B7872D4C 		.ascii	"\267\207-L\276O\204\227(\215f\227\204\263!R\333Mf\""
 496      BE4F8497 
 496      288D6697 
 496      84B32152 
 496      DB4D6622 
 497 0580 8A9C9568 		.ascii	"\212\234\225hwP\035>%\"}\020\321+\305\3303\207\030{"
 497      77501D3E 
 497      25227D10 
 497      D12BC5D8 
 497      3387187B 
 498 0594 5F21467E 		.ascii	"_!F~\240\030\373\374\316\237g\227\376F-G\324<\333\367"
 498      A018FBFC 
 498      CE9F6797 
 498      FE462D47 
 498      D43CDBF7 
 499 05a8 200E5AC1 		.ascii	" \016Z\301-\334E\373\335\225\267\014\365\3501v\262\210"
 499      2DDC45FB 
 499      DD95B70C 
 499      F5E83176 
 499      B288
 500 05ba C0CF4BD8 		.ascii	"\300\317K\330\357\253z\201\244\355gj\222\223\371\227"
 500      EFAB7A81 
 500      A4ED676A 
 500      9293F997 
 501 05ca 2B645EA0 		.ascii	"+d^\240\356F{&r\352|\233[c\221\177g0\301\337\245\351"
 501      EE467B26 
 501      72EA7C9B 
 501      5B63917F 
 501      6730C1DF 
 502 05e0 3B43A184 		.ascii	";C\241\204;C\224P\354Y\335\345'\267x\310\336\260\277"
 502      3B439450 
 502      EC59DDE5 
 502      27B778C8 
 502      DEB0BF
 503 05f3 DDC0C948 		.ascii	"\335\300\311H,\374n\\\034\0037\205\"I\017\036\011\303"
 503      2CFC6E5C 
 503      1C033785 
 503      22490F1E 
 503      09C3
 504 0605 C10BBE3F 		.ascii	"\301\013\276?\331\334p[\364\277\011\022(\372\375Or\271"
 504      D9DC705B 
 504      F4BF0912 
 504      28FAFD4F 
 504      72B9
 505 0617 9AB795F2 		.ascii	"\232\267\225\362\376\207&rU\373\350\020W\363\356}T\032"
 505      FE872672 
 505      55FBE810 
 505      57F3EE7D 
 505      541A
 506 0629 3B692125 		.ascii	";i!%\213E\352\213\005'\203\022\2222\2122\354\315\035"
ARM GAS  C:\Users\AMANRA~1\AppData\Local\Temp\cclHfkGS.s 			page 40


 506      8B45EA8B 
 506      05278312 
 506      92328A32 
 506      ECCD1D
 507 063c 4A24D722 		.ascii	"J$\327\"\006U\333\233\232\266\321\363\324\266\014\007"
 507      0655DB9B 
 507      9AB6D1F3 
 507      D4B60C07 
 508 064c E3C02B1C 		.ascii	"\343\300+\034\2746\233\266ap\300\247\355\301`m\273\212"
 508      BC369BB6 
 508      6170C0A7 
 508      EDC1606D 
 508      BB8A
 509 065e 7A264DBC 		.ascii	"z&M\274Q\325\366\352\256\312O\315\323\265\015\203C3"
 509      51D5F6EA 
 509      AECA4FCD 
 509      D3B50D83 
 509      4333
 510 0670 687B98B4 		.ascii	"h{\230\264\215\366i\333]\360\253Pmo\243\266\207\375"
 510      8DF669DB 
 510      5DF0AB50 
 510      6D6FA3B6 
 510      87FD
 511 0682 DA9A82B4 		.ascii	"\332\232\202\264-Em\313H\2132\241m\177~\346\024\220"
 511      2D456DCB 
 511      488B32A1 
 511      6D7F7EE6 
 511      1490
 512 0694 B661B012 		.ascii	"\266a\260\022\037[\313n\034\0005\3578\312\373\210\246"
 512      1F5BCB6E 
 512      1C0035EF 
 512      38CAFB88 
 512      A6
 513 06a5 6D6D7FEB 		.ascii	"mm\177\353\006\277\2641\271\347\201\264\375L\244\376"
 513      06BFB431 
 513      B9E781B4 
 513      FD4CA4FE 
 514 06b5 BAE064F0 		.ascii	"\272\340d\3609i\253F5Xw4]\343\1775\2417\226\270\376"
 514      3969AB46 
 514      35587734 
 514      5DE37F35 
 514      A13796B8 
 515 06ca 29B86234 		.ascii	")\270b4\256r\225K\324iT\255\023\345#>U\006*\365\342"
 515      AE72954B 
 515      D46954AD 
 515      13E5233E 
 515      55062AF5 
 516 06df 8B9BBE28 		.ascii	"\213\233\276(\376\377\375=\020\3644\024\364\364\025"
 516      FEFFFD3D 
 516      10F43414 
 516      F4F415
 517 06ee 3D8DC00E 		.ascii	"=\215\300\016\357#\365+'d\021\375\211\233\316V\360/"
 517      EF23F52B 
 517      276411FD 
 517      899BCE56 
 517      F02F
 518 0700 2C8FFA49 		.ascii	",\217\372I\355\337\224~\212\233R\205\264\324\303\227"
ARM GAS  C:\Users\AMANRA~1\AppData\Local\Temp\cclHfkGS.s 			page 41


 518      EDDF947E 
 518      8A9B5285 
 518      B4D4C397 
 519 0710 8963169D 		.ascii	"\211c\026\235\376\002\227c\003\016WJ\352\251i\324]\363"
 519      FE029763 
 519      030E574A 
 519      EAA969D4 
 519      5DF3
 520 0722 A67AF8D3 		.ascii	"\246z\370\323\0162\223%w\317\230}g\024\262bP%\3113\034"
 520      0E329325 
 520      77CF987D 
 520      6714B262 
 520      5025C933 
 521 0737 48BE90C4 		.ascii	"H\276\220\3041\242\367\350\256\333\233\205\013\306\306"
 521      31A2F7E8 
 521      AEDB9B85 
 521      0BC6C6
 522 0746 28EF3BCD 		.ascii	"(\357;\315z\355\254AE\317\301%\006\017|\010KX\265\312"
 522      7AEDAC41 
 522      45CFC125 
 522      060F7C08 
 522      4B58B5CA 
 523 075a 86BFC42D 		.ascii	"\206\277\304-\311\357%\247:\336^\375\366[\266T\207\315"
 523      C9EF25A7 
 523      3ADE5EFD 
 523      F65BB654 
 523      87CD
 524 076c 9E6E73D8 		.ascii	"\236ns\330\023\361m\372\026{\322\306M\216U\211\214\377"
 524      13F16DFA 
 524      167BD2C6 
 524      4D8E5589 
 524      8CFF
 525 077e D591263B 		.ascii	"\325\221&;\222\377\226$\247\331\223S\245\264\367\371"
 525      92FF9624 
 525      A7D99353 
 525      A5B4F7F9 
 526 078e 46FB6629 		.ascii	"F\373f)=mV\202\344m\211[\377\274)\011G\034\037:Vma\206"
 526      3D6D5682 
 526      E46D895B 
 526      FFBC2909 
 526      471C1F3A 
 527 07a6 F7363A92 		.ascii	"\3676:\222\376`O\376\305\214\200\304\324\224\224\324"
 527      FE604FFE 
 527      C58C80C4 
 527      D49494D4 
 528 07b6 6DB6B454 		.ascii	"m\266\264T{\272\303\366\273w\326\255Y\367\001\232$\246"
 528      7BBAC3F6 
 528      BB77D6AD 
 528      59F7019A 
 528      24A6
 529 07c8 DA9336FC 		.ascii	"\332\2236\374\345\227)\010"
 529      E5972908 
 530 07d0 5F33172C 		.ascii	"_3\027,\351\203t\002\331\326\254[\277v\275m\015\242"
 530      E9837402 
 530      D9D6AC5B 
 530      BF76BD6D 
 530      0DA2
ARM GAS  C:\Users\AMANRA~1\AppData\Local\Temp\cclHfkGS.s 			page 42


 531 07e2 6C6B7DEE 		.ascii	"lk}\356S\034\311\216\015\233\023\023\221#r\335\372w"
 531      531CC98E 
 531      0D9B1313 
 531      912372DD 
 531      FA77
 532 07f4 AC1406A6 		.ascii	"\254\024\006\246\260\322\032\377\026\223\354\314\220"
 532      B0D21AFF 
 532      1693ECCC 
 532      90
 533 0801 9294926A 		.ascii	"\222\224\222j\377\220\311\3336\246$\031\266\245\322"
 533      FF90C9DB 
 533      36A62419 
 533      B6A5D2
 534 0810 3FC6D3B7 		.ascii	"?\306\323\267\246\255\230Gb\211[6!-O\377S\332\377\000"
 534      A6AD9847 
 534      62895B36 
 534      212D4FFF 
 534      53DAFF00 
 535 0824 7B64DEC6 		.ascii	"{d\336\306"
 536              		.text
 537              		.section	.gnu.lto_chThdStart.3049c3b6,"",%progbits
 538 0000 789C7D53 		.ascii	"x\234}SKL\023Q\024}w^\231V\013\206\225,$\261$6@\324"
 538      4B4C1351 
 538      147D775E 
 538      99560B86 
 538      952C24B1 
 539 0018 0EB8D0B8 		.ascii	"\016\270\320\27011]\261hb`\341\222\300\320@\023K\311"
 539      31315DB1 
 539      686260E1 
 539      92C0D040 
 539      134BC9
 540 002b 4C35B0EA 		.ascii	"L5\260\352X \200\225\304D\251\2046\200\037\242.\004"
 540      58208095 
 540      C444A984 
 540      36801FA2 
 540      2E04
 541 003d 45FC1404 		.ascii	"E\374\024\004*_\005\013J41\260\000!\030\011M\343'\032"
 541      2A5F050B 
 541      4A3431B0 
 541      00211809 
 541      4DE3271A 
 542 0051 7F80F74D 		.ascii	"\177\200\367M\213\201\202L\372y\357\335s\356=\367\334"
 542      8B81824C 
 542      FA79EFDD 
 542      73EE3DF7 
 542      DC
 543 0062 373C21A4 		.ascii	"7<!\244\211\022\362\015\377\367\341\027(\001\356\322"
 543      8912F20D 
 543      FFF7E117 
 543      2801EED2 
 544 0072 0421E775 		.ascii	"\004!\347u\034\000[(: .\016\\p\221^\241\360\272\352"
 544      1C005B28 
 544      3A202E0E 
 544      5C70915E 
 544      A1F0BAEA 
 545 0086 9E9F7AA8 		.ascii	"\236\237z\250\037a\032\334~\0165-\354a[\000\003n\303"
 545      1F611ADC 
ARM GAS  C:\Users\AMANRA~1\AppData\Local\Temp\cclHfkGS.s 			page 43


 545      7E0E352D 
 545      EC615B00 
 545      036EC3
 546 0099 9191AEC4 		.ascii	"\221\221\256\304\314[\212\342V\202W\277\247\370\272"
 546      CC5B8AE2 
 546      568257BF 
 546      A7F8BA
 547 00a8 5E29BBFC 		.ascii	"^)\273\374\224#^\204wA*<\200TV\343!d\"xh\361\317\224"
 547      94235E84 
 547      77412A3C 
 547      805456E3 
 547      21642278 
 548 00c0 9E1E0482 		.ascii	"\236\036\004\202\353\361\252\361w|z\233J\034\272I\225"
 548      EBF1AAF1 
 548      777C7A9B 
 548      4A1CBA49 
 548      95
 549 00d1 03C88247 		.ascii	"\003\310\202G@7\022Y\"x\014\351\014?\177\177\265!\211"
 549      40371259 
 549      22780CE9 
 549      0C3F7F7F 
 549      B52189
 550 00e4 D7B4A272 		.ascii	"\327\264\242r\204`\312'\300\303\277\363*\005\237\340"
 550      8460CA27 
 550      C0C3BFF3 
 550      2A059FE0 
 551 00f4 C8475E3D 		.ascii	"\310G^=\367R\330@!\020@h7\360$\016\376u\370D\002a\001"
 551      F752D840 
 551      21104068 
 551      37F0240E 
 551      FE75F844 
 552 010b 2FD6C158 		.ascii	"/\326\301X\333\330T\277\236\236V\271w\332\2575&\032"
 552      DBD854BF 
 552      9E9E56B9 
 552      77DAAF35 
 552      261A
 553 011d 6FA8F2D6 		.ascii	"o\250\362\326|\031\315\225\236z\245\325\235\354\247"
 553      7C19CD95 
 553      9E7AA5D5 
 553      9DECA7
 554 012c 149E6E16 		.ascii	"\024\236n\026\311\236\270\304\221f\204\365\202\221@"
 554      C99EB8C4 
 554      916684F5 
 554      829140
 555 013b 0F4B4E37 		.ascii	"\017KN7\211\351C1\375(\206\375\000r;\246\022\202\312"
 555      89E94331 
 555      FD2886FD 
 555      00723BA6 
 555      1282CA
 556 014e EA5A0DFA 		.ascii	"\352Z\015\372\267w\266q\311s\230\3071\260\246I-\366"
 556      B777B671 
 556      C97398C7 
 556      31B0A649 
 556      2DF6
 557 0160 89F35082 		.ascii	"\211\363P\202\244\016\005\342\2522H>\000\267\215<\337"
 557      A40E05E2 
 557      AA32483E 
ARM GAS  C:\Users\AMANRA~1\AppData\Local\Temp\cclHfkGS.s 			page 44


 557      00B78D3C 
 557      DF
 558 0171 CEF22008 		.ascii	"\316\362 \010F$\325,)\275\0326:\012\006x\206\261ep\317"
 558      4624D52C 
 558      29BD1A36 
 558      3A0A0678 
 558      86B16570 
 559 0186 F73474CF 		.ascii	"\3674t\317\306\373x\371WJ\314G\315\026\317\026\217\240"
 559      C6FB78F9 
 559      574ACC47 
 559      CD16CF16 
 559      8FA0
 560 0198 67032C96 		.ascii	"g\003,\226\020\037\373\355\313\300k\021d}\017n\355{"
 560      101FFBED 
 560      CBC06B11 
 560      647D0F6E 
 560      ED7B
 561 01aa 08DB1D66 		.ascii	"\010\333\035f}\017\263\276\201L\263\252\327[:\177\354"
 561      7D0FB3BE 
 561      814CB3AA 
 561      D75B3A7F 
 561      EC
 562 01bb 4E5B8616 		.ascii	"N[\206\026\245\321\340\217V\273\273\320\243\3504\034"
 562      A5D1E08F 
 562      56BBBBD0 
 562      A3E8341C 
 563 01cb AA1E8134 		.ascii	"\252\036\2014\325\332O\34173\034\236\300(hT\335\004"
 563      D5DA4FE1 
 563      37331C9E 
 563      C0286854 
 563      DD04
 564 01dd 9EAB77F1 		.ascii	"\236\253w\361v\337\340bbZ$\306V\365|i\357|\253W\331"
 564      76DFE062 
 564      625A24C6 
 564      56F57C69 
 564      EF7CAB57 
 565 01f2 2F181BC6 		.ascii	"/\030\033\306@\203\236\271\015\252\007\204\204\241z"
 565      40839EB9 
 565      0DAA0784 
 565      84A17A
 566 0201 AE6E4DCF 		.ascii	"\256nM\317\232c\350@ <\243u\255(:?E\275<\342\307\301"
 566      9A63E840 
 566      203CA375 
 566      AD283A3F 
 566      45BD3CE2 
 567 0217 856F0787 		.ascii	"\205o\007\207\261\216p\340g\022sK\213j_B\252\237\352"
 567      B18E70E0 
 567      6712734B 
 567      8B6A5F42 
 567      AA9FEA
 568 022a 54F7D960 		.ascii	"T\367\331`1\354\255\036\230\324F\315$\020\212\231\031"
 568      31ECAD1E 
 568      98D446CD 
 568      24108A99 
 568      19
 569 023b 68E8DE1F 		.ascii	"h\350\336\037\235k\254\277\325\226\367}\372u\351!U\372"
 569      9D6BACBF 
ARM GAS  C:\Users\AMANRA~1\AppData\Local\Temp\cclHfkGS.s 			page 45


 569      D596F77D 
 569      FA75E921 
 569      55FA
 570 024d 842A3D5E 		.ascii	"\204*=^\347dT\347\334J\375t\261Z\202\220\010n=\027B"
 570      E76454E7 
 570      DC4AFD74 
 570      B15A8290 
 570      086E3D17 
 571 0262 3C138B92 		.ascii	"<\023\213\222\330 k\261\030\336\003\\g\230L\002~\304"
 571      D8206BB1 
 571      18DE035C 
 571      67984C02 
 571      7EC4
 572 0274 125BA1CD 		.ascii	"\022[\241\315!g\037\317\316\022\034\262 9\005Y\022\361"
 572      21671FCF 
 572      CE121CB2 
 572      20390559 
 572      12F1
 573 0286 D4592259 		.ascii	"\324Y\"Y\013\212d\223H8g\331\177\261\266R\361\314\331"
 573      0B8A6493 
 573      483867D9 
 573      7FB1B652 
 573      F1CCD9
 574 0299 222B46E4 		.ascii	"\"+F\344\012\331TB\264\205\005\262\365\224d;\272-At"
 574      0AD95442 
 574      B48505B2 
 574      F594643B 
 574      BA2D4174 
 575 02ad D8ED8E52 		.ascii	"\330\355\216R\241\314!9e\341d\256\305l)G\210\350\220"
 575      A1CC2139 
 575      65E164AE 
 575      C56C2947 
 575      88E890
 576 02c0 ACF9E78E 		.ascii	"\254\371\347\216\331\221n\336\211f-w2\222`\266\344\345"
 576      D9916EDE 
 576      89662D77 
 576      329260B6 
 576      E4E5
 577 02d2 E4096664 		.ascii	"\344\011fd\0119\353\345\355\262M\316/\026E\314\221l"
 577      0939EBE5 
 577      EDB24DCE 
 577      2F1645CC 
 577      916C
 578 02e4 C9CB3530 		.ascii	"\311\31350\031e\222\355\220\301\230E8\211h\355V\273"
 578      196592ED 
 578      90C19845 
 578      388968ED 
 578      56BB
 579 02f6 43AA207F 		.ascii	"C\252 \177\001\346Cwn"
 579      01E64377 
 579      6E
 580              		.text
 581              		.section	.gnu.lto_chThdAddRef.3049c3b6,"",%progbits
 582 0000 789C8553 		.ascii	"x\234\205S[HTQ\024=\373\236\353\314\344XH\037}\230\037"
 582      5B485451 
 582      143DFB9E 
 582      EBCCE458 
ARM GAS  C:\Users\AMANRA~1\AppData\Local\Temp\cclHfkGS.s 			page 46


 582      481F7D98 
 583 0015 23242A96 		.ascii	"#$*\226W\013\212~\202\360\313\217\201\320\217>E\307"
 583      570B8A7E 
 583      82F0CB8F 
 583      81D08F3E 
 583      45C7
 584 0027 41071A47 		.ascii	"A\007\032G\356\235B\277\274\216\226\225\011A9\211\016"
 584      EE9D42BF 
 584      BC8E9695 
 584      09413989 
 584      0E
 585 0038 3A595211 		.ascii	":YR\021Z\232\226o'_\225o'\0131\350\241\030\370@zP\024"
 585      5A9A966F 
 585      275F956F 
 585      270B31E8 
 585      A118F840 
 586 004f 95B6CF19 		.ascii	"\225\266\317\031\255q4\273\314\3349\347\354\275\326"
 586      AD7134BB 
 586      CCDC39E7 
 586      ECBDD6
 587 005e 5E7B9D3D 		.ascii	"^{\235=\032B\310!\221\220/\370\273\027\277@\011\010"
 587      1A42C821 
 587      91902FF8 
 587      BB17BF40 
 587      0908
 588 0070 97470929 		.ascii	"\227G\011)\320\011\000l\241\352\200\344\013\220\017"
 588      D009006C 
 588      A1EA80E4 
 588      0B900F
 589 007f 97E8550A 		.ascii	"\227\350U\012\023E\367]\264\204\2720M\304\355\307\221"
 589      1345F75D 
 589      B484BA30 
 589      4DC4EDC7 
 589      91
 590 0090 8AD95D6C 		.ascii	"\212\331]l\013`\300\355\322\362@SH\314-Uu\250\236k\336"
 590      0B60C0ED 
 590      D2F24053 
 590      48CC2D55 
 590      75A89E6B 
 591 00a5 B0CAA671 		.ascii	"\260\312\246qu\207\213\012\304\211\351M\020\016\017"
 591      75878B0A 
 591      C489E94D 
 591      100E0F
 592 00b4 209CD568 		.ascii	" \234\325h\206\030L\356\233\373\351\325\323X \270\036"
 592      86184CEE 
 592      9BFBE9D5 
 592      D35820B8 
 592      1E
 593 00c5 2A1A9AD2 		.ascii	"*\032\232\322D\325r\340\360M\252\356C\024<\004\352\017"
 593      44D572E0 
 593      F04DAAEE 
 593      43143C04 
 593      EA0F
 594 00d7 6444F008 		.ascii	"dD\360\010\242X\376L\303J\331N\215\350\246\204q#e\013"
 594      A258FE4C 
 594      C34AD94E 
 594      8DE8A684 
ARM GAS  C:\Users\AMANRA~1\AppData\Local\Temp\cclHfkGS.s 			page 47


 594      7123650B 
 595 00eb 68E0CF79 		.ascii	"h\340\317y\221\212\217\347\353\202\206\237;)\370A\010"
 595      918A8FE7 
 595      EB82869F 
 595      3B29F841 
 595      08
 596 00fc B4626A1B 		.ascii	"\264bj\033hH@\372\347\376cA\204\005\234X\007c\265\203"
 596      684840FA 
 596      E7FE6341 
 596      84059C58 
 596      0763B583 
 597 0110 DE6E3D3D 		.ascii	"\336n==\311\261w\352\257\227\207D\336\340\362V+\243"
 597      C9B177EA 
 597      AF978744 
 597      DEE0F256 
 597      2BA3
 598 0122 AB0A4B4A 		.ascii	"\253\012KJU\267#\324E)tl\024\311\236\000\342\345*L\353"
 598      55B723D4 
 598      4529746C 
 598      14C99E00 
 598      E2E52A4C 
 599 0137 844802ED 		.ascii	"\204H\002\355\214\234n\020\323\205b\272Q\014{\001b\357"
 599      8C9C6E10 
 599      D38562BA 
 599      510C7B01 
 599      62EF
 600 0149 79833CEA 		.ascii	"y\203<\352\312j1\372\267{\241b\276\365\200N\300\306"
 600      CA6A31FA 
 600      B77BA162 
 600      BEF5804E 
 600      C0C6
 601 015b 45CA5E22 		.ascii	"E\312^\"\360\366\311y\354\030oF\365\220\013(\025W\205"
 601      F0F6C979 
 601      EC186F46 
 601      F5900B28 
 601      155785
 602 016e 1EF21E84 		.ascii	"\036\362\036\204-\204Vn/\024<\020\211\240\342y\265S"
 602      2D84566E 
 602      2F143C10 
 602      89A0E279 
 602      B553
 603 0180 649748C1 		.ascii	"d\227H\301\000\2171\266\010\216\231\366\262\2667\201"
 603      008F31B6 
 603      088E99F6 
 603      B2B63781 
 604 0190 8E5E7919 		.ascii	"\216^y\031\266\346\250\270\311\275\271\203\350^\017"
 604      B6E6A8B8 
 604      C9BDB983 
 604      E85E0F
 605 019f 8B0505C6 		.ascii	"\213\005\005\306~TF\343\200x\230\003\275\233\035\350"
 605      7E5446E3 
 605      80789803 
 605      BD9B1DE8 
 606 01af C3C6FB99 		.ascii	"\303\306\373\231\003\375\314\001 \323\254jMu\343\267"
 606      03FDCC01 
 606      20D3AC6A 
 606      4D75E3B7 
ARM GAS  C:\Users\AMANRA~1\AppData\Local\Temp\cclHfkGS.s 			page 48


 607 01bf E08845A8 		.ascii	"\340\210E\250V\313\015.\037c\335l\273\252\023\005T="
 607      56CB0D2E 
 607      1F63DD6C 
 607      BBAA1305 
 607      543D
 608 01d1 0011DCE4 		.ascii	"\000\021\334\344\017K\223\257\004<\201' r\335\004\236"
 608      0F4B93AF 
 608      043C8127 
 608      2072DD04 
 608      9E
 609 01e2 F2A9BCDD 		.ascii	"\362\251\274\335\325;\027\022\261\274\206\3467\375\251"
 609      D53B1712 
 609      B1BC86E6 
 609      37FDA9
 610 01f1 BEF1859E 		.ascii	"\276\361\205\236\243\23714\014\202\210\2369\014\334"
 610      A39F3134 
 610      0C82889E 
 610      390CDC
 611 0200 034216C0 		.ascii	"\003B\026\300\321\366\275\346n,\353\256\202\012\010"
 611      D1F6BDE6 
 611      6E2CEBAE 
 611      820A08
 612 020f 709EED19 		.ascii	"p\236\355\031\3232S\004>\001\035=#\003\0327T\025`C\310"
 612      D3325304 
 612      3E011D3D 
 612      23031A37 
 612      54156043 
 613 0224 A9ADA022 		.ascii	"\251\255\240\"\014\261\222\030\233,\236z\255\227\352"
 613      0CB19218 
 613      9B2C9E7A 
 613      AD97EA
 614 0233 545F4807 		.ascii	"T_H\007\303\340\2062\312\015\036\001\011\271\013\235"
 614      C3E08632 
 614      CA0D1E01 
 614      09B90B9D 
 615 0243 E75AA98F 		.ascii	"\347Z\251\217\232\372\330\233\213\207\033\202\031\273"
 615      9AFAD89B 
 615      8B871B82 
 615      19BB
 616 0251 0E004691 		.ascii	"\016\000F\221\007\005L^\004\226\023P\314\275\347?\325"
 616      07054C5E 
 616      04961350 
 616      CCBDE73F 
 616      D5
 617 0262 C6FE561B 		.ascii	"\306\376V\033\007\011+\360Y`\003\347\337\005\376\007"
 617      07092BF0 
 617      596003E7 
 617      DF05FE07 
 618 0272 60C2FF6A 		.ascii	"`\302\377j}\003\267f\367J\365\273.\375\272\223\023\334"
 618      7D03B766 
 618      F74AF5BB 
 618      2EFDBA93 
 618      13DC
 619 0284 492F7732 		.ascii	"I/w2\320\266\347>\333\336\376*\235\316\3445\010Y\306"
 619      D0B6E73E 
 619      DBDEFE2A 
 619      9DCEE435 
ARM GAS  C:\Users\AMANRA~1\AppData\Local\Temp\cclHfkGS.s 			page 49


 619      0859C6
 620 0297 6D49CB88 		.ascii	"mI\313\210\306\327\237\310\204\234\307j8\226\010\213"
 620      C6D79FC8 
 620      849CC76A 
 620      3896088B 
 621 02a7 8E8B93F0 		.ascii	"\216\213\223\360c\312\262\244[lJ\302\321\204x\311\246"
 621      63CAB2A4 
 621      5B6C4AC2 
 621      D18478C9 
 621      A6
 622 02b8 48B25D52 		.ascii	"H\262]Rd\023\236\332\263dsZ\206\022g\"\202=\347\237"
 622      64139EDA 
 622      B364735A 
 622      86126722 
 622      823DE79F 
 623 02cc B9966CD3 		.ascii	"\271\226l\323\251\323\031f\214(yJ\\\026\321\246\247"
 623      A9D31966 
 623      8C28794A 
 623      5C16D1A6 
 623      A7
 624 02dd 29E613B2 		.ascii	")\346\023\262\345\360\226\000\223\315j\265eK96\331\256"
 624      E5F09600 
 624      93CD6AB5 
 624      654B3936 
 624      D9AE
 625 02ef 48C7938D 		.ascii	"H\307\223\215\211\306\\L1\331ds\352\231#V\204'n\007"
 625      89C65C4C 
 625      31D96473 
 625      EA992356 
 625      84276E07 
 626 0303 33E7DA19 		.ascii	"3\347\332\031HJ4\246$\245H\211\210\222\222\326\313["
 626      484A34A6 
 626      24A54889 
 626      889292D6 
 626      CB5B
 627 0315 158B929A 		.ascii	"\025\213\222\232i2!G\2501%\331\300d\344\310\226\375"
 627      69322147 
 627      A83125D9 
 627      C064E4C8 
 627      96FD
 628 0327 86C87822 		.ascii	"\206\310x\"\310Dk5[mr\036\371\015\335\225\246V"
 628      C8446B35 
 628      5B6D721E 
 628      F90DDD95 
 628      A656
 629              		.text
 630              		.section	.gnu.lto_chThdRelease.3049c3b6,"",%progbits
 631 0000 789CA556 		.ascii	"x\234\245V[LTW\024=\373\236;\367\016\014\210\365\203"
 631      5B4C5457 
 631      143DFB9E 
 631      3BF70E0C 
 631      88F583
 632 0013 34EA0736 		.ascii	"4\352\0076%>\303`\2655M\032\223\206/?H\032\375\350O"
 632      253EC360 
 632      B5354D1A 
 632      93862F3F 
 632      481AFDE8 
ARM GAS  C:\Users\AMANRA~1\AppData\Local\Temp\cclHfkGS.s 			page 50


 633 0028 13A32311 		.ascii	"\023\243#\021\222\342\230\031\332\350\027\027\030\001"
 633      92E29819 
 633      DAE81717 
 633      1801
 634 0036 B526C607 		.ascii	"\265&\306\007X\234\300\2401\332\017\250Z\253eD\230\""
 634      589CC0A0 
 634      31DA0FA8 
 634      5AAB6544 
 634      9822
 635 0048 204A1545 		.ascii	" J\025El\025\255\017\024\234\221G\025\037h\034\245{"
 635      6C15AD0F 
 635      149C9147 
 635      151F681C 
 635      A57B
 636 005a 9F73A7E0 		.ascii	"\237s\247\3400bL'pr\036{\257\275\366\353\234\2531\306"
 636      30624C27 
 636      70721E7B 
 636      AFBDF6EB 
 636      9CAB31C6 
 637 006e 42718C7D 		.ascii	"Bq\214}\004\214}\203s\2602P\266_`\254\300\252(\274m"
 637      048C7D83 
 637      73B03250 
 637      B65F60AC 
 637      C0AA28BC 
 638 0083 3A33E2B5 		.ascii	":3\342\265\266E\314H\340\\\337\204+\253*F\213\234\203"
 638      B645CC48 
 638      E05CDF84 
 638      2BAB2A46 
 638      8B9C83
 639 0096 2E452D72 		.ascii	".E-r\002ZdC\007\240\211a\005\226\257p\325\242\351\220"
 639      025A6443 
 639      07A08961 
 639      0596AF70 
 639      D5A2E990 
 640 00aa 0F3FF05D 		.ascii	"\017?\360]\034\232J\372\352\224\271\007\015\374\005"
 640      1C9A4AFA 
 640      EA94B907 
 640      0DFC05
 641 00b9 CA8FCF28 		.ascii	"\312\217\317(66}\350\345\214\225\341?\375\340\027\230"
 641      36367DE8 
 641      E58C95E1 
 641      3FFDE017 
 641      98
 642 00ca 8B52973C 		.ascii	"\213R\227<\207\275|+\367r\000\025\227\217\316W\334\235"
 642      87BD7C2B 
 642      F7720015 
 642      978FCE57 
 642      DC9D
 643 00dc 424B0552 		.ascii	"BK\005Rp\331\334\033\356\264\361\371\300p\336\356i\277"
 643      70D9DC1B 
 643      EEB4F1F9 
 643      C070DEEE 
 643      69BF
 644 00ee AACD3E60 		.ascii	"\252\315>`\030\205F``?7>\366r\016\307\201# \374\012"
 644      18854660 
 644      603F373E 
 644      F6720EC7 
ARM GAS  C:\Users\AMANRA~1\AppData\Local\Temp\cclHfkGS.s 			page 51


 644      812320FC 
 645 0103 33E118CC 		.ascii	"3\341\030\314d\270\305\340\004\314&\371\236#\257w'j"
 645      64B8C5E0 
 645      04CC26F9 
 645      9E23AF77 
 645      276A
 646 0115 AA2F6213 		.ascii	"\252/b\023~\003M\371o\337#x\335|\241\211\3752\016\343"
 646      7E034DF9 
 646      6FDF2378 
 646      DD7CA189 
 646      FD320EE3 
 647 0129 5418D4A1 		.ascii	"T\030\324\241\203~\320X\224\370\343\226\245\026F\007"
 647      837ED058 
 647      94F8E396 
 647      A5164607 
 648 0139 655CA1B3 		.ascii	"e\\\241\263\003\347:\033m\374k\241\373Sm\365\236\204"
 648      03E73A1B 
 648      6DFC6BA1 
 648      FB536DF5 
 648      9E84
 649 014b D4FD82DE 		.ascii	"\324\375\202\336\350\3369\225E[\267\031\276\302\251"
 649      E8DE3995 
 649      455BB719 
 649      BEC2A9
 650 015a 5EAE42FD 		.ascii	"^\256B\375\233$\351\027\005<T\211\276\234\202T\006'"
 650      9B24E917 
 650      053C5489 
 650      BE9C8254 
 650      0627
 651 016c 099CBF41 		.ascii	"\011\234\277A\246\001\3114\"\031\032\242\364\312o\314"
 651      A601C934 
 651      22191AA2 
 651      F4CA6FCC 
 652 017c B0C47420 		.ascii	"\260\304t \200:\277Ot`\244e\351\247\214\016L\007\376"
 652      803ABF4F 
 652      7460A465 
 652      E9A78C0E 
 652      4C07FE
 653 018f 3FE9D344 		.ascii	"?\351\323D\272i\"\351f$\320B\244q\300\212c?wZ\002\306"
 653      BA6922E9 
 653      6624D042 
 653      A471C08A 
 653      633F775A 
 654 01a5 EBD112E4 		.ascii	"\353\321\022\344\234<\270#\344\265'\003f\313\242\320"
 654      9C3CB823 
 654      E4B52703 
 654      66CBA2D0 
 655 01b5 C0695071 		.ascii	"\300iPq\320,4h\224F\235\006+\015qt\232\010\224\326i"
 655      D02C3468 
 655      94469D06 
 655      2B0D7174 
 655      9A0894D6 
 656 01ca 38D5192B 		.ascii	"8\325\031+\305tb\321\031\001\266\031\335\300YQ\200\365"
 656      C57462D1 
 656      1901B619 
 656      DDC05951 
 656      80F5
ARM GAS  C:\Users\AMANRA~1\AppData\Local\Temp\cclHfkGS.s 			page 52


 657 01dc 412C87F6 		.ascii	"A,\207\366N\356\020\264B**\225\204\214S*\025\235\012"
 657      4EEE10B4 
 657      422A2A95 
 657      848C532A 
 657      159D0A
 658 01ef 297006CF 		.ascii	")p\006\317\372\241\260\347\344n\377-\210\362x\247\177"
 658      FAA1B0E7 
 658      E46EFF2D 
 658      88F278A7 
 658      7F
 659 0200 86196D75 		.ascii	"\206\031muBi\364~\202\231h\2433K\364\331\313\275s\260"
 659      4269F47E 
 659      829968A3 
 659      334BF4D9 
 659      CBBD73B0 
 660 0214 BE5B2952 		.ascii	"\276[)Rg'F\352\034\006\250\235\"\325N\221\002\326MV"
 660      672746EA 
 660      1C06A89D 
 660      22D54E91 
 660      02D64D56 
 661 0228 F7551D7D 		.ascii	"\367U\035}\036?\253\037\252\214=)^\214\003n\325\334"
 661      1E3FAB1F 
 661      AA8C3D29 
 661      5E8C036E 
 661      D5DC
 662 023a 3D898DA8 		.ascii	"=\211\215\250 \353?`\226H\306\303\201\256\353\012\356"
 662      20EB3F60 
 662      9648C6C3 
 662      81AEEB0A 
 662      EE
 663 024b C0795005 		.ascii	"\300yP\005o\006\027D\027\035j8\335\2330k\310\324\216"
 663      6F061744 
 663      171D6A38 
 663      DD9B306B 
 663      C8D48E
 664 025e 23D9E1DA 		.ascii	"#\331\341\332\243WlB\273\203\264\341\"\250\030\263\302"
 664      A3576C42 
 664      BB83B4E1 
 664      22A818B3 
 664      C2
 665 026f 141103C6 		.ascii	"\024\021\003\306\036@\241\377E\317\211\371\344]\005"
 665      1E40A1FF 
 665      45CF89F9 
 665      E45D05
 666 027e 2706659B 		.ascii	"'\006e\233\232:t\012\212\254\254\372\246\363\255\232"
 666      9A3A740A 
 666      8AACACFA 
 666      A6F3AD9A 
 667 028e 0F2A0BD0 		.ascii	"\017*\013\320!\304\214\257\340\211p\211L\342YW\311\325"
 667      21C48CAF 
 667      E0897089 
 667      4CE25957 
 667      C9D5
 668 02a0 9B367B8D 		.ascii	"\2336{\215!\217l\320\011>\330-\332\034.\203\035\261"
 668      218F6CD0 
 668      093ED82D 
 668      DA1C2E83 
ARM GAS  C:\Users\AMANRA~1\AppData\Local\Temp\cclHfkGS.s 			page 53


 668      1DB1
 669 02b2 8BCA8AEB 		.ascii	"\213\312\212\353\270\204\346\022\375rQs\207h{\033\214"
 669      B884E612 
 669      FD725173 
 669      87687B1B 
 669      8C
 670 02c3 02742110 		.ascii	"\002t!\0202\350\332\002$\024e\315\227\374\016sW\306"
 670      32E8DA02 
 670      241465CD 
 670      97FC0E73 
 670      57C6
 671 02d5 CCFD0976 		.ascii	"\314\375\011v4AX\365\241\201m\323\244I\212Hm\260\321"
 671      344158F5 
 671      A1816DD3 
 671      A4498A48 
 671      6DB0D1
 672 02e8 1B2FEF15 		.ascii	"\033/\357\025C\031\177\317\200\270g\356]\363W J%\230"
 672      43197FCF 
 672      80B867EE 
 672      5DF35720 
 672      4A2598
 673 02fb A6D2A4A5 		.ascii	"\246\322\244\245\037\257\370\203<\275\326\264\244\301"
 673      1FAFF883 
 673      3CBDD6B4 
 673      A4C1
 674 0309 359481AB 		.ascii	"5\224\201\253X@\177\211`wC:9\027.\006i\310\"m\355\273"
 674      58407F89 
 674      6077433A 
 674      39172E06 
 674      69C8226D 
 675 031f 58DDAD11 		.ascii	"X\335\255\021\266\006\243\005a\035\256\243p/x\272O/"
 675      B606A305 
 675      611DAEA3 
 675      702F78BA 
 675      4F2F
 676 0331 36C588CF 		.ascii	"6\305\210\317\360\223ZS&\011n\230\345\270\031\251\267"
 676      F0935A53 
 676      26096E98 
 676      E5B819A9 
 676      B7
 677 0342 4DC762A6 		.ascii	"M\307b\246l\204\006kL\330\350\200L\036~\016\177\213"
 677      6C84066B 
 677      4CD8E880 
 677      4C1E7E0E 
 677      7F8B
 678 0354 7850D3C1 		.ascii	"xP\323\301M\021\376B\177\234D\322\337\023\351\226@R"
 678      4D11FE42 
 678      7F9C44D2 
 678      DF13E996 
 678      4052
 679 0366 08E9B644 		.ascii	"\010\351\266D\212\235\"\211\243\275\025\347\316\030"
 679      8A9D2289 
 679      A3BD15E7 
 679      CE18
 680 0374 4E0F6548 		.ascii	"N\017eH\037O\312\372\236\244\356\216\201\335{7)\353"
 680      1F4FCAFA 
 680      9EA4EE8E 
ARM GAS  C:\Users\AMANRA~1\AppData\Local\Temp\cclHfkGS.s 			page 54


 680      81DD7B37 
 680      29EB
 681 0386 5B717AC7 		.ascii	"[qz\307\302\324G\2444q\207\320\2056\276\372Ul\311\373"
 681      C2D447A4 
 681      347187D0 
 681      8536BEFA 
 681      556CC9FB 
 682 039a E3AF0479 		.ascii	"\343\257\004y\241\231m\372\272\352N\203-\322\201\367"
 682      A1996DFA 
 682      BAEA4E83 
 682      2DD281F7 
 683 03aa 45510445 		.ascii	"EQ\004E\007F\267[H\266\333\355W\333\272\327\012\033"
 683      0746B75B 
 683      48B6DBED 
 683      57DBBAD7 
 683      0A1B
 684 03bc 66CBED6B 		.ascii	"f\313\355kxif9\356\275\302\220\000\017\004}\361\260"
 684      78696639 
 684      EEBDC290 
 684      000F047D 
 684      F1B0
 685 03ce F5CB260B 		.ascii	"\365\313&\013k\254\202+\022\251i\370\360\301\004\342"
 685      6BAC822B 
 685      12A969F8 
 685      F0C104E2 
 686 03de 6F010E03 		.ascii	"o\001\016\003\010\021\002\217/YZ\242\372\257\271\\5"
 686      0811028F 
 686      2F595AA2 
 686      FAAFB95C 
 686      35
 687 03ef 043B607B 		.ascii	"\004;`{\001\336P\276#_\320\303\314\312e0\006q\037%\216"
 687      01DE50BE 
 687      235FD0C3 
 687      CCCA6530 
 687      06711F25 
 688 0404 359F29B6 		.ascii	"5\237)\266J\004Z\266\026\205/\331\"\012\203KP\001\206"
 688      4A045AB6 
 688      16852FD9 
 688      220A834B 
 688      500186
 689 0417 10B65C26 		.ascii	"\020\266\\&\342\037\251\3232:\022H\222:d\344Z(\030R"
 689      E21FA9D3 
 689      323A1248 
 689      923A64E4 
 689      5A281852 
 690 042b 233AD564 		.ascii	"#:\325d\004\036\012\035\301\372\021\352\210\242W\331"
 690      041E0A1D 
 690      C1FA11EA 
 690      88A257D9 
 691 043b A0158B3E 		.ascii	"\240\025\213>\010\005\010L\024\011\024\243\023\216G"
 691      0805084C 
 691      140914A3 
 691      138E47
 692 044a 7FA6214E 		.ascii	"\177\246!N\357\331\235\305\302\231D\230\211K\343\245"
 692      EFD99DC5 
 692      C2994498 
 692      894BE3A5 
ARM GAS  C:\Users\AMANRA~1\AppData\Local\Temp\cclHfkGS.s 			page 55


 693 045a 6F8B2A9B 		.ascii	"o\213*\233U\247\010\015\213\270?\306xP\210}\217O\314"
 693      55A7080D 
 693      8BB83FC6 
 693      7850887D 
 693      8F4FCC
 694 046d 33AB6157 		.ascii	"3\253aW_\351\323\244y\207\304\035\334\032\342\325E\036"
 694      5FE9D3A4 
 694      7987C41D 
 694      DC1AE2D5 
 694      451E
 695 047f F072F3F3 		.ascii	"\360r\363\363\203\301\023\230\207\332\221\207\243\277"
 695      83C11398 
 695      87DA9187 
 695      A3BF
 696 048d B4EDA0D5 		.ascii	"\264\355\240\325|8F\032\026w<\013\032\306\016\003b|"
 696      7C38461A 
 696      16773C0B 
 696      1AC60E03 
 696      627C
 697 049f 6308E5A7 		.ascii	"c\010\345\247\220J\000l\000<\267\267\206\007E\016\011"
 697      904A006C 
 697      003CB7B7 
 697      8607450E 
 697      09
 698 04b0 A6AE6EE0 		.ascii	"\246\256n\340\272\236\377\312\260z\371\2242,)\006\317"
 698      BA9EFFCA 
 698      B07AF994 
 698      322C2906 
 698      CF
 699 04c1 209FDCF0 		.ascii	" \237\334\360\362$\341\254e\314\331\375\365\026\351"
 699      F224E1AC 
 699      65CCD9FD 
 699      F516E9
 700 04d0 2D471835 		.ascii	"-G\0305\006\302\3242z\355`D $z\371\007\002Acm\213\314"
 700      06C2D432 
 700      7AED6044 
 700      20247AF9 
 700      07024163 
 701 04e7 078F3E19 		.ascii	"\007\217>\031\242\252\263q\362\352|\036\263:_\274Q\235"
 701      A2AAB371 
 701      F2EA7C1E 
 701      B33A5FBC 
 701      519D
 702 04f9 F41D222C 		.ascii	"\364\035\",\351\346\333\032\004\020\3051\004\212\214"
 702      E9E6DB1A 
 702      0410C531 
 702      048A8C
 703 0508 5D292EF0 		.ascii	"]).\360\010Ws\322\322\354\370\347\310\316Y\235\343t"
 703      085773D2 
 703      D2ECF8E7 
 703      C8CE599D 
 703      E374
 704 051a 2FFC7C61 		.ascii	"/\374|a\272\335\351\266\273\362\354n\227\003w\363\262"
 704      BADDE9B6 
 704      BBF2EC6E 
 704      970377F3 
 704      B2
ARM GAS  C:\Users\AMANRA~1\AppData\Local\Temp\cclHfkGS.s 			page 56


 705 052b 5D59ABD6 		.ascii	"]Y\253\326\270\323\034L\311[\377V\331\234u\216o\277"
 705      B8D31C4C 
 705      C95BFF56 
 705      D99C758E 
 705      6FBF
 706 053d 5B938527 		.ascii	"[\223\205'\356\215\356\264l\246\257^\345\316\372\312"
 706      EE8DEEB4 
 706      6CA6AF5E 
 706      E5CEFACA 
 707 054d 95F3594C 		.ascii	"\225\363YL\005\20737\327\271\316\276\336\351\312s\333"
 707      05873337 
 707      D7B9CEBE 
 707      DEE9CA73 
 707      DB
 708 055e BF5C9E99 		.ascii	"\277\\\236\231\221\271\001E\034NW\326\312\357\227\344"
 708      91B90145 
 708      1C4E57D6 
 708      CAEF97E4 
 709 056e A27AC664 		.ascii	"\242z\306djY\033\362H\311\236\221\271b\331\012{\006"
 709      6A591BF2 
 709      48C99E91 
 709      B962D90A 
 709      7B06
 710 0580 6AD99745 		.ascii	"j\331\227E\314\347\272s\334+\327:\034\21015s\305\362"
 710      CCE7BA73 
 710      DC2BD73A 
 710      1C883135 
 710      73C5F2
 711 0593 14A2B1DE 		.ascii	"\024\242\261\336\225\263 %5\235).\246\347f\345:]\033"
 711      95B32025 
 711      359D292E 
 711      A6E766E5 
 711      3A5D1B
 712 05a6 D98277FB 		.ascii	"\331\202w\373\021\361;\233\375\013 \313\214\256"
 712      11F13B9B 
 712      FD0B20CB 
 712      8CAE
 713              		.text
 714              		.section	.gnu.lto_chThdExitS.3049c3b6,"",%progbits
 715 0000 789C9555 		.ascii	"x\234\225U\375O[U\030>\357=\367\336^Z`k\253\213YH$\233"
 715      FD4F5B55 
 715      183EEF3D 
 715      F7DE5E5A 
 715      606BAB8B 
 716 0018 CBC64CA8 		.ascii	"\313\306L\250\030\177\361?\3617\343`\021\014:B\321\037"
 716      187FF13F 
 716      F137E360 
 716      110C3A42 
 716      D11F
 717 002a E58EF229 		.ascii	"\345\216\362).\231d0V\033\323i\024\263e\203f\300,\240"
 717      2E996430 
 717      561BD369 
 717      14B36583 
 717      66C02CA0 
 718 003e 96F231E6 		.ascii	"\226\3621\346\370p\310\306\006\025\221\011\033\310\232"
 718      F870C8C6 
 718      06159109 
ARM GAS  C:\Users\AMANRA~1\AppData\Local\Temp\cclHfkGS.s 			page 57


 718      1BC89A
 719 004d 0C972913 		.ascii	"\014\227)\023\321\367=\347\026:>6\271iO\3179\367=\317"
 719      D1F73DE7 
 719      163A3E36 
 719      B9694FCF 
 719      39F73DCF 
 720 0061 F39CE77D 		.ascii	"\363\234\347}\317\251\316\030\013\032\214\275\211\277"
 720      CFA9CE18 
 720      0B1A8CBD 
 720      89BF
 721 006f 45F88514 		.ascii	"E\370\205\024\006\312\311a\306\216\033\012\250\262\303"
 721      06CAC961 
 721      C68E1B0A 
 721      A8B2C3
 722 007e 65A7DB50 		.ascii	"e\247\333P\025\336\032e\314\264k1\0073S5Eo<\214#\343"
 722      15DE1A65 
 722      CCB46B31 
 722      07335335 
 722      456F3C8C 
 723 0094 AFFD38D2 		.ascii	"\257\3758\322\025[\322\310\006\206\\l\000P\3074\200"
 723      155BD2C8 
 723      06865C6C 
 723      0050C734 
 723      80
 724 00a5 952A5CD5 		.ascii	"\225*\\\325t\233\001\245\212\312\254\347c~\212C\264"
 724      749B01A5 
 724      8ACAACE7 
 724      637E8A43 
 724      B4
 725 00b6 6A2EAC64 		.ascii	"j.\254d5\231\370DNO\274XiV\274\020\340\2145p\031\003"
 725      3599F844 
 725      4E4FBC58 
 725      6956BC10 
 725      E08C3570 
 726 00cc 97200BA3 		.ascii	"\227 \013\243\256\227\267\004x-\017p\000\025\207\017"
 726      AE97B704 
 726      782D0F70 
 726      0015870F 
 727 00dc 86FC77D2 		.ascii	"\206\374w\322i\250@&\016\007[\302\343*\177\031\030\366"
 727      69A84026 
 727      0E075BC2 
 727      E32A7F19 
 727      18F6
 728 00ee EBDB7D5F 		.ascii	"\353\333}_\363\203_\012\274\225\317\271\371R\200sh\007"
 728      F3835F0A 
 728      BC95CFB9 
 728      F9528073 
 728      6807
 729 0100 8E80D006 		.ascii	"\216\200\320\006\031\320\012\031\014\247\030\\\206\203"
 729      19D00A19 
 729      0CA7185C 
 729      8683
 730 010e 14DF3BBB 		.ascii	"\024\337;\2732\352\340\036\261\366\367\352\201&\343"
 730      32EAE01E 
 730      B1F6F7EA 
 730      8126E3
 731 011d C017A659 		.ascii	"\300\027\246YfF\036\255\356=\3533\007L5\300U\370\346"
ARM GAS  C:\Users\AMANRA~1\AppData\Local\Temp\cclHfkGS.s 			page 58


 731      66461EAD 
 731      EE3DEB33 
 731      074C35C0 
 731      55F8E6
 732 0130 C9F5F460 		.ascii	"\311\365\364`\370Lh\265>MW!\014\007\202\011\311\320"
 732      F84C68B5 
 732      3E4D5721 
 732      0C078209 
 732      C9D0
 733 0142 013A03FC 		.ascii	"\001:\003\374\245\331\346Q-b\256\376[eF\342\037v=\214"
 733      A5D9E651 
 733      2D62AEFE 
 733      5B6546E2 
 733      1F763D8C 
 734 0156 352ACF03 		.ascii	"5*\317\003rk\0126:\247F\305F\325\250\321\251\2613Z\345"
 734      726B0A36 
 734      3AA746C5 
 734      46D5A8D1 
 734      A9B1335A 
 735 016b 00D2E6A4 		.ascii	"\000\322\346\244\011\0275n\212d\254\032\341c\0163\302"
 735      0917356E 
 735      8A64AC1A 
 735      E1630E33 
 735      C2
 736 017c 6AB8821D 		.ascii	"j\270\202\035_\204-@Y\307|\274\331F\234~nGE\015\025"
 736      5F842D40 
 736      59C77CBC 
 736      D9469C7E 
 736      6E47450D 
 737 0191 D1111BF9 		.ascii	"\321\021\033\371b\023\373\011\207\027'm\245\377\230"
 737      6213FB09 
 737      8717276D 
 737      A5FF98
 738 01a0 064E0439 		.ascii	"\006N\0049\010\321\255\276\007u\351A\370\014\002\334"
 738      08D1ADBE 
 738      0775E941 
 738      F80C02DC 
 739 01b0 802E2885 		.ascii	"\200.(\205N\332\020\276h\277\022\373\333\360\\ \343"
 739      4EDA10BE 
 739      68BF12FB 
 739      DBF05C20 
 739      E3
 740 01c1 82E7F06D 		.ascii	"\202\347\360m\012|\013A\250\347\326f\037\217\373*\024"
 740      0A7C0B41 
 740      A8E7D666 
 740      1F8FFB2A 
 740      14
 741 01d2 F93A932C 		.ascii	"\371:\223,\371\016<\365\004\311\340{\360\2609(\013~"
 741      F90E3CF5 
 741      04C9E07B 
 741      F0B03928 
 741      0B7E
 742 01e4 403A6803 		.ascii	"@:h\003\250\205\264\371\347\227G\3544\227,L\025\302"
 742      A885B4F9 
 742      E79747EC 
 742      34972C4C 
 742      15C2
ARM GAS  C:\Users\AMANRA~1\AppData\Local\Temp\cclHfkGS.s 			page 59


 743 01f6 BAA243FD 		.ascii	"\272\242C\375:\2128Nd{\002\334\216K b\011\031\253\272"
 743      3A8A384E 
 743      647B02DC 
 743      8E4B2062 
 743      0919ABBA 
 744 020a 35E55863 		.ascii	"5\345Xcr@\267\220\241H\031\027\357\227\015\253\226\312"
 744      7240B790 
 744      A1481917 
 744      EF970DAB 
 744      96CA
 745 021c 2394DA28 		.ascii	"#\224\332(\351\020\316\367\200\307\317\035\330\253\301"
 745      E910CEF7 
 745      80C7CF1D 
 745      D8ABC1
 746 022b 31D62A3A 		.ascii	"1\326*:D\262\232z\273\271\245b\365\324\325\013*\177"
 746      44B29A7A 
 746      BBB9A562 
 746      F5D4D50B 
 746      2A7F
 747 023d 5548A85B 		.ascii	"UH\250[\252\356J\344:\276\232\3527#\345\310\246A\357"
 747      AAEE4AE4 
 747      3ABE9AEA 
 747      3723E5C8 
 747      A641EF
 748 0250 E654431F 		.ascii	"\346TC\037\355\011\010m\272\263'\324\237\276\226\373"
 748      ED09086D 
 748      BAB327D4 
 748      9FBE96FB 
 749 0260 7259B675 		.ascii	"rY\266u\373\220\002\203D\366\033\370\246Z\372\263r\377"
 749      FB900283 
 749      44F61BF8 
 749      A65AFAB3 
 749      72FF
 750 0272 998E7BA6 		.ascii	"\231\216{\246Yg\302\263\253\351\012\341\364\243\223"
 750      5967C2B3 
 750      ABE90AE1 
 750      F4A393
 751 0281 035449D8 		.ascii	"\003TI\330\320\214\237\273d\272O\\\232\006\232\364s"
 751      D08C9FBB 
 751      64BA4F5C 
 751      9A069AF4 
 751      73
 752 0292 67928F20 		.ascii	"g\222\217 ,tmea\360+|\231\012W\205\211\252@\336\350"
 752      2C746D65 
 752      61F02B7C 
 752      990A5785 
 752      89AA40DE 
 753 02a7 E38C50F5 		.ascii	"\343\214P\365\003\031\251\311\000\270\2069E\276\261"
 753      0319A9C9 
 753      00B88639 
 753      45BEB1
 754 02b6 8F6E7362 		.ascii	"\217nsb\303\005m\327\"\023\"\203\032\034\302\341\371"
 754      C3056DD7 
 754      22132283 
 754      1A1CC2E1 
 754      F9
 755 02c7 D38F6AB9 		.ascii	"\323\217j\271dN\243\344\015Z\314\315c\367\027\270\205"
ARM GAS  C:\Users\AMANRA~1\AppData\Local\Temp\cclHfkGS.s 			page 60


 755      644EA3E4 
 755      0D5ACCCD 
 755      63F717B8 
 755      85
 756 02d8 BB976087 		.ascii	"\273\227`\207\004\261n\341\016S\216\234\302\311\332"
 756      04B16EE1 
 756      0E538E9C 
 756      C2C9DA
 757 02e7 9A5091A8 		.ascii	"\232P\221\250\0302\216f2\305\210\266\317\026\241<\270"
 757      18328E66 
 757      32C588B6 
 757      CF16A13C 
 757      B8
 758 02f8 471CA527 		.ascii	"G\034\245'\2538\275\201\352\000F\240\224\341v\003|\227"
 758      AB38BD81 
 758      EA0046A0 
 758      94E17603 
 758      7C97
 759 030a C8B6CAF0 		.ascii	"\310\266\312\360\226\221\347\341q\325\211O*\323\344"
 759      9691E7E1 
 759      71D5894F 
 759      2AD3E4
 760 0319 81808D85 		.ascii	"\201\200\215\205\026\247\323\367\224RK\203\037\205X"
 760      16A7D3F7 
 760      94524B83 
 760      1F8558
 761 0328 9B4CC8F9 		.ascii	"\233L\310\371\241\205)\035yi\351;\264\357\353h\012\203"
 761      A185291D 
 761      7969E93B 
 761      B4EFEB68 
 761      0A83
 762 033a 51244FA8 		.ascii	"Q$O\250\335a\035\375$\353\210\022\271\034_\351\355\326"
 762      DD611DFD 
 762      24EB8812 
 762      B91C5FE9 
 762      EDD6
 763 034c 3616D2C9 		.ascii	"6\026\322\311}g9EY\205\304\223\352\202\301\030\272s"
 763      7D673945 
 763      5985C493 
 763      EA82C118 
 763      BA73
 764 035e 834CBC41 		.ascii	"\203L\274A\273s\375\277$Lw\376\341n|\203\022q3\221\210"
 764      BB73FDBF 
 764      244C77FE 
 764      E16E7C83 
 764      12713391 
 765 0373 31C21897 		.ascii	"1\302\030\227\207v\272\266:\224/|'V6\013\345\223=\203"
 765      8776BAB6 
 765      3A942F7C 
 765      2756360B 
 765      E5933D83 
 766 0387 60F94745 		.ascii	"`\371GE\307\204\303Z\322\205sF.\360se\203\277\231O5"
 766      C784C35A 
 766      D2857346 
 766      2EF07365 
 766      83BF994F 
 767 039c 7737DC12 		.ascii	"w7\334\022\002\0142\3426\262#\327D\317k\353PkW\304n"
ARM GAS  C:\Users\AMANRA~1\AppData\Local\Temp\cclHfkGS.s 			page 61


 767      020C32E2 
 767      36B223D7 
 767      44CF6BEB 
 767      506B57C4 
 768 03b1 60306159 		.ascii	"`0aYV\203\202\317\351\011j\177\250P\306\363\035Q;aR"
 768      568382CF 
 768      E9096A7F 
 768      A850C6F3 
 768      1D513B61 
 769 03c6 50A71075 		.ascii	"P\247\020uLT\266oE\307\012rK\244\350RKS*1\353\300\341"
 769      4C54B66F 
 769      45C70A72 
 769      4BA4E852 
 769      4B532A31 
 770 03dd 678410D2 		.ascii	"g\204\020\322\206k|.\311\346&K\027\303\313i2\206\301"
 770      866B7C2E 
 770      C9E6264B 
 770      17C3CB69 
 770      3286C1
 771 03f0 D49A3A1B 		.ascii	"\324\232:\033k\343\011u\237\206\236\223\361\352\216"
 771      6BE30975 
 771      9F869E93 
 771      F1EA8E
 772 03ff D4A9F08B 		.ascii	"\324\251\360\213Pg'u\323\362\334u\244H$m\207H\277\012"
 772      50672775 
 772      D3F2DC75 
 772      A448246D 
 772      8748BF0A 
 773 0413 24BA0361 		.ascii	"$\272\003a&q\202\301*\324\3158\352\2668w\326q~\243\023"
 773      267182C1 
 773      2AD4CD38 
 773      EAB63877 
 773      D6717EA3 
 774 0428 AB258BDA 		.ascii	"\253%\213\332\032l{Q\263\353`s\317\026\245o\213sw\335"
 774      1A6C7B51 
 774      B3EB6073 
 774      CF16A56F 
 774      8B7377DD 
 775 043c A67B244A 		.ascii	"\246{$J\025\0310di\322\215q\271/g\213;\303\325@\221"
 775      15193064 
 775      69D28D71 
 775      B92F678B 
 775      3BC3D540 
 776 0451 308FC796 		.ascii	"0\217\307\226\356\275\245\207\027u\231\307]\260\000"
 776      EEBDA587 
 776      177599C7 
 776      5DB000
 777 0460 1901EE66 		.ascii	"\031\001\356fq\374\227\270\333\347\024k\351\251\306"
 777      71FC97B8 
 777      DBE7146B 
 777      E9A9C6
 778 046f 331A73E0 		.ascii	"3\032s\340Es(;\333\203\237\334\374\202#\005\307\274"
 778      4573283B 
 778      DB839FDC 
 778      FC822305 
 778      C7BC
 779 0481 39AFE7BC 		.ascii	"9\257\347\274\3429\346\365\024\227x\274\305\2718[\222"
ARM GAS  C:\Users\AMANRA~1\AppData\Local\Temp\cclHfkGS.s 			page 62


 779      E239E6F5 
 779      149778BC 
 779      C5B9385B 
 779      92
 780 0492 5F7CF4AD 		.ascii	"_|\364\255<ov.\343\357z\337VJ\212xIaQ\326vk\012\336"
 780      3C6F762E 
 780      E3EF7ADF 
 780      564A8A78 
 780      496151D6 
 781 04aa CB2D7C3F 		.ascii	"\313-|?\357(\276\361\346\346\347e\347\263\377\000\254"
 781      EF28BEF1 
 781      E6E6E765 
 781      E7B3FF00 
 781      AC
 782 04bb 81F1C9   		.ascii	"\201\361\311"
 783              		.text
 784              		.section	.gnu.lto_chThdExit.3049c3b6,"",%progbits
 785 0000 789C7D51 		.ascii	"x\234}Q]H\024Q\024>g\356\354\017i?\217E\"+$&\311\216"
 785      5D481451 
 785      143E67EE 
 785      EC0F693F 
 785      8F45222B 
 786 0018 F650F418 		.ascii	"\366P\364\030\373\344\303B(\364\024\210\216\213\273"
 786      FBE4C342 
 786      28F41488 
 786      8E8BBB
 787 0027 D03832B3 		.ascii	"\32082\263\205>\355m\335R)\"\2525\223\001K\221\214h"
 787      853EED6D 
 787      DD522922 
 787      AA359301 
 787      4B918C68 
 788 003b 332B6B35 		.ascii	"3+k5\327IS\"*\310\212\002\203BI\212\226\376\210\210"
 788      D7495322 
 788      2AC88A02 
 788      8342498A 
 788      96FE8888 
 789 004f A4B573A7 		.ascii	"\244\265s\247\037J\252\313\334;\347\236\363}\347~\347"
 789      1F4AAACB 
 789      DC3BE79E 
 789      F37DE77E 
 789      E7
 790 0060 1C3700EC 		.ascii	"\0347\000\354\224\000>\321\177=md\200\322\221{\000\373"
 790      94003ED1 
 790      7F3D6D64 
 790      80D2917B 
 790      00FB
 791 0072 BC12A230 		.ascii	"\274\022\2420\270\027!&a\014\017\261\343\014'\332\026"
 791      B8172126 
 791      610C0FB1 
 791      E30C27DA 
 791      16
 792 0083 D252E919 		.ascii	"\322R\351\031N\313>\361\245\360\000\337\277\326b\000"
 792      4ECB3EF1 
 792      A5F000DF 
 792      BFD66200 
 793 0093 9DB4C5C2 		.ascii	"\235\264\305\302KXJ\250\373\211A\213\035d\026C\224\351"
 793      4B584AA8 
ARM GAS  C:\Users\AMANRA~1\AppData\Local\Temp\cclHfkGS.s 			page 63


 793      FB89418B 
 793      1D641643 
 793      94E9
 794 00a5 FAFE6EF7 		.ascii	"\372\376n\367\374*q\225\320G\327;\203\351\3072\333\204"
 794      FC2A7195 
 794      D047D73B 
 794      83E9C732 
 794      DB84
 795 00b7 407672B8 		.ascii	"@vr\270u\200\225\364;\371>\3662\276\301b\014\207\221"
 795      758095F4 
 795      3BF93EF6 
 795      32BEC162 
 795      0C8791
 796 00ca 5142BC82 		.ascii	"QB\274\202\005x\031\013\200\\\200W\261D\340\347.\346"
 796      0578190B 
 796      805C8057 
 796      B144E0E7 
 796      2EE6
 797 00dc 922BDDF2 		.ascii	"\222+\335\362\367\007\361\032\272\001\311\2700\343\262"
 797      F707F11A 
 797      BA01C9B8 
 797      30E3B2
 798 00eb 796EA98D 		.ascii	"yn\251\215\333O\3730Y\343\"\351\002\017\355\204\242"
 798      DB4FFB30 
 798      59E322E9 
 798      020FED84 
 798      A2
 799 00fc 1AB80D1D 		.ascii	"\032\270\015\035L\022V\253\015\013(\211D\375\267g\306"
 799      4C1256AB 
 799      0D0B2889 
 799      44FDB767 
 799      C6
 800 010d F398E288 		.ascii	"\363\230\342\2108\233:\335\225_\334\307y\234\333K\323"
 800      389B3ADD 
 800      955FDCC7 
 800      799CDB4B 
 800      D3
 801 011e FE934F5E 		.ascii	"\376\223O^r~\224\243\305dL\377)\305\251q\004\213\211"
 801      727E94A3 
 801      C5644CFF 
 801      29C5A971 
 801      048B89
 802 0131 D4F68A8F 		.ascii	"\324\366\212\217\311\242(\031}8J\261\327\030\237[<<"
 802      C9A22819 
 802      7D384AB1 
 802      D7189F5B 
 802      3C3C
 803 0143 F20C7FC9 		.ascii	"\362\014\177\311L8e\035\313\025:J;\031\302\262\320\203"
 803      4C38651D 
 803      CB153A4A 
 803      3B19C2B2 
 803      D083
 804 0155 54D92EC0 		.ascii	"T\331.\300\353\"&-\217-No^'\236\002\034\023q\366{\365"
 804      EB22262D 
 804      8F2D4E6F 
 804      5E279E02 
 804      1C1371F6 
ARM GAS  C:\Users\AMANRA~1\AppData\Local\Temp\cclHfkGS.s 			page 64


 805 016b 9841378E 		.ascii	"\230A7\216\213\342\351@j\301\254x\264\267g\350\363\212"
 805      8BE2E940 
 805      6AC1AC78 
 805      B4B767E8 
 805      F38A
 806 017d A22CF6F0 		.ascii	"\242,\366\360.\237\305\\\202p~~\224{e\232/\332X\004"
 806      2E9FC55C 
 806      82707E7E 
 806      947B659A 
 806      2FDA5804 
 807 0191 C2F32EFB 		.ascii	"\302\363.\373pV\"\017\336@\331\221\0158\341\014i 3\371"
 807      7056220F 
 807      DE40D991 
 807      0D38E10C 
 807      692033F9 
 808 01a5 22BFE8ED 		.ascii	"\"\277\350\355\017\266[`?\244\206\036\3459\354I\301"
 808      0FB65B60 
 808      3FA4861E 
 808      E539EC49 
 808      C1
 809 01b6 C69B2853 		.ascii	"\306\233(S\373\342>\247\005\000YL<\357\270\265\332\231"
 809      FBE23EA7 
 809      0500594C 
 809      3CEFB8B5 
 809      DA99
 810 01c8 02A1D3E9 		.ascii	"\002\241\323\351\354\254'\366\225{-\346\351d2\341\247"
 810      ECAC27F6 
 810      957B2DE6 
 810      E96432E1 
 810      A7
 811 01d9 3006DD4C 		.ascii	"0\006\335L\262\230\027\336`\374\324\271\014:X\261\332"
 811      B29817DE 
 811      60FCD4B9 
 811      0C3A58B1 
 811      DA
 812 01ea A919340F 		.ascii	"\251\0314\017\312\275\321\357W\350S\303\221\272\210"
 812      CABDD1EF 
 812      57E853C3 
 812      91BA88
 813 01f9 6E566CAB 		.ascii	"nVl\253(WtS1\242\212i\250\344\215\206\215Pm\275\351"
 813      28577453 
 813      31A28A69 
 813      A8E48D86 
 813      8D506DBD 
 814 020e 57816966 		.ascii	"W\201if\203\247\256\326\014\3550\"[\376JRuM\323\033"
 814      83A7AED6 
 814      0CED3022 
 814      5BFE4A52 
 814      754DD31B 
 815 0222 9526DD88 		.ascii	"\225&\335\210\232\312\366\252` \330L\020U7B5{\267j\376"
 815      9ACAF6AA 
 815      6020D84C 
 815      10553742 
 815      357BB76A 
 816 0237 3004FE47 		.ascii	"0\004\376G\0135G\005I\011\004\253+\253\225\000\261\224"
 816      0B354705 
 816      490904AB 
ARM GAS  C:\Users\AMANRA~1\AppData\Local\Temp\cclHfkGS.s 			page 65


 816      2BAB9500 
 816      B194
 817 0249 CA4675F7 		.ascii	"\312Fu\367\236\372\220\242jf\304\254iPU\312\361O\275"
 817      9EFA90A2 
 817      6A66C4AC 
 817      695055CA 
 817      F14FBD
 818 025c 919FE0B0 		.ascii	"\221\237\340\260\331b\022pM\260\272\312'\3646\031\221"
 818      D9621270 
 818      4DB0BACA 
 818      27F43619 
 818      91
 819 026d 325F7139 		.ascii	"2_q9H\006x\264\220\246\033-\360\015\014\235\017\351"
 819      480678B4 
 819      90A61B2D 
 819      F00D0C9D 
 819      0FE9
 820              		.text
 821              		.section	.gnu.lto_chThdWait.3049c3b6,"",%progbits
 822 0000 789C8D55 		.ascii	"x\234\215UkL\024W\024\276g\357\354\003\227\207mM\223"
 822      6B4C1457 
 822      14BE67EF 
 822      EC039787 
 822      6D4D93
 823 0013 36C44070 		.ascii	"6\304@p#\330\206\321\326\264\351\237\246\015I\023\177"
 823      23D886D1 
 823      D6B4E99F 
 823      A60D4913 
 823      7F
 824 0024 9054F9D9 		.ascii	"\220T\371\331\244FW\002$.Kv\267\215\366\017#\273\006"
 824      A4465702 
 824      242E4B76 
 824      B78DF60F 
 824      23BB06
 825 0037 28A28D95 		.ascii	"(\242\215\225G\351\006\226Z\004\323\202b\221\026\004"
 825      47E90696 
 825      5A04D382 
 825      62911604 
 826 0047 DCA20594 		.ascii	"\334\242\005\224\207\202X)XD)T\036b!\251i\265\256=\347"
 826      87825829 
 826      58442954 
 826      1E6221A9 
 826      69B5AE3D 
 827 005c CE689775 		.ascii	"\316h\227uK\234\300ff\316\353;\337\371\356\031\003c"
 827      4B9CC066 
 827      66CEEB3B 
 827      DFF9EE19 
 827      0363
 828 006e 2CD5C4D8 		.ascii	",\325\304\330z`l3\336\203\236\201\356\263\001\306\366"
 828      7A606C33 
 828      DE839E81 
 828      EEB301C6 
 828      F6
 829 007f 99743A5E 		.ascii	"\231t:^\227\304\224U\322\355uL\211\344 \251\257%\000"
 829      97C49455 
 829      D2ED754C 
 829      89E420A9 
ARM GAS  C:\Users\AMANRA~1\AppData\Local\Temp\cclHfkGS.s 			page 66


 829      AF2500
 830 0092 BA514CC0 		.ascii	"\272QL\300ru\\\202\\8\300\217p\030\364\234\364\362\""
 830      72755C82 
 830      5C38C08F 
 830      7018F49C 
 830      F4F222
 831 00a5 EEE50C24 		.ascii	"\356\345\014$|\\\354\257\230\214\246G\2008|\254iw\267"
 831      7C5CECAF 
 831      988CA647 
 831      80387CAC 
 831      6977B7
 832 00b8 4152AD82 		.ascii	"AR\255\202\227\277\254#a\261\351\262\022\341\345:V\212"
 832      97BFAC23 
 832      61B1E9B2 
 832      12E1E53A 
 832      568A
 833 00ca EE4D100B 		.ascii	"\356M\020\013\337A,\025?\015I\350|~\352\237!3\177\005"
 833      DF412C15 
 833      3F0D49E8 
 833      7C7EEA9F 
 833      21337F05 
 834 00de 18DEF77A 		.ascii	"\030\336\367zzG\014\353k\024%O\361_?\312\225u^\316\241"
 834      7A470CEB 
 834      6B14254F 
 834      F15F3FCA 
 834      95755ECE 
 835 00f3 19787020 		.ascii	"\031xp \276b\360=\254'\377\276\223-\327$\236,b\375_"
 835      BE62F03D 
 835      AC27FFBE 
 835      932DD724 
 835      9E2C62FD 
 836 0108 8F0E9A2C 		.ascii	"\217\016\232,GE\321\256\203\374\213&E)|\007\253\302"
 836      4745D1AE 
 836      83FC8B26 
 836      45297C07 
 836      ABC2
 837 011a 0FCBE3E9 		.ascii	"\017\313\343\351B\367[\215\201\222(\203\004-`\361qF"
 837      42F75B8D 
 837      81922883 
 837      042D60F1 
 837      7146
 838 012c D010512B 		.ascii	"\320\020Q+\030\340\211\315#R\005\016Q=4\224r\010\212"
 838      18E089CD 
 838      2352050E 
 838      513D3494 
 838      72088A
 839 013f 6370067D 		.ascii	"cp\006}\333\300\300B\374\257t\275\215\244\266\221\277"
 839      DBC0C042 
 839      FCAF74BD 
 839      8DA4B691 
 839      BF
 840 0150 8E6C3517 		.ascii	"\216l5\027\207\316\232\371\007\"\366xCuy$A\304\366n"
 840      87CE9AF9 
 840      0722F678 
 840      43757924 
 840      41C4F66E 
 841 0164 78132BDD 		.ascii	"x\023+\335E\305\212/o\265\027y\355X\001\244\232x\241"
ARM GAS  C:\Users\AMANRA~1\AppData\Local\Temp\cclHfkGS.s 			page 67


 841      45C58A2F 
 841      6FB51779 
 841      ED5801A4 
 841      9A78A1
 842 0177 12B9380B 		.ascii	"\022\2718\013\026\006\355\224\234/\003\343G0?\"\030"
 842      1606ED94 
 842      9C2F03E3 
 842      47303F22 
 842      18
 843 0188 FAC1D902 		.ascii	"\372\301\331\002\265ubH\357W\002\217\362q\006k\213'"
 843      B5756248 
 843      EF57028F 
 843      F271066B 
 843      8B27
 844 019a 0F3D6C7C 		.ascii	"\017=l|/\232#{z\211(\324\003qhd\344\030!8e\005\370\217"
 844      2F9A237B 
 844      7A8928D4 
 844      03716864 
 844      E4182138 
 845 01b2 B356FCAC 		.ascii	"\263V\374\254\020\241\343\235\333\317\246A\027\006\370"
 845      10A1E39D 
 845      DBCFA641 
 845      1706F8
 846 01c1 972B0387 		.ascii	"\227+\003\207N\260`P\376\214\322.\221($\210\203sh\233"
 846      4EB06050 
 846      FE8CD22E 
 846      91282488 
 846      8373689B 
 847 01d5 83BC5B73 		.ascii	"\203\274[s%\2557B)\376|$\0014\212\245\247\350\234~\015"
 847      25AD3742 
 847      29FE7C24 
 847      01348AA5 
 847      A7E89C7E 
 848 01ea E93C4F36 		.ascii	"\351<O6}\250m\314\233\210\212\353$J~z\232\222.d\242"
 848      7DA86DCC 
 848      9B888AEB 
 848      244A7E7A 
 848      9A922E64 
 849 01ff 9B28E926 		.ascii	"\233(\351&J\200\215S\331\257\252N\375\265*\376.T)\345"
 849      4A808D53 
 849      D9AFAA4E 
 849      FDB52AFE 
 849      2E5429E5 
 850 0213 715E2E86 		.ascii	"q^.\206W?yF1I:\204\335\003\361\202\365?\346\207\307"
 850      573F7946 
 850      31493A84 
 850      DD03F182 
 850      F53FE687 
 851 0228 74F8062E 		.ascii	"t\370\006.\200$\2003\270(d^\327qn*2~I\2136\222\357R"
 851      80248033 
 851      B828645E 
 851      D7716E2A 
 851      327E498B 
 852 0240 C3A9AB66 		.ascii	"\303\251\253f\021\335K\321\320\007\022\222\226\027'"
 852      11DD4BD1 
 852      D0071292 
 852      961727
ARM GAS  C:\Users\AMANRA~1\AppData\Local\Temp\cclHfkGS.s 			page 68


 853 024f 48606C16 		.ascii	"H`l\026\362Z\377\356\3548\360\022\265W\301\351\350\224"
 853      F25AFFEE 
 853      EC38F012 
 853      B557C1E9 
 853      E894
 854 0261 EEEFBC64 		.ascii	"\356\357\274d$ZT=\265u\366w\031|P\271\017;\302\244\246"
 854      245A543D 
 854      B575F677 
 854      197C50B9 
 854      0F3BC2A4 
 855 0276 0A1C4D3F 		.ascii	"\012\034M?\325D\333p\376\310\270Y\256WTS\004\014\200"
 855      D544DB70 
 855      FEC8B859 
 855      AE575453 
 855      040C80
 856 0289 0F4AB8A0 		.ascii	"\017J\270\240\370\022\310l\012<c\3476\377\227\371\333"
 856      F812C86C 
 856      0A3C63E7 
 856      36FF97F9 
 856      DB
 857 029a 638BFE18 		.ascii	"c\213\376\030\312\034\0011pY\033F!\322R\227\204\243"
 857      CA1C0131 
 857      70591B46 
 857      21D25297 
 857      84A3
 858 02ac 2428330F 		.ascii	"$(3\017\032\327\250\376R0\222U\002IK\313\374\2301\367"
 858      1AD7A8FE 
 858      52309255 
 858      02494BCB 
 858      FC9831F7 
 859 02c0 A162C217 		.ascii	"\241b\302\027>\004G\357\232\334\213\207\243\021\035"
 859      3E0447EF 
 859      9ADC8B87 
 859      A3111D
 860 02cf 78B91986 		.ascii	"x\271\031\206\360\364\017j\320\232\273\257?0\251\320"
 860      F0F40F6A 
 860      D09ABBAF 
 860      3F30A9D0 
 861 02df 7CC7D01A 		.ascii	"|\307\320\032\011W\0048P\205{\377\232{\277N3\277H\255"
 861      09570438 
 861      50857BFF 
 861      9A7BBF4E 
 861      33BF48AD 
 862 02f3 0E835C82 		.ascii	"\016\203\\\202\252B\344W\02191D8\320\363\310t\301\237"
 862      AA42E457 
 862      11393144 
 862      38D0F3C8 
 862      74C19F
 863 0306 311BEAD4 		.ascii	"1\033\352\324c;\303\253\335\036\314\026\305\324\013"
 863      633BC3AB 
 863      DD1ECC16 
 863      C5D40B
 864 0315 7E860D21 		.ascii	"~\206\015!\034\371\356v7\002_\221\250h\270&\260p\025"
 864      1CF9EE76 
 864      37025F91 
 864      A868B826 
 864      B07015
ARM GAS  C:\Users\AMANRA~1\AppData\Local\Temp\cclHfkGS.s 			page 69


 865 0328 CB37FDB3 		.ascii	"\3137\375\263\343\006\354K\303\022\005# Sq\006\277@"
 865      E306EC4B 
 865      C3120523 
 865      20537106 
 865      BF40
 866 033a 6E3094B9 		.ascii	"n0\224\271\202\236Z\223\246\362@1\257u+=\212\024f\003"
 866      829E5A93 
 866      A6F24031 
 866      AF752B3D 
 866      8A146603 
 867 034e 0964A360 		.ascii	"\011d\243`A\026)\034\021m\3252\004\216\\\250\227\370"
 867      4116291C 
 867      116DD532 
 867      048E5CA8 
 867      97F8
 868 0360 7D107C1E 		.ascii	"}\020|\036^*h\013\223.\012\306\302\244\273\016\026j"
 868      5E2A680B 
 868      932E0AC6 
 868      C2A4BB0E 
 868      166A
 869 0372 56154C20 		.ascii	"V\025L \377Q\371\207!b/\273\227\260Ux\215\222\336\305"
 869      FF51F987 
 869      21622FBB 
 869      97B05578 
 869      8D92DEC5 
 870 0386 61312CD3 		.ascii	"a1,\323\373\257(\363q\352j\234\346\033\201\246\323\275"
 870      FBAF28F3 
 870      71EA6A9C 
 870      E61B81A6 
 870      D3BD
 871 0398 FE5131DF 		.ascii	"\376Q1\337(H$\036\312\356\025qu\226\321D\336\015\215"
 871      2848241E 
 871      CAEE1571 
 871      7596D144 
 871      DE0D8D
 872 03ab BC13C377 		.ascii	"\274\023\303wf\271J\336\304\203\252\330C\223f\352yB"
 872      66B94ADE 
 872      C483AAD8 
 872      439366EA 
 872      7942
 873 03bd 50A8E665 		.ascii	"P\250\346ep\023\207\206\320\206?=\256\247\374A3\001"
 873      70138786 
 873      D0863F3D 
 873      AEA7FC41 
 873      3301
 874 03cf 310A29DC 		.ascii	"1\012)\334(\210\355\030\270%\022\351\325D\350\320p'"
 874      2888ED18 
 874      B82512E9 
 874      D544E8D0 
 874      7027
 875 03e1 6F40D21C 		.ascii	"o@\322\034\034Ti\222\244a\320\012\375\0062\202\247Z"
 875      1C546992 
 875      A461D00A 
 875      FD063282 
 875      A75A
 876 03f3 15338F1A 		.ascii	"\0253\217\032]Z\261g\200\356{\231rM-C=M\311\304\214"
 876      5D5AB167 
ARM GAS  C:\Users\AMANRA~1\AppData\Local\Temp\cclHfkGS.s 			page 70


 876      80EE7B99 
 876      724D2D43 
 876      3D4DC9C4 
 877 0408 268A34E5 		.ascii	"&\2124\345\013\372\236\014\235\010el\036<\276\305n\020"
 877      0BFA9E0C 
 877      9D08656C 
 877      1E3CBEC5 
 877      6E10
 878 041a 9A587E0E 		.ascii	"\232X~\016V\227\342)g\360;\352\204P4\327\264\002\361"
 878      5697E229 
 878      67F03BEA 
 878      845034D7 
 878      B402F1
 879 042d A98708B8 		.ascii	"\251\207\010\270\015\261^\376\2348`\222\266,\305\011"
 879      0DB15EFE 
 879      9C386092 
 879      B62CC509 
 880 043d 0B34C6AA 		.ascii	"\0134\306\252'\314\030*\334l\266\242j\237\207\031\001"
 880      27CC182A 
 880      DC6CB6A2 
 880      6A9F8719 
 880      01
 881 044e DEA8AA36 		.ascii	"\336\250\2526\230\246O\35036K4\231H+s\352\011\362\255"
 881      98A64FE8 
 881      33364B34 
 881      99482B73 
 881      EA09F2AD 
 882 0462 152DB490 		.ascii	"\025-\264\220\020\215bS\323\347!\370\\K\270\367\346"
 882      108D6253 
 882      D3E721F8 
 882      5C4BB8F7 
 882      E6
 883 0473 8317AFFA 		.ascii	"\203\027\257\372y\320va\240\352f\207\371\361\232\233"
 883      79D07661 
 883      A0EA6687 
 883      F9F19A9B 
 884 0483 176BEE8E 		.ascii	"\027k\356\216Xs\241;mA\335i\023\365\007G3D\015A\331"
 884      5873A13B 
 884      6D41DD69 
 884      13F50747 
 884      33440D41 
 885 0498 4461D1EB 		.ascii	"Da\321\353a({\241\224@\302]\244\014{\365\3625l\001\241"
 885      61287BA1 
 885      9440C25D 
 885      A40C7BF5 
 885      F2356C01 
 886 04ad 9EE9ABE6 		.ascii	"\236\351\253\346\032-$\367\002\334\023\310\031\226H"
 886      1A2D24F7 
 886      02DC13C8 
 886      199648
 887 04bc 4C4E96F1 		.ascii	"LN\226\361\317\232\231\2653\313\356\334\364\326\246"
 887      CF9A99B5 
 887      33CBEEDC 
 887      F4D6A6
 888 04cb 8DB2DD29 		.ascii	"\215\262\335);\\\262\323a\305\267\256LG\372\216]\316"
 888      3B5CB2D3 
 888      61C5B7AE 
ARM GAS  C:\Users\AMANRA~1\AppData\Local\Temp\cclHfkGS.s 			page 71


 888      4C47FA8E 
 888      5DCE
 889 04dd 642BD3B9 		.ascii	"d+\323\271r\270\315\231\361\277\376Y\331\326\335\037"
 889      72B8CD99 
 889      F1BFFE59 
 889      D9D6DD1F 
 890 04ed ED4A478B 		.ascii	"\355JG\213s\25739\223\031w\356p\246\277\357\310z#l\200"
 890      73AF3339 
 890      931977EE 
 890      70A6BFEF 
 890      C87A236C 
 891 0502 D56EB3D9 		.ascii	"\325n\263\331\263\345\034\273\303\345\224\337\335\226"
 891      B3E51CBB 
 891      C3E594DF 
 891      DD96
 892 0510 9A92BA07 		.ascii	"\232\222\272\007]\254vG\372\366\217\337\264ax\312Ja"
 892      5DAC7647 
 892      FAF68FDF 
 892      B46178CA 
 892      4A61
 893 0522 E97B5C14 		.ascii	"\351{\\\024$\247\244\246mI\223S0J\336\362\270\274\315"
 893      24A7A4A6 
 893      6D499353 
 893      304ADEF2 
 893      B8BCCD
 894 0535 99E5DC9E 		.ascii	"\231\345\334\236a\265b\216\325\251i\333\342\010F\216"
 894      61B5628E 
 894      D5A969DB 
 894      E208468E 
 895 0545 23EBD538 		.ascii	"#\353\3258\313F\246s0\243-\335fw\354e\334\265;'\351"
 895      CB46A673 
 895      30A32DDD 
 895      6677EC65 
 895      DCB53B27 
 896 055a 197AB166 		.ascii	"\031z\261f\356\302L\377\002\004\371\022\354"
 896      EEC24CFF 
 896      0204F912 
 896      EC
 897              		.text
 898              		.section	.gnu.lto_chThdSetPriority.3049c3b6,"",%progbits
 899 0000 789C8554 		.ascii	"x\234\205T\357OSW\030>\357=\367\266\205V\343g\307\262"
 899      EF4F5357 
 899      183EEF3D 
 899      F7B68556 
 899      E367C7B2 
 900 0014 92AD8ADB 		.ascii	"\222\255\212\333\302\225\261\270\354\313\262\245\311"
 900      C295B1B8 
 900      ECCBB2A5 
 900      C9
 901 0021 123F902C 		.ascii	"\022?\220,\362\007\030)\215t\261\324\364v\233~\342\332"
 901      F2071829 
 901      8D74B1D4 
 901      F4769B7E 
 901      E2DA
 902 0033 A2D8E116 		.ascii	"\242\330\341\026\366\203\216\224\012\235\323\354G\206"
 902      F6838E94 
 902      0A9DD3EC 
ARM GAS  C:\Users\AMANRA~1\AppData\Local\Temp\cclHfkGS.s 			page 72


 902      4786
 903 0041 6EB6D351 		.ascii	"n\266\323Q\024:\252P\334\300\311p*0u\022G\330\010\033"
 903      143AAA50 
 903      DCC0C970 
 903      2A307512 
 903      47D8081B 
 904 0055 FBB0B019 		.ascii	"\373\260\260\031\273\275\357\351\025\2612\270!\245\347"
 904      BBBDEFE9 
 904      15B132B8 
 904      21A5E7
 905 0064 BEEFF3BC 		.ascii	"\276\357\363\274\317y\316sjb\214\025\231\030\223\200"
 905      CF79CE73 
 905      6A628C15 
 905      99189380 
 906 0074 31277E07 		.ascii	"1'~\007\023\003\251e\204\261}\026I\222\263\353\231^"
 906      1303A965 
 906      84B17D16 
 906      4992B3EB 
 906      995E
 907 0086 CCB3954C 		.ascii	"\314\263\225L\267qIn{\022W\312\302\343\270\222A\311"
 907      B771496E 
 907      7B1257CA 
 907      C2E3B892 
 907      41C9
 908 0098 372900F4 		.ascii	"7)\000\364E\267\000k\220\270\254@\003\034\342\357s\270"
 908      45B7006B 
 908      90B8AC40 
 908      031CE2EF 
 908      73B8
 909 00aa D4F8458C 		.ascii	"\324\370E\2147\363\030g \343r~8:\265\226\226\000v\\"
 909      37F31867 
 909      20E3727E 
 909      383AB596 
 909      9600765C 
 910 00be CECE0D24 		.ascii	"\316\316\015$m\233>\326\365\240\236\376`r\303;\231\003"
 910      6D9B3ED6 
 910      F5A09EFE 
 910      6072C33B 
 910      9903
 911 00d0 6FB6408C 		.ascii	"o\266@\214K,\202\375I(\201\004\224\220\230\257`\023"
 911      4B2C82FD 
 911      49288104 
 911      949098AF 
 911      6013
 912 00e2 76A7DB83 		.ascii	"v\247\333\2037\212\370S\300\010\031>\220T6\036\023\310"
 912      378AF853 
 912      C008193E 
 912      9054361E 
 912      13C8
 913 00f4 B1A35C7F 		.ascii	"\261\243\\\177\002Qp\012\370R \021\301i\330H\375\231"
 913      0251700A 
 913      F8522011 
 913      C169D848 
 913      FD99
 914 0106 784B96F3 		.ascii	"xK\226\363J\201M\335\275\331fv|$\260\271(oO\352z\370"
 914      4A814DDD 
 914      BDD96676 
ARM GAS  C:\Users\AMANRA~1\AppData\Local\Temp\cclHfkGS.s 			page 73


 914      7C24B0B9 
 914      286F4FEA 
 915 011c 45C27FFD 		.ascii	"E\302\177\375 \236\036l\277\365e\256u\215I\206np\304"
 915      209E1E6C 
 915      BFF565AE 
 915      758D4986 
 915      6E70C4
 916 012f 392369A8 		.ascii	"9#i\250(\005&X\2545\352\370\244s1\316E!\302a\011\216"
 916      28052658 
 916      AC35EAF8 
 916      A47331CE 
 916      4521C261 
 917 0145 410FF69E 		.ascii	"A\017\366\236AC\013\372'\006_P\030\025\"\250\023k\307"
 917      41430BFA 
 917      27065F50 
 917      181522A8 
 917      136BC7
 918 0158 2E8CF659 		.ascii	".\214\366Yy\255\300~z\374\3036\233!q\372pYG\250\371"
 918      79ADC07E 
 918      7AFCC336 
 918      9B2171FA 
 918      705947A8 
 919 016d 2D3D1E5C 		.ascii	"-=\036\\\207\023\240w\005\221y\342\271\016l\353\003"
 919      8713A077 
 919      059179E2 
 919      B90E6CEB 
 919      03
 920 017e 0783B344 		.ascii	"\007\203\263D\316\037\020\223F1\337\320\351\342\007"
 920      CE1F1093 
 920      4631DFD0 
 920      E9E207
 921 018d 9E35D0B6 		.ascii	"\2365\320\266N\214*i=\367o\023\036BIt*\322\325\363\262"
 921      4E8C2A69 
 921      3DF76F13 
 921      1E424974 
 921      2AD2D5F3 
 922 01a2 0DD03D59 		.ascii	"\015\320=Y\302\017\0055b\213\011\204\223\354 \356\036"
 922      C20F0535 
 922      628B0984 
 922      93EC20EE 
 922      1E
 923 01b3 0F5A4FB3 		.ascii	"\017ZO\2630\252\306o\2414\373\005\244e4\267\257\254"
 923      30AAC66F 
 923      A134FB05 
 923      A46534B7 
 923      AFAC
 924 01c5 19FAC181 		.ascii	"\031\372\301\201\240\246\031\375\254L\201\340`\207\014"
 924      A0A619FD 
 924      AC4C81E0 
 924      60870C
 925 01d4 D67E83E0 		.ascii	"\326~\203\340\255\023\221\324\215Bw\337\373k\003\030"
 925      AD1391D4 
 925      8D4277DF 
 925      FB6B0318 
 926 01e4 EECA0F39 		.ascii	"\356\312\01799\375\014\252<G5\245\2606u\270\014\323"
 926      39FD0CAA 
 926      3C4735A5 
ARM GAS  C:\Users\AMANRA~1\AppData\Local\Temp\cclHfkGS.s 			page 74


 926      B03675B8 
 926      0CD3
 927 01f6 D64F6E9C 		.ascii	"\326On\234\177\330\215\0014a\220\334\030$7\200M\323"
 927      7FD88D01 
 927      346190DC 
 927      18243780 
 927      4DD3
 928 0208 D8239D27 		.ascii	"\330#\235'\027\212K\027\240So\263\307\2708\267\256\251"
 928      178A4B17 
 928      A0536FB3 
 928      C7B838B7 
 928      AEA9
 929 021a 1EDD827E 		.ascii	"\036\335\202~0\310B\2510\374\217\331\261\011\011\337"
 929      30C842A9 
 929      30FC8FD9 
 929      B10909DF 
 930 022a C010C842 		.ascii	"\300\020\310B8\203\013\"\342\237\364fn\333J\357\030"
 930      38830B22 
 930      E29FF466 
 930      6EDB4AEF 
 930      18
 931 023b 6833F5FE 		.ascii	"h3\365\376y\374\344e\253@\177Kh\370\016d4-h\027&0\366"
 931      79FCE465 
 931      AB407F4B 
 931      68F80E64 
 931      342D6817 
 932 0252 2B04537F 		.ascii	"+\004S\177\037\371\375\320\243\264\275('\011\221\375"
 932      1FF9FDD0 
 932      A3B4BD28 
 932      270991FD 
 933 0262 FD17CD64 		.ascii	"\375\027\315d\213E\304\241\273{v\302\334pW\267\340\213"
 933      8B45C4A1 
 933      BB7B76C2 
 933      DC7057B7 
 933      E08B
 934 0274 38A68BDE 		.ascii	"8\246\213\336%C\363\357\256\215C\007\336\227\"\030\301"
 934      2543F3EF 
 934      AE8D4307 
 934      DE972218 
 934      C1
 935 0285 FB364C22 		.ascii	"\3736L\"\260pjp\362\216E\355\242\335\243\200b\270\010"
 935      B0706A70 
 935      F28E45ED 
 935      A2DDA380 
 935      62B808
 936 0298 7168E546 		.ascii	"qh\345FN\376\271\022\332/-\026e\370\036\324V\"dp\011"
 936      4EFEB912 
 936      DA2F2D16 
 936      65F81ED4 
 936      56226470 
 937 02ad 54A164E8 		.ascii	"T\241d\350\221\274\014e\251\014Y\3108\323?<`\302\221"
 937      91BC0C65 
 937      A90C59C8 
 937      38D33F3C 
 937      60C291
 938 02c0 FB101DFF 		.ascii	"\373\020\035\377\214\"bE\2710j\014\036k\272z\335\272"
 938      8C226245 
ARM GAS  C:\Users\AMANRA~1\AppData\Local\Temp\cclHfkGS.s 			page 75


 938      B9306A0C 
 938      1E6BBA7A 
 938      DDBA
 939 02d2 C82DC10F 		.ascii	"\310-\301\017b\260D\344cH\216;\216\327\213\213\203y"
 939      62B044E4 
 939      63488E3B 
 939      8ED78B8B 
 939      8379
 940 02e4 427E316D 		.ascii	"B~1m\2467\021\310\317\223\012\006\330Wa\277,\330\305"
 940      A63711C8 
 940      CF930A06 
 940      D85761BF 
 940      2CD8C5
 941 02f7 65FC11D9 		.ascii	"e\374\021\331oC\343x\346Y\203\212\330\351\011c=[\211"
 941      6F43E378 
 941      E659838A 
 941      D8E90963 
 941      3D5B89
 942 030a 11C5EA48 		.ascii	"\021\305\352H\346\234\262X6\031e\231%\267`\031\225D"
 942      E69CB258 
 942      36196599 
 942      25B76019 
 942      9544
 943 031c 67FA1247 		.ascii	"g\372\022G\201\032\0127\372\352j\373\274r_\311UP\363"
 943      811A0A37 
 943      FAEA6AFB 
 943      BC725FC9 
 943      5550F3
 944 032f E4615490 		.ascii	"\344aT\220\277\035\202{(\361\371\262\3345\253q_\273"
 944      BF1D827B 
 944      28F1F9B2 
 944      DC35AB71 
 944      5FBB
 945 0341 EFE1789E 		.ascii	"\357\341x\236{\026B\361\236\221\012b+\210\206-B\243"
 945      7B1642F1 
 945      9E910A62 
 945      2B88862D 
 945      42A3
 946 0353 61021A90 		.ascii	"a\002\032\220u\215\270\226\3643\260\364\034\361\250"
 946      758DB896 
 946      F433B0F4 
 946      1CF1A8
 947 0362 61D2B865 		.ascii	"a\322\270e]\221\324c\371_\001#\367\271\316\237{\255"
 947      5D91D463 
 947      F95F0123 
 947      F7B9CE9F 
 947      7BAD
 948 0374 F7223D29 		.ascii	"\367\"=)\"\375\223\210ta~\257\347\363{s\376\355\361"
 948      22FD9388 
 948      74617EAF 
 948      E7F37B73 
 948      FEEDF1
 949 0387 9D620463 		.ascii	"\235b\004cs\270l\276\226\2503\262C\356\036\304ah\001"
 949      73B86CBE 
 949      96A833B2 
 949      43EE1EC4 
 949      616801
ARM GAS  C:\Users\AMANRA~1\AppData\Local\Temp\cclHfkGS.s 			page 76


 950 039a C2CACACB 		.ascii	"\302\312\312\313U\374s\325yj<>\255\342\371\212\315\252"
 950      55FC73D5 
 950      796A3C3E 
 950      ADE2F98A 
 950      CDAA
 951 03ac 4F53FD01 		.ascii	"OS\375\001U\363\273\360m\240\316\357\336Q\253\225\273"
 951      55F3BBF0 
 951      6DA0CEEF 
 951      DE51AB95 
 951      BB
 952 03bd 98B9DEFD 		.ascii	"\230\271\336\375\306n\277\307g\366\355\252\245\377\377"
 952      C66EBFC7 
 952      67F6EDAA 
 952      A5FFFF
 953 03cc 0BF4D4BB 		.ascii	"\013\364\324\273v\275V\353\306\212\266W+\257c\346\232"
 953      76BD56EB 
 953      C68AB657 
 953      2BAF63E6 
 953      9A
 954 03dd 1D9AFB15 		.ascii	"\035\232\373\025\277g\313\262\000\227\317\353\365\325"
 954      BF67CBB2 
 954      0097CFEB 
 954      F5D5
 955 03eb ABBB7DFE 		.ascii	"\253\273}\376\200\246\276\264\255\312Y\265\007[\\>\277"
 955      80A6BEB4 
 955      ADCA59B5 
 955      075B5C3E 
 955      BF
 956 03fc 7BFBEBCF 		.ascii	"{\373\353\317y\021\356\\\011\346\336\023 \220\352\254"
 956      7911EE5C 
 956      09E6DE13 
 956      2090EAAC 
 957 040c AADE5AAD 		.ascii	"\252\336Z\255:\021\245n\2757\336\253y\264\355;].\344"
 957      3A11A56E 
 957      BD37DEAB 
 957      79B4ED3B 
 957      5D2EE4
 958 041f 585755BD 		.ascii	"XWU\275\315N2P\370\323v\307f&\371\231\331\353\366\372"
 958      CD4E3250 
 958      F8D376C7 
 958      6626F999 
 958      D9EBF6FA 
 959 0433 FC7BD97F 		.ascii	"\374{\331\177\024\371H5"
 959      14F94835 
 960              		.text
 961              		.section	.gnu.lto_chThdTerminate.3049c3b6,"",%progbits
 962 0000 789C8D53 		.ascii	"x\234\215S[HTQ\024=\373\236;\343\324X\370\237\301\010"
 962      5B485451 
 962      143DFB9E 
 962      3BE3D458 
 962      F89FC108 
 963 0014 0D2AD55C 		.ascii	"\015*\325\\\355\243\350'\210\201\300\017!\364\243O\321"
 963      EDA3E827 
 963      8881C00F 
 963      21F4A34F 
 963      D1
 964 0025 71D081C6 		.ascii	"q\320\201\306\221{\247\320/\257\2435\226\012Q9\211\016"
ARM GAS  C:\Users\AMANRA~1\AppData\Local\Temp\cclHfkGS.s 			page 77


 964      917BA7D0 
 964      2FAFA335 
 964      960A5139 
 964      890E
 965 0037 8E25527D 		.ascii	"\216%R}d\245\275|O\343\243\322|f F\017\025\2052\304"
 965      64A5BD7C 
 965      4FE3A3D2 
 965      7C662046 
 965      0F158532 
 966 004c 5E60A463 		.ascii	"^`\244c\373\2341\323\321\244\303}\234s\366^{\257\275"
 966      FB9C31D3 
 966      D1A4C37D 
 966      9C73F65E 
 966      7BAFBD
 967 005f CE3E5A42 		.ascii	"\316>ZB\210A$\344\007\376\367\340\013\224\200pi\220"
 967      884124E4 
 967      07FEF7E0 
 967      0B948070 
 967      6990
 968 0071 90429D00 		.ascii	"\220B\235\000\300&\252\016H\201\000\005PF\257R\010\270"
 968      C026AA0E 
 968      48810005 
 968      5046AF52 
 968      08B8
 969 0083 679B85F8 		.ascii	"g\233\205\370\233*\016\377\265\205\330IuX\245^J\210"
 969      9B2A0EFF 
 969      B585D849 
 969      7558A55E 
 969      4A88
 970 0095 075F36A0 		.ascii	"\007_6\240\011\342\321m\244\370\236\227\226\242\005"
 970      09E2D16D 
 970      A4F89E97 
 970      96A205
 971 00a4 40C4E597 		.ascii	"@\304\345\227\201\252\351\335l)\200\001\227\3353K\243"
 971      81AAE9DD 
 971      6C298001 
 971      97DD334B 
 971      A3
 972 00b5 7ABA1F08 		.ascii	"z\272\037\010\316\373\213\373\307\265\261\365\252\352"
 972      CEFB8BFB 
 972      C7B5B1F5 
 972      AAEA
 973 00c3 52FD4B75 		.ascii	"R\375KuT\335\347\245\024\036\001\305\200\360\020\242"
 973      54DDE7A5 
 973      141E01C5 
 973      80F010A2 
 974 00d3 E1014413 		.ascii	"\341\001D\023\334\"\360\030b\231\377\324\375`\305.\255"
 974      DC22F018 
 974      6299FFD4 
 974      FD60C52E 
 974      AD
 975 00e4 184A084F 		.ascii	"\030J\010O@\013k\233\305\234\325\254\217y\243\301Ca"
 975      400B6B9B 
 975      C59CD5AC 
 975      8F79A3C1 
 975      4361
 976 00f6 3D009AD1 		.ascii	"=\000\232\321\267\005\264$\314\377[\3171\015a\006\017"
ARM GAS  C:\Users\AMANRA~1\AppData\Local\Temp\cclHfkGS.s 			page 78


 976      B705B424 
 976      CCFF5BCF 
 976      310D6106 
 976      0F
 977 0107 1598ADBE 		.ascii	"\025\230\255\276o\264SOOq\354\355\206\353\225\221\306"
 977      6FB4534F 
 977      4F71ECED 
 977      86EB9591 
 977      C6
 978 0118 3A4E6EA5 		.ascii	":Nn\245:\256\246\250\264\\\255uEy\251\010m\033)\262"
 978      3AAEA6A8 
 978      B45CAD75 
 978      4579A908 
 978      6D1B29B2 
 979 012c 111678BE 		.ascii	"\021\026x\276\006+i\007#\201V\026\234n \323\201d:\221"
 979      062B6907 
 979      23815616 
 979      9C6E20D3 
 979      81643A91 
 980 0140 0CFB0062 		.ascii	"\014\373\000b\357\216j\374jp\305\215\252F\371\246/\277"
 980      EF8E6AFC 
 980      6A70C58D 
 980      AA46F9A6 
 980      2FBF
 981 0152 ED3C81B2 		.ascii	"\355<\201\262{\251F`\037\021x\365\244\004k\306#Q\375"
 981      7BA94660 
 981      1F1178F5 
 981      A4046BC6 
 981      2351FD
 982 0165 E40272C5 		.ascii	"\344\002r\305Y\221\237\314\202\260\005\323\352\355\231"
 982      59919FCC 
 982      82B005D3 
 982      EAED99
 983 0174 821F8C08 		.ascii	"\202\037\214\010r\177T\333Ev,\"\030\340)\332\346\300"
 983      727F54DB 
 983      45762C22 
 983      18E029DA 
 983      E6C0
 984 0186 35D55AD1 		.ascii	"5\325Z\321\362>\\\323+\337caUSq\223~3\207P\277\000\263"
 984      F23E5CD3 
 984      2BDF6361 
 984      55537193 
 984      7E338750 
 985 019d 69C26DBF 		.ascii	"i\302m\277\252\343\260\005\374L\203\256\315\032tc\351"
 985      AAE3B005 
 985      FC4C83AE 
 985      CD1A7463 
 985      E9
 986 01ae 3D4C831E 		.ascii	"=L\203\036\246\001\220\011\226\366\206\257qqg\314\034"
 986      A6019009 
 986      96F686AF 
 986      717167CC 
 986      1C
 987 01bf F8D44A83 		.ascii	"\370\324J\203\227\362\323\2723\335\252\352D\001i\367"
 987      97F2D3BA 
 987      33DDAAEA 
 987      440169F7 
ARM GAS  C:\Users\AMANRA~1\AppData\Local\Temp\cclHfkGS.s 			page 79


 988 01cf 420C9779 		.ascii	"B\014\227y\341\363\330\033\001w\340\031\210\2348\201"
 988      E1F3D81B 
 988      0177E019 
 988      889C3881 
 989 01df E7BCD16E 		.ascii	"\347\274\321nut\315D\306\314\257\242#\230\357\327\206"
 989      7574CD44 
 989      C6CCAFA2 
 989      2398EFD7 
 989      86
 990 01f0 C6D77A8E 		.ascii	"\306\327z\216~\301\320\320\007\"\212\3462p\021\010\371"
 990      7EC1D0D0 
 990      07228AE6 
 990      32701108 
 990      F9
 991 0201 04AE969F 		.ascii	"\004\256\226\237S\301\262\275\254\274*\312(x\316\005"
 991      53C1B2BD 
 991      ACBC2ACA 
 991      2878CE05 
 992 0211 8622982C 		.ascii	"\206\"\230,\241\006j\013\014\364jk\241\246\020+\302"
 992      A1066A0B 
 992      0CF46A6B 
 992      A1A6102B 
 992      C2
 993 0222 A0BA2A94 		.ascii	"\240\272*\224\253\237\345D\333\230{\374\235^:\350\245"
 993      AB9FE544 
 993      DB987BFC 
 993      9D5E3AE8 
 993      A5
 994 0233 3BE025D4 		.ascii	";\340%\324B\005\277\0050\000\022\306-Z<\017\241\240"
 994      4205BF05 
 994      300012C6 
 994      2D5A3C0F 
 994      A1A0
 995 0245 4228EEDA 		.ascii	"B(\356\332\245\320 \353A\214\200\271\307.r\237\377O"
 995      A5D020EB 
 995      418C80B9 
 995      C72E729F 
 995      FF4F
 996 0257 33F437CD 		.ascii	"3\3647\3150H\030\233w\000\353\263\365\314E\324sd\375"
 996      3048189B 
 996      7700EBB3 
 996      F5CC45D4 
 996      7364FD
 997 026a 8186FA6C 		.ascii	"\201\206\372lU\343\240o\262C\377G\276\021.\337(\227"
 997      55E3A06F 
 997      B243FF47 
 997      BE112EDF 
 997      2897
 998 027c 2F5CAB57 		.ascii	"/\\\253W!\255>,\227Od\361\034\204\314\343\262t\271I"
 998      21AD3E2C 
 998      974F64F1 
 998      1C84CCE3 
 998      B274B949 
 999 0290 64AC792F 		.ascii	"d\254y/\225\240J\330\212\010\2123\231$|,\331\266\014"
 999      95A04AD8 
 999      8A088A33 
 999      99247C2C 
ARM GAS  C:\Users\AMANRA~1\AppData\Local\Temp\cclHfkGS.s 			page 80


 999      D9B60C
 1000 02a3 9B43493C 		.ascii	"\233CI<\232\230 9\024IvJ\212l\301]g\266lM\317TL\026"
 1000      9A982039 
 1000      1449764A 
 1000      8A6CC15D 
 1000      67B66C4D 
 1001 02bb 223873FF 		.ascii	"\"8s\377\351k\313\261\234>\223iE\213\222\257\230\262"
 1001      E96BCBB1 
 1001      9C3E9369 
 1001      458B92AF 
 1001      98B2
 1002 02cd 494446BA 		.ascii	"IDF\272b=)\333\016o\011\2608\354vG\216\224\353\220\235"
 1002      623D29DB 
 1002      0E6F09B0 
 1002      38EC7647 
 1002      8E94EB90 
 1003 02e2 8A743C25 		.ascii	"\212t<%\331\234\234\207.\026\207lM;{\304\216p\363v0"
 1003      D99C9C87 
 1003      2E16876C 
 1003      4D3B7BC4 
 1003      8E70F376 
 1004 02f7 6B9E9381 		.ascii	"k\236\223\201$srjR\252dF\224\224\364'\275]\261)iY\026"
 1004      2473726A 
 1004      52AA6446 
 1004      9494F427 
 1004      BD5DB129 
 1005 030e 0BC6884A 		.ascii	"\013\306\210JNM10\032\271\262\355\200\301\230@\004\231"
 1005      4E4D3130 
 1005      1AB9B2ED 
 1005      80C19840 
 1005      0499
 1006 0320 44D8AD76 		.ascii	"D\330\255v\207\234O~\003\252\036\236\265"
 1006      879C4F7E 
 1006      03AA1E9E 
 1006      B5
 1007              		.text
 1008              		.section	.gnu.lto_chThdSleep.3049c3b6,"",%progbits
 1009 0000 789C8553 		.ascii	"x\234\205S]H\024Q\024>g\356\354Oi?O\275$\264BKj\342"
 1009      5D481451 
 1009      143E67EE 
 1009      EC4F693F 
 1009      4FBD24B4 
 1010 0018 5450D14B 		.ascii	"TP\321K\020B\320\203\020\371\324\223\330\270\350R\353"
 1010      1042D083 
 1010      10F9D493 
 1010      D8B8E852 
 1010      EB
 1011 0029 C6CC16F6 		.ascii	"\306\314\026\366\344M\01333\202r\013\233\262\022K\251"
 1011      E44D0B33 
 1011      3382720B 
 1011      9BB2124B 
 1011      A9
 1012 003a AC2C2DFF 		.ascii	"\254,-\377\266M\3735\323\264\"\250(M2\"\223\212\210"
 1012      B64DFB35 
 1012      D3B422A8 
 1012      284D3222 
 1012      938A88
ARM GAS  C:\Users\AMANRA~1\AppData\Local\Temp\cclHfkGS.s 			page 81


 1013 004d A0B2CEBD 		.ascii	"\240\262\316\275\273F\256f\303\356p\357=\347\273\347"
 1013      BB46AE66 
 1013      C3EE70EF 
 1013      3DE7BBE7 
 1014 005d FBBE73C6 		.ascii	"\373\276s\306\016\000I*@\012\002\314\24752@\345@\017"
 1014      0E00492A 
 1014      400A02CC 
 1014      A7353240 
 1014      E5400F
 1015 0070 C04EA782 		.ascii	"\300N\247\202(\026\334\211P\250`!\356c\207\030v\224"
 1015      2816DC89 
 1015      50A86021 
 1015      EE638718 
 1015      7694
 1016 0082 0C372BC9 		.ascii	"\0147+\311g8=\341\303M)\203\374!g\026\003\010\322_<"
 1016      67383DE1 
 1016      C34D2983 
 1016      FC216716 
 1016      0308D25F 
 1017 0097 78199329 		.ascii	"x\031\223)\255o\327E\213\225Q\004Q\245\355\247\007\225"
 1017      AD6FD745 
 1017      8B955104 
 1017      51A5EDA7 
 1017      0795
 1018 00a9 43B3C556 		.ascii	"C\263\305VA\027mK\303{o\316d\213\021h\375\375\353\333"
 1018      41176D4B 
 1018      C37B6FCE 
 1018      648B1168 
 1018      FDFDEBDB 
 1019 00bd B37316D5 		.ascii	"\263s\026\325p^\304\303?\252\031_h1\206M\310\350Bl\304"
 1019      705EC4C3 
 1019      3FAA195F 
 1019      6831864D 
 1019      C8E8426C 
 1020 00d2 04BC8209 		.ascii	"\004\274\202\011@G\200Wq\221\310\177}i\254b\226]\215"
 1020      40478057 
 1020      7191C87F 
 1020      7D69AC62 
 1020      965D8D
 1021 00e5 14C46B68 		.ascii	"\024\304kh\307?\207\273$\253\261:\221M\201 \303\277"
 1021      C73F87BB 
 1021      24ABB13A 
 1021      914D8120 
 1021      C3BF
 1022 00f7 01D84CB9 		.ascii	"\001\330L\271-h\207\230\374\316\333\253m \002A\246\210"
 1022      2D688798 
 1022      FCCEDBAB 
 1022      6D200241 
 1022      A688
 1023 0109 584D57FF 		.ascii	"XMW\377\3658\266Qb\353\352O\036\211wWKr\275V\322\361"
 1023      F538B651 
 1023      62EBEA4F 
 1023      1E897757 
 1023      4B72BD56 
 1024 011f E2B2727E 		.ascii	"\342\262r~\242h\256\305Tl\233HQ<1\027\217\036'%\355"
 1024      A268AEC5 
 1024      546C9B48 
ARM GAS  C:\Users\AMANRA~1\AppData\Local\Temp\cclHfkGS.s 			page 82


 1024      513C3117 
 1024      8F1E2725 
 1025 0134 E8066C15 		.ascii	"\350\006l\025\227\263\011dBD\346:\221\021/\262\036."
 1025      97B30964 
 1025      4244E63A 
 1025      91112FB2 
 1025      1E2E
 1026 0146 F4DBC27C 		.ascii	"\364\333\302|\354W\011\271:\257\256\372`\371\223\265"
 1026      EC5709B9 
 1026      3AAFAEFA 
 1026      60F993B5 
 1027 0156 76F25F68 		.ascii	"v\362_h\206=\244\224\032\301\303PJ\014iU\034\206aT\246"
 1027      863DA494 
 1027      1AC1C350 
 1027      4A0C6955 
 1027      1C866154 
 1028 016b E077747A 		.ascii	"\340wtz~\030F7\201J\336\361vU4CE\027\336\240\330{,z"
 1028      7E184637 
 1028      814ADEF1 
 1028      76553443 
 1028      4517DEA0 
 1029 0183 3D54D1F2 		.ascii	"=T\321\362*\326\311\203-4\025\021'\325I\256\015/#\327"
 1029      2AD6C983 
 1029      2D341511 
 1029      27D549AE 
 1029      0D2F23D7 
 1030 0197 3A44CC16 		.ascii	":D\314\026\033\273o%Q\343\303By\347d\3457I\360-\241"
 1030      1BBB6F25 
 1030      51E3C342 
 1030      79E764E5 
 1030      3749F02D 
 1031 01ac FC96508E 		.ascii	"\374\226P\216\360B\224=U\325\360mf\342\007\254\342G"
 1031      F042943D 
 1031      55D5F06D 
 1031      66E207AC 
 1031      E247
 1032 01be 5C56E4C6 		.ascii	"\\V\344\306\363C\255\334\251*D\3736&Js?\216<~\256\320"
 1032      F343ADDC 
 1032      A92A44FB 
 1032      36264A73 
 1032      3F8E3C7E 
 1033 01d4 09DE4155 		.ascii	"\011\336AU\022\007\274+\307\2536\324\371&>\361c\024"
 1033      1207BC2B 
 1033      C7AB36D4 
 1033      F9263EF1 
 1033      6314
 1034 01e6 2D3BFCB9 		.ascii	"-;\374\271\276\341I\234D\337\023h\354B\225L+rI\023@"
 1034      BEE1499C 
 1034      44DF1368 
 1034      EC42954C 
 1034      2B724913 
 1035 01fb 2C074A8F 		.ascii	",\007J\217-\027\342(\271<\3245\352`\337P\366\374\\\343"
 1035      2D17E228 
 1035      B93CD435 
 1035      EA60DF50 
 1035      F6FC5CE3 
 1036 020f AB2167D4 		.ascii	"\253!g\324\323\227u\354t1\277\313U1\224\367\247p\264"
ARM GAS  C:\Users\AMANRA~1\AppData\Local\Temp\cclHfkGS.s 			page 83


 1036      D39775EC 
 1036      7431BFCB 
 1036      553194F7 
 1036      A770B4
 1037 0222 1BDD95D4 		.ascii	"\033\335\225\324\224\021\334=\360\275\352\307\323I\016"
 1037      9411DC3D 
 1037      F0BDEAC7 
 1037      D3490E
 1038 0231 B6A5A0C8 		.ascii	"\266\245\240\310\211\272h\237`\304\003\322\337#\214"
 1038      89BA689F 
 1038      60C403D2 
 1038      DF238C
 1039 0240 E8890C65 		.ascii	"\350\211\014es\363\310sG\341O\356\264\230#\310\034\""
 1039      73F3C873 
 1039      47E14FEE 
 1039      B49823C8 
 1039      1C22
 1040 0252 0ED88B85 		.ascii	"\016\330\213\205\"V\331\372\245\313&z\346D'>\304\004"
 1040      2256D9FA 
 1040      A5CB267A 
 1040      E644273E 
 1040      C404
 1041 0264 2A6AB119 		.ascii	"*j\261\031R\221\374\006\272#\242\310\233v\331\343\340"
 1041      5291FC06 
 1041      BA23A2C8 
 1041      9B76D9E3 
 1041      E0
 1042 0275 EE8E5E47 		.ascii	"\356\216^G\244\307\200}\321\036\017V\264,\210\314[\324"
 1042      A4C7807D 
 1042      D11E0F56 
 1042      B42C88CC 
 1042      5BD4
 1043 0287 F5B1AAC1 		.ascii	"\365\261\252\301P\334\270\241}\322\320~ih\254{\217\""
 1043      50DCB8A1 
 1043      7DD2D07E 
 1043      6968AC7B 
 1043      8F22
 1044 0299 EE0DD4EC 		.ascii	"\356\015\324\354\177\226+K\000\214\322\266\254\266Q"
 1044      7F962B4B 
 1044      008CD2B6 
 1044      ACB651
 1045 02a8 15E5A517 		.ascii	"\025\345\245\027{\350s\243\341$PRZ\232F?=\317\273\311"
 1045      7BE873A3 
 1045      E1245052 
 1045      5A9A463F 
 1045      3DCFBBC9 
 1046 02bc EB3797AE 		.ascii	"\3537\227\256Z\272D\363\233\232\021\320LC\247\323@\236"
 1046      5ABA44F3 
 1046      9B9A11D0 
 1046      4C43A7D3 
 1046      409E
 1047 02ce E1C9CE31 		.ascii	"\341\311\3161\323tP\003^\237\347\237\331\336|}\313\266"
 1047      D3745003 
 1047      5E9FE79F 
 1047      D9DE7C7D 
 1047      CBB6
 1048 02e0 1C0F45CC 		.ascii	"\034\017E\314\035fZ\03686e\233\236\365\206w\305\224"
ARM GAS  C:\Users\AMANRA~1\AppData\Local\Temp\cclHfkGS.s 			page 84


 1048      1D665A1E 
 1048      3836659B 
 1048      9EF58677 
 1048      C594
 1049 02f2 00DDEFF3 		.ascii	"\000\335\357\363\371\363\265\255~#`jk6d\244g\024P\212"
 1049      F9F3B5AD 
 1049      7E23606A 
 1049      6B3664A4 
 1049      6714508A 
 1050 0306 EE373C59 		.ascii	"\3567<Y\333W\372\010\236>\035\314S\020\020 -=#s]\246"
 1050      DB57FA08 
 1050      9E3E1DCC 
 1050      53101020 
 1050      2D3D2373 
 1051 031c 964E286D 		.ascii	"\226N(m\335xy\237\3515\263ru\235\356\230\233\221\271"
 1051      DD78799F 
 1051      E935B372 
 1051      759DEE98 
 1051      9B91B9
 1052 032f C125686C 		.ascii	"\301%hl5\274\251.\367\022P\014p\370<>\277\261\003l\001"
 1052      35BCA92E 
 1052      F712500C 
 1052      70F83C3E 
 1052      BFB1036C 
 1053 0344 AFBED94C 		.ascii	"\257\276\331L\375\277\232q\375y\360\033B\357\263\361"
 1053      FDBF9A71 
 1053      FD79F01B 
 1053      42EFB3F1 
 1054              		.text
 1055              		.section	.gnu.lto_chThdSleepUntil.3049c3b6,"",%progbits
 1056 0000 789C9554 		.ascii	"x\234\225T\371O\\U\024\276g\356\233\205a\221?\000\315"
 1056      F94F5C55 
 1056      14BE67EE 
 1056      9B856191 
 1056      3F00CD
 1057 0013 90480021 		.ascii	"\220H\000!<\250\215Kb\214\006cBR\022-\375\235\3000)"
 1057      3CA88D4B 
 1057      628C0663 
 1057      4252122D 
 1057      FD9DC030 
 1058 0028 1319A699 		.ascii	"\023\031\246\2317\022\372\023\257,\302\210\330F\312"
 1058      3712FA13 
 1058      AF2CC288 
 1058      D846CA
 1059 0037 121C166B 		.ascii	"\022\034\026k\2216@\253mQ\201B\247\014\226\012\226\265"
 1059      913640AB 
 1059      6D518142 
 1059      A70C960A 
 1059      96B5
 1060 0049 2D086DD9 		.ascii	"-\010m\331,\244HI]R\254\013z\316{\203\3020R}\231yy\367"
 1060      2CA44849 
 1060      5D52AC0B 
 1060      7ACE7B83 
 1060      C230527D 
 1061 0061 9EF39D7B 		.ascii	"\236\363\235{\276\357\234su\214\261J\035cZ\015c{\361"
 1061      BEEF9C73 
 1061      758CB14A 
ARM GAS  C:\Users\AMANRA~1\AppData\Local\Temp\cclHfkGS.s 			page 85


 1061      1D635A0D 
 1061      637BF1
 1062 0074 1BB40C34 		.ascii	"\033\264\0144\307\206\031;b\320h\370h\004\223\215\202"
 1062      C786193B 
 1062      62D068F8 
 1062      6804938D 
 1062      82
 1063 0085 2789C921 		.ascii	"'\211\311!\034\004u[\000\240\017\331\000\254@\303\005"
 1063      1C04755B 
 1063      00A00FD9 
 1063      00AC40C3 
 1063      05
 1064 0096 2880F7F8 		.ascii	"(\200\367\370q\016}\245K\235\232\330\026\031\037O\315"
 1064      710E7DA5 
 1064      4B9D9AD8 
 1064      16191F4F 
 1064      CD
 1065 00a7 C633F3F2 		.ascii	"\3063\363\362\250\314\335\234\261j\374\323\003\347!"
 1065      A8CCDD9C 
 1065      B16AFCD3 
 1065      03E721
 1066 00b6 16DDC68A 		.ascii	"\026\335\306\212?u\363r\264\000\010\270\374\341Z\335"
 1066      3F75F372 
 1066      B40008B8 
 1066      FCE15ADD 
 1067 00c6 62182D35 		.ascii	"b\030-5`\302\245\313\363n\277\221\307\001\303\357\337"
 1067      60C2A5CB 
 1067      F36EBF91 
 1067      C701C3EF 
 1067      DF
 1068 00d7 1E2EB73E 		.ascii	"\036.\267>\021\335,\313\205\262\247\377$\227\237vs\016"
 1068      11DD2CCB 
 1068      85B2A7FF 
 1068      24979F76 
 1068      730E
 1069 00e9 9F03C780 		.ascii	"\237\003\307\200\320\001\021p\001\"\030n1\370\002\242"
 1069      D0011170 
 1069      0122186E 
 1069      31F802A2 
 1070 00f9 C9FF7649 		.ascii	"\311\377vIW\277\201'*\330\373\353G'\203\243>V\260W\332"
 1070      57BF8127 
 1070      2AD8FBEB 
 1070      472783A3 
 1070      3E56B057 
 1071 010e F8E90BB2 		.ascii	"\370\351\013\262\354z\305\215\311~\271\035O\017\272"
 1071      EC7AC58D 
 1071      C97EB91D 
 1071      4F0FBA
 1072 011d 2F7CB651 		.ascii	"/|\266Q\025\252\023\240\023\242\324|\241\013t\360\267"
 1072      15AA13A0 
 1072      13A2D47C 
 1072      A10B74F0 
 1072      B7
 1073 012e A15821B5 		.ascii	"\241X!\265\321F\207\241\241\232\303\026\020\203n\364"
 1073      D14687A1 
 1073      A19AC316 
 1073      10836EF4 
ARM GAS  C:\Users\AMANRA~1\AppData\Local\Temp\cclHfkGS.s 			page 86


 1074 013e BD083AE6 		.ascii	"\275\010:\346\347?4\3602jy\221\3745dk\036\034\277\024"
 1074      E73F34F0 
 1074      326A7991 
 1074      FC35646B 
 1074      1E1CBF14 
 1075 0152 CC3315EC 		.ascii	"\3143\025\354\3513\037\325\206\370\362\233\254\217i"
 1075      E9331FD5 
 1075      86F8F29B 
 1075      AC8F69
 1076 0161 282AAF90 		.ascii	"(*\257\220\233\012\303\335\\\013\275\273d\250\006^k"
 1076      9B0AC3DD 
 1076      5C0BBDBB 
 1076      64A8065E 
 1076      6B
 1077 0172 40212E61 		.ascii	"@!.a\252\320C\301\371\266d<\230\314eL\206^\200\330\263"
 1077      AAD043C1 
 1077      F9B6643C 
 1077      98CC654C 
 1077      865E80D8 
 1078 0187 E35A8FBC 		.ascii	"\343Z\217\274\361g)\026\345\251Voe\305\314\353A(=J&"
 1078      F1672916 
 1078      E5A9566F 
 1078      65C5CCEB 
 1078      41283D4A 
 1079 019c A0783A2D 		.ascii	"\240x:-\275\030+C\316XS\331\303\\\230+~\025y\330\022"
 1079      BD182B43 
 1079      CE5853D9 
 1079      C35C982B 
 1079      7E1579D8 
 1080 01b1 680264FA 		.ascii	"h\002d\372\341\356\231B\037D!\250\364\236\334#PU\265"
 1080      E1EE9942 
 1080      1F4421A8 
 1080      F49EDC23 
 1080      5055B5
 1081 01c4 60022FDA 		.ascii	"`\002/\332\276\207\302\205\226\352\256Y\177M+\217c\255"
 1081      BE87C285 
 1081      96EAAE59 
 1081      7F4D2B8F 
 1081      63AD
 1082 01d6 554D851D 		.ascii	"UM\205\035\372-\357A\375\372\311\246\365\267M\324\307"
 1082      FA2DEF41 
 1082      FDFAC9A6 
 1082      F5B74DD4 
 1082      C7
 1083 01e7 6007F591 		.ascii	"`\007\365\221\006_\355\324\340\012R\037 \015\006H\003"
 1083      065FEDD4 
 1083      E00A521F 
 1083      200D0648 
 1083      03
 1084 01f8 6077E9D8 		.ascii	"`w\351\330\023\215\347~1F>\204F\271\326\344\346z\002"
 1084      138DE77E 
 1084      31463E84 
 1084      46B9D6E4 
 1084      E67A02
 1085 020b B42F76CB 		.ascii	"\264/v\313\006\001\033\037\256B\244\"\363\203\325\353"
 1085      06011B1F 
 1085      AE42A422 
ARM GAS  C:\Users\AMANRA~1\AppData\Local\Temp\cclHfkGS.s 			page 87


 1085      F383D5EB 
 1086 021b 331ADC81 		.ascii	"3\032\334\201\257AP\022g0\250\364\351\251^\357\335\220"
 1086      AF415012 
 1086      6730A8F4 
 1086      E9A95EEF 
 1086      DD90
 1087 022d C8473EB4 		.ascii	"\310G>\264\201|\177<s\356F\260\202\036\"4|\003\002\212"
 1087      817C7F3C 
 1087      73EE46B0 
 1087      821E2234 
 1087      7C03028A 
 1088 0241 56685244 		.ascii	"VhRD`l\005\372\272\036\271\\\253'\270_\3565\325q\363"
 1088      606C05FA 
 1088      BA1EB95C 
 1088      AB27B85F 
 1088      EE35D571 
 1089 0256 9B8DB4A3 		.ascii	"\233\215\264\243i\326GL\215{\031\\#\243\336\337\370"
 1089      69D6474C 
 1089      8D7B195C 
 1089      23A3DEDF 
 1089      F8
 1090 0267 D3ADF827 		.ascii	"\323\255\370'\031\014\223\315\260\215\360\010\362\034"
 1090      190C93CD 
 1090      B08DF008 
 1090      F21C
 1091 0275 25C2F8AA 		.ascii	"%\302\370\252\343Z4U\227\364\215\350\251\002AJ\277\015"
 1091      E35A3455 
 1091      97F48DE8 
 1091      A902414A 
 1091      BF0D
 1092 0287 B7AF3F30 		.ascii	"\267\257?0\252K\212D\214\232\352\227\203\232\240\001"
 1092      AA4B8A44 
 1092      8C9AEA97 
 1092      839AA001 
 1093 0297 DCDC08E3 		.ascii	"\334\334\010\343X\3021bK\265[\032\032\015\023\333\345"
 1093      58C23162 
 1093      4BB55B1A 
 1093      1A0D13DB 
 1093      E5
 1094 02a8 E223F25C 		.ascii	"\342#\362\\\313\311\360\366\017\320#\030&\240\011\252"
 1094      CBC9F0F6 
 1094      0FD02318 
 1094      26A009AA 
 1095 02b8 B04BE828 		.ascii	"\260K\350(\006\327A$\252s\345C\035\371D\004a\336\302"
 1095      06D74124 
 1095      AA73E543 
 1095      1DF94404 
 1095      61DEC2
 1096 02cb F6F230DE 		.ascii	"\366\3620\336\250\216\306\300zOU\250\257i6Z\371'E\362"
 1096      A88EC6C0 
 1096      7A4F55A8 
 1096      AF69365A 
 1096      F92745F2 
 1097 02df 5559A0F1 		.ascii	"UY\240\361\275\021\240en\222Z\030\255\351\354\315y\356"
 1097      BD11A065 
 1097      6E925A18 
 1097      ADE9ECCD 
ARM GAS  C:\Users\AMANRA~1\AppData\Local\Temp\cclHfkGS.s 			page 88


 1097      79EE
 1098 02f1 8B76FFD8 		.ascii	"\213v\377\330Qo\020oV\243\255t\325\2342\006\2126\031"
 1098      516F106F 
 1098      56A3AD74 
 1098      D59C3206 
 1098      8A3619
 1099 0304 20DA1444 		.ascii	" \332\024D\325a;\254@Q\355;\2153ce^\335N\371/srS\016"
 1099      D5613BAC 
 1099      4051ED3B 
 1099      8D336365 
 1099      5EDD4EF9 
 1100 031d 56CB10B4 		.ascii	"V\313\020\264M\315oQ\315i\2429Mj\012\030\0165UJ\253"
 1100      4DCD6F51 
 1100      CD69A239 
 1100      4D6A0A18 
 1100      0E35554A 
 1101 0332 5C0B9BF9 		.ascii	"\\\013\233\371\252\253\251m+\272@\260\335\212g\274K"
 1101      AAABA96D 
 1101      2BBA40B0 
 1101      DD8A67BC 
 1101      4B
 1102 0343 6D5EA02D 		.ascii	"m^\240-\014\260\265\034\002\366\343\214/W\027\3469\032"
 1102      0CB0B51C 
 1102      02F6E38C 
 1102      2F5717E6 
 1102      391A
 1103 0355 F1CFA855 		.ascii	"\361\317\250U\364\016\256\351\371\204J\272\255cv\321"
 1103      F40EAEE9 
 1103      F9844ABA 
 1103      AD6376D1 
 1104 0365 E023FD6B 		.ascii	"\340#\375k+\257\223=\305&\202\337\012\300\3716q\026"
 1104      2BAF933D 
 1104      C52682DF 
 1104      0AC0F936 
 1104      7116
 1105 0377 D82A94CC 		.ascii	"\330*\224\314-\367\374>\351?d5uqo\222\217\217\254q\033"
 1105      2DF7FC3E 
 1105      E93F6435 
 1105      75716F92 
 1105      8F8FAC71 
 1106 038c D93B98F5 		.ascii	"\331;\230\365,\221\235Uo\260\316\316\325\031}\301\037"
 1106      2C919D55 
 1106      6FB0CECE 
 1106      D5197DC1 
 1106      1F
 1107 039d B2C1CD43 		.ascii	"\262\301\315C\252\261\360w\3106\007\005d\253\353\376"
 1107      AAB1F077 
 1107      C8360705 
 1107      64ABEBFE 
 1108 03ad 79504B2C 		.ascii	"yPK,B\301\000\363\020\201\207\272y\230\302D\330rk\320"
 1108      42C100F3 
 1108      108187BA 
 1108      7998C244 
 1108      D8726BD0 
 1109 03c1 DDB495B3 		.ascii	"\335\264\225\263\0269/l\275\004\324\273\3117\227\033"
 1109      16392F6C 
 1109      BD04D4BB 
ARM GAS  C:\Users\AMANRA~1\AppData\Local\Temp\cclHfkGS.s 			page 89


 1109      C937971B 
 1110 03d1 8DF3BDC1 		.ascii	"\215\363\275\301\233#\267\240\214\334\2422r\376\363"
 1110      9B23B7A0 
 1110      8CDCA232 
 1110      72FEF3
 1111 03e0 F59D3A5F 		.ascii	"\365\235:_s\367\336\237>\250\234\301\330\032\365\340"
 1111      73F7DE9F 
 1111      3EA89CC1 
 1111      D81AF5E0 
 1112 03f0 548740C4 		.ascii	"T\207@\304\024)\312P<L\004A1\011\011\"\376\314\331\326"
 1112      1429CA50 
 1112      3C4C0441 
 1112      31090922 
 1112      FECCD9D6 
 1113 0404 4CAB5D4A 		.ascii	"L\253]Jz1)Q\264K\242\303)J\0163\356:\263\035\226\214"
 1113      7A312951 
 1113      B44BA2C3 
 1113      294A0E33 
 1113      EE3AB31D 
 1114 041a 2C29C1CC 		.ascii	",)\301\314\004\247\325f1Xs\235\026G^F\316\277\302\254"
 1114      04A7D566 
 1114      3158739D 
 1114      16475E46 
 1114      CEBFC2AC 
 1115 042e B9E69CB7 		.ascii	"\271\346\234\267\263,h\221\016K\011\331L\237\231!Y\336"
 1115      B32C6891 
 1115      0E4B09D9 
 1115      4C9F9921 
 1115      59DE
 1116 0440 70589F0B 		.ascii	"pX\237\013\0100\333m6{\256x\310\356pJ\342\253\373S\223"
 1116      0830DB6D 
 1116      367BAE78 
 1116      C8EE704A 
 1116      E2ABFB53 
 1117 0455 53F3D1C5 		.ascii	"S\363\321\305lwX\322\363\236\267!<y7\230%\337I 195-"
 1117      6C7758D2 
 1117      F39EB721 
 1117      3C793798 
 1117      25DF4920 
 1118 046d 254D4C46 		.ascii	"%MLF\224\230\262y\274M\262J\351\007\315f\214\021\236"
 1118      9498B279 
 1118      BC4DB24A 
 1118      E907CD66 
 1118      8C119E
 1119 0480 9AB6DF44 		.ascii	"\232\266\337Di\034rX\343MQ\211L\343`z\233\305fw\034"
 1119      691C7258 
 1119      E34D5189 
 1119      4CE3607A 
 1119      9BC56677 
 1120 0495 662F058C 		.ascii	"f/\005\214\237\235\221\343\313)\355@\352\263{\304}\373"
 1120      9F9D91E3 
 1120      CB29ED40 
 1120      EAB37BC4 
 1120      7DFB
 1121 04a7 5E130FA4 		.ascii	"^\023\017\244\244\346%\221%]r\246\347\344da\340\350"
 1121      A4E62591 
 1121      255D72A6 
ARM GAS  C:\Users\AMANRA~1\AppData\Local\Temp\cclHfkGS.s 			page 90


 1121      E7E46461 
 1121      E0E8
 1122 04b9 C78B90E7 		.ascii	"\307\213\220\347D\277\027\376/w\222\332\201@\255\344"
 1122      44BF17FE 
 1122      2F7792DA 
 1122      8140ADE4 
 1123 04c9 CC7038B9 		.ascii	"\314p8\271%7+\366\361G\021\2100N\253\371-)\376?\370"
 1123      25372BF6 
 1123      F1471188 
 1123      304EABF9 
 1123      2D29FE3F 
 1124 04de FB4A9BCD 		.ascii	"\373J\233\315\376\002\321\215\313#"
 1124      FE02D18D 
 1124      CB23
 1125              		.text
 1126              		.section	.gnu.lto_chThdSleepUntilWindowed.3049c3b6,"",%progbits
 1127 0000 789C9555 		.ascii	"x\234\225U{LSg\024\377N\277\333\007-\020\222\375\313"
 1127      7B4C5367 
 1127      14FF4EBF 
 1127      DB072D10 
 1127      92FDCB
 1128 0013 92928CA0 		.ascii	"\222\222\214\240\301q\305\271W\262,[\330?$\222l\342"
 1128      C171C5B9 
 1128      57B22C5B 
 1128      D83F2492 
 1128      6CE2
 1129 0025 FF0C4B23 		.ascii	"\377\014K#\315(u\275\035\321\277\270 *\217\271\221m"
 1129      CD2875BD 
 1129      1DD1BFB8 
 1129      202A8FB9 
 1129      916D
 1130 0037 82C1029D 		.ascii	"\202\301\002\235\233\323\315!\363\301T\024\354\250C"
 1130      9BD3CD21 
 1130      F3C15414 
 1130      ECA843
 1131 0046 C589F81A 		.ascii	"\305\211\370\032NT\036\035\017\021\211{d>\206\272s\276"
 1131      4E541E1D 
 1131      0F11897B 
 1131      643E86BA 
 1131      73BE
 1132 0058 5BB42D15 		.ascii	"[\264-\025gCn\356w\317\371\235\357w~\347\201\2011\226"
 1132      67436EEE 
 1132      77CFF99D 
 1132      EF777EE7 
 1132      81813196 
 1133 006c 6662CCA0 		.ascii	"fb\314\240cl)\276\203\236\201\256\266\227\2612\223N"
 1133      636C29BE 
 1133      839E81AE 
 1133      B697B132 
 1133      934E
 1134 007e C7FB9299 		.ascii	"\307\373\222\231j\226\374\231L\215\347 i\237%\000zQ"
 1134      6A96FC99 
 1134      4C8DE720 
 1134      699F2500 
 1134      7A51
 1135 0090 4DC04A75 		.ascii	"M\300Ju\\\202R\370\230\177\301\341l\305\017^^\303\275"
 1135      5C8252F8 
ARM GAS  C:\Users\AMANRA~1\AppData\Local\Temp\cclHfkGS.s 			page 91


 1135      987FC1E1 
 1135      6CC50F5E 
 1135      5EC3BD
 1136 00a3 9C8184C7 		.ascii	"\234\201\204\307?N7\004\023\351\010`\305\343\324t\367"
 1136      3F4E3704 
 1136      13E90860 
 1136      C5E3D474 
 1136      F7
 1137 00b4 FEF8853B 		.ascii	"\376\370\205;T\265\\\365\327\337J\337\023\330P]\013"
 1137      54B55CF5 
 1137      D7DF4ADF 
 1137      13D8505D 
 1137      0B
 1138 00c5 5EAE6375 		.ascii	"^\256cu\350\277\037\222a\037$\323\355m\260\020\275}"
 1138      E8BF1F92 
 1138      611F24D3 
 1138      ED6DB010 
 1138      BD7D
 1139 00d7 5DC32FF2 		.ascii	"]\303/\362t`\370z\244\2523\230\220\266]\000\247\266"
 1139      7460F87A 
 1139      A4AA3398 
 1139      90B65D00 
 1139      A7B6
 1140 00e9 73F50504 		.ascii	"s\365\005\004\301\217\300\303q\024\007\016@\032\272"
 1140      C18FC0C3 
 1140      7114070E 
 1140      401ABA
 1141 00f8 D75EB97B 		.ascii	"\327^\271{\304\302\027\013\350w\273\233g\022g\241;B"
 1141      C4C2170B 
 1141      E877BB9B 
 1141      671267A1 
 1141      3B42
 1142 010a D08331A0 		.ascii	"\320\2031\240\207 \215\374\253\374\325\307\314\374e"
 1142      87208DFC 
 1142      ABFCD5C7 
 1142      CCFC65
 1143 0119 81EDAFA9 		.ascii	"\201\355\257\251\2300\246~%\260\275\255\274q\277\252"
 1143      9830A67E 
 1143      25B0BDAD 
 1143      BC71BFAA 
 1144 0129 56BD45F8 		.ascii	"V\275E\370\366H<\375\320}d\317\203\315\011\006\011\016"
 1144      F6483CFD 
 1144      D07D64CF 
 1144      83CD0906 
 1144      090E
 1145 013b 432A6584 		.ascii	"C*e\204\211\034\001\003<2T\250\370\363w\037\344\\\030"
 1145      891C0103 
 1145      3C3254A8 
 1145      F8F3771F 
 1145      E45C18
 1146 014e EA388481 		.ascii	"\3528\204\201\030t\240o'\030X\224\377\371\343ob1:\311"
 1146      1874A06F 
 1146      27185894 
 1146      FFF9E36F 
 1146      62313AC9 
 1147 0162 5F47B6ED 		.ascii	"_G\266\355=\347\216Z\270M`\277\335\375\345\226\370\020"
 1147      3DE78E5A 
ARM GAS  C:\Users\AMANRA~1\AppData\Local\Temp\cclHfkGS.s 			page 92


 1147      B84D60BF 
 1147      DDFDE596 
 1147      F810
 1148 0174 BFC1C605 		.ascii	"\277\301\306\005M\353j6\251\276\362$/\347\340\237\207"
 1148      4DEB6A36 
 1148      A9BEF224 
 1148      2FE7E09F 
 1148      87
 1149 0185 A11678BA 		.ascii	"\241\026x\272\011\335~B\252p\224\202\363\0102]H&\200"
 1149      09DD7E42 
 1149      AA709482 
 1149      F308325D 
 1149      482680
 1150 0198 64E80188 		.ascii	"d\350\001\210m=\247\367\253\017\036n\304\272%\265\006"
 1150      6D3DA7F7 
 1150      AB0F1E6E 
 1150      C4BA25B5 
 1150      06
 1151 01a9 47FAEAA7 		.ascii	"G\372\352\247M\330\013$76\002*\247G\015%\003=\214\364"
 1151      4DD80B24 
 1151      3736022A 
 1151      A7470D25 
 1151      033D8CF4 
 1152 01bd 30D183B1 		.ascii	"0\321\203\261J\024\001\273D\365\263*$\217o\353\374l"
 1152      4A1401BB 
 1152      44F5B32A 
 1152      248F6FEB 
 1152      FC6C
 1153 01cf 0C7431A8 		.ascii	"\014t1\250o\235\237:\034\203T\004m\274\256vH\324N\034"
 1153      6F9D9F3A 
 1153      1C835404 
 1153      6DBCAE76 
 1153      48D44E1C 
 1154 01e3 ACF033DA 		.ascii	"\254\3603\332n@\371\310\256\272\366\301h\221?\377\007"
 1154      6E40F9C8 
 1154      AEBAF6C1 
 1154      68913FFF 
 1154      07
 1155 01f4 FB461359 		.ascii	"\373F\023Y\232#\350\370\022\024\264\233l\372h\333@\343"
 1155      9A23E8F8 
 1155      1214B49B 
 1155      6CFA68DB 
 1155      40E3
 1156 0206 02ECD563 		.ascii	"\002\354\325c$\312\361\271\242\234@-N\222('I\024\300"
 1156      24CAF1B9 
 1156      A29C402D 
 1156      4E922827 
 1156      4914C0
 1157 0219 54D0BAAD 		.ascii	"T\320\272\255y\357\035s\312mhV\267X\275Z\304\226\340"
 1157      79EF1D73 
 1157      CA6D6856 
 1157      B758BD5A 
 1157      C496E0
 1158 022c 61D524E1 		.ascii	"a\325$\341(A\017\244\010\335oM]\030\320\341\0278\005"
 1158      28410FA4 
 1158      08DD6F4D 
 1158      5D18D0E1 
ARM GAS  C:\Users\AMANRA~1\AppData\Local\Temp\cclHfkGS.s 			page 93


 1158      173805
 1159 023f 9220CEE0 		.ascii	"\222 \316\340\0271 ;;\003\243\361)\367BhQ\374?w\357"
 1159      1731203B 
 1159      3B03A3F1 
 1159      29F74268 
 1159      51FC3F77 
 1160 0254 BD6811E8 		.ascii	"\275h\021\350\323\204\206^\220\360\246r\253\020\201"
 1160      D384865E 
 1160      90F0A672 
 1160      AB1081
 1161 0263 B149E86A 		.ascii	"\261I\350j\277[]5\265\215Gq\257\277\223^6\333Ys\272"
 1161      BF5B5D35 
 1161      B58D4771 
 1161      AFBF935E 
 1161      36DB5973 
 1162 0278 E8E1196B 		.ascii	"\350\341\031k\363R\006g\310h\2146\376{e\321\363\014"
 1162      F3520667 
 1162      C8688C36 
 1162      FE7B65D1 
 1162      F30C
 1163 028a FAC8668A 		.ascii	"\372\310f\212H\370,\346y\216\022\306G\0037\242\251n"
 1163      48F82CE6 
 1163      798E12C6 
 1163      470337A2 
 1163      A96E
 1164 029c 7DD71923 		.ascii	"}\327\031#U\300(\032\260\267\345\366-\263v\244H\224"
 1164      55C0281A 
 1164      B0B7E5F6 
 1164      2DB376A4 
 1164      4894
 1165 02ae 91AF713C 		.ascii	"\221\257q<\316\007M8\326&\270\200%<O\331R\355\306N\365"
 1165      CE074D38 
 1165      D626B880 
 1165      253C4FD9 
 1165      52EDC64E 
 1166 02c3 25CA2D6A 		.ascii	"%\312-jE\231:\264\353\353\244\226\317\320#\016.\202"
 1166      45993AB4 
 1166      EBEBA496 
 1166      CFD0230E 
 1166      2E82
 1167 02d5 0F366397 		.ascii	"\0176c\227\320U\014~\005\231R\035\252\231i{_\314\016"
 1167      D0550C7E 
 1167      0599521D 
 1167      AA99697B 
 1167      5FCC0E
 1168 02e8 4D92489E 		.ascii	"M\222H\236NQ\003\331\335\312\267\3167\220\320\037\002"
 1168      4E5103D9 
 1168      DDCAB7CE 
 1168      3790D01F 
 1168      02
 1169 02f9 FBFEEA2F 		.ascii	"\373\376\352/\343\241\000\201\362\226\232D\356\323F"
 1169      E3A10081 
 1169      F2969A44 
 1169      EED346
 1170 0308 EFF8ED8E 		.ascii	"\357\370\355\216\315\011\261\242]\212\021\3557Hm\300"
 1170      CD09B1A2 
 1170      5D8A11ED 
ARM GAS  C:\Users\AMANRA~1\AppData\Local\Temp\cclHfkGS.s 			page 94


 1170      37486DC0 
 1171 0318 7E888A77 		.ascii	"~\210\212w\263\366\323@\034\377F\2137\331^\277\323\034"
 1171      B3F6D340 
 1171      1CFF468B 
 1171      37D95EBF 
 1171      D31C
 1172 032a 2BDEE518 		.ascii	"+\336\345\030\361\006(\236\204\345\\\267eC\353\300\335"
 1172      F106289E 
 1172      84E55CB7 
 1172      6543EBC0 
 1172      DD
 1173 033b EAA025BA 		.ascii	"\352\240%\272\236\367\322?$/\272Y\344\242\2256.\242"
 1173      9EF7D23F 
 1173      242FBA59 
 1173      E4A29536 
 1173      2EA2
 1174 034d 425750A4 		.ascii	"BWP\244\253$\335U\252\020\025\211H>\016\372\234f\320"
 1174      AB24DD55 
 1174      AA101589 
 1174      483E0EFA 
 1174      9C66D0
 1175 0360 E35521F6 		.ascii	"\343U!\366C5\367\333\222\205\270\375\341\342\322-a\247"
 1175      4335F7DB 
 1175      9285B8FD 
 1175      E1E2D22D 
 1175      61A7
 1176 0372 013A8D42 		.ascii	"\001:\215B\305\245\300R:\213\010\006A\274\012\303\364"
 1176      C5A5C052 
 1176      3A8B0806 
 1176      41BC0AC3 
 1176      F4
 1177 0383 253F1EE4 		.ascii	"%?\036\344g\022\361\032%m\234\205\206\353\325\007'T"
 1177      6712F11A 
 1177      256D9C85 
 1177      86EBD507 
 1177      2754
 1178 0395 E9495A0D 		.ascii	"\351IZ\015Fhu\2662`\210\326j&\375=\362\242\013B:\231"
 1178      466875B6 
 1178      326088D6 
 1178      6A26FD3D 
 1178      F2A20B42 
 1179 03ab 23741AC2 		.ascii	"#t\032\302\234\206I\247aJ\306$\3440>N\367ZD\362\203"
 1179      9C8649A7 
 1179      614AC624 
 1179      E4303E4E 
 1179      F75A44F2 
 1180 03c0 515DB7A9 		.ascii	"Q]\267\251\263g\332\310/hE\376\276m0h\232\233\257\031"
 1180      B367DAC8 
 1180      2F6845FE 
 1180      BE6D3068 
 1180      9A9BAF19 
 1181 03d4 4662100F 		.ascii	"Fb\020\017R\244)X?t\243c\246?zI\011\322\301G\204-\021"
 1181      52A42958 
 1181      3F74A363 
 1181      A63F7A49 
 1181      09D2C147 
 1182 03eb 847F471E 		.ascii	"\204\177G\036\243DxT\373\227p\350\320\324\200\261\364"
ARM GAS  C:\Users\AMANRA~1\AppData\Local\Temp\cclHfkGS.s 			page 95


 1182      A3447854 
 1182      FB9770E8 
 1182      D0D480B1 
 1182      F4
 1183 03fc BE6AF272 		.ascii	"\276j\362rK\035\217';\2031(%[\303\341\277{\3644\205"
 1183      4B1D8F27 
 1183      3B833128 
 1183      255BC3E1 
 1183      BF7BF434 
 1184 0411 F1608271 		.ascii	"\361`\202qH\306\004\275<A\324J\012\333\272\264\354\303"
 1184      48C604BD 
 1184      3C41D44A 
 1184      0ADBBAB4 
 1184      ECC3
 1185 0423 4718F381 		.ascii	"G\030\363\201\211\360%\252-\373\320^{\320<\334i\231"
 1185      89F025AA 
 1185      2DFBD05E 
 1185      7BD03CDC 
 1185      6999
 1186 0435 5D591362 		.ascii	"]Y\023be]\027++z?Mj\373i\350\346'\227W\211;\030\233"
 1186      655D172B 
 1186      2B7A3F4D 
 1186      6AFB69E8 
 1186      E6279757 
 1187 044d A636AB3E 		.ascii	"\2466\253>P\250\265\216DRT\342mH\005a\01322d\374\263"
 1187      50A8B58E 
 1187      445254E2 
 1187      6D480561 
 1187      0B323264 
 1188 0463 153A563A 		.ascii	"\025:V:\\J\346\353\231\213e\227\"\273=\262\342\266\341"
 1188      5C4AE6EB 
 1188      998B6597 
 1188      22BB3DB2 
 1188      E2B6E1
 1189 0476 574FA1DB 		.ascii	"WO\241\333\236_\240d\330\230\264\332m/\221\212\355k"
 1189      9E5FA064 
 1189      D898B4DA 
 1189      6D2F918A 
 1189      ED6B
 1190 0488 3C92C7E1 		.ascii	"<\222\307\341\264?\021\347(\266\025}T`G\213\262V\311"
 1190      B43F11E7 
 1190      28B6157D 
 1190      5460478B 
 1190      B256C9
 1191 049b 2864C695 		.ascii	"(d\306\225\371\212\375]\267\343\225\230\000\233\313"
 1191      F98AFD5D 
 1191      B7E39598 
 1191      009BCB
 1192 04aa E97415CB 		.ascii	"\351t\025\313\253]n\217\"\277\275<'+g\015\272\330\\"
 1192      AB5D6E8F 
 1192      22BFBD3C 
 1192      272B670D 
 1192      BAD85C
 1193 04bd 6E7B5EC9 		.ascii	"n{^\311\253N\204g\315\007C2\004\222\263rr\263s\345,"
 1193      AB4E8467 
 1193      CD074332 
 1193      0492B372 
ARM GAS  C:\Users\AMANRA~1\AppData\Local\Temp\cclHfkGS.s 			page 96


 1193      72B373E5 
 1194 04d2 44C9D9B3 		.ascii	"D\311\331\263\327;\025\207\222\267\312f\303\030I9\271"
 1194      D73B1587 
 1194      92B7CA66 
 1194      C3184939 
 1194      B9
 1195 04e3 CBAD4463 		.ascii	"\313\255Dc\265\333\261\310\232\272\230\351\334\314\350"
 1195      B5DBB1C8 
 1195      9ABA98E9 
 1195      DCCCE8
 1196 04f2 B43B5DEE 		.ascii	"\264;]\356\265\354\215\230\361\013\363\213B\234rW\344"
 1196      B5EC8D98 
 1196      F10BF38B 
 1196      429C7257 
 1196      E4
 1197 0503 BCB4445E 		.ascii	"\274\264D^\266\354\035yEvNI&Y\362\024O^QQ\001\006N{"
 1197      B6EC1D79 
 1197      45764E49 
 1197      2659F214 
 1197      4F5E5151 
 1198 051b BA08251E 		.ascii	"\272\010%\036\364{\355Ys'\205\335\010\324+\236|\267"
 1198      F47BED59 
 1198      732785DD 
 1198      08D42B9E 
 1198      7CB7
 1199 052d 87DB8B0B 		.ascii	"\207\333\213\013\026>\375*\002\021\306\343\260}\240"
 1199      163EFD2A 
 1199      0211C6E3 
 1199      B07DA0
 1200 053c 2CFA1FFE 		.ascii	",\372\037\376\241\332\026\262\377\000\233)H\263"
 1200      A1DA16B2 
 1200      FF009B29 
 1200      48B3
 1201              		.text
 1202              		.section	.gnu.lto_chThdYield.3049c3b6,"",%progbits
 1203 0000 789C8D54 		.ascii	"x\234\215T_LSg\024?\347~_\377H\221\371\270\207>\224"
 1203      5F4C5367 
 1203      143FE77E 
 1203      5FFF4891 
 1203      F9B8873E 
 1204 0015 07124896 		.ascii	"\007\022H\226^Y\314\226\275,YH\226\370@\262\311\036"
 1204      5E59CC96 
 1204      BD2C5948 
 1204      96F840B2 
 1204      C91E
 1205 0027 F6B2182D 		.ascii	"\366\262\030-\2154Y\255\271\227-\372\304]\213\251\206"
 1205      8D3459AD 
 1205      B9972DFA 
 1205      C45D8BA9 
 1205      86
 1206 0038 992CDB00 		.ascii	"\231,\333\000\003\035\324-\313\346\003\2729\207\026"
 1206      031DD42D 
 1206      CBE603BA 
 1206      398716
 1207 0047 B07674A2 		.ascii	"\260vt\242\260\241\310@TD\246\015\272\015b\306\222%"
 1207      B0A1C840 
 1207      5444A60D 
ARM GAS  C:\Users\AMANRA~1\AppData\Local\Temp\cclHfkGS.s 			page 97


 1207      BA0D62C6 
 1207      9225
 1208 0059 FB13D9CE 		.ascii	"\373\023\331\316\371nKJA\342\015\334|\367;\347w\316"
 1208      F96E4B4A 
 1208      41E20DDC 
 1208      7CF73BE7 
 1208      77CE
 1209 006b EFF7FBBE 		.ascii	"\357\367\373\276S'\000\364;\000\274\010\260\203\326"
 1209      532700F4 
 1209      3B00BC08 
 1209      B083D6
 1210 007a E800D43E 		.ascii	"\350\000\324>\270\012\360\236[\323\304\204\027\2542"
 1210      B80AF09E 
 1210      5BD3C484 
 1210      17AC32
 1211 0089 99A905AB 		.ascii	"\231\251\005\253\\\240\264\267%\"/,7B\213&$\266\340"
 1211      5CA0B4B7 
 1211      25222F2C 
 1211      37428B26 
 1211      24B6E0
 1212 009c FBE26381 		.ascii	"\373\342c\201\303\361\007)\255\346\013\213\236L\347"
 1212      C3F10729 
 1212      ADE60B8B 
 1212      9E4CE7
 1213 00ab 79FF3D6B 		.ascii	"y\377=k\302\022\011\001\320A\377\374\3407X\003\224w"
 1213      C2120901 
 1213      D041FFFC 
 1213      E0375803 
 1213      9477
 1214 00bd FFEB95F6 		.ascii	"\377\353\225\366\255Ni\357\343Yt\342\352f\253\002\217"
 1214      AD4E69EF 
 1214      E35974E2 
 1214      EA66AB02 
 1214      8F
 1215 00ce 0C08A102 		.ascii	"\014\010\241\002\035\002\213\001\370-\345\366\243\023"
 1215      1D028B01 
 1215      F82DE5F6 
 1215      A313
 1216 00dc 4AF2672F 		.ascii	"J\362g/\275L\234\3739_\343\330\365\326\257\022\242\215"
 1216      BD4C9CFB 
 1216      395FE3D8 
 1216      F5D6AF12 
 1216      A28D
 1217 00ee 7A234AFA 		.ascii	"z#J\372\\\036\357\312U\360\247\206>\372\374|l\362\242"
 1217      5C1EEFCA 
 1217      55F0A786 
 1217      3EFAFC7C 
 1217      6CF2A2
 1218 0101 47BCA12A 		.ascii	"G\274\241*\237<u\342xy\325g\226\025\2652\017\273\253"
 1218      9F3C75E2 
 1218      7879D567 
 1218      9615B532 
 1218      0FBBAB
 1219 0114 7B626DC7 		.ascii	"{bm\307\254dt[B\010\034@A\0041\205^<\217^%\240\244\355"
 1219      AC64745B 
 1219      42081C40 
 1219      41043185 
ARM GAS  C:\Users\AMANRA~1\AppData\Local\Temp\cclHfkGS.s 			page 98


 1219      5E3C8F5E 
 1220 012c A31E4A1B 		.ascii	"\243\036J\033\304*\300s\334Z\254\241:DT/\020U~\221\261"
 1220      C42AC073 
 1220      DC5AACA1 
 1220      3A44542F 
 1220      10557E91 
 1221 0141 707AD291 		.ascii	"pz\322\221\261V\376\213\2235\317\246rm\237\374\371j"
 1221      B156FE8B 
 1221      9335CFA6 
 1221      726D9FFC 
 1221      F96A
 1222 0153 99060921 		.ascii	"\231\006\011!\005\275\034\222W\016^\001\034!W\310]+"
 1222      05BD1C92 
 1222      570E5E01 
 1222      1C2157C8 
 1222      5D2B
 1223 0165 0347490D 		.ascii	"\003GI\015\255b\031x\200\332\006l\2737g\213i\254\"P"
 1223      AD621978 
 1223      80DA066C 
 1223      BB37678B 
 1223      69AC2250 
 1224 0179 FC57EB82 		.ascii	"\374W\353\202d\365\002}x\221b\213\030\275\177\272}`"
 1224      64F5027D 
 1224      7891628B 
 1224      18BD7FBA 
 1224      7D60
 1225 018b BED4F58F 		.ascii	"\276\324\365\217\206\374\230w]\256sx\341yr8\3031Gi,"
 1225      86FC9877 
 1225      5DAE7378 
 1225      E1797238 
 1225      C3314769 
 1226 01a0 D75D4D4E 		.ascii	"\327]MN\247\331\207\357\326\3730L\362\263\354C\226}"
 1226      A7D987EF 
 1226      D6FB304C 
 1226      F2B3EC43 
 1226      967D
 1227 01b2 4098E1B6 		.ascii	"@\230\341\266\237\366\236\371\253\254\362\027\354\265"
 1227      9FF69EF9 
 1227      ABACF217 
 1227      ECB5
 1228 01c0 8EFB1242 		.ascii	"\216\373\022B\235g_n\320rK\215h\177\217\225\312\352"
 1228      9D675F6E 
 1228      D0724B8D 
 1228      687F8F95 
 1228      CAEA
 1229 01d2 DF97A666 		.ascii	"\337\227\246f5\332\301K(\025q\300\021u\236_\246\263"
 1229      35DAC14B 
 1229      281571C0 
 1229      11759E5F 
 1229      A6B3
 1230 01e4 0BE5958B 		.ascii	"\013\345\225\213y\264\213s\3778uf\332\243\320\227\031"
 1230      79B48B73 
 1230      FF387566 
 1230      DAA3D097 
 1230      19
 1231 01f5 8D575092 		.ascii	"\215WP\222iQ\2372\001\3407\214\016\374\275\030\237\353"
 1231      69519F32 
ARM GAS  C:\Users\AMANRA~1\AppData\Local\Temp\cclHfkGS.s 			page 99


 1231      01E0378C 
 1231      0EFCBD18 
 1231      9FEB
 1232 0207 DA51C2BD 		.ascii	"\332Q\302\2753\355\257\315kv\256\241=Jl\307\326\337"
 1232      33EDAFCD 
 1232      6B76AEA1 
 1232      3D4A6CC7 
 1232      D6DF
 1233 0219 B4F9B4AF 		.ascii	"\264\371\264\257/G2\306\030\341Z\203\370\201\020?\262"
 1233      2F4732C6 
 1233      18E15A83 
 1233      F881103F 
 1233      B2
 1234 022a 507A7509 		.ascii	"Pzu\011\215B\035\207\207\257\271\330y\267\272k\251\324"
 1234      8D421D87 
 1234      87AFB9D8 
 1234      79B7BA6B 
 1234      A9D4
 1235 023c D2ACABE5 		.ascii	"\322\254\253\345\261\345\246\215\244\260\257\323\331"
 1235      B1E5A68D 
 1235      A4B0AFD3 
 1235      D9
 1236 0249 D8F28715 		.ascii	"\330\362\207\025I\354\301\204\330\202Wi\220\306Y'\005"
 1236      49ECC184 
 1236      D8825769 
 1236      90C65927 
 1236      05
 1237 025a FA2FDFF9 		.ascii	"\372/\337\371\327\255\367q\323\344\342\364\011\244\204"
 1237      D7ADF771 
 1237      D3E4E2F4 
 1237      09A484
 1238 0269 32BC8649 		.ascii	"2\274\206Il'$\367\342\244\177fb\2075;\211\214\360\340"
 1238      6C2724F7 
 1238      E2A47F66 
 1238      6287353B 
 1238      898CF0E0 
 1239 027d 04EAED34 		.ascii	"\004\352\35541\205p\347\343A\357jT\342u\216jv\024'Q"
 1239      318570E7 
 1239      E341EF6A 
 1239      54E2758E 
 1239      6A761427 
 1240 0292 57AE6CB1 		.ascii	"W\256l\261\351\212b\272R\321\035\032\036\037q\332\324"
 1240      E98A62BA 
 1240      52D11D1A 
 1240      1E1F71DA 
 1240      D4
 1241 02a3 CA490FFE 		.ascii	"\312I\017\376\224g6\025\277y\327\263Zv+N)R\"_w:_w\364"
 1241      94673615 
 1241      BF79D7B3 
 1241      5A762B4E 
 1241      2952225F 
 1242 02bc 4DBBB07C 		.ascii	"M\273\260|\032\34176\026\356c\3153\233j\226x\223U\311"
 1242      1AE13736 
 1242      16EE63CD 
 1242      339B6A96 
 1242      789355C9 
 1243 02d0 7CF75B85 		.ascii	"|\367[\205\356o\331\335\035\353t\310'\352\270\275F\307"
ARM GAS  C:\Users\AMANRA~1\AppData\Local\Temp\cclHfkGS.s 			page 100


 1243      EE6FD9DD 
 1243      1DEB74C8 
 1243      27EAB8BD 
 1243      46C7
 1244 02e2 2C555AC0 		.ascii	",UZ\300\326[\331\221\276,\362q\223G]<\236\364\034\245"
 1244      D65BD991 
 1244      BE2CF271 
 1244      93475D3C 
 1244      9EF41CA5 
 1245 02f6 AC092F8D 		.ascii	"\254\011/\215\345\022\306\222\017o\274^\270(E:+:\350"
 1245      E512C692 
 1245      0F6FBC5E 
 1245      B828453A 
 1245      2B3AE8
 1246 0309 D047B9D0 		.ascii	"\320G\271\320\035l\241\271~F\301d\3218\363\017G\261"
 1246      1D6CA1B9 
 1246      7E46C164 
 1246      D138F30F 
