ARM GAS  C:\Users\AMANRA~1\AppData\Local\Temp\ccvycJiY.s 			page 1


   1              		.cpu cortex-m4
   2              		.eabi_attribute 27, 1
   3              		.eabi_attribute 28, 1
   4              		.eabi_attribute 20, 1
   5              		.eabi_attribute 21, 1
   6              		.eabi_attribute 23, 3
   7              		.eabi_attribute 24, 1
   8              		.eabi_attribute 25, 1
   9              		.eabi_attribute 26, 1
  10              		.eabi_attribute 30, 2
  11              		.eabi_attribute 34, 1
  12              		.eabi_attribute 18, 4
  13              		.file	"hal_lld.c"
  14              		.section	.gnu.lto_.profile.30498bcd,"",%progbits
  15 0000 789C6363 		.ascii	"x\234cc```\005bF\206\016\306\022\000\002\233\001\012"
  15      60606005 
  15      6246860E 
  15      C6120002 
  15      9B010A
  16              		.text
  17              		.section	.gnu.lto_.icf.30498bcd,"",%progbits
  18 0000 789C6363 		.ascii	"x\234cc``\020a@\000f\206\355'\372622v~\277r\231\215"
  18      60601061 
  18      40006686 
  18      ED27FA36 
  18      3232767E 
  19 0018 E949D3CE 		.ascii	"\351I\323\316\037\334\014\000_\366\011/"
  19      1FDC0C00 
  19      5FF6092F 
  20              		.text
  21              		.section	.gnu.lto_.jmpfuncs.30498bcd,"",%progbits
  22 0000 789C6363 		.ascii	"x\234cc``\340b@\000&0\311\010\304\000\001\252\000\024"
  22      6060E062 
  22      40002630 
  22      C908C400 
  22      01AA0014 
  23              		.text
  24              		.section	.gnu.lto_.inline.30498bcd,"",%progbits
  25 0000 789C6363 		.ascii	"x\234cc``\260`@\000&\006\006\203\003\014\214\014Lak"
  25      6060B060 
  25      40002606 
  25      0683030C 
  25      8C0C4C61 
  26 0015 A6B132B0 		.ascii	"\246\2612\260-\220g\002\2112r\301\011\206\023\014\217"
  26      2D906702 
  26      893272C1 
  26      0986130C 
  26      8F
  27 0026 1981F25D 		.ascii	"\031\201\362]\214\333\266I\303\0250\000\000\363\220"
  27      8CDBB649 
  27      C3153000 
  27      00F390
  28 0035 0837     		.ascii	"\0107"
  29              		.text
  30              		.section	.gnu.lto_.pureconst.30498bcd,"",%progbits
  31 0000 789C6363 		.ascii	"x\234cc```\005b&\006)F)\000\000\374\000C"
  31      60606005 
ARM GAS  C:\Users\AMANRA~1\AppData\Local\Temp\ccvycJiY.s 			page 2


  31      62260629 
  31      46290000 
  31      FC0043
  32              		.text
  33              		.section	.gnu.lto_hal_lld_init.30498bcd,"",%progbits
  34 0000 789CA596 		.ascii	"x\234\245\226]L\034U\024\307\357\231;;\373\321mmS\033"
  34      5D4C1C55 
  34      14C7EF99 
  34      3B3BFBD1 
  34      6D6D531B 
  35 0014 A9A50949 		.ascii	"\251\245\011IiK_\030\253\204\2441\361\321\007\023\237"
  35      694B5F18 
  35      AB84A431 
  35      F1D10713 
  35      9F
  36 0025 F4DD587C 		.ascii	"\364\335X|h\023\022\214\370\320\007\023f\273\013l\325"
  36      6813128C 
  36      F8D00713 
  36      66BB0B6C 
  36      D5
  37 0036 C63E1448 		.ascii	"\306>\024H\314V\327\030\333\242\261\215\021\265\273"
  37      CC56D718 
  37      DBA2B18D 
  37      11B5BB
  38 0045 882C5B5B 		.ascii	"\210,[[\213\255\375\204\372\201\245\025\001\201B\213"
  38      8BADFD84 
  38      FA81A515 
  38      0181428B 
  39 0055 821628CB 		.ascii	"\202\026(\313z\316\275\263\334\331\215\211\014;a\377"
  39      7ACEBDB3 
  39      DCD98D89 
  39      0C3B61FF 
  40 0065 CCCEDCFD 		.ascii	"\314\316\334\375\235\377=\367\353\030\214\261kA\306"
  40      9DFF3DF7 
  40      EB188CB1 
  40      6B41C6
  41 0074 9EC6FF55 		.ascii	"\236\306\377U\370\001\017\003\355\310e\306B>M\343\307"
  41      F8010F03 
  41      EDC865C6 
  41      423E4DE3 
  41      C7
  42 0085 AB9915D0 		.ascii	"\253\231\025\320'\036cV\220\203.\037\353\000tc\371\200"
  42      271E6356 
  42      90832E1F 
  42      EB007463 
  42      F980
  43 0097 35685C87 		.ascii	"5h\\\207\006x\233\037\345\220n\036Mh\273NXx\245\332"
  43      06789B1F 
  43      E5906E1E 
  43      4D68BB4E 
  43      5878A5DA 
  44 00ab FABC4D56 		.ascii	"\372\274MVcI\2143\326\212\037\272\340s\330\305\260\331"
  44      63498C33 
  44      D68A1FBA 
  44      E073D8C5 
  44      B0D9
  45 00bd D0674B2D 		.ascii	"\320gK-k\015]>\207\0160\030\340\315\351\353\236\224"
ARM GAS  C:\Users\AMANRA~1\AppData\Local\Temp\ccvycJiY.s 			page 3


  45      6B0D5D3E 
  45      870E3018 
  45      E0CDE9EB 
  45      9E94
  46 00cf B5946DB6 		.ascii	"\265\224m\266R\227>\204\033\317U\002\213q\320H8\211"
  46      52973E84 
  46      1BCF5502 
  46      8B71D048 
  46      3889
  47 00e1 4EE22131 		.ascii	"N\342!1H\274$>\022?I\200d\015I\220d=\311\006\222\215"
  47      48BC243E 
  47      123F4980 
  47      640D4990 
  47      643DC906 
  48 00f7 249B484A 		.ascii	"$\233HJH6\223l!\331JRF\262\215\244\234d;\311\016\222"
  48      4836936C 
  48      21D94A52 
  48      46B28DA4 
  48      9C643BC9 
  49 010d 9D241524 		.ascii	"\235$\025$\214E\321&\366\326J\261C\\\243\273p\212M@"
  49      8C45D126 
  49      F6D64AB1 
  49      435CA3BB 
  49      708A4D40 
  50 0121 3A393E57 		.ascii	":9>WC\346\337\345\200}jmL_\361\276\305c\\\003\352b\344"
  50      43E6DFE5 
  50      807D6A6D 
  50      4C5FF1BE 
  50      C5635C03 
  51 0138 D8B951BF 		.ascii	"\330\271Q\277\374jMG-\035\037\015t\016\015\032qx/\204"
  51      FC6A4D47 
  51      2D1D1F0D 
  51      740E0D1A 
  51      71782F84 
  52 014c D9298B71 		.ascii	"\331)\213q\016_B)|\001\245\214\332\337\035\356\355Z"
  52      0E5F4229 
  52      7C01A58C 
  52      DADF1DEE 
  52      ED5A
  53 015e 677E6A45 		.ascii	"g~jE \206\351\374\012\342\320\"\222\006g\300\304`\341"
  53      2086E9FC 
  53      0AE2D022 
  53      920667C0 
  53      C460E1
  54 0171 B92690B1 		.ascii	"\271&\220\2614\031n$\331\177f-\361\001\254\305l\366"
  54      34196E24 
  54      D97F662D 
  54      F101ACC5 
  54      6CF6
  55 0183 11482008 		.ascii	"\021H \010M\365\275)\332\271\013\227T\341:\301\304\030"
  55      4DF5BD29 
  55      DAB90B97 
  55      54E13AC1 
  55      C418
  56 0195 A27B7E19 		.ascii	"\242{~\031\220\273c}\255X]\322\372b\316\272.aG\372/"
  56      90BB637D 
  56      AD585DD2 
ARM GAS  C:\Users\AMANRA~1\AppData\Local\Temp\ccvycJiY.s 			page 4


  56      FA62CEBA 
  56      2E6147FA 
  57 01aa 1ED6A5F5 		.ascii	"\036\326\245\365,\207o\212\360\335\255b\245\310\267"
  57      2C876F8A 
  57      F0DDAD62 
  57      A5C8B7
  58 01b9 EEF4BD7E 		.ascii	"\356\364\275~\305\254\020\275\323\241G\321\322\302y"
  58      C5AC10BD 
  58      D3A147D1 
  58      D2C279
  59 01c8 3AD9BEC0 		.ascii	":\331\276\300%l\203;cg\005\212&5|+Q\263>\367\335;\247"
  59      256C833B 
  59      6367058A 
  59      26357C2B 
  59      51B33EF7 
  60 01df 28E7C1C4 		.ascii	"(\347\301\304\327\267.\264\177\302\355\314ei\320\277"
  60      D7B72EB4 
  60      7FC2EDCC 
  60      6569D0BF 
  61 01ef 93C9CB75 		.ascii	"\223\311\313uy\243;\376\005\305\357]\275\313\357\025"
  61      79A33BFE 
  61      05C5EF5D 
  61      BDCBEF15 
  62 01ff E5A27079 		.ascii	"\345\242pyz21oOM\006\227\362\035nr;(?(\372\345\334\240"
  62      7A32316F 
  62      4F4D0697 
  62      F21D6E72 
  62      3B283F28 
  63 0217 2CDA83E2 		.ascii	",\332\203\342qg\364\212@i\204\272Z\260\250l\330\341"
  63      7167F48A 
  63      406984BA 
  63      5AB0A86C 
  63      D8E1
  64 0229 CCED1E47 		.ascii	"\314\355\036G~\327\301\265\"&\347u\025\356\006MN\303"
  64      7ED7C1B5 
  64      2226E775 
  64      15EE064D 
  64      4EC3
  65 023b 9907AF3B 		.ascii	"\231\007\257;V\237b\365\027,*\237\204\235O.\314\004"
  65      569F62F5 
  65      172C2A9F 
  65      849D4F2E 
  65      CC04
  66 024d EDFD002F 		.ascii	"\355\375\000/\200\233EX\377Q\205\373\211\254\373\234"
  66      809B4558 
  66      FF5185FB 
  66      89ACFB9C 
  67 025d D64BDC0E 		.ascii	"\326K\334\016\341\317\212\366Kn\0103\366\020nvgl@\240"
  67      E1CF8AF6 
  67      4B6E0833 
  67      F6106E76 
  67      676C40A0 
  68 0271 C4A9F1EB 		.ascii	"\304\251\361\353\352g\354-E\031\004\263p\021mq\007\273"
  68      EA67EC2D 
  68      451904B3 
  68      70116D71 
  68      07BB
ARM GAS  C:\Users\AMANRA~1\AppData\Local\Temp\ccvycJiY.s 			page 5


  69 0283 AD607756 		.ascii	"\255`wVo\3517E\031BK\005\253f\253\333\224\377\256p\303"
  69      6FE93745 
  69      19424B05 
  69      AB66ABDB 
  69      94FFAE70 
  70 0298 B994473D 		.ascii	"\271\224G=\022\346w\347lD\240tB\215\026\254\232\000"
  70      12E677E7 
  70      6C44A074 
  70      428D16AC 
  70      9A00
  71 02aa C28A9A67 		.ascii	"\302\212\232g\177(\366\030\315\263\200\263\323k\334"
  71      7F28F618 
  71      CDB380B3 
  71      D36BDC
  72 02b9 B1C605CB 		.ascii	"\261\306\005\313C\254\211\002\237A\204\025\345\363\256"
  72      43AC8902 
  72      9F418415 
  72      E5F3AE
  73 02c8 624F92CF 		.ascii	"bO\222\317\240\323g\231\333\301\231R\264{\366\340\214"
  73      A0D36799 
  73      DBC19952 
  73      B47BF6E0 
  73      8C
  74 02d9 CF572F97 		.ascii	"\317W/\227E\021Q=\015\2364De\324\312\301Y1\301}0`\232"
  74      4511513D 
  74      0D9E3444 
  74      65D4CAC1 
  74      5931C17D 
  75 02f0 0AA6698A 		.ascii	"\012\246i\212\275\315YxxD\313\0172\221S~\371\325\272"
  75      BDCD5978 
  75      7844CB0F 
  75      3291537E 
  75      F9D5BA
  76 0303 131285C7 		.ascii	"\023\022\205\307\311\236\244\345Gw\330\027\003\376B"
  76      C99EA4E5 
  76      4777D817 
  76      03FE42
  77 0312 677FDACE 		.ascii	"g\177\332\316\272\332:\232a\271\2273\302\227!b0\230"
  77      BADA3A9A 
  77      61B99733 
  77      C2972162 
  77      3098
  78 0324 CD25F1D8 		.ascii	"\315%\361\330}C\006+\227\361N\215u\307\002\366N\243"
  78      7D43062B 
  78      97F14E8D 
  78      75C702F6 
  78      4EA3
  79 0336 C1DF2AAD 		.ascii	"\301\337*\255\323\"\255+\014\366O^\260\007\224\325r"
  79      D322AD2B 
  79      0CF64F5E 
  79      B00794D5 
  79      72
  80 0347 394FDF90 		.ascii	"9O\337\220\321\266;\322\012\377\227\3229A\363\332\264"
  80      D1B63BD2 
  80      0AFF97D2 
  80      3941F3DA 
  80      B4
ARM GAS  C:\Users\AMANRA~1\AppData\Local\Temp\ccvycJiY.s 			page 6


  81 0358 F9DC16D9 		.ascii	"\371\334\026\331\356\221\254\035\0227\374\321p\334o"
  81      EE91AC1D 
  81      1237FCD1 
  81      70DC6F
  82 0367 3B376001 		.ascii	";7`\001Y#\020\0318[e7\302\026mS\363\217\333\015txH\301"
  82      59231019 
  82      385B6537 
  82      C2166D53 
  82      F38FDB0D 
  83 037f F03A840B 		.ascii	"\360:\204\013\351x\265\254\371f\307\226\236\261;\272"
  83      E978B5AC 
  83      F966C796 
  83      9EB13BBA 
  84 038f 1273F1BD 		.ascii	"\022s\361\275\344n1\317]F\034\222\037?x\177F\024A:\356"
  84      E46E31CF 
  84      5D461C92 
  84      1F3F787F 
  84      4614413A 
  85 03a4 D73A2CC9 		.ascii	"\327:,\3114\316\216e\335\343\263yxK3\235\223B\30738"
  85      34CE8E65 
  85      DDE3B379 
  85      784B339D 
  85      9342C733 
  86 03b9 A4958A6E 		.ascii	"\244\225\212n\350\316\332\2657\354\225\375\336\271\362"
  86      E8CEDAB5 
  86      37EC95FD 
  86      DEB9F2
  87 03c8 413BA851 		.ascii	"A;\250Q$\237\035)\254-\237D\002T!Y\035\357t\366\333"
  87      249F1D29 
  87      AC2D9F44 
  87      02542159 
  87      1DEF74F6 
  88 03dd C77FF621 		.ascii	"\307\177\366!\025)\021muS\2441/Z\223\206S\244\202MB"
  88      1529116D 
  88      7553A431 
  88      2F5A9386 
  88      53A4824D 
  89 03f2 38DE7D54 		.ascii	"8\336}T\234\036\364\213Dbr\300\333\220\261|1\356m\245"
  89      9C1EF48B 
  89      446272C0 
  89      DB90B17C 
  89      31EE6DA5 
  90 0406 33069AB5 		.ascii	"3\006\232\265\006\254\332}\242\341\324\243\377\335\016"
  90      06ACDA7D 
  90      A2E1D4A3 
  90      FFDD0E
  91 0415 374688DA 		.ascii	"7F\210\332\355\356\301\301\370\211\026\261)\210\321"
  91      EDEEC1C1 
  91      F88916B1 
  91      2988D1
  92 0424 8EE282C3 		.ascii	"\216\342\202\3034!jOe\245\211\1775\373\366\357\335_"
  92      34216A4F 
  92      65A5897F 
  92      35FBF6EF 
  92      DD5F
  93 0436 57BF7BCF 		.ascii	"W\277{\317\356'\314\272zs\337\313\265\346\253u\257\275"
  93      EE27CCBA 
ARM GAS  C:\Users\AMANRA~1\AppData\Local\Temp\ccvycJiY.s 			page 7


  93      7A73DFCB 
  93      B5E6AB75 
  93      AFBD
  94 0448 5E6FBEF0 		.ascii	"^o\276\360\342\363O=)\365\331\252\003\007\350\315K\265"
  94      E2F34F3D 
  94      29F5D9AA 
  94      0307E8CD 
  94      4BB5
  95 045a B5AF54D6 		.ascii	"\265\257T\326\260\177\001\374\310&d"
  95      B07F01FC 
  95      C82664
  96              		.text
  97              		.section	.gnu.lto_stm32_clock_init.30498bcd,"",%progbits
  98 0000 789CA558 		.ascii	"x\234\245X[TTU\030>\377>s9s\037\206\3330\240\242o\276"
  98      5B545455 
  98      183EFF3E 
  98      7339731F 
  98      86DB30A0 
  99 0017 3899DA5A 		.ascii	"8\231\332Z\326\023/\275\365T\253\267V\253\354A\313\265"
  99      D6132FBD 
  99      F554ABB7 
  99      56ABEC41 
  99      CBB5
 100 0029 6865ABE5 		.ascii	"he\253\345\233gd\030@\361V\210F\304\242Z\025\226J&\246"
 100      9B676418 
 100      40F15688 
 100      46C4A25A 
 100      15964A26 
 101 003e E06D4089 		.ascii	"\340m@\211\213WLK\004\311P\004\024\304\212TP\230\366"
 101      8B574C4B 
 101      04C95004 
 101      14C48A54 
 101      5098F6
 102 0051 BFF73E9C 		.ascii	"\277\367>\234\323q\265\352\300,\3267\373\354=\347\373"
 102      D371B5EA 
 102      C02CD637 
 102      FBEC3DE7 
 102      FB
 103 0062 BFFDFDFF 		.ascii	"\277\375\375\377\376\347\014\016I\222\332\202\222\364"
 103      FEE70C0E 
 103      4992DA82 
 103      92F4
 104 0070 027D5741 		.ascii	"\002}WA\222 O\002\262\375\274$\305\024\0022\037\310"
 104      92204F02 
 104      B2FDBC24 
 104      C5140232 
 104      1FC8
 105 0082 24B7A185 		.ascii	"$\267\241\205.\273m\275\036I\365\346\362\371\002\033"
 105      2EBB6DBD 
 105      1E49F5E6 
 105      F2F9021B 
 106 0092 D8F9BA9D 		.ascii	"\330\371\272\235D\370\272\203\255G\370|\201\003\234"
 106      44F8BA83 
 106      AD47F87C 
 106      81039C
 107 00a1 7CDD4972 		.ascii	"|\335Ir\370\272\302\326s\370|\201\002.\276\356\"a\276"
 107      F8BAC2D6 
ARM GAS  C:\Users\AMANRA~1\AppData\Local\Temp\ccvycJiY.s 			page 8


 107      73F87C81 
 107      022EBEEE 
 107      2261BE
 108 00b4 EE66EB61 		.ascii	"\356f\353a>_\340\006\017_\367\220l\276\236\301\326\263"
 108      3E5FE006 
 108      0F5FF790 
 108      6CBE9EC1 
 108      D6B3
 109 00c6 F97C4106 		.ascii	"\371|A\006x\361\035\274$\213/\373\330r\026\237.\360"
 109      78F11DBC 
 109      248B2FFB 
 109      D872169F 
 109      2EF0
 110 00d8 117F7B84 		.ascii	"\021\177{\204\316\006\333\227\321Y?\011\030\256\002"
 110      CE06DB97 
 110      D1593F09 
 110      18AE02
 111 00e7 90C6A983 		.ascii	"\220\306\251\203\332 \015B|\020\"\231\234-\235\261e"
 111      DA200D42 
 111      7C102299 
 111      9C2D9DB1 
 111      65
 112 00f8 F2F98274 		.ascii	"\362\371\202t\000|W\025\2206\0209\327f\2178\2349\212"
 112      007C5715 
 112      90361039 
 112      D7668F38 
 112      9C398A
 113 010b 2BECF664 		.ascii	"+\354\366dgx\263|\376@0-\224\231\016\033\024Y\022/\273"
 113      6778B37C 
 113      FE40302D 
 113      94990E1B 
 113      1459122F 
 114 0120 36706A03 		.ascii	"6pj\003\2276\360h\003\2576\010i\203r\271B\206\226\222"
 114      9736F068 
 114      03AF3608 
 114      698372B9 
 114      42869692 
 115 0134 DB8D64F1 		.ascii	"\333\215d\361\327*}%w\215\273\023jq\270\232\362V\012"
 115      D72A7D25 
 115      778DBB13 
 115      6A71B89A 
 115      F2560A
 116 0147 6E38088B 		.ascii	"n8\010\213%\372\261\376\003\323;}\016\033\237\207\006"
 116      25FAB1FE 
 116      03D33B7D 
 116      0E1B9F87 
 116      06
 117 0158 70483481 		.ascii	"pH4\201R\375%{R\235N\225\250\311\221/\340\340\253\317"
 117      52FD257B 
 117      529D4E95 
 117      A8C9912F 
 117      E0E0ABCF 
 118 016c 81542D03 		.ascii	"\201T-\003A\220\021l\010v\004\007\202\023AAp!\270\021"
 118      4190116C 
 118      08760407 
 118      82134141 
 118      7021B811 
ARM GAS  C:\Users\AMANRA~1\AppData\Local\Temp\ccvycJiY.s 			page 9


 119 0180 3C085E04 		.ascii	"<\010^\004\037\202\037!\200\020DHC\010!\244#d d\"d!"
 119      1F821F21 
 119      80104448 
 119      430821A4 
 119      23642064 
 120 0197 64238411 		.ascii	"d#\204\021r\020\"\010\271\010y\010\363\020\346#,@\310"
 120      72102208 
 120      B9087908 
 120      F310E623 
 120      2C40C8
 121 01aa 475888B0 		.ascii	"GX\210\260\010a\005\202$\225\322\355\364z\324\244T&"
 121      08610582 
 121      2495D2ED 
 121      F47AD4A4 
 121      5426
 122 01bc 133A284A 		.ascii	"\023:(JJw\240e|\250\243\330\215{\244\373\256,n\271\340"
 122      4A77A065 
 122      7CA8A3D8 
 122      8D7BA4FB 
 122      AE2C6EB9 
 123 01d1 DC2C57CB 		.ascii	"\334,W\313\004\320\206\370\247\255\267]\374R\275_\252"
 123      04D086F8 
 123      A7ADB75D 
 123      FC52BD5F 
 123      AA
 124 01e2 DAE854CF 		.ascii	"\332\350T\317\321\376>G-\324\304\250\203\265\221jY\206"
 124      D1FE3E47 
 124      2DD4C4A8 
 124      83B5916A 
 124      5986
 125 01f4 1F200F0E 		.ascii	"\037 \017\016Q\021x\303\335[\035\307\375\321}j<\246"
 125      511178C3 
 125      DD5B1DC7 
 125      FDD17D6A 
 125      3CA6
 126 0206 E657CB36 		.ascii	"\346W\31368\014\265\260\223y\013G J?p\370JU\247\035"
 126      380CB5B0 
 126      93790B47 
 126      204A3F70 
 126      F84A55A7 
 127 021b 196D8039 		.ascii	"\031m\2009\000h\244w2\021\347\007\034f\021v&\342\263"
 127      0068A477 
 127      3211E707 
 127      1C661176 
 127      26E2B3
 128 022e A9F87E17 		.ascii	"\251\370~\027\277To\304\230\210\272\346&\325e\020\341"
 128      BF546FC4 
 128      9888BAE6 
 128      26D56510 
 128      E1
 129 023f 80A35444 		.ascii	"\200\243TD\223\020q|WC\011\030D\034c\"0\201p\234\211"
 129      9310717C 
 129      57430918 
 129      441C6322 
 129      3081709C 
 130 0254 68DD3FD9 		.ascii	"h\335?\331\357\322D\310p\202Kh\032\276\316%T\311`\332"
 130      EFD244C8 
ARM GAS  C:\Users\AMANRA~1\AppData\Local\Temp\ccvycJiY.s 			page 10


 130      70824B68 
 130      1ABECE25 
 130      54C960DA 
 131 0268 68FEBFEE 		.ascii	"h\376\277\356\023\220\344$\013@0@\022\242\224\253\350"
 131      1390E424 
 131      0B403040 
 131      12A294AB 
 131      E8
 132 0279 51023813 		.ascii	"Q\0028\023\341d\015\247\333\022\012F\004\372j\346\361"
 132      E1640DA7 
 132      DB120A46 
 132      04FA6AE6 
 132      F1
 133 028a 2E6F02B1 		.ascii	".o\002\261a\013\241Z\364P\247 Z\305Fe\262,\321\023\304"
 133      610BA15A 
 133      F450A720 
 133      5AC54665 
 133      B22CD113 
 134 029f B3D934DC 		.ascii	"\263\3314\3347\340\344\261\345\377M-\214:\255\223\267"
 134      37E0E4B1 
 134      E5FF4D2D 
 134      8C3AAD93 
 134      B7
 135 02b0 F27D3C49 		.ascii	"\362}<It\3309\231\215\363\265\246\036&\003|#\004~\244"
 135      74D83999 
 135      8DF3B5A6 
 135      1E26037C 
 135      23047EA4 
 136 02c4 3C0310BF 		.ascii	"<\003\020\277v\352\254\330-\346\246~\244q\302\307?!"
 136      76EAACD8 
 136      2DE6A67E 
 136      A471C2C7 
 136      3F21
 137 02d6 411B4692 		.ascii	"A\033F\222\260\360r%z\366\241L\266\315\324]\323\360"
 137      B0F07225 
 137      7AF6A14C 
 137      B6CDD45D 
 137      D3F0
 138 02e8 C89742A9 		.ascii	"\310\227B\251\335\232\011\355L';\232\035\232N\241@\220"
 138      DD9A09ED 
 138      4C273B9A 
 138      1D9A4EA1 
 138      4090
 139 02fa 9D7850FC 		.ascii	"\235xP\374\001\327\360$\225J\005\240s\016\226\237\321"
 139      01D7F024 
 139      954A05A0 
 139      730E969F 
 139      D1
 140 030b A39D45CB 		.ascii	"\243\235E\313\035\314r\273\321\362\321V\261\021\247"
 140      1DCC72BB 
 140      D1F2D156 
 140      B111A7
 141 031a 55CBCFE9 		.ascii	"U\313\317\351\344\347\265\255t\013\313\025\316\367x"
 141      E4E7B5AD 
 141      740BCB15 
 141      CEF778
 142 0329 A8A21BF8 		.ascii	"\250\242\033\370f\274p\201[\3363c\271b\3608\"<v\030"
ARM GAS  C:\Users\AMANRA~1\AppData\Local\Temp\ccvycJiY.s 			page 11


 142      66BC7081 
 142      5BDE3363 
 142      B962F038 
 142      223C7618 
 143 033d 3C9ED06A 		.ascii	"<\236\320j\332em\327\027\365Z\3502y\354\346d\365\035"
 143      DA656DD7 
 143      17F55AE8 
 143      3279ECE6 
 143      64F51D
 144 0350 C56D42D7 		.ascii	"\305mB\327\004\300\24598\374\223\036\3532:\354\346\035"
 144      04C0A539 
 144      38FC931E 
 144      EB323AEC 
 144      E61D
 145 0362 61929787 		.ascii	"a\222\227\207\345\246sE\367\364gv\336g\032\212\215\226"
 145      E5A67345 
 145      F7F46776 
 145      DE671A8A 
 145      8D96
 146 0374 E42FDA69 		.ascii	"\344/\332i\337<(\234\361XS{UW\333m:\355^N6xoo\271\223"
 146      DF3C289C 
 146      F158537B 
 146      5557DB6D 
 146      3AED5E4E 
 147 038e 3BA3AA36 		.ascii	";\243\2526\2706\007kz\364`\275h\215\227\025\237\323"
 147      B836076B 
 147      7AF460BD 
 147      688D9715 
 147      9FD3
 148 03a0 587C5BDA 		.ascii	"X|[\332D\361\371\254\026\337u\235\274O\313q\243(>?\347"
 148      44F1F9AC 
 148      16DF759D 
 148      BC4FCB71 
 148      A3283E3F 
 149 03b5 3B555313 		.ascii	";US\023'\332V\024\370\325|\342\375\206\362\313\021\345"
 149      27DA5614 
 149      F8D57CE2 
 149      FD86F2CB 
 149      11E5
 150 03c7 A718CAEF 		.ascii	"\247\030\312\357\223\022!.`m\3377\2304\033J\373\315"
 150      9312212E 
 150      606DDF37 
 150      98341B4A 
 150      FBCD
 151 03d9 64729092 		.ascii	"dr\220\222\315\251\207\366\353\3347\321\323 \363\324"
 151      CDA987F6 
 151      EBDC37D1 
 151      D320F3D4 
 152 03e9 65F4B45A 		.ascii	"e\364\264Z\3634\315\252\247\267t\362\001s\017\015Q\276"
 152      F334CDAA 
 152      A7B774F2 
 152      01730F0D 
 152      51BE
 153 03fb A79B66C8 		.ascii	"\247\233f\310`aXX\3506|;\177S\342\236\3251\270\315\224"
 153      60615858 
 153      E8367C3B 
 153      7F53E29E 
ARM GAS  C:\Users\AMANRA~1\AppData\Local\Temp\ccvycJiY.s 			page 12


 153      D531B8CD 
 154 0410 E0B3120C 		.ascii	"\340\263\022\014\262c\220\234\034\273%\276\366J\353"
 154      B263909C 
 154      1CBB25BE 
 154      F64AEB
 155 041f 62CFC390 		.ascii	"b\317\303\220v\022\366j'!\335\232\221\303z\375\3341"
 155      7612F66A 
 155      2721DD9A 
 155      91C37AFD 
 155      DC31
 156 0431 25298393 		.ascii	"%)\203\223u\015L^pi\345C\353\347\356\034\3226\242G\033"
 156      750D4C5E 
 156      7069E543 
 156      EBE7EE1C 
 156      D236A247 
 157 0446 C5B465B0 		.ascii	"\305\264e\260\264y\214i;\242\245-\323\364\220\220\377"
 157      B4798C69 
 157      3BA2A52D 
 157      D3F49090 
 157      FF
 158 0457 5FCF08F7 		.ascii	"_\317\010\367\0309\266v\0303\247-\213\363\365t\036\271"
 158      1839B676 
 158      1833A72D 
 158      8BF3F574 
 158      1EB9
 159 0469 3C73AA01 		.ascii	"<s\252\001\356\233\363\230e\310c6\313c)\325\330\353"
 159      EE9BF398 
 159      65C86336 
 159      CB6329D5 
 159      D8EB
 160 047b A1E9F41A 		.ascii	"\241\351\364\032E^\035\024\"\263\255\326\326\357\272"
 160      455E1D14 
 160      22B3ADD6 
 160      D6EFBA
 161 048a 037F9845 		.ascii	"\003\177\230E\2069\337\231T\371\230}\306\360 \374iV"
 161      8639DF99 
 161      54F9987D 
 161      C6F020FC 
 161      6956
 162 049c 1936A8CC 		.ascii	"\0316\250\314\022\325\3463T[\371\236\3315\335q\275\351"
 162      12D5E633 
 162      545BF99E 
 162      D935DD71 
 162      BDE9
 163 04ae FEC5AAAD 		.ascii	"\376\305\252\255\271owB{\310\252\373\374\264\014\017"
 163      B96F7742 
 163      7BC8AAFB 
 163      FCB40C0F 
 164 04be B4721BE9 		.ascii	"\264r\033\351\020\006\344\030{\263\223=\354m*j\376^"
 164      1006E418 
 164      7BB3933D 
 164      EC6D2A6A 
 164      FE5E
 165 04d0 E1976A72 		.ascii	"\341\227jr\273\352\247S\335\243\361\003\036\335\"\005"
 165      BBEAA753 
 165      DDA3F103 
 165      1EDD2205 
ARM GAS  C:\Users\AMANRA~1\AppData\Local\Temp\ccvycJiY.s 			page 13


 166 04e0 1E51190F 		.ascii	"\036Q\031\017\205\214\246\221=\207\035\006\031\023L"
 166      858CA691 
 166      3D871D06 
 166      19134C
 167 04ef 06FE2E80 		.ascii	"\006\376.\200Ij\021\333\372r=Z\327\326\366s>.jG{L%\360"
 167      496A11DB 
 167      FA723D5A 
 167      D7D6F673 
 167      3E2E6A47 
 168 0507 58985126 		.ascii	"X\230Q&\373\245iY\244\250\3435~G\304\250\317\305\364"
 168      FBA56959 
 168      A4A8E335 
 168      7E47C4A8 
 168      CFC5F4
 169 051a C51A8F55 		.ascii	"\305\032\217U\330\371\245z\255\210\351\273\3235~\321"
 169      D8F9A57A 
 169      AD88E9BB 
 169      D3357ED1 
 170 052a AEEB73C3 		.ascii	"\256\353s\303\024\325\367D\350Kl+\237\222\251\276\012"
 170      14D5F744 
 170      E84B6C2B 
 170      9F92A9BE 
 170      0A
 171 053b A6CF03D3 		.ascii	"\246\317\003\323L\237\202\372R\232\276q\233\036.9Us"
 171      4C9F82FA 
 171      529ABE71 
 171      9B1E2E39 
 171      5573
 172 054d C88FFC1E 		.ascii	"\310\217\374\036h\216\237,\245\336\021M`@\332\007Z\226"
 172      688E9F2C 
 172      A5DE114D 
 172      6040DA07 
 172      5A96
 173 055f 46CB9E7A 		.ascii	"F\313\236zb\3672}C\337\265M\372\370\245\372\210?\261"
 173      62F7327D 
 173      43DFB54D 
 173      FAF8A5FA 
 173      883FB1
 174 0572 5FFAAAAE 		.ascii	"_\372\252\256Y\321\362\3706\375!\340\203\215$\017b\204"
 174      59D1F2F8 
 174      36FD21E0 
 174      838D240F 
 174      6284
 175 0584 2B4CDD9C 		.ascii	"+L\335\234<h<\011E\004\025\342\017*\210\023L\344\303"
 175      3C683C09 
 175      450415E2 
 175      0F2A8813 
 175      4CE4C3
 176 0597 D6924A3F 		.ascii	"\326\222J?\367\254\230\320\277<\246&(\325\27355c3j,"
 176      F7AC98D0 
 176      BF3CA626 
 176      28D5BB35 
 176      3563336A 
 177 05ac C64AE8B1 		.ascii	"\306J\350\261JX\254\373\007z\013E(?\224\212Pi\206\357"
 177      4A58ACFB 
 177      077A0B45 
 177      283F948A 
ARM GAS  C:\Users\AMANRA~1\AppData\Local\Temp\ccvycJiY.s 			page 14


 177      506986EF 
 178 05c0 93D26F45 		.ascii	"\223\322oE\355\344Zk\036ed\246<7\221\177\266\252<J\306"
 178      EDE45A6B 
 178      1E6564A6 
 178      3C37917F 
 178      B6AA3C4A 
 179 05d5 BAF26C1B 		.ascii	"\272\362l\033\323f\235\273\234\320\306\304U\207\214"
 179      D3669DBB 
 179      9CD0C6C4 
 179      55878C
 180 05e4 67BEEC8C 		.ascii	"g\276\354\214\220=\317\352\231\337\242\223o%\246\007"
 180      903DCFEA 
 180      99DFA293 
 180      6F25A607 
 181 05f4 C4F994EF 		.ascii	"\304\371\224\357\351'\302\371\224\245\352\350x\247h"
 181      E927C2F9 
 181      94A5EAE8 
 181      78A768
 182 0603 030A6C23 		.ascii	"\003\012l#\332\201\317\024\007>\335\340\350\356w\370"
 182      DA81CF14 
 182      073EDDE0 
 182      E8EE77F8 
 183 0613 6D0BAC6D 		.ascii	"m\013\254mz;\323\345F];L\206\346S2\326\036gk\350\207"
 183      7A3BD3E5 
 183      465D3B4C 
 183      86E65332 
 183      D61E676B 
 184 0629 3AF74768 		.ascii	":\367Ghh>S\352\342\354\013\255qU0.\374\267\000\3544"
 184      683E53EA 
 184      E2EC0BAD 
 184      7155302E 
 184      FCB700EC 
 185 063e E95C44C9 		.ascii	"\351\\D\311\346\244\263R\347\336\205:\027\031u\256\260"
 185      E6A4B352 
 185      E7DE853A 
 185      171975AE 
 185      B0
 186 064f 9AE9DD3A 		.ascii	"\232\351\335:\333\307T\351=\330X;\270\227\251\022\331"
 186      DBC754E9 
 186      3DD8583B 
 186      B897A912 
 186      D9
 187 0660 039A35DA 		.ascii	"\003\2325\332\374W.Y\022\245\177\253V\257ysM\341\272"
 187      FC572E59 
 187      12A57FAB 
 187      56AF7973 
 187      4DE1BA
 188 0673 A52B973E 		.ascii	"\245+\227>\023-\\\027]\375\306\332\350\273\205\357\275"
 188      132D5C17 
 188      5DFDC6DA 
 188      E8BB85EF 
 188      BD
 189 0684 BF2EFAF2 		.ascii	"\277.\372\362+/-{\226\343\213\313\327\257\307\225\327"
 189      2B2F2D7B 
 189      96E38BCB 
 189      D7AFC795 
 189      D7
ARM GAS  C:\Users\AMANRA~1\AppData\Local\Temp\ccvycJiY.s 			page 15


 190 0695 D7AE7D6B 		.ascii	"\327\256}k\311*\351o\332w\244\235"
 190      C92AE96F 
 190      DA77A49D 
 191              		.text
 192              		.section	.gnu.lto_.symbol_nodes.30498bcd,"",%progbits
 193 0000 789C6363 		.ascii	"x\234cc``H\004b\006\246SL\365\014\014\023\31610\000"
 193      60604804 
 193      6206A653 
 193      4CF50C0C 
 193      13CE3130 
 194 0015 A95D0D8E 		.ascii	"\251]\015\216@\221\323L\365\214(\"\254'\230\030\032"
 194      4091D34C 
 194      F58C2822 
 194      AC279818 
 194      1A
 195 0026 95808A19 		.ascii	"\225\200\212\031\3172\3253\201\245\030\030\032\032\034"
 195      CF32D533 
 195      81A51818 
 195      1A1A1C
 196 0035 80026798 		.ascii	"\200\002g\230\352\231\221\005\230\031X\030\236L{#\317"
 196      EA999105 
 196      98195818 
 196      9E4C7B23 
 196      CF
 197 0046 0C64B54C 		.ascii	"\014d\265L\177#\317\000\000\232\202\027\274"
 197      7F23CF00 
 197      009A8217 
 197      BC
 198              		.text
 199              		.section	.gnu.lto_.refs.30498bcd,"",%progbits
 200 0000 789C6363 		.ascii	"x\234cc```\004b\006\000\000D\000\010"
 200      60606004 
 200      62060000 
 200      440008
 201              		.text
 202              		.section	.gnu.lto_.decls.30498bcd,"",%progbits
 203 0000 789CCD59 		.ascii	"x\234\315Y}P\024I\226\357\254\354\017\032\020\0154n"
 203      7D501449 
 203      96EFACEC 
 203      0F1A100D 
 203      346E
 204 0012 BD0D22D6 		.ascii	"\275\015\"\326\360\334\035\342\356\026\004\335\035\367"
 204      F0DC1DE2 
 204      EE1604DD 
 204      1DF7
 205 0020 6EEF6EB1 		.ascii	"n\357n\261\221\2018\335!\032g/f\216\010\326\001\346"
 205      918138DD 
 205      211A672F 
 205      668E08D6 
 205      01E6
 206 0032 865D8159 		.ascii	"\206]\201Y\301;\215\275?\212/E\020EEGD\300\021f\204"
 206      C13B8DBD 
 206      3F8A2F45 
 206      10454547 
 206      44C01166 
 207 0047 81415C3F 		.ascii	"\201A\\?\020\001i\001\031d\024\265U\004\004l\021\021"
 207      10016901 
ARM GAS  C:\Users\AMANRA~1\AppData\Local\Temp\ccvycJiY.s 			page 16


 207      196414B5 
 207      5504046C 
 207      1111
 208 0059 C10F04F1 		.ascii	"\301\017\004\361\003P\356ef\025\225]\335\314\314^\\"
 208      0350EE65 
 208      6615955D 
 208      DDCCCC5E 
 208      5C
 209 006a 5C6C07AF 		.ascii	"\\l\007\257\252^\346/\337{\371\336\313\254|\205^\243"
 209      AA5EE62F 
 209      DF7BF9DE 
 209      CBAC7C85 
 209      5EA3
 210 007c D1BCFF23 		.ascii	"\321\274\377#\215&]\253\321\374\022i4\323\360\303\320"
 210      8D265DAB 
 210      D1FC1269 
 210      34D3F0C3 
 210      D0
 211 008d 764EA3FC 		.ascii	"vN\243\374\240KS\003T\007T/\365\001T\323\246\261\377"
 211      A04B5303 
 211      5407542F 
 211      F50154D3 
 211      A6B1FF
 212 00a0 FD17341A 		.ascii	"\375\0274\032\341\376[\240\267\200~\002\374\022\240"
 212      E1FE5BA0 
 212      B7807E02 
 212      FC12A0
 213 00af ABF0EC03 		.ascii	"\253\360\354\003\367\277\007\362\005:\243a8\035<\377"
 213      F7BF07F2 
 213      053AA361 
 213      381D3CFF 
 214 00bf 00C815C8 		.ascii	"\000\310\025\310\005\350G@?\004z\013h\001\320\337\""
 214      05E84740 
 214      3F047A0B 
 214      6801D0DF 
 214      22
 215 00d0 45B71F62 		.ascii	"E\267\037bz\3535\216\277?B\237\307w\350\375\027\240"
 215      7AEB358E 
 215      BF3F429F 
 215      C777E8FD 
 215      17A0
 216 00e2 7F02CA00 		.ascii	"\177\002\312\000J\007Z\005T\010\224\017\344\256a\272"
 216      4A075A05 
 216      5408940F 
 216      E4AE61BA 
 217 00f2 89DE3940 		.ascii	"\211\3369@\177\015\264\030H/\331\360s\240d\240<2? /"
 217      7F0DB418 
 217      482FD9F0 
 217      73A064A0 
 217      3C323F20 
 218 0107 C4E65FE7 		.ascii	"\304\346_\347\304\226\034\214\316\234\253\253w\273\215"
 218      C4961C8C 
 218      CE9CABAB 
 218      77BB8D
 219 0116 7A9000B0 		.ascii	"z\220\000\260y\264\025!v\205;!\312O\313?\304\332\241"
 219      79B41521 
 219      76853B21 
ARM GAS  C:\Users\AMANRA~1\AppData\Local\Temp\ccvycJiY.s 			page 17


 219      CA4FCB3F 
 219      C4DAA1
 220 0129 55603709 		.ascii	"U`7\011J\030y\010\232i\021$\031\202,\227\376I\002\020"
 220      4A187908 
 220      9A691124 
 220      19822C97 
 220      FE490210 
 221 013d 2F95F533 		.ascii	"/\225\3653u\362\217E\216=p\343X\223\240(\343\2068\330"
 221      75F28F45 
 221      8E3D70E3 
 221      5893A028 
 221      E38638D8 
 222 0151 AA99E99E 		.ascii	"\252\231\351\2361J\231$\222\234\320}t\244EgC\275\320"
 222      314A9924 
 222      929CD07D 
 222      74A44567 
 222      43BDD0
 223 0164 FBBE8726 		.ascii	"\373\276\207&\333%\026\221\326\334\202\235\225\030\013"
 223      DB251691 
 223      D6DC829D 
 223      95180B
 224 0173 F4F9E61E 		.ascii	"\364\371\346\036k\231\007\236K\237\3632\332[\004\237"
 224      6B99079E 
 224      4B9FF332 
 224      DA5B049F 
 225 0183 7291FD5C 		.ascii	"r\221\375\\\366c\015:\205\260\354\320\363\323/,s31\362"
 225      F6630D3A 
 225      85B0ECD0 
 225      F3D32F2C 
 225      733331F2 
 226 0197 744502B0 		.ascii	"tE\002\260\326\221\213\371n\300.pE\363\200-\337>\235"
 226      D6918BF9 
 226      6EC02E70 
 226      45F3802D 
 226      DF3E9D
 227 01aa A35BB88F 		.ascii	"\243[\270\217\014\314N\021\347\011\350\267\177\205\252"
 227      0CCC4E11 
 227      E709E8B7 
 227      7F85AA
 228 01b9 91173A8D 		.ascii	"\221\027:\215\274\300\2343h!\\\343\264L\322\215]\326"
 228      BCC09C33 
 228      68215CE3 
 228      B44CD28D 
 228      5DD6
 229 01cb D373171F 		.ascii	"\323s\027\037\022\017\331D\313\345\003\336\005\027\267"
 229      120FD944 
 229      CBE503DE 
 229      0517B7
 230 01da 885760DC 		.ascii	"\210W`\334\257(\016\235D\030U!\0372\213\223D;:\201l"
 230      AF280E9D 
 230      44185521 
 230      1F328B93 
 230      443B3A81 
 231 01ef 081D47B7 		.ascii	"\010\035G\267a\0225h1\214\027\007k\272\347\342LD\215"
 231      61123568 
 231      318C1707 
 231      6BBAE7E2 
ARM GAS  C:\Users\AMANRA~1\AppData\Local\Temp\ccvycJiY.s 			page 18


 231      4C448D
 232 0202 2E2DC8DB 		.ascii	".-\310\333\341!\011\263\376\335\001\321\222\014\242"
 232      E12109B3 
 232      FEDD01D1 
 232      920CA2
 233 0211 042AA956 		.ascii	"\004*\251V\221T\253\226TG%e\016O\354D\370 \223\224T"
 233      9154AB96 
 233      54472565 
 233      0E4FEC44 
 233      F8209394 
 234 0226 5BD3A407 		.ascii	"[\323\244\007I6Q\264\334/\367\276P9(\246\2732\233\316"
 234      493651B4 
 234      DC2FF7BE 
 234      503928A6 
 234      BB329BCE 
 235 023a 2A92CE4A 		.ascii	"*\222\316J\036A\365T\302\205\373\015\275\030\333\230"
 235      1E41F554 
 235      C285FB0D 
 235      BD18DB98 
 236 024a 84B2E4ED 		.ascii	"\204\262\344\355\375s$\011\215u+\276l\334b\011e\002"
 236      FD732409 
 236      8D752BBE 
 236      6CDC6209 
 236      6502
 237 025c 2C8A008B 		.ascii	",\212\000\213,\340\034\025\320\323RZ\206\301\217o\271"
 237      2CE01C15 
 237      D0D3525A 
 237      86C18F6F 
 237      B9
 238 026d 2212DAB9 		.ascii	"\"\022\332\271\320t\364a\365\2539\254\211H\265\356\034"
 238      D074F461 
 238      F5AB39AC 
 238      8948B5EE 
 238      1C
 239 027e 2D36E062 		.ascii	"-6\340b\026\257\253\251\225\0071\213\202\026\330\247"
 239      16AFABA9 
 239      9507318B 
 239      8216D8A7 
 240 028e 970EDCF5 		.ascii	"\227\016\334\365`QX\224\203\205\333\235\223\335\036"
 240      60515894 
 240      8385DB9D 
 240      93DD1E
 241 029d C8D53B5D 		.ascii	"\310\325;]\024\223\305C)\2421X\203\232!\012\347!\012"
 241      1493C543 
 241      29A23158 
 241      839A210A 
 241      E7210A
 242 02b0 A8057913 		.ascii	"\250\005y\023\221\304\014\324\010\215\015\320\370\005"
 242      91C40CD4 
 242      088D0DD0 
 242      F805
 243 02be 099865FA 		.ascii	"\011\230e\372\322?\347\216\212\342\"\3645rEM\212\251"
 243      D23FE78E 
 243      8AE222F4 
 243      3572454D 
 243      8AA9
 244 02d0 6FB9B280 		.ascii	"o\271\262\200\225\026\357:\254\307\3730\261@\250\311"
ARM GAS  C:\Users\AMANRA~1\AppData\Local\Temp\ccvycJiY.s 			page 19


 244      9516EF3A 
 244      ACC7FB30 
 244      B140A8C9 
 245 02e0 BB775E98 		.ascii	"\273w^\230M\3077\263\353\030^\334\234F\"\323\012:.("
 245      4DC737B3 
 245      EB185EDC 
 245      9C4622D3 
 245      0A3A2E28 
 246 02f4 3A40A594 		.ascii	":@\245\224\025\015]\375\006\230\012\351\027\237e]!m"
 246      150D5DFD 
 246      06980AE9 
 246      179F655D 
 246      216D
 247 0306 95C5F7FE 		.ascii	"\225\305\367\376\006OR\275hG\311\345n\375\217\213\304"
 247      064F52BD 
 247      6847C9E5 
 247      6EFD8F8B 
 247      C4
 248 0317 430D246B 		.ascii	"C\015$k~Y\334\270E\314F\024}\211I\233\261BC[.\022{\332"
 248      7E59DCB8 
 248      45CC4614 
 248      7D89499B 
 248      B142435B 
 249 032f D08F61E8 		.ascii	"\320\217a\350\251\201\013\315\256\314i\"\002\336\322"
 249      A9810BCD 
 249      AECC6922 
 249      02DED2
 250 033e BCFD11C2 		.ascii	"\274\375\021\302\231Z*w\277\365\330*W\230L\312\367\232"
 250      995A2A77 
 250      BFF5D82A 
 250      57984CCA 
 250      F79A
 251 0350 0C0C48BF 		.ascii	"\014\014H\277\263\365\232$\355%\341\017\324<k\3251\336"
 251      B3F59A24 
 251      ED25E10F 
 251      D43C6BD5 
 251      31DE
 252 0362 05D8AAC7 		.ascii	"\005\330\252\307eUsXH,\244{\272\341E\307\034\274\213"
 252      65557358 
 252      482CA47B 
 252      BAE145C7 
 252      1CBC8B
 253 0375 29DB3532 		.ascii	")\33352\272GO\264\211L\033\031\244\230\335N|\201|\275"
 253      BA474FB4 
 253      894C1B19 
 253      A498DD4E 
 253      7C817CBD 
 254 0389 D052AAA8 		.ascii	"\320R\252\250\352d\321\023\027\317l\272\246`yh\351d"
 254      EA64D113 
 254      17CF6CBA 
 254      A6607968 
 254      E964
 255 039b AF03FA1A 		.ascii	"\257\003\372\032E\337D\236\362\030\252\347Ag\221\221"
 255      45DF449E 
 255      F218AAE7 
 255      41679191 
 256 03ab 993142F8 		.ascii	"\2311B\370O\253\373F<p\236\244\267q|\314\015\0272\246"
ARM GAS  C:\Users\AMANRA~1\AppData\Local\Temp\ccvycJiY.s 			page 20


 256      4FABFB46 
 256      3C709EA4 
 256      B7717CCC 
 256      0D1732A6 
 257 03bf FB70CEE7 		.ascii	"\373p\316\347Z\206\034$|\376\324T\252\026\027\263\316"
 257      5A861C24 
 257      7CFED454 
 257      AA1617B3 
 257      CE
 258 03d0 E49ACE5D 		.ascii	"\344\232\316]\3222\267\321\354K\336S\254\307\025\254"
 258      D232B7D1 
 258      EC4BDE53 
 258      ACC715AC 
 259 03e0 73F2F191 		.ascii	"s\362\361\221\021=>\315\230\252;{\353%\205\035\204o"
 259      113D3ECD 
 259      98AA3B7B 
 259      EB25851D 
 259      846F
 260 03f2 1C3BF8D4 		.ascii	"\034;\370\324\0357\260\316\264\342\353\333\015\370\""
 260      1D37B0CE 
 260      B4E2EBDB 
 260      0DF822
 261 0401 63AE0D7C 		.ascii	"c\256\015|\226\352\316\2204\254c\267\262\232\335q;\353"
 261      96EACE90 
 261      34AC63B7 
 261      B29ADD71 
 261      3BEB
 262 0413 6C6AB97B 		.ascii	"lj\271{\315\005\333\030\223y\376d\263\224\336-tM\016"
 262      CD05DB18 
 262      9379FE64 
 262      B394DE2D 
 262      744D0E
 263 0426 566EC578 		.ascii	"Vn\305xHR(y\326S\362\354\323+\215\031F\374\214u^\332"
 263      48522879 
 263      D653F2EC 
 263      D32B8D19 
 263      46FC8C75 
 264 043c B67BAF80 		.ascii	"\266{\257\200\247\030S2pp\207\244p\005qM\336H\276;N"
 264      A7185332 
 264      707087A4 
 264      7005714D 
 264      DE48BE3B 
 265 0451 D5D1BEDA 		.ascii	"\325\321\276\332\242\264R\027\274\20315U\265\315R\354"
 265      A2B45217 
 265      BC833135 
 265      55B5CD52 
 265      EC
 266 0462 96029BDA 		.ascii	"\226\002\233\332\226\325\355\216\367\261\276\212\301"
 266      96D5ED8E 
 266      F7B1BE8A 
 266      C1
 267 046f AD16032E 		.ascii	"\255\026\003.`L\336X\317\003i\262\336D\310\245W\345"
 267      604CDE58 
 267      CF0369B2 
 267      DE44C8A5 
 267      57E5
 268 0481 1EF80BD6 		.ascii	"\036\370\013\326'/BO\272\010Q\355\255\223\276\270\222"
ARM GAS  C:\Users\AMANRA~1\AppData\Local\Temp\ccvycJiY.s 			page 21


 268      272F424F 
 268      BA0851ED 
 268      AD93BEB8 
 268      92
 269 0492 757D3658 		.ascii	"u}6X\275g.\256f\314\343\324{67\206[\010\354\235\236"
 269      BD672EAE 
 269      66CCE3D4 
 269      7B363786 
 269      5B08EC9D 
 270 04a7 FB191EB8 		.ascii	"\373\031\036\270\201\365m\251\337[g\304\027\031#\357"
 270      81F56DA9 
 270      DF5B67C4 
 270      171923EF 
 271 04b7 AD9E6C6F 		.ascii	"\255\236lom\262\365\"|\203u\015gX:\005\334\313\230\322"
 271      6DB2F522 
 271      7C83750D 
 271      67583A05 
 271      DCCB98D2 
 272 04cb EAAC3B3A 		.ascii	"\352\254;:|\2371w\253R\237k\3610c\312\246\012\256\030"
 272      7C9F3177 
 272      AB529F6B 
 272      F13063CA 
 272      A60AAE18 
 273 04df F10863AE 		.ascii	"\361\010c\256\234\261\335\363\300/\031S~\351\353n\311"
 273      9CB1DDF3 
 273      C02F1953 
 273      7EE9EB6E 
 273      C9
 274 04f0 C3E9642D 		.ascii	"\303\351d-\224\227\364\014\030\244t%\351[|\3326\205"
 274      9497F40C 
 274      18A47425 
 274      E95B7CDA 
 274      3685
 275 0502 F024052F 		.ascii	"\360$\005/:5\236S\246GK\034~\363\351\325[\342\016\213"
 275      3A359E53 
 275      A6474B1C 
 275      7EF3E9D5 
 275      5BE20E8B 
 276 0516 A929A2E5 		.ascii	"\251)\242\345E\013\236:^|5I,^\210\256B\242\366\301\032"
 276      450B9E3A 
 276      5E7C3549 
 276      2C5E88AE 
 276      42A2F6C1 
 277 052b DC2BCC57 		.ascii	"\334+\314W\226\223\215f\255\037\\4\207\311\336a\231"
 277      96938D66 
 277      AD1F5C34 
 277      87C9DE61 
 277      99
 278 053c C8C7B05F 		.ascii	"\310\307\260_\247\262%\377B\015\177N\341\315\210\341"
 278      A7B225FF 
 278      420D7F4E 
 278      E1CD88E1 
 279 054c 89863E19 		.ascii	"\211\206>\031O\304O\252\361\257x\361\004\336\312\303"
 279      4FC44FAA 
 279      F1AF78F1 
 279      04DECAC3 
 280 055c DFA8E1BE 		.ascii	"\337\250\341\276\274t\262A5\224\340$\012\207u\205\272"
ARM GAS  C:\Users\AMANRA~1\AppData\Local\Temp\ccvycJiY.s 			page 22


 280      BC74B241 
 280      3594E024 
 280      0A877585 
 280      BA
 281 056d 25B8BCDA 		.ascii	"%\270\274\332\320-\007\351\005\234\364gj\351c\016\306"
 281      D02D07E9 
 281      059CF467 
 281      6AE9630E 
 281      C6
 282 057e 371472F8 		.ascii	"7\024r\370\007j\374\240#\236\227?\356\\\276\237b}k!"
 282      076AFCA0 
 282      239E973F 
 282      EE5CBE9F 
 282      627D6B21 
 283 0592 67FD7DB5 		.ascii	"g\375}\265\365\003jx\027?\331\033j\270U=\331\006\336"
 283      F5036A78 
 283      173FD91B 
 283      6AB8553D 
 283      D906DE
 284 05a5 95D34E5D 		.ascii	"\225\323N]\311\305u\264\200\213\353C5z\030\251=o-\340"
 284      C9C575B4 
 284      808BEB43 
 284      357A18A9 
 284      3D6F2DE0 
 285 05b9 8C19551B 		.ascii	"\214\031U\033\363TmL\027o\314\224Z\3745\007O\216\362"
 285      F3546D4C 
 285      176FCC94 
 285      5AFC3507 
 285      4F8EF2
 286 05cc F897CED3 		.ascii	"\370\227\316\323\214\023\337\307;\376\211\032\376\330"
 286      8C13DFC7 
 286      3BFE891A 
 286      FED8
 287 05da 41FC108F 		.ascii	"A\374\020\217\177\344|\266|\336\224p\360.5\274C\201"
 287      7FE47CB6 
 287      7CDE9470 
 287      F02E35BC 
 287      4381
 288 05ec EF92F67D 		.ascii	"\357\222\366}\021i5(I\360B\242@\372\010\234\274\354"
 288      11693528 
 288      49F042A2 
 288      40FA089C 
 288      BCEC
 289 05fe F2046F94 		.ascii	"\362\004o\224%,A[\200r\201\262\201\322\200>\005\332"
 289      252C415B 
 289      807281B2 
 289      81D2803E 
 289      05DA
 290 0610 05940A94 		.ascii	"\005\224\012\224\001\224\016\264\023\250\000h7\320\036"
 290      01940EB4 
 290      13A80068 
 290      37D01E
 291 061f A01D4085 		.ascii	"\240\035@\205@\333\2002\201\366\001}\006\224\002\264"
 291      40DB8032 
 291      81F6017D 
 291      069402B4 
 292 062f 1FE800D0 		.ascii	"\037\350\000\320A\240\255@9@\207\201\266\003\035\002"
ARM GAS  C:\Users\AMANRA~1\AppData\Local\Temp\ccvycJiY.s 			page 23


 292      41A0AD40 
 292      39408781 
 292      B6031D02 
 293 063f CA1796D0 		.ascii	"\312\027\226\320\343\013\233\215\225\317\352{\352\331"
 293      E30B9B8D 
 293      95CFEA7B 
 293      EAD9
 294 064d DC554F7E 		.ascii	"\334UO~\210\017\305\204\363\025<\223\031\220IC\205\\"
 294      880FC584 
 294      F3153C93 
 294      19904943 
 294      855C
 295 065f 26DD71BE 		.ascii	"&\335q\276\241\360\261\260\362\362_;O\015\316\234Q\336"
 295      A1F0B1B0 
 295      F2F25F3B 
 295      4F0DCE9C 
 295      51DE
 296 0671 FADB6A78 		.ascii	"\372\333jx\217\002gG\230\347\007q\256(\316#(\215t|Q"
 296      8F026747 
 296      98E70771 
 296      AE28CE23 
 296      288D747C 
 297 0686 3CF1A610 		.ascii	"<\361\246\020\227\236\020\305mz*\254\327\2710\273\274"
 297      979E10C5 
 297      6D7A2AAC 
 297      D7B930BB 
 297      BC
 298 0697 E1132159 		.ascii	"\341\023!YP\341/;\340\273\370<\033q\236\227\334\334"
 298      50E12F3B 
 298      E0BBF83C 
 298      1B719E97 
 298      DCDC
 299 06a9 2678F890 		.ascii	"&x\370\220\363\375\206\317z\336\232+j\370e\2075\310"
 299      F3FD86CF 
 299      7ADE9A2B 
 299      6AF86587 
 299      35C8
 300 06bb 7BAEDF79 		.ascii	"{\256\337y\334\355\002\303\213\357t\236\365\014\017"
 300      DCED02C3 
 300      8BEF749E 
 300      F50C0F
 301 06ca AFA0F1F2 		.ascii	"\257\240\361\362\362\0367\334\240\247\307\315;/\252"
 301      F21E37DC 
 301      A0A7C7CD 
 301      3B2FAA
 302 06d9 F30434DF 		.ascii	"\363\0044\337\333\351r@\237\303*\370KY\021R\222\224"
 302      DBE97240 
 302      9FC32AF8 
 302      4B591152 
 302      9294
 303 06eb E0143012 		.ascii	"\340\0240\022\025\203UE\302\3141\227\344\014\235\\}"
 303      15835545 
 303      C2CC3197 
 303      E40C9D5C 
 303      7D
 304 06fc FBC57683 		.ascii	"\373\305v\203{\306\314\341\231\002\225#\340\027\202"
 304      7BC6CCE1 
ARM GAS  C:\Users\AMANRA~1\AppData\Local\Temp\ccvycJiY.s 			page 24


 304      99029523 
 304      E01782
 305 070b 3B2D0EE0 		.ascii	";-\016\340\236\203\265\335\345[\207\341\375;\337[z\307"
 305      9E83B5DD 
 305      E55B87E1 
 305      FD3BDF5B 
 305      7AC7
 306 071d 3ECFE393 		.ascii	">\317\343\223\214l\304%\3167b;o)G\306\022\311U\245\340"
 306      8C6CC425 
 306      CE37623B 
 306      6F2947C6 
 306      12C955A5 
 307 0732 AA2360FA 		.ascii	"\252#`\372\227v\246\017\344\261\374.q\232\337v\252;"
 307      9776A60F 
 307      E4B1FC2E 
 307      719ADF76 
 307      AA3B
 308 0744 9DAA9E89 		.ascii	"\235\252\236\211\340\201?5\325\033p\033\213`V\315d%"
 308      E0813F35 
 308      D51B701B 
 308      8B6056CD 
 308      6425
 309 0756 52477066 		.ascii	"RGpf{\377\012L\371v\263\232\0172\217\226\003\252L\361"
 309      7BFF0A4C 
 309      F976B39A 
 309      0F328F96 
 309      03AA4CF1 
 310 076a 6889ECD1 		.ascii	"h\211\354\321\356\016k+\346=Zn\347\321\012\311\243\025"
 310      EE0E6B2B 
 310      E63D5A6E 
 310      E7D10AC9 
 310      A315
 311 077c C4A3A870 		.ascii	"\304\243\250pj2\327\203\007\223\352L\001\037\225\300"
 311      6A32D783 
 311      0793EA4C 
 311      011F95C0 
 312 078c 472938BF 		.ascii	"G)8\277\343\360Y\001w\321i\240\223M\203\242\001\212"
 312      E3F05901 
 312      77D169A0 
 312      934D83A2 
 312      018A
 313 079e 3B0BAD5A 		.ascii	";\013\255ZW\2647\322\252\365\220T\265V*\206\301\243"
 313      57B437D2 
 313      AAF59054 
 313      B5562A86 
 313      C1A3
 314 07b0 7DAD794C 		.ascii	"}\255yL \205\336+\353\2164\035\036g\302\032{*+]\360"
 314      2085DE2B 
 314      EB8E341D 
 314      1E67C21A 
 314      7B2A2B5D 
 315 07c5 1463E4F2 		.ascii	"\024c\344\362d\201T\236\274\356\257"
 315      6481549E 
 315      BCEEAF
 316 07d0 B719718A 		.ascii	"\267\031q\212\201t\352SGw\303\023=n\315\2379h\345\227"
 316      8174EA53 
 316      4777C313 
ARM GAS  C:\Users\AMANRA~1\AppData\Local\Temp\ccvycJiY.s 			page 25


 316      3D6ECD9F 
 316      3968E597 
 317 07e4 65644121 		.ascii	"edA!\204h,\216\203\352\232\331\336\307\364\355\375\201"
 317      84682C8E 
 317      83EA9AD9 
 317      DEC7F4ED 
 317      FD81
 318 07f6 B2F64EAA 		.ascii	"\262\366N\252\301N\336\227\357\333\277\353\035e\363"
 318      C14EDE97 
 318      EFDBBFEB 
 318      1D65F3
 319 0805 E8090EFD 		.ascii	"\350\011\016\375'\347\302\271-\264\267\3233\211\304"
 319      27E7C2B9 
 319      2DB4B7D3 
 319      3389C4
 320 0814 B2C63EC5 		.ascii	"\262\306>\305\354R\343\004,n\366*\250\221\362\342\014"
 320      EC52E304 
 320      2C6EF62A 
 320      A891F2E2 
 320      0C
 321 0825 E4C529C8 		.ascii	"\344\305)\310\213\323@\325@UR~\220\352\255\377\265\015"
 321      8BD340D5 
 321      4055527E 
 321      90EAADFF 
 321      B50D
 322 0837 E10CEA2B 		.ascii	"\341\014\352+\241b\177\313\227n\352L\223\305\241\263"
 322      A1627FCB 
 322      976EEA4C 
 322      93C5A1B3 
 323 0847 20E5BB24 		.ascii	" \345\273$2+\333\272\264\242\350\202\352\000\\\253\304"
 323      322BDBBA 
 323      B4A2E882 
 323      EA005CAB 
 323      C4
 324 0858 B5464EB8 		.ascii	"\265FN\270\332\374\3514#\237Cuv\011W/\345P=\315\241"
 324      DAFCE934 
 324      239F4375 
 324      7609572F 
 324      E5503DCD 
 325 086d A753F955 		.ascii	"\247S\371UR\341\260\200\304\366vv\266t\334>Db\375p\177"
 325      52E1B080 
 325      C4F67676 
 325      B674DC3E 
 325      4462FD70 
 326 0882 66CADC59 		.ascii	"f\312\334Y\013\302\006A*\010\317\263\322\363z\317\275"
 326      0BC20641 
 326      2A08CFB3 
 326      D2F37ACF 
 326      BD
 327 0893 7DEEEA8A 		.ascii	"}\356\352\212\360\034L\320B\317\006\215\202\247<\210"
 327      F01C4CD0 
 327      42CF068D 
 327      82A73C88 
 328 08a3 66ACF5E6 		.ascii	"f\254\365\346s#\316\245\276A\235\3732\036\352\344:7"
 328      7323CEA5 
 328      BE419DFB 
 328      321EEAE4 
ARM GAS  C:\Users\AMANRA~1\AppData\Local\Temp\ccvycJiY.s 			page 26


 328      3A37
 329 08b5 FDFBD4B9 		.ascii	"\375\373\324\271\305\003\307\236\030ye\347\205oQV\323"
 329      C503C79E 
 329      187965E7 
 329      856F5156 
 329      D3
 330 08c6 6C85AABE 		.ascii	"l\205\252\276\200)k\030\255<\"\325_\030X[v\343\364\354"
 330      80296B18 
 330      AD3C22D5 
 330      5F18585B 
 330      76E3F4EC 
 331 08da 93BC204F 		.ascii	"\223\274 O\262E\240z\307\263+\203\324sTr\242\225\252"
 331      B245A07A 
 331      C7B32B83 
 331      D4735472 
 331      A295AA
 332 08ed BD20ABCD 		.ascii	"\275 \253\315\315\037\252\020\324F\316\212\036xs\274"
 332      CD1FAA10 
 332      D446CE8A 
 332      1E7873BC 
 333 08fd D5808B98 		.ascii	"\325\200\213\230\221{v\277lu\301G\0303V6\362\271\036"
 333      917B76BF 
 333      6C75C147 
 333      18335636 
 333      F2B91E
 334 0910 9731A626 		.ascii	"\2271\246&\251\370\006V\013\235\265\360\336\377\352"
 334      A9F80656 
 334      0B9DB5F0 
 334      DEFFEA
 335 091f B3A139F8 		.ascii	"\263\2419\370(\033\372\350\361\324Q\017|\2021e\345\347"
 335      281BFAE8 
 335      F1D4510F 
 335      7C823165 
 335      E5E7
 336 0931 DADC7035 		.ascii	"\332\334p5c\246\262\013\217\033q\275\344\240\242\202"
 336      63A6B20B 
 336      8F1B71BD 
 336      E4A0A282 
 337 0941 DD46DCC4 		.ascii	"\335F\334\304\230\351\354\364\\\003\276\300\230\234"
 337      98E9ECF4 
 337      5C03BEC0 
 337      989C
 338 094f B69C2237 		.ascii	"\266\234\"7\334\306\230\311\301\234N\304\374\350\316"
 338      DCC698C9 
 338      C19C4EC4 
 338      FCE8CE
 339 095e D5E60BA4 		.ascii	"\325\346\013\244\332\274\342\371\216O\335\360u\206\275"
 339      DABCE2F9 
 339      8E4FDDF0 
 339      7586BD
 340 096d D9995A2D 		.ascii	"\331\231Z-a\335\200M)?{J7\253\317o\311>\357b>?\232\326"
 340      61DD804D 
 340      293F7B4A 
 340      37ABCF6F 
 340      C93EEF62 
 341 0985 5FEA0283 		.ascii	"_\352\002\203\275\310\222\347>Ay\261OP',c_iq\007[e\307"
 341      BDC892E7 
ARM GAS  C:\Users\AMANRA~1\AppData\Local\Temp\ccvycJiY.s 			page 27


 341      3E4179B1 
 341      4F50272C 
 341      635F6971 
 342 099d BEEAFF1D 		.ascii	"\276\352\377\035\362v\225?\035\371\244m%\237ul\340\242"
 342      F276953F 
 342      1DF9A46D 
 342      259F756C 
 342      E0A2
 343 09af 5E65B178 		.ascii	"^e\261x\021\347\320ODb\221\210\027j\3202\372U\003\335"
 343      11E7D04F 
 343      44629188 
 343      176AD032 
 343      FA5503DD 
 344 09c3 8685E725 		.ascii	"\206\205\347%\345Z\017\204\251\233\351/-,i\232\203\373"
 344      E55A0F84 
 344      A99BE92F 
 344      2D2C699A 
 344      83FB
 345 09d5 9882DEAF 		.ascii	"\230\202\336\257\236\264aE\303\360\342\343\364\303\321"
 345      9EB46145 
 345      C3F0E2E3 
 345      F4C3D1
 346 09e4 5DD07047 		.ascii	"]\320pG\321`\023fQ\321\347\\EVEq\275^\011*\242\362:"
 346      D1601366 
 346      51D1E75C 
 346      45564571 
 346      BD5E092A 
 347 09fb A0FF264D 		.ascii	"\240\377&M\347~\232)\267\344LIn\3326\214\330r\371^\322"
 347      E77E9A29 
 347      B7E44C49 
 347      6EDA368C 
 347      D872F95E 
 348 0a10 DB06322F 		.ascii	"\333\0062/\273\361\322\357}\233\364:k\367\257\360\020"
 348      BBF1D2EF 
 348      7D9BF43A 
 348      6BF7AFF0 
 348      10
 349 0a21 8BDB785B 		.ascii	"\213\333x[7\234l\0373&\365\233\013G\014x\2241\017K/"
 349      379C6C1F 
 349      3326F59B 
 349      0B470C78 
 349      94310F4B 
 350 0a36 B5E8F14B 		.ascii	"\265\350\361K\306\364\017L\234\306\3705c\276xx8\313"
 350      C6F40F4C 
 350      9CC6F835 
 350      63BE7878 
 350      38CB
 351 0a48 88935DD8 		.ascii	"\210\223]\330\230\376\307m\322\327\202\355$v\223#\247"
 351      98FEC76D 
 351      D2D782ED 
 351      24769323 
 351      A7
 352 0a59 AECB5942 		.ascii	"\256\313YB*\372\241\361{\323.8\235\202\177p\314z\361"
 352      2AFAA1F1 
 352      7BD32E38 
 352      9D827F70 
 352      CC7AF1
ARM GAS  C:\Users\AMANRA~1\AppData\Local\Temp\ccvycJiY.s 			page 28


 353 0a6c 9011CD94 		.ascii	"\220\021\315\224\360KT\205|\016\024b/\266\351\362.\267"
 353      F04B5485 
 353      7C0E1462 
 353      2FB6E9F2 
 353      2EB7
 354 0a7e 8AF4FDF2 		.ascii	"\212\364\375\362\215\340\211\276\006\237\217\301\016"
 354      8DE089BE 
 354      069F8FC1 
 354      0E
 355 0a8b 37B391DA 		.ascii	"7\263\221\332\037\353aD\303&\270$\301\362\002t\247\204"
 355      1FEB6144 
 355      C326B824 
 355      C1F20274 
 355      A784
 356 0a9d 96E76E5F 		.ascii	"\226\347n_`\345\220\263\340f\366\306 \213\352\242\204"
 356      60E590B3 
 356      E066F6C6 
 356      208BEAA2 
 356      84
 357 0aae 9ED98B06 		.ascii	"\236\331\213\006\270\327\221\3356\376\030\344=\242\276"
 357      B8D791DD 
 357      36FE18E4 
 357      3DA2BE
 358 0abd 1C93F6F0 		.ascii	"\034\223\366\360i\210D2^\202\236\303\376-\302=\015\350"
 358      69884432 
 358      5E829EC3 
 358      FE2DC23D 
 358      0DE8
 359 0acf 253CBF02 		.ascii	"%<\277\002z\012\224\004|\012\320\024<\277\001z\015\364"
 359      7A0A9404 
 359      7C0AD014 
 359      3CBF017A 
 359      0DF4
 360 0ae1 8C9C03A1 		.ascii	"\214\234\003\241m\013\320\013x\036\005\032\001\032\007"
 360      6D0BD00B 
 360      781E051A 
 360      011A07
 361 0af0 9A049AB0 		.ascii	"\232\004\232\260\253nF7)\357\266\253jK\355*;\342\267"
 361      AB6E4637 
 361      29EFB6AB 
 361      6A4BED2A 
 361      3BE2B7
 362 0b03 BECDAC8A 		.ascii	"\276\315\254\212m\006/4Ihy\273\344\213\011\351\004\035"
 362      6D062F34 
 362      496879BB 
 362      E48B09E9 
 362      041D
 363 0b15 AFC81E56 		.ascii	"\257\310\036V\313\266{\313\022\237\265r>\273\344\334"
 363      CBB67BCB 
 363      129FB572 
 363      3EBBE4DC 
 364 0b25 677C5DC3 		.ascii	"g|]\303\311\036T\243\035\276\223Lp\350\373\316\321v"
 364      C91E54A3 
 364      1DBE934C 
 364      70E8FBCE 
 364      D176
 365 0b37 C783CD5C 		.ascii	"\307\203\315\\y\254\206\263\032\225\373\3200$9\005\336"
ARM GAS  C:\Users\AMANRA~1\AppData\Local\Temp\ccvycJiY.s 			page 29


 365      79AC86B3 
 365      1A95FBD0 
 365      30243905 
 365      DE
 366 0b48 16F4138F 		.ascii	"\026\364\023\217\235S:\034\204wq\036\277\256\026\376"
 366      9D533A1C 
 366      8477711E 
 366      BFAE16FE 
 367 0b58 D4B186E2 		.ascii	"\324\261\206\342\340V5\334\261T\357\343\340\327\234"
 367      E05635DC 
 367      B154EFE3 
 367      E0D79C
 368 0b67 C3B9B34A 		.ascii	"\303\271\263J\363\023vV\031sv\034\036x\262\340p\212"
 368      F3137656 
 368      1973761C 
 368      1E78B2E0 
 368      708A
 369 0b79 D8B29495 		.ascii	"\330\262\224\225WjY\016\225f+\247\271]\215\266\377X"
 369      576A590E 
 369      95662BA7 
 369      B95D8DB6 
 369      FF58
 370 0b8b 449748BC 		.ascii	"D\227H\274\022\356\207N\223\203\223m\345d\337p\3563"
 370      12EE874E 
 370      9383936D 
 370      E564DF70 
 370      EE33
 371 0b9d 3EDA1CFA 		.ascii	">\332\034\372\212\363\234\266\3630\227\034\017\234O"
 371      8AF39CB6 
 371      F330971C 
 371      0F9C4F
 372 0bac 73C670B2 		.ascii	"s\306p\262\023H\341\276\014\341n\223\3403G}\256\350"
 372      1348E1BE 
 372      0CE16E93 
 372      E033477D 
 372      AEE8
 373 0bbe 243BE6ED 		.ascii	"$;\346\355\275mZ|\225nKB\317\203\023\231\016'7y\311"
 373      BD6D5A7C 
 373      956E4B42 
 373      CF831399 
 373      0E273779 
 374 0bd3 A36DD8FB 		.ascii	"\243m\330\373\377e\325\263\270\277y\245'\247\277t<\037"
 374      FF65D5B3 
 374      B8BF79A5 
 374      27A7BF74 
 374      3C1F
 375 0be5 6DC533AF 		.ascii	"m\3053\257\2331\371\364W4\320\327\250\345O\177\004\250"
 375      9B31F9F4 
 375      5734D0D7 
 375      A8E54F7F 
 375      04A8
 376 0bf7 BC593330 		.ascii	"\274Y30;\375\301\035\300\355\217\362w\353p\027\333\250"
 376      3BFDC11D 
 376      C0ED8FF2 
 376      77EB7017 
 376      DBA8
 377 0c09 470F340F 		.ascii	"G\0174\017\273b\033c\362*\276L\305\370.c\272k\223\232"
ARM GAS  C:\Users\AMANRA~1\AppData\Local\Temp\ccvycJiY.s 			page 30


 377      BB621B63 
 377      F22ABE4C 
 377      C5F82E63 
 377      BA6B939A 
 378 0c1d 3CF03063 		.ascii	"<\3600c\356\024&\367\353\360\010cN\327=\362g{\273\027"
 378      EE1426F7 
 378      EBF00863 
 378      4ED73DF2 
 378      677BBB17 
 379 0c31 70677A9E 		.ascii	"pgz\236Z\244\177\272\331\310V_8<hs\303\317(\324\330"
 379      5AA47FBA 
 379      D9C8565F 
 379      383C6873 
 379      C3CF28D4 
 380 0c46 D873FD24 		.ascii	"\330s\375$\222\267vo\345\253l\313Q\256X\310\204\031"
 380      92B7766F 
 380      E5AB6CCB 
 380      51AE58C8 
 380      8419
 381 0c58 EDC3DFBA 		.ascii	"\355\303\337\272\300'\376h\177\376w\002\347?\351p\350"
 381      C027FE68 
 381      7FFE7702 
 381      E73FE970 
 381      E8
 382 0c69 2CB5706E 		.ascii	",\265pn\035\330Ev\027\366B\331\230\364\0218\011\353"
 382      1DD84576 
 382      17F642D9 
 382      98F41138 
 382      09EB
 383 0c7b 0108711E 		.ascii	"\001\010q\036\204'\027h/\320\247@9@{\200\366c\273M\231"
 383      84271768 
 383      2FD0A740 
 383      39407B80 
 383      F663BB4D 
 384 0c90 53B8DDB9 		.ascii	"S\270\335\271B~6\255\377\255\300w\253\341\216\037\377"
 384      427E36AD 
 384      FFADC077 
 384      ABE18E1F 
 384      FF
 385 0ca1 38E13BD4 		.ascii	"8\341;\324hnW\226\352\204I\266C\000\312q\207\350\235"
 385      686E5796 
 385      EA8449B6 
 385      4300CA71 
 385      87E89D
 386 0cb4 F4547688 		.ascii	"\364Tv\210\235Ne\311KaK\247\330\341\206'\331Rh\251\334"
 386      9D4E65C9 
 386      4B614BA7 
 386      D8E18627 
 386      D95268A9 
 387 0cc9 5A6B542F 		.ascii	"ZkT/\005\331a\250\000\374\364\347\370\214\031\332>E"
 387      05D961A8 
 387      00FCF4E7 
 387      F88C19DA 
 387      3E45
 388 0cdb 533A1F06 		.ascii	"S:\037\006\036TR\232\230M\365\357=R\334\351\306\247"
 388      1E54529A 
 388      984DF5EF 
ARM GAS  C:\Users\AMANRA~1\AppData\Local\Temp\ccvycJiY.s 			page 31


 388      3D52DCE9 
 388      C6A7
 389 0ced 74BE5D4A 		.ascii	"t\276]J\027J)M\356\356\037\257[\037\261~}TDL\\L\342"
 389      174A294D 
 389      EEEE1FAF 
 389      5B1FB17E 
 389      7D54444C 
 390 0d04 0A1F1F5F 		.ascii	"\012\037\037_\370\213\3748\346\303\230\370\004\277_"
 390      F88BFC38 
 390      E6C398F8 
 390      04BF5F
 391 0d13 F82DF58D 		.ascii	"\370-\365\215O\360\005\204\357'\361\033\022\023|\303"
 391      4FF00584 
 391      EF27F11B 
 391      12137CC3 
 392 0d23 D6AE59E6 		.ascii	"\326\256Y\346\317\256A\3137m\362\225\306\372D\272\274"
 392      CFAE41CB 
 392      376DF295 
 392      C6FA44BA 
 392      BC
 393 0d34 F3EBF716 		.ascii	"\363\353\367\026\231\374\3744\277\370\337J\320\314K"
 393      99FCFC34 
 393      BFF8DF4A 
 393      D0CC4B
 394 0d43 488C5DE6 		.ascii	"H\214]\346\037\021\271>>\362\367\324\030C\314\206?\204"
 394      1F11B93E 
 394      3EF2F7D4 
 394      1843CC86 
 394      3F84
 395 0d55 C0FD1FFF 		.ascii	"\300\375\037\377L\221LNL\302\006\237\2175\206\250\330"
 395      4C914C4E 
 395      4CC2069F 
 395      8F3586A8 
 395      D8
 396 0d66 75DF5FC6 		.ascii	"u\337_\306\352\325\201\276\201k\002\376\323_\222\001"
 396      EAD581BE 
 396      816B02FE 
 396      D35F9201 
 397 0d76 8341866B 		.ascii	"\203A\206kD\304\306\230\270D\340\023?\212\374\207p*"
 397      44C4C698 
 397      B844E013 
 397      3F8AFC87 
 397      702A
 398 0d88 23217163 		.ascii	"#!qcTL|xb|\374\372\204\360\377\210\333\270\210>-Z\267"
 398      544C7C78 
 398      627CFCFA 
 398      84F0FF88 
 398      DBB8883E 
 399 0d9f 21765174 		.ascii	"!vQt\354\207\321QQ\321Q\341o\373,]\344\277\324\357\355"
 399      EC87D151 
 399      51D151E1 
 399      6FFB2C5D 
 399      E4BFD4EF 
 400 0db4 3F2C0F87 		.ascii	"?,\017\207\366\237\306\305\307E\3774z\335\2071\3411"
 400      F69FC6C5 
 400      C745FF34 
 400      7ADD8731 
ARM GAS  C:\Users\AMANRA~1\AppData\Local\Temp\ccvycJiY.s 			page 32


 400      E131
 401 0dc6 7191EB37 		.ascii	"q\221\3537FE\207\307\256\003Yq\321\341\021Q\321\037"
 401      464587C7 
 401      AE035971 
 401      D1E11151 
 401      D11F
 402 0dd8 ADDBB83E 		.ascii	"\255\333\270>1\"q\363'\321\011\240\321E\326\367\357"
 402      312271F3 
 402      27D109A0 
 402      D145D6F7 
 402      EF
 403 0de9 FFA7FA12 		.ascii	"\377\247\372\0226'\204G$$F\201pP27lsBbt\254)~C\264\211"
 403      36278447 
 403      24244681 
 403      70503237 
 403      6C734262 
 404 0e04 F85C1716 		.ascii	"\370\\\027\026fz\307l4\257\012[e\376\315\252\300\237"
 404      667AC76C 
 404      34AF0A5B 
 404      65FECDAA 
 404      C09F
 405 0e16 63539859 		.ascii	"cS\230Y\2732\320\2444\375\314\030\020\272\322\177u\350"
 405      BB32D0A4 
 405      34FDCC18 
 405      10BAD27F 
 405      75E8
 406 0e28 AA5F9BC9 		.ascii	"\252_\233\311\223\037{\222{\227\033\003\202W.\223z\203"
 406      931F7B92 
 406      7B971B03 
 406      82572E93 
 406      7A83
 407 0e3a 6770C16A 		.ascii	"gp\301j\3342\003\221\002-\344\356\307\367\370\033\210"
 407      DC320391 
 407      022DE4EE 
 407      C7F7F81B 
 407      88
 408 0e4b 04DA132C 		.ascii	"\004\332\023,!\202\355\021~.d\2549l\255\231<\370\221"
 408      2182ED11 
 408      7E2E64AC 
 408      396CAD99 
 408      3CF891
 409 0e5e 8799BEA5 		.ascii	"\207\231\276\245.d4\353\013\226A\301\014\204M!f\255"
 409      2E6434EB 
 409      0B9641C1 
 409      0C844D21 
 409      66AD
 410 0e70 29E81DB3 		.ascii	")\350\035\263!t\365jr\027LfWx\014\361\017#\234\363\354"
 410      2174F56A 
 410      72174C66 
 410      57780CF1 
 410      0F239CF3 
 411 0e85 888C8F8D 		.ascii	"\210\214\217\215\215\217\363\215\336\224\010\351\241"
 411      8D8FF38D 
 411      DE9408E9 
 411      A1
 412 0e92 CEAF8F96 		.ascii	"\316\257\217\226/}{\323&p\243\233\331d\212X\013\201"
 412      2F7D7BD3 
ARM GAS  C:\Users\AMANRA~1\AppData\Local\Temp\ccvycJiY.s 			page 33


 412      2670A39B 
 412      D9648A58 
 412      0B81
 413 0ea4 0B8CFEC8 		.ascii	"\013\214\376\310-\364\337\314\362\363\017\345u\365\341"
 413      2DF4DFCC 
 413      F2F30FE5 
 413      75F5E1
 414 0eb3 BAC8DF6F 		.ascii	"\272\310\337o\374$\"*>v]L\034Ml=\261=\350\003}H\240"
 414      FC24222A 
 414      3E765D4C 
 414      1C4D6C3D 
 414      B13DE803 
 415 0eca E9DDC055 		.ascii	"\351\335\300U\204\363\017\372\300#p\345;kL\357\311\303"
 415      84F30FFA 
 415      C02370E5 
 415      3B6B4CEF 
 415      C9C3
 416 0edc B5216101 		.ascii	"\265!a\001f\355\2325Af\034\020h\306\201p\017\0152k\003"
 416      66ED9A35 
 416      41661C10 
 416      68C68170 
 416      0F0D326B 
 417 0ef1 82485082 		.ascii	"\202HP\202\002\314:\350\002@ \341\203\311\305\004\027"
 417      02CC3AE8 
 417      024020E1 
 417      83C9C504 
 417      17
 418 0f02 5D583004 		.ascii	"]X0\004\015\207\005\207\032Y\316\256\210H4Hwl2A\217"
 418      0D870587 
 418      1A59CEAE 
 418      88483448 
 418      776C3241 
 419 0f17 C9AC0B08 		.ascii	"\311\254\013\0101\233\314\332\337\254}\327\254\015\001"
 419      319BCCDA 
 419      DFAC7DD7 
 419      AC0D01
 420 0f26 B4CE14FA 		.ascii	"\264\316\024\372^H \\\003L\346\225\337\345\207\000\363"
 420      5E48205C 
 420      034CE695 
 420      DFE58700 
 420      F3
 421 0f37 1A5FD39A 		.ascii	"\032_\323\232\260\2200_\2226\276!,\261\000\261!:\"2"
 421      B090305F 
 421      9236BE21 
 421      2CB100B1 
 421      213A2232 
 422 0f4b 763949DD 		.ascii	"v9I\3350\323J:\007\335\273\241kMf!\314l\200\207\177"
 422      30D34A3A 
 422      07DDBBA1 
 422      6B4D6621 
 422      CC6C8087 
 423 0f60 5DF5BE59 		.ascii	"]\365\276YK.\030\264\350i\217\337\234\240\325\001a\301"
 423      4B2E18B4 
 423      E8698FDF 
 423      9CA0D501 
 423      61C1
 424 0f72 F27CFF07 		.ascii	"\362|\377\007~\2042\200"
ARM GAS  C:\Users\AMANRA~1\AppData\Local\Temp\ccvycJiY.s 			page 34


 424      7E843280 
 425              		.text
 426              		.section	.gnu.lto_.symtab.30498bcd,"",%progbits
 427 0000 68616C5F 		.ascii	"hal_lld_init\000"
 427      6C6C645F 
 427      696E6974 
 427      00
 428 000d 00       		.ascii	"\000"
 429 000e 00       		.ascii	"\000"
 430 000f 00       		.ascii	"\000"
 431 0010 00000000 		.ascii	"\000\000\000\000\000\000\000\000"
 431      00000000 
 432 0018 BB000000 		.ascii	"\273\000\000\000"
 433 001c 73746D33 		.ascii	"stm32_clock_init\000"
 433      325F636C 
 433      6F636B5F 
 433      696E6974 
 433      00
 434 002d 00       		.ascii	"\000"
 435 002e 00       		.ascii	"\000"
 436 002f 00       		.ascii	"\000"
 437 0030 00000000 		.ascii	"\000\000\000\000\000\000\000\000"
 437      00000000 
 438 0038 BD000000 		.ascii	"\275\000\000\000"
 439 003c 53797374 		.ascii	"SystemCoreClock\000"
 439      656D436F 
 439      7265436C 
 439      6F636B00 
 440 004c 00       		.ascii	"\000"
 441 004d 00       		.ascii	"\000"
 442 004e 00       		.ascii	"\000"
 443 004f 00000000 		.ascii	"\000\000\000\000\000\000\000\000"
 443      00000000 
 444 0057 CE000000 		.ascii	"\316\000\000\000"
 445 005b 69727149 		.ascii	"irqInit\000"
 445      6E697400 
 446 0063 00       		.ascii	"\000"
 447 0064 02       		.ascii	"\002"
 448 0065 00       		.ascii	"\000"
 449 0066 00000000 		.ascii	"\000\000\000\000\000\000\000\000"
 449      00000000 
 450 006e BF000000 		.ascii	"\277\000\000\000"
 451 0072 646D6149 		.ascii	"dmaInit\000"
 451      6E697400 
 452 007a 00       		.ascii	"\000"
 453 007b 02       		.ascii	"\002"
 454 007c 00       		.ascii	"\000"
 455 007d 00000000 		.ascii	"\000\000\000\000\000\000\000\000"
 455      00000000 
 456 0085 C1000000 		.ascii	"\301\000\000\000"
 457              		.text
 458              		.section	.gnu.lto_.opts,"",%progbits
 459 0000 272D666D 		.ascii	"'-fmath-errno' '-fsigned-zeros' '-ftrapping-math' '"
 459      6174682D 
 459      6572726E 
 459      6F272027 
 459      2D667369 
ARM GAS  C:\Users\AMANRA~1\AppData\Local\Temp\ccvycJiY.s 			page 35


 460 0033 2D666E6F 		.ascii	"-fno-trapv' '-fno-openmp' '-fno-openacc' '-mcpu=cor"
 460      2D747261 
 460      70762720 
 460      272D666E 
 460      6F2D6F70 
 461 0066 7465782D 		.ascii	"tex-m4' '-mthumb' '-mfloat-abi=hard' '-mfpu=fpv4-sp"
 461      6D342720 
 461      272D6D74 
 461      68756D62 
 461      2720272D 
 462 0099 2D643136 		.ascii	"-d16' '-O2' '-fomit-frame-pointer' '-falign-functio"
 462      2720272D 
 462      4F322720 
 462      272D666F 
 462      6D69742D 
 463 00cc 6E733D31 		.ascii	"ns=16' '-ffunction-sections' '-fdata-sections' '-fn"
 463      36272027 
 463      2D666675 
 463      6E637469 
 463      6F6E2D73 
 464 00ff 6F2D636F 		.ascii	"o-common' '-flto'\000"
 464      6D6D6F6E 
 464      2720272D 
 464      666C746F 
 464      2700
 465              		.text
 466              		.comm	__gnu_lto_v1,1,1
 467              		.comm	__gnu_lto_slim,1,1
 468              		.ident	"GCC: (GNU Tools for Arm Embedded Processors 7-2017-q4-major) 7.2.1 20170904 (release) [ARM
ARM GAS  C:\Users\AMANRA~1\AppData\Local\Temp\ccvycJiY.s 			page 36


DEFINED SYMBOLS
                            *ABS*:00000000 hal_lld.c
                            *COM*:00000001 __gnu_lto_v1
                            *COM*:00000001 __gnu_lto_slim

NO UNDEFINED SYMBOLS
