ARM GAS  C:\Users\AMANRA~1\AppData\Local\Temp\ccWEGiYJ.s 			page 1


   1              		.cpu cortex-m4
   2              		.eabi_attribute 27, 1
   3              		.eabi_attribute 28, 1
   4              		.eabi_attribute 20, 1
   5              		.eabi_attribute 21, 1
   6              		.eabi_attribute 23, 3
   7              		.eabi_attribute 24, 1
   8              		.eabi_attribute 25, 1
   9              		.eabi_attribute 26, 1
  10              		.eabi_attribute 30, 2
  11              		.eabi_attribute 34, 1
  12              		.eabi_attribute 18, 4
  13              		.file	"nvic.c"
  14              		.section	.gnu.lto_.profile.3049a976,"",%progbits
  15 0000 789C6363 		.ascii	"x\234cc```\001bF\006)1\000\000\302\000<"
  15      60606001 
  15      62460629 
  15      310000C2 
  15      003C
  16              		.text
  17              		.section	.gnu.lto_.icf.3049a976,"",%progbits
  18 0000 789C6363 		.ascii	"x\234cc``\220b@\000\026\206\003'?\257da\274z\374\362"
  18      60609062 
  18      40001686 
  18      03273FAF 
  18      6461BC7A 
  19 0016 470EA6D7 		.ascii	"G\016\246\327\023\177\335ed~>\351\313\035&\006\000\266"
  19      137FDD65 
  19      647E3EE9 
  19      CB1D2606 
  19      00B6
  20 0028 360D5B   		.ascii	"6\015["
  21              		.text
  22              		.section	.gnu.lto_.jmpfuncs.3049a976,"",%progbits
  23 0000 789C6363 		.ascii	"x\234cc``\320a@\000\026\006&FF\346\3729\314\014 \314"
  23      6060D061 
  23      40001606 
  23      264646E6 
  23      FA39CC0C 
  24 0016 0804209A 		.ascii	"\010\004 \232\011Y\220\031*\310\000\000\237-\007\005"
  24      09599019 
  24      2AC80000 
  24      9F2D0705 
  25              		.text
  26              		.section	.gnu.lto_.inline.3049a976,"",%progbits
  27 0000 789C4D8C 		.ascii	"x\234M\214\321\021\2000\014B!\215i\364\307\021\352\004"
  27      D1118030 
  27      0C42218D 
  27      69F4C711 
  27      EA04
  28 0012 2ED9453A 		.ascii	".\331E:\222\2438\202\261\236U>\270\343\036`\000*>)\260"
  28      92A33882 
  28      B19E553E 
  28      B8E31E60 
  28      002A3E29 
  29 0027 CC146E8C 		.ascii	"\314\024n\214p\233\332\271\303Z\021\310\261*\"y\020"
  29      709BDAB9 
ARM GAS  C:\Users\AMANRA~1\AppData\Local\Temp\ccWEGiYJ.s 			page 2


  29      C35A11C8 
  29      B12A2279 
  29      10
  30 0038 07E199EC 		.ascii	"\007\341\231\354\225\244\255<\225\240\332O\004\223\222"
  30      95A4AD3C 
  30      95A0DA4F 
  30      049392
  31 0047 FD25C5EE 		.ascii	"\375%\305\356w\020J\310\366N\007\034S\\\2260\015\244"
  31      77104AC8 
  31      F64E071C 
  31      535C9630 
  31      0DA4
  32              		.text
  33              		.section	.gnu.lto_.pureconst.3049a976,"",%progbits
  34 0000 789C6363 		.ascii	"x\234cc``\340\004b\026\006)F)&)f)\000\002\304\000\202"
  34      6060E004 
  34      62160629 
  34      46292629 
  34      66290002 
  35              		.text
  36              		.section	.gnu.lto_nvicEnableVector.3049a976,"",%progbits
  37 0000 789C9D53 		.ascii	"x\234\235SAk\023A\024\236o\337\356&\3064w\261h\017B"
  37      416B1341 
  37      149E6FDF 
  37      EE26C634 
  37      77B1680F 
  38 0015 E8256B40 		.ascii	"\350%k@\220\036<\210\340A\350\305\177\240\2714`\223"
  38      901E3C88 
  38      E041E8C5 
  38      7FA0B934 
  38      6093
  39 0027 D248F1D6 		.ascii	"\322H\361\326IR\223V{(\264M!\254\222b\253\005\251\261"
  39      49529356 
  39      7B28B44D 
  39      21AC9262 
  39      AB05A9B1 
  40 003b B45553AB 		.ascii	"\264US\253\256\261\265-\242b)\336\265E\241b\2519)\264"
  40      AEB1B52D 
  40      A26229DE 
  40      B545A162 
  40      A93929B4 
  41 004f D537BB01 		.ascii	"\3257\273\001\005\365\240\303\316\333\231\367\276\367"
  41      05F5A0C3 
  41      CEDB99F7 
  41      BEF7
  42 005d DEF7CDEC 		.ascii	"\336\367\315\354\232B\2103$\304\011~\037\344\011\022"
  42      9A428833 
  42      24C4097E 
  42      1FE40912 
  43 006d D0065E09 		.ascii	"\320\006^\011\221\366k\200ZH?D\267\206n\364\323\020"
  43      91F66B80 
  43      5A483F44 
  43      B7866EF4 
  43      D310
  44 007f A19AFF50 		.ascii	"\241\232\377P\321\232oI\036\316H\355\200\234p`sz\201"
  44      D19A6F49 
  44      1ECE48ED 
ARM GAS  C:\Users\AMANRA~1\AppData\Local\Temp\ccWEGiYJ.s 			page 3


  44      809C7060 
  44      737A81
  45 0092 A71A9846 		.ascii	"\247\032\230F3\243\336\364\334\265\351*\331\004\350"
  45      33A3DEF4 
  45      DCB5E92A 
  45      D904E8
  46 00a1 BCFDF2B2 		.ascii	"\274\375\362\262\270\036R[\015M\274\335\225C\205\020"
  46      B81E525B 
  46      0D4DBCDD 
  46      95438510 
  47 00b1 1D87E0F5 		.ascii	"\035\207\340\365\306\213\033\003\276\360\270\224\031"
  47      C68B1B03 
  47      BEF0B894 
  47      19
  48 00be E92C8C91 		.ascii	"\351,\214\221<b\023\341\036\210\013b\026\215\230A\243"
  48      3C6213E1 
  48      1E880B62 
  48      168D9841 
  48      A3
  49 00cf 6097C07D 		.ascii	"`\227\300}\204\031~;\363\3613Q\213\233\372~\371\335"
  49      84197E3B 
  49      F3F13351 
  49      8B9BFA7E 
  49      F9DD
  50 00e1 90514FDD 		.ascii	"\220QO\335\030\257\247>\370Cj\005a\027?\2657\334`\352"
  50      18AFA73E 
  50      F8436A05 
  50      61173FB5 
  50      37DC60EA 
  51 00f5 1E57CCC1 		.ascii	"\036W\314\301\024\340Ey\325p\344\336\367\274t\326nb"
  51      14E04579 
  51      D570E4DE 
  51      F7BC74D6 
  51      6E62
  52 0107 E474109C 		.ascii	"\344t\020\234\243k\312\020\033CW\306`c\232P\205\374"
  52      A36BCA10 
  52      1B4357C6 
  52      60639A50 
  52      85FC
  53 0119 504C84E8 		.ascii	"PL\204\350\345\"|:\322\021}\244\251U\326\021\233\310"
  53      E5227C3A 
  53      D2117DA4 
  53      A955D611 
  53      9BC8
  54 012b D4F2BBE5 		.ascii	"\324\362\273\345\200\252]$\024\311dWv;\007\317\241\261"
  54      80AA5D24 
  54      14C96457 
  54      763B07CF 
  54      A1B1
  55 013d EFD7B331 		.ascii	"\357\327\2631\241\343!s\334Du\355\3127R \016\027.W_"
  55      A1E32173 
  55      DC4475ED 
  55      CA375220 
  55      0E172E57 
  56 0152 FB54D8E7 		.ascii	"\373T\330\347\212\234\031\335\372\032\364\266\262\232"
  56      8A9C19DD 
  56      FA1AF4B6 
ARM GAS  C:\Users\AMANRA~1\AppData\Local\Temp\ccWEGiYJ.s 			page 4


  56      B29A
  57 0160 9521764D 		.ascii	"\225!vM\177\032\\\367\225p=\315wP:d\223\037\217X\355"
  57      7F1A5CF7 
  57      95703DCD 
  57      77503A64 
  57      931F8F58 
  58 0175 3C575209 		.ascii	"<WR\011\213\375\351\321\2005){\322\262\311\246}x\214"
  58      8BFDE9D1 
  58      8035297B 
  58      D2B2C9A6 
  58      7D788C
  59 0188 1286DDDB 		.ascii	"\022\206\335\333\341\340\333\325\331\351P\264\254\202"
  59      E1E0DBD5 
  59      D9E950B4 
  59      AC82
  60 0196 A5844D01 		.ascii	"\245\204M\001<\201U$\277{s\016\242\314Q1\336\311]\233"
  60      3C815524 
  60      BF7B730E 
  60      A2CC5131 
  60      DEC95D9B 
  61 01aa 9AD03CD2 		.ascii	"\232\320<\322\304aN\034\034\273SiP4\014\034\306S\227"
  61      C4614E1C 
  61      1CBB5369 
  61      50340C1C 
  61      C65397
  62 01bd 74B696EB 		.ascii	"t\266\226\3533<\220\356\201V\306\346v\202\2362\003U"
  62      333C90EE 
  62      8156C6E6 
  62      76829E32 
  62      0355
  63 01cf 0FB49D5B 		.ascii	"\017\264\235[\361y C\251YX\312\371=\004\360\014\215"
  63      F1792043 
  63      A95958CA 
  63      F93D04F0 
  63      0C8D
  64 01e1 5CBF2EDF 		.ascii	"\\\277.\337\250\313\377\027q\373\261\340\212\303\357"
  64      A8CBFF17 
  64      71FBB1E0 
  64      8AC3EF
  65 01f0 E2BA6C0A 		.ascii	"\342\272l\012bQ\211\323]q\317\2258\303\353595\217\377"
  65      625189D3 
  65      5D71CF95 
  65      38C3EB35 
  65      39358FFF 
  66 0204 EAB6E476 		.ascii	"\352\266\344v\323\376\322m\371g\267\025\257\333\026"
  66      D3FED26D 
  66      F967B715 
  66      AFDB16
  67 0213 32A572BF 		.ascii	"2\245r\277\333\313\3759z\231)\177)\\\340X$b\361\023"
  67      DBCBFD39 
  67      7A99297F 
  67      295CE058 
  67      2462F113 
  68 0227 6B8B9F8F 		.ascii	"k\213\237\217'S\321\226\350Q+\231\262\332\316]\260:"
  68      2753D196 
  68      E8512B99 
  68      B2DACE5D 
ARM GAS  C:\Users\AMANRA~1\AppData\Local\Temp\ccWEGiYJ.s 			page 5


  68      B03A
  69 0239 929D1753 		.ascii	"\222\235\027SV,\331\336\236LX'\317\266\236j\275d%\272"
  69      562CD9DE 
  69      9E4C5827 
  69      CFB69E6A 
  69      BD6425BA 
  70 024d E2B1484C 		.ascii	"\342\261HL \241wt\306\223?\000T\334\035\225"
  70      20A17774 
  70      C6933F00 
  70      54DC1D95 
  71              		.text
  72              		.section	.gnu.lto_nvicDisableVector.3049a976,"",%progbits
  73 0000 789C9551 		.ascii	"x\234\225QMk\024A\020\35575\037k>\366\034p\321\034\204"
  73      4D6B1441 
  73      10ED3735 
  73      1F6B3EF6 
  73      1C70D11C 
  74 0015 90CB8E03 		.ascii	"\220\313\216\003\202z\024\301[.\376\003\335K\026\315"
  74      827A14C1 
  74      5B2EFE03 
  74      DD4B16CD 
  75 0025 8EB812BC 		.ascii	"\216\270\022\274\2457\233L\022M \220d\205e\220\011\256"
  75      A5379B4C 
  75      124D2090 
  75      64856590 
  75      09AE
  76 0037 18108DB2 		.ascii	"\030\020\215\262\033u\343\3278F$h\024\203\372\003\334"
  76      1B75E3D7 
  76      38462468 
  76      1483FA03 
  76      DC
  77 0048 20A21054 		.ascii	" \242\020T<(\304h\365\214\007\301\223\305tOU\367\253"
  77      3C28C468 
  77      F58C07C1 
  77      93C5744F 
  77      55F7AB
  78 005b 7AAFAB4C 		.ascii	"z\257\253L!\304\011M\210\003\374\337\311\013$\240M\277"
  78      21C4094D 
  78      8803FCDF 
  78      C90B24A0 
  78      4DBF
  79 006d 10A294D2 		.ascii	"\020\242\224\322\000\345\310\024\304\220\206!L\322,"
  79      00E5C814 
  79      C4908621 
  79      4CD22C
  80 007c 211A7BDF 		.ascii	"!\032{\337\324z\257H\266\360B\303\364\344h\227OBTx)"
  80      D47AAF48 
  80      B6F042C3 
  80      F4E46897 
  80      4F425478 
  81 0091 431DBD8C 		.ascii	"C\035\275\214z5r\303\247\363\344\023\240s\370e\255\332"
  81      7A3572C3 
  81      A7F3E413 
  81      A073F865 
  81      ADDA
  82 00a3 4AAB5043 		.ascii	"J\253PC7\207?\345l%M\373!\330\337xvi\332\352\271,\345"
  82      37873FE5 
ARM GAS  C:\Users\AMANRA~1\AppData\Local\Temp\ccWEGiYJ.s 			page 6


  82      6C254DFB 
  82      21D8DF78 
  82      7669DAEA 
  83 00ba B00C9FD7 		.ascii	"\260\014\237\327H\356\361\211p\013\304\005\261\204\014"
  83      48EEF189 
  83      700BC405 
  83      B1840C
  84 00c9 1AC8083E 		.ascii	"\032\310\010>\022\270\215\036\205\177ws{\256\323\324"
  84      12B88D1E 
  84      857F7773 
  84      7BAED3D4 
  85 00d9 1342DC81 		.ascii	"\023B\334\201)\300\316\342\272\021\312\355_c2\334\250"
  85      29C0CEE2 
  85      BA11CAED 
  85      5F6332DC 
  85      A8
  86 00ea E1CD1156 		.ascii	"\341\315\021V\354\223\256\251\215x3t\304\351b\234\223"
  86      EC93AEA9 
  86      8D783374 
  86      C4E9629C 
  86      93
  87 00fb F8493214 		.ascii	"\370I2\024\023\244)\257\034\212\217(oyk\365\005M\025"
  87      13A429AF 
  87      1C8A8F28 
  87      6F796BF5 
  87      054D15
  88 010e AB12AAA4 		.ascii	"\253\022\252\244\024\317\324\2567;\225b\035\273\321"
  88      14CFD4AE 
  88      373B9562 
  88      1DBBD1
  89 011d 640D0CFB 		.ascii	"d\015\014\373\352M\030\011HK@\253\265\345\255\016\005"
  89      EA4D1809 
  89      484B40AB 
  89      B5E5AD0E 
  89      05
  90 012e 32606039 		.ascii	"2``9\001}\366V\255\004\244\272\325Xy\352\245\022\004"
  90      017DF656 
  90      AD04A4BA 
  90      D55879EA 
  90      A51204
  91 0141 701719AE 		.ascii	"p\027\031\256\317\240\350\365\271\037q%FTF\243\227\226"
  91      CFA0E8F5 
  91      B91F7125 
  91      465446A3 
  91      9796
  92 0153 4298713B 		.ascii	"B\230q;\032\363\233\337;\222PFe\231\346\243\372\247"
  92      1AF39BDF 
  92      3B925046 
  92      6599E6A3 
  92      FAA7
  93 0165 999615E0 		.ascii	"\231\226\025\340b\211[\036\354\362\311\302}\356\313"
  93      62895B1E 
  93      ECF2C9C2 
  93      7DEECB
  94 0174 3DA65309 		.ascii	"=\246S\011O&K\363m\36659R\222\335>\245\360\000\001\346"
  94      4F264BF3 
  94      6DF63539 
ARM GAS  C:\Users\AMANRA~1\AppData\Local\Temp\ccWEGiYJ.s 			page 7


  94      5292DD3E 
  94      A5F00001 
  95 0189 E261F0E5 		.ascii	"\342a\360\345\333\365\245z\332YT\227\301\240O;\360\020"
  95      DBF5A57A 
  95      DA595497 
  95      C1A04F3B 
  95      F010
  96 019b 36AB8F07 		.ascii	"6\253\217\007\025\302a\215J\315\267\017\013-\353\217"
  96      15C2618D 
  96      4ACDB70F 
  96      0B2DEB8F 
  97 01ab 9CFF216B 		.ascii	"\234\377!k\303\243\230\014\377\222\025|jG\244\310\364"
  97      C3A3980C 
  97      FF92157C 
  97      6A47A4C8 
  97      F4
  98 01bc 98EC319C 		.ascii	"\230\3541\234\277\337\332\016\201\025\256\271\211\341"
  98      BFDFDA0E 
  98      8115AEB9 
  98      89E1
  99 01ca E0EA14E2 		.ascii	"\340\352\024\3421*\033\347Z<\025\026\270/\233\265\371"
  99      312A1BE7 
  99      5A3C1516 
  99      B82F9BB5 
  99      F9
 100 01db CBF5E78F 		.ascii	"\313\365\347\217\347\335\242s\320\331k\273E\273\377"
 100      E7DDA273 
 100      D0D96BBB 
 100      45BBFF
 101 01ea D849FB94 		.ascii	"\330I\373\224{\372L\321\316\271\003\003n\301>t\264\357"
 101      7BFA4CD1 
 101      CEB90303 
 101      6EC13E74 
 101      B4EF
 102 01fc 70DF59BB 		.ascii	"p\337Y\2730\230\317es\002\205\337\333C\327\204"
 102      3098CF65 
 102      730285DF 
 102      DB43D784 
 103              		.text
 104              		.section	.gnu.lto_nvicSetSystemHandlerPriority.3049a976,"",%progbits
 105 0000 789C6D51 		.ascii	"x\234mQKk\023Q\024>\337\234\231\311(X\267\245v\321\205"
 105      4B6B1351 
 105      143EDF9C 
 105      99C92858 
 105      B7A576D1 
 106 0015 10BAC935 		.ascii	"\020\272\3115 \210+\221n\334t\343?\250QH\240\315\224"
 106      20882B91 
 106      6EDC74E3 
 106      3FA85148 
 106      A0CD94
 107 0028 44C45D6F 		.ascii	"D\304]o\222\266\251U\244h\332J\030d6\245\026\221*\365"
 107      92B6A955 
 107      A468DA4A 
 107      186436A5 
 107      16912AF5 
 108 003c 151BEB90 		.ascii	"\025\033\353\220\225\233\252-\"\330\235\017\024\002"
 108      959BAA2D 
ARM GAS  C:\Users\AMANRA~1\AppData\Local\Temp\ccWEGiYJ.s 			page 8


 108      22D89D0F 
 108      1402
 109 004a 8ADA2C5C 		.ascii	"\212\332,\\U\317\035#\270\360r\037\347\365\235\373\235"
 109      55CF1D23 
 109      B8F0721F 
 109      E7F59DFB 
 109      9D
 110 005b 735C22DA 		.ascii	"s\\\"\332\005\321\220\274\207\344\200\011\326\334\013"
 110      05D190BC 
 110      87E48009 
 110      D6DC0B
 111 006a A2926701 		.ascii	"\242\222g\001F\320\036h\302\302\004\256p\215\321\252"
 111      46D01E68 
 111      C2C204AE 
 111      708DD1AA 
 112 007a 7E6A5883 		.ascii	"~jX\203\313ZV\264\330q\247\365To\300D\013r\314\302\032"
 112      CB5A56B4 
 112      D871A7F5 
 112      546FC044 
 112      0B72CCC2 
 113 008f 06256A6B 		.ascii	"\006%jk\362n\300\2279`\300\026\365\373f\375C\217Q-\014"
 113      F26EC097 
 113      3960C016 
 113      F5FB66FD 
 113      438F512D 
 114 00a4 885AB9BE 		.ascii	"\210Z\271\276\321\364\370\030H\344\355\265\033\247\222"
 114      D1F4F818 
 114      48E4EDB5 
 114      1BA792
 115 00b3 4B5A9775 		.ascii	"KZ\227u\364q\211\365\341\200\031\017\301\222\017\017"
 115      F47189F5 
 115      E180190F 
 115      C1920F0F 
 116 00c3 D08FFBE8 		.ascii	"\320\217\373\350'1\021\036!)\321\267\313\237\2770\237"
 116      2731111E 
 116      2129D1B7 
 116      CB9FBF30 
 116      9F
 117 00d4 8891EF9F 		.ascii	"\210\221\357\237\277\2539]hg\271\013}\374\037h\003\311"
 117      BFAB395D 
 117      6867B90B 
 117      7DFC1F68 
 117      03C9
 118 00e6 38FEDEDE 		.ascii	"8\376\336\336\374\001\327\016\377\262\305\023\270$\225"
 118      FC01D70E 
 118      FFB2C513 
 118      B82495
 119 00f5 D3EAB613 		.ascii	"\323\352\266\023\351\275_Ua\320\273\263\353% 0\3332"
 119      E9BD5F55 
 119      61D0BBB3 
 119      EB252030 
 119      DB32
 120 0107 97D017B0 		.ascii	"\227\320\027\260\003\363;\321\214\240\244!:\242Kl\031"
 120      03F33BD1 
 120      8CA0A421 
 120      3AA24B6C 
 120      19
ARM GAS  C:\Users\AMANRA~1\AppData\Local\Temp\ccWEGiYJ.s 			page 9


 121 0118 A912511B 		.ascii	"\251\022Q\033\345\037\325\315F\023&[\235Q\227\017\333"
 121      E51FD5CD 
 121      4613265B 
 121      9D51970F 
 121      DB
 122 0129 A87C9BEE 		.ascii	"\250|\233\356\032,\261\375\333\017\0076\326\205X\033"
 122      1A2CB1FD 
 122      DB0F0736 
 122      D685581B 
 123 0139 ADD7B36F 		.ascii	"\255\327\263o\035\023$\356\205\251\326\313\204q\273"
 123      1D1324EE 
 123      85A9D6CB 
 123      8471BB
 124 0148 7165A546 		.ascii	"qe\245F\263\346\374Q\365NE\367\210\251\275\325y\345"
 124      B3E6FC51 
 124      F54E45F7 
 124      88A9BDD5 
 124      79E5
 125 015a 84B85992 		.ascii	"\204\270Y\222\276\207}\001'\360TJlJ&\003\2706\273\262"
 125      BE877D01 
 125      27F0544A 
 125      6C4A2603 
 125      B836BBB2 
 126 016e B25FDDD1 		.ascii	"\262_\335\321\223%=\020\260\207\015\204\230\217'\"\316"
 126      93253D10 
 126      B0870D84 
 126      988F2722 
 126      CE
 127 017f 37B77E2E 		.ascii	"7\267~.\036L\257\032g\230\017x\037\236A\325\331\211"
 127      1E4CAF1A 
 127      67980F78 
 127      1F9E41D5 
 127      D989
 128 0191 A715212D 		.ascii	"\247\025!-\034\351+\312\341\372\325\230r<\305\031\206"
 128      1CE92BCA 
 128      E1FAD598 
 128      723CC519 
 128      86
 129 01a2 A9CF223A 		.ascii	"\251\317\":\232J)\331\231l\356L\316/\246\217\247\217"
 129      9A4A29D9 
 129      996CEE4C 
 129      CE2FA68F 
 129      A78F
 130 01b4 28BFA8B2 		.ascii	"(\277\250\262#\243j\334/\234/\252\214?6\346\347\325"
 130      23A36ADC 
 130      2F9C2FAA 
 130      8C3F36E6 
 130      E7D5
 131 01c6 C9D3C343 		.ascii	"\311\323\303C\303\027U\376B.\223\312P\";\222?;z\256"
 131      C31755FE 
 131      422E93CA 
 131      50223B92 
 131      3F3B7AAE 
 132 01da 608F1772 		.ascii	"`\217\027r\376o\374\215\264\314"
 132      FE6FFC8D 
 132      B4CC
 133              		.text
ARM GAS  C:\Users\AMANRA~1\AppData\Local\Temp\ccWEGiYJ.s 			page 10


 134              		.section	.gnu.lto_nvicClearPending.3049a976,"",%progbits
 135 0000 789C3551 		.ascii	"x\2345Q\317k\023Q\020\236\357\315n6J\233\263`\250=\010"
 135      CF6B1351 
 135      109EEFCD 
 135      6E364A9B 
 135      B360A83D 
 136 0015 A5085903 		.ascii	"\245\010Y\003\202z\024\017\236z\361?\320\\\032\260Y"
 136      827A140F 
 136      9E7AF13F 
 136      D05C1AB0 
 136      59
 137 0026 3152BCF5 		.ascii	"1R\274\365%i\223V\013\026\332F\010K\331\322\210x\320"
 137      25699356 
 137      0B16DA46 
 137      084BD9D2 
 137      8878D0
 138 0039 2A69D5A4 		.ascii	"*i\325\244\376X\202\036JQi\021O\236\254\010*\024-\010"
 138      FE58821E 
 138      4A516911 
 138      4F9EAC08 
 138      2A142D08 
 139 004d 1EDAEABC 		.ascii	"\036\332\352\274]\034\336\217\231y\363\315\373\336\367"
 139      5D1CDE8F 
 139      9979F3CD 
 139      FBDEF7
 140 005c 1244F41B 		.ascii	"\022D\364\033Dgd?*\023LP3\357\210JI\005\030G'Ac\012"
 140      4467643F 
 140      2A134C50 
 140      33EF884A 
 140      49051847 
 141 0074 6398E639 		.ascii	"c\230\3469F\267\366\265\255\006\357i\261\360N\307\251"
 141      46B7F6B5 
 141      AD06EF69 
 141      B1F04EC7 
 141      A9
 142 0085 EA89233E 		.ascii	"\352\211#>\023\325e\032C\013\203R\2659\376\310\347["
 142      13D5651A 
 142      430B8352 
 142      B539FEC8 
 142      E75B
 143 0097 EC336049 		.ascii	"\3543`I\370\353mc;eB\205~\011\367\365\\=\305\247A\342"
 143      F8EB6D63 
 143      3B654285 
 143      7E09F7F5 
 143      5C3DC5A7 
 144 00ad 7FD9589A 		.ascii	"\177\331X\232q\006\356j]\326\341\353&\353\343>3\236"
 144      7106EE6A 
 144      5DD6E1EB 
 144      26EBE33E 
 144      339E
 145 00bf 80A52156 		.ascii	"\200\245!V\221\306\012\322$)\302S\014\230\372\317\217"
 145      91C60AD2 
 145      2429C253 
 145      0C98FACF 
 145      8F
 146 00d0 0FE67B13 		.ascii	"\017\346{\023V|!\236!AB\236\226\267\354P\037\374\255"
 146      567C219E 
ARM GAS  C:\Users\AMANRA~1\AppData\Local\Temp\ccWEGiYJ.s 			page 11


 146      2141429E 
 146      96B7EC50 
 146      1FFCAD
 147 00e3 E9F05313 		.ascii	"\351\360S\023\233\027\204\261\317\226\222\305f\343Y"
 147      9B1784B1 
 147      CF9692C5 
 147      66E359
 148 00f2 66B111F5 		.ascii	"f\261\021\365\240IA\312\273tHS\254\214W\011\351;*{\325"
 148      A04941CA 
 148      BB744853 
 148      AC8C5709 
 148      E93B2A7B 
 149 0107 FDB54099 		.ascii	"\375\265@\231\216\015F\203m\271k\266\371\260\335kh["
 149      8E0D4683 
 149      6DB96BB6 
 149      F9B0DD6B 
 149      685B
 150 0119 3886B610 		.ascii	"8\206\266\020\221\262\237\325\373N\\\244p\"-\245&\271"
 150      91B29FD5 
 150      FB4E5CA4 
 150      70222DA5 
 150      26B9
 151 012b 5B9DB2E3 		.ascii	"[\235\262\343$\307\310\365fg\257\307 m\330\350D\310"
 151      24C7C8F5 
 151      6667AFC7 
 151      206DD8E8 
 151      44C8
 152 013d F26EED3F 		.ascii	"\362n\355?\322\022\260d\272\037n~\213`\002\250Ot\337"
 152      D212B064 
 152      BA1F6E7E 
 152      8B6002A8 
 152      4F74DF
 153 0150 3B069088 		.ascii	";\006\220\210TYY\334\371\323\023\207\272[\321)I\265"
 153      545959DC 
 153      F9D31387 
 153      BA5BD129 
 153      49B5
 154 0162 7ECC6E3B 		.ascii	"~\314n;\001\026J\242|\320\347\263\203\347\"\317\232"
 154      01164AA2 
 154      7CD0E7B3 
 154      83E722CF 
 154      9A
 155 0173 F4368037 		.ascii	"\3646\2007\323\245\305\303\356\003=^\322\375>'\361\002"
 155      D3A5C5C3 
 155      EE033D5E 
 155      D2FD3E27 
 155      F102
 156 0185 01E6A33F 		.ascii	"\001\346\243?\221\303\217[\253\255Tv\331\034\006\243"
 156      91C38F5B 
 156      ABAD5476 
 156      D91C06A3 
 157 0195 3E1FC24B 		.ascii	">\037\302K\270B5\372\257W\310\012!\332A9X\272\215HP"
 157      B84235FA 
 157      AF57C80A 
 157      21DA4139 
 157      58BA8D48 
 158 01aa 6393F230 		.ascii	"c\223\3620\221F\021\235\312d\\\031\271\341\374\345\274"
ARM GAS  C:\Users\AMANRA~1\AppData\Local\Temp\ccWEGiYJ.s 			page 12


 158      9146119D 
 158      CA645C19 
 158      B9E1FCE5 
 158      BC
 159 01bb 57CC9ECD 		.ascii	"W\314\236\315\236t\275\242;|\351\212{\325\273v\275\350"
 159      9E74BDA2 
 159      3B7CE98A 
 159      7BD5BB76 
 159      BDE8
 160 01cd E6BC9111 		.ascii	"\346\274\221\021\257\340\236\2738t~\350\206[\030\315"
 160      AFE09EBB 
 160      38747EE8 
 160      865B18CD 
 161 01dd E7323942 		.ascii	"\34729B\341\037G\012\260("
 161      E11F470A 
 161      B028
 162              		.text
 163              		.section	.gnu.lto_.symbol_nodes.3049a976,"",%progbits
 164 0000 789C6363 		.ascii	"x\234cc``\360\002b\006\246\023L\365\014\014\023\316"
 164      6060F002 
 164      6206A613 
 164      4CF50C0C 
 164      13CE
 165 0012 313000A9 		.ascii	"10\000\251]\015\216@\221\223L\365\214\250\"\247\230"
 165      5D0D8E40 
 165      91934CF5 
 165      8CA822A7 
 165      98
 166 0023 EA995045 		.ascii	"\352\231PEN3\3253\243\2100\000\000\335^\022\351"
 166      4E33D533 
 166      A3883000 
 166      00DD5E12 
 166      E9
 167              		.text
 168              		.section	.gnu.lto_.refs.3049a976,"",%progbits
 169 0000 789C6363 		.ascii	"x\234cc```\004b\006\000\000D\000\010"
 169      60606004 
 169      62060000 
 169      440008
 170              		.text
 171              		.section	.gnu.lto_.decls.3049a976,"",%progbits
 172 0000 789CBD59 		.ascii	"x\234\275YkPTG\026\276}{\200\341\355\"\2651\273\223"
 172      6B505447 
 172      16BE7D7B 
 172      80E1ED22 
 172      B531BB93 
 173 0014 5AD73215 		.ascii	"Z\3272\025~l\000\037[I\366\307&8\352\312\017\263\324"
 173      7E6C001F 
 173      5B49F6C7 
 173      2638EACA 
 173      0FB3D4
 174 0027 9058955D 		.ascii	"\220X\225]j\011\302$\222\360\310\002n\351\257\275<\214"
 174      6A09C224 
 174      92F0C802 
 174      6EE9AFBD 
 174      3C8C
 175 0039 283E4009 		.ascii	"(>@\011*`@\300\007A\005\"\202BP@A\344\245\242h\220\247"
ARM GAS  C:\Users\AMANRA~1\AppData\Local\Temp\ccWEGiYJ.s 			page 13


 175      2A6040C0 
 175      07410522 
 175      82425040 
 175      41E4A5A2 
 176 0050 0888883C 		.ascii	"\010\210\210<U\004Q\366\364\3432\227\013\223Mm\245\366"
 176      550451F6 
 176      F4E33297 
 176      0B934D6D 
 176      A5F6
 177 0062 9667EE9C 		.ascii	"\226g\356\234\356\257\317\371\372\234\356\323=h)\010"
 177      EEAFCFF9 
 177      FA9CEED3 
 177      3D682908 
 178 0072 82FFEB82 		.ascii	"\202\377\353\202\320.\012B*\022\204ix,\240\255\034\004"
 178      D02E0A42 
 178      2A128469 
 178      782CA0AD 
 178      1C04
 179 0084 54A15460 		.ascii	"T\241T`\217\006\344\012H-H=\3105a\356\263\027\006\330"
 179      8F06E40A 
 179      482D483D 
 179      C83561EE 
 179      B31706D8 
 180 0098 C3FB5310 		.ascii	"\303\373S\020'\020g>^\007\362\026\310' \277\007\314"
 180      2710673E 
 180      5E07F216 
 180      C82720BF 
 180      07CC
 181 00aa EF40FAE0 		.ascii	"\357@\372\340\373\003\220\347 \343 \030d\001\264\353"
 181      FB0390E7 
 181      20E32018 
 181      6401B4EB 
 182 00ba 401C11F3 		.ascii	"@\034\021\363}e\036\037\007\240\303n\036\037j\373\262"
 182      7D651E1F 
 182      07A0C36E 
 182      1E1F6AFB 
 182      B2
 183 00cb 5DD90F4C 		.ascii	"]\331\017LOX\210\230\017\304\347\241~R\240\303\306\014"
 183      4F588898 
 183      0FC4E7A1 
 183      7E52A0C3 
 183      C60C
 184 00dd 7F623B0C 		.ascii	"\177b;\014\372\277\002\371\0201\233\304\316'\334^=\327"
 184      FABF02F9 
 184      10319BC4 
 184      CE27DC5E 
 184      3DD7
 185 00ef 23D16C9B 		.ascii	"#\321l\233ifl\022\276\177\233\207/\031\256\3436\347"
 185      69666C12 
 185      BE7F9B87 
 185      2F19AEE3 
 185      36E7
 186 0101 8B712246 		.ascii	"\213q\"Fm\325\33198\016\243\267l\020\311\226#4\345\016"
 186      6DD5D939 
 186      380EA3B7 
 186      6C10C996 
 186      2334E50E 
ARM GAS  C:\Users\AMANRA~1\AppData\Local\Temp\ccWEGiYJ.s 			page 14


 187 0115 9C9FB067 		.ascii	"\234\237\260gM\004Q/\265\324Zc\221~o\331{\274\331\336"
 187      4D04512F 
 187      B5D45A63 
 187      917E6FD9 
 187      7BBCD9DE 
 188 0129 F5A4C41E 		.ascii	"\365\244\304\036m\210\200\316\",\233j\334;\232e\205"
 188      6D8880CE 
 188      222C9B6A 
 188      DC3B9A65 
 188      85
 189 013a DFA7C01B 		.ascii	"\337\247\300\0331y\251\304\254\223\015\322\200:R\237"
 189      3179A9C4 
 189      AC930DD2 
 189      803A529F 
 190 014a 7CDF0154 		.ascii	"|\337\001Tg\033\2648\021\213\035\315/Z\035\220\215K"
 190      671BB438 
 190      118B1DCD 
 190      2F5A1D90 
 190      8D4B
 191 015c AC244549 		.ascii	"\254$EI\351\321\222\365:\001\235G:t\016\351\004T\202"
 191      E9D192F5 
 191      3A019D47 
 191      3A740EE9 
 191      045482
 192 016f 5C88EB42 		.ascii	"\\\210\353B\344*\240\002h<\003\215\307\210\273\262;"
 192      E42AA002 
 192      683C038D 
 192      C788BBB2 
 192      3B
 193 0180 87FE7C68 		.ascii	"\207\376|hT\222\026\243bd\203\212\020\246\030\230\335"
 193      549216A3 
 193      6264838A 
 193      10A61898 
 193      DD
 194 0191 5B368C40 		.ascii	"[6\214@vVB\206%\316G\204\201X\222\322S)\232\363q\301"
 194      76564286 
 194      25CE4784 
 194      815892D2 
 194      53299AF3 
 195 01a7 BC8FDC25 		.ascii	"\274\217\334%U\333$ID\245\340\343\007\223\017pI^\320"
 195      55DB2449 
 195      44A5E0E3 
 195      07930F70 
 195      495ED0
 196 01ba 0A8E8ACB 		.ascii	"\012\216\212\313K/\332v\2406\004\013\001-\240\363G\210"
 196      4B2FDA76 
 196      A036040B 
 196      012DA0F3 
 196      4788
 197 01cc 7DC29B08 		.ascii	"}\302\233\010\325\247\345\007\261vh\025\331\213C\211"
 197      D5A7E507 
 197      B1766815 
 197      D98B4389 
 198 01dc 220F4133 		.ascii	"\"\017A3-\"\267!\312v\351?n\000)\255\262~\346N~X\332"
 198      2D22B721 
 198      CA76E93F 
 198      6E0029AD 
ARM GAS  C:\Users\AMANRA~1\AppData\Local\Temp\ccWEGiYJ.s 			page 15


 198      B27EE64E 
 199 01f3 D917C538 		.ascii	"\331\027\3058\326$\232\234)\206\314\341*\314t\317\220"
 199      D6249A9C 
 199      2986CCE1 
 199      2ACC74CF 
 199      90
 200 0204 324D12F1 		.ascii	"2M\022\361t\267\346\016W[t\242v\350\375\304A\210\327"
 200      74B7E60E 
 200      575B74A2 
 200      76E8FDC4 
 200      4188D7
 201 0217 06D3C4A7 		.ascii	"\006\323\304\247\334\352\312\024q\022[.WN\234-G\032"
 201      DCEACA14 
 201      71125B2E 
 201      574E9C2D 
 201      471A
 202 0229 91C50D85 		.ascii	"\221\305\015\205hH[\355\370\361\213\232\231\266\012"
 202      68485BED 
 202      F8F18B9A 
 202      99B60A
 203 0238 441B2BA7 		.ascii	"D\033+\247\307\313\034\331r\021\311J\032\256;l\313\226"
 203      C7CB1CD9 
 203      7211C94A 
 203      1AAE3B6C 
 203      CB96
 204 024a CB02B27A 		.ascii	"\313\002\262z.\264'\211\213\222H~\342\243\245\005\""
 204      2EB42789 
 204      8B92487E 
 204      E2A3A505 
 204      22
 205 025b FAF4D7A8 		.ascii	"\372\364\327\250\022\262v\031\262&\240*\264\010>/!\015"
 205      12B27619 
 205      B226A02A 
 205      B4083E2F 
 205      210D
 206 026d A335F1E0 		.ascii	"\2435\361\340\326\015\274$]J\357\224\312\246\353\226"
 206      D60DBC24 
 206      5D4AEF94 
 206      CAA6EB96 
 207 027d 3E289024 		.ascii	">(\220$\310\247\244!8TnJh9Y\270\250\014u\"t\021u\300"
 207      C8A7A421 
 207      38546E4A 
 207      683959B8 
 207      A80C7522 
 208 0295 24AEA025 		.ascii	"$\256\240%0\274\251\275t\030\343V\363\374\017\334\314"
 208      30BCA9BD 
 208      7418E356 
 208      F3FC0FDC 
 208      CC
 209 02a6 28B6374B 		.ascii	"(\2667K\246\206\222\271*\223y\2247\224\352\300\3114"
 209      A68692B9 
 209      2A937994 
 209      3794EAC0 
 209      C934
 210 02b8 BE9E2C95 		.ascii	"\276\236,\225EIdm\001\012U\233\250T\253\251\324R*\371"
 210      4549646D 
 210      010A559B 
ARM GAS  C:\Users\AMANRA~1\AppData\Local\Temp\ccWEGiYJ.s 			page 16


 210      A854ABA9 
 210      D4522AF9 
 211 02cc CF1F4563 		.ascii	"\317\037Ec<\310\250\024?j/\266\220-\375v\306\022\231"
 211      3CC8A814 
 211      3F6A2FB6 
 211      902DFD76 
 211      C61299
 212 02df 549DC952 		.ascii	"T\235\311R\235\332R=\265Tz\374\200'\331\215\304\320"
 212      9DDA523D 
 212      B5547AFC 
 212      8027D98D 
 212      C4D0
 213 02f1 8BA6899B 		.ascii	"\213\246\211\233\216\334P\377\033\263(5\230\0145\250"
 213      8EDC50FF 
 213      1BB32835 
 213      980C35A8 
 214 0301 0D5DA386 		.ascii	"\015]\243\206N6\245\225\330\261<I:\222\231\362\355\005"
 214      4E36A595 
 214      D8B13C49 
 214      3A9299F2 
 214      ED05
 215 0313 5C1FB602 		.ascii	"\\\037\266\002=\361\324\375\"\304\364xg\320\373\232"
 215      3DF1D4FD 
 215      22C4F478 
 215      67D0FB9A 
 216 0323 8E27DBB3 		.ascii	"\216'\333\263DJG\0204\034\236\232\212\321\340TF\345"
 216      444A4710 
 216      341C9E9A 
 216      8AD1E054 
 216      46E5
 217 0335 DEED57B5 		.ascii	"\336\355W\265\274HD[\220\245\321\323\372\215\275M,\011"
 217      BC48445B 
 217      90A5D1D3 
 217      FA8DBD4D 
 217      2C09
 218 0347 2DDDB0A4 		.ascii	"-\335\260\244C\336\262\002\272Mv r\323\241&P\001\235"
 218      43DEB202 
 218      BA4D7620 
 218      72D3A126 
 218      50019D
 219 035a 93947116 		.ascii	"\223\224q\026;\305\323DH\322\007\032\232\243\233\000"
 219      3BC5D344 
 219      48D2071A 
 219      9AA39B00 
 220 036a 6FA4F03B 		.ascii	"o\244\360;\310I\036D\320\335G\273\323\2559sK\320\277"
 220      C8491E44 
 220      D0DD47BB 
 220      D3AD3973 
 220      4BD0BF
 221 037d 4EE8CA74 		.ascii	"N\350\312t\340\314\011\261\353\011\273\366k8SR\004\367"
 221      E0CC09B1 
 221      EB09BBF6 
 221      6B385352 
 221      04F7
 222 038f DC49781F 		.ascii	"\334Ix\037\037c<\177\314\337\237g\301\260C\004[\234"
 222      1F633C7F 
 222      CCDF9F67 
ARM GAS  C:\Users\AMANRA~1\AppData\Local\Temp\ccWEGiYJ.s 			page 17


 222      C1B04304 
 222      5B9C
 223 03a1 7C3BD9D6 		.ascii	"|;\331\326,\3176\231g+\343\231\273\255;[\013\243uPa"
 223      2CCF3699 
 223      672BE399 
 223      BBAD3B5B 
 223      0BA37550 
 224 03b6 91A2BCEA 		.ascii	"\221\242\274\352Xy-(\033;\245\301\331\324\223\230\177"
 224      58792D28 
 224      1B3BA5C1 
 224      D9D49398 
 224      7F
 225 03c7 AAFB0BE4 		.ascii	"\252\373\013\344b#\227;\327m\333In\272`b\235\246\334"
 225      6223973B 
 225      D76DDB49 
 225      6EBA6062 
 225      9DA6DC
 226 03da E8C89468 		.ascii	"\350\310\224hY\2232%\274H@+t\310\035\212\332=(j:^\324"
 226      59933225 
 226      BC48402B 
 226      74C81D8A 
 226      DA3D286A 
 227 03f1 3A804E3B 		.ascii	":\200N;\363\237\235v\342\262=>\303\034\264\237\032j"
 227      F39F9D76 
 227      E2B23D3E 
 227      C31CB49F 
 227      1A6A
 228 0403 C0260FB9 		.ascii	"\300&\017\271K\316\320b\327\003\036\356\233<t!3.\272"
 228      4BCED062 
 228      D7031EEE 
 228      9B3C7421 
 228      332EBA
 229 0416 E777D1D4 		.ascii	"\347w\321\324\221\324bkJ\005\242\366\356B\1773\215H"
 229      91D4626B 
 229      4A05A2F6 
 229      EE427F33 
 229      8D48
 230 0428 2F4D459B 		.ascii	"/ME\233\234\212\250\313;\036!\022\276\350\237g\375`"
 230      9C8AA8CB 
 230      3B1E2112 
 230      BEE89F67 
 230      FD60
 231 043a E5C49046 		.ascii	"\345\304\220Fi\375\301OY/\354H\334\301\227d:9z\212\333"
 231      69FDC14F 
 231      592FEC48 
 231      DCC19764 
 231      3A397A8A 
 232 044f 46CA6C99 		.ascii	"F\312l\231\336I\302?1p\260I\313\023\355\000\372\245"
 232      DE49C23F 
 232      3170B049 
 232      CB13ED00 
 232      FAA5
 233 0461 B1D4113B 		.ascii	"\261\324\021;\\\3022]\321R\032\3133\375\016\250u{\316"
 233      5CC2325D 
 233      D1521ACB 
 233      33FD0EA8 
 233      757BCE
ARM GAS  C:\Users\AMANRA~1\AppData\Local\Temp\ccWEGiYJ.s 			page 18


 234 0474 F7985F90 		.ascii	"\367\230_\220\203r\242\0373\236\257\322So\213\352\005"
 234      8372A21F 
 234      339EAFD2 
 234      536F8BEA 
 234      05
 235 0485 F908E0FD 		.ascii	"\371\010\340\375\024>Dy\016\312<\017<\236\370\015_\217"
 235      143E4479 
 235      0ECA3C0F 
 235      3C9EF80D 
 235      5F8F
 236 0497 CA13D289 		.ascii	"\312\023\322\211\236\220\350t\337\305T\033\316\222T"
 236      9E90E874 
 236      DFC5541B 
 236      CE9254
 237 04a6 C44B3753 		.ascii	"\304K7Sr\254p%c\371d\347\266q\276o\310\246\353\256\031"
 237      72AC7025 
 237      63F964E7 
 237      B671BE6F 
 237      C8A6EBAE 
 238 04bb FDDEC12C 		.ascii	"\375\336\301,\313\2472\313'\214ej\377\330\264\203\232"
 238      CBA732CB 
 238      278C656A 
 238      FFD8B483 
 238      9A
 239 04cc E528C047 		.ascii	"\345(\300G(\374\031e\371Tfy\2601\177\015K\325\3179B"
 239      28FC1965 
 239      F9546679 
 239      B0317F0D 
 239      4BD5CF39 
 240 04e1 61C0CD0B 		.ascii	"a\300\315\013\223\327\034\225\346\307\177\312\374x\341"
 240      93D71C95 
 240      E6C77FCA 
 240      FC78E1
 241 04f0 8B163EEB 		.ascii	"\213\026>\353tL\226FIs\002?\007:\225\273\326\231\357"
 241      744C9646 
 241      4973023F 
 241      073A95BB 
 241      D699EF
 242 0503 DAC8BEBC 		.ascii	"\332\310\276\274\355\030\327\2600\214\035\330\266C\313"
 242      ED18D7B0 
 242      308C1DD8 
 242      B643CB
 243 0512 C0AF817A 		.ascii	"\300\257\201z$wp@k6\014\257\3440\274d<_Vtd8\252\303"
 243      24777040 
 243      6B360CAF 
 243      E430BC64 
 243      3C5F5674 
 244 052a F002E093 		.ascii	"\360\002\340\223\024>My\276\222y\026\224\216\034\225"
 244      143E4D79 
 244      BE927916 
 244      948E1C95 
 245 053a AB07E1D9 		.ascii	"\253\007\341\331\223\323\225i\203o1\036\337\225\305"
 245      93D39569 
 245      836F311E 
 245      DF95C5
 246 0549 55F374A4 		.ascii	"U\363t\244\223\\M\247\014\037\266\303\315\254SN\244"
 246      935C4DA7 
ARM GAS  C:\Users\AMANRA~1\AppData\Local\Temp\ccWEGiYJ.s 			page 19


 246      0C1FB6C3 
 246      CDAC534E 
 246      A4
 247 055a 134FE4B5 		.ascii	"\023O\344\265\207\205\371\"\276\317:_v\304\307[\361"
 247      8785F922 
 247      BECF3A5F 
 247      76C4C75B 
 247      F1
 248 056b 91646D76 		.ascii	"\221dmv47\345\333\341>\326Y\330{\265J\036I:w\344v\305"
 248      3437E5DB 
 248      E13ED659 
 248      D87BB54A 
 248      1E493A77 
 249 0582 59E0115E 		.ascii	"Y\340\021^:\333\036\354t\300\317\230r\245*\352\013\014"
 249      3ADB1EEC 
 249      74C0CF98 
 249      72A52AEA 
 249      0B0C
 250 0594 271C3D5E 		.ascii	"'\034=^\357\307\374\201\015\212!\005\2722+?\015\263"
 250      EFC7FC81 
 250      0D8A2105 
 250      BA322B3F 
 250      0DB3
 251 05a6 00A6D3E5 		.ascii	"\000\246\323\345\177\246|g\264#\336F\301\216\035\223"
 251      7FA67C67 
 251      B423DE46 
 251      C18E1D93 
 252 05b6 D11D7668 		.ascii	"\321\035vh){\026.u\241\357\014)&\022J\303\016|\256\276"
 252      297B162E 
 252      75A1EF0C 
 252      2926124A 
 252      C30E7CAE 
 253 05cb 06425981 		.ascii	"\006BY\201\320s\344\204\342D\214\222\304\2053\251\204"
 253      D073E484 
 253      E2448C92 
 253      C48533A9 
 253      84
 254 05dc 50428096 		.ascii	"PB\200\226\221\333,\033\320\030\004\037\221P\362\001"
 254      91DB2C1B 
 254      D018041F 
 254      9150F201 
 255 05ec DC821858 		.ascii	"\334\202\030X\336\244\350G\244@\223\3123\371%\240c0"
 255      DEA4E847 
 255      A44093CA 
 255      33F925A0 
 255      6330
 256 05fe 89339AE2 		.ascii	"\2113\232\342h9\372h\002\251lW\00414!2\206TD\206\325"
 256      6839FA68 
 256      02A96C57 
 256      04313421 
 256      32865444 
 257 0614 E8C62F4D 		.ascii	"\350\306/M\350\035j\332\261\242\212I\277\202I\264\250"
 257      E81D6ADA 
 257      B1A28A49 
 257      BF8249B4 
 257      A8
 258 0625 6212A544 		.ascii	"b\022\245D\307DKe]A\311\024MV\365\036\216\236\331\022"
ARM GAS  C:\Users\AMANRA~1\AppData\Local\Temp\ccWEGiYJ.s 			page 20


 258      C7444B65 
 258      5D41C914 
 258      4D56F51E 
 258      8E9ED912 
 259 0639 D74D4C12 		.ascii	"\327ML\022\370\302\222\340&\200v\213:\264\213Z\"p\330"
 259      F8C292E0 
 259      2680768B 
 259      3AB48B5A 
 259      2270D8
 260 064c 31E8A0E8 		.ascii	"1\350\240\350\202\366\212KQ2\310~\220\003 \207A\022"
 260      82F68A4B 
 260      5132C87E 
 260      90032087 
 260      4112
 261 065e 41524112 		.ascii	"ARA\022@\366\201\244\200\304\203\034\002\371F\\J/a\214"
 261      40F681A4 
 261      80C4831C 
 261      02F9465C 
 261      4A2F618C 
 262 0672 F65D05ED 		.ascii	"\366]\005\355\355j\332_\233h\263B\377\254\337)\022\270"
 262      ED6ADA5F 
 262      9B68B342 
 262      FFACDF29 
 262      12B8
 263 0684 1094C08B 		.ascii	"\020\224\300\213\274\311T\373\200\363>I\252v'G&\272"
 263      BCC954FB 
 263      80F33E49 
 263      AA762747 
 263      26BA
 264 0696 C5C32B1F 		.ascii	"\305\303+\037\244\350\206:u5\012\317;\325\236G\346\240"
 264      A4E8863A 
 264      75350ACF 
 264      3BD59E47 
 264      E6A0
 265 06a8 79EAA0FA 		.ascii	"y\352\240\372\241\001n[\256\211\350\241:u\243\212\324"
 265      A1016E5B 
 265      AE89E8A1 
 265      3A75A38A 
 265      D4
 266 06b9 45AA5327 		.ascii	"E\252S'\211*t\227\002\275M\215\2161\241Im\276\335q\031"
 266      892A7497 
 266      02BD4D8D 
 266      8E31A149 
 266      6DBEDD71 
 267 06ce E17ABAEC 		.ascii	"\341z\272\354\305\250\311\374B\013\264\320e\336$\301"
 267      C5A8C9FC 
 267      420BB4D0 
 267      65DE24C1 
 268 06de 1E76F945 		.ascii	"\036v\371E\362\304\"\0175\011~(\24140\370\2558s\300"
 268      F2C4220F 
 268      35097E28 
 268      A13430F8 
 268      AD3873C0 
 269 06f2 923C505E 		.ascii	"\222<P^;\036L\326b\273\2353\277Q(\320T\265\216\210v"
 269      3B1E4CD6 
 269      62BB9D33 
 269      BF5128D0 
ARM GAS  C:\Users\AMANRA~1\AppData\Local\Temp\ccWEGiYJ.s 			page 21


 269      54B58E88 
 270 0707 F4DE0D6F 		.ascii	"\364\336\015or\373\252\277\322\312\013M,\331\313\323"
 270      72FBAABF 
 270      D2CA0B4D 
 270      2CD9CBD3 
 271 0717 0F9B3379 		.ascii	"\017\2333yU\032&\306F\246\016\027q\335YQ]\234yu\031"
 271      551A26C6 
 271      46A60E17 
 271      71DD5951 
 271      5D9C7975 
 272 072c 381817ED 		.ascii	"8\030\027\355h\266@\036\023y\201<\307\012\344\255\266"
 272      68B6401E 
 272      1379813C 
 272      C70AE4AD 
 272      B6
 273 073d 9E243B75 		.ascii	"\236$;u\201<\012A\312\242\201=.:\311\203\010\372l\343"
 273      813C0A41 
 273      CAA2813D 
 273      2E3AC983 
 273      08FA6CE3 
 274 0751 9D67D6F8 		.ascii	"\235g\326\370\016\253A\315I;\007,\344S#\366\347\234"
 274      0EAB41CD 
 274      493B072C 
 274      E45323F6 
 274      E79C
 275 0763 1A59BDF9 		.ascii	"\032Y\275\371C\326Jg\331\342O8\273\331{$\206\037\361"
 275      43D64A67 
 275      D9E24F38 
 275      BBD97B24 
 275      861FF1
 276 0776 D705C5CF 		.ascii	"\327\005\305\317\005'\366sA.\234\316\274p\226T5^E\270"
 276      0527F673 
 276      412E9CCE 
 276      BC709654 
 276      355E45B8 
 277 078a 9571AB18 		.ascii	"\225q\253\030\315;\316\307\222B\336\031\177i\332|L\362"
 277      CD3BCEC7 
 277      9242DE19 
 277      7F69DA7C 
 277      4CF2
 278 079c E498E48A 		.ascii	"\344\230\344\212\224\346\323\370\274\265\352\220\234"
 278      94E6D3F8 
 278      BCB5EA90 
 278      9C
 279 07a9 02962729 		.ascii	"\002\226')\313|\3122Ofy\350p\377iQ='\263\350\270\312"
 279      CB7CCA32 
 279      4F6679E8 
 279      70FF6951 
 279      3D27B3E8 
 280 07bf B3553CB7 		.ascii	"\263U<\267\325D\357}u\246\306\012\337c\244\367\357"
 280      D544EF7D 
 280      75A6C60A 
 280      DF63A4F7 
 280      EF
 281 07d0 7B5EA3C5 		.ascii	"{^\243\305=L)\032\314)\262g\3102\242'\227<\251\341w"
 281      3D4C291A 
 281      CC29B267 
ARM GAS  C:\Users\AMANRA~1\AppData\Local\Temp\ccWEGiYJ.s 			page 22


 281      C832A227 
 281      973CA9E1 
 282 07e5 16ADA2DB 		.ascii	"\026\255\242\333\231w\217\345\014\037\265\304\017\331"
 282      99778FE5 
 282      0C1FB5C4 
 282      0FD9
 283 07f3 D884E1D1 		.ascii	"\330\204\341\321\375\226f\247[,O\327\235\316\266\350"
 283      FD9666A7 
 283      5B2C4FD7 
 283      9DCEB6E8 
 284 0803 6CE69056 		.ascii	"l\346\220V=\335s0\201\":\201\022:\201by\002%\221YMX"
 284      3DDD7330 
 284      81223A81 
 284      123A8162 
 284      79022591 
 285 081a 3D5DB3E8 		.ascii	"=]\263\350\023\275\251{x\032\336%\327\214\211#\375\366"
 285      13BDA97B 
 285      781ADE25 
 285      D78C8923 
 285      FDF6
 286 082c F83123F9 		.ascii	"\3701#\371xp*\327\001\2172\245\244\350\207*>;wr\351"
 286      78702AD7 
 286      018F32A5 
 286      A4E8872A 
 286      3E3B7772 
 287 0841 3F59DE60 		.ascii	"?Y\336`\213\307Y\337T|\332\031k\374\222))cm\017\371"
 287      8BC759DF 
 287      547CDA19 
 287      6BFC9229 
 287      29636D0F 
 288 0856 E2772179 		.ascii	"\342w!y\316\374v\2375\216\262\240}\323\361\261\207\254"
 288      CEFC769F 
 288      358EB2A0 
 288      7DD3F1B1 
 288      87AC
 289 0868 F076A624 		.ascii	"\360v\246$6$f\332\342]L\031\214\351\351\344Kg\021\371"
 289      362466DA 
 289      E25D4C19 
 289      8CE9E9E4 
 289      4B6711F9 
 290 087c 71D497D8 		.ascii	"q\324\227\330\314\177\277\330)\256#\316\374:r\372\331"
 290      CC7FBFD8 
 290      29AE23CE 
 290      FC3A72FA 
 290      D9
 291 088d 9E03B678 		.ascii	"\236\003\266x\037\033z\2479\346<\307\332\202\032}\362"
 291      1F1B7AA7 
 291      39E63CC7 
 291      DA821A7D 
 291      F2
 292 089e 42A185D9 		.ascii	"B\241\205\331\320\326\311\241\255e+i\367\351\254\213"
 292      D0D6C9A1 
 292      AD652B69 
 292      F7E9AC8B 
 293 08ae 96EA1BF3 		.ascii	"\226\352\033\363U\210V5\215V=\215V\235\034\255\206\336"
 293      55885635 
 293      8D563D8D 
ARM GAS  C:\Users\AMANRA~1\AppData\Local\Temp\ccWEGiYJ.s 			page 23


 293      569D1CAD 
 293      86DE
 294 08c0 B86BB6EA 		.ascii	"\270k\266\352\033\260Ytic\353\0078\211\221|\332\320"
 294      1BB05974 
 294      6963EB07 
 294      3889917C 
 294      DAD0
 295 08d2 7A0FE164 		.ascii	"z\017\341d\246\304\324^=n\205\277e\312@v}\265%\316b"
 295      A6C4D45E 
 295      3D6E85BF 
 295      65CA4076 
 295      7DB525CE 
 296 08e7 4A77EFE4 		.ascii	"Jw\357\3449\214\263\231rl c\2675>\315\307t\0176\360"
 296      398CB399 
 296      726C2063 
 296      B7353ECD 
 296      C7740F36 
 297 08fc 00ED229B 		.ascii	"\000\355\"\233\351\305p\341-9$d\271\365?\355\231\326"
 297      E9C570E1 
 297      2D392464 
 297      B9F53FED 
 297      99D6
 298 090e E2020A7E 		.ascii	"\342\002\012~-\277\261.\335\032\321\273\204\351q\341"
 298      2DBFB12E 
 298      DD1AD1BB 
 298      84E971E1 
 299 091e EF0C2911 		.ascii	"\357\014)\021\312u\373\004?l\276\027\235\320i\250\210"
 299      CA75FB04 
 299      3F6CBE17 
 299      9DD069A8 
 299      88
 300 092f 2D50F0E4 		.ascii	"-P\360\344]\201r\324%\276b\013\273U4\000\272\206\243"
 300      5D8172D4 
 300      25BE620B 
 300      BB553400 
 300      BA86A3
 301 0942 E589A32B 		.ascii	"\345\211\243+Jt\"\234\316\215[\331\351L\226^\001G\317"
 301      4A74229C 
 301      CE8D5BD9 
 301      E94C965E 
 301      0147CF
 302 0955 949E3314 		.ascii	"\224\2363\024}\036\3159\236o\203\275&\332\331\302\313"
 302      7D1ECD39 
 302      9E6F83BD 
 302      26DAD9C2 
 302      CB
 303 0966 FE0328FB 		.ascii	"\376\003(\373\375P\312\333A\372@\036\203t\202\334\003"
 303      FD50CADB 
 303      41FA401E 
 303      837482DC 
 303      03
 304 0977 69067908 		.ascii	"i\006y\010\362\010\244\033\244\027\244\007\244\025d"
 304      F208A41B 
 304      A417A407 
 304      A41564
 305 0986 006410A4 		.ascii	"\000d\020\244\003\344.\310\217 m \367A\272f\216or\217"
 305      03E42EC8 
ARM GAS  C:\Users\AMANRA~1\AppData\Local\Temp\ccWEGiYJ.s 			page 24


 305      8F206D20 
 305      F741BA66 
 305      8E6F728F 
 306 099a 18DD62BA 		.ascii	"\030\335b\272G\\T3-\2355/r\320me\007\335w\020\205\023"
 306      475C5433 
 306      2D9D352F 
 306      72D06D65 
 306      07DD7710 
 307 09b0 1C2D5747 		.ascii	"\034-WG~aU\334Q\356\206\232l\337T\333v3\005\201\305"
 307      7E6155DC 
 307      51EE869A 
 307      6CDF54DB 
 307      76330581 
 308 09c5 AC4611B3 		.ascii	"\254F\021\263\263\363\307La{Ta\373\272\032}R\215\236"
 308      B3F3C74C 
 308      617B5461 
 308      FBBA1A7D 
 308      528D9E
 309 09d8 54A0AFCD 		.ascii	"T\240\257\315\217\226\251P\343[M\360;jx\306\234\213"
 309      8F96A950 
 309      E35B4DF0 
 309      3B6A78C6 
 309      9C8B
 310 09ea 1B0F0A1C 		.ascii	"\033\017\012\034\016\364\0362+(\231s\214\337UD\374\262"
 310      0EF41E32 
 310      2B289973 
 310      8CDF5544 
 310      FCB2
 311 09fc DAF8A539 		.ascii	"\332\370\2459\360~\005\274\\\015/\233\003\357R\300+"
 311      F07E05BC 
 311      5C0D2F9B 
 311      03EF52C0 
 311      2B
 312 0a0d E6872BAE 		.ascii	"\346\207+\256cUC\354:\326\242\276\216\021S\275C\316"
 312      635543EC 
 312      3AD6A2BE 
 312      8E1153BD 
 312      43CE
 313 0a1f 19D16487 		.ascii	"\031\321d\207\020[\215j[E\352\030\327(<W\251\321\354"
 313      105B8D6A 
 313      5B45EA18 
 313      D7283C57 
 313      A9D1EC
 314 0a32 3AA64C77 		.ascii	":\246Lwc\250)\335\267\346]\034\012\333\215\012\333\225"
 314      63A829DD 
 314      B7E65D1C 
 314      0ADB8D0A 
 314      DB95
 315 0a44 F3C74C99 		.ascii	"\363\307L\231m\005\372\302\374kzV\204\025\213\343\306"
 315      6D05FAC2 
 315      FC6B7A56 
 315      84158BE3 
 315      C6
 316 0a55 FCD39C21 		.ascii	"\374\323\234!N*\001O\367\017\220\356\363\034.\037/\250"
 316      4E2A014F 
 316      F70F90EE 
 316      F31C2E1F 
ARM GAS  C:\Users\AMANRA~1\AppData\Local\Temp\ccWEGiYJ.s 			page 25


 316      2FA8
 317 0a67 70D665AF 		.ascii	"p\326e\257\241\343\233\006\015.\2465Il{X\020g\253\276"
 317      A1E39B06 
 317      0D2EA635 
 317      496C7B58 
 317      1067ABBE 
 318 0a7b ECC95B1E 		.ascii	"\354\311[\036\215\300N\377\177\354z\226\367W\023\226"
 318      8DC04EFF 
 318      7FEC7A96 
 318      F7571396 
 319 0a8b E432380C 		.ascii	"\34428\014\016\207L\227\301\026\3712\230\331\333uI\243"
 319      0E874C97 
 319      C116F932 
 319      98D9DB75 
 319      49A3
 320 0a9d BC0C0ECF 		.ascii	"\274\014\016\317\272\014\216\362\313\340(\275\014\356"
 320      BA0C8EF2 
 320      CBE028BD 
 320      0CEE
 321 0aab DE7E71C0 		.ascii	"\336~q\300\002_bU:\243\257\376*?%\337 \177\217\331?"
 321      025F6255 
 321      3AA3AFFE 
 321      2A3F25DF 
 321      207F8FD9 
 322 0ac0 B007B122 		.ascii	"\260\007\261\"\335G\212\366\221\372\261$\033|\203a\317"
 322      DD478AF6 
 322      91FAB124 
 322      1B7C8361 
 322      CF
 323 0ad1 953E5ECE 		.ascii	"\225>^\316\240\344\007b[\\k\0132{l=\227\217\255qvl5"
 323      A0E40762 
 323      5B5C6B0B 
 323      327B6C3D 
 323      978FAD71 
 324 0ae8 3D2F9DB4 		.ascii	"=/\235\264\303w\251!\315\311\350\357\2065\310E\207\000"
 324      C377A921 
 324      CDC9E8EF 
 324      8635C845 
 324      8700
 325 0afa 8ED85F94 		.ascii	"\216\330_\224\310\177\012\010\350%\254\255\011\021\313"
 325      C87F0A08 
 325      E825ACAD 
 325      0911CB
 326 0b09 FFCB902C 		.ascii	"\377\313\220,\201\371\341\177\223f\370\256\245\357y"
 326      81F9E17F 
 326      9366F8AE 
 326      A5EF79
 327 0b18 FEB63409 		.ascii	"\376\2664\011\341\177I\375MAv^0\207ii\027n#\345\311"
 327      E17F49FD 
 327      4D41765E 
 327      30876969 
 327      176E23E5 
 328 0b2d 476C3F85 		.ascii	"Gl?\205\376'4\343\257\350\311\367\\>\371\362S\253'\254"
 328      FE2734E3 
 328      AFE8C9F7 
 328      5C3EF9F2 
 328      53AB27AC 
ARM GAS  C:\Users\AMANRA~1\AppData\Local\Temp\ccWEGiYJ.s 			page 26


 329 0b41 6DB8EDD8 		.ascii	"m\270\355\330\377f;g4kj\326\251:\375S\266\237uvO\331"
 329      FF663B67 
 329      346B6AD6 
 329      A93AFD53 
 329      B69F7576 
 330 0b57 BE99295D 		.ascii	"\276\231)]/\223\312^\324\271\247D\225I\321\037 \011"
 330      2F93CA5E 
 330      D4B9A744 
 330      9549D11F 
 330      2009
 331 0b69 3BA16790 		.ascii	";\241g\220\312z\264D1t\014Z\376!\012(\022\277)\254p"
 331      CA7AB444 
 331      31740C5A 
 331      FE210A28 
 331      12BF29AC 
 332 0b7e 7575837F 		.ascii	"uu\203\177\376\233\0027\006\206\206/{o\231\273[h\270"
 332      FE9B0237 
 332      0686862F 
 332      7B6F99BB 
 332      5B68B8
 333 0b91 DB26BF20 		.ascii	"\333&\277 \267\257B\303\"\302\335\374C\203\203CC\334"
 333      B7AF42C3 
 333      22C2DDFC 
 333      43838343 
 333      43DC
 334 0ba3 3C0CEBF5 		.ascii	"<\014\353\365\353\267\270\205\374+\320\337\325_\373"
 334      EBB7B885 
 334      FC2BD0DF 
 334      D55FFB
 335 0bb2 970F3F5E 		.ascii	"\227\017?^\254_\266L\260\361\365\335\034\030\022\261"
 335      AC5FB64C 
 335      B0F1F5DD 
 335      1C1812B1 
 336 0bc2 62B96FC4 		.ascii	"b\271o\304g\376\177\362\241F\302#6\007\004\206\372D"
 336      67FE7FF2 
 336      A146C223 
 336      36070486 
 336      FA44
 337 0bd4 84860685 		.ascii	"\204\206\006\205\373|\036\262y1\375\266\330/,x\2611"
 337      FB7C1EB2 
 337      7931FDB6 
 337      D82F2C78 
 337      B131
 338 0be6 78A33120 		.ascii	"x\2431 \300\030\340\363\216\253\373\342\345\356\313"
 338      C018E0F3 
 338      8EABFBE2 
 338      E5EECB
 339 0bf5 DEF9E74A 		.ascii	"\336\371\347J\037h\177;$4\304\370\266\321oc\240O`\210"
 339      1F687F3B 
 339      2434C4F8 
 339      B6D16F63 
 339      A04F6088 
 340 0c09 7FD0E600 		.ascii	"\177\320\346\000\243O\260\037\330\0121\372\370\006\030"
 340      A34FB01F 
 340      D80A31FA 
 340      F80618
 341 0c18 3FF3DB1C 		.ascii	"?\363\333\034\024\341\033\261\365+c\270\353&A+\373\373"
ARM GAS  C:\Users\AMANRA~1\AppData\Local\Temp\ccWEGiYJ.s 			page 27


 341      14E11BB1 
 341      F52B63B8 
 341      EB26412B 
 341      FBFB
 342 0c2a FB2FEA2F 		.ascii	"\373/\352/|k\270\217oxD\000\030\007'\013\3104\327\204"
 342      7C6BB88F 
 342      6F784400 
 342      1807270B 
 342      C834D784 
 343 0c3e F86D0C32 		.ascii	"\370m\0142n0\372G\204\206\255\374\037\202$\374\212\274"
 343      6E30FA47 
 343      8486ADFC 
 343      1F8224FC 
 343      8ABC
 344 0c50 5707869B 		.ascii	"W\007\206\233\314\350H\213\2671\302{kx\2041x\235_H@"
 344      CCE8488B 
 344      B731C27B 
 344      6B788431 
 344      789D5F48 
 345 0c65 9031CC2B 		.ascii	"\2201\314+,04,0b+u\252\0172\372\205y\031C\200\310\347"
 345      2C30342C 
 345      30622B75 
 345      AA0F32FA 
 345      85791943 
 346 0c7c D68635DE 		.ascii	"\326\2065\336k\014\033\326\254\376\243\350\351e\315"
 346      6B0C1BD6 
 346      ACFEA3E8 
 346      E965CD
 347 0c8b 22FDAE6F 		.ascii	"\"\375\256o\204\025\177\317t\257\324xz\2542\314\250"
 347      84157FCF 
 347      74AFD478 
 347      7AAC32CC 
 347      A8
 348 0c9c 2B349E7A 		.ascii	"+4\236z/\223\272\\\343\351\355e\320\032\230\266\014"
 348      2F93BA5C 
 348      E3E9ED65 
 348      D01A98B6 
 348      0C
 349 0cad 3AD7983A 		.ascii	":\327\230:\335\241s\215A\343\375\221\247a\325\274S\344"
 349      DDA1738D 
 349      41E3FD91 
 349      A761D5BC 
 349      53E4
 350 0cbf 13336E89 		.ascii	"\0233n\211 \223s\323\257\367\366\364v\323\207\206\031"
 350      209373D3 
 350      AFF7F6F4 
 350      76D38786 
 350      19
 351 0cd0 DD3C59E4 		.ascii	"\335<Y\344\000\021f\364\365\017^\011a\263\376p\203\247"
 351      001166F4 
 351      F50F5E09 
 351      61B3FE70 
 351      83A7
 352 0ce2 DEF723C8 		.ascii	"\336\367#\310\024\230\3650h\326\257_k\300\036\253\015"
 352      1498F530 
 352      68D6AF5F 
 352      6BC01EAB 
ARM GAS  C:\Users\AMANRA~1\AppData\Local\Temp\ccWEGiYJ.s 			page 28


 352      0D
 353 0cf3 7835BCBD 		.ascii	"x5\274\275\326\0324\036k\275\015\232Uk=\014\026\320"
 353      D61A341E 
 353      6BBD0D9A 
 353      556B3D0C 
 353      16D0
 354 0d05 0580D544 		.ascii	"\005\200\325D_G>\364\360a\341\275N\357m\300\336\353"
 354      5F473EF4 
 354      F061E1BD 
 354      4EEF6DC0 
 354      DEEB
 355 0d17 BCB05E0F 		.ascii	"\274\260^\017o\275\301\302\303\323\2407h6|\364W\003"
 355      6FBDC1C2 
 355      C3D3A037 
 355      68367CF4 
 355      5703
 356 0d29 F00684DE 		.ascii	"\360\006\204\336\353c\317\325\360\351\2417h\275\365"
 356      EB63CFD5 
 356      F0E9A137 
 356      68BDF5
 357 0d38 ABA82F7B 		.ascii	"\253\250/{_\337\3176\207\370\373\372\272\276\267\362"
 357      5FDFCF36 
 357      87F8FBFA 
 357      BABEB7F2 
 358 0d48 BDE55A59 		.ascii	"\275\345ZY\323\370o\362\013\373\017\227\023&\344"
 358      D3F86FF2 
 358      0BFB0F97 
 358      1326E4
 359              		.text
 360              		.section	.gnu.lto_.symtab.3049a976,"",%progbits
 361 0000 6E766963 		.ascii	"nvicEnableVector\000"
 361      456E6162 
 361      6C655665 
 361      63746F72 
 361      00
 362 0011 00       		.ascii	"\000"
 363 0012 00       		.ascii	"\000"
 364 0013 00       		.ascii	"\000"
 365 0014 00000000 		.ascii	"\000\000\000\000\000\000\000\000"
 365      00000000 
 366 001c C7000000 		.ascii	"\307\000\000\000"
 367 0020 6E766963 		.ascii	"nvicDisableVector\000"
 367      44697361 
 367      626C6556 
 367      6563746F 
 367      7200
 368 0032 00       		.ascii	"\000"
 369 0033 00       		.ascii	"\000"
 370 0034 00       		.ascii	"\000"
 371 0035 00000000 		.ascii	"\000\000\000\000\000\000\000\000"
 371      00000000 
 372 003d CB000000 		.ascii	"\313\000\000\000"
 373 0041 6E766963 		.ascii	"nvicSetSystemHandlerPriority\000"
 373      53657453 
 373      79737465 
 373      6D48616E 
 373      646C6572 
ARM GAS  C:\Users\AMANRA~1\AppData\Local\Temp\ccWEGiYJ.s 			page 29


 374 005e 00       		.ascii	"\000"
 375 005f 00       		.ascii	"\000"
 376 0060 00       		.ascii	"\000"
 377 0061 00000000 		.ascii	"\000\000\000\000\000\000\000\000"
 377      00000000 
 378 0069 CD000000 		.ascii	"\315\000\000\000"
 379 006d 6E766963 		.ascii	"nvicClearPending\000"
 379      436C6561 
 379      7250656E 
 379      64696E67 
 379      00
 380 007e 00       		.ascii	"\000"
 381 007f 00       		.ascii	"\000"
 382 0080 00       		.ascii	"\000"
 383 0081 00000000 		.ascii	"\000\000\000\000\000\000\000\000"
 383      00000000 
 384 0089 CF000000 		.ascii	"\317\000\000\000"
 385              		.text
 386              		.section	.gnu.lto_.opts,"",%progbits
 387 0000 272D666D 		.ascii	"'-fmath-errno' '-fsigned-zeros' '-ftrapping-math' '"
 387      6174682D 
 387      6572726E 
 387      6F272027 
 387      2D667369 
 388 0033 2D666E6F 		.ascii	"-fno-trapv' '-fno-openmp' '-fno-openacc' '-mcpu=cor"
 388      2D747261 
 388      70762720 
 388      272D666E 
 388      6F2D6F70 
 389 0066 7465782D 		.ascii	"tex-m4' '-mthumb' '-mfloat-abi=hard' '-mfpu=fpv4-sp"
 389      6D342720 
 389      272D6D74 
 389      68756D62 
 389      2720272D 
 390 0099 2D643136 		.ascii	"-d16' '-O2' '-fomit-frame-pointer' '-falign-functio"
 390      2720272D 
 390      4F322720 
 390      272D666F 
 390      6D69742D 
 391 00cc 6E733D31 		.ascii	"ns=16' '-ffunction-sections' '-fdata-sections' '-fn"
 391      36272027 
 391      2D666675 
 391      6E637469 
 391      6F6E2D73 
 392 00ff 6F2D636F 		.ascii	"o-common' '-flto'\000"
 392      6D6D6F6E 
 392      2720272D 
 392      666C746F 
 392      2700
 393              		.text
 394              		.comm	__gnu_lto_v1,1,1
 395              		.comm	__gnu_lto_slim,1,1
 396              		.ident	"GCC: (GNU Tools for Arm Embedded Processors 7-2017-q4-major) 7.2.1 20170904 (release) [ARM
ARM GAS  C:\Users\AMANRA~1\AppData\Local\Temp\ccWEGiYJ.s 			page 30


DEFINED SYMBOLS
                            *ABS*:00000000 nvic.c
                            *COM*:00000001 __gnu_lto_v1
                            *COM*:00000001 __gnu_lto_slim

NO UNDEFINED SYMBOLS
