ARM GAS  C:\Users\AMANRA~1\AppData\Local\Temp\ccNdUiqj.s 			page 1


   1              		.cpu cortex-m4
   2              		.eabi_attribute 27, 1
   3              		.eabi_attribute 28, 1
   4              		.eabi_attribute 20, 1
   5              		.eabi_attribute 21, 1
   6              		.eabi_attribute 23, 3
   7              		.eabi_attribute 24, 1
   8              		.eabi_attribute 25, 1
   9              		.eabi_attribute 26, 1
  10              		.eabi_attribute 30, 2
  11              		.eabi_attribute 34, 1
  12              		.eabi_attribute 18, 4
  13              		.file	"chevents.c"
  14              		.section	.gnu.lto_.profile.29deb57c,"",%progbits
  15 0000 789C6363 		.ascii	"x\234cc```\003bF\206v\346\277\214\000\004\304\001\226"
  15      60606003 
  15      62468676 
  15      E6BF8C00 
  15      04C40196 
  16              		.text
  17              		.section	.gnu.lto_.icf.29deb57c,"",%progbits
  18 0000 789C6363 		.ascii	"x\234cc``\310c@\000!\206y3\247\037\344a:q\343\370c&"
  18      6060C863 
  18      40002186 
  18      7933A71F 
  18      E4613A71 
  19 0018 E65FB7B7 		.ascii	"\346_\267\267\314ba\2719\361T#\037k\367\361\357\357"
  19      CC6261B9 
  19      39F15423 
  19      1F6BF7F1 
  19      EFEF
  20 002a 18D94EAE 		.ascii	"\030\331N\256\373t\235\217\375\362\235\033\027y9\236"
  20      FB749D8F 
  20      FDF29D1B 
  20      1779399E 
  21 003a AFECDAC3 		.ascii	"\257\354\332\303\317\371~\355\324\017\374\\`\222\273"
  21      CFF97EED 
  21      D40FFC5C 
  21      6092BB
  22 0049 A3F77617 		.ascii	"\243\367v\0273\317\316\223\277;\330x\033\026o?\313\313"
  22      33CFCE93 
  22      BF3BD878 
  22      1B166F3F 
  22      CBCB
  23 005b B77AE2E4 		.ascii	"\267z\342\344#\334\374\033\026\336\375\302-\360k\351"
  23      23DCFC1B 
  23      16DEFDC2 
  23      2DF06BE9 
  24 006b 8A3F4C82 		.ascii	"\212?L\202kO\037\371\311)\264\253\257m\027\037\003\000"
  24      6B4F1FF9 
  24      C929B4AB 
  24      AF6D171F 
  24      0300
  25 007d 2B6D3752 		.ascii	"+m7R"
  26              		.text
  27              		.section	.gnu.lto_.jmpfuncs.29deb57c,"",%progbits
  28 0000 789C9551 		.ascii	"x\234\225Q\273n\002A\014\364\330\313\035\334A.\241\276"
ARM GAS  C:\Users\AMANRA~1\AppData\Local\Temp\ccNdUiqj.s 			page 2


  28      BB6E0241 
  28      0CF4D8CB 
  28      1DDC412E 
  28      A1BE
  29 0012 828FCB4F 		.ascii	"\202\217\313OP\321$U\332(\025R\370\003\212<\020\035"
  29      50D12455 
  29      DA281552 
  29      F8038A3C 
  29      101D
  30 0024 A2A18402 		.ascii	"\242\241\204\002)\312?\244\210\322\245@\211}g\020\267"
  30      29CA3FA4 
  30      88D2A540 
  30      897D6710 
  30      B7
  31 0035 A2004B23 		.ascii	"\242\000K#k\355\031{g7!\242[\246C\364)@\243\030\215"
  31      6BED197B 
  31      673721A2 
  31      5BA643F4 
  31      2940A318 
  32 004a 851450B0 		.ascii	"\205\024P\260B\230\001\331\027E\031\326\010\236[\236"
  32      429801D9 
  32      174519D6 
  32      089E5B9E 
  33 005a 933A2375 		.ascii	"\223:#ur\260\"\363\220\010\230\360\243`\3725\377\355"
  33      72B022F3 
  33      900898F0 
  33      A360FA35 
  33      FFED
  34 006c 3DC8585A 		.ascii	"=\310XZ \274\240\304\"\200\024\177\032\005\265\217v"
  34      20BCA0C4 
  34      2280147F 
  34      1A05B58F 
  34      76
  35 007d 485051A3 		.ascii	"HPQ\243\033\237;\306\206.Q0\005\333\0221x\210\270\224"
  35      1B9F3BC6 
  35      862E5130 
  35      05DB1231 
  35      7888B894 
  36 0091 B9881472 		.ascii	"\271\210\024r\256(w[]\277_R\331j\262R@\375=\335/\327"
  36      AE28775B 
  36      5DBF5F52 
  36      D96AB252 
  36      40FD3DDD 
  37 00a7 A9F94BD5 		.ascii	"\251\371K\325\337+J-\375<\257\266\241.\325\2747\224"
  37      DF2B4A2D 
  37      FD3CAFB6 
  37      A12ED5BC 
  37      3794
  38 00b9 A341CF5F 		.ascii	"\243A\317_\214M\265\373\336\354\272Fi#\303;\312jpf\303"
  38      8C4DB5FB 
  38      DEECBA46 
  38      6923C33B 
  38      CA6A7066 
  39 00ce E9EAC08B 		.ascii	"\351\352\300\213\032\305\361\200\217\317\2739\352\001"
  39      1AC5F180 
  39      8FCFBB39 
  39      EA01
ARM GAS  C:\Users\AMANRA~1\AppData\Local\Temp\ccNdUiqj.s 			page 3


  40 00dc 3966CECB 		.ascii	"9f\316\313+\336\265\337\331>\261\023\342)'\314\336\\"
  40      2BDEB5DF 
  40      D93EB113 
  40      E22927CC 
  40      DE5C
  41 00ee 2AE84782 		.ascii	"*\350G\202\346\376\023\002\372\007O]\222!"
  41      E6FE1302 
  41      FA074F5D 
  41      9221
  42              		.text
  43              		.section	.gnu.lto_.inline.29deb57c,"",%progbits
  44 0000 789C8552 		.ascii	"x\234\205R\277k\024A\024\376\336\314\354\354\217\333"
  44      BF6B1441 
  44      14FEDECC 
  44      ECEC8FDB 
  45 0010 BD9DBB6C 		.ascii	"\275\235\273l\016<O\262`\221\377\300Z\033\313\355,\005"
  45      0E3C4FB2 
  45      6091FFC0 
  45      5A1BCBED 
  45      2C05
  46 0022 1B1B837F 		.ascii	"\033\033\203\177\202\260E\204\200 [\210\246\020\274"
  46      82B04584 
  46      80205B88 
  46      A610BC
  47 0031 488A1429 		.ascii	"H\212\024)\"j\264\011\034\301\302\306x\240\205\205\205"
  47      226AB409 
  47      1CC1C2C6 
  47      78A08585 
  47      85
  48 0042 651A2D2C 		.ascii	"e\032-,\344\300\30673w\213\027\205L\361\336\233\367"
  48      E4C0C637 
  48      33778B17 
  48      854CF1DE 
  48      9BF7
  49 0054 DE7CF3CD 		.ascii	"\336|\363\315\367F\003\330\224hW\037\310R\202\310\336"
  49      F74603D8 
  49      9468571F 
  49      C85282C8 
  49      DE
  50 0065 DF4636BB 		.ascii	"\337F6\273!lN ]\347T\357\371\033\205\260\276\354r\022"
  50      216C4E20 
  50      5DE754EF 
  50      F91B85B0 
  50      BEEC7212 
  51 0079 71448492 		.ascii	"qD\204\2228L\232\012z\274& \246\271\262E\205N\262(v"
  51      384C9A0A 
  51      7ABC2620 
  51      A6B9B245 
  51      854EB228 
  52 008e 0FEE2E17 		.ascii	"\017\356.\027\003{\022\"\375v\323\347yi\237\212\367"
  52      037B1222 
  52      FD76D3E7 
  52      79699F8A 
  52      F7
  53 009f AE23FE72 		.ascii	"\256#\376r\305\245B\014\014E\210\356<\222\364ag\377"
  53      C5A5420C 
  53      0C4588EE 
ARM GAS  C:\Users\AMANRA~1\AppData\Local\Temp\ccNdUiqj.s 			page 4


  53      3C92F461 
  53      67FF
  54 00b1 443F904F 		.ascii	"D?\220OeB\011\275\244\221\254\005\242\2156\262-\277"
  54      654209BD 
  54      A491AC05 
  54      A28D36B2 
  54      2DBF
  55 00c3 672747A1 		.ascii	"g'G\241o\351\320\253\266e\0361\0219\226d\371\200/jS"
  55      6FE9D0AB 
  55      B6651E31 
  55      11399664 
  55      F9802F6A 
  56 00d8 22A7D310 		.ascii	"\"\247\323\020\341\326\272\000\007W\275\265D'd\303Z"
  56      E1D6BA00 
  56      0757BDB5 
  56      442764C3 
  56      5A
  57 00e9 08C4F535 		.ascii	"\010\304\3655\356\246\317\242Vj\341\241g\371$P\240\267"
  57      EEA6CFA2 
  57      566AE1A1 
  57      67F92450 
  57      A0B7
  58 00fb BC3362EE 		.ascii	"\2743b\356\241\247\335I`@\317D!\234u\332uP\200\232*"
  58      A1A7DD49 
  58      6040CF44 
  58      219C75DA 
  58      7550809A 
  59 0110 C2EA2F90 		.ascii	"\302\352/\220\242\322\262}|\377\370\243c+\371\236\327"
  59      A2D2B27D 
  59      7CFFF8A3 
  59      632BF99E 
  59      D7
  60 0121 3402951B 		.ascii	"4\002\225\033\316;ZpD\265\331\336\013\274BL\305x\013"
  60      CE3B5A70 
  60      44B5D9DE 
  60      0BBC424C 
  60      C5780B
  61 0134 B5F5824A 		.ascii	"\265\365\202JD\343\357\254\215\235\202\035US5U\214x"
  61      44E3EFAC 
  61      8D9D821D 
  61      55533555 
  61      8C78
  62 0146 C8A11AAF 		.ascii	"\310\241\032\257\265\242R\342\032\340\033\222\363\032"
  62      B5A252E2 
  62      1AE01B92 
  62      F31A
  63 0154 3A083579 		.ascii	":\0105y]n9[S\370\267:\312[k\"\027FV\250\324\002\245"
  63      5D6E395B 
  63      53F8B73A 
  63      CA5B6B22 
  63      174656A8 
  64 016b 289EF0B8 		.ascii	"(\236\360\270\305\360\364S\324\242+C\366\335\031V\013"
  64      C5F0F453 
  64      D4A22B43 
  64      F6DD1956 
  64      0B
  65 017c 2E95BB5F 		.ascii	".\225\273_\251-\261& t\261\322\347\312h\363\350l%Go"
ARM GAS  C:\Users\AMANRA~1\AppData\Local\Temp\ccNdUiqj.s 			page 5


  65      A92DB126 
  65      2074B1D2 
  65      E7CA68F3 
  65      E86C2547 
  66 0191 65F17D06 		.ascii	"e\361}\006\223]Z\376?\276\307\340R\217\344\0319c\276"
  66      935D5AFE 
  66      3FBEC7E0 
  66      528FE419 
  66      3963BE
  67 01a4 F2702EA7 		.ascii	"\362p.\247\367\014\021\014\177\356\314!\32447H\3673"
  67      F70C110C 
  67      7FEECC21 
  67      D4343748 
  67      F733
  68 01b6 A63E53FE 		.ascii	"\246>S\376\247f\340\015\232\252\207\213\306\341\375"
  68      A766E00D 
  68      9AAA878B 
  68      C6E1FD
  69 01c5 076070F8 		.ascii	"\007`p\370\360|\200>.\0307\337\177\001\334Kt\261}o\001"
  69      F07C803E 
  69      2E1837DF 
  69      7F01DC4B 
  69      74B17D6F 
  70 01da 521844C7 		.ascii	"R\030D\307)\237\373\021\226\020\357\3642\022\376\000"
  70      299FFB11 
  70      9610EFF4 
  70      3212FE00 
  71 01ea 771B859A 		.ascii	"w\033\205\232"
  72              		.text
  73              		.section	.gnu.lto_.pureconst.29deb57c,"",%progbits
  74 0000 789C0DC3 		.ascii	"x\234\015\303\307\021\2000\014\000A\035\301d\014\376"
  74      C7118030 
  74      0C00411D 
  74      C1640CFE 
  75 0010 A13228FF 		.ascii	"\2412(\377\252\203\235\331\022\021\357\277\205t\322"
  75      AA839DD9 
  75      1211EFBF 
  75      8574D2
  76 001f E720A314 		.ascii	"\347 \243\024\231r\316EV\331r\177\0169\245\312%\267"
  76      9972CE45 
  76      56D9727F 
  76      0E39A5CA 
  76      25B7
  77 0031 34F9000E 		.ascii	"4\371\000\016>\012\365"
  77      3E0AF5
  78              		.text
  79              		.section	.gnu.lto_chEvtRegisterMaskWithFlags.29deb57c,"",%progbits
  80 0000 789C9D55 		.ascii	"x\234\235U_LSg\024\377\316\375noK)\214\207eY\034\017"
  80      5F4C5367 
  80      14FFCEFD 
  80      6E6F4B29 
  80      8C876559 
  81 0016 258E80C6 		.ascii	"%\216\200\306\364\352\036\266\370\270\3602\037H\026"
  81      F4EA1EB6 
  81      F8B8F032 
  81      1F4816
  82 0025 795D42B4 		.ascii	"y]B\264\353\260\011\245\244\227\371\347\211+\177V6\266"
ARM GAS  C:\Users\AMANRA~1\AppData\Local\Temp\ccNdUiqj.s 			page 6


  82      EBB009A5 
  82      A497F9E7 
  82      892B7F56 
  82      36B6
  83 0037 CCCCC180 		.ascii	"\314\314\301\200\225R\347\252\333\203\2729\347VD\254"
  83      9552E7AA 
  83      DB83BA39 
  83      E75644AC 
  84 0047 B0A188FC 		.ascii	"\260\241\210\374\221\2018a\2100\221jCt1\331\034\201"
  84      91813861 
  84      8830916A 
  84      437431D9 
  84      1C81
  85 0059 ED9CEF16 		.ascii	"\355\234\357\026\206\255\220\314\233\266\371\3569\337"
  85      86AD90CC 
  85      9BB6F9EE 
  85      39DF
  86 0067 EF777EF7 		.ascii	"\357w~\367w\317\371\2520\306\026\024\306\314\300\330"
  86      77CFF9AA 
  86      30C61614 
  86      C6CCC0D8 
  87 0077 4BB806CE 		.ascii	"K\270\006\316@:4\300\330A\213\004@\013\335\002\254R"
  87      403A34C0 
  87      D8418B04 
  87      400BDD02 
  87      AC52
  88 0089 824AF890 		.ascii	"\202J\370\220\177\312\241\313?\033\2216\035\327\361"
  88      7FCAA1CB 
  88      3F1B9136 
  88      1DD7F1
  89 0098 8A7E1634 		.ascii	"\212~\0264\277\247\327\276\030\340\2145\342\227.\370"
  89      BFA7D7BE 
  89      18E08C35 
  89      E2972EF8 
  90 00a8 0E36E1AE 		.ascii	"\0166\341\256k5\337\004x=\017p\000\031o\037\366\267"
  90      6B35DF04 
  90      783D0F70 
  90      00196F1F 
  90      F6B7
  91 00ba CC64D2AD 		.ascii	"\314d\322\255\004v\274m\035\233\212\247\361\315\300"
  91      0476BC6D 
  91      1D9B8AA7 
  91      F1CDC0
  92 00c9 703DF4E5 		.ascii	"p=\364\345\243C\326\274\260\256W\351\321\253\307\270"
  92      A343D6BC 
  92      B0AE57E9 
  92      D1ABC7B8 
  93 00d9 FE728073 		.ascii	"\376r\200s8\013\034\011\341{\310\2063\220\3150\304\340"
  93      380B1C09 
  93      E17BC886 
  93      3390CD30 
  93      C4E0
  94 00eb 07C8C3ED 		.ascii	"\007\310\303\355\243\376\272y\023w\010h\375\305\241"
  94      A3FEBA79 
  94      13770868 
  94      FDC5A1
  95 00fa 1A9E80F6 		.ascii	"\032\236\200\366\264\276p\254Z\177#\300e\3701\031,3"
ARM GAS  C:\Users\AMANRA~1\AppData\Local\Temp\ccNdUiqj.s 			page 7


  95      B4BE70AC 
  95      5A7F23C0 
  95      65F83119 
  95      2C33
  96 010c 880870F3 		.ascii	"\210\010p\363\361\305!\316_\021\340\336\336I[\002;\320"
  96      F1C521CE 
  96      5F11E0DE 
  96      DE495B02 
  96      3BD0
  97 011e BA212CB0 		.ascii	"\272!,\260&hO\306\232\030\234\023\330#\207\233\3036"
  97      26684FC6 
  97      9A189C13 
  97      D823879B 
  97      C336
  98 0130 BEDDD03C 		.ascii	"\276\335\320<\275\020Q\022\340\353\255\331\006X\201"
  98      BD105112 
  98      E0EBADD9 
  98      065881
  99 013f 8E64B0C2 		.ascii	"\216d\260\302\340<\344\021b\372\333\245\206\014E\016"
  99      E03CE411 
  99      62FADBA5 
  99      860C450E 
 100 014f 2D3B059D 		.ascii	"-;\005\235\240\300J\274F\2709\037TD\274\221\303*\010"
 100      A0C04ABC 
 100      46B8391F 
 100      5444BC91 
 100      C32A08
 101 0162 830BB835 		.ascii	"\203\013\2705\012\012K\332\336\335\224_\314(\321\310"
 101      0A0A4BDA 
 101      DEDD945F 
 101      CC28D1C8 
 102 0172 25CA85AF 		.ascii	"%\312\205\257\014_H\347n\201\375\372\344\221&[\356Q"
 102      0C5F48E7 
 102      6E81FDFA 
 102      E491265B 
 102      EE51
 103 0184 21703098 		.ascii	"!p0\230\037\254\256\377H\017Ue\005\270\031\272\236\024"
 103      1FACAEFF 
 103      480F5565 
 103      05B819BA 
 103      9E14
 104 0196 49578A0E 		.ascii	"IW\212\016|\003\335\220\313\340\"\221\363'\304\374\204"
 104      7C03DD90 
 104      CBE02291 
 104      F327C4FC 
 104      84
 105 01a7 627E4631 		.ascii	"b~F1\364\203\035\303N\015\233\242\372\322?~l\206\347"
 105      F4831DC3 
 105      4E0D9BA2 
 105      FAD23F7E 
 105      6C86E7
 106 01ba 5B2762F3 		.ascii	"['b\363\033\263\200\034\227\360\307\"\003\2754\023\220"
 106      1BB3801C 
 106      97F0C722 
 106      03BD3413 
 106      90
 107 01cb FB69403E 		.ascii	"\373i@>\332@\030\302\352\320\003l-=\312\336G\361\270"
ARM GAS  C:\Users\AMANRA~1\AppData\Local\Temp\ccNdUiqj.s 			page 8


 107      DA4018C2 
 107      EAD0036C 
 107      2D3DCADE 
 107      47F1B8
 108 01de AA8EB259 		.ascii	"\252\216\262Y\220\236\"\375\363\365\245C\017\344\"\310"
 108      909E22FD 
 108      F3F5A543 
 108      0FE422C8 
 109 01ee 1FD3CFCB 		.ascii	"\037\323\317\313\324_f\260\303%\314\335\207\252\351"
 109      D45F66B0 
 109      C325CCDD 
 109      87AAE9
 110 01fd 99C6F65B 		.ascii	"\231\306\366[\311\036\037\3560'<\226S\375\334\362\026"
 110      C91E1FEE 
 110      30273C96 
 110      53FDDCF2 
 110      16
 111 020e 83CB9433 		.ascii	"\203\313\2243%\347\372\202\371\330\312=\344Io\252'W"
 111      25E7FA82 
 111      F9D8CA3D 
 111      E4496FAA 
 111      2757
 112 0220 D08A3EF2 		.ascii	"\320\212>\362\244\217<\001\026\247\252_\264\235\376"
 112      A48F3C01 
 112      16A7AA5F 
 112      B49DFE
 113 022f CB9AB308 		.ascii	"\313\232\263\010mz\223=\300\323\010pb\346\234nAk\030"
 113      6D7A933D 
 113      C0D30870 
 113      62E69C6E 
 113      416B18
 114 0242 5C851C61 		.ascii	"\\\205\034a\373\203\370\310\270\204\021\350\007Y\350"
 114      FB83F8C8 
 114      B88411E8 
 114      0759E8
 115 0251 66302006 		.ascii	"f0 \006\346\253\316\356;\266\034]2\320V\332\373\307"
 115      E6ABCEEE 
 115      3BB61C5D 
 115      32D056DA 
 115      FBC7
 116 0263 C9D3A3E9 		.ascii	"\311\323\243\351\002=Hh\030\002\031=\253\262\013\017"
 116      023D4868 
 116      1802193D 
 116      ABB20B0F 
 117 0273 18BB0755 		.ascii	"\030\273\007U\355\217\247\377| \321\343\265p\222\320"
 117      ED8FA7FF 
 117      7C20D1E3 
 117      B57092D0 
 118 0283 58DB3568 		.ascii	"X\3335h&W\214\206\352\350\352\357QB\020<\210O\204\244"
 118      26578C86 
 118      EAE8EAEF 
 118      5142103C 
 118      884F84A4 
 119 0297 E92D382B 		.ascii	"\351-8+\327\250&\346F\3747&\323\325\023\272\221\222"
 119      D7A826E6 
 119      46FC3726 
 119      D3D513BA 
ARM GAS  C:\Users\AMANRA~1\AppData\Local\Temp\ccNdUiqj.s 			page 9


 119      9192
 120 02a9 611842D0 		.ascii	"a\030B\320 F\032~\001\225\310G>h6\021\365j^9\2057\264"
 120      20461A7E 
 120      0195C847 
 120      3E683611 
 120      F56A5E39 
 121 02c0 21C06D2D 		.ascii	"!\300m-8H#k\020\217\012b\352\034\270\016*\352$\356\226"
 121      3848236B 
 121      108F0A62 
 121      EA1CB80E 
 121      2AEA24EE 
 122 02d5 D8DC516B 		.ascii	"\330\334Qk\202<\231m]\231c\377\311\274Al&aC,6c5\\\220"
 122      823C996D 
 122      5D9963FF 
 122      C9BC416C 
 122      2661432C 
 123 02ee 56ABCD10 		.ascii	"V\253\315\020j#\221\370\270\271rQ\267` DB0v\246\372"
 123      6A2391F8 
 123      B8B97251 
 123      B7602044 
 123      423076A6 
 124 0303 E1279958 		.ascii	"\341'\231X\023\002<\023n\342I\367k\242\336\331K\023"
 124      13023C13 
 124      6EE249F7 
 124      6BA2DED9 
 124      4B13
 125 0315 0B96957A 		.ascii	"\013\226\225z\317\301\270\250'\0313\363\367Xu\255\264"
 125      CFC1B8A8 
 125      271933F3 
 125      F75875AD 
 125      B4
 126 0326 92B4C004 		.ascii	"\222\264\300\004\250\015\\\014\367o)\226\375\017\217"
 126      A80D5C0C 
 126      F76F2996 
 126      FD0F8F
 127 0335 2C3029AA 		.ascii	",0)\252\310\304t\213\236J2<\272\267\246G\353\260\231"
 127      C8C4748B 
 127      9E4A323C 
 127      BAB7A647 
 127      EBB099
 128 0348 604AB099 		.ascii	"`J\260\231\210\3556\261\245\021\333\243\271\373\317"
 128      88ED36B1 
 128      A511DBA3 
 128      B9FBCF
 129 0357 C2A6C0B4 		.ascii	"\302\246\300\264`S\210m\006T\334p*\036y\234A\366\342"
 129      6053886D 
 129      0654DC70 
 129      2A1E799C 
 129      41F6E2
 130 036a E0C3EF88 		.ascii	"\340\303\357\210\022Z\343\317\306~G\260\233\211}\226"
 130      125AE3CF 
 130      C67E47B0 
 130      9B897D96 
 131 037a B4DAC4A9 		.ascii	"\264\332\304\251@\207\321\352\027\211\177Upw\365\220"
 131      4087D1EA 
 131      17897F55 
 131      7077F590 
ARM GAS  C:\Users\AMANRA~1\AppData\Local\Temp\ccNdUiqj.s 			page 10


 132 038a 1B875162 		.ascii	"\033\207Qb\360\226\332nw\246/\317\324]1Ssb\246\222\007"
 132      F096DA6E 
 132      77A62FCF 
 132      D45D3153 
 132      7362A692 
 133 039f 28660CD0 		.ascii	"(f\014\320T\370\343\233%\242\006c\363x[?\277\221\244"
 133      54F8E39B 
 133      25A20663 
 133      F3785B3F 
 133      BF91A4
 134 03b2 8BE3A50E 		.ascii	"\213\343\245\016\033\004O'\304\3449\034*~\234{\334\273"
 134      1B044F27 
 134      C4E4391C 
 134      2A7E9C7B 
 134      DCBB
 135 03c4 DD5E6DDB 		.ascii	"\335^m\333\366m[U\257\246\372*T\315\347\304\250k\257"
 135      F66D5B55 
 135      AFA6FA2A 
 135      54CDE7C4 
 135      A86BAF
 136 03d7 ABAC4273 		.ascii	"\253\254Bs8\031wi\345\334UZ\256\030\021e\337;\245\273"
 136      38197769 
 136      E5DC555A 
 136      AE181165 
 136      DF3BA5BB 
 137 03eb 4AB4FCB5 		.ascii	"J\264\374\265\320\3562g\351\273o\2730\243\035\320\034"
 137      D0EE3267 
 137      E9BB6FBB 
 137      30A31DD0 
 137      1C
 138 03fc 7B9879F7 		.ascii	"{\230y\367.\315\365\246\317\375\352S\001N\257\307\343"
 138      2ECDF5A6 
 138      CFFDEA53 
 138      014EAFC7 
 138      E3
 139 040d 2D53CBBD 		.ascii	"-S\313\275\276\012M}}gaA\341~\334\342\364\372\\\305"
 139      BE0A4D7D 
 139      7D676141 
 139      E17EDCE2 
 139      F4FA5CC5 
 140 0421 7B5FF320 		.ascii	"{_\363 \274`=\230k\177\005\201\324\202\302\242\035E"
 140      BC603D98 
 140      6B7F0581 
 140      D482C2A2 
 140      1D45
 141 0433 6A01A2D4 		.ascii	"j\001\242\324\035\313\345=\232[+.q:\221#\253\260h\247"
 141      1DCBE53D 
 141      9A5B2B2E 
 141      713A9123 
 141      ABB068A7 
 142 0447 9D6494FB 		.ascii	"\235d\224\373\334[\354\271[\231\344cf\217\313\343\365"
 142      DC5BECB9 
 142      5B99E463 
 142      668FCBE3 
 142      F5
 143 0458 1D60FF02 		.ascii	"\035`\377\002\007\314\226\013"
 143      07CC960B 
ARM GAS  C:\Users\AMANRA~1\AppData\Local\Temp\ccNdUiqj.s 			page 11


 144              		.text
 145              		.section	.gnu.lto_chEvtUnregister.29deb57c,"",%progbits
 146 0000 789C7D54 		.ascii	"x\234}T_LSg\024?\347~\337\275\355\332n\361\321\030\037"
 146      5F4C5367 
 146      143FE77E 
 146      DFBDEDDA 
 146      6EF1D118 
 147 0015 4AB20658 		.ascii	"J\262\006X\226^\365a\213/K\014O>\220,\362\274\030\351"
 147      965EF561 
 147      8B2F4B0C 
 147      4F3E902C 
 147      F2BC18E9 
 148 0029 6EB489A5 		.ascii	"n\264\211\245M/3\362\344\265\200\005\321\305d\3741]"
 148      4D2F33F2 
 148      E4B58005 
 148      D1C564FC 
 148      315D
 149 003b 071DAB93 		.ascii	"\007\035\253\223\271\250\233\233N\252b)\312\320\201"
 149      B9A89B9B 
 149      4EAA6229 
 149      CAD081
 150 004a 2282184D 		.ascii	"\"\202\030M&J Q\011\316\215\220m&l\347\373nA\255\300"
 150      264A2051 
 150      09CE8D90 
 150      6D266CE7 
 150      FB6E41AD 
 151 005f 4D7BEFFD 		.ascii	"M{\357\375\3169\277\363\375\316\357\234\357j\000P\243"
 151      CE39BFF3 
 151      FDCEEF9C 
 151      EF6A0050 
 151      A3
 152 0070 02BCA0E7 		.ascii	"\002\274\240\347\016\372\243\023P9r\003`\277SA\325~"
 152      0EFAA313 
 152      50397203 
 152      60BF5341 
 152      D57E
 153 0082 610A9F55 		.ascii	"a\012\237U\301r9:\007\000,\017G\315\266;\354\200-\252"
 153      C172393A 
 153      07002C0F 
 153      47CDB63B 
 153      EC802DAA 
 154 0096 C2A4C7A5 		.ascii	"\302\244\307\245\2110\217\206(\314\226\023a\237\302"
 154      89308F86 
 154      28CC9613 
 154      619FC2
 155 00a5 B843D570 		.ascii	"\270C\325p\237B[\330\327!\326\3140\027\237\356VJ\217"
 155      9F425BD8 
 155      D721D6CC 
 155      30179FEE 
 155      564A8F
 156 00b8 5B7465DB 		.ascii	"[te\333\022\256\003V\375\332$\003hev\014\376\204\245"
 156      12AE0356 
 156      FDDA2403 
 156      6865760C 
 156      FE84A5
 157 00cb 1475ABEE 		.ascii	"\024u\253\356\207$kbI\206\310i\371|(1\371\216X*\350"
 157      87246B62 
ARM GAS  C:\Users\AMANRA~1\AppData\Local\Temp\ccNdUiqj.s 			page 12


 157      4986C869 
 157      F97C2831 
 157      F98E582A 
 158 00e0 A5E557E3 		.ascii	"\245\345W\343\0233o\261\367\020\350}8=w\304U|\314\262"
 158      13336FB1 
 158      F710E87D 
 158      383D77C4 
 158      557CCCB2 
 159 00f4 6256762E 		.ascii	"bVv.\315\254w\223\214\3419d\224\020\317\342z\374\031"
 159      CDAC7793 
 159      8CE13964 
 159      9410CFE2 
 159      7AFC19
 160 0107 D7039900 		.ascii	"\327\003\231\000\177\301b\012\037\2137\314\252\314/"
 160      7FC1620A 
 160      1F8B37CC 
 160      AACC2F
 161 0116 A14DBDC3 		.ascii	"\241M\275\303u,\017\2359.\241\034\317\027B9`7\026\213"
 161      752C0F9D 
 161      392EA11C 
 161      CF174239 
 161      6037168B 
 162 012a F8C16CE3 		.ascii	"\370\301l\343i\027\333$\261/\332\272\247\270\357\033"
 162      6917DB24 
 162      B12FDABA 
 162      A7B8EF1B 
 163 013a 899DEF5A 		.ascii	"\211\235\357Z\327Yk\015X\\\3403\257\343\305E\341\217"
 163      D7596B0D 
 163      585CE033 
 163      AFE3C545 
 163      E18F
 164 014c 7E5C6879 		.ascii	"~\\hy[\343x\001}\251\305j\361\"j\270\344\253\223\212"
 164      5BE37801 
 164      7DA9C56A 
 164      F1226AB8 
 164      E4AB938A 
 165 0160 2C9CD0A4 		.ascii	",\234\320\244\275\225\341+0\300K\024\332\203\032\024"
 165      BD95E12B 
 165      30C04B14 
 165      DA831A14 
 166 0170 844FF67F 		.ascii	"\204O\366\177\244\202p\2642E\370\216]\037\271\354f\237"
 166      A48270B4 
 166      3245F88E 
 166      5D1FB9EC 
 166      669F
 167 0182 48EC77A7 		.ascii	"H\354w\247\276>\352\3113|\226,i\257m:l\245bk\222L\305"
 167      BE3EEAC9 
 167      337C962C 
 167      69AF6D3A 
 167      6CA5626B 
 168 0199 EC2A1CED 		.ascii	"\354*\034\355\304\263\355\244b/\372\000/\213\344\354"
 168      C4B3EDA4 
 168      622FFA00 
 168      2F8BE4EC 
 169 01a9 35323922 		.ascii	"529\"\323Gd\304\015\251\016Q\325\351\0215k-\374\027"
 169      D34764C4 
 169      0DA90E51 
ARM GAS  C:\Users\AMANRA~1\AppData\Local\Temp\ccNdUiqj.s 			page 13


 169      D5E91135 
 169      6B2DFC17 
 170 01bd A7A6AEEB 		.ascii	"\247\246\256\353j>px\234{\020\204C\021\0222q\343rM#"
 170      6A3E7078 
 170      9C7B1084 
 170      43111232 
 170      71E3724D 
 171 01d2 429D70A2 		.ascii	"B\235p\242\024\025\032H\210\264\333\312B#\025\220v\327"
 171      14151A48 
 171      88B4DBCA 
 171      42231590 
 171      76D7
 172 01e4 66611A63 		.ascii	"fa\032c\251g\315\252\024\207\302\023L#\223\262LA_\256"
 172      A967CDAA 
 172      1487C213 
 172      4C2393B2 
 172      4C415FAE 
 173 01f8 5E105E41 		.ascii	"^\020^A\037\201\342\217\255K\\L\216\212^\274J\276\247"
 173      1F81E28F 
 173      AD4B5C4C 
 173      8E8A5EBC 
 173      4ABEA7
 174 020b 187BF457 		.ascii	"\030{\364WK\346A\241\362_d\\y\345\371\033*Oo\"\225\373"
 174      4BE641A1 
 174      F25F645C 
 174      79E5F91B 
 174      2A4F6F22 
 175 0221 854F2DF4 		.ascii	"\205O-\364=M\226\320\220^\021J\375\372\246R\003T\304"
 175      3D4D96D0 
 175      905E114A 
 175      FDFAA652 
 175      0354C4
 176 0234 35A1D435 		.ascii	"5\241\3245\241\024\302\204\330\265\263\343\314\337\256"
 176      A114C284 
 176      D8B5B3E3 
 176      CCDFAE
 177 0243 A2E7D861 		.ascii	"\242\347\330a\035\365&\231\354\351\311\311\013\226\223"
 177      1DF52699 
 177      ECE9C9C9 
 177      0B9693
 178 0252 2BC4FA3A 		.ascii	"+\304\372:\026\311f\37413z_!\013\376\206\\\362\006\034"
 178      16C966FC 
 178      31337A5F 
 178      210BFE86 
 178      5CF2061C 
 179 0266 9447A1AB 		.ascii	"\224G\241\253\247o\312S4\227G;D\354\237\247\316\214"
 179      A76FCA53 
 179      3497473B 
 179      44EC9FA7 
 179      CE8C
 180 0278 B9257A48 		.ascii	"\271%zH\240\361\006r!\243Wj \264h$ZtLI\335)\254\273"
 180      A0F10672 
 180      21A3576A 
 180      20B46824 
 180      5A744C49 
 181 0290 D7D73672 		.ascii	"\327\3276r\320#JM0\226`N\260#8\234S)\340\011\3062\217"
 181      D0234A4D 
ARM GAS  C:\Users\AMANRA~1\AppData\Local\Temp\ccNdUiqj.s 			page 14


 181      3096604E 
 181      B023389C 
 181      5329E009 
 182 02a7 4FD4BB6D 		.ascii	"O\324\273m\277B\331[\353s7\035BA.\307\352bn\250_Ka\373"
 182      BF42D95B 
 182      EB73371D 
 182      42412EC7 
 182      EA626EA8 
 183 02bf 7EAA9E08 		.ascii	"~\252\236\0108)\003\336\024\374\3107\032\277\373\273"
 183      382903DE 
 183      14FCC837 
 183      1ABFFBBB 
 184 02cf 5B3F69D9 		.ascii	"[?i\331.\216\303\230\302\026y\260\361\026\352\"\367"
 184      2E8EC398 
 184      C21679B0 
 184      F116EA22 
 184      F7
 185 02e0 E8C17F98 		.ascii	"\350\301\177\230H]\220(U\0112\025\256\230j\344e\252"
 185      485D9028 
 185      55093215 
 185      AE986AE4 
 185      65AA
 186 02f2 DBA81333 		.ascii	"\333\250\0233\200y\304\204\030-\032\"\007\314\344\000"
 186      8079C484 
 186      182D1A22 
 186      07CCE400 
 187 0302 1BA93DF4 		.ascii	"\033\251=\364\371\221C\244\200==\334\256\250cJ\313W"
 187      F99143A4 
 187      803D3DDC 
 187      AEA8634A 
 187      CB57
 188 0314 BC6C097C 		.ascii	"\274l\011|\305}G_\356;F%\220~\367\373\006qI=Mx\346\221"
 188      C57D475F 
 188      EE3B4625 
 188      907EF7FB 
 188      0671493D 
 189 032c D39BF2EF 		.ascii	"\323\233\362\357\267\245dsd\276\337Lrj\213\323LDz\345"
 189      B7A56473 
 189      64BEDF4C 
 189      726A8BD3 
 189      4C447AE5 
 190 0340 242EE9A8 		.ascii	"$.\351\250\322$\334yu\022\355s\224\237\216\205\216\207"
 190      D224DC79 
 190      7512ED73 
 190      949F8E85 
 190      8E87
 191 0352 3DEEC5C6 		.ascii	"=\356\305\306\337\221\215\037\227\215/\354\362]\273"
 191      DF918D1F 
 191      978D2FEC 
 191      F25DBB
 192 0361 CB13673F 		.ascii	"\313\023g?\277\267S\356\0010K\313\246\363>\301Nv\265"
 192      BFB753EE 
 192      01304BCB 
 192      A6F33EC1 
 192      4E76B5
 193 0374 81BE2269 		.ascii	"\201\276\"i7A\212\375~\235~\201]\301\312`\330\334\270"
 193      37418AFD 
ARM GAS  C:\Users\AMANRA~1\AppData\Local\Temp\ccNdUiqj.s 			page 15


 193      7E9D7E81 
 193      5DC1CA60 
 193      D8DCB8
 194 0387 79E3063D 		.ascii	"y\343\006=l\352\321j\335\214\006\310j\3541\252\252M"
 194      6CEAD16A 
 194      DD8C06C8 
 194      6AEC31AA 
 194      AA4D
 195 0399 7F009861 		.ascii	"\177\000\230aF\230\261;\202\221\222\225\020\301\252"
 195      4698B13B 
 195      82919295 
 195      10C1AA
 196 03a8 C0EECF3E 		.ascii	"\300\356\317>5\310c\326\230\376]\340\250\334a\032\037"
 196      35C863D6 
 196      98FE5DE0 
 196      A8DC611A 
 196      1F
 197 03b9 47831F2C 		.ascii	"G\203\037,\013\010\204C\241p\225\036\011G\253M}\313"
 197      0B088443 
 197      A170951E 
 197      0947AB4D 
 197      7DCB
 198 03cb B6F2B2F2 		.ascii	"\266\362\262\362\275\024\022\010G\215\355{>\014\021"
 198      BD141208 
 198      478DED7B 
 198      3E0C11
 199 03da BC6C3598 		.ascii	"\274l5\230\261\267Z\200\364\262\362\212\255\025z\031"
 199      B1B75A80 
 199      F4B2F28A 
 199      AD157A19 
 200 03ea A1F4AD8B 		.ascii	"\241\364\255\213\333\207\314\240\271}g @9\326\224Wl"
 200      DB87CCA0 
 200      B97D6720 
 200      4039D694 
 200      576C
 201 03fc F30A1A91 		.ascii	"\363\012\032\221h\360}\257o\003(Qp\204\214P8Z\003\377"
 201      68F07DAF 
 201      6F032851 
 201      70848C50 
 201      385A03FF 
 202 0410 039A5C12 		.ascii	"\003\232\\\022\204"
 202      84
 203              		.text
 204              		.section	.gnu.lto_chEvtGetAndClearEventsI.29deb57c,"",%progbits
 205 0000 789C8D51 		.ascii	"x\234\215QKk\023Q\024\276\337\234\311$\2455\013\227"
 205      4B6B1351 
 205      14BEDF9C 
 205      C924A535 
 205      0B97
 206 0012 1A240B4B 		.ascii	"\032$\013K\250h\306\270\363\247\2705\024\354B\013Mq"
 206      A868C6B8 
 206      F3A7B835 
 206      14EC420B 
 206      4D71
 207 0024 9BDBC4B6 		.ascii	"\233\333\304\266\361\261\020i\"\206Q#\242\335(*\306"
 207      F1B11069 
 207      22865123 
ARM GAS  C:\Users\AMANRA~1\AppData\Local\Temp\ccNdUiqj.s 			page 16


 207      A2DD282A 
 207      C6
 208 0035 B6A951C7 		.ascii	"\266\251Q\307\250\265\001\243UjU\224,,\012\226X(\270"
 208      A8B501A3 
 208      556A5594 
 208      2C2C0A96 
 208      5828B8
 209 0048 F1D1E839 		.ascii	"\361\321\35093\241\326\235\303\314}\234\373\275\356"
 209      33A1D69D 
 209      C3CC7D9C 
 209      FBBDEE
 210 0057 194B2955 		.ascii	"\031K)U5\224\332\307\363v\376@\012\306\351\347J\215"
 210      3594DAC7 
 210      F376FE40 
 210      0AC6E9E7 
 210      4A8D
 211 0069 840C4016 		.ascii	"\204\014@\026:\004\2256\220\306)\232 \274<v\323\241"
 211      3A049536 
 211      90C6299A 
 211      20BC3C76 
 211      D3A1
 212 007b 93E430CC 		.ascii	"\223\3440\314\344\355Z\243\270\034\226-\020\345mku\256"
 212      E4ED5AA3 
 212      B81C962D 
 212      10E56D6B 
 212      75AE
 213 008d DCD337A9 		.ascii	"\334\3237\251uF\273g'\272\317\227\027t\227C\206*0\274"
 213      7546BB67 
 213      27BACF97 
 213      17749743 
 213      862A30BC 
 214 00a1 8C086E23 		.ascii	"\214\010n#\"\036w\320\307\340s\223\353\013D\273\240"
 214      221E77D0 
 214      C7E07393 
 214      EB0B44BB 
 214      A0
 215 00b2 785DAF37 		.ascii	"x]\2577{bW<\336\263\253\244w2\011S\240\315<\321\301"
 215      7B62573C 
 215      DEB3ABA4 
 215      77320953 
 215      A0CD3CD1 
 216 00c7 3462027F 		.ascii	"4b\002\177\322\236\316\231\224\360\250K\027_\317\207"
 216      D29ECE99 
 216      94F0A84B 
 216      175FCF87 
 217 00d7 7B2F7BDC 		.ascii	"{/{\334\346\265\035\227\262z^\233\302\237\371\227/\017"
 217      E6B51D97 
 217      B27A5E9B 
 217      C29FF997 
 217      2F0F
 218 00e9 C33FDE6A 		.ascii	"\303?\336j\347\267X&*\350\225X\234f\026\226\002\317"
 218      E7B75826 
 218      2AE89558 
 218      9C661696 
 218      02CF
 219 00fb 52BAF12A 		.ascii	"R\272\361*\340\352\366\357q\355.\355\376\376\255\265"
 219      E0EAF6EF 
ARM GAS  C:\Users\AMANRA~1\AppData\Local\Temp\ccNdUiqj.s 			page 17


 219      71ED2EED 
 219      FEFEADB5 
 220 010b B50BECCB 		.ascii	"\265\013\354\313\306\016\231$\203)\203\005\311\021T"
 220      C60E9924 
 220      83298305 
 220      C91154
 221 011a 9E86CAB1 		.ascii	"\236\206\312\261\010\367I\273\3528\003y\225u\325\012"
 221      08F749BB 
 221      EA380379 
 221      9575D50A 
 222 012a 32B35F1A 		.ascii	"2\263_\032\237 \332E\002\333\026Fk/\202\322\250\200"
 222      9F20DA45 
 222      02DB1646 
 222      6B2F82D2 
 222      A880
 223 013c 17BA5269 		.ascii	"\027\272Ri\275\017\246\327u\210\013%\362\223\225\263"
 223      BD0FA6D7 
 223      75880B25 
 223      F29395B3 
 224 014c 6B67C225 		.ascii	"kg\302%\\\200C\026\252\334\360\273\222\232\017\246\236"
 224      5C804316 
 224      AADCF0BB 
 224      929A0FA6 
 224      9E
 225 015d 7EF819B2 		.ascii	"~\370\031\262\257k~\242\016\005q\017%\344\251s\237\037"
 225      AF6B7EA2 
 225      0E05710F 
 225      25E4A973 
 225      9F1F
 226 016f 6FB2A3C6 		.ascii	"o\262\243\306\306!\341>\354<A\356\365\000\266\027\244"
 226      C621E13E 
 226      EC3C41EE 
 226      F500B617 
 226      A4
 227 0180 1EF16318 		.ascii	"\036\361c\030\233c\220\027\243Zk\314Yl9\342\263C\234"
 227      9B639017 
 227      A35A6BCC 
 227      596C39E2 
 227      B3439C
 228 0193 156EC775 		.ascii	"\025n\307uq\374m\263{C\330\300C\317\325\020\345\232"
 228      71FC6DB3 
 228      7B43D8C0 
 228      43CFD510 
 228      E59A
 229 01a5 A79CFD35 		.ascii	"\247\234\3755v\300W\016\262x\221,\365\031\231\250T\244"
 229      76C0570E 
 229      B278912C 
 229      F51999A8 
 229      54A4
 230 01b7 315C15F7 		.ascii	"1\\\025\367\366\330\327w3\235>\220`<^%\340WL\217H\002"
 230      F6D8D777 
 230      339D3E90 
 230      603C5E25 
 230      E0574C8F 
 231 01cd 5C3CE1A1 		.ascii	"\\<\341\241\376+\324\036\311\363\350o\236\307\260YK"
 231      FE2BD41E 
 231      C9F3E86F 
ARM GAS  C:\Users\AMANRA~1\AppData\Local\Temp\ccNdUiqj.s 			page 18


 231      9EC7B059 
 231      4B
 232 01de AD22535A 		.ascii	"\255\"SZ.l\353d\222\376\344\370\232\374G\030\024\213"
 232      2E6CEB64 
 232      92FEE4F8 
 232      9AFC4718 
 232      148B
 233 01f0 C76D7E93 		.ascii	"\307m~\223\207\006\016\016\014\246\022\373\023{\355"
 233      87060E0E 
 233      0CA612FB 
 233      137BED
 234 01ff C1943D34 		.ascii	"\301\224=4l\247\206\222\\\355?\332\177d8\025O*\313_"
 234      6CA78692 
 234      5CED3FDA 
 234      7F643815 
 234      4F2ACB5F 
 235 0213 E1F01F3D 		.ascii	"\341\360\037=\206\354#"
 235      86EC23
 236              		.text
 237              		.section	.gnu.lto_chEvtGetAndClearEvents.29deb57c,"",%progbits
 238 0000 789C8554 		.ascii	"x\234\205T_lSe\024\377\316\375no\313\356\\\210\217\262"
 238      5F6C5365 
 238      14FFCEFD 
 238      6E6FCBEE 
 238      5C888FB2 
 239 0014 982EB1D9 		.ascii	"\230.\261\3310\332\313|\320\360b4{\342a\211aO&&Dj\003"
 239      30DACB7C 
 239      D0F06234 
 239      7BE26189 
 239      614F2626 
 240 002b 4DEC4A7A 		.ascii	"M\354Jz'\201\247}\266\2141'\306\250\353p\326\265h\020"
 240      2781A77D 
 240      B68C3127 
 240      C6A8EB70 
 240      D6B56810 
 241 003f 7DA008D6 		.ascii	"}\240\010\326\215\016\330\312\306\312\206\016\306\334"
 241      8D0ED8CA 
 241      C6CA860E 
 241      C6DC
 242 004d C69FCE89 		.ascii	"\306\237\316\211,\314\240s\202\372@\006\253\236\363"
 242      2CCCA073 
 242      82FA4006 
 242      AB9EF3
 243 005c DD32BB32 		.ascii	"\3352\2732f\323\336~\3379\347w\316\357\373\235\363]"
 243      66D3DE7E 
 243      DF39E777 
 243      CEEFFB9D 
 243      F35D
 244 006e 8D31A669 		.ascii	"\2151\246i\214-\340\377:\374\001g\240\274\177\201\261"
 244      8C2DE0FF 
 244      3AFC0167 
 244      A0BC7F81 
 244      B1
 245 007f B71D0A00 		.ascii	"\267\035\012\000-\204\003X\243\002\215\360.\377\210"
 245      2D840358 
 245      A3028DF0 
 245      2EFF88
ARM GAS  C:\Users\AMANRA~1\AppData\Local\Temp\ccNdUiqj.s 			page 19


 246 008e C3A53D5F 		.ascii	"\303\245=_Gy+\217b\230\212\333;#\0353e\264\005p\342"
 246      47792B8F 
 246      62988ADB 
 246      3B231D33 
 246      65B40570 
 247 00a3 766E3E93 		.ascii	"vn>\223,]\177X\210\220H\267O\352\237&G\305\232(WX\004"
 247      2C5D7F58 
 247      889048B7 
 247      4FEA9F26 
 247      47C59A28 
 248 00ba C393500E 		.ascii	"\303\223P\016\337@9\325\370\026\326c\360\307\207\027"
 248      DF4039D5 
 248      F816D663 
 248      F0C78717 
 249 00ca 47397F1A 		.ascii	"G9\177\032\030\256\207\207\247K+\017I\334\331/\270x"
 249      18AE8787 
 249      A74B2B0F 
 249      49DCD92F 
 249      B878
 250 00dc 0A41D005 		.ascii	"\012A\320\005\274\020Gy\240\033*)|0\327\275O\345\325"
 250      BC104779 
 250      A01B2A29 
 250      7C30D7BD 
 250      4FE5D5
 251 00ef 123A199B 		.ascii	"\022:\031\233\030*s}.\261\263\211'\017\206\305\220P"
 251      182A737D 
 251      2EB1B389 
 251      270F86C5 
 251      9050
 252 0101 097F6239 		.ascii	"\011\177b9\236>\030~\343X\256\3551M\205\024\270\210"
 252      9E3E187E 
 252      E358AEED 
 252      314D8514 
 252      B888
 253 0113 16B2E901 		.ascii	"\026\262\351\001\015\226\034{\004~\322\231\243\232\264"
 253      0D961C7B 
 253      047ED299 
 253      A39AB4
 254 0122 47381460 		.ascii	"G8\024`\030\234\304\320S\240\261\242\360l\346E\033#"
 254      189CC4D0 
 254      53A0B1A2 
 254      F06CE645 
 254      1B23
 255 0134 470439A2 		.ascii	"G\0049\242\357\320\371\261>\235\277&\261_%\016\036("
 255      EFD0F9B1 
 255      3E9DBF26 
 255      B15F250E 
 255      1E28
 256 0146 CDD3FB25 		.ascii	"\315\323\373%Z\325\031n\335/\342\241\265Q\316\241w\025"
 256      5AD5196E 
 256      DD2FE2A1 
 256      B551CEA1 
 256      7715
 257 0158 8256E2F9 		.ascii	"\202V\342\371N\014\353C\246p\232\222\363ed\322H\346"
 257      4E0CEB43 
 257      A6709A92 
 257      F36564D2 
ARM GAS  C:\Users\AMANRA~1\AppData\Local\Temp\ccNdUiqj.s 			page 20


 257      48E6
 258 016a 0C92A107 		.ascii	"\014\222\241\007\3409\212\264h\217\350\261\244\020-"
 258      E0398AB4 
 258      688FE8B1 
 258      A4102D
 259 0179 2F3D420B 		.ascii	"/=B\013\350\007\327\3211[Z\344\376i\026\351i\367\335"
 259      E807D7D1 
 259      315B5AE4 
 259      FE6916E9 
 259      69F7DD
 260 018c BF171FD7 		.ascii	"\277\027\037\327\261\347(1G\261U\025\0376\233\014\323"
 260      B1E72831 
 260      47B15515 
 260      1F369B0C 
 260      D3
 261 019d 6869A707 		.ascii	"hi\247\007c\373P3\034\013\221f-xX\\\205\323l\026\224"
 261      63FB5033 
 261      1C0B9166 
 261      2D78585C 
 261      85D36C16 
 262 01b2 158EFAC9 		.ascii	"\025\216\372\311\352G\205\001p!\250\371\2268\255\322"
 262      EA478501 
 262      7021A8F9 
 262      9638ADD2 
 263 01c2 047170C2 		.ascii	"\004qp\302Y\364\375\006\241\033\177\264\365\374T\334"
 263      59F4FD06 
 263      A11B7FB4 
 263      F5FC54DC 
 264 01d2 930FA7F4 		.ascii	"\223\017\247\364|O\324\207\364\237}\016\211\016\222"
 264      7C4FD487 
 264      F49F7D0E 
 264      890E92
 265 01e1 CF56EC9B 		.ascii	"\317V\354\233\211V\341t\016\220\206\231\2075<\207\322"
 265      8956E174 
 265      0E908699 
 265      87353C87 
 265      D2
 266 01f2 0D918643 		.ascii	"\015\221\206C\244!0Y\365\263\330\361\273%\025\267!&"
 266      A4213059 
 266      F5B3D8F1 
 266      BB2515B7 
 266      2126
 267 0204 0E38A35C 		.ascii	"\0168\243\\v\373\310\314I\341P\025d=\014\025\262M\267"
 267      76FBC8CC 
 267      49E15015 
 267      643D0C15 
 267      B24DB7
 268 0217 E7C6B30A 		.ascii	"\347\306\263\012Z\340<\250\2227\203\357\344\225\370"
 268      5AE03CA8 
 268      923783EF 
 268      E495F8
 269 0226 B277E066 		.ascii	"\262w\340fi\305_y\264\235b\377L\034\237\320%\372{B\303"
 269      69C55F79 
 269      B49D62FF 
 269      4C1C9FD0 
 269      25FA7B42 
 270 023b 08A8A859 		.ascii	"\010\250\250Y\310)5`\264\274\3362o\243\303ap\323\376"
ARM GAS  C:\Users\AMANRA~1\AppData\Local\Temp\ccNdUiqj.s 			page 21


 270      C8293560 
 270      B4BCDE32 
 270      6FA3C361 
 270      70D3FE
 271 024e C9B49E57 		.ascii	"\311\264\236Wq:\361\304\177\363\334\265\202\206\027"
 271      713AF1C4 
 271      7FF3DCB5 
 271      828617
 272 025d C0D5816D 		.ascii	"\300\325\201m\370\025B=\267Fn\026K\226K\224PD^6\255"
 272      F815423D 
 272      B7466E16 
 272      4B964B94 
 272      50445E36 
 273 0272 70FCFBC9 		.ascii	"p\374\373\311|\021\017=J\247\307G\007\247\353\035i\352"
 273      7C110F3D 
 273      4AA7C747 
 273      07A7EB1D 
 273      69EA
 274 0284 BF68A76E 		.ascii	"\277h\247n8\344\360\246RsY{\343\242p\240!\316\255\371"
 274      38E4F0A6 
 274      5273597B 
 274      E3A270A0 
 274      21CEADF9 
 275 0298 4C86EF7C 		.ascii	"L\206\357|P\026\207N\210\36250\206\357\205KD\006\035"
 275      5016874E 
 275      88F23530 
 275      86EF854B 
 275      44061D
 276 02ab 5DE7A6EE 		.ascii	"]\347\246\3569\214#T9\336\035\261Gy\011\374\000qhC\034"
 276      398C2354 
 276      39DE1DB1 
 276      477909FC 
 276      00716843 
 277 02c0 55A29085 		.ascii	"U\242\220\205\313\341&\305\012AmT\030\007\243\015\257"
 277      CBE126C5 
 277      0A416D54 
 277      1807A30D 
 277      AF
 278 02d1 9874C304 		.ascii	"\230t\303\004\030\362 \303\345\026\037\265\220\217*"
 278      18F220C3 
 278      E5161FB5 
 278      908F2A
 279 02e0 F99CEA1F 		.ascii	"\371\234\352\037\311hVm\035\011\303d\276\364x\363\225"
 279      C968566D 
 279      1D09C364 
 279      BEF478F3 
 279      95
 280 02f1 697D29AF 		.ascii	"i})\257\002\227e]%\237\370\212L\034\276\277\367U+\261"
 280      0297655D 
 280      259FF88A 
 280      4C1CBEBF 
 280      F7552BB1 
 281 0305 0D25C3F4 		.ascii	"\015%\303\364\262\005d!1\320J\305s{\177\277z\002\254"
 281      B2056421 
 281      31D04AC5 
 281      737B7FBF 
 281      7A02AC
ARM GAS  C:\Users\AMANRA~1\AppData\Local\Temp\ccNdUiqj.s 			page 22


 282 0318 30CD5216 		.ascii	"0\315R\026q)\233e\261#\012\355\0248\376\216\214\372"
 282      71299B65 
 282      B1230AED 
 282      1438FE8E 
 282      8CFA
 283 032a 5F4ECF12 		.ascii	"_N\317\022\235\253\313\350\\\003\003SQ\365x_\273\354"
 283      9DABCBE8 
 283      5C030353 
 283      51F5785F 
 283      BBEC
 284 033c BA6C9245 		.ascii	"\272l\222E\247\307\242S\260KY;D\367\311\013\263$\011"
 284      A7C7A253 
 284      B04B593B 
 284      44F7C90B 
 284      B32409
 285 034f 09972DBC 		.ascii	"\011\227-\2740\326\213 ?\304\271\330\317\275\372\203"
 285      30D68B20 
 285      3FC4B9D8 
 285      CFBDFA83 
 286 035f F9CCCAF9 		.ascii	"\371\314\312\371\234\222\363Y<\214?Z\303x\375\330{\327"
 286      9C92F359 
 286      3C8C3F5A 
 286      C378FDD8 
 286      7BD7
 287 0371 B6C91A8C 		.ascii	"\266\311\032\214\315\343\266uaP\243\372$\014\243k\017"
 287      CDE3B675 
 287      6150A3FA 
 287      240CA36B 
 287      0F
 288 0382 74D91156 		.ascii	"t\331\021V\351v\033\370\365l\367m\365\005\314\352\215"
 288      E9761BF8 
 288      F56CF76D 
 288      F505CCEA 
 288      8D
 289 0393 D51B8C80 		.ascii	"\325\033\214\200i\004\033\0143\350A\253w\247\267\276"
 289      69041B0C 
 289      33E841AB 
 289      77A7B7BE 
 290 03a3 C1747B98 		.ascii	"\301t{\230f\255\300_\365(\200\257\336\363\346[ox\321"
 290      66ADC05F 
 290      F52880AF 
 290      DEF3E65B 
 290      6F78D1
 291 03b6 63EE36DD 		.ascii	"c\3566\335\333\231}\353\353\246\367\225\240\357\371"
 291      DB997DEB 
 291      EBA6F795 
 291      A0EFF9
 292 03c5 15019E80 		.ascii	"\025\001\236\200\337\037\2507v\004\202\015\246\361\362"
 292      DF1FA837 
 292      7604820D 
 292      A6F1F2
 293 03d4 E6DA9ADA 		.ascii	"\346\332\232\332]\030\342\011\004\275[v\276\340Gx\315"
 293      5D18E209 
 293      04BD5B76 
 293      BEE04778 
 293      CD
 294 03e5 6A30EFAE 		.ascii	"j0\357\256\006\002\0315\265u\233\352\214\032D\031\233"
ARM GAS  C:\Users\AMANRA~1\AppData\Local\Temp\ccNdUiqj.s 			page 23


 294      06021935 
 294      B5759BEA 
 294      8C1A4419 
 294      9B
 295 03f6 1E94F79B 		.ascii	"\036\224\367\233>s\3136\217\007s\254\255\255\333\354"
 295      3E73CB36 
 295      8F0773AC 
 295      ADADDBEC 
 296 0406 241A3B82 		.ascii	"$\032;\202\276g\234\256\015L\0112\273\337\353\017\004"
 296      BE679CAE 
 296      0D4C0932 
 296      BBDFEB0F 
 296      04
 297 0417 77B37F01 		.ascii	"w\263\177\001\012\3345\307"
 297      0ADC35C7 
 298              		.text
 299              		.section	.gnu.lto_chEvtAddEvents.29deb57c,"",%progbits
 300 0000 789C8D54 		.ascii	"x\234\215T\377OSW\024\277\347\335\327\327bY\347\317"
 300      FF4F5357 
 300      14BFE7DD 
 300      D7D76259 
 300      E7CF
 301 0012 1B312559 		.ascii	"\0331%Y\003\316\215\007\37603\177X\262\360\023?\220"
 301      03CE8D07 
 301      FE30337F 
 301      58B2F013 
 301      3F90
 302 0024 18F9038C 		.ascii	"\030\371\003\214v/\322d\245\246\257c\362\303\302\263"
 302      762FD264 
 302      A5A6AF63 
 302      F2C3C2B3 
 303 0034 95A1A2CB 		.ascii	"\225\241\242\3132\245*+\337\206\304\355\007\335d\035"
 303      32A52A2B 
 303      DF86C4ED 
 303      07DD641D 
 304 0044 A3A8D081 		.ascii	"\243\250\320\201\243\026\206E\304o`\030\323\251q#d."
 304      A3168645 
 304      C46F6018 
 304      D3A97123 
 304      642E
 305 0056 D9C2DC44 		.ascii	"\331\302\334D\317\271\357\251P\031\333Kss\357=\347s"
 305      CFB9EFA9 
 305      5019DB4B 
 305      7373EF3D 
 305      E773
 306 0068 CEE77CCE 		.ascii	"\316\347|\316\271U\030c\037\330\030[\007\214\275\214"
 306      B9551863 
 306      1FD8185B 
 306      078CBD8C 
 307 0078 7BE00CA4 		.ascii	"{\340\014\244\217/0\266\313!\001\320\306p\000\253\225"
 307      8F2F30B6 
 307      CB2101D0 
 307      C67000AB 
 307      95
 308 0089 A016F6F3 		.ascii	"\240\026\366\363C\034.\356\376*\306\033x\014\335d<\336"
 308      431C2EEE 
 308      FE2AC61B 
ARM GAS  C:\Users\AMANRA~1\AppData\Local\Temp\ccNdUiqj.s 			page 24


 308      780CDD64 
 308      3CDE
 309 009b 1F6DBAE5 		.ascii	"\037m\272\345\242#\200\033\217\263sC\361\334\265\307"
 309      A223801B 
 309      8FB37343 
 309      F1DCB5C7 
 310 00ab 0D236C24 		.ascii	"\015#l$\017\307\\\315\3611#'\306%\026E\3678\344\301"
 310      0FC75CCD 
 310      F1312327 
 310      C6251645 
 310      F738E4C1 
 311 00bf D7904739 		.ascii	"\327\220G9\276\201\265\350|\364\370\3031\316_\005\206"
 311      BE81B5E8 
 311      7CF4F8C3 
 311      31CE5F05 
 311      86
 312 00d0 FB747A3A 		.ascii	"\373tz:\267\240S\340\316ur\343\025\004A7\360\3058\212"
 312      B7A053E0 
 312      CE7572E3 
 312      15044137 
 312      F0C5388A 
 313 00e4 03DF4201 		.ascii	"\003\337B\001\271\357\317\204;\\\274D@\377\351?\265"
 313      B9EFCF84 
 313      3B5CBC44 
 313      40FFE93F 
 313      B5
 314 00f5 EB454F87 		.ascii	"\353EO\207\300.\364\254i\217\030\347\015\231\360=K\361"
 314      C02EF4AC 
 314      698F18E7 
 314      0D99F03D 
 314      4BF1
 315 0107 F4A1FBCD 		.ascii	"\364\241\373\315S\013\215/(2$\300C\264\220M/(\360\324"
 315      530B8D2F 
 315      283224C0 
 315      43B4904D 
 315      2F28F0D4 
 316 011b B0DBC02F 		.ascii	"\260\333\300/9\235P\304}\224\303\"\014\203\323\350z"
 316      399D50C4 
 316      7D94C322 
 316      0C83D3E8 
 316      7A
 317 012c 061496E5 		.ascii	"\006\024\226\345>\230z\313\306\310\020E\216h\353\034"
 317      3E987ACB 
 317      C6C81045 
 317      8E68EB1C 
 318 013c 1EEF77F2 		.ascii	"\036\357w\362\255\002\373\305\311\366#\271\026\275L"
 318      AD02FBC5 
 318      C9F623B9 
 318      16BD4C
 319 014b 73614BA4 		.ascii	"saK\244\341\200\321\026^\035\343\034\372V h\006\236"
 319      E180D116 
 319      5E1DE31C 
 319      FA562068 
 319      069E
 320 015d 6B41B77E 		.ascii	"kA\267~d\012g)8_B&\211d\276C2\264`\367\330\227\343\266"
 320      640A6729 
 320      385F4226 
ARM GAS  C:\Users\AMANRA~1\AppData\Local\Temp\ccNdUiqj.s 			page 25


 320      8964BE43 
 320      32B460F7 
 321 0175 A4B1F0A8 		.ascii	"\244\261\360\250\036\245\317\353\031\273\327R\220\203"
 321      1EA5CFEB 
 321      19BBD752 
 321      9083
 322 0183 1D44C138 		.ascii	"\035D\3018J'\313\270\330l\2640\266\007\313\306\316\032"
 322      4A27CBB8 
 322      D86CB430 
 322      B607CBC6 
 322      CE1A
 323 0195 49B617F9 		.ascii	"I\266\027\371\342.\222dw@Z\206\355\247+\263\205\001"
 323      E22E9264 
 323      77405A86 
 323      EDA72BB3 
 323      8501
 324 01a7 F020A8FE 		.ascii	"\360 \250\376\236qV\246!\340\340\206A\264\375\012\341"
 324      9E7156A6 
 324      21E0E086 
 324      41B4FD0A 
 324      E1
 325 01b8 9B1DD1DE 		.ascii	"\233\035\321\336\037\263e=\330\345\262d\225\237\223"
 325      1FB3653D 
 325      D8E5B264 
 325      959F93
 326 01c7 F0EE7A94 		.ascii	"\360\356z\224\360\034\331l\331\266\221\346B\034\260"
 326      F01CD96C 
 326      D9B691E6 
 326      421CB0
 327 01d6 0192E1FB 		.ascii	"\001\222\341\373\347e\030\302\352S$C\212d\000\3663e"
 327      E76518C2 
 327      EA532443 
 327      8A6400F6 
 327      3365
 328 01e8 FDACB56B 		.ascii	"\375\254\265k~U\376\037\320j\034q\307\270h\330\211["
 328      7E55FE1F 
 328      D06A1C71 
 328      C7B868D8 
 328      895B
 329 01fa A70D872C 		.ascii	"\247\015\207,!\353\363\220/\224\376mvbJ\302\033H\203"
 329      21EBF390 
 329      2F94FE6D 
 329      76624AC2 
 329      1B4883
 330 020d 2C783318 		.ascii	",x3\030\026S\375y\337\340\355\334\374y\013m'\337\337"
 330      1653FD79 
 330      DFE0EDDC 
 330      FC790B6D 
 330      27DFDF
 331 0220 4F765D76 		.ascii	"Ov]v\012\364\010\241\341\007\220Q\263\260[h\300h;\263"
 331      0AF408A1 
 331      E1079051 
 331      B3B05B68 
 331      C0683BB3 
 332 0234 F7A89D8A 		.ascii	"\367\250\235\212C\347\272\003W\222NK\305?{^z6\222\335"
 332      43E7BA03 
 332      57924E4B 
ARM GAS  C:\Users\AMANRA~1\AppData\Local\Temp\ccNdUiqj.s 			page 26


 332      C53F7B5E 
 332      7A3692DD 
 333 0248 CB68380A 		.ascii	"\313h8\012\236&l\303/\020\356\375kO:s\214g\213\026w"
 333      9E266CC3 
 333      2F10EEFD 
 333      6B4F3A73 
 333      8C678B16 
 334 025d 918F259C 		.ascii	"\221\217%\234\262\244\366\013Xr\206j\307\245\211\023"
 334      B2A4F60B 
 334      5872866A 
 334      C7A58913 
 335 026d 325A3790 		.ascii	"2Z7\220\261S/\034b\372\022\211\331){\355C\303\201\027"
 335      B1532F1C 
 335      62FA1289 
 335      D9297BED 
 335      43C38117 
 336 0281 6DDC1CB0 		.ascii	"m\334\034\260x\344\376'\2566h\201\030\317\201\213\370"
 336      78E4FE27 
 336      AE366881 
 336      18CF818B 
 336      F8
 337 0292 B0C7880A 		.ascii	"\260\307\210\012\032\272S7\376v\250'(\353L\373\2615"
 337      1ABA5337 
 337      FE76A827 
 337      28EB4CFB 
 337      B135
 338 02a4 6531BE0A 		.ascii	"e1\276\012\306\241\015\032\021H\251\310\347\301\325"
 338      C6A10D1A 
 338      1148A9C8 
 338      E7C1D5
 339 02b3 489D64FA 		.ascii	"H\235d\372\24042\\\002\265\021\037\2110\303\004\250"
 339      A034325C 
 339      02B5111F 
 339      8930C304 
 339      A8
 340 02c4 A28EF446 		.ascii	"\242\216\364F\223\220\274\230\220,\010\235\031\030\035"
 340      9390BC98 
 340      902C089D 
 340      19181D
 341 02d3 52CCE44E 		.ascii	"R\314\344Nd\014\227\255\334\023\365\327\246\235\352"
 341      640C97AD 
 341      DC13F5D7 
 341      A69DEA
 342 02e2 EB24D215 		.ascii	"\353$\322\025\221R\262b^\0251#\363\037\202\031\323\206"
 342      9152B262 
 342      5E153123 
 342      F31F8219 
 342      D386
 343 02f4 626164CA 		.ascii	"bad\3123\261O\334\375\277\250\327\226D\275\016*\206"
 343      33B14FDC 
 343      FDBFA8D7 
 343      9644BD0E 
 343      2A86
 344 0306 126D6B68 		.ascii	"\022mkhJ)\342?`\324j\244[\234\022\346\011\001\375b\310"
 344      4A29E23F 
 344      60D46AA4 
 344      5B9C12E6 
ARM GAS  C:\Users\AMANRA~1\AppData\Local\Temp\ccNdUiqj.s 			page 27


 344      0901FD62 
 345 031b 9FD641D5 		.ascii	"\237\326A\325N.\036r\363\375Y\203\267\320\372S\237\363"
 345      4E2E1E72 
 345      F3FD5983 
 345      B7D0FA53 
 345      9FF3
 346 032d C94C4D8A 		.ascii	"\311LM\212\231\232\0223\225=@7\314\001\232\271\375\321"
 346      999A1233 
 346      953D4037 
 346      CC019AB9 
 346      FDD1
 347 033f E4769183 		.ascii	"\344v\221\203\2619b\323l\262!v\214\236*\320\003EXAQ"
 347      B13962D3 
 347      6CB22176 
 347      8C9E2AD0 
 347      03455841 
 348 0354 918A3F6F 		.ascii	"\221\212?o\245o\233/\240\227\274YR\254\006t5\030R\365"
 348      A56F9B2F 
 348      A097BC59 
 348      52AC0674 
 348      351852F5 
 349 0368 A0176FB5 		.ascii	"\240\027o\265j\255*\244\027y\231b\356\224*\355}\255"
 349      6AAD2AA4 
 349      17799962 
 349      EE942AED 
 349      7DAD
 350 037a 3A54F86F 		.ascii	":T\370o(_\225\367\335\367\336\321\320\242\327\350E\225"
 350      285F95F7 
 350      DDF7DED1 
 350      D0A2D7E8 
 350      4595
 351 038c CCBE6DAB 		.ascii	"\314\276m\253\256m\012\372\336X\026\340\015\370\375"
 351      AE6D0AFA 
 351      DE5816E0 
 351      0DF8FD
 352 039b 812A7547 		.ascii	"\201*uG \030\322\325\2677\227\227\226\357D\027o \250"
 352      2018D2D5 
 352      B7379797 
 352      96EF4417 
 352      6F20A8
 353 03ae 6DA9DEE0 		.ascii	"m\251\336\340Gx\351J0mg\210@jiyEY\205Z\212(\265\354"
 353      4778E94A 
 353      306D6788 
 353      406A6979 
 353      4559855A 
 354 03c6 497ABFEE 		.ascii	"Iz\277\356\323\267l\367z1\306\352\362\212\315n\242\261"
 354      D3B76CF7 
 354      7A31C6EA 
 354      F28ACD6E 
 354      A2B1
 355 03d8 23E87BCD 		.ascii	"#\350{\315\355)fR\220\331\375\232?\020\254a\353\376"
 355      ED296652 
 355      90D9FD9A 
 355      3F10AC61 
 355      EBFE
 356 03ea BB0E4B81 		.ascii	"\273\016K\201J\366\030\316\323\033<"
 356      4AF618CE 
ARM GAS  C:\Users\AMANRA~1\AppData\Local\Temp\ccNdUiqj.s 			page 28


 356      D31B3C
 357              		.text
 358              		.section	.gnu.lto_chEvtGetAndClearFlags.29deb57c,"",%progbits
 359 0000 789C8592 		.ascii	"x\234\205\222]H\223a\024\307\237\263\347\335\246\251"
 359      5D489361 
 359      14C79FB3 
 359      E7DDA6A9 
 360 0010 215E4579 		.ascii	"!^Ey1!Q#\366V\027E7Ax\345\205\020z\035\222k\331\300"
 360      31215123 
 360      F6561745 
 360      374178E5 
 360      85107A1D 
 361 0028 39D96B61 		.ascii	"9\331ka\335\3646-\015+\372\332\2225t)Z]heZ\251eS\313"
 361      DDF4362D 
 361      0D2BFADA 
 361      92357429 
 361      5A5D6865 
 362 0041 A6E547A6 		.ascii	"\246\345G\246&\011\366!I\231\330\227DR\254\316y6k\255"
 362      2609F621 
 362      4999D897 
 362      4452ACCE 
 362      79366BAD 
 363 0055 B2977DBC 		.ascii	"\262\227}\274\317s\316\377|\374\316\3211\306\306%\306"
 363      CF73CEFF 
 363      7CFCCED1 
 363      31C6C625 
 363      C6
 364 0066 BEE2FF2A 		.ascii	"\276\342\377*\374\002g\24091\300\330\301(\015\000\275"
 364      FC0267A0 
 364      3931C0D8 
 364      C1280D00 
 364      BD
 365 0077 A851C00E 		.ascii	"\250Q\300\016h\340\000\034\345g8<*\275\342\341\025\334"
 365      68E0001C 
 365      E567383C 
 365      2ABDE2E1 
 365      15DC
 366 0089 836E121E 		.ascii	"\203n\022\036?\364\273\247\226\323\021\300\200\307\331"
 366      3FF4BBA7 
 366      96D311C0 
 366      80C7D9
 367 0098 B99EE6D8 		.ascii	"\271\236\346\330\264\013\252\352P}gO%T5\017\251\321"
 367      B40BAAEA 
 367      507D674F 
 367      2554350F 
 367      A9D1
 368 00aa 1EAE612E 		.ascii	"\036\256a.to\206D\270\006\211\224\243\005\322\320y\264"
 368      746F8644 
 368      B8068994 
 368      A305D2D0 
 368      79B4
 369 00bc AC7C4ECB 		.ascii	"\254|N\313\327\000\303\367\212\316\241R\236R'\204\363"
 369      D700C3F7 
 369      8ACEA152 
 369      9E522784 
 369      F3
 370 00cd F55C5DED 		.ascii	"\365\\]\355\341\034\256\003\017\027\342\025\203\033"
ARM GAS  C:\Users\AMANRA~1\AppData\Local\Temp\ccNdUiqj.s 			page 29


 370      E11CAE03 
 370      0F17E215 
 370      831B
 371 00db 9042FE4E 		.ascii	"\220B\376N\367\364\012n\024\322\223\023\356\311\270"
 371      F7F40A6E 
 371      14D29313 
 371      EEC9B8
 372 00ea E45A211D 		.ascii	"\344Z!\035\363\307\327\224\250~U\302\244p\363w9=\350"
 372      F3C7D794 
 372      A87E55C2 
 372      A470F377 
 372      393DE8
 373 00fd FEF26AC0 		.ascii	"\376\362j\300\031\247\223\240\025\222\251,\254\246\015"
 373      19A793A0 
 373      1592A92C 
 373      ACA60D
 374 010c 74F0D350 		.ascii	"t\360\323P\252\342\343\013\370u\342\336\305!L\303\240"
 374      AAE2E30B 
 374      F875E2DE 
 374      C5214CC3 
 374      A0
 375 011d 1D5D6F81 		.ascii	"\035]o\201\216E\270O\365l\32122\270\260W\264\325\365"
 375      8E45B84F 
 375      F56CD132 
 375      32B8B057 
 375      B4D5F5
 376 0130 0DDF89E1 		.ascii	"\015\337\211\341\333\205\366R\343\371\312\330Py\357"
 376      DB85F652 
 376      E3F9CAD8 
 376      5079EF
 377 013f 3CA95525 		.ascii	"<\251U%\025\307T\257#\336\303%\350X\242\300`\340\271"
 377      15C754AF 
 377      23DEC325 
 377      E858A2C0 
 377      60E0B9
 378 0152 2AC47007 		.ascii	"*\304p\007+\205\333\024\234\377V\214\017\213\351\304"
 378      2B85DB14 
 378      9CFF568C 
 378      0F8BE9C4 
 379 0162 62E807B0 		.ascii	"b\350\007\260\017j\351\362\260\326\247\006\276\227!"
 379      0F6AE9F2 
 379      B0D6A706 
 379      BE9721
 380 0171 FE04FFE7 		.ascii	"\376\004\377\3477\356\264h@nZ\034\017\202C\015\272\350"
 380      37EEB468 
 380      406E5A1C 
 380      0F82430D 
 380      BAE8
 381 0183 184D8495 		.ascii	"\030M\204\225c\3578^\325\307\216\340\021\337J|l\032"
 381      63EF385E 
 381      D5C78EE0 
 381      11DF4A7C 
 381      6C1A
 382 0195 347F29F9 		.ascii	"4\177)\371\334\322%C\027$\243\250\354\215z[\242M\220"
 382      DCD22543 
 382      1724A3A8 
 382      EC8D7A5B 
ARM GAS  C:\Users\AMANRA~1\AppData\Local\Temp\ccNdUiqj.s 			page 30


 382      A24D90
 383 01a8 C000DD68 		.ascii	"\300\000\335h{\013\216\227\237\234m\317\"\331\236\256"
 383      7B0B8E97 
 383      9F9C6DCF 
 383      22D99EAE 
 384 01b8 4C08B195 		.ascii	"L\010\261\225\376\3408\275\0019\336%\2336\322\366\326"
 384      FEE038BD 
 384      0139DE25 
 384      9B36D2F6 
 384      D6
 385 01c9 938A5BD6 		.ascii	"\223\212[\326E,\356\375\311\242\007\021\334'\026\367"
 385      452CEEFD 
 385      C9A20711 
 385      DC2716F7 
 386 01d9 8905B0E7 		.ascii	"\211\005\260\347\224\265\246\272\351\313\262\244\017"
 386      94B5A6BA 
 386      E9CBB2A4 
 386      0F
 387 01e6 50AD561A 		.ascii	"P\255V\032<\\L\255a\252]\215\222\260}\360C\222\300\375"
 387      3C5C4CAD 
 387      61AA5D8D 
 387      92B07DF0 
 387      4392C0FD 
 388 01fa 7E766442 		.ascii	"~vdB\2037\320\013\222\250\233A\237X\355\213\035\335"
 388      8337D00B 
 388      92A89B41 
 388      9F58ED8B 
 388      1DDD
 389 020c AF6293E6 		.ascii	"\257b\223\346Cj=\371~ll\032\215\021\352\007\244\206"
 389      436A3DF9 
 389      7E6C6C1A 
 389      8D11EA07 
 389      A486
 390 021e 87202133 		.ascii	"\207 !3\207A0`l\006\034m\0135\265}@\355\2719\005q\035"
 390      87413060 
 390      6C061C6D 
 390      0B35B57D 
 390      40EDB939 
 391 0235 EA1AD413 		.ascii	"\352\032\324\023\225\340\"\335\352\352\357\321y\241"
 391      95E022DD 
 391      EAEAEFD1 
 391      79A1
 392 0243 EA2076E4 		.ascii	"\352 v\344\335\217\203\210r\243\245\237\262\242u\244"
 392      DD8F8388 
 392      72A3A59F 
 392      B2A275A4 
 393 0253 6C7C3246 		.ascii	"l|2Fn\240v\015\264\300\003\340\005'\027\214\007A\246"
 393      6EA0760D 
 393      B4C003E0 
 393      0527178C 
 393      0741A6
 394 0266 4CDE5D62 		.ascii	"L\336]b[q\212\030\236\362\315\277>\336\253\247\273\310"
 394      5B718A18 
 394      9EF2CDBF 
 394      3EDEABA7 
 394      BBC8
 395 0278 E02BFF13 		.ascii	"\340+\377\023{\350W\354G \243\303\345\331\326\2058\252"
ARM GAS  C:\Users\AMANRA~1\AppData\Local\Temp\ccNdUiqj.s 			page 31


 395      7BE857EC 
 395      4720A3C3 
 395      E5D9D685 
 395      38AA
 396 028a 548BFC86 		.ascii	"T\213\374\206QE\313@\273\027\336\205\204\266\307\341"
 396      5145CB40 
 396      BB17DE85 
 396      84B6C7E1 
 397 029a B30DEE5E 		.ascii	"\263\015\356^\210w\240\372EG\314\"\312\307\002\345\210"
 397      8877A0FA 
 397      4547CC22 
 397      CAC702E5 
 397      88
 398 02ab 4019C96D 		.ascii	"@\031\311m4\310\355y\313\361\247y\"\307\"\273\372\031"
 398      34C8ED79 
 398      CBF1A779 
 398      22C722BB 
 398      FA19
 399 02bd 4D901D44 		.ascii	"M\220\035D\364c\370O;c\242\035\240v\236 \252\031(\371"
 399      F463F84F 
 399      3B63A21D 
 399      A0769E20 
 399      AA1928F9 
 400 02d1 76F88836 		.ascii	"v\370\2106\030\213\302\021\2569\234T\350\206\372.Gw"
 400      188BC211 
 400      AE399C54 
 400      E886FA2E 
 400      4777
 401 02e3 5C7BAC2A 		.ascii	"\\{\254*\305h\224\361c\332m\311\265\330\224\365\233"
 401      C56894F1 
 401      63DA6DC9 
 401      B5D894F5 
 401      9B
 402 02f4 D7AF936D 		.ascii	"\327\257\223m\212l/\222\025\273\011o\315{\315\005E\212"
 402      8A6C2F92 
 402      15BB096F 
 402      CD7BCD05 
 402      458A
 403 0306 D1C4B839 		.ascii	"\321\304\2709\277P\273+\177G\236\222\372/\205\245\300"
 403      BF50BB2B 
 403      7F479E92 
 403      FA2F85A5 
 403      C0
 404 0317 94BF67A7 		.ascii	"\224\277g\247\031-\312>\305\270\233\351sw(\346mv\313"
 404      192DCA3E 
 404      C5B89BE9 
 404      737728E6 
 404      6D76CB
 405 032a C6BF0A4C 		.ascii	"\306\277\012L6\253\325V \027\332\354E\212\2745+3=\263"
 405      36ABD556 
 405      2017DAEC 
 405      458ABC35 
 405      2B333DB3 
 406 033e 185D4C36 		.ascii	"\030]L6\2739g\357&+\312\323\227\222\231\213\213H$\247"
 406      BB3967EF 
 406      262BCAD3 
 406      9792998B 
ARM GAS  C:\Users\AMANRA~1\AppData\Local\Temp\ccNdUiqj.s 			page 32


 406      8B4824A7 
 407 0352 67666764 		.ascii	"gfgd\313\351\250\2223\026\323[\025\213\222\223g2a\214"
 407      CBE9A892 
 407      3316D35B 
 407      158B9293 
 407      6732618C 
 408 0366 F8CCEC2C 		.ascii	"\370\314\354,\003\225Qh\267\2545$\257c\032;\323[\315"
 408      03955168 
 408      B7AC3524 
 408      AF631A3B 
 408      D35BCD
 409 0379 569B7D1F 		.ascii	"V\233}\037\373\001l\222\334\323"
 409      FB016C92 
 409      DCD3
 410              		.text
 411              		.section	.gnu.lto_chEvtSignalI.29deb57c,"",%progbits
 412 0000 789C8D53 		.ascii	"x\234\215S\337K\024Q\024\276g\356\314\235mW\363!\010"
 412      DF4B1451 
 412      14BE67EE 
 412      CC9D6D57 
 412      F32108
 413 0013 110B1F82 		.ascii	"\021\013\037\202\305@G\261\227\376\216\376\202\022!"
 413      C54047B1 
 413      97FE8EFE 
 413      821221
 414 0022 7BC870A5 		.ascii	"{\310p\245\327\035\327\365W\365\320C\032-CL\204\355"
 414      D71DD7F5 
 414      57F5D043 
 414      1A2D434C 
 414      84ED
 415 0034 4BA595A5 		.ascii	"K\245\225\245\353\257\266\325l7\333\261DB\022\014\022"
 415      EBAFB6D5 
 415      6C37DBB1 
 415      4442120C 
 415      12
 416 0045 23651584 		.ascii	"#e\025\204\010-\265\316\271\263\253\262\224y\331\271"
 416      082DB5CE 
 416      B9B3ABB2 
 416      9479D9B9 
 417 0055 7BCF3DE7 		.ascii	"{\317=\347|\347\373\316\231\021\214\261^\225\261\032"
 417      7CE7FBCE 
 417      99118CB1 
 417      5E95B11A 
 418 0065 FC3F8F0F 		.ascii	"\374?\217\017x\030(7\035\306\232=\212\302\223%\314\364"
 418      78182837 
 418      1DC69A3D 
 418      8AC29325 
 418      CCF4
 419 0077 AAC91A66 		.ascii	"\252\311\032f\026pEt\370\311\242\275@U\264\301\023h"
 419      16704574 
 419      F8C9A2BD 
 419      4055B4C1 
 419      1368
 420 0089 E9735568 		.ascii	"\351sUhi\212\330g\011\320]\000\035\200\016\246\007X"
 420      698AD867 
 420      09D05D00 
 420      1D800EA6 
ARM GAS  C:\Users\AMANRA~1\AppData\Local\Temp\ccNdUiqj.s 			page 33


 420      0758
 421 009b 50E1AA26 		.ascii	"P\341\252&t\010\302\015~\213C\242\375kL)\217\232\270"
 421      7408C20D 
 421      7E8B43A2 
 421      FD6B4C29 
 421      8F9AB8
 422 00ae E2B7FB8F 		.ascii	"\342\267\373\217\265\231\255\305\026g\254\033\037Z\360"
 422      B599ADC5 
 422      1667AC1B 
 422      1F5AF0
 423 00bd 0CCA31EA 		.ascii	"\014\3121\352C\270\317\342\327\271\305\001T4\327\323"
 423      43B8CFE2 
 423      D7B9C501 
 423      5434D7D3 
 424 00cd 91C5A364 		.ascii	"\221\305\243d*P\206\346\304\322\326\214\217\237\006"
 424      2A5086E6 
 424      C4D2D68C 
 424      8F9F06
 425 00dc 86E7A9F0 		.ascii	"\206\347\251\360\324\234\360\367\230f\310\214g\356s"
 425      D49CF0F7 
 425      9866C88C 
 425      67EE73
 426 00eb F394C539 		.ascii	"\363\224\3059\274\000\216\200\360\034J\241\037J\031"
 426      BC008E80 
 426      F01C4AA1 
 426      1F4A19
 427 00fa 5E311800 		.ascii	"^1\030\000?\206\337\211n\277\347\274B\246\246R\013\005"
 427      3F86DF89 
 427      6EBFE7BC 
 427      42A6A652 
 427      0B05
 428 010c B9CC1E99 		.ascii	"\271\314\036\231\251\302`~\246\312 \006~\012\377\362"
 428      A9C2607E 
 428      A6CA2006 
 428      7E0AFFF2 
 429 011c 64A7AB50 		.ascii	"d\247\253P\250v\216-\014\201`@M\234\321\342\346\316"
 429      A8768E2D 
 429      0C816040 
 429      4D9CD1E2 
 429      E6CE
 430 012e EF768479 		.ascii	"\357v\204y\000\353\347\212\000\3234\2056\216\233P\351"
 430      00EBE78A 
 430      00D33485 
 430      368E9B50 
 430      E9
 431 013f A4D12668 		.ascii	"\244\321&h\323i\363\002\361\361\201\304f\035\010\207"
 431      D369F302 
 431      F1F181C4 
 431      661D0887 
 432 014f ED32E3AC 		.ascii	"\3552\343\254\223+tj\211\263\025\010\015-\177\356\364"
 432      932B746A 
 432      89B31508 
 432      0D2D7FEE 
 432      F4
 433 0160 52950807 		.ascii	"R\225\010\007\254\337\335\232\230\326\251\011\\\262"
 433      ACDFDD9A 
 433      98D6A909 
ARM GAS  C:\Users\AMANRA~1\AppData\Local\Temp\ccNdUiqj.s 			page 34


 433      5CB2
 434 016e 1F49A427 		.ascii	"\037I\244'\205\015w\233\261\223e\026\327#\334\013\303"
 434      850D779B 
 434      B1936516 
 434      D723DC0B 
 434      C3
 435 017f 48997CB3 		.ascii	"H\231|\263\355s\013>\243\202\004\215\200\015]\262\271"
 435      ED730B3E 
 435      A382048D 
 435      800D5DB2 
 435      B9
 436 0190 300A06C2 		.ascii	"0\012\006\302\266l\264\201\013\252 n\204\373\250\324"
 436      B66CB481 
 436      0BAA206E 
 436      84FBA8D4 
 437 01a0 EC357977 		.ascii	"\3545ywx\330\261=\330\227` \226KxyY\270\330\374PP\217"
 437      78D8B13D 
 437      D8976020 
 437      964B7879 
 437      59B8D8FC 
 438 01b7 4CD7E581 		.ascii	"L\327\345\201\270\304\243n\302+\244\271\004\341O\343"
 438      B8C4A36E 
 438      C22BA4B9 
 438      04E14FE3 
 439 01c7 67F6A0D2 		.ascii	"g\366\240\322\367\036:\202\264{\300\013\011\302\300"
 439      F71E3A82 
 439      B47BC00B 
 439      09C2C0
 440 01d6 D589634D 		.ascii	"\325\211cM\226\344z\265\222*r\343\325\274\322\366\032"
 440      96E47AB5 
 440      922A72E3 
 440      D5BCD2F6 
 440      1A
 441 01e7 0DE480EA 		.ascii	"\015\344\200\352G`\\VW\230t>^\0159\252\353\264\177\002"
 441      47605C56 
 441      5798743E 
 441      5E0D39AA 
 441      EBB47F02 
 442 01fb 899D00A3 		.ascii	"\211\235\000\243\213\313\221\277v[\270\325\266\251\271"
 442      8BCB91BF 
 442      765BB8D5 
 442      B6A9B9
 443 020a C534D946 		.ascii	"\3054\331F\225\010\317\217;N_\266\265\332\376y\251\300"
 443      9508CF8F 
 443      3B4E5FB6 
 443      B5DAFE79 
 443      A9C0
 444 021c 607297B3 		.ascii	"`r\227\263\3122q\032\260\224\370\321\371\001{*\177m"
 444      CA32711A 
 444      B094F8D1 
 444      F9017B2A 
 444      7F6D
 445 022e 38A3BAAB 		.ascii	"8\243\272\253\322\007ov346P\234S\231\311\251\314\237"
 445      D2076F76 
 445      33343650 
 445      9C5399C9 
 445      A9CC9F
ARM GAS  C:\Users\AMANRA~1\AppData\Local\Temp\ccNdUiqj.s 			page 35


 446 0241 D5215426 		.ascii	"\325!T&\017V\231\332U\3716_\245.U\012\227\363\202\363"
 446      0F5699DA 
 446      55F9365F 
 446      A52E550A 
 446      97F382F3 
 447 0255 34CB993C 		.ascii	"4\313\231<Y\216\202\215\035w9~\377\266\232\362\376\345"
 447      598E828D 
 447      1D77397E 
 447      FFB69AF2 
 447      FEE5
 448 0267 65B24FFE 		.ascii	"e\262O\376\207\336\324\277\350]\2620\353\035\261S\211"
 448      87DED4BF 
 448      E85DB230 
 448      EB1DB153 
 448      89
 449 0278 5D1A0C0C 		.ascii	"]\032\014\014\350\315\3046\013\251W>\354\256\203\220"
 449      E8CDC436 
 449      0BA9573E 
 449      ECAE8390 
 450 0288 1908DBC3 		.ascii	"\031\010\333\303QI\230\000b\261\314\274\036\3346=\026"
 450      51499800 
 450      62B1CCBC 
 450      1EDC363D 
 450      16
 451 0299 2FE8A617 		.ascii	"/\350\246\027\013\246!\310\260\276\305\013%c=\373\241"
 451      0BA621C8 
 451      B0BEC50B 
 451      25633DFB 
 451      A1
 452 02aa AD41C85E 		.ascii	"\255A\310^\214JERK\007\006\243\007y\370++\015\374\325"
 452      8C4A4552 
 452      4B0706A3 
 452      0779F82B 
 452      2B0DFCD5 
 453 02be 5EACBF50 		.ascii	"^\254\277P\337\020\250>[]e4\004\214\306&#\320X\213\267"
 453      DF10A83E 
 453      5B5D6534 
 453      048CC626 
 453      23D0588B 
 454 02d3 7557EB2E 		.ascii	"uW\353.7\005*k\231\322tE\270\306\037:\275\2325"
 454      37052A6B 
 454      99D27445 
 454      B8C61F3A 
 454      BD9A35
 455              		.text
 456              		.section	.gnu.lto_chEvtBroadcastFlagsI.29deb57c,"",%progbits
 457 0000 789C8D54 		.ascii	"x\234\215TYOSA\024>g\346n\245\255\340\033\032Bx\220"
 457      594F5341 
 457      143E67E6 
 457      6EA5ADE0 
 457      1B1A4278 
 458 0015 3418A590 		.ascii	"4\030\245\220\220\030\022\3751J@I\210\020J|\360\245"
 458      901812FD 
 458      314A4049 
 458      88104A7C 
 458      F0A5
 459 0027 97B2B428 		.ascii	"\227\262\264(\017\304\000jS\265Q\011/\032Tp\241\262"
ARM GAS  C:\Users\AMANRA~1\AppData\Local\Temp\ccNdUiqj.s 			page 36


 459      0FC4006A 
 459      53B55109 
 459      2F1A5470 
 459      A1B2
 460 0039 94A26C0A 		.ascii	"\224\242l\012\250\301%\320\250q\251J\010\211\021\211"
 460      A8C125D0 
 460      A871A94A 
 460      08891189 
 461 0049 218A9E99 		.ascii	"!\212\236\231\333\312bT&\355\334\231\323s\276\357;\313"
 461      DBCA6254 
 461      26EDDC99 
 461      D373BEEF 
 461      3BCB
 462 005b AD06005F 		.ascii	"\255\006\000_\025\200}\364\254\242/\332\000Y\313\024"
 462      15807DF4 
 462      ACA22FDA 
 462      0059CB14 
 463 006b 40ADC150 		.ascii	"@\255\301P\267\016\234\251\357v\200\231\246\\)\002\323"
 463      B70E9CA9 
 463      EF768099 
 463      A65C2902 
 463      D3
 464 007c A13035E0 		.ascii	"\24105\340\242\233&v\207\212\232\345\244Y\336C\206\316"
 464      A29B2676 
 464      878A9AE5 
 464      A459DE43 
 464      86CE
 465 008e 784F0CC8 		.ascii	"xO\014\310\301\210\333\311\301@\024v\323@\3602\256\250"
 465      C188DBC9 
 465      C1401476 
 465      D340F032 
 465      AEA8
 466 00a0 9A6EA097 		.ascii	"\232n\240\227\351\220\\\315\274\225c\314\237\350ey\235"
 466      E9905CCD 
 466      BC9563CC 
 466      9FE86579 
 466      9D
 467 00b1 26ADE8E9 		.ascii	"&\255\350\351S\351\215fCf\210\003\264s\313\007\2731"
 467      53E98D66 
 467      43668803 
 467      B473CB07 
 467      BB31
 468 00c3 8FBC1ED7 		.ascii	"\217\274\036\327_\013\361\223<\304\021\025\272~\236"
 468      5F0BF193 
 468      3CC41115 
 468      BA7E9E
 469 00d2 0CBEDD26 		.ascii	"\014\276\335&\256\014s\350z\356\371\353\005\033\337"
 469      AE0C73E8 
 469      7AEEF9EB 
 469      051BDF
 470 00e1 8D40E747 		.ascii	"\215@\347G\227\227Z\322\\\035\246\3513\243\361\016n"
 470      97975AD2 
 470      5C1DA6E9 
 470      33A3F10E 
 470      6E
 471 00f2 EE0A718E 		.ascii	"\356\012q\216\267\220\023 \336\304,\354\301, \023\340"
 471      B7901320 
ARM GAS  C:\Users\AMANRA~1\AppData\Local\Temp\ccNdUiqj.s 			page 37


 471      DEC42CEC 
 471      C12C2013 
 471      E0
 472 0103 6D74917B 		.ascii	"mt\221{[0\221\311\363ed\242\353F =\031\271\320)#\025"
 472      5B3091C9 
 472      F36564A2 
 472      EB46203D 
 472      19B9D029 
 473 0119 BCB33952 		.ascii	"\274\2639R\001\354E\227\360\177\352\017,\252\274H\306"
 473      01EC4597 
 473      F07FEA0F 
 473      2CAABC48 
 473      C6
 474 012a 8E2D45C2 		.ascii	"\216-E\302Z\356%\031\373\254o\347\305:s\314TB\\\305"
 474      5AEE2519 
 474      FBAC6FE7 
 474      C53A73CC 
 474      54425CC5 
 475 013e C8C678B1 		.ascii	"\310\306x\261\310\375\315\365\3256\247\246\340]\314"
 475      C8FDCDF5 
 475      D536A7A6 
 475      E05DCC
 476 014d 0DA792C5 		.ascii	"\015\247\222\305>\324\000\351)\254]O\324\250\271\372"
 476      3ED400E9 
 476      29AC5D4F 
 476      D4A8B9FA 
 477 015d D36F46A7 		.ascii	"\323oF\247\3667\017'\006\330v$n\215\211\215\213M\021"
 477      F6370F27 
 477      06D87624 
 477      6E8D898D 
 477      8B4D11
 478 0170 9B4A9BAE 		.ascii	"\233J\233\256\211\223\016\"\312\216\"+\207<;Q\350\314"
 478      89930E22 
 478      CA8E222B 
 478      873C3B51 
 478      E8CC
 479 0182 90678000 		.ascii	"\220g\200\0001\304\355f\024\2328\243C]\024\346\321\027"
 479      31C4ED66 
 479      149A38A3 
 479      435D14E6 
 479      D117
 480 0194 F934FD01 		.ascii	"\3714\375\001\005m\220;HT{ClZ\027E\3452\245\276\330"
 480      056D903B 
 480      48547B43 
 480      6C5A1745 
 480      E532A5BE 
 481 01a9 E48816C6 		.ascii	"\344\210\026\306\363\265\324\231p5\221\030An\307~\221"
 481      F3B5D499 
 481      70359118 
 481      416EC77E 
 481      91
 482 01ba 04FD3AE3 		.ascii	"\004\375:\343\177\361\322\356\276*\332\226#\362\034"
 482      7FF1D2EE 
 482      BE2ADA96 
 482      23F21C
 483 01c9 C030B6C9 		.ascii	"\3000\266\311\236\341 \272!\201\276p\266\200\026\364"
 483      9EE120BA 
ARM GAS  C:\Users\AMANRA~1\AppData\Local\Temp\ccNdUiqj.s 			page 38


 483      2181BE70 
 483      B68016F4 
 484 01d9 044FF626 		.ascii	"\004O\366&*:\015G\212z\316\237fQ\343zj\365\017jB\267"
 484      2A3A0D47 
 484      8A7ACE9F 
 484      6651E37A 
 484      6AF50F6A 
 485 01ef 05B98ED1 		.ascii	"\005\271\216\321\015\304{Eo\206$'\012\316\030q\316c"
 485      0DC47B45 
 485      6F862427 
 485      0ACE1871 
 485      CE63
 486 0201 DDB7C664 		.ascii	"\335\267\306d>\214p\203\334)\250fNH\333\326a\207\327"
 486      3E8C7083 
 486      DC29A866 
 486      4E48DBD6 
 486      6187D7
 487 0214 60EFA19B 		.ascii	"`\357\241\233\260\340=\326\317\016/\367\027X\330\316"
 487      B0E03DD6 
 487      CF0E2FF7 
 487      1758D8CE 
 488 0224 F5821504 		.ascii	"\365\202\025\004\274\237ll\023\015\307\340\236T\202"
 488      BC9F6C6C 
 488      130DC7E0 
 488      9E5482
 489 0233 AF46ED96 		.ascii	"\257F\355\226?\337\022u\252\224\012\216H~&\370G\255"
 489      3FDF1275 
 489      AA940A8E 
 489      487E26F8 
 489      47AD
 490 0245 B4BE379E 		.ascii	"\264\2767\236U-,\205\340D^\244h\216\024\235I\246\253"
 490      552D2C85 
 490      E0445EA4 
 490      688E149D 
 490      49A6AB
 491 0258 ACD3A042 		.ascii	"\254\323\240B\353o\015\037S\375U77t@\314\323\337d\204"
 491      EB6F0D1F 
 491      53FD5537 
 491      377440CC 
 491      D3DF6484 
 492 026c B369AE70 		.ascii	"\263i\256pL\352\220\2439.u\370\"6\013ms1\303\021\366"
 492      4CEA90A3 
 492      392E75F8 
 492      22360B6D 
 492      7331C311 
 493 0281 1FB4349C 		.ascii	"\037\2644\234\220h\212@{@h\013\330\220#'\236|{{\027"
 493      90688A40 
 493      7B40680B 
 493      D8902327 
 493      9E7C7B7B 
 494 0296 E674EF0F 		.ascii	"\346t\357\017\323\010q{\273(<>D/\220hb\012%gG[?;\363"
 494      D308717B 
 494      BB283C3E 
 494      442F9068 
 494      620A2567 
 495 02af 9D9A2524 		.ascii	"\235\232%$c\263\220\343\377\320!\347tR\312P\205\214"
 495      63B390E3 
ARM GAS  C:\Users\AMANRA~1\AppData\Local\Temp\ccNdUiqj.s 			page 39


 495      FFD021E7 
 495      7452CA50 
 495      858C
 496 02c1 A9E49C96 		.ascii	"\251\344\234\226\255\315i\206\344\322\201\376\265\210"
 496      ADCD6986 
 496      E4D281FE 
 496      B588
 497 02cf 2B810C2C 		.ascii	"+\201\014,\273n\025|\342\200E\253\323\233 \212\275\214"
 497      BB6E157C 
 497      E28045AB 
 497      D39B208A 
 497      BD8C
 498 02e1 7472B095 		.ascii	"tr\260\225/\305\024\252\315\256\214#E\033\326\373\265"
 498      2FC514AA 
 498      CDAE8C23 
 498      451BD6FB 
 498      B5
 499 02f2 48C8DD17 		.ascii	"H\310\335\027d\371ec\002\224X\334N]u\345\347\273\351"
 499      64F96563 
 499      029458DC 
 499      4E5D75E5 
 499      E7BBE9
 500 0305 5372A4FC 		.ascii	"Sr\244\374Py\245\247\260\270\260\300]\351qW\327\270"
 500      5079A5A7 
 500      B0B8B0C0 
 500      5DE97157 
 500      D7B8
 501 0317 3DD52564 		.ascii	"=\325%d-=Vz\264\306\223_\002\274\324S\245\226U\034<"
 501      2D3D567A 
 501      B4C6935F 
 501      02BCD453 
 501      A596551C 
 502 032c ECE1A515 		.ascii	"\354\341\245\025U\277\000\342\237\251:"
 502      55BF00E2 
 502      9FA93A
 503              		.text
 504              		.section	.gnu.lto_chEvtSignal.29deb57c,"",%progbits
 505 0000 789C7D52 		.ascii	"x\234}R[HTQ\024\335\373\236;\017\035\013\361+(h\204"
 505      5B485451 
 505      14DDFB9E 
 505      3B0F1D0B 
 505      F12B2868 
 506 0015 06356A6E 		.ascii	"\0065jn\366Q\364\023\204_~\014\204~G\3244\324@\343\310"
 506      F651F413 
 506      845F7E0C 
 506      847E47D4 
 506      34D440E3 
 507 002a DC49F46B 		.ascii	"\334I\364kn\243\246bEPNe\227\264B\252\217^\366\034_"
 507      6EA3A662 
 507      45504E65 
 507      97B442AA 
 507      8F5EF61C 
 508 003f 4D6A9A4E 		.ascii	"Mj\232N\371\242@\022\3124%Q,\253\217\240\264\3669\316"
 508      F9A24012 
 508      CA342551 
 508      2CAB8FA0 
 508      B4F639CE 
ARM GAS  C:\Users\AMANRA~1\AppData\Local\Temp\ccNdUiqj.s 			page 40


 509 0053 448EE661 		.ascii	"D\216\346a\356\235{\316^\353\234\265\326>F\000\370\304"
 509      EE9D7BCE 
 509      5EEB9CB5 
 509      D63E4600 
 509      F8C4
 510 0065 007ED2FF 		.ascii	"\000~\322\377zz\220\001Jg\372\000\216\233%D\376\241"
 510      7A7A9001 
 510      4A67FA00 
 510      8E9B2544 
 510      FEA1
 511 0077 99110212 		.ascii	"\231\021\002\022\006\360$;\307\260\275b2,e]\327hD\316"
 511      06F0243B 
 511      C7B0BD62 
 511      322C655D 
 511      D76844CE 
 512 008b 0FA79DD0 		.ascii	"\017\247\235\320\312\327\351D\017\321\303\007\336\307"
 512      CAD7E944 
 512      0FD1C307 
 512      DEC7
 513 0099 2C420D96 		.ascii	",B\015\226\335\325Y5\323\031\242L\323\271W\265\343k"
 513      DDD55935 
 513      D319A24C 
 513      D3B957B5 
 513      E36B
 514 00ab F954422B 		.ascii	"\371TB+M;'~\015Y\330f\004\372\216\226E\207\215\031\015"
 514      4D3B277E 
 514      0D59D866 
 514      04FA8E96 
 514      45878D19 
 515 00c0 9A16D422 		.ascii	"\232\026\324\"\037\2571m\223\316\030>BF\033\342C\334"
 515      1FAF316D 
 515      93CE183E 
 515      42461BE2 
 515      43DC
 516 00d2 800F7003 		.ascii	"\200\017p\003\320\022\340c\314 \370\305\353\363\003"
 516      D012E063 
 516      CC20F8C5 
 516      EBF303
 517 00e1 8C6D15D4 		.ascii	"\214m\025\324\236\236w)qf\203`\312\370$\221)\003\206"
 517      9E9E7729 
 517      71668360 
 517      CAF82491 
 517      290386
 518 00f4 3183C3C7 		.ascii	"1\203\303\307\356-\324\2541\312\365q\265\330\204F\374"
 518      EE2DD4AC 
 518      31CAF571 
 518      B5D88446 
 518      FC
 519 0105 BB5E261C 		.ascii	"\273^&\034\275\213\032\305z\210\341?\024\300f\202\266"
 519      BD8B1AC5 
 519      7A88E13F 
 519      14C06682 
 519      B6
 520 0116 A01112E0 		.ascii	"\240\021\022\340\343]\273\015\300\013!&\361ZC\357\320"
 520      E35DBB0D 
 520      C00B2126 
 520      F15A43EF 
ARM GAS  C:\Users\AMANRA~1\AppData\Local\Temp\ccNdUiqj.s 			page 41


 520      D0
 521 0127 530BDB27 		.ascii	"S\013\333'\2707o_\271\220b\273&\344}\3263/\227V\237"
 521      B8376F5F 
 521      B99062BB 
 521      26E47DD6 
 521      332F9756 
 522 013c D2EA83A9 		.ascii	"\322\352\203\251:3`\333R\221|$l<{\231Rx\2126\300V\276"
 522      3A3360DB 
 522      52917C24 
 522      6C3C7B99 
 522      52788A36 
 523 0153 395B2226 		.ascii	"9[\"&Bb\236\221\030\376B\342\336\0312D\264\205\337\025"
 523      42629E91 
 523      18FE42E2 
 523      DE193244 
 523      B485DF15 
 524 0167 D49075BD 		.ascii	"\324\220u\275\303S-Y\274s\024\027\205\317\255C%\271"
 524      C3532D59 
 524      BC731417 
 524      85CFAD43 
 524      25B9
 525 0179 A5466A11 		.ascii	"\245Fj\021\250\"\231\364U\032\201I\224V\020yiu\221\330"
 525      A82299F4 
 525      551A8149 
 525      94561079 
 525      697591D8 
 526 018d 8E362255 		.ascii	"\2166\"ULi\2552\357\246\001\255\330A\265i\014\216}\253"
 526      4C69AD32 
 526      EFA601AD 
 526      D841B569 
 526      0C8E7DAB 
 527 01a1 697A9F98 		.ascii	"iz\237\230\346\331/i\2614\345e\311Mn\247\344:y\315\220"
 527      E6D92F69 
 527      B134E565 
 527      C94D6EA7 
 527      E43A79CD 
 528 01b6 589BD633 		.ascii	"X\233\3263\351\342\264s\367\317\227\273\357\"\323\335"
 528      E9E2B473 
 528      F7CF97BB 
 528      EF22D3DD 
 529 01c6 DC7D3777 		.ascii	"\334}7w\2170\312O\275Z\327\370#9}\016\353\264\013V\235"
 529      8F30CA4F 
 529      BD5AD7F8 
 529      23397D0E 
 529      EBB40B56 
 530 01db 893EDD1A 		.ascii	"\211>\335\032o\326\314\262D\252_`\272\010\370\313\314"
 530      6FD6CCB2 
 530      44AA5F60 
 530      BA08F8CB 
 530      CC
 531 01ec EB118956 		.ascii	"\353\021\211V\260\007e\241\033\260W\\\317\033m\035\023"
 531      B00765A1 
 531      1BB0575C 
 531      CF1B6D1D 
 531      13
 532 01fd 29E9DF63 		.ascii	")\351\337cl\023\307~\275\335\370\306\"\330Q\316\306"
 532      6C13C77E 
ARM GAS  C:\Users\AMANRA~1\AppData\Local\Temp\ccNdUiqj.s 			page 42


 532      BDDDF8C6 
 532      22D851CE 
 532      C6
 533 020e 97285366 		.ascii	"\227(SfA\253\310\000`\006\313G\253\302I\334\034G\207"
 533      41ABC800 
 533      6006CB47 
 533      ABC249DC 
 533      1C4787
 534 0221 C33323A6 		.ascii	"\3033#\246\300\274f\326\2319D\307\003\276\302\000\324"
 534      C0BC66D6 
 534      993944C7 
 534      03BEC200 
 534      D4
 535 0232 32A99651 		.ascii	"2\251\226QLI\004/\255\237\262\255\200N\016\321q\200"
 535      4C49042F 
 535      AD9FB2AD 
 535      804E0ED1 
 535      7180
 536 0244 7D84D699 		.ascii	"}\204\326\231Et\205\267\235@\241\362\366~\323b\310\200"
 536      457485B7 
 536      9D40A1F2 
 536      F67ED362 
 536      C880
 537 0256 FDB190E7 		.ascii	"\375\261\220\347j\2326.v=\346{\241\356C\233%n\251_X"
 537      6A9A362E 
 537      763DE67B 
 537      A1EE439B 
 537      256EA95F 
 538 026b 1A109612 		.ascii	"\032\020\226\022\365\017.\352\037}x\372\355aq\004\300"
 538      F50F2EEA 
 538      1F7D78FA 
 538      ED617104 
 538      C0
 539 027c 2C4DAB5B 		.ascii	",M\253[\262\204*>*\351\316\323\345 N\206\335\256\320"
 539      B2842A3E 
 539      2AE9CED3 
 539      E5204E86 
 539      DDAED0
 540 028f CF79C47D 		.ascii	"\317y\304}\320\355U\263weoS\274\252\342\363+\252\317"
 540      D0ED55B3 
 540      77656F53 
 540      BCAAE2F3 
 540      2BAACF
 541 02a2 49ABAE22 		.ascii	"I\253\256\"W\201_\265;A\362\027\032\027'\231\377c\270"
 541      57815FB5 
 541      3B41F217 
 541      1A172799 
 541      FF63B8
 542 02b5 0B9C478F 		.ascii	"\013\234G\217\035rQE-Q\355G\300t\360\200\352\332\353"
 542      1D725145 
 542      2D51ED47 
 542      C074F080 
 542      EADAEB
 543 02c8 73EF5891 		.ascii	"s\357X\221\340\364z<\336\002\245\320\353\363\253\312"
 543      E0F47A3C 
 543      DE02A5D0 
 543      EBF3ABCA 
ARM GAS  C:\Users\AMANRA~1\AppData\Local\Temp\ccNdUiqj.s 			page 43


 544 02d8 9E3C478E 		.ascii	"\236<G\216\243\230 N\257\317\265\277h\247\207\3509\253"
 544      A398204E 
 544      AFCFB5BF 
 544      68A787E8 
 544      39AB
 545 02ea D15CC57E 		.ascii	"\321\\\305~NRr\034\371\271\371J\016\261\224\334\370"
 545      4E52721C 
 545      F9B9F94A 
 545      0EB194DC 
 545      F8
 546 02fb F11ED5AD 		.ascii	"\361\036\325\255\356?\354t\322\036\251\216\374<+\227"
 546      EE3FEC74 
 546      D21EA98E 
 546      FC3C2B97 
 547 030b 51E8736F 		.ascii	"Q\350so\261\332\266\201\344\003\223\307\345\361\372"
 547      B1DAB681 
 547      E40393C7 
 547      E5F1FA
 548 031a 4AE00FC6 		.ascii	"J\340\017\306\253\220l"
 548      AB906C
 549              		.text
 550              		.section	.gnu.lto_chEvtBroadcastFlags.29deb57c,"",%progbits
 551 0000 789C7D52 		.ascii	"x\234}R[L\023A\024\275wg\373\220\342\343\213\230h\264"
 551      5B4C1341 
 551      14BD7767 
 551      FB90E2E3 
 551      8B9868B4 
 552 0014 2492829A 		.ascii	"$\222\202\232\256\370\241\361\307\304\360\345\007\211"
 552      AEF8A1F1 
 552      C7C4F0E5 
 552      0789
 553 0022 916F6364 		.ascii	"\221ocd]\241\211\245d\267\032\370\352\312\333\240\306"
 553      5DA189A5 
 553      64B71AF8 
 553      EACADBA0 
 553      C6
 554 0033 44A9A4AE 		.ascii	"D\251\244\256\340\213\240\037\202\202\250\240B\305\367"
 554      E08BA01F 
 554      8282A8A0 
 554      42C5F7
 555 0042 1335181F 		.ascii	"\0235\030\037\304XA\233\030\352\003\365\303\304\210"
 555      C458419B 
 555      18EA03F5 
 555      C3C488
 556 0051 DE9956A3 		.ascii	"\336\231V\243\025\235t\267;s\317\2319\347\334\261\003"
 556      159D74B7 
 556      3B73CF99 
 556      39E7DCB1 
 556      03
 557 0062 409C017C 		.ascii	"@\234\001|\245\3779\364 \003\224v\337\003\330\346\224"
 557      A5FF39F4 
 557      20039476 
 557      DF03D8E6 
 557      94
 558 0073 10F987E9 		.ascii	"\020\371\207\351D\010I\030\302\035l/\303\301\372x\257"
 558      44084918 
 558      C21D6C2F 
ARM GAS  C:\Users\AMANRA~1\AppData\Local\Temp\ccNdUiqj.s 			page 44


 558      C3C1FA78 
 558      AF
 559 0084 94D76ED2 		.ascii	"\224\327n\322\210\356k\311\2523kg[D\017\323\303\007"
 559      88EE6BC9 
 559      AA336B67 
 559      5B440FD3 
 559      C307
 560 0096 76631EA1 		.ascii	"vc\036\241\036\324\234\264X#\263\030\242L\323\211\273"
 560      1ED49CB4 
 560      5823B318 
 560      A24CD389 
 560      BB
 561 00a7 91B1197C 		.ascii	"\221\261\031|*\241\233\246\007\036\307\022\323\330B"
 561      2AA19BA6 
 561      071EC712 
 561      D3D842
 562 00b6 04FABE7F 		.ascii	"\004\372\276\177\364\363\356\014O\233iV\231\321\341"
 562      F4F3EE0C 
 562      4F9B6956 
 562      99D1E1
 563 00c5 36662EB0 		.ascii	"6f.\260\030\3033\310hC\354\301\271x\032\347\002-\001"
 563      18C333C8 
 563      6843ECC1 
 563      B9781AE7 
 563      022D01
 564 00d8 9E450FC1 		.ascii	"\236E\017\301\233\"\361\331\314+\230\361\316\256\206"
 564      9B22F1D9 
 564      CC2B98F1 
 564      CEAE86
 565 00e7 9929E6AB 		.ascii	"\231)\346\253v\301\224\361\\:S\006\354E\017\307\217"
 565      76C194F1 
 565      5C3A5306 
 565      EC450FC7 
 565      8F
 566 00f8 9E9A6C9A 		.ascii	"\236\232l\232n\227\223R\261\017\355\370k\261F\330\211"
 566      6E979352 
 566      B10FEDF8 
 566      6BB146D8 
 566      89
 567 0109 3FB58BF5 		.ascii	"?\265\213\3650\303\337\361x\236\240\027\320\016i\360"
 567      30C3DFF1 
 567      789EA017 
 567      D00E69F0 
 568 0119 B16B2B6D 		.ascii	"\261k+m\300\013a&\361Z\333\255\207\003.\266Np\217w\034"
 568      C00B6126 
 568      F15ADBAD 
 568      87032EB6 
 568      4E708F77 
 569 012e 6ACECC39 		.ascii	"j\316\3149\"\264\275\267r[\252\033w\232\007\253fY\314"
 569      22B4BDB7 
 569      725BAA1B 
 569      779A07AB 
 569      6659CC
 570 0141 86FD7F2A 		.ascii	"\206\375\177*\344#m\343w-\024\301\000\346\000^\344\233"
 570      E4236DE3 
 570      772D14C1 
 570      00E6005E 
ARM GAS  C:\Users\AMANRA~1\AppData\Local\Temp\ccNdUiqj.s 			page 45


 570      E49B
 571 0153 B33FC444 		.ascii	"\263?\304DI\314%\022\303_H\334\316\207\266\2509\371"
 571      49CC2512 
 571      C35F48DC 
 571      CE87B6A8 
 571      39F9
 572 0165 BD9EBA31 		.ascii	"\275\236\2721\357I\270\356y\267\215\367\215\302\242"
 572      EF49B8EE 
 572      79B78DF7 
 572      8DC2A2
 573 0174 E8B97168 		.ascii	"\350\271qh \273\324F3\012\333I'}UG!\216\322\024*\367"
 573      20BBD446 
 573      330ADB49 
 573      277D5547 
 573      218ED214 
 574 018a FF5F250E 		.ascii	"\377_%\016b\016\221\352\337\230\027e\336K\033\272\361"
 574      620E91EA 
 574      DF981765 
 574      DE4B1BBA 
 574      F1
 575 019b 32D5C6B1 		.ascii	"2\325\306\261j\364SS\337\213\3648\367te\245\342\224"
 575      6AF45353 
 575      DF8BF438 
 575      F77465A5 
 575      E294
 576 01ad FF8A2EBE 		.ascii	"\377\212.\276\224\242\273\302k\266\364\332\270\225K"
 576      94A2BBC2 
 576      6BB6F4DA 
 576      B8954B
 577 01bc D76690DB 		.ascii	"\327f\220\333\277\372\267\375k\344\372:\267\177\235"
 577      BFFAB7FD 
 577      6BE4FA3A 
 577      B77F9D
 578 01cb DB4788F1 		.ascii	"\333G\210\361S\017\267v}\311\310\236\300V\263\331m1"
 578      530FB776 
 578      7DC9C89E 
 578      C056B3D9 
 578      6D31
 579 01dd D1A81363 		.ascii	"\321\250\023c\347M\247,\221\352\033\230-\022\376\220"
 579      E74DA72C 
 579      91EA1B98 
 579      2D12FE90 
 580 01ed 181E9168 		.ascii	"\030\036\221h\005o\242,t\003\336\022\227\363X\377\345"
 580      056FA22C 
 580      7403DE12 
 580      97F358FF 
 580      E5
 581 01fe D799D99F 		.ascii	"\327\231\331\237Sl\007\307~\354\350z\344\022\354\333"
 581      536C07C7 
 581      7EECE87A 
 581      E412ECDB 
 582 020e 9C8D7750 		.ascii	"\234\215wP\246\314\252\334\"\003\200\004\326\306\266"
 582      A6CCAADC 
 582      22038004 
 582      D6C6B6
 583 021d 475CDC1C 		.ascii	"G\\\334\034G\367\366&F\034\241o\246\323b\3160\035\017"
 583      47F7F626 
ARM GAS  C:\Users\AMANRA~1\AppData\Local\Temp\ccNdUiqj.s 			page 46


 583      461CA16F 
 583      A6D362CE 
 583      301D0F
 584 0230 78174310 		.ascii	"x\027C\020aR\204QL\323\010^}\360\355\342)\320\031a:"
 584      61528451 
 584      4CD3085E 
 584      7DF0EDE2 
 584      29D01961 
 585 0245 0EF01EA1 		.ascii	"\016\360\036\241-\346\022]\341}'P\270vp\310\221\014"
 585      2DE6125D 
 585      E17D2750 
 585      B87670C8 
 585      910C
 586 0257 19702815 		.ascii	"\031p(\025\362DS\337\374d\333S\276'[_\366\273~Z\032"
 586      F24453DF 
 586      FC64DB53 
 586      BE275B5F 
 586      F6BB7E5A 
 587 026c 1296EE0B 		.ascii	"\022\226\356\013K\351\372\037$\365\307zv=+\021G\000"
 587      4BE9FA1F 
 587      24F5C77A 
 587      763D2B11 
 587      4700
 588 027e BCA369E3 		.ascii	"\274\243i\343\201EB\025\037\015t\351\351r\020\307\343"
 588      81454215 
 588      1F0D74E9 
 588      E97210C7 
 588      E3
 589 028f F52AF453 		.ascii	"\365*\364SK}\305\276\200\221\277\"\177\211\0220\024"
 589      4B7DC5BE 
 589      8091BF22 
 589      7F891230 
 589      14
 590 02a0 3DA818BA 		.ascii	"=\250\030\272J\253\332V\255,hxU`\232Qn\333\264yC\211"
 590      4AABDA56 
 590      AD2C6878 
 590      55609A51 
 590      6EDBB479 
 591 02b6 91FB2F86 		.ascii	"\221\373/\206\257L\335\274e\243F\025\243\322\360\226"
 591      AF4CDDBC 
 591      65A34615 
 591      A3D2F096 
 592 02c6 82A37883 		.ascii	"\202\243x\203\241\255\321}\313\246$\250\001\277?P\246"
 592      A1ADD17D 
 592      CBA624A8 
 592      01BF3F50 
 592      A6
 593 02d7 9407F4A0 		.ascii	"\224\007\364\240\241\254Z[XPXA\0205\240k\353\267.\367"
 593      A1AC5A5B 
 593      58505841 
 593      1035A06B 
 593      EBB72EF7 
 594 02eb 13BDE07F 		.ascii	"\023\275\340\1774\255\"\310IJAa\321\352\"\245\200X\312"
 594      34AD22C8 
 594      494A4161 
 594      D1EA22A5 
 594      8058CA
ARM GAS  C:\Users\AMANRA~1\AppData\Local\Temp\ccNdUiqj.s 			page 47


 595 02fe EA9FC7FB 		.ascii	"\352\237\307\373\015\237\261\276DUi\217Y\205Ek\335\\"
 595      0D9FB1BE 
 595      4455698F 
 595      5985456B 
 595      DD5C
 596 0310 46B9EE5B 		.ascii	"F\271\356[\354\316Y\002\222\016\016\277\346\017\350"
 596      ECCE5902 
 596      920E0EBF 
 596      E60FE8
 597 031f 95F0035E 		.ascii	"\225\360\003^\033\216~"
 597      1B8E7E
 598              		.text
 599              		.section	.gnu.lto_chEvtGetAndClearFlagsI.29deb57c,"",%progbits
 600 0000 789C8550 		.ascii	"x\234\205PAKTQ\024>\337\273\357\2751l\242\215\022\345"
 600      414B5451 
 600      143EDFBB 
 600      EFBD316C 
 600      A28D12E5 
 601 0014 6216C9A0 		.ascii	"b\026\311\240\213y\212\253~K\253\034\306\024$\303'-"
 601      8B798AAB 
 601      7E4BAB1C 
 601      C61424C3 
 601      272D
 602 0026 DA789D31 		.ascii	"\332x\2351gD\027\012\215\301c\220\241\250\026\022\026"
 602      6744170A 
 602      8DC16390 
 602      A1A81612 
 602      16
 603 0037 8E95A6F6 		.ascii	"\216\225\246\366\234\205\010a\231h\004\302,TDE\006\204"
 603      9C850861 
 603      996804C2 
 603      2C544445 
 603      0684
 604 0049 D9048375 		.ascii	"\331\004\203u\3163\260\334\370\270\217{\3179\337\367"
 604      CE33B0DC 
 604      F8B88F7B 
 604      CF39DFF7 
 605 0059 9DEF1C9B 		.ascii	"\235\357\034\233\210:\015\2426\276o\361\017E0\306\276"
 605      883A0DA2 
 605      36BE6FF1 
 605      0F4530C6 
 605      BE
 606 006a 120DD418 		.ascii	"\022\015\324\030\200<t\015\250\337@?F\325S\205\357\203"
 606      803C740D 
 606      A8DF403F 
 606      46D55385 
 606      EF83
 607 007c 6F736A44 		.ascii	"osjD\345\030frx\262\346\355^\223\020\210px\\^)\\mz\255"
 607      E5186672 
 607      78B2E6ED 
 607      5E931088 
 607      70785C5E 
 608 0095 7552FBCF 		.ascii	"uR\373\317*\365\223\205u}%\247\014\232`x\001\015\230"
 608      2AF59385 
 608      757D25A7 
 608      0C9A6078 
 608      010D98
ARM GAS  C:\Users\AMANRA~1\AppData\Local\Temp\ccNdUiqj.s 			page 48


 609 00a8 4183F498 		.ascii	"A\203\364\230E\023\203\267\322\231\262\245\232A\374"
 609      451383B7 
 609      D299B2A5 
 609      9A41FC
 610 00b7 1E595E1F 		.ascii	"\036Y^\037T\321\227\001\261\372J\351\3339\245\360\036"
 610      54D19701 
 610      B1FA4AE9 
 610      DB39A5F0 
 610      1E
 611 00c8 EA5F22A7 		.ascii	"\352_\"\247\010\037\020\025|\326\333\277\241b\001u|"
 611      081F1015 
 611      7CD6DBBF 
 611      A1620175 
 611      7C
 612 00d9 DB2B851B 		.ascii	"\333+\205\033_\004\324\322\366\365\347)\275\252Mn\212"
 612      5F04D4D2 
 612      F6F5E729 
 612      BDAA4D6E 
 612      8A
 613 00ea 8FFFD3E5 		.ascii	"\217\377\323\345c\370\316\273\323l\33061\207F\261\305"
 613      63F8CEBB 
 613      D36CD836 
 613      318746B1 
 613      C5
 614 00fb 6EE66113 		.ascii	"n\346a\023\370\226\324\364\206\345\353\323\337i\355"
 614      F896D4F4 
 614      86E5EBD3 
 614      DF69ED
 615 010a FFB85BAD 		.ascii	"\377\270[\255\354\325\205\300mM\236\216\373\232$\010"
 615      ECD585C0 
 615      6D4D9E8E 
 615      FB9A2408 
 616 011a 9B6420CA 		.ascii	"\233d \3120\225\267\243}\032\346\220_)\237\216\220\234"
 616      3095B7A3 
 616      7D1AE690 
 616      5F299F8E 
 616      909C
 617 012c 3F5C9CB2 		.ascii	"?\\\234\262E\321S\262\236\211'\305o!Y\217\012\254.\024"
 617      45D153B2 
 617      9E8927C5 
 617      6F21598F 
 617      0AAC2E14 
 618 0140 D756EC3C 		.ascii	"\327V\354<&\007\264\326\371\307,dy\\\371$\346\270\272"
 618      2607B4D6 
 618      F9C72C64 
 618      795CF924 
 618      E6B8BA
 619 0153 99FE59AA 		.ascii	"\231\376Y\252u\336pMG\304\377\002\362\310\212C\302\""
 619      75DE704D 
 619      47C4FF02 
 619      F2C88A43 
 619      C222
 620 0165 1CDA4732 		.ascii	"\034\332G2\337!\322\342\202\345\245]\345`\351KHr\027"
 620      DF21D2E2 
 620      82E5A55D 
 620      E560E94B 
 620      487217
ARM GAS  C:\Users\AMANRA~1\AppData\Local\Temp\ccNdUiqj.s 			page 49


 621 0178 C56F5EA2 		.ascii	"\305o^\242\275t\256\375\031\016\003\246\217\347~\205"
 621      BD74AEFD 
 621      190E03A6 
 621      8FE77E85 
 622 0188 C5A90982 		.ascii	"\305\251\011\202\317\254`\230\325\251\332\263ap\241"
 622      CFAC6098 
 622      D5A9DAB3 
 622      6170A1
 623 0197 41E412FD 		.ascii	"A\344\022\375\345@\037\242_d\357GHU\207\206\2553-\221"
 623      E5401FA2 
 623      5F64EF47 
 623      48558786 
 623      AD332D91 
 624 01ab 13FF6524 		.ascii	"\023\377e$#\1773b$\303p\336#\3576\032\2139|\342\235"
 624      237F3362 
 624      24C370DE 
 624      23EF361A 
 624      8B397CE2 
 625 01c0 5DED5D3D 		.ascii	"]\355]=n\353\235\326\026\247\307uz\373\034\2677\316"
 625      6EEB9DD6 
 625      16A7C775 
 625      7AFB1CB7 
 625      37CE
 626 01d2 D9C4A3C4 		.ascii	"\331\304\243\304\203>7\026'\225\350~hut\337\273\357"
 626      833E3716 
 626      2795E87E 
 626      687574DF 
 626      BBEF
 627 01e4 FE0180E5 		.ascii	"\376\001\200\345\325\355"
 627      D5ED
 628              		.text
 629              		.section	.gnu.lto_chEvtDispatch.29deb57c,"",%progbits
 630 0000 789C5D53 		.ascii	"x\234]S\337KTA\024>gf\356\217\335UQ\014\212\220\360"
 630      DF4B5441 
 630      143E6766 
 630      EE8FDD55 
 630      510C8A90 
 631 0015 21117BD0 		.ascii	"!\021{\320\254'\205\376\224\036L\027\024BaWz\013\257"
 631      AC2785FE 
 631      941E4C17 
 631      14426157 
 631      7A0BAF
 632 0028 BBBA6A66 		.ascii	"\273\272jf\010\245\345\262\304\206\305\322Cl\222\226"
 632      08A5E5B2 
 632      C486C5D2 
 632      436C9296 
 633 0038 9A9BEBAE 		.ascii	"\232\233\353\256TB\332\217\007_R\203~,Tj\345\203X\331"
 633      5442DA8F 
 633      075F5283 
 633      7E2C546A 
 633      E58358D9 
 634 004c DA999955 		.ascii	"\332\231\231U\266\206\275sg\276\375\276\363\3159g\256"
 634      B686BD73 
 634      67BEFDBE 
 634      F3CD3967 
 634      AE
 635 005d 09004200 		.ascii	"\011\000B\000\234\241\267\217\036\264\001\331\340\022"
ARM GAS  C:\Users\AMANRA~1\AppData\Local\Temp\ccNdUiqj.s 			page 50


 635      9CA1B78F 
 635      1EB401D9 
 635      E012
 636 006b 40A7CDD0 		.ascii	"@\247\315\320\324\013\316\304\2154\200\3436v\334\340"
 636      D40BCEC4 
 636      8D3480E3 
 636      3676DCE0 
 637 007b 14083434 		.ascii	"\024\01044nh\302\234m2>\236\222\004k\305C\004\013Q\342"
 637      6E68C29C 
 637      6D323E9E 
 637      92046BC5 
 637      43040B51 
 638 0090 8E8DD0C1 		.ascii	"\216\215\320\301\2700L\013;\230\011\230\024\270G\303"
 638      B8304C0B 
 638      3B980998 
 638      14B847C3 
 639 00a0 3A58801C 		.ascii	":X\200\034\227\3715\216\251\236\314\024\253\21294\222"
 639      97F9358E 
 639      A99ECC14 
 639      AB8A3934 
 639      92
 640 00b1 D7270F87 		.ascii	"\327'\017\207\234\356#\021\0160\314\025\005\360\001"
 640      9CEE2311 
 640      0E30CC15 
 640      05F001
 641 00c0 5611EB75 		.ascii	"V\021\353u\327\375\010\357\347\021\216(h\373c1\374\241"
 641      D7FD08EF 
 641      E7118E28 
 641      68FB6331 
 641      FCA1
 642 00d2 486E1996 		.ascii	"Hn\031\226\323vc\340c@\360\023\010\264\356\034]\272"
 642      D37663E0 
 642      6340F013 
 642      08B4EE1C 
 642      5DBA
 643 00e4 CA2AEF38 		.ascii	"\312*\3578N\300I\356\336\346\316\361\010\347\370\020"
 643      4EC049EE 
 643      DEE6CEF1 
 643      08E7F810 
 644 00f4 3905C409 		.ascii	"9\005\304\011,\303q,\003\202\000\037a%\321Gb\177^q~"
 644      2CC3712C 
 644      0382001F 
 644      6125D147 
 644      627F5E71 
 645 0109 5A491716 		.ascii	"ZI\027\026\326\012r\312\365\230R\012\234\374_)\000\247"
 645      D60A72CA 
 645      F598520A 
 645      9CFC5F29 
 645      00A7
 646 011b B052D287 		.ascii	"\260R\322\207\306\372\007\335\274^I\303\337v\322\274"
 646      C6FA07DD 
 646      BC5E49C3 
 646      DF76D2BC 
 647 012b 625465B1 		.ascii	"bTe\261\271z\364V\320y\356\210\0107p\372_\275\034D\177"
 647      B97AF456 
 647      D079EE88 
 647      083770FA 
ARM GAS  C:\Users\AMANRA~1\AppData\Local\Temp\ccNdUiqj.s 			page 51


 647      5FBD1C44 
 648 0140 3F961D2A 		.ascii	"?\226\035*4\005>\306\212\350~\2628\203T)zK4\376\306"
 648      34053EC6 
 648      8AE87EB2 
 648      38835429 
 648      7A4B34FE 
 649 0155 483AD9BD 		.ascii	"H:\331\275\036'\2319;\220^~\307\016!y\233LN\\N\372\030"
 649      1E279939 
 649      3B905E7E 
 649      C70E2179 
 649      9B4C4E5C 
 650 016c 869A4946 		.ascii	"\206\232IF\022[\302.9\271i\262<2\313\002\232\354\"\224"
 650      125BC22E 
 650      39B969B2 
 650      3C32CB02 
 650      9AEC2294 
 651 0180 A462452D 		.ascii	"\244bE-A\231w\251\022\000\364\222\357\212\307IB\037"
 651      419977A9 
 651      1200F492 
 651      EF8AC749 
 651      421F
 652 0192 67B40826 		.ascii	"g\264\010&!\203\201h,n\311\263H\012\0355\276>\365\263"
 652      21838168 
 652      2C6EC9B3 
 652      480A1D35 
 652      BE3EF5B3 
 653 01a6 5096DA85 		.ascii	"P\226\332\205\200\011\225B\037\225\217\272N\364/\030"
 653      80099542 
 653      1F958FBA 
 653      4EF42F18 
 654 01b6 D8EA4924 		.ascii	"\330\352I$\356\241\024\204\251\014\334$,\270\025Zpi"
 654      EEA11484 
 654      A90CDC24 
 654      2CB8155A 
 654      7069
 655 01c8 8485B941 		.ascii	"\204\205\271A\270\004wC9\026'\230\002\217\317?\013\331"
 655      B8047743 
 655      39162798 
 655      028FCF3F 
 655      0BD9
 656 01da 32B08988 		.ascii	"2\260\211\210O(\360'\354z\233\236\337'\345[\233d=\233"
 656      4F28F027 
 656      EC7A9B9E 
 656      DF27E55B 
 656      9B643D9B 
 657 01ee AB5E1F75 		.ascii	"\253^\037u\340J\235\362\016~\017\255&\356\346\004\266"
 657      E04A9DF2 
 657      0E7E0FAD 
 657      26EEE604 
 657      B6
 658 01ff 8CA1AD02 		.ascii	"\214\241\255\002\331\320\210\241Q\027\375\241\315?s"
 658      D9D088A1 
 658      5117FDA1 
 658      CD3F73
 659 020e 8D14AB13 		.ascii	"\215\024\253\023\271d\246\345*M\252\012\241\222\024"
 659      B964A6E5 
 659      2A4DAA0A 
ARM GAS  C:\Users\AMANRA~1\AppData\Local\Temp\ccNdUiqj.s 			page 52


 659      A19214
 660 021d 0E6D242E 		.ascii	"\016m$.j\226\233\"\345_;\013\005&\351\004\304\212\354"
 660      6A969B22 
 660      E55F3B0B 
 660      0526E904 
 660      C48AEC
 661 0230 E7E109F3 		.ascii	"\347\341\011\363\022bJ\303\335K9\254\200D\303\335\251"
 661      12624AC3 
 661      DD4B39AC 
 661      8044C3DD 
 661      A9
 662 0241 97961471 		.ascii	"\227\226\024qu5fR\213O\315(\336\354\244\273Q\036\221"
 662      75356652 
 662      8B4FCD28 
 662      DEECA4BB 
 662      511E91
 663 0254 913D3827 		.ascii	"\221=8'\223\301\024F\021\326\261+zL\365\236\324\364"
 663      93C11446 
 663      11D6B12B 
 663      7A4CF59E 
 663      D4F4
 664 0266 9811EE51 		.ascii	"\230\021\356Qi\032\271\032g\220\201>\244\220\366\303"
 664      691AB91A 
 664      6790813E 
 664      A490F6C3 
 665 0276 A181D906 		.ascii	"\241\201\331\006mVJl2\230\350y1\346\226~\006\0252M\221"
 665      6D564A6C 
 665      3298E879 
 665      31E6967E 
 665      0615324D 
 666 028b 0F52A30E 		.ascii	"\017R\243\016\022\013`\033\005e\315)z\261\230\376\275"
 666      120B601B 
 666      0565CD29 
 666      7AB198FE 
 666      BD
 667 029c 8514DD04 		.ascii	"\205\024\335\004\372P\367\243+\236\231\347d\350f,\257"
 667      FA50F7A3 
 667      2B9E99E7 
 667      64E8662C 
 667      AF
 668 02ad 9DD24E46 		.ascii	"\235\322NF~Z\202\2721\257\273\261\215T\313\"F\201\205"
 668      7E5A82BA 
 668      31AFBBB1 
 668      8D54CB22 
 668      468185
 669 02c0 411B535E 		.ascii	"A\033S^\0206\375\253\236\\\215p6%\215,}\2616\351b}\215"
 669      1036FDAB 
 669      9E5C8D70 
 669      36258D2C 
 669      7DB136E9 
 670 02d7 AB2AA936 		.ascii	"\253*\2516\366RqV<\014\240\262\272\272\206~\215\315"
 670      F6527156 
 670      3C0CA0B2 
 670      BABA867E 
 670      8DCD
 671 02e9 2DE75ADA 		.ascii	"-\347Z\332\374\265u\265'k\332\3745\276\366\032\277\257"
 671      FCB575B5 
ARM GAS  C:\Users\AMANRA~1\AppData\Local\Temp\ccNdUiqj.s 			page 53


 671      276BDAFC 
 671      35BEF61A 
 671      BFAF
 672 02fb 9150EF05 		.ascii	"\221P\357\005ok\273\277\272\021\354\346\206\326\246"
 672      6F6BBBBF 
 672      BA11ECE6 
 672      86D6A6
 673 030a F35E9FDF 		.ascii	"\363^\237\337\324\020\367\2664\375\005?\236V\353"
 673      D410F7B6 
 673      34FD053F 
 673      9E56EB
 674              		.text
 675              		.section	.gnu.lto_chEvtWaitOne.29deb57c,"",%progbits
 676 0000 789C9554 		.ascii	"x\234\225T]L\\U\020>s\317\335\273\333\335-\360\240/"
 676      5D4C5C55 
 676      103E73CF 
 676      DDBBDBDD 
 676      2DF0A02F 
 677 0014 84344B22 		.ascii	"\2044K\"\201\252\345\0265\032cbbx\352\003\211)O>UY7"
 677      81AAE516 
 677      351A6362 
 677      6278EA03 
 677      89294F3E 
 678 002b 2D499725 		.ascii	"-I\227%\273H\312\023\267\013\205\266XcT\260\305\005"
 678      BB48CA13 
 678      B70B85B6 
 678      586354B0 
 678      C505
 679 003d B66AD39A 		.ascii	"\266j\323\232\006\324J\177\370\351\262\005\313O-\260"
 679      06D44A7F 
 679      F8E9B205 
 679      CB4F2DB0 
 680 004d A5FC0915 		.ascii	"\245\374\011\025\012\010\011\224\222\3264V\255l\235"
 680      0A080994 
 680      92D63456 
 680      AD6C9D
 681 005c 39F7F28F 		.ascii	"9\367\362\217D7p\366\3369\363\315|3\337\314*\214\261"
 681      443770F6 
 681      DE39F3CD 
 681      7C33DFCC 
 681      2A8CB1
 682 006f 72336351 		.ascii	"r3cQ\374~\005\377\301\304@\372\270\207\261\303\026I"
 682      FC7E05FF 
 682      C1C440FA 
 682      B887B1C3 
 682      1649
 683 0081 E29104A6 		.ascii	"\342\221\004\246Y\345p\032\323\354\034d\335,\003\320"
 683      59E5701A 
 683      D3EC1C64 
 683      DD2C03D0 
 684 0091 83660156 		.ascii	"\203f\001V(q\031\012\341C\376\031\207[\305\337\005x"
 684      2871190A 
 684      E143FE19 
 684      875BC5DF 
 684      0578
 685 00a3 190F7006 		.ascii	"\031\017p\0062\276>\354\256\234\212\241W\000\007\276"
 685      32BE3EEC 
ARM GAS  C:\Users\AMANRA~1\AppData\Local\Temp\ccNdUiqj.s 			page 54


 685      AE9C8AA1 
 685      570007BE 
 686 00b3 CE2FB4D7 		.ascii	"\316/\264\327\333w\236\3254\277\026\376<\024_U\037\321"
 686      DB779ED5 
 686      34BF16FE 
 686      3C145F55 
 686      1FD1
 687 00c5 B605B8C4 		.ascii	"\266\005\270\304*\320\275\036\022\340\007H\240\344\027"
 687      2AD0BD1E 
 687      12E00748 
 687      A0E417
 688 00d4 61273A9F 		.ascii	"a':\237:\273\030\341\374y`\370\334\3255fO>#p\217\276"
 688      3ABB18E1 
 688      FC7960F8 
 688      DCD53566 
 688      4F3E2370 
 689 00ea E6DA7308 		.ascii	"\346\332s\010\202K\300W\343(\016\\\206dr\277\036\275"
 689      824BC057 
 689      E3280E5C 
 689      866472BF 
 689      1EBD
 690 00fc 7C54E669 		.ascii	"|T\346i\002:X3\320\031\223\364\225\300\366\314\3558"
 690      023A5833 
 690      D01993F4 
 690      95C0F6CC 
 690      ED38
 691 010e 5DA4756A 		.ascii	"]\244uj2\341\257\254\305\323\007\335oF\353{\255\374"
 691      32E1AFAC 
 691      C5D307DD 
 691      6F46EB7B 
 691      ADFC
 692 0120 65013D3E 		.ascii	"e\001=>\336\362\330l@\333\347\342\227\240\034\0327\205"
 692      DEF2D86C 
 692      40DBE7E2 
 692      97A01C1A 
 692      3785
 693 0132 4E7E1F2D 		.ascii	"N~\037-\337\256\310\320\004I\320\000IT\025\026\323\014"
 693      DFAEC8D0 
 693      0449D000 
 693      49541516 
 693      D30C
 694 0144 0A2C5F16 		.ascii	"\012,_\026k\370\011\317\334S\204\275\202\303*\034\203"
 694      6BF809CF 
 694      DC5384BD 
 694      82C32A1C 
 694      83
 695 0155 ABE81A02 		.ascii	"\253\350\032\002\205\255s\177\322\376&\312\021\"\177"
 695      85AD737F 
 695      D2FE26CA 
 695      11227F
 696 0164 89EECEDC 		.ascii	"\211\356\316\334\350k\261\361w\005\366\233\272\323'"
 696      E86BB1F1 
 696      7705F69B 
 696      BAD327
 697 0173 ED06C58E 		.ascii	"\355\006\305\216\252\224\352\242\262\023Z\320\037\027"
 697      AA94EAA2 
 697      B2135AD0 
ARM GAS  C:\Users\AMANRA~1\AppData\Local\Temp\ccNdUiqj.s 			page 55


 697      1F17
 698 0181 4045C25B 		.ascii	"@E\302[\220\324\003/Tc-\327\220)\264Pp\276\206L+\222"
 698      90D4032F 
 698      54632DD7 
 698      9029B450 
 698      70BE864C 
 699 0197 69433274 		.ascii	"iC2t\000c\322RY\337\366\231\302Z\364i)*\270c\266y\266"
 699      0063D252 
 699      59DFF699 
 699      C25AF469 
 699      292AB863 
 700 01ae 65D73380 		.ascii	"e\3273\200\2757Itp:d:Lt(t\230\031\241\254\214\3606 "
 700      BD374974 
 700      703A643A 
 700      4C742874 
 700      9819A1AC 
 701 01c6 85ECC212 		.ascii	"\205\354\302\022+\3168q2v\024{\205\363\244\205\3311"
 701      2BCE3871 
 701      3276147B 
 701      85F3A485 
 701      D931
 702 01d8 2C129F8A 		.ascii	",\022\237\212\302l\016\374\215\263\347j\315\324\252"
 702      C26C0EFC 
 702      8DB3E76A 
 702      CDD4AA
 703 01e7 4A6E4572 		.ascii	"JnEr\025GZ{\3154N\212(\276\241a~\324\\\270\250Y\320"
 703      15475A7B 
 703      CD344E8A 
 703      28BEA161 
 703      7ED45CB8 
 704 01fe 10E47A7D 		.ascii	"\020\344z}\365E\017?\211\011B5\004\270\031\256\343X"
 704      F5450F3F 
 704      89094235 
 704      04B819AE 
 704      E358
 705 0210 FE48B5E3 		.ascii	"\376H\265\343\305\245\216;O,j-\025\036\254\303[\013"
 705      C5A58E3B 
 705      4F2C6A2D 
 705      151EACC3 
 705      5B0B
 706 0222 B44310CA 		.ascii	"\264C\020\312\271\321\227\277\206\212\216H\372\265\203"
 706      B9D197BF 
 706      868A8E48 
 706      FAB583
 707 0231 24EE00B5 		.ascii	"$\356\000\265\034\345A\001;Ae3\340\017\346\013)\261"
 707      1CE54101 
 707      3B416533 
 707      E00FE60B 
 707      29B1
 708 0243 0AE48206 		.ascii	"\012\344\202\006i\223\366\177\261u\373\241\013\222\020"
 708      6993F67F 
 708      B175FBA1 
 708      0B9210
 709 0252 543AAB5D 		.ascii	"T:\253]\225\251\012\031\034p\003\357\356\201\177\362"
 709      95A90A19 
 709      1C7003EF 
 709      EE817FF2 
ARM GAS  C:\Users\AMANRA~1\AppData\Local\Temp\ccNdUiqj.s 			page 56


 710 0262 6979E3F8 		.ascii	"iy\343\370\3729\371t0\336\230\023y\303L\314\274\204"
 710      FA39F974 
 710      30DE9813 
 710      79C34CCC 
 710      BC84
 711 0274 33F113DD 		.ascii	"3\361\023\335\231\326\337\265U\245\340\302u\221\256"
 711      99D6DFB5 
 711      55A5E0C2 
 711      7591AE
 712 0283 3737EADA 		.ascii	"77\352\332\215E\364\220\256=\244+\260)\312\372e\315"
 712      8D45F490 
 712      AE3DA42B 
 712      B029CAFA 
 712      65CD
 713 0295 853FAC89 		.ascii	"\205?\254\211\217\240F;\211\325o#@\355T\223f\221%d\335"
 713      8FA0463B 
 713      89D56F23 
 713      40ED5493 
 713      66912564 
 714 02aa 0B89A245 		.ascii	"\013\211\242E\017\346\373G%\264@\004d\301\233\301-\261"
 714      0FE6FB47 
 714      25B44004 
 714      64C19BC1 
 714      2DB1
 715 02bc E5E7426D 		.ascii	"\345\347Bm\323\366\304\307\006\332J\276\277\325]\030"
 715      D3F6C4C7 
 715      06DA4ABE 
 715      BFD55D18 
 716 02cc B009741F 		.ascii	"\260\011t\037\241\3416\310\324D\207\350\001\023\322"
 716      A1E136C8 
 716      D44487E8 
 716      0113D2
 717 02db FEE93F7F 		.ascii	"\376\351?\177\033tma\265\266\372R4\267v\267+\250\343"
 717      1B746D61 
 717      B5B6FA52 
 717      34B776B7 
 717      2BA8E3
 718 02ee 615D101B 		.ascii	"a]\020\0336\035\372\015)\373K\207\307l\313ZI0 \204\224"
 718      361DFA0D 
 718      29FB4B87 
 718      C76CCB5A 
 718      49302084 
 719 0303 A8C38328 		.ascii	"\250\303\203(\326\034\024\375]\362\216\036\331\216\301"
 719      D61C14FD 
 719      5DF28E1E 
 719      D98EC1
 720 0312 2BB94DE4 		.ascii	"+\271M\344\026\3725\220~v6\015\305#m\013sv\303ku~\011"
 720      16FA3590 
 720      7E76360D 
 720      C5236D0B 
 720      7376C36B 
 721 0329 BB326428 		.ascii	"\2732d(v\014\233\027I\320g\261r\266\356\276\225\374"
 721      760C9B17 
 721      49D067B1 
 721      72B6EEBE 
 721      95FC
 722 033b D7B10B66 		.ascii	"\327\261\013f\261-\371\331aX\3603\006\264\356\276\277"
ARM GAS  C:\Users\AMANRA~1\AppData\Local\Temp\ccNdUiqj.s 			page 57


 722      B12DF9D9 
 722      6158F033 
 722      06B4EEBE 
 722      BF
 723 034c 4736E630 		.ascii	"G6\3460\207\262\375L\223&\023\371\021P\211\353<\024"
 723      87B2FD4C 
 723      932613F9 
 723      115089EB 
 723      3C14
 724 035e 075B2E9A 		.ascii	"\007[.\232(\325\272)\337^\301\025\364\033\205B\272X"
 724      28D5BA29 
 724      DF5EC115 
 724      F41B8542 
 724      BA58
 725 0370 7C1059B4 		.ascii	"|\020Y\264\023\343\030\260\302\035H\010\360X}g\256\234"
 725      13E318B0 
 725      C21D4808 
 725      F0587D67 
 725      AE9C
 726 0382 307646FA 		.ascii	"0vF\372\237\215\374e\245\221cK\215,\320C\305b\264\215"
 726      9F8DFC65 
 726      A591634B 
 726      8D2CD043 
 726      C562B48D 
 727 0396 8D8C153D 		.ascii	"\215\214\025=\222\215\205\245\245\320\355f\"2\\R;\364"
 727      928D85A5 
 727      A5D0ED66 
 727      22325C52 
 727      3BF4
 728 03a8 AC8EE6BA 		.ascii	"\254\216\346\272\011\303\031\212\307\031\266\265\341"
 728      09C3198A 
 728      C719B6B5 
 728      E1
 729 03b5 E274FE4D 		.ascii	"\342t\376M\265V\335K\376O\374w\021\365\361\025\352w"
 729      B556DD4B 
 729      FE4FFC77 
 729      11F5F115 
 729      EA77
 730 03c7 05757FB4 		.ascii	"\005u\177\264\244\313\244\2071\351\2211\373)\303B\261"
 730      A4CBA487 
 730      31E99131 
 730      FB29C342 
 730      B1
 731 03d8 D14E6EFD 		.ascii	"\321Nn\375\307a\023Q\267\3104\261\222i\222\004S\364"
 731      C7611351 
 731      B7C834B1 
 731      92699204 
 731      53F4
 732 03ea BAAF89DD 		.ascii	"\272\257\211\335^\236\"\031\247hj\365n\353\277\243\306"
 732      5E9E2219 
 732      A7686AF5 
 732      6EEBBFA3 
 732      C6
 733 03fb BE456B26 		.ascii	"\276Ek&B\266\245U\232\022\253\364\253X\245\365{3\255"
 733      42B6A555 
 733      9A12ABF4 
 733      AB58A5F5 
ARM GAS  C:\Users\AMANRA~1\AppData\Local\Temp\ccNdUiqj.s 			page 58


 733      7B33AD
 734 040e EFCDDD89 		.ascii	"\357\315\335\211\217F\366\213\034\214-\340kY\250[1\032"
 734      8F46F68B 
 734      1C8C2DE0 
 734      6B59A85B 
 734      311A
 735 0420 893C7E07 		.ascii	"\211<~\0073\316\260Ty\376\005T\204W\326\275\201?\247"
 735      33CEB054 
 735      79FE0554 
 735      8457D6BD 
 735      813FA7
 736 0433 409A609C 		.ascii	"@\232`\234\344\324T\025\377\234\007\262\263\262=\276"
 736      E4D45415 
 736      FF9C07B2 
 736      B3B23DBE 
 737 0443 B4D7D376 		.ascii	"\264\327\323v\253\036\237\352\315S}^'Z]\371\256\234"
 737      AB1E9FEA 
 737      CD537D5E 
 737      275A5DF9 
 737      AE9C
 738 0455 3C5FAA93 		.ascii	"<_\252\223)\372\023\270\2713/7\345\337@\3319\316\203"
 738      29FA13B8 
 738      B9332F37 
 738      E5DF40D9 
 738      39CE83
 739 0468 1FBCEFC2 		.ascii	"\037\274\357\302\033_\201/\365\0003g\275\347s\275\355"
 739      1B5F812F 
 739      F5003367 
 739      BDE773BD 
 739      ED
 740 0479 CD7E7553 		.ascii	"\315~uS\200\323\343v{r\324\\\2177\317\247\276\2657#"
 740      80D3E376 
 740      7B72D45C 
 740      8F37CFA7 
 740      BEB53723 
 741 048d 3DE310BA 		.ascii	"=\343\020\2728=^\327\276\374\327\334\010O\337\012\346"
 741      383D5ED7 
 741      BEFCD7DC 
 741      084FDF0A 
 741      E6
 742 049e 3A944720 		.ascii	":\224G 5=#sO\246\232\216(u\317Rz\267/\333\267o\277\323"
 742      353D2373 
 742      4FA69A8E 
 742      2875CF52 
 742      7AB72FDB 
 743 04b6 8931E232 		.ascii	"\2111\34222\367:\210F\2567\373EG\322n&y\231\331\355"
 743      32F73A88 
 743      46AE37FB 
 743      4547D26E 
 743      267999D9 
 744 04cb 727BBC05 		.ascii	"r{\274\005\354\037\270W\270_"
 744      EC1FB857 
 744      B85F
 745              		.text
 746              		.section	.gnu.lto_chEvtWaitAny.29deb57c,"",%progbits
 747 0000 789C9554 		.ascii	"x\234\225ToL[U\024\277\347\335\327\327\322vu\361\343"
 747      6F4C5B55 
ARM GAS  C:\Users\AMANRA~1\AppData\Local\Temp\ccNdUiqj.s 			page 59


 747      14BFE7DD 
 747      D7D7D276 
 747      75F1E3
 748 0013 464C4924 		.ascii	"FLI$0u\274\241FcLL\014\237\366\201\304\214O~\232R\233"
 748      3075BCA1 
 748      46634C4C 
 748      0C9FF681 
 748      C48C4F7E 
 749 002a AD89A5A4 		.ascii	"\255\211\245\244E2>\361\326\262\261\015g\214\012nX\240"
 749      45323EF1 
 749      D6B2B10D 
 749      678C0A6E 
 749      58A0
 750 003c 5397E907 		.ascii	"S\227\351\007P'\016)\014:p\374\231\003:\006\333\204"
 750      50270E29 
 750      0C3A70FC 
 750      99033A06 
 750      DB84
 751 004e 09036409 		.ascii	"\011\003d\011\023p3\3136et\236s\337\343\317\012\022"
 751      137033CB 
 751      3665749E 
 751      73DFE3CF 
 751      0A12
 752 0060 6DE0F6BD 		.ascii	"m\340\366\275{\317\357\334\337\371\375\316\251\302\030"
 752      7BCFEFDC 
 752      DFF9FDCE 
 752      A9C218
 753 006f CB333396 		.ascii	"\31333\226\300\357\027\361\037L\014\244\017\373\031"
 753      C0EF17F1 
 753      1F4C0CA4 
 753      0FFB19
 754 007e DB6F9124 		.ascii	"\333o\221$\036Oe\232U\216e3\315\316A\326\267e\000z\320"
 754      1E4F659A 
 754      558E6533 
 754      CDCE41D6 
 754      B765007A 
 755 0093 2CC04A25 		.ascii	",\300J%.C)\274\317?\341p\251\354\3330\257\340a\316@"
 755      2E4329BC 
 755      CF3FE170 
 755      A9ECDB30 
 755      AFE061CE 
 756 00a8 C6D73B7D 		.ascii	"\306\327;}\325S\016z\005p\342\353\354|W\243}\333)M\013"
 756      D5530E7A 
 756      0570E2EB 
 756      EC7C57A3 
 756      7DDB294D 
 757 00bd 6AB14FA3 		.ascii	"j\261O\243[k\032\343ZJ\230K\254\012\303\033!\025\276"
 757      5B6B1AE3 
 757      5A4A984B 
 757      AC0AC31B 
 757      2115BE
 758 00d0 8754BAFC 		.ascii	"\207T\272\374\007\330\206\301\307O-\3069\177\006\030"
 758      07D886C1 
 758      C74F2DC6 
 758      397F0618 
 759 00e0 3EF7F68E 		.ascii	">\367\366\216\3313N\012\334\335/\271\3664\202\340\014"
 759      D9334E0A 
ARM GAS  C:\Users\AMANRA~1\AppData\Local\Temp\ccNdUiqj.s 			page 60


 759      DCDD2FB9 
 759      F63482E0 
 759      0C
 760 00f1 F0D538CA 		.ascii	"\360\3258\312\003M\220A\341\347\023M\207d\236-\240W"
 760      034D9041 
 760      E1E7134D 
 760      87649E2D 
 760      A057
 761 0103 EA867B1C 		.ascii	"\352\206{\034\351_\010lb\356\251\023!\255G\223\011\377"
 761      E95F086C 
 761      62EEA913 
 761      21AD4793 
 761      09FF
 762 0115 E3E378FA 		.ascii	"\343\343x\372`\370\305D\343\200\225\277 \240G\306\333"
 762      60F8C544 
 762      E38095BF 
 762      20A047C6 
 762      DB
 763 0126 EF9B0DE8 		.ascii	"\357\233\015\350\275\271-KP\016\321u\241\223\337%*7"
 763      BDB92D4B 
 763      500ED175 
 763      A193DF25 
 763      2A37
 764 0138 2932B440 		.ascii	")2\264@:4C:U\205\305\264\202\002\313\207e\032~b\375"
 764      3A34433A 
 764      5585C5B4 
 764      8202CB87 
 764      651A7E62 
 765 014d 7F2862BF 		.ascii	"\177(b\277\212\303*\034\203\263\030\332\006\012K\012"
 765      8AC32A1C 
 765      83B318DA 
 765      060A4B0A 
 766 015d 5FE87A0D 		.ascii	"_\350z\015\355h\243x\211\316N^\030l\267\361\267\004"
 766      ED68A378 
 766      89CE4E5E 
 766      186CB7F1 
 766      B704
 767 016f F6EB8613 		.ascii	"\366\353\206\023\307\354\006\305\356\232\314\332P\305"
 767      C7EC06C5 
 767      EE9ACCDA 
 767      50C5
 768 017d 512D12DC 		.ascii	"Q-\022\334\034FGb\033\220\324\023\317\327b-\347\220"
 768      1C464762 
 768      1B90D413 
 768      CFD7622D 
 768      E790
 769 018f 29B45372 		.ascii	")\264Sr\376\030\231\016$\323\211dh\001\306\244\245\262"
 769      FE18990E 
 769      24D38964 
 769      6801C6A4 
 769      A5B2
 770 01a1 BE1934C5 		.ascii	"\276\0314\305\264\304\243rtp\313\\\353\314\303\355O"
 770      B4C4A372 
 770      7470CB5C 
 770      EBCCC3ED 
 770      4F
 771 01b2 026A6F92 		.ascii	"\002jo\222h\341\264\310\264\230hA0\002R\030A\255@\346"
ARM GAS  C:\Users\AMANRA~1\AppData\Local\Temp\ccNdUiqj.s 			page 61


 771      68E1B4C8 
 771      B4986841 
 771      30025218 
 771      41AD40E6 
 772 01c6 D8C48E43 		.ascii	"\330\304\216C\254\214\035B\201\260\211\264\030;\214"
 772      AC8C1D42 
 772      81B089B4 
 772      183B8C
 773 01d5 95E15328 		.ascii	"\225\341S(\306nA0:3Vo&}\252y\0122\252:\3201`\246\036"
 773      C66E4130 
 773      3A33566F 
 773      267DAA79 
 773      0A32AA3A 
 774 01ee 5244C5CD 		.ascii	"RD\305\315\315\263\243\346\322E\315\202\033\021\256"
 774      CDB3A3E6 
 774      D245CD82 
 774      1B11AE
 775 01fd 17D518BA 		.ascii	"\027\325\030\272\363\221#\002\265\020\346f8\217\275"
 775      F3912302 
 775      B510E666 
 775      388FBD
 776 020c F813158C 		.ascii	"\370\023\025\214\007g\272\257/X\324z\2526\322\200\247"
 776      0767BAAF 
 776      2F58D47A 
 776      AA36D280 
 776      A7
 777 021d 16E88208 		.ascii	"\026\350\202\010TrC\214\277\257\206\016H\372\261\223"
 777      5472438C 
 777      BFAF860E 
 777      48FAB193 
 778 022d 7CED06B5 		.ascii	"|\355\006\265\022=A\327z@e7!\030)\026\376!\177\344\202"
 778      123D41D7 
 778      7A406537 
 778      21182916 
 778      FE217FE4 
 779 0242 1BD23A9A 		.ascii	"\033\322:\232\177\266\261\346\320\013\351\010*\237\321"
 779      7FB6B1E6 
 779      D00BE908 
 779      2A9FD1
 780 0251 CECA5485 		.ascii	"\316\312T\205\014N\270\200g\277Cp\362Qet<\2719>\036"
 780      0C4EB880 
 780      67BF4370 
 780      F2516574 
 780      3CB9393E 
 781 0266 DC6A3487 		.ascii	"\334j4\207\274\246\021n>\217\215\3603\235\231\222\317"
 781      BCA6116E 
 781      3E8F8DF0 
 781      339D9992 
 781      CF
 782 0277 3A6B3271 		.ascii	":k2q\312z\311\314\213k\315\354\303\"\372\311\314~2\023"
 782      CA7AC9CC 
 782      8B6BCDEC 
 782      C322FAC9 
 782      CC7E3213 
 783 028b D814DDFA 		.ascii	"\330\024\335\372y\335\351\007\326\264\273P\247\035\303"
 783      79DDE907 
 783      D6B4BB50 
ARM GAS  C:\Users\AMANRA~1\AppData\Local\Temp\ccNdUiqj.s 			page 62


 783      A71DC3
 784 029a EA530850 		.ascii	"\352S\010P?\325\242Yd\011Y\017@\232\220\350\366\354"
 784      3FD5A259 
 784      6409590F 
 784      409A90E8 
 784      F6EC
 785 02ac D0A8843B 		.ascii	"\320\250\204;\020\007Y\360fpI\214\366Wm\235\323\366"
 785      100759F0 
 785      6670498C 
 785      F6576D9D 
 785      D3F6
 786 02be B4FB06DA 		.ascii	"\264\373\006\332J\261\1776\234\036\266\011\364 \241"
 786      4AB17F36 
 786      9C1EB609 
 786      F420A1
 787 02cd E132C824 		.ascii	"\3412\310$\242Sh\300\204\265\177uD/\203\356-\254\366"
 787      A25368C0 
 787      84B57F75 
 787      442F83EE 
 787      2DACF6
 788 02e0 569F84D6 		.ascii	"V\237\204\326\216\276.\005}\334\257\033bC\321a\310\260"
 788      8EBE2E05 
 788      7DDCAF1B 
 788      6243D161 
 788      C8B0
 789 02f2 72A8FCDA 		.ascii	"r\250\374\332\230m\331+\011\206\205\221\022)|\005\315"
 789      986DD92B 
 789      09868591 
 789      12297C05 
 789      CD
 790 0303 BA05A187 		.ascii	"\272\005\241\207\007\337\3243#\016\252\221\022\335-"
 790      07DFD433 
 790      230EAA91 
 790      12DD2D
 791 0312 FC6B26FF 		.ascii	"\374k&\377ll\032\312F:\307\346\355F\324\352\373%T\345"
 791      6C6C1ACA 
 791      463AC7E6 
 791      ED46D4EA 
 791      FB2554E5 
 792 0326 AAE1D861 		.ascii	"\252\341\330a\024/\236\252\367b\365\314\354\234\225"
 792      142F9EAA 
 792      F762F5CC 
 792      EC9C95
 793 0335 E293D845 		.ascii	"\342\223\330E\362\331\206\374\354pM\3603\032\264a.\330"
 793      F2D986FC 
 793      EC704DF0 
 793      331AB461 
 793      2ED8
 794 0347 2F1B7D58 		.ascii	"/\033}X@\267\375B\235&\023\371\021P\211\353,\224E\232"
 794      40B7FD42 
 794      9D2613F9 
 794      115089EB 
 794      2C94459A 
 795 035b 9A4C7455 		.ascii	"\232LtUR\227o\252\342\012\306\215B)\035,\336\216/\332"
 795      52976FAA 
 795      E20AC68D 
 795      42291D2C 
ARM GAS  C:\Users\AMANRA~1\AppData\Local\Temp\ccNdUiqj.s 			page 63


 795      DE8E2FDA 
 796 036f 89B103AC 		.ascii	"\211\261\003\254p\035R\303\374\011}f\346\217\0323#\375"
 796      701D52C3 
 796      FC097D66 
 796      E68F1A33 
 796      23FD
 797 0381 4F217F5D 		.ascii	"O!\177]\021rlI\310\022=\225\003\263\255\025\322!4\222"
 797      11726C49 
 797      C8123D95 
 797      03B3AD15 
 797      D2213492 
 798 0395 8D81A5A1 		.ascii	"\215\201\245\241\320\367\025\235\310\203z\253\216\346"
 798      D0F7159D 
 798      C8837AAB 
 798      8EE6
 799 03a3 FF89C876 		.ascii	"\377\211\310v\3420\276\302\341\206\340\020L\034\354"
 799      E230BEC2 
 799      E186E010 
 799      4C1CEC
 800 03b2 35E96964 		.ascii	"5\351id=3\262:n\354\23007\356S\330\320\021X\307\235"
 800      3D33B23A 
 800      6EEC9830 
 800      37EE53D8 
 800      D01158C7 
 801 03c7 0D6E9A58 		.ascii	"\015n\232X\271i\222\2247\351\005\234\023C\272\334\016"
 801      B9699294 
 801      37E9059C 
 801      1343BADC 
 801      0E
 802 03d8 32B6C3D4 		.ascii	"2\266\303\324\352!\325\177\005\215\301I\324M\264\331"
 802      EA21D57F 
 802      058DC149 
 802      D44DB4D9 
 803 03e8 9666624A 		.ascii	"\226fbJ\314\304ob&\222\007`Z\037\200\033\023\037\214"
 803      CCC46F62 
 803      26920760 
 803      5A1F801B 
 803      131F8C
 804 03fb EC117730 		.ascii	"\354\021w06\217\257\025\013}\212^\011\032\313\356\211"
 804      368FAF15 
 804      0B7D8A5E 
 804      091ACBEE 
 804      89
 805 040c 669446A2 		.ascii	"f\224F\242\317\242\264|\244\345U\374]\004\022\027\363"
 805      CFA2B47C 
 805      A4E555FC 
 805      5D041217 
 805      F3
 806 041d 646465A9 		.ascii	"dde\251\370\347\332\353\311\367\370\002\331\257d\357"
 806      F8E7DAEB 
 806      C9F7F802 
 806      D9AF64EF 
 807 042d 507D01D5 		.ascii	"P}\001\325_\244\006\374.\334u\027\273\013\212\002Y."
 807      5FA406FC 
 807      2EDC7517 
 807      BB0B8A02 
 807      592E
ARM GAS  C:\Users\AMANRA~1\AppData\Local\Temp\ccNdUiqj.s 			page 64


 808 043f A6E84FE0 		.ascii	"\246\350O\340\345\256\242\302\314\177\003y\012\\\357"
 808      E5AEA2C2 
 808      CC7F0379 
 808      0A5CEF
 809 044e BEF78E1B 		.ascii	"\276\367\216\033O\002%\201\254\275\314\234\377v\300"
 809      4F022581 
 809      ACBDCC9C 
 809      FF76C0
 810 045d FD86DFF3 		.ascii	"\375\206\337\363\322\272\000\227\317\353\365\025\250"
 810      D2BA0097 
 810      CFEBF515 
 810      A8
 811 046a 853E7F51 		.ascii	"\205>\177Q@}}WnN\356>\014q\371\374\356\335\305/{\021"
 811      407D7D57 
 811      6E4EEE3E 
 811      0C71F9FC 
 811      EEDDC52F 
 812 0480 9EB311CC 		.ascii	"\236\263\021\314\275\257\210@jNn\336\316<5\007Q\352"
 812      BDAF8840 
 812      6A4E6EDE 
 812      CE3C3507 
 812      51EA
 813 0492 CEA5EBBD 		.ascii	"\316\245\353\275\001O`\367\036\227\013sl\316\315\333"
 813      014F60F7 
 813      1E970B73 
 813      6CCECDDB 
 814 04a2 E5241A85 		.ascii	"\345$\032\205~\317s\316\364\035L\3623\263\327\355\365"
 814      7ECF73CE 
 814      F41D4CF2 
 814      33B3D7ED 
 814      F5
 815 04b3 F94BD83F 		.ascii	"\371K\330?\226\265\250\351"
 815      96B5A8E9 
 816              		.text
 817              		.section	.gnu.lto_chEvtWaitAll.29deb57c,"",%progbits
 818 0000 789C8D54 		.ascii	"x\234\215TmlSe\024~\317}oo\273\266\014\302O\263\220"
 818      6D6C5365 
 818      147ECF7D 
 818      6F6FBBB6 
 818      0CC24FB3 
 819 0015 2E61D966 		.ascii	".a\331ft\227\031\202\361\217\211\331/~,\032\366_\342"
 819      74971982 
 819      F18F89D9 
 819      2F7E2C1A 
 819      F65FE2
 820 0028 6A034DEC 		.ascii	"j\003M\354\272\264u\201_\273\264\205\001Sc\324M\250"
 820      BAB47581 
 820      5FBBB485 
 820      015363D4 
 820      4DA8
 821 003a 752B2861 		.ascii	"u+(a$n\323Y\221\215\262\225M7\206\373b\216\015(n|\004"
 821      246ED359 
 821      918DB295 
 821      4D3786FB 
 821      628E0D28 
 822 0051 B430A7A0 		.ascii	"\2640\247\240f\016\241x\316{\313(e66\355\355\275\357"
 822      660EA178 
ARM GAS  C:\Users\AMANRA~1\AppData\Local\Temp\ccNdUiqj.s 			page 65


 822      CE7BCB28 
 822      653636ED 
 822      EDBDEF
 823 0064 39CF7B9E 		.ascii	"9\317{\236\363<\347\275\012c\354U\205\261\373\370\277"
 823      F33CE7BD 
 823      0A63EC55 
 823      85B1FBF8 
 823      BF
 824 0075 117F6060 		.ascii	"\021\177`` \275?\306\330.\223$\361\266R\246\231\345"
 824      20BD3FC6 
 824      D82E9324 
 824      F1B652A6 
 824      99E5
 825 0087 5FD633CD 		.ascii	"_\3263\315\312A\326\227e\000\272\321L\300\352%.C=\274"
 825      CA41D697 
 825      6500BAD1 
 825      4CC0EA25 
 825      2E433DBC 
 826 009b C33FE270 		.ascii	"\303?\342p.\370e\2307\3620g \343\343\235\321\320\365"
 826      2EF86598 
 826      37F23067 
 826      20E3E39D 
 826      D1D0F5
 827 00ae 7C7A04B0 		.ascii	"|z\004\260\341\343\374\302`\324ZzT\323\374Z\374\343"
 827      E1E3FCC2 
 827      60D45A7A 
 827      54D3FC5A 
 827      FCE3
 828 00c0 AE759F46 		.ascii	"\256u\237F'\264\2740\227X3\246G\241\000\276\206\002"
 828      27B4BC30 
 828      975833A6 
 828      47A100BE 
 828      8602
 829 00d2 2AFE0D94 		.ascii	"*\376\015\224b\362\301\243\017&8\177\026\030\336\017"
 829      62F2C1A3 
 829      0F26387F 
 829      1618DE0F 
 830 00e2 0FCF5A8B 		.ascii	"\017\317Z\213\217\010\334\237\237sm=\202\3408\360L\034"
 830      8F08DC9F 
 830      9F736D3D 
 830      82E038F0 
 830      4C1C
 831 00f4 ED03DF42 		.ascii	"\355\003\337B1\245\217\244\242\343f^.\240\373\347\372"
 831      31A58FA4 
 831      A2E3665E 
 831      2EA0FBE7 
 831      FA
 832 0105 168D459F 		.ascii	"\026\215E\237\011\354\364\3223\207\002\332\031M\016"
 832      09ECF4D2 
 832      338702DA 
 832      194D0E
 833 0114 730E279E 		.ascii	"s\016'\236\304\323\007\323\257}\225jZ\245\310\320\015"
 833      C4D307D3 
 833      AF7D956A 
 833      5AA5C8D0 
 833      0D
 834 0125 45440BD9 		.ascii	"ED\013\331\364\200\002\313\201\240\206\237\370\364="
ARM GAS  C:\Users\AMANRA~1\AppData\Local\Temp\ccNdUiqj.s 			page 66


 834      F48002CB 
 834      81A0869F 
 834      F8F43D
 835 0134 45AC3773 		.ascii	"E\2547s\310\30008\211\2511PXV\372\355\301\227Q\317\030"
 835      C8C03038 
 835      89A93150 
 835      5856FAED 
 835      C19751CF 
 836 0149 E54B143B 		.ascii	"\345K\024;rv\262\317\302_\027\330c\035\207\016X\323"
 836      7276B2CF 
 836      C25F17D8 
 836      631D870E 
 836      58D3
 837 015b F416C325 		.ascii	"\364\026\303%-\201\306w\265\210\177M\030%\355\315AP"
 837      2D81C677 
 837      B5887F4D 
 837      1825EDCD 
 837      4150
 838 016d DF78A105 		.ascii	"\337x\241\005\373\350C\246p\2126\347O\220\211#\231\323"
 838      FBE843A6 
 838      708A36E7 
 838      4F908923 
 838      99D3
 839 017f 48862E80 		.ascii	"H\206.\200}PK\235\223\206\270\226z\330\200\362\257]"
 839      7D504B9D 
 839      9386B896 
 839      7AD880F2 
 839      AF5D
 840 0191 8A25DBD5 		.ascii	"\212%\333\325\325\200\302\031$\272p\272\310t1\320\305"
 840      D580C219 
 840      24BA70BA 
 840      C87431D0 
 840      C5
 841 01a2 C4089007 		.ascii	"\304\010\220\007BS\266\027\245@\277\2658\333\207=\340"
 841      4253B617 
 841      A540BFB5 
 841      38DB873D 
 841      E0
 842 01b3 5D20CE6E 		.ascii	"] \316n\201\277'\031\3524\222\022!n\302\332\315\273"
 842      81BF2719 
 842      EA349212 
 842      216EC2DA 
 842      CDBB
 843 01c5 FBC78D64 		.ascii	"\373\307\215d\267\"z\353\356\236O\030\353\037h&\\\210"
 843      B7227AEB 
 843      EE9E4F18 
 843      EB1F6826 
 843      5C88
 844 01d7 709D7E34 		.ascii	"p\235~4p\347\203\374\010\264@\230\033a\000\307\246\237"
 844      70E783FC 
 844      08B44098 
 844      1B6100C7 
 844      A69F
 845 01e9 5AC3C0F1 		.ascii	"Z\303\300\361\241\313\377\230\324v\352+\322\201Q\023"
 845      A1CBFF98 
 845      D476EA2B 
 845      D2815113 
ARM GAS  C:\Users\AMANRA~1\AppData\Local\Temp\ccNdUiqj.s 			page 67


 846 01f9 7C071168 		.ascii	"|\007\021h\342\351\266\357\315\004vKz\330F\356}\017"
 846      E2E9B6EF 
 846      CD04764B 
 846      7AD846EE 
 846      7D0F
 847 020b 6A13AA8F 		.ascii	"j\023\252\217}\015\202\312n\202?R'\234B\316\310\005"
 847      7D0D82CA 
 847      6E823F52 
 847      279C42CE 
 847      C805
 848 021d 17A415D4 		.ascii	"\027\244\025\324\375$\267\2720\004E\010jHj\247d\352"
 848      FD24B7BA 
 848      30044508 
 848      6A486AA7 
 848      64EA
 849 022f 42061B9C 		.ascii	"B\006\033\234\301\330m\360_[l\352\231\313\036\203\017"
 849      C1D86DF0 
 849      5F5B6CEA 
 849      99CB1E83 
 849      0F
 850 0240 4FAC4B8F 		.ascii	"O\254K\217\201\374\224\3457_@\313\207)f\310\216\375"
 850      81FC94E5 
 850      375F40CB 
 850      872966C8 
 850      8EFD
 851 0252 112EC103 		.ascii	"\021.\301\0031D\266\235}\332\266\037\260\211\021\262"
 851      3144B69D 
 851      7DDAB61F 
 851      B08911B2 
 852 0262 6D846C03 		.ascii	"m\204l\003v\225\252\036n\355\372\333\\x\027Z\265\003"
 852      7695AA1E 
 852      6EEDFADB 
 852      5C78175A 
 852      B503
 853 0274 D87D1E01 		.ascii	"\330}\036\001\332\257\237\324L\262\204\254G\241PH\364"
 853      DAAF9FD4 
 853      4CB284AC 
 853      47A15048 
 853      F4
 854 0285 FBFC5442 		.ascii	"\373\374TB\302\025\030\003Y\360f0.Na[\357\300\015k\341"
 854      C2151803 
 854      59F06630 
 854      2E4E615B 
 854      EFC00D6B 
 855 029a 5F69B499 		.ascii	"_i\264\231r\357vt\235\267\010\364\004\241\341\034\310"
 855      72EF7674 
 855      9DB708F4 
 855      04A1E11C 
 855      C8
 856 02ab 24A24D68 		.ascii	"$\242Mh\300\204\265K\207\177N\200\356-dz\253\317|\254"
 856      C084B54B 
 856      877F4E80 
 856      EE2D647A 
 856      ABCF7CAC 
 857 02bf 7F745041 		.ascii	"\177tPA\037w\351\206XPt\230L[9\325pa\326\262\354\225"
 857      1F77E986 
 857      58507498 
ARM GAS  C:\Users\AMANRA~1\AppData\Local\Temp\ccNdUiqj.s 			page 68


 857      4C5B39D5 
 857      7061D6B2 
 858 02d5 043F0A23 		.ascii	"\004?\012#%Rx\012\315\272\005\201\373{\222\006}k\011"
 858      2552780A 
 858      CDBA0581 
 858      FB7B9206 
 858      7D6B09
 859 02e8 770F6147 		.ascii	"w\017aG7 \230\030\330\270\274\226'\014\331\207\332\264"
 859      37209818 
 859      D8B8BC96 
 859      270CD987 
 859      DAB4
 860 02fa 95EAA316 		.ascii	"\225\352\243\026J\266\374f\246xV\361H5\313Y\336\012"
 860      4AB6FC66 
 860      A67856F1 
 860      4835CB59 
 860      DE0A
 861 030c E745F9F4 		.ascii	"\347E\371\364\374u\374\352\037\223\323cVC\344\246i\220"
 861      FC75FCEA 
 861      1F93D363 
 861      5643E4A6 
 861      6990
 862 031e 64E23603 		.ascii	"d\3426\003*\025\236\207`\344aL\320\313\032\342U\315"
 862      2A159E87 
 862      60E4614C 
 862      D0CB1AE2 
 862      55CD
 863 0330 1CDF9170 		.ascii	"\034\337\221p\001\352)0s1\330\015$H>X\340\"\024\204"
 863      01EA2930 
 863      7331D80D 
 863      24483E58 
 863      E0221484 
 864 0344 F96A4159 		.ascii	"\371jAY\316<\036\307:\315zO\374\177i\366<1\272\364X"
 864      CE3C1EC7 
 864      3ACD7A4F 
 864      FC7F69F6 
 864      3C31BAF4 
 865 0359 AE8490CB 		.ascii	"\256\204\220\313\237\3323\234\226K&\206B\300\203\351"
 865      9FDA339C 
 865      964B2686 
 865      42C083E9 
 866 0369 1503EE8D 		.ascii	"\025\003\356\215\353\2246\265\037V\020(G\245\313\217"
 866      EB9436B5 
 866      1F561028 
 866      47A5CB8F 
 867 0379 2BFD44CD 		.ascii	"+\375D\315\033\304\271\2417J\246\3412\216\341l\3461"
 867      1BC4B9A1 
 867      374AA6E1 
 867      328EE16C 
 867      E631
 868 038b D0DF28E9 		.ascii	"\320\337(\351\321L\265^\355\265<\232\272Y1usb\352\262"
 868      D14CB55E 
 868      EDB53C9A 
 868      BA593175 
 868      7362EAB2 
 869 039f 47EC8A3E 		.ascii	"G\354\212>bW\272\337\273\264M\324`l\001\037\033\277"
 869      6257BADF 
ARM GAS  C:\Users\AMANRA~1\AppData\Local\Temp\ccNdUiqj.s 			page 69


 869      BBB44DD4 
 869      606C011F 
 869      1BBF
 870 03b1 1857F44E 		.ascii	"\030W\364N\204\347{q\274P?\204\025\227\225\251\370\265"
 870      84E77B71 
 870      BC503F84 
 870      159795A9 
 870      F8B5
 871 03c3 6F77563B 		.ascii	"owV;\335\336\362\227\3127\250n\257\352\361\251^\217"
 871      DDDEF297 
 871      CA37A86E 
 871      AFEAF1A9 
 871      5E8F
 872 03d5 1D571D75 		.ascii	"\035W\035u\216\032\237\267\314\316\024\375\216\333}"
 872      8E1A9FB7 
 872      CCCE14FD 
 872      8EDB7D
 873 03e4 B525FF05 		.ascii	"\265%\377\005q\326\330\337z\373M\007F\274;\275e\333"
 873      71D6D8DF 
 873      7AFB4D07 
 873      46BC3BBD 
 873      65DB
 874 03f6 99B1FA0D 		.ascii	"\231\261\372\015\257\3435\217s\323\212\000\273\333\345"
 874      AFE3358F 
 874      73D38A00 
 874      BBDBE5
 875 0405 72D7A8B5 		.ascii	"r\327\250\265n\217\317\253\276\262\245\262\242r\007"
 875      6E8FCFAB 
 875      BEB2A5B2 
 875      A27207
 876 0414 A6D8DD1E 		.ascii	"\246\330\335\036\307\326\272\027]\010\257\310\005s\354"
 876      C7D6BA17 
 876      5D08AFC8 
 876      0573EC
 877 0423 F01148AD 		.ascii	"\360\021H\255\250\254\332\\\245V J\335\374\250\274\313"
 877      A8ACDA5C 
 877      A556204A 
 877      DDFCA8BC 
 877      CB
 878 0434 EBF46EDD 		.ascii	"\353\364n\335f\267\343\036k*\253\266\330\210F\255\307"
 878      66B7E31E 
 878      6B2AABB6 
 878      D88846AD 
 878      C7
 879 0445 F99CAD68 		.ascii	"\371\234\255h\003\223<\314\350r\270\334\236\235\354"
 879      03933CCC 
 879      E872B8DC 
 879      9E9DEC
 880 0454 5F914757 		.ascii	"_\221GW\332"
 880      DA
 881              		.text
 882              		.section	.gnu.lto_chEvtWaitOneTimeout.29deb57c,"",%progbits
 883 0000 789CAD55 		.ascii	"x\234\255UmLSW\030>\357=\267\367\266\245\0246\371\241"
 883      6D4C5357 
 883      183EEF3D 
 883      B7F7B6A5 
 883      1436F9A1 
ARM GAS  C:\Users\AMANRA~1\AppData\Local\Temp\ccNdUiqj.s 			page 70


 884 0014 86282623 		.ascii	"\206(&#\350\262QX\366\021cb\262\220,\361\007\311\242"
 884      E8B25158 
 884      F6116362 
 884      B2902CF1 
 884      07C9A2
 885 0027 BFF6CBCC 		.ascii	"\277\366\313\314\256Q\222\225\222\026\215\376\342Z\024"
 885      AE519295 
 885      92168DFE 
 885      E25A14
 886 0036 F1631F6E 		.ascii	"\361c\037n\212\312*\3249\243.\021\247c~\240BG\025D\005"
 886      8ACA2AD4 
 886      39A32E11 
 886      A7637EA0 
 886      42471544 
 887 004b 51519C30 		.ascii	"QQ\2340@\030*\212\210\272\251\250\224\275\357\275\267"
 887      40182A8A 
 887      88BAA9A8 
 887      94BDEFBD 
 887      B7
 888 005c 505A245B 		.ascii	"PZ$[6BN\316}\317\373\274\3479\317s\336S\2111\266\337"
 888      36424ECE 
 888      7DCFFBBC 
 888      E739CF73 
 888      DE538931 
 889 0072 CC98048C 		.ascii	"\314\230\004\214\345\341\034\314\014\204\257\233\030"
 889      E5E11CCC 
 889      0C84AF9B 
 889      18
 890 007f 5B6D1404 		.ascii	"[m\024\004^\234\306\024\263\221F\013\027\304@&~\031"
 890      5E9CC614 
 890      B391460B 
 890      17C44026 
 890      7E19
 891 0091 9A93F14B 		.ascii	"\232\223\361K\004\223\226d\020\244\275\3230,\367\275"
 891      04939664 
 891      10A4BDD3 
 891      302CF7BD 
 892 00a1 8B61291C 		.ascii	"\213a)\034\226\301\250M\214\341\210\011\200&\212\021"
 892      96C1A84D 
 892      8CE18809 
 892      80268A11 
 893 00b1 5881C045 		.ascii	"X\201\300E\203$c\250\0006\361-\034.\255\371\311\307"
 893      832463A8 
 893      0036F12D 
 893      1C2EADF9 
 893      C9C7
 894 00c3 37721F67 		.ascii	"7r\037g \342\347\303\306\322\036+}\002\244\340g\377"
 894      20E2E7C3 
 894      C6D21E2B 
 894      7D02A4E0 
 894      67FF
 895 00d5 405DA565 		.ascii	"@]\245e\316^E\361*\201m\3253wV6+&\037\027X\011\246W"
 895      CE5E45F1 
 895      2A816DD5 
 895      33775636 
 895      2B261F17 
 896 00ed 4232FC0C 		.ascii	"B2\374\014\311D\374\027\230\203\311;\366\0167s\376&"
ARM GAS  C:\Users\AMANRA~1\AppData\Local\Temp\ccNdUiqj.s 			page 71


 896      C944FC17 
 896      9883C93B 
 896      F60E3773 
 896      FE26
 897 00ff 309C3734 		.ascii	"0\23474tX\322\366\250\270\376=\\y\003Ap\004x$\216\352"
 897      7458D2F6 
 897      A8B8FE3D 
 897      5C790341 
 897      70047824 
 898 0115 C05148C3 		.ascii	"\300QH\303\354\366/\267\364Zy\246\212\034\354{\372\334"
 898      ECF62FB7 
 898      F45A79A6 
 898      8A1CEC7B 
 898      FADC
 899 0127 AA43DBA7 		.ascii	"\252C\333\247\226*\001\321\3079\034\213\306\342\307"
 899      962A01D1 
 899      C7391C8B 
 899      C6E2C7
 900 0136 714823C0 		.ascii	"qH#\300\231\320\321b\221\317U\301\327\312\257\236\265"
 900      99D0D162 
 900      91CF55C1 
 900      D7CAAF9E 
 900      B5
 901 0147 A6EE56C1 		.ascii	"\246\356V\301M\241\031\273\012\225\263\212H{W\215\307"
 901      4DA119BB 
 901      0A95B38A 
 901      487B578D 
 901      C7
 902 0158 D31FA65F 		.ascii	"\323\037\246_\010U^4\363y*tCg\315SY\207\326\205\246"
 902      08555E34 
 902      F3792A74 
 902      4367CD53 
 902      5987D685 
 903 016d 87A1229C 		.ascii	"\207\241\"\234\234\020\332}(\2645^\022\341\024\244\302"
 903      9C10DA7D 
 903      28B4355E 
 903      12E114A4 
 903      C2
 904 017e 09482545 		.ascii	"\011H%EP\210j\220\370\350\342\032\005\377\002\035\305"
 904      50886A90 
 904      F8E8E21A 
 904      05FF021D 
 904      C5
 905 018f C415174A 		.ascii	"\304\025\027J8D\000\031\324\200\004\001\220XT\376\213"
 905      38440019 
 905      D4800401 
 905      905854FE 
 905      8B
 906 01a0 FAF90646 		.ascii	"\372\371\006F\013%\250\017\256\3559w\271&\216/S\261"
 906      0B25A80F 
 906      AEED3977 
 906      B9268E2F 
 906      53B1
 907 01b2 FB2B766D 		.ascii	"\373+vm\267\350\034\353\313f\227\025n\374B\361{\023"
 907      B7E81CEB 
 907      CB669715 
 907      6EFC42F1 
ARM GAS  C:\Users\AMANRA~1\AppData\Local\Temp\ccNdUiqj.s 			page 72


 907      7B13
 908 01c4 7DDC00B5 		.ascii	"}\334\000\265\223\260\324\012\017\224\241\216A\244\012"
 908      93B0D40A 
 908      0F94A18E 
 908      41A40A
 909 01d3 BF52713E 		.ascii	"\277Rq>\216\314i$s\006\311\320\020\205\333\366l\246"
 909      8ECC6924 
 909      7306C9D0 
 909      1085DBF6 
 909      6CA6
 910 01e5 3CE101EA 		.ascii	"<\341\001\352\020S\037{\200\221\372\371\3571Z\320\017"
 910      10531F7B 
 910      8091FAF9 
 910      EF315AD0 
 910      0F
 911 01f6 F0DF4937 		.ascii	"\360\337I7\020\351\263\261\244\317!\201\363D\372|,\351"
 911      10E9B3B1 
 911      A4CF2181 
 911      F344FA7C 
 911      2CE9
 912 0208 8E5790BE 		.ascii	"\216W\220\276\200\230\306W\221n\374\037I_$\322M\261"
 912      8098C657 
 912      916EFC1F 
 912      495F24D2 
 912      4DB1
 913 021a A49B91C0 		.ascii	"\244\233\221\300%\"\215\0036\276\020\276A\007/\033\002"
 913      25228D03 
 913      36BE10BE 
 913      41072F1B 
 913      02
 914 022b 4A68641D 		.ascii	"Jhd\035r\2371|\254\350\376\346\217\246\003\336sI\300"
 914      729F317C 
 914      ACE8FEE6 
 914      8FA603DE 
 914      7349C0
 915 023e 41E63413 		.ascii	"A\3464\023i0\320 \321 \323`d\2045Q3\3053*e\005\352\251"
 915      6930D020 
 915      D120D360 
 915      64843551 
 915      33C5332A 
 916 0256 04359C08 		.ascii	"\0045\234\010\324#S\324y\222:2V\214\367\024\037\003"
 916      D42353D4 
 916      79923A32 
 916      568CF714 
 916      1F03
 917 0268 25C0D6E3 		.ascii	"%\300\326\343IqV\030`w\301[\325w\347\240Lz\225\362x"
 917      49715618 
 917      6077C15B 
 917      D577E7A0 
 917      4C7A95F2 
 918 027d 645BB2B6 		.ascii	"d[\262\266\366\242L\317\200QU\357\370\361\3766\271`"
 918      F6A24CCF 
 918      805155EF 
 918      F8F1FE36 
 918      B960
 919 028f 583162C0 		.ascii	"X1b\300\317\265\003W\026>\374\306\352\2072\360q\023"
 919      CFB50357 
ARM GAS  C:\Users\AMANRA~1\AppData\Local\Temp\ccNdUiqj.s 			page 73


 919      163EFCC6 
 919      EA8732F0 
 919      7113
 920 02a1 5CC1E7E4 		.ascii	"\\\301\347\3442\211\201\013G\352\333_\030m\007H\011"
 920      3289810B 
 920      47EADB5F 
 920      186D0748 
 920      09
 921 02b2 7F05AE9A 		.ascii	"\177\005\256\232\241\005\374\260\225\353B=o-\\+h\313"
 921      A105FCB0 
 921      95EB423D 
 921      6F2D5C2B 
 921      68CB
 922 02c4 29D45E57 		.ascii	")\324^W\301\266\025=\302\346\271\0066v\013\274\376\025"
 922      C1B6153D 
 922      C2E6B906 
 922      36760BBC 
 922      FE15
 923 02d6 C483CE82 		.ascii	"\304\203\316\202\\00\221\037\337M\356\007\264B*\202"
 923      5C303091 
 923      1FDF4DEE 
 923      07B4422A 
 923      82
 924 02e7 D6F529A7 		.ascii	"\326\365)\247D:\205\001R\340:\256\335\003owMIU'D\031"
 924      443A8501 
 924      52E03AAE 
 924      DD036F77 
 924      4D495527 
 925 02fd F6EDB599 		.ascii	"\366\355\265\231\372e\021c\332\361\366;\330\216\277"
 925      FA651163 
 925      DAF1F63B 
 925      D88EBF
 926 030c D19A217A 		.ascii	"\321\232!z-X6\033\037\312V2\372F\254\321mx\210v2\272"
 926      2D58361B 
 926      1FCA5632 
 926      FA46ACD1 
 926      6D788876 
 927 0322 9D8C06DC 		.ascii	"\235\214\006\334\034W\277/?\374\314<\353%\224+\333\361"
 927      1C57BF2F 
 927      3FFCCC3C 
 927      EB25942B 
 927      DBF1
 928 0334 F4710438 		.ascii	"\364q\0048\320sB1\212\002\262\376\035f\251\022\015\366"
 928      D0734231 
 928      8A02B2FE 
 928      1D66A912 
 928      0DF6
 929 0346 B7B40918 		.ascii	"\267\264\011\030\201\016\020U\336\014:\325\327y_u\260"
 929      810E1055 
 929      DE0C3AD5 
 929      D7795F75 
 929      B0
 930 0357 D7326B44 		.ascii	"\3272kDG[(\367Q\305\341\253q*\272\213\320p\023D\022"
 930      475B28F7 
 930      51C5E1AB 
 930      712ABA8B 
 930      D0701344 
ARM GAS  C:\Users\AMANRA~1\AppData\Local\Temp\ccNdUiqj.s 			page 74


 931 036c 3145D580 		.ascii	"1E\325\200\251\326\016y_\\\001\315[\210\364VT\275=Y"
 931      A9D60E79 
 931      5F5C01CD 
 931      5B88F456 
 931      54BD3D59 
 932 0380 DB5827A1 		.ascii	"\333X'\241\217\2535C\342Qt\350\326\255lYw\275#n\324"
 932      8FAB3543 
 932      E25174E8 
 932      D6AD6C59 
 932      77BD236E 
 933 0395 2B017A54 		.ascii	"+\001zT#\005R\370\0174\353.\024\276,\372D\253\234\200"
 933      230552F8 
 933      0F34EB2E 
 933      14BE2CFA 
 933      44AB9C80 
 934 03a9 C54BB955 		.ascii	"\305K\271U\335[\365\357\004\371\227\300za\315\215\340"
 934      DD5BF5EF 
 934      04F997C0 
 934      7A61CD8D 
 934      E0
 935 03ba 40C8A267 		.ascii	"@\310\242gE\356/\240*\275\272c\353Q\274\3424\274\213"
 935      45EE2FA0 
 935      2ABDBA63 
 935      EB51BCE2 
 935      34BC8B
 936 03cd 6AFE9350 		.ascii	"j\376\223P\206\226\237\030\231\217\267\004n\215\346"
 936      86969F18 
 936      998FB704 
 936      6E8DE6
 937 03dc 8BAC6B2A 		.ascii	"\213\254k*\346\323\375\240^\213L4`\342\355H\273\265"
 937      E6D3FDA0 
 937      5E8B4C34 
 937      60E2ED48 
 937      BBB5
 938 03ee 5ED32D08 		.ascii	"^\323-\010\225\337\254\216\013\253{[U\367\216\252n\264"
 938      95DFAC8E 
 938      0BAB7B5B 
 938      55F78EAA 
 938      6EB4
 939 0400 947D9A94 		.ascii	"\224}\232\224]\273\276\272\261T\335C\333\330\300\366"
 939      5DBBBEBA 
 939      B154DD43 
 939      DBD8C0F6 
 940 0410 59B5A629 		.ascii	"Y\265\246)\035\252\015\265\011\3044JG\377\0226\251\222"
 940      1DAA0DB5 
 940      09C4344A 
 940      47FF1236 
 940      A992
 941 0422 56B8AB2A 		.ascii	"V\270\253*\251\267R\305}o\223\250wL.\351r\217zB$\231"
 941      A9B752C5 
 941      7D6F93A8 
 941      774C2EE9 
 941      728F7A42 
 942 0438 FBC146AA 		.ascii	"\373\301F\252\366\303Z\377\203\232i\232(\302\370\216"
 942      F6C35AFF 
 942      839A699A 
 942      28C2F88E 
ARM GAS  C:\Users\AMANRA~1\AppData\Local\Temp\ccNdUiqj.s 			page 75


 943 0448 4C28E112 		.ascii	"L(\341\022f\336\207\002\2525<\330<l!\021\022\301\014"
 943      66DE8702 
 943      AA353CD8 
 943      3C6C2111 
 943      12C10C
 944 045b 03908C1A 		.ascii	"\003\220\214\032\372\370k$kS\3604\214\025\030\025\353"
 944      FAF86B24 
 944      6B53F034 
 944      8C151815 
 944      EB
 945 046c 7514E6C1 		.ascii	"u\024\346\301\250\252\022\273$\206U\305g7J\306\363\223"
 945      A8AA12BB 
 945      248655C5 
 945      67374AC6 
 945      F393
 946 047e CB3838A1 		.ascii	"\31388\241\214\017\307\311\330\020\226Qf\255&\375\355"
 946      8C0FC7C9 
 946      D8109651 
 946      66AD26FD 
 946      ED
 947 048f 19EA1EE9 		.ascii	"\031\352\036\351\321\251\361\177y#\037\215\335\310\307"
 947      D1A9F17F 
 947      79231F8D 
 947      DDC8C7
 948 049e E11BB94A 		.ascii	"\341\033\271J+5\005\253\305\336\310)\352\346F\326\231"
 948      2B3505AB 
 948      C5DEC829 
 948      EAE646D6 
 948      99
 949 04af 113EA61A 		.ascii	"\021>\246\0326\022\221\353E;7\327\011\032Z\324bXNg\226"
 949      361291EB 
 949      453B37D7 
 949      091A5AD4 
 949      62584E67 
 950 04c4 A4C7C697 		.ascii	"\244\307\306\227K\322\036\317\015\207~\320\323\014\377"
 950      4BD21ECF 
 950      0D877ED0 
 950      D30CFF
 951 04d3 E8006F13 		.ascii	"\350\000o\023\367?\307\270\377\245r\367\206\212\032"
 951      F73FC7B8 
 951      FFA572F7 
 951      868A1A
 952 04e2 0C5A1949 		.ascii	"\014Z\031I+\215\333\357\320#2\326\3068\245\265l\200"
 952      2B8DDBEF 
 952      D02332D6 
 952      C638A5B5 
 952      6C80
 953 04f4 092EDD24 		.ascii	"\011.\335$;=\031\333\351)](Y;y0\306\3403\223\033\374"
 953      3B3D19DB 
 953      E9295D28 
 953      593B7930 
 953      C6E03393 
 954 050a 6C428387 		.ascii	"lB\203\207\306\031\034T\015~\002F\354v\241\243+dF\315"
 954      C6191C54 
 954      0D7E0246 
 954      EC76A1A3 
 954      2B6446CD 
ARM GAS  C:\Users\AMANRA~1\AppData\Local\Temp\ccNdUiqj.s 			page 76


 955 051e E5E723F3 		.ascii	"\345\347#\363Pu\223\376{3\200\233\227\342\027\245\231"
 955      507593FE 
 955      7B33809B 
 955      97E217A5 
 955      99
 956 052f E809104B 		.ascii	"\350\011\020KC\217\201&\322\217#\350Y\222\261j\367\246"
 956      438F8126 
 956      D28F23E8 
 956      5992B16A 
 956      F7A6
 957 0541 E9F85305 		.ascii	"\351\370S\005\004\300\215\322\322\323m\370o_\226\263"
 957      04C08DD2 
 957      D2D36DF8 
 957      6F5F96B3 
 958 0551 24C7E5C9 		.ascii	"$\307\345\311\234\233\231asyl\356|\233\307m\307\250"
 958      9C9B9961 
 958      73796CEE 
 958      7C9BC76D 
 958      C7A8
 959 0563 63852337 		.ascii	"c\205#7\337\223ng\2226\223\363s\234\016\327\362|pr{"
 959      DF936E67 
 959      923693F3 
 959      739C0ED7 
 959      F27C7072 
 960 0578 7EDEEC57 		.ascii	"~\336\354W\201sr\355\237/\377\314\201+\236U\236\364"
 960      817372ED 
 960      9F2FFFCC 
 960      812B9E55 
 960      9EF4
 961 058a 654C5EF2 		.ascii	"eL^\362\251\307\361\261;\347\375\011\001v\227\323\351"
 961      A9C7F1B1 
 961      3BE7FD09 
 961      017697D3 
 961      E9
 962 059b CAB5E5B9 		.ascii	"\312\265\345\271\334\371\036\333\207\013\263\263\262"
 962      DCF91EDB 
 962      870BB3B3 
 962      B2
 963 05a8 57628ADD 		.ascii	"Wb\212\335\345v,^\361\201\023\341Y\223\301\034+\363"
 963      E5762C5E 
 963      F18113E1 
 963      5993C11C 
 963      2BF3
 964 05ba 0964CBCA 		.ascii	"\011d\313\312^\264`\221-\013Q\266\005\341\355\235\236"
 964      5EB46091 
 964      2D0B51B6 
 964      05E1ED9D 
 964      9E
 965 05cb 1CCFE2A5 		.ascii	"\034\317\342\245v;\326H\314^\2640\205h\344\271s\336"
 965      763BD648 
 965      CC5EB430 
 965      8568E4B9 
 965      73DE
 966 05dd 4A49CD60 		.ascii	"JI\315`\202\233\311N\207\323\345^\305\376\006\304m\300"
 966      829BC94E 
 966      87D3E55E 
 966      C5FE06C4 
ARM GAS  C:\Users\AMANRA~1\AppData\Local\Temp\ccNdUiqj.s 			page 77


 966      6DC0
 967 05ef C9       		.ascii	"\311"
 968              		.text
 969              		.section	.gnu.lto_chEvtWaitAnyTimeout.29deb57c,"",%progbits
 970 0000 789CAD55 		.ascii	"x\234\255UmLSW\030>\357=\267\367\226R\252#\373\341\014"
 970      6D4C5357 
 970      183EEF3D 
 970      B7F79652 
 970      AA23FBE1 
 971 0015 59D08DA0 		.ascii	"Y\320\215\240\373\240\262\354#f\211\331\302/\177\220"
 971      FBA0B2EC 
 971      236689D9 
 971      C22F7F90 
 972 0025 2CFA6BBF 		.ascii	",\372k\277\314\354\032m\262R\326V\243\277\270\266~ "
 972      CCEC1A6D 
 972      B252D656 
 972      A3BFB8B6 
 972      7E20
 973 0037 D4CD6D8A 		.ascii	"\324\315m\212\312\030T\235\321\375\020\2072\234\242"
 973      CA18549D 
 973      D1FD1087 
 973      329CA2
 974 0046 D2510551 		.ascii	"\322Q\005QAp(\016\031(\014\031\212\014\235SA\301\275"
 974      4170280E 
 974      19280C19 
 974      8A0C9D53 
 974      41C1BD
 975 0059 EFBDB77C 		.ascii	"\357\275\267|\264\330l\331\01099\367=\357s\316\363>"
 975      B4D86CD9 
 975      083939F7 
 975      3DEF73CE 
 975      F33E
 976 006b CF794F25 		.ascii	"\317yO%\306X\216\2111\011\030\313\3059\230\030\010["
 976      C6588E89 
 976      310918CB 
 976      C5399818 
 976      085B
 977 007d 9B185B67 		.ascii	"\233\030[g\024\004\236\237\316\024\223\221F3\027\304"
 977      14049E9F 
 977      CE149391 
 977      463317C4 
 978 008d 50267E19 		.ascii	"P&~\031\232S\360K\204\004-\311 H\373_\300\260\334\377"
 978      9A53F04B 
 978      84042DC9 
 978      2048FB5F 
 978      C0B0DCFF 
 979 00a1 2686A548 		.ascii	"&\206\245HX\006\24361F\"\011\0004Q\214\300\362\004."
 979      5806A336 
 979      31462209 
 979      0034518C 
 979      C0F2042E 
 980 00b5 1A241943 		.ascii	"\032$\031Cy\020\340\3338\264\254\377\276\204\027\362"
 980      7910E0DB 
 980      38B4ACFF 
 980      BE8417F2 
 981 00c5 12CE40C4 		.ascii	"\022\316@\304\317\273\215\305=\026\372\004H\305\317"
 981      CFBB8DC5 
ARM GAS  C:\Users\AMANRA~1\AppData\Local\Temp\ccNdUiqj.s 			page 78


 981      3D16FA04 
 981      48C5CF
 982 00d4 81C1BA4A 		.ascii	"\201\301\272J\363\374\375\212\342SB;\356\317m\011o,"
 982      F3FCFD8A 
 982      E253423B 
 982      EECF6D09 
 982      6F2C
 983 00e6 D80A255C 		.ascii	"\330\012%\\`E\230_\011)p\004R\210\371\0170\037\263w"
 983      6045985F 
 983      09297004 
 983      5288F90F 
 983      301FB377 
 984 00fa ED1F6DE6 		.ascii	"\355\037m\346\374\025`8oh\3504\247\357S\201\003\373"
 984      FC156038 
 984      6F68E834 
 984      A7EF5381 
 984      03FB
 985 010c B8F23282 		.ascii	"\270\3622\202\240\012\370d\034\355\003G!\035\263;>\333"
 985      A00AF864 
 985      1CED0347 
 985      211DB33B 
 985      3EDB
 986 011e D66BE199 		.ascii	"\326k\341\231*r\250\377\341\210E\207v\314*VBb\011\347"
 986      2A72A8FF 
 986      E1884587 
 986      76CC2A56 
 986      426209E7 
 987 0132 F0633416 		.ascii	"\360c4\026?\216A:\001\316\214\035\315\027\371B\025|"
 987      3F8E413A 
 987      01CE8C1D 
 987      CD17F942 
 987      157C
 988 0144 A5ECF259 		.ascii	"\245\354\362YK\332^\025|\263\220\227U*\312\346\367\350"
 988      4BDA5E15 
 988      7CB39097 
 988      552ACAE6 
 988      F7E8
 989 0156 ECE353F1 		.ascii	"\354\343S\361\364\207\351\027\306*/\232\370\273*\264"
 989      F487E917 
 989      C62A2F9A 
 989      F8BB2AB4 
 990 0166 A0ABE6A1 		.ascii	"\240\253\346\241\254C;\013\3717:T\204\023\323B\273+"
 990      AC433B0B 
 990      F9373A54 
 990      8413D342 
 990      BB2B
 991 0178 C6B62749 		.ascii	"\306\266'I\"\234\2044\250\2064R\004\2058\005\022\037"
 991      229C8434 
 991      A8863452 
 991      04853805 
 991      121F
 992 018a 5F5CAFE0 		.ascii	"_\\\257\340_hp\013q\305\205\"\016\223\200\014j@\202"
 992      5F68700B 
 992      71C58522 
 992      0E93800C 
 992      6A4082
 993 019d 10482C2A 		.ascii	"\020H,*\377q\375\"\003\243\205\"\324\007\327\366\235"
ARM GAS  C:\Users\AMANRA~1\AppData\Local\Temp\ccNdUiqj.s 			page 79


 993      FF71FD22 
 993      03A38522 
 993      D407D7F6 
 993      9D
 994 01ae BB5493C8 		.ascii	"\273T\223\310W\252\330\357\312w\3574\353\034\353K\347"
 994      57AAD8EF 
 994      CA77EF34 
 994      EB1CEB4B 
 994      E7
 995 01bf 95FA0BB7 		.ascii	"\225\372\013\267(A\337\314\022n\200\3328,u\"\245\250"
 995      2841DFCC 
 995      126E80DA 
 995      382C7522 
 995      A5A8
 996 01d1 6318A9C2 		.ascii	"c\030\251\302O\2649\237B\3464\2229\203dh\210\302\355"
 996      4FB4399F 
 996      42E63492 
 996      39836468 
 996      88C2ED
 997 01e4 287DE9D3 		.ascii	"(}\351\323i\013\250CL}l\001O\353\027\275\305hA/\340"
 997      690BA843 
 997      4C7D6C01 
 997      4FEB17BD 
 997      C568412F 
 998 01f9 BF936E20 		.ascii	"\277\223n \322gcI\237C\002\347\211\364\371X\322\333"
 998      D2676349 
 998      9F4302E7 
 998      89F4F958 
 998      D2DB
 999 020b 9E41FA02 		.ascii	"\236A\372\002b\032\237E\272\361\177$}\221H7\305\222"
 999      621A9F45 
 999      BAF17F24 
 999      7D914837 
 999      C592
 1000 021d 6E46022D 		.ascii	"nF\002-D\032\007\354|!r\203\016]2\204\224\261\247\233"
 1000      441A07EC 
 1000      7C217283 
 1000      0E5D3284 
 1000      94B1A79B 
 1001 0231 90FBF385 		.ascii	"\220\373\363\205\376\276\346\226\036\343,\300\213.\011"
 1001      FEBEE696 
 1001      1EE32CC0 
 1001      8B2E09
 1002 0240 38C89C66 		.ascii	"8\310\234f\"\015\006\032$\032dF8#5\222\231\3216I@\375"
 1002      220D061A 
 1002      241A6446 
 1002      38233592 
 1002      99D13649 
 1003 0256 6451C333 		.ascii	"dQ\3033\200\372#Y\2353\226\217\267\023\337\000%\304"
 1003      80FA2359 
 1003      9D33968F 
 1003      B713DF00 
 1003      25C4
 1004 0268 36637D38 		.ascii	"6c}8\363\207\330-\360\035\357\257\256\360\222J\305\334"
 1004      F387D82D 
 1004      F01DEFAF 
 1004      AEF0924A 
ARM GAS  C:\Users\AMANRA~1\AppData\Local\Temp\ccNdUiqj.s 			page 80


 1004      C5DC
 1005 027a 8C1C8B36 		.ascii	"\214\034\2136\324^\224\251\373\215\252f\307\216\015"
 1005      D45E94A9 
 1005      FB8DAA66 
 1005      C78E0D
 1006 0289 5C93F346 		.ascii	"\\\223\363F\025#\006\202\\+\263\322\177\367KK\020J\361"
 1006      15230682 
 1006      5C2BB3D2 
 1006      7FF74B4B 
 1006      104AF1
 1007 029c 1548809F 		.ascii	"\025H\200\237\361\025\271D\022\340BU}\307c\243\365 "
 1007      F115B944 
 1007      12E04255 
 1007      7DC763A3 
 1007      F520
 1008 02ae D51F2CC7 		.ascii	"\325\037,\307U\023\264B\020\266s]\236\2216\377\006A"
 1008      5513B442 
 1008      10B6735D 
 1008      9E9136FF 
 1008      0641
 1009 02c0 5B4EA5A6 		.ascii	"[N\245\246\272\014\326\355\350\014\266\314\025\260\262"
 1009      BA0CD6ED 
 1009      E80CB6CC 
 1009      15B0B2
 1010 02cf 9BE00BAE 		.ascii	"\233\340\013\256&\036T\005r\301\300t.|\035\337\005h"
 1010      261E5405 
 1010      72C1C074 
 1010      2E7C1DDF 
 1010      0568
 1011 02e1 8334046D 		.ascii	"\2034\004m\352WN\212T\205\001R\341*\256\335\006_wM\321"
 1011      EA574E8A 
 1011      54850152 
 1011      E12AAEDD 
 1011      065F774D 
 1012 02f6 F12E88B2 		.ascii	"\361.\210\262\351\253'sA\277#bL\027\366\275\201]\370"
 1012      E9AB2773 
 1012      41BF2362 
 1012      4C17F6BD 
 1012      815DF8
 1013 0309 0BAD19A2 		.ascii	"\013\255\031\242\327\302\245\363\360\201l#\177\333c"
 1013      D7C2A5F3 
 1013      F0816C23 
 1013      7FDB63
 1014 0318 FDBD8655 		.ascii	"\375\275\206Ut\220\277\035\344/\340\351\270\272\247"
 1014      7490BF1D 
 1014      E42FE0E9 
 1014      B8BAA7
 1015 0327 ECF023D3 		.ascii	"\354\360#\323\234'P\246\354\304\362\023\011p\260\247"
 1015      9C2750A6 
 1015      ECC4F213 
 1015      0970B0A7 
 1016 0337 5A318A02 		.ascii	"Z1\212\002\322\376\025\346\250\032\015\015\264^\023"
 1016      D2FE15E6 
 1016      A81A0D0D 
 1016      B45E13
 1017 0346 30029D20 		.ascii	"0\002\235 \252\304\031t\251\257\362\201S\341^\363\234"
 1017      AAC41974 
ARM GAS  C:\Users\AMANRA~1\AppData\Local\Temp\ccNdUiqj.s 			page 81


 1017      A9AFF281 
 1017      53E15EF3 
 1017      9C
 1018 0357 A73ADA4C 		.ascii	"\247:\332L\271\367\312\017_NT\321\327\011\0157@$\025"
 1018      B9F7CA0F 
 1018      5F4E54D1 
 1018      D7090D37 
 1018      402415
 1019 036a 53551198 		.ascii	"SU\021\230\352\355p\367\241\300l\315\\\230l\256\250"
 1019      EAED70F7 
 1019      A1C06CCD 
 1019      5C986CAE 
 1019      A8
 1020 037b 9A7BA2B6 		.ascii	"\232{\242\266\261NB#\327i\216$\241\352\320\255{\331"
 1020      B14E4223 
 1020      D7698E24 
 1020      A1EAD0AD 
 1020      7BD9
 1021 038d BAE96A67 		.ascii	"\272\351jg\342\270Y\002\364\250N\012$\361o\350\326-"
 1021      E2B85902 
 1021      F4A84E0A 
 1021      24F16FE8 
 1021      D62D
 1022 039f F03FD9F8 		.ascii	"\360?\331\370\241\266\263\0057/\346I\352\331\252\201"
 1022      A1B6B305 
 1022      372FE649 
 1022      EAD9AA81 
 1023 03af D564A085 		.ascii	"\325d\240\205\365\302\372\366p] \014z\332d\002\002\312"
 1023      F5C2FAF6 
 1023      705D200C 
 1023      7ADA6402 
 1023      02CA
 1024 03c1 D2AB7BB6 		.ascii	"\322\253{\266\031\325\313O\307\333\250\002\232\002~"
 1024      19D5CB4F 
 1024      C7DBA802 
 1024      9A027E
 1025 03d0 4903CC98 		.ascii	"I\003\314\230\014\300\213\0027\307\001\"\273>\013\001"
 1025      0CC08B02 
 1025      37C70122 
 1025      BB3E0B01 
 1026 03e0 7445A8C9 		.ascii	"tE\250\311&'\0320\261o\262\343Z\223\351&\214\225\335"
 1026      26271A30 
 1026      B16FB2E3 
 1026      5A93E926 
 1026      8C95DD
 1027 03f3 389518D1 		.ascii	"8\225\030\321\267O\325\367wU\337h1\37351\257\357\376"
 1027      B74FD5F7 
 1027      7755DF68 
 1027      31FB3531 
 1027      AFEFFE
 1028 0406 BC7D857A 		.ascii	"\274}\205z\206v\260\201\035\260h}S<\274\347H\340Ub\032"
 1028      8676B081 
 1028      1DB0687D 
 1028      533CBCE7 
 1028      48E05562 
 1029 041b A5647039 		.ascii	"\245dp9\213\253\245\005n\251Z\352\335T~\307\327$\352"
 1029      8BABA505 
ARM GAS  C:\Users\AMANRA~1\AppData\Local\Temp\ccNdUiqj.s 			page 82


 1029      6EA95AEA 
 1029      DD547EC7 
 1029      D724EA
 1030 042e 4D9343C2 		.ascii	"M\223C\302\334\246\266\020I\350\001\260\222\256\003"
 1030      DCA6B610 
 1030      49E801B0 
 1030      92AE03
 1031 043d B021585D 		.ascii	"\260!X]\367\005\327T\021\246v\345\214\".a\352\035\310"
 1031      F705D754 
 1031      11A676E5 
 1031      8C222E61 
 1031      EA1DC8
 1032 0450 A3CD4687 		.ascii	"\243\315F\207\232G\315\244\302L0\301 \244\240\210%\374"
 1032      9A47CDA4 
 1032      C24C30C1 
 1032      20A4A088 
 1032      25FC
 1033 0462 3912B629 		.ascii	"9\022\266)|\032&6\030W+\031\225\371c\\V\211\265\210"
 1033      7C1A2636 
 1033      18572B19 
 1033      95F9635C 
 1033      5689B588 
 1034 0476 1159F1C1 		.ascii	"\021Y\361\301\215\322\361||\035\207\246\325\361\356"
 1034      8DD2F17C 
 1034      7C1D87A6 
 1034      D5F1EE
 1035 0485 141D1B22 		.ascii	"\024\035\033\":\312\254-A\177\177\206k\253\002)\032"
 1035      3ACAAC2D 
 1035      417F7F86 
 1035      6BAB0229 
 1035      1A
 1036 0496 35FE2F2F 		.ascii	"5\376//\345\275\211K\371g\344R\256\325\266J\306\335"
 1036      E5BD894B 
 1036      F967E452 
 1036      AED5B64A 
 1036      C6DD
 1037 04a8 622F65B2 		.ascii	"b/e\262z\270\221u-\210\224\251\206e\355!\354\250\370"
 1037      7AB89175 
 1037      2D8894A9 
 1037      8665ED21 
 1037      ECA8F8
 1038 04bb 56D748FC 		.ascii	"V\327H\374GD^'\016\367'8\374\245r\360\215ml0h\333\030"
 1038      47445E27 
 1038      0EF72738 
 1038      FCA572F0 
 1038      8D6D6C30 
 1039 04d2 B4AD91D5 		.ascii	"\264\255\221\325.=B{c\234\322Z\013`\232\333\023\347"
 1039      2E3D427B 
 1039      639CD25A 
 1039      0B609ADB 
 1039      13E7
 1040 04e4 A4071327 		.ascii	"\244\007\023'=\244\233!i\025\204c\214:\023\337\250G"
 1040      3DA49B21 
 1040      69158463 
 1040      8C3A13DF 
 1040      A847
 1041 04f6 D31A353C 		.ascii	"\323\0325<\305\250\260j\324\003\220\261o\205\316G\205"
ARM GAS  C:\Users\AMANRA~1\AppData\Local\Temp\ccNdUiqj.s 			page 83


 1041      C5A8B06A 
 1041      D40390B1 
 1041      6F85CE47 
 1041      85
 1042 0507 7BB1C393 		.ascii	"{\261\303\223\345\366\252\200\214\372%\350\277\036\203"
 1042      E5F6AA80 
 1042      8CFA25E8 
 1042      BF1E83
 1043 0516 787C31AA 		.ascii	"x|1\252I\211Fjgq\344p\340E\232H\005Uf\254\3358r40\033"
 1043      4989466A 
 1043      6771E470 
 1043      E0459A48 
 1043      055566AC 
 1044 0530 7F788000 		.ascii	"\177x\200\000xTzF\206\025\377m+\035\313\035.O\346\302"
 1044      78547A46 
 1044      8615FF6D 
 1044      2B1DCB1D 
 1044      2E4FE6C2 
 1045 0544 CC055697 		.ascii	"\314\005V\227\307\352\366Z=n\033F\355\253\3559^O\206"
 1045      C7EAF65A 
 1045      3D6E1B46 
 1045      EDABED39 
 1045      5E4F86
 1046 0557 8D49DA4C 		.ascii	"\215I\332L\366:\234v\327*/8\271\315\233;\357Y`G\216"
 1046      F63A9C76 
 1046      D72A2F38 
 1046      B9CD9B3B 
 1046      EF596047 
 1047 056c ED93551F 		.ascii	"\355\223U\037\333q\305\263\326\223\261\222\311\313?"
 1047      DB71C5B3 
 1047      D693B192 
 1047      C9CB3F
 1048 057b F2D83F70 		.ascii	"\362\330?p;\336\236\026`s9\235\256\034k\256\313\355"
 1048      3BDE9E16 
 1048      6073399D 
 1048      AE1C6BAE 
 1048      CBED
 1049 058d F558DF5F 		.ascii	"\365X\337_\222\235\225\275\006Sl.\267}\331\352w\234"
 1049      929D95BD 
 1049      06536C2E 
 1049      B77DD9EA 
 1049      779C
 1050 059f 08CF8A07 		.ascii	"\010\317\212\007\263\257\361\022\310\232\225\275t\361"
 1050      B3AFF112 
 1050      C89A95BD 
 1050      74F1
 1051 05ad 526B16A2 		.ascii	"Rk\026\242\254\213#\307;=\016\317\262\0256\033\3561"
 1051      AC8B23C7 
 1051      3B3D0ECF 
 1051      B215361B 
 1051      EE31
 1052 05bf 337BE992 		.ascii	"3{\351\222T\242\221\353v\274\226\232\266\200\011n&;"
 1052      54A291EB 
 1052      76BC969A 
 1052      B680096E 
 1052      263B
 1053 05d1 ED4E977B 		.ascii	"\355N\227{-\373\033~\006\256\313"
ARM GAS  C:\Users\AMANRA~1\AppData\Local\Temp\ccNdUiqj.s 			page 84


 1053      2DFB1B7E 
 1053      06AECB
 1054              		.text
 1055              		.section	.gnu.lto_chEvtWaitAllTimeout.29deb57c,"",%progbits
 1056 0000 789CAD54 		.ascii	"x\234\255T\355oSe\024\177\316}n\357-k7\221D\243\270"
 1056      ED6F5365 
 1056      147FCE7D 
 1056      6EEF2D6B 
 1056      379144A3 
 1057 0015 0F25710C 		.ascii	"\017%q\014|Y\231\240\206/D\263O|Xb\340\017 R\013\324"
 1057      7C5999A0 
 1057      862F44B3 
 1057      4F7C5862 
 1057      E00F2052 
 1058 002b D815DB42 		.ascii	"\330\025\333B\340\323.\355\000\007\023Q\241l\265@\325"
 1058      E0D32EED 
 1058      00071351 
 1058      A16CB540 
 1058      D5
 1059 003c 103486A9 		.ascii	"\0204\206\251c\202\033oe\305\275\3602\006\216\267m\014"
 1059      63821B6F 
 1059      65C5BDF0 
 1059      32068EB7 
 1059      6D0C
 1060 004e D8D866B7 		.ascii	"\330\330f\2671`\250sS\246\347\334{;\272v4&\33247\317"
 1060      3160A873 
 1060      53A6E7DC 
 1060      7B3BBA76 
 1060      3426DA34 
 1061 0064 7DCEF93D 		.ascii	"}\316\371=\317\357\374~\347\\\2111\366\3564\306D`l\005"
 1061      CFEFFC7E 
 1061      E75C8931 
 1061      F6EE34C6 
 1061      44606C05 
 1062 0078 AE611A03 		.ascii	"\256a\032\003a{3c\033\214\202\300\033\3473%Cn\234\311"
 1062      617B3363 
 1062      1B8C82C0 
 1062      1BE73325 
 1062      436E9CC9 
 1063 008c 143317C4 		.ascii	"\0243\027\304H>\276\031Z\262\361M\004\243\226d\020\244"
 1063      483EBE19 
 1063      5AB2F14D 
 1063      04A39664 
 1063      10A4
 1064 009e FDCF5252 		.ascii	"\375\317RRl\001nK\361m9\2760\002\320B1\002+\026\270"
 1064      6C016E4B 
 1064      F16D39BE 
 1064      3002D042 
 1064      31022B16 
 1065 00b3 68906423 		.ascii	"h\220d#\024C\031\337\301\341B\311w!\276\225\2078\003"
 1065      144319DF 
 1065      C1E142C9 
 1065      7721BE95 
 1065      873803
 1066 00c6 115FEF9F 		.ascii	"\021_\357\237\013vg\321+\200\005_\007\207\352\253\315"
 1066      0B7667D1 
 1066      2B80055F 
ARM GAS  C:\Users\AMANRA~1\AppData\Local\Temp\ccNdUiqj.s 			page 85


 1066      0787EAAB 
 1066      CD
 1067 00d7 73F72B8A 		.ascii	"s\367+\212O\211\354\012\314\276\020\335\264e;\204\270"
 1067      4F89EC0A 
 1067      CCBE10DD 
 1067      B4653B84 
 1067      B8
 1068 00e8 C002985F 		.ascii	"\300\002\230_\015\331p\020\262\211\357\0170\027\263"
 1068      0DD97010 
 1068      B289EF0F 
 1068      3017B3
 1069 00f7 2BF63F6C 		.ascii	"+\366?l\341\374\005`\270nj\3524\347\356S\201\203\373"
 1069      E1FC0560 
 1069      B86E6AEA 
 1069      34E7EE53 
 1069      8183FB
 1070 010a B8F23C82 		.ascii	"\270\362<\202\340\020\360D\034\235\003\207!\027\263"
 1070      E010F044 
 1070      1C9D0387 
 1070      2117B3
 1071 0119 3BB6EDE8 		.ascii	";\266\355\350\311\342\371*\362^ld,K\207v<\023T\"b\210"
 1071      C9E2F92A 
 1071      F25E6C64 
 1071      2C4B8776 
 1071      3C135422 
 1072 012f 73F83119 		.ascii	"s\3701\031\213/5\220K\200\263\343\325\3473\370B\025"
 1072      8B2F3590 
 1072      4B80B3E3 
 1072      D5E733F8 
 1072      4215
 1073 0141 BCE5C689 		.ascii	"\274\345\306\211\0219\347K\025\334[\316wW+J\351\033"
 1073      1139E74B 
 1073      15DC5BCE 
 1073      77572B4A 
 1073      E91B
 1074 0153 212E42ED 		.ascii	"!.B\355d<\3750\275\353\373\361\235\231\222\010G \207"
 1074      643CFD30 
 1074      BDEBFBF1 
 1074      9D999208 
 1074      472087
 1075 0166 4AC24A8E 		.ascii	"J\302J\216\202\304'\002%\012\376\"\235A\272\014\003"
 1075      82C42702 
 1075      250AFE22 
 1075      9D41BA0C 
 1075      03
 1076 0177 010E0920 		.ascii	"\001\016\011 \006\307@\202\343 \261\244\374\201\206"
 1076      06C74082 
 1076      E320B1A4 
 1076      FC8186
 1077 0186 45064681 		.ascii	"E\006F\201\000\026\210\261}\247/\2360\361\025*\366\353"
 1077      001688B1 
 1077      7DA72F9E 
 1077      30F1152A 
 1077      F6EB
 1078 0198 CACFCBCD 		.ascii	"\312\317\313\315:\277\221\335s\366\370\267~\250\204"
 1078      3ABF91DD 
 1078      73F6F8B7 
ARM GAS  C:\Users\AMANRA~1\AppData\Local\Temp\ccNdUiqj.s 			page 86


 1078      7EA884
 1079 01a7 7DD343DC 		.ascii	"}\323C\334\000\2214\014\265\203\207\366\240\020'\221"
 1079      0091340C 
 1079      B58387F6 
 1079      A0102791 
 1080 01b7 2A9CA0C3 		.ascii	"*\234\240\303\371$2uH&\212d\350\221\204\333ut\366\373"
 1080      F9243275 
 1080      48268A64 
 1080      E89184DB 
 1080      7574F6FB 
 1081 01cb 5316700A 		.ascii	"S\026p\0121?\245\026p\267a\321\253\214\002z\001\377"
 1081      313FA516 
 1081      70B761D1 
 1081      AB8C027A 
 1081      01FF
 1082 01dd 9D740391 		.ascii	"\235t\003\221\256O%\335\210\004\232\210tS*\351\252\307"
 1082      AE4F25DD 
 1082      88049A88 
 1082      74532AE9 
 1082      AAC7
 1083 01ef 903E8D98 		.ascii	"\220>\215\2303\217#}\346\177$}\216H\237M%\335\214\004"
 1083      338F237D 
 1083      E67F247D 
 1083      8E489F4D 
 1083      25DD8C04 
 1084 0203 CE13697C 		.ascii	"\316\023i|\340\300\002u\317\267\027\015\021e\374\357"
 1084      E0C00275 
 1084      CFB7170D 
 1084      1165FCEF 
 1085 0213 CDC8FBE9 		.ascii	"\315\310\373\351r\177_\313\365^\343S\200]*\011\364\340"
 1085      727F5FCB 
 1085      F55EE353 
 1085      805D2A09 
 1085      F4E0
 1086 0225 F890455A 		.ascii	"\370\220EZ\031\350!\321C\246\37671\002\233\201\306 "
 1086      19E821D1 
 1086      43A6FE37 
 1086      31029B81 
 1086      C620
 1087 0237 13D48666 		.ascii	"\023\324\206f\037`\037\342\264*\021V\212\225\340\312"
 1087      1F601FE2 
 1087      B42A1156 
 1087      8A95E0CA 
 1088 0247 1F61FDE0 		.ascii	"\037a\375\340\253\215\225\035\364\222\036AnB6\201\215"
 1088      AB8D951D 
 1088      F4921E41 
 1088      6E423681 
 1088      8D
 1089 0258 75E7651A 		.ascii	"u\347e\032T\243\252NM\315`\273\\\374P1\342F\230k\005"
 1089      54A3AA4E 
 1089      4DCD60BB 
 1089      5CFC5031 
 1089      E246986B 
 1090 026d 55FBEF7F 		.ascii	"U\373\357\177\222\025\206=8\260\323\340\002\016|\013"
 1090      9215863D 
 1090      38B0D3E0 
 1090      020E7C0B 
ARM GAS  C:\Users\AMANRA~1\AppData\Local\Temp\ccNdUiqj.s 			page 87


 1091 027d 158B8143 		.ascii	"\025\213\201C\015\035\177\032\255\007\250\322p%F3\340"
 1091      0D1D7F1A 
 1091      AD07A8D2 
 1091      70254633 
 1091      E0
 1092 028e 22846127 		.ascii	"\"\204a'\327\205\030\273\342\337(ha\013\215\316\317"
 1092      D78518BB 
 1092      E2DF2868 
 1092      610B8DCE 
 1092      CF
 1093 029f 60DD891E 		.ascii	"`\335\211\036`\245\255`e\275\340\013\257%\036\304\034"
 1093      60A5AD60 
 1093      65BDE00B 
 1093      AF251EC4 
 1093      1C
 1094 02b0 B9E0C654 		.ascii	"\271\340\306Tz\177\226^o\270\0049\010\332\034S\216\211"
 1094      7A7F965E 
 1094      6FB80439 
 1094      08DA1C53 
 1094      8E89
 1095 02c2 5485012C 		.ascii	"T\205\001,p\031c\003\340\353:\034\250\275\001I\206|"
 1095      70196303 
 1095      E0EB3A1C 
 1095      A8BD0149 
 1095      867C
 1096 02d4 1A9A0D7A 		.ascii	"\032\232\015z7\210)\363\326\367\012\316\333\025\212"
 1096      378829F3 
 1096      D6F70ACE 
 1096      DB158A
 1097 02e3 1992630F 		.ascii	"\031\222c\017v\317\301o\331%r\362j\252\223\327\260\212"
 1097      76CFC16F 
 1097      D92572F2 
 1097      6AAA93D7 
 1097      B08A
 1098 02f5 3672B28D 		.ascii	"6r\262\215\234\004\026\243k\277\330[\365G\306\2541\330"
 1098      9C0416A3 
 1098      6BBFD85B 
 1098      F547C6AC 
 1098      31D8
 1099 0307 AB9463F9 		.ascii	"\253\224c\371&\002\034\350>\242\030E\001i\267\303,U"
 1099      26021CE8 
 1099      3EA21845 
 1099      0169B7C3 
 1099      2C55
 1100 0319 A37B83AD 		.ascii	"\243{\203\255\355\002\356@\007\210*q\006\327\325\017"
 1100      ED02EE40 
 1100      07882A71 
 1100      06D7D50F 
 1101 0329 E857C7A3 		.ascii	"\350W\307\243=\346Y\017u\264\231r\207+\253.\231Tt'\241"
 1101      3DE6590F 
 1101      75B49972 
 1101      872BAB2E 
 1101      99547427 
 1102 033e E10688A4 		.ascii	"\341\006\210\244\242E\025\201\251\336\216vu\227=\247"
 1102      A2451581 
 1102      A9DE8E76 
 1102      75973DA7 
ARM GAS  C:\Users\AMANRA~1\AppData\Local\Temp\ccNdUiqj.s 			page 88


 1103 034e 990B89E6 		.ascii	"\231\013\211\346\212\252\271G\353\316\325Kh\344\006"
 1103      8AAAB947 
 1103      EBCED54B 
 1103      68E406
 1104 035d CD914C54 		.ascii	"\315\221LT\035n\352^\266n\276\332i\2320K\200[\252\223"
 1104      1D6EEA5E 
 1104      B66EBEDA 
 1104      699A304B 
 1104      805BAA93 
 1105 0371 0249DC85 		.ascii	"\002I\334\205n\365\203\377\257M1\203v\264\200\247\007"
 1105      6EF583FF 
 1105      AF4D3183 
 1105      76B480A7 
 1105      07
 1106 0382 91530F94 		.ascii	"\221S\017\224\264G\027L\354\231UGJQ\233\306\371\330"
 1106      B447174C 
 1106      EC995547 
 1106      4A519BC6 
 1106      F9D8
 1107 0394 6B186D8B 		.ascii	"k\030m\213\326W\370%-!3\221\017\266\001t\353\026\226"
 1107      D657F825 
 1107      2D213391 
 1107      0FB60174 
 1107      EB1696
 1108 03a7 A213972D 		.ascii	"\242\023\227-\010\240\006\240aIL4`\342\355D?\265a\321"
 1108      08A006A0 
 1108      61494C34 
 1108      60E2ED44 
 1108      3FB561D1 
 1109 03bb 251EDF7B 		.ascii	"%\036\337{\353\270)\256\336mU\275\036U\275d\251z5\251"
 1109      EBB829AE 
 1109      DE6D55BD 
 1109      1E55BD64 
 1109      A97A35A9 
 1110 03cf 6E8E6E6B 		.ascii	"n\216nk[\251\336\241]l`\3033\264\251\010\216\372\372"
 1110      5BA9DEA1 
 1110      5D6C60C3 
 1110      33B4A908 
 1110      8EFAFA
 1111 03e2 CA5E24A6 		.ascii	"\312^$\246I:\205\227\263\264JeA\237\252\224>+\225w|"
 1111      493A8597 
 1111      B3B44A65 
 1111      419FAA94 
 1111      3E2B9577 
 1112 03f7 CDA23E12 		.ascii	"\315\242>\022E\244\343/\324\364\"\311\030\003+i4\010"
 1112      45A4E32F 
 1112      D4F422C9 
 1112      18032B69 
 1112      3408
 1113 0409 1BC32367 		.ascii	"\033\303#g?\346\232*|\362\314=\021\340\022\246\366C"
 1113      3FE69A2A 
 1113      7CF2CC3D 
 1113      11E012A6 
 1113      F643
 1114 041b 311D76E5 		.ascii	"1\035v\345ZI\015\220\012\323\301\004\003\220\215\"\206"
 1114      5A490D90 
 1114      0AD3C104 
ARM GAS  C:\Users\AMANRA~1\AppData\Local\Temp\ccNdUiqj.s 			page 89


 1114      03908D22 
 1114      86
 1115 042c F893246C 		.ascii	"\370\223$ls\364\024<:`B\255\031\250\314\340\204\254"
 1115      73F4143C 
 1115      3A6042AD 
 1115      19A8CCE0 
 1115      84AC
 1116 043e 12FB488A 		.ascii	"\022\373H\212\313\212\037\316$\035\233\322\353xgJ\035"
 1116      CB8A1FCE 
 1116      241D9BD2 
 1116      EB78674A 
 1116      1D
 1117 044f 8726E9D8 		.ascii	"\207&\351\330\020\327Qf\337\344\352_\227\321\272\376"
 1117      10D75166 
 1117      DFE4EA5F 
 1117      97D1BAFE 
 1118 045f B2B91A35 		.ascii	"\262\271\0325\361_\265\334\313\244\322\335G\335vO\355"
 1118      F15FB5DC 
 1118      CBA4D2DD 
 1118      47DD764F 
 1118      ED
 1119 0470 36DFF8A6 		.ascii	"6\337\370\246&\275\333\014\244\232\332\177\025\372\016"
 1119      26BDDB0C 
 1119      A49ADA7F 
 1119      15FA0E
 1120 047f 9D8DFB94 		.ascii	"\235\215\373\224\326\272\005\2460-\315M\367\037\335"
 1120      D6BA05A6 
 1120      302DCD4D 
 1120      F71FDD
 1121 048e 344C8648 		.ascii	"4L\206H\232>'S\364\211\246\327\347\301\224\372\374:"
 1121      9A3E2753 
 1121      F489A6D7 
 1121      E7C194FA 
 1121      FC3A
 1122 04a0 499F9371 		.ascii	"I\237\223q}\214\372\347w\010\257\012\242Z\214\375\016"
 1122      7D8CFAE7 
 1122      7708AF0A 
 1122      A25A8CFD 
 1122      0E
 1123 04b1 72A27102 		.ascii	"r\242q\002^\365\033d\213\235-\025Q\231VR\177\237\031"
 1123      5EF51B64 
 1123      8B9D2D15 
 1123      51995652 
 1123      7F9F19
 1124 04c4 EB966B07 		.ascii	"\353\226k\007\312f\342\227\034\350\000\274&7/\317\212"
 1124      CA66E297 
 1124      1CE800BC 
 1124      26372FCF 
 1124      8A
 1125 04d5 7FDB2AC7 		.ascii	"\177\333*\307r\207\313\223\2770\177\236\325\345\261"
 1125      7287CB93 
 1125      BF307F9E 
 1125      D5E5B1
 1126 04e4 BABD568F 		.ascii	"\272\275V\217\333\206\273\366\265\366\"\257'\317\306"
 1126      DB86BBF6 
 1126      B5F622AF 
 1126      27CFC6
ARM GAS  C:\Users\AMANRA~1\AppData\Local\Temp\ccNdUiqj.s 			page 90


 1127 04f3 246D257B 		.ascii	"$m%{\035N\273k\215\227\333\274\253\347<\016\352(\262"
 1127      1D4EBB6B 
 1127      8D97DBBC 
 1127      ABE73C0E 
 1127      EA28B2
 1128 0506 BDB7E61D 		.ascii	"\275\267\346\035;F<\353=y\253\230\274\374m\217\375-"
 1128      3B463CEB 
 1128      3D79AB98 
 1128      BCFC6D8F 
 1128      FD2D
 1129 0518 B7E3B529 		.ascii	"\267\343\265)\0016\227\323\351*\262\256v\271\275\036"
 1129      013697D3 
 1129      E92AB2AE 
 1129      76B9BD1E 
 1130 0528 EB9B4B0A 		.ascii	"\353\233K\012\013\012\327a\212\315\345\266/[\373\272"
 1130      0B0AD761 
 1130      8ACDE5B6 
 1130      2F5BFBBA 
 1131 0538 13E105E9 		.ascii	"\023\341\005\351`\366u^\002Y\013\012\227.^j-@\224uq"
 1131      60F6755E 
 1131      02590B0A 
 1131      972E5E6A 
 1131      2D409475 
 1132 054d FC7AA7C7 		.ascii	"\374z\247\307\341Y\266\322f\3033\246\027.]b!\032\253"
 1132      E159B6D2 
 1132      66C333A6 
 1132      172E5D62 
 1132      211AAB
 1133 0560 DD8E972C 		.ascii	"\335\216\227,9\363\230\340f\262\323\356t\271\327\263"
 1133      39F398E0 
 1133      66B2D3EE 
 1133      74B9D7B3 
 1134 0570 7F00F738 		.ascii	"\177\000\3678_W"
 1134      5F57
 1135              		.text
 1136              		.section	.gnu.lto_.symbol_nodes.29deb57c,"",%progbits
 1137 0000 789C55CD 		.ascii	"x\234U\3159K\003\001\020\305\361\267ov\263\207\271/"
 1137      394B0301 
 1137      10C5F1B7 
 1137      6F76B387 
 1137      B92F
 1138 0012 2CFD28FA 		.ascii	",\375(\372\265l\336b\021[?\200\245\340}\307\263\020"
 1138      B56CDE62 
 1138      115B3F80 
 1138      A5E07DC7 
 1138      B310
 1139 0024 C1856DC4 		.ascii	"\301\205m\304\312>\010\351m\004\013E\334\230\024N3\177"
 1139      CA3E08E9 
 1139      6D040B45 
 1139      DC98144E 
 1139      337F
 1140 0036 E637C5D4 		.ascii	"\3467\305\324\000|\005\325\340.\005l\275\000U\356\363"
 1140      007C05D5 
 1140      E02E056C 
 1140      BD0055EE 
 1140      F3
 1141 0047 3520BA23 		.ascii	"5 \272#Vf\227=*p\027\356S\364r@\231\227C*\364rLE^N\251"
ARM GAS  C:\Users\AMANRA~1\AppData\Local\Temp\ccNdUiqj.s 			page 91


 1141      5666973D 
 1141      2A7017EE 
 1141      53F47240 
 1141      9997432A 
 1142 0062 9A97232A 		.ascii	"\232\227#*\366rB%^\316\250\324\3139\225y\271\240\226"
 1142      F6724225 
 1142      5ECEA8D4 
 1142      CB399579 
 1142      B9A096
 1143 0075 BC5C5275 		.ascii	"\274\\Ru/c\252\341\345\212jz\271\246Z^n\250\266\227"
 1143      2F63AAE1 
 1143      E58A6A7A 
 1143      B9A65A5E 
 1143      6EA8B697 
 1144 0089 5BAAE324 		.ascii	"[\252\343$x\244\272\177\002\344\371j\005\017T\317\301"
 1144      78A4BA7F 
 1144      02E4F96A 
 1144      050F54CF 
 1144      C1
 1145 009a 13D57750 		.ascii	"\023\325wPP\203\377`q\017E9\011-\211\261\261\371\275"
 1145      5083FF60 
 1145      710F4539 
 1145      092D89B1 
 1145      B1F9BD
 1146 00ad 6E69D5B7 		.ascii	"ni\325\267\237\300\322>vf\315\222\371\236\315\367\260"
 1146      9FC0D23E 
 1146      7666CD92 
 1146      F99ECDF7 
 1146      B0
 1147 00be 8E71F9BC 		.ascii	"\216q\371\274m\260\306\000\323\321{d\315E[\003\024\243"
 1147      6DB0C600 
 1147      D3D17B64 
 1147      CD455B03 
 1147      14A3
 1148 00d0 D7656B0F 		.ascii	"\327ek\0171-?i\235E\273\303\352\301\207\341\027\240"
 1148      312D3F69 
 1148      9D45BBC3 
 1148      EAC187E1 
 1148      17A0
 1149 00e2 3585FF   		.ascii	"5\205\377"
 1150              		.text
 1151              		.section	.gnu.lto_.refs.29deb57c,"",%progbits
 1152 0000 789C15C7 		.ascii	"x\234\025\307\313\011\000 \020\003\321\014\272z\362"
 1152      CB090020 
 1152      1003D10C 
 1152      BA7AF2
 1153 000f DB8AFDF7 		.ascii	"\333\212\375\367\346\0062\017\322$\275\214\\\247\010"
 1153      E606320F 
 1153      D224BD8C 
 1153      5CA708
 1154 001e A8220833 		.ascii	"\250\"\0103|\247Yf\233cn\242\017\031\253\000\317"
 1154      7CA75966 
 1154      9B636EA2 
 1154      0F19AB00 
 1154      CF
 1155              		.text
 1156              		.section	.gnu.lto_.decls.29deb57c,"",%progbits
ARM GAS  C:\Users\AMANRA~1\AppData\Local\Temp\ccNdUiqj.s 			page 92


 1157 0000 789CBD7B 		.ascii	"x\234\275{\013T\024I\232neEU\001E\001\266\330\275\316"
 1157      0B541449 
 1157      9A6E6545 
 1157      55014501 
 1157      B6D8BDCE 
 1158 0014 8CBBD7D3 		.ascii	"\214\273\327\323\353l3w\266}\366\364\343\2369{\247\267"
 1158      EB6C3377 
 1158      B67DF6F4 
 1158      E39E397B 
 1158      A7B7
 1159 0026 77EE8C73 		.ascii	"w\356\214sv\366\356\031w\316\356\334u\207E\250Vfx\270"
 1159      76F6EE19 
 1159      77CEEEDC 
 1159      758745A8 
 1159      566678B8 
 1160 003a 50DAED9C 		.ascii	"P\332\355\234s\357\024/\001\021\021\001\005\004\001"
 1160      73EF142F 
 1160      01111101 
 1160      050401
 1161 0049 010501DF 		.ascii	"\001\005\001\337\012\002\"\024\362\226\207\242(\202"
 1161      0A022214 
 1161      F29687A2 
 1161      2882
 1162 0057 20282828 		.ascii	" (((\017A@\036\302\376\361\310\312\254\254\314\326>"
 1162      0F41401E 
 1162      C2FEF1C8 
 1162      CAACACCC 
 1162      D63E
 1163 0069 67EF70FC 		.ascii	"g\357p\374\315\214\310?\376\377\373\377\370\343\217"
 1163      CD8CC83F 
 1163      FEFFFBFF 
 1163      F8E38F
 1164 0078 C8882C9D 		.ascii	"\310\210,\235J\245Z\365S\225\352\240\223Je\002Z\202"
 1164      4AA55AF5 
 1164      5395EAA0 
 1164      934A6502 
 1164      5A82
 1165 008a 3F77A8AB 		.ascii	"?w\250\253\002r\006\252\347T\252\012\240\006\270\257"
 1165      027206AA 
 1165      E754AA0A 
 1165      A006B8AF 
 1166 009a 01DA03F7 		.ascii	"\001\332\003\367:\270\336\206k\023\320*\270\357\200"
 1166      3AB8DE86 
 1166      6B13D02A 
 1166      B8EF80
 1167 00a9 AB3B10FE 		.ascii	"\253;\020\376{\017\350!\334\017\000\015\001=\003\032"
 1167      7B0FE821 
 1167      DC0F000D 
 1167      013D031A 
 1168 00b9 017A0134 		.ascii	"\001z\0014\0154\017\364\032h\011\210S\203, G =\220\001"
 1168      0D340FF4 
 1168      1A680988 
 1168      53832C20 
 1168      47203D90 
 1169 00ce E81D2077 		.ascii	"\350\035 w\240w\201\276\003\264\012h5\320\367\201\260"
 1169      A07781BE 
 1169      03B40A68 
ARM GAS  C:\Users\AMANRA~1\AppData\Local\Temp\ccNdUiqj.s 			page 93


 1169      35D0F781 
 1169      B0
 1170 00df 8A3FAA55 		.ascii	"\212?\252U6\177U\010\332\300\365\337\201\226\003\255"
 1170      367F5508 
 1170      DAC0F5DF 
 1170      819603AD 
 1171 00ef 90C16C61 		.ascii	"\220\301la\270C\240\355^\240Z\270/\003\212\204\373\377"
 1171      B843A0ED 
 1171      5EA05AB8 
 1171      2F038A84 
 1171      FBFF
 1172 0101 07B403E8 		.ascii	"\007\264\003\350\003\340q\304\274P\177\015h7\324y\001"
 1172      03E071C4 
 1172      BC507F0D 
 1172      6837D479 
 1172      01
 1173 0112 95C3FD15 		.ascii	"\225\303\375\025\240*\240Rf;\266/\032\236\305\000\305"
 1173      A02AA052 
 1173      663BB62F 
 1173      1A9EC500 
 1173      C5
 1174 0123 03250025 		.ascii	"\003%\000%\001ah\307\324\366\030\233\000\243\223\002"
 1174      016168C7 
 1174      D4F6189B 
 1174      00A39302 
 1175 0133 468C8DC7 		.ascii	"F\214\215\307\2051a\033\2571=\003\012z0O\216DG;\323"
 1175      8531611B 
 1175      AF313D03 
 1175      0A7A304F 
 1175      8E44473B 
 1176 0148 C1CB6F60 		.ascii	"\301\313o`6c\273\304v\376\001\352\200\325j\337\001\246"
 1176      3663BBC4 
 1176      76FE01EA 
 1176      80D56ADF 
 1176      01A6
 1177 015a 738893F7 		.ascii	"s\210\223\367\357]`6H\344ZD\262y\354o\322\341\240\242"
 1177      EF5D6036 
 1177      48E45A44 
 1177      B279EC6F 
 1177      D2E1A0A2 
 1178 016e B120678F 		.ascii	"\261 g\217\222\356\256\377B\335#\012\272O(\304\325#"
 1178      92EEAEFF 
 1178      42DD230A 
 1178      BA4F28C4 
 1178      D523
 1179 0180 893F711C 		.ascii	"\211?q\034\361\375%\326\215\373\0147\025\307\307\013"
 1179      F1FD25D6 
 1179      8DFB0C37 
 1179      15C7C70B 
 1180 0190 055DD2BF 		.ascii	"\005]\322\277\021\320\341*\211\213=,n\261\016<\266\376"
 1180      11D0E12A 
 1180      898B3D2C 
 1180      6EB10E3C 
 1180      B6FE
 1181 01a2 C0C65612 		.ascii	"\300\306V\022\320\234\212\312?\011\262V\002iU\324\276"
 1181      D09C8ACA 
 1181      3F09B256 
ARM GAS  C:\Users\AMANRA~1\AppData\Local\Temp\ccNdUiqj.s 			page 94


 1181      026955D4 
 1181      BE
 1182 01b3 7CA044A0 		.ascii	"|\240D\240\303@\271\014\017\036k\337a\266\235\226\350"
 1182      C340B90C 
 1182      0F1E6BDF 
 1182      61B69D96 
 1182      E8
 1183 01c4 9E01BD2E 		.ascii	"\236\001\275.*\373x\344m\374\200\341\340\307\011\306"
 1183      2AFB78E4 
 1183      6DFC80E1 
 1183      E0C709C6 
 1184 01d4 7306644C 		.ascii	"s\006dL1\373,\242\361\300\217\217kL\357<\033\347X\357"
 1184      31FB2CA2 
 1184      F1C08F8F 
 1184      6B4CEF3C 
 1184      1BE758EF 
 1185 01e8 6589DE79 		.ascii	"e\211\336y\326\237r\366\212\307\001\257\253\030\256"
 1185      D69F72F6 
 1185      8AC701AF 
 1185      AB18AE
 1186 01f7 DF6332F0 		.ascii	"\337c2\360\330|\255\340W\254o\025\263\365\252D\347\222"
 1186      D87CADE0 
 1186      57AC6F15 
 1186      B3F5AA44 
 1186      E792
 1187 0209 8C4EDE56 		.ascii	"\214N\336V\261\316\012\2409\031\235K\012:\347\231N\351"
 1187      B1CE0AA0 
 1187      39199D4B 
 1187      0A3AE799 
 1187      4EE9
 1188 021b 1FD2501F 		.ascii	"\037\322P\037I\343\006\373T\032+\030/'#\303Ec\217\371"
 1188      49E306FB 
 1188      541A2B18 
 1188      2F2723C3 
 1188      45638FF9 
 1189 022f 36F35313 		.ascii	"6\363S\023\223\365\033\240V\326\037\355pma\371\027_"
 1189      93F51BA0 
 1189      56D61FED 
 1189      706D61F9 
 1189      175F
 1190 0241 74CC1735 		.ascii	"t\314\0275\022\331\357\200\334e*\373\034\301\307\264"
 1190      12D9EF80 
 1190      DC652AFB 
 1190      1CC1C7B4 
 1191 0251 781CF17E 		.ascii	"x\034\361~\371\003\213\275Z5\215\307\377\306\342N<\276"
 1191      F9038BBD 
 1191      5A358DC7 
 1191      FFC6E24E 
 1191      3CBE
 1192 0263 F8D8C3E3 		.ascii	"\370\330\303\343\014\347r9\177\255V\030g\357\376\011"
 1192      0CE77239 
 1192      7FAD5618 
 1192      67EFFE09 
 1193 0273 30E9BF25 		.ascii	"0\351\277%\246\357\374\0110\031\276%\246\277\004L\356"
 1193      A6EFFC09 
 1193      3019BE25 
 1193      A6BF044C 
ARM GAS  C:\Users\AMANRA~1\AppData\Local\Temp\ccNdUiqj.s 			page 95


 1193      EE
 1194 0284 124C78DE 		.ascii	"\022Lx\336\025\343\322\275\001[\035\303\266FMs\3117"
 1194      15E3D2BD 
 1194      015B1DC3 
 1194      B6464D73 
 1194      C937
 1195 0296 E17B4701 		.ascii	"\341{G\001\237\322<\374\301\237\030\237\373\267\304"
 1195      9FD23CFC 
 1195      C19F189F 
 1195      FBB7C4
 1196 02a5 F7C33F31 		.ascii	"\367\303?1\276w\277%\276D\304\335\014?\233\206b\020"
 1196      BE77BF25 
 1196      BE44C4DD 
 1196      0C3F9B86 
 1196      6210
 1197 02b7 B75CCF69 		.ascii	"\267\\\317i\240\370\2429\365\221+\024W\350\271\325P"
 1197      A0F8A239 
 1197      F5912B14 
 1197      57E8B9D5 
 1197      50
 1198 02c8 2C2F2EC9 		.ascii	",/.\311\320 5\2079\317\2758Q\257_[h\246\177\216\277"
 1198      D0203587 
 1198      39CFBD38 
 1198      51AF5F5B 
 1198      68A67F8E 
 1199 02dd 51719738 		.ascii	"Qq\2278\304\213\251\036z\034\245G\033\011\343\301\356"
 1199      C48BA91E 
 1199      7A1CA547 
 1199      1B09E3C1 
 1199      EE
 1200 02ee D97267F4 		.ascii	"\331rg\364?\311\375\255\361\033\351\316T\3742(\246\226"
 1200      3FC9FDAD 
 1200      F11BE9CE 
 1200      54FC3228 
 1200      A696
 1201 0300 BD6CD4D2 		.ascii	"\275l\324\322\242#\024\223R\007W\242\277#\214\017\352"
 1201      A2231493 
 1201      520757A2 
 1201      BF238C0F 
 1201      EA
 1202 0311 F30B308E 		.ascii	"\363\0130\216\017\364\034^\015\272A\325\231\347Wf]h"
 1202      0FF41C5E 
 1202      0DBA41D5 
 1202      99E75766 
 1202      5D68
 1203 0323 15111537 		.ascii	"\025\021\0257\221\343\200~\201\357\325\275\235\363\335"
 1203      91E3807E 
 1203      81EFD5BD 
 1203      9DF3DD
 1204 0332 AE9CDE23 		.ascii	"\256\234\336#\312l\0165g\206\231\235~\256\342.r\253"
 1204      CA6C0E35 
 1204      6786999D 
 1204      7EAEE22E 
 1204      72AB
 1205 0344 B80BDC2A 		.ascii	"\270\013\334*\025W\311y\3406\227\271\265*\356*T\226"
 1205      1557C979 
 1205      E03697B9 
ARM GAS  C:\Users\AMANRA~1\AppData\Local\Temp\ccNdUiqj.s 			page 96


 1205      B52AEE2A 
 1205      5496
 1206 0356 43E5098C 		.ascii	"C\345\011\214\271r,\365oR&\314\346\325\3345N\317Up\210"
 1206      B9722CF5 
 1206      6F5226CC 
 1206      E6D5DC35 
 1206      4ECF5570 
 1207 036b F0806B3E 		.ascii	"\360\200k>\320S+\362s\342\217\353P9Gt\224\035\035\250"
 1207      D0532BF2 
 1207      73E28FEB 
 1207      50394774 
 1207      941D1DA8 
 1208 037f 512BE9A8 		.ascii	"Q+\351\250V\326Q\362~m\204\331\254\346,\240\243J\320"
 1208      56D651F2 
 1208      7E6D84D9 
 1208      ACE62CA0 
 1208      A34AD0
 1209 0392 012AA992 		.ascii	"\001*\251\222\202\350\366=(\213\370T\0356\025\336\244"
 1209      82E8F63D 
 1209      288BF854 
 1209      1D3615DE 
 1209      A4
 1210 03a3 A8A35651 		.ascii	"\250\243VQ\307L\263GG$\326Q\003:\256\013:,\274\216\224"
 1210      C74CB347 
 1210      4724D651 
 1210      033AAE0B 
 1210      3A2CBC8E 
 1211 03b8 93AFDB10 		.ascii	"\223\257\333\020\032\247\035W\033\027\276_\217f\250"
 1211      1AA71D57 
 1211      1B17BE5F 
 1211      8F66A8
 1212 03c7 C6A99BCF 		.ascii	"\306\251\233\317StJ\032\033\02556\352~\3025\200\262"
 1212      53744A1A 
 1212      1B153536 
 1212      EA7EC235 
 1212      80B2
 1213 03d9 7A196557 		.ascii	"z\031eW\247\313k\\Q\030\"\312\212G\013\212]h\017W\342"
 1213      A7CB6B5C 
 1213      511822CA 
 1213      8A470B8A 
 1213      5D680F57 
 1214 03ee 72DE60DA 		.ascii	"r\336`\332\001\003-\177\012\305\333m=\271\010\355\247"
 1214      01032D7F 
 1214      0AC5DB6D 
 1214      3DB908ED 
 1214      A7
 1215 03ff BCE6C4F9 		.ascii	"\274\346\304\371\014\027\224D\012\352\261\260\243\271"
 1215      0C179444 
 1215      0AEAB1B0 
 1215      A3B9
 1216 040d 8A5D7A53 		.ascii	"\212]zS\021\330\204\366'\\\033\000k\225\001\326}!\266"
 1216      11D884F6 
 1216      275C1B00 
 1216      6B9501D6 
 1216      7D21B6
 1217 0420 DA11A553 		.ascii	"\332\021\245Se\0053\341\227\334P\256-\312\025\014\345"
 1217      650533E1 
ARM GAS  C:\Users\AMANRA~1\AppData\Local\Temp\ccNdUiqj.s 			page 97


 1217      97DC50AE 
 1217      2DCA150C 
 1217      E5
 1218 0431 5CC2954B 		.ascii	"\\\302\225K\316\250\200>\274\376\250\275^\213\316\321"
 1218      CEA8803E 
 1218      BCFEA8BD 
 1218      5E8BCED1 
 1219 0441 42A6A5EF 		.ascii	"B\246\245\357Cd\241\367\245I\345#\216\250\216\026\252"
 1219      4364A1F7 
 1219      A549E523 
 1219      8EA88E16 
 1219      AA
 1220 0452 5E77A6E9 		.ascii	"^w\246\351\321]Z\270<\330P\253\247\362\314\034\224\027"
 1220      D15D5AB8 
 1220      3CD850AB 
 1220      A7F2CC1C 
 1220      9417
 1221 0464 725BEF39 		.ascii	"r[\3579\242^\372\260\254\270\274\226\005\375z(\206="
 1221      A25EFAB0 
 1221      ACB8BC96 
 1221      05FD7A28 
 1221      863D
 1222 0476 4EEF7345 		.ascii	"N\357sEO\351\263\243\223\017\206\234\3503\017\034\200"
 1222      4FE9B3A3 
 1222      930F869C 
 1222      E8330F1C 
 1222      80
 1223 0487 A593B93A 		.ascii	"\245\223\271:\364\202>\353_Z\374\035\232\243\367\321"
 1223      F4823EEB 
 1223      5F5AFC1D 
 1223      9AA3F7D1 
 1224 0497 85D1B5AE 		.ascii	"\205\321\265\256(TC\012\307\257\225=w@\207h\201\037"
 1224      2854430A 
 1224      C7AF953D 
 1224      77408768 
 1224      811F
 1225 04a9 B1CBE988 		.ascii	"\261\313\351\210\315\033\356]@(\213>\353\353\256;\353"
 1225      CD1BEE5D 
 1225      40288B3E 
 1225      EBEBAE3B 
 1225      EB
 1226 04ba 8AB269A1 		.ascii	"\212\262i\241l\346h\231\033:E\013\315\217\226&\364\350"
 1226      6CE66899 
 1226      1B3A450B 
 1226      CD8F9626 
 1226      F4E8
 1227 04cc 1C2D14A7 		.ascii	"\034-\024\247.VjP\011-D\304\026\035\301\246\350\350"
 1227      2E566A50 
 1227      092D44C4 
 1227      161DC1A6 
 1227      E8E8
 1228 04de 407480AA 		.ascii	"@t\200\252\307\343s\2275\264\012\373\374k\250JO\351"
 1228      C7E37397 
 1228      35B40AFB 
 1228      FC6BA84A 
 1228      4FE9
 1229 04f0 3EE78ACA 		.ascii	">\347\212\312I\023uE{I\270\013\347\241\347\007\331\307"
ARM GAS  C:\Users\AMANRA~1\AppData\Local\Temp\ccNdUiqj.s 			page 98


 1229      49137545 
 1229      7B49B80B 
 1229      E7A1E707 
 1229      D9C7
 1230 0502 29E37890 		.ascii	")\343x\220\215@\267<\023\272E\207{%\012\263H{\3679\364"
 1230      8D40B73C 
 1230      13BA4587 
 1230      7B250AB3 
 1230      487BF739 
 1231 0517 AE8EF5EE 		.ascii	"\256\216\365\3560T\016A%\350\230\230\035\277\250A\265"
 1231      30540E41 
 1231      25E89898 
 1231      1DBFA841 
 1231      B5
 1232 0528 54C78584 		.ascii	"T\307\205\204\205dWAG\311\306Kd\220\215\203\216QA\307"
 1232      85645741 
 1232      47C9C64B 
 1232      64908D83 
 1232      8E5141C7 
 1233 053c 08A7A864 		.ascii	"\010\247\250dL^I\237y>\305\200Z\250\222\243\226\343"
 1233      4C5E499F 
 1233      793EC580 
 1233      5AA892A3 
 1233      96E3
 1234 054e 17D45625 		.ascii	"\027\324V%3\315\177MG\331$(y!(\031WV2!\257$&i\344\204"
 1234      33CD7F4D 
 1234      47D92428 
 1234      79212819 
 1234      57563221 
 1235 0568 2BBA4D1D 		.ascii	"+\272M\035<\3774\261\223\243\035f\200bhYg\274\033\015"
 1235      3CFF34B1 
 1235      93A31D66 
 1235      80626859 
 1235      67BC1B0D 
 1236 057c 9D8724CD 		.ascii	"\235\207$\315\315E-jP\037\345\275\273\277\275K\207\206"
 1236      CD452D6A 
 1236      501FE5BD 
 1236      BBBFBD4B 
 1236      8786
 1237 058e 28BAE2A6 		.ascii	"(\272\342\246\356ydE7\007\201?\007\300^\275\025\260"
 1237      EE796445 
 1237      3707813F 
 1237      07C05EBD 
 1237      15B0
 1238 05a0 597960B5 		.ascii	"Yy`\265\255\231\223\216h\214*\273\022\177\010\302{\212"
 1238      AD99938E 
 1238      688C2ABB 
 1238      127F08C2 
 1238      7B8A
 1239 05b2 167A9263 		.ascii	"\026z\222c\312\234Q\224\226\024*\342&J\234P\034-D\276"
 1239      CA9C5194 
 1239      96142AE2 
 1239      264A9C50 
 1239      1C2D44BE 
 1240 05c6 EA3FEB86 		.ascii	"\352?\353\206\222\2656\371}\005\315\357\303a\225}\032"
 1240      92B536F9 
 1240      7D05CDEF 
ARM GAS  C:\Users\AMANRA~1\AppData\Local\Temp\ccNdUiqj.s 			page 99


 1240      C361957D 
 1240      1A
 1241 05d7 94419F9D 		.ascii	"\224A\237\235\211x\234\357\010\317VA$q\242|\276\212"
 1241      89789CEF 
 1241      08CF5641 
 1241      2471A27C 
 1241      BE8A
 1242 05e9 E6F38B95 		.ascii	"\346\363\213\225\223E\032\224Cx\325\347\212\036\377"
 1242      93451A94 
 1242      4378D5E7 
 1242      8A1EFF
 1243 05f8 4E14416B 		.ascii	"N\024Ak#\210\343\367\252\365\\\270\332j\337*f^\250\331"
 1243      2388E3F7 
 1243      AAF55CB8 
 1243      DA6ADF2A 
 1243      665EA8D9 
 1244 060c 9C6D462B 		.ascii	"\234mF+U\334\246U\334z0.B\355\201\205\022\343\302\324"
 1244      55DCA655 
 1244      DC7A302E 
 1244      42ED8185 
 1244      12E3C2D4 
 1245 0620 ABB85035 		.ascii	"\253\270P51.?#\357\272\013:M\025\364\024\215\265 Q\374"
 1245      312E3F23 
 1245      EFBA0B3A 
 1245      4D15F414 
 1245      8DB52051 
 1246 0635 BC7F81C4 		.ascii	"\274\177\201\304O4h\210\0244\200By\025Q\362*B\023\332"
 1246      4F346888 
 1246      14348042 
 1246      791551F2 
 1246      2A4213DA 
 1247 0649 0B9DD065 		.ascii	"\013\235\320e\252\"\264\346\340M\007>\203\3316\337/"
 1247      AA22B4E6 
 1247      E04D073E 
 1247      83D936DF 
 1247      2F
 1248 065a D39C0FB2 		.ascii	"\323\234\017\262\365w\210\2551\200d\237\200$Z\315\222"
 1248      F57788AD 
 1248      3180649F 
 1248      80245ACD 
 1248      92
 1249 066b 58CCFEC5 		.ascii	"X\314\376\3053\010UP\025#\007\362\212u\362*\342\024"
 1249      33085550 
 1249      152307F2 
 1249      8A75F22A 
 1249      E214
 1250 067d 55DC8248 		.ascii	"U\334\202H9\000\322ce\244?H\037\233\2041F;,\247\372"
 1250      3900D263 
 1250      65A43F48 
 1250      1F9B8431 
 1250      463B2CA7 
 1251 0692 CC4D0774 		.ascii	"\314M\007t\203\252\352\234jJ\020\306\302}\220\221\000"
 1251      83AAEA9C 
 1251      6A4A10C6 
 1251      C27D9091 
 1251      00
 1252 06a3 32E2A532 		.ascii	"2\342\2452d\220\034\222\367\325h\370\300C\266\024X\211"
ARM GAS  C:\Users\AMANRA~1\AppData\Local\Temp\ccNdUiqj.s 			page 100


 1252      64901C92 
 1252      F7D568F8 
 1252      C043B614 
 1252      5889
 1253 06b5 536E62F2 		.ascii	"Snb\362&t\207*\036\311m9\217\263\240\207\236\373\243"
 1253      2674872A 
 1253      1EC96D39 
 1253      8FB3A087 
 1253      9EFBA3
 1254 06c8 28503C68 		.ascii	"(P<h\240\244\305\367\037qB\335\024V\312\324\305y\353"
 1254      A0A4C5F7 
 1254      1F7142DD 
 1254      1456CAD4 
 1254      C579EB
