ARM GAS  C:\Users\AMANRA~1\AppData\Local\Temp\ccHOYdie.s 			page 1


   1              		.cpu cortex-m4
   2              		.eabi_attribute 27, 1
   3              		.eabi_attribute 28, 1
   4              		.eabi_attribute 20, 1
   5              		.eabi_attribute 21, 1
   6              		.eabi_attribute 23, 3
   7              		.eabi_attribute 24, 1
   8              		.eabi_attribute 25, 1
   9              		.eabi_attribute 26, 1
  10              		.eabi_attribute 30, 2
  11              		.eabi_attribute 34, 1
  12              		.eabi_attribute 18, 4
  13              		.file	"hal_queues.c"
  14              		.section	.gnu.lto_.profile.29debcc4,"",%progbits
  15 0000 789C6363 		.ascii	"x\234cc```\003bF\206\035\254\015\314\000\004\226\001"
  15      60606003 
  15      6246861D 
  15      AC0DCC00 
  15      049601
  16 0013 4E       		.ascii	"N"
  17              		.text
  18              		.section	.gnu.lto_.icf.29debcc4,"",%progbits
  19 0000 789C6363 		.ascii	"x\234cc``\310c@\000!\206\007\307\256|\343c\004\223L"
  19      6060C863 
  19      40002186 
  19      07C7AE7C 
  19      E3630493 
  20 0015 6766BED8 		.ascii	"gf\276\330\316\314\374y\337\275\036V\226/\213\257v\363"
  20      CECCFC79 
  20      DFBD1E56 
  20      962F8BAF 
  20      76F3
  21 0027 B2AE7BF4 		.ascii	"\262\256{\364s5?[K\317\266M\374\354\375K6\037`\342\270"
  21      73353F5B 
  21      4BCFB64D 
  21      FCECFD4B 
  21      361F60E2 
  22 003c D2BDF73E 		.ascii	"\322\275\367>;\347\212\307\367:Y\271.\364,<\313\307"
  22      3BE78AC7 
  22      F73A59B9 
  22      2EF42C3C 
  22      CBC7
  23 004e 3DFDFEFC 		.ascii	"=\375\376\374\323<<\015+\272\256\362\362~:\365\345\013"
  23      D33C3C0D 
  23      2BBAAEF2 
  23      F27E3AF5 
  23      E50B
  24 0060 1BDFAAFD 		.ascii	"\033\337\252\375=w8\370\327\334>\366\212M\000\254R\020"
  24      3D7738F8 
  24      D7DC3EF6 
  24      8A4D00AC 
  24      5210
  25 0072 AC920100 		.ascii	"\254\222\001\000S=7\231"
  25      533D3799 
  26              		.text
  27              		.section	.gnu.lto_.jmpfuncs.29debcc4,"",%progbits
  28 0000 789CC554 		.ascii	"x\234\305T\273N\303@\020\334\271\207\235\030\202\201"
ARM GAS  C:\Users\AMANRA~1\AppData\Local\Temp\ccHOYdie.s 			page 2


  28      BB4EC340 
  28      10DCB987 
  28      9D188281 
  29 0010 DA123D9F 		.ascii	"\332\022=\237\300\237\271\011\022\022\242@t\021U\376"
  29      C09FB909 
  29      1212A240 
  29      741155FE 
  30 0020 81A77948 		.ascii	"\201\247yH)\0205\022-ez\350\021\025\354\371\034\343"
  30      29103512 
  30      2D657AE8 
  30      1115ECF9 
  30      1CE3
  31 0032 9C2FB663 		.ascii	"\234/\266c\011q\322\026^\355\316\316\355\3149 \242\243"
  31      0971D216 
  31      5EEDCECE 
  31      EDCC3920 
  31      A2A3
  32 0044 80CAB34B 		.ascii	"\200\312\263K\022@x8\225\304\001\016\021\210\024 <)"
  32      12407838 
  32      95C4010E 
  32      11881420 
  32      3C29
  33 0056 10C7379F 		.ascii	"\020\3077\237\230\013\233\277\203\266\002\347\033\230"
  33      980B9BBF 
  33      83B602E7 
  33      1B98
  34 0064 4864272F 		.ascii	"Hd'/W\321\251\344\221L\341\006\011\247\336g\227o\332"
  34      57D1A9E4 
  34      914CE106 
  34      09A7DE67 
  34      976FDA
  35 0077 A66CDD2D 		.ascii	"\246l\335-\222\036|r\370\363\343\347\327\320b\0212$"
  35      921E7C72 
  35      F8F3E3E7 
  35      D7D06211 
  35      3224
  36 0089 3DB1088B 		.ascii	"=\261\010\213\015I\016\225o\310-\351\200\272\376\206"
  36      0D490E95 
  36      6FC82DE9 
  36      80BAFE86 
  37 0099 CC4A72CE 		.ascii	"\314Jr\316\353O\343\346\254w3\0319\214!\204H\353,\017"
  37      EB4FE3E6 
  37      AC773319 
  37      398C2184 
  37      48EB2C0F 
  38 00ad E6307AC9 		.ascii	"\3460z\311b\037\332[\264?\207\3220g\257\352,\216\200"
  38      621FDA5B 
  38      B43F87D2 
  38      3067AFEA 
  38      2C8E80
  39 00c0 23D4C500 		.ascii	"#\324\305\000%\251\306\\T\225\0330\325;\276\210\011"
  39      25A9C65C 
  39      54951B30 
  39      D53BBE88 
  39      09
  40 00d1 CECFAECF 		.ascii	"\316\317\256\317>a\362C\214q\217$o\035\233v\012\012"
  40      3E61F243 
ARM GAS  C:\Users\AMANRA~1\AppData\Local\Temp\ccHOYdie.s 			page 3


  40      8C718F24 
  40      6F1D9B76 
  40      0A0A
  41 00e3 4E6696F6 		.ascii	"Nf\226\366\342V\201.>\036\277F\026\210\360P\000Q\016"
  41      E256812E 
  41      3E1EBF46 
  41      1688F050 
  41      00510E
  42 00f6 14B65C7E 		.ascii	"\024\266\\~\260\030\204\251\214|E\215\303y\373n\375"
  42      B01884A9 
  42      8C7C458D 
  42      C379FB6E 
  42      FD
  43 0107 B07C808C 		.ascii	"\260|\200\214\010\330\007H\256F\036\331D*j\312\255 "
  43      08D80748 
  43      AE461ED9 
  43      442A6ACA 
  43      AD20
  44 0119 1D29A345 		.ascii	"\035)\243E\\\325\302\320o\241*k\036\366\301\267\231"
  44      5CD5C2D0 
  44      6FA12A6B 
  44      1EF6C1B7 
  44      99
  45 012a 6905A58D 		.ascii	"i\005\245\215_\177H\327\037\233V\003\331\254\243\343"
  45      5F7F48D7 
  45      1F9B5603 
  45      D9ACA3E3 
  46 013a 80511757 		.ascii	"\200Q\027Wn\225o\231\357\257\363\035x*\227UB\233\244"
  46      6E956F99 
  46      EFAFF31D 
  46      782A9755 
  46      429BA4
  47 014d 3519E26E 		.ascii	"5\031\342n\374\227\215\267]\245\246\376\306\007;\245"
  47      FC978DB7 
  47      5DA5A6FE 
  47      C6073BA5 
  48 015d 0FCA7FD9 		.ascii	"\017\312\177\331\177\373\200~\000D\210\317\013"
  48      7FFB807E 
  48      004488CF 
  48      0B
  49              		.text
  50              		.section	.gnu.lto_.inline.29debcc4,"",%progbits
  51 0000 789CBD54 		.ascii	"x\234\275T=h\024A\024\376\336\314\354\337\335\356\335"
  51      3D681441 
  51      14FEDECC 
  51      ECDFDDEE 
  51      DD
  52 0011 5E225E12 		.ascii	"^\"^\022C\262\211\242\215\202\244\260\336\024Z\246\263"
  52      43B289A2 
  52      8D82A4B0 
  52      DE145AA6 
  52      B3
  53 0022 4F63631A 		.ascii	"Occ\032Al\254\226\200\020\320\342\010\"(\026\207\244"
  53      416CAC96 
  53      8010D0E2 
  53      08222816 
  53      87A4
ARM GAS  C:\Users\AMANRA~1\AppData\Local\Temp\ccHOYdie.s 			page 4


  54 0034 B009885A 		.ascii	"\260\011\210Z\210X\004\261\260P\274\302\"\210E\212\004"
  54      885804B1 
  54      B050BCC2 
  54      2288458A 
  54      04
  55 0045 44B0B3B0 		.ascii	"D\260\263\260\020\364\275\231\275\313\306\344\374\001"
  55      10F4BD99 
  55      BDCBC6E4 
  55      FC01
  56 0053 35076F5E 		.ascii	"5\007o^\336\316\274\237\357\373f|\000\353>\006\177#"
  56      DECEBC9F 
  56      EFFB667C 
  56      00EB3E06 
  56      7F23
  57 0065 C0C963E4 		.ascii	"\300\311c\344!#\350\\\261\205u\013\262\313\006\221\204"
  57      2123E85C 
  57      B185750B 
  57      B2CB0691 
  57      84
  58 0076 EAE30FAE 		.ascii	"\352\343\017\256\240\271<\257\240\336\327\215\2630\335"
  58      A0B93CAF 
  58      A0DED78D 
  58      B330DD
  59 0085 E918F421 		.ascii	"\351\030\364!H\225\265b2\353fP\275\346i\250\025\357"
  59      4895B562 
  59      32EB6650 
  59      BDE669A8 
  59      15EF
  60 0097 92543009 		.ascii	"\222T0\011\240;\013\362\373\245K?k\246\373\237\233Q"
  60      A03B0BF2 
  60      FBA54B3F 
  60      6BA6FB9F 
  60      9B51
  61 00a9 68671420 		.ascii	"hg\024 [\272\251\351\326\265\347o\202\353\372\256\366"
  61      5BBAA9E9 
  61      D6B5E76F 
  61      82EBFAAE 
  61      F6
  62 00ba 09F48826 		.ascii	"\011\364\210&\365\026\367tq\340I\277%`\325\216\027\255"
  62      F516F774 
  62      71E049BF 
  62      2560D58E 
  62      17AD
  63 00cc DDA224D8 		.ascii	"\335\242$\330\236C\264=\247\312\026\365\223v\277Ev3"
  63      9E43B43D 
  63      A7CA16F5 
  63      9376BF45 
  63      7633
  64 00de 7173FB2D 		.ascii	"qs\373-\227A\026A\2379\203r\213\204\013\245\340\255"
  64      97411641 
  64      9F398372 
  64      8B840BA5 
  64      E0AD
  65 00f0 9C28941D 		.ascii	"\234(\224\035!\205\001u\0264\306fx\323n\355.\371\243"
  65      21850175 
  65      1634C666 
  65      78D36EED 
ARM GAS  C:\Users\AMANRA~1\AppData\Local\Temp\ccHOYdie.s 			page 5


  65      2EF9A3
  66 0103 BD1B8444 		.ascii	"\275\033\204DZ\347S\306f7\342\206\326\015\313\343r\332"
  66      5AE753C6 
  66      6637E286 
  66      D60DCBE3 
  66      72DA
  67 0115 208949CB 		.ascii	" \211I\3139XT-\332:\272\177\016\315\227\027\224\200"
  67      3958542D 
  67      DA3ABA7F 
  67      0ECD9717 
  67      9480
  68 0127 3626BB3D 		.ascii	"6&\273=\324F\312\"v\030\030\316\203h\363L\277\202X\331"
  68      D446CA22 
  68      761818CE 
  68      8368F34C 
  68      BF8258D9 
  69 013b A863CED1 		.ascii	"\250c\316\321Y\200\217#\323\344\377\000Z\235\247x\314"
  69      59808F23 
  69      D3E4FF00 
  69      5A9DA778 
  69      CC
  70 014c 50E58259 		.ascii	"P\345\202Y\351\330\206\253\230\331\030\242\364\331e"
  70      E9D886AB 
  70      98D918A2 
  70      F4D965
  71 015b C42FCE0E 		.ascii	"\304/\316\016\240\352\264\367\260\311\3700\233E\215"
  71      A0EAB4F7 
  71      B0C9F830 
  71      9B458D
  72 016a F10A3767 		.ascii	"\361\0127g\363j\351\000\3433\024q\351}\265\226\376\234"
  72      F36AE900 
  72      E3331471 
  72      E97DB596 
  72      FE9C
  73 017c B21627F6 		.ascii	"\262\026'\366\273\323\252\344\206\321\317Ao\203\\@\375"
  73      BBD3AAE4 
  73      86D1CF41 
  73      6F835C40 
  73      FD
  74 018d 7A3837D0 		.ascii	"z87\320\253\243\354{Og\215\304\013r\037x\265\377*\201"
  74      ABA3EC7B 
  74      4F678DC4 
  74      0B721F78 
  74      B5FF2A81 
  75 01a1 C6AE30BD 		.ascii	"\306\2560\275\251Bs\364\243.\214D\355j?\206\222`\355"
  75      A94273F4 
  75      A32E8C44 
  75      ED6A3F86 
  75      9260ED
  76 01b4 38AF2531 		.ascii	"8\257%1\251%6D\353\033\310\266\003\225\354|\322\010"
  76      A9253644 
  76      EB1BC8B6 
  76      0395EC7C 
  76      D208
  77 01c6 D6CFABFE 		.ascii	"\326\317\253\376\244\302]B2\360\3558BkRH\0342\337\026"
  77      A4C25D42 
  77      32F0ED38 
ARM GAS  C:\Users\AMANRA~1\AppData\Local\Temp\ccHOYdie.s 			page 6


  77      426B5248 
  77      1C32DF16 
  78 01da 19866B30 		.ascii	"\031\206k0\006\243\351m\216\245\226\326\306\256\340"
  78      06A3E96D 
  78      8EA596D6 
  78      C6AEE0
  79 01e9 4B39D590 		.ascii	"K9\325\220\355(\356~x2\307\377\304\332r\264'\345\253"
  79      ED28EE7E 
  79      7832C7FF 
  79      C4DA72B4 
  79      27E5AB
  80 01fc D794BAAB 		.ascii	"\327\224\272\253e\273Z\031\367\032\274\375^\350\222"
  80      65BB5A19 
  80      F71ABCFD 
  80      5EE892
  81 020b 0B1E7792 		.ascii	"\013\036w\222\372\357\251-F|\310m+yp\244 8HtN\326b\345"
  81      FAEFA92D 
  81      467CC86D 
  81      2B7970A4 
  81      20384874 
  82 0223 7C5C5542 		.ascii	"|\\UB\202\211\243n\224\003T\327\327^\255\302pj\031N"
  82      8289A36E 
  82      940354D7 
  82      D75EADC2 
  82      706A194E 
  83 0237 8595D411 		.ascii	"\205\225\324\021\311T\004_N\261\337\332\270j\331\312"
  83      C954045F 
  83      4EB1DFDA 
  83      B86AD9CA 
  84 0247 5C3CEB73 		.ascii	"\\<\353seAk`d\010U\362\216(\367\240\224d511E\341\220"
  84      65416B60 
  84      640855F2 
  84      8E28F7A0 
  84      94643531 
  85 025f A60EB80A 		.ascii	"\246\016\270\012{\024\211F\364n\036\321\303\301\023"
  85      7B148946 
  85      F46E1ED1 
  85      C3C113
  86 026e 5279E5F8 		.ascii	"Ry\345\370\212\354\277\027V\223N\203$\022\344\002\242"
  86      8AECBF17 
  86      56934E83 
  86      2412E402 
  86      A2
  87 027f 3CE504A8 		.ascii	"<\345\004\250\252h\245\177QE\255\177\251\"|\007\315"
  87      AA68A57F 
  87      5145AD7F 
  87      A9227C07 
  87      CD
  88 0290 DE11BC   		.ascii	"\336\021\274"
  89              		.text
  90              		.section	.gnu.lto_.pureconst.29debcc4,"",%progbits
  91 0000 789C0DC3 		.ascii	"x\234\015\303\311\021\200 \024D\301?\202\210\270\240"
  91      C9118020 
  91      1444C13F 
  91      8288B8A0 
  92 0010 DE782998 		.ascii	"\336x)\230\377e\242\323\256\352\022\021\357\377\011"
  92      FF65A2D3 
ARM GAS  C:\Users\AMANRA~1\AppData\Local\Temp\ccHOYdie.s 			page 7


  92      AEEA1211 
  92      EFFF09
  93 001f C464252B 		.ascii	"\304d%+3SX\250\326:\232\265\261spZ\235k\334\326\007"
  93      335358A8 
  93      D63A9AB5 
  93      B173705A 
  93      9D6BDCD6 
  94 0034 89850675 		.ascii	"\211\205\006u"
  95              		.text
  96              		.section	.gnu.lto_iq_read.29debcc4,"",%progbits
  97 0000 789C9D54 		.ascii	"x\234\235T\373O\\E\024\236s\347\276\366\301\222B\241"
  97      FB4F5C45 
  97      149E73E7 
  97      BEF6C192 
  97      42A1
  98 0012 295483B1 		.ascii	")T\203\261d\323&e\305\324\326\306\370\273\376\025*\244"
  98      64D32665 
  98      C5D4D6C6 
  98      F8BBFE15 
  98      2AA4
  99 0024 A624C652 		.ascii	"\246$\306R7\375\231\013\273-\224G\304\004V\272\331\232"
  99      37FD990B 
  99      BB2D9447 
  99      C40456BA 
  99      D99A
 100 0036 C552D7DA 		.ascii	"\305R\327\332\230\372\240\"K\321uQ*Vh\213\333\026[\304"
 100      98FAA022 
 100      4BD17551 
 100      2A56688B 
 100      DB165BC4 
 101 004a A45B69DA 		.ascii	"\244[i\332\020\210\3064\215Z\360\234\231\273\\\330`"
 101      1088C634 
 101      8D5AF09C 
 101      99BB5CD8 
 101      60
 102 005b 0BDEECCE 		.ascii	"\013\336\354\316\235{f\276\357\314\367\235\231\321\031"
 102      9D7B66BE 
 102      EFCCF79D 
 102      99D119
 103 006a 633193B1 		.ascii	"c1\223\261\027\360]\217\177p3P:'\030k4\025\205\267\370"
 103      17F05D8F 
 103      7F703350 
 103      3A27186B 
 103      341585B7 
 104 007f 99E556A9 		.ascii	"\231\345V\251\365rPeXU\264\366-\030\326\303{1\254\201"
 104      F5725065 
 104      5855B4F6 
 104      2D18D6C3 
 104      7B31AC81 
 105 0093 4B8675C5 		.ascii	"K\206u\305x\3604\206\315\236\235\0306ra3\327q\001P\307"
 105      78F03486 
 105      CD9E9D18 
 105      36726133 
 105      D7710150 
 106 00a8 32813528 		.ascii	"2\2015(\\\325t\003C\015\320\316\2738\\\011\177\022\343"
 106      5CD57403 
 106      430DD0CE 
ARM GAS  C:\Users\AMANRA~1\AppData\Local\Temp\ccHOYdie.s 			page 8


 106      BB385C09 
 106      7F12E3
 107 00bb 6D3CC619 		.ascii	"m<\306\031\250\370\371\373x4\353\243O\200\012\374\234"
 107      A8F8F9FB 
 107      7834EBA3 
 107      4F800AFC 
 107      9C
 108 00cc 9B1FEDF7 		.ascii	"\233\037\355\367\356HXV\223\225z\367\301\213\275\241"
 108      EE485856 
 108      93957AF7 
 108      C18BBDA1 
 109 00dc 232FC5B8 		.ascii	"#/\305\270\302\"8\273\037\266\301\347\260\215\326}\016"
 109      C22238BB 
 109      1FB6C1E7 
 109      B08DD67D 
 109      0E
 110 00ed 76E0DCDE 		.ascii	"v\340\334\336\316\023o+|\0270\354\017Mu/i\376S\002\367"
 110      CE136F2B 
 110      7C1730EC 
 110      0F4D752F 
 110      69FE5302 
 111 0102 671FB7B6 		.ascii	"g\037\267\266\3078\207/\200\257\004b\210\301\000\370"
 111      C738872F 
 111      80AF0462 
 111      88C100F8 
 112 0112 71FADF6D 		.ascii	"q\372\337mW#.^-\240\357\334I,\202\015\275\375\201\200"
 112      57232E5E 
 112      2DA0EFDC 
 112      492C820D 
 112      BDFD8180 
 113 0126 AAF0653E 		.ascii	"\252\360e>Te0(\240\017\255\256\210\217\357\026\320\333"
 113      54653028 
 113      A00FADAE 
 113      888FEF16 
 113      D0DB
 114 0138 174F761A 		.ascii	"\027Ov\0326\364\237\204\200*\220\314\207*\014\206\300"
 114      36F49F84 
 114      802A90CC 
 114      872A0C86 
 114      C0
 115 0149 4FF3FB4E 		.ascii	"O\363\373Nu\335\320\371\036\201\235\276\327\273\340"
 115      75DDD0F9 
 115      1E819DBE 
 115      D7BBE0
 116 0158 A93C29B0 		.ascii	"\251<)\260\363wx\324J\205+\010~~5\234\036\234=x=1\254"
 116      F37778D4 
 116      4A852B08 
 116      7E7E359C 
 116      1E9C3D78 
 117 016f F27D0279 		.ascii	"\362}\002y\346\263\276\367\27562\323\313\255>K!\340"
 117      E6B3BEF7 
 117      BD3632D3 
 117      CBAD3E4B 
 117      21E0
 118 0181 576B026F 		.ascii	"Wk\002o}\272\330]\240\253\3605T\3020T\3069#3\321\303"
 118      7DBAD85D 
 118      A0ABF035 
ARM GAS  C:\Users\AMANRA~1\AppData\Local\Temp\ccHOYdie.s 			page 9


 118      54C23054 
 118      C6392333 
 119 0197 14E80C18 		.ascii	"\024\350\014\030Sr#g'\265\224\265\270\324l\245f\023"
 119      53722367 
 119      27B594B5 
 119      B8D46CA5 
 119      6613
 120 01a9 D0D33FB3 		.ascii	"\320\323?\263\351)\300\265k\012i\347\330\350*\3654\352"
 120      E929C0B5 
 120      6B0A69E7 
 120      D8E82AF5 
 120      34EA
 121 01bb E9D418F4 		.ascii	"\351\324\030\364iR\343\242\306M\215\207\032/5\005\204"
 121      6952E3A2 
 121      C64D8D87 
 121      1A2F3505 
 121      84
 122 01cc F5515328 		.ascii	"\365QS(\324\027\0019_\014\324\337,\"%\2142\227\002\331"
 122      D4170139 
 122      5F0CD4DF 
 122      2C22258C 
 122      329702D9 
 123 01e0 5A26CC2D 		.ascii	"Z&\314-g\264\016\306Zp}\270}\254\024;\206\336a/\224"
 123      67B40EC6 
 123      5A707DB8 
 123      7DAC143B 
 123      86DE612F 
 124 01f5 62F7209D 		.ascii	"b\367 \235\274\333\232\325i\331Q\016(,r$}\311\240\215"
 124      BCDB9AD5 
 124      69D9510E 
 124      282C7224 
 124      7DC9A08D 
 125 0209 C38529E7 		.ascii	"\303\205)\347\323\343\243z\034\336k\264,\013}4\242\274"
 125      D3E3A37A 
 125      1CDE6BB4 
 125      2C0B7D34 
 125      A2BC
 126 021b 08BE211B 		.ascii	"\010\276!\033p\354\332@r\240 \360\261\025n\244!\023"
 126      70ECDA40 
 126      72A020F0 
 126      B1156EA4 
 126      2113
 127 022d D210876E 		.ascii	"\322\020\207n2\201\301\010\004\330o\020\236\030\331"
 127      3281C108 
 127      04D86F10 
 127      9E18D9
 128 023c 6D334779 		.ascii	"m3Gy\261\260\356\030n\226\026\177.s[\026\344\370\346"
 128      B1B0EE18 
 128      6E96167F 
 128      2E735B16 
 128      E4F8E6
 129 024f BC54F1D7 		.ascii	"\274T\361\327\331c\222}\353$\373\016\223\315BS\374I"
 129      D963927D 
 129      EB24FB0E 
 129      93CD4253 
 129      FC49
 130 0261 E2220F90 		.ascii	"\342\"\017\220O\244Rm\225\263 \367J\224\027b\336\246"
ARM GAS  C:\Users\AMANRA~1\AppData\Local\Temp\ccHOYdie.s 			page 10


 130      4FA4526D 
 130      95B320F7 
 130      4A941762 
 130      DEA6
 131 0273 E4DD9E90 		.ascii	"\344\335\236\220G\346U\036#1\323<5\343\301\254rH\205"
 131      47E6551E 
 131      2331D33C 
 131      35E3C1AC 
 131      724885
 132 0286 51911528 		.ascii	"Q\221\025(\353\005\314\212d\1774\217\031\222\213#\235"
 132      EB05CC8A 
 132      647F348F 
 132      19928B23 
 132      9D
 133 0297 A01F7B59 		.ascii	"\240\037{Y\006\324\015\222\177/\310\025\"\037\313'\327"
 133      06D40D92 
 133      7F2FC815 
 133      221FCB27 
 133      D7
 134 02a8 900E23A1 		.ascii	"\220\016#\241\236\243\266c2\241&g\325\311X\011\206\311"
 134      9EA3B663 
 134      32A12667 
 134      D5C95809 
 134      86C9
 135 02ba 890A6104 		.ascii	"\211\012a\004n\003\014\3112Ln\2253\012)\202\317}\300"
 135      6E030CC9 
 135      324C6E95 
 135      330A2982 
 135      CF7DC0
 136 02cd 5EB1C2D0 		.ascii	"^\261\302\320)\376\327\255\347\321+\215\265oA\253\346"
 136      29FED7AD 
 136      E7D12B8D 
 136      B56F41AB 
 136      E6
 137 02de E0687CA1 		.ascii	"\340h|\241]\023\333\230\316\307\340\334M\243\341\241"
 137      5D13DB98 
 137      CEC7E0DC 
 137      4DA3E1A1 
 138 02ee 65C6B82B 		.ascii	"e\306\270+B\272\341\007h@T).\007\331b\334-\015\215\215"
 138      42BAE107 
 138      68405429 
 138      2E07D962 
 138      DC2D0D8D 
 139 0303 B8650263 		.ascii	"\270e\002c]\232w\221\334\213\216\334\037\205\334P,'"
 139      5D9A7791 
 139      DC8B8EDC 
 139      1F85DC50 
 139      2C27
 140 0315 CE8C124A 		.ascii	"\316\214\022J\024+\323*b\353\247\035wh' \200\\b+\350"
 140      142BD32A 
 140      62EBA71D 
 140      77682720 
 140      805C622B 
 141 032a 2CBC17E5 		.ascii	",\274\027\345\241\031S#\367\217\357Y\355\006\216\033"
 141      A1195323 
 141      F78FEF59 
 141      ED068E1B 
ARM GAS  C:\Users\AMANRA~1\AppData\Local\Temp\ccHOYdie.s 			page 11


 142 033a ECC3ADB6 		.ascii	"\354\303\255\266\374\245G\311\277\264B~\211\224\217"
 142      FCA547C9 
 142      BFB4427E 
 142      89948F
 143 0349 CBEE38F7 		.ascii	"\313\3568\367\252d,\023c%N\021\006i\327\225\311\312"
 143      AA642C13 
 143      63254E11 
 143      0669D795 
 143      C9CA
 144 035b 753F2727 		.ascii	"u?''\225\333\231\227'\015S\245\312\245\223\037e\213"
 144      95DB9997 
 144      270D53A5 
 144      CAA5931F 
 144      658B
 145 036d E42CD706 		.ascii	"\344,\327\006w\317e\241[\334AW\320NRR\372\337:&\205"
 145      77CF65A1 
 145      5BDC4157 
 145      D04E5252 
 145      FADF3A26 
 146 0382 0E5CAE0B 		.ascii	"\016\\\256\0133/\227\361L\326>\027\356\015&\377\311"
 146      332F97F1 
 146      4CD63E17 
 146      EE0D26FF 
 146      C9
 147 0393 499EC9D5 		.ascii	"I\236\311\325\362\264Kry\220\316\226\227i=\255\255Q"
 147      F2B44B72 
 147      7990CE96 
 147      97693DAD 
 147      AD51
 148 03a5 CD784DFE 		.ascii	"\315xM\376i\317\347\277\352\024\365\032\025\325#\212"
 148      69CFE7BF 
 148      EA14F51A 
 148      15D5238A 
 149 03b5 66B2E927 		.ascii	"f\262\351'\354\242\015u<\242h\327\327\334\263gsb\275"
 149      ECA20D75 
 149      3CA268D7 
 149      D7DCB367 
 149      7362BD
 150 03c8 1B143BE5 		.ascii	"\033\024;\345\210\375Y\236\323\377\255\353\206\243\353"
 150      88FD599E 
 150      D3FFADEB 
 150      86A3EB
 151 03d7 26E9F20A 		.ascii	"&\351\362\012]\256\225\267s2w\264\012\326{\035\003\335"
 151      5DAE95B7 
 151      733277B4 
 151      0AD67B1D 
 151      03DD
 152 03e9 8FD3CEFD 		.ascii	"\217\323\316\375\370\213\254\310\362\325\341C.y\272"
 152      F88BACC8 
 152      F2D5E143 
 152      2E79BA
 153 03f8 D2EB3B5D 		.ascii	"\322\353;]\253\231g\034\346_i\315>6\217\227\357BG\231"
 153      AB99671C 
 153      E65F69CD 
 153      3E368F97 
 153      EF424799 
 154 040c 7DA868A4 		.ascii	"}\250h\244\005}G\015(lgUU\000\177\265\007\352j\352\016"
ARM GAS  C:\Users\AMANRA~1\AppData\Local\Temp\ccHOYdie.s 			page 12


 154      057D470D 
 154      286C6755 
 154      55007FB5 
 154      07EA6AEA 
 155 0421 06ABF755 		.ascii	"\006\253\367U?\0238\030\014\034x\355\215@\360\255Zz"
 155      3F133818 
 155      0C1C78ED 
 155      8D40F0AD 
 155      5A7A
 156 0433 BF72E8F0 		.ascii	"\277r\350\360\376\303\373\203U\265\214\327\035\252W"
 156      FEC3FB83 
 156      55B58CD7 
 156      1DAA57
 157 0442 6AEAE14D 		.ascii	"j\352\341M%\370\254\022\254\376\027\326,\302\023"
 157      25F8AC12 
 157      ACFE17D6 
 157      2CC213
 158              		.text
 159              		.section	.gnu.lto_oq_write.29debcc4,"",%progbits
 160 0000 789C9D54 		.ascii	"x\234\235T\357O\233U\024\276\347\275\357\217\376\242"
 160      EF4F9B55 
 160      14BEE7BD 
 160      EF8FFEA2 
 161 0010 24633005 		.ascii	"$c0\005\246\030%\315\226\214\212Y6\027\377\002?\372"
 161      A61825CD 
 161      968C8A59 
 161      3617FF02 
 161      3FFA
 162 0022 17A89099 		.ascii	"\027\250\220\231\221\030a6\373\314\205\326\301\000\263"
 162      91186136 
 162      FBCC85D6 
 162      C100B3
 163 0031 194B5D9A 		.ascii	"\031K]\232*\305A\220\030\243N\034\203\015\355\332\015"
 163      2AC54190 
 163      18A34E1C 
 163      830DEDDA 
 163      0D
 164 0042 871336B0 		.ascii	"\207\0236\260\333pCLd\253\031\022\210~X\226\2711\317"
 164      DB70434C 
 164      64AB1912 
 164      887E5896 
 164      B931CF
 165 0055 B9F72D85 		.ascii	"\271\367-\205\0067\260\201\333\333s\357\363\234\373"
 165      0637B081 
 165      DBDB73EF 
 165      F39CFB
 166 0064 3CE7DC6B 		.ascii	"<\347\334k2\306\272\034\214\275\202\337\015\370\017"
 166      32C6BA1C 
 166      8CBD82DF 
 166      0DF80F
 167 0073 2E06DAB1 		.ascii	".\006\332\261\011\306\232\034\232\306[}L\270t\032=\034"
 167      09C69A1C 
 167      9AC65B7D 
 167      4CB8741A 
 167      3D1C
 168 0085 7415D635 		.ascii	"t\025\3265\243c\033\206\315\320^\014\033\340TaS\263"
 168      A3631B86 
ARM GAS  C:\Users\AMANRA~1\AppData\Local\Temp\ccHOYdie.s 			page 13


 168      CDD05E0C 
 168      1BE05461 
 168      53B3
 169 0097 EE3D8F61 		.ascii	"\356=\217a\307\361\235\030\266\262aGv\342\004\240\211"
 169      C7F19D18 
 169      B6B26147 
 169      76E204A0 
 169      89
 170 00a8 70006BD4 		.ascii	"p\000k\324\270n\230\026\206\032\241\203\2079L\206\276"
 170      B86E9816 
 170      861AA183 
 170      87394C86 
 170      BE
 171 00b9 8AF1761E 		.ascii	"\212\361v\036\343\014t\374\371\327xt\316K?\001*\360"
 171      E30C74FC 
 171      F9D77874 
 171      CE4B3F01 
 171      2AF0
 172 00cb E7C2E2E8 		.ascii	"\347\302\342\350\200gG\237\020\315\"\361\321i\253k\340"
 172      8067479F 
 172      10CD22F1 
 172      D169AB6B 
 172      E0
 173 00dc 8A70C6B8 		.ascii	"\212p\306\270\306\"\270}\000\312\341\033(\247\203\177"
 173      C622B87D 
 173      00CAE11B 
 173      28A7837F 
 174 00ec 0B3B7073 		.ascii	"\013;ps\346\224\230\325\371.`8\037O\235\374P\367\365"
 174      E69498D5 
 174      F92E6038 
 174      1F4F9DFC 
 174      50F7F5
 175 00ff 4AE0F95E 		.ascii	"J\340\371^.^\210q\016\247\200\257\006b\210\301 \370"
 175      2E5E8871 
 175      0EA780AF 
 175      066288C1 
 175      20F8
 176 0111 70FB3FED 		.ascii	"p\373?\355W#N^-\241\037\374\321\267\0146\364V\237\204"
 176      57234E5E 
 176      2DA11FFC 
 176      D1B70C36 
 176      F4569F84 
 177 0125 EA703A1F 		.ascii	"\352p:\037\2523\030\222\320\207\"\034\361\362\335\022"
 177      AA331892 
 177      D087221C 
 177      F1F2DD12 
 178 0135 7AEBD289 		.ascii	"z\353\322\211c\226\015}\360TT$t<,\014\347c5\006g\300"
 178      63960D7D 
 178      F0545424 
 178      743C2C0C 
 178      E7633506 
 179 014b 47809EDE 		.ascii	"G\200\236\336\360\015\223\357\221\340\231\371\356%w"
 179      F00D93EF 
 179      91E099F9 
 179      EE2577
 180 015a E509095E 		.ascii	"\345\011\011^\374\270\274;(.\012\211?\273\026O\037\334"
 180      FCB8BC3B 
ARM GAS  C:\Users\AMANRA~1\AppData\Local\Temp\ccHOYdie.s 			page 14


 180      282E0A89 
 180      3FBB164F 
 180      1FDC
 181 016c 3E74BD6F 		.ascii	">t\275oD\347\373$\364\363\223=\237zlh\272\233\213\036"
 181      44E7FB24 
 181      F4F3933D 
 181      9F7A6C68 
 181      BA9B8B1E 
 182 0180 A111F0BB 		.ascii	"\241\021\360\273u\201\277\177\275\334Y`\352\360=T\302"
 182      7581BF7F 
 182      BDDC5960 
 182      EAF03D54 
 182      C2
 183 0191 0854C639 		.ascii	"\010T\3069#;\321\305\004\230\014\030\323\262+_N\031"
 183      233BD1C5 
 183      04980C18 
 183      D3B22B5F 
 183      4E19
 184 01a3 09B1FCA8 		.ascii	"\011\261\374\250E$2\333\243\251L\277\366\034\340\341"
 184      452432DB 
 184      A3A94CBF 
 184      F61CE0E1 
 185 01b3 0D0D0793 		.ascii	"\015\015\007\223\343`\35143hf\322`\321O\007\015N\032"
 185      E360E934 
 185      336866D2 
 185      60D14F07 
 185      0D4E1A
 186 01c6 5C34B869 		.ascii	"\\4\270i\360\320P@X/\015\205R\376\026 \357\213\200\346"
 186      F0D05040 
 186      582F0D85 
 186      52FE1620 
 186      EF8B80E6 
 187 01da 5B65A498 		.ascii	"[e\244\230Q\346\022 cK\245\275e\214\316\301X+\236\017"
 187      51E61220 
 187      634BA5BD 
 187      658CCEC1 
 187      582B9E0F 
 188 01ee 3B4824D8 		.ascii	";H$\330\0214\017g\301\004\233\207\344\360\235\3719\223"
 188      11340F67 
 188      C1049B87 
 188      E4F09DF9 
 188      3993
 189 0200 8E1DE580 		.ascii	"\216\035\345\200\302\"\357%/[\324;\\\232r69>j\306\341"
 189      C222EF25 
 189      2F5BD43B 
 189      5C9A7236 
 189      393E6AC6 
 190 0215 93262144 		.ascii	"\223&!DE\214;\242|\013\234#\033p\355\332\340\360`\201"
 190      458C3BA2 
 190      7C0B9C23 
 190      1B70EDDA 
 190      E0F06081 
 191 0229 FF0B116A 		.ascii	"\377\013\021j\242%'$!\016\235d\002\203\024\370\331m"
 191      A2252724 
 191      210E9D64 
 191      028314F8 
 191      D96D
ARM GAS  C:\Users\AMANRA~1\AppData\Local\Temp\ccHOYdie.s 			page 15


 192 023b 084DA476 		.ascii	"\010M\244v\333\314Q^$\255;\202\355\322\352\313f\376"
 192      DBCC515E 
 192      24AD3B82 
 192      EDD2EACB 
 192      66FE
 193 024d 730ED4FA 		.ascii	"s\016\324\372\326\274T\361\267\330\023\222\235\317%"
 193      D6BC54F1 
 193      B7D81392 
 193      9DCF25
 194 025c BB80C932 		.ascii	"\273\200\3112\320\034\177\206\270\310\003\344\223\251"
 194      D01C7F86 
 194      B8C803E4 
 194      93A9
 195 026a 745B6506 		.ascii	"t[e\006T\263Dy!\346m\036\276s/\350Vy\265'HL\267L\317"
 195      54B34479 
 195      21E66D1E 
 195      BE732FE8 
 195      5679B527 
 196 0283 BA31AB5A 		.ascii	"\2721\253Z2aTf\005\312\372\003fE\262\277[\306,\305\305"
 196      32615466 
 196      05CAFA03 
 196      6645B2BF 
 196      5BC62CC5 
 197 0298 914ED28F 		.ascii	"\221N\322\217\275\252\002\372&\311/Jr\215\310\307\362"
 197      BDAA02FA 
 197      26C92F4A 
 197      728DC8C7 
 197      F2
 198 02a9 C90DA4C3 		.ascii	"\311\015\244\303H\360\370a\3331\225\320P\273\352T\254"
 198      48F0F861 
 198      DB3195D0 
 198      50BBEA54 
 198      AC
 199 02ba 18C3E444 		.ascii	"\030\303\344D\2054\002\333\000C\252\014S\317\252\035"
 199      853402DB 
 199      0043AA0C 
 199      53CFAA1D 
 200 02ca 8514C1CF 		.ascii	"\205\024\301\317]\300Y\221\306\320)~\377\376\313\350"
 200      5DC05991 
 200      C6D0297E 
 200      FFFECBE8 
 201 02da 95C13AB6 		.ascii	"\225\301:\266\241U\013p8\276t\324\220mL\367ch\341\246"
 201      A1550B70 
 201      38BE74D4 
 201      906D4CF7 
 201      6368E1A6 
 202 02ee D5F85038 		.ascii	"\325\370P8b\334\025!\335\360#4\"J\217\362\022d\213q"
 202      62DC1521 
 202      DDF02334 
 202      224A8FF2 
 202      12648B71 
 203 0302 B732F441 		.ascii	"\2672\364A\312\245\022X\033\322\274\213\344^\312\311"
 203      CAA51258 
 203      1BD2BC8B 
 203      E45ECAC9 
 204 0312 FD49CA0D 		.ascii	"\375I\312\015\306\262\342\020b\331\305J\267\311\330"
 204      C6B2E210 
ARM GAS  C:\Users\AMANRA~1\AppData\Local\Temp\ccHOYdie.s 			page 16


 204      62D9C54A 
 204      B7C9D8
 205 0321 C669C773 		.ascii	"\306i\307s\264\023\340G.\331\012&\013\355Eyh\306t\352"
 205      B413E047 
 205      2ED90A26 
 205      0BED4579 
 205      68C674EA 
 206 0335 6ED79EB5 		.ascii	"n\327\236\265n\340\272\305>{\332\226\377\350q\362/\257"
 206      6EE0BAC5 
 206      3E7BDA96 
 206      FFE871F2 
 206      2FAF
 207 0347 925FACE4 		.ascii	"\222_\254\344\343\261\337\237|C1\226\252\205\\\021\206"
 207      E3B1DF9F 
 207      7C433196 
 207      AA855C11 
 207      86
 208 0358 A8EB4A55 		.ascii	"\250\353JU\345:_S\233\312\354\314+\233F\250Re\312\311"
 208      E53A5F53 
 208      9BCAECCC 
 208      2B9B46A8 
 208      5265CAC9 
 209 036c B6DB766B 		.ascii	"\266\333vk:7\331=W\244n\371\006M\242\235\244\244\344"
 209      3A37D93D 
 209      57A46EF9 
 209      064DA29D 
 209      A4A4E4
 210 037f BF754C49 		.ascii	"\277uLI\035Ny\342\262\2252\266g\223\2736\231\374\347"
 210      1D4E79E2 
 210      B29532B6 
 210      6793BB36 
 210      99FCE7
 211 0392 5CF274B6 		.ascii	"\\\362t\266\226\375N\305\345F:[^\272\255\337X\247\232"
 211      96FD4EC5 
 211      E5463A5B 
 211      5EBAADDF 
 211      58A79A
 212 03a5 F19AFCDB 		.ascii	"\361\232\374\333\236\317\1775W\324kTT\267,\232\203\315"
 212      9ECF7F35 
 212      57D46B54 
 212      54B72C9A 
 212      83CD
 213 03b7 6CB78B76 		.ascii	"l\267\213v&\374\230\242]_\267g\217f\305z6)v:'\366\027"
 213      26FC98A2 
 213      5D5FB767 
 213      8F66C57A 
 213      3629763A 
 214 03ce 754FFFB7 		.ascii	"uO\377\267\256\0339]7I\227G\352r\256~\235\243\027\354"
 214      AE1B395D 
 214      37499747 
 214      EA72AE7E 
 214      9DA317EC 
 215 03e2 AB55B0D1 		.ascii	"\253U\260\321\347\030\350}\234\311\275\217\277\252\212"
 215      E718E87D 
 215      9CC9BD8F 
 215      BFAA8A
 216 03f1 AC3C1D5E 		.ascii	"\254<\035^\344R\267+\271\261\333\265\226y6\307\374\033"
ARM GAS  C:\Users\AMANRA~1\AppData\Local\Temp\ccHOYdie.s 			page 17


 216      E452B72B 
 216      B9B1DBB5 
 216      967936C7 
 216      FC1B
 217 0403 9DD9CB16 		.ascii	"\235\331\313\026\361\361]\012\227\332\227\212VZ\321"
 217      F1F15D0A 
 217      97DA978A 
 217      565AD1
 218 0412 77D480C2 		.ascii	"w\324\200\302vVU\371\361\257\366@]M]}\240z_\365\213"
 218      765655F9 
 218      F1AFF640 
 218      5D4D5D7D 
 218      A07A5FF5 
 219 0427 FEFA80FF 		.ascii	"\376\372\200\377\300\233o\373\003\357\326\322\367\353"
 219      C09B6FFB 
 219      03EFD6D2 
 219      F7EB
 220 0435 070FED3F 		.ascii	"\007\017\355?\264?PU\313x\375\301\006\255\246\001\336"
 220      B43F5055 
 220      CB78FDC1 
 220      06ADA601 
 220      DE
 221 0446 D1022F69 		.ascii	"\321\002/i\201\352\177\001\236\305\305?"
 221      81EA7F01 
 221      9EC5C53F 
 222              		.text
 223              		.section	.gnu.lto_iqGetTimeout.part.0.29debcc4,"",%progbits
 224 0000 789C9556 		.ascii	"x\234\225V[LTg\020\376\347\374\347\266\273\334\022["
 224      5B4C5467 
 224      10FEE7FC 
 224      E7B6BBDC 
 224      125B
 225 0012 D3181E30 		.ascii	"\323\030\0360)\202\306r45m|j\033^\364\201\244\321\247"
 225      2982C672 
 225      34356D7C 
 225      6A1B5EF4 
 225      81A4D1A7 
 226 0026 264DA86C 		.ascii	"&M\250l7\262\211\353\342.4\372\344\021P\301\0135\021"
 226      37B289EB 
 226      E22E34FA 
 226      E41150C1 
 226      0B3511
 227 0039 29C515D7 		.ascii	")\305\025\327*\025\211\012\265\264(\"PlE\004W\245^P"
 227      2A15890A 
 227      B5B42822 
 227      506C4504 
 227      57A55E50 
 228 004d 2C562858 		.ascii	",V(X\300+I/i\032\350\314\177V\\\027\264r\002s\376\375"
 228      C02B492F 
 228      691AE8CC 
 228      7F565C17 
 228      B4720273 
 229 0063 67E69BFB 		.ascii	"g\346\233\373\354\252\2141\273\2151\003\030\373\004"
 229      ECAA8C31 
 229      BB8D3103 
 229      18FB04
 230 0072 CF6063A0 		.ascii	"\317`c\240\357\012\341A\007I\274%\211\027\2450\323."
ARM GAS  C:\Users\AMANRA~1\AppData\Local\Temp\ccHOYdie.s 			page 18


 230      EF0AE141 
 230      0749BC25 
 230      8917A530 
 230      D32E
 231 0084 138DE120 		.ascii	"\023\215\341 \323\355&]\226\224\302\016\206\367\352"
 231      D3ED265D 
 231      9694C20E 
 231      86F7EA
 232 0093 0E05EF15 		.ascii	"\016\005\357\025P\255{\0254\353\240\001\320\301\324"
 232      50AD7B15 
 232      34EBA001 
 232      D0C1D4
 233 00a2 816DD425 		.ascii	"\201m\324%.+\252\006\033a\007/\345p\245\260.\300\267"
 233      2E2BAA06 
 233      1B61072F 
 233      E570A5B0 
 233      2EC0B7
 234 00b5 F3006720 		.ascii	"\363\000g \343\307'\027+\006\342\350#@\022~\254:S\320"
 234      E3C72717 
 234      2B06E2E8 
 234      2340127E 
 234      AC3A53D0 
 235 00c9 04F30F9B 		.ascii	"\004\363\017\233\370\264~qy\326\341\202\315\313\002"
 235      F8B47E71 
 235      79D6E182 
 235      CDCB02
 236 00d8 5C626528 		.ascii	"\\be(]\017\211\360-$\222\237\337\301|\224=\260k\337"
 236      5D0F89F0 
 236      2D24929F 
 236      DFC17C94 
 236      3DB06BDF 
 237 00ec E7127F0B 		.ascii	"\347\022\177\013\030\236O\367\354\231PR\252L3\337l\275"
 237      189E4FF7 
 237      EC995052 
 237      AA4C33DF 
 237      6CBD
 238 00fe 7D889B6F 		.ascii	"}\210\233o\0068\207\357\201G*\342\025\203\006H!\371"
 238      063887EF 
 238      81472AE2 
 238      15830648 
 238      21F9
 239 0110 DB25A583 		.ascii	"\333%\245\203q|\261\320\355\335W|\322\226|P\3506\315"
 239      717CB1D0 
 239      EDDD577C 
 239      D2967C50 
 239      E836CD
 240 0123 09E62704 		.ascii	"\011\346'\004\270\014'\237\327\245\007E\003[j\0069_"
 240      B80C279F 
 240      D7A50745 
 240      035B6A06 
 240      395F
 241 0135 2AD49A77 		.ascii	"*\324\232w\007[\344\260Z(4{S\201Yn\312\001\256@\243"
 241      075BE4B0 
 241      5A28347B 
 241      5381596E 
 241      CA01AE40 
 242 014a A5FA7622 		.ascii	"\245\372v\",\232T\354\377f|O\254*\303iH\206S\220,\002"
ARM GAS  C:\Users\AMANRA~1\AppData\Local\Temp\ccHOYdie.s 			page 19


 242      2C9A54EC 
 242      FF667C4F 
 242      AC2AC369 
 242      48865390 
 243 0160 6A025510 		.ascii	"j\002U\020i\222_(\342\356\013Y\367e\034X\024\253\367"
 243      69925F28 
 243      E2EE0B59 
 243      F7651C58 
 243      14ABF7
 244 0173 DE7B1A83 		.ascii	"\336{\032\2033\304\223\242y\003\201\205\0373h&\036'"
 244      33C493A2 
 244      79038185 
 244      1F336826 
 244      1E27
 245 0185 5ED585EE 		.ascii	"^\325\205\356\026\007\337\011\002\344\310\361\003\345"
 245      1607DF09 
 245      02E4C8F1 
 245      03E5
 246 0193 3161671F 		.ascii	"1ag\037\325\244\356-\330\276\323\024\221\252\320:m\244"
 246      D5A4EE2D 
 246      D8BED314 
 246      91AAD03A 
 246      6DA4
 247 01a5 91C8D729 		.ascii	"\221\310\327)\231?\240\327\320B\350rD@\014\332@\205"
 247      993FA0D7 
 247      D042E872 
 247      44400CDA 
 247      4085
 248 01b7 B3140912 		.ascii	"\263\024\011\022\274\357\252;uC\346]\226\325\326C\267"
 248      BCEFAA3B 
 248      7543E65D 
 248      96D5D643 
 248      B7
 249 01c8 AEE86495 		.ascii	"\256\350d\225\252\3317ko\275i\026\277\217\365\204\037"
 249      AAD9376B 
 249      6FBD6916 
 249      BF8FF584 
 249      1F
 250 01d9 5F625386 		.ascii	"_bS\206\237\310\024&\000\316!n\224/\241Kq\214\356\313"
 250      9FC81426 
 250      00CE216E 
 250      942FA14B 
 250      718CEECB 
 251 01ed B812CDBA 		.ascii	"\270\022\315\272\323>\257\034\375h'\246\372\234\217"
 251      D33EAF1C 
 251      FD6827A6 
 251      FA9C8F
 252 01fc E711AB63 		.ascii	"\347\021\253c*\326@ 5\223\021\243\214k\323$\251rFIz"
 252      2AD64020 
 252      359311A3 
 252      8C6BD324 
 252      A9724649 
 253 0211 588949EA 		.ascii	"X\211I\352$\317/LMR\027:p\221\222\204\004\207M\246\036"
 253      24CF2F4C 
 253      4D52173A 
 253      70919284 
 253      04874DA6 
ARM GAS  C:\Users\AMANRA~1\AppData\Local\Temp\ccHOYdie.s 			page 20


 254 0226 40FEC992 		.ascii	"@\376\311\222\203}\242\363v=\355\366\363\324B\321\375"
 254      837DA2F3 
 254      763DEDF6 
 254      F3D442D1 
 254      FD
 255 0237 8E1D1FC2 		.ascii	"\216\035\037\302\276\301\264P\377\324v+\2469>\261\325"
 255      BEC1B450 
 255      FFD4762B 
 255      A6393EB1 
 255      D5
 256 0248 341B535E 		.ascii	"4\033S^\177\015\200ZZ\302\346\3268\021\031\211\256\020"
 256      7F0D805A 
 256      5AC2E6D6 
 256      38111989 
 256      AE10
 257 025a 416B28AD 		.ascii	"Ak(\255\321Q'bCb\263#\261;\2100V\304\031\243)-\346:"
 257      D1512762 
 257      4362B323 
 257      B13B8830 
 257      56C419A3 
 258 0272 BDF910E4 		.ascii	"\275\371\020\344\213\252\225\016\025\375\021\277\240"
 258      8BAA950E 
 258      15FD11BF 
 258      A0
 259 027f 5A44D55D 		.ascii	"ZD\325]\313+\202:\016\004\263\036\270\004\013P\344\361"
 259      CB2B823A 
 259      0E04B31E 
 259      B8040B50 
 259      E4F1
 260 0291 F05FFFC4 		.ascii	"\360_\377\304\205\307\355\\(\361\353\002s\331\344\320"
 260      85C7ED5C 
 260      28F1EB02 
 260      73D9E4D0 
 261 02a1 E8110387 		.ascii	"\350\021\003\207\241_\306\201\033\002\211Q\310\244\315"
 261      A15FC681 
 261      1B028951 
 261      C8A4CD
 262 02b0 C8A0240C 		.ascii	"\310\240$\014\216@[\343\360D\007P\255+8\215A\331\346"
 262      8E405BE3 
 262      F0440750 
 262      AD2B388D 
 262      41D9E6
 263 02c3 B64B1A6D 		.ascii	"\266K\032m\003\253\365\233\332.\236S\203P\011\001\356"
 263      03ABF59B 
 263      DA2E9E53 
 263      83500901 
 263      EE
 264 02d4 A8C00D71 		.ascii	"\250\300\015q\205\322\201\367\327\033\032\033b\215c"
 264      85D281F7 
 264      D71B1A1B 
 264      628D63
 265 02e3 66E12633 		.ascii	"f\341&3)\300c\240\033\202\260\207\013\377~\006\203\215"
 265      29C063A0 
 265      1B82B087 
 265      0BFF7E06 
 265      838D
 266 02f5 4041D996 		.ascii	"@A\331\226/\025\013\226[\310\243Mu=\012!\307\300\004"
ARM GAS  C:\Users\AMANRA~1\AppData\Local\Temp\ccHOYdie.s 			page 21


 266      2F150B96 
 266      5BC8A34D 
 266      753D0A21 
 266      C7C004
 267 0308 3EF17015 		.ascii	">\361p\025\261\320\201\253\333\204\371W3\026\234C\372"
 267      B1D081AB 
 267      DB84F957 
 267      33169C43 
 267      FA
 268 0319 D79E59BB 		.ascii	"\327\236Y\273\016\006Z@\234\374\306\341\242Q\325\262"
 268      0E065A40 
 268      9CFCC6E1 
 268      A251D5B2 
 269 0329 28BF04EC 		.ascii	"(\277\004\354\352\326\236>\007\202\341\203\236\353p"
 269      EAD69E3E 
 269      0782E183 
 269      9EEB70
 270 0338 43600161 		.ascii	"C`\001a\365X\236\007\266t\204=W\020\212V\010\242\377"
 270      F5589E07 
 270      B674843D 
 270      57108A56 
 270      08A2FF
 271 034b BF9711C0 		.ascii	"\277\227\021\300\301\265\204|\363\031\362-\362R!\234"
 271      C1B5847C 
 271      F319F22D 
 271      F252219C 
 272 035b 7FB77D64 		.ascii	"\177\267}da\253\221\311\326\243\223-,\367\0222\334F"
 272      61AB91C9 
 272      D6A3932D 
 272      2CF71232 
 272      DC46
 273 036d 18AC5F7E 		.ascii	"\030\254_~\222\030Hl(\324\265\342-\356\214\263\260\264"
 273      9218486C 
 273      28D4B5E2 
 273      2DEE8CB3 
 273      B0B4
 274 037f 19C4FB8B 		.ascii	"\031\304\373\213\360J\"\257\3720\336A(\274yv\311d\270"
 274      F04A22AF 
 274      FA30DE41 
 274      28BC7976 
 274      C964B8
 275 0392 9AE8B162 		.ascii	"\232\350\261b\314hQ\012\027F\266\215:,\256>\003#w\204"
 275      CC68510A 
 275      1746B68D 
 275      3A2CAE3E 
 275      03237784 
 276 03a6 11AA10FC 		.ascii	"\021\252\020\374*\222\212\371;\242\314 \201Y\204r\367"
 276      2A928AF9 
 276      3BA2CC20 
 276      81598472 
 276      F7
 277 03b7 5902FB29 		.ascii	"Y\002\373)\201\272pM\016w.\372V\322\031.\270\355\225"
 277      81BA704D 
 277      0E772EFA 
 277      56D2192E 
 277      B8ED95
 278 03ca 7D8B8501 		.ascii	"}\213\205\001\201J\343\004\277Y\011\350}\232\000[dM"
ARM GAS  C:\Users\AMANRA~1\AppData\Local\Temp\ccHOYdie.s 			page 22


 278      814AE304 
 278      BF5909E8 
 278      7D9A005B 
 278      644D
 279 03dc 6281C160 		.ascii	"b\201\301`x\372\213\261x\370}\313\357Ca\260\345\250"
 279      78FA8BB1 
 279      78F87DCB 
 279      EF4361B0 
 279      E5A8
 280 03ee 0884A138 		.ascii	"\010\204\2418\376\243\2658!\240\206'X\232\371\036\203"
 280      FEA3B538 
 280      21A08627 
 280      589AF91E 
 280      83
 281 03ff 21B18B26 		.ascii	"!\261\213&-\343\202\202{\310\033\205\374\376\203\373"
 281      2DE38282 
 281      7BC81B85 
 281      FCFE83FB 
 282 040f 1AEF40D4 		.ascii	"\032\357@\324\242\333]?;\374\3654e\003\367\266\317{"
 282      A2DB5D3F 
 282      3BFCF534 
 282      6503F7B6 
 282      CF7B
 283 0421 83C1EF53 		.ascii	"\203\301\357S\027\3600\366\316\310\213\026\360\310\344"
 283      17F030F6 
 283      CEC88B16 
 283      F0C8E4
 284 0430 028EE48D 		.ascii	"\002\216\344\215\326,\251\344\344\033\203\321\251\013"
 284      D62CA9E4 
 284      E41B83D1 
 284      A90B
 285 043e F53E023E 		.ascii	"\365>\002>\240\205\372\200\026*\366/\315\370W\373O\374"
 285      A085FA80 
 285      162AF62F 
 285      CDF857FB 
 285      4FFC
 286 0450 6D9F5B25 		.ascii	"m\237[%\3557\3131\327\361\244pl\340\264\211?W0\312\207"
 286      ED37CB31 
 286      D7F1A470 
 286      6CE0B489 
 286      3F5730CA 
 287 0465 30571464 		.ascii	"0W\024d|\377\335f\007\336\300#\220E\234\014\036\213"
 287      7CFFDD66 
 287      07DEC023 
 287      90459C0C 
 287      1E8B
 288 0477 5F22D5CD 		.ascii	"_\"\325\315g\007c\346V\207\265\023Hv\354\370\211k\016"
 288      670763E6 
 288      5687B513 
 288      4876ECF8 
 288      896B0E
 289 048a A1FD84B4 		.ascii	"\241\375\204\264a\014d1\013\"g\214\032klk\355\343\243"
 289      610C6431 
 289      0B22678C 
 289      1A6B6C6B 
 289      EDE3A3
 290 049d 73ACFAD9 		.ascii	"s\254\372\331i4\250\030\232(\306C,F\005w\340\315\237"
ARM GAS  C:\Users\AMANRA~1\AppData\Local\Temp\ccHOYdie.s 			page 23


 290      6934A818 
 290      9A28C643 
 290      2C460577 
 290      E0CD9F
 291 04b0 802D6157 		.ascii	"\200-aW%\334\270@,\004\\\220\226f\340\2373\333\235\345"
 291      25DCB840 
 291      2C045C90 
 291      9666E09F 
 291      33DB9DE5 
 292 04c4 F6FA172F 		.ascii	"\366\372\027/]\274\310\360\372\215\354Uk\014\277\317"
 292      5DBCC8F0 
 292      FA8DEC55 
 292      6B0CBFCF 
 293 04d4 49EFCC75 		.ascii	"I\357\314uy\256<\227?\315\311\270{]\216\226\353\366"
 293      79AE3C97 
 293      3FCDC9B8 
 293      7B5D8E96 
 293      EBF6
 294 04e6 B8BC79B9 		.ascii	"\270\274y\271\220\225\372BE\257\037\211/W\274\323\262"
 294      9095FA42 
 294      45AF1F89 
 294      2F57BCD3 
 294      B2
 295 04f7 D9F482C8 		.ascii	"\331\364\202\310w\257u\256\311\373\324\205\034\377\006"
 295      77AF75AE 
 295      C9FBD485 
 295      1CFF06
 296 0506 3F0A6A59 		.ascii	"?\012jY\253\374\256\017}\356w\246Upz=\036\357Z#\307"
 296      ABFCAE0F 
 296      7DEE77A6 
 296      55707A3D 
 296      1EEF5A23 
 297 051b EBCBF51B 		.ascii	"\353\313\365\033\037\254\310H\317X\217\"N\257\317\225"
 297      1FACC848 
 297      CF588F22 
 297      4EAFCF95 
 298 052b F9D9BB1E 		.ascii	"\371\331\273\036T\347\036\377\352\364\227\251\272\326"
 298      54E71EFF 
 298      EAF497A9 
 298      BAD6
 299 0539 E792A291 		.ascii	"\347\222\242\221\236\261r\371J#\0355\215\345O]\360\370"
 299      9EB172F9 
 299      4A231D35 
 299      8DE54F5D 
 299      F0F8
 300 054b DDFECCD5 		.ascii	"\335\376\314\325N'\342$d\254\\\221D\256\344\370\334"
 300      4E27E224 
 300      64AC5C91 
 300      44AEE4F8 
 300      DC
 301 055c 0B939217 		.ascii	"\013\223\222\0271\311\3074\217\313\343\365m`\377\001"
 301      31C9C734 
 301      8FCBE3F5 
 301      6D60FF01 
 302 056c C7213DF4 		.ascii	"\307!=\364"
 303              		.text
 304              		.section	.gnu.lto_oqPutTimeout.part.1.29debcc4,"",%progbits
ARM GAS  C:\Users\AMANRA~1\AppData\Local\Temp\ccHOYdie.s 			page 24


 305 0000 789C9556 		.ascii	"x\234\225V]L\024W\024\276g\356\314\354,\313\337K\023"
 305      5D4C1457 
 305      14BE67EE 
 305      CCEC2CCB 
 305      DF4B13
 306 0013 634883B5 		.ascii	"cH\203\265\210Z\313`4m\332\207\376\361\344\003I\253"
 306      885ACB60 
 306      346DDA87 
 306      FEF1E403 
 306      49AB
 307 0025 AF4DA86C 		.ascii	"\257M\250l7\262\211\353\352.4\372\344\270R\344G\011"
 307      37B289EB 
 307      EA2E34FA 
 307      E4B852E4 
 307      4709
 308 0037 8948E976 		.ascii	"\211H\351v\205m\225\024i\374A\255?\210J\301\212(\250"
 308      856D9514 
 308      69FC41AD 
 308      3F884AC1 
 308      8A28A8
 309 004a 50FC03C5 		.ascii	"P\374\003\305*\262\026\261 \266Z\323\007\3559w\026X"
 309      2AB216B1 
 309      20B65AD3 
 309      07ED3977 
 309      1658
 310 005c 59A53281 		.ascii	"Y\2452\20133\367\234\363\235\357\236s\356\231U\031c"
 310      3333F79C 
 310      F39DEF9E 
 310      73EE9955 
 310      1963
 311 006e 9F5819D3 		.ascii	"\237X\031\323\201\261/\360\031\254\014\264\262\363\370"
 311      81B12FF0 
 311      19AC0CB4 
 311      B2F3F8
 312 007d A08124EE 		.ascii	"\240\201$\356\222\304\013S\231\021#\223\214\345 \323"
 312      92C40B53 
 312      99112393 
 312      8CE520D3 
 313 008d EA064D96 		.ascii	"\352\006M\226\224\3746\206\353\352f\005\327\025P\315"
 313      94FC3686 
 313      EBEA6605 
 313      D71550CD 
 314 009d 75152CE6 		.ascii	"u\025,\346\203\005\200\036\014\015\330zM\342\262\242"
 314      8305801E 
 314      0C0DD87A 
 314      4DE2B2A2 
 315 00ad 5A603D6C 		.ascii	"Z`=l\346\345\034:\363\367\005x\011\017p\0062\276\216"
 315      E6E51C3A 
 315      F3F70578 
 315      090F7006 
 315      32BE8E
 316 00c0 76F8FBE3 		.ascii	"v\370\373\343\351\025 \031_k\216ol\204y?\032x5}\363"
 316      E9152019 
 316      5F6B8E6F 
 316      6C84793F 
 316      1A78357D 
 317 00d5 E48DD183 		.ascii	"\344\215\321\203\027\015k\200K\254\002\315\017B\022"
ARM GAS  C:\Users\AMANRA~1\AppData\Local\Temp\ccHOYdie.s 			page 25


 317      170D6B80 
 317      4BAC02CD 
 317      0F4212
 318 00e4 1C802422 		.ascii	"\034\200$\"\3723\314C\343\320!\243O\346o\003\303\347"
 318      FA33CC43 
 318      E3D021A3 
 318      4FE66F03 
 318      C3E7
 319 00f6 8E96FD5B 		.ascii	"\216\226\375[\345\324\032\303\360\031Mwvr\343\315\000"
 319      E5D41AC3 
 319      F0194D77 
 319      7672E3CD 
 319      00
 320 0107 E7700878 		.ascii	"\347p\010x\244#.18\014\251h\036(\250\033\340|\241p="
 320      A4232E31 
 320      380CA968 
 320      1E28A81B 
 320      E07CA170 
 321 011c F7F8CC29 		.ascii	"\367\370\314))\354\332^\300\215\330\000\227\341\210"
 321      29ECDA5E 
 321      C08DD800 
 321      97E188
 322 012b E9BA2809 		.ascii	"\351\272(\011\322\311Qfp\024R\311\372zi\371@<_$<{\267"
 322      D2C95166 
 322      701452C9 
 322      FA7A69F9 
 322      403C5F24 
 323 0142 171DB1A6 		.ascii	"\027\035\261\246\354\020\236\2153\203\276\304\000W\240"
 323      EC109E8D 
 323      3383BEC4 
 323      0057A0
 324 0151 E1F9A074 		.ascii	"\341\371\240t\241\351\355\372\247\333\342T\031\216A"
 324      A1E9EDFA 
 324      A7DBE254 
 324      198E41
 325 0160 8AD84C23 		.ascii	"\212\330L#\250BH\343\272|\261\351\307%\334\324Vp`\223"
 325      A84248E3 
 325      BA7CB1E9 
 325      C725DCD4 
 325      56706093 
 326 0174 74BD773F 		.ascii	"t\275w?\26408N:i\262\256?\260\340s\006'H\307IWs\266"
 326      B430384E 
 326      3A69B2AE 
 326      3FB0E073 
 326      062748C7 
 327 018c EBA48D6F 		.ascii	"\353\244\215o\001\001\262k\317\367\225\261a\236#us\277"
 327      0101B26B 
 327      CFF795B1 
 327      619E2375 
 327      73BF
 328 019e DB58B2C5 		.ascii	"\333X\262\305\020lUh\232\202\255\211|\2312\371\013\322"
 328      106C5568 
 328      9A82AD89 
 328      7C9932F9 
 328      0BD2
 329 01b0 8693842E 		.ascii	"\206\223\204.G\354\206A3\250\320B[A\201\353\355\373"
 329      47EC8641 
ARM GAS  C:\Users\AMANRA~1\AppData\Local\Temp\ccHOYdie.s 			page 26


 329      33A8D042 
 329      5B4181EB 
 329      EDFB
 330 01c2 8E5E9179 		.ascii	"\216^\221y\273\031\265igO\247FQ\251\226\345\263\353"
 330      BB19B569 
 330      674FA746 
 330      51A996E5 
 330      B3EB
 331 01d4 5B0A8CB2 		.ascii	"[\012\214\262\015\032V\023NM\231\242_)\026f\000N#\360"
 331      0D1A5613 
 331      4E4D99A2 
 331      5F291666 
 331      004E23F0 
 332 01e8 2432A1CD 		.ascii	"$2\241\315\034Sp\232\210(\223u7[\347T\"\223VR\252\317"
 332      1C53709A 
 332      88289375 
 332      375BE754 
 332      22935652 
 333 01fe B13C8360 		.ascii	"\261<\203`m\321`\375\201\271Y\214\024\025\010\032\235"
 333      6DD160FD 
 333      81B9598C 
 333      1415081A 
 333      9D
 334 020f A6AA69A5 		.ascii	"\246\252i\245i\270\012\323t\216\250\237\215NS;\022\350"
 334      69B80AD3 
 334      748EA89F 
 334      8D4E533B 
 334      12E8
 335 0221 A034A1C0 		.ascii	"\2404\241\300\303\306\251\015P\177\244tG\237\350\237"
 335      C3C6A90D 
 335      507FA474 
 335      479FE89F 
 336 0231 B2F16E2F 		.ascii	"\262\361n/\372(\272\335\261\341\317C\012\345eo\227b"
 336      FA28BADD 
 336      B1E1CF43 
 336      0AE5656F 
 336      9762
 337 0243 184F9F6D 		.ascii	"\030O\237m2\014\377\007\225\322k\000\324\316\022\366"
 337      320CFF07 
 337      95D26B00 
 337      D4CE12F6 
 338 0253 A7859390 		.ascii	"\247\205\223\220Qh\012\011\025\250_-\364\250\221\260"
 338      51680A09 
 338      15A85F2D 
 338      F4A891B0 
 339 0263 92884161 		.ascii	"\222\210Aa\265\241\210a\254\2203FG\264\210kt\347!\360"
 339      B5A18861 
 339      AC903346 
 339      47B4886B 
 339      74E721F0 
 340 0277 89A29587 		.ascii	"\211\242\225\207\012\037%\314\257\025[\352\332\313\375"
 340      0A1F25CC 
 340      AF155BEA 
 340      DACBFD
 341 0286 412C98C2 		.ascii	"A,\230\302\314\013.\300|4y0\370\317\277\361\341\363"
 341      CC0B2EC0 
 341      7C347930 
ARM GAS  C:\Users\AMANRA~1\AppData\Local\Temp\ccHOYdie.s 			page 27


 341      F8CFBFF1 
 341      E1F3
 342 0298 122AE1C5 		.ascii	"\022*\341\305TW\030\357|-\342\270)\014.\342\251\011"
 342      545718EF 
 342      7C2DE2B8 
 342      290C2EE2 
 342      A909
 343 02aa 81C468C7 		.ascii	"\201\304h\307\344\317(\244$B\336\203\346\206\301\236"
 343      E4CF28A4 
 343      2442DE83 
 343      E686C19E 
 344 02ba FA19546B 		.ascii	"\372\031Tk?\247\203P\361u\363\005\013\015\003\263\367"
 344      3FA78350 
 344      F175F305 
 344      0B0D03B3 
 344      F7
 345 02cb 1B9B3B4E 		.ascii	"\033\233;N\253A\250Bp\233\037\007D'e\003\327/\037n8"
 345      AB41A842 
 345      709B1F07 
 345      44276503 
 345      D72F1F6E 
 346 02e0 1CA7EF36 		.ascii	"\034\247\3576\3627\030\311\001\036\013]\020\204m\\0"
 346      F23718C9 
 346      011E0B5D 
 346      10846D5C 
 346      30
 347 02f1 FC0D7476 		.ascii	"\374\015tv\0176V\024|\253\230\260\334D\036j\334wU!\344"
 347      0F365614 
 347      7CAB98B0 
 347      DC441E6A 
 347      DC775521 
 348 0306 58788657 		.ascii	"Xx\206W\002t#\026\022\350.\006\262{\265`\301\231\344"
 348      02742316 
 348      12E82E06 
 348      B27BB560 
 348      C199E4
 349 0319 7F6922DA 		.ascii	"\177i\"\332e\3201\002\342\370\032\006{\353\223\314\210"
 349      65D03102 
 349      E2F81A06 
 349      7BEB93CC 
 349      88
 350 032a F21460DD 		.ascii	"\362\024`\335\233\256\366\331\020\014/d\256\301\025"
 350      9BAEF6D9 
 350      100C2F64 
 350      AEC115
 351 0339 81058475 		.ascii	"\201\005\204u\325d\036((\0123W\020\212\206\017\242\377"
 351      D5641E28 
 351      280A3357 
 351      108A860F 
 351      A2FF
 352 034b 3FCB08E0 		.ascii	"?\313\010\340\340\353\204|m\002\271\207X*\204\343o{"
 352      E0EB847C 
 352      6D02B987 
 352      582A84E3 
 352      6F7B
 353 035d 2B8C339E 		.ascii	"+\2143\236imr\246e\012\333K\260p\0351\374x\224\304\376"
 353      696D72A6 
ARM GAS  C:\Users\AMANRA~1\AppData\Local\Temp\ccHOYdie.s 			page 28


 353      650ADB4B 
 353      B0701D31 
 353      FC7894C4 
 354 0372 AED7E798 		.ascii	"\256\327\347\230\274,\323\330\337\215\011\026}b\177"
 354      BC2CD3D8 
 354      DF8D0916 
 354      7D627F
 355 0381 BE86B6F7 		.ascii	"\276\206\266\367M\030m\03207\005\214D0\277#\314\000"
 355      4D186D1A 
 355      3037058C 
 355      4430BF23 
 355      CC00
 356 0393 E45F6B59 		.ascii	"\344_kY\034f\203H\2429\213\260\020\205\251\\p\275Q\337"
 356      1C668348 
 356      A2398BB0 
 356      1085A95C 
 356      70BD51DF 
 357 03a7 08A6DA3A 		.ascii	"\010\246\332:\215(\267D\024\252,\3346\311v\027\357R"
 357      8D28B744 
 357      14AA2CDC 
 357      36C97617 
 357      EF52
 358 03b9 A691F86C 		.ascii	"\246\221\370lB\351\237\330\362\035J\274Up\223\303\035"
 358      42E99FD8 
 358      F21D4ABC 
 358      557093C3 
 358      1D
 359 03ca 8FE406C7 		.ascii	"\217\344\006\307\022\031\363\312\334\342`@\240\312\204"
 359      1219F3CA 
 359      DCE26040 
 359      A0CA84
 360 03d9 1A3233D0 		.ascii	"\03223\320;\226\201\230\310r\306\001\203\273\341\241"
 360      3B968198 
 360      C872C601 
 360      83BBE1A1 
 361 03e9 518445C7 		.ascii	"Q\204E\307\3174\277\017\371\301\237Z?\023\237\0344\307"
 361      CF34BF0F 
 361      F9C19F5A 
 361      3F139F1C 
 361      34C7
 362 03fb 7F8C162F 		.ascii	"\177\214\026/\014\324\360\331\227\246?\376\340\0171"
 362      0CD4F0D9 
 362      97A63FFE 
 362      E00F31
 363 040a C2C623E3 		.ascii	"\302\306#\343\\\203A\324\015\201\357\366\216\355\015"
 363      5C8341D4 
 363      0D81EFF6 
 363      8EED0D
 364 0419 3761D27C 		.ascii	"7a\322|\334\3323\033\302\037\266\250\311\335\333:g\006"
 364      DCDA331B 
 364      C21FB6A8 
 364      C9DDDB3A 
 364      6706
 365 042b 837BD183 		.ascii	"\203{\321\203{\010\307\345\375\227\015\356\373\343\203"
 365      7B08C7E5 
 365      FD970DEE 
 365      FBE383
ARM GAS  C:\Users\AMANRA~1\AppData\Local\Temp\ccHOYdie.s 			page 29


 366 043a 3B523754 		.ascii	";R7T\267\270\212\0239\006\177F\017\342a\004\034\241"
 366      B7B88A13 
 366      39067F46 
 366      0FE26104 
 366      1CA1
 367 044c 413C4283 		.ascii	"A<B\203\030{\237\206\303\017\325\373\237\304\314\252"
 367      187B9F86 
 367      C30FD5FB 
 367      9FC4CCAA 
 368 045c 91AA8D4A 		.ascii	"\221\252\215JLv\0029\354\356?f\340\317\034\334\346\003"
 368      4C760239 
 368      ECEE3F66 
 368      E0CF1CDC 
 368      E603
 369 046e 98252AF2 		.ascii	"\230%*\362\264\372\326\011\033\256\300(\310b\243\014"
 369      B4FAD609 
 369      1BAEC028 
 369      C862A30C 
 370 047e 1E8A5F30 		.ascii	"\036\212_0\265'Z\006bg\325\206\275\023\311\366\341\236"
 370      B5275A06 
 370      6267D586 
 370      BD13C9F6 
 370      E19E
 371 0490 FD976CC2 		.ascii	"\375\227l\302\373/\362\206\277A\306!\350K\026I3Kc\021"
 371      FB2FF286 
 371      BF41C621 
 371      E84B1649 
 371      334B6311 
 372 04a4 991FC6CC 		.ascii	"\231\037\306\314\373\271\015W\036\203-2\233\022\222"
 372      FBB90D57 
 372      1E832D32 
 372      9B1292
 373 04b3 7B04496A 		.ascii	"{\004Ij\337\223\322\026\025\2075\2209\002\316OK\323"
 373      DF93D216 
 373      15873590 
 373      3902CE4F 
 373      4BD3
 374 04c5 F1CF9EE3 		.ascii	"\361\317\236\343\314v\272\275\013\337[\230\256\273\275"
 374      CC76BABD 
 374      0BDF5B98 
 374      AEBBBD
 375 04d4 7ACEF295 		.ascii	"z\316\362\225\272\327c\247{\326\232<G\236\303\233fg"
 375      BAD763A7 
 375      7BD69A3C 
 375      479EC39B 
 375      6667
 376 04e6 DCBD6635 		.ascii	"\334\275f5d[r\235.\207;/w\356K\035\335^\024\236\\qO"
 376      645B729D 
 376      2E873B2F 
 376      77EE4B1D 
 376      DD5E149E 
 377 04fd CB612F36 		.ascii	"\313a/6D\275s\225}e\336\227\016\324x\327y\321\320\222"
 377      44BD7395 
 377      7D65DE97 
 377      0ED478D7 
 377      79D1D092 
 378 0511 BDDCEBF8 		.ascii	"\275\334\353\370\324\343|\347\205\016v\267\313\345^"
ARM GAS  C:\Users\AMANRA~1\AppData\Local\Temp\ccHOYdie.s 			page 30


 378      D4E37CE7 
 378      850E76B7 
 378      CBE55E
 379 0520 A5AF767B 		.ascii	"\245\257v{r\275\372\307K332\327\242\211\335\355qd}\365"
 379      72BDFAC7 
 379      4B333332 
 379      D7A289DD 
 379      ED71647D 
 380 0535 AE0BDDB9 		.ascii	"\256\013\335\271\313\273\"c*W\307\332\\r\32432\227-"
 380      CBBB2263 
 380      2A57C7DA 
 380      5C72D433 
 380      32972D
 381 0548 59A667A0 		.ascii	"Y\246g\240\247\276d\214\202\313\353\364f\255\260\333"
 381      A7BE648C 
 381      82CBEBF4 
 381      66ADB0DB 
 382 0558 11273173 		.ascii	"\021'1s\331\322d\242\262\332\343\\\220\234\222\316$"
 382      D9D264A2 
 382      B2DAE35C 
 382      909C92CE 
 382      24
 383 0569 0FB3B81C 		.ascii	"\017\263\270\034.\267g\035\373\017\337YT\327"
 383      2EB7671D 
 383      FB0FDF59 
 383      54D7
 384              		.text
 385              		.section	.gnu.lto_iqObjectInit.29debcc4,"",%progbits
 386 0000 789C9D94 		.ascii	"x\234\235\224\357OSg\024\307\237s\237\333\333\226\026"
 386      EF4F5367 
 386      14C79F73 
 386      9FDBDB96 
 386      16
 387 0011 B2ECC5B2 		.ascii	"\262\354\305\2620_\364\205\0060\223\216do\334\213e\311"
 387      305FF485 
 387      0630938E 
 387      646FDC8B 
 387      65C9
 388 0023 DE2CD91F 		.ascii	"\336,\331\037a\264ti3\302\257\013/\364\015\267\005E"
 388      61B47469 
 388      33C2AF0B 
 388      2FF40DB7 
 388      0545
 389 0035 06064D2C 		.ascii	"\006\006M,\222ZI\265\"\231F\234\031\023\177\200\336"
 389      925A49B5 
 389      2299469C 
 389      19137F80 
 389      DE
 390 0046 15419D2D 		.ascii	"\025A\235-N\004\206\012H\\\342\246\3314:\263MQ\360\234"
 390      4E04860A 
 390      485CE2A6 
 390      D9343AB3 
 390      4D51F09C 
 391 005a 732B812A 		.ascii	"s+\201*\221p\323\366\336\347\236\363\375\234\363\234"
 391      9170D3F6 
 391      DEE79EF3 
 391      FD9CF39C 
ARM GAS  C:\Users\AMANRA~1\AppData\Local\Temp\ccHOYdie.s 			page 31


 392 006a 739E6A42 		.ascii	"s\236jB\210K\232\020Cx\377\010\277 \005(\273\207\205"
 392      884B9A10 
 392      4378FF08 
 392      BF200528 
 392      BB8785
 393 007d 08391400 		.ascii	"\0109\024\000z0\034 \352\024\250\203\026\271WB\262\361"
 393      7A301C20 
 393      EA14A883 
 393      16B95742 
 393      B2F1
 394 008f DE19A5A8 		.ascii	"\336\031\245\250\313\300\313\3347\342\332al\3770&\205"
 394      CBC0CBDC 
 394      37E2DA61 
 394      6CFF3026 
 394      85
 395 00a0 68C32F5D 		.ascii	"h\303/]\360#\024\241\327\365\206\037b\262Y\306$\200"
 395      F02314A1 
 395      D7F5861F 
 395      62B259C6 
 395      2480
 396 00b2 8ACBC7E9 		.ascii	"\212\313\307\351\350\357y\264T\300\203\313\203\273\017"
 396      E8EF79B4 
 396      54C083CB 
 396      83BB0F
 397 00c1 B42A7203 		.ascii	"\264*r\003\010|>7\021\231\267\025t\032F\3300G\017Kc"
 397      087C3E37 
 397      1199B715 
 397      741A46D8 
 397      30470F4B 
 398 00d6 6D4C4A38 		.ascii	"mLJ8\005\022\201\360\023\254\201\036X#\360\225\200^"
 398      051281F0 
 398      13AC811E 
 398      5823F095 
 398      805E
 399 00e8 2840F7D9 		.ascii	"(@\367\331\346\2616\247,a\351\236?\272\346 #\275x\204"
 399      E6B136A7 
 399      2C61E99E 
 399      3FBAE620 
 399      23BD7884 
 400 00fc A52A9CCE 		.ascii	"\245*\234\316\226\252\002\316\260\364Ph\354j\256\374"
 400      96AA02CE 
 400      B0F45068 
 400      EC6AAEFC 
 401 010c 94A5334D 		.ascii	"\224\2453M\307w\251\031\351d\027Kmp6[j\023p\216\245"
 401      C777A919 
 401      E964174B 
 401      6D70365B 
 401      6A13708E 
 402 0121 A1C4A384 		.ascii	"\241\304\243\204Knd\351\355'Go\344f\244\343\335\371"
 402      4B6E64E9 
 402      ED27476F 
 402      E466A4E3 
 402      DDF9
 403 0133 897AE3AB 		.ascii	"\211z\343\253\230\324\240/[\254\011\350gq\267\031\271"
 403      98D4A02F 
 403      5BAC09E8 
 403      6771B719 
ARM GAS  C:\Users\AMANRA~1\AppData\Local\Temp\ccHOYdie.s 			page 32


 403      B9
 404 0144 EB929FB3 		.ascii	"\353\222\237\263x\376f\270\305\231\021\247:9\256\035"
 404      78FE66B8 
 404      C59911A7 
 404      3A39AE1D 
 405 0154 CE674BED 		.ascii	"\316gK\355\002.@\001\371\337=9\027\311\325T\253\274"
 405      022E4001 
 405      F9DF3D39 
 405      17C9D554 
 405      ABBC
 406 0166 600242F1 		.ascii	"`\002B\361\341\304\210\3154\346\346\033\015\363E'<\373"
 406      E1C488CD 
 406      34E6E61B 
 406      0DF34527 
 406      3CFB
 407 0178 FA7D408D 		.ascii	"\372}@\215C\241\275b\275\261N\032\320\226s\200\262w"
 407      43A1BD62 
 407      BDB14E1A 
 407      D0967380 
 407      B277
 408 018a 03A59107 		.ascii	"\003\245\221\007L\024;\221\203=5L\321$\025z\2527\305"
 408      4C143B91 
 408      833D354C 
 408      D124157A 
 408      AA37C5
 409 019d 03083F6F 		.ascii	"\003\010?oLO\271\011\037\225\200Q\333\266'\257\331\251"
 409      4C4FB909 
 409      1F958051 
 409      DBB627AF 
 409      D9A9
 410 01af 5D9293EE 		.ascii	"]\222\223\356K\246\207\2648t\204\260\347\361#\024\307"
 410      4BA687B4 
 410      387484B0 
 410      E7F12314 
 410      C7
 411 01c0 1945D3CF 		.ascii	"\031E\323\317\230+\231G\033'\246]\336\3434\021\236\230"
 411      982B9947 
 411      1B27A65D 
 411      DEE33411 
 411      9E98
 412 01d2 CC8124C4 		.ascii	"\314\201$\304!\302\343\200\306c\351\007\323Z\335K2\306"
 412      21C2E380 
 412      C663E907 
 412      D35ADD4B 
 412      32C6
 413 01e4 F3304B18 		.ascii	"\3630K\030\000/\356\344\"\324\211{\020\366PL\364\232"
 413      002FEEE4 
 413      22D4897B 
 413      10F6504C 
 413      F49A
 414 01f6 DC3F3DE7 		.ascii	"\334?=\347\224_r\264Tk\367\036\327\272\004\227h\270"
 414      945F72B4 
 414      546BF71E 
 414      D7BA0497 
 414      68B8
 415 0208 DB1D35CC 		.ascii	"\333\0355\314\006\017\011\007\227V\211\207m\010\326"
 415      060F0907 
ARM GAS  C:\Users\AMANRA~1\AppData\Local\Temp\ccHOYdie.s 			page 33


 415      97568987 
 415      6D08D6
 416 0217 61C64852 		.ascii	"a\306HR\262\225\363\355\236T}\363.#\036~o9\361\245e"
 416      B295F3ED 
 416      9E547DF3 
 416      2E231E7E 
 416      6F39F1A5 
 417 022c C5031D9E 		.ascii	"\305\003\035\236\373=\206\321\364\305r\322\313\226\024"
 417      FB3D86D1 
 417      F4C572D2 
 417      CB9614
 418 023b 2B177DD6 		.ascii	"+\027}\326?8\325\376\331B\253\032\254\2031\341\222\224"
 418      3F38D5FE 
 418      D942AB1A 
 418      AC8331E1 
 418      9294
 419 024d 1CB7ACCD 		.ascii	"\034\267\254\315\252\342b\373l{aJR\002\002\256\220\203"
 419      AAE262FB 
 419      6C7B614A 
 419      520202AE 
 419      9083
 420 025f 92ED30D0 		.ascii	"\222\3550\320Q\030\244(\002~!\273\\<\013p\0254H\321"
 420      5118A428 
 420      027E21BB 
 420      5C3C0B70 
 420      153448D1 
 421 0273 28A4B878 		.ascii	"(\244\270x\013\335r,\351\026`/\250M\3517\3334\363_\344"
 421      0BDD722C 
 421      E916602F 
 421      A84DE937 
 421      DB34F35F 
 422 0288 83E60174 		.ascii	"\203\346\001tp\30107\013\030*\340\032x_\357\353~\337"
 422      70C13037 
 422      0B182AE0 
 422      1A785FEF 
 422      EB7EDF
 423 029b C99A4C80 		.ascii	"\311\232L\200\025\020\343\371\004\373\225aJ\006v\335"
 423      1510E3F9 
 423      04FB9561 
 423      4A0676DD 
 424 02ab 82619B67 		.ascii	"\202a\233g\022\255=\267\200\313&x\335\337\262W\347\006"
 424      12AD3DB7 
 424      80CB2678 
 424      DDDFB257 
 424      E706
 425 02bd 58CBA6BF 		.ascii	"X\313\246\277lT(\256\030\006O>\375\363\357\301\234\314"
 425      6C5428AE 
 425      18064F3E 
 425      FDF3EFC1 
 425      9CCC
 426 02cf 682C19BE 		.ascii	"h,\031\276\374\254\321\033\357=\333\233\213\0314\204"
 426      FCACD11B 
 426      EF3DDB9B 
 426      8B193484 
 427 02df 68F4DC30 		.ascii	"h\364\3340\302\011\360Y\271\001\336\305\265qc\370QT"
 427      C209F059 
 427      B901DEC5 
ARM GAS  C:\Users\AMANRA~1\AppData\Local\Temp\ccHOYdie.s 			page 34


 427      B57163F8 
 427      5154
 428 02f1 F1D61EAE 		.ascii	"\361\326\036\256\214\276t\260U\030c\272J\364q\332\233"
 428      8CBE74B0 
 428      551863BA 
 428      4AF471DA 
 428      9B
 429 0302 66D11EAD 		.ascii	"f\321\036\255\216\366\033\323lD\233XD\373\177u\264\233"
 429      8EF61BD3 
 429      6C449B58 
 429      44FB7F75 
 429      B49B
 430 0314 4CD38876 		.ascii	"L\323\210v\3535\255>\266\343\300\235>\260\316\265\202"
 430      EB35AD3E 
 430      B6E3C09D 
 430      3EB0CEB5 
 430      82
 431 0325 EFA23287 		.ascii	"\357\2422\207\202\214~\367\275m51ns\014;\305\230\244"
 431      828C7EF7 
 431      BD6D3531 
 431      6E730C3B 
 431      C598A4
 432 0338 188A95F1 		.ascii	"\030\212\225\361\363\325d\254\301\024\323\034D\233&"
 432      F3D564AC 
 432      C114D31C 
 432      449B26
 433 0347 9ADBA2CD 		.ascii	"\232\333\242\315\256\214v\354\374\323\177m\0134;\334"
 433      AE8C76EC 
 433      FCD37F6D 
 433      0B343BDC 
 434 0357 619A9368 		.ascii	"a\232\223h3D\313\023\017!\034\377g\037\357\236\017\355"
 434      3344CB13 
 434      0F211CFF 
 434      671FEF9E 
 434      0FED
 435 0369 4E9C45FC 		.ascii	"N\234E\374\303S\204X_\\\354\305\217/\020\334\022\254"
 435      C3538458 
 435      5F5CECC5 
 435      8F2F10DC 
 435      12AC
 436 037b D04B3696 		.ascii	"\320K6\226|\342\255\320\275\201\315e^\275\332G\367M"
 436      7CE2ADD0 
 436      BD81CD65 
 436      5EBDDA47 
 436      F74D
 437 038d 55B5FE5A 		.ascii	"U\265\376Z\277^\354\0232XU\251l\251T\365\3406\277\032"
 437      BF5EEC13 
 437      325855A9 
 437      6CA954F5 
 437      E036BF1A 
 438 03a1 2CFF66AB 		.ascii	",\377f\253Z\026,\377V\326TU\026.\013\251\320\361\247"
 438      5A162CFF 
 438      56D65455 
 438      162E0BA9 
 438      D0F1A7
 439 03b4 BA86EFC5 		.ascii	"\272\206\357\305\001\361\361[\035\321\036,\367\225\325"
 439      01F1F15B 
ARM GAS  C:\Users\AMANRA~1\AppData\Local\Temp\ccHOYdie.s 			page 35


 439      1DD11E2C 
 439      F795D5
 440 03c3 96FAD152 		.ascii	"\226\372\321R\023\250\366o.\325\321\271\350\335\316"
 440      13A8F66F 
 440      2ED5D1B9 
 440      E8DDCE
 441 03d2 BA2F508A 		.ascii	"\272/P\212\236\257\000\300\354v`"
 441      9EAF00C0 
 441      EC7660
 442              		.text
 443              		.section	.gnu.lto_iqResetI.29debcc4,"",%progbits
 444 0000 789C9D93 		.ascii	"x\234\235\223[O\023Q\020\307\317\177\317\366\002\205"
 444      5B4F1351 
 444      10C7CF7F 
 444      CFF60285 
 445 0010 3E1BE5A1 		.ascii	">\033\345\241\017\022\304\304\256<\370\340\227\360+"
 445      0F12C4C4 
 445      AE3CF8E0 
 445      97F02B
 446 001f 186C8890 		.ascii	"\030l\210\220h\020\012\257v\301bA%`\220\232\324\255"
 446      68100AAF 
 446      76C16241 
 446      2560909A 
 446      D4AD
 447 0031 D680E1C1 		.ascii	"\326\200\341\301\250\210\227Z@]\253\202\010EQ\242DI"
 447      A888975A 
 447      405DAB82 
 447      084551A2 
 447      4449
 448 0043 63344125 		.ascii	"c4A%hbDML\004gN\001\221x\213\233=\227\3319\363\233\313"
 448      6862444D 
 448      4C04674E 
 448      0191788B 
 448      9B3D97D9 
 449 005b 99750A21 		.ascii	"\231u\012!\246\244\020\345\264n\240\001)\240\265\217"
 449      A6A410E5 
 449      B46EA001 
 449      29A0B58F 
 450 006b 0BD1E0D6 		.ascii	"\013\321\340\326\000\336\230n\210\220\206\020\216\310"
 450      00DE986E 
 450      88908610 
 450      8EC8
 451 0079 6312E9C8 		.ascii	"c\022\351\310LJ+\3551\351\261\217\367y\017\232M\353"
 451      4C4A2BED 
 451      31E9B18F 
 451      F7790F9A 
 451      4DEB
 452 008b 2C328FD2 		.ascii	",2\217\322\340\007\227PJ\247&\302\275\226<,-\011\350"
 452      E0079750 
 452      4AA726C2 
 452      BD963C2C 
 452      2D09E8
 453 009e 247EC8C4 		.ascii	"$~\310\304^yY\324\340#\361t{\274M\223[ h?0\325\271\350"
 453      5E7959D4 
 453      E023F174 
 453      7BBC4D93 
 453      5B20683F 
ARM GAS  C:\Users\AMANRA~1\AppData\Local\Temp\ccHOYdie.s 			page 36


 454 00b6 2839639A 		.ascii	"(9c\232\215\246=\337%\315\215\226\224\270\012I@\\A\021"
 454      8DA63DDF 
 454      25CD8D96 
 454      94B80A49 
 454      405C4111 
 455 00ca 2EA348D0 		.ascii	".\243H\320'\201$J\370\374\313\213\013\235\205N=\347"
 455      2781244A 
 455      F8FCCB8B 
 455      0B9D854E 
 455      3DE7
 456 00dc 10D7E014 		.ascii	"\020\327\340\024\240\315\205G\016\333\\X\214\230\366"
 456      A0CD8547 
 456      0EDB5C58 
 456      8C98F6
 457 00eb 74371EEF 		.ascii	"t7\036\357\310\003\331\350\032M\016\035\312R4\323y\312"
 457      C803D9E8 
 457      1A4D0E1D 
 457      CA5234D3 
 457      79CA
 458 00fd C6B4458B 		.ascii	"\306\264E\213\324xw\300\026\263h\354\177\033\357\361"
 458      D47877C0 
 458      16B368EC 
 458      7F1BEFF1 
 459 010d 30262641 		.ascii	"0&&A\364hS\372\201\213\003\225*\270\301tf\310\231\300"
 459      F46853FA 
 459      818B0395 
 459      2AB8C174 
 459      66C899C0 
 460 0121 C906CAD6 		.ascii	"\311\006\312\326gI:\244#E\001\261n22\225\365\030\347"
 460      67493AA4 
 460      234501B1 
 460      6E323295 
 460      F518E7
 461 0134 CC9C4A47 		.ascii	"\314\234JG?\022\350TU\300\000\014fO\036jq0z\015(\261"
 461      3F12E854 
 461      55C0000C 
 461      664F1E6A 
 461      71307A0D 
 462 014a FE2FA441 		.ascii	"\376/\244AE\342\264p\035\006\005\226\203\275\373\230"
 462      45E2B470 
 462      1D060596 
 462      83BDFB98 
 463 015a C0FFE06E 		.ascii	"\300\377\340n(\234\306\270\233\313\270\364\374\233S"
 463      289CC6B8 
 463      9BCBB8F4 
 463      FC9B53
 464 0169 C3F9FF42 		.ascii	"\303\371\377B{\222\354O\026\022-\334\3004\027lES\305"
 464      7B92EC4F 
 464      16122DDC 
 464      C034176C 
 464      4553C5
 465 017c BF056375 		.ascii	"\277\005cu\311\\\020H\223\025\005\3735\322\372\251 "
 465      C95C1048 
 465      931505FB 
 465      35D2FAA9 
 465      20
 466 018d 57556DAD 		.ascii	"WUm\255\203\317|7\177\010\330\215\333\312\205.\224\362"
ARM GAS  C:\Users\AMANRA~1\AppData\Local\Temp\ccHOYdie.s 			page 37


 466      83CF7C37 
 466      7F08D88D 
 466      DBCA852E 
 466      94F2
 467 019f 6C6636EB 		.ascii	"lf6\353\014}ce\302K\367\211;T\\\201\273\010\211\031"
 467      0C7D6365 
 467      C24BF789 
 467      3B545C81 
 467      BB088919 
 468 01b3 34FA9652 		.ascii	"4\372\226R\230>\221]\310\223e\352\322\306\332\316\037"
 468      983E915D 
 468      C89365EA 
 468      D2C6DACE 
 468      1F
 469 01c4 F51477A9 		.ascii	"\365\024w\251\216\032O\025\304L;\354c\303\241\237\233"
 469      8E1A4F15 
 469      C44C3BEC 
 469      63C3A19F 
 469      9B
 470 01d5 4ADDD430 		.ascii	"J\335\3240\212)D&%\272\342r\0116\326\233z\252\313m\012"
 470      8A294426 
 470      25BAE272 
 470      0936D69B 
 470      7AAACB6D 
 471 01ea 66773F9B 		.ascii	"fw?\233p3\314\\\015\313\303\275_\300FP\314\311\366\265"
 471      7033CC5C 
 471      0DCBC3BD 
 471      5FC04650 
 471      CCC9F6B5 
 472 01fe 7E01D723 		.ascii	"~\001\327#\037\373q\237tshz\361\272#9\214\225\356\015"
 472      1FFB719F 
 472      7473687A 
 472      F1BA2339 
 472      8C95EE0D 
 473 0212 2B5CC743 		.ascii	"+\\\307C/\233p\014\252\221\243\271\236[np\214\302\211"
 473      2F9B700C 
 473      AA91A3B9 
 473      9E5B6E70 
 473      8CC289
 474 0225 31EE6F9E 		.ascii	"1\356o\236H\221J\315=wQ%\334\226\364D\351O\032e]\206"
 474      48914ACD 
 474      3D775125 
 474      DC96F444 
 474      E94F1A65 
 475 023b EA4019B0 		.ascii	"\352@\031\260#K\026\254\224DA\177H#,\275\247${\342\252"
 475      234B16AC 
 475      9444417F 
 475      48232CBD 
 475      A7247BE2 
 476 0250 8554BCCD 		.ascii	"\205T\274\315\344\217\376\003j\214\315~\277Ao\240\262"
 476      E48FFE03 
 476      6A8CCD7E 
 476      BF416FA0 
 476      B2
 477 0261 6A575575 		.ascii	"jWUu\260l{\331V\243:hT\226\3571\202\265\001^w\326\324"
 477      B06C7BD9 
 477      56A33A68 
ARM GAS  C:\Users\AMANRA~1\AppData\Local\Temp\ccHOYdie.s 			page 38


 477      5496EF31 
 477      82B5015E 
 478 0278 57D45704 		.ascii	"W\324W\004\375\001!\253j\366\311:\032{\203\2737\375"
 478      FD0121AB 
 478      6AF6C93A 
 478      1A7B83BB 
 478      37FD
 479 028a D6AC3A48 		.ascii	"\326\254:HSm\235Z\375\225\342;\3330\\j"
 479      536D9D5A 
 479      FD95E23B 
 479      DB305C6A 
 480              		.text
 481              		.section	.gnu.lto_iqPutI.29debcc4,"",%progbits
 482 0000 789C9555 		.ascii	"x\234\225U[oTU\030\335\353\354s\233[\033\222F|\230\207"
 482      5B6F5455 
 482      18DDEBEC 
 482      739B5B1B 
 482      92467C98 
 483 0015 3E582B18 		.ascii	">X+\030:4\020\215\211o\274\370\346O0\266A[\243)e\300"
 483      3A34108D 
 483      896FBCF8 
 483      E64F30B6 
 483      415BA329 
 484 002b D79E5E87 		.ascii	"\327\236^\207\213\011\325\330\232\214GR\205\246\242"
 484      8B09D5D8 
 484      9A8C4752 
 484      85A6A2
 485 003a 512080ED 		.ascii	"Q \200\355\014E\307\266\226V:\305b\201^\240\200\006"
 485      0C45C7B6 
 485      96563AC5 
 485      62815EA0 
 485      8006
 486 004c 13498351 		.ascii	"\023I\203Q\023\014\030Z\277o\357\323N\255`\323f\372"
 486      130C185A 
 486      BF6FEFD3 
 486      4EAD60D3 
 486      66FA
 487 005e 9D7DFBD6 		.ascii	"\235}\373\326Z{\355\357\354c\013!\016:BT\323\363m\372"
 487      5A7BEDEF 
 487      EC630B21 
 487      0E3A4254 
 487      D3F36DFA 
 488 0072 4758C068 		.ascii	"GX\300h\037\027\242\3215\014\331\267Qxas\3529\341E\245"
 488      1F17A2D1 
 488      350CD9B7 
 488      51786173 
 488      EA39E145 
 489 0087 61ED2BE7 		.ascii	"a\355+\347\036\307\250\011K/\262\014{dL\320Hh\0044k"
 489      1EC7A809 
 489      4B2FB20C 
 489      7B644CD0 
 489      48680434 
 490 009c 1B8E5AE5 		.ascii	"\033\216Z\345\252U\016\\\275\312EH7B\0007<\027\242\301"
 490      AA550E5C 
 490      BDCA4548 
 490      37420037 
 490      3C17A2C1 
ARM GAS  C:\Users\AMANRA~1\AppData\Local\Temp\ccHOYdie.s 			page 39


 491 00b0 90A6653B 		.ascii	"\220\246e;4\324\200w\344\373\022\023-'|yP\372R\300\244"
 491      34D48077 
 491      E4FB1213 
 491      2D277C79 
 491      50FA52C0 
 492 00c5 EEEFF9F4 		.ascii	"\356\357\371\364\317E\334\005J\251\333}\256\271\037"
 492      CF45DC05 
 492      4AA9DB7D 
 492      AEB91F
 493 00d4 9B7A3CFA 		.ascii	"\233z<\372\313}\320^\334\323\334\372\222/\015\321I\253"
 493      CB7DD05E 
 493      DCD3DCFA 
 493      922F0DD1 
 493      49AB
 494 00e6 4F238E53 		.ascii	"O#\216S\210\263\3723\330Dk?n\377\350\220!\267@P\373"
 494      88B3FA33 
 494      D8446B3F 
 494      6EFFE890 
 494      21B74050 
 495 00fb EC54C7A2 		.ascii	"\354T\307\242U\336\355yM^n\376\210\364\236\362\245\304"
 495      55DEED79 
 495      4D5E6EFE 
 495      88F49EF2 
 495      A5C4
 496 010d 57902B13 		.ascii	"W\220+\023iH\240\027\345\264\334o\373\354\266\224\225"
 496      6948A017 
 496      E5B4DC6F 
 496      FBECB694 
 496      95
 497 011e 2AF5C2BD 		.ascii	"*\365\302\275\221!#H\235l\225^\324\227&\372t\352\266"
 497      91212348 
 497      9D6C955E 
 497      D49726FA 
 497      74EAB6
 498 0131 38B672A2 		.ascii	"8\266r\242)\220A9\257\376\351\344BG\3146Y\021\011\311"
 498      29904139 
 498      AFFEE9E4 
 498      4247CC36 
 498      591109C9 
 499 0145 C216A0C6 		.ascii	"\302\026\240\306\361KV\316[XL\021y7.\277\374$(\3072"
 499      F14B56CE 
 499      5B584C11 
 499      79372EBF 
 499      FC2428C7 
 500 015a 38480AB4 		.ascii	"8H\012\264\334\227\216\305-\233\203\303\023.\207\020"
 500      DC978EC5 
 500      2D9B83C3 
 500      132E8710 
 501 016a 87308708 		.ascii	"\2070\207\010\0057J!\024\243`l\000+-\201\242\025\373"
 501      05374A21 
 501      14A3606C 
 501      002B2D81 
 501      A215FB
 502 017d 888C0CF5 		.ascii	"\210\214\014\365rb?\231A\255\346\234\270\203\246\354"
 502      72623F99 
 502      41ADE69C 
 502      B883A6EC 
ARM GAS  C:\Users\AMANRA~1\AppData\Local\Temp\ccHOYdie.s 			page 40


 503 018d AFF994CD 		.ascii	"\257\371\224\315\032\322\022$\255\263u\340\242\303V"
 503      1AD21224 
 503      ADB375E0 
 503      A2C356
 504 019c 4AB5AFFE 		.ascii	"J\265\257\376\201\374\260\335\205\303\215\344e\251/"
 504      81FCB0DD 
 504      85C38DE4 
 504      65A92F
 505 01ab C369B901 		.ascii	"\303i\271\001g\331?\232\233LM\315E\022_xz\312B?\272"
 505      67D93F9A 
 505      9B4C4DCD 
 505      45125F78 
 505      7ACA423F 
 506 01c0 D0C13B12 		.ascii	"\320\301;\0228\207\204\302\016i`c\235H_+$\366\004\337"
 506      388784C2 
 506      0E696063 
 506      9D485F2B 
 506      24F604DF 
 507 01d4 10D26DB4 		.ascii	"\020\322m\264\314\354\010$\022\0303\320\036\244\350"
 507      CCEC0824 
 507      121833D0 
 507      1EA4E8
 508 01e3 DBA8B630 		.ascii	"\333\250\2660\260D#\327\240\271\322\233\355\215\021"
 508      B04423D7 
 508      A0B9D29B 
 508      ED8D11
 509 01f2 4D4B234F 		.ascii	"MK#OE\220S4\214\207o5\315\354\216\002\322\262\023\021"
 509      45905334 
 509      8C876F35 
 509      CDEC8E02 
 509      D2B21311 
 510 0206 080CA89A 		.ascii	"\010\014\250\232a\023Mqz\200\255\333/\255\202\211\177"
 510      61134D71 
 510      7A80ADDB 
 510      2FAD8289 
 510      7F
 511 0217 A4A013CD 		.ascii	"\244\240\023\315\264\214*\240\301\355\301\300J$\207"
 511      B48C2AA0 
 511      C1EDC1C0 
 511      4A2487
 512 0226 900635D2 		.ascii	"\220\0065\322=D\361l\\\276gcs\3344\010\315\026\364r"
 512      3D44F16C 
 512      5CBE6763 
 512      73DC3408 
 512      CD16F472 
 513 023a 04FB3936 		.ascii	"\004\37396\356\350lk\235;\032*\354\350;u\004\315\235"
 513      EEE86C6B 
 513      9D3B1A2A 
 513      ECE83B75 
 513      04CD9D
 514 024d 6D194B63 		.ascii	"m\031Kc\005pgRc'\303z[\3000\341\020\341\344\001%\177"
 514      05706752 
 514      6327C37A 
 514      5BC030E1 
 514      10E1E401 
 515 0263 15595795 		.ascii	"\025YW\225X\203\356|\201n\004\011\242`F\277\355\341"
 515      5883EE7C 
ARM GAS  C:\Users\AMANRA~1\AppData\Local\Temp\ccHOYdie.s 			page 41


 515      816E0409 
 515      A26046BF 
 515      EDE1
 516 0275 FD4F033B 		.ascii	"\375O\003;\034:1.~\262\3501\034\257\255\346X]\013\243"
 516      1C3A312E 
 516      7EB2E831 
 516      1CAFADE6 
 516      585D0BA3 
 517 0289 85AAFA9E 		.ascii	"\205\252\372\2369\034\006K\217n\011\300\226\275\265"
 517      391C064B 
 517      8F6E09C0 
 517      96BDB5
 518 0298 FE53AF5D 		.ascii	"\376S\257]O\370|\036\300\005\206\306\030\001\245e\211"
 518      4FF87C1E 
 518      C00586C6 
 518      1801A565 
 518      89
 519 02a9 AEF9A954 		.ascii	"\256\371\251T\340\260\273\316\322\314\027\344\214\007"
 519      E0B0BBCE 
 519      D2CC17E4 
 519      8C07
 520 02b7 453EFAA2 		.ascii	"E>\372\242\206\012\255\023\352\242\202RW\300\017\272"
 520      860AAD13 
 520      EAA28252 
 520      57C00FBA 
 521 02c7 FCA60787 		.ascii	"\374\246\007\207\002\343\\\202\013\352\334\021G\237"
 521      02E35C82 
 521      0BEADC11 
 521      479F
 522 02d5 5E7A55A7 		.ascii	"^zU\247{\212\364|x\235\\\023\212\313d\256KZ\366\344"
 522      7B8AF47C 
 522      789D5C13 
 522      8ACB64AE 
 522      4B5AF6E4 
 523 02e9 8151EB51 		.ascii	"\201Q\353Q\007\362\306Z\007\362c\301\201I>\220\260R"
 523      07F2C65A 
 523      07F263C1 
 523      81493E90 
 523      B052
 524 02fb E92E976F 		.ascii	"\351.\227o\323\203T\376\357\022-3\262\032\375\023\343"
 524      D38354FE 
 524      EF122D33 
 524      B21AFD13 
 524      E3
 525 030c FFE1A3B8 		.ascii	"\377\341\243\270\254\340-\241&?\317\337\231\263\033"
 525      ACE02DA1 
 525      263FCFDF 
 525      99B31B
 526 031b 1E7AC169 		.ascii	"\036z\301i\272\270B\342\005\256\242A\374\202\246\322"
 526      BAB842E2 
 526      05AEA241 
 526      FC82A6D2 
 527 032b 40FFB50F 		.ascii	"@\377\265\017\347\026Br\233*\200\261C_\276\033);\242"
 527      E7164272 
 527      9B2A80B1 
 527      435FBE1B 
 527      293BA2
ARM GAS  C:\Users\AMANRA~1\AppData\Local\Temp\ccHOYdie.s 			page 42


 528 033e 2EE2E1FE 		.ascii	".\342\341\376\242\264\227k)\345\304\251\177_\343J\376"
 528      A2B4976B 
 528      29E5C4A9 
 528      7F5FE34A 
 528      FE
 529 034f 34CA4822 		.ascii	"4\312H\"#u\375yx\311\214\261\023\231\253\246|^\201\345"
 529      2375FD79 
 529      78C98CB1 
 529      1399ABA6 
 529      7C5E81E5 
 530 0363 8ECE4CB8 		.ascii	"\216\316L\270\014\346\255\00430\363\010\260Y\224Q\306"
 530      0CE6AD04 
 530      3330F308 
 530      B0599451 
 530      C6
 531 0374 F1F9CCFD 		.ascii	"\361\371\314\375\030\227c\214^\365k47\217\326\233\277"
 531      1897638C 
 531      5EF56B34 
 531      378FD69B 
 531      BF
 532 0385 0D9E3A8F 		.ascii	"\015\236:\217\345k\277E\177\227\372\212-\316a\021\352"
 532      E56BBF45 
 532      7F97FA8A 
 532      2DCE6111 
 532      EA
 533 0396 13D0A92F 		.ascii	"\023\320\251/\334\245O\003\256\303\306\034\177\0318"
 533      DCA54F03 
 533      AEC3C61C 
 533      7F1938
 534 03a5 D0442633 		.ascii	"\320D&3?\353\220\025\256/\213:I\303u\236\273AF\320\026"
 534      3FEB9015 
 534      AE2F8B3A 
 534      49C3759E 
 534      BB4146D0 
 535 03ba 98C997C5 		.ascii	"\230\311\227\305\313\236(\320Bo\226{|H\241\340\306\272"
 535      CB9E28D0 
 535      426F967B 
 535      7C48A1E0 
 535      C6BA
 536 03cc 0B83D262 		.ascii	"\013\203\322b\352\032\212\255|\211\014R}\023qw\346\257"
 536      EA1A8AAD 
 536      7C890C52 
 536      7D137177 
 536      E6AF
 537 03de 5B2C78F1 		.ascii	"[,x\361\330\335\254\255\307\033p\013q+\373`\002t\007"
 537      D8DDACAD 
 537      C71B700B 
 537      712BFB60 
 537      027407
 538 03f1 8271E8B5 		.ascii	"\202q\350\265\337\\Q\221\240_uMmUm]\262\362\205\312"
 538      DF5C5191 
 538      A05F754D 
 538      6D556D5D 
 538      B2F285CA 
 539 0405 AD89BA64 		.ascii	"\255\211\272d\242\346\3257\023\311\335\325\374|\245"
 539      A2E6D537 
 539      13C9DDD5 
ARM GAS  C:\Users\AMANRA~1\AppData\Local\Temp\ccHOYdie.s 			page 43


 539      FC7CA5
 540 0414 7EEFCEBD 		.ascii	"~\357\316\275;\223\025\325B\326\326\357B\225\334S\277"
 540      3B9315D5 
 540      42D6D6EF 
 540      4295DC53 
 540      BF
 541 0425 4BBE957C 		.ascii	"K\276\225|\375\231\307&\326%)\354\336\243\236\0255\342"
 541      FD99C726 
 541      D62529EC 
 541      DEA39E15 
 541      35E2
 542 0437 1FDBDC87 		.ascii	"\037\333\334\207\317"
 542      CF
 543              		.text
 544              		.section	.gnu.lto_iqGetI.29debcc4,"",%progbits
 545 0000 789C9554 		.ascii	"x\234\225T[KTQ\024\336\353\354s\033/#\206\275\304\020"
 545      5B4B5451 
 545      14DEEBEC 
 545      731B2F23 
 545      86BDC410 
 546 0014 3E646290 		.ascii	">db\220\243\325K\377\300\177\021)\206F`6\030\364\344"
 546      A3D54BFF 
 546      C07F1129 
 546      86466036 
 546      18F4E4
 547 0027 1967BC8C 		.ascii	"\031g\274\214\011\0129\026v\224\011\023Q(\215,s\034"
 547      090A3916 
 547      76940913 
 547      51288D2C 
 547      731C
 548 0039 755253C7 		.ascii	"uRS\307\274\244\211\030Q\017\205\201fB=\364\024Nk\235"
 548      BCA48918 
 548      510F8581 
 548      66423DF4 
 548      144E6B9D 
 549 004d 3D3AC364 		.ascii	"=:\303d\014\036f\326\331{\355\265\277\357[k\257}T\306"
 549      0C1E66D6 
 549      D97BEDB5 
 549      BFEF5B6B 
 549      AF7D54C6 
 550 0061 D890C2D8 		.ascii	"\330\220\302\330\005|W\340\037l\014\244\266e\306\334"
 550      057C57E0 
 550      1F6C0CA4 
 550      B665C6DC 
 551 0071 BA24F1F9 		.ascii	"\272$\361\371E\306\2144}\036\230\221\301%\271)\037g"
 551      45C68C34 
 551      7D1E9891 
 551      C125B929 
 551      1F67
 552 0083 0AD90C19 		.ascii	"\012\331\014\031\024\021\245H\2527BQZ\213\202~\0254"
 552      1411A548 
 552      AA374251 
 552      5A8B827E 
 552      1534
 553 0095 E1D74017 		.ascii	"\341\327@\027\003\035\200\006\206\016\254V\342\262\242"
 553      031D8006 
 553      860EAC56 
ARM GAS  C:\Users\AMANRA~1\AppData\Local\Temp\ccHOYdie.s 			page 44


 553      E2B2A2
 554 00a4 6A3AD442 		.ascii	"j:\324B\013o\347\260\352\0352\371]nr\0062N\177.u~\265"
 554      0B6FE7B0 
 554      EA1D32F9 
 554      5D6E7206 
 554      324E7F2E 
 555 00bb D3142017 		.ascii	"\323\024 \027\247\275\343\236\020\024\364\031\370\204"
 555      A7BDE39E 
 555      1014F419 
 555      F884
 556 00c9 EFB79FE8 		.ascii	"\357\267\237\350\363\324\227\230\\b\035\030=\014\016"
 556      F3D49798 
 556      5C621D18 
 556      3D0C0E
 557 00d8 780E0ED2 		.ascii	"x\016\016\322\373\002\0120\366Q[W\253\304\317\003\303"
 557      FB020A30 
 557      F6515B57 
 557      ABC4CF03 
 557      C3
 558 00e9 F1D8A63F 		.ascii	"\361\330\246?\252\344\367\032F\235\021\336\355\341\306"
 558      AAE4F71A 
 558      469D11DE 
 558      EDE1C6
 559 00f8 19937378 		.ascii	"\031\223sx\011<q#\272\030\214@>\305\177y\266\357\317"
 559      093C7123 
 559      BA188C40 
 559      3EC57F79 
 559      B6EFCF
 560 010b 54650246 		.ascii	"Te\002F\274W\240\002:\315\206\201-\316\213-\300\211"
 560      BC57A002 
 560      3ACD8681 
 560      2DCE8B2D 
 560      C089
 561 011d 7B814939 		.ascii	"{\201I9\257\307\002\234\215\234r{\214\007\206lr\031"
 561      AFC7029C 
 561      8D9C727B 
 561      8C07866C 
 561      7219
 562 012f 4605E845 		.ascii	"F\005\350E\007\024\221\026\226\200\006A\310\263\300"
 562      07149116 
 562      96800641 
 562      C8B3C0
 563 013e 10720C21 		.ascii	"\020r\014!\361E\256\3015%l\354G\033\215\360F\311\302"
 563      F145AEC1 
 563      35256CEC 
 563      471B8DF0 
 563      46C9C2
 564 0151 F0A79C93 		.ascii	"\360\247\234\223\200R\024\211\014'#\243Q\0252*\031\215"
 564      80521489 
 564      0C2723A3 
 564      5115322A 
 564      198D
 565 0163 8C8E46B3 		.ascii	"\214\216F\263\241\221\354@\232\263\031!\345\220\203"
 565      A191EC40 
 565      9AB31921 
 565      E59083
 566 0172 B126148D 		.ascii	"\261&\024\215\3455\302\314\207S\034y\302l\007\246\202"
ARM GAS  C:\Users\AMANRA~1\AppData\Local\Temp\ccHOYdie.s 			page 45


 566      E535C2CC 
 566      87531C79 
 566      C26C07A6 
 566      82
 567 0183 DBAD3E95 		.ascii	"\333\255>\225\350;9e\323Q?\265\242Qe\271\225PhjiV\015"
 567      E83B3965 
 567      D3513FB5 
 567      A25165B9 
 567      9550686A 
 568 019a 40B71B4B 		.ascii	"@\267\033K\233kr\275\223\333!D\345\304\265\215\221\340"
 568      9B6B72BD 
 568      93DB2144 
 568      E5C4B58D 
 568      91E0
 569 01ac 48A6F389 		.ascii	"H\246\363\211\341u\323\222\015\306!\000~\252\014\203"
 569      E175D392 
 569      0DC62100 
 569      7EAA0C83 
 570 01bc 0970B22D 		.ascii	"\011p\262-\360~\234\276t\004\262\015\030L\202(\203\017"
 570      F07E9CBE 
 570      7404B20D 
 570      184C8228 
 570      830F
 571 01ce AB8BAD73 		.ascii	"\253\213\255s \345!J\031\243\015\3221\271\303q\356\327"
 571      20E5214A 
 571      19A30DD2 
 571      31B9C371 
 571      EED7
 572 01e0 C8BD039E 		.ascii	"\310\275\003\236\216\206QE`q\001\367=4\264\251\010\376"
 572      8E865145 
 572      607101F7 
 572      3D34B4A9 
 572      08FE
 573 01f2 283E5930 		.ascii	"(>Y0\205X\310\272\336\014\024\227D\030(e)(\247\343\224"
 573      8558C8BA 
 573      DE0C1497 
 573      44182865 
 573      2928A7E3 
 574 0207 33E0441A 		.ascii	"3\340D\032\004\253\013n\233\375\232\240\225S\244\260"
 574      04AB0B6E 
 574      9BFD9AA0 
 574      9553A4B0 
 575 0217 DEB8F939 		.ascii	"\336\270\3719\035\361\304\222\012o,< \274Y\221\202\331"
 575      1DF1C492 
 575      0A6F2C3C 
 575      20BC5991 
 575      82D9
 576 0229 B01D4B41 		.ascii	"\260\035KAA8\352\034d\370\217\334\333\311r\223\341\347"
 576      4138EA1C 
 576      64F88FDC 
 576      DBC97293 
 576      E1E7
 577 023b E2F0F324 		.ascii	"\342\360\363$W!\260?\315w\004Av\342\001\251\377\034"
 577      5721B03F 
 577      CD770441 
 577      76E201A9 
 577      FF1C
ARM GAS  C:\Users\AMANRA~1\AppData\Local\Temp\ccHOYdie.s 			page 46


 578 024d 7DE01AC2 		.ascii	"}\340\032\302\313$\"B\360\260\200`\354\033\324\005N"
 578      CB242242 
 578      F0B08060 
 578      EC1BD405 
 578      4E
 579 025e 5B2D8B4D 		.ascii	"[-\213M\206\020\"\377._\226\200L\226\230*\377\267\226"
 579      861022FF 
 579      2E5F9680 
 579      4C96982A 
 579      FFB796
 580 0271 4089042E 		.ascii	"@\211\004.\212\366\3710=\003\207\371\253\261~\221\331"
 580      8AF6F930 
 580      3D0387F9 
 580      ABB17E91 
 580      D9
 581 0282 E3B356BB 		.ascii	"\343\263V\273 Ww\277]\254k\307\344Z\262\270\254[\274"
 581      205777BF 
 581      5DAC6BC7 
 581      E45AB2B8 
 581      AC5BBC
 582 0295 6CD51ACB 		.ascii	"l\325\032\313\032Q\216\252\353\365Tu]\211\327\365\035"
 582      1A518EAA 
 582      EBF55475 
 582      5D89D7F5 
 582      1D
 583 02a6 D555B354 		.ascii	"\325U\263T*\207]\2152\007|\261\226\320\217%3\015V-l"
 583      2A875D8D 
 583      32077CB1 
 583      96D08F25 
 583      330D562D 
 584 02bb 99B0D70E 		.ascii	"\231\260\327\016n\324AI\364\304\023K\303+\365\376\360"
 584      6ED44149 
 584      F4C4134B 
 584      C32BF5FE 
 584      F0
 585 02cc 4AA92C32 		.ascii	"J\251,2G\344\273\340\015\014\366Z\334\0147\340\337n"
 585      47E4BBE0 
 585      0D0CF65A 
 585      DC0C37E0 
 585      DF6E
 586 02de F2742B44 		.ascii	"\362t+D\213\353\373\325\370\303_-0s\350\024iY\217}\037"
 586      8BEBFBD5 
 586      F8C35F2D 
 586      3073E814 
 586      69598F7D 
 587 02f3 F640C25D 		.ascii	"\366@\302]6\364\375\006\033\256kt\221\242\375{A\225"
 587      36F4FD06 
 587      1BAE6B74 
 587      91A2FD7B 
 587      4195
 588 0305 5825FC3A 		.ascii	"X%\374:\257\203C\012>]\003\374\274\000m\302\363;WX\350"
 588      AF83430A 
 588      3E5D03FC 
 588      BC006DC2 
 588      F33B5758 
 589 031a C45F5945 		.ascii	"\304_YEeie\225\253\370rq\221\263\312\345\254\270z\303"
 589      65696595 
ARM GAS  C:\Users\AMANRA~1\AppData\Local\Temp\ccHOYdie.s 			page 47


 589      ABF87271 
 589      91B3CAE5 
 589      ACB87AC3 
 590 032e E9BA5546 		.ascii	"\351\272UF\357+\3255\3455\345\256\3022\306+\253oB\351"
 590      EF2BD535 
 590      E535E5AE 
 590      C232C62B 
 590      AB6F42E9 
 591 0342 5FA7C7E3 		.ascii	"_\247\307\343\332"
 591      DA
 592              		.text
 593              		.section	.gnu.lto_iqGetTimeout.29debcc4,"",%progbits
 594 0000 789C9555 		.ascii	"x\234\225U]LSg\030\376\336\363\235\236\323R@6\223\335"
 594      5D4C5367 
 594      18FEDEF3 
 594      9D9ED352 
 594      403693DD 
 595 0014 8C8B9A8C 		.ascii	"\214\213\232\214\201\314Q\214\311\026\257\266\205\233"
 595      81CC518C 
 595      C916AFB6 
 595      859B
 596 0022 7941B2E8 		.ascii	"yA\262\350\355\022\242]\0075\326B\013\213^q\370\033"
 596      ED12A25D 
 596      0735D642 
 596      0B8B5E71 
 596      F81B
 597 0034 12E77419 		.ascii	"\022\347t\0310\202\005\252\2022\027\2019\025\371\357"
 597      308205AA 
 597      82321781 
 597      3915F9EF 
 598 0044 6043A750 		.ascii	"`C\247P\204)2`\2000Xp\004\335\377b\262\262\367\375N"
 598      84293260 
 598      80305870 
 598      04DDFF62 
 598      B2B2F7FD 
 599 0059 ED687126 		.ascii	"\355hq&;i\276\363\363\376=\357\363>\337W\2051\366\256"
 599      3B69BEF3 
 599      F3FE3DEF 
 599      F33EDF57 
 599      8531F6AE 
 600 006d CAD80E60 		.ascii	"\312\330\016`l?>\203\211\201t\"\300X\221Q\002\203\376"
 600      6C3F3E83 
 600      89817422 
 600      C0589151 
 600      0283FE
 601 0080 C02579D5 		.ascii	"\300%y\325\300\264\030\343\351\353\214i\2612\250\372"
 601      C0B418E3 
 601      E9EB8C69 
 601      B132A8FA 
 602 0090 77A3EE00 		.ascii	"w\243\356\000\006\211\013K\214Bn\261\212n\007\025\200"
 602      06890B4B 
 602      8C426EB1 
 602      8A6E0715 
 602      80
 603 00a1 EE9A1158 		.ascii	"\356\232\021X\241\304e\243AQ\241P2\260\320\365\001\257"
 603      A1C465A3 
 603      4151A150 
ARM GAS  C:\Users\AMANRA~1\AppData\Local\Temp\ccHOYdie.s 			page 48


 603      32B0D0F5 
 603      01AF
 604 00b3 E4305ADA 		.ascii	"\3440Z\332\346\345G\271\2273\220\361\365\347\341\332"
 604      E6E547B9 
 604      973390F1 
 604      F5E7E1DA 
 605 00c3 85787A05 		.ascii	"\205xz\005\260\340kSOI7l=\247\341\345\377\344\326\346"
 605      B0E06B53 
 605      4F49376C 
 605      3DA7E1E5 
 605      FFE4D6E6 
 606 00d7 7325656F 		.ascii	"s%eoz\271\304\252\321\373\022$\302\027\220H\210/\303"
 606      7AB9C4AA 
 606      D1FB1224 
 606      C2179048 
 606      882FC3
 607 00ea 56F43D75 		.ascii	"V\364=u\242\356\270\304_\006\206\317]\023Uk\206\344"
 607      A2EEB8C4 
 607      5F0686CF 
 607      5D13556B 
 607      86E4
 608 00fc 264D2BD6 		.ascii	"&M+\326\374\323\215\\{\301\3139\\\001\276>\020?1h\207"
 608      FCD38D5C 
 608      7BC1CB39 
 608      5C01BE3E 
 608      103F3168 
 609 0111 64749FFE 		.ascii	"dt\237\376\260r1\236o\027\241\017\227\377|\024\037\012"
 609      B072319E 
 609      6F17A10F 
 609      97FF7C14 
 609      1F0A
 610 0123 FDEDAC08 		.ascii	"\375\355\254\010\225\341jt\250\314\240\003\222\311\337"
 610      95E16A74 
 610      A8CCA003 
 610      92C9DF
 611 0132 FBFEF945 		.ascii	"\373\376\371E\316w\212\330\336\217}}r\322\031\021\033"
 611      CE778AD8 
 611      DE8F7D7D 
 611      72D21911 
 611      1B
 612 0143 083C5754 		.ascii	"\010<WT\242\325h\262\227\033\240S\217\337\221\010\351"
 612      A2D568B2 
 612      971BA053 
 612      8FDF9108 
 612      E9
 613 0154 89A27774 		.ascii	"\211\242wt\236\377<X\025\247\310\320\005I\324\020\366"
 613      9EFF3C58 
 613      15A7C8D0 
 613      0549D410 
 613      F6
 614 0165 D10D8A14 		.ascii	"\321\015\212\0246\224\212\246g\002\212\370^\315\201"
 614      36948AA6 
 614      67028AF8 
 614      5ECD81
 615 0174 4599A67E 		.ascii	"E\231\246~|Me\320C6)\332\266\340\335\3666\203^\262q"
 615      7C4D65D0 
 615      433629DA 
ARM GAS  C:\Users\AMANRA~1\AppData\Local\Temp\ccHOYdie.s 			page 49


 615      B6E0DDF6 
 615      36835EB2 
 616 0189 B235DD18 		.ascii	"\2625\335\030\3533\363c \222|\332r\252&6\204\362\301"
 616      EB33F363 
 616      20927CDA 
 616      72AA2636 
 616      84F2C1
 617 019c F9949325 		.ascii	"\371\224\223%G\217i\276\342\004/W\300\037\331g\004R"
 617      478F69BE 
 617      E2042F57 
 617      C01FD967 
 617      0452
 618 01ae 3DF33831 		.ascii	"=\36381\371%B\206>\312.\257\353\204A?(0\000\210\030"
 618      F9254286 
 618      3ECA2EAF 
 618      EB84413F 
 618      28300088 
 619 01c3 17FC3ED4 		.ascii	"\027\374>\324\326qW\346CzU\177\343\344\250\221\252\322"
 619      D67157E6 
 619      437A557F 
 619      E3E4A891 
 619      AAD2
 620 01d5 2867369F 		.ascii	"(g6\237\274\244i\025\257\3430\341\253\247\324\224\341"
 620      BCA46915 
 620      AFE330E1 
 620      ABA7D494 
 620      E1
 621 01e6 6B2A8504 		.ascii	"k*\205\004l\000\022\030\211g0H\030\014\321\246\331k"
 621      6C001218 
 621      89673048 
 621      180CD1A6 
 621      D96B
 622 01f8 2FD62088 		.ascii	"/\326 \210kdT\"\000^G\200\337\200\262\221\256\224,F"
 622      6B645422 
 622      005E4780 
 622      DF80B291 
 622      AE942C46 
 623 020c 866AAE3E 		.ascii	"\206j\256>\201\241\372\377\305\320j=2t\223`\337\330"
 623      81A1FAFF 
 623      C5D06A3D 
 623      32749360 
 623      DFD8
 624 021e C8D01002 		.ascii	"\310\320\020\002\030&\206p\301\015\307Z\307\014~-\270"
 624      18268670 
 624      C10DC75A 
 624      C70C7E2D 
 624      B8
 625 022f 568E9C24 		.ascii	"V\216\234$\004\202\313u/%\000\252K\225p1\312\270\230"
 625      0482CB75 
 625      2F2500AA 
 625      4B957031 
 625      CAB898
 626 0242 0CB428B8 		.ascii	"\014\264(\270H& \265\306\000\011\317L_\031;\202\262"
 626      482620B5 
 626      C60009CF 
 626      4C5F193B 
 626      82B2
ARM GAS  C:\Users\AMANRA~1\AppData\Local\Temp\ccHOYdie.s 			page 50


 627 0254 69346B7E 		.ascii	"i4k~V\201\022h4\227\370\331\022H\214\306\2035\313\227"
 627      56811268 
 627      3497F8D9 
 627      12488CC6 
 627      8335CB97 
 628 0268 B51E99B6 		.ascii	"\265\036\231\266\222\002\026\010 \326\237\240x\376L"
 628      92021608 
 628      20D69FA0 
 628      78FE4C
 629 0277 5DE72CD0 		.ascii	"]\347,\320x\200\341THm\247\033.\376\025\263\245Ij\320"
 629      7880E154 
 629      486DA71B 
 629      2EFE15B3 
 629      A5496AD0 
 630 028b 6A2C5E1E 		.ascii	"j,^\036Ch/,tiFYBE\216\300\026\321\337\303\225\333S\022"
 630      43682F2C 
 630      74694659 
 630      42458EC0 
 630      16D1DFC3 
 631 02a3 7E815B20 		.ascii	"~\201[ \213\\\014F\305~m\356\035X\214\335\322\034\212"
 631      8B5C0C46 
 631      C57E6DEE 
 631      1D588CDD 
 631      D21C8A
 632 02b6 3693EF2F 		.ascii	"6\223\357/-\027\357\230E\364\030E\303\267 #\254\342"
 632      2D17EF98 
 632      45F41845 
 632      C3B72023 
 632      ACE2
 633 02c8 B9CB5595 		.ascii	"\271\313U\225\331\002\033qV\201\272\304#\003\021\337"
 633      D9021B71 
 633      5681BAC4 
 633      230311DF 
 634 02d8 87E247E5 		.ascii	"\207\342G\345\255\335\347\266\3220k9`\206\352\262\376"
 634      ADDDE7B6 
 634      D2306B39 
 634      6086EAB2 
 634      FE
 635 02e9 119590EB 		.ascii	"\021\225\220\353\242\357\356\037\036T|P_\204\354\372"
 635      A2EFEE1F 
 635      1E547C50 
 635      5F84ECFA 
 636 02f9 82444D6C 		.ascii	"\202DMl-7\301m\202\201\346\333\345\0233f\353\005\342"
 636      2D37C16D 
 636      8281E6DB 
 636      E5133366 
 636      EB05E2
 637 030c 1E21C4C1 		.ascii	"\036!\304\301\035\360A\025\017\015\346\263\341\3733"
 637      1DF04115 
 637      0F0DE6B3 
 637      E1FB33
 638 031b 4AE1DF64 		.ascii	"J\341\337d\364\235\005d\026\306\301\212\240\356B!\201"
 638      F49D0564 
 638      16C6C18A 
 638      A0EE4221 
 638      81
 639 032c B250513A 		.ascii	"\262PQ:\000N\316\004M\274M\022\365\206\216\267|d\016"
ARM GAS  C:\Users\AMANRA~1\AppData\Local\Temp\ccHOYdie.s 			page 51


 639      004ECE04 
 639      4DBC4D12 
 639      F5868EB7 
 639      7C640E
 640 033f 4D7F3010 		.ascii	"M\1770\020_\253\371K-\0249\261q\364\360\035$!fJ\345"
 640      5FABF94B 
 640      2D1439B1 
 640      71F4F01D 
 640      2421664A 
 641 0354 EBD35BC0 		.ascii	"\353\323[\300\004Su\025WM\033\022l8ED\202IJ\020\303"
 641      04537515 
 641      574D1B12 
 641      6C384544 
 641      82494A10 
 642 0369 56A06CEE 		.ascii	"V\240l\356\301\257\015\345qQb\302\235\362<\371P\241"
 642      C1AF0DE5 
 642      715162C2 
 642      9DF23CF9 
 642      50A1
 643 037b 90DC8D11 		.ascii	"\220\334\215\021\202\232\302QN\223\240\246\211=3\232"
 643      829AC251 
 643      4E93A0A6 
 643      893D339A 
 644 038b 3A3A56A6 		.ascii	"::V\246Tl\331\350\345\361\325\310\323\024Y\277\307~"
 644      546CD9E8 
 644      E5F1D5C8 
 644      D31459BF 
 644      C77E
 645 039d 112896F2 		.ascii	"\021(\226\362\362M\341\316E\326\177\337&#\336h\347\261"
 645      F24DE1CE 
 645      45D67FDF 
 645      2623DE68 
 645      E7B1
 646 03af 45280D0C 		.ascii	"E(\015\014\014\216\244\353\3031\257\037\016\222\005"
 646      0C8EA4EB 
 646      C331AF1F 
 646      0E9205
 647 03be 33A1362A 		.ascii	"3\2416*P\346W\014\217\365wS\350/\354HZ\233\215\320\337"
 647      50E6570C 
 647      8FF57753 
 647      E82FEC48 
 647      5A9B8DD0 
 648 03d3 F03AFD05 		.ascii	"\360:\375\005\033\356\365\232\037KkVHkNH+ZG\367\302"
 648      1BEEF59A 
 648      1F4B6B56 
 648      486B4E48 
 648      2B5A47F7 
 649 03e8 3A9ACC16 		.ascii	":\232\314\0265\260\356\037 #*\036\254_\353\310\301\335"
 649      35B0EE1F 
 649      20232A1E 
 649      AC5FEBC8 
 649      C1DD
 650 03fa 60642BFD 		.ascii	"`d+\375\014*\360D\300\377\035\241\255\376\316\216\376"
 650      0C2AF044 
 650      C0FF1DA1 
 650      ADFECE8E 
 650      FE
ARM GAS  C:\Users\AMANRA~1\AppData\Local\Temp\ccHOYdie.s 			page 52


 651 040b 2E890E90 		.ascii	".\211\016\220Z.Ei\311\022%\244\361\366\316\3668\024"
 651      5A2E4569 
 651      C91225A4 
 651      F1F6CEF6 
 651      3814
 652 041d 52691199 		.ascii	"Ri\021\231\022`^\010\211v),\240h\220\212\311\001<\314"
 652      12605E08 
 652      8976292C 
 652      A068908A 
 652      C9013CCC 
 653 0431 C2B9C20D 		.ascii	"\302\271\302\015\342\236\205\037\302L(l5\304\004\271"
 653      E29E851F 
 653      C24C286C 
 653      35C404B9 
 654 0441 A25FE5D2 		.ascii	"\242_\345\322\221\3377\2456\353\307g+?UR\012\364\007"
 654      91DF37A5 
 654      36EBC767 
 654      2B3F5552 
 654      0AF407
 655 0454 A25FB008 		.ascii	"\242_\260\010\251\272\000d=\263!r\204\317T\243\221\301"
 655      A9BA0064 
 655      3DB32172 
 655      84CF54A3 
 655      91C1
 656 0466 92989FC9 		.ascii	"\222\230\237\311\313\237\0255T}\267\257\"\333\265X\220"
 656      CB9F1535 
 656      547DB7AF 
 656      22DBB558 
 656      90
 657 0477 88C05059 		.ascii	"\210\300PY\026D`\016\205\316\006@'\244/5-\315\212?["
 657      1644600E 
 657      85CE0640 
 657      27A42F35 
 657      2DCD8A3F 
 658 048c 8E639FC3 		.ascii	"\216c\237\303\345\331\276s{\272\325\345\261\346\354"
 658      E5D9BE73 
 658      7BBAD5E5 
 658      B1E6EC
 659 049b 3D60F5B8 		.ascii	"=`\365\270mt\317\312+\260\027\330=i6\306\035y\271j\276"
 659      6D74CFCA 
 659      2BB017D8 
 659      3D6936C6 
 659      1D79B96A 
 660 04b0 C3697715 		.ascii	"\303iw\025\344\303\276\224\377\014typq\347\213{Z\016"
 660      E4C3BE94 
 660      FF0C7479 
 660      7071E78B 
 660      7B5A0E
 661 04c3 7BB223DA 		.ascii	"{\262#\332\035\007m\007\012\336\261\243\305s\330\203"
 661      1D076D07 
 661      0ADEB1A3 
 661      C573D883 
 662 04d3 8EEABEBD 		.ascii	"\216\352\276\275\036\373[n\307+O\014\260\271\234N\327"
 662      1EFB5B6E 
 662      C72B4F0C 
 662      B0B99C4E 
 662      D7
ARM GAS  C:\Users\AMANRA~1\AppData\Local\Temp\ccHOYdie.s 			page 53


 663 04e4 416BAECB 		.ascii	"Ak\256\313\235\357\261\276\261;3#\363\020\272\330\\"
 663      9DEFB1BE 
 663      B13B3323 
 663      F310BAD8 
 663      5C
 664 04f5 6E7BD67B 		.ascii	"n{\326{\257:1\234;=\331\031O\013\265\037\312\247@kF"
 664      AF3A319C 
 664      3B3DD919 
 664      4F0BB51F 
 664      CAA7406B 
 665 050a E69E5D7B 		.ascii	"\346\236]{\254\031\030i\335\365\030\202\323\343\360"
 665      AC191869 
 665      DDF51882 
 665      D3E3F0
 666 0519 6465DB6C 		.ascii	"de\333l\230'!s\317n\013A\311u;\266Y\222\322\231\344"
 666      98272173 
 666      CF6E0B41 
 666      C9753BB6 
 666      5992D299 
 667 052e 66AAD3EE 		.ascii	"f\252\323\356t\271\0173\236\237\227\373\017\257>\304"
 667      74B90F33 
 667      9E9F97FB 
 667      0FAF3EC4 
 668 053e 9C       		.ascii	"\234"
 669              		.text
 670              		.section	.gnu.lto_iqReadI.29debcc4,"",%progbits
 671 0000 789C6D92 		.ascii	"x\234m\222\337K\024Q\024\307\317\271gfv\374\221O\325"
 671      DF4B1451 
 671      14C7CFB9 
 671      676676FC 
 671      914FD5
 672 0013 83F82094 		.ascii	"\203\370 \224,\012\271-E \364\330\177Q\020i\206B\370"
 672      2C0AB92D 
 672      4520F4D8 
 672      7F511069 
 672      8642F8
 673 0026 6B31E869 		.ascii	"k1\350i\257?J\305\240\015t\223e\212\025\221-\244-I\323"
 673      AF3F4AC5 
 673      A00D7493 
 673      658A1591 
 673      2DA42D49 
 674 003b F5476EAB 		.ascii	"\365Gn\253I\021ZI\201\261P`\245X\233PD\010\246v\356"
 674      49115A49 
 674      81B15060 
 674      A5589B50 
 674      4408A676 
 675 0050 75B51287 		.ascii	"u\265\022\207\031\346\236\271\337\317\271\337s\316X"
 675      19E69EB9 
 675      DFCFB9DF 
 675      73CE58
 676 005f 00708C00 		.ascii	"\000p\214\000N\362\373\024?h\001\212\300,@\203-\004"
 676      4EF2FB14 
 676      3F68018A 
 676      C02C4083 
 676      2D04
 677 0071 751581CC 		.ascii	"u\025\201\3144W\017\201\314&a|x\016*\354784\320\334"
 677      34570F81 
ARM GAS  C:\Users\AMANRA~1\AppData\Local\Temp\ccHOYdie.s 			page 54


 677      CC26617C 
 677      780E2AEC 
 677      373834D0 
 678 0086 5299886A 		.ascii	"R\231\210j!m\004\277 \303D?^\243\016\302\327\315\017"
 678      216D04BF 
 678      20C3443F 
 678      5EA30EC2 
 678      D7CD0F
 679 0099 1C6A2787 		.ascii	"\034j'\207\000\015\016\277\317\204>\346\250\0201\237"
 679      000D0EBF 
 679      CF843EE6 
 679      A810319F 
 680 00a9 C3D4CAF4 		.ascii	"\303\324\312\364@vaD\312F\031\277\271z\260k\340\225"
 680      40766144 
 680      CA4619BF 
 680      B97AB06B 
 680      E095
 681 00bb CC704840 		.ascii	"\314pH@\220\345\003\230\207\0171O\231\031\304B\026w"
 681      90E50398 
 681      870F314F 
 681      9919C442 
 681      1677
 682 00cd 076E5D17 		.ascii	"\007n]\027t\004\201\327\243\363\235\233\246\273W\203"
 682      740481D7 
 682      A3F39D9B 
 682      A6BB5783 
 683 00dd BF7B481E 		.ascii	"\277{H\036v\210\360\021\322\277 \177\002\034B7\313\327"
 683      7688F011 
 683      D2BF207F 
 683      021C4237 
 683      CBD7
 684 00ef DADF0633 		.ascii	"\332\337\0063\310\253\321\033K\221\015L\243\251^\215"
 684      C8ABD11B 
 684      4B910D4C 
 684      A3A95E8D 
 685 00ff 1A38BC1B 		.ascii	"\0328\274\0335\000c\032]\227\035\301\034:\256\321O/"
 685      3500631A 
 685      5D971DC1 
 685      1C3AAED1 
 685      4F2F
 686 0111 7A02AE34 		.ascii	"z\002\2564:\025\321\250\300\221\335\250\000\034E\267"
 686      3A15D1A8 
 686      C091DDA8 
 686      001C45B7 
 687 0121 D2C79ADE 		.ascii	"\322\307\232\336\015f\321\011\315\316-9\263X\320\243"
 687      0D66D109 
 687      CDCE2D39 
 687      B358D0A3 
 688 0131 D95FC9FD 		.ascii	"\331_\311\375\335M\362\2314\024?\366?\257.\226\337\215"
 688      DD4DF299 
 688      34143FF6 
 688      3FAF2E96 
 688      DF8D
 689 0143 DC496651 		.ascii	"\334IfQ\211F7\207\026\206\2154\272\222\314\335FM|\274"
 689      89463787 
 689      16868D34 
 689      BA92CCDD 
ARM GAS  C:\Users\AMANRA~1\AppData\Local\Temp\ccHOYdie.s 			page 55


 689      464D7CBC 
 690 0157 27BAD0BF 		.ascii	"'\272\320\277\321\271\3172p\002\013p\034\013T3\271\207"
 690      D1B9CF32 
 690      70020B70 
 690      1C0B5433 
 690      B987
 691 0169 71355200 		.ascii	"q5R\000\261\375\371\376\234\031\227\033\233-2\276xz"
 691      B1FDF9FE 
 691      9C19971B 
 691      9B2D32BE 
 691      787A
 692 017b EDE7B703 		.ascii	"\355\347\267\003\231<\022n\026\327\315\002\236&Wo\241"
 692      993C126E 
 692      16D7CD02 
 692      9E26576F 
 692      A1
 693 018c 2AC4069D 		.ascii	"*\304\006\235\005Z9\015\217X\306\241\215K\344US\034"
 693      055A390D 
 693      8F58C6A1 
 693      8D4BE455 
 693      531C
 694 019e BE60E3C8 		.ascii	"\276`\343\310\362x\237Ke\017\221\032p\360J\342\245K"
 694      F2789F4B 
 694      650F911A 
 694      70F04AE2 
 694      A54B
 695 01b0 0D98B4F5 		.ascii	"\015\230\264\365\261\304\314\264\025\306\333\015R\312"
 695      B1C4CCB4 
 695      15C6DB0D 
 695      52CA
 696 01be F0087277 		.ascii	"\360\010rwXG\370D\271\345\3557-\363\357\263<\367xS\346"
 696      5847F844 
 696      B9E5ED37 
 696      2DF3EFB3 
 696      3CF77853 
 697 01d3 AB821218 		.ascii	"\253\202\022\030\306Ne\027p\022=\260\210\215\341K*\267"
 697      C64E6517 
 697      70123DB0 
 697      888DE14B 
 697      2AB7
 698 01e5 F2C4F921 		.ascii	"\362\304\371!\205W\303}Qk\3538[u8\226J\272\374\353\322"
 698      8557C37D 
 698      516BEB38 
 698      5B753896 
 698      4ABAFCEB 
 699 01fa 76C815E4 		.ascii	"v\310\025\344#\001\247\320\017|D\210\314\020Y\016\331"
 699      2301A7D0 
 699      0F7C4488 
 699      CC10590E 
 699      D9
 700 020b 2A49BECE 		.ascii	"*I\276\3161\256r\330\360\031\233\223\223?\316\374\315"
 700      31AE72D8 
 700      F0199B93 
 700      933FCEFC 
 700      CD
 701 021c B1635920 		.ascii	"\261cY \340\323t\037\333\370\347\351*\342\022\265|\212"
 701      E0D3741F 
ARM GAS  C:\Users\AMANRA~1\AppData\Local\Temp\ccHOYdie.s 			page 56


 701      DBF8E7E9 
 701      2AE212B5 
 701      7C8A
 702 022e F6A8D064 		.ascii	"\366\250\320d\371\364\216\334\200e7\313S\330\034\236"
 702      F9F48EDC 
 702      806537CB 
 702      53D81C9E 
 703 023e 889ABADD 		.ascii	"\210\232\272\335\3121[q(C+\314t\323V\270\252\257\321"
 703      CA315B71 
 703      28432BCC 
 703      74D356B8 
 703      AAAFD1
 704 0251 DCB40145 		.ascii	"\334\264\001E\267\262s\336\023\000E\305\305\036\276"
 704      B7B273DE 
 704      130045C5 
 704      C51EBE
 705 0260 CB2A2A4B 		.ascii	"\313**K+\253}\336\022\357QO\265\317Sq\356\242\307WW"
 705      2BAB7DDE 
 705      12EF514F 
 705      B5CF5371 
 705      EEA2C757 
 706 0275 A6DE676B 		.ascii	"\246\336gk\353\313\353\313}\305e@\225\2655\242\264\006"
 706      EBCBEBCB 
 706      7DC56540 
 706      95B535A2 
 706      B406
 707 0287 AB44DD79 		.ascii	"\253D\335y\252\272p\371\017\277\006\031!"
 707      AABA70F9 
 707      0FBF0619 
 707      21
 708              		.text
 709              		.section	.gnu.lto_iqReadTimeout.29debcc4,"",%progbits
 710 0000 789C9556 		.ascii	"x\234\225ViLTW\024\276\347\3357\363f\023\301\255\021"
 710      694C5457 
 710      14BEE7DD 
 710      37F36613 
 710      C1AD11
 711 0013 B4C1A444 		.ascii	"\264\301\244Dl\325\321\206\33041M-\177\352\017\223F"
 711      6CD5D186 
 711      D834314D 
 711      2D7FEA0F 
 711      9346
 712 0025 FF36313A 		.ascii	"\37761:N\221\324a\220A\243\277x\002j\021[5\305\221\214"
 712      4E91D461 
 712      9041A3BF 
 712      78026A11 
 712      5B35C591 
 713 003a 23826B4D 		.ascii	"#\202kM\305\025\027p\233J\213+\356\270\241\270\242\014"
 713      C5151770 
 713      9B4A8B2B 
 713      EEB8A1B8 
 713      A20C
 714 004c 8E1445D1 		.ascii	"\216\024E\321J\035z\316}\003\0163H\343\204<\336\275"
 714      4A1D7ACE 
 714      7D030E33 
 714      48E3843C 
 714      DEBD
ARM GAS  C:\Users\AMANRA~1\AppData\Local\Temp\ccHOYdie.s 			page 57


 715 005e F77CE79C 		.ascii	"\367|\347\234{\276\357\334\373\364\214\261\301\026\306"
 715      7BBEEFDC 
 715      FBF48CB1 
 715      C116C6
 716 006d 5281B165 		.ascii	"R\201\261e\370\016\026\006\322\312s\214-2H`\326^\270"
 716      F80E1606 
 716      D2CA738C 
 716      2D324860 
 716      D65EB8
 717 0080 243F1CCA 		.ascii	"$?\034\312T\223n{\012S-\262dj\321\341\310\270\341$\303"
 717      54936E7B 
 717      0A532DB2 
 717      646AD1E1 
 717      C8B8E124 
 718 0095 A14ED2E7 		.ascii	"\241N\322\347\237\302\027\223\262\034g-zP4\220\002F"
 718      9FC21793 
 718      B21C672D 
 718      7A503490 
 718      0246
 719 00a7 EDC5A8B9 		.ascii	"\355\305\250\271\231d\226\270@\230\004\334b\002\240"
 719      996496B8 
 719      409804DC 
 719      6202A0
 720 00b6 69D5002C 		.ascii	"i\325\000,G\342\262N\257\030\315&\310\221\314,\364["
 720      47E2B24E 
 720      AF18CD26 
 720      C891CC2C 
 720      F45B
 721 00c8 CE8B385C 		.ascii	"\316\2138\\\314\337\345\345\205\334\313\031\3108|V\353"
 721      CCDFE5E5 
 721      85DCCB19 
 721      C8387C56 
 721      EB
 722 00d9 79104343 		.ascii	"y\020CC\200D\034\006Zj*,\243\266\252j\256\352[\343\211"
 722      80441C06 
 722      5A6A2A2C 
 722      A3B6AA6A 
 722      AEEA5BE3 
 723 00ee 2FAEB8A0 		.ascii	"/\256\270\240\032\275\\bn4\257\200a\260\027\206\321"
 723      1ABD5C62 
 723      6E34AF80 
 723      61B01786 
 723      D1
 724 00ff 96F6C128 		.ascii	"\226\366\301(4.[\271n\205\304\307\000\303\367C\327W"
 724      342E5BB9 
 724      6E85C4C7 
 724      00C3F743 
 724      D757
 725 0111 77EA466E 		.ascii	"w\352Fn\026\300\300&\256~\342\345\034\366\003\017\007"
 725      16C0C026 
 725      AE7EE2E5 
 725      1CF6030F 
 725      07
 726 0122 E2148303 		.ascii	"\342\024\203\0030\022\315;\012\353\334F>^@W=\336\032"
 726      3012CD3B 
 726      0AEBDC46 
 726      3E5E4057 
ARM GAS  C:\Users\AMANRA~1\AppData\Local\Temp\ccHOYdie.s 			page 58


 726      3DDE1A
 727 0135 8410F4D6 		.ascii	"\204\020\364\326\026\001\225\341`$TfP)\240o\325\"w\014"
 727      160195E1 
 727      60245466 
 727      5029A06F 
 727      D522770C 
 728 0149 4F11D087 		.ascii	"O\021\320\207g6\256TB\320\366\246\370\215y\352\267\230"
 728      6736AE54 
 728      42D0F6A6 
 728      F88D79EA 
 728      B798
 729 015b 2D544582 		.ascii	"-TE\202%\006\207\004\370\326/E\2151|\202\000\267\372"
 729      25068704 
 729      F8D62F45 
 729      8D317C82 
 729      00B7FA
 730 016e 5FBD8909 		.ascii	"_\275\211\011\201_l\026qup8\022\252cp\004F\212<k\032"
 730      815F6C16 
 730      71757038 
 730      12AA6370 
 730      04468A3C 
 731 0184 B71BF957 		.ascii	"\267\033\371W\002{\255(\260GI\332(\2605\376Aey\352I"
 731      027BAD28 
 731      B04749DA 
 731      28B035FE 
 731      416579EA 
 732 0199 55A6D047 		.ascii	"U\246\320G{\342\351\207\346\333\266\376Vo\346\337\010"
 732      7BE2E987 
 732      E6DBB6FE 
 732      566FE6DF 
 732      08
 733 01aa 68E781FB 		.ascii	"h\347\201\373\007\345\0204\330\024\337\005\325\203\257"
 733      07E51034 
 733      D814DF05 
 733      D583AF
 734 01b9 57E8FDDD 		.ascii	"W\350\375\335\301\325\375\3642\374\001Ip\014\222J9#"
 734      C1D5FDF4 
 734      32FC0149 
 734      700C924A 
 734      3923
 735 01cb 329083E3 		.ascii	"2\220\203\343\240\227\272\327\363U\374\371\036\371\365"
 735      A097BAD7 
 735      F355FCF9 
 735      1EF9F5
 736 01da 62DECD81 		.ascii	"b\336\315\201E,\265\025O\314aPMkR\344Z\307\272\321\337"
 736      452CB515 
 736      4FCC6150 
 736      4D6B52E4 
 736      5AC7BAD1 
 737 01ef 33F893D6 		.ascii	"3\370\223\3268\255m>}\351\230\231\027\203p\262mGY\261"
 737      38AD6D3E 
 737      7DE99899 
 737      178370B2 
 737      6D4759B1 
 738 0203 2594EE89 		.ascii	"%\224\356\211\355\311k\363\012\177VKsc\275\\\201\232"
 738      EDC96BF3 
 738      0A7F564B 
ARM GAS  C:\Users\AMANRA~1\AppData\Local\Temp\ccHOYdie.s 			page 59


 738      7363BD5C 
 738      819A
 739 0215 3E12D63C 		.ascii	">\022\326<_%\025\234\200$\006\177\221w9lC\014N\202\036"
 739      5F25159C 
 739      8024067F 
 739      9177396C 
 739      430C4E82 
 740 022a 4E01668C 		.ascii	"N\001f\214\017\234/\177\332V\306\3715-\352\213g\205"
 740      0F9C2F7F 
 740      DA56C6F9 
 740      352DEA8B 
 740      6785
 741 023c CF7928EA 		.ascii	"\317y(\352\232\243\361\336\012U-\370\232\352{\272\317"
 741      9AA3F1DE 
 741      0A552DF8 
 741      9AEA7BBA 
 741      CF
 742 024d 229DA150 		.ascii	"\"\235\241PX\200\350D\0021\014\316R\016\272\310\245"
 742      5880E844 
 742      02310CCE 
 742      520EBAC8 
 742      A5
 743 025e 57C5C905 		.ascii	"W\305\311\0056\006\265\264\250\357\221\3409L\360<\350"
 743      3606B5B4 
 743      A8EF91E0 
 743      394CF03C 
 743      E8
 744 026f A3CB953C 		.ascii	"\243\313\225<\235\321\202\233+\275T\250\344\203*\324"
 744      9DD1829B 
 744      2BBD54A8 
 744      E4832AD4 
 745 027f 528215BA 		.ascii	"R\202\025\272Hi_\210\256\320%L\3402U\010\037x\232HB"
 745      48695F88 
 745      AED0254C 
 745      E0325508 
 745      1F789A48 
 746 0294 04B8C79D 		.ascii	"\004\270\307\235\227t>5\330\271\024k3\254\251\301\177"
 746      97743E35 
 746      D8B9146B 
 746      33ACA9C1 
 746      7F
 747 02a5 7BCC7040 		.ascii	"{\314p@\245\032$\321\"\\h\335\000\324iFF\020<\030p\306"
 747      A51A24D1 
 747      225C68DD 
 747      00D46946 
 747      46103C18 
 748 02bb 02B48A65 		.ascii	"\002\264\212e@\007\261\302&N\330\017\000\022\370@\361"
 748      4007B1C2 
 748      264ED80F 
 748      0012F840 
 748      F1
 749 02cc 3E48CC0F 		.ascii	">H\314\017\246\216\031\202\017c\202\0303\366\023*\356"
 749      A68E1982 
 749      0F638218 
 749      33F6132A 
 749      EE
 750 02dd B2A2FA58 		.ascii	"\262\242\372X\001\252\347\262\222\347c\315\220[\345"
ARM GAS  C:\Users\AMANRA~1\AppData\Local\Temp\ccHOYdie.s 			page 60


 750      01AAE7B2 
 750      92E763CD 
 750      905BE5
 751 02ec 5F51AE50 		.ascii	"_Q\256P\265=\334\210Y\273\027\037?\257\320I\242\211"
 751      B53DDC88 
 751      59BB171F 
 751      3FAFD049 
 751      A289
 752 02fe EFF0F1DA 		.ascii	"\357\360\361\332\032})\224,\302]\226VQ~&\0177\300\025"
 752      1A7D2994 
 752      2CC25D96 
 752      56517E26 
 752      0F37C015 
 753 0312 2A032E5F 		.ascii	"*\003._Yz\275\301l-\247\032$\222\370\353\240\024V\223"
 753      597ABDC1 
 753      6C2DA71A 
 753      2492F8EB 
 753      A0145693 
 754 0326 AE195C05 		.ascii	"\256\031\\\005+{\004\271\245\363\3117\345\217\376\305"
 754      2B7B04B9 
 754      A5F3C937 
 754      E58FFEC5 
 755 0336 C4838A78 		.ascii	"\304\203\212x1u\214\246L8\205\033Fq\241\267\245~\365"
 755      31758CA6 
 755      4C38851B 
 755      4671A1B7 
 755      A57EF5
 756 0349 884CB115 		.ascii	"\210L\261\025H\204k\030\342\011\344\336o[Wu\007H\\\300"
 756      48846B18 
 756      E209E4DE 
 756      6F5B5775 
 756      07485CC0 
 757 035d 809552AF 		.ascii	"\200\225R\257lX\277\347\265i\304ni\275Z\214A\315\224"
 757      6C58BFE7 
 757      B569C46E 
 757      69BD5A8C 
 757      41CD94
 758 0370 47F98343 		.ascii	"G\371\203C\252A\2260\354u\030!2k\015\\\251\227p\006"
 758      AA419630 
 758      EC751821 
 758      326B0D5C 
 758      A9977006 
 759 0384 6E802C7C 		.ascii	"n\200,|1\270)\216\312\337\216V7ZFT\204\320\026\262}"
 759      31B8298E 
 759      CADF8E56 
 759      375A4654 
 759      84D016B2 
 760 0399 BE634F9D 		.ascii	"\276cO\235Y\240\353\011\015\267@\246L\357\226\271\213"
 760      59A0EB09 
 760      0DB740A6 
 760      4CEF96B9 
 760      8B
 761 03aa D2446EB4 		.ascii	"\322Dn\264\241\002\354*<\247\261h\001Xr\267p[\255\236"
 761      A102EC2A 
 761      3CA7B168 
 761      015872B7 
 761      705BAD9E 
ARM GAS  C:\Users\AMANRA~1\AppData\Local\Temp\ccHOYdie.s 			page 61


 762 03be 94E8E131 		.ascii	"\224\350\3411\350\240\2622P\257\344\274U\015^\336\317"
 762      E8A0B232 
 762      50AFE4BC 
 762      550D5EDE 
 762      CF
 763 03cf CD0DE8E2 		.ascii	"\315\015\350\3426\3440,\224\207K\036\216\033\212!\177"
 763      36E4302C 
 763      94874B1E 
 763      8E1B8A21 
 763      7F
 764 03e0 890420DE 		.ascii	"\211\004 \336\020\304\032!\377f\365\325\346q\357\234"
 764      10C41A21 
 764      FF66F5D5 
 764      E671EF9C 
 765 03f0 74575EC2 		.ascii	"tW^\302\2356\204tV\200Z\012|\2441\365f\351\221\272r"
 765      9D368474 
 765      56805A0A 
 765      7CA431F5 
 765      66E991BA 
 766 0405 40CBB3BB 		.ascii	"@\313\263\273*\257\311\374\260$\030\362m\272y\321@\272"
 766      2AAFC9FC 
 766      B02418F2 
 766      6DBA79D1 
 766      40BA
 767 0417 451906CA 		.ascii	"E\031\006\312\270\272I\225\274\274?\334\351\263\303"
 767      B8BA4995 
 767      BCBC3FDC 
 767      E9B3C3
 768 0426 EE9254CF 		.ascii	"\356\222T\317R\207\301=\212\017\221To\341}S\035\013"
 768      5287C13D 
 768      8A0F9154 
 768      6FE17D53 
 768      1D0B
 769 0438 F705D5A0 		.ascii	"\367\005\325\240\371\375\275\266\271A\217\005 \350\016"
 769      F9FDBDB6 
 769      B9418F05 
 769      20E80E
 770 0447 4011C303 		.ascii	"@\021\303\003\244\237\301C,\203\330\371=q8\334Z\333"
 770      A49FC143 
 770      2C83D8F9 
 770      3D7138DC 
 770      5ADB
 771 0459 1034729F 		.ascii	"\0204r\237\226\370\331\025;V\231C\015\327\322\024\333"
 771      96F8D915 
 771      3B569943 
 771      0DD7D214 
 771      DB
 772 046a 75821AA0 		.ascii	"u\202\032\2401:uxDU\003\241\237\235\373>\013\271\253"
 772      313A7578 
 772      445503A1 
 772      9F9DFB3E 
 772      0BB9AB
 773 047d 5F5770D0 		.ascii	"_Wp\320\030\355!\352\370\027\036\036\223\207\001H\336"
 773      18ED21EA 
 773      F8171E1E 
 773      93870148 
 773      DE
ARM GAS  C:\Users\AMANRA~1\AppData\Local\Temp\ccHOYdie.s 			page 62


 774 048e E2BB8796 		.ascii	"\342\273\207\226\007\333.@D\013\257\271\032?\234\214"
 774      07DB2E40 
 774      440BAFB9 
 774      1A3F9C8C 
 775 049e 2894A88A 		.ascii	"(\224\250\212\033\365\032\336\306MH\236\237\332\330"
 775      1BF51ADE 
 775      C64D489E 
 775      9FDAD8
 776 04ad 4F151BD2 		.ascii	"O\025\033\322\223\366877\221\005\203f\301<`,/\206\353"
 776      93F63837 
 776      37910583 
 776      66C13C60 
 776      2C2F86EB 
 777 04c1 DABCF0FA 		.ascii	"\332\274\360\372n\364\270\307\210\330 A\324W\2677\247"
 777      6EF4B8C7 
 777      88D82041 
 777      D457B737 
 777      A7
 778 04d2 68840C09 		.ascii	"h\204\014\011\027D\177\024\304\223nA\350\330\276q(\010"
 778      17447F14 
 778      C4936E41 
 778      E8D8BE71 
 778      2808
 779 04e4 61DFFCA3 		.ascii	"a\337\374\243\246\237\036\235K\235\022\3506\327\263"
 779      A69F1E9D 
 779      4B9D12E8 
 779      36D7B3
 780 04f3 B23142B4 		.ascii	"\2621B\264\371\245\035\373\206\012\322\251\023\221Z"
 780      F9A51DFB 
 780      860AD2A9 
 780      13915A
 781 0502 2F1F282C 		.ascii	"/\037(,\024\315\241h\304\213\242\021\273])\350\352i"
 781      14CDA168 
 781      C48BA211 
 781      BB5D29E8 
 781      EA69
 782 0514 8F46BC1C 		.ascii	"\217F\274\034\326\210\301\365\367\216\232\273z\354\251"
 782      D688C1F5 
 782      F78E9ABB 
 782      7AECA9
 783 0523 E8B116D1 		.ascii	"\350\261\026\321c\221\015\365wwC\335L\0231\030\3529"
 783      63910DF5 
 783      777743DD 
 783      4C133118 
 783      EA39
 784 0535 AF78C9CE 		.ascii	"\257x\311\316]\373\343\265\015\304b\233x\302\333\004"
 784      5DFBE3B5 
 784      0DC4629B 
 784      78C2DB04 
 785 0545 0F2C9C25 		.ascii	"\017,\234%3\357\222\272\033\240Y\305\211~\012\263\252"
 785      33EF92BA 
 785      1BA059C5 
 785      897E0AB3 
 785      AA
 786 0556 24AB3891 		.ascii	"$\2538\221\372\007_r\320\212d\3678e\"\025Q\222\240\204"
 786      FA075F72 
 786      D08A64F7 
ARM GAS  C:\Users\AMANRA~1\AppData\Local\Temp\ccHOYdie.s 			page 63


 786      38652215 
 786      5192A084 
 787 056a AE9BA88B 		.ascii	"\256\233\250\213\370U\361\304N$\373Y\0377\361\363\356"
 787      F855F1C4 
 787      4E24FB59 
 787      1F37F1F3 
 787      EE
 788 057b 9B387CAD 		.ascii	"\2338|\255z{2~\245\265\222\306\332\242\257\212\027\270"
 788      7A7B327E 
 788      A5B592C6 
 788      DAA2AF8A 
 788      17B8
 789 058d A797A4A2 		.ascii	"\247\227\244\242\227ae\356\345(k\357\265\314\257\264"
 789      976165EE 
 789      E5286BEF 
 789      B5CCAFB4 
 790 059d 32278AAD 		.ascii	"2'\212\255i\354\033\331\221\032\266\310\307X;\014\304"
 790      69EC1BD9 
 790      911AB6C8 
 790      C7583B0C 
 790      C4
 791 05ae E2C9C87B 		.ascii	"\342\311\310{\234\322\320\024Hi\207\004,9\215c\225e"
 791      9CD2D014 
 791      48698704 
 791      2C398D63 
 791      9565
 792 05c0 7B399A9A 		.ascii	"{9\232\232\031~w\202P\201(>\327\024!J,\205\344\351\377"
 792      197E7782 
 792      5081283E 
 792      D714214A 
 792      2C85E4E9 
 793 05d5 5CBB2978 		.ascii	"\\\273)x\327\001\325\016H\310@\222\223E\302\001r\230"
 793      D701D50E 
 793      48C84092 
 793      9345C201 
 793      7298
 794 05e7 40039344 		.ascii	"@\003\223D\301M\332%\323;;\377s\301\302kd\347i\037\354"
 794      C14DDA25 
 794      D33B3BFF 
 794      73C1C26B 
 794      64E7691F 
 795 05fc FCBA3F21 		.ascii	"\374\272?!\364\225\024\365-\320\206\337\002\350\356"
 795      F49514F5 
 795      2DD086DF 
 795      02E8EE
 796 060b 9FE86F81 		.ascii	"\237\350o\2017X\326\216\367}\013tt\177\013\364$,\245"
 796      3758D68E 
 796      F77D0B74 
 796      747F0BF4 
 796      242CA5
 797 061e 8453360C 		.ascii	"\204S6\014\376\215&\354-:\014\022a\301\276\373\242\263"
 797      FE8D26EC 
 797      2D3A0C12 
 797      61C1BEFB 
 797      A2B3
 798 0630 57C254A9 		.ascii	"W\302T\251\213\260\327\357z\242u\377\307Z\221\007{\350"
 798      8BB0D7EF 
ARM GAS  C:\Users\AMANRA~1\AppData\Local\Temp\ccHOYdie.s 			page 64


 798      7AA275FF 
 798      C75A9107 
 798      7BE8
 799 0642 041EC45A 		.ascii	"\004\036\304ZH\355\332\214\250\370\240\020q\310\030"
 799      48EDDA8C 
 799      A8F8A010 
 799      71C818
 800 0651 5EE98045 		.ascii	"^\351\200EF\217\237\216\035k\305?\333\354\364\231\351"
 800      468F9F8E 
 800      1D6BC53F 
 800      DBECF499 
 800      E9
 801 0662 4ED7F82F 		.ascii	"N\327\370/\307\217\263:]\326\3313\346X]Y6\372?}\356"
 801      C78FB33A 
 801      5DD6D933 
 801      E6585D59 
 801      36FA3F7D 
 802 0677 3CFB3CBB 		.ascii	"<\373<\273k\254\215\361\364\271\231\322\314L\310P\262"
 802      6BAC8DF1 
 802      F4B999D2 
 802      CC4CC850 
 802      B2
 803 0688 D31D76E7 		.ascii	"\323\035v\347\274l\356\230\261\200g\374\2600\371\275"
 803      BC6CEE98 
 803      B18067FC 
 803      B030F9BD 
 804 0698 3E9C2E7C 		.ascii	">\234.|de\213\377cg\263\336\015q==\3036g\336,;\256\270"
 804      64658BFF 
 804      6367B3DE 
 804      0D713D3D 
 804      C33667DE 
 805 06b0 16BAD050 		.ascii	"\026\272\320P\2319\303e\377.+}B\257\000\233\323\341"
 805      9939C365 
 805      FF2E2B7D 
 805      42AF009B 
 805      D3E1
 806 06c2 70665833 		.ascii	"pfX3\235Y\331.\353\244\251SR\247,@\023\2333\313>}\376"
 806      9D59D92E 
 806      EBA4A953 
 806      52A72C40 
 806      139B33CB 
 807 06d9 170E84CB 		.ascii	"\027\016\204\313\263\234\031\366\324\276\260\366\005"
 807      B39C19F6 
 807      D4BEB0F6 
 807      05
 808 06e6 D984B4A6 		.ascii	"\331\204\264\246N\2316y\2325\025\241\326\311]98\\\351"
 808      4E993679 
 808      9A3515A1 
 808      D6C95D39 
 808      385CE9
 809 06f9 AEE96936 		.ascii	"\256\351i6\033:\212\2352mj\"\345\222\231\225>:1i\034"
 809      1B3A8A9D 
 809      326D6A22 
 809      E5929995 
 809      3E3A3169 
 810 070e 93B298E2 		.ascii	"\223\262\230\342\260;\234Y\013\031w\270\322x\366\334"
 810      B03B9C59 
ARM GAS  C:\Users\AMANRA~1\AppData\Local\Temp\ccHOYdie.s 			page 65


 810      0B1977B8 
 810      D278F6DC 
 811 071e CCFF00DF 		.ascii	"\314\377\000\337*E\366"
 811      2A45F6
 812              		.text
 813              		.section	.gnu.lto_oqObjectInit.29debcc4,"",%progbits
 814 0000 789C9D94 		.ascii	"x\234\235\224\357OSg\024\307\237s\237\333\333V~l\361"
 814      EF4F5367 
 814      14C79F73 
 814      9FDBDB56 
 814      7E6CF1
 815 0013 C562D098 		.ascii	"\305b\320\230\276\320\000\213\243#\331\033\367\302,"
 815      BED0008B 
 815      A323D91B 
 815      F7C22C
 816 0022 D91BFF0A 		.ascii	"\331\033\377\012\215\226.m$\024\270\360\302\275\341"
 816      8D962E6D 
 816      2414B8F0 
 816      C2BDE1
 817 0031 5250AC85 		.ascii	"RP\254\205\240\233 \251\2254C$\013\3617\212:pw\255\262"
 817      A09B20A9 
 817      95344324 
 817      0BF1378A 
 817      3A7077AD 
 818 0046 1FB43219 		.ascii	"\037\2642\0318\177`Gt\301`2\015\311\342\262\351\312"
 818      387F6047 
 818      74C16032 
 818      0DC9E2B2 
 818      E9CA
 819 0058 CE39B710 		.ascii	"\3169\267\020\250\222\021n\332\336\373\334s\276\237"
 819      A892116E 
 819      DADEFBDC 
 819      73BE9F
 820 0067 739E73CE 		.ascii	"s\236s\316SM\0101\250\0111\202\367\215\370\005)@9r["
 820      534D0831 
 820      A8093182 
 820      F78DF805 
 820      29403972 
 821 007c 88468702 		.ascii	"\210F\207\002@\017\206\003D\203\002\015\320*\217I\210"
 821      400F8603 
 821      4483020D 
 821      D02A8F49 
 821      88
 822 008d B7CC5C53 		.ascii	"\267\314\\SJ\373\014\274\314\343\2577\0364\016l\210"
 822      4AFB0CBC 
 822      CCE3AF37 
 822      1E340E6C 
 822      88
 823 009e 4A213AF1 		.ascii	"J!:\361K\027\\\202R\364\272\323|>*\3032*\001T\\\316"
 823      4B175C82 
 823      52F4BAD3 
 823      7C3E2AC3 
 823      322A0154 
 824 00b4 A5224F0A 		.ascii	"\245\"O\012i\251\200\013\2273W\214\264*?\000\201\317"
 824      69A9800B 
 824      9733578C 
 824      B42A3F00 
ARM GAS  C:\Users\AMANRA~1\AppData\Local\Temp\ccHOYdie.s 			page 66


 824      81CF
 825 00c6 A9C4C52F 		.ascii	"\251\304\305/\325\342^\303\010\032\346\324)il\211J\011"
 825      D5E25EC3 
 825      081AE6D4 
 825      29696C89 
 825      4A09
 826 00d8 57402210 		.ascii	"W@\"\020.\303&\030\200M\002_\011\030\204bt\177\025\236"
 826      2EC32618 
 826      804D025F 
 826      09188462 
 826      747F159E 
 827 00ec EC74CA72 		.ascii	"\354t\312r\226\036}\332\227\201\2544y\232\245*\\\315"
 827      961E7DDA 
 827      9781AC34 
 827      799AA52A 
 827      5CCD
 828 00fe 95AA02AE 		.ascii	"\225\252\002\256\261\364\253\306\311\321\002\371\021"
 828      B1F4ABC6 
 828      C9D102F9 
 828      11
 829 010b 4BA74367 		.ascii	"K\247Cg\332\026\242\376\336\307R\033\\\317\225\332\004"
 829      DA16A2FE 
 829      DEC7521B 
 829      5CCF95DA 
 829      04
 830 011c 7CC3D227 		.ascii	"|\303\322'\347\306\273\235r;KG\247\372C\316\2544\363"
 830      E7C6BB9D 
 830      723B4B47 
 830      A7FA43CE 
 830      AC34F3
 831 012f A2A8A7C9 		.ascii	"\242\250\247\311\330\031\225\032\014\345\2125\001\303"
 831      D819951A 
 831      0CE58A35 
 831      01C3
 832 013d 2C3E6B76 		.ascii	",>kv<\316\223;X<\177?\330\272 N\366r\\;\334\310\225"
 832      3CCE933B 
 832      583C7F3F 
 832      D8BA204E 
 832      F6725C3B 
 833 0154 DA057C0B 		.ascii	"\332\005|\013\305\344\377\370B\246\243@S\255\362\202"
 833      C5E4FFF8 
 833      42A6A340 
 833      53ADF282 
 834 0164 0908C587 		.ascii	"\011\010\305\207s\3436\323\310\314\267\030\346\353^"
 834      73E336D3 
 834      C8CCB718 
 834      E6EB5E
 835 0173 B8B46B3D 		.ascii	"\270\264k=\240\306\241\320^\261\336X'\033P\336v\240"
 835      A0C6A1D0 
 835      5EB1DE58 
 835      271B50DE 
 835      76A0
 836 0185 8DE703A5 		.ascii	"\215\347\003\245Q\010L\024\207\220\203=5L\021\222\012"
 836      51084C14 
 836      8790833D 
 836      354C1192 
 836      0A
ARM GAS  C:\Users\AMANRA~1\AppData\Local\Temp\ccHOYdie.s 			page 67


 837 0196 3D3599E2 		.ascii	"=5\231\342\031\004\377i99W@\370\210\004\214\332y >f"
 837      1904FF69 
 837      39395740 
 837      F888048C 
 837      DA79203E 
 838 01ab A776494E 		.ascii	"\247vINz(\236\032\321b\320\335\210=\217\235\2468\316"
 838      7A289E1A 
 838      D162D0DD 
 838      883D8F9D 
 838      A638CE
 839 01be 089ABEC3 		.ascii	"\010\232\276\303\\\311<\321r/\235\347>C\023\341\212"
 839      5CC93CD1 
 839      722F9DE7 
 839      3E4313E1 
 839      8A
 840 01cf CA751087 		.ascii	"\312u\020\207\030t\3608\240\261?\365,\2555\374K\306"
 840      1874F038 
 840      A0B13FF5 
 840      2CAD35FC 
 840      4BC6
 841 01e1 58216609 		.ascii	"X!f\011\011p\343NnB\203\230\201\240\213b\242\327\324"
 841      0970E34E 
 841      6E428398 
 841      81A08B62 
 841      A2D7D4
 842 01f4 8974C629 		.ascii	"\211t\306)?\345h\311\366\263G\363\266\366p\211^\276"
 842      3FE568C9 
 842      F6B347F3 
 842      B6F67089 
 842      5EBE
 843 0206 C88F1866 		.ascii	"\310\217\030f\263\213\204\267\226W\211\207m\004\266"
 843      B38B84B7 
 843      96578987 
 843      6D04B6
 844 0215 62C64852 		.ascii	"b\306HRr\225\363]\256dS\270\315\210\005\337]I\374\375"
 844      7295F35D 
 844      AE6453B8 
 844      CD8805DF 
 844      5D49FCFD 
 845 0229 8AE244B7 		.ascii	"\212\342D\267kv\3000B\237\254$\375\301\222b\345\"\177"
 845      6B76C030 
 845      429FAC24 
 845      FDC19262 
 845      E5227F
 846 023c 0FDF7AD4 		.ascii	"\017\337z\324\365\361b\253\232\255\203\361\305fI\311"
 846      F5F162AB 
 846      9AAD83F1 
 846      C56649C9 
 847 024c 71CB3AAD 		.ascii	"q\313:\255*.\265\277\352*IJJ@\300\217\344\240\344:$"
 847      2A2EB5BF 
 847      EA2A494A 
 847      4A40C08F 
 847      E4A0E43A 
 848 0261 BA4BFC14 		.ascii	"\272K\374\024E\300Od\227Kg\001FA\203$\215B\222\213\267"
 848      45C04F64 
 848      974B6701 
 848      46418324 
ARM GAS  C:\Users\AMANRA~1\AppData\Local\Temp\ccHOYdie.s 			page 68


 848      8D42928B 
 849 0276 D82DC7B2 		.ascii	"\330-\307\262n\001\366\202\332\224z\263M\323\177u\274"
 849      6E01F682 
 849      DA947AB3 
 849      4DD37F75 
 849      BC
 850 0287 174EA043 		.ascii	"\027N\240C\036\334\346f\001C\005\214\201{a_\263C\027"
 850      1EDCE666 
 850      0143058C 
 850      817B615F 
 850      B34317
 851 029a EAB20156 		.ascii	"\352\262\001VA\214\025\021\354g\206)Y\330\035\013\206"
 851      418C1511 
 851      EC678629 
 851      59D81D0B 
 851      86
 852 02ab 6D9EEE69 		.ascii	"m\236\356i\037x\000\\6\301\353\341\326c:7\300Z\206B"
 852      1F78005C 
 852      36C1EBE1 
 852      D6633A37 
 852      C05A8642 
 853 02bf EF50A1B8 		.ascii	"\357P\241\270b\030<\036\231=<\266.;\032\313\206\257"
 853      62183C1E 
 853      993D3CB6 
 853      2E3B1ACB 
 853      86AF
 854 02d1 2867F4EE 		.ascii	"(g\364\356\016^\037,\300\014\232\033i\364\362a\234\023"
 854      0E5E1F2C 
 854      C00C9A1B 
 854      69F4F261 
 854      9C13
 855 02e3 E0B3F20B 		.ascii	"\340\263\362\013E\267Y[\011\257\216\266|\220U\230`\232"
 855      45B7595B 
 855      09AF8EB6 
 855      7C905598 
 855      609A
 856 02f5 4AB449A2 		.ascii	"J\264I\242\331-Z\353\332hw\231f#\332\257Khmk\243\335"
 856      D92D5AEB 
 856      DA687799 
 856      6623DAAF 
 856      4B686D6B 
 857 030b 639A46B4 		.ascii	"c\232F\264\373\013\264\246\350\301?\346\206\301:\307"
 857      FB0BB4A6 
 857      E8C13FE6 
 857      86C13AC7 
 858 031b 0ABECB16 		.ascii	"\012\276\313\026`\342\360\327\266\265\304x\3001\354"
 858      60E2F0D7 
 858      B6B5C478 
 858      C031EC
 859 032a 14E321C5 		.ascii	"\024\343!\305P\254\214\333\327\222\261\006SLs\020\355"
 859      50AC8CDB 
 859      D792B106 
 859      534C7310 
 859      ED
 860 033b 11D1F22D 		.ascii	"\021\321\362-Z\327\352h\3757\376|i[\244\331!\3154'\321"
 860      5AD7EA68 
 860      FD37FE7C 
ARM GAS  C:\Users\AMANRA~1\AppData\Local\Temp\ccHOYdie.s 			page 69


 860      695BA4D9 
 860      21CD3427 
 861 0350 7E235AA1 		.ascii	"~#Z\241x\016\301\330\323!\336=\037\322C8{\370\007\247"
 861      780EC1D8 
 861      D321DE3D 
 861      1FD24338 
 861      7BF807A7 
 862 0364 08F17E59 		.ascii	"\010\361~Y\231\033?\036\237\177\257?\240\227o/\377\320"
 862      991B3F1E 
 862      9F7FAF3F 
 862      A0976F2F 
 862      FFD0
 863 0376 1DD0DDBE 		.ascii	"\035\320\335\276=\225n\275\326C\367\3355\365\336z\257"
 863      3D956EBD 
 863      D643F7DD 
 863      35F5DE7A 
 863      AF
 864 0387 5EE61132 		.ascii	"^\346\0212PS\255\354\255Vu\377\347^5P\365\331~\265\322"
 864      5053ADEC 
 864      AD5675FF 
 864      E75E3550 
 864      F5D97EB5 
 865 039c 5FB54FD6 		.ascii	"_\265O\326\325T\227\254\010\011\350\370S[\307\3672\237"
 865      D55497AC 
 865      0809E8F8 
 865      535BC7F7 
 865      329F
 866 03ae D8F65647 		.ascii	"\330\366VG\264\373\253<\225\365\025^\264\324\371j\275"
 866      B4FBAB3C 
 866      95F5155E 
 866      B4D4F96A 
 866      BD
 867 03bf 7B2A7474 		.ascii	"{*tt.\375\177g\335\343\253@\317\377\000\203\274o\340"
 867      2EFD7F67 
 867      DDE3AB40 
 867      CFFF0083 
 867      BC6FE0
 868              		.text
 869              		.section	.gnu.lto_oqResetI.29debcc4,"",%progbits
 870 0000 789C9D93 		.ascii	"x\234\235\223\337O\023A\020\307wn\257\327\326\322>\033"
 870      DF4F1341 
 870      10C7776E 
 870      AFD7D6D2 
 870      3E1B
 871 0012 25A40F12 		.ascii	"%\244\017\022\304\304\236<\370\340?\243AB\204DS\241"
 871      C4C49E3C 
 871      F8E03FA3 
 871      41428444 
 871      53A1
 872 0024 F06A1728 		.ascii	"\360j\027(\024P\203\006\251\246^L\015\030c\214\202\250"
 872      14508306 
 872      A9A65E4C 
 872      0D18638C 
 872      82A8
 873 0036 D456AA67 		.ascii	"\324V\252gQPl1\030\242F\2611j0\020b\242\0174\251\202"
 873      51506C31 
 873      18A246B1 
ARM GAS  C:\Users\AMANRA~1\AppData\Local\Temp\ccHOYdie.s 			page 70


 873      316A3010 
 873      62A20F34 
 874 004c CEEC5514 		.ascii	"\316\354U\024\342\357\313\335\354\217\331\375\354|\347"
 874      E2EFCBDD 
 874      EC8FD9FD 
 874      EC7CE7
 875 005b 6635C658 		.ascii	"f5\306X\223\312X5\266\233\361\003\316@96\305X\213C\001"
 875      93CA5835 
 875      B69BF103 
 875      CE403936 
 875      C5588B43 
 876 0070 A08E7000 		.ascii	"\240\216p\000\013*\020\204#\374\004\207tx.\241T\236"
 876      0B2A1084 
 876      23FC0487 
 876      74782EA1 
 876      549E
 877 0082 17F89827 		.ascii	"\027\370\230'g\313:D\373F\2033\026\301\217\036\270\012"
 877      67CB3A44 
 877      FB468333 
 877      16C18F1E 
 877      B80A
 878 0094 95B86A3A 		.ascii	"\225\270j:4d\360\303\334\340\000*\016?d\243o<4T\300"
 878      3464F0C3 
 878      DCE0002A 
 878      0E3F64A3 
 878      6F3C3454 
 879 00a9 8BC3B911 		.ascii	"\213\303\271\021\221S\371v`\330\317\216\015\367\252"
 879      9153F976 
 879      60D8CF8E 
 879      0DF7AA
 880 00b8 15E78468 		.ascii	"\025\347\204h\025\346\347~.\266\030\234\303\010p\004"
 880      15E6E77E 
 880      2EB6189C 
 880      C3087004 
 881 00c8 C2752885 		.ascii	"\302u(\205kP\312p\212A\034*h\375\353++}nM\265\016\204"
 881      6B50CA70 
 881      8A411C2A 
 881      68FDEB2B 
 881      2B7D6E4D 
 882 00df 1BA031C0 		.ascii	"\033\2401\300\316\340c\233)V\276\204\205\371v\000\226"
 882      CEE0639B 
 882      2956BE84 
 882      85F97600 
 882      96
 883 00f0 777B00F7 		.ascii	"w{\000\367\250\012\031\216\306\246\222\261\221\321\320"
 883      A80A198E 
 883      C6A692B1 
 883      91D1D0
 884 00ff 68763476 		.ascii	"hv4v'H$\353D\020\312\024&\353\342\012\365\332L\266\000"
 884      274824EB 
 884      4410CA14 
 884      26EBE20A 
 884      F5DA4CB6 
 885 0114 ADC9F9E4 		.ascii	"\255\311\371\344\240\213\370Q\016xl\244=\375\310N\012"
 885      A08BF851 
 885      0E786CA4 
 885      3DFDC84E 
ARM GAS  C:\Users\AMANRA~1\AppData\Local\Temp\ccHOYdie.s 			page 71


 885      0A
 886 0125 B88C7A34 		.ascii	"\270\214z4\235\035\327bp\246\005\323\3405\270#\312\235"
 886      9D1DD762 
 886      70A605D3 
 886      E035B823 
 886      CA9D
 887 0137 90C048C9 		.ascii	"\220\300H\3117\023~\226s\351\227\204\345R!\0111\350"
 887      37137E96 
 887      73E99784 
 887      E5522109 
 887      31E8
 888 0149 93E9819B 		.ascii	"\223\351\201\233\240\023{\246\273\313F\350u\240\330"
 888      A0137BA6 
 888      BBCB46E8 
 888      75A0D8
 889 0158 A63F9046 		.ascii	"\246?\220F%\211\364B\012t\014\314\202\245\362g\341\177"
 889      2589F442 
 889      0A740CCC 
 889      82A5F267 
 889      E17F
 890 016a 70B7244E 		.ascii	"p\267$N!\334\355U\\r~\264\247\250[\371G\241\246\344"
 890      21DCED55 
 890      5C727EB4 
 890      A7A85BF9 
 890      47A1A6E4 
 891 017e C9FF72C7 		.ascii	"\311\377r\307\022\3721\014\026\212#m\315\204j\035\327"
 891      12FA310C 
 891      168A236D 
 891      CD846A1D 
 891      D7
 892 018f 76AAA338 		.ascii	"v\252\2438a\223\213\3245\213h\032'\3223\335\027\376"
 892      61938BD4 
 892      358B681A 
 892      27D233DD 
 892      17FE
 893 01a1 2A5F4FE2 		.ascii	"*_O\342\311\270\033\003\012\265P@NH\313\200T\012h\214"
 893      C9B81B03 
 893      0AB55040 
 893      4E48CB80 
 893      540A688C 
 894 01b5 046A442F 		.ascii	"\004jD/\204_\346\335\026\337\276\036\270Du\363\033\215"
 894      845FE6DD 
 894      16DFBE1E 
 894      B84475F3 
 894      1B8D
 895 01c7 1BE0AE44 		.ascii	"\033\340\256D\332\230t^\314.\344\264\34029c\036,)\270"
 895      DA98745E 
 895      CC2EE4B4 
 895      E0323963 
 895      1E2C29B8 
 896 01db 87B2198C 		.ascii	"\207\262\031\214C\220\315A\253\267\030\362\354\351\334"
 896      4390CD41 
 896      ABB718F2 
 896      ECE9DC
 897 01ea 8A9357C9 		.ascii	"\212\223W\311\272\311\364\\>\356*\357\227\325\276T("
 897      BAC9F45C 
 897      3EEE2AEF 
ARM GAS  C:\Users\AMANRA~1\AppData\Local\Temp\ccHOYdie.s 			page 72


 897      97D5BE54 
 897      28
 898 01fb 890A33E4 		.ascii	"\211\0123\344\245\215\023k\013^\026\313}(\307\020\211"
 898      A58D136B 
 898      0B5E16CB 
 898      7D28C710 
 898      89
 899 020c 14CBA778 		.ascii	"\024\313\247x\021\226\031J<U\371N\0113\007\236O;\010"
 899      1196194A 
 899      3C55F94E 
 899      0933079E 
 899      4F3B08
 900 021f 267E84B9 		.ascii	"&~\204\271\340\301O`\223PNb\207\217\346\201\252\270"
 900      E0C14F60 
 900      93504E62 
 900      878FE681 
 900      AAB8
 901 0231 040EC143 		.ascii	"\004\016\301C\364-B\373\253w\275\361\011X\275Y!\211"
 901      F42D42FB 
 901      AB77BDF1 
 901      0958BD59 
 901      2189
 902 0243 EB2D94D1 		.ascii	"\353-\224\321\026\212A^\262\210U\366\337.\037d@\203"
 902      168A415E 
 902      B28855F6 
 902      DF2E1F64 
 902      4083
 903 0255 2CDD3D32 		.ascii	",\335=2\350H$\026_\3301\023\016\203\273#x\3133\344\233"
 903      E8482416 
 903      5FD83113 
 903      0E83BB23 
 903      78CB33E4 
 904 026a C23CA002 		.ascii	"\302<\240\002:\310\340\236\325\224H\350\367\321$\215"
 904      3AC8E09E 
 904      D59448E8 
 904      F7D1248D 
 905 027a DEA3C84F 		.ascii	"\336\243\310O)\371\333e\274\235x\036^E\254\315m>\237"
 905      29F9DB65 
 905      BC9D781E 
 905      5E45ACCD 
 905      6D3E9F
 906 028d 8E6F4D5D 		.ascii	"\216oM]\375\336z\177\240jW\325\016\335\037\320\353\252"
 906      FDDE7A7F 
 906      A06A57D5 
 906      0EDD1FD0 
 906      EBAA
 907 029f F7EB81C6 		.ascii	"\367\353\201\306\032j\36744\3276\327\006|5\214\373\033"
 907      1A6AF734 
 907      34D736D7 
 907      067C358C 
 907      FB1B
 908 02b1 0EF226FC 		.ascii	"\016\362&\374\016\004\366m\375\3456\177\000Mc\223l}"
 908      0E04F66D 
 908      FDE5367F 
 908      004D6393 
 908      6C7D
 909 02c3 75EC2B87 		.ascii	"u\354+\207\360\211\367"
ARM GAS  C:\Users\AMANRA~1\AppData\Local\Temp\ccHOYdie.s 			page 73


 909      F089F7
 910              		.text
 911              		.section	.gnu.lto_oqPutI.29debcc4,"",%progbits
 912 0000 789C9554 		.ascii	"x\234\225T\377KSQ\024\277\347\335\367\336\336\246.\374"
 912      FF4B5351 
 912      14BFE7DD 
 912      F7DEDEA6 
 912      2EFC
 913 0012 A17E8841 		.ascii	"\241~\210A\376\020\015\003}Z?\005\375\001\375\025E\212"
 913      FE100D03 
 913      7D5A3F05 
 913      FD01FD15 
 913      458A
 914 0024 A111980D 		.ascii	"\241\021\230\015\177\366\351\346\227L0(\215\306#\206"
 914      7FF6E9E6 
 914      974C3028 
 914      8DC62386 
 915 0034 2562106A 		.ascii	"%b\020j_4\327\314\265\231m\3524m\211Q\030\030\006i)"
 915      5F34D7CC 
 915      B5996DEA 
 915      346D8951 
 915      18180669 
 916 0049 41584468 		.ascii	"AXDh\347\336\373\346d\031c\217\355\274{\317=\367\363"
 916      E7DEFBE6 
 916      6419638F 
 916      EDBC7BCF 
 916      3DF7F3
 917 005c F99C73EE 		.ascii	"\371\234s\356}*!dJ!\344\004\276\317\342\037\354\004"
 917      7D2A2164 
 917      4A21E404 
 917      BECFE21F 
 917      EC04
 918 006e A4EBB384 		.ascii	"\244\353\263\2044j\222Dc3\204\030\016-\006\304\310\247"
 918      346A9244 
 918      63338418 
 918      0E2D06C4 
 918      C8A7
 919 0080 92DCE6C6 		.ascii	"\222\334\346\306\231\302l\276\014\212\210R$\365c\234"
 919      99C26CBE 
 919      0C8A8852 
 919      24F5639C 
 920 0090 470DC9E8 		.ascii	"G\015\311\350WA\023~\015\200\015\014\015H\203DeE\325"
 920      5741137E 
 920      0D800D0C 
 920      0D488344 
 920      6545D5
 921 00a3 A0013AE8 		.ascii	"\240\001:\350M\012\363\276A\223^\243&% \343\364{\302"
 921      4D0AF3BE 
 921      41935EA3 
 921      262520E3 
 921      F47BC2
 922 00b6 FFC9C9A6 		.ascii	"\377\311\311\246\000E8\355\035\363\206\240\270\317\300"
 922      004538ED 
 922      1DF386A0 
 922      B8CFC0
 923 00c5 277C2B74 		.ascii	"'|+t\244\317\333|\306\244\022\351\306\350\307\340\202"
 923      A4CFDB7C 
ARM GAS  C:\Users\AMANRA~1\AppData\Local\Temp\ccHOYdie.s 			page 74


 923      C6A412E9 
 923      C6E8C7E0 
 923      82
 924 00d6 47E0622A 		.ascii	"G\340b*\237@1\306~\0366\226eZ\002\004\307\211\350\303"
 924      9F4031C6 
 924      7E1E3696 
 924      655A0204 
 924      C789E8C3 
 925 00ea 1BB2BBD7 		.ascii	"\033\262\273\3270\232\214\360\217\273\3248jR\012\303"
 925      309A8CF0 
 925      8FBBD438 
 925      6A520AC3 
 926 00fa 40F76E44 		.ascii	"@\367nD\027\201\021pc\270\331r\177\225\322r\276uz+6"
 926      17811170 
 926      63B8D972 
 926      7F95D272 
 926      BE757A2B 
 927 010f 21595B3F 		.ascii	"!Y[?4S#\337\2442<\025[O\272\240\214m\224\011\214\202"
 927      345323DF 
 927      A4323C15 
 927      5B4FBAA0 
 927      8C6D9409 
 928 0125 9B45AF0C 		.ascii	"\233E\257\014mw\025\2502S\204B\202\240\022\300\301\300"
 928      6D7715A8 
 928      32538442 
 928      82A012C0 
 928      C1C0
 929 0137 821236B6 		.ascii	"\202\0226\266wZ\221\274\027n\257h\007\0017)\0223\024"
 929      775A91BC 
 929      176EAF68 
 929      07013729 
 929      123314
 930 014a 0DC6A351 		.ascii	"\015\306\243Q\230Q\231\2611\243\241\261\331Y\210\003"
 930      985199B1 
 930      31A3A1B1 
 930      D9598803 
 931 015a 8DE404A6 		.ascii	"\215\344\004\246\255\0208\021iCx,\240\021&W1}\034y\303"
 931      AD103811 
 931      6943782C 
 931      A0112657 
 931      317D1C79 
 932 016f 640D22C1 		.ascii	"d\015\"\301/\353\233*c\365S;\212\351n\216\314\331X\361"
 932      2FEB9B2A 
 932      63F5533B 
 932      8AE96E8E 
 932      CCD958F1 
 933 0183 28CF2414 		.ascii	"(\317$\024IL\252\001\270\323\210\325+2\251\346\247N"
 933      494CAA01 
 933      B8D388D5 
 933      2B32A9E6 
 933      A74E
 934 0195 78C62A86 		.ascii	"x\306*\206k\213#\301\221\002\375\201\341kdKv\010A\000"
 934      6B8B23C1 
 934      9102FD81 
 934      E16B644B 
 934      76084100 
 935 01a9 BA580E04 		.ascii	"\272X\016\004\306@'\253\340{\037\235\201}\240\355@\340"
ARM GAS  C:\Users\AMANRA~1\AppData\Local\Temp\ccHOYdie.s 			page 75


 935      C64027AB 
 935      E07B1F9D 
 935      817DA0ED 
 935      40E0
 936 01bb 392F3B41 		.ascii	"9/;A-\224\340\241Hi\371\326ii\201\034\311\307\323\344"
 936      2D94E0A1 
 936      4869F9D6 
 936      6969811C 
 936      C9C7D3E4 
 937 01cf 61245F03 		.ascii	"a$_\003ow\313\250\"\260$\001\267\036\032\\R\004\377"
 937      6F77CBA8 
 937      22B02401 
 937      B71E1A5C 
 937      5204FF
 938 01e2 0E3E07E0 		.ascii	"\016>\007\340\005b!k\262\235\213\314 \014T\220,\224"
 938      0562216B 
 938      B29D8BCC 
 938      200C5490 
 938      2C94
 939 01f4 91346514 		.ascii	"\2214e\024t\244A\260\246\340\227\215\001+\005\232%\205"
 939      74A441B0 
 939      A6E0978D 
 939      012B059A 
 939      2585
 940 0206 64EBD272 		.ascii	"d\353\322r\036\342\211%\025&8\036\353=\274\024)\230"
 940      1EE28925 
 940      1526381E 
 940      EB3DBC14 
 940      2998
 941 0218 2DFD560A 		.ascii	"-\375V\0122\302\261s\203\014\377\221{!Sn&\374d\032\376"
 941      32C2B173 
 941      830CFF91 
 941      7B21536E 
 941      26FC641A 
 942 022d 15932B33 		.ascii	"\025\223+30\177\274\304\002\333\355\216\372O\343\003"
 942      307FBCC4 
 942      02DBED8E 
 942      FA4FE303 
 943 023d 874C2120 		.ascii	"\207L! \306\240!\216@~Z(\262\335\354\264\011\205J\216"
 943      C6A0218E 
 943      407E5A28 
 943      B2DDECB4 
 943      09854A8E 
 944 0251 D94EA5E5 		.ascii	"\331N\245\345L\363l\233\202\361\323\002*3\267lP3\034"
 944      4CF36C9B 
 944      82F1D302 
 944      2A33B76C 
 944      50331C
 945 0264 4A625009 		.ascii	"JbP\011q\360\336E'\254\203\247 \234u\320dr\357\030?"
 945      71F0DE45 
 945      27AC83A7 
 945      209C75D0 
 945      6472EF18 
 946 0279 6728FBD7 		.ascii	"g(\373\327\200S\254\333r\344\232\345\\\374\246\316\011"
 946      8053ACDB 
 946      72E49AE5 
 946      5CFCA6CE 
ARM GAS  C:\Users\AMANRA~1\AppData\Local\Temp\ccHOYdie.s 			page 76


 946      09
 947 028a D9C9F6B8 		.ascii	"\331\311\366\270\262_C.fk\310\353t\005\346YCl\\\245"
 947      B25F432E 
 947      666BC8EB 
 947      7405E659 
 947      436C5CA5 
 948 029e B27B1D50 		.ascii	"\262{\035P\346\237Tu\265\234d:`\201c\313\014\373M\352"
 948      E69F5475 
 948      B59C643A 
 948      608163CB 
 948      0CFB4DEA 
 949 02b2 2EA64AA2 		.ascii	".\246J\242\355\355\266\003\357br\367.\252\244'\306\310"
 949      EDEDB603 
 949      EF6272F7 
 949      2EAAA427 
 949      C6C8
 950 02c4 BF822FF0 		.ascii	"\277\202/\360s\234s\023\334\200\177\247I\363x\210f}"
 950      739C7313 
 950      DC807FA7 
 950      49F37888 
 950      667D
 951 02d6 3A364042 		.ascii	":6@B\267\003}[\340\330\213(!\342[p\251\376\236\016\027"
 951      B7037D5B 
 951      E0D88B28 
 951      21E25B70 
 951      A9FE9E0E 
 952 02eb FA77FA37 		.ascii	"\372w\3727\202\252\3607\300\"\270\244\337=\035\207Y"
 952      82AAF037 
 952      C022B8A4 
 952      DF3D1D87 
 952      59
 953 02fc 80C202F0 		.ascii	"\200\302\002\360\253\004\014\020\233w\274\264T\307_"
 953      AB040C10 
 953      9B77BCB4 
 953      54C75F
 954 030b 65754D45 		.ascii	"euMEM\255\247\374Ty\231^\353\321\253\317_\322=W*\331"
 954      4DADA7FC 
 954      5479995E 
 954      EBD1ABCF 
 954      5FD23D57 
 955 0321 FB5C5D7D 		.ascii	"\373\\]}U}\225\247\264\222\320\332\272\313P\361\027"
 955      557D95A7 
 955      B492D0DA 
 955      BACB50F1 
 955      17
 956 0332 9EC7F02E 		.ascii	"\236\307\360."
 957              		.text
 958              		.section	.gnu.lto_oqPutTimeout.29debcc4,"",%progbits
 959 0000 789C9555 		.ascii	"x\234\225U]L\024W\024\276g\356\314\354,\273 \366\311"
 959      5D4C1457 
 959      14BE67EE 
 959      CCEC2CBB 
 959      20F6C9
 960 0013 071E96B6 		.ascii	"\007\036\226\266T%\226\305\220\264\351S\323\360\344"
 960      542596C5 
 960      90B4E953 
 960      D3F0E4
ARM GAS  C:\Users\AMANRA~1\AppData\Local\Temp\ccHOYdie.s 			page 77


 961 0022 0349A3AF 		.ascii	"\003I\243\257M\210n7\260\215\353\342.4\372\304\360#"
 961      4D886E37 
 961      B08DEBE2 
 961      2E34FAC4 
 961      F023
 962 0034 48C05653 		.ascii	"H\300VS\240d]\001\025*\325\010J\375\003A\267`\225\312"
 962      A0645D01 
 962      152AD508 
 962      4AFD0341 
 962      B76095CA 
 963 0048 8F62112D 		.ascii	"\217b\021-P@\220m\264\004\265M\2511)\366\234;\313\026"
 963      5040906D 
 963      B404B54D 
 963      A93129F6 
 963      9C3BCB16 
 964 005c 76AD4927 		.ascii	"v\255I'\233;{\357\371\373\3169\337\271\2432\306\366"
 964      9B3B7BEF 
 964      F9FBCE39 
 964      DFB9A332 
 964      C6F6
 965 006e 9818CB00 		.ascii	"\230\030\313\000\306>\303\377`f \035\034b\254H\223@"
 965      C63EC3FF 
 965      6066201D 
 965      1C62AC48 
 965      9340
 966 0080 31FE7049 		.ascii	"1\376pI^P\230\036\247\035\353cL\267\312`2\3165C\001"
 966      5E50981E 
 966      A71DEB63 
 966      4CB7CA60 
 966      32CE3543 
 967 0095 14890B49 		.ascii	"\024\211\013I\234JjV\325\220\203\011\200\336\272\006"
 967      9C4A6A56 
 967      D5908309 
 967      80DEBA06 
 968 00a5 AC50E2B2 		.ascii	"\254P\342\262\246\250&(\224\024\026~\252x5\207\341\322"
 968      A6A82628 
 968      9414167E 
 968      AA783587 
 968      E1D2
 969 00b7 33015EC9 		.ascii	"3\001^\311\003\234\201\214\333g\203\376\331\004\332"
 969      039C818C 
 969      DB6783FE 
 969      D904DA
 970 00c6 02D870DB 		.ascii	"\002\330p\333\334]\322\005\033O\350\370\004\277~\376"
 970      DC5DD205 
 970      1B4FE8F8 
 970      04BF7EFE 
 971 00d6 E6B373B7 		.ascii	"\346\263s\267us\200K\254\026\325\317A\022|\007I\004"
 971      7573804B 
 971      AC16D5CF 
 971      41127C07 
 971      4904
 972 00e8 F93C6C44 		.ascii	"\371<lD\345\320\005}R\346\357\002\303\377\203\275\355"
 972      E5D0057D 
 972      52E6EF02 
 972      C3FF83BD 
 972      ED
ARM GAS  C:\Users\AMANRA~1\AppData\Local\Temp\ccHOYdie.s 			page 78


 973 00f9 5FC9EB9B 		.ascii	"_\311\353\233u\275X\017>l\342\372\333\001\316\341\002"
 973      75BD580F 
 973      3E6CE2FA 
 973      DB01CEE1 
 973      02
 974 010a F0958678 		.ascii	"\360\225\206x\304\340\"\254G\365@\331\3119\3167\013"
 974      C4E022AC 
 974      47F540D9 
 974      C939CE37 
 974      0B
 975 011b D3FEC5BE 		.ascii	"\323\376\305\276kR\330t\240\214\353\326\000\227\341"
 975      6B52D874 
 975      A08CEBD6 
 975      0097E1
 976 012a 92619A91 		.ascii	"\222a\232\221\004\351d(3\350\020\206\023_T\317%\360"
 976      04E96428 
 976      33E81086 
 976      135F54CF 
 976      25F0
 977 013c 0C61F8F4 		.ascii	"\014a\370\364\321_/\022\302\206#\353\374zP\016p\005"
 977      D15F2F12 
 977      C28623EB 
 977      FC7A500E 
 977      7005
 978 014e 3AA3832A 		.ascii	":\243\203*\014.\303z2\2309\273T\023\257\312\224\015"
 978      0C2EC37A 
 978      329839BB 
 978      5413AFCA 
 978      940D
 979 0160 26D105AA 		.ascii	"&\321\005\252\0249,\025)/V\022D\024\324r`Q\262\361_"
 979      14392C15 
 979      292F5612 
 979      4414D472 
 979      6051B2F1 
 980 0175 3F3431E8 		.ascii	"?41\350&\231\024-\233\015l\372\204\301\025\222q\222"
 980      2699142D 
 980      9B0D6CFA 
 980      84C11592 
 980      7192
 981 0187 35DFBC73 		.ascii	"5\337\274s\325\302\017\200p\362m\353\321:k\312q\001"
 981      D5C20F80 
 981      70F26DEB 
 981      D13A6BCA 
 981      7101
 982 0199 F3C9C90D 		.ascii	"\363\311\311\015\207K*\017\350\215\305\211\001\256B"
 982      874B2A0F 
 982      E88DC589 
 982      01AE42
 983 01a8 7035567A 		.ascii	"p5Vz\242<\217R\035\277\207\024\006W\311\273\2742\015"
 983      A23C8F52 
 983      1DBF8714 
 983      0657C9BB 
 983      BC320D
 984 01bb E801157A 		.ascii	"\350\001\025zAe\264\340\371\300\231\216{2\0370\242\006"
 984      4165B4E0 
 984      F9C0998E 
 984      7B321F30 
ARM GAS  C:\Users\AMANRA~1\AppData\Local\Temp\ccHOYdie.s 			page 79


 984      A206
 985 01cd 9BC68635 		.ascii	"\233\306\2065\212J\235\254~\353lo\231~\260H\303^\302"
 985      8A4A9DAC 
 985      7EEB6C6F 
 985      997EB048 
 985      C35EC2
 986 01e0 B5D70495 		.ascii	"\265\327\004\225\341\007\212\205\025\210A\022\252\342"
 986      E1078A85 
 986      15884112 
 986      AAE2
 987 01ee 98FF7542 		.ascii	"\230\377uB\241D\313\246n\274S\2070n\220P]\005\261\017"
 987      A144CBA6 
 987      6EBC5387 
 987      306E9050 
 987      5D05B10F 
 988 0202 21FE086A 		.ascii	"!\376\010jl\3016d3\022\324\242\323\330\032\325\377\257"
 988      6CC13664 
 988      3312D4A2 
 988      D3D81AD5 
 988      FFAF
 989 0214 1A2DD463 		.ascii	"\032-\324c\215\372\011\367\315\330\032\015 \200A\252"
 989      8DFA09F7 
 989      CDD81A0D 
 989      208041AA 
 990 0224 112E3871 		.ascii	"\021.8q\254\355\216\022\324\227^\226cU\326U\316\206"
 990      ACED8E12 
 990      D4975E96 
 990      6355D655 
 990      CE86
 991 0236 6E3F9BD5 		.ascii	"n?\233\325\326\002\262\304$\341\242q\\\3142-\012.\222"
 991      D602B2C4 
 991      24E1A271 
 991      5CCC322D 
 991      0A2E92
 992 0249 06C45733 		.ascii	"\006\304W3\020\371,@4\262\222\214\261\375\310\240&\213"
 992      10F92C40 
 992      34B2928C 
 992      B1FDC8A0 
 992      268B
 993 025b 1E641548 		.ascii	"\036d\025H\206&KI\220\205@b\324(\214]\376H\357\226i"
 993      86264B49 
 993      90854062 
 993      D4288C5D 
 993      FE48EF96 
 994 0270 A654B0C1 		.ascii	"\246T\260\301\020b\376\015\212g\216\037\351\234\002"
 994      1062FE0D 
 994      8A678E1F 
 994      E99C02
 995 027f 6A1430EC 		.ascii	"j\0240\354\017\021\357XC\373\363\270\344f\251A\257\263"
 995      0F11EF58 
 995      43FBF3B8 
 995      E466A941 
 995      AFB3
 996 0291 05781CA1 		.ascii	"\005x\034\241>={Y\327d\011\311y\013\222E\236O\347G\306"
 996      3E3D7B59 
 996      D76409C9 
 996      790B9245 
ARM GAS  C:\Users\AMANRA~1\AppData\Local\Temp\ccHOYdie.s 			page 80


 996      9E4FE747 
 997 02a6 253C81DB 		.ascii	"%<\201\333 \013_\014\206\305\340\266\\\351\235\263&"
 997      200B5F0C 
 997      86C5E0B6 
 997      5CE99DB3 
 997      26
 998 02b7 B784AD2D 		.ascii	"\267\204\255-\244\373{k\373]\213\260\276C\326\360\023"
 998      A4FB7B6B 
 998      FB5D8BB0 
 998      BE43D6F0 
 998      13
 999 02c8 C808AB78 		.ascii	"\310\010\253x\372|Mu\216\300F\265\253@\206\342\335\201"
 999      FA7C4D75 
 999      8EC046B5 
 999      AB4086E2 
 999      DD81
 1000 02da 881F43F1 		.ascii	"\210\037C\361\213\362\266\226\353\207\024\352\252\237"
 1000      8BF2B696 
 1000      EB8714EA 
 1000      AA9F
 1001 02e8 03BAA8DD 		.ascii	"\003\272\250\335\327s\313D\320\015\376w\365\014^W\033"
 1001      D773CB44 
 1001      D00DFE77 
 1001      F50C5E57 
 1001      1B
 1002 02f9 A1BE08CB 		.ascii	"\241\276\010\313\334\270D\025\262\372\271\006#\204\003"
 1002      DCB84415 
 1002      B2FAB906 
 1002      238403
 1003 0308 C523E5F7 		.ascii	"\305#\345\367'-\366\323\324\004\304\020\017w\241\021"
 1003      272DF6D3 
 1003      D404C410 
 1003      0F77A111 
 1004 0318 6A78B843 		.ascii	"jx\270C\247\006\037O\252\205\177\223\260\361\033\300"
 1004      A7061F4F 
 1004      AA857F93 
 1004      B0F11BC0 
 1005 0328 02C328D8 		.ascii	"\002\303(\330\021\325=($T6\012J\003}xr\311\314\317H"
 1005      11D53D28 
 1005      2454360A 
 1005      4A037D78 
 1005      72C9CCCF 
 1006 033d 22DEC097 		.ascii	"\"\336\300\227\255\207,a\032\204*\371\211\022\275O\227"
 1006      AD872C61 
 1006      1A842AF9 
 1006      8912BD4F 
 1006      97
 1007 034e C9F47E2C 		.ascii	"\311\364~,\011\340gHA\320\344\253\361T8\011t1~\244\342"
 1007      09E06748 
 1007      41D0E4AB 
 1007      F1543809 
 1007      74317EA4 
 1008 0363 9239D645 		.ascii	"\2229\326E\314\275 \\\214\221\013\013\233\207}\323O"
 1008      CCBD205C 
 1008      8C910B0B 
 1008      9B877DD3 
 1008      4F
ARM GAS  C:\Users\AMANRA~1\AppData\Local\Temp\ccHOYdie.s 			page 81


 1009 0374 FE68288F 		.ascii	"\376h(\217\217\"\026\315\015'%\212\025\346\276\266\212"
 1009      8F2216CD 
 1009      0D27258A 
 1009      15E6BEB6 
 1009      8A
 1010 0385 5DE3D8CF 		.ascii	"]\343\330\317\011b\327\004U\320\212\242\216\216\371"
 1010      0962D704 
 1010      55D08AA2 
 1010      8E8EF9
 1011 0394 7113A68D 		.ascii	"q\023\246\215\243\226P\313\315\244\301\340\027\314\031"
 1011      A39650CB 
 1011      CDA4C1E0 
 1011      17CC19
 1012 03a3 B162AC00 		.ascii	"\261b\254\000_\023\311^x\375w7\266jGs\310\346\240t\250"
 1012      5F13C95E 
 1012      78FD7737 
 1012      B66A4773 
 1012      C8E6A074 
 1013 03b8 77B2AA44 		.ascii	"w\262\252D5:d]\331!\254\030L\206\023\251@\322_P\226"
 1013      353A645D 
 1013      D921AC18 
 1013      4C8613A9 
 1013      40D25F50 
 1014 03cd 59D82F58 		.ascii	"Y\330/X\030Q$\306M\255b\341\340\012\026.5<\270bY&\330"
 1014      185124C6 
 1014      4DAD62E1 
 1014      E00A162E 
 1014      353CB862 
 1015 03e4 9420D8B4 		.ascii	"\224 \330\264 X4\233\036D\3304\226#b`\334E\220\021\025"
 1015      2058349B 
 1015      1E44D834 
 1015      96236260 
 1015      DC459011 
 1016 03f9 5FAA7FD9 		.ascii	"_\252\177\331\221\2133\241\261\371\036\006\025x?\340"
 1016      918B33A1 
 1016      B1F91E06 
 1016      15783FE0 
 1017 0409 674830AC 		.ascii	"gH0\254\247\263\343X\273\225\356\023?\227\242\010e\213"
 1017      A7B3E358 
 1017      BB95EE13 
 1017      3F97A208 
 1017      658B
 1018 041b 62D3E8C5 		.ascii	"b\323\350\305\316\213\361\310\246\322\"\022%\302\214"
 1018      CE8BF1C8 
 1018      A6D22212 
 1018      25C28C
 1019 042a 6013CD2C 		.ascii	"`\023\315,\314\"s\260\026c\275x\271E|E\022L\304d\036"
 1019      CC2273B0 
 1019      1663BD78 
 1019      B9457C45 
 1019      124CC464 
 1020 043f 462AA1B2 		.ascii	"F*\241\262\205p%H\025\365\252C\373\377\\\223\332b\\"
 1020      85702548 
 1020      15F5AA43 
 1020      FBFF5C93 
 1020      DA625C
 1021 0452 A76DFC68 		.ascii	"\247m\374hI)\320G\301x`\016R\015\012(\206g\276\272\207"
ARM GAS  C:\Users\AMANRA~1\AppData\Local\Temp\ccHOYdie.s 			page 82


 1021      4929D047 
 1021      C178600E 
 1021      520D0A28 
 1021      8667BEBA 
 1022 0467 6B6B7132 		.ascii	"kkq2\031\204D\0035?\307\257\341\033\"\214\311\030\373"
 1022      19844403 
 1022      353FC7AF 
 1022      E11B228C 
 1022      C918FB
 1023 047a 052CB85F 		.ascii	"\005,\270_x[\004\305\317eY\324\002\335\250tI\000*a\005"
 1023      785B04C5 
 1023      CF6559D4 
 1023      02DDA874 
 1023      49002A61 
 1024 048f 53D3D2EC 		.ascii	"S\323\322\354\370s\344\272v\270<\276\315\037lN\267{"
 1024      F873E4BA 
 1024      76B83CBE 
 1024      CD1F6C4E 
 1024      B77B
 1025 04a1 7CF6DCED 		.ascii	"|\366\334\355;\355>\257\203\336\331\273\013\234\005"
 1025      3BED3EAF 
 1025      83DED9BB 
 1025      0B9C05
 1026 04b0 4E5F9A83 		.ascii	"N_\232\203q\317\356<\330a\312w\271\235\236\202\374\015"
 1026      71CFEE3C 
 1026      D861CA77 
 1026      B99D9E82 
 1026      FC0D
 1027 04c2 FF69E8F1 		.ascii	"\377i\350\361\341\342\315\027\357\264\\\366jE\224\273"
 1027      E1E2CD17 
 1027      EFB45CF6 
 1027      6A4594BB 
 1028 04d2 76397616 		.ascii	"v9v\026|\352D\211o\257\017\025M;\266\373\234\037{]\357"
 1028      7CEA4489 
 1028      6FAF0F15 
 1028      4D3BB6FB 
 1028      9C1F7B5D 
 1029 04e7 BDD2C0E1 		.ascii	"\275\322\300\341q\273=\273\354y\036o\276\317\376\321"
 1029      71BB3DBB 
 1029      EC791E6F 
 1029      BECFFED1 
 1030 04f7 D6ACCCAC 		.ascii	"\326\254\314\254=\250\342\360x\235\331\237\277\357F"
 1030      3DA8E2F0 
 1030      789DD99F 
 1030      BFEF46
 1031 0506 73EEF6E5 		.ascii	"s\356\366\345d\276\316\324\271'\237\014\355\231Y\333"
 1031      64BECED4 
 1031      B9279F0C 
 1031      ED9959DB 
 1032 0516 B66CB367 		.ascii	"\266l\263g\242\245}\3132\004\267\317\345\313\316q8\320"
 1032      A2A57DCB 
 1032      3204B7CF 
 1032      E5CBCE71 
 1032      38D0
 1033 0528 4F62D6B6 		.ascii	"Ob\326\266\2556\202\222\347um\262\245\2443\311\313L"
 1033      AD368292 
 1033      E7756DB2 
ARM GAS  C:\Users\AMANRA~1\AppData\Local\Temp\ccHOYdie.s 			page 83


 1033      A5A433C9 
 1033      CB4C
 1034 053a 6EA7DBE3 		.ascii	"n\247\333\343\335\313x\376\356\274\177\000l\016\312"
 1034      DDCB78FE 
 1034      EEBC7F00 
 1034      6C0ECA
 1035 0549 96       		.ascii	"\226"
 1036              		.text
 1037              		.section	.gnu.lto_oqGetI.29debcc4,"",%progbits
 1038 0000 789C9555 		.ascii	"x\234\225U\377oSU\024\277\347\335\367\265\355&\011\342"
 1038      FF6F5355 
 1038      14BFE7DD 
 1038      F7B5ED26 
 1038      09E2
 1039 0012 12D39825 		.ascii	"\022\323\230%:&\030W\226\031\215\277\231\360\207\250"
 1039      3A261857 
 1039      96198DBF 
 1039      99F087A8 
 1040 0022 5BD06134 		.ascii	"[\320a4c\024H\374io\353h\267A\342\027\244\352\343\241"
 1040      631448FC 
 1040      696FEB68 
 1040      B741E217 
 1040      A4EAE3A1 
 1041 0036 8D401089 		.ascii	"\215@\020\211\262\331\215\255s\203\322\342\330\240\035"
 1041      B2D98DAD 
 1041      7383D2E2 
 1041      D8A01D
 1042 0045 1B4E181B 		.ascii	"\033N\030\033T\242B\"\231S\2141\321\350\360\234{\337"
 1042      54A24222 
 1042      99538C31 
 1042      D1E8F09C 
 1042      7BDF
 1043 0057 D632C165 		.ascii	"\3262\301eM{\336\273\367\236\363\371\234\257\267:cl"
 1043      4D7BDEBB 
 1043      F79EF3F9 
 1043      9CAFB73A 
 1043      636C
 1044 0069 97C15803 		.ascii	"\227\301X\003=\361\007>\006\312\333\343\214\265\232"
 1044      3DF1073E 
 1044      06CADBE3 
 1044      8CB59A
 1045 0078 8AC2072A 		.ascii	"\212\302\007*\230\355S\247\237ev\200+ZG5\255H\006T\320"
 1045      98ED53A7 
 1045      9F657680 
 1045      2B5A4735 
 1045      AD480654 
 1046 008d A492A6E8 		.ascii	"\244\222\246\350\2439\206;\326(\340\251\256\030B\313"
 1046      A339863B 
 1046      D628E0A9 
 1046      AE1842CB 
 1047 009d 145A0698 		.ascii	"\024Z\006\230R\313\004K\276X\000\364b\233\300Z\024\256"
 1047      52CB044B 
 1047      BE5800F4 
 1047      629BC05A 
 1047      14AE
 1048 00af 6ABA815B 		.ascii	"j\272\201[-\260\227\277\307a\262\275\333\345{\270\313"
 1048      2DB097BF 
ARM GAS  C:\Users\AMANRA~1\AppData\Local\Temp\ccHOYdie.s 			page 84


 1048      C761B2BD 
 1048      DBE57BB8 
 1048      CB
 1049 00c0 19A8B8BC 		.ascii	"\031\250\270\274\223w~(\247%@%.\217\014G\206`\303Q\033"
 1049      93777E28 
 1049      A7254025 
 1049      2E8F0C47 
 1049      8660C351 
 1050 00d5 3FE9F79D 		.ascii	"?\351\367\235\365wz'l\313\345\012\213\243z/\004!\011"
 1050      F5777A27 
 1050      6CCBE50A 
 1050      8BA37A2F 
 1050      042109
 1051 00e8 4172BF0F 		.ascii	"Ar\277\0176\240\362\255\223vA\345O\003\303\367|\366"
 1051      36A0F2AD 
 1051      937641E5 
 1051      4F03C3F7 
 1051      7CF6
 1052 00fa CB7D6AF5 		.ascii	"\313}j\365\021\333n\263\323\277\037\342\366\023.\347"
 1052      11DB6EB3 
 1052      D3BF1FE2 
 1052      F6132EE7 
 1053 010a 701278A9 		.ascii	"p\022x\251!n1\350\207j\322\377\276ga\177\231\256\022"
 1053      216E31E8 
 1053      876AD2FF 
 1053      BE67617F 
 1053      99AE12
 1054 011d 30E20D80 		.ascii	"0\342\015\200\016\270\351F?\273\311y\255\000<\265/q"
 1054      0EB8E946 
 1054      3FBBC979 
 1054      AD003CB5 
 1054      2F71
 1055 012f 5AAD3A24 		.ascii	"Z\255:$\000\013\037\362\203\335\266\035y\301\345*\244"
 1055      000B1FF2 
 1055      83DDB61D 
 1055      79C1E52A 
 1055      A4
 1056 0140 24685D10 		.ascii	"$h]\0206\221/\254\004\015\006\241J\200\211\315k\007"
 1056      36912FAC 
 1056      040D06A1 
 1056      4A8089CD 
 1056      6B07
 1057 0152 0A0B16AF 		.ascii	"\012\013\026\257\023h\271\267\276x\307\357\241\315\177"
 1057      1368B9B7 
 1057      BE78C7EF 
 1057      A1CD7F
 1058 0161 C08F46EC 		.ascii	"\300\217F\354Q[u\271\006C\367\272\350\341\345\272SW"
 1058      515B75B9 
 1058      0643F7BA 
 1058      E8E1E5BA 
 1058      5357
 1059 0173 54FE9C30 		.ascii	"T\376\2340M\037\236\2314\311\024S2\001\302L\201S\367"
 1059      4D1F9E99 
 1059      34C91453 
 1059      3201C24C 
 1059      8153F7
 1060 0186 35936EB4 		.ascii	"5\223n\264\013\325\202\203\350\247\241\012\206\311\247"
ARM GAS  C:\Users\AMANRA~1\AppData\Local\Temp\ccHOYdie.s 			page 85


 1060      0BD58283 
 1060      E8A7A10A 
 1060      86C9A7
 1061 0195 AF408F73 		.ascii	"\257@\217s(\015\034\322\030\363\031t\225\004`\016\310"
 1061      280D1CD2 
 1061      18F31974 
 1061      9504600E 
 1061      C8
 1062 01a6 F91397B4 		.ascii	"\371\023\227\264\264\275p7FNB\317\330\370\201\307+\000"
 1062      B4BD7037 
 1062      464E42CF 
 1062      D8F881C7 
 1062      2B00
 1063 01b8 D3A62B24 		.ascii	"\323\246+$8\012CEaj\364\246\2230\350\300$a\221\360\241"
 1063      380A4345 
 1063      616AF4A6 
 1063      9330E8C0 
 1063      246191F0 
 1064 01cd D0FC28AC 		.ascii	"\320\374(\254\000\012e\015P\272\3272\202^G\033\214u"
 1064      000A650D 
 1064      50BAD732 
 1064      825E471B 
 1064      8C75
 1065 01df 60BEB137 		.ascii	"`\276\2617\3544\353\304%\276E\322\3546\264\015\376\344"
 1065      EC34EBC4 
 1065      25BE45D2 
 1065      EC36B40D 
 1065      FEE4
 1066 01f1 245FA2CC 		.ascii	"$_\242\3149\234\012\021\337\235\271hPWH\237\2072\371"
 1066      399C0A11 
 1066      DF9DB968 
 1066      5057489F 
 1066      8732F9
 1067 0204 113D011F 		.ascii	"\021=\001\037\265b`\225.\3679|\015d(l<\233\212M\027"
 1067      B5626095 
 1067      2EF7397C 
 1067      0D64286C 
 1067      3C9B8A4D 
 1068 0219 FCA1CF6D 		.ascii	"\374\241\317my\244C\026\022\260\237\212\312\340,\204"
 1068      79A44316 
 1068      12B09F8A 
 1068      CAE02C84 
 1069 0229 04B62581 		.ascii	"\004\266%\201\225U\"}-\220\200\220F\020\351&\264\317"
 1069      9555227D 
 1069      2D908090 
 1069      4610E926 
 1069      B4CF
 1070 023b 6CF65C74 		.ascii	"l\366\\t(\024\374tbG\015T\210\0202\2134|\005\232\313"
 1070      2814FC74 
 1070      62470D54 
 1070      8810328B 
 1070      347C059A 
 1071 0250 FD83FD65 		.ascii	"\375\203\375eH\323\336JG~8'h\010\017F%\315\354\346\""
 1071      48D3DE4A 
 1071      477E3827 
 1071      68080F46 
 1071      25CDECE6 
ARM GAS  C:\Users\AMANRA~1\AppData\Local\Temp\ccHOYdie.s 			page 86


 1072 0265 D25226FC 		.ascii	"\322R&\374\300`\314+u\007WYo\206R\327\311\265b\022\177"
 1072      C060CC2B 
 1072      75075759 
 1072      6F8652D7 
 1072      C9B56212 
 1073 027a 8B813454 		.ascii	"\213\2014T\035\356\027@\331g\274\215R$\234J8/\221\376"
 1073      1DEE1740 
 1073      D967BC8D 
 1073      52249C4A 
 1073      382F91FE 
 1074 028e 003F3C15 		.ascii	"\000?<\025\344\357\352\2601\250*\210\2463\234s/\236"
 1074      E4EFEAB0 
 1074      31A82A88 
 1074      A6339C73 
 1074      2F9E
 1075 02a0 6307EBA8 		.ascii	"c\007\353\250o\260\217V\031\321\205bD9Q\202H<\232\322"
 1075      6FB08F56 
 1075      19D18562 
 1075      44395182 
 1075      483C9AD2 
 1076 02b4 249607D7 		.ascii	"$\226\007\327\027\313\365\370dX\000y\304A\302\251. "
 1076      17CBF5F8 
 1076      64580079 
 1076      C441C2A9 
 1076      2E20
 1077 02c6 9D656489 		.ascii	"\235ed\211z\266\002\335x\221\356\"\204\220\202\030\335"
 1077      7AB602DD 
 1077      7891EE22 
 1077      84908218 
 1077      DD
 1078 02d7 E8CFC968 		.ascii	"\350\317\311h\205\3444\260\\4\254\230\242\007p\354Z"
 1078      85E434B0 
 1078      5C34AC98 
 1078      A20770EC 
 1078      5A
 1079 02e8 CEB1BC17 		.ascii	"\316\261\274\027&\212\2750I\034\006\201\375\335\365"
 1079      268ABD30 
 1079      491C0681 
 1079      FDDDF5
 1080 02f7 A624585B 		.ascii	"\246$X[\232^\375?-\233x\005\341Ur\342\022\301\3037\010"
 1080      9A5EFD3F 
 1080      2D9B7805 
 1080      E15572E2 
 1080      12C1C337 
 1081 030c C66E415B 		.ascii	"\306nA[\34212\247\341@\0109\005\037'\177\005\211i\256"
 1081      E23132A7 
 1081      E1400839 
 1081      051F277F 
 1081      058969AE 
 1082 0320 B25BA784 		.ascii	"\262[\247\204\207\3426\373V\266\321\325\354YXJ\200\351"
 1082      87E236FB 
 1082      56B6D1D5 
 1082      EC59584A 
 1082      80E9
 1083 0332 F5ABC10E 		.ascii	"\365\253\301\016\257_\034\271O\223?z\012\326*\311.\013"
 1083      AF5F1CB9 
 1083      4F933F7A 
ARM GAS  C:\Users\AMANRA~1\AppData\Local\Temp\ccHOYdie.s 			page 87


 1083      0AD62AC9 
 1083      2E0B
 1084 0344 3295C8AE 		.ascii	"2\225\310\256\310!\233\352\032\323\356\227\331\327V"
 1084      C8219BEA 
 1084      1AD3EE97 
 1084      D9D756
 1085 0353 CAEC7431 		.ascii	"\312\354t1\263W)\263\226p\323\\\352\303\266\277b\303"
 1085      B35729B3 
 1085      9670D35C 
 1085      EAC3B6BF 
 1085      62C3
 1086 0365 7D238AF4 		.ascii	"}#\212\364\323\267\034\376\023\345\377\361\0030#\360"
 1086      D3B71CFE 
 1086      13E5FFF1 
 1086      033023F0 
 1087 0375 3579411E 		.ascii	"5yA\036\317\337.\350-\377\320a\342\021\272~g\321{\006"
 1087      CFDF2EE8 
 1087      2DFFD061 
 1087      E211BA7E 
 1087      67D17B06 
 1088 0389 D7A085EA 		.ascii	"\327\240\205\352Q)\3121L\345\360\025\327x\207\242\345"
 1088      5129CA31 
 1088      4CE5F015 
 1088      D77887A2 
 1088      E5
 1089 039a 89B9D49F 		.ascii	"\211\271\324\237eT\3362\234\236\353\3105\007\273o\374"
 1089      6554DE32 
 1089      9C9EEBC8 
 1089      3507BB6F 
 1089      FC
 1090 03ab 924D9E03 		.ascii	"\222M\236\003q\211\242F*57k \266\351\362\3628\326:M"
 1090      7189A246 
 1090      2A35376B 
 1090      20B6E9F2 
 1090      F238D63A 
 1091 03c0 776B0191 		.ascii	"wk\001\221\021\215,\\\376\020\201\336\330s<\371\360"
 1091      118D2C5C 
 1091      FE1081DE 
 1091      D8733CF9 
 1091      F0
 1092 03d1 2211BB87 		.ascii	"\"\021\273\207\206\311!\276\336\027-\227\341\256\243"
 1092      86C921BE 
 1092      DE172D97 
 1092      E1AEA3
 1093 03e0 BEA07458 		.ascii	"\276\240tX\336\220\317\203\202p\0011\271\001<7\351N"
 1093      DE90CF83 
 1093      82700131 
 1093      B9013C37 
 1093      E94E
 1094 03f2 BB7B6C7E 		.ascii	"\273{l~P'\327\024\374\217\375\016\202\2323\277\367Q"
 1094      5027D714 
 1094      FC8FFD0E 
 1094      829A33BF 
 1094      F751
 1095 0404 BC23808C 		.ascii	"\274#\200\214p,6\326\324\204\360\333\320\270\265~kS"
 1095      702C36D6 
 1095      D484F0DB 
ARM GAS  C:\Users\AMANRA~1\AppData\Local\Temp\ccHOYdie.s 			page 88


 1095      D0B8B57E 
 1095      6B53
 1096 0416 B8F6F9DA 		.ascii	"\270\366\371\332M\241\246p\250\361\345\327C\341\355"
 1096      4DA1A670 
 1096      A8F1E5D7 
 1096      43E1ED
 1097 0425 0DF47CB1 		.ascii	"\015\364|\261y\347\226\235[\3025\015\21475o\203z\276"
 1097      79E7969D 
 1097      5BC2350D 
 1097      8C37356F 
 1097      837ABE
 1098 0438 A3791B7F 		.ascii	"\243y\033\177#\374\352\223\0174l\012\243\330\276C<k"
 1098      23FCEA93 
 1098      0F346C0A 
 1098      A3D8BE43 
 1098      3C6B
 1099 044a 1AD9BF36 		.ascii	"\032\331\2776J\177\331"
 1099      4A7FD9
 1100              		.text
 1101              		.section	.gnu.lto_oqWriteI.29debcc4,"",%progbits
 1102 0000 789C6D92 		.ascii	"x\234m\222\337K\024Q\024\307\317\231sgw\374\371\334"
 1102      DF4B1451 
 1102      14C7CF99 
 1102      736777FC 
 1102      F9DC
 1103 0012 830F422D 		.ascii	"\203\017B-\213BnB\004F\017=\364\017\364\027\204\212"
 1103      8B426E42 
 1103      04460F3D 
 1103      F40FF417 
 1103      848A
 1104 0024 A110FEDA 		.ascii	"\241\020\376\332,z\332\253\231?\262\007%\335d\231\225"
 1104      2C7ADAAB 
 1104      993FB207 
 1104      25DD6499 
 1104      95
 1105 0035 0D2BEB21 		.ascii	"\015+\353!j]S\3274\247]3\244T\212\212P0\260\322\214"
 1105      6A5D53D7 
 1105      34A75D33 
 1105      A4548A8A 
 1105      5030B0D2 
 1106 004a 45087A10 		.ascii	"E\010z\020J\355\334\353j%\0163\314=s\277\237s\277\347"
 1106      4AEDDCEB 
 1106      6A250E33 
 1106      CC3D73BF 
 1106      9F73BFE7 
 1107 005e 9C7101C0 		.ascii	"\234q\001\300I\0028\305\3573\374\240\013\320\350\234"
 1107      490238C5 
 1107      EF33FCA0 
 1107      0BD0E89C 
 1108 006e 0368B40C 		.ascii	"\003h\264\014\203z\013Af\232\033\207Af\223!>\315\200"
 1108      837A0B41 
 1108      669A1B87 
 1108      41669321 
 1108      3ECD80
 1109 0081 0AA38243 		.ascii	"\012\243\202C\201\346\216\312DT\013i!\004\014\022&\006"
 1109      81E68ECA 
 1109      44540B69 
ARM GAS  C:\Users\AMANRA~1\AppData\Local\Temp\ccHOYdie.s 			page 89


 1109      21040C12 
 1109      2606
 1110 0093 F0067513 		.ascii	"\360\006u\023\276i~lS\007\331\004(8\3741\033\372\234"
 1110      BE697E6C 
 1110      5307D904 
 1110      2838FC31 
 1110      1BFA9C
 1111 00a6 AB42C47C 		.ascii	"\253B\304|\016S\353\323C\331\005\003R6I\347\326\240"
 1111      0E53EBD3 
 1111      43D90503 
 1111      523649E7 
 1111      D6A0
 1112 00b8 B731D972 		.ascii	"\2671\331r\275\023m2 \310\372!\314\303\030\346)7O\260"
 1112      BD136D32 
 1112      20C8FA21 
 1112      CCC318E6 
 1112      29374FB0 
 1113 00cc 80D52BC3 		.ascii	"\200\325+\303rI\320Q\004^\317&\007o\012\357]M\276\276"
 1113      7249D051 
 1113      045ECF26 
 1113      076F0AEF 
 1113      5D4DBEBE 
 1114 00e0 43F2884D 		.ascii	"C\362\210M\204\303H\377\202\374\011p\004\275,\377\325"
 1114      84C348FF 
 1114      82FC0970 
 1114      04BD2CFF 
 1114      D5
 1115 00f1 F13E9841 		.ascii	"\361>\230A\305\032\355Z\035\330\3024\232\272\247Q\201"
 1115      C51AED5A 
 1115      1DD8C234 
 1115      9ABAA751 
 1115      81
 1116 0102 A3FB5101 		.ascii	"\243\373Q\001\030\327\350\246\354\016\346\322q\215~"
 1116      18D7E8A6 
 1116      EC0EE6D2 
 1116      718D7E
 1117 0111 79D5DFE9 		.ascii	"y\325\337\351N\243S\207B\322\021l\026\307\366\263\006"
 1117      4EA35387 
 1117      42D2116C 
 1117      16C7F6B3 
 1117      06
 1118 0122 E053F42A 		.ascii	"\340S\364*`\346\345j\002\351\204\206\177\376\356\032"
 1118      60E6E56A 
 1118      02E98486 
 1118      7FFEEE1A 
 1119 0132 CFF1F46B 		.ascii	"\317\361\364kx)L\241!)\333O+~\374\177^],\1770p\1771"
 1119      78294CA1 
 1119      2129DB4F 
 1119      2B7EFC7F 
 1119      5E5D2C7F 
 1120 014a 8B4A34BA 		.ascii	"\213J4\272=\262<*\322\350\2070\205\323\250\211\317\016"
 1120      3DB23C2A 
 1120      D2E88730 
 1120      85D3A889 
 1120      CF0E
 1121 015c 4497A35B 		.ascii	"D\227\243[=9.\201\223\350\301\011\364\250nr\023\035"
 1121      3D392E81 
ARM GAS  C:\Users\AMANRA~1\AppData\Local\Temp\ccHOYdie.s 			page 90


 1121      93E8C109 
 1121      F4A86E72 
 1121      131D
 1122 016e 35540063 		.ascii	"5T\000c\367\363\243\267\246#\267\266[\2453\027\306h"
 1122      F7F3A3B7 
 1122      A623B7B6 
 1122      5BA53317 
 1122      C668
 1123 0180 F4DB464C 		.ascii	"\364\333FLd\362\\\270a\\;kx\244\334\001\027\252Z,\320"
 1123      64F25CB8 
 1123      615C3B6B 
 1123      78A4DC01 
 1123      17AA5A2C 
 1124 0195 89A08D33 		.ascii	"\211\240\2153\361\234\245\003\355\\%\257\256:\360\035"
 1124      F19CA503 
 1124      ED5C25AF 
 1124      AE3AF01D 
 1125 01a5 9BC6D616 		.ascii	"\233\306\326\026b\027\325\001!RS\016^K\314\273\325\224"
 1125      6217D501 
 1125      2152530E 
 1125      5E4BCCBB 
 1125      D594
 1126 01b7 49BB1F4F 		.ascii	"I\273\037O\314N\273\"\330\327(\245\214\214!7\210u\204"
 1126      CC4EBB22 
 1126      D8D728A5 
 1126      8C8C2137 
 1126      887584
 1127 01ca CF9561DE 		.ascii	"\317\225a\336~\327\372q)\313\367\2207e\276\252)\201"
 1127      7ED7FA71 
 1127      29CBF790 
 1127      3765BEAA 
 1127      2981
 1128 01dc 11EC518E 		.ascii	"\021\354Q\216\001\223\350\203\025l\212\\R\271\225'\316"
 1128      0193E883 
 1128      156C8A5C 
 1128      52B99527 
 1128      CE
 1129 01ed 0F296C89 		.ascii	"\017)l\211l\317\225\356\034gq\202x<\265\350\016lJ\313"
 1129      6CCF95EE 
 1129      1C677182 
 1129      783CB5E8 
 1129      0E6C4ACB 
 1130 0201 2677908F 		.ascii	"&w\220\217\004\234\302\000\360\021!2C\344\262\311RI"
 1130      049CC200 
 1130      F0112132 
 1130      43E4B2C9 
 1130      5249
 1131 0213 F2758E09 		.ascii	"\362u\216\011\225\303\202\257\330\274\230\\\350\243"
 1131      95C382AF 
 1131      D8BC985C 
 1131      E8A3
 1132 0221 BF49F63C 		.ascii	"\277I\366<\033\010\370\"\335\313v\376\203z\013\271F"
 1132      1B08F822 
 1132      DDCB76FE 
 1132      837A0BB9 
 1132      46
 1133 0232 AD9FA203 		.ascii	"\255\237\242\003J4Y>\275'\027\260\346ey\012\233#\261"
ARM GAS  C:\Users\AMANRA~1\AppData\Local\Temp\ccHOYdie.s 			page 91


 1133      4A34593E 
 1133      BD2717B0 
 1133      E665790A 
 1133      9B23B1
 1134 0245 F9B3BAE5 		.ascii	"\371\263\272\345\3122{\261)C+\314t\327\326\271\254\311"
 1134      CA327BB1 
 1134      29432BCC 
 1134      74D7D6B9 
 1134      ACC9
 1135 0257 F9DBBB0E 		.ascii	"\371\333\273\016\024\336\306\336y\323\000(,*\362\361"
 1135      14DEC6DE 
 1135      79D30028 
 1135      2C2AF2F1 
 1136 0267 5D5E5955 		.ascii	"]^YUVU\343/.)>\346\253\361\373*K/\370\374\365\345\352"
 1136      5655E32F 
 1136      2E293EE6 
 1136      ABF1FB2A 
 1136      4B2FF8FC 
 1137 027e 7DAEAEA1 		.ascii	"}\256\256\241\242\241\302_T\016TSWk\224\325b\265q\271"
 1137      A2A1C25F 
 1137      540E5453 
 1137      576B94D5 
 1137      62B571B9 
 1138 0292 9EAACF5F 		.ascii	"\236\252\317_\371\003\277\307\035\273"
 1138      F903BFC7 
 1138      1DBB
 1139              		.text
 1140              		.section	.gnu.lto_oqWriteTimeout.29debcc4,"",%progbits
 1141 0000 789C9556 		.ascii	"x\234\225VkL\024W\024\276g\356\354\314\276\244P\324"
 1141      6B4C1457 
 1141      14BE67EE 
 1141      ECCCBEA4 
 1141      50D4
 1142 0012 A6B14D30 		.ascii	"\246\261M0)\221\252e51m\2324M-I\223\3760i\352\337&D"
 1142      2991AA65 
 1142      35316D9A 
 1142      344D2D49 
 1142      93FE3069 
 1143 002a B75B25E9 		.ascii	"\267[%\351\262\310\202\321_\014\217b)\332b\244+\331"
 1143      B2C882D1 
 1143      5F0C8F62 
 1143      29DA62A4 
 1143      2BD9
 1144 003c AE08554B 		.ascii	"\256\010UK\213@\253\325*\250\270u[\254VTPAE\361\211"
 1144      8B40ABD5 
 1144      2AA8B875 
 1144      5BAC5654 
 1144      504145F1 
 1145 0051 168B14C5 		.ascii	"\026\213\024\305WE\227\236sg\300e\027i\334\220a\356"
 1145      5745979E 
 1145      7367C065 
 1145      1769DC90 
 1145      61EE
 1146 0063 BDE73BE7 		.ascii	"\275\347;\347\334\357|\347\336Q\030c3\354\214\245\001"
 1146      DCEF7CE7 
 1146      DE511863 
 1146      33EC8CA5 
ARM GAS  C:\Users\AMANRA~1\AppData\Local\Temp\ccHOYdie.s 			page 92


 1146      01
 1147 0074 635FE03B 		.ascii	"c_\340;\330\031HeG\031\3137K`\323_\270$_}\221iVS\335"
 1147      D8194865 
 1147      4719CB37 
 1147      4B60D35F 
 1147      B8245F7D 
 1148 008d 3CA6D965 		.ascii	"<\246\331e\311\332o\302\221\345\333?\030\016M\222Rt"
 1148      C9DA6FC2 
 1148      91E5DB3F 
 1148      180E4D92 
 1148      5274
 1149 009f 085FACEA 		.ascii	"\010_\254\352j\234\265+\240\352 \025,\372\213Ew3\337"
 1149      6A9CB52B 
 1149      A0EA2015 
 1149      2CFA8B45 
 1149      7733DF
 1150 00b2 267181B0 		.ascii	"&q\201\260\012\270\335\012@\323\232\031X\236\304e\223"
 1150      0AB8DD0A 
 1150      40D39A19 
 1150      589EC465 
 1150      93
 1151 00c3 A25A6C56 		.ascii	"\242ZlV\310\223l\314\370\255\346\345\034\332\212~\012"
 1151      C8936CCC 
 1151      F8ADE6E5 
 1151      1CDA8A7E 
 1151      0A
 1152 00d4 F0521EE0 		.ascii	"\360R\036\340\014d\034\336j\365_\211\243!@\022\016\373"
 1152      0C641CDE 
 1152      6AF55F89 
 1152      A3214012 
 1152      0EFB
 1153 00e6 FA5B76D8 		.ascii	"\372[v\330_\255\321\264\002-\270\376\344\314\374P\361"
 1153      5FADD1B4 
 1153      022DB8FE 
 1153      E4CCFC50 
 1153      F1
 1154 00f7 176510E0 		.ascii	"\027e\020\340\022\363\241\375\016x\011~\206\227hO;\341"
 1154      12F3A1FD 
 1154      0E78097E 
 1154      8697684F 
 1154      3BE1
 1155 0109 55B4BEF6 		.ascii	"U\264\276\366\213\326-\363\327\200\341{kh\373:y\306"
 1155      8BD62DF3 
 1155      D780E17B 
 1155      6B68FB3A 
 1155      79C6
 1156 011b 16817CB4 		.ascii	"\026\201|\264\231k\257\0048\207_\200G\002q\212\301."
 1156      996BAF04 
 1156      38875F80 
 1156      4702718A 
 1156      C12E
 1157 012d 9881E643 		.ascii	"\230\201\346C\245\247|\026>W@\327^\257\011\203\001="
 1157      A5A77C16 
 1157      3E5740D7 
 1157      5EAF0983 
 1157      013D
 1158 013f 5723A032 		.ascii	"W#\2402\354\216\206\312\014\032\005\364\261V\356\213"
ARM GAS  C:\Users\AMANRA~1\AppData\Local\Temp\ccHOYdie.s 			page 93


 1158      EC8E86CA 
 1158      0C1A05F4 
 1158      B156EE8B 
 1159 014f E3F304F4 		.ascii	"\343\363\004\364\352\237\233\312T\003\332]\313\233w"
 1159      EA9F9BCA 
 1159      5403DA5D 
 1159      CB9B77
 1160 015e 689A05D3 		.ascii	"h\232\005\323\205\246h\264\304`\217@\237\373\262\274"
 1160      85A668B4 
 1160      C4608F40 
 1160      9FFBB2BC 
 1161 016e 278EBF2E 		.ascii	"'\216\277.\320\003\275\367\037\306\215\344\274E\004"
 1161      D003BDF7 
 1161      1FC68DE4 
 1161      BC4504
 1162 017d 36C1DE68 		.ascii	"6\301\336h\250\211\301>\230!\022m\351\251\263\360\267"
 1162      A889C13E 
 1162      9821126D 
 1162      E9A9B3F0 
 1162      B7
 1163 018e 05B6B3BC 		.ascii	"\005\266\263\274o\273\232\274I`\373k\271\037#\227\274"
 1163      6FBB9ABC 
 1163      4960FB6B 
 1163      B91F2397 
 1163      BC
 1164 019f 43A19BC7 		.ascii	"C\241\233\307\342\351\207\346?\324|\337e\343\357\012"
 1164      E2E987E6 
 1164      3FD47CDF 
 1164      65E3EF0A 
 1165 01af E8F0AECB 		.ascii	"\350\360\256\313\273e\003z\255\226o0\240\012\004\307"
 1165      BB65037A 
 1165      AD966F30 
 1165      A00A04C7 
 1166 01bf 855EDE16 		.ascii	"\205^\336\026\376z\222\"\303\257\220\014\373!\271\212"
 1166      FE7A9222 
 1166      C3AF900C 
 1166      FB21B98A 
 1167 01cf 33AA0616 		.ascii	"3\252\006\026\341\000(\322\350z\221\206\277\340\321"
 1167      E10028D2 
 1167      E87A9186 
 1167      BFE0D1
 1168 01de AD44312E 		.ascii	"\255D1.\3708\260\250\265\301\212\267\362\030\204hM\212"
 1168      F838B0A8 
 1168      B5C18AB7 
 1168      F2188468 
 1168      4D8A
 1169 01f0 5E1BDA30 		.ascii	"^\033\3320\373#\006\277\321\032\247\265-\207\333\367"
 1169      FB2306BF 
 1169      D11AA7B5 
 1169      2D87DBF7 
 1170 0200 DB780508 		.ascii	"\333x\005\010'?4TW\330\215|\017\326\245|SX\272F\253"
 1170      273F3454 
 1170      57D88D7C 
 1170      0FD6A57C 
 1170      5358BA46 
 1171 0215 2A880F70 		.ascii	"*\210\017p\025Z&\310X\367\334A:8\010\311\014~'\357r"
 1171      155A26C8 
ARM GAS  C:\Users\AMANRA~1\AppData\Local\Temp\ccHOYdie.s 			page 94


 1171      58F7DC41 
 1171      3A3808C9 
 1171      0C7E27EF 
 1172 022a C48E18FC 		.ascii	"\304\216\030\374\001\012\034\002\205\321\003\347\353"
 1172      010A1C02 
 1172      85D103E7 
 1172      EB
 1173 0237 6F0E5673 		.ascii	"o\016Vs\336\251G\275s\253\36467\242\256\1770\363\327"
 1173      DEA947BD 
 1173      73ABF436 
 1173      37A2AE7F 
 1173      30F3D7
 1174 024a 50B15696 		.ascii	"P\261V\226o&\206\017OH\323\237\024\013\031\210\311$"
 1174      6F26860F 
 1174      4F48D39F 
 1174      140B1988 
 1174      C924
 1175 025c 5CCF5506 		.ascii	"\\\317U\006G(\013S\364\332\375\212\224\022'\203VZT\306"
 1175      47280B53 
 1175      F4DAFD8A 
 1175      94122783 
 1175      565A54C6 
 1176 0270 A4781453 		.ascii	"\244x\024S<\006J,a)\351\214\026|\3504\226\243\312g\342"
 1176      3C064A2C 
 1176      6129E98C 
 1176      167CE834 
 1176      96A3CA67 
 1177 0285 A8BF1239 		.ascii	"\250\277\0229j\243\274\217\307r\324\216\011\234 \216"
 1177      6AA3BC8F 
 1177      C772D48E 
 1177      099C208E 
 1178 0295 F081478A 		.ascii	"\360\201G\212$t\200\233\374\261\335\024\324\302\303"
 1178      2474809B 
 1178      FCB1DD14 
 1178      D4C2C3
 1179 02a4 AB909DA9 		.ascii	"\253\220\235\251\265\205\225\365\027\336{\031P\255f"
 1179      B58595F5 
 1179      17DE7B19 
 1179      50AD66
 1180 02b3 49F40917 		.ascii	"I\364\011\027z7\003\265\233\205\021\006\217\007\234"
 1180      7A3703B5 
 1180      9B851106 
 1180      8F079C
 1181 02c2 B103ADC6 		.ascii	"\261\003\255\3061\362\020/l\022\204\375\363@\"O\024"
 1181      31F2102F 
 1181      6C1284FD 
 1181      F340224F 
 1181      14
 1182 02d3 EF93C5FC 		.ascii	"\357\223\305\374\024\352\232\251\370\260L\023c\306>"
 1182      14EA9AA9 
 1182      F8B04C13 
 1182      63C63E
 1183 02e2 47D59D50 		.ascii	"G\325\235P\265 +A\001\235P\013\203\354\006\0244\365"
 1183      B5202B41 
 1183      019D500B 
 1183      83EC0614 
 1183      34F5
ARM GAS  C:\Users\AMANRA~1\AppData\Local\Temp\ccHOYdie.s 			page 95


 1184 02f4 D6EDCC21 		.ascii	"\326\355\314!\276\375\334\202i\373>;pL\245\363D\327"
 1184      BEFDDC82 
 1184      69FB3E3B 
 1184      704CA5F3 
 1184      44D7
 1185 0306 DFDE03AD 		.ascii	"\337\336\003\255-J\025T\346\3436\253\232(?\253\237\233"
 1185      2D4A1554 
 1185      E6E336AB 
 1185      9A283FAB 
 1185      9F9B
 1186 0318 E124F180 		.ascii	"\341$\361\200\313'W\235\356\2669\352\211\204$j\200S"
 1186      CB27579D 
 1186      EEB639EA 
 1186      8984246A 
 1186      8053
 1187 032a 50055F93 		.ascii	"P\005_\223\266\031t\200\203]\203\202\252\345\344\233"
 1187      B6197480 
 1187      835D8382 
 1187      AAE5E49B 
 1188 033a F247FF62 		.ascii	"\362G\377bb\327\251j.\346\366\323\234\025\347p\307("
 1188      62D7A96A 
 1188      2EE6F6D3 
 1188      9C15E770 
 1188      C728
 1189 034c 3074B7AA 		.ascii	"0t\267\252W\333'Sp\025\222\240\023c\374\015\005\227"
 1189      57DB2753 
 1189      701592A0 
 1189      1363FC0D 
 1189      0597
 1190 035e 0737345D 		.ascii	"\00774]\000\022\0300`U\3240\337n\334\376\300:}\233\264"
 1190      00121830 
 1190      6055D430 
 1190      DF6EDCFE 
 1190      C03A7D9B 
 1191 0373 51ABC0A8 		.ascii	"Q\253\300\2506J\244\376\312\036\315,K\030\3674L\027"
 1191      364AA4FE 
 1191      CA1ECD2C 
 1191      4B18F734 
 1191      4C17
 1192 0385 A90DF49D 		.ascii	"\251\015\364\235\354\222p\006\316\200,|18+N\314\357"
 1192      EC927006 
 1192      CE802C7C 
 1192      31382B4E 
 1192      CCEF
 1193 0397 9B433DF6 		.ascii	"\233C=\366\351;\014\264\235lo7l?e\023\350.B\3039\220"
 1193      E93B0CB4 
 1193      9D6C6F37 
 1193      6C3F6513 
 1193      E82E42C3 
 1194 03ad 29D58BD5 		.ascii	")\325\213\325\276\362%\"7\332Q\011v\026\036\327\310"
 1194      BEF22522 
 1194      37DA5109 
 1194      76161ED7 
 1194      C8
 1195 03be 5A1F145F 		.ascii	"Z\037\024_,m\336\271\224\264\350\347q\350\240\261\261"
 1195      2C6DDEB9 
 1195      94B4E8E7 
ARM GAS  C:\Users\AMANRA~1\AppData\Local\Temp\ccHOYdie.s 			page 96


 1195      71E8A0B1 
 1195      B1
 1196 03cf AF4BCD7B 		.ascii	"\257K\315{\254\241\274'\371\270\031]\234\207<\206L\371"
 1196      ACA1BC27 
 1196      F9B8195D 
 1196      9C873C86 
 1196      4CF9
 1197 03e1 B9E4E7B8 		.ascii	"\271\344\347\270\2418\362\227D\000*\034\202X\017\024"
 1197      A138F297 
 1197      44002A1C 
 1197      82580F14 
 1198 03f1 9D0D85B7 		.ascii	"\235\015\205\267\026*O\274\214r/\341V\273\015\251\225"
 1198      162A4FBC 
 1198      8C722FE1 
 1198      56BB0DA9 
 1198      95
 1199 0402 A09CFA5E 		.ascii	"\240\234\372^\320k\365p\325\2323-S\320\362\310O\215"
 1199      D06BF570 
 1199      D59A332D 
 1199      53D0F2C8 
 1199      4F8D
 1200 0414 9D32DF2B 		.ascii	"\2352\337+\211\032\0057\237m3\223tQ\211}\325\\\333\254"
 1200      891A0537 
 1200      9F6D3393 
 1200      7451897D 
 1200      D55CDBAC 
 1201 0428 4901FE1C 		.ascii	"I\001\376\034\\\230\260\313.\222Z\217P\227\301%\212"
 1201      5C98B0CB 
 1201      2E925A8F 
 1201      5097C125 
 1201      8A
 1202 0439 0FD1C5FE 		.ascii	"\017\321\305\376\216O\\\354x\270,\212\015\272\337\255"
 1202      8E4F5CEC 
 1202      78B82C8A 
 1202      0DBADFAD 
 1203 0449 AD37BA15 		.ascii	"\2557\272\025d\200\240\015x\343\230\341\012\012\200"
 1203      6480A00D 
 1203      78E398E1 
 1203      0A0A80
 1204 0458 C155E441 		.ascii	"\301U\344Al\375\2228!\316}\323\035\266\360\240\236\370"
 1204      6CFD9238 
 1204      21CE7DD3 
 1204      1DB6F0A0 
 1204      9EF8
 1205 046a 91AF1AD6 		.ascii	"\221\257\032\326\332\214\236\353\250\345\025\3069j\206"
 1205      DA8C9EEB 
 1205      A8E515C6 
 1205      396A86
 1206 0479 9ED8D4E1 		.ascii	"\236\330\324\341\032\321\006BA\233:\266\231\014\177"
 1206      1AD10642 
 1206      419B3AB6 
 1206      990C7F
 1207 0488 5D1B4A76 		.ascii	"]\033Jv[b]\304\334\002\302\305ur\361<\226\357\263\213"
 1207      5B625DC4 
 1207      DC02C2C5 
 1207      7572F13C 
 1207      96EFB38B 
ARM GAS  C:\Users\AMANRA~1\AppData\Local\Temp\ccHOYdie.s 			page 97


 1208 049c 7B568707 		.ascii	"{V\207\007\217CT\033\257/\233\325\306\311\212\202\011"
 1208      8F43541B 
 1208      AF2F9BD5 
 1208      C6C98A82 
 1208      09
 1209 04ad 5E7CA8D9 		.ascii	"^|\250\331\310^\376\013\353\327K\275\334K\234M\035["
 1209      C85EFE0B 
 1209      EBD74BBD 
 1209      DC4B9C4D 
 1209      1D5B
 1210 04bf F9041FB7 		.ascii	"\371\004\037\267\222\005\203\033\242\370\200\301\002"
 1210      9205831B 
 1210      A2F880C1 
 1210      02
 1211 04cc 186F64FB 		.ascii	"\030od\373\302\353\223\321\3651#\252\007i\242+\324]"
 1211      C2EB93D1 
 1211      F53123AA 
 1211      0769A22B 
 1211      D45D
 1212 04de 1752F49A 		.ascii	"\027R\364\232L\215\324\304s\250\211\277G5ab;\347\240"
 1212      4C8DD4C4 
 1212      73A889BF 
 1212      47356162 
 1212      3BE7A0
 1213 04f1 2604A0BD 		.ascii	"&\004\240\275\236\353\032\032\323\277\324.}\243\366"
 1213      9EEB1A1A 
 1213      D3BFD42E 
 1213      7DA3F6
 1214 0500 0AAB7E4D 		.ascii	"\012\253~M(\267\250\352\237\216\265\302\236QCb}\003"
 1214      28B7A8EA 
 1214      9F8EB5C2 
 1214      9E514362 
 1214      7D03
 1215 0512 3C5198A8 		.ascii	"<Q\230\250\272K\321\216m\242\035G}\251\350\353\346\230"
 1215      BA4BD18E 
 1215      6DA21D47 
 1215      7DA9E8EB 
 1215      E698
 1216 0524 763C11D1 		.ascii	"v<\021\321\216\341\215\227\232m#\235vStZ\277\350\264"
 1216      8EE18D97 
 1216      9A6D239D 
 1216      7653745A 
 1216      BFE8B4
 1217 0537 E8B6FA67 		.ascii	"\350\266\372g\264\255\316.\0211\030\212\272\260\242"
 1217      B4ADCE2E 
 1217      1131188A 
 1217      BAB0A2
 1218 0546 F8C7CD9D 		.ascii	"\370\307\315\235\325\306\026\342\261[\374\221\335\202"
 1218      D5C616E2 
 1218      B15BFC91 
 1218      DD82
 1219 0554 0717CE92 		.ascii	"\007\027\316\222]\240x\313y\243Y\022D[EX5\222U\202\310"
 1219      5DA078CB 
 1219      79A35912 
 1219      445B4558 
 1219      35925582 
 1220 0569 FD99EF3B 		.ascii	"\375\231\357;\030\300\202\2179l\242eqz\3262\343\336"
ARM GAS  C:\Users\AMANRA~1\AppData\Local\Temp\ccHOYdie.s 			page 98


 1220      18C0828F 
 1220      396CA265 
 1220      717AD632 
 1220      E3DE
 1221 057b 89B993EF 		.ascii	"\211\271\223\357W\2745\214\005\2775\301\245|{\364R\216"
 1221      57BC358C 
 1221      05BF35C1 
 1221      A57C7BF4 
 1221      528E
 1222 058d 5C0BD5A5 		.ascii	"\\\013\325\245\3407\333\000\351l0\366\316\270\203{\272"
 1222      E037DB00 
 1222      E96C30F6 
 1222      CEB8837B 
 1222      BA
 1223 059e 4B4ABA1B 		.ascii	"KJ\272\033\301\3638'\332\275qy\276\257\363\234$\266"
 1223      C1F33827 
 1223      DABD7179 
 1223      BEAFF39C 
 1223      24B6
 1224 05b0 A6D7DFC2 		.ascii	"\246\327\337\302\366\265\260\374 c\367 \021\311\223"
 1224      F6B5B0FC 
 1224      2063F720 
 1224      11C993
 1225 05bf B1F0096A 		.ascii	"\261\360\011j\367\361\206\220r\017\246!\3474\021\257"
 1225      F7F18690 
 1225      720FA621 
 1225      E73411AF 
 1226 05cf D6364D42 		.ascii	"\3266MB[\033\303\317P\020:\020\354s]\023\202c\311\320"
 1226      5B1BC3CF 
 1226      50103A10 
 1226      EC735D13 
 1226      8263C9D0 
 1227 05e3 E8D64D8A 		.ascii	"\350\326M\212~g\360\221\203\352\036`I\022IQv\011\007"
 1227      7E67F091 
 1227      83EA1E60 
 1227      49124951 
 1227      760907
 1228 05f6 58C56934 		.ascii	"X\305i4\260J\024\336\252_7\343\327\347\177\356Zx\200"
 1228      B04A14DE 
 1228      AA5F37E3 
 1228      D7E77FEE 
 1228      5A7880
 1229 0609 F5B93941 		.ascii	"\365\2719A}\326\015\314\002\343\233)\346\273`\020\277"
 1229      7DD60DCC 
 1229      02E39B29 
 1229      E6BB6010 
 1229      BF
 1230 061a 0BD0DFBF 		.ascii	"\013\320\337\277\261\337\005\017\221\331\241\247}\027"
 1230      B1DF050F 
 1230      91D9A1A7 
 1230      7D17
 1231 0628 0C8D7E17 		.ascii	"\014\215~\027\214\255\331\274JN\3510x\024[\263\307\350"
 1231      8CADD9BC 
 1231      4A4EE930 
 1231      78145BB3 
 1231      C7E8
 1232 063a 304C350B 		.ascii	"0L5\013O\334\033\303\343\326L\223Fj\366\340I_\\\355"
ARM GAS  C:\Users\AMANRA~1\AppData\Local\Temp\ccHOYdie.s 			page 99


 1232      4FDC1BC3 
 1232      E3D64C93 
 1232      466AF6E0 
 1232      495F5CED 
 1233 064e BCC4759A 		.ascii	"\274\304u\232\247\370\351,\236\314\372I\361\372\214"
 1233      A7F8E92C 
 1233      9ECCFA49 
 1233      F1FA8C
 1234 065d E07CB251 		.ascii	"\340|\262Q;,\032^\357\2004\243\313\231\251\251\016\374"
 1234      3B2C1A5E 
 1234      EF8034A3 
 1234      CB99A9A9 
 1234      0EFC
 1235 066f 732ECD58 		.ascii	"s.\315X\234\341\361\316}s\356\034\207\307\353X\272\350"
 1235      9CE1F1CE 
 1235      7D73EE1C 
 1235      87C7EB58 
 1235      BAE8
 1236 0681 538737DB 		.ascii	"S\2077\333I\377\323\227\345\272r]\336T'\343\236eY\322"
 1236      49FFD397 
 1236      E5BA725D 
 1236      DE5427E3 
 1236      9E6559D2 
 1237 0695 E22CC854 		.ascii	"\342,\310Ts2\334.On\016w/Z\3013?Y\231\362T\037\036/"
 1237      7332DC2E 
 1237      4F6E0E77 
 1237      2F5AC133 
 1237      3F5999F2 
 1238 06ad 3EB273C4 		.ascii	">\262s\304\377\324\245l|C\\\317\310t~\232\373\261\013"
 1238      FFD4A56C 
 1238      7C435CCF 
 1238      C8747E9A 
 1238      FBB10B
 1239 06c0 57BC2BBD 		.ascii	"W\274+\275h\250.^\344u}\220\235\361\372\270\000\247"
 1239      68A82E5E 
 1239      E4757D90 
 1239      9DF1FAB8 
 1239      00A7
 1240 06d2 C7EDF664 		.ascii	"\307\355\366d:\262<\3319^\307\374\017\027\244-X\201"
 1240      3AB23CD9 
 1240      395EC7FC 
 1240      0F17A42D 
 1240      5881
 1241 06e4 264E4FB6 		.ascii	"&NO\266+}\371\033n\204\313\037{2]i\023a]+r\010\351H"
 1241      2B7DF91B 
 1241      6E84CB1F 
 1241      7B325D69 
 1241      13615D2B 
 1242 06fc 5BB0F0FD 		.ascii	"[\260\360\375\205\2164\204:\336\037\311\301\355\315"
 1242      858E3484 
 1242      3ADE1FC9 
 1242      C1EDCD
 1243 070b F0A62F71 		.ascii	"\360\246/q:\321Q\374\202\205\037&Q.Y\331\031\263\223"
 1243      3AD151FC 
 1243      82851F26 
 1243      512E59D9 
 1243      19B393
ARM GAS  C:\Users\AMANRA~1\AppData\Local\Temp\ccHOYdie.s 			page 100


 1244 071e 92E73029 		.ascii	"\222\3470)\233\251n\227\333\223\275\222q\267w\011\317"
 1244      9BA96E97 
 1244      DB93BD92 
 1244      71B77709 
 1244      CF
 1245 072f 5996F51F 		.ascii	"Y\226\365\037G\205MR"
 1245      47854D52 
 1246              		.text
 1247              		.section	.gnu.lto_.symbol_nodes.29debcc4,"",%progbits
 1248 0000 789C5DD0 		.ascii	"x\234]\320\313J\303@\030\005\340\177\316$i\033{K/\340"
 1248      CB4AC340 
 1248      1805E07F 
 1248      CE24691B 
 1248      7B4B2FE0 
 1249 0014 42ECDE97 		.ascii	"B\354\336\227P\337\306\267\370\203\024\005\013\352C"
 1249      50DFC6B7 
 1249      F8831405 
 1249      0BEA43
