ARM GAS  C:\Users\AMANRA~1\AppData\Local\Temp\ccFdT4MI.s 			page 1


   1              		.cpu cortex-m4
   2              		.eabi_attribute 27, 1
   3              		.eabi_attribute 28, 1
   4              		.eabi_attribute 20, 1
   5              		.eabi_attribute 21, 1
   6              		.eabi_attribute 23, 3
   7              		.eabi_attribute 24, 1
   8              		.eabi_attribute 25, 1
   9              		.eabi_attribute 26, 1
  10              		.eabi_attribute 30, 2
  11              		.eabi_attribute 34, 1
  12              		.eabi_attribute 18, 4
  13              		.file	"hal_serial_lld.c"
  14              		.section	.gnu.lto_.profile.29debea5,"",%progbits
  15 0000 789C6363 		.ascii	"x\234cc```\003bF\206\327L\307\030\001\005\343\001\302"
  15      60606003 
  15      624686D7 
  15      4CC71801 
  15      05E301C2 
  16              		.text
  17              		.section	.gnu.lto_.icf.29debea5,"",%progbits
  18 0000 789C6363 		.ascii	"x\234cc``pb@\000n\206\226W+~02\336\337~\340>\033\323"
  18      60607062 
  18      40006E86 
  18      96572B7E 
  18      3032DEDF 
  19 0019 B4B5ED9D 		.ascii	"\264\265\355\235\314\314\037\247_Z\315\317\322\267w"
  19      CCCC1FA7 
  19      5F5ACDCF 
  19      D2B777
  20 0028 FA340ED6 		.ascii	"\3724\016\326\271?w\274\346f\2737\371g%\373\236\231"
  20      B93F77BC 
  20      E666BB37 
  20      F96725FB 
  20      9E99
  21 003a 33BEF273 		.ascii	"3\276\362s\314:\373p\015#\347\3467\0372\271\356\235"
  21      CC3AFB70 
  21      0D23E7E6 
  21      371F32B9 
  21      EE9D
  22 004c 78D2C9C5 		.ascii	"x\322\311\305\000\000A\001 \341"
  22      00004101 
  22      20E1
  23              		.text
  24              		.section	.gnu.lto_.jmpfuncs.29debea5,"",%progbits
  25 0000 789C8592 		.ascii	"x\234\205\222=K\003A\020\206gn\366>\222\013\230Z\256"
  25      3D4B0341 
  25      1086676E 
  25      F63E920B 
  25      985AAE
  26 0013 48959FE3 		.ascii	"H\225\237\343\377\261\272\203`e+\021\344\004\301_ ~"
  26      FFB1BA83 
  26      60652B11 
  26      E404C15F 
  26      207E
  27 0025 5EA24613 		.ascii	"^\242F\023+\025\002\012\212\330XX*XX(D\316\331\217\204"
  27      2B15020A 
ARM GAS  C:\Users\AMANRA~1\AppData\Local\Temp\ccFdT4MI.s 			page 2


  27      8AD85858 
  27      2A585828 
  27      44CED98F 
  28 003a BDCB6916 		.ascii	"\275\313i\026\246\330\331y\037f\336\035\017\000V\010"
  28      A6D8D979 
  28      1F66DE1D 
  28      0F005608 
  29 004a 66A7060E 		.ascii	"f\247\006\016\"\305)\001\007\362\001H\311q\254$\011"
  29      22C52901 
  29      07F20148 
  29      C971AC24 
  29      09
  30 005b 6A01025E 		.ascii	"j\001\002^\010\004\216\234\317\022\013\247\367\027V"
  30      08048E9C 
  30      CF120BA7 
  30      F71756
  31 006a 6D1076D7 		.ascii	"m\020v\327\206c\177\235R\342,\356c\304\251\301\303\344"
  31      86637F9D 
  31      52E22CEE 
  31      63C4A9C1 
  31      C3E4
  32 007c 91742A27 		.ascii	"\221t*'<\300H\362%T\002\241\010D\307f\270\3148\304H"
  32      3CC048F2 
  32      255402A1 
  32      0844C766 
  32      B8CC38C4 
  33 0091 05E7EF3E 		.ascii	"\005\347\357>n\267C\231\367\260\211G\030)iS\312\253"
  33      6EB74399 
  33      F7B08947 
  33      18296953 
  33      CAAB
  34 00a3 51B676AB 		.ascii	"Q\266v\253\377y\355jm\200\307F\033(\255C\011\375\337"
  34      FF79ED6A 
  34      6D80C746 
  34      1B28AD43 
  34      09FDDF
  35 00b6 87CF7D9C 		.ascii	"\207\317}\2340\207C8\253\345Z\373\216E\023\002\026f"
  35      30874338 
  35      ABE55AFB 
  35      8E451302 
  35      1666
  36 00c8 CA84FBCE 		.ascii	"\312\204\373\316\325\230t\212\213z\013A\371\037\366"
  36      D598748A 
  36      8B7A0B41 
  36      F91FF6
  37 00d7 D8336DBE 		.ascii	"\3303m\276\177/\353\221\022\201}3S\"\364Pev\334\022"
  37      7F2FEB91 
  37      12817D33 
  37      5322F450 
  37      6576DC12 
  38 00eb 9C95B2D7 		.ascii	"\234\225\262\327\336\356\215j\245\206m<5\262\266R\271"
  38      DEEE8D6A 
  38      A5866D3C 
  38      35B2B652 
  38      B9
  39 00fc 606AB2EC 		.ascii	"`j\262\354\355\331\217\177\222\200\277iG\271s\206\361"
  39      EDD98F7F 
ARM GAS  C:\Users\AMANRA~1\AppData\Local\Temp\ccFdT4MI.s 			page 3


  39      9280BF69 
  39      47B97386 
  39      F1
  40 010d 8C3899B7 		.ascii	"\2148\231\267Hn\3069\267\305\341\003x\325\214\301<c"
  40      486EC639 
  40      B7C5E103 
  40      78D58CC1 
  40      3C63
  41 011f 2A2AD856 		.ascii	"**\330V\227kf\032\223\265_j\202\0223\354*\346\245\305"
  41      976B661A 
  41      93B55F6A 
  41      821233EC 
  41      2AE6A5C5 
  42 0133 ACF8BA90 		.ascii	"\254\370\272\220QC\306s\004\366\206/\262_\336\005\226"
  42      5143C673 
  42      04F6862F 
  42      B25FDE05 
  42      96
  43 0144 EC911D74 		.ascii	"\354\221\035tFO{\201v\257\201#\363\334P\317u\263\327"
  43      464F7B81 
  43      76AF8123 
  43      F3DC50CF 
  43      75B3D7
  44 0157 00BF288B 		.ascii	"\000\277(\213\340\313"
  44      E0CB
  45              		.text
  46              		.section	.gnu.lto_.inline.29debea5,"",%progbits
  47 0000 789C7D52 		.ascii	"x\234}R=kTA\024=gf\366\275y\373\221<!1)\026w\273\304"
  47      3D6B5441 
  47      143D6766 
  47      F6BD79FB 
  47      913C2131 
  48 0019 462C53BE 		.ascii	"F,S\276_\220J\260\264\020\033\027+\177@FP\214$E\300"
  48      5F904AB0 
  48      B4101B17 
  48      2B7F4046 
  48      508C2445 
  49 002e 6015F095 		.ascii	"`\025\360\225\012)\024\023\315\252\225U\012\211\201"
  49      0A291413 
  49      CDAA9555 
  49      0A8981
  50 003d 80F8D16C 		.ascii	"\200\370\321la\261\210B\032\301\306\340\334y\037qA\362"
  50      61B18842 
  50      1AC1C6E0 
  50      DC791F71 
  50      41F2
  51 004f 8AB977DE 		.ascii	"\212\271w\3369w\346\334{&\002pE\243\376\022`q\221\011"
  51      3977E6DC 
  51      7B260270 
  51      45A3FE12 
  51      60719109 
  52 0063 FA373735 		.ascii	"\372775\177m~>\342\232\336\322m\272\374\2563|\301\256"
  52      7F6D7E3E 
  52      E29ADED2 
  52      6DBAFCAE 
  52      337CC1AE 
  53 0077 CE63F407 		.ascii	"\316c\364\007u&\264\207\017~\336IJ\332\023\241\355\324"
ARM GAS  C:\Users\AMANRA~1\AppData\Local\Temp\ccFdT4MI.s 			page 4


  53      7526B487 
  53      0F7EDE49 
  53      4ADA13A1 
  53      EDD4
  54 0089 B42A237C 		.ascii	"\264*#|\240\0040\365k?\254\227\303\232M\317\177Z#\354"
  54      A00430F5 
  54      6B3FAC97 
  54      C39A4DCF 
  54      7F5A23EC 
  55 009d EA8202C7 		.ascii	"\352\202\002\307q\246\320X]\310`\216g3\013~\327\216"
  55      71A6D058 
  55      5DC8608E 
  55      67330B7E 
  55      D78E
  56 00af 7DAB107F 		.ascii	"}\253\020\177\271&\011x\342\177\314\370\375\301u\037"
  56      B9260978 
  56      E27FCCF8 
  56      FDC1751F 
  57 00bf A5C02985 		.ascii	"\245\300)\205\316\376\015\027\252\235Q\320{s\316\204"
  57      CEFE0D17 
  57      AA9D51D0 
  57      7B73CE84 
  58 00cf 8D2D3656 		.ascii	"\215-6V:#\242\006\241\242\343K\210\362\236\222_\012"
  58      3A23A206 
  58      A1A2E34B 
  58      88F29E92 
  58      5F0A
  59 00e1 B35D2A11 		.ascii	"\263]*\021\001\221\010\231C\300.\354\037\321\010C\267"
  59      01910899 
  59      43C02EEC 
  59      1FD10843 
  59      B7
  60 00f2 3D6B6379 		.ascii	"=kcycY\343#\266IU\266\022\350\346\366\301I\013\255\361"
  60      6359E323 
  60      B64955B6 
  60      12E8E6F6 
  60      C1490BAD 
  61 0107 D570B329 		.ascii	"\325p\263)\326\177\252&\"\375\031m\177\377\267\213\023"
  61      D67FAA26 
  61      22FD196D 
  61      7FFFB78B 
  61      13
  62 0118 49413069 		.ascii	"IA0i \030\264g<2\365\354\326\251\304\226(o \232\363"
  62      2018B467 
  62      3C32F5EC 
  62      D6A9C496 
  62      286F209A 
  63 012d 40254FBA 		.ascii	"@%O\272i\326`\014\353;P\352p\272FM\247h\306b\376<\023"
  63      69D6600C 
  63      EB3B50EA 
  63      70BA464D 
  63      A768C662 
  64 0144 06971EDD 		.ascii	"\006\227\036\335{\367!\026\227Hp\227]\320\373#\021V"
  64      7BF72116 
  64      97487097 
  64      5DD0FB23 
  64      1156
ARM GAS  C:\Users\AMANRA~1\AppData\Local\Temp\ccFdT4MI.s 			page 5


  65 0156 E0DDFBEF 		.ascii	"\340\335\373\357\2377\005\356\220|\351m\313`\007e\022"
  65      9F3705EE 
  65      907CE96D 
  65      CB600765 
  65      12
  66 0167 EA87C31F 		.ascii	"\352\207\303\037_\343\225?\316ni\344r8_q\305\317m\360"
  66      5FE3953F 
  66      CE6E69E4 
  66      72385F71 
  66      C5CF6DF0 
  67 017b 5F6CCF63 		.ascii	"_l\317c\342\267?],\016\363\262~>h\214c\005\223\367N"
  67      E2B73F5D 
  67      2C0EF3B2 
  67      7E3E688C 
  67      630593F7 
  68 0190 EDF26E7B 		.ascii	"\355\362n{\273\314\250\345l\212\251u\233\245PyoDU\216"
  68      BBCCA8E5 
  68      6C8AA975 
  68      9BA55079 
  68      6F44558E 
  69 01a4 72C4D282 		.ascii	"r\304\322\2026\004\002\232\350X\306\205\354\267\217"
  69      3604029A 
  69      E858C685 
  69      ECB78F
  70 01b3 D79F96B2 		.ascii	"\327\237\226\262\025\207\225\354\341Y\262_\237!\373"
  70      158795EC 
  70      E159B25F 
  70      9F21FB
  71 01c2 8D60B5E2 		.ascii	"\215`\265\342\312\350DF\212\211\327\311\337\312Q,\017"
  71      CAE84446 
  71      8A89D7C9 
  71      DFCA512C 
  71      0F
  72 01d3 11D1E1B9 		.ascii	"\021\321\341\271\242\005eD\374R\345Q*\357\341/\210W"
  72      A2056544 
  72      FC52E551 
  72      2AEFE12F 
  72      8857
  73 01e5 9C12     		.ascii	"\234\022"
  74              		.text
  75              		.section	.gnu.lto_.pureconst.29debea5,"",%progbits
  76 0000 789C6363 		.ascii	"x\234cc``\020\001bN\006)F)&\011\346]\214,R\254\022\354"
  76      60601001 
  76      624E0629 
  76      46292609 
  76      E65D8C2C 
  77 0018 121C525C 		.ascii	"\022\034R\\R\000\024U\001\321"
  77      52001455 
  77      01D1
  78              		.text
  79              		.section	.gnu.lto_usart_init.29debea5,"",%progbits
  80 0000 789CA556 		.ascii	"x\234\245V[lTU\024=\373\236\373\234G\247@\011\257iB"
  80      5B6C5455 
  80      143DFB9E 
  80      FB9C47A7 
  80      4009AF69 
  81 0015 0258F861 		.ascii	"\002X\370a\004\015\211\237\032\3750\301\304\360\370"
ARM GAS  C:\Users\AMANRA~1\AppData\Local\Temp\ccFdT4MI.s 			page 6


  81      040D899F 
  81      1AFD30C1 
  81      C4F0F8
  82 0024 365240AA 		.ascii	"6R@\252\304\022\252&\372\303m\247L[@m\024J\030[\254"
  82      C412AA26 
  82      FAC36DA7 
  82      4C5B406D 
  82      144A185B 
  83 0039 52DE3694 		.ascii	"R\3366\224\360(T\220a\246\224\372\240P\300\332\202\202"
  83      F0285490 
  83      61A694FA 
  83      A050C0DA 
  83      8282
  84 004b F2183A03 		.ascii	"\362\030:\003\224\324\024yX;\356}\316\035Z\247DS\234"
  84      94D41479 
  84      583BEE7D 
  84      CE1D5AA7 
  84      44539C
  85 005e B47BCEB9 		.ascii	"\264{\316\271g\357u\326Zg\337{Gg\214\325\273\030[\210"
  85      67EF75D6 
  85      5A67DF7B 
  85      47678CD5 
  85      BB185B88 
  86 0072 DF15F80F 		.ascii	"\337\025\370\017\036\006Je\033c\305\246\242\250\207"
  86      1E064A65 
  86      1B63C5A6 
  86      A2A887
  87 0081 C631DBC5 		.ascii	"\3061\333\305;\3470\333\303\235\231&f*\3502IK\017t\305"
  87      3BE730DB 
  87      C39D9926 
  87      662AE832 
  87      494B0F74 
  88 0096 A8F4E3BA 		.ascii	"\250\364\343\272i\317\306u\003Ly\331T\254$\225\271\266"
  88      69CFC675 
  88      034C79D9 
  88      54AC2495 
  88      B9B6
  89 00a8 5199056E 		.ascii	"Q\231\005ny\331\225\036\270\001h`\233\300V)\\\325t\303"
  89      79D9951E 
  89      B8016860 
  89      9BC05629 
  89      5CD574C3 
  90 00bc B45C6E58 		.ascii	"\264\\nX\005\353\370z\016\321\262\370ae\306v\033?\221"
  90      05EBF87A 
  90      0ED1B2F8 
  90      6165C676 
  90      1B3F91
  91 00cf 8D9B8D1A 		.ascii	"\215\233\215\032\373\214\315\2539cU\370O\037\330\007"
  91      FB8CCDAB 
  91      396355F8 
  91      4F1FD807 
  92 00df 3330ADBD 		.ascii	"30\255\275\264\241\232\257\305\025\000\025\247\275\247"
  92      B4A19AAF 
  92      C5150015 
  92      A7BDA7
  93 00ee C257B368 		.ascii	"\302W\263h\252\300d\234^\335s\374\262\213\277\004\014"
  93      AAC0649C 
ARM GAS  C:\Users\AMANRA~1\AppData\Local\Temp\ccFdT4MI.s 			page 7


  93      5EDD73FC 
  93      B28BBF04 
  93      0C
  94 00ff C7F170F0 		.ascii	"\307\361p\360\000\344m\265\355\022;\322W\307\355\251"
  94      00E46DB5 
  94      ED123BD2 
  94      57C7EDA9 
  95 010f D59CC341 		.ascii	"\325\234\303A\340\010\010\007\300\017\373\301\317\360"
  95      E0080807 
  95      C00FFBC1 
  95      CFF0
  96 011d 128346C8 		.ascii	"\022\203F\310\303\364\304\300\236\033*\177Y\224\036"
  96      C3F4C4C0 
  96      9E1B2A7F 
  96      59941E
  97 012c BCF5798B 		.ascii	"\274\365y\213\333)\355\337.JU8\224Y\25228\014y\224\277"
  97      DB29EDDF 
  97      2E4A5538 
  97      9459AA32 
  97      380C7994 
  98 0141 2379B99F 		.ascii	"#y\271\237\363WE\355\305D\357\003\317\264-\242\266\255"
  98      F35745ED 
  98      C544EF03 
  98      CFB42DA2 
  98      B6AD
  99 0153 26E7CBA0 		.ascii	"&\347\313\240\335j\253\325\\\203\246\177\326\323\007"
  99      DD6AABD5 
  99      5C83A67F 
  99      D6D307
 100 0162 D3EFEEDF 		.ascii	"\323\357\356\337\324\354\343\363D\351\2353\003kL\247"
 100      D4ECE3F3 
 100      44E99D33 
 100      036B4CA7 
 101 0172 B4A566FC 		.ascii	"\264\245f\374\027N\251\016G\036[ze\357\300\006\257\256"
 101      174EA90E 
 101      471E5B7A 
 101      65EFC006 
 101      AFAE
 102 0184 C2519806 		.ascii	"\302Q\230\006_\3034\351\024|\003:\003\306\224\364\345"
 102      5FC334E9 
 102      147C033A 
 102      03C694F4 
 102      E5
 103 0195 3D67B588 		.ascii	"=g\265\210=\220*\263#\003\376\217c-\273\224\351\200"
 103      3D902AB3 
 103      2303FE8F 
 103      632DBB94 
 103      E980
 104 01a7 DC0D8502 		.ascii	"\334\015\205\002\247\240R\320(\350\024\014\014\246\211"
 104      A7A052D0 
 104      28E8140C 
 104      0CA689
 105 01b6 C1B268EA 		.ascii	"\301\262h\352\242\340\246\340\241\005/\205,\232\372"
 105      A2E0A6E0 
 105      A1052F85 
 105      2C9AFA
 106 01c5 68944D61 		.ascii	"h\224Ma\024MG\323h\014\215r\030m=V\304\361@\356N`Dd"
ARM GAS  C:\Users\AMANRA~1\AppData\Local\Temp\ccFdT4MI.s 			page 8


 106      144D47D3 
 106      680C8D72 
 106      186D3D56 
 106      C4F140EE 
 107 01dd 22905D93 		.ascii	"\"\220]\223\304u\277\210\271\"N\241\242\251\024\362"
 107      C475BF88 
 107      B9224EA1 
 107      A2A914F2 
 108 01ed 0883B172 		.ascii	"\010\203\261r\324\201\215bGX\005Wh\024\214\260$\224"
 108      D4818D62 
 108      47580557 
 108      68148CB0 
 108      2494
 109 01ff 3425BA62 		.ascii	"4%\272b.\222\027\346\023P}\325\352\350i\203N\236\013"
 109      2E9217E6 
 109      13507DD5 
 109      EAE86983 
 109      4E9E0B
 110 0212 EF8E444F 		.ascii	"\357\216DO\265\350\265\260\271\030\373\2476N\022]a>"
 110      B5E8B5B0 
 110      B918FBA7 
 110      364E125D 
 110      613E
 111 0224 1E8E915D 		.ascii	"\036\216\221]\270|\276\254\363\222;PO\3355\231\016#"
 111      B87CBEAC 
 111      F3923B50 
 111      4FDD3599 
 111      0E23
 112 0236 02B5B041 		.ascii	"\002\265\260At\026\034\207\000\213CI\355. pb\212\033"
 112      74161C87 
 112      008B4349 
 112      ED2E2070 
 112      628A1B
 113 0249 B0EB507A 		.ascii	"\260\353Pz!\326S\343\031\334\360\356\372\256s@\033j"
 113      21D653E3 
 113      19DCF0EE 
 113      FAAE7340 
 113      1B6A
 114 025b 60D796DA 		.ascii	"`\327\226\332*D\235\243\250\300&\352\234\203$EM\037"
 114      2A449DA3 
 114      A8C026EA 
 114      9C832445 
 114      4D1F
 115 026d 1F2CF9B4 		.ascii	"\037,\371\264\342v\261\345\224\354\240\222\330\243\022"
 115      E276B1E5 
 115      94ECA092 
 115      D8A312
 116 027c 95DDCA73 		.ascii	"\225\335\312st\355L8%0T\226:L\026\022w\207\371Dhv4\365"
 116      74ED4C38 
 116      25305496 
 116      3A4C1612 
 116      7787F944 
 117 0294 AEFDA413 		.ascii	"\256\375\244\023PS\245X\362\300\011\241\011HS\013jJ"
 117      5053A558 
 117      F2C009A1 
 117      0948530B 
 117      6A4A
ARM GAS  C:\Users\AMANRA~1\AppData\Local\Temp\ccFdT4MI.s 			page 9


 118 02a6 42B021D4 		.ascii	"B\260!\324eIhE\242\237H\335\213\370\010\335\000\005"
 118      65496845 
 118      A29F48DD 
 118      8BF808DD 
 118      0005
 119 02b8 4E220E26 		.ascii	"N\"\016&U\205\036h2\211c\036&]\353M\3563e\222\37504"
 119      55851E68 
 119      3289631E 
 119      265DEB4D 
 119      EE336592 
 120 02cf 1D5A655E 		.ascii	"\035Ze^Ch\223\303\323/R\201\\\233,<;J\236\371\205.\215"
 120      436893C3 
 120      D32F5281 
 120      5C9B2C3C 
 120      3B4A9EF9 
 121 02e6 D53D953E 		.ascii	"\325=\225>\257\2331\237,PG\250\344\333A%\337e*\321\020"
 121      AF9B319F 
 121      2C5047A8 
 121      E4DB4125 
 121      DF652AD1 
 122 02fb 6E38755A 		.ascii	"n8uZ@\240\215\225e\3535\207\372\321`\016|\237I}\222"
 122      40A08D95 
 122      65EB3587 
 122      FAD1600E 
 122      7C9F497D 
 123 0310 485533A8 		.ascii	"HU3\250O\022\324u\247\327\342\2400y=G\352x\260\305\220"
 123      4F12D475 
 123      A7D7E2A0 
 123      30793D47 
 123      EA78B0C5 
 124 0325 D5C68874 		.ascii	"\325\306\210tx\341\007\241C!\035\247\204\216\222\337"
 124      78E107A1 
 124      43211DA7 
 124      848E92DF 
 125 0335 CBDE9750 		.ascii	"\313\336\227P&\242Q\303\264\305\236u.\014=|\013\030"
 125      26A251C3 
 125      B4C59E75 
 125      2E0C3D7C 
 125      0B18
 126 0347 B4C95EF9 		.ascii	"\264\311^\371\003r\320[\265\351a+ Q-\371\00125X\245"
 126      0372D05B 
 126      B5E9612B 
 126      20512DF9 
 126      01323558 
 127 035c 5F981CEC 		.ascii	"_\230\034\354\017\325\037\253\003\211`!aj\365\322\272"
 127      0FD51FAB 
 127      03896021 
 127      616AF5D2 
 127      BA
 128 036d 4B96F4E0 		.ascii	"K\226\364\340~*\225\362\301iiB\370\221YxgXi\013\373"
 128      7E2A95F2 
 128      C1696942 
 128      F8915978 
 128      6758690B 
 129 0382 43871D63 		.ascii	"C\207\035c\335\262\274o\315\352{\\\226\033pF&\335\177"
 129      DDB2BC6F 
 129      CDEA7B5C 
ARM GAS  C:\Users\AMANRA~1\AppData\Local\Temp\ccFdT4MI.s 			page 10


 129      961B7046 
 129      26DD7F
 130 0395 E45FAEA8 		.ascii	"\344_\256\250vg\370\227+\3743\207\3717\026\213\243U"
 130      7667F897 
 130      2BFC3387 
 130      F937168B 
 130      A355
 131 03a7 89FE984E 		.ascii	"\211\376\230N\271C\005j\303o\332\321\325<\013o\033h"
 131      B943056A 
 131      C36FDAD1 
 131      D53C0B6F 
 131      1B68
 132 03b9 77CCEC68 		.ascii	"w\314\354hlj\364\242\231\245\305d\246\017\316\0123\305"
 132      6C6AF4A2 
 132      99A5C564 
 132      A60FCE0A 
 132      33C5
 133 03cb 33EE1C04 		.ascii	"3\356\034\004$8\036N*\375P\360\214\360p\316\013<\225"
 133      24381E4E 
 133      2AFD50F0 
 133      8CF070CE 
 133      0B3C95
 134 03de F07E944D 		.ascii	"\360~\224Mv?T\341\034\264W\3025\366\354n\364\022]\023"
 134      763F54E1 
 134      1CB457C2 
 134      35F6EC6E 
 134      F4125D13 
 135 03f2 220C3A84 		.ascii	"\"\014:\204\031x\204\216\337\310\326K\002\317\257\331"
 135      1978848E 
 135      DFC8D64B 
 135      02CFAFD9 
 136 0402 C91D7D23 		.ascii	"\311\035}#\022\364\223 \240\021\201N\022\224%\005\225"
 136      12F49320 
 136      A011814E 
 136      12942505 
 136      95
 137 0413 9F7004F9 		.ascii	"\237p\004\371F(\250K\340\351\204w!SP\266\204\333\337"
 137      4628A84B 
 137      E0E98477 
 137      215350B6 
 137      84DBDF
 138 0426 7C32644A 		.ascii	"|2dJA\000\0273\364\214\302\264\377\243\347g\261\277"
 138      41001733 
 138      F48CC2B4 
 138      FFA3E767 
 138      B1BF
 139 0438 41FBFF42 		.ascii	"A\373\377BzFI\012\365\355\335N\363\214\226wP\313\246"
 139      7A46490A 
 139      F5EDDD4E 
 139      F38C9677 
 139      50CBA6
 140 044b F2233E49 		.ascii	"\362#>I\342\253(\203K\0314\306`\242\244Q\323\276\354"
 140      E2AB2883 
 140      4B1934C6 
 140      60A2A451 
 140      D3BEEC
 141 045e 49785C16 		.ascii	"Ix\\\026<L\342\361+\361\030Ch}\335\353\266\352O\202"
ARM GAS  C:\Users\AMANRA~1\AppData\Local\Temp\ccFdT4MI.s 			page 11


 141      3C4CE2F1 
 141      2BF11843 
 141      687DDDEB 
 141      B6EA4F82 
 142 0472 F69B40B3 		.ascii	"\366\233@\263\010\355\012\004\206\366\260\017o\322\253"
 142      08ED0A04 
 142      86F6B00F 
 142      6FD2AB
 143 0481 827CB429 		.ascii	"\202|\264)\361\341\022\311~J&\376\233\354?6\2706\270"
 143      F1E112C9 
 143      7E4A26FE 
 143      9BEC3F36 
 143      B836B8
 144 0494 C175716C 		.ascii	"\301uql\210\366\221\2036u\304hq\201\346\"\264\033\262"
 144      88F69183 
 144      3675C468 
 144      7181E622 
 144      B41BB2
 145 04a7 09FA7516 		.ascii	"\011\372u\026\346y\322\372\342\336\335\307=\322z{:t"
 145      E679D2FA 
 145      E2DEDDC7 
 145      3DD27A7B 
 145      3A74
 146 04b9 23867867 		.ascii	"#\206xgu\354t\336s\364C\350\257\216\233\315\340\344"
 146      75EC74DE 
 146      73F443E8 
 146      AF8E9BCD 
 146      E0E4
 147 04cb 9890483F 		.ascii	"\230\220H?\205\306\342\343\201\220r\215\013\003\255"
 147      85C6E2E3 
 147      8190728D 
 147      0B03AD
 148 04da 80B7BBC5 		.ascii	"\200\267\273\305\222\343\344\223\276\257\373\263\255"
 148      92E3E493 
 148      BEAFFBB3 
 148      AD
 149 04e7 AEC779BB 		.ascii	"\256\307y\273\350\337_\303\331\220\024l\335\304\366"
 149      E8DF5FC3 
 149      D990146C 
 149      DDC4F6
 150 04f6 A630F7CF 		.ascii	"\2460\367\317\326\3701\321\033\331\220bp\013\344K\305"
 150      D6F831D1 
 150      1BD99062 
 150      700BE44B 
 150      C5
 151 0507 C5B6CD49 		.ascii	"\305\266\315Io\265\371\011\267\272=\270U\217\330\352"
 151      6FB5F909 
 151      B7BA3DB8 
 151      558FD8EA 
 152 0517 5CB0F934 		.ascii	"\\\260\3714w\266\002\270\343l\345v\036b=\370\213`\313"
 152      77B602B8 
 152      E36CE576 
 152      1E623DF8 
 152      8B60CB
 153 052a 06D192E2 		.ascii	"\006\321\222\342\215]\216\257#\\\301g\371\0133g\006"
 153      8D5D8EAF 
 153      235CC167 
ARM GAS  C:\Users\AMANRA~1\AppData\Local\Temp\ccFdT4MI.s 			page 12


 153      F90B3367 
 153      06
 154 053b F02F7F59 		.ascii	"\360/\177Y\301\242\202\302\242Y\317\315z:PX\024X\366"
 154      C1A282C2 
 154      A259CFCD 
 154      7A3A5058 
 154      1458F6
 155 054e FAF2C08A 		.ascii	"\372\362\300\212\302\225\357\024\005\346/x\345\231\331"
 155      C295EF14 
 155      05E62F78 
 155      E599D9
 156 055d 81B9735F 		.ascii	"\201\271s_\014,\234\377\374\274\005\357\315\242\265"
 156      0C2C9CFF 
 156      FCBC05EF 
 156      CDA2B5
 157 056c D78A96AC 		.ascii	"\327\212\226\254,\300\257\345\313\027\317\314g\274h"
 157      2CC0AFE5 
 157      CB17CFCC 
 157      67BC68
 158 057b F10A3DBF 		.ascii	"\361\012=\277\360\355\245\005o\300\273|i\376[\177\003"
 158      F0EDA505 
 158      6FC0BB7C 
 158      69FE5B7F 
 158      03
 159 058c F4998E2C 		.ascii	"\364\231\216,"
 160              		.text
 161              		.section	.gnu.lto_notify2.29debea5,"",%progbits
 162 0000 789C9551 		.ascii	"x\234\225Q;K\\A\030\375\316\314\335\2736&?@\013\013"
 162      3B4B5C41 
 162      18FDCECC 
 162      DDBB3626 
 162      3F400B0B 
 163 0014 416C76DC 		.ascii	"Alv\334X\245T\024\033C\300G-\306\010.,\254q\305\326"
 163      58A55414 
 163      1B43C047 
 163      2DC6082E 
 163      2CAC71C5 
 164 0029 D987BA9A 		.ascii	"\331\207\272\232\024\026\256\342z\325-\014!E\022E\023"
 164      1416AEE2 
 164      7AD52D0C 
 164      21451245 
 164      13
 165 003a 1FD178D9 		.ascii	"\037\321x\331.\276\022EH\031\214\240\030\242DL\241\010"
 165      2EBE1245 
 165      48198CA0 
 165      18A2444C 
 165      A108
 166 004c 9A6FEE16 		.ascii	"\232o\356\026\326\016\363\370\276\2313\347\234o\306"
 166      D60EF3F8 
 166      BE9933E7 
 166      9C6FC6
 167 005b 26A21C88 		.ascii	"&\242\034\210\352x-\342\001I\020\303;D\261\002\001\230"
 167      EA782DE2 
 167      014910C3 
 167      3B44B102 
 167      0198
 168 006d 4017807A 		.ascii	"@\027\200z\005z\361J\216H\344\006\216\226E\371\033\315"
ARM GAS  C:\Users\AMANRA~1\AppData\Local\Temp\ccFdT4MI.s 			page 13


 168      057AF14A 
 168      8E48E406 
 168      8E9645F9 
 168      1BCD
 169 007f CD1DFBFB 		.ascii	"\315\035\373\373pR\177\327\322\221D\243<L\303<\312\031"
 169      70527FD7 
 169      D29144A3 
 169      3C4CC33C 
 169      CA19
 170 0091 B69B9C75 		.ascii	"\266\233\234u\344K>\001,N\317\2673\207\017L*P\302\351"
 170      E44B3E01 
 170      2C4ECFB7 
 170      33870F4C 
 170      2A50C2E9 
 171 00a5 BF9F1371 		.ascii	"\277\237\023q!kA\034\377x\377u\335_\366Z\353\270v\267"
 171      216B411C 
 171      FF78FF75 
 171      DD5FF65A 
 171      EBB876B7 
 172 00b9 66A42E75 		.ascii	"f\244.u\244\304'H&\304G\024c\001\305\304[\204E\224\031"
 172      A4C42748 
 172      26C44714 
 172      6301C5C4 
 172      5B844594 
 173 00ce FCAFB99B 		.ascii	"\374\257\271\233t\241m\345\005\261\004\233\330=}\330"
 173      74A16DE5 
 173      05B1049B 
 173      D83D7DD8 
 174 00de F3B9FAE6 		.ascii	"\363\271\372\346v@\273\177fp\365\324\007\276c\0113\021"
 174      7640BB7F 
 174      6670F5D4 
 174      07BE6309 
 174      3311
 175 00f0 A518C985 		.ascii	"\245\030\311\205h\227\006\2450Q\302\245\337\310\255"
 175      689706A5 
 175      3051C2A5 
 175      DFC8AD
 176 00ff 9C5C1FFB 		.ascii	"\234\\\037\373\015AF\202yG\373r\337\374\306\242\317"
 176      0D414682 
 176      7947FB72 
 176      DFFCC6A2 
 176      CF
 177 0110 B3F5363D 		.ascii	"\263\3656=\276\351\313\247:\025\323\246\210\304\325"
 177      BEE9CBA7 
 177      3A15D3A6 
 177      88C4D5
 178 011f C68195C5 		.ascii	"\306\201\225\305T\214k/q\244\215\025\266\267\314\366"
 178      548C6B2F 
 178      71A48D15 
 178      B6B7CCF6 
 179 012f 0C3E33B5 		.ascii	"\014>3\265\271a\253w:\011G\372\361\031Y\244\275\027"
 179      B961AB77 
 179      3A0947FA 
 179      F11959A4 
 179      BD17
 180 0141 C12A14AB 		.ascii	"\301*\024\253%.\373\221\327\022y\271\331\325\344\251"
 180      252EFB91 
ARM GAS  C:\Users\AMANRA~1\AppData\Local\Temp\ccFdT4MI.s 			page 14


 180      D71279B9 
 180      D9D5E4A9 
 181 0151 F722165C 		.ascii	"\367\"\026\\`\215Y\330\322\376\220\007\272\237\326\227"
 181      608D59D8 
 181      D2FE9007 
 181      BA9FD697 
 182 0161 3BAD7528 		.ascii	";\255u(\026\2403\304\263\027\323\036\225\367')\011S"
 182      16A033C4 
 182      B317D31E 
 182      95F72729 
 182      0953
 183 0173 B620AA0E 		.ascii	"\266 \252\016\004\024\367\266\216\320\263P$\032|\034"
 183      0414F7B6 
 183      8ED0B350 
 183      241A7C1C 
 184 0183 AC5091A8 		.ascii	"\254P\221\250\352h\015\253\316HWwT56=\251|\244\352\353"
 184      EA680DAB 
 184      CE485777 
 184      5435363D 
 184      A97CA4EA 
 185 0198 6B547363 		.ascii	"kTscUCSO\320\234\265D\333\273B\274\204\303\317\003m"
 185      5543534F 
 185      D09CB544 
 185      DBBB42BC 
 185      84C3CF03 
 186 01ad 245E74FE 		.ascii	"$^t\376\007\025W\250/"
 186      071557A8 
 186      2F
 187              		.text
 188              		.section	.gnu.lto_set_error.29debea5,"",%progbits
 189 0000 789C7594 		.ascii	"x\234u\224]lTE\024\307\347\314\334\257\275w[W\343\003"
 189      5D6C5445 
 189      14C7E7CC 
 189      DCAFBD77 
 189      5B57E303 
 190 0014 1A1E9A28 		.ascii	"\032\036\232(Y \246\327\352\223\217\032}0\251\211\221"
 190      5920A6D7 
 190      EA938F1A 
 190      7D30A989 
 190      91
 191 0025 FAE48341 		.ascii	"\372\344\203A@\333\244I\233\336\306\327\035\332\342"
 191      40DBA449 
 191      9BDEC6D7 
 191      1DDAE2
 192 0034 B60A8AD1 		.ascii	"\266\012\212\321\356\222\315\255V\221\240)X\020K\331"
 192      EE92CDAD 
 192      5691A029 
 192      58104BD9 
 193 0044 52E5B648 		.ascii	"R\345\266H\005m\351\207\037\020*\265\201\260\032\334"
 193      056DE987 
 193      1F102AB5 
 193      81B01ADC 
 194 0054 5489D8E2 		.ascii	"T\211\330\342F\213gf\356mkVovg\356\234s\346\177~\367"
 194      468B6766 
 194      EE6D6B56 
 194      6F7667EE 
 194      9C73E67F 
ARM GAS  C:\Users\AMANRA~1\AppData\Local\Temp\ccFdT4MI.s 			page 15


 195 006a CC874108 		.ascii	"\314\207A\010)\351\204\264a\237\302?8\004\350\336\363"
 195      29E984B4 
 195      619FC23F 
 195      3804E8DE 
 195      F3
 196 007b 84ECB428 		.ascii	"\204\354\264(e\235I\302mM\264q\006\2322kT\227fC\232"
 196      659D49C2 
 196      6D4DB471 
 196      069A326B 
 196      54976643 
 197 0090 753094D9 		.ascii	"u0\224\331\240\2464[\322l\202\245\314\026\215\355\333"
 197      A0A6345B 
 197      D26C82A5 
 197      CC168DED 
 197      DB
 198 00a1 8C66FBD6 		.ascii	"\214f\373\326}h\216\201\255\3146\200x\341\026\220\024"
 198      7D688E81 
 198      ADCC3680 
 198      78E11690 
 198      14
 199 00b2 659A6E98 		.ascii	"e\232n\230V\314\206\024\354fo3\030M\027\362t\323A\216"
 199      56CC8614 
 199      EC666F33 
 199      184D17F2 
 199      74D3418E 
 200 00c6 4F90CD39 		.ascii	"O\220\3159=|\2123\237\021\222\301\277x\340\030l\302"
 200      3D7C8A33 
 200      9F1192C1 
 200      BF78E018 
 200      6CC2
 201 00d8 B0E98E23 		.ascii	"\260\351\216#>{\015=\000\032\016oL\344\256V\212!\205"
 201      3E7B0D3D 
 201      001A0E6F 
 201      4CE4AE56 
 201      8A2185
 202 00eb 2A1C5EED 		.ascii	"*\034^\355\037\371\321fO\000\301\367B\256}\000\222\007"
 202      1FF9D166 
 202      4F00C1F7 
 202      42AE7D00 
 202      9207
 203 00fd 386FE341 		.ascii	"8o\343A\361\003\306\357\367\031\203\343\300P\020\006"
 203      F103C6EF 
 203      F71983E3 
 203      C0501006 
 204 010d 603D7C0A 		.ascii	"`=|\012\353\011\232\010\014B\022\303\317\334^\012\356"
 204      EB099A08 
 204      0C4212C3 
 204      CFDC5E0A 
 204      EE
 205 011e 50C21487 		.ascii	"P\302\024\2073\277\215\3678J8\201\303\023<\270\242\261"
 205      33BF8DF7 
 205      384A3881 
 205      C3133CB8 
 205      A2B1
 206 0130 27A5F0E4 		.ascii	"'\245\360\344\265\017\337\320B\341\0372\214\337\355"
 206      B50FDFD0 
 206      42E11F32 
ARM GAS  C:\Users\AMANRA~1\AppData\Local\Temp\ccFdT4MI.s 			page 16


 206      8CDFED
 207 013f 330D8694 		.ascii	"3\015\206\224p\036\205OHa\215\300IH\212\370\213\331"
 207      701E854F 
 207      48618DC0 
 207      49488AF8 
 207      8BD9
 208 0151 CB3326AB 		.ascii	"\3133&\253\225s\247\373\366^r6\354\227s\027\017%\336"
 208      9573A7FB 
 208      F65E7236 
 208      EC977317 
 208      0F25DE
 209 0164 6FE767B9 		.ascii	"o\347g\271\3463\035\206\377\015&\036\014\277rt\271\273"
 209      E6331D86 
 209      FF0D261E 
 209      0CBF7274 
 209      B9BB
 210 0176 C2D0E033 		.ascii	"\302\320\3403\330\240\012\001\237\203A\000{a\352\237"
 210      D8A00A01 
 210      9F834100 
 210      7B61EA9F 
 211 0186 D103BE7C 		.ascii	"\321\003\276|;\315\203\205\007~\275y\363\256;\001\363"
 211      3BCD8385 
 211      077EBD79 
 211      F3AE3B01 
 211      F3
 212 0197 1A94081F 		.ascii	"\032\224\010\037\223\255&[]\266\006:M\023\004\225%^"
 212      93AD265B 
 212      5DB6063A 
 212      4D130495 
 212      255E
 213 01a9 63D26ACB 		.ascii	"c\322j\313\326\221m\034D-*\2053!\032B:1'.\031\017H\027"
 213      D6916D1C 
 213      442D2A85 
 213      33211A42 
 213      3A31272E 
 214 01c1 A3E2AD3D 		.ascii	"\243\342\255= \005h\353=\231\331(H\304$\244\314\354"
 214      200568EB 
 214      3D99D928 
 214      48C424A4 
 214      CCEC
 215 01d3 1A9D3445 		.ascii	"\032\2354E\255t p\012\351\257C\373_\006\3111#\307L\364"
 215      AD742070 
 215      0AE9AF43 
 215      FB5F06C9 
 215      3123C74C 
 216 01e8 BF5ABAF0 		.ascii	"\277Z\272\360\272%\374\032X\020\240\377\032t\314\236"
 216      BA25FC1A 
 216      5810A0FF 
 216      1A74CC9E 
 217 01f8 1E3B1C17 		.ascii	"\036;\034\027\032\030\205!\375\305\374\237\025\"\304"
 217      1A188521 
 217      FDC5FC9F 
 217      1522C4
 218 0207 448991B0 		.ascii	"D\211\221\260\000]\270:\235\3110\345O\231{\326\244\374"
 218      005DB83A 
 218      9DC930E5 
 218      4F997BD6 
ARM GAS  C:\Users\AMANRA~1\AppData\Local\Temp\ccFdT4MI.s 			page 17


 218      A4FC
 219 0219 FD809FB5 		.ascii	"\375\200\237\265TJ\0160*'ta\315#DU\204\034BG,\226b\031"
 219      544A0E30 
 219      2A277461 
 219      CD234455 
 219      841C4247 
 220 0231 488F1FB5 		.ascii	"H\217\037\265\025\013\300\351\210\345\373\210\305\212"
 220      150BC0E9 
 220      88E5FB88 
 220      C58A
 221 023f 922F0215 		.ascii	"\222/\002\025\237B/\035\033\241B\237\015\035?\007\230"
 221      9F422F1D 
 221      1BA1429F 
 221      0D1D3F07 
 221      98
 222 0250 425744A8 		.ascii	"BWD\250z\353\225\201\347\324\244\030\346Y\273\027-\250"
 222      7AEB9581 
 222      E7D4A418 
 222      E659BB17 
 222      2DA8
 223 0262 822F5006 		.ascii	"\202/P\006\261\253\"f\214\222\210F\031\"[A\254T\210"
 223      B1AB2266 
 223      8C928846 
 223      19225B41 
 223      AC5488
 224 0275 C3EFEEFE 		.ascii	"\303\357\356\376(D\244p&B,D\210\225\253\210\014\023"
 224      2844A470 
 224      26422C44 
 224      8895AB88 
 224      0C13
 225 0287 6B3831A6 		.ascii	"k81\246\227\024\235\271\206\356\273\220\316\306\024"
 225      97149DB9 
 225      86EEBB90 
 225      CEC614
 226 0296 A83AB8D0 		.ascii	"\250:\270\3207X\241\350\002\002cex\266\304\263\312\360"
 226      3758A1E8 
 226      02026365 
 226      78B6C4B3 
 226      CAF0
 227 02a8 B415BC84 		.ascii	"\264\025\274\204\302\033\231\377\344\206\243\3604\370"
 227      C21B99FF 
 227      E486A3F0 
 227      34F8
 228 02b6 32C25B8C 		.ascii	"2\302[\214\360\022\253x\032f\026\023mshP\342\305\310"
 228      F012AB78 
 228      1A661613 
 228      6D736850 
 228      E2C5C8
 229 02c9 BECD11DE 		.ascii	"\276\315\021\336\037!\236\203)P\365\343\237O\371\266"
 229      1F219E83 
 229      2950F5E3 
 229      9F4FF9B6 
 230 02d9 C2E314CE 		.ascii	"\302\343\024\316\226\3419\022\317.\303\323Q\255\255"
 230      96E13912 
 230      CF2EC3D3 
 230      51ADAD
 231 02e8 94DE7339 		.ascii	"\224\336s9L\017k\367#\223gnxtb\314\350\205wv\342\325"
ARM GAS  C:\Users\AMANRA~1\AppData\Local\Temp\ccFdT4MI.s 			page 18


 231      4C0F6BF7 
 231      2393676E 
 231      787462CC 
 231      E8857776 
 232 02fe 52E58BD5 		.ascii	"R\345\213\325\212\3039\301\210\276o\323\027\347\034"
 232      8AC339C1 
 232      88BE6FD3 
 232      17E71C
 233 030d F730572E 		.ascii	"\3670W.\033\276\202^\350f\341\351\353\233\270>g\244"
 233      1BBE825E 
 233      E866E1E9 
 233      EB9BB83E 
 233      67A4
 234 031f FE0E9D06 		.ascii	"\376\016\235\006|\015.\236\274qH\255\260aP\317\205\371"
 234      7C0D2E9E 
 234      BC7148AD 
 234      B06150CF 
 234      85F9
 235 0331 628C3D2D 		.ascii	"b\214=-3\035\311-q+<\335\013\207\356}/<\335\006L\224"
 235      331DC92D 
 235      712B3CDD 
 235      0B87EE7D 
 235      2F3CDD06 
 236 0347 9F6E382F 		.ascii	"\237n8/\360A\356\355\375Y\026\252u\347\012\353X\235"
 236      F041EEED 
 236      FD5916AA 
 236      75E70AEB 
 236      589D
 237 0359 147B7336 		.ascii	"\024{s67WQ.\246\303\344\177\210M\251Z\024a\327\374/"
 237      3757512E 
 237      A6C3E47F 
 237      884DA95A 
 237      1461D7FC 
 238 036e 7B9697D6 		.ascii	"{\226\227\326\255\334\035\035\362B}k\312\021!\"\247"
 238      ADDC1D1D 
 238      F2427D6B 
 238      CA112122 
 238      A7
 239 037f BC4232AA 		.ascii	"\274B2\2522\341\365B`\032\313<#n\026\321\240#\237/\316"
 239      32E1F542 
 239      601ACB3C 
 239      236E16D1 
 239      A0239F2F 
 240 0394 9AF8E596 		.ascii	"\232\370\345\226\317\234\014^\201\323\302\367\015~8"
 240      CF9C0C5E 
 240      81D3C2F7 
 240      0D7E38
 241 03a3 12631E9F 		.ascii	"\022c\036\237\305W\227Gh\256\216\246\304h\001\277\351"
 241      C5579747 
 241      68AE8EA6 
 241      C46801BF 
 241      E9
 242 03b4 6016E465 		.ascii	"`\026\344e%w\202\216\213l\341d'V\022;\241\023\323\343"
 242      2577828E 
 242      8B6CE164 
 242      2756123B 
 242      A113D3E3 
ARM GAS  C:\Users\AMANRA~1\AppData\Local\Temp\ccFdT4MI.s 			page 19


 243 03c8 4252421E 		.ascii	"BRB\036\253\256v\361\267\255\276\341\205\206&\257\346"
 243      ABAE76F1 
 243      B7ADBEE1 
 243      858626AF 
 243      E6
 244 03d9 919A07DD 		.ascii	"\221\232\007\335&\317\255\337\332\35067\265\264z\356"
 244      26CFADDF 
 244      DAE83637 
 244      B5B47AEE 
 245 03e9 96BAA71E 		.ascii	"\226\272\247\036~\310\255\255}\334}v\313\243\317\324"
 245      7EC8ADAD 
 245      7DDC7D76 
 245      CBA3CFD4 
 246 03f9 BD5C237C 		.ascii	"\275\\#|\317{;Z\032\260kl\334^\275\2150o{3\365Z\230"
 246      CF7B3B5A 
 246      1AB06B6C 
 246      DC5EBD8D 
 246      306F7B33 
 247 0410 D7EAB11D 		.ascii	"\327\352\261\035^\263\376b\343\326\227\274\215\377\253"
 247      5EB3FE62 
 247      E3D697BC 
 247      8DFFAB
 248 041f DBE461D3 		.ascii	"\333\344a\323\322*\373\352z\362\017\026 \010\365"
 248      D22AFBEA 
 248      7AF20F16 
 248      2008F5
 249              		.text
 250              		.section	.gnu.lto_serve_interrupt.29debea5,"",%progbits
 251 0000 789C9D59 		.ascii	"x\234\235YkPTG\026\356\323=\357\031f\006\344-\311b6"
 251      6B505447 
 251      16EED33D 
 251      EF196606 
 251      E42DC962 
 252 0015 84E85A0E 		.ascii	"\204\350Z\016\346\345\356\217Tm\326\335\037\251\212"
 252      E6E5EE8F 
 252      546DD6DD 
 252      1FA98A
 253 0024 5B29CDFE 		.ascii	"[)\315\376N)1\221*\015\026\230TR\371\341\010\0324\306"
 253      4E293191 
 253      2A0D1698 
 253      5452F9E1 
 253      081A34C6 
 254 0038 ACC6083A 		.ascii	"\254\306\010:\031G\324\230h\242\202\306D\001\005\304"
 254      1947D498 
 254      68A282C6 
 254      440105C4 
 255 0048 47C4C467 		.ascii	"G\304\304g\224\250\370VP\024\211\257H\360\001{N\367"
 255      94A8F856 
 255      501489AF 
 255      48F0017B 
 255      4EF7
 256 005a 9DCBC03C 		.ascii	"\235\313\300<XBI{o\237\356\357t\237\307w\272/&\306\230"
 256      5842497B 
 256      6F9FEEEF 
 256      749FC777 
 256      BA2F26C6 
 257 006f E531C6FE 		.ascii	"\3451\306\376\015\214M\304_\310`\300\027\036dl\226\205"
ARM GAS  C:\Users\AMANRA~1\AppData\Local\Temp\ccFdT4MI.s 			page 20


 257      0D8C4DC4 
 257      5FC860C0 
 257      171E646C 
 257      9685
 258 0081 7371398D 		.ascii	"sq9\215ym\206\365\3171\257C\200Au\033\300\246\036\214"
 258      796D86F5 
 258      CF31AF43 
 258      8041751B 
 258      C0A61E8C 
 259 0095 DC24E566 		.ascii	"\334$\345f)7\201Yu\233\271Ev[e\267\005\254\252\333\252"
 259      29378159 
 259      759BB945 
 259      765B65B7 
 259      05ACAADB 
 260 00aa A6EDB4D8 		.ascii	"\246\355\264\330\270qK\003\303\001\366\323v\034`\347"
 260      B8714B03 
 260      C301F6D3 
 260      761C60E7 
 261 00ba 8EB9D9F8 		.ascii	"\216\271\331\370\026O\255\303\301\343\344\344x99\216"
 261      164FADC3 
 261      C1E3E4E4 
 261      7839398E 
 262 00ca 3BBBDCF8 		.ascii	";\273\334\370\346*{\021\337\234\340VP\256\340\203\033"
 262      E62A7B11 
 262      DF9CE056 
 262      50AEE083 
 262      1B
 263 00db E2D5433C 		.ascii	"\342\325C<O\220 i\022$\201\017\011y\033\302\023\267"
 263      4F902069 
 263      1224810F 
 263      09791BC2 
 263      13B7
 264 00ed A5E05BD2 		.ascii	"\245\340[\322\211\027\360-\221'KY\222\224%A\262\002"
 264      8917F02D 
 264      91274B59 
 264      92942541 
 264      B202
 265 00ff 48E62952 		.ascii	"H\346)Ro\252\324\233\002\251\252;\025\322\324C\032O"
 265      6FAAD49B 
 265      02A9AA3B 
 265      15D2D443 
 265      1A4F
 266 0111 3FD7488B 		.ascii	"?\327H\213\036\272\311\200\003\322a\250\352\037\012"
 266      1EBAC980 
 266      03D261A8 
 266      EA1F0A
 267 0120 400F5E0B 		.ascii	"@\017^\013\260\231\\\030\214&\263\305j\263;\342\234"
 267      B0995C18 
 267      8C26B3C5 
 267      6AB33BE2 
 267      9C
 268 0131 2E777CC2 		.ascii	".w|\302\220\304\244\344\224\324\264\364\2410\223\333"
 268      90C4A4E4 
 268      94D4B4F4 
 268      A13093DB 
 269 0141 98F6F3B1 		.ascii	"\230\366\363\261\370L@CIk\025\037\376\225\027\177\352"
 269      F84C4043 
ARM GAS  C:\Users\AMANRA~1\AppData\Local\Temp\ccFdT4MI.s 			page 21


 269      496B151F 
 269      FE95177F 
 269      EA
 270 0152 CB6EDA97 		.ascii	"\313n\332\227{\017{\205_0V*\324 \370\026\206\343\260"
 270      7B0F7B85 
 270      5F30562A 
 270      D420F816 
 270      86E3B0
 271 0165 23B32BFD 		.ascii	"#\263+\375b>J\000\014\370z\353\200\357\222\223^9d\342"
 271      623E4A00 
 271      0CF87AEB 
 271      80EF9293 
 271      5E3964E2 
 272 0179 EBA58A9D 		.ascii	"\353\245\212\235\347l\342_\300\360\271\325W\374\035"
 272      E76CE25F 
 272      C0F0B9D5 
 272      57FC1D
 273 0188 64AFF17A 		.ascii	"d\257\361z\213\274\365\247\327\010\357\223~!\340{\020"
 273      8BBCF5A7 
 273      D708EF93 
 273      7E21E07B 
 273      10
 274 0199 0808DF41 		.ascii	"\010\010\337A\006lA\277b\027\203\255\220M\343\367\364"
 274      066C41BF 
 274      621783AD 
 274      904DE3F7 
 274      F4
 275 01aa 74D6BB14 		.ascii	"t\326\273\0242\307\327\2437\177ZnW\310n|\335\346\255"
 275      32C7D7A3 
 275      377F5A6E 
 275      57C86E7C 
 275      DDE6AD
 276 01bd BF68102F 		.ascii	"\277h\020/K\344}\233\017\371\315Y\253%\362\331\212\324"
 276      4BE47D9B 
 276      0FF9CD59 
 276      AB25F2D9 
 276      8AD4
 277 01cf 45C5DEB5 		.ascii	"E\305\336\265^\203_\030\240Z\241W!\3726D\247\037\034"
 277      5E835F18 
 277      A05AA157 
 277      21FA3644 
 277      A71F1C
 278 01e2 BE63C9A9 		.ascii	"\276c\311\251\007\006\361\212\234\3322'p\306\242M=\352"
 278      0706F18A 
 278      9CDA3227 
 278      70C6A24D 
 278      3DEA
 279 01f4 59E6AD2F 		.ascii	"Y\346\255/\312\244\211\333#N\\{\355\334C!^\225\023\233"
 279      CAA489DB 
 279      234E5C7B 
 279      EDDC4321 
 279      5E95139B 
 280 0208 DB6E7539 		.ascii	"\333nu9\264\211\007+\022W\025{\367\221N#\324\366\335"
 280      B489072B 
 280      1257157B 
 280      F7914E23 
 280      D4F6DD
ARM GAS  C:\Users\AMANRA~1\AppData\Local\Temp\ccFdT4MI.s 			page 22


 281 021b 9136F5E2 		.ascii	"\2216\365\342\246\356%q&\003\324A\026\354\300\337\032"
 281      A6EE2571 
 281      2603D441 
 281      16ECC0DF 
 281      1A
 282 022c C8529684 		.ascii	"\310R\226\204z0\321\366\374\037~\335\"\304x\211]\273"
 282      7A30D1F6 
 282      FC1F7EDD 
 282      22C47889 
 282      5DBB
 283 023e B8BCCE10 		.ascii	"\270\274\316\020\304\256J\237U\354]J\330&\330\251\260"
 283      C4AE4A9F 
 283      55EC5D4A 
 283      D826D8A9 
 283      B0
 284 024f 9FCD809C 		.ascii	"\237\315\200\2340\344\006D$0\204\334\005&\024\234\232"
 284      30E40644 
 284      243084DC 
 284      0526149C 
 284      9A
 285 0260 75EA3D02 		.ascii	"u\352=\002A\377uW'\257\324\026h\016\202DY\340n\035F"
 285      41FF7557 
 285      27AFD416 
 285      680E8244 
 285      59E06E1D 
 286 0275 EF9C2D31 		.ascii	"\357\234-1\366n\2671\330\003\246R\001\375EW|\231\037"
 286      F66EB731 
 286      D803A652 
 286      01FD4557 
 286      7C991F
 287 0288 E732D84B 		.ascii	"\3472\330KB\336_x}\305\223S\031\374@2\321_vg\375_\327"
 287      42DE5F78 
 287      7DC59353 
 287      19FC4032 
 287      D15F7667 
 288 029f E152F691 		.ascii	"\341R\366\221\320@\3025\373\217\326\331\305\031\220"
 288      D040C235 
 288      FB8FD6D9 
 288      C51990
 289 02ae 2AD66D5C 		.ascii	"*\326m\\\2714h\342\246\200X\277\305\353\235\367w\277"
 289      B93468E2 
 289      A68058BF 
 289      C5EB9DF7 
 289      77BF
 290 02c0 B0C0FE18 		.ascii	"\260\300\376\030;P\300\035\001\214\255\037i+\215\204"
 290      3B50C01D 
 290      018CAD1F 
 290      692B8D84 
 291 02d0 6D0CD921 		.ascii	"m\014\331!\203\237\300\004\007p\207\324 \235(\247\240"
 291      839FC004 
 291      077087D4 
 291      209D28A7 
 291      A0
 292 02e1 43C884B4 		.ascii	"C\310\204\264\377\212\243\306zowO\011\306\275\273\342"
 292      FF8AA3C6 
 292      7A6F774F 
 292      09C6BDBB 
ARM GAS  C:\Users\AMANRA~1\AppData\Local\Temp\ccFdT4MI.s 			page 23


 292      E2
 293 02f2 70DB99EC 		.ascii	"p\333\231\354\261\200\201i\345\324\240Z\034i\300G\233"
 293      B1808169 
 293      E5D4A05A 
 293      1C69C047 
 293      9B
 294 0303 111BBB89 		.ascii	"\021\033\273\211:\315\3308,\324X\351\325FR;6q\016\032"
 294      3ACDD838 
 294      2CD458E9 
 294      D546523B 
 294      36710E1A 
 295 0317 12477D4E 		.ascii	"\022G}Nj\\$pc\343\214\247&\201^\207`\343J\244qI4$\031"
 295      6A5C2470 
 295      63E38CA7 
 295      26815E87 
 295      60E34AA4 
 296 0330 1B770A36 		.ascii	"\033w\0126\361\251\330$\244Iu\351\3708$\013(1\236b\264"
 296      F1A9D824 
 296      A44975E9 
 296      F838240B 
 296      28319E62 
 297 0345 DA6CD93D 		.ascii	"\332l\331=\034\273\023GP3\222\321\272G\321c\0165\243"
 297      1CBB1347 
 297      503392D1 
 297      BA47D163 
 297      0E35A3
 298 0358 A9799ED1 		.ascii	"\251y\236\321\206\306\310\241\214\315\305`;m\367\326"
 298      86C6C8A1 
 298      8CCDC560 
 298      3B6DF7D6 
 299 0368 B379E8A2 		.ascii	"\263y\350\242\323\366\342zv\015\212\252\333\272\366"
 299      D3F6E27A 
 299      760D8AAA 
 299      DBBAF6
 300 0377 D8C8DB3E 		.ascii	"\330\310\333>\361\024Z\250tN\303!3\245\230r\361\366"
 300      F1145AA8 
 300      744EC321 
 300      33A59872 
 300      F1F6
 301 0389 86037B4D 		.ascii	"\206\003{M\345\020\230\205\026-o%\033$\371D\026\034"
 301      E5109885 
 301      162D6F25 
 301      1B24F944 
 301      161C
 302 039b 2493A3F8 		.ascii	"$\223\243\370X\311\211\263v\317\006\262w&\005\376!("
 302      58C989B3 
 302      76CF06B2 
 302      772605FE 
 302      2128
 303 03ad 8725921C 		.ascii	"\207%\222\034\3400xX+\024\225\177\015\004N+F\005\250"
 303      E0307858 
 303      2B14957F 
 303      0D044E2B 
 303      4605A8
 304 03c0 B0A1BAED 		.ascii	"\260\241\272\355~\213\246\020B\025\032\303\024\"d2N"
 304      7E8BA610 
 304      42151AC3 
ARM GAS  C:\Users\AMANRA~1\AppData\Local\Temp\ccFdT4MI.s 			page 24


 304      14226432 
 304      4E
 305 03d1 82239AB6 		.ascii	"\202#\232\266\246\255\325[\343P\333\354Y$J\201\243R"
 305      A6ADD55B 
 305      E350DBEC 
 305      59244A81 
 305      A352
 306 03e3 1B90B69F 		.ascii	"\033\220\266\2375m\005R\031f\027\016\277r\275f\352\007"
 306      356D0552 
 306      1966170E 
 306      BF72BD66 
 306      EA07
 307 03f5 5DDADA0C 		.ascii	"]\332\332\014\250M\3064\034\203\017\3242\036\004\367"
 307      A84DC634 
 307      1C830FD4 
 307      321E04F7 
 308 0405 CD07A9F7 		.ascii	"\315\007\251\367\270\324\313Io\023\352E#\336.i\024\012"
 308      B8D4CB49 
 308      6F13EA45 
 308      23DE2E69 
 308      140A
 309 0417 2B1BE168 		.ascii	"+\033\341h%\231r!5\264\353l\034Q\374\360\303\033\347"
 309      25997221 
 309      35B4EB6C 
 309      1C51FCF0 
 309      C31BE7
 310 042a A6A82106 		.ascii	"\246\250!\006\245q\343\325:\277\2156n\005/\207_PW\013"
 310      A571E3D5 
 310      3ABF8D36 
 310      6E052F87 
 310      5F50570B 
 311 043e CC6EDEF5 		.ascii	"\314n\336\365\2346\010GT\264Wu\305\321\010\03308\241"
 311      9C360847 
 311      54B45775 
 311      C5D1081B 
 311      3038A1
 312 0451 45F93C4C 		.ascii	"E\371<L\241_\005\372\256\025x\377\014\351\\\377\364"
 312      A15F05FA 
 312      AE1578FF 
 312      0CE95CFF 
 312      F4
 313 0462 E7C5F317 		.ascii	"\347\305\363\027x\313\213\334Qr\004NJ\323\224\264yw"
 313      78CB8BDC 
 313      5172044E 
 313      4AD394B4 
 313      7977
 314 0474 1808D902 		.ascii	"\030\010\331\002\231p\012e\327\241\350\342\326@\365"
 314      99700A65 
 314      D7A1E8E2 
 314      D640F5
 315 0483 39E89744 		.ascii	"9\350\227De\335v\243\344\202Ra\012O\371\347>\302\224"
 315      65DD76A3 
 315      E4825261 
 315      0A4FF9E7 
 315      3EC294
 316 0496 6F26A139 		.ascii	"o&\2419<\345G\34618M2Kx\312\217\\\213\353:CBk\177\341"
 316      3CE547E6 
ARM GAS  C:\Users\AMANRA~1\AppData\Local\Temp\ccFdT4MI.s 			page 25


 316      31384D32 
 316      4B78CA8F 
 316      5C8BEB3A 
 317 04af 5124FB93 		.ascii	"Q$\373\223\224\265g\303\263\366\034\232\364<\371\360"
 317      94B567C3 
 317      B3F61C9A 
 317      F43CF9F0 
 318 04bf 3C652DB0 		.ascii	"<e-\260ud\307U+6\377n\033V\315Wx\227\242wRi\302\206"
 318      7564C755 
 318      2B36FF6E 
 318      1B56CD57 
 318      7897A277 
 319 04d7 4B355E8B 		.ascii	"K5^\213\001\035\004\027`\230t\341\315\366c\315\034{"
 319      011D0417 
 319      609874E1 
 319      CDF663CD 
 319      1C7B
 320 04e9 E02218E4 		.ascii	"\340\"\030\344\206\031\\\222\305jm\355\256\026\307\260"
 320      86195C92 
 320      C56A6DED 
 320      AE16C7B0 
 321 04f9 1DDAEC34 		.ascii	"\035\332\3544\032{{\343\346\343v9\3732\315\206\0260"
 321      1A7B7BE3 
 321      E6E37639 
 321      FB32CD86 
 321      1630
 322 050b 488F4AE3 		.ascii	"H\217J\3431r\367\375\222\212r\277Q9\312\030\036<1R$"
 322      3172F7FD 
 322      928A72BF 
 322      5139CA18 
 322      1E3C3152 
 323 0520 1D5A65F0 		.ascii	"\035Ze\360\010\305W\337\034\270v\3264\363\221&\264\303"
 323      08C557DF 
 323      1CB876D6 
 323      34F39126 
 323      B4C3
 324 0532 150C2706 		.ascii	"\025\014'\006Wa\246\036B8h\371/\347\333\255b\017\227"
 324      5761A61E 
 324      423868F9 
 324      2FE7DBAD 
 324      620F97
 325 0545 F951E9EB 		.ascii	"\371Q\351\353\364\006\213\325\336\212\364 \245\333\241"
 325      F4068BD5 
 325      DE8AF420 
 325      A5DBA1
 326 0554 2D82B3AF 		.ascii	"-\202\263\257Q\370\031eb\254V\353E\204%\276\326T\321"
 326      51F81965 
 326      62AC56EB 
 326      458425BE 
 326      D654D1
 327 0567 A8D01635 		.ascii	"\250\320\0265\373\316\306\205\243\015\205\353\021\320"
 327      FBCEC685 
 327      A30D85EB 
 327      11D0
 328 0575 DA65E894 		.ascii	"\332e\350\224\335\350J\327\242\326\0007P\326\016s\316"
 328      DDE84AD7 
 328      A2D60037 
ARM GAS  C:\Users\AMANRA~1\AppData\Local\Temp\ccFdT4MI.s 			page 26


 328      50D60E73 
 328      CE
 329 0586 7FBBA0BB 		.ascii	"\177\273\240\2733\265\177\350,t\032i\016\255B\013!["
 329      33B57FE8 
 329      2C741A69 
 329      0EAD420B 
 329      215B
 330 0598 1F6F76A0 		.ascii	"\037ov\240\023\177%oR\203\202\252\252\366f3\032\303"
 330      137F256F 
 330      528382AA 
 330      AAF66633 
 330      1AC3
 331 05aa E21719A5 		.ascii	"\342\027\031\245\270\243\016\222\335D[\340\036H\223"
 331      B8A30E92 
 331      DD445BE0 
 331      1E4893
 332 05b9 5F3CD69B 		.ascii	"_<\326\233Y\004\332\373\326\256\034\323p\367\352\274"
 332      5904DAFB 
 332      D6AE1CD3 
 332      70F7EABC 
 333 05c9 2B266D9F 		.ascii	"+&m\237}\250+}\200\224\276\325\233\322\267\301\203\003"
 333      7DA82B7D 
 333      8094BED5 
 333      9BD2B7C1 
 333      8303
 334 05db 4E5EA9DC 		.ascii	"N^\251\334$\217\032)\320\363\250\247\307\005wpf\344"
 334      248F1A29 
 334      D0F3A8A7 
 334      C7057770 
 334      66E4
 335 05ed 940B0C90 		.ascii	"\224\013\014\220rw\245\335t\236\3033\030\374\026+\345"
 335      7277A5DD 
 335      749EC333 
 335      18FC162B 
 335      E5
 336 05fe 3E730653 		.ascii	">s\006S.Z\225\275\027\243\312v\306\252\262\277\353U"
 336      2E5A95BD 
 336      17A3CA76 
 336      C6AAB2BF 
 336      EB55
 337 0610 3654782D 		.ascii	"6Tx- h\221\014\272\302S\356>Z\367\0019\342AH\312u\257"
 337      2068910C 
 337      BAC253EE 
 337      3E5AF701 
 337      39E24148 
 338 0627 B8506B0F 		.ascii	"\270Pk\017f\323o2\233\036\312l\352\237:\217\364\324"
 338      66D36F32 
 338      9B1ECA6C 
 338      EA9F3A8F 
 338      F4D4
 339 0639 217CC95E 		.ascii	"!|\311^\006Uy\"\230\262\351\363\330\365\035\2721\230"
 339      06557922 
 339      98B2E9F3 
 339      D8F51DBA 
 339      3198
 340 064b 6291D562 		.ascii	"b\221\325b\2773\032W]B\256B\270\236\030\\\345\3451\270"
 340      BF331A57 
ARM GAS  C:\Users\AMANRA~1\AppData\Local\Temp\ccFdT4MI.s 			page 27


 340      5D42AE42 
 340      B89E185C 
 340      E5E531B8 
 341 065f 6A168FC6 		.ascii	"j\026\217\306U\335d\270\"\036f\270bn\202\331\034\015"
 341      55DD64B8 
 341      221E66B8 
 341      626E82D9 
 341      1C0D
 342 0671 878D6EB8 		.ascii	"\207\215n\270\01044\207G2\334\207<h\270\356\240\341"
 342      08343487 
 342      4732DC87 
 342      3C68B8EE 
 342      A0E1
 343 0683 8C0CEF23 		.ascii	"\214\014\357#\262f\027?4aN\214\360\2114\234\271\376"
 343      B266173F 
 343      34614E8C 
 343      F089349C 
 343      B9FE
 344 0695 CB5BEA88 		.ascii	"\313[\352\210l\000\027\224p\255\212\224m\373\304Ag@"
 344      6C001794 
 344      70AD8A94 
 344      6DFBC441 
 344      6740
 345 06a7 1C165A48 		.ascii	"\034\026ZH\022q%sy\260\220\230\330oI\010\210\011\\\336"
 345      12712573 
 345      79B09098 
 345      D86F4908 
 345      88095CDE 
 346 06bb E937D3F0 		.ascii	"\3517\323\360~i\370x\251p\340b\346q\312A\244\2224\277"
 346      7E69F878 
 346      A970E062 
 346      E671CA41 
 346      A49234BF 
 347 06cf F8939C69 		.ascii	"\370\223\234i\326\327\202u4p\305\246T\365\317\272\201"
 347      D6D78275 
 347      3470C5A6 
 347      54F5CFBA 
 347      81
 348 06e0 EAE8479C 		.ascii	"\352\350G\234\222\316@\256\235\317\265:\272L(,3\302"
 348      92CE40AE 
 348      9DCFB53A 
 348      BA4C282C 
 348      33C2
 349 06f2 C9E349E3 		.ascii	"\311\343I\343\213\252\3032(\2365\301\307\022\334H\340"
 349      8BAAC332 
 349      289E35C1 
 349      C712DC48 
 349      E0
 350 0703 0B243896 		.ascii	"\013$8\226\340\367\025\324\363\022\336\242\350\003{"
 350      E0F715D4 
 350      F312DEA2 
 350      E8037B
 351 0712 E88C84BD 		.ascii	"\350\214\204\275\272e\207+\313\352E\322\200E\362\223"
 351      BA65872B 
 351      CBEA45D2 
 351      8045F293 
 352 0722 A065BBAB 		.ascii	"\240e\273\253r\024\312\360\020KZz-\271zy$Kf\226\212"
ARM GAS  C:\Users\AMANRA~1\AppData\Local\Temp\ccFdT4MI.s 			page 28


 352      7214CAF0 
 352      104B5A7A 
 352      2DB97A79 
 352      244B6696 
 353 0737 385CC97F 		.ascii	"8\\\311\177\203\226|\336/\206\311\231\326PK\256C\362"
 353      83967CDE 
 353      2F86C999 
 353      D6504BAE 
 353      43F2
 354 0749 92D8D641 		.ascii	"\222\330\326AZr!\327\351kQ\320\222\3634K\216A\270\336"
 354      5A7221D7 
 354      E96B51D0 
 354      92F3344B 
 354      8E41B8DE 
 355 075d ADCA13C9 		.ascii	"\255\312\023\311\030\251\332\306\360N\250\245\242\352"
 355      18A9DAC6 
 355      F04EA8A5 
 355      A2EA
 356 076b 4FD34D90 		.ascii	"O\323M\220\243LP\326\374\363\011\2232\201\007>\325M"
 356      A34C50D6 
 356      FCF30993 
 356      3281073E 
 356      D54D
 357 077d B0ED1955 		.ascii	"\260\355\031U\373r\202&\270\007ix\3161\334\257\275\000"
 357      FB728226 
 357      B8076978 
 357      CE31DCAF 
 357      BD00
 358 078f 886EADBE 		.ascii	"\210n\255\276\266\023P\201=j\252\377\037\254\271\230"
 358      B6135081 
 358      3D6AAAFF 
 358      1FACB998 
 359 079f 67C5A4C9 		.ascii	"g\305\244\311\305M\316h,y\011Y\022\341>\343\321Yr\011"
 359      C54DCE68 
 359      2C790959 
 359      12E13EE3 
 359      D1597209 
 360 07b3 8FC192A5 		.ascii	"\217\301\222\245<\032K\342\242\030\224\205'\373R\314"
 360      3C1A4BE2 
 360      A2189485 
 360      27FB52CC 
 361 07c3 F16594EC 		.ascii	"\361e\224\354\313xL\226\364EL\366\317"
 361      CB784C96 
 361      F4454CF6 
 361      CF
 362 07d0 F564277C 		.ascii	"\365d'|\025\252\025\333\226g(#\333\3249\371\373\326"
 362      15AA15DB 
 362      96672823 
 362      DBD439F9 
 362      FBD6
 363 07e2 C6BDC1E3 		.ascii	"\306\275\301\343\"\200\237\367=.\332\202\347\303{ \320"
 363      22809FF7 
 363      3D2EDA82 
 363      E7C37B20 
 363      D0
 364 07f3 7536F2AF 		.ascii	"u6\362\257\203u\030C\370b\264O\320\235\376\316\032\177"
 364      83751843 
ARM GAS  C:\Users\AMANRA~1\AppData\Local\Temp\ccFdT4MI.s 			page 29


 364      F862B44F 
 364      D09DFECE 
 364      1A7F
 365 0805 9945B914 		.ascii	"\231E\271\024q\226\007q\036j\347\327\321!Q\035\307:"
 365      71960771 
 365      1E6AE7D7 
 365      D121511D 
 365      C73A
 366 0817 E10F1F34 		.ascii	"\341\017\0374\003<6Y\227\335\2442\267'\326\311r\005"
 366      033C3659 
 366      97DDA432 
 366      B727D6C9 
 366      7205
 367 0829 8FCED6E5 		.ascii	"\217\316\326\345\261\330zeT\266\016\220\003W\205;p5"
 367      B1D87A65 
 367      54B60E90 
 367      0357853B 
 367      7035
 368 083b FAED0B72 		.ascii	"\372\355\013r\340\027\261\331zMD\007~\251;0\300\365"
 368      E017B1D9 
 368      7A4D4407 
 368      7EA93B30 
 368      C0F5
 369 084d 13E2E5E5 		.ascii	"\023\342\345\345i\264=\237\260\367?\214l\036\340\036"
 369      69B43D9F 
 369      B0F73F8C 
 369      6C1EE01E 
 370 085d F5047C25 		.ascii	"\365\004|%\363\331\024vH,\177\023o\224\260\226\323)"
 370      F3D91476 
 370      482C7F13 
 370      6F94B096 
 370      D329
 371 086f 711D7249 		.ascii	"q\035rI;\314.\177\\i\031\331\227p\376\\*\2348\350kI"
 371      3BCC2E7F 
 371      5C6919D9 
 371      9770FE5C 
 371      2A9C38E8 
 372 0885 3876BF78 		.ascii	"8v\277xRQ\000\016\245k\"\016'\267\037\334\325T\223\323"
 372      5251000E 
 372      A56B220E 
 372      27B71FDC 
 372      D55493D3 
 373 0899 3B5D3FA2 		.ascii	";]?\242\230\321\004\337\350a\340d/\250\253\342\375\222"
 373      98D104DF 
 373      E861E064 
 373      2FA8ABE2 
 373      FD92
 374 08ab 1D9D196A 		.ascii	"\035\235\031j\270c\220\247\336\365<\306\251w\203\334"
 374      B86390A7 
 374      DEF53CC6 
 374      A97783DC 
 375 08bb CF463E53 		.ascii	"\317F>S_\343`\017\272\025\034\267\344\220\007\335_\221"
 375      5FE3600F 
 375      BA151CB7 
 375      E49007DD 
 375      5F91
 376 08cd 7F15C2A0 		.ascii	"\177\025\302\240\016\267\225\234\016i\276\232\273\373"
ARM GAS  C:\Users\AMANRA~1\AppData\Local\Temp\ccFdT4MI.s 			page 30


 376      0EB7959C 
 376      0E69BE9A 
 376      BBFB
 377 08db 8D2AC92C 		.ascii	"\215*\311,\260\211\3078\334\336s\232i\016i\326\242\270"
 377      B089C738 
 377      DCDE739A 
 377      690E69D6 
 377      A2B8
 378 08ed EFE17633 		.ascii	"\357\341v3\306\321\267\024P\324D8\334n&\331\026\351"
 378      C6D1B714 
 378      50D44438 
 378      DC6E26D9 
 378      16E9
 379 08ff 1D0769D2 		.ascii	"\035\007i\322\017\267\344!\002\355}\253\324I\341@g%"
 379      0FB7E421 
 379      02ED7DAB 
 379      D449E140 
 379      6725
 380 0911 28FBC729 		.ascii	"(\373\307)R8\262\263\243E\250\365\366t\013\370\016W"
 380      5238B2B3 
 380      A345A8F5 
 380      F6740BF8 
 380      0E57
 381 0923 8C85E4D8 		.ascii	"\214\205\344\330GmB\263A\237\270\233\304\006(#\337s"
 381      476D42B3 
 381      419FB89B 
 381      C4062823 
 381      DF73
 382 0935 FD42BD95 		.ascii	"\375B\275\225{|T\262\320\377.\326\000*\000n\227<\352"
 382      7B7C54B2 
 382      D0FF2ED6 
 382      002A006E 
 382      973CEA
 383 0948 9CA116E0 		.ascii	"\234\241\026\340\244\020\222\272\340\017\251\332\326"
 383      A41092BA 
 383      E00FA9DA 
 383      D6
 384 0955 5BFBAB48 		.ascii	"[\373\253H\225S\252r\3672\016}\272\351[\000\324\267"
 384      9553AA72 
 384      F7320E7D 
 384      BAE95B00 
 384      D4B7
 385 0967 9AE8E45A 		.ascii	"\232\350\344Z\03517kTn\236\257*=\365\226\004UA\035\037"
 385      1D31376B 
 385      546E9EAF 
 385      2A3DF596 
 385      0455411D 
 386 097c FC00425C 		.ascii	"\374\000B\\[\031\320\270\326\245\314\272\265\343\233"
 386      5B19D0B8 
 386      D6A5CCBA 
 386      B5E39B
 387 098b AD71CAAC 		.ascii	"\255q\312\254\365\014\266\367\343ZW\310]<\241/\307\216"
 387      F50CB6F7 
 387      E35A57C8 
 387      5D3CA12F 
 387      C78E
 388 099d 521CBBEA 		.ascii	"R\034\273\352^\361\002\273\342X\234\277#8\377\256\306"
ARM GAS  C:\Users\AMANRA~1\AppData\Local\Temp\ccFdT4MI.s 			page 31


 388      5EF102BB 
 388      E2589CBF 
 388      2338FFAE 
 388      C6
 389 09ae B1A34238 		.ascii	"\261\243B8v\010\353\344\177\230ck\007\342X\237k\240"
 389      7608EBE4 
 389      7F98636B 
 389      07E2589F 
 389      6BA0
 390 09c0 DB7B5D0C 		.ascii	"\333{]\014\216\255\217\305\261;\243rl-\245DC8\307\356"
 390      8EAD8FC5 
 390      B13BA372 
 390      6C2DA544 
 390      4338C7EE 
 391 09d4 C294D84D 		.ascii	"\302\224\330Ma\277;6\307\356\211\350\307\275:\307\326"
 391      61BF3B36 
 391      C7EE89E8 
 391      C7BD3AC7 
 391      D6
 392 09e5 6A1C5BDD 		.ascii	"j\034[\335\325p\247\021\224I\335\203\342\243'\340\207"
 392      D570A711 
 392      9449DD83 
 392      E2A327E0 
 392      87
 393 09f6 5082DD78 		.ascii	"P\202\335x\243\350\240A\027:a\037\367,A\233\240\322"
 393      A3E8A041 
 393      173A611F 
 393      F72C419B 
 393      A0D2
 394 0a08 467598AA 		.ascii	"Fu\230\252\266*-\361\203\324\262?\226\226\037I\213\205"
 394      B62A2DF1 
 394      83D4B23F 
 394      96961F49 
 394      8B85
 395 0a1a B4FC845A 		.ascii	"\264\374\204Z0@N\215\325\366\202\212\264\350Hd7\203"
 395      30404E8D 
 395      D5F6828A 
 395      B4E84864 
 395      3783
 396 0a2c 87436D09 		.ascii	"\207Cm\011\011\203\\\302\201\320%,j<\274\2537\011q\022"
 396      09835CC2 
 396      81D0252C 
 396      6A3CBCAB 
 396      37097112 
 397 0a40 2DC14A4B 		.ascii	"-\301JK8\244\226\320<\266W\213^\015\262\320Y\207\265"
 397      38A496D0 
 397      3CB6578B 
 397      5E0DB2D0 
 397      5987B5
 398 0a53 809D2B92 		.ascii	"\200\235+\222X\035\005\354<\221\254\"W\322\202\346\205"
 398      581D05EC 
 398      3C91AC22 
 398      57D282E6 
 398      85
 399 0a64 213E91AE 		.ascii	"!>\221\256B}w\260'\024\310\205@G\202\007\306t\370KF"
 399      427D77B0 
 399      2714C885 
ARM GAS  C:\Users\AMANRA~1\AppData\Local\Temp\ccFdT4MI.s 			page 32


 399      40478207 
 399      C674F84B 
 400 0a79 E266138C 		.ascii	"\342f\023\214\310H\342\210\226\302\036\262`\225y\324"
 400      C848E288 
 400      96C21EB2 
 400      609579D4 
 401 0a89 A5A563E2 		.ascii	"\245\245c\342 \253\314\321XU\346gYe\216\361>\337V\006"
 401      20ABCCD1 
 401      5855E667 
 401      59658EF1 
 401      3EDF5606 
 402 0a9d 55658E53 		.ascii	"Ue\216S\225I\224U\246.`\326\020\006Ue\232d\225\321\377"
 402      95499455 
 402      A62E60D6 
 402      10065565 
 402      9A6495D1 
 403 0ab2 8C610537 		.ascii	"\214a\0057\374\022\253\312\004\\f\232C\232#~B9\201\231"
 403      FC12ABCA 
 403      045C669A 
 403      439A237E 
 403      42398199 
 404 0ac6 749252EA 		.ascii	"t\222R\352d\344*s\202d\247d\225I$M}>\241\034\327\253"
 404      64E42A73 
 404      8264A764 
 404      9549244D 
 404      7D3EA11C 
 405 0adc 0CBD35E9 		.ascii	"\014\2755\351Uf\301\203J\315{I\212\0167\224V=p\251\365"
 405      5566C183 
 405      4ACD7B49 
 405      8A0E3794 
 405      563D70A9 
 406 0af1 D6F50868 		.ascii	"\326\365\010h\016\2512\021>\265\014H\375\247{\253\314"
 406      0EA93211 
 406      3EB50C48 
 406      FDA77BAB 
 406      CC
 407 0b02 19A2FE24 		.ascii	"\031\242\376$\031\352\251\261\210p\240\313\302\331\001"
 407      19EAA9B1 
 407      8870A0CB 
 407      C2D901
 408 0b11 2E0B655B 		.ascii	".\013e[\\\003}S9\027\343\266p>\326m\341B\324\333\302"
 408      5C037D53 
 408      3917E3B6 
 408      703ED66D 
 408      E142D4DB 
 409 0b26 59F2DAC5 		.ascii	"Y\362\332\305p\"\274\204^\273L\236\271\034\373\266\320"
 409      7022BC84 
 409      5EBB4C9E 
 409      B91CFBB6 
 409      D0
 410 0b37 1291085B 		.ascii	"\022\221\010[u\"$|i\273\264\336\257\371UE\235\232\363"
 410      7522247C 
 410      69BBB4DE 
 410      AFF95545 
 410      9D9AF3
 411 0b4a 9207953C 		.ascii	"\222\007\225<n\270\"\335B\177\000\204\253}i/%4\211\335"
 411      6EB822DD 
ARM GAS  C:\Users\AMANRA~1\AppData\Local\Temp\ccFdT4MI.s 			page 33


 411      427F0084 
 411      AB7D692F 
 411      253489DD 
 412 0b5e 913ED33F 		.ascii	"\221>\323?\205\352\240\215+\340[\363?=\001\010\274P"
 412      85EAA08D 
 412      2BE05BF3 
 412      3F3D0108 
 412      BC50
 413 0b70 8AB2E19A 		.ascii	"\212\262\341\232\004\266\023\360\365\2764\323\007\370"
 413      04B613F0 
 413      F5BE34D3 
 413      07F8
 414 0b7e 693445BB 		.ascii	"i4E\273^\027\323\331\334\340\226\264U\244\016J\355p"
 414      5E17D3D9 
 414      DCE096B4 
 414      55A40E4A 
 414      ED70
 415 0b90 B821D53A 		.ascii	"\270!\325:Hm\007\252\305\243\262\014tL\205\024\374M"
 415      486D07AA 
 415      C5A3B20C 
 415      744C8514 
 415      FC4D
 416 0ba2 F58B1152 		.ascii	"\365\213\021R\321Pe\273\016L\352\316\200\372\023\201"
 416      D15065BB 
 416      0E4CEACE 
 416      80FA1381 
 417 0bb2 223A4001 		.ascii	"\":@\001Z\375\037\243Fy\360_\356\224\274Iy\371\205\243"
 417      5AFD1FA3 
 417      4679F05F 
 417      EE94BC49 
 417      79F985A3 
 418 0bc6 FF363AC7 		.ascii	"\3776:\307\223_\350\2312q\252gz~\301\214B\317\204\327"
 418      935FE899 
 418      3271AA67 
 418      7A7EC18C 
 418      42CF84D7 
 419 0bda C63DFB8C 		.ascii	"\306=\373\214\347\225W\376\351\371\317\204\227\306\277"
 419      E79557FE 
 419      E9F9CF84 
 419      97C6BF
 420 0be9 F6EE6892 		.ascii	"\366\356h\222\275^8\271 \017\377\233:\365\215Q\271L"
 420      BD5E38B9 
 420      200FFF9B 
 420      3AF58D51 
 420      B94C
 421 0bfb 14BE319D 		.ascii	"\024\2761\235\027\026\210\334\202\321\360\016Lz:*b~"
 421      171688DC 
 421      82D1F00E 
 421      4C7A3A2A 
 421      627E
 422 0c0d 21360533 		.ascii	"!6\0053\344\377\243\246\260\310\003Q\236\367v\356\324"
 422      E4FFA3A6 
 422      B0C80351 
 422      9EF776EE 
 422      D4
 423 0c1e 77DE988C 		.ascii	"w\336\230\214\222\302\367\013q\340\013\021\007\346\346"
 423      92C2F70B 
ARM GAS  C:\Users\AMANRA~1\AppData\Local\Temp\ccFdT4MI.s 			page 34


 423      71E00B11 
 423      07E6E6
 424 0c2d 4F9B96FF 		.ascii	"O\233\226\377\266\266\314\227\306\217\033;\356=\034"
 424      B6B6CC97 
 424      C68F1B3B 
 424      EE3D1C
 425 0c3c 929B5F30 		.ascii	"\222\233_0\371\365w\307L\303i\346I\023\013'\277Z\220"
 425      F9F577C7 
 425      4CC369E6 
 425      49130B27 
 425      BF5A90
 426 0c4f 3736D6F4 		.ascii	"76\326\364\311\357\315\240\311\236\261\343&\274<\301"
 426      C9EFCDA0 
 426      C99EB1E3 
 426      26BC3CC1 
 427 0c5f 3316677B 		.ascii	"3\026g{^\016\252\237V\230W\370\372[\271\271\210\345"
 427      5E0EAA9F 
 427      569857F8 
 427      FA5BB9B9 
 427      88E5
 428 0c71 1E37617C 		.ascii	"\0367a|&\341M/\310\033\231\231\225\303x\0013O\233<-"
 428      26E14D2F 
 428      C81B9999 
 428      95C37801 
 428      334F9B3C 
 429 0c86 BFE07D26 		.ascii	"\277\340}&&\027N7\2769u\342[\205\377\003of\343!"
 429      26174E37 
 429      BE3975E2 
 429      5B85FF03 
 429      6F66E321 
 430              		.text
 431              		.section	.gnu.lto_sd_lld_stop.part.0.29debea5,"",%progbits
 432 0000 789C9D93 		.ascii	"x\234\235\223\317k\023A\024\307\347\273\263\371\011"
 432      CF6B1341 
 432      14C7E7BB 
 432      B3F909
 433 000f B6FF400E 		.ascii	"\266\377@\016\2754\245\005\263FO\036\025\005\017\365"
 433      BD34A505 
 433      B3464F1E 
 433      15050FF5 
 434 001f 62EB59B4 		.ascii	"b\353Y\264\021\032\010\2444\3425\2236\332\370\343\340"
 434      111A08A4 
 434      34E23593 
 434      36DAF8E3 
 434      E0
 435 0030 A18D1AA2 		.ascii	"\241\215\032\242\004\252\350E\2524U\223\264\232F\253"
 435      04AAE845 
 435      AA345593 
 435      B49A46AB 
 436 0040 29D218C5 		.ascii	")\322\030\305[\241b[\202\326\"\366\240\202h\343{\223"
 436      5BA1625B 
 436      82D622F6 
 436      A08268E3 
 436      7B93
 437 0052 D288A7E2 		.ascii	"\322\210\247\342\260\373\336\276\235\267\337\357g\206"
 437      B0FBDEBE 
 437      9DB7DFEF 
ARM GAS  C:\Users\AMANRA~1\AppData\Local\Temp\ccFdT4MI.s 			page 35


 437      6786
 438 0060 59BB1022 		.ascii	"Y\273\020\" \2058By7\335\260\011\230W*\364`\302\320"
 438      20853842 
 438      7937DDB0 
 438      0998572A 
 438      F460C2D0 
 439 0074 D980E41C 		.ascii	"\331\200\344\034sJ\200\037\224\023\"j\032\022Q\\\226"
 439      734A801F 
 439      9413226A 
 439      1A12515C 
 439      96
 440 0085 A312A591 		.ascii	"\243\022\245\221Z\316\350\274\243h\024\257N{?\250\252"
 440      5ACEE8BC 
 440      A36814AF 
 440      4E7B3FA8 
 440      AA
 441 0096 9269524C 		.ascii	"\222iRL\322\315\003\223\350\024\324\367&~?-/\321\024"
 441      D2CD0393 
 441      E814D4F7 
 441      267E3F2D 
 441      2FD114
 442 00a9 6052B9B1 		.ascii	"`R\271\261\220Zi\341\322@\033\225+\023\263\357\335\362"
 442      905A69E1 
 442      D2401B95 
 442      2B13B3EF 
 442      DDF2
 443 00bb 30B83397 		.ascii	"0\2703\227\275V\261\265\217+5\244\212U\224\225\231\226"
 443      BD56B1B5 
 443      8F2B35A4 
 443      8A559495 
 443      9996
 444 00cd 120F2149 		.ascii	"\022\017!I\021S\360 \013\217V\246\326\345\007\233c\273"
 444      1153F020 
 444      0B8F56A6 
 444      D6E5079B 
 444      63BB
 445 00df EC261EA1 		.ascii	"\354&\036\241\235\015\361\030\366\255@\306\374v\342"
 445      9D0DF118 
 445      F6AD40C6 
 445      FC76E2
 446 00ee AD4DA9CD 		.ascii	"\255M\251\315\372\210R?\275)\303\015\221\226\246\301"
 446      FA88523F 
 446      BD29C30D 
 446      9196A6C1 
 447 00fe 41723039 		.ascii	"Ar09\3308\010\221 ^^\337\005*(\313\032\2064\315h-\361"
 447      D8380891 
 447      205E5EDF 
 447      052A28CB 
 447      1A8634CD 
 448 0115 ADB5EBAE 		.ascii	"\255\265\353\256^_5f\200`\304\326\312r\350\242\206Z"
 448      5E5F3566 
 448      8060C4D6 
 448      CA72E8A2 
 448      865A
 449 0127 6A780A1D 		.ascii	"jx\012\035\2675\356\367\353\262\234U\312\265M\214mb"
 449      B735EEF7 
 449      EBB29C55 
ARM GAS  C:\Users\AMANRA~1\AppData\Local\Temp\ccFdT4MI.s 			page 36


 449      CAB54D8C 
 449      6D62
 450 0139 FE0E7974 		.ascii	"\376\016yt\210\032\014\301h\374\271`?C\373\255\241\224"
 450      881A0CC1 
 450      68FCB960 
 450      3F43FBAD 
 450      A194
 451 014b FF5498F4 		.ascii	"\377T\230\3640~\212l%\222\347J\257\035\274E6\015\022"
 451      307E8A6C 
 451      2592E74A 
 451      AF1DBC45 
 451      360D12
 452 015e BF315773 		.ascii	"\2771Ws5J\3655\241x\023\027\013\313K\366\014n\022\224"
 452      354AF535 
 452      A1781317 
 452      0BCB4BF6 
 452      0C6E1294 
 453 0172 1DD36454 		.ascii	"\035\323dT\340\255\241\211\317\253\3633-\326=\025\247"
 453      E0ADA189 
 453      CFABF333 
 453      2DD63D15 
 453      A7
 454 0183 19076690 		.ascii	"\031\007f\220\301\230\246\306\023Xb\015\303\277\316"
 454      C198A6C6 
 454      1358620D 
 454      C3BFCE
 455 0192 A3E16334 		.ascii	"\243\341c4\254>\336\252,im\023\365\372\217z+\236\222"
 455      AC3EDEAA 
 455      2C696D13 
 455      F5FA8F7A 
 455      2B9E92
 456 01a5 1011BDBB 		.ascii	"\020\021\275\273\250\373vnUlZ\315\302\"}V\311\273\032"
 456      A8FB766E 
 456      556C5ACD 
 456      C2227D56 
 456      C9BB1A
 457 01b8 6672E73A 		.ascii	"fr\347:%\255\003\326y\366\017\262IB\377\315\367\274"
 457      25AD03D6 
 457      79F60FB2 
 457      4942FFCD 
 457      F7BC
 458 01ca A93BC77C 		.ascii	"\251;\307|\346\337|\266\035\351\304T\033+\275h*\275"
 458      E6DF7CB6 
 458      1DE9C454 
 458      1B2BBD68 
 458      2ABD
 459 01dc 24C275C4 		.ascii	"$\302u\3043\033\013\232F\237\341\334\372\242#\372[9"
 459      331B0B9A 
 459      469FE1DC 
 459      FAA223FA 
 459      5B39
 460 01ee D3D299A4 		.ascii	"\323\322\231\244]\020(#\312\023\253\371\361W\3727p\301"
 460      5D102823 
 460      CA13ABF9 
 460      F157FA37 
 460      70C1
 461 0200 8B7978D2 		.ascii	"\213yx\322\322\255\017\201\324\207\340\013\235\015="
ARM GAS  C:\Users\AMANRA~1\AppData\Local\Temp\ccFdT4MI.s 			page 37


 461      D2AD0F81 
 461      D487E00B 
 461      9D0D3D
 462 020f 12A44C2F 		.ascii	"\022\244L/\250:\350\363Yt\365\365\007O\005\303\021\377"
 462      A83AE8F3 
 462      5974F5F5 
 462      074F05C3 
 462      11FF
 463 0221 7EFF1E2B 		.ascii	"~\377\036+\034\261\372O\206\254\201\360\340\231\210"
 463      1CB1FA4F 
 463      86AC81F0 
 463      E09988
 464 0230 D5D37B74 		.ascii	"\325\323{t\337^\253\273\373\220u\274\347\300\261\336"
 464      DF5EABBB 
 464      FB9075BC 
 464      E7C0B1DE 
 465 0240 B37E9E3B 		.ascii	"\263~\236;\0219=\030\244\024\012\005|}BF\002\003\177"
 465      11393D18 
 465      A4140A05 
 465      7C7D4246 
 465      02037F
 466 0253 002DF823 		.ascii	"\000-\370#\253"
 466      AB
 467              		.text
 468              		.section	.gnu.lto_VectorD8.29debea5,"",%progbits
 469 0000 789C6D4F 		.ascii	"x\234mO\261KBa\020\277\373N\237.9FPC\253C\357eM\215"
 469      B14B4261 
 469      10BFFB4E 
 469      9F2E3946 
 469      5043AB43 
 470 0018 85A32D69 		.ascii	"\205\243-i\255Q\026(\010\206/Z\337g&\0325\204\324ky"
 470      AD511628 
 470      08862F5A 
 470      DF67261A 
 470      3584D46B 
 471 002d C45BA249 		.ascii	"\304[\242I$\322\352\025\310C\232\032\012Z\243\245\240"
 471      24D2EA15 
 471      C8439A1A 
 471      0A5AA3A5 
 471      A0
 472 003e 4902FF80 		.ascii	"I\002\377\200\254\373t\213\216;\356\270\337\357\356"
 472      ACFB748B 
 472      8E3BEEB8 
 472      DFEFEE
 473 004d 7EA70180 		.ascii	"~\247\001\200\216\000q\316\343\034H\200\342\350\011"
 473      8E0071CE 
 473      E31C4880 
 473      E2E809
 474 005c A0181688 		.ascii	"\240\030\026\210\252\220a\004K\240\205\207tL\330\251"
 474      AA906104 
 474      4BA08587 
 474      744CD8A9 
 475 006c 7C7A227A 		.ascii	"|z\"z!\331\374\323\366hQ\226\307\034\002\2609\224\341"
 475      21D9FCD3 
 475      F6685196 
 475      C71C02B0 
 475      3994E1
ARM GAS  C:\Users\AMANRA~1\AppData\Local\Temp\ccFdT4MI.s 			page 38


 476 007f 15468169 		.ascii	"\025F\201i\357\227\375\223\021-0\354c\0235\340\033\320"
 476      EF97FD93 
 476      112D30EC 
 476      631335E0 
 476      1BD0
 477 0091 7809FAB2 		.ascii	"x\011\372\262\377S\221\376\3039\276\255\004\000\252"
 477      FF5391FE 
 477      C339BEAD 
 477      0400AA
 478 00a0 8CF311E9 		.ascii	"\214\363\021\351\303>\011U\225|\350\342\236\333\250"
 478      C33E0955 
 478      957CE8E2 
 478      9EDBA8
 479 00af D3608A57 		.ascii	"\323`\212Wy^\3675d}\313\260Ch\023\257\301\026Z\012\260"
 479      795EF735 
 479      647DCBB0 
 479      436813AF 
 479      C1165A0A 
 480 00c4 CB9DE7D0 		.ascii	"\313\235\347\320\0019$\360\017O\270\352,\367\232\245"
 480      013924F0 
 480      0F4FB8EA 
 480      2CF79AA5 
 481 00d4 5E2DE2E2 		.ascii	"^-\342\342\031:Dx\303?\\\343\304\000h\367\036?\"L\256"
 481      193A4478 
 481      C33F5CE3 
 481      C40068F7 
 481      1E3F224C 
 482 00e9 4A39A916 		.ascii	"J9\251\026\334\242\213C\231\036Z\016\005XD\311mM\375"
 482      DCA28B43 
 482      991E5A0E 
 482      055844C9 
 482      6D4DFD
 483 00fc A32168B3 		.ascii	"\243!h\263P\300;\326\340\220\006_\270\353\336\327\207"
 483      50C03BD6 
 483      E090065F 
 483      B8EBDED7 
 483      87
 484 010d B3CAAAAC 		.ascii	"\263\312\252\254\220\337`\312\202\256\033\354\351Lv"
 484      90DF60CA 
 484      82AE1BEC 
 484      E94C76
 485 011c 3D9B3763 		.ascii	"=\2337cs\261i#o\032\231\265\234\261\225/l\233F2\265"
 485      73B16923 
 485      6F1A99B5 
 485      9CB1952F 
 485      6C9B4632 
 486 0131 383B6324 		.ascii	"8;c$\022qc99\277\224\332\211)l\325\334,d9\345r\033z"
 486      12716339 
 486      39BF94DA 
 486      89296CD5 
 486      DC2C6439 
 487 0149 1A7E0100 		.ascii	"\032~\001\000wz\214"
 487      777A8C
 488              		.text
 489              		.section	.gnu.lto_sd_lld_init.29debea5,"",%progbits
 490 0000 789C8D50 		.ascii	"x\234\215PM(DQ\024>\337\2733\363f\303ZH\266\263\231"
 490      4D284451 
ARM GAS  C:\Users\AMANRA~1\AppData\Local\Temp\ccFdT4MI.s 			page 39


 490      143EDFBB 
 490      33F366C3 
 490      5A48B6B3 
 491 0015 6B585992 		.ascii	"kXY\222%\033\303Z\014ejjdd\373.\302\210\205dF\352\245"
 491      251BC35A 
 491      0C656A6A 
 491      6464FB2E 
 491      C2888564 
 492 002c 5716A224 		.ascii	"W\026\242$\371\035\314\314KJQ\224\225bEI\222\022e!?"
 492      F91DCCCC 
 492      4B4A5194 
 492      95624549 
 492      92126521 
 493 0041 E7CE6C26 		.ascii	"\347\316l&+\247{:\247s\316\367\235\357\036\037\021\255"
 493      2BA77B3A 
 493      A773CEF7 
 493      9DEF1E1F 
 493      11AD
 494 0053 81A88563 		.ascii	"\201\250\205c\025;\004\301\230\275 \032\361\033\200"
 494      153B04C1 
 494      98BD201A 
 494      F11B80
 495 0062 4E941F64 		.ascii	"N\224\037d\031\2600#\346\005\216'\0372F`E\261\271\013"
 495      19B03023 
 495      E6058E27 
 495      1F324660 
 495      45B1B90B 
 496 0076 D735136A 		.ascii	"\3275\023j\274\302\026Divm\330B\200x\354n\363;U\346"
 496      BCC21644 
 496      69766DD8 
 496      428078EC 
 496      6EF33B55 
 497 008b F314EBD8 		.ascii	"\363\024\353\330\206\217x\007m\\y]\365\3753\251\334"
 497      868F7807 
 497      6D5C795D 
 497      F5FD33A9 
 497      DC
 498 009c 93657C76 		.ascii	"\223e|vy\210\222\334\347%\312\245)a\350l\314\245gL8"
 498      798892DC 
 498      E725CAA5 
 498      2961E86C 
 498      CCA5674C 
 499 00b1 6F595140 		.ascii	"oYQ@1U&\363|cZ_\312o\013\244\005\323`\007\226n\244\307"
 499      315526F3 
 499      7C635A5F 
 499      CA6F0BA4 
 499      05D36007 
 500 00c9 8F2FCD69 		.ascii	"\217/\315ia\013\003\177\346\014G\257\345\332\366\330"
 500      610B037F 
 500      E60C47AF 
 500      E5DAF6D8 
 501 00d9 EB5CB983 		.ascii	"\353\\\271\203%\330B`\217\377\260\213\352B#\367zv_\316"
 501      25D84260 
 501      8FFFB08B 
 501      EA4223F7 
 501      7A765FCE 
 502 00ed C349A56A 		.ascii	"\303I\245j5\301>\034\024ef`\225r{@8@u\011\177\021\342"
ARM GAS  C:\Users\AMANRA~1\AppData\Local\Temp\ccFdT4MI.s 			page 40


 502      35C13E1C 
 502      14656660 
 502      95727B40 
 502      38407509 
 503 0104 4D33AA00 		.ascii	"M3\252\0008\204e\013\037=a\364\3751\273a\352\342\177"
 503      3884650B 
 503      1F3D61F4 
 503      FD31BB61 
 503      EAE27F
 504 0117 D41C95A8 		.ascii	"\324\034\225\250\331=\275\375\364\313u}T\247\322\026"
 504      D93DBDFD 
 504      F4CB757D 
 504      54A7D216 
 505 0127 26B22C27 		.ascii	"&\262,'U8)r\220<\261\232Z<\367j=&TrDy\220g\350\013F"
 505      55382972 
 505      903CB19A 
 505      5A3CF76A 
 505      3D265472 
 506 0142 9D8F7C51 		.ascii	"\235\217|Q\267\266$_\207Oh\0205\007\203\222_\244?\332"
 506      B7B6245F 
 506      874F6810 
 506      35078392 
 506      5FA43FDA 
 507 0156 138D2742 		.ascii	"\023\215'B\215\241:\031O\310\376\356\230\034\210\017"
 507      8DA13A19 
 507      4FC8FEEE 
 507      981C880F 
 508 0166 0E2564B8 		.ascii	"\016%d\270\243\255\241^\266\266\266\310\316pS{\307p"
 508      A3ADA15E 
 508      B6B6B6C8 
 508      CE70537B 
 508      C770
 509 0178 48F7BA12 		.ascii	"H\367\272\022}\203Q\016\261Xo0B\277\227\001\245\271"
 509      7D83510E 
 509      B1586F30 
 509      42BF9701 
 509      A5B9
 510              		.text
 511              		.section	.gnu.lto_sd_lld_start.29debea5,"",%progbits
 512 0000 789CA554 		.ascii	"x\234\245T]h\\E\030\235s\347\376e\223n\233\247\026\331"
 512      5D685C45 
 512      189D73E7 
 512      FE65936E 
 512      9BA716D9 
 513 0014 421031F4 		.ascii	"B\0201\364%\267\251\"\370RP\364A\250\010\266\276\011"
 513      25B7A922 
 513      F85250F4 
 513      41A808B6 
 513      BE09
 514 0026 A2A93581 		.ascii	"\242\2515\201\320\224n\361A\204\235d7\315\306\366A\212"
 514      D0946EF1 
 514      41849D64 
 514      37CDC6F6 
 514      418A
 515 0038 8DB2AC71 		.ascii	"\215\262\254q\301J\005\221\2706\251\273\351\337f7\211"
 515      C14A0591 
 515      B836A9BB 
ARM GAS  C:\Users\AMANRA~1\AppData\Local\Temp\ccFdT4MI.s 			page 41


 515      E9DF6637 
 515      89
 516 0049 B6DDA44D 		.ascii	"\266\335\244M\215mj!\322\244n\3314\212! Z0\372}s7d\015"
 516      8D6D6A21 
 516      D2A46ED9 
 516      348A2120 
 516      5A30FA7D 
 517 0061 221687DD 		.ascii	"\"\026\207\335\271wf\276\357\2343g\276\271\266\020b"
 517      B97766BE 
 517      EF9C3367 
 517      BEB9B610 
 517      62
 518 0072 D012E205 		.ascii	"\320\022\342\005z\276L\177\270\002\306\273\223Bt\272"
 518      7ABE4C7F 
 518      B802C6BB 
 518      934274BA 
 519 0082 8621339B 		.ascii	"\206!3\233\205\012\2303O\010U'a\372\323\246ae\266\322"
 519      850A9833 
 519      4F085527 
 519      61FAD3A6 
 519      6165B6D2 
 520 0096 B433B39D 		.ascii	"\2643\263\235\246-\303\316o\344\321\344N\032\331p\374"
 520      A62DC3CE 
 520      6FE4D1E4 
 520      4E1AD970 
 520      FC
 521 00a7 2007E017 		.ascii	" \007\340\027\345BD\014iZ\266\203\010\216\312\367$\362"
 521      E542440C 
 521      695AB683 
 521      088ECAF7 
 521      24F2
 522 00b9 3DA5ACB1 		.ascii	"=\245\254\261\355\244\242\226{\377\313\207o\253\253"
 522      EDA4A296 
 522      7BFFCB87 
 522      6FABAB
 523 00c8 4A26A510 		.ascii	"J&\245\020}\364\347\206S\330FaS\261/\222\362\010\255"
 523      7DF4E786 
 523      53D84661 
 523      53B12F92 
 523      F208AD
 524 00db 00260D97 		.ascii	"\000&\015\227&\022\363A\036\032h\240\341\374\300\310"
 524      2612F341 
 524      1E1A68A0 
 524      E1FCC0C8 
 525 00eb 0F01F92C 		.ascii	"\017\001\371,\004\275\227\022\321!4~\242T\227\312\025"
 525      04BD9712 
 525      D121347E 
 525      A25497CA 
 525      15
 526 00fc 4F48F548 		.ascii	"OH\365HRJ\234\206$@\014!\204A\204\004M\011|\205F\012"
 526      524A9C86 
 526      24400C21 
 526      84418404 
 526      4D097C85 
 527 0112 2FAF0CDC 		.ascii	"/\257\014\3345\345s:\365\364\342G\343\265\225\324\351"
 527      35E5733A 
 527      F5F4E247 
ARM GAS  C:\Users\AMANRA~1\AppData\Local\Temp\ccFdT4MI.s 			page 42


 527      E3B595D4 
 527      E9
 528 0123 933AD544 		.ascii	"\223:\325Df}\252)\220E#\307\317\245W\216o\260M_+\206"
 528      667DAA29 
 528      904523C7 
 528      CFA5578E 
 528      6FB04D5F 
 529 0139 610BD0CB 		.ascii	"a\013\320\313\3005+\247V\376\354!\214-\367\347\216\242"
 529      C0352BA7 
 529      56FEEC21 
 529      8C2DF7E7 
 529      8EA2
 530 014b 1E946419 		.ascii	"\036\224d\031\324\331\222;\223;\213;[#\271\340>\000"
 530      D4D9923B 
 530      933B8B3B 
 530      5B23B9E0 
 530      3E00
 531 015d 1614E469 		.ascii	"\026\024\344i!\342\004H~\251\234\350\225\006\277Es\342"
 531      21E20448 
 531      7EA99CE8 
 531      9506BF45 
 531      73E2
 532 016f 47C4BE2F 		.ascii	"G\304\276/\314\366\026\300D\011\351\022\177_w\376\212"
 532      CCF616C0 
 532      4409E912 
 532      7F5F77FE 
 532      8A
 533 0180 C32E9810 		.ascii	"\303.\230\0208C\342\270\365\322\3362\233)\241\204\256"
 533      3843E2B8 
 533      F5D2DE32 
 533      9B29A184 
 533      AE
 534 0191 D4F2E888 		.ascii	"\324\362\350\210\344xf\240\204\350\375\013\313\301\310"
 534      E47866A0 
 534      84E8FD0B 
 534      CBC1C8
 535 01a0 1F6A0BA5 		.ascii	"\037j\013\245\244X4\315\375>\365S\2746\205\376\316M"
 535      A45834CD 
 535      FD3EF553 
 535      BC3685FE 
 535      CE4D
 536 01b2 49E9E02C 		.ascii	"I\351\340,\235\213F\342\350\023\247\272A\321\037(\225"
 536      9D8B46E2 
 536      E813A7BA 
 536      41D11F28 
 536      95
 537 01c3 7A8B49CE 		.ascii	"z\213I\316!E\033\304yD4\217YQV\202\2417\222 \351\013"
 537      21451BC4 
 537      7944348F 
 537      59515682 
 537      A1379220 
 538 01d9 E84A94FB 		.ascii	"\350J\224\373\323o3i\265B\251\015>\233\237\030\267\231"
 538      D36F3369 
 538      B542A90D 
 538      3E9B9F18 
 538      B799
 539 01eb 8B4E3BF5 		.ascii	"\213N;\365PR\272\011\031\300\205\012\335t\317\314l\255"
ARM GAS  C:\Users\AMANRA~1\AppData\Local\Temp\ccFdT4MI.s 			page 43


 539      5052BA09 
 539      19C0850A 
 539      DD74CFCC 
 539      6CAD
 540 01fd F7395742 		.ascii	"\3679WB\003\263\345\210\355\270\256\002\214\300\253"
 540      03B3E588 
 540      EDB8AE02 
 540      8CC0AB
 541 020c 800F973F 		.ascii	"\200\017\227?M\267\372\016`\035`\303\277\342\325 \257"
 541      4DB7FA0E 
 541      601D60C3 
 541      BFE2D520 
 541      AF
 542 021d F1F88450 		.ascii	"\361\370\204P\200\347\373\371\370\032\324PO1\035`\251"
 542      80E7FBF9 
 542      F81AD450 
 542      4F311D60 
 542      A9
 543 022e 3500467D 		.ascii	"5\000F}3\177\325N\033\242\312:6cy\3646\260j!\306\020"
 543      337FD54E 
 543      1BA2CA3A 
 543      366379F4 
 543      36B06A21 
 544 0244 91C71CF2 		.ascii	"\221\307\034\362\303\022\231\255\253\0075~$j\373\330"
 544      C31299AD 
 544      AB07357E 
 544      246AFBD8 
 545 0254 014ACE66 		.ascii	"\001J\316f\027o9\224\354\222\021)\226@s\203\321\245"
 545      176F3994 
 545      EC921129 
 545      96407383 
 545      D1A5
 546 0266 6341924E 		.ascii	"cA\222N@.\306\311\366U\335\347\227.\3153S\234\230\366"
 546      402EC6C9 
 546      F655DDE7 
 546      972ECD33 
 546      539C98F6 
 547 027a B1735FFB 		.ascii	"\261s_\373\266\177\243mg\343m\261h\021\321\002\362\303"
 547      B67FA36D 
 547      67E36DB1 
 547      6811D102 
 547      F2C3
 548 028c E56C3AE4 		.ascii	"\345l:\344\363\030\325v\007\264\335\261\017\307J5\376"
 548      F318D576 
 548      07B4DDB1 
 548      0FC74A35 
 548      FE
 549 029d 50FD1257 		.ascii	"P\375\022W|qn\235\231\233\2552\254\026\227\250\256/"
 549      7C716E9D 
 549      999BAD32 
 549      AC1697A8 
 549      AE2F
 550 02af 5698EFDD 		.ascii	"V\230\357\335\271x.H\216\305HS\035.k\277\014\336b\221"
 550      B9782E48 
 550      8EC54853 
 550      1D2E6BBF 
 550      0CDE6291 
ARM GAS  C:\Users\AMANRA~1\AppData\Local\Temp\ccFdT4MI.s 			page 44


 551 02c3 FC5A40F4 		.ascii	"\374Z@\364\267\303\225\342\223>]\241\277?f0\276\015"
 551      B7C395E2 
 551      933E5DA1 
 551      BF3F6630 
 551      BE0D
 552 02d5 45577B82 		.ascii	"EW{\202`H\323\364;\250\234\376\003\220M\256\221]\341"
 552      6048D3F4 
 552      3BA89CFE 
 552      03904DAE 
 552      915DE1
 553 02e8 C3967A77 		.ascii	"\303\226zw5>\335\003\012\277\252\261\364\331L\255\023"
 553      353EDD03 
 553      0ABFAAB1 
 553      F4D94CAD 
 553      13
 554 02f9 6E11D8FF 		.ascii	"n\021\330\377\322ym\015\373[\326iU\353\014\376g\254"
 554      D2796D0D 
 554      FB5BD669 
 554      55EB0CFE 
 554      67AC
 555 030b 4E5EABC3 		.ascii	"N^\253\303\364\032\332w\244t\021\335\251\362\230V%\376"
 555      F41ADA77 
 555      A47411DD 
 555      A9F29856 
 555      25FE
 556 031d 5E351BFA 		.ascii	"^5\033\372\270jp\235J\200\026\356\014\177|Y\177\014"
 556      B86A709D 
 556      4A8016EE 
 556      0C7F7C59 
 556      7F0C
 557 032f 83781437 		.ascii	"\203x\0247\020\342\362,\334L\273\376T\035f\020J\312"
 557      10E2F22C 
 557      DC4CBBFE 
 557      541D6610 
 557      4ACA
 558 0341 8DBA549C 		.ascii	"\215\272T\234\312\035e\350\317\212\315\377\000\275\251"
 558      CA1D65E8 
 558      CF8ACDFF 
 558      00BDA9
 559 0350 8F6DC74D 		.ascii	"\217m\307M\202\246b\245k\226\224\365\342g\372v\014\024"
 559      82A662A5 
 559      6B9694F5 
 559      E267FA76 
 559      0C14
 560 0362 EB7538B7 		.ascii	"\353u8\2678\321\023\020\005>\335\324\344\321\257\245"
 560      38D11310 
 560      053EDDD4 
 560      E4D1AFA5 
 561 0372 B5EDB5B6 		.ascii	"\265\355\265\266\216p\363\223\315\333\275\216\260\327"
 561      8E70F393 
 561      CDDBBD8E 
 561      B0D7
 562 0380 FA6ABB77 		.ascii	"\372j\273w\240\343\340\241\260\267{\317\363\217\355"
 562      A0E3E0A1 
 562      B0B77BCF 
 562      F38FED
 563 038f F076ED7A 		.ascii	"\360v\355z\306{i\367S/\356y\263\231\327^\011\277~\260"
ARM GAS  C:\Users\AMANRA~1\AppData\Local\Temp\ccFdT4MI.s 			page 45


 563      C67B69F7 
 563      532FEE79 
 563      B399D75E 
 563      09BF7EB0 
 564 03a3 8D1EEDED 		.ascii	"\215\036\355\355{\233Z\204\014\357=`\267t\354\337\327"
 564      7B9B5A84 
 564      0CEF3D60 
 564      B774ECDF 
 564      D7
 565 03b4 F6C65FE0 		.ascii	"\366\306_\340\232\371g"
 565      9AF967
 566              		.text
 567              		.section	.gnu.lto_default_config.29debea5,"",%progbits
 568 0000 789C6363 		.ascii	"x\234cc``\310\003bF\006\010\230\302\3148\255\365\320"
 568      6060C803 
 568      62460608 
 568      98C2CC38 
 568      ADF5D0
 569 0013 79F66EE6 		.ascii	"y\366n\3469\314@A w\375\233\235?yA\\F0\367\345\353\371"
 569      39CC4041 
 569      2077FD9B 
 569      9D3F7941 
 569      5C4630F7 
 570 002a 2A201E13 		.ascii	"* \036\023c\303\032& \377\335\322\343\177Y-\2665t,h"
 570      63C31A26 
 570      20FFDDD2 
 570      E37F592D 
 570      B635742C 
 571 003f 4898C3CC 		.ascii	"H\230\303\314<\025\250k+\243\314T\240\352- \212\011"
 571      3C15A86B 
 571      2BA3CC54 
 571      A0EA2D20 
 571      8A09
 572 0051 42314328 		.ascii	"B1C(\026\306\315 \212\225QO\206\201q\033\243\005\003"
 572      16C6CD20 
 572      8A95514F 
 572      8681711B 
 572      A30503
 573 0064 00338D20 		.ascii	"\0003\215 \235"
 573      9D
 574              		.text
 575              		.section	.gnu.lto_sd_lld_stop.29debea5,"",%progbits
 576 0000 789C9553 		.ascii	"x\234\225S]HTA\024\236\357\316\275\327u\375\203\210"
 576      5D485441 
 576      149EEFCE 
 576      BDD775FD 
 576      8388
 577 0012 9E148432 		.ascii	"\236\024\2042\321\007\257V/\275\004I=\024\366P\332s"
 577      D107AF56 
 577      2FBD0449 
 577      3D14F650 
 577      DA73
 578 0024 94160A82 		.ascii	"\224\026\012\202\342V\257\216\356\206J>D\250\321\266"
 578      E256AF8E 
 578      EE864A3E 
 578      44A8D1B6 
 579 0034 D44696FA 		.ascii	"\324F\226\372\020\026\376\353f\353\372\223YjE\210$("
ARM GAS  C:\Users\AMANRA~1\AppData\Local\Temp\ccFdT4MI.s 			page 46


 579      1016FEEB 
 579      66EBFA93 
 579      596A4588 
 579      2428
 580 0046 252D694B 		.ascii	"%-iK\260PAP\326\231\271\253f\020\324\260wg\316\3149"
 580      B0504150 
 580      D699B9AB 
 580      6610D4B0 
 580      7767CECC 
 581 005b DFF9F9CE 		.ascii	"\337\371\371\3161\031c;u\306\216\322\236O\037L\006\355"
 581      3119633B 
 581      75C68ED2 
 581      9E4F1F4C 
 581      06ED
 582 006d CA0C6335 		.ascii	"\312\014c5\016M\343\375iL8\215\371\\&\022\271\246\207"
 582      0E4DE3FD 
 582      694C388D 
 582      F95C2612 
 582      B9A687
 583 0080 52A43473 		.ascii	"R\2444s\200$\035\206T\202\001\310]8\300\2525\256\033"
 583      80241D86 
 583      548201C8 
 583      5D38C0AA 
 583      35AE1B
 584 0093 A846236F 		.ascii	"\250F#o\342\010\325\205\007\264\2546A+x-\260\373\255"
 584      E208D585 
 584      07B4AC36 
 584      412B782D 
 584      B0FBAD
 585 00a6 7821B88F 		.ascii	"x!\270\2173\326B\237\\\350B\026\251\275\364<\360\361"
 585      33D6429F 
 585      5CE84216 
 585      A9BDF43C 
 585      F0F1
 586 00b8 CBF402E8 		.ascii	"\313\364\002\350$F\247\275\313\311R\324\220N\342r\347"
 586      2446A7BD 
 586      CBC952D4 
 586      904EE272 
 586      E7
 587 00c9 C892931F 		.ascii	"\310\222\223\037\006\243s\330\353\356A\346]!jEp\254"
 587      06A373D8 
 587      EBEE41E6 
 587      5D216A45 
 587      70AC
 588 00db 958B5D3E 		.ascii	"\225\213]>\316\321\013N\200\350A*\272\221\312\350\212"
 588      CED10B4E 
 588      80E8412A 
 588      BA91CAE8 
 588      8A
 589 00ec A10F9952 		.ascii	"\241\017\231R\377\335\303\265\346$S\267\035\242_\246"
 589      FFDDC3B5 
 589      E62453B7 
 589      1DA25FA6 
 590 00fc 4587CE57 		.ascii	"E\207\316WFP\254\375\254\023\301H+\372V\035N\220\221"
 590      4650ACFD 
 590      AC13C148 
 590      2BFA561D 
ARM GAS  C:\Users\AMANRA~1\AppData\Local\Temp\ccFdT4MI.s 			page 47


 590      4E9091
 591 010f AED19F61 		.ascii	"\256\321\237aB\231\262z2\240\224D\2205pM\236\334A\266"
 591      4299B27A 
 591      32A09444 
 591      9035704D 
 591      9EDC41B6 
 592 0123 8ADAC195 		.ascii	"\212\332\301\225\366\256R\211\343\345 \370\226K\241"
 592      F6AE5289 
 592      E3E520F8 
 592      964BA1
 593 0132 D9381929 		.ascii	"\3318\031)W\321\005B\323\023\246\0377k(\337t\037'%\023"
 593      57D10542 
 593      D313A61F 
 593      376B28DF 
 593      741F2725 
 594 0147 0314917C 		.ascii	"\003\024\221|{]7\277\230`\335\027\366S\034\006\341G"
 594      7B5D37BF 
 594      9860DD17 
 594      F6531C06 
 594      E147
 595 0159 B32A0386 		.ascii	"\263*\003\206`\261\367\360\274\031\335\267\211\034\270"
 595      60B1F7F0 
 595      BC19DDB7 
 595      891CB8
 596 0168 D5D8E194 		.ascii	"\325\330\341\224\310q\320\020\220\030\264\032(\263\376"
 596      C871D010 
 596      9018B41A 
 596      28B3FE
 597 0177 B4F5483A 		.ascii	"\264\365H:\272\266\333\372\332\037\256\375\2752\237"
 597      BAB6DBFA 
 597      DA1FAEFD 
 597      BD329F
 598 0186 BF79F7EF 		.ascii	"\277y\367\357\2404\361H\271\227\305\3000\271\017\243"
 598      A034F148 
 598      B997C5C0 
 598      30B90FA3 
 599 0196 365D8291 		.ascii	"6]\202\221j\373\352\322w\316\217\250\204\026V\242\337"
 599      6AFBEAD2 
 599      77CE8FA8 
 599      841656A2 
 599      DF
 600 01a7 1233EEA8 		.ascii	"\0223\356\250r\177\275\316\357\271\305\244\320\245\371"
 600      727FBDCE 
 600      EFB9C5A4 
 600      D0A5F9
 601 01b6 E3AD2557 		.ascii	"\343\255%Wi\004\221A\261Pl\241\317\037\006\307\315\215"
 601      69049141 
 601      B1506CA1 
 601      CF1F06C7 
 601      CD8D
 602 01c8 EA7B14FD 		.ascii	"\352{\024\3753^2#\025\305B\213]\257uv0\002\023!INH\205"
 602      335E3223 
 602      15C5428B 
 602      5DAF7576 
 602      30021321 
 603 01e0 B0515663 		.ascii	"\260QVcKY\341\343\016\362\200\321XRs}\203}I\224\224"
 603      4B59E1E3 
ARM GAS  C:\Users\AMANRA~1\AppData\Local\Temp\ccFdT4MI.s 			page 48


 603      0EF280D1 
 603      5852737D 
 603      837D4994 
 604 01f5 A746F83F 		.ascii	"\247F\370?6S\\\361\030Sii\012\221a\034\326\357h\361"
 604      36535CF1 
 604      18536969 
 604      0A91611C 
 604      D6EF68F1 
 605 0209 6098205B 		.ascii	"`\230 [\025\341\320\270\031\363\366/\360\333\244\365"
 605      15E1D0B8 
 605      19F3F62F 
 605      F0DBA4F5 
 606 0219 1305CE63 		.ascii	"\023\005\316c\340\223\2606\321\002\377\217\366T\241"
 606      E093B036 
 606      D102FF8F 
 606      F654A1
 607 0228 E931B4A9 		.ascii	"\3511\264\251\030\032\021\341o\233>.\213\244\252e7\306"
 607      181A11E1 
 607      6F9B3E2E 
 607      8BA4AA65 
 607      37C6
 608 023a DC0DB769 		.ascii	"\334\015\267is-]\014\014D\026\342\252\177\010\007\365"
 608      732D5D0C 
 608      0C4416E2 
 608      AA7F0807 
 608      F5
 609 024b 9D5FB610 		.ascii	"\235_\266\020\335u\273\243W\223m\267&\236\321\374\255"
 609      DD75BBA3 
 609      57936DB7 
 609      269ED1FC 
 609      AD
 610 025c 333F1C9D 		.ascii	"3?\034\235ZN&\345zb\376\234l\324\347\344\227\330\232"
 610      5A4E26E5 
 610      7A62FE9C 
 610      6CD4E7E4 
 610      97D89A
 611 026f 4675ACA7 		.ascii	"Fu\254\247t\0261\250\247\302\324hv\0074\205\353\277"
 611      741631A8 
 611      A7C2D468 
 611      76073485 
 611      EBBF
 612 0281 A464B72B 		.ascii	"\244d\267+\332\026;\370m\267\007r\246b#;\203l\012\203"
 612      DA163BF8 
 612      6DB70772 
 612      A662233B 
 612      836C0A83 
 613 0295 45C0D53C 		.ascii	"E\300\325<m\215\307\331B\305g\230%p\037OP\360Flz>A\263"
 613      6D8DC7D9 
 613      42C56798 
 613      25701F4F 
 613      50F0466C 
 614 02ad 11EA897C 		.ascii	"\021\352\211|\272\")?'\307\242_qi\331\231\262\012W\336"
 614      BA22293F 
 614      27C7A25F 
 614      7169D999 
 614      B20A57DE 
 615 02c1 FEBC5CAB 		.ascii	"\376\274\\\253\302e\225\236.\267*+\252\316\273\254\302"
ARM GAS  C:\Users\AMANRA~1\AppData\Local\Temp\ccFdT4MI.s 			page 49


 615      C265959E 
 615      2EB72A2B 
 615      AACEBBAC 
 615      C2
 616 02d2 A2637BF7 		.ascii	"\242c{\367X\005\005\207\254\223\205\007O\024]\314\223"
 616      58050587 
 616      AC938507 
 616      4F145DCC 
 616      93
 617 02e3 6FA75C67 		.ascii	"o\247\\g\253\312h+//\311)f\334UR\211\013\277\000l\317"
 617      ABCA682B 
 617      2F2FC929 
 617      66DC5552 
 617      890BBF00 
 618 02f9 726B     		.ascii	"rk"
 619              		.text
 620              		.section	.gnu.lto_.symbol_nodes.29debea5,"",%progbits
 621 0000 789C5DCD 		.ascii	"x\234]\315;K\003A\024\005\3403\347\356lb\336\2666\202"
 621      3B4B0341 
 621      1405E033 
 621      E7EE6C62 
 621      DEB63682 
 622 0014 85FF42D0 		.ascii	"\205\377B\320_vGYR\244\211\220^%\330\333\032+\003[\250"
 622      5F764759 
 622      52A48990 
 622      5E25D8DB 
 622      1A2B035B 
 623 0029 B849D4F8 		.ascii	"\270I\324\370\352\202\210\225\244\261\027gb\004'\315"
 623      EA828895 
 623      A4B11767 
 623      620427CD 
 624 0039 1CE6BB67 		.ascii	"\034\346\273g\346\246\000\316\214?xC58\034\001\012\014"
 624      E6A600CE 
 624      8C3F7843 
 624      35381C01 
 624      0A0C
 625 004b DCD0A5DE 		.ascii	"\334\320\245\336F\364\227\245\235\237\374\332-\225\253"
 625      46F497A5 
 625      9D9FFCDA 
 625      2D95AB
 626 005a BD822AAB 		.ascii	"\275\202*\253\366NM\226f\006\331\320\355z\033S\355_"
 626      F64E4D96 
 626      6606D9D0 
 626      ED7A1B53 
 626      ED5F
 627 006c EFC2ED01 		.ascii	"\357\302\355\001\366\212\330\337\012\353'\3244\032\361"
 627      F68AD8DF 
 627      0AEB27D4 
 627      341AF1
 628 007b 8E5A8ACB 		.ascii	"\216Z\212\313\3274\316\227\205\367\324r42O\324\265\205"
 628      D734CE97 
 628      85F7D472 
 628      34324FD4 
 628      B585
 629 008d 002EAC32 		.ascii	"\000.\2542\217\324J\004Sj5\202Wj-\202\007j=\202gj#\202"
 629      8FD44A04 
 629      536A3582 
ARM GAS  C:\Users\AMANRA~1\AppData\Local\Temp\ccFdT4MI.s 			page 50


 629      576A2D82 
 629      076A3D82 
 630 00a5 176AF33F 		.ascii	"\027j\363?\010\253\310\272\237\233\">;\205\025!\016"
 630      08ABC8BA 
 630      9F9B223E 
 630      3B851521 
 630      0E
 631 00b6 BAE31D91 		.ascii	"\272\343\035\221:\262^\310\032\262\243\017\206y~\274"
 631      3AB25EC8 
 631      1AB2A30F 
 631      86797EBC 
 632 00c6 BD88F964 		.ascii	"\275\210\371d#\021L\277.\347\002I\032\310\333\376\275"
 632      23114CBF 
 632      2EE70249 
 632      1AC8DBFE 
 632      BD
 633 00d7 15F467DF 		.ascii	"\025\364g\337Fl\023y\310R\013\247!\313\353\341_\237"
 633      466C1379 
 633      C8520BA7 
 633      21CBEBE1 
 633      5F9F
 634 00e9 40BFE37B 		.ascii	"@\277\343{\225\004o\355\302\340\007^\355r|"
 634      95046FED 
 634      C2E0075E 
 634      ED727C
 635              		.text
 636              		.section	.gnu.lto_.refs.29debea5,"",%progbits
 637 0000 789C0DC4 		.ascii	"x\234\015\304\261\021\000 \014\0031\373s\230\204!\330"
 637      B1110020 
 637      0C0331FB 
 637      73988421 
 637      D8
 638 0011 7F4C28A4 		.ascii	"\177L(\244H\272\237\027q\355\037\266\003\315\024i\037"
 638      48BA9F17 
 638      71ED1FB6 
 638      03CD1469 
 638      1F
 639 0022 327A0B3A 		.ascii	"2z\013:\000\230"
 639      0098
 640              		.text
 641              		.section	.gnu.lto_.decls.29debea5,"",%progbits
 642 0000 789CCD7C 		.ascii	"x\234\315|\013P\224Y\226f\336\274\231I\002\011\330\352"
 642      0B509459 
 642      9666DEBC 
 642      99490209 
 642      D8EA
 643 0012 F638BDC6 		.ascii	"\3668\275\306DE\205S\315Lw\253huU\367\354\304DUY\325"
 643      44458553 
 643      CD4C77AB 
 643      687555F7 
 643      ECC44455 
 644 0028 55EE56F5 		.ascii	"U\356V\365\324ju\357V\267\3234b\252t+X\220Z\326FlL\362"
 644      D46A75EF 
 644      56B7D334 
 644      62AA742B 
 644      58905AD6 
 645 0040 10104441 		.ascii	"\020\020DAPy\203\200\002\002\012*\"\017\001\001y\012"
ARM GAS  C:\Users\AMANRA~1\AppData\Local\Temp\ccFdT4MI.s 			page 51


 645      50798380 
 645      02020A2A 
 645      220F0101 
 645      790A
 646 0052 22202A6F 		.ascii	"\" *o\001A\360\001\202\274Q\366\334{\377?\377Gf\226"
 646      0141F001 
 646      82BC51F6 
 646      DC7BFF3F 
 646      FF476696 
 647 0066 76CF6EC4 		.ascii	"v\317n\304\022\036\363?\367?\367\234\357\236{\356\271"
 647      121EF33F 
 647      F73FF79C 
 647      EF9E7BEE 
 647      B9
 648 0077 8FFFCFD4 		.ascii	"\217\377\317\324(\024\212\360\377\251P\374\223N\241"
 648      28148AF0 
 648      FFA950FC 
 648      934EA1
 649 0086 D8A35628 		.ascii	"\330\243V(\226\340\317\036\312\256\0039\002\245(\025"
 649      96E0CF1E 
 649      CAAE0339 
 649      02A52815 
 650 0096 8A48A041 		.ascii	"\212H\240A\244P\370\302\247=P*\320\217\341^\032|\226"
 650      A450F8C2 
 650      A73D502A 
 650      D08FE15E 
 650      1A7C96
 651 00a9 C3E74DA0 		.ascii	"\303\347M\240\021\270?\0124\010\327\032('\177\313\200"
 651      11B83F0A 
 651      3408D71A 
 651      28277FCB 
 651      80
 652 00ba 32E03A07 		.ascii	"2\340:\007\350\"\320\025\240B\240\022\240RR\027\250"
 652      E822D015 
 652      A042A012 
 652      A0525217 
 652      A8
 653 00cb 02A806A8 		.ascii	"\002\250\006\250\001\250\031\250\015\250\035\250\013"
 653      01A819A8 
 653      0DA81DA8 
 653      0B
 654 00d8 E8011051 		.ascii	"\350\001\020Q5\000\377=\344t\362\177\277\007\254?\200"
 654      3500FF3D 
 654      E474F27F 
 654      BF07AC3F 
 654      80
 655 00e9 CF3F022D 		.ascii	"\317?\002-\007Z)\306\312a\"\030\337\001\032\202\262"
 655      075A29C6 
 655      CA612218 
 655      DF011A82 
 655      B2
 656 00fa D340C781 		.ascii	"\323@\307\201F\200F\201\006\240\274I\301\360C\323\025"
 656      46804681 
 656      06A0BC49 
 656      C1F043D3 
 656      15
 657 010b 09507614 		.ascii	"\011Pv\024(\024\350\036\360a\004\003|\206\300g/|\366"
ARM GAS  C:\Users\AMANRA~1\AppData\Local\Temp\ccFdT4MI.s 			page 52


 657      2814E81E 
 657      F0610403 
 657      7C86C067 
 657      2F7CF6
 658 011e 01DD07EA 		.ascii	"\001\335\007\352\006:\001e\320T\332.\371\337\177\007"
 658      063A0165 
 658      D054DA2E 
 658      F9DF7F07 
 659 012e 5C5A192E 		.ascii	"\\Z\031.\342;\202\205\340\342\355\"N'\342|$\377\323"
 659      E23B8285 
 659      E0E2ED22 
 659      4E27E27C 
 659      24FFD3
 660 0141 831E070B 		.ascii	"\203\036\007\013\355\023\367\301;\\\033I\333\336\006"
 660      ED13F7C1 
 660      3B5C1B49 
 660      DBDE06
 661 0150 7A0C54CD 		.ascii	"z\014T\315a\213\201O\254`~\177\312\371X\376\267\027"
 661      618B814F 
 661      AC607E7F 
 661      CAF958FE 
 661      B717
 662 0162 6CFCC48A 		.ascii	"l\374\304\212\215A\3167?E\202/\277V0\273\253\271\276"
 662      8D41CE37 
 662      3F45822F 
 662      BF5630BB 
 662      ABB9BE
 663 0175 7F019F63 		.ascii	"\177\001\237c\234\317\017\000\271\002\377;\316\347\247"
 663      9CCF0F00 
 663      B902FF3B 
 663      CEE7A7
 664 0184 453E7E01 		.ascii	"E>~\001\327s\034F{\021\316y\240<\240\005\240[@3`k\021"
 664      D7731C46 
 664      7B11CE79 
 664      A03CA005 
 664      A05B4033 
 665 019b 3EEB815E 		.ascii	">\353\201^)X\177\275$\327@K@\373\225\314'\244\257\370"
 665      29587FBD 
 665      24D7404B 
 665      40FB95CC 
 665      27A4AFF8 
 666 01af FE20EDE4 		.ascii	"\376 \355\344\373$\036\350\031\350x\012\364\034\350"
 666      FB241EE8 
 666      19E8780A 
 666      F41CE8
 667 01be 24F04140 		.ascii	"$\360A@\207\201\234\024,\376\0208\005\003\251\201l\200"
 667      87819C14 
 667      2CFE1038 
 667      0503A981 
 667      6C80
 668 01d0 EC811C80 		.ascii	"\354\201\034\200\234\200~\000\264\002\013\376\272\310"
 668      9C807E00 
 668      B4020BFE 
 668      BAC8
 669 01de C5648305 		.ascii	"\305d\203\005\337\371\200\357\354-\370\216\372\011t"
 669      DFF980EF 
 669      EC2DF88E 
ARM GAS  C:\Users\AMANRA~1\AppData\Local\Temp\ccFdT4MI.s 			page 53


 669      FA0974
 670 01ed FC0FCCDA 		.ascii	"\374\017\314\332\376;\314\374\327\312\305\362\026\340"
 670      FE3BCCFC 
 670      D7CAC5F2 
 670      16E0
 671 01fb BFC0AC6F 		.ascii	"\277\300\254o\012\271\370o\263\240\377;\320o\303\351"
 671      0AB9F86F 
 671      B3A0FF3B 
 671      D06FC3E9 
 672 020b FF3D66BA 		.ascii	"\377=f\272\211O\363\201\266\001_\314\325!zJ\270\261"
 672      894FF381 
 672      B6015FCC 
 672      D5217A4A 
 672      B8B1
 673 021d D5CEF5FD 		.ascii	"\325\316\365\375\200L\337\377\026\305\344\277\211t\361"
 673      804CDFFF 
 673      16C5E4BF 
 673      8974F1
 674 022c 63B693EB 		.ascii	"c\266\223\353o\304\371\226\350,\345\306`\206\025\235"
 674      6FC4F996 
 674      E82CE5C6 
 674      6086159D 
 675 023c BE6AD66E 		.ascii	"\276j\326ny\373I,`\316\017\3079;$\037\210}\362\007\316"
 675      79FB492C 
 675      60CE0FC7 
 675      393B241F 
 675      887DF207 
 676 0251 277D2466 		.ascii	"'}$f\340:\033>U\012\326_\261J\251\217\312\271<\220\303"
 676      E03A1B3E 
 676      550AD65F 
 676      B14AA98F 
 676      CAB93C90 
 677 0266 F98FE401 		.ascii	"\371\217\344\0019\226\0065\253\177@4&\210m\215B\030"
 677      39960635 
 677      AB7F4034 
 677      26886D8D 
 677      4218
 678 0278 D3643C87 		.ascii	"\323d<\207\210\342\301\322\337!5\313\005\3626a\316?"
 678      88E2C1D2 
 678      DF2135CB 
 678      05F23661 
 678      CE3F
 679 028a 7C5BF8B8 		.ascii	"|[\370\270\376#\000\274\012<T\243\270\371\270$y\243"
 679      FE2300BC 
 679      0A3C54A3 
 679      B8F9B824 
 679      79A3
 680 029c 97EB1BD2 		.ascii	"\227\353\033\322\277;0\353kK~\214\302\350v@n<\016\305"
 680      BF3B30EB 
 680      6B4B7E8C 
 680      C2E87640 
 680      6E3C0EC5 
 681 02b0 68B91D52 		.ascii	"h\271\035R\001\373\2741v\300\021\330\225v\350-`\203"
 681      01FBBC31 
 681      76C011D8 
 681      9576E82D 
 681      6083
ARM GAS  C:\Users\AMANRA~1\AppData\Local\Temp\ccFdT4MI.s 			page 54


 682 02c2 1F04B5DA 		.ascii	"\037\004\265\332\261\273\263D:\250\245l%V\"ry\341\320"
 682      B1BBB344 
 682      3AA8A56C 
 682      25562272 
 682      79E1D0
 683 02d5 60A6166E 		.ascii	"`\246\026n\255\266CK\210\360O\012\347\034\030On\017"
 683      ADB6434B 
 683      88F04F0A 
 683      E71C184F 
 683      6E0F
 684 02e7 4F7436D8 		.ascii	"Ot6\330b[z\235\357\033R\202\326f\033\331\2376\016+P"
 684      625B7A9D 
 684      EF1B5282 
 684      D6661BD9 
 684      9F360E2B 
 685 02fc 21190A0C 		.ascii	"!\031\012\014\301\345\362\311\034\025\376\212H*\363"
 685      C1E5F2C9 
 685      1C15FE8A 
 685      482AF3
 686 030b 7206FF84 		.ascii	"r\006\377\204\234\355\316\022\271\362\231\270\265\207"
 686      9CEDCE12 
 686      B9F299B8 
 686      B587
 687 0319 828C4625 		.ascii	"\202\214F%\272\206\354P1\302\250\010\255%\201\262\332"
 687      BA86EC50 
 687      31C2A808 
 687      AD2581B2 
 687      DA
 688 032a 0EFE0F36 		.ascii	"\016\376\0176\032\375\214\306T#^\245@\033W\243\365\253"
 688      1AFD8CC6 
 688      54235EA5 
 688      401B57A3 
 688      F5AB
 689 033c 15A80439 		.ascii	"\025\250\0049\023\353D\012]E\253Q\001ZM\364g&eT9\340"
 689      13EB440A 
 689      5D45AB51 
 689      015A4DF4 
 689      67266554 
 690 0352 1B881AE8 		.ascii	"\033\210\032\350\311\031k\302&\013c\205o_:D,\224\203"
 690      C9196BC2 
 690      260B6385 
 690      6F5F3A44 
 690      2C9483
 691 0365 8552C102 		.ascii	"\205R\301\002\030\264l\242\314\262\211\245\221\373\251"
 691      18B46CA2 
 691      CCB289A5 
 691      91FBA9
 692 0374 B6CC4DE3 		.ascii	"\266\314M\343\204\317\236\316\031E8\2239\352Y\300\303"
 692      84CF9ECE 
 692      19453893 
 692      39EA59C0 
 692      C3
 693 0385 3E7B7673 		.ascii	">{vs\025\260-\3437\0238v\031\260}\307\217\227\332\343"
 693      15B02DE3 
 693      37133876 
 693      19B07DC7 
 693      8F97DAE3 
ARM GAS  C:\Users\AMANRA~1\AppData\Local\Temp\ccFdT4MI.s 			page 55


 694 0399 0B4CB4BB 		.ascii	"\013L\264\27363\213t\306\217\301\247\360\347$r\353\217"
 694      36338B74 
 694      C68FC1A7 
 694      F0E72472 
 694      EB8F
 695 03ab 995B5B8E 		.ascii	"\231[[\216M\244\331\340KT\\\331{\177\241\313\021\331"
 695      4DA4D9E0 
 695      4B545CD9 
 695      7B7FA1CB 
 695      11D9
 696 03bd 3953A0C9 		.ascii	"9S\240\311\376F\333\317\024\3502\240\272\004\250P=@"
 696      FE46DBCF 
 696      14E832A0 
 696      BA04A850 
 696      3D40
 697 03cf FD3107B5 		.ascii	"\3751\007\265\006\012\253\241\220\367\353\277\304L\030"
 697      060AABA1 
 697      90F7EBBF 
 697      C44C18
 698 03de 8D6FA13A 		.ascii	"\215o\241:hu\255\320\352\037\333\261\016\311L\213H\321"
 698      6875ADD0 
 698      EA1FDBB1 
 698      0EC94C8B 
 698      48D1
 699 03f0 E05266A3 		.ascii	"\340Rf\2438\356\341\015\2455\033\215Vm\200g\253\251"
 699      38EEE10D 
 699      A5351B8D 
 699      566D8067 
 699      ABA9
 700 0402 676F828D 		.ascii	"go\202\215\006\301F\035\342\214D\267\344}b\007J\375"
 700      06C1461D 
 700      E28C44B7 
 700      E47D6207 
 700      4AFD
 701 0414 DF482954 		.ascii	"\337H)Th+\274\023l\217k\230\243b\213_\324\253\231\023"
 701      682BBC13 
 701      6C8F6B98 
 701      A3628B5F 
 701      D4AB9913 
 702 0428 B5244CF3 		.ascii	"\265$L\363\362\242\355q\003\273w\261=\243X\213oq\316"
 702      F2A2ED71 
 702      03BB77B1 
 702      3DA3588B 
 702      6F71CE
 703 043b 9F0AE957 		.ascii	"\237\012\351W\341V\306L\304V?\266\303\355\214\271z\355"
 703      E156C64C 
 703      C4563FB6 
 703      C3ED8CB9 
 703      7AED
 704 044d E906A661 		.ascii	"\351\006\246a5pE\335\317\313\355Y\334\367\221hn\037"
 704      357045DD 
 704      CFCBED59 
 704      DCF79168 
 704      6E1F
 705 045f F1F5D5E2 		.ascii	"\361\365\325\342\373T\324\266na\276\311\021\255Y\263"
 705      FB54D4B6 
 705      6E61BEC9 
ARM GAS  C:\Users\AMANRA~1\AppData\Local\Temp\ccFdT4MI.s 			page 56


 705      11AD59B3 
 706 046f 62CD9A35 		.ascii	"b\315\2325\316k\326\244\030\003\374\301\213\235?\255"
 706      CE6BD6A4 
 706      1803FCC1 
 706      8B9D3FAD 
 707 047f 4B0D0933 		.ascii	"K\015\0113&W \324\004\215l\201Fv\240\025B;\232\341?"
 707      265720D4 
 707      048D6C81 
 707      4676A015 
 707      423B9AE1 
 708 0494 057221F3 		.ascii	"\005r!\363\025\253Q_\207c\215\345\001\230\212\267\311"
 708      15AB515F 
 708      87638DE5 
 708      01988AB7 
 708      C9
 709 04a5 C5D799A4 		.ascii	"\305\327\231\244#\210\007\303\201\220J\201\332\341\376"
 709      238807C3 
 709      81904A81 
 709      DAE1FE
 710 04b4 1DAA8948 		.ascii	"\035\252\211H\203SP\017\370\347>Z\203\272\201\356\001"
 710      8353500F 
 710      F8E73E5A 
 710      83BA81EE 
 710      01
 711 04c5 F5017501 		.ascii	"\365\001u\001\365\002u\2425tX1\203\363b\203w\345\006"
 711      F50275A2 
 711      35745831 
 711      83F36283 
 711      77E506
 712 04d8 2BE5F846 		.ascii	"+\345\370F\305\342\267\344\342Ur\361\026\261x\253\305"
 712      C5E2B7E4 
 712      E25572F1 
 712      16B178AB 
 712      C5
 713 04e9 E65C2675 		.ascii	"\346\\&u\270\210xU\213c\214\306eDJ\301E\203\200t\272"
 713      B8887855 
 713      8B638CC6 
 713      65444AC1 
 713      45838074 
 714 04fe 0E675E36 		.ascii	"\016g^6\032\017k\250\262\033\226m3m\254B\277\330\370"
 714      1A0F6BA8 
 714      B21B966D 
 714      336DAC42 
 714      BFD8F8
 715 0511 6DCBAE67 		.ascii	"m\313\256g\362\320\231\265\335yQ\030\307b\032\320\251"
 715      F2D099B5 
 715      DD795118 
 715      C7621AD0 
 715      A9
 716 0522 5975A7EC 		.ascii	"Yu\247\354\220\363\012\206\252\272\036\373\203\243\321"
 716      90F30A86 
 716      AABA1EFB 
 716      83A3D1
 717 0531 00547F20 		.ascii	"\000T\177 \204)\001i\245#P?\370\377/\351\013\022\205"
 717      84290169 
 717      A523503F 
 717      F8FF2FE9 
ARM GAS  C:\Users\AMANRA~1\AppData\Local\Temp\ccFdT4MI.s 			page 57


 717      0B1285
 718 0544 B7464B6D 		.ascii	"\267FKmu!\246!D\315\361h\025h\020\3518A\277\342\373"
 718      7521A621 
 718      44CDF168 
 718      156810E9 
 718      3841BFE2 
 719 0559 114E2C2A 		.ascii	"\021N,*\373\010\177e\250\256\332\216\205\245\221\204"
 719      FB087F65 
 719      A8AEDA8E 
 719      85A59184 
 720 0569 E5F5D0F2 		.ascii	"\345\365\320\362\223Z\234A[\202\316O\2748\257a\302$"
 720      935A9C41 
 720      5B82CE4F 
 720      BC38AF61 
 720      C224
 721 057b 5344745F 		.ascii	"SDt_\237w C\312\310\031\201r\301\306\010\031x\320+\350"
 721      9F772043 
 721      CAC81981 
 721      72C1C608 
 721      1978D02B 
 722 0590 111B4E89 		.ascii	"\021\033N\211\201\013\017\264\313\303\271\026~\200h"
 722      810B0FB4 
 722      CBC3B916 
 722      7E8068
 723 059f 0A1C0271 		.ascii	"\012\034\002q\346\353Q\264\234\257D\244[\207N\007\350"
 723      E6EB51B4 
 723      9CAF44A4 
 723      5B874E07 
 723      E8
 724 05b0 98A966C2 		.ascii	"\230\251f\302\367D\314L\331\341,\206\243\270\240\244"
 724      F744CC4C 
 724      D9E12C86 
 724      A3B8A0A4 
 725 05c0 9A1B8CEB 		.ascii	"\232\033\214\353\201\235-\271\235\242d\354\032`\317"
 725      819D2DB9 
 725      9DA264EC 
 725      1A60CF
 726 05cf 9587D662 		.ascii	"\225\207\326b\326\204d%Q\025\321\221\250\302\347YU~"
 726      D6846425 
 726      5115D191 
 726      A8C2E759 
 726      557E
 727 05e1 BA59CEA6 		.ascii	"\272Y\316\246\233\220\207\376\376:\234\317\356\225\365"
 727      9B9087FE 
 727      FE3A9CCF 
 727      EE95F5
 728 05f0 CD24DBE1 		.ascii	"\315$\333\341R\306\234\273\234}\326I\354A\002Wh\335"
 728      52C69CBB 
 728      9C7DD649 
 728      EC410257 
 728      68DD
 729 0602 0B93070F 		.ascii	"\013\223\007\017\207\274\270h\217\253Y\255\333!/\263"
 729      87BCB868 
 729      8FAB59AD 
 729      DB212FB3 
 730 0612 B4B88931 		.ascii	"\264\270\2111\243=y\351j\334\306\230\271\207\307\214"
 730      A33D79E9 
ARM GAS  C:\Users\AMANRA~1\AppData\Local\Temp\ccFdT4MI.s 			page 58


 730      6ADCC698 
 730      B987C78C 
 731 0622 0EB81B4B 		.ascii	"\016\270\033K\322\356\327\346i\367k\226v\323\346\306"
 731      D2EED7E6 
 731      69F76B96 
 731      76D3E6C6 
 732 0632 0A747898 		.ascii	"\012tx\230EPc\363L\221\326ZJ|\011\021\3615\227\275\346"
 732      455063F3 
 732      4C91D65A 
 732      4A7C0911 
 732      F13597BD 
 733 0647 A1704E48 		.ascii	"\241pNH\273/\337.\356!iw\021\240/\010\261\3665\347\343"
 733      BB2FDF2E 
 733      EE216977 
 733      11A02F08 
 733      B1F635E7 
 734 065c BED1C03E 		.ascii	"\276\321\300>\245\345\224hI)\324(x\226U\340\300\\[N"
 734      A5E59468 
 734      4929D428 
 734      789655E0 
 734      C05C5B4E 
 735 0670 F88AA7E1 		.ascii	"\370\212\247\341i\030\267\252(\344\360\256\271\022{"
 735      6918B7AA 
 735      28E4F0AE 
 735      B9127B
 736 067f DCCD185E 		.ascii	"\334\315\030^r9'\2311\024\177\224\353\317_\220\334\332"
 736      72392799 
 736      31147F94 
 736      EBCF5F90 
 736      DCDA
 737 0691 DC7306E3 		.ascii	"\334s\006\343~&k\214ZHr\300\217)\243\034\363\217;cu"
 737      7E266B8C 
 737      5A4872C0 
 737      8F29A31C 
 737      F38F3B63 
 738 06a6 8A09525A 		.ascii	"\212\011RZK\377\275\211\270g\236\2645Pi\207\016)Mm\275"
 738      4BFFBD89 
 738      B8679EB4 
 738      35506987 
 738      0E294D6D 
 739 06bb C90754D7 		.ascii	"\311\007T\327\245\260J-\316WS\213Y3\001\371N\370\032"
 739      A5B04A2D 
 739      CE57538B 
 739      593301F9 
 739      4EF81A
 740 06ce 63E6230B 		.ascii	"c\346#\013\363\355q%c\256\277\274\037o\207\353\030\263"
 740      F3ED7125 
 740      63AEBFBC 
 740      1F6F87EB 
 740      18B3
 741 06e0 78E6D63D 		.ascii	"x\346\326=-\276\315\030\377\301\204\007\216\270\203"
 741      2DBECD18 
 741      FFC18407 
 741      8EB883
 742 06ef 31D5C702 		.ascii	"1\325\307\002\216\330\341\001\312(\247n?\211\321X\203"
 742      8ED8E101 
 742      CA28A76E 
ARM GAS  C:\Users\AMANRA~1\AppData\Local\Temp\ccFdT4MI.s 			page 59


 742      3F89D158 
 742      83
 743 0700 1C6E1572 		.ascii	"\034n\025r\275\346\003t\014\320\036\265\2006n\262{\204"
 743      BDE60374 
 743      0CD01EB5 
 743      80366EB2 
 743      7B84
 744 0712 9BDF9DC9 		.ascii	"\233\337\235\311\004Y4yF\203\307\230\355\376\245W\177"
 744      04593479 
 744      4683C798 
 744      EDFEA557 
 744      7F
 745 0723 C2B3ECFA 		.ascii	"\302\263\354\372p\366\341jGl\324P&\245\254\370\211\015"
 745      70F6E16A 
 745      476CD450 
 745      26A5ACF8 
 745      890D
 746 0735 0E674CC6 		.ascii	"\016gL\306h\357\"\306I\214y\320U\223\353\210O3\246x"
 746      68EF22C6 
 746      498C79D0 
 746      5593EB88 
 746      4F33A678 
 747 0749 26AED809 		.ascii	"&\256\330\011g0\246q`i\302\016_`LA\354\253r\025\276"
 747      6730A671 
 747      6069C20E 
 747      5F604C41 
 747      ECAB7215 
 748 075e C2984361 		.ascii	"\302\230Ca9\247H&\320\260\030\265\201\242\301\361\371"
 748      39A74826 
 748      D0B018B5 
 748      81A2C1F1 
 748      F9
 749 076f 2B2A5644 		.ascii	"+*VDZp\020\212\022b\272\362\034q\021\255\242,m\275\032"
 749      5A70108A 
 749      1262BAF2 
 749      1C7111AD 
 749      A22C6DBD 
 750 0784 E0205A4D 		.ascii	"\340 ZM\275\0273N\272$\011\032\231 4R\303-u\214f\276"
 750      BD17334E 
 750      BA24091A 
 750      99203452 
 750      C32D758C 
 751 079a 4A045F69 		.ascii	"J\004_i8_\305+W\2438%\215\272\211\271\361\313*\\\305"
 751      385FC52B 
 751      57A33825 
 751      8DBA89B9 
 751      F1CB2A5C 
 752 07af 6C5C8A5C 		.ascii	"l\\\212\\\214v\024\255\2476\344\323Y?EIF\273\311\006"
 752      8C7614AD 
 752      A736E4D3 
 752      593F4549 
 752      46BBC906 
 753 07c3 98B466E4 		.ascii	"\230\264f\344\264e#\017\214\0131:|"
 753      B465230F 
 753      8C0B313A 
 753      7C
 754 07d0 931989AB 		.ascii	"\223\031\211\253H\201\025\017o\004b\3531\215\2553`$"
ARM GAS  C:\Users\AMANRA~1\AppData\Local\Temp\ccFdT4MI.s 			page 60


 754      4881150F 
 754      6F0462EB 
 754      318DAD33 
 754      6024
 755 07e2 55309262 		.ascii	"U0\222b\335H\232e#\241'\236\236u\304-\314\301\013\217"
 755      DD489A65 
 755      23A1279E 
 755      9E75C42D 
 755      CCC10B8F 
 756 07f6 A2EE23D6 		.ascii	"\242\356#\326\307:Q&^\311e\342\226\371\340W*\334\313"
 756      C73A5126 
 756      5EC965E2 
 756      96F9E057 
 756      2ADCCB
 757 0809 64EF1E69 		.ascii	"d\357\036i\355\324\340a\206\256\240\241kAXR\316\253"
 757      EDD4E061 
 757      86AEA0A1 
 757      6B415852 
 757      CEAB
 758 081b 3F40D900 		.ascii	"?@\331\000\354\334\033\001\313\262\014\254\372V\362"
 758      ECDC1B01 
 758      CBB20CAC 
 758      FA56F2
 759 082a A4163F65 		.ascii	"\244\026?e\306\012#\216?\325\342I\306\364D\207\026\333"
 759      C60A238E 
 759      3FD5E249 
 759      C6F44487 
 759      16DB
 760 083c E3401BCA 		.ascii	"\343@\033\312\224\036\233\270j\213\303\030\0234\333"
 760      941E9BB8 
 760      6A8BC318 
 760      1334DB
 761 084b 9FEB844F 		.ascii	"\237\353\204O2\206_d\256d\213\314Q\377\362\007*\234"
 761      32865F64 
 761      AE648BCC 
 761      51FFF207 
 761      2A9C
 762 085d C0EEF945 		.ascii	"\300\356\371E\266f\333\342\024\312(\375n\204\337\266"
 762      B666DBE2 
 762      14CA28FD 
 762      6E84DFB6 
 763 086d E1078B74 		.ascii	"\341\007\213t\255{Ei\276\326em\354\2076\346C\033/\013"
 763      AD7B4569 
 763      BED6656D 
 763      EC8736E6 
 763      431B2F0B 
 764 0881 6D2CE787 		.ascii	"m,\347\207\312\211\330\241U\370\034\263\024z\344\325"
 764      CA89D8A1 
 764      55F81CB3 
 764      147AE4D5 
 765 0891 058C7399 		.ascii	"\005\214s\231\245\247G3\0124\226-\025Y\265\324\002\226"
 765      A5A74733 
 765      0A34962D 
 765      1559B5D4 
 765      0296
 766 08a3 0AC1D255 		.ascii	"\012\301\322U\013\226\272\023\306&U\370*3\225Vy\341"
 766      0B96BA13 
ARM GAS  C:\Users\AMANRA~1\AppData\Local\Temp\ccFdT4MI.s 			page 61


 766      C62655F8 
 766      2A339556 
 766      79E1
 767 08b5 B60D2E65 		.ascii	"\266\015.e\246\356O5D\012\361\322\001:JAG\211\\\207"
 767      A6EE4F35 
 767      440AF1D2 
 767      013A4A41 
 767      47895C87 
 768 08c9 0524D72C 		.ascii	"\005$\327, !9)*z#\256a\226\236\236i\272Hr\201\263\035"
 768      20213929 
 768      2A7A23AE 
 768      61969E9E 
 768      69BA4872 
 769 08e0 FA77D144 		.ascii	"\372w\321D\341\314&\212\370\210\376S\266\270\211\341"
 769      E1CC268A 
 769      F888FE53 
 769      B6B889E1 
 770 08f0 8899BABC 		.ascii	"\210\231\272\274`J\236\271\376\306\037\370\272(`\263"
 770      604A9EB9 
 770      FEC61FF8 
 770      BA2860B3 
 771 0900 B49AAE4F 		.ascii	"\264\232\256OP\025\330r\346l]\207\276/W\012\013\364"
 771      5015D872 
 771      E66C5D87 
 771      BE2F570A 
 771      0BF4
 772 0912 7712E802 		.ascii	"w\022\350\002\275\022`W\010\260\235\271\226\007\005"
 772      BD126057 
 772      08B09DB9 
 772      960705
 773 0921 641CB3C7 		.ascii	"d\034\263\307\367\231\221\250c\375\2356\342\021XCG`"
 773      F79991A8 
 773      63FD9D36 
 773      E2115843 
 773      4760
 774 0933 0D54BD21 		.ascii	"\015T\275!T\255T\232Zl\006\244\332\002\020\022j\027"
 774      54AD549A 
 774      5A6C06A4 
 774      DA021012 
 774      6A17
 775 0945 3AAB54B8 		.ascii	":\253T\270\237Y\231:\3744\331zS\352\2556e\354%\356\256"
 775      9F59993A 
 775      FC34D97A 
 775      53EAAD36 
 775      65EC25EE 
 776 095a 84695B85 		.ascii	"\204i[\205\352\000P\255\000\250F\3115\246\350\310T\200"
 776      EA0050AD 
 776      00A846C9 
 776      35A6E8C8 
 776      5480
 777 096c BD786627 		.ascii	"\275xf'\202\302\314\336\2404\255\215\372\257\264#\234"
 777      82C2CCDE 
 777      A034AD8D 
 777      FAAFB423 
 777      9C
 778 097d ACA57EBE 		.ascii	"\254\245~\2763{m^\207\317PF\225\355\177n\\\205\234W"
 778      337B6D5E 
ARM GAS  C:\Users\AMANRA~1\AppData\Local\Temp\ccFdT4MI.s 			page 62


 778      87CF5046 
 778      95ED7F6E 
 778      5C859C57 
 779 0991 23A88598 		.ascii	"#\250\205\230#\310>S\201n\203\252F%\346\267\273\261"
 779      23C83E53 
 779      816E83AA 
 779      4625E6B7 
 779      BBB1
 780 09a3 46803FFE 		.ascii	"F\200?\376\357\244\030\256\265\364\323B\0204Ak\310-"
 780      EFA418AE 
 780      B5F4D342 
 780      1034416B 
 780      C82D
 781 09b5 5847425B 		.ascii	"XGB[n1o\344\305\327\316\331\332q\322\301\257\223~0\273"
 781      6E316FE4 
 781      C5D7CED9 
 781      DA71D2C1 
 781      AF937E30 
 782 09ca 54A51337 		.ascii	"T\245\0237\252E\322\250VS\243\2567\372g\332\343s\254"
 782      AA45D2A8 
 782      5653A3AE 
 782      37FA67DA 
 782      E373AC
 783 09dd 51FD2F4F 		.ascii	"Q\375/O\017\332\340\\\306\314F\327\2459\340+\2149\236"
 783      0FDAE05C 
 783      C6CC46D7 
 783      A539E02B 
 783      8C399E
 784 09f0 DD7C5783 		.ascii	"\335|W\203\213\030\323s\376U\211\006_cLR\327\363\034"
 784      8B18D373 
 784      FE558906 
 784      5F634C52 
 784      D7F31C
 785 0a03 1B5C4E19 		.ascii	"\033\\N\031e\373\322\243G\220\276\234E\206\377\370C"
 785      65FBD2A3 
 785      4790BE9C 
 785      4586FFF8 
 785      43
 786 0a14 21DB7402 		.ascii	"!\333t\002TW\035\327\003\254\177\236\305\377\235/Y\377"
 786      54571DD7 
 786      03AC7F9E 
 786      C5FF9D2F 
 786      59FF
 787 0a26 762875E8 		.ascii	"v(u\350\276\320;\256:\006\257\340\301\2112n\342\273"
 787      BED03BAE 
 787      3A06AFE0 
 787      C189326E 
 787      E2BB
 788 0a38 47D7287E 		.ascii	"G\327(~\325\255Z\\\307L?\177\326\266\350\200\033\031"
 788      D5AD5A5C 
 788      C74C3F7F 
 788      D6B6E880 
 788      1B19
 789 0a4a 639C2BED 		.ascii	"c\234+\355\320\340\333\214\351<1\333g\213\333\030\023"
 789      D0E0DB8C 
 789      E93C31DB 
 789      678BDB18 
ARM GAS  C:\Users\AMANRA~1\AppData\Local\Temp\ccFdT4MI.s 			page 63


 789      13
 790 0a5b 7A23BF9A 		.ascii	"z#\277\232;a\250\245\253\361;\241e*|\227\335Lo\3503"
 790      3B61A8A5 
 790      ABF13BA1 
 790      652A7C97 
 790      DD4C6FE8 
 791 0a70 AA710763 		.ascii	"\252q\007cJB\032\026\265\270\2331\261EA~v\270\2171\355"
 791      4A421A16 
 791      B5B89B31 
 791      B145417E 
 791      76B88F31 
 792 0a85 F51D21F6 		.ascii	"\365\035!\366x\2001\025wRn\251\3610c\"'g\263\021~\314"
 792      78803115 
 792      77526EA9 
 792      F1306322 
 792      2767B311 
 793 0a9b 9887173B 		.ascii	"\230\207\027;\033m\360\030c\222\013{\3534x\2221\023"
 793      1B6DF018 
 793      63920B7B 
 793      EB347892 
 793      3113
 794 0aad 35F1DFE2 		.ascii	"5\361\337\342\031v\035|\271\343\270\035^`Lj\321\223"
 794      19761D7C 
 794      B9E3B81D 
 794      5E604C6A 
 794      D193
 795 0abf EB182F31 		.ascii	"\353\030/1f>(\357\210-\366g\247\026\303\365a\033q\020"
 795      663E28EF 
 795      882DF667 
 795      A716C3F5 
 795      611B7110 
 796 0ad3 BB8E1F59 		.ascii	"\273\216\037Y2\340Pv\235=P\\j\203\2171&\272'/@\205#"
 796      32E05076 
 796      9D3D505C 
 796      6A838F31 
 796      26BA272F 
 797 0aea 19733771 		.ascii	"\031s7q~\336\036\237bLoX\317\357p\034\273.k\017Y\324"
 797      7EDE1E9F 
 797      624C6F58 
 797      CFEF701C 
 797      BB2E6B0F 
 798 0b00 E124C664 		.ascii	"\341$\306d-M\036\323\341T\306\324\247NWpk\347A\272."
 798      2D4D1ED3 
 798      E154C6D4 
 798      A74E5770 
 798      6BE741BA 
 799 0b15 CD7BFE42 		.ascii	"\315{\376B\313\255\2265Q\370?\037>\333U\204`\353\271"
 799      CBAD9635 
 799      51F83F1F 
 799      3EDB5584 
 799      60EBB9
 800 0b28 86ED3EC5 		.ascii	"\206\355>\305\177\316\364\377\024\322\325\345K9\352"
 800      7FCEF4FF 
 800      14D2D5E5 
 800      4B39EA
 801 0b37 AE2C6E33 		.ascii	"\256,n3J\272\362!t\345+\245hG\344\247\024\355\336H\215"
 801      4ABAF221 
ARM GAS  C:\Users\AMANRA~1\AppData\Local\Temp\ccFdT4MI.s 			page 64


 801      74E52BA5 
 801      6847E4A7 
 801      14EDDE48 
 802 0b4c FA6D6CFF 		.ascii	"\372ml\377D\244\307\344\322\222\255!\221\256\3707A\372"
 802      44A4C7E4 
 802      D292AD21 
 802      91AEF837 
 802      41FA
 803 0b5e 915CFAA9 		.ascii	"\221\\\372\251dwF\304;\376 \210w\313\305\273\224r\361"
 803      647746C4 
 803      3BFE2088 
 803      77CBC5BB 
 803      9472F1
 804 0b71 5191F641 		.ascii	"Q\221\366A\313\310\231\270dC6\013\303m\006n\242i\256"
 804      CBC899B8 
 804      6443360B 
 804      C36D066E 
 804      A269AE
 805 0b84 0AD9901D 		.ascii	"\012\331\220\035\305\316(\034\257A!@\276@\201@\221@"
 805      C5CE281C 
 805      AF412140 
 805      BE408140 
 805      9140
 806 0b96 4780E695 		.ascii	"G\200\346\225k\320!\370<\006d\004\012\006\012\003\012"
 806      6BD021F8 
 806      3C066404 
 806      0A060A03 
 806      0A
 807 0ba7 055A807B 		.ascii	"\005Z\200{A\360\351\0074\007\327/\201\226\200\002\200"
 807      41F0E907 
 807      3407D72F 
 807      81968002 
 807      80
 808 0bb8 F7073A0C 		.ascii	"\367\007:\014t\034h\021\312\"0\277\311&\340'D\340\007"
 808      741C6811 
 808      CA2230BF 
 808      C926E027 
 808      44E007
 809 0bcb E4E01FC8 		.ascii	"\344\340\037\310\335\336/r\373\023\271\364s3G\216\376"
 809      DDDE2F72 
 809      FB13B9F4 
 809      7333478E 
 809      FE
 810 0bdc 5E109F94 		.ascii	"^\020\237\224\2137\313{\251E\004eH.\355o\346\366\012"
 810      8B37CB7B 
 810      A9450465 
 810      482EED6F 
 810      E6F60A
 811 0bef 512FF5C9 		.ascii	"Q/\365\311\305\037\313\225\317\213\224\367[n\247Xy\213"
 811      C51FCB95 
 811      CF8B94F7 
 811      5B6EA758 
 811      798B
 812 0c01 A8A1CF2C 		.ascii	"\250\241\317,\307\227X|B\324\320\011\313\015\025\213"
 812      C797587C 
 812      42D4D009 
 812      CB0D158B 
ARM GAS  C:\Users\AMANRA~1\AppData\Local\Temp\ccFdT4MI.s 			page 65


 813 0c11 D78BC00C 		.ascii	"\327\213\300\014[n\251\010\372\250\010\313c\271t\204"
 813      5B6EA908 
 813      FAA808CB 
 813      63B97484 
 814 0c21 D9C810B9 		.ascii	"\331\310\020\271\245\327\262[\304P\372E\310_\310\305"
 814      A5D7B25B 
 814      C450FA45 
 814      C85FC8C5 
 815 0c31 D7C9A5E7 		.ascii	"\327\311\245\347EPF,\017$\361\260\023I\217\313\245\253"
 815      4550462C 
 815      0F24F1B0 
 815      13498FCB 
 815      A5AB
 816 0c43 CC9D2812 		.ascii	"\314\235(\022\037\265\334N\361\211LS\3472\232\373AL"
 816      1FB5DC4E 
 816      F1894C53 
 816      E7329AFB 
 816      414C
 817 0c55 7A224374 		.ascii	"z\"Ct\365t-O\3617\326\256\247\312\236Z\216T\021\322"
 817      F5742D4F 
 817      F137D6AE 
 817      A7CA9E5A 
 817      8E5411D2 
 818 0c69 0E9117A6 		.ascii	"\016\221\027\246,zA<\010D\036\276'\027~h\026\325\"\351"
 818      2C7A413C 
 818      08441EBE 
 818      27177E68 
 818      16D522E9 
 819 0c7d 1ECBC944 		.ascii	"\036\313\311D\034\246\" \317-\273\314\205;\026\272\037"
 819      1CA62220 
 819      CF2DBBCC 
 819      853B16BA 
 819      1F
 820 0c8e 9F50E420 		.ascii	"\237P\344 \236\244\305\262\012\024\205\371I\272\247"
 820      9EA4C5B2 
 820      0A1485F9 
 820      49BAA7
 821 0c9d 2465C601 		.ascii	"$e\306\001\017\321\214\215\307_%\365\252\221\363\212"
 821      0FD18C8D 
 821      C75F25F5 
 821      AA91F38A 
 822 0cad 35A6054E 		.ascii	"5\246\005N\314\241@\262\3009\205%n\214\340\326\3734"
 822      CCA140B2 
 822      C0398525 
 822      6E8CE0D6 
 822      FB34
 823 0cbf 5799109C 		.ascii	"W\231\020\234\300\230\010\322\\u\022rU\264$\227\264"
 823      C09808D2 
 823      5C751272 
 823      55B42497 
 823      B4
 824 0cd0 67FE1D73 		.ascii	"g\376\035s:\330Fw\225L\324\202\033\311,\3427\374\024"
 824      3AD84677 
 824      954CD482 
 824      1BC92CE2 
 824      37FC14
 825 0ce3 E349368B 		.ascii	"\343I6\213<\036\312jW\342Yn\256\352\255\350\341\346"
ARM GAS  C:\Users\AMANRA~1\AppData\Local\Temp\ccFdT4MI.s 			page 66


 825      3C1ECA6A 
 825      57E2596E 
 825      AEEAADE8 
 825      E1E6
 826 0cf5 EC2A7A86 		.ascii	"\354*z\206\324\033uX\307M)\344\210\177xz\272]\203\375"
 826      D41B7558 
 826      C74D29E4 
 826      887F787A 
 826      BA5D83FD 
 827 0d09 D87AF5D2 		.ascii	"\330z\365\322Rf \306\301\214\251\032h\255U\343\010\306"
 827      526620C6 
 827      C18CA91A 
 827      68AD55E3 
 827      08C6
 828 0d1b 24573CF8 		.ascii	"$W<\370\031Na\327E'J`\013\222N\231\177N\216|\222\345"
 828      194E61D7 
 828      45274A60 
 828      0B924E99 
 828      7F4E8E7C 
 829 0d31 8456ACD1 		.ascii	"\204V\254\321\255 S\222\216^\254!\327\316\360G\346)"
 829      AD205392 
 829      8E5EAC21 
 829      D7CEF047 
 829      E629
 830 0d43 F87FE51A 		.ascii	"\370\177\345\032z\207\314Q:\235\263i\262b\363\226\263"
 830      7A87CC51 
 830      3A9DB369 
 830      B262F396 
 830      B3
 831 0d54 65D74441 		.ascii	"e\327DA{S8\327\\\003\327\244J\\\263\324\244~Yy\224\315"
 831      7B5338D7 
 831      5C03D7A4 
 831      4A5CB3D4 
 831      A47E5979 
 832 0d6a 7069E01D 		.ascii	"pi\340\035_N\332\202wD=z\006\213{\224\324c\035$\231"
 832      5F4EDA82 
 832      77443D7A 
 832      068B7B94 
 832      D4631D24 
 833 0d7f 48E2316C 		.ascii	"H\3421l\2740\250\350\006\253\351\034\202.\270\356\204"
 833      BC30A8E8 
 833      06ABE91C 
 833      822EB8EE 
 833      84
 834 0d90 84DF0174 		.ascii	"\204\337\001t\037\350\036\320]\240v\240;@m@\255@-@e"
 834      1FE81ED0 
 834      5DA076A0 
 834      3B406D40 
 834      AD402D40 
 835 0da5 40C54045 		.ascii	"@\305@E@\205@\231@\031@g\245\023\305\347,2a\005\226"
 835      40854099 
 835      40194067 
 835      A513C5E7 
 835      2C326105 
 836 0dba 0051908E 		.ascii	"\000Q\220\216-O\317\226\241\305r5\376\337@{\325\260"
 836      2D4FCF96 
 836      A1C57235 
ARM GAS  C:\Users\AMANRA~1\AppData\Local\Temp\ccFdT4MI.s 			page 67


 836      FEDF407B 
 836      D5B0
 837 0dcc 3C95C61D 		.ascii	"<\225\306\0359\256\011P\312\300\231\317\034=\015+\231"
 837      39AE0950 
 837      CAC099CF 
 837      1C3D0D2B 
 837      99
 838 0ddd FC39F068 		.ascii	"\3749\360h\260eyyWdI\272\342\034\033\\\222\306\362\247"
 838      B0657979 
 838      576449BA 
 838      E21C1B5C 
 838      92C6F2A7 
 839 0df1 8FE80868 		.ascii	"\217\350\010h\314\342\032[\000\215\315\005\300\027\200"
 839      CCE21A5B 
 839      008DCD05 
 839      C01780
 840 0e00 B225A01B 		.ascii	"\262%\240\033\272\324\257\330\231q\016\027\017b\023"
 840      BAD4AFD8 
 840      99710E17 
 840      0F6213
 841 0e0f 92494304 		.ascii	"\222IC\004\343\274\004F\316\367\301\270\012\246_\017"
 841      E3BC0446 
 841      CEF7C1B8 
 841      0AA65F0F 
 842 0e1f A33F1D1B 		.ascii	"\243?\035\033\323V\321\330:l\031\003\237\235 [\264\237"
 842      D356D1D8 
 842      3A6C1903 
 842      9F9D205B 
 842      B49F
 843 0e31 B2F1A541 		.ascii	"\262\361\245A\220\007b!\234\270i\033e\345\021\200\351"
 843      90076221 
 843      9CB8691B 
 843      65E51180 
 843      E9
 844 0e42 FE150071 		.ascii	"\376\025\000q\211\003\224\017\327\227\001\314E\371("
 844      8903940F 
 844      D79701CC 
 844      45F928
 845 0e51 09BB211A 		.ascii	"\011\273!\032%\311\0206\227\314F\211\205\305\224\311"
 845      25C91036 
 845      97CC4689 
 845      85C594C9 
 846 0e61 461257C3 		.ascii	"F\022W\303\272\215~g\026\307\374(4\327\357\"\3141=\031"
 846      BA8D7E67 
 846      16C7FC28 
 846      34D7EF22 
 846      CC313D19 
 847 0e75 6C8EB924 		.ascii	"l\216\271$M\216\354\346\335\021uX\352q\222;\211;Nc\323"
 847      4D8EECE6 
 847      DD117558 
 847      EA71923B 
 847      893B4E63 
 848 0e8a F68348F3 		.ascii	"\366\203H\363B\267\272\324s\271d3\234eI\305\320I\033"
 848      42B7BAD4 
 848      73B96433 
 848      9C6549C5 
 848      D0491B
ARM GAS  C:\Users\AMANRA~1\AppData\Local\Temp\ccFdT4MI.s 			page 68


 849 0e9d D8E9D15E 		.ascii	"\330\351\321^\015\025\266/Y\264>\203\273\320\244\316"
 849      0D15B62F 
 849      59B43E83 
 849      BBD0A4CE 
 850 0ead AE0B3486 		.ascii	"\256\0134\206\273\321\323\2750y\260\312\026\257\240"
 850      BBD1D3BD 
 850      3079B0CA 
 850      16AFA0
 851 0ebc 7262B3D0 		.ascii	"rb\263\320E\3079q\223{\"\224r\361\212\315\314\035% "
 851      45C73971 
 851      937B2294 
 851      72F18ACD 
 851      CC1D2520 
 852 0ed0 1629D71E 		.ascii	"\026)\327\036!\033\327fI\257\024\\l)\351q\255Kb\336"
 852      211BD766 
 852      49AF145C 
 852      6C29E971 
 852      AD4B62DE 
 853 0ee4 4BB1E2BD 		.ascii	"K\261\342\275W\341\276\340\030b\371\204\350\270\211"
 853      57E1BEE0 
 853      1862F984 
 853      E8B889
 854 0ef3 6FBC91C6 		.ascii	"o\274\221\306Ch&\027\017\345x%:)\007(^r\036\267\204"
 854      43682617 
 854      0FE57825 
 854      3A290728 
 854      5E721EB7 
 855 0f08 5041EB11 		.ascii	"PA\353\021x\267\001^3D\303-\240&\240z\240:\240J\240"
 855      78B7015E 
 855      3344C32D 
 855      A026A07A 
 855      A03AA04A 
 856 0f1d 0AA0EB92 		.ascii	"\012\240\353\222(\251\377\214\271\2058\375\024X%Z\254"
 856      28A9FF8C 
 856      B98538FD 
 856      1458255A 
 856      AC
 857 0f2e 2E089ACA 		.ascii	".\010\232\312D\371$\372u\322\025\377\302TW\201p\214"
 857      44F924FA 
 857      75D215FF 
 857      C2545781 
 857      708C
 858 0f40 7561D1A0 		.ascii	"ua\321\240\277!\031\364U\026\006}\006l&\322\311f\342"
 858      BF2119F4 
 858      5516067D 
 858      066C26D2 
 858      C966E2
 859 0f53 2C28BCC1 		.ascii	",(\274\301uH-\264\270\006ZV-\264\014|Z3\246\036\233"
 859      75482DB4 
 859      B8065A56 
 859      2DB40C7C 
 859      5A33A61E 
 860 0f68 7864341E 		.ascii	"xd4\036\327\321\023\310X\256\202\365A?\372C\222 \370"
 860      D7D113C8 
 860      58AE82F5 
 860      413FFA43 
 860      9220F8
ARM GAS  C:\Users\AMANRA~1\AppData\Local\Temp\ccFdT4MI.s 			page 69


 861 0f7b 117FC3F2 		.ascii	"\021\177\303\362\210\347:<PM\302\371\006\226\257\310"
 861      88E73A3C 
 861      504DC2F9 
 861      0696AFC8 
 862 0f8b 585FDE4A 		.ascii	"X_\336J\347\372\222\2340f\276\316O\355%\234W\033\300"
 862      E7FA929C 
 862      3066BECE 
 862      4FED259C 
 862      571BC0
 863 0f9e 5139     		.ascii	"Q9"
 864 0fa0 6FE4A89B 		.ascii	"o\344\250\233 ):{a\216\2622\237\242Fp\2170\245\232\202"
 864      20293A7B 
 864      618EB232 
 864      9FA24670 
 864      8F30A59A 
 865 0fb5 72EE1E19 		.ascii	"r\356\036\031\255D\323y!(\323\250*S\222*\256\341\032"
 865      AD44D379 
 865      2128D3A8 
 865      2A53922A 
 865      AEE11A
 866 0fc8 0293E185 		.ascii	"\002\223\341\205\357m\007qJ\0217;\221V\347\276Nz\364"
 866      EF6D0771 
 866      4A11373B 
 866      9156E7BE 
 866      4E7AF4
 867 0fdb 972C3A88 		.ascii	"\227,:\210p\236ua\006w\372\252\206\370\033d\314W\300"
 867      709E7561 
 867      0677FAAA 
 867      86F81B64 
 867      CC57C0
 868 0fee EDE797FB 		.ascii	"\355\347\227\373\373\033\243\327\323\243\316K\334\300"
 868      FB1BA3D7 
 868      D3A3CE4B 
 868      DCC0
 869 0ffc E10E7DD8 		.ascii	"\341\016}\330"
 870 1000 B0B9A814 		.ascii	"\260\271\250\024\3551~\026m,\367\305\364\264\262\300"
 870      ED317E16 
 870      6D2CF7C5 
 870      F4B4B2C0 
 871 1010 92F046D1 		.ascii	"\222\360F\321\016\203\223%\247\222\305\226dE\2358\224"
 871      0E839325 
 871      A792C596 
 871      64459D38 
 871      94
 872 1021 CD77222C 		.ascii	"\315w\",h\313\344\303\327|#\325\361\023\326\374V\020"
 872      68CBE4C3 
 872      D77C23D5 
 872      F113D6FC 
 872      5610
 873 1033 BF69595C 		.ascii	"\277iY\\\274\022\377G!\227\267\311\245\3157\030\035"
 873      BC12FF47 
 873      2197B7C9 
 873      A5CD3718 
 873      1D
 874 1044 22F13B96 		.ascii	"\"\361;\226\305E=\321t\216\3537\262\212m\227\213\233"
 874      C5453DD1 
 874      748EEB37 
ARM GAS  C:\Users\AMANRA~1\AppData\Local\Temp\ccFdT4MI.s 			page 70


 874      B28A6D97 
 874      8B9B
 875 1056 6FEA2A38 		.ascii	"o\352*8\355d\021\022#_!\231\215\252\371\177\220\316"
 875      ED641112 
 875      235F2199 
 875      8DAAF97F 
 875      90CE
 876 1068 A4E9DF37 		.ascii	"\244\351\3377\256\2463Y\"M\267\222H\237\274\240\017"
 876      AEA63359 
 876      224DB792 
 876      489FBCA0 
 876      0F
 877 1079 144045A2 		.ascii	"\024@E\2420\013\245\323D\012\313\337\374\240\323G\234"
 877      300BA5D3 
 877      440ACBDF 
 877      FCA0D347 
 877      9C
 878 108a F0037BBA 		.ascii	"\360\003{\272\026\276\2614S\316=\242%\2173\373F^\335"
 878      16BEB134 
 878      53CE3DA2 
 878      258F33FB 
 878      465EDD
 879 109d 54E327EC 		.ascii	"T\343'\354^\344\331\336\022\025\236f\314\225\272\251"
 879      5EE4D9DE 
 879      12159E66 
 879      CC95BAA9 
 880 10ad E76ABC44 		.ascii	"\347j\274D\231\345S\265\327{\355\220\212\256\231u\272"
 880      99E553B5 
 880      D77BED90 
 880      8AAE9975 
 880      BA
 881 10be 55CEFC52 		.ascii	"U\316\374R\230\274\2303\010\336\364T\211\207\331CI\276"
 881      98BC9833 
 881      08DEF454 
 881      8987D943 
 881      49BE
 882 10d0 1AB490AF 		.ascii	"\032\264\220\257\306\340\3563\322\322\0270\010\207\271"
 882      C6E0EE33 
 882      D2D21730 
 882      0887B9
 883 10df 7C3509D7 		.ascii	"|5\011\327\023\220\257\236\003\215\003\215\001=\003"
 883      1390AF9E 
 883      038D038D 
 883      013D03
 884 10ee 7A0AF408 		.ascii	"z\012\364\010hH\222\241'\203m\262+\351\304\010\203\260"
 884      684892A1 
 884      27836DB2 
 884      2BE9C408 
 884      83B0
 885 1100 1F9A3D6C 		.ascii	"\037\232=l>1\230/FL\206\037p5\376r\303=\261\\\\\214"
 885      3E31982F 
 885      464C861F 
 885      7035FE72 
 885      C33DB15C 
 886 1116 40C32790 		.ascii	"@\303'\220\314\2608\244E.y\214W\0112O\300\336\250)\363"
 886      CCB038A4 
 886      452E798C 
ARM GAS  C:\Users\AMANRA~1\AppData\Local\Temp\ccFdT4MI.s 			page 71


 886      5709324F 
 886      C0DEA829 
 887 112b 58915288 		.ascii	"X\221R\210DN\322&\370\033\227)\311\201(\214[\324\213"
 887      444ED226 
 887      F81B9729 
 887      C981288C 
 887      5BD48B
 888 113e 8904C8C3 		.ascii	"\211\004\310\303\377\003Xe\012\206\246\350e~$R\010\266"
 888      FF035865 
 888      0A86A6E8 
 888      657E2452 
 888      08B6
 889 1150 3E211646 		.ascii	">!\026FE\371\253=\226\033\222/\220\016MZ\306/>O\370"
 889      45F9AB3D 
 889      961B922F 
 889      900E4D5A 
 889      C62F3E4F 
 890 1165 110B6B22 		.ascii	"\021\013k\"=%\2276\037c\363\177+\210O[\026\027)\237"
 890      3D259736 
 890      1F63F37F 
 890      2B884F5B 
 890      1617299F 
 891 1179 1049CFC8 		.ascii	"\020I\317\310\245\245C\214\2746\361,\206s\375+d\207"
 891      A5A5438C 
 891      BC36F12C 
 891      8673FD2B 
 891      6487
 892 118b 662DCB8B 		.ascii	"f-\313\213\306X\377\337\012c\314\250d\322V\307XO\014"
 892      C658FFDF 
 892      0A63CCA8 
 892      64D256C7 
 892      584F0C
 893 119e 1B63C396 		.ascii	"\033c\303\226\306\030,|I\242%\201\335#xu\230\037ago"
 893      C6182C7C 
 893      49A22581 
 893      DD237875 
 893      981F6167 
 894 11b3 A5DED2E0 		.ascii	"\245\336\322\340|\035=\305\036\012M\275\354hzC\343Y"
 894      7C1D3DC5 
 894      1E0A4DBD 
 894      EC687A43 
 894      E359
 895 11c5 C22ADA21 		.ascii	"\302*\332!3PuJ\250\372\020\233\275\241a\012\315\351"
 895      3350754A 
 895      A8FA109B 
 895      BDA1610A 
 895      CDE9
 896 11d7 BF624C00 		.ascii	"\277bL\000\210\304\216\360h\035\256\242 \320\251\301"
 896      88C48EF0 
 896      681DAEA2 
 896      20D0A9C1 
 897 11e7 EA1A156E 		.ascii	"\352\032\025n`\210\306.-\336\024\336\031\251_M\232\262"
 897      6088C62E 
 897      2DDE14DE 
 897      19A95F4D 
 897      9AB2
 898 11f9 0006E6DE 		.ascii	"\000\006\346\336\014\317\374_\207\207\3174\277c\231"
ARM GAS  C:\Users\AMANRA~1\AppData\Local\Temp\ccFdT4MI.s 			page 72


 898      0CCFFC5F 
 898      8787CF34 
 898      BF6399
 899 1208 26B335BC 		.ascii	"&\2635\274\315\011\337g\360\316\264f\367b\225R\201^"
 899      CD09DF67 
 899      F0CEB466 
 899      F7629552 
 899      815E
 900 121a 02844512 		.ascii	"\002\204E\022\313P\030\020Q\236`\213\373\231\304\263"
 900      CB501810 
 900      519E608B 
 900      FB99C4B3 
 901 122a B2B4571A 		.ascii	"\262\264W\032\"\261\004\022?Y\215^A\220\223\347\005"
 901      22B10412 
 901      3F598D5E 
 901      419093E7 
 901      05
 902 123b 9351B34E 		.ascii	"\223Q\263Nx\224\311\004d]H\265#2\276*\214\376q52\252"
 902      7894C904 
 902      645D48B5 
 902      2332BE2A 
 902      8CFE7135 
 903 1251 888CF2EC 		.ascii	"\210\214\362\354\300\271\0205\322:\007\322\247\035\376"
 903      C0B91035 
 903      D23A07D2 
 903      A71DFE
 904 1260 BEC2D30E 		.ascii	"\276\302\323\016\330\334\251\264\264\035\001*g\344\247"
 904      D8DCA9B4 
 904      B41D012A 
 904      67E4A7
 905 126f 52C99ED7 		.ascii	"R\311\236\327\015'\332\\\255\014\"+z\220\023G\0019P"
 905      0D27DA5C 
 905      AD0C222B 
 905      7A901347 
 905      013950
 906 1282 987B3AA4 		.ascii	"\230{:\244\302\251\016\324\243\247\317\307\227\332["
 906      C2A90ED4 
 906      A3A7CFC7 
 906      97DA5B
 907 1291 34818240 		.ascii	"4\201\202@\363\367[\031\212\243\263v \010\035R\231z"
 907      F3F75B19 
 907      8AA3B376 
 907      20081D52 
 907      997A
 908 12a3 805864AF 		.ascii	"\200Xd\257\226\371\276Lr\3049\324\020\252\034\031\014"
 908      96F9BE4C 
 908      72C439D4 
 908      10AA1C19 
 908      0C
 909 12b4 B6C39718 		.ascii	"\266\303\227\030\223u\270\365;\\\316\020\370O\0054X"
 909      9375B8F5 
 909      3B5CCE10 
 909      F84F0534 
 909      58
 910 12c5 7DB1ED88 		.ascii	"}\261\355\210\352{\336l\030\245O\237CUv(De\376\256@"
 910      EA7BDE6C 
 910      18A54F9F 
ARM GAS  C:\Users\AMANRA~1\AppData\Local\Temp\ccFdT4MI.s 			page 73


 910      43557628 
 910      4465FEAE 
 911 12da 4CFACB66 		.ascii	"L\372\313f\214\033\231\301k\323%7\034q\033c\362\242"
 911      8C1B99C1 
 911      6BD32537 
 911      1C711B63 
 911      F2A2
 912 12ec 6E2F6970 		.ascii	"n/ip7c\236/&\024p\2474+\201}\331\033\036n\303\035\322"
 912      37639E2F 
 912      261470A7 
 912      342B817D 
 912      D91B1E6E 
 913 1303 90177D4E 		.ascii	"\220\027}NG\306\234\321\341'L\366V^\253\257#\236\244"
 913      47C69CD1 
 913      E1274CF6 
 913      565EABAF 
 913      239EA4
 914 1316 8C5D5742 		.ascii	"\214]WB\343vDO\\\234uk\234\327H\".B\265\032\205\253"
 914      E376444F 
 914      5C9C756B 
 914      9CD74822 
 914      2E42B51A 
 915 132c 00FF3100 		.ascii	"\000\3771\000\026\245b\021\027\017m\211S\255A\321@'"
 915      16A56211 
 915      170F6D89 
 915      53AD41D1 
 915      4027
 916 133e 8012804E 		.ascii	"\200\022\200N\252\304\011y\270\326f\211[\321\322=\022"
 916      AAC40979 
 916      B8D66689 
 916      5BD1D23D 
 916      12
 917 134f 57D9FA41 		.ascii	"W\331\372As\307*\226u\210\017\216\313\245\253\254\314"
 917      73C72A96 
 917      75880F8E 
 917      CBA5ABAC 
 917      CC
 918 1360 1C267031 		.ascii	"\034&p1\000\350\315\301=K\267\021\026\035G\345\306\314"
 918      00E8CDC1 
 918      3D4BB711 
 918      161D47E5 
 918      C6CC
 919 1372 5E331B9A 		.ascii	"^3\033\232\246\211\346\024\010E\012\275\003u\244\023"
 919      A689E614 
 919      08450ABD 
 919      0375A413 
 920 1382 C5299578 		.ascii	"\305)\225x\206\215U\351D\353>\336 \224\322\015\256\271"
 920      868D55E9 
 920      44EB3EDE 
 920      2094D20D 
 920      AEB9
 921 1394 4151D66B 		.ascii	"AQ\326k\012\302\304\0361`\266\202l\212\346\262-\361"
 921      0AC2C41E 
 921      3160B682 
 921      6C8AE6B2 
 921      2DF1
 922 13a6 53815C93 		.ascii	"S\201\\\223\364%5<^z\366\270\015Z\263\302\231\233$c"
ARM GAS  C:\Users\AMANRA~1\AppData\Local\Temp\ccFdT4MI.s 			page 74


 922      F425353C 
 922      5E7AF6B8 
 922      0D5AB3C2 
 922      999B2463 
 923 13ba B8498647 		.ascii	"\270I\206G\221d\031\205\345m\345a\025\253@\\\234\014"
 923      91641985 
 923      E56DE561 
 923      15AB405C 
 923      9C0C
 924 13cc 2E4E5489 		.ascii	".NT\211\267\225\3551l\216K\222\202&\017\356\346o\370"
 924      B795ED31 
 924      6C8E4B92 
 924      82260FEE 
 924      E66FF8
 925 13df 39E15C47 		.ascii	"9\341\\G:B\202o\314]w@+\254\034\327\245\202Z\353&\246"
 925      3A42826F 
 925      CC5D7740 
 925      2BAC1CD7 
 925      A5825AEB 
 926 13f5 63E8104D 		.ascii	"c\350\020M\001\201\323B7$\251\270|\037\261\224\326f"
 926      0181D342 
 926      3724A9B8 
 926      7C1FB194 
 926      D666
 927 1407 8BCB1CD9 		.ascii	"\213\313\034\331\270(\251H\303\270\2221\323u\247\262"
 927      B828A948 
 927      C3B89231 
 927      D375A7B2 
 928 1417 1C701D43 		.ascii	"\034p\035C\020;WRiu\214fX\035\243K\0356s\354\241s:8"
 928      103B5752 
 928      69758C66 
 928      581DA34B 
 928      1D3673EC 
 929 142f FEAC8541 		.ascii	"\376\254\205A\232\326tv\321IE\026_D\302\223f\306C\301"
 929      9AD67476 
 929      D1494516 
 929      5F44C293 
 929      66C643C1 
 930 1443 B93D3A5A 		.ascii	"\271=:ZF^\320\312\244\251\020EM\027\224kh!\231a\317"
 930      465ED0CA 
 930      A4A91045 
 930      4D17946B 
 930      68219961 
 931 1458 B1C2AEC2 		.ascii	"\261\302\256\302\2140V\010+\247,VV\024S~\334i\225h\235"
 931      8C305608 
 931      2BA72C56 
 931      5614537E 
 931      DC699568 
 932 146d 4194080B 		.ascii	"A\224\010\013\215\034\025Yhd\253T\314\376\355\247\215"
 932      8D1C1559 
 932      6864AB54 
 932      CCFEEDA7 
 932      8D
 933 147e 3576E2A3 		.ascii	"5v\342\243g\270/\212\307\363*\323\363\341l\337R-\366"
 933      67B82F8A 
 933      C7F32AD3 
 933      F3E16CDF 
ARM GAS  C:\Users\AMANRA~1\AppData\Local\Temp\ccFdT4MI.s 			page 75


 933      522DF6
 934 1491 75426F86 		.ascii	"uBo\206:\227\201\231\033\2560\252,=\254\266\362\376"
 934      3A978199 
 934      1BAE30AA 
 934      2C3DACB6 
 934      F2FE
 935 14a3 72F3AD9C 		.ascii	"r\363\255\2341\245\030\316E\225\370q\365%\023\234\221"
 935      31A518CE 
 935      4595F871 
 935      F525139C 
 935      91
 936 14b4 968657B6 		.ascii	"\226\206W\266\324\032\224\241<f\355nc\320\240\226w\307"
 936      D41A94A1 
 936      3C66ED6E 
 936      63D0A096 
 936      77C7
 937 14c6 655676B6 		.ascii	"eVv\266\240\244\370{\334q\205\272#\237w\307\224\337"
 937      A0A4F87B 
 937      DC7185BA 
 937      239F77C7 
 937      94DF
 938 14d8 AD0895D8 		.ascii	"\255\010\225\330\376\025\211;\012L\366c\215\0037\235"
 938      FE15893B 
 938      0A4CF663 
 938      8D03379D 
 939 14e8 70B07577 		.ascii	"p\260uw4\346\234\231\324\361X\012\031\226\244\3710\243"
 939      34E69C99 
 939      D4F1580A 
 939      1996A4F9 
 939      30A3
 940 14fa 4A8C856C 		.ascii	"J\214\205l\015\005,\305\024K\021\217\345\330t\\\272"
 940      0D052CC5 
 940      144B118F 
 940      E5D8745C 
 940      BA
 941 150b C417C512 		.ascii	"\304\027\305\022,%&,\361\321G`\261\037f\035\313\335"
 941      2C25262C 
 941      F1D14760 
 941      B11F661D 
 941      CBDD
 942 151d 84221F5A 		.ascii	"\204\"\037ZD\337.gX\202\273\237\374\224\207W\306\212"
 942      44DF2E67 
 942      5882BB9F 
 942      FC948757 
 942      C68A
 943 152f FAE75B03 		.ascii	"\372\347[\003\220ux\327)\274r\036^\366\354\351g\222"
 943      907578D7 
 943      29BC721E 
 943      5EF6ECE9 
 943      6792
 944 1541 C8B92E81 		.ascii	"\310\271.\201Wa\202w\241;%\330\001\037g\360\316g/\344"
 944      57618277 
 944      A13B25D8 
 944      011F67F0 
 944      CE672FE4 
 945 1555 DAF17619 		.ascii	"\332\361v\031\272\207\306\376\034G\353foP\263U\274\331"
 945      BA87C6FE 
ARM GAS  C:\Users\AMANRA~1\AppData\Local\Temp\ccFdT4MI.s 			page 76


 945      1C47EB66 
 945      6F50B355 
 945      BCD9
 946 1567 AC63597F 		.ascii	"\254cY\177#\266zCb\265\332duil\262G\207O2\253\227{["
 946      23B67A43 
 946      62B5DA64 
 946      75696CB2 
 946      47874F32 
 947 157f D2ED4D1E 		.ascii	"\322\355M\036`f\253BB\267\362@j\231\003\346\333G\374"
 947      6066AB42 
 947      42B7F240 
 947      6A9903E6 
 947      DB47FC
 948 1592 B4D691D4 		.ascii	"\264\326\221\324S$u<\222\231{\327\232%\375S/\201\322"
 948      5324753C 
 948      92997BD7 
 948      9A25FD53 
 948      2F81D2
 949 15a5 6082F22C 		.ascii	"`\202\362,\260\250\333\021\3072(\361\203aG\325\246a"
 949      B0A8DB11 
 949      C73228F1 
 949      836147D5 
 949      A661
 950 15b7 C2A094B4 		.ascii	"\302\240\224\264\344=T\233\306v#\003\363\262\364z6\346"
 950      E43D549B 
 950      C6762303 
 950      F3B2F47A 
 950      36E6
 951 15c9 0136B1B2 		.ascii	"\0016\261\262g\227\375\016+\255\007s3\005x\213\007X"
 951      6797FD0E 
 951      2BAD0773 
 951      3305788B 
 951      0758
 952 15db 9A9FD98B 		.ascii	"\232\237\331\213\304\000\233%\000o\233\000\336\031."
 952      C4009B25 
 952      006F9B00 
 952      DE192E
 953 15ea 9CB6C749 		.ascii	"\234\266\307I\326\001vE\366\027\333\233F[+\003\023\366"
 953      D6017645 
 953      F617DB9B 
 953      465B2B03 
 953      13F6
 954 15fc C278CB89 		.ascii	"\302x\313\211\007\330\306\3122\273\217\035\375\236\321"
 954      07D8C6CA 
 954      32BB8F1D 
 954      FD9ED1
 955 160b D64E01DE 		.ascii	"\326N\001\336\341\001f\234y\231#y\033\271]\002\360\256"
 955      E101669C 
 955      79992379 
 955      1BB95D02 
 955      F0AE
 956 161d 09E0F996 		.ascii	"\011\340\371\226GSJ|\206\001L\315\234\030\267\307\371"
 956      47534A7C 
 956      86014CCD 
 956      9C18B7C7 
 956      F9
 957 162e 8C39D69C 		.ascii	"\2149\326\234\324\311\275\246PN\326\246\345Y\027\316"
ARM GAS  C:\Users\AMANRA~1\AppData\Local\Temp\ccFdT4MI.s 			page 77


 957      D4C9BDA6 
 957      504ED6A6 
 957      E55917CE 
 958 163e 39E11B56 		.ascii	"9\341\033V\203\355A\372\303\375\264\344k;\324\305\205"
 958      83ED41FA 
 958      C3FDB4E4 
 958      6B3BD4C5 
 958      85
 959 164f 7D68C688 		.ascii	"}h\306\210-/\325\315\312\342Jn\216b\353\221\320K\333"
 959      2D2FD5CD 
 959      CAE24A6E 
 959      8E62EB91 
 959      D04BDB
 960 1662 D1C3B723 		.ascii	"\321\303\267#\260\245\371\236\304\321\275\222v\364\361"
 960      B0A5F99E 
 960      C4D1BD92 
 960      76F4F1
 961 1671 EDD0A5E5 		.ascii	"\355\320\245\345\217\216`\304\275C\341,\2745\001\253"
 961      8F8E60C4 
 961      BD43E12C 
 961      BC3501AB 
 962 1681 D59101B6 		.ascii	"\325\221\001\266\356\201\260A\260\336G\017\255\315\320"
 962      EE81B041 
 962      B0DE470F 
 962      ADCDD0
 963 1690 AC463382 		.ascii	"\254F3\202\031\031\034\204Z\344\262fOz\251(\351\207"
 963      19191C84 
 963      5AE4B266 
 963      4F7AA928 
 963      E987
 964 16a2 7B16455D 		.ascii	"{\026E]d\222\220\362\321\031\271\244\265Mx\007,\245"
 964      649290F2 
 964      D119B9A4 
 964      B54D7807 
 964      2CA5
 965 16b4 C8D132BA 		.ascii	"\310\3212\272\317\325 \223\360#\230\017\007`\371\324"
 965      CFD52093 
 965      F023980F 
 965      0760F9D4 
 966 16c4 0F3402F4 		.ascii	"\0174\002\364\000h\010h\024\3501\320\023\240A\240a\311"
 966      00680868 
 966      14E831D0 
 966      13A041A0 
 966      61C9
 967 16d6 F28A1A87 		.ascii	"\362\212\032\207\361\213*\345\306\315\366\232T\024\274"
 967      F18B2AE5 
 967      C6CDF69A 
 967      5414BC
 968 16e5 8A3A2DE3 		.ascii	"\212:-\343\024/\303\252\023\331f\360\241\305uQ\242\206"
 968      142FC3AA 
 968      13D966F0 
 968      A1C57551 
 968      A286
 969 16f7 ADB0602C 		.ascii	"\255\260`,\240\233\226\275.\267\013\211\015]\263\014"
 969      A09B96BD 
 969      2EB70B89 
 969      0D5DB30C 
ARM GAS  C:\Users\AMANRA~1\AppData\Local\Temp\ccFdT4MI.s 			page 78


 970 1707 D1CCEB90 		.ascii	"\321\314\353\220\243\321U\271\254\331\276\234\212\302"
 970      A3D155B9 
 970      ACD9BE9C 
 970      8AC2
 971 1715 D4822E58 		.ascii	"\324\202.X\026\345Wfh\350Ab\230\355\012\256\003\202"
 971      16E55766 
 971      68E84162 
 971      98ED0AAE 
 971      0382
 972 1727 AD7680E2 		.ascii	"\255v\200\342/\362>I5\227/&aq\374>\225,J\237\231\306"
 972      2FF23E49 
 972      35972F26 
 972      6171FC3E 
 972      952C4A9F 
 973 173d 6143FCE3 		.ascii	"aC\374\3439-\256c\243\213\377J\300r\356+\001/\333\037"
 973      392DAE63 
 973      A38BFF4A 
 973      C072EE2B 
 973      012FDB1F 
 974 1751 5721EE2B 		.ascii	"W!\356+\002\344\2730#\257.\014\253p;\023~:\342W\340"
 974      02E4BB30 
 974      23AF2E0C 
 974      AB703B13 
 974      7E3AE257 
 975 1766 88BBAD8E 		.ascii	"\210\273\255\216\313\344\330\320\\\207U\326NG\246\350"
 975      CBE4D8D0 
 975      5C8755D6 
 975      4E47A6E8 
 976 1776 787BC18F 		.ascii	"x{\301\217\267d\337\320V\265\030\357\224d\274M\253\370"
 976      B764DFD0 
 976      56B518EF 
 976      9464BC4D 
 976      ABF8
 977 1788 D3169263 		.ascii	"\323\026\222c\346\357\300\236r\220\032Vf\236\236y\241"
 977      E6EFC09E 
 977      72901A56 
 977      669E9E79 
 977      A1
 978 1799 41CE3AFE 		.ascii	"A\316:\376=x\233\220\303tu6\0075f\204\325\3314m\260"
 978      3D789B90 
 978      C3747536 
 978      07356684 
 978      D5D9346D 
 979 17ae 15FD6816 		.ascii	"\025\375h\026\302[bb&=?P\211\363\226\261\375\360\374"
 979      C25B6262 
 979      263D3F50 
 979      89F396B1 
 979      FDF0FC
 980 17c1 C23879C9 		.ascii	"\3028y\311\354\035\362z4\216\022\336\313|\207"
 980      EC1DF27A 
 980      348E12DE 
 980      CB7C87
 981 17d0 3DC12E6B 		.ascii	"=\301.k\250;\253\303\371TXy>vq\321\211_VB\273\325\316"
 981      A83BABC3 
 981      F9545879 
 981      3E7671D1 
 981      895F5642 
ARM GAS  C:\Users\AMANRA~1\AppData\Local\Temp\ccFdT4MI.s 			page 79


 982 17e7 0A53ABD1 		.ascii	"\012S\253\321\022\330y\207[\"-B7/\250D\257e\236\242"
 982      12D87987 
 982      5B222D42 
 982      372FA844 
 982      AF659EA2 
 983 17fb DF477B05 		.ascii	"\337G{\005S\374K\001\367;\334\242\2624\242s\310\016"
 983      53FC4B01 
 983      F73BDCA2 
 983      B234A273 
 983      C80E
 984 180d 97331B7E 		.ascii	"\2273\033~\315'&\255\332\360S[\2631V\270\241\212\276"
 984      CD2726AD 
 984      DAF0535B 
 984      B33156B8 
 984      A18ABE
 985 1820 BFE9AB86 		.ascii	"\277\351\253\206\376T\233l\200If\204\377\262\305J\366"
 985      FE549B6C 
 985      80496684 
 985      FFB2C54A 
 985      F6
 986 1831 658B4305 		.ascii	"e\213C\005\307`\177_\307\234p\355D\307\202\01272\246"
 986      C7607F5F 
 986      C79C70ED 
 986      44C7820A 
 986      3732A6
 987 1844 75726211 		.ascii	"urb\021\343\333\224\321\336\017;\332\247D\302\027\230"
 987      E3DB94D1 
 987      DE0F3BDA 
 987      A744C217 
 987      98
 988 1855 48FC433F 		.ascii	"H\374C?4f\036c\307\360\244'&\241E\301j+\351\317\342"
 988      34661E63 
 988      C7F0A427 
 988      26A145C1 
 988      6A2BE9CF 
 989 186a 4E4E41E5 		.ascii	"NNA\345I\3569\002\015:\252^\203B\201\302\200B\200\202"
 989      49EE3902 
 989      0D3AAA5E 
 989      834281C2 
 989      80428082 
 990 187e 800EAB25 		.ascii	"\200\016\253%\317\204\2760=\001'\307\301\022cf\331\246"
 990      CF84BE30 
 990      3D0127C7 
 990      C1126366 
 990      D9A6
 991 1890 FEF31863 		.ascii	"\376\363\030c\271\037\246\216\230\347\240\231\034h\226"
 991      B91FA68E 
 991      98E7A099 
 991      1C6896
 992 189f 23EAFF9B 		.ascii	"#\352\377\233 }H-\2236\333$V\327/\247\331\011\244\314"
 992      207D482D 
 992      9336DB24 
 992      56D72FA7 
 992      D909A4CC 
 993 18b3 B3D3B386 		.ascii	"\263\323\263\206\037E\372\0333\326S]\001\026u\371\253"
 993      1F45FA1B 
 993      33D6535D 
ARM GAS  C:\Users\AMANRA~1\AppData\Local\Temp\ccFdT4MI.s 			page 80


 993      011675F9 
 993      AB
 994 18c4 4547E8FF 		.ascii	"EG\350\377\2255\212|\321-P-k\225\344\225\215\233#\005"
 994      95358A7C 
 994      D12D502D 
 994      6B95E495 
 994      8D9B2305 
 995 18d8 630EF82E 		.ascii	"c\016\370.\213\217\350\340\324S\310t\244\324\336H\267"
 995      8B8FE8E0 
 995      D453C874 
 995      A4D4DE48 
 995      B7
 996 18e9 4B1150F7 		.ascii	"K\021P\367\230\320\351\004\236\265Mt8x\374M\275O\326"
 996      98D0E904 
 996      9EB54D74 
 996      3878FC4D 
 996      BD4FD6
 997 18fc A2ED9733 		.ascii	"\242\355\2273\355\2459\314\222*\305\353\364T\024\345"
 997      EDA539CC 
 997      922AC5EB 
 997      F45414E5 
 998 190c 5D7114E7 		.ascii	"]q\024\347\200\343jq\316\212T\363sn\315\303\224l{\264"
 998      80E36A71 
 998      CE8A54F3 
 998      736ECDC3 
 998      946C7BB4 
 999 1920 42F4B6A2 		.ascii	"B\364\266\242\244\035\317\301\37081>Fv\364\\;\022\001"
 999      A41DCFC1 
 999      F838313E 
 999      4676F45C 
 999      3B1201
 1000 1933 4834D88B 		.ascii	"H4\330\213\001\212\005\212\003\212\007J\002:\005\224"
 1000      018A058A 
 1000      038A074A 
 1000      023A0594 
 1001 1943 007402E8 		.ascii	"\000t\002\350\244$\252\006\022m^\371\007\032s\377HW"
 1001      A424AA06 
 1001      126D5EF9 
 1001      071A73FF 
 1001      4857
 1002 1955 995710D3 		.ascii	"\231W\020\323\307mx\362-f}\200\211&8\303\246\276\312"
 1002      C76D78F2 
 1002      2D667D80 
 1002      892638C3 
 1002      A6BECA
 1003 1968 974E26D0 		.ascii	"\227N&\320+\332\350\365\344\213Ph\230\323iz3\340\241"
 1003      2BDAE8F5 
 1003      E48B5068 
 1003      98D3697A 
 1003      33E0A1
 1004 197b D9BCF32C 		.ascii	"\331\274\363,iy\032\335\256C\326Fir\325\362gT\323I\334"
 1004      69791ADD 
 1004      AE43D646 
 1004      6972D5F2 
 1004      6754D349 
 1005 1990 0448F6C7 		.ascii	"\004H\366\307\301\026\245\305\312\313\021\000!\247]"
 1005      C116A5C5 
ARM GAS  C:\Users\AMANRA~1\AppData\Local\Temp\ccFdT4MI.s 			page 81


 1005      CACB1100 
 1005      21A75D
 1006 199f E46191A8 		.ascii	"\344a\221\250qf\347\265Z\000@\316%g1\2233\235@6\233"
 1006      7166E7B5 
 1006      5A0040CE 
 1006      25673193 
 1006      339D4036 
 1007 19b4 B70D44C9 		.ascii	"\267\015D\311\221\3528\222\211\232\275\204F=6\010+\344"
 1007      91EA3892 
 1007      899ABD84 
 1007      463D3608 
 1007      2BE4
 1008 19c6 0A24037A 		.ascii	"\012$\003z\335l\332\357\341\036XG\231\015,\326j_\372"
 1008      DD6CDAEF 
 1008      E11E5847 
 1008      990D2CD6 
 1008      6A5FFA
 1009 19d9 DC8BF8F4 		.ascii	"\334\213\370\364\211\334\247\3427\353`|\314\236Zz\256"
 1009      89DCA7E2 
 1009      37EB607C 
 1009      CC9E5A7A 
 1009      AE
 1010 19ea 338D8FA6 		.ascii	"3\215\217\246\370\037\321\257\351\235&HE\307:\346\003"
 1010      F81FD1AF 
 1010      E99D2648 
 1010      45C73AE6 
 1010      03
 1011 19fb C41458C9 		.ascii	"\304\024X\311\020L\177m`\221\303\327\341\247\375\222"
 1011      104C7F6D 
 1011      6091C3D7 
 1011      E1A7FD92 
 1012 1a0b 45F26949 		.ascii	"E\362iI\240\247\260@'\237 \\\323\\<e#\026N\221\314\344"
 1012      A0A7B040 
 1012      279F205C 
 1012      D35C3C65 
 1012      23164E91 
 1013 1a21 A99C702A 		.ascii	"\251\234p*\025\216*\032\014\225|\225mF\372\222\022'"
 1013      158E2A1A 
 1013      0C957C95 
 1013      6D46FA92 
 1013      1227
 1014 1a33 9C46858B 		.ascii	"\234F\205\213\256_+\263\357E\335\210L\333\313(8\204"
 1014      AE5F2BB3 
 1014      EF45DD88 
 1014      4CDBCB28 
 1014      3884
 1015 1a45 D8FFF049 		.ascii	"\330\377\360I\210\362K\374\037b\345P\252d\037\234(a"
 1015      88F24BFC 
 1015      1F62E550 
 1015      AA641F9C 
 1015      2861
 1016 1a57 F82AC854 		.ascii	"\370*\310T\242\344t(y\275\364\037\247\000\211\265\262"
 1016      A2E47428 
 1016      79BDF41F 
 1016      A70089B5 
 1016      B2
 1017 1a68 FBCC1CFF 		.ascii	"\373\314\034\377\247`\362\014\217P\217\025)\005c\242"
ARM GAS  C:\Users\AMANRA~1\AppData\Local\Temp\ccFdT4MI.s 			page 82


 1017      A760F20C 
 1017      8F508F15 
 1017      290563A2 
 1018 1a78 2A665815 		.ascii	"*fX\025\246\333&PB#\021\327\027]\027\306k\325}\250\007"
 1018      A6DB2650 
 1018      422311D7 
 1018      175D17C6 
 1018      6BD57DA8 
 1019 1a8d EE7EEDA8 		.ascii	"\356~\355\250\010\327\356e\257q\367\335n\324\342A6\333"
 1019      08D7EE65 
 1019      AF71F7DD 
 1019      6ED4E241 
 1019      36DB
 1020 1a9f 5D3436AE 		.ascii	"]46\256~;\331X\336\007\253\372\004\333\331\364 \230"
 1020      7E3BD958 
 1020      DE07ABFA 
 1020      04DBD9F4 
 1020      2098
 1021 1ab1 D7D007F4 		.ascii	"\327\320\007\364yP\272\220P\323\311\017/\240\263\240"
 1021      7950BA90 
 1021      50D3C90F 
 1021      2FA0B3A0 
 1022 1ac1 0B9D51F7 		.ascii	"\013\235Q\367\202\272\014\365\333P\371E\343\363^\033"
 1022      82BA0CF5 
 1022      DB50F945 
 1022      E3F35E1B 
 1023 1ad1 7CE10754 		.ascii	"|\341\007T\323\313\353\325\225l_B\262\004[&u$\015\037"
 1023      D3CBEBD5 
 1023      956C5F42 
 1023      B2045B26 
 1023      75240D1F 
 1024 1ae5 73A465D0 		.ascii	"s\244e\320\337\350\234\232\026\372f\027\306:Y];e\253"
 1024      DFE89C9A 
 1024      16FA6617 
 1024      C63A595D 
 1024      3B65AB
 1025 1af8 C9DA294B 		.ascii	"\311\332)K\315\255\235\216\006u?\327r\000\347W\303\340"
 1025      CDAD9D8E 
 1025      06753FD7 
 1025      7200E757 
 1025      C3E0
 1026 1b0a F7339259 		.ascii	"\3673\222Y\036\244P\246\200/S\216/\207\342\213\310\252"
 1026      1EA450A6 
 1026      802F538E 
 1026      2F87E28B 
 1026      C8AA
 1027 1b1c 1D51E322 		.ascii	"\035Q\343\"\206\317\177 ,\221\235\266\220\371\211\341"
 1027      86CF7F20 
 1027      2C919DB6 
 1027      90F989E1 
 1028 1b2c 8B372EC5 		.ascii	"\2137.\3059\230\360]`\370^\214<\364EV\361\345Q|\271"
 1028      3998F05D 
 1028      60F85E8C 
 1028      3CF44556 
 1028      F1E5517C 
 1029 1b41 3CBEE80B 		.ascii	"<\276\350\013\235#6\034\276\321\237\232\360\201\024"
 1029      9D23361C 
ARM GAS  C:\Users\AMANRA~1\AppData\Local\Temp\ccFdT4MI.s 			page 83


 1029      BED19F9A 
 1029      F08114
 1030 1b50 3A2FE03B 		.ascii	":/\340;/\307w\221\342\033\254\010hW\343*\206/\374yd"
 1030      2FC77791 
 1030      E21BAC08 
 1030      6857E32A 
 1030      862FFC79 
 1031 1b65 A5D28485 		.ascii	"\245\322\204\205\341;^\367\254Uk\025J>\205r\231\207"
 1031      E13B5EF7 
 1031      AC556B15 
 1031      4A3E8572 
 1031      9987
 1032 1b77 D253565E 		.ascii	"\322SV^\353\304A\251Xg\202\002R\350\222\000\345\222"
 1032      EBC441A9 
 1032      58678202 
 1032      52E89200 
 1032      E592
 1033 1b89 1CCA150A 		.ascii	"\034\312\025\012%\367l\335]5ncP\262\217,E\251\255\232"
 1033      25F76CDD 
 1033      5D356E63 
 1033      50B28F2C 
 1033      45A9AD9A 
 1034 1b9d BD4ACD7A 		.ascii	"\275J\315zrV_t=\271\2179\253\3231\370\254\177@\006T"
 1034      72565F74 
 1034      3DB98F39 
 1034      ABD331F8 
 1034      AC7F4006 
 1035 1bb2 5B4FA450 		.ascii	"[O\244P\201`\266@n\266\220\232M\255\273\234a\217\207"
 1035      8160B640 
 1035      6EB6909A 
 1035      4DADBB9C 
 1035      618F87
 1036 1bc5 DFC46CB1 		.ascii	"\337\304l\261\304l\344\375\256\036\004f\223\301\354"
 1036      C46CE4FD 
 1036      AE1E0466 
 1036      93C1EC
 1037 1bd4 ABFB4A53 		.ascii	"\253\373JSkA\012\025\011f\213\344fK\250\331\251\301"
 1037      6B410A15 
 1037      09668BE4 
 1037      664BA8D9 
 1037      A9C1
 1038 1be6 D9FB4A3C 		.ascii	"\331\373J<\316\314V\315&'\333s\252\206\346u\022U\327"
 1038      CECC56CD 
 1038      2627DB73 
 1038      AA86E675 
 1038      1255D7
 1039 1bf9 0455D7E4 		.ascii	"\004U\327\344\252J\251\252\223\306\344i\204\027\231"
 1039      AA4AA9AA 
 1039      93C6E469 
 1039      841799
 1040 1c08 AA88C1C8 		.ascii	"\252\210\301\310\027*NU\375a,\011\3272AU\231\\U9U\365"
 1040      172A4E55 
 1040      FD612C09 
 1040      D7324155 
 1040      995C5539 
 1041 1c1e F061C6B4 		.ascii	"\360a\306\264=>\274\234\252\212\233\2736\314\253\232"
 1041      3D3EBC9C 
ARM GAS  C:\Users\AMANRA~1\AppData\Local\Temp\ccFdT4MI.s 			page 84


 1041      AA8A9BBB 
 1041      36CCAB9A 
 1042 1c2e 88E154F9 		.ascii	"\210\341T\371\262\356\274.\250\272.WUAU]M4\0325\370"
 1042      B2EEBC2E 
 1042      A8BA2E57 
 1042      5541555D 
 1042      4D341A35 
 1043 1c43 04533530 		.ascii	"\004S503\234\303\"+\324t\3066R\330\372\210\235\367A"
 1043      339CC322 
 1043      2BD474C6 
 1043      3652D8FA 
 1043      889DF741 
 1044 1c57 7245552C 		.ascii	"rEU,\362\317\334\311(\320Y\355\200j\332\0017\370p\033"
 1044      F2CFDCC9 
 1044      28D059ED 
 1044      806ADA01 
 1044      37F8701B 
 1045 1c6b CD69F377 		.ascii	"\315i\363w\004\200}F\372 $\372P`\230\3614\242b\250R"
 1045      04807D46 
 1045      FA2024FA 
 1045      506098F1 
 1045      34A262A8 
 1046 1c80 0058A966 		.ascii	"\000X\251f_#B5\024X\315\311\312,->\307\200E\316\227"
 1046      5F234235 
 1046      1458CDC9 
 1046      CA2C2D3E 
 1046      C78045CE 
 1047 1c95 36B2E197 		.ascii	"6\262\341\227f\012\371\356\241A_\207\3579\324\242 \352"
 1047      660AF9EE 
 1047      A1415F87 
 1047      EF39D4A2 
 1047      20EA
 1048 1ca7 7810379E 		.ascii	"x\0207\236\034\312Pq f\202m^er @\014\325\012 jy\020"
 1048      1CCA5071 
 1048      2066826D 
 1048      5E657220 
 1048      400CD50A 
 1049 1cbf 0D14C4DC 		.ascii	"\015\024\304\334\371\210\033\0168o\271\325\303\266\273"
 1049      F9881B0E 
 1049      386FB9D5 
 1049      C3B6BB
 1050 1cce BD476675 		.ascii	"\275Gfu\246\261\330\310\2743Up;Hc\325;\267(\260&\036"
 1050      A6B1D8C8 
 1050      BC335570 
 1050      3B4863D5 
 1050      3BB728B0 
 1051 1ce4 D8B1DADE 		.ascii	"\330\261\332\336\207v\274w\022m:\017s\300@\014\335\024"
 1051      8776BC77 
 1051      126D3A0F 
 1051      73C0400C 
 1051      DD14
 1052 1cf6 80DDE481 		.ascii	"\200\335\344\2015S`wz\256\215c|\235\001\253\311\310"
 1052      35536077 
 1052      7AAE8D63 
 1052      7C9D01AB 
 1052      C9C8
 1053 1d08 BF8E2888 		.ascii	"\277\216(\210\233&`\247ZS\212\254\357;[)\206\026\036"
ARM GAS  C:\Users\AMANRA~1\AppData\Local\Temp\ccFdT4MI.s 			page 85


 1053      9B2660A7 
 1053      5A538AAC 
 1053      EF3B5B29 
 1053      86161E
 1054 1d1b 43F2D4CC 		.ascii	"C\362\324\314z\016Bg\207mRe`\371\227T\006\335\026\000"
 1054      7A0E4267 
 1054      876D5265 
 1054      60F99754 
 1054      06DD1600 
 1055 1d2f DCE601B4 		.ascii	"\334\346\001\264Q\000\275\343\2235\3668x\005\3732dI"
 1055      5100BDE3 
 1055      9335F638 
 1055      7805FB32 
 1055      6449
 1056 1d41 C58003A7 		.ascii	"\305\200\003\247`!G=z\213* \303\342\216\240\340\016"
 1056      6021473D 
 1056      7A8B2A20 
 1056      C3E28EA0 
 1056      E00E
 1057 1d53 AFA09D2A 		.ascii	"\257\240\235*\030i\273f\203\343X\375+\247.<b\236\035"
 1057      1869BB66 
 1057      83E358FD 
 1057      2BA72E3C 
 1057      629E1D
 1058 1d66 C17CF70E 		.ascii	"\301|\367\016\266D4\250Me\367\230g\217MG\304:\231\334"
 1058      B64434A8 
 1058      4D65F798 
 1058      678F4D47 
 1058      C43A99DC 
 1059 1d7a 7D9F153E 		.ascii	"}\237\025>-\210\036QZmj'mj\007\337\324\230\314\2648"
 1059      2D881E51 
 1059      5A6D6A27 
 1059      6D6A07DF 
 1059      D498CCB4 
 1060 1d8f 3E18615D 		.ascii	">\030a]\333XG\241\202\020\272+@\275\313C\355\242P\343"
 1060      DB5847A1 
 1060      8210BA2B 
 1060      40BDCB43 
 1060      EDA250E3 
 1061 1da3 DAFA5395 		.ascii	"\332\372S\2258c\205Ug7\314\244\227\251Le=\014\326\363"
 1061      38638555 
 1061      6737CCA4 
 1061      97A94C65 
 1061      3D0CD6F3 
 1062 1db7 D29E93D6 		.ascii	"\322\236\223\326a\365QX\275<\254\264\213\361Y:\241\013"
 1062      61F55158 
 1062      BD3CACB4 
 1062      8BF1593A 
 1062      A10B
 1063 1dc9 12591780 		.ascii	"\022Y\027\200\020\352\026`u\363\260\036PXY\325e\017"
 1063      10EA1660 
 1063      75F3B01E 
 1063      505859D5 
 1063      650F
 1064 1ddb 1C712183 		.ascii	"\034q!\203u\350N_<\372\373Tc_9\235\237\273J\002\214"
 1064      75E84E5F 
 1064      3CFAFB54 
ARM GAS  C:\Users\AMANRA~1\AppData\Local\Temp\ccFdT4MI.s 			page 86


 1064      635F399D 
 1064      9FBB4A02 
 1065 1df0 C6E57449 		.ascii	"\306\345tI\325\317\024\230\326m\012R\002\377\017\250"
 1065      D5CF1498 
 1065      D66D0A52 
 1065      02FF0FA8 
 1066 1e00 FF1EEAF9 		.ascii	"\377\036\352\371%\245\300\314|\215)\251\317}\222\240"
 1066      25A5C0CC 
 1066      7C8D29A9 
 1066      CF7D92A0 
 1067 1e10 0125CDE5 		.ascii	"\001%\315\345\344\035\214\037F\032\215l\3731\310\251"
 1067      E41D8C1F 
 1067      461A8D6C 
 1067      FB31C8A9 
 1068 1e20 10B6A5A4 		.ascii	"\020\266\245\244\344\017JX\247\023%\270=\275t\001#;"
 1068      E40F4A58 
 1068      A71325B8 
 1068      3DBD7401 
 1068      233B
 1069 1e32 F6F5C060 		.ascii	"\366\365\300`\256\305\342\375\270\002\015\251\311\027"
 1069      AEC5E2FD 
 1069      B8020DA9 
 1069      C917
 1070 1e40 F81EA957 		.ascii	"\370\036\251W\243a\330\332\261\357\011.-\331\320r\312"
 1070      A361D8DA 
 1070      B1EF092E 
 1070      2DD9D072 
 1070      CA
 1071 1e51 192352FE 		.ascii	"\031#R\376\231r\344?2\274\257\025\006:\332q\317\245"
 1071      9972E43F 
 1071      32BCAF15 
 1071      063ADA71 
 1071      CFA5
 1072 1e63 825FFBFB 		.ascii	"\202_\373\373%h\204\326\272\320TW\316\325\012\367\017"
 1072      256884D6 
 1072      BAD05457 
 1072      CED50AF7 
 1072      0F
 1073 1e74 7EED9100 		.ascii	"~\355\221\000\032\245\265\036\235\015J\222\234\273\220"
 1073      1AA5B51E 
 1073      9D0D4A92 
 1073      9CBB90
 1074 1e83 D4242C18 		.ascii	"\324$,\030\037s\013\306\307t\301x\372\321\251A'|\223"
 1074      1F730BC6 
 1074      C774C178 
 1074      FAD1A941 
 1074      277C93
 1075 1e96 79EC5447 		.ascii	"y\354TG]\276\216\233\324\306\026m\027\213so\373\032"
 1075      5DBE8E9B 
 1075      D4C6166D 
 1075      178B736F 
 1075      FB1A
 1076 1ea8 5706D852 		.ascii	"W\006\330R\015O\204\256{\"\317\276Oi\0276\336h\215\266"
 1076      0D4F84AE 
 1076      7B22CFBE 
 1076      4F691736 
 1076      DE688DB6 
ARM GAS  C:\Users\AMANRA~1\AppData\Local\Temp\ccFdT4MI.s 			page 87


 1077 1ebc C14757D2 		.ascii	"\301GW\322/Y\306U]yf\217l\231\027\235\203\330s\373p"
 1077      2F59C655 
 1077      5D79668F 
 1077      6C99179D 
 1077      83D873FB 
 1078 1ed1 587DF1BB 		.ascii	"X}\361\273\221\011h\301\230\332\026\024\215\203\037"
 1078      910968C1 
 1078      98DA1614 
 1078      8D831F
 1079 1ee0 9F533F6A 		.ascii	"\237S?ji\011\365\3402z)\372r&\260\350\231\332\364\345"
 1079      6909F5E0 
 1079      327A29FA 
 1079      7226B0E8 
 1079      99DAF4E5 
 1080 1ef4 4CC293A9 		.ascii	"L\302\223\251g|\"Rc\365W,&\325\334\257X\254\247\317"
 1080      677C2252 
 1080      63F5572C 
 1080      26D5DCAF 
 1080      58ACA7CF 
 1081 1f08 ADFC8A9F 		.ascii	"\255\374\212\237-\250\304?bq[\222d_\250\227\363u(C\306"
 1081      2DA8C43F 
 1081      62715B92 
 1081      645FA897 
 1081      F3752843 
 1082 1f1d ED424E11 		.ascii	"\355BN\021\367\203\023\032r,t3\240\304\336\252\265i"
 1082      F783131A 
 1082      722C7433 
 1082      A0C4DEAA 
 1082      B569
 1083 1f2f DEDA949A 		.ascii	"\336\332\224\232\232{\021rh\206\373&#\371\376=\377#"
 1083      9A7B1172 
 1083      6886FB26 
 1083      23F9FE3D 
 1083      FF23
 1084 1f41 0A2BD98F 		.ascii	"\012+\331\217(d\365G5 9\230Yp\305\0149-@s\024\3144\003"
 1084      2864F547 
 1084      35203998 
 1084      5970C50C 
 1084      392D4073 
 1085 1f59 3347C19C 		.ascii	"3G\301\234I\3161J\016\260\363$\035;\317u\354<\355\330"
 1085      49CE314A 
 1085      0EB0F324 
 1085      1D3BCF75 
 1085      EC3CEDD8 
 1086 1f6d B89CD625 		.ascii	"\270\234\326%\311\036\343\226Dx\201\023^\240\302'\247"
 1086      C91EE396 
 1086      44788113 
 1086      5EA0C227 
 1086      A7
 1087 1f7e DAE225C2 		.ascii	"\332\342%\302\365\022\341ENx\221\012W\234+(\320\362"
 1087      F512E145 
 1087      4E78910A 
 1087      579C2B28 
 1087      D0F2
 1088 1f90 C2C1DF73 		.ascii	"\302\301\337s\256\207^R\371\261\220\027\237X\023\227"
 1088      AE875E52 
 1088      F9B19017 
ARM GAS  C:\Users\AMANRA~1\AppData\Local\Temp\ccFdT4MI.s 			page 88


 1088      9F581397 
 1089 1fa0 1DD3A157 		.ascii	"\035\323\241W\264\306\221\342\236Y\225\270\212\350["
 1089      B4C691E2 
 1089      9E5995B8 
 1089      8AE85B
 1090 1faf A90AE12B 		.ascii	"\251\012\341+\251h\211J\247\334\273\177Q\203\243V\262"
 1090      A968894A 
 1090      A7DCBB7F 
 1090      5183A356 
 1090      B2
 1091 1fc0 F5436272 		.ascii	"\365Cbr\221-\027\302\023\241\334\372\3414[\325\300\322"
 1091      912D17C2 
 1091      13A1DCFA 
 1091      E1345BD5 
 1091      C0D2
 1092 1fd2 80AF0997 		.ascii	"\200\257\011\227\322\010\366\325\220\010\216:SsX\205"
 1092      D208F6D5 
 1092      90088E3A 
 1092      53735885 
 1093 1fe2 3399AAFE 		.ascii	"3\231\252\376\232\334;\374\032|\340\230\375\265\306"
 1093      9ADC3BFC 
 1093      1A7CE098 
 1093      FDB5C6
 1094 1ff1 406333F4 		.ascii	"@c3\364\373gl.\360\023\224\371\311\225\371"
 1094      FB676C2E 
 1094      F01394F9 
 1094      C995F9
 1095 2000 53657583 		.ascii	"Seu\2039\025\216\370!S6\350[vQ\305)\203I%>\377\221\321"
 1095      39158EF8 
 1095      215336E8 
 1095      5B7651C5 
 1095      29834925 
 1096 2018 080D0C40 		.ascii	"\010\015\014@*\252-@\320\026 \327v\210j\353K\032\216"
 1096      2AAA2D40 
 1096      D01620D7 
 1096      76886AEB 
 1096      4B1A8E
 1097 202b 74C0F34C 		.ascii	"t\300\363L\333\335\263%\027\371\325gK\242\264\225\201"
 1097      DBDDB325 
 1097      17F9D567 
 1097      4BA2B495 
 1097      81
 1098 203c 82AA40B9 		.ascii	"\202\252@\271\252 \252\352\356P\305\016\034\370\237"
 1098      AA20AAEA 
 1098      EE50C50E 
 1098      1CF89F
 1099 204b A8A67339 		.ascii	"\250\246s9\211\271\2168\2121\241\025\225\361\364\035"
 1099      89B98E38 
 1099      8A31A115 
 1099      95F1F41D 
 1100 205b A0C3A422 		.ascii	"\240\303\244\"=\203Jl\273\300\303\276\233m\3379F\336"
 1100      3D834A6C 
 1100      BBC0C3BE 
 1100      9B6DDF39 
 1100      46DE
 1101 206d C3F5357E 		.ascii	"\303\3655~P\253\2443j0o\013\205hT\204\223\232\013\245"
 1101      50ABA433 
ARM GAS  C:\Users\AMANRA~1\AppData\Local\Temp\ccFdT4MI.s 			page 89


 1101      6A306F0B 
 1101      85685484 
 1101      939A0BA5 
 1102 2081 E686D38D 		.ascii	"\346\206\323\2153\216x\210\231\250\235\230;\212\204"
 1102      338E7888 
 1102      99A89D98 
 1102      3B8A84
 1103 2090 149395C7 		.ascii	"\024\223\225\307\247\030\002\375\210\000\375\210\\W"
 1103      A71802FD 
 1103      8800FD88 
 1103      5C57
 1104 209e 18D5353E 		.ascii	"\030\3255>\335\020\201\361\034\323\225\322v>P)tP\214"
 1104      DD1081F1 
 1104      1CD395D2 
 1104      763E5029 
 1104      74508C
 1105 20b1 B4838E0A 		.ascii	"\264\203\216\012\312\216\312\225\035\243\312*\247\333"
 1105      CA8ECA95 
 1105      1DA3CA2A 
 1105      A7DB
 1106 20bf 736C70C8 		.ascii	"slp\310\017\251\2629\377\2216;\241\203\016\313:(\\\320"
 1106      0FA9B239 
 1106      FF91363B 
 1106      A1830ECB 
 1106      3A285CD0 
 1107 20d3 162ED716 		.ascii	"\026.\327\026A\265\235\235\231\015u\304\011L\333H\342"
 1107      41B59D9D 
 1107      990D75C4 
 1107      094CDB48 
 1107      E2
 1108 20e4 44BE3DDF 		.ascii	"D\276=\337Aq\322\016:.\250:.W\025IU\225W\037y\212p:"
 1108      4171D20E 
 1108      3A2EA83A 
 1108      2E571549 
 1108      5595571F 
 1109 20fc 53B55431 		.ascii	"S\265T1s\317\001\3470\246 ?uL\3643<*:E\363\257\330)"
 1109      73CF01E7 
 1109      30A6203F 
 1109      754CF433 
 1109      3C2A3A45 
 1110 2114 D0498D90 		.ascii	"\320I\215\220\301H>/\354\037w\304\005\254jD\345\324"
 1110      C1483E2F 
 1110      EC1F77C4 
 1110      05AC6A44 
 1110      E5D4
 1111 2126 A43D2E66 		.ascii	"\244=.fLWJ\324\031\025KM\217\010\237\260\270\030\240"
 1111      4C574AD4 
 1111      19154B4D 
 1111      8F089FB0 
 1111      B818A0
 1112 2139 C2E5EC66 		.ascii	"\302\345\354f\213_d\232\006\3273f\341Y\372\270\006\267"
 1112      8B5F649A 
 1112      06D73366 
 1112      E159FAB8 
 1112      06B7
 1113 214b 31A67232 		.ascii	"1\246r2\376\271\016\3670\346PZ\333\021\033\374\2101"
 1113      FEB90EF7 
ARM GAS  C:\Users\AMANRA~1\AppData\Local\Temp\ccFdT4MI.s 			page 90


 1113      30E6505A 
 1113      DB111BFC 
 1113      8831
 1114 215d 939D61D5 		.ascii	"\223\235a\325:<\301\230\252\332\201V-^d\214\357\243"
 1114      3A3CC198 
 1114      AADA8156 
 1114      2D5E648C 
 1114      EFA3
 1115 216f DC208C03 		.ascii	"\334 \214\003\377\206\275\306\324\\\031b\213\303\031"
 1115      FF86BDC6 
 1115      D45C1962 
 1115      8BC319
 1116 217e D378F8F8 		.ascii	"\323x\370\370\011%\216f\314R\334x\202\016'3\246$\365"
 1116      09258E66 
 1116      CC52DC78 
 1116      820E2733 
 1116      A624F5
 1117 2191 50262C97 		.ascii	"P&,\227\031\023\320\024\326\245\303\027\031s\376QP\271"
 1117      1913D014 
 1117      D6A5C317 
 1117      1973FE51 
 1117      50B9
 1118 21a3 0D2EE2C4 		.ascii	"\015.\342\304\032\347\262\035q\005\307t\346\257\303"
 1118      1AE7B21D 
 1118      7105C774 
 1118      E6AFC3
 1119 21b2 37D9F5E9 		.ascii	"7\331\365\351G\205\221N\370\016c\036t\017\2078\342\036"
 1119      4785914E 
 1119      F80E631E 
 1119      740F8738 
 1119      E21E
 1120 21c4 C604969D 		.ascii	"\306\004\226\235\270f\213\0371\246\252\257\007\341\347"
 1120      B8668B1F 
 1120      31A6AAAF 
 1120      07E1E7
 1121 21d3 ECFA7148 		.ascii	"\354\372qH9\354\215\346\031\223Y\030\366@\215\375W\261"
 1121      39EC8DE6 
 1121      19935918 
 1121      F6408DFD 
 1121      57B1
 1122 21e5 7D4441C0 		.ascii	"}DA\300\264\012\0071&k1\261\331\026\037aLsQ\337C\030"
 1122      B40A0731 
 1122      266B31B1 
 1122      D9161F61 
 1122      4C7351DF 
 1123 21fb 3C8CC96E 		.ascii	"<\214\311n\254\351\342\262}0y\320\222\235\321=\304\275"
 1123      ACE9E2B2 
 1123      7D3079D0 
 1123      929DD13D 
 1123      C4BD
 1124 220d A2554E1E 		.ascii	"\242UN\036\264\244]\355[D\370\024\025~\353\312TT\226"
 1124      B4A45DED 
 1124      5B44F814 
 1124      157EEBCA 
 1124      545496
 1125 2220 06AD31FB 		.ascii	"\006\2551\373[!\372\252\266\360\313a\353\223\304\277"
 1125      5B21FAAA 
ARM GAS  C:\Users\AMANRA~1\AppData\Local\Temp\ccFdT4MI.s 			page 91


 1125      B6F0CB61 
 1125      EB93C4BF 
 1126 2230 1C9608F1 		.ascii	"\034\226\010\361S\253\371\336/5&`\341\2209K..}\011\234"
 1126      53ABF9DE 
 1126      2F352660 
 1126      E190394B 
 1126      2E2E7D09 
 1127 2245 FE3A5682 		.ascii	"\376:V\202\350\327\261\316\313\345\315~\311\253^,\236"
 1127      E8D7B1CE 
 1127      CBE5CD7E 
 1127      C9AB5E2C 
 1127      9E
 1128 2256 2717971E 		.ascii	"'\027\227\036G\302\012\260\"\003\263\327B!:Q,'nz-4F"
 1128      47C20AB0 
 1128      2203B3D7 
 1128      42213A51 
 1128      2C276E7A 
 1129 226d 23D79E28 		.ascii	"#\327\236(\322\236)\327\376\334\014|E\222H>E.\357\247"
 1129      D29E29D7 
 1129      FEDC0C7C 
 1129      4592483E 
 1129      452EEFA7 
 1130 2281 349317EB 		.ascii	"4\223\027\353?gY\277\350\214\264>I\204\376\264\034\275"
 1130      3F6759BF 
 1130      E88CB43E 
 1130      4984FEB4 
 1130      1CBD
 1131 2293 F40BDB20 		.ascii	"\364\013\333 \336!n\354\011\271x\276\334\225\025bW^"
 1131      DE216EEC 
 1131      09B978BE 
 1131      DC951562 
 1131      575E
 1132 22a5 B4E84AF1 		.ascii	"\264\350J\361\333\273\211\242~M\223K\373\233}\327\010"
 1132      DBBB89A2 
 1132      7E4D934B 
 1132      FB9B7DD7 
 1132      08
 1133 22b6 A606014C 		.ascii	"\246\006\001L\206\034\214\344\233\314\004L\207\030\314"
 1133      861C8CE4 
 1133      9BCC044C 
 1133      8718CC
 1134 22c5 05B97AF3 		.ascii	"\005\271z\363\267\203'\304\362\331\226\303L\244\276"
 1134      B78327C4 
 1134      F2D996C3 
 1134      4CA4BE
 1135 22d4 5FECF8B3 		.ascii	"_\354\370\263r\361\247f\352G\305\362g,\267V\0347\031"
 1135      72F1A766 
 1135      EA47C5F2 
 1135      672CB756 
 1135      1C3719
 1136 22e7 22F168B9 		.ascii	"\"\361h\271\370u+\217\306/k@\200\206 \021'\333\202&"
 1136      F8752B8F 
 1136      C62F6B40 
 1136      80862011 
 1136      27DB8226 
 1137 22fb 8D332AD7 		.ascii	"\2153*\327\254A\205@7\201*\201\256\002\325\003U\001"
 1137      AC418540 
ARM GAS  C:\Users\AMANRA~1\AppData\Local\Temp\ccFdT4MI.s 			page 92


 1137      37812A81 
 1137      AE02D503 
 1137      5501
 1138 230d 15005D03 		.ascii	"\025\000]\003*\006\252\000\272\015t\003\250\032\350"
 1138      2A06AA00 
 1138      BA0D7403 
 1138      A81AE8
 1139 231c 3A500B50 		.ascii	":P\013P\011P)P\035P\033\320\025\240\006\240F\240[@E"
 1139      09502950 
 1139      1D501BD0 
 1139      15A006A0 
 1139      46A05B40 
 1140 2331 40354077 		.ascii	"@5@w\200\312\200Z\201\2325\342\337\342k\021Gu\262\274"
 1140      80CA805A 
 1140      819A35E2 
 1140      DFE26B11 
 1140      4775B2BC 
 1141 2345 358FE5BE 		.ascii	"5\217\345\276\035\025wE\216\345\021,~D0\232$\212\244"
 1141      1D157745 
 1141      8EE5112C 
 1141      7E44309A 
 1141      248AA4
 1142 2358 04CB0945 		.ascii	"\004\313\011E\334\027-b\375\271\226CC\004gB\214>^.."
 1142      DC172D62 
 1142      FDB99643 
 1142      43046742 
 1142      8C3E5E2E 
 1143 236d FACA36F7 		.ascii	"\372\3126\367\366_<\373\255?\2202\377\255\277WI\342"
 1143      F65F3CFB 
 1143      AD3F9032 
 1143      FFADBF57 
 1143      49E2
 1144 237f DFFA8BB3 		.ascii	"\337\372\213\263\254L\0227\342@\310\227\313\263M\243"
 1144      AC4C1237 
 1144      E240C897 
 1144      CBB34DA3 
 1145 238f 58BE431C 		.ascii	"X\276C\034g\351\226\343R\324\266y\261x\252\345|#\216"
 1145      67E996E3 
 1145      52D4B679 
 1145      B178AAE5 
 1145      7C238E
 1146 23a2 7A319A28 		.ascii	"z1\232(\313h\304cP\354\271$\313\375.\351\030\261\372"
 1146      CB68C463 
 1146      50ECB924 
 1146      CBFD2EE9 
 1146      18B1FA
 1147 23b5 5396A3DE 		.ascii	"S\226\243\336\364f\302Tvv\267=N\241S\220\362\301La\234"
 1147      F466C254 
 1147      7676B73D 
 1147      4EA15390 
 1147      F2C14C61 
 1148 23ca 927F5D53 		.ascii	"\222\177]S>\034\320=\030\005\377\277\214\010.H2\330"
 1148      3E1CD03D 
 1148      1805FFBF 
 1148      8C082E48 
 1148      32D8
 1149 23dc 4F2FDE05 		.ascii	"O/\336\005T\355\302\022\212\304\014m\\Y\373\315v\311"
ARM GAS  C:\Users\AMANRA~1\AppData\Local\Temp\ccFdT4MI.s 			page 93


 1149      54EDC212 
 1149      8AC40C6D 
 1149      5C59FBCD 
 1149      76C9
 1150 23ee 1EE6AE46 		.ascii	"\036\346\256F\374\234\344\276\206\355a\340\023\204O"
 1150      FC9CE4BE 
 1150      86ED61E0 
 1150      13844F
 1151 23fd 2CCD0C48 		.ascii	",\315\014H\366\310\255\222\015O\007'\334A\205\357\235"
 1151      F6C8AD92 
 1151      0D4F0727 
 1151      DC4185EF 
 1151      9D
 1152 240e BE522B79 		.ascii	"\276R+y\207._\"\334\311\011wR\341\244\305\205\030\311"
 1152      872E5F22 
 1152      DCC90977 
 1152      52E1A4C5 
 1152      8518C9
 1153 2421 13CF6289 		.ascii	"\023\317b\211p\027'\334E\205;\323fNH4wJ\204\2739\341"
 1153      701727DC 
 1153      45853BD3 
 1153      664E4834 
 1153      774A84BB 
 1154 2437 6E2A1CEB 		.ascii	"n*\034\353\227\333\257\021\013\367I\204{8\341\036*\034"
 1154      97DBAF11 
 1154      0BF74984 
 1154      7B38E11E 
 1154      2A1C
 1155 2449 94D95826 		.ascii	"\224\331X&yE2[\"\334\313\011\367Z\306|U\"\334\307\011"
 1155      7945325B 
 1155      22DCCB09 
 1155      F75AC67C 
 1155      5522DCC7 
 1156 245e F751E1DE 		.ascii	"\367Q\341\336\224A\177\007|\236-z*\306g\271\243L\362"
 1156      94417F07 
 1156      7C9E2D7A 
 1156      2AC667B9 
 1156      A34CF2
 1157 2471 C48F9D1F 		.ascii	"\304\217\235\037\225\237\314(\263\261zT4\240!GE\375"
 1157      959FCC28 
 1157      B3B17A54 
 1157      34A02147 
 1157      45FD
 1158 2483 1AEEA828 		.ascii	"\032\356\250(\367PN\276\243\360$\346\352\231 \266\301"
 1158      F7504EBE 
 1158      A3F024E6 
 1158      EA9920B6 
 1158      C1
 1159 2494 F88008A2 		.ascii	"\370\200\010\242\007B??\220/\225\0075o+4\336\007\367"
 1159      07423F3F 
 1159      902F9507 
 1159      356F2B34 
 1159      DE07F7
 1160 24a7 BAF9FCF9 		.ascii	"\272\371\374\371\303\265k\327\301?\367\335\036\333="
 1160      C3B56BD7 
 1160      C13FF7DD 
 1160      1EDB3D
ARM GAS  C:\Users\AMANRA~1\AppData\Local\Temp\ccFdT4MI.s 			page 94


 1161 24b6 BC7C5C7E 		.ascii	"\274|\\~\351\262~\235\227\317\272\335n{\326\355\363"
 1161      E9B27E9D 
 1161      97CFBADD 
 1161      6E7BD6ED 
 1161      F3
 1162 24c7 F236F8AC 		.ascii	"\3626\370\254\333\372\325\027\0337\254\373\374\363\217"
 1162      DBFAD517 
 1162      1B37ACFB 
 1162      FCF38F
 1163 24d6 D7FD66EB 		.ascii	"\327\375f\353\207[\276:\340B\356\271\372\350\275=\340"
 1163      875BBE3A 
 1163      E042EEB9 
 1163      FAE8BD3D 
 1163      E0
 1164 24e7 63CF9E1D 		.ascii	"c\317\236\035k\335\265\237\376\3727omrqQ\330\272\272"
 1164      6BDDB59F 
 1164      FEFA376F 
 1164      6D727151 
 1164      D8BABA
 1165 24fa EEF7F034 		.ascii	"\356\367\3604\374\302\325\260\323\375\237\266Q\215>"
 1165      FCC2D5B0 
 1165      D3FD9FB6 
 1165      518D3E
 1166 2509 86FD3B3C 		.ascii	"\206\375;<\274\266\031\274\274\366\370l\333\345\271"
 1166      BCB619BC 
 1166      BCF6F86C 
 1166      DBE5B9
 1167 2518 FF2D7AF5 		.ascii	"\377-z\365\226\233\367\336\267\364{\267\353w\354\320"
 1167      969BF7DE 
 1167      B7F47BB7 
 1167      EB77ECD0 
 1168 2528 EFD8F6FE 		.ascii	"\357\330\366\376\332\365omX\357\362\3767\357n\203\362"
 1168      DAF56F6D 
 1168      58EFF2FE 
 1168      37EF6E83 
 1168      F2
 1169 2539 9F797A79 		.ascii	"\237yzy\352\177\246w\333\356\261\315\303\323}\317\376"
 1169      EA7FA677 
 1169      DBEEB1CD 
 1169      C3D37DCF 
 1169      FE
 1170 254a 1DFA6D7B 		.ascii	"\035\372m{\335@\227\247~\233\353\016\375N\267\375{\014"
 1170      DD4097A7 
 1170      7E9BEB0E 
 1170      FD4EB7FD 
 1170      7B0C
 1171 255c AE86EFF6 		.ascii	"\256\206\357\366\351}\326\356V\330p\346~\377\177\325"
 1171      E97DD6EE 
 1171      56D870E6 
 1171      7EFF7FD5 
 1172 256c 9CCF773E 		.ascii	"\234\317w>\333\\}\014;@7\330P\357\367q\3636\340M[6\332"
 1172      DB5C7D0C 
 1172      3B4037D8 
 1172      50EFF771 
 1172      F336E04D 
 1173 2583 B1E66DDC 		.ascii	"\261\346m\334\340j\320\362\027P\276\001\310\005\177"
 1173      E06AD0F2 
ARM GAS  C:\Users\AMANRA~1\AppData\Local\Temp\ccFdT4MI.s 			page 95


 1173      1750BE01 
 1173      C8057F
 1174 2592 B4658BF2 		.ascii	"\264e\213\362\343-\312\255[T\237~\365\345\226\377b\321"
 1174      E32DCAAD 
 1174      5B549F7E 
 1174      F5E596FF 
 1174      62D1
 1175 25a4 A9EE5E7B 		.ascii	"\251\356^{\367zy\256\323\0374\200W\231c\177\365\356"
 1175      F77A79AE 
 1175      D31F3480 
 1175      5799637F 
 1175      F5EE
 1176 25b6 C183EB7C 		.ascii	"\301\203\353|\014{7n\330\371\356\372\367\017\036\004"
 1176      0C7B376E 
 1176      D8F9EEFA 
 1176      F70F1E04 
 1177 25c6 830ED4CF 		.ascii	"\203\016\324\317\256_A\033?\326\357TzmWzl\327x}\263"
 1177      AE5F411B 
 1177      3FD6EF54 
 1177      7A6D577A 
 1177      6CD7787D 
 1178 25db 5FBF5FAF 		.ascii	"_\277_\257\375\306\325\323\313\340\261\363;\233o\\\275"
 1178      FDC6D5D3 
 1178      CBE0B1F3 
 1178      3B9B6F5C 
 1178      BD
 1179 25ec 77EC3378 		.ascii	"w\3543x\303\347\267\336\360\251\376\306\325\340\265"
 1179      C3E7B7DE 
 1179      F0A9FEC6 
 1179      D5E0B5
 1180 25fb 0F6E6FDF 		.ascii	"\017no\337\277s\247\336\333\366\033Ww\257\375\236\006"
 1180      BF73A7DE 
 1180      DBF61B57 
 1180      77AFFD9E 
 1180      06
 1181 260c BDB7C6C7 		.ascii	"\275\267\306\307\343\177\351]\015;\376J\007\355\361"
 1181      E37FE95D 
 1181      0D3BFE4A 
 1181      07EDF1
 1182 261b D8BE6D97 		.ascii	"\330\276m\227\273\273\314Q\357\257\335\260\326Ep\227"
 1182      BBBBCC51 
 1182      EFAFDDB0 
 1182      D6457097 
 1183 262b 016AED04 		.ascii	"\001j\355\004\340`\365[7\017\203\207\347.\225'\264Q"
 1183      E060F55B 
 1183      370F8387 
 1183      E72E9527 
 1183      B451
 1184 263d EBAD77DB 		.ascii	"\353\255w\333\263\317\333\303\313\306@\376w5X\2164\316"
 1184      B3CFDBC3 
 1184      CBC640FE 
 1184      7735588E 
 1184      34CE
 1185 264f 292CD83E 		.ascii	"),\330>\334\362\305\246/\016\222\262}\036{\364\336>"
 1185      DCF2C5A6 
 1185      2F0E92B2 
 1185      7D1E7BF4 
ARM GAS  C:\Users\AMANRA~1\AppData\Local\Temp\ccFdT4MI.s 			page 96


 1185      DE3E
 1186 2661 EB3EDDB4 		.ascii	"\353>\335\264\011*\230\372{\257\341\340\036h\203\332"
 1186      092A98FA 
 1186      7BAFE1E0 
 1186      1E6883DA 
 1187 2671 EB5B4F3D 		.ascii	"\353[O=4\232\370\304f\357~\203\376 t\211\373nWz\251"
 1187      349AF8C4 
 1187      66EF7E83 
 1187      FE207489 
 1187      FB6E577A 
 1188 2686 D5EFD37B 		.ascii	"\325\357\323{B\347\355\262\327\037\320{\032H\214\303"
 1188      42E7EDB2 
 1188      D71FD07B 
 1188      1A488CC3 
 1189 2696 DDBD3EBB 		.ascii	"\335\275>\273\2308\007\321\011\304\015\273\001\342\016"
 1189      983807D1 
 1189      09C40DBB 
 1189      01E20E
 1190 26a5 1F57A2D2 		.ascii	"\037W\242\322Q\314\270\032\320~\215\376[RU\363\255\001"
 1190      51CCB81A 
 1190      D07E8DFE 
 1190      5B5255F3 
 1190      AD01
 1191 26b7 8CEE830F 		.ascii	"\214\356\203\017\037\375\336}\330\335\323\000Q\316u"
 1191      1FFDDE7D 
 1191      D8DDD300 
 1191      51CE75
 1192 26c6 BE0DF7A9 		.ascii	"\276\015\367\251\206RW\203\0164\202\214\333\276\335"
 1192      86525783 
 1192      0E34828C 
 1192      DBBEDD
 1193 26d5 5EDE7A1B 		.ascii	"^\336z\033\037b\332g\227\032\010\004\2765\030\274\367"
 1193      1F62DA67 
 1193      971A0804 
 1193      BE3518BC 
 1193      F7
 1194 26e6 2D67265C 		.ascii	"-g&\\\275\365\320EzOw\350\027P\353\265\375O\373\264"
 1194      BDF5D045 
 1194      7A4F77E8 
 1194      1750EBB5 
 1194      FD4FFBB4 
 1195 26fa FA831E06 		.ascii	"\372\203\036\006w\257\035z\215\367\216\357\240\206\012"
 1195      77AF1D7A 
 1195      8DF78EEF 
 1195      A0860A
 1196 2709 447C6C0C 		.ascii	"D|l\014\344\177\250\274s\217\333.\340\366\302}\340|"
 1196      E47FA8BC 
 1196      738FDB2E 
 1196      E0F6C27D 
 1196      E07C
 1197 271b 0C6E06BD 		.ascii	"\014n\006\275\326@?\210\002\267\355n>z.4\337{\227\013"
 1197      D6403F88 
 1197      02B7ED6E 
 1197      3E7A2E34 
 1197      DF7B970B 
 1198 272f 4D7261E7 		.ascii	"Mra\347c\370\263\333\036\217]\236\256\206\015o\356\371"
 1198      63F8B3DB 
ARM GAS  C:\Users\AMANRA~1\AppData\Local\Temp\ccFdT4MI.s 			page 97


 1198      1E8F5D9E 
 1198      AE860D6F 
 1198      EEF9
 1199 2741 DDEE801E 		.ascii	"\335\356\200\036\\\255\362t\333\253W\271\357v\363V{"
 1199      5CADF274 
 1199      DBAB57B9 
 1199      EF76F356 
 1199      7B
 1200 2752 EDD901CE 		.ascii	"\355\331\001\316\366\324\177\253\367\306\356\206\203"
 1200      F6D47FAB 
 1200      F7C6EE86 
 1200      83
 1201 275f 4A9F7DCA 		.ascii	"J\237}\312=\336\320\273\273 *`\004x\273\270\000\255"
 1201      3DDED0BB 
 1201      BB202A60 
 1201      0478BBB8 
 1201      00AD
 1202 2771 577AFF52 		.ascii	"Wz\377R\351\375\013\245\367\373J\357\367\224\336?Wz"
 1202      E9FD0BA5 
 1202      F7FB4AEF 
 1202      F794DE3F 
 1202      577A
 1203 2783 BF8B7D36 		.ascii	"\277\213}6\272\000\255\307>\033~\011\364\013\240\367"
 1203      BA00ADC7 
 1203      3E1B7E09 
 1203      F40BA0F7 
 1204 2793 81DE03FA 		.ascii	"\201\336\003\3729\020\334\337\260\021h\003\020\310m"
 1204      3910DCDF 
 1204      B0116803 
 1204      10C86D
 1205 27a2 00391790 		.ascii	"\0009\027\220s\0019\027\220sy\317\236 #\276\006\243"
 1205      73013917 
 1205      907379CF 
 1205      9E2023BE 
 1205      06A3
 1206 27b4 EFFD852D 		.ascii	"\357\375\205-p=\360\376^h\205\216\252p\367\202\241p"
 1206      703DF0FE 
 1206      5E68858E 
 1206      AA70F782 
 1206      A170
 1207 27c6 D0A02261 		.ascii	"\320\240\"ahk\352w\365\336"
 1207      686BEA77 
 1207      F5DE
 1208 27d0 7D10FB5A 		.ascii	"}\020\373Z\256S\014\313D\001A#\005\304\365\007\234$"
 1208      AE530CCB 
 1208      44014123 
 1208      05C4F507 
 1208      9C24
 1209 27e2 45AE867F 		.ascii	"E\256\206\177\260\210\303\333\260\216\033\015p\307\307"
 1209      B088C3DB 
 1209      B08E1B0D 
 1209      70C7C7
 1210 27f1 7DF70E30 		.ascii	"}\367\0160\355\374zI\010,\020\374\331\033\250\374\316"
 1210      EDFC7A49 
 1210      082C10FC 
 1210      D91BA8FC 
 1210      CE
ARM GAS  C:\Users\AMANRA~1\AppData\Local\Temp\ccFdT4MI.s 			page 98


 1211 2802 871F026F 		.ascii	"\207\037\002o\240\026\202\020\004\355`\310q\240m\277"
 1211      A0168210 
 1211      04ED60C8 
 1211      71A06DBF 
 1212 2812 61590382 		.ascii	"aY\003\202\203/\324|\003\201\356\371\347\265V\223?\257"
 1212      832FD47C 
 1212      0381EEF9 
 1212      E7B55693 
 1212      3FAF
 1213 2824 8E247B5A 		.ascii	"\216${Z\203\030w\364\332o\330\267\337\300\353\325x\320"
 1213      831877F4 
 1213      DA6FD8B7 
 1213      DFC0EBD5 
 1213      78D0
 1214 2836 0B070F4F 		.ascii	"\013\007\017OQ\241v\353\307\256[>\371\360\343\257m\340"
 1214      51A176EB 
 1214      C7AE5B3E 
 1214      F9F0E3AF 
 1214      6DE0
 1215 2848 62EB57FF 		.ascii	"b\353W\377\372\245-|\376\346\327\233\177\275\371\253"
 1215      FAA52D7C 
 1215      FEE6D79B 
 1215      7FBDF9AB 
 1216 2858 37B3C6A6 		.ascii	"7\263\306\246\026\222O|vpQ\256\246#YG\377w\365\361\332"
 1216      16924F7C 
 1216      767051AE 
 1216      A6235947 
 1216      FF77F5F1 
 1217 286d EFEDAE67 		.ascii	"\357\355\256g\014\035\032\000\2042>Z2v\365\220\031\034"
 1217      0C1D1A00 
 1217      84323E5A 
 1217      3276F590 
 1217      191C
 1218 287f 9924CF6A 		.ascii	"\231$\317j\276\245r\313\244\245\256\206\237\274\336"
 1218      BEA572CB 
 1218      A4A5AE86 
 1218      9FBCDE
 1219 288e 974C3169 		.ascii	"\227L1i\272\3308D\375\201\275\0065\211\014\203\003t"
 1219      BAD83844 
 1219      FD81BD06 
 1219      35890C83 
 1219      0374
 1220 28a0 8E0749B5 		.ascii	"\216\007I\265\007\000\373\233\304\207\301c/\031`\232"
 1220      0700FB9B 
 1220      C487C163 
 1220      2F19609A 
 1221 28b0 6FBD3D0C 		.ascii	"o\275=\014z\203j\227\336\000\221\271\337`\300p\205\341"
 1221      7A836A97 
 1221      DE0091B9 
 1221      DF60C070 
 1221      85E1
 1222 28c2 42458393 		.ascii	"BE\203\223\336u\362\360\004\017\220L\341\265s\247\217"
 1222      DE75F2F0 
 1222      040F904C 
 1222      E1B573A7 
 1222      8F
 1223 28d3 DEE0B495 		.ascii	"\336\340\264\225\372\346co\217\003z\357\337~\361\025"
ARM GAS  C:\Users\AMANRA~1\AppData\Local\Temp\ccFdT4MI.s 			page 99


 1223      FAE6636F 
 1223      8F037AEF 
 1223      DF7EF115 
 1224 28e3 0CC73D3A 		.ascii	"\014\307=:q\231\006B}\247\307.\215\2077\314\000\333"
 1224      71990642 
 1224      7DA7C72E 
 1224      8D8737CC 
 1224      00DB
 1225 28f5 6DF7C3CC 		.ascii	"m\367\303\314E.\015\037\375G'\371\335\012\354\356\315"
 1225      452E0D1F 
 1225      FD4727F9 
 1225      DD0AECEE 
 1225      CD
 1226 2906 CF802EEF 		.ascii	"\317\200.\357qi\206\\@\371\006 \027\265\317>\275~\007"
 1226      7169865C 
 1226      40F90620 
 1226      17B5CF3E 
 1226      BD7E07
 1227 2919 87661385 		.ascii	"\207f\023\205a\303\302n\303\177\330\272\273\302\216"
 1227      61C3C26E 
 1227      C37FD8BA 
 1227      BBC28E
 1228 2928 CEC2900C 		.ascii	"\316\302\220\014<\014\266\340\010W\275\267\267\227\267"
 1228      3C0CB6E0 
 1228      0857BDB7 
 1228      B797B7
 1229 2937 13881CD0 		.ascii	"\023\210\034\320\273R\357{\357\337gX\356\263\203\210"
 1229      BB52EF7B 
 1229      EFDF6758 
 1229      EEB38388 
 1230 2947 C3DCEDB5 		.ascii	"\303\334\355\265o\355>\220_\273^\373[\275\273\301\313"
 1230      6FED3E90 
 1230      5FBB5EFB 
 1230      5BBDBBC1 
 1230      CB
 1231 2958 FBE35FD8 		.ascii	"\373\343_\330s\367\210\006\235I\016d\354E\225V\272\357"
 1231      73F78806 
 1231      9D490E64 
 1231      EC459556 
 1231      BAEF
 1232 296a FEE480E1 		.ascii	"\376\344\200\341#o/\267\035\356n>\206_\221\250\331\014"
 1232      236F2FB7 
 1232      1DEE6E3E 
 1232      865F91A8 
 1232      D90C
 1233 297c 73EFA77A 		.ascii	"s\357\247z\303f'\237\035\233=!\341\300\334\361\261\233"
 1233      C366279F 
 1233      1D9B3D21 
 1233      E1C0DCF1 
 1233      B19B
 1234 298e C16DF30F 		.ascii	"\301m\363\017<\017x\270\177\354\341\343\266}\217\236"
 1234      3C0F78B8 
 1234      7FECE1E3 
 1234      B67D8F9E 
 1235 299e 1979F735 		.ascii	"\031y\3675\315\344\262\025\227\247Hup\353rW\226\345"
 1235      CDE4B215 
 1235      97A74875 
ARM GAS  C:\Users\AMANRA~1\AppData\Local\Temp\ccFdT4MI.s 			page 100


 1235      70EB7257 
 1235      96E5
 1236 29b0 A097F430 		.ascii	"\240\227\3640\347y\355\332\257\007x\377\272\375O\240"
 1236      E779EDDA 
 1236      AF0778FF 
 1236      BAFD4FA0 
 1237 29c0 7233605D 		.ascii	"r3`]F\344>\361\024\254\340\255\037op\344\027B\254\273"
 1237      46E43EF1 
 1237      14ACE0AD 
 1237      1F6F70E4 
 1237      1742ACBB 
 1238 29d4 5779F9B8 		.ascii	"Wy\371\270\355\371\204\304\247\014\272\345dA\020\221"
 1238      EDF984C4 
 1238      A70CBAE5 
 1238      64411091 
 1239 29e4 1A242CC9 		.ascii	"\032$,\311'Y\344\270~\004\271p%\341\266~\347\363\033"
 1239      2759E4B8 
 1239      7E04B970 
 1239      25E1B67E 
 1239      E7F31B
 1240 29f7 CF3D5EEE 		.ascii	"\317=^\356\177\376\225\267\327\336\315[\267,w\337-/"
 1240      7FFE95B7 
 1240      D7DECD5B 
 1240      B72C77DF 
 1240      2D2F
