ARM GAS  C:\Users\AMANRA~1\AppData\Local\Temp\ccKbJO0N.s 			page 1


   1              		.cpu cortex-m4
   2              		.eabi_attribute 27, 1
   3              		.eabi_attribute 28, 1
   4              		.eabi_attribute 20, 1
   5              		.eabi_attribute 21, 1
   6              		.eabi_attribute 23, 3
   7              		.eabi_attribute 24, 1
   8              		.eabi_attribute 25, 1
   9              		.eabi_attribute 26, 1
  10              		.eabi_attribute 30, 2
  11              		.eabi_attribute 34, 1
  12              		.eabi_attribute 18, 4
  13              		.file	"main.c"
  14              		.section	.gnu.lto_.profile.2a00e427,"",%progbits
  15 0000 789C6363 		.ascii	"x\234cc```\003bF\206\027\254\035L\000\005e\001\205"
  15      60606003 
  15      62468617 
  15      AC1D4C00 
  15      05650185 
  16              		.text
  17              		.section	.gnu.lto_.icf.2a00e427,"",%progbits
  18 0000 789C6363 		.ascii	"x\234cc``Hd@\000\001\206/\267V\034daZvk\356&6\346_\257"
  18      60604864 
  18      40000186 
  18      2FB7561C 
  18      64615A76 
  19 001b 0FF770B2 		.ascii	"\017\367p\262\254{\267\362\010\023\333\346\323K\323"
  19      AC7BB7F2 
  19      0813DBE6 
  19      D34BD3
  20 002a D9D7F42C 		.ascii	"\331\327\364,\336\317\316\261\374\307\252\273,\234\333"
  20      DECFCEB1 
  20      FCC7AABB 
  20      2C9CDB
  21 0039 BF5E6EE6 		.ascii	"\277^n\346\347\332\367wK7\037w\373\2539\257\371x\316"
  21      E7DAF777 
  21      4B371F77 
  21      FBAB39AF 
  21      F978CE
  22 004c 7CBDB499 		.ascii	"|\275\264\231\203\027L\362\201I\376\275\017\337\265"
  22      83174CF2 
  22      8149FEBD 
  22      0FDFB5
  23 005b B30A8049 		.ascii	"\263\012\200I\301\326\207GW01\000\000\223\2551\306"
  23      C1D68747 
  23      57303100 
  23      0093AD31 
  23      C6
  24              		.text
  25              		.section	.gnu.lto_.jmpfuncs.2a00e427,"",%progbits
  26 0000 789CB557 		.ascii	"x\234\265W\351O\023A\024\237\267\263\335\226b\313!\022"
  26      E94F1341 
  26      149FB7B3 
  26      DD9662CB 
  26      2112
  27 0012 63F8209F 		.ascii	"c\370 \237\370@\210&\376\201\224r\012\250\210EE\233"
  27      F8408826 
ARM GAS  C:\Users\AMANRA~1\AppData\Local\Temp\ccKbJO0N.s 			page 2


  27      FE819472 
  27      0AA88845 
  27      459B
  28 0024 5AA32620 		.ascii	"Z\243& \304`\024\005/\020/\004\344P\024\025\361\000"
  28      C4601405 
  28      2F102F04 
  28      E4501415 
  28      F100
  29 0036 0F145014 		.ascii	"\017\024P\024T\016\265\2769Xj\273\273]li2I;\363\336"
  29      540EB5BE 
  29      39586ABB 
  29      BB5D6C69 
  29      32493BF3 
  30 004b EF78F35E 		.ascii	"\357x\363^\267\325\010!{\262\010\321\210x\251\004\000"
  30      B7D50821 
  30      7BB208D1 
  30      8878A904 
  30      00
  31 005c 8A8394B8 		.ascii	"\212\203\224\270 @a\254dl\022v\025\005)\204)i\240,\000"
  31      204061AC 
  31      646C1276 
  31      15052984 
  31      2969A02C 
  32 0071 7743F5A7 		.ascii	"wC\365\247}\031\305\277}\256 U\340\002\354\"\004.B1"
  32      7D19C5BF 
  32      7DAE2055 
  32      E002EC22 
  32      042E4231 
  33 0085 816E1508 		.ascii	"\201n\025\010\256_\221H$\003\024\014<\\\3363\344\254"
  33      AE5F9148 
  33      2403140C 
  33      3C5CDE33 
  33      E4AC
  34 0097 A12C8C40 		.ascii	"\241,\214@;\344\361\205\373\201\371\263\376\264|8\341"
  34      3BE4F185 
  34      FB81F9B3 
  34      FEB47C38 
  34      E1
  35 00a8 3BBA3348 		.ascii	";\2723H)\203\354\357\013\225\244!\344\366 U\341\022"
  35      2983ECEF 
  35      0B95A421 
  35      E4F62055 
  35      E112
  36 00ba E423E465 		.ascii	"\344#\344ekH<\200\016\204\353\020\220\327N\3246\273"
  36      6B483C80 
  36      0E84EB10 
  36      90D74ED4 
  36      36BB
  37 00cc D9BE0314 		.ascii	"\331\276\003\024\350\204<\236\252\260t\302\216'z\233"
  37      E8843C9E 
  37      AAB074C2 
  37      8E277A9B 
  38 00dc 5B283BD6 		.ascii	"[(;\326 \302\261\256\310\020\376\211\207i6\015_\345"
  38      20C2B1AE 
  38      C810FE89 
  38      8769360D 
  38      5FE5
ARM GAS  C:\Users\AMANRA~1\AppData\Local\Temp\ccKbJO0N.s 			page 3


  39 00ee 86AFC5AB 		.ascii	"\206\257\305\253[sH\364\203\010j4`R\354\223]\347d7\314"
  39      5B7348F4 
  39      83086A34 
  39      6052EC93 
  39      5DE76437 
  40 0103 C918CEA9 		.ascii	"\311\030\316\251\266\246\012n\316\011\273\241K\322\355"
  40      B6A60A6E 
  40      CE09BBA1 
  40      4BD2ED
  41 0112 16DE0DE8 		.ascii	"\026\336\015\350\251\270a\227]\015\335\\\303\315$\014"
  41      A9B86197 
  41      5D0DDD5C 
  41      C3CD240C 
  42 0122 DBB6DBC3 		.ascii	"\333\266\333\303\251nY\333m\234\256\036\365\012\273"
  42      A96E59DB 
  42      6D9CAE1E 
  42      F50ABB
  43 0131 45705B92 		.ascii	"Ep[\222\025\231\332\265\313}\207s\337\265\346n}\373"
  43      1599DAB5 
  43      CB7D8773 
  43      DFB5E66E 
  43      7DFB
  44 0143 6DD92DB8 		.ascii	"m\331-\270\013\341\236\344*4\345V\361\262Y\332\360\271"
  44      0BE19EE4 
  44      2A34E556 
  44      F1B259DA 
  44      F0B9
  45 0155 E6E35ED1 		.ascii	"\346\343^\321~u\203\004ze \276\027\015\301b\332\375"
  45      7E758304 
  45      7A6520BE 
  45      170DC162 
  45      DAFD
  46 0167 4D77B57C 		.ascii	"Mw\265|\207\030\2124&\257\245}\254\301)\206\302\015"
  46      87188A34 
  46      26AFA57D 
  46      ACC12986 
  46      C20D
  47 0179 F7F950F4 		.ascii	"\367\371P\364Y\017\205\033\353\337\217Jq)\353\267Rl"
  47      590F851B 
  47      EBDF8F4A 
  47      7129EBB7 
  47      526C
  48 018b BB0603BC 		.ascii	"\273\006\003\274\006\017\222\351m\033V\006\271\225!"
  48      060F92E9 
  48      6D1B5606 
  48      B99521
  49 019a 039664B4 		.ascii	"\003\226d\264\017s\355#\233\254\375!\327\376(\305\332"
  49      0F73ED23 
  49      9BACFD21 
  49      D7FE28C5 
  49      DA
  50 01ab 47B9F6C7 		.ascii	"G\271\366\307\233\254\375\011\327>\226b\355O\271\366"
  50      9BACFD09 
  50      D73E9662 
  50      ED4FB9F6 
  51 01bb 67C96AEF 		.ascii	"g\311j\357\354\234\035w\012\314\3640e\363\364\334\272"
  51      EC9C1D77 
ARM GAS  C:\Users\AMANRA~1\AppData\Local\Temp\ccKbJO0N.s 			page 4


  51      0ACCF430 
  51      65F3F4DC 
  51      BA
  52 01cc D7D3116C 		.ascii	"\327\323\021l\034\031p\231\000\2740\320$3\274\306\031"
  52      1C197099 
  52      00BC30D0 
  52      2433BCC6 
  52      19
  53 01dd 13E6192C 		.ascii	"\023\346\031,a\276\363L\223\302\270\267\200\007^J\037"
  53      61BEF34C 
  53      93C2B8B7 
  53      80075E4A 
  53      1F
  54 01ee 1EFD21A3 		.ascii	"\036\375!\243K\363\240\264W\362\230A-1(\036\322^9p^"
  54      4BF3A0B4 
  54      57F29841 
  54      2D31281E 
  54      D25E3970 
  55 0203 3EA6005E 		.ascii	">\246\000^\313\020\320\021\242\024y\303\224]\307\033"
  55      CB10D011 
  55      A21479C3 
  55      945DC71B 
  56 0213 EB227891 		.ascii	"\353\"x\221i\022\305M\012\201\357\232nMIx\015\246$\274"
  56      6912C54D 
  56      0A81EF9A 
  56      6E4D4978 
  56      0DA624BC 
  57 0227 A6C33F38 		.ascii	"\246\303?8\331:\250\261\343\014p\303[y\354\266\272\203"
  57      D93AA8B1 
  57      E30C70C3 
  57      5B79ECB6 
  57      BA83
  58 0239 77E605E1 		.ascii	"w\346\005\341\031\201\362\201\317\212\370b\253*\200"
  58      1981F281 
  58      CF8AF862 
  58      AB2A80
  59 0248 F712B2AA 		.ascii	"\367\022\262\252\300vO~\340=9m\336\223v\333\360#o\303"
  59      C0764F7E 
  59      E03D396D 
  59      DE9376DB 
  59      F0236FC3 
  60 025c 4F9B3C42 		.ascii	"O\233<B3\\\356l\212Gh\216k\377\234\372\021\372\222\340"
  60      335CEE6C 
  60      8A47688E 
  60      6BFF9CFA 
  60      11FA92E0 
  61 0270 FAE233E6 		.ascii	"\372\3423\3467<3_-f\306`H\242\0002\303\370\343\217\300"
  61      373C335F 
  61      2D66C660 
  61      48A20032 
  61      C3F8E38F 
  62 0285 B7288048 		.ascii	"\267(\200H|\213g\242\343\005\304b\313\326\310,\032\010"
  62      7C8B67A2 
  62      E305C462 
  62      CBD6C82C 
  62      1A08
  63 0297 5A9B9158 		.ascii	"Z\233\221X\000{S\360=A\031\0234\315\017\3364?S\3344"
ARM GAS  C:\Users\AMANRA~1\AppData\Local\Temp\ccKbJO0N.s 			page 5


  63      007B53F0 
  63      3D411913 
  63      34CD0FDE 
  63      343F53DC 
  64 02ac 4BBC6996 		.ascii	"K\274i\226S\3374+\311\271]\345n\177\245\330\355o\356"
  64      53DF342B 
  64      C9B95DE5 
  64      6E7FA5D8 
  64      ED6FEE
  65 02bf F64FEADD 		.ascii	"\366O\352\335F6\334\360>\345\177\033>+L\361\027!\224"
  65      4636DCF0 
  65      3EE57F1B 
  65      3E2B4CF1 
  65      172194
  66 02d2 C4034437 		.ascii	"\304\003D7|\026\352\367+y|\305\376\225aS`\360X\321s"
  66      7C16EAF7 
  66      2B797CC5 
  66      FE956153 
  66      60F058D1 
  67 02e7 1D985BAA 		.ascii	"\035\230[\252\254\207\304\267\270\211\251\262dL9p\263"
  67      AC87C4B7 
  67      B889A9B2 
  67      644C3970 
  67      B3
  68 02f8 DC006023 		.ascii	"\334\000`#.\022\3106\271\275\012s\331\274\263\002=\215"
  68      2E12C836 
  68      B9BD0A73 
  68      D9BCB302 
  68      3D8D
  69 030a A31E5698 		.ascii	"\243\036V\230l\360\325U\371T\250Tb\230\377\255}6\326"
  69      6CF0D555 
  69      F954A854 
  69      6298FFAD 
  69      7D36D6
  70 031d AF0A15B3 		.ascii	"\257\012\025\263\205\373G\346\226w\210\247\033\246\356"
  70      85FB47E6 
  70      967788A7 
  70      1BA6EE
  71 032c 95A93E55 		.ascii	"\225\251>U/\303\261p\250?\215\005l\205\220\012\3252"
  71      2FC3B170 
  71      A83F8D05 
  71      6C85900A 
  71      D532
  72 033e 202402B8 		.ascii	" $\002\270\200\305\361\311A\220\002|L@M\274\200h\306"
  72      80C5F1C9 
  72      4190027C 
  72      4C404DBC 
  72      8068C6
  73 0351 73D35D41 		.ascii	"s\323]A\267\244T\240v\215r\255pq\024\211\360\216]]\354"
  73      B7A454A0 
  73      768D72AD 
  73      70711489 
  73      F08E5D5D 
  74 0366 73083C17 		.ascii	"s\010<\027\354\223\261.\335\300\352\214\277V\021\006"
  74      EC93B12E 
  74      DDC0EA8C 
  74      BF561106 
ARM GAS  C:\Users\AMANRA~1\AppData\Local\Temp\ccKbJO0N.s 			page 6


  75 0376 FC4ED82F 		.ascii	"\374N\330/\317\375N\233\350#emA\371\267Z\205\0032V\226"
  75      CFFD4E9B 
  75      E823656D 
  75      41F9B75A 
  75      85033256 
  76 038b 27164D8D 		.ascii	"'\026M\215\271\301\2340\033t\250\263\036\206\034\274"
  76      B9C19C30 
  76      1B74A8B3 
  76      1E861CBC 
  77 039b 90834876 		.ascii	"\220\203HvP\020\352\373\333p\277>V\\\034\207\354\222"
  77      5010EAFB 
  77      DB70BF3E 
  77      565C1C87 
  77      EC92
  78 03ad 4316CD8D 		.ascii	"C\026\315\215\011\245+]\013^\361\365\225\033\246\032"
  78      09A52B5D 
  78      0B5EF1F5 
  78      951BA61A 
  79 03bd AB8CB5A8 		.ascii	"\253\214\265\250\\$o@A\270\320\002\365\270\011\220\277"
  79      5C246F40 
  79      41B8D002 
  79      F5B80990 
  79      BF
  80 03ce DED5E727 		.ascii	"\336\325\347'"
  81              		.text
  82              		.section	.gnu.lto_.inline.2a00e427,"",%progbits
  83 0000 789CA590 		.ascii	"x\234\245\220=n\302@\020\205\337\314\254\361\022pX\\"
  83      3D6EC240 
  83      1085DFCC 
  83      ACF11270 
  83      585C
  84 0012 46487022 		.ascii	"FHp\"_\003\216AC\2234D\212\250(,q\002\224&u.\220HT>"
  84      5F038E41 
  84      43933444 
  84      8AA8282C 
  84      71029426 
  85 002c 0795BB8C 		.ascii	"\007\225\273\214w\275\376\221\222*\226\374f\365f\347"
  85      77BDFE91 
  85      922A96FC 
  85      66F566E7 
  86 003c DBA79900 		.ascii	"\333\247\231\000\310\031\335g\000w\007\201\355\376U"
  86      C819DD67 
  86      00770781 
  86      EDFE55
  87 004b 3029D7BE 		.ascii	"0)\327\276\227<\372\216JF\020\034\013\260K\027zK\255"
  87      973CFA8E 
  87      4A46101C 
  87      0BB04B17 
  87      7A4BAD
  88 005e 78C764D0 		.ascii	"x\307d\320\226\376nS\203\004n\367&t:|~\245/r\026K\240"
  88      96FE6E53 
  88      83046EF7 
  88      26743A7C 
  88      7EA52F72 
  89 0075 775A297D 		.ascii	"wZ)}\333V\322\221\247\217:\011\000S\256\035\370;qv\364"
  89      DB56D291 
  89      A78F3A09 
ARM GAS  C:\Users\AMANRA~1\AppData\Local\Temp\ccKbJO0N.s 			page 7


  89      0053AE1D 
  89      F83B7176 
  90 008a 0C3D04B2 		.ascii	"\014=\004\262\365h=\230p@E\267\013k\200g*\253k\242\206"
  90      F5683D98 
  90      704045B7 
  90      0B6B8067 
  90      2AAB6BA2 
  91 009f CFC0336A 		.ascii	"\317\3003j\262\367z,L\306m\342\177\2732\357\351\323"
  91      B2F77A2C 
  91      4CC66DE2 
  91      7FBB32EF 
  91      E9D3
  92 00b1 9C90B63B 		.ascii	"\234\220\266;\033\277\312\252&\223\010\342h6 \211\240"
  92      1BBFCAAA 
  92      269308E2 
  92      68362089 
  92      A0
  93 00c2 CE55100F 		.ascii	"\316U\020\017@\301G\324f\206\342\014\376\354\005w\232"
  93      40C147D4 
  93      6686E20C 
  93      FEEC0577 
  93      9A
  94 00d3 A323D925 		.ascii	"\243#\331%\006T\370H\210;\374\2656|\356\212\337\273"
  94      0654F848 
  94      883BFCB5 
  94      367CEE8A 
  94      DFBB
  95 00e5 17FC00F5 		.ascii	"\027\374\000\365P(a"
  95      502861
  96              		.text
  97              		.section	.gnu.lto_.pureconst.2a00e427,"",%progbits
  98 0000 789C6363 		.ascii	"x\234cc``\340\004b\026\006K&\011f\013\026S\000\004\024"
  98      6060E004 
  98      6216064B 
  98      2609660B 
  98      16530004 
  99 0015 00DB     		.ascii	"\000\333"
 100              		.text
 101              		.section	.gnu.lto_println.2a00e427,"",%progbits
 102 0000 789C8552 		.ascii	"x\234\205RMk\023Q\024\275g\356\314\344\253I]\012f\221"
 102      4D6B1351 
 102      14BD67EE 
 102      CCE4AB49 
 102      5D0A6691 
 103 0014 8250BAB1 		.ascii	"\202P\272\261n\374\007.\374\033\342\312\205\342?\230"
 103      6EFC072E 
 103      FC1BE2CA 
 103      85E23F98 
 104 0024 97A46D12 		.ascii	"\227\244m\022\255 \322\306\022\2066\020\244\326\"U\032"
 104      AD20D2C6 
 104      12863610 
 104      A4D62255 
 104      1A
 105 0035 63A351A7 		.ascii	"c\243Q\247\251\266\261\037\212\272\020l\272Q\014\"Q"
 105      A9B6B11F 
 105      8ABA106C 
 105      BA510C22 
ARM GAS  C:\Users\AMANRA~1\AppData\Local\Temp\ccKbJO0N.s 			page 8


 105      51
 106 0046 AC881BB5 		.ascii	"\254\210\033\265\365\276\031\005\221R\037\314\314}\367"
 106      F5BE1905 
 106      91521FCC 
 106      CC7DF7
 107 0055 DE73DF39 		.ascii	"\336s\3379\347\215MD\307\231\250W\276'\344\201M0.=%"
 107      E78D4D44 
 107      C799A857 
 107      BE27E481 
 107      4D302E3D 
 108 006a 4A870D98 		.ascii	"J\207\015\230A\300A\260\0306\015\2566\211T\324j\307"
 108      41C041B0 
 108      18360DAE 
 108      368954D4 
 108      6AC7
 109 007c 48F55880 		.ascii	"H\365X\200\316\2530\3101\330\264\340\030&\375^\243<"
 109      CEAB30C8 
 109      31D8B4E0 
 109      1826FD5E 
 109      A33C
 110 008e C668E63A 		.ascii	"\306h\346:uc`Z\311\362\256\324\216\245\325\360AW\316"
 110      7563605A 
 110      C9F2AED4 
 110      8EA5D5F0 
 110      4157CE
 111 00a1 2A72D083 		.ascii	"*r\320\203y\014H\327\363\241\233._`\227\001S\266\333"
 111      790C48D7 
 111      F3A19B2E 
 111      5F609701 
 111      53B6DB
 112 00b4 1BA5B709 		.ascii	"\033\245\267\011\2755\220\222\355\272W\230\213r\024"
 112      BD359092 
 112      EDBA5798 
 112      8B7214
 113 00c3 24F19785 		.ascii	"$\361\227\205\367kf\377U\2452\312kWX\035v\231Q\003\313"
 113      F76B66FF 
 113      55A532CA 
 113      6B57581D 
 113      76995103 
 114 00d8 40DC4612 		.ascii	"@\334F\022U$IR\204;\350\327\375on\355\214\307m38\020"
 114      55244952 
 114      843BE8D7 
 114      FD6F6EED 
 114      8CC76D33 
 115 00ee 0B5A9B04 		.ascii	"\013Z\233\004s/,O\355\354\346\224\367\265\202\227V\004"
 115      732F2C4F 
 115      EDECE694 
 115      F7B58297 
 115      5604
 116 0100 82310D1F 		.ascii	"\2021\015\037dB\277C\301\000\312\013\254\035S\236\004"
 116      6442BF43 
 116      C100CA0B 
 116      AC1D539E 
 116      04
 117 0111 8604598F 		.ascii	"\206\004Y\217\0122\\\034\220\350\003\262\356\310\307"
 117      0A325C1C 
 117      90E803B2 
ARM GAS  C:\Users\AMANRA~1\AppData\Local\Temp\ccKbJO0N.s 			page 9


 117      EEC8C7
 118 0120 59E8A925 		.ascii	"Y\350\251%\016\225\204\355\321$u\220I\351\214\306K\226"
 118      0E9584ED 
 118      D1247590 
 118      49E98CC6 
 118      4B96
 119 0132 BA18F1F7 		.ascii	"\272\030\361\367\232L\275\336\335\0149?U\330e\253\310"
 119      9A4CBDDE 
 119      DD0C393F 
 119      55D865AB 
 119      C8
 120 0143 42047538 		.ascii	"B\004u8\272P\034n>\013i\3016\376\351\263\313\232\270"
 120      BA501C6E 
 120      3E0B69C1 
 120      36FEE9B3 
 120      CB9AB8
 121 0156 E4AAD9ED 		.ascii	"\344\252\331\355\313\2112&\341r\010\367\340\340\256"
 121      CB893226 
 121      E17208F7 
 121      E0E0AE
 122 0165 28D585DA 		.ascii	"(\325\205\332J\373{x\360\206v8\345r\030\015\2241\356"
 122      4AFB7B78 
 122      F0867638 
 122      E572180D 
 122      9431EE
 123 0178 DB2BC56B 		.ascii	"\333+\305k\255\213\363\011\231\224\367\213\021\334\307"
 123      AD8BF309 
 123      9994F78B 
 123      11DCC7
 124 0187 6060C203 		.ascii	"``\302\0038%\206tl\265ff}\353\243\330\225\325\213\207"
 124      38258674 
 124      6CB56666 
 124      7DEBA3D8 
 124      95D58B87 
 125 019b 48BA1C13 		.ascii	"H\272\034\023x\201M\222\313\025\245\035\004\336\210"
 125      78814D92 
 125      CB15A51D 
 125      04DE88
 126 01aa 44519DF9 		.ascii	"DQ\235\371q~k\315\016T\343o\362\354\223o47\226m!\232"
 126      717E6BCD 
 126      0E54E36F 
 126      F2EC936F 
 126      3437966D 
 127 01c0 0E0899DA 		.ascii	"\016\010\231\332\027Os\305\2420\243w\030\332\\Z\307"
 127      174F73C5 
 127      A230A377 
 127      18DA5C5A 
 127      C7
 128 01d1 1E701384 		.ascii	"\036p\023\204\246n$\372\006\243\244/D\014\344\327\257"
 128      A66E24FA 
 128      06A3A42F 
 128      440CE4D7 
 128      AF
 129 01e2 0CA16205 		.ascii	"\014\241b\005\356w\221+W\016\355\341gOQ\270\021\226"
 129      EE77912B 
 129      570EEDE1 
 129      674F51B8 
ARM GAS  C:\Users\AMANRA~1\AppData\Local\Temp\ccKbJO0N.s 			page 10


 129      1196
 130 01f4 023FFF6B 		.ascii	"\002?\377k\340\243}\014|\274\237\201\313\177\014\\\201"
 130      E0A37D0C 
 130      7CBC9F81 
 130      CB7F0C5C 
 130      81
 131 0205 23E5B1CF 		.ascii	"#\345\261\317\3273\221\276\236)5!\325\270\006\254\255"
 131      D73391BE 
 131      9E293521 
 131      D5B806AC 
 131      AD
 132 0216 4EA62302 		.ascii	"N\246#\002\230\360\001\011\264\320\027\000\236\370\200"
 132      98F00109 
 132      B4D01700 
 132      9EF880
 133 0225 C6D4E84C 		.ascii	"\306\324\350LT\253\355\205\201U\371a}\273\017\320'd"
 133      54ABED85 
 133      8155F961 
 133      7DBB0FD0 
 133      2764
 134 0237 CAD331BF 		.ascii	"\312\3231\277S\257\274x\331\216\211\242\320\231\223"
 134      53AFBC78 
 134      D98E89A2 
 134      D09993
 135 0246 A7CF1E39 		.ascii	"\247\317\0369E8\307\361(\375\002h\256\021!"
 135      4538C7F1 
 135      28FD0268 
 135      AE1121
 136              		.text
 137              		.section	.gnu.lto_printn.part.0.2a00e427,"",%progbits
 138 0000 789C5D93 		.ascii	"x\234]\223\315k\023A\030\306\347\331w7\033\323657\017"
 138      CD6B1341 
 138      18C6E7D9 
 138      77371BD3 
 138      3635370F 
 139 0014 39F4124B 		.ascii	"9\364\022K\013Z/B\301\277F\005\301\203\305\213\347L"
 139      0B5A2F42 
 139      C1BF4605 
 139      C183C58B 
 139      E74C
 140 0026 633F528D 		.ascii	"c?R\215 \265MHX%X\265\321\242\255\244FSk]c\233\246\037"
 140      20B54D48 
 140      582558B5 
 140      D1A2ADA4 
 140      46536B5D 
 141 003e 2AF6E2C1 		.ascii	"*\366\342\301\010\242\030AJ\261(z(I}g6\244\340\300\354"
 141      08A21841 
 141      4AB1287A 
 141      28497D67 
 141      36A4E0C0 
 142 0053 CC3BF3CC 		.ascii	"\314;\363\314o\336yf\326'\2040H\210\020\267\307\270"
 142      6FDE7966 
 142      D6278430 
 142      488810B7 
 142      C7B8
 143 0065 C21230AF 		.ascii	"\302\0220\257\277\345\216\011C\267\006H\265\203~\002"
 143      BFE58E09 
ARM GAS  C:\Users\AMANRA~1\AppData\Local\Temp\ccKbJO0N.s 			page 11


 143      43B70648 
 143      B5837E02 
 144 0075 5447FA21 		.ascii	"TG\372!\242\246A\210\"A\023\204\322h\255h\364LK.n\252"
 144      A2A64188 
 144      22411384 
 144      D268AD68 
 144      F44C4B2E 
 145 008b 7A72500E 		.ascii	"zrP\016\037q\030\230\344\252\012\362\350\021,[\331\377"
 145      1F711898 
 145      E4AA0AF2 
 145      E8112C5B 
 145      D9FF
 146 009d EB765E25 		.ascii	"\353v^%\207)\006\207[?7o\266\251\320\300a\016\353r\""
 146      87290687 
 146      5B3F376F 
 146      B6A9D0C0 
 146      610EEB72 
 147 00b2 19A40094 		.ascii	"\031\244\000\2242\223\372u\305\214Li`\0059i:D(\200\230"
 147      3293FA75 
 147      C58C4C69 
 147      60053969 
 147      3A442880 
 148 00c7 88270863 		.ascii	"\210'\010c\036aMf\351\373\2419\207<\250\311\341\356"
 148      1E614D66 
 148      E9FBA139 
 148      873CA8C9 
 148      E1EE
 149 00d9 9BCCD7A0 		.ascii	"\233\314\327\240\007\355\342p\323\035\233\015P\273\206"
 149      07EDE270 
 149      D31D9B0D 
 149      50BB86
 150 00e8 EEA58ADF 		.ascii	"\356\245\212\33744&\335\306=+#\335\241.\207L,x\334\""
 150      343426DD 
 150      C63D2B23 
 150      DDA12E87 
 150      4C2C78DC 
 151 00fd 739F1D70 		.ascii	"s\237\035p[\331AgW\250\255\225\003\036W\202\343\231"
 151      5BD94167 
 151      57A8AD95 
 151      031E5782 
 151      E399
 152 010f DFF50D93 		.ascii	"\337\365\015\223\202\032\234K-:\001\006\273\234\355"
 152      821A9C4B 
 152      2D3A0106 
 152      BB9CED
 153 011e 7248DE91 		.ascii	"rH\336\221\206C\026\226<\354\013\306.\036`\277<nLv\370"
 153      86431696 
 153      3CEC0BC6 
 153      2E1E60BF 
 153      3C6E4C76 
 154 0133 4CBC4404 		.ascii	"L\274D\004\317\271>ED\371\004\027\276\346G\010R\243"
 154      CFB93E45 
 154      44F90417 
 154      BEE64708 
 154      52A3
 155 0145 7A9655B3 		.ascii	"z\226U\263[\226\224\215\375Q)\027\216\206L!\342l\252"
 155      5B96948D 
ARM GAS  C:\Users\AMANRA~1\AppData\Local\Temp\ccKbJO0N.s 			page 12


 155      FD512917 
 155      8E864C21 
 155      E26CAA
 156 0158 BA833132 		.ascii	"\272\20312UK5\304t\022\037n/\335\010\366\346\264e\353"
 156      554B35C4 
 156      74121F6E 
 156      2FDD08F6 
 156      E6B465EB 
 157 016c A7D2593F 		.ascii	"\247\322Y?[&\232\376\277B/+\362\217r\017\254\356\273"
 157      5B269AFE 
 157      BF422F2B 
 157      F28F720F 
 157      ACEEBB
 158 017f 5AF1A76C 		.ascii	"Z\361\247l\247\245k\264lE\313V\265\014%t\213\032\014"
 158      A7A56BB4 
 158      6C45CB56 
 158      B50C2574 
 158      8B1A0C
 159 0192 A113E1D5 		.ascii	"\241\023\341\325B\355g\350\375\2661\222\235NX:W\206"
 159      42ED67E8 
 159      FDB63192 
 159      9D4E583A 
 159      5786
 160 01a4 168BDB1F 		.ascii	"\026\213\333\037\355h]\362v\276$K\004^#\252&\222\303"
 160      ED685DF2 
 160      76BE244B 
 160      045E23AA 
 160      2692C3
 161 01b7 A577B632 		.ascii	"\245w\2662\314\306\177:;K\236\027\363\227w\307\203Y"
 161      CCC67F3A 
 161      3B4B9E17 
 161      F39777C7 
 161      8359
 162 01c9 DC82437E 		.ascii	"\334\202C~\254\360cZV>)\263W\253{\376\276\207*S\276"
 162      ACF0635A 
 162      563E29B3 
 162      57AB7BFE 
 162      BE872A53 
 163 01de A1432823 		.ascii	"\241C(#\213Ij:\230\253\\\313\007\231\024\327\223\001"
 163      8B496A3A 
 163      98AB5CCB 
 163      079914D7 
 163      9301
 164 01f0 ACA2CF33 		.ascii	"\254\242\3173\256\202(OO\315\345F\364{h\303\011\254"
 164      AE82284F 
 164      4FCDE546 
 164      F47B68C3 
 164      09AC
 165 0202 21CC439F 		.ascii	"!\314C\237*\367g\364P;\366\271tb\035a\207:\364\241H"
 165      2AF767F4 
 165      503BF6B9 
 165      74621D61 
 165      873AF4A1 
 166 0217 1FEA074A 		.ascii	"\037\352\007JU(\212r\234W\244?\273\343V\177A\30695\376"
 166      55288A72 
 166      9C57A43F 
 166      BBE3567F 
ARM GAS  C:\Users\AMANRA~1\AppData\Local\Temp\ccKbJO0N.s 			page 13


 166      41C63935 
 167 022c 1B36D02F 		.ascii	"\0336\320/v\020\313~Oh\22165NPK\371\304\366\205\323"
 167      7610CB7E 
 167      4F689136 
 167      354E504B 
 167      F9C4F685 
 168 0241 E7078E9F 		.ascii	"\347\007\216\237\025\030\300E:s\351\334?\206\327\371"
 168      1518C045 
 168      3A73E9DC 
 168      3F86D7F9 
 169 0251 3C       		.ascii	"<"
 170              		.text
 171              		.section	.gnu.lto_printn.2a00e427,"",%progbits
 172 0000 789C8D55 		.ascii	"x\234\215U\353O\\E\024\237\337\235{\367\276v\027\250"
 172      EB4F5C45 
 172      149FDF9D 
 172      7BF7BE76 
 172      17A8
 173 0012 12246E0C 		.ascii	"\022$n\014_H\323\022mc\242\362\357\250\211\306\0176"
 173      5F48D312 
 173      6D63A2F2 
 173      EFA889C6 
 173      0F36
 174 0024 7EF18326 		.ascii	"~\361\203&f/\217.\0171i\372X\312\346j6\342\003\255\012"
 174      662F8F2E 
 174      0F3169FA 
 174      58CAE66A 
 174      36E203AD 
 175 0039 04C44211 		.ascii	"\004\304B\021/\320R\260@\013\245\366\301\322\252\264"
 175      2FD052B0 
 175      400BA5F6 
 175      C1D2AAB4 
 176 0049 68909842 		.ascii	"h\220\230B\024S+\340\231\231\273e[-z\223\235{\347\314"
 176      14532BE0 
 176      9999BB65 
 176      5B2D7A93 
 176      9D7BE7CC 
 177 005d 99DF9CF3 		.ascii	"\231\337\234\363\373\2353\033a\214\275e2VB\357!\372"
 177      FB9D331B 
 177      618CBD65 
 177      325642EF 
 177      21FA
 178 006f 21CEA01D 		.ascii	"!\316\240\035\232f\254\306\3224\356=\315<G?\224`^\224"
 178      9A66ACC6 
 178      D234EE3D 
 178      CD3C473F 
 178      94605E94 
 179 0083 C350663D 		.ascii	"\303Pf=\377ah\221\2262Z\217\325?G\3531X\302\214\010"
 179      FF616891 
 179      96325A8F 
 179      D53F47EB 
 179      3158C28C 
 180 0098 5CF936D5 		.ascii	"\\\3716\325|\330\2624\263w\204\221_4\347\222_\024\216"
 180      7CD8B234 
 180      B3778491 
 180      5F34E792 
 180      5F148E
ARM GAS  C:\Users\AMANRA~1\AppData\Local\Temp\ccKbJO0N.s 			page 14


 181 00ab 5CB7D57B 		.ascii	"\\\267\325{\330r4[\255\273r\335\005\204\335\263\300"
 181      D872345B 
 181      ADBB72DD 
 181      0584DDB3 
 181      C0
 182 00bc 921AD78D 		.ascii	"\222\032\327\215X\304\264\242\266\343\"\311-\026>\016"
 182      58C4B4A2 
 182      B6E322C9 
 182      2D163E0E 
 183 00cc 43A0638B 		.ascii	"C\240c\213\236\242{\037r\241\205\037\345\030iX\352\327"
 183      9EA27B1F 
 183      72A1851F 
 183      E5186958 
 183      EAD7
 184 00de F67CECD1 		.ascii	"\366|\354\321\023\264\346\236\251\361\016>\346s\306"
 184      13B4E69E 
 184      A9F10E3E 
 184      E673C6
 185 00ed D25C6D46 		.ascii	"\322\\mF\017\366\220\327\231\255?\202\242\267\271\317"
 185      0FF690D7 
 185      99AD3F82 
 185      A2B7B9CF 
 186 00fd 018DA6B3 		.ascii	"\001\215\246\263\267'\337u\305TC1M7\274\243\3518w\300"
 186      B727DF75 
 186      C5544331 
 186      4D37BCA3 
 186      E93877C0 
 187 0111 E8BBE78B 		.ascii	"\350\273\347\213\216O\215\335\037J\274\233G\270\367"
 187      8E4F8DDD 
 187      1F4ABC9B 
 187      47B8F7
 188 0120 A8CF39FA 		.ascii	"\250\3179\372\300\011\020_\"\201^$\030\231\030\276\302"
 188      C009105F 
 188      22815E24 
 188      189918BE 
 188      C2
 189 0131 6EE13F53 		.ascii	"n\341?S\337\345s\205\254\323tu*\263\030W\310\0254\235"
 189      DFE57385 
 189      ACD37475 
 189      2AB31857 
 189      C815349D 
 190 0145 0C9A3A1D 		.ascii	"\014\232:\035\036\225\310w[\373o\351\225\355\236W\353"
 190      1E95C877 
 190      5BFB6FE9 
 190      95ED9E57 
 190      EB
 191 0156 059B1F19 		.ascii	"\005\233\037\031\031/\250\257\360\271\216\001\005\336"
 191      192FA8AF 
 191      F0B98E01 
 191      05DE
 192 0164 4FE02709 		.ascii	"O\340'\011\\<\205!B\206\330\26741\346(\\\0174?\361\333"
 192      5C3C8521 
 192      4286D8B7 
 192      3431E628 
 192      5C0F343F 
 193 017a C6399DC7 		.ascii	"\3069\235\307%pG\353\240\357\020p@!\237.\361>\3604\237"
 193      257047EB 
ARM GAS  C:\Users\AMANRA~1\AppData\Local\Temp\ccKbJO0N.s 			page 15


 193      A0EF1070 
 193      40219F2E 
 193      F13EF034 
 194 018f 1B1852B0 		.ascii	"\033\030R\260_\023\354\3406\354\217\335\233\307b\021"
 194      5F13ECE0 
 194      36EC8FDD 
 194      9BC76211 
 195 019f 1DDFA012 		.ascii	"\035\337\240\022\247P\251xB\200\010\003cZ\336\3349k"
 195      A750A978 
 195      42800803 
 195      635ADEDC 
 195      396B
 196 01b1 04DEE656 		.ascii	"\004\336\346V\203\027\254\257\243\375\247\026<\016J"
 196      8317ACAF 
 196      A3FDA716 
 196      3C0E4A
 197 01c0 3AA28981 		.ascii	":\242\211\201\323`\3524X\0211\230b\260$\035\266\034"
 197      D360EA34 
 197      58113198 
 197      62B0241D 
 197      B61C
 198 01d2 492E4270 		.ascii	"I.Bp\345X\004a\331%\355\245\322R&\307rE\037k\244\323"
 198      E5580461 
 198      D925EDA5 
 198      D25226C7 
 198      72451F6B 
 199 01e8 678ABD80 		.ascii	"g\212\275\2005q\215>\352\002v\013\365WF\247_\026\021"
 199      35718D3E 
 199      EA02760B 
 199      F55746A7 
 199      5F1611
 200 01fb 65781105 		.ascii	"ex\021\005\234>8r\336\024\211s0\014\207\2114\221\000"
 200      9C3E3872 
 200      DE148973 
 200      300C8789 
 200      349100
 201 020e 171D725F 		.ascii	"\027\035r_A*\373K\225\214\237|\373\373W\346\315\344"
 201      412AFB4B 
 201      958C9F7C 
 201      FBFB57E6 
 201      CDE4
 202 0220 8667F9DC 		.ascii	"\206g\371\334N\223?\303\010\222\254\020Di\\\340\347"
 202      4E933FC3 
 202      0892AC10 
 202      44695CE0 
 202      E7
 203 0231 64B922A6 		.ascii	"d\271\"\246\267n\365p<\213\367\340s\027\247\221\304"
 203      B76EF570 
 203      3C8BF7E0 
 203      7317A791 
 203      C4
 204 0242 A8384B30 		.ascii	"\2508K0\1776w\327\332\367\271(\010\222+\2123\310\342"
 204      7F3677D7 
 204      DAF7B928 
 204      08922B8A 
 204      33C8E2
 205 0255 180FE9EC 		.ascii	"\030\017\351\354\030\177\247'NH\215r1\2061\354Sd\236"
ARM GAS  C:\Users\AMANRA~1\AppData\Local\Temp\ccKbJO0N.s 			page 16


 205      187FA727 
 205      4E488D72 
 205      318631EC 
 205      53649E
 206 0268 4592963F 		.ascii	"E\222\226?\273\271vG\252\026G\025\306\221 \323\302\370"
 206      BBB97647 
 206      AA164715 
 206      C69120D3 
 206      C2F8
 207 027a 272764BD 		.ascii	"''d\275\024\205%=\201\204\317\213eR:\3332\302\244V\371"
 207      1485253D 
 207      8184CF8B 
 207      65523ADB 
 207      32C2A456 
 208 028f C393FA56 		.ascii	"\303\223\372V%\365\237Y\234\333!\213\311\235\262\230"
 208      25F59F59 
 208      9CDB218B 
 208      C99DB298 
 209 029f CA67312D 		.ascii	"\312g1-\263h\373\271y.\256\262x\022\347\251\236\302"
 209      B368FBB9 
 209      792EAEB2 
 209      7812E7A9 
 209      9EC2
 210 02b1 909751BB 		.ascii	"\220\227Q\273\326\260\320\031Qb\201\364\022\246\353"
 210      D6B0D019 
 210      516281F4 
 210      12A6EB
 211 02c0 29288346 		.ascii	")(\203F6\345\363\2062\354\"\033[Bm\205\230\212\002 "
 211      36E5F386 
 211      32EC221B 
 211      5B426D85 
 211      988A0220 
 212 02d4 93CCDB50 		.ascii	"\223\314\333P\332/Ac\312l\211:\2706:v<\252vZy\345\327"
 212      DA2F4163 
 212      CA6C893A 
 212      B8363A76 
 212      3CAA765A 
 213 02eb 61D1319C 		.ascii	"a\3211\234\321N}\340\006\247\002\212\261\234\213&\036"
 213      D14E7DE0 
 213      06A7028A 
 213      B19C8B26 
 213      1E
 214 02fc 61BFEB0A 		.ascii	"a\277\353\012B\354\240\240/\277?t$\276\267C\366\361"
 214      42ECA0A0 
 214      2FBF3F74 
 214      24BEB743 
 214      F6F1
 215 030e F429AD2D 		.ascii	"\364)\255-k\211\256\015/\205\013\330+\242]\301\277\261"
 215      6B89AE0D 
 215      2F850BD8 
 215      2BA25DC1 
 215      BFB1
 216 0320 5C92A630 		.ascii	"\\\222\2460\031f\210e?\014\320dti\021\3742\352N\246"
 216      19668865 
 216      3F0CD064 
 216      746911FC 
 216      32EA4EA6 
ARM GAS  C:\Users\AMANRA~1\AppData\Local\Temp\ccKbJO0N.s 			page 17


 217 0334 16BA07C3 		.ascii	"\026\272\007\303\014y\206\333\342\372\270}a#*\3701\341"
 217      0C7986DB 
 217      E2FAB87D 
 217      61232AF8 
 217      31E1
 218 0346 60960295 		.ascii	"`\226\002\225I\207>:\271\211}~\252\215+KY\206\312p\177"
 218      49873E3A 
 218      B9897D7E 
 218      AA8D2B4B 
 218      5986CA70 
 219 035b 629B096A 		.ascii	"b\233\011j\010\262\012\247t\352\216\241\234\304N\202"
 219      08B20AA7 
 219      74EA8EA1 
 219      9CC44E82 
 220 036b 6EEFEA48 		.ascii	"n\357\352H\311j\261\260\037\027\025\364\\\363\004\017"
 220      C96AB1B0 
 220      1F1715F4 
 220      5CF3040F 
 221 037b 93BC57D7 		.ascii	"\223\274W\327\272\254\353\301\221\251\261\010\251_C"
 221      BAACEBC1 
 221      91A9B108 
 221      A95F43
 222 038a 49679FA0 		.ascii	"Ig\237\240M\342\2449\301\034.\221\336\204*\016\351J"
 222      4DE2A439 
 222      C11C2E91 
 222      DE842A0E 
 222      E94A
 223 039c 35D9EA90 		.ascii	"5\331\352\220r\212_\006|\277(\3452g\213\321\315\234"
 223      728A5F06 
 223      7CBF28E5 
 223      32678BD1 
 223      CD9C
 224 03ae 574586E8 		.ascii	"WE\206\350\024(d\013\205\346G\227\216?\253\240\354m"
 224      1428640B 
 224      85E64797 
 224      8E3FABA0 
 224      EC6D
 225 03c0 856CD22B 		.ascii	"\205l\322+F\012\225\233\003\213\201\276\016\207\"[\276"
 225      460A959B 
 225      038B81BE 
 225      0E87225B 
 225      BE
 226 03d1 FA4315B1 		.ascii	"\372C\025\261+\342\352l)\367\371#\342\246\241\260\276"
 226      2BE2EA6C 
 226      29F7F923 
 226      E2A6A1B0 
 226      BE
 227 03e2 4332B646 		.ascii	"C2\266F\201\225\221\3578H\316\250\222\323\336&\334O"
 227      819591EF 
 227      3848CEA8 
 227      92D3DE26 
 227      DC4F
 228 03f4 6D7427D4 		.ascii	"mt'\324!\245\031\356\026\266\020\302\026\272\214\007"
 228      21A519EE 
 228      16B610C2 
 228      16BA8C07 
 229 0404 D92C1544 		.ascii	"\331,\025D\375\325\034j`>\300M\205\244\2464\244\346"
ARM GAS  C:\Users\AMANRA~1\AppData\Local\Temp\ccKbJO0N.s 			page 18


 229      FDD51C6A 
 229      603EC04D 
 229      85A4A634 
 229      A4E6
 230 0416 0A51237A 		.ascii	"\012Q#z\256\342\341\035w\365\177v\334\265\035:n~\247"
 230      AEE2E11D 
 230      77F57F76 
 230      DCB51D3A 
 230      6E7EA7
 231 0429 8ECBE53B 		.ascii	"\216\313\345;n\001I\212\267\360Rp\376\241\203+\270\237"
 231      6E01498A 
 231      B7F05270 
 231      FEA1832B 
 231      B89F
 232 043b 1E5D57DC 		.ascii	"\036]W\334\337\317\356\233\333\334^\027P\256\322\304"
 232      DFCFEE9B 
 232      DBDC5E17 
 232      50AED2C4 
 233 044b 25F5A2A4 		.ascii	"%\365\242\244I\251\375\347b5\201\272\252\343\2261\222"
 233      49A9FDE7 
 233      623581BA 
 233      AAE39631 
 233      92
 234 045c 931C892D 		.ascii	"\223\034\211-\242\323\277\017\016\033\325}^#ec0\334"
 234      A2D3BF0F 
 234      0E1BD57D 
 234      5E236563 
 234      30DC
 235 046e 4035FB15 		.ascii	"@5\373\025\265Y\372\003\220\321\211\247\221\010\231"
 235      B559FA03 
 235      90D189A7 
 235      910899
 236 047d 29A60631 		.ascii	")\246\0061_}\376\225\003O\275\310p\000\257\361\027^"
 236      5F7DFE95 
 236      034FBDC8 
 236      7000AFF1 
 236      175E
 237 048f 7FE96F08 		.ascii	"\177\351o\010kv\333"
 237      6B76DB
 238              		.text
 239              		.section	.gnu.lto_main.2a00e427,"",%progbits
 240 0000 789C955A 		.ascii	"x\234\225Zi|TU\226\177\347\335\332R\331H\310\276V\221"
 240      697C5455 
 240      967FE7DD 
 240      DA52D948 
 240      C8BE5691 
 241 0014 0405A101 		.ascii	"\004\005\241\001\273{\306\266G{zfl\272\347\303|\360"
 241      BB7BC6B6 
 241      477B7A66 
 241      6CBAE7C3 
 241      7CF0
 242 0026 37F39B99 		.ascii	"7\363\233\231\376\375\346\203(\012\202(\213\242\363"
 242      FEFDE683 
 242      280A8228 
 242      8BA2F3
 243 0035 61526423 		.ascii	"aRd#  m'\025,\253\241\\\220\235\010I\204 !+a\021\302"
 243      20206D27 
ARM GAS  C:\Users\AMANRA~1\AppData\Local\Temp\ccKbJO0N.s 			page 19


 243      152CABA1 
 243      5C909D08 
 243      49842021 
 244 004d 16412582 		.ascii	"\026A%\202\262\357\310\"\012\201d\316\271\367mUy\251"
 244      B2EFC822 
 244      0A8164CE 
 244      B9F76D55 
 244      79A9
 245 005f 3CF870B9 		.ascii	"<\370p\271u\336\271\347\236\345\177\226z\025\207$I\271"
 245      75DEB9E7 
 245      9EE57F96 
 245      7A158724 
 245      49B9
 246 0071 63256912 		.ascii	"c%i\022\376\237*K\022\214\224@^\332%I\363\\2\330\304"
 246      FE9F2A4B 
 246      128C9440 
 246      5EDA2549 
 246      F35C32D8 
 247 0086 86894DAB 		.ascii	"\206\211M\253\313&\263\3726I\362\271\355=\261\222/\316"
 247      CB26B3FA 
 247      3649F2B9 
 247      ED3DB192 
 247      2FCE
 248 0098 2E3BCE64 		.ascii	".;\316d\342'\367\372_\341'\007\270\004\273SlZ].\331"
 248      E227F7FA 
 248      5FE12707 
 248      B804BB53 
 248      6C5A5D2E 
 249 00ad 29D86338 		.ascii	")\330c8{\014\270\005\203\033bi\003\261\020'\010qr<\027"
 249      7B0CB805 
 249      831B6269 
 249      03B11027 
 249      0871723C 
 250 00c2 54C80515 		.ascii	"T\310\005\025B2\177\034\017\211\342q\202\330\264\272"
 250      42327F1C 
 250      0F89E271 
 250      82D8B4BA 
 251 00d2 12E50421 		.ascii	"\022\345\004!p\030\0278\014R\004C\2228\321\352J\226"
 251      70181738 
 251      0C520443 
 251      9238D1EA 
 251      4A96
 252 00e4 9304C370 		.ascii	"\223\004\303p\3160\\eH\221S\211\340.\342O\343\212\304"
 252      CE305C65 
 252      48915389 
 252      E02EE24F 
 252      E38AC4
 253 00f7 C5BF4F95 		.ascii	"\305\277O\225\323.$\"9k\365\323HM\203\014\301\235.6"
 253      D32E2422 
 253      396BF5D3 
 253      484D830C 
 253      C19D2E36 
 254 010b ADAE0C39 		.ascii	"\255\256\0149]\210\313\344\3422!K0dA\216\330d\213M\253"
 254      5D88CBE4 
 254      E232214B 
 254      3064418E 
 254      D8648B4D 
ARM GAS  C:\Users\AMANRA~1\AppData\Local\Temp\ccKbJO0N.s 			page 20


 255 0120 2B47CE16 		.ascii	"+G\316\026\234\271\2343\027\362\005C\236\330\264\272"
 255      9CB99C33 
 255      17F20543 
 255      9ED8B4BA 
 256 0130 F2E53CC1 		.ascii	"\362\345<\301\340\341\014\036\030!\030\274b\323\352"
 256      E0E10C1E 
 256      182118BC 
 256      62D3EA
 257 013f 1A217B05 		.ascii	"\032!{\005C\001g(\020>ju\201T,3\233\335\341t\305\270"
 257      43016728 
 257      103E6A75 
 257      81542C33 
 257      9BDDE174 
 258 0155 63E30AE3 		.ascii	"c\343\012\343\023\022\207%%\017O)JMK\317\310\314\312"
 258      13128725 
 258      250F4F29 
 258      4A4D4BCF 
 258      C8CCCA
 259 0168 CEC9CDCB 		.ascii	"\316\311\315\313\367xG\024@ql\254\244\374\263\251\033"
 259      F7784714 
 259      40716CAC 
 259      A4FCB3A9 
 259      1B
 260 0179 97BA4954 		.ascii	"\227\272IT7\311\352&C\335\214P7\371\352&G\335\304\251"
 260      37C9EA26 
 260      43DD8C50 
 260      37F9EA26 
 260      47DDC4A9 
 261 018d 9B45AC8A 		.ascii	"\233E\254\212\301\241\262O\203\354m\026d\022\330\360"
 261      C1A1B24F 
 261      83EC6D16 
 261      6412D8F0 
 262 019d E38DFD81 		.ascii	"\343\215\375\201\323\011\364\021\300\203\037\267\274"
 262      D309F411 
 262      C0831FB7 
 262      BC
 263 01aa 7FE897A3 		.ascii	"\177\350\227\243V\371\360_K\315R\347\312\322\362?\006"
 263      56F9F05F 
 263      4BCD52E7 
 263      CAD2F23F 
 263      06
 264 01bb 992CF991 		.ascii	"\231,\371\221\271\036r\240\016H(4\300(\011y/\224\373"
 264      B91E72A0 
 264      0E482834 
 264      C0280979 
 264      2F94FB
 265 01ce 36C43037 		.ascii	"6\30407\320\376d_\357KE\037\361s]\301\344\017J}\273"
 265      D0FE645F 
 265      EF4B451F 
 265      F1735DC1 
 265      E40F4A7D 
 266 01e3 7DB62063 		.ascii	"}\266 c\360\031\260\360\303\022q\237\332\324W\035\357"
 266      F019B0F0 
 266      C312719F 
 266      DAD4571D 
 266      EF
 267 01f4 B0C11628 		.ascii	"\260\301\026(\"\331(r+8$\220\244\030\"!\303\276\226"
ARM GAS  C:\Users\AMANRA~1\AppData\Local\Temp\ccKbJO0N.s 			page 21


 267      22D92872 
 267      2B382490 
 267      A4182221 
 267      C3BE96
 268 0207 05B56E96 		.ascii	"\005\265n\226\304E\367\3264\236\265\221\354\022_Kg\320"
 268      C445F7D6 
 268      349EB591 
 268      EC125F4B 
 268      67D0
 269 0219 1DF0B594 		.ascii	"\035\360\265\224y\202\314\006\215\003E\3036~\332x\342"
 269      7982CC06 
 269      8D0345C3 
 269      367EDA78 
 269      E2
 270 022a 20704DCC 		.ascii	" pM\314\331?\1778\366\355\017\307\336\364p\354;\036"
 270      D93F7F38 
 270      F6ED0FC7 
 270      DEF470EC 
 270      3B1E
 271 023c 8EBDF9E1 		.ascii	"\216\275\371\341\330[\036\216\275\025\212j\017\333["
 271      D85B1E8E 
 271      BD158A6A 
 271      0FDB5B
 272 024b 7C7DFDF3 		.ascii	"|}\375\363}-\035\037\302\255\177{\033@\0122\273\214"
 272      7D2D1D1F 
 272      C2AD7F7B 
 272      1B400A32 
 272      BB8C
 273 025d 8B83D162 		.ascii	"\213\203\321b\243\217v\3329hq\322G\027.N7}\214\245%"
 273      A38F76DA 
 273      396871D2 
 273      47172E4E 
 273      377D8CA5 
 274 0272 8E96785A 		.ascii	"\216\226xZ\022\350i\"=\035\206\213\234DK2.\256\341D"
 274      12E86922 
 274      3D1D868B 
 274      9C444B32 
 274      2EAEE144 
 275 0286 4BA15D2A 		.ascii	"K\241]*-i\270\304\244\023-\203X2i\311\242\007\331D\313"
 275      2D69B8C4 
 275      A4132D83 
 275      583269C9 
 275      A207D944 
 276 029b A15D2E2D 		.ascii	"\241].-y\304\227O4\017\261xi\031A\017\012\210VH\273"
 276      79C4974F 
 276      340FB178 
 276      6919410F 
 276      0A885648 
 277 02b0 225A4612 		.ascii	"\"ZF\022\337#\264<J\032\214\242\335h\332=F\2731\264"
 277      DF23B43C 
 277      4A1A8CA2 
 277      DD68DA3D 
 277      46BB31B4 
 278 02c4 1B4F279E 		.ascii	"\033O'\236\222\010y\023\371\372,_'q4=\317\327\027\220"
 278      92087913 
 278      F9FA2C5F 
 278      2771343D 
ARM GAS  C:\Users\AMANRA~1\AppData\Local\Temp\ccKbJO0N.s 			page 22


 278      CFD71790 
 279 02d8 C53D99E3 		.ascii	"\305=\231\343\345E\276\276D\204)\034\021S\371\3722\021"
 279      E545BEBE 
 279      4484291C 
 279      1153F9FA 
 279      3211
 280 02ea A6F1984F 		.ascii	"\246\361\230O\347\353+D\230\301\243\372*__#\302L\036"
 280      E7EB2B44 
 280      98C1A3FA 
 280      2A5F5F23 
 280      C24C1E
 281 02fd B7597C9D 		.ascii	"\267Y|\235M\2049<2\257\363\365\015\"\314\345\276\177"
 281      4D84393C 
 281      32AFF3F5 
 281      0D22CCE5 
 281      BE7F
 282 030f 93AF6F11 		.ascii	"\223\257o\021A\222*)C|-\322\002\314D\251\264E:\007%"
 282      41922A29 
 282      437C2DD2 
 282      02CC44A9 
 282      B4453A07 
 283 0324 A1554B32 		.ascii	"\241UK2)g\224t\251\275\322x7\236\2228\026$h\303\030"
 283      29679474 
 283      A9BDD278 
 283      379E9238 
 283      162468C3 
 284 0339 5E81D250 		.ascii	"^\201\322P\357\022\306\323\012\23776^9\356,~\340s\005"
 284      EF12C6D3 
 284      0A9F3736 
 284      5E39EE2C 
 284      7EE07305 
 285 034d 599C9F61 		.ascii	"Y\234\237a\236A;\024\243\360x\316\370 \301\234\217\332"
 285      9E413B14 
 285      A3F078CE 
 285      F820C19C 
 285      8FDA
 286 035f 4887C657 		.ascii	"H\207\306W\036jH4\341K\3603T\017v\"\037>\360\227\267"
 286      1E6A4834 
 286      E14BF033 
 286      540F7622 
 286      1F3EF097 
 287 0374 1D709222 		.ascii	"\035p\222\"\211\020\301\227\030b\"\367\353Ko\274\233"
 287      8910C197 
 287      186222F7 
 287      EB4B6FBC 
 287      9B
 288 0385 1082E510 		.ascii	"\020\202\345\020d\303`\027\024C'a\016\037\354\270\261"
 288      64C36017 
 288      14432761 
 288      0E1FECB8 
 288      B1
 289 0396 F7740232 		.ascii	"\367t\0022W\372|\036\022\260\033B \352\302\036(6\312"
 289      57FA7C1E 
 289      12B01B42 
 289      20EAC21E 
 289      2836CA
 290 03a9 1665A1F4 		.ascii	"\026e\241\364^\363-b\317@B\210lB\332\335CW+cQ\366\274"
ARM GAS  C:\Users\AMANRA~1\AppData\Local\Temp\ccKbJO0N.s 			page 23


 290      5EF32D62 
 290      CF404288 
 290      6C42DADD 
 290      43572B63 
 291 03c0 6141960C 		.ascii	"aA\226\014_\240\360\275\212\360\322\217\353\312\001"
 291      5FA0F0BD 
 291      8AF0D28F 
 291      EBCA01
 292 03cf B99771E1 		.ascii	"\271\227q\341I\260O\023\276\037\212\203l87\360\374;"
 292      49B04F13 
 292      BE1F8A83 
 292      6C3837F0 
 292      FC3B
 293 03e1 36130B53 		.ascii	"6\023\013S\374\014+1tEX\230\032iaj\210<\026na\032\034"
 293      FC0C2B31 
 293      74455898 
 293      1A69616A 
 293      883C166E 
 294 03f8 44250E98 		.ascii	"D%\016\230Z\230\012\2074%\016\207[\230\216a<\0029A\226"
 294      5A980A87 
 294      34250E87 
 294      5B988E61 
 294      3C023941 
 295 040d 817A5584 		.ascii	"\201zU\204.\2329>\323\317\354\250V\267P\353\366\361"
 295      2E9A393E 
 295      D3CFECA8 
 295      56B750EB 
 295      F6F1
 296 041f 535D4047 		.ascii	"S]@G\263\300\207\362m\360%\344\030\213\275\003lp\224"
 296      B3C087F2 
 296      6DF025E4 
 296      188BBD03 
 296      6C7094
 297 0432 937A2F97 		.ascii	"\223z/\227,\222\211\224\015%N8F\267\344\360[\256F\271"
 297      2C928994 
 297      0D254E38 
 297      46B7E4F0 
 297      5BAE46B9 
 298 0446 E52BBC45 		.ascii	"\345+\274E\021\031\370\374\366^\273\020\351\202\257"
 298      1119F8FC 
 298      F65EBB10 
 298      E982AF
 299 0455 B1661844 		.ascii	"\261f\030D\324U9\006\227\361\215.c\343\205\346\240["
 299      D4553906 
 299      97F18D2E 
 299      63E385E6 
 299      A05B
 300 0467 C8F0C970 		.ascii	"\310\360\311p\\\310\015-\377\"F\350\265\334\006=\272"
 300      5CC80D2D 
 300      FF2246E8 
 300      B5DC063D 
 300      BA
 301 0478 D08694C1 		.ascii	"\320\206\224\301e~+\254\257j{\257;^\261~)Y\177\202\213"
 301      657E2BAC 
 301      AF6A7BAF 
 301      3B5EB17E 
 301      29597F82 
ARM GAS  C:\Users\AMANRA~1\AppData\Local\Temp\ccKbJO0N.s 			page 24


 302 048d ACB97A37 		.ascii	"\254\271z7K\271\305\006'QUMjY\350t\225\335Dl\256\237"
 302      4BB9C506 
 302      2751554D 
 302      6A59E874 
 302      95DD446C 
 303 04a3 3950EC77 		.ascii	"9P\354wB\354\220\360\375>\012|Oi\301=M\010\313\303["
 303      42EC90F0 
 303      FD3E0A7C 
 303      4F69C13D 
 303      4D08CBC3 
 304 04b8 03BEDBFB 		.ascii	"\003\276\333\373\332\314\2222\337\317\234x\355\031\213"
 304      DACC9232 
 304      DFCF9C78 
 304      ED198B
 305 04c7 D79E35BF 		.ascii	"\327\2365\2776\364\277t\3579\355\336\363\034T?4\256"
 305      36F4BF74 
 305      EF39EDDE 
 305      F31C543F 
 305      34AE
 306 04d9 5CCDE3ED 		.ascii	"\\\315\343\355\301I\354\002\367\213\2063o$\206\275!"
 306      C149EC02 
 306      F78B8633 
 306      6F2486BD 
 306      21
 307 04ea CAE6F0FB 		.ascii	"\312\346\360\373F\300%\274\357\242\311}7\271\210\313"
 307      46C025BC 
 307      EFA2C97D 
 307      37B988CB 
 308 04fa DA8557F8 		.ascii	"\332\205W\370\205\333W,Z\303\203[\0002\\\015\277\260"
 308      85DB572C 
 308      5AC3835B 
 308      00325C0D 
 308      BFB0
 309 050c 10817D2D 		.ascii	"\020\201}-\234T\200\244\353\234\264\377\203\365]\016"
 309      9C5480A4 
 309      EB9CB4FF 
 309      83F55D0E 
 310 051c 2215811B 		.ascii	"\"\025\201\033~\240P\215\344\265n\226Z\351$\356\303"
 310      7EA0508D 
 310      E4B56E96 
 310      5AE924EE 
 310      C3
 311 052d EEFD3211 		.ascii	"\356\3752\021\002\354)S'\336\260\350\304\233\321\234"
 311      02EC2953 
 311      27DEB0E8 
 311      C49BD19C 
 312 053d 784BB3E9 		.ascii	"xK\263\3516\262\011\257\205\273\3116\320M?Fu\323\035"
 312      36B209AF 
 312      85BBC936 
 312      D04D3F46 
 312      75D31D
 313 0550 4DE44FC8 		.ascii	"M\344O\310\207~!G\220\345\246\246\242u\034\246\267\006"
 313      877E2147 
 313      90E5A6A6 
 313      A2751CA6 
 313      B706
 314 0562 8329CE84 		.ascii	"\203)\316\204\360\263ES\357F\201\351=M\255^\001ST\303"
ARM GAS  C:\Users\AMANRA~1\AppData\Local\Temp\ccKbJO0N.s 			page 25


 314      F0B34553 
 314      EF4681E9 
 314      3D4DAD5E 
 314      015354C3 
 315 0576 C3B510B3 		.ascii	"\303\265\020\263\324\302c=\273\035\336\341+|\313\220"
 315      D4C2633D 
 315      BB1DDEE1 
 315      2B7CCB90 
 316 0586 FD113EBC 		.ascii	"\375\021>\274\255h>\247\224\322P\177Uv\220=\012\367"
 316      AD683EA7 
 316      94D2507F 
 316      5576903D 
 316      0AF7
 317 0598 C12B643C 		.ascii	"\301+d<@\215$lT\2147\252KP\032\254\330\277\006\264\211"
 317      408D246C 
 317      548C37AA 
 317      4B501AAC 
 317      D8BF06B4 
 318 05ad AF8C0F88 		.ascii	"\257\214\017\210\367F\221l>\363\371Y\214a\036\224\240"
 318      F746916C 
 318      3EF3F959 
 318      8C611E94 
 318      A0
 319 05be 0FEFED27 		.ascii	"\017\357\355'A\375\024\340\347\003l\022\214\317\341"
 319      41FD14E0 
 319      E7036C12 
 319      8CCFE1
 320 05cd 9ED92413 		.ascii	"\236\331$\023\215\016\"\235\352\202\2073\206\233?\312"
 320      8D0E229D 
 320      EA828733 
 320      869B3FCA 
 321 05dd 8FE3681F 		.ascii	"\217\343h\037\235\367\311\221\2561/\317\363d\275<\177"
 321      9DF7C991 
 321      AE312FCF 
 321      F364BD3C 
 321      7F
 322 05ee B6ABA7D7 		.ascii	"\266\253\247\3275n\003\351\210\266\216\206\0229\004"
 322      356E03E9 
 322      88B68E86 
 322      123904
 323 05fd D5D4DCFA 		.ascii	"\325\324\334\372\304E\253w/\256\323]\367\030\224\312"
 323      C445AB77 
 323      2FAED35D 
 323      F71894CA 
 324 060d E384B265 		.ascii	"\343\204\262erq\200\275\200\034\337\356^\263N)\267\375"
 324      727180BD 
 324      801CDFEE 
 324      5EB34E29 
 324      B7FD
 325 061f F82F11CA 		.ascii	"\370/\021\312e\014\355\030\356\022\233\322\273eI\030"
 325      650CED18 
 325      EE129BD2 
 325      BB654918 
 326 062f 3109DD53 		.ascii	"1\011\335Sr\177a\323\036\2070\366\005cR\330xbno\333"
 326      727F61D3 
 326      1E8730F6 
 326      056352D8 
ARM GAS  C:\Users\AMANRA~1\AppData\Local\Temp\ccKbJO0N.s 			page 26


 326      78626E6F 
 327 0644 DFE9109A 		.ascii	"\337\351\020\232\272\311\025\0252*\012\363Q-\351,\224"
 327      BAC91515 
 327      322A0AF3 
 327      512DE92C 
 327      94
 328 0655 1D6FDF07 		.ascii	"\035o\337\007&Gq\036\207J\231\217qw`\322\020\361Z \027"
 328      2647711E 
 328      874A998F 
 328      717760D2 
 328      10F15A20 
 329 066a CB123A94 		.ascii	"\313\022:\224\005\216\310\250\243]\233/\036\244\250"
 329      058EC8A8 
 329      A35D9B2F 
 329      1EA4A8
 330 0679 189048CF 		.ascii	"\030\220H\317\233\363\313\377C$\035(\310\364\230\300"
 330      9BF3CBFF 
 330      43241D28 
 330      C8F498C0 
 331 0689 72AC9FE1 		.ascii	"r\254\237\341\227\027X\210\276G\306 \373\005\207\360"
 331      97175888 
 331      BE47C620 
 331      FB0587F0 
 332 0699 CA5413D6 		.ascii	"\312T\023\326q~\206_K\340m\021\246\206\222\325\235\016"
 332      717E865F 
 332      4BE06D11 
 332      A68692D5 
 332      9D0E
 333 06ab AF57806C 		.ascii	"\257W\200l<Q\3265\034\253v*J\277\021d\023`\221\254\250"
 333      3C51D635 
 333      1CAB762A 
 333      4ABF1164 
 333      136091AC 
 334 06c0 BC584698 		.ascii	"\274XF\230>.\034pb\355x\275\024h\036\300a\000\226\010"
 334      3E2E1C70 
 334      62ED78BD 
 334      14681EC0 
 334      61009608 
 335 06d4 0FA04D0E 		.ascii	"\017\240M\016n\023)RW=Zp\313\341\272\374\322\217\003"
 335      6E132952 
 335      573D5A70 
 335      CBE1BAFC 
 335      D28F03
 336 06e7 8E04EF0C 		.ascii	"\216\004\357\014\200\214y6-\225\007\317\246\277\310"
 336      808C7936 
 336      2D9507CF 
 336      A6BFC8
 337 06f6 6A36BD4B 		.ascii	"j6\275Kj\376\212|\327\275p\001\317a\243\212\277\216"
 337      6AFE8A7C 
 337      D7BD7001 
 337      CF61A38A 
 337      BF8E
 338 0708 2CBCBF0E 		.ascii	",\274\277\016\221\363\303\257\372;\250\302\253\376\312"
 338      91F3C3AF 
 338      FA3BA8C2 
 338      ABFECA
 339 0717 835E8D82 		.ascii	"\203^\215\202Qq=;\305W\227\313m\007~\212\365\026\010"
ARM GAS  C:\Users\AMANRA~1\AppData\Local\Temp\ccKbJO0N.s 			page 27


 339      51713D3B 
 339      C55797CB 
 339      6D077E8A 
 339      F51608
 340 072a C7FD3D9D 		.ascii	"\307\375=\235o:\321X\355V\034\267\245:?\310\236\000"
 340      6F3AD158 
 340      ED561CB7 
 340      A53A3FC8 
 340      9E00
 341 073c BFEABA1A 		.ascii	"\277\352\272\032Yd\2473Zv^[\233\014$\3354?\227\311\016"
 341      5964A733 
 341      5A765E5B 
 341      9B0C24DD 
 341      343F97C9 
 342 0751 784F4651 		.ascii	"xOFQ\270\004\330\213\0016Y\315\317\272\321D\243\203"
 342      B804D88B 
 342      013659CD 
 342      CFBAD144 
 342      A383
 343 0763 4817F949 		.ascii	"H\027\371I\214&\371\271\214\316\007,\346\347\373Q\362"
 343      8C26F9B9 
 343      8CCE072C 
 343      E6E7FB51 
 343      F2
 344 0774 33A8E6E7 		.ascii	"3\250\346\3472\3314?\377\206\371\311\225]N\371\371\222"
 344      32D9343F 
 344      FF86F9C9 
 344      955D4EF9 
 344      F992
 345 0786 31195D7A 		.ascii	"1\031]z2r\215'\353\311\310-{i@\366MV\262o\2051\373\004"
 345      32728D27 
 345      EBC9C82D 
 345      7B6940F6 
 345      4D56B26F 
 346 079e AF9E6E93 		.ascii	"\257\236n\223\207\010@H.v`j\274\350\024\351\026\243"
 346      87084048 
 346      2E76606A 
 346      BCE814E9 
 346      16A3
 347 07b0 A5DB96EA 		.ascii	"\245\333\226\352L5\252<\337\374k6\332\005V\231\025\234"
 347      4C35AA3C 
 347      DFFC6B36 
 347      DA055699 
 347      159C
 348 07c2 7CA0E1E4 		.ascii	"|\240\341\344CR\217',\210\3636\0241"
 348      43528F27 
 348      2C88F336 
 348      1431
 349 07d0 44BE7EC4 		.ascii	"D\276~\304\363\325\246\346kS\224|\375\330J\276~\002"
 349      F3D5A6E6 
 349      6B53947C 
 349      FDD84ABE 
 349      7E02
 350 07e2 94B02B55 		.ascii	"\224\260+U\243?\021\011Knws\203i\027+\035\224\2016q"
 350      A33F1109 
 350      4B6E7773 
 350      8369172B 
ARM GAS  C:\Users\AMANRA~1\AppData\Local\Temp\ccKbJO0N.s 			page 28


 350      1D948136 
 351 07f7 5273D23C 		.ascii	"Rs\322<\221\237\375\302\011\346#\331*\213\331\271:J"
 351      919FFDC2 
 351      09E623D9 
 351      2A8BD9B9 
 351      3A4A
 352 0809 76AED1B2 		.ascii	"v\256\321\262s\255\254\215d\365gJ\024WO4\235'\326Y\274"
 352      73ADAC8D 
 352      64F5674A 
 352      14574F34 
 352      9D27D659 
 353 081e 78BDF9C5 		.ascii	"x\275\371\305\241\265@Wo\320\256\336(\233\014\024\205"
 353      A1B54057 
 353      6FD0AEDE 
 353      289B0C14 
 353      85
 354 082f 2132325C 		.ascii	"!22\\\344o\240\026Y\257\231\211\214\243I\352SM\344&"
 354      E46FA016 
 354      59AF9989 
 354      8CA349EA 
 354      534DE426 
 355 0843 99E6AE86 		.ascii	"\231\346\256\206\371\3736)s\027\300f9l\310z2\262\336"
 355      F9FB3629 
 355      7317C066 
 355      396CC87A 
 355      32B2DE
 356 0856 3C1922E3 		.ascii	"<\031\"\343\302/\374-\324\343\205u\362\300\013\373\342"
 356      C22FFC2D 
 356      D4E38575 
 356      F2C00BFB 
 356      E2
 357 0867 48448376 		.ascii	"HD\203v\341g\310\2077\030'\227\017A\037]&\362p\256\362"
 357      E167C887 
 357      37182797 
 357      0F411F5D 
 357      26F270AE 
 358 087c 0F124E1A 		.ascii	"\017\022N\032]\266X\364\352\326(\341l\324\364\331&\302"
 358      5DB658F4 
 358      EAD628E1 
 358      6CD4F4D9 
 358      26C2
 359 088e C9D3F2E8 		.ascii	"\311\323\362\350\372'\224pjM\240\222\025J=\261\260\000"
 359      FA279470 
 359      6A4DA092 
 359      154A3DB1 
 359      B000
 360 08a0 CBFC69BB 		.ascii	"\313\374i\273\332\014\374c\005\233\335\264\031|nQ\277"
 360      DA0CFC63 
 360      059BDDB4 
 360      197C6E51 
 360      BF
 361 08b1 ED51F46B 		.ascii	"\355Q\364k\322\364\333ah\006\215j3\0302\253\233\265"
 361      D2F4DB61 
 361      68068D6A 
 361      331832AB 
 361      9BB5
 362 08c3 AC6EE1D5 		.ascii	"\254n\341\325\337\256W\177\361&\352\376\315\315\333"
ARM GAS  C:\Users\AMANRA~1\AppData\Local\Temp\ccKbJO0N.s 			page 29


 362      DFAE577F 
 362      F126EAFE 
 362      CDCDDB
 363 08d2 63BC6345 		.ascii	"c\274cE\032\376\003\235\337\324\335\334\246\025\037"
 363      1AFE039D 
 363      DFD4DDDC 
 363      A6151F
 364 08e1 FFE8207B 		.ascii	"\377\350 {\012Z\325<lS\252\177\202t\334\023\245\374"
 364      0A5AD53C 
 364      6C53AA7F 
 364      8274DC13 
 364      A5FC
 365 08f3 AFCF0012 		.ascii	"\257\317\000\022oZ\376\333\261\302wPE\355\240\30275"
 365      6F5AFEDB 
 365      B1C27750 
 365      45EDA0C2 
 365      3735
 366 0905 C0A618CA 		.ascii	"\300\246\030\312?\322\350 \322E\371\3570/\377\355t~"
 366      3FD2E820 
 366      D245F9EF 
 366      302FFFED 
 366      747E
 367 0917 A7C5F2DF 		.ascii	"\247\305\362\337\031\245\374\357R\313\177\273y\371\337"
 367      19A5FCEF 
 367      52CB7FBB 
 367      79F9DF
 368 0926 8DE59F2B 		.ascii	"\215\345\237+\273\207\312\377\313\306\362\237(5\215"
 368      BB87CAFF 
 368      CBC6F29F 
 368      28358D
 369 0935 54EB3F57 		.ascii	"T\353?Wy\212^\377\271i/\017\250\377S\224\372\277\327"
 369      798A5EFF 
 369      B9692F0F 
 369      A8FF5394 
 369      FABFD7
 370 0948 58FF05AF 		.ascii	"X\377\005\257^\377\247\014\021\202/\344\342x,\265S\023"
 370      5EFFA70C 
 370      11822FE4 
 370      E2782CB5 
 370      5313
 371 095a 44FD1F26 		.ascii	"D\375\037&\340\310\033\200?G\015\254\322\000\272\224"
 371      E0C81B80 
 371      3F470DAC 
 371      D200BA94 
 372 096a AA64092A 		.ascii	"\252d\011*\3734\250\354\217l\000N\0241D\003\350\342"
 372      FB34A8EC 
 372      8F6C004E 
 372      14314403 
 372      E8E2
 373 097c 0DC0A935 		.ascii	"\015\300\2515\200\264\301\033\300\001+\015`3o\000\007"
 373      80B4C11B 
 373      C0012B0D 
 373      60336F00 
 373      07
 374 098d 55AB0FE9 		.ascii	"U\253\017\351\015 I\252o\2132{\234\330\220\006\364\362"
 374      0D2049AA 
 374      6F8B327B 
ARM GAS  C:\Users\AMANRA~1\AppData\Local\Temp\ccKbJO0N.s 			page 30


 374      9CD89006 
 374      F4F2
 375 099f CC147C87 		.ascii	"\314\024|\207\021_G(\236G\310\353\323\003l\232\001|"
 375      115F4728 
 375      9E47C8EB 
 375      D3036C9A 
 375      017C
 376 09b1 48A38348 		.ascii	"H\243\203H\027\340;b\016\276\303t\276\333\"\370\276"
 376      17E03B62 
 376      0EBEC374 
 376      BEDB22F8 
 376      BE
 377 09c2 8C02BEA3 		.ascii	"\214\002\276\243*\370\016\233\203\357\030\202\217+\373"
 377      2AF80E9B 
 377      83EF1882 
 377      8F2BFB
 378 09d1 1581EF15 		.ascii	"\025\201\357\025#\370\222\245\245]\332\364\301u\236"
 378      23F892A5 
 378      A55DDAF4 
 378      C1759E
 379 09e0 A6A38FDB 		.ascii	"\246\243\217\333\366\312\000\364MS\320\367\265\021}"
 379      F6CA00F4 
 379      4D53D0F7 
 379      B5117D
 380 09ef 825747DF 		.ascii	"\202WG\3374<\366]\315\235\3556\357\023\"0O\223f\357"
 380      343CF65D 
 380      CD9DED36 
 380      EF132230 
 380      4F9366EF 
 381 0a03 F6F56429 		.ascii	"\366\365d)q\271\356\037\025d\277\203o\324\300\034\227"
 381      71B9EE1F 
 381      1564BF83 
 381      6FD4C01C 
 381      97
 382 0a14 8B0B31F0 		.ascii	"\213\0131\360\323\223\004\034\207c\221T\340x\335\237"
 382      D393041C 
 382      87639154 
 382      E078DD9F 
 383 0a24 CDE1D824 		.ascii	"\315\341\330$\276t\227\205nD\301D\217\025Ll\344\230"
 383      BE749785 
 383      6E44C144 
 383      8F154C6C 
 383      E498
 384 0a36 F856BDFA 		.ascii	"\370V\275\372\204\216\211\024\234\0008$Jv\254\271\250"
 384      848E8914 
 384      9C003824 
 384      4A76ACB9 
 384      A8
 385 0a47 80DE65A5 		.ascii	"\200\336e\245[\2354t\253\223\213\316\257\217\231P\253"
 385      5B9D3474 
 385      AB938BCE 
 385      AF8F9950 
 385      AB
 386 0a58 C4E737F0 		.ascii	"\304\3477\360\035\325\336\321\3341\360\275<\201\000"
 386      1DD5DED1 
 386      DC31F0BD 
 386      3C8100
ARM GAS  C:\Users\AMANRA~1\AppData\Local\Temp\ccKbJO0N.s 			page 31


 387 0a67 779F46AF 		.ascii	"w\237F\257\361Bv}\307\256\012\0275F'\366\312S(\203\373"
 387      F142767D 
 387      C7AE0A17 
 387      354627F6 
 387      CA532883 
 388 0a7c B4474999 		.ascii	"\264GI\231\361U\206W\252N\3746qZk$E\322\365\004l$\251"
 388      F1558657 
 388      AA4EFC36 
 388      715A6B24 
 388      45D2F504 
 389 0a93 38BE709D 		.ascii	"8\276p\235\333\266]\274t\326)\216\271\215\0357\213w"
 389      DBB65DBC 
 389      74D6298E 
 389      B98D1D37 
 389      8B77
 390 0aa5 DCCA7555 		.ascii	"\334\312uU\0371\345\305\324\262J\037\375\340\362\325"
 390      1F31E5C5 
 390      D4B24A1F 
 390      FDE0F2D5 
 391 0ab5 9DDABDF1 		.ascii	"\235\332\275\361\364\216R\250\372\217p\026\033\351\031"
 391      F48E52A8 
 391      FA8F7016 
 391      1BE919
 392 0ac4 C58C750B 		.ascii	"\305\214u\013\272\233\022\021fe\363\350\331\357\341"
 392      BA9B1211 
 392      6665F3E8 
 392      D9EFE1
 393 0ad3 1C871990 		.ascii	"\034\207\031\220\025\347\345qd\305\275\012E\311XqaG"
 393      15E7E571 
 393      64C5BD0A 
 393      45C95871 
 393      6147
 394 0ae5 47FF0150 		.ascii	"G\377\001P^ry\340\002\312A\245\272\027\202\322d\036"
 394      5E7279E0 
 394      02CA41A5 
 394      BA1782D2 
 394      641E
 395 0af7 EAB68BFA 		.ascii	"\352\266\213\372m\227\344qx\005\017\375\206t\223\320"
 395      6D97E471 
 395      78050FFD 
 395      867493D0 
 396 0b07 FF931FFB 		.ascii	"\377\223\037\373\210\004\227E\350\253\312\367]\223\205"
 396      88049745 
 396      E8ABCAF7 
 396      5D9385
 397 0b16 12958FC0 		.ascii	"\022\225\217\300\025\302\372?\363\263\233\314\316*\023"
 397      15C2FA3F 
 397      F3B39BCC 
 397      CE2A13
 398 0b25 DD558B2D 		.ascii	"\335U\213-\366Z\224\026{]k\261?\350\023\335\355;\247"
 398      F65A9416 
 398      7B5D6BB1 
 398      3FE813DD 
 398      ED3BA7
 399 0b38 14183D6B 		.ascii	"\024\030=k\376\206\310\342\3057\007\231\350N\361\211"
 399      FE86C8E2 
 399      C5370799 
ARM GAS  C:\Users\AMANRA~1\AppData\Local\Temp\ccKbJO0N.s 			page 32


 399      E84EF189 
 400 0b48 EE9676F5 		.ascii	"\356\226v\365mm\242\323\242\377/\010\232\037\321\323"
 400      6D6DA2D3 
 400      A2FF2F08 
 400      9A1FD1D3 
 401 0b58 620C1B12 		.ascii	"b\014\033\022\311w\242\316]?i7\375\314\007\275\263\253"
 401      C977A2CE 
 401      5D3F6937 
 401      FDCC07BD 
 401      B3AB
 402 0b6a DB4F2B83 		.ascii	"\333O+\203\236\003\356\206\217a\333\014c\330\263<\004"
 402      9E03EE86 
 402      8F61DB0C 
 402      63D8B33C 
 402      04
 403 0b7b CD35F983 		.ascii	"\3155\371\203\217a\367,\272\2427J\014\356k\352=0\214"
 403      8F61F72C 
 403      BAA2374A 
 403      0CEE6BEA 
 403      3D308C
 404 0b8e 619DB5FF 		.ascii	"a\235\265\377\256\304\300\360]<M\352P\277\214\237\257"
 404      AEC4C0F0 
 404      5D3C4DEA 
 404      50BF8C9F 
 404      AF
 405 0b9f 795A3C8F 		.ascii	"yZ<\2173\235\277\372,*\326\037E1\037S\025\233\307\364"
 405      339DBFFA 
 405      2C2AD61F 
 405      45311F53 
 405      159BC7F4 
 406 0bb3 F96B8FD3 		.ascii	"\371k\217\323\352\374U\302\324\246Z\312h\376\212\323"
 406      EAFC55C2 
 406      D4A65ACA 
 406      68FE8AD3 
 407 0bc3 E72FF15B 		.ascii	"\347/\361[\335\217\357\370\226\332\275\023\015\363\327"
 407      DD8FEFF8 
 407      96DABD13 
 407      0DF3D7
 408 0bd2 D5EAE338 		.ascii	"\325\352\3438\213\212\212w\271\346\267\324\374\313\230"
 408      8B8A8A77 
 408      B9E6B7D4 
 408      FCCB98
 409 0be1 52F2CA99 		.ascii	"R\362\312\231\230\277\322\245yl\360\026x\2646K&\361"
 409      98BFD2A5 
 409      796CF016 
 409      78B4364B 
 409      26F1
 410 0bf3 A62DB002 		.ascii	"\246-\260\002\023l>&\017-\001\366j\200\3150\264@\244"
 410      136C3E26 
 410      0F2D01F6 
 410      6A80CD30 
 410      B440A4
 411 0c06 D141A48B 		.ascii	"\321A\244\213\026H\214&-\260\202\316W2k-p\001\033\274"
 411      16488C26 
 411      2DB082CE 
 411      57326B2D 
 411      70011BBC 
ARM GAS  C:\Users\AMANRA~1\AppData\Local\Temp\ccKbJO0N.s 			page 33


 412 0c1a 052E644A 		.ascii	"\005.dJ\013\254`\246-\360m6N(\273\210a\013|\315\330"
 412      0BAC60A6 
 412      2DF06D36 
 412      4E28BB88 
 412      610B7CCD 
 413 0c2f 0233A49D 		.ascii	"\0023\244\235L\355\200\\\345\031z\007\344\246\2756\240"
 413      4CED805C 
 413      E5197A07 
 413      E4A6BD36 
 413      A0
 414 0c40 03CE503A 		.ascii	"\003\316P:\340bf\350\200\202W\357\2003\206\010\301\022"
 414      E06266E8 
 414      808257EF 
 414      80338608 
 414      C112
 415 0c52 569C864D 		.ascii	"V\234\206M\340\325t\321\3602\005\034\311\177\227k\306"
 415      E0D574D1 
 415      F032051C 
 415      C97F976B 
 415      C6
 416 0c63 AA8155E6 		.ascii	"\252\201U\346\257^\245\206\304[\201\312;\032T\226\262"
 416      AF5EA586 
 416      C45B81CA 
 416      3B1A5496 
 416      B2
 417 0c74 88F92B21 		.ascii	"\210\371+!\300\177>\2136\177\375\205\321\374\225\240"
 417      C07F3E8B 
 417      367FFD85 
 417      D1FC95A0 
 418 0c84 CE5F37CC 		.ascii	"\316_7\314\212\246\322k\337e\026z\355\035\336k\377\252"
 418      8AA6D26B 
 418      DF65167A 
 418      ED1DDE6B 
 418      FFAA
 419 0c96 5A5DC5B4 		.ascii	"Z]\305\264^\233\245\366\255\222\035\027\373\312\023"
 419      5E9BA5F6 
 419      AD921D17 
 419      FBCA13
 420 0ca5 85868956 		.ascii	"\205\206\211VJT5\033\274\331\372)\321\036\023\315\266"
 420      4A54351B 
 420      BCD9FA29 
 420      D11E13CD 
 420      B6
 421 0cb6 864D0833 		.ascii	"\206M\0103\177\030\312'\254\377PqWi\223IH\2542\374\216"
 421      7F18CA27 
 421      ACFF5071 
 421      57699349 
 421      48AC32FC 
 422 0ccb 24830B96 		.ascii	"$\203\013\226\261\034q\2521F0%#\037Ws\317\237\005a\270"
 422      B11C71AA 
 422      31463025 
 422      231F5773 
 422      CF9F0561 
 423 0ce0 1525DF8B 		.ascii	"\025%\337\213\242d\200\351\023\301\373\021J\246\240"
 423      A26480E9 
 423      13C1FB11 
 423      4AA6A0
ARM GAS  C:\Users\AMANRA~1\AppData\Local\Temp\ccKbJO0N.s 			page 34


 424 0cef 7C52F2E7 		.ascii	"|R\362\347\012\365\376T\256BJ\030W\032\222E\015\371"
 424      0AF5FE54 
 424      AE424A18 
 424      571A9245 
 424      0DF9
 425 0d01 7AC00BBD 		.ascii	"z\300\013\275g\"\277`?\023\242\002\033\256\340\037\340"
 425      6722BF60 
 425      3F13A202 
 425      1BAEE01F 
 425      E0
 426 0d12 6FA820FD 		.ascii	"o\250 \375\002%\301r^R\322D(\372\325P\244[\261rE\024"
 426      0225C172 
 426      5E52D244 
 426      28FAD550 
 426      A45BB172 
 427 0d28 2B4364E5 		.ascii	"+Cd\345\030a\345\007\021Vf\240\374\360Pd\"q\240\357"
 427      1861E507 
 427      115666A0 
 427      FCF05064 
 427      2271A0EF 
 428 0d3c B3F04198 		.ascii	"\263\360A\230\357\263\361\242\235\375?\265$\212p\311"
 428      EFB3F1A2 
 428      9DFD3FB5 
 428      248A70C9 
 429 0d4c 5694FCC8 		.ascii	"V\224\374\310\240d{mks\242A\311\217I\311\017\231\320"
 429      A0647B6D 
 429      6B73A241 
 429      C98F49C9 
 429      0F99D0
 430 0d5f 72658496 		.ascii	"re\204\2269x_x,r\271J9a\\yH\216\210E\270\363c\006:\377"
 430      39785F78 
 430      2C72B94A 
 430      39615C79 
 430      488E8845 
 431 0d79 13CDF9AB 		.ascii	"\023\315\371\253\270\363\363\204\363+\347+\316\317\307"
 431      B8F3F384 
 431      F32BE72B 
 431      CECFC7
 432 0d88 037B3EDE 		.ascii	"\003{>\336v?N\230i\267b\346\032\203\231\313\027\007"
 432      763F4E98 
 432      69B762E6 
 432      1A8399CB 
 432      1707
 433 0d9a 3682C1CC 		.ascii	"6\202\301\314\265d\346j\305\314u\021fz\360\276\360`"
 433      B564E66A 
 433      C5CC7511 
 433      667AF0BE 
 433      F060
 434 0dac 78913830 		.ascii	"x\22180\030#\360AX0\012\252\014?\353\312\374ox\206\324"
 434      1823F041 
 434      58300AAA 
 434      0C3FEBCA 
 434      FC6F7886 
 435 0dc1 728341CB 		.ascii	"r\203A\313\025+\217\324\306\033\264\334HZ\256W\264\254"
 435      152B8FD4 
 435      C61BB4DC 
 435      485AAE57 
ARM GAS  C:\Users\AMANRA~1\AppData\Local\Temp\ccKbJO0N.s 			page 35


 435      B4AC
 436 0dd3 8DD0B210 		.ascii	"\215\320\262\020\357\013\017F\021W\2510\214k$\222\243"
 436      EF0B0F46 
 436      1157A930 
 436      8C6B2492 
 436      A3
 437 0de4 06C33D30 		.ascii	"\006\303=0\030\237j\301\330\304\2031Ro\256\255\342O"
 437      189F6AC1 
 437      D8C48331 
 437      526FAEAD 
 437      E24F
 438 0df6 557AFD65 		.ascii	"Uz\375e1\336gE\211\233H\347\227l\276\364\245\372\315"
 438      31DE6745 
 438      899B48E7 
 438      976CBEF4 
 438      A5FACD
 439 0e09 7A25F692 		.ascii	"z%\366\222?\302f\265\304\325)\2755\033\307\363\301{"
 439      3FC266B5 
 439      C4D529BD 
 439      351BC7F3 
 439      C17B
 440 0e1b 6BD7D63C 		.ascii	"k\327\326< \351\246\275\265\036\333g\003\265\253\006"
 440      20E9A6BD 
 440      B51EDB67 
 440      03B5AB06 
 441 0e2b 6A2A6F06 		.ascii	"j*o\006\330\\CoE\032\035D\272\350\255\015\346\275\265"
 441      D85C436F 
 441      451A1D44 
 441      BAE8AD0D 
 441      E6BDB5
 442 0e3e 9ECE7F66 		.ascii	"\236\316\177f\261\267n\211\322[\267\252\275\265\336"
 442      B1B76E89 
 442      D25BB7AA 
 442      BDB5DE
 443 0e4d BCB73662 		.ascii	"\274\2676bo\345\312n\243\336\372\226\261\267\346\210"
 443      6FE5CA6E 
 443      A3DEFA96 
 443      B1B7E688 
 444 0e5d AF53BCB7 		.ascii	"\257S\274\267r\225\347\352\275\225\233\366\326\200\336"
 444      7295E7EA 
 444      BD959BF6 
 444      D680DE
 445 0e6c 3A57E9AD 		.ascii	":W\351\255\237\033{\253\340\325{\353\334\210\010\254"
 445      9F1B7BAB 
 445      E0D57BEB 
 445      DC8808AC 
 446 0e7c 0A8E0D0B 		.ascii	"\012\216\015\013\301vV\234\205]\354\315l\321[sE\247"
 446      C176569C 
 446      855DECCD 
 446      6CD15B73 
 446      45A7
 447 0e8e E17FAB12 		.ascii	"\341\177\253\022\314W\343\252\364\326\205\012\344\037"
 447      CC57E3AA 
 447      F4D6850A 
 447      E41F
 448 0e9c B152339B 		.ascii	"\261R3\2334\244\354\210\354\255\217\242\210!zk3\357"
 448      34A4EC88 
ARM GAS  C:\Users\AMANRA~1\AppData\Local\Temp\ccKbJO0N.s 			page 36


 448      ECAD8FA2 
 448      88217A6B 
 448      33EF
 449 0eae AD8FAABD 		.ascii	"\255\217\252\275uC\316\340\275\265\305Jo\335\301{k\253"
 449      7543CEE0 
 449      BDB5C54A 
 449      6FDDC17B 
 449      6BAB
 450 0ec0 6A759BE8 		.ascii	"ju\233\350\255d\346\377q#\305\337Y-\336\024\272\036"
 450      AD64E6FF 
 450      7123C5DF 
 450      592DDE14 
 450      BA1E
 451 0ed2 EFFD4F21 		.ascii	"\357\375O!\343O$\343\356\272\243\245\352\257pu\344\272"
 451      E34F24E3 
 451      EEBAA3A5 
 451      EAAF7075 
 451      E4BA
 452 0ee4 7F857655 		.ascii	"\177\205vUH\207\202\336\274\250\350=G\350m\031\004\275"
 452      488782DE 
 452      BCA8E83D 
 452      47E86D19 
 452      04BD
 453 0ef6 3B11A09D 		.ascii	";\021\240\235\004\210N\012\333\353\0016\307\200^\244"
 453      04884E0A 
 453      DBEB0136 
 453      C7805EA4 
 454 0f06 D141A40B 		.ascii	"\321A\244\013\364v\232\243w'\235\337e\021\275\273\243"
 454      F4769AA3 
 454      77279DDF 
 454      6511BDBB 
 454      A3
 455 0f17 A0778F8A 		.ascii	"\240w\217\212\336\235\346\350\335\213\350\345\312~A"
 455      DE9DE6E8 
 455      DD8BE8E5 
 455      CA7E41
 456 0f26 E87DC388 		.ascii	"\350}\303\210\336|\003z\271\312st\364r\323\336\030\200"
 456      DE7C037A 
 456      B9CA7374 
 456      F472D3DE 
 456      1880
 457 0f38 DE390A7A 		.ascii	"\3369\012z\367\031\321+xu\364\316\031\"\004\373Yq.\342"
 457      F719D12B 
 457      7875F4CE 
 457      192204FB 
 457      59712EE2 
 458 0f4c E4F53C81 		.ascii	"\344\365<\201^\217\216\336:\005\275-\032z\027+\350\035"
 458      5E8F8EDE 
 458      3A05BD2D 
 458      1A7A172B 
 458      E81D
 459 0f5e 65A5E974 		.ascii	"e\245\351ti\350=\020\211\336\321(b\010\364\036\344\350"
 459      69E83D10 
 459      89DED128 
 459      6208F41E 
 459      E4E8
 460 0f70 1DADA2B7 		.ascii	"\035\255\242\2671\012z\017YG\357a\325\352#\221\350\025"
ARM GAS  C:\Users\AMANRA~1\AppData\Local\Temp\ccKbJO0N.s 			page 37


 460      310A7A0F 
 460      5947EF61 
 460      D5EA2391 
 460      E815
 461 0f82 7F54D8BE 		.ascii	"\177T\330\276\2651({\377\307\200\336\255\017:W8\024"
 461      B531287B 
 461      FFC780DE 
 461      AD0F3A57 
 461      3814
 462 0f94 19CDC275 		.ascii	"\031\315\302u\335\252\220/\025\364z\243"
 462      DDAA902F 
 462      15F47AA3 
 463 0fa0 A2B78FD0 		.ascii	"\242\267\217\320\333<\010z\217\"@\217\021 \216Q\330"
 463      DB3C087A 
 463      8F22408F 
 463      11208E51 
 463      D8
 464 0fb1 6605D84C 		.ascii	"f\005\330L\003z\221F\007\221.\320{\314\034\275G\351"
 464      037A9146 
 464      07912ED0 
 464      7BCC1CBD 
 464      47E9
 465 0fc3 FC5716D1 		.ascii	"\374W\026\321\373u\024\364~\243\242\367\2509z\217#z"
 465      FB7514F4 
 465      7EA3A2F7 
 465      A8397A8F 
 465      237A
 466 0fd5 B9B23D84 		.ascii	"\271\262=\204\336\331F\364\2160\240\227\253<SG/7m\366"
 466      DED946F4 
 466      8E30A097 
 466      AB3C5347 
 466      2F376DF6 
 467 0fe9 00F4CE54 		.ascii	"\000\364\316T\320\373\255\021\275\202WG\357\314!Bp\202"
 467      D0FBAD11 
 467      BD825747 
 467      EFCC2142 
 467      7082
 468 0ffb 157B1027 		.ascii	"\025{\020'\263"
 468      B3
 469 1000 BC02BD05 		.ascii	"\274\002\275\005:z\233\025\3646k\350]\246\240\3671+"
 469      3A7A9B15 
 469      F4366BE8 
 469      5DA6A0F7 
 469      312B
 470 1012 5DFAA486 		.ascii	"]\372\244\206\336\357\"\321;\006E\014\201\336\3579z"
 470      DEEF22D1 
 470      3B06450C 
 470      81DEEF39 
 470      7A
 471 1023 C7A8E83D 		.ascii	"\307\250\350=\033\005\275\247\254\243\367\264j\365\031"
 471      1B05BDA7 
 471      ACA3F7B4 
 471      6AF519
 472 1032 815E127D 		.ascii	"\201^\022}9h\366\222CyIuV\310>\270q\315\373\011\342"
 472      3968F692 
 472      43794975 
 472      56C83EB8 
ARM GAS  C:\Users\AMANRA~1\AppData\Local\Temp\ccKbJO0N.s 			page 38


 472      71CDFB09 
 473 1047 25D5D22E 		.ascii	"%\325\322.\011\3161\376\226\212^\352\001\177=\341|\345"
 473      09CE31FE 
 473      968A5EEA 
 473      017F3DE1 
 473      7CE5
 474 1059 B9A9337E 		.ascii	"\271\2513~\361\274\344\230=\347\2719\257\317\206\327"
 474      F1BCE498 
 474      3DE7B939 
 474      AFCF86D7 
 475 1069 E2C56682 		.ascii	"\342\305f\202g\244\347\361'%\220b\236\2315\353\325Y"
 475      67A4E7F1 
 475      27259062 
 475      9E9935EB 
 475      D559
 476 107b B39FF448 		.ascii	"\263\237\364Hn\261\233\200\333\204\347\246O\367L\235"
 476      6EB19B80 
 476      DB84E7A6 
 476      4FF74C9D 
 477 108b ED797EFA 		.ascii	"\355y~\372\344\347fy\325'\217\343\023\333\177\341b\367"
 477      E4E76679 
 477      D5278FE3 
 477      13DB7FE1 
 477      62F7
 478 109d FC375FFF 		.ascii	"\3747_\377\214\353\377\003\366 \346\351"
 478      8CEBFF03 
 478      F620E6E9 
 479              		.text
 480              		.section	.gnu.lto_i2ccfg.2a00e427,"",%progbits
 481 0000 789C6363 		.ascii	"x\234cc``\210\006bF\006\010\230\302\314\270g~\317J\256"
 481      60608806 
 481      62460608 
 481      98C2CCB8 
 481      677ECF4A 
 482 0015 6EE639CC 		.ascii	"n\3469\314\014\214L@n\333\224\305+\371A\\F\306\206\255"
 482      0C8C4C40 
 482      6EDB94C5 
 482      2BF9415C 
 482      46C686AD 
 483 0029 124081AD 		.ascii	"\022@\201\255\355g6\202\345\231\030\031\201\334\025"
 483      ED673682 
 483      E5991819 
 483      81DC15
 484 0038 931E6C60 		.ascii	"\223\036l`\266\330\326\320\261\240\301`\0163\363T\240"
 484      B6D8D6D0 
 484      B1A0C160 
 484      0E33F354 
 484      A0
 485 0049 B6AD8C32 		.ascii	"\266\255\2142S\201\312\267\200(&\306\315\2142\014\214"
 485      5381CAB7 
 485      802826C6 
 485      CD8C320C 
 485      8C
 486 005a DB182D18 		.ascii	"\333\030-\030\000{\331\033X"
 486      007BD91B 
 486      58
 487              		.text
ARM GAS  C:\Users\AMANRA~1\AppData\Local\Temp\ccKbJO0N.s 			page 39


 488              		.section	.gnu.lto_setReset.2a00e427,"",%progbits
 489 0000 789C6363 		.ascii	"x\234cc``p\006bF\006\010\230\302\314\270\345\310\361"
 489      60607006 
 489      62460608 
 489      98C2CCB8 
 489      E5C8F1
 490 0013 368E6EE6 		.ascii	"6\216n\3469\314\014\214\214@\356\365\233-;\031!\\n "
 490      39CC0C8C 
 490      8C40EEF5 
 490      9B2D3B19 
 490      215C6E20 
 491 0027 F7E8B445 		.ascii	"\367\350\264E?\371,\2665t,hP\230\303\314\310h(\303\270"
 491      3FF92CB6 
 491      35742C68 
 491      5098C3CC 
 491      C86828C3 
 492 003c 855186D1 		.ascii	"\205Q\206\321H\206q3\243\014\003\343VF\013\006\000\034"
 492      48867133 
 492      A30C03E3 
 492      56460B06 
 492      001C
 493 004e 7F143F   		.ascii	"\177\024?"
 494              		.text
 495              		.section	.gnu.lto_cr1.2a00e427,"",%progbits
 496 0000 789C6363 		.ascii	"x\234cc``p\006bF\006\010\230\302\314\270\350\305\331"
 496      60607006 
 496      62460608 
 496      98C2CCB8 
 496      E8C5D9
 497 0013 93ACDDCC 		.ascii	"\223\254\335\314s\230\031\030e\201\334\325\333\226\356"
 497      73981918 
 497      6581DCD5 
 497      DB96EE
 498 0022 62847039 		.ascii	"b\204p9\201\334\367\353\237<\347\262\330\326\320\261"
 498      81DCF7EB 
 498      9F3CE7B2 
 498      D8D6D0B1 
 499 0032 A041610E 		.ascii	"\240Aa\0163#\243\241\014\343\026F\031F#\031\306\315"
 499      3323A3A1 
 499      0CE31646 
 499      19462319 
 499      C6CD
 500 0044 8C320C8C 		.ascii	"\2142\014\214[\031-\030\000=n\024\363"
 500      5B192D18 
 500      003D6E14 
 500      F3
 501              		.text
 502              		.section	.gnu.lto_data.2a00e427,"",%progbits
 503 0000 789C6363 		.ascii	"x\234cc``p\006bF\006\010\230\302\314\270\350\305\331"
 503      60607006 
 503      62460608 
 503      98C2CCB8 
 503      E8C5D9
 504 0013 93ACDDCC 		.ascii	"\223\254\335\314s\230\031\030e\201\334-G\216\267q@\270"
 504      73981918 
 504      6581DC2D 
 504      478EB771 
ARM GAS  C:\Users\AMANRA~1\AppData\Local\Temp\ccKbJO0N.s 			page 40


 504      40B8
 505 0025 8C40EEFB 		.ascii	"\214@\356\373\025\023wsXlk\350X\320\2400\207\231\221"
 505      15137773 
 505      586C6BE8 
 505      58D0A030 
 505      879991
 506 0038 D1508671 		.ascii	"\321P\206q\013\243\014\243\221\014\343fF\031\006\306"
 506      0BA30CA3 
 506      910CE366 
 506      461906C6 
 507 0048 AD8C160C 		.ascii	"\255\214\026\014\000-]\024o"
 507      002D5D14 
 507      6F
 508              		.text
 509              		.section	.gnu.lto_.symbol_nodes.2a00e427,"",%progbits
 510 0000 789C5D8F 		.ascii	"x\234]\217\315N\024A\024\205O\237\352\036`\3701\021"
 510      CD4E1441 
 510      14854F9F 
 510      EA1E60F8 
 510      3111
 511 0012 FC45A3E1 		.ascii	"\374E\243\341\001x\006\337\310\370\002V;\231`\342B\215"
 511      017806DF 
 511      C8F80256 
 511      3B9960E2 
 511      428D
 512 0024 0B483406 		.ascii	"\013H4\006%\0235\321\350\202\225\254\030\323Q\202\212"
 512      251335D1 
 512      E88295AC 
 512      18D35182 
 512      8A
 513 0035 CA8FBFA8 		.ascii	"\312\217\277\250C\333BT\302\202\0070\336\252[m,7}\276"
 513      43DB4254 
 513      C2820730 
 513      DEAA5B6D 
 513      2C377DBE 
 514 0049 3AA7EEB9 		.ascii	":\247\356\271\325\015\000g\215|\270L\013\\]\001D\036"
 514      D50D0067 
 514      8D7CB84C 
 514      0B5C5D01 
 514      441E
 515 005b E7DDBC01 		.ascii	"\347\335\274\001d\237\211\323.\333\246MB\226\270\354"
 515      649F89D3 
 515      2EDBA64D 
 515      4296B8EC 
 516 006b 8C78CF69 		.ascii	"\214x\317i\371\337}\276\2435\265\267\220\337N\244\342"
 516      F9DF7DBE 
 516      A335B5B7 
 516      90DF4EA4 
 516      E2
 517 007c 13135791 		.ascii	"\023\023W\221\275`#\237\000L\266\306\354\302\204s\326"
 517      BD60239F 
 517      004CB6C6 
 517      ECC28473 
 517      D6
 518 008d 992A2CB1 		.ascii	"\231*,\261O\243U\032uVH\205W\354Wx\315\001\2057l*\274"
 518      4FA3551A 
 518      75564885 
ARM GAS  C:\Users\AMANRA~1\AppData\Local\Temp\ccKbJO0N.s 			page 41


 518      57EC5778 
 518      CD018537 
 519 00a4 E5A0C206 		.ascii	"\345\240\302\006\207\024^r\330C\362\2356\365\317\000"
 519      87145E72 
 519      D843F29D 
 519      36F5CF00 
 520 00b4 72F7D6A4 		.ascii	"r\367\326\244\242\315\"\343\033m#2J\332\276\310\330"
 520      A2CD22E3 
 520      1B6D2332 
 520      4ADABEC8 
 520      D8
 521 00c5 A2ED8F8C 		.ascii	"\242\355\217\214\036\355@d|\245mF\306\027\332\301\310"
 521      1EED4064 
 521      7CA56D46 
 521      C617DAC1 
 521      C8
 522 00d6 D8A41D8A 		.ascii	"\330\244\035\212\214\217\264\303\221\361\201v$2\336"
 522      8C8FB4C3 
 522      91F18176 
 522      2432DE
 523 00e5 D31EF8D7 		.ascii	"\323\036\370\3270\030Eu\357\351\270\301A\264\247vO\031"
 523      30184575 
 523      EFE9B8C1 
 523      41B4A776 
 523      4F19
 524 00f7 CAB9F73B 		.ascii	"\312\271\367;1f\024\305\255u\257Uo\322\030\242\365l"
 524      316614C5 
 524      AD75AF55 
 524      6FD218A2 
 524      F56C
 525 0109 2775C7CE 		.ascii	"'u\307\316\225\315\363&=\211\302]KO\350\365t\034\355"
 525      95CDF326 
 525      3D89C25D 
 525      4B4FE8F5 
 525      741CED
 526 011c 2DA7C7D1 		.ascii	"-\247\307\321\361z\014E\320*\250\257\027\355x=\212\302"
 526      F17A0C45 
 526      D02AA8AF 
 526      17ED783D 
 526      8AC2
 527 012e EB115441 		.ascii	"\353\021TA;\027\235\036F\345U\326^rj\360\344\262S\240"
 527      3B179D1E 
 527      46E555D6 
 527      5E726AF0 
 527      E4B253A0 
 528 0142 F47A48F6 		.ascii	"\364zH\366k^\\\013\371t\310\247\265\267=S-\234\363\205"
 528      6B5E5C0B 
 528      F974C8A7 
 528      B5B73D53 
 528      2D9CF385 
 529 0156 0AD2A820 		.ascii	"\012\322\250 \243\327=\310\354\015\0172<\353A\246g\353"
 529      A3D73DC8 
 529      EC0D0F32 
 529      3CEB41A6 
 529      67EB
 530 0168 A85C7C30 		.ascii	"\250\\|03\342\254\326\266\322\030\252\035%)\377\251"
 530      33E2ACD6 
ARM GAS  C:\Users\AMANRA~1\AppData\Local\Temp\ccKbJO0N.s 			page 42


 530      B6D218AA 
 530      1D2529FF 
 530      A9
 531 0179 24ED81A4 		.ascii	"$\355\201\244>\220\364\377Z\374q\263\351[\366\324\223"
 531      3E90F4FF 
 531      5AFC71B3 
 531      E95BF6D4 
 531      93
 532 018a 0DFBEAC9 		.ascii	"\015\373\352\311\212\375\277\351\\\267N\357t\303\266"
 532      8AFDBFE9 
 532      5CB74EEF 
 532      74C3B6
 533 0199 3290FCF8 		.ascii	"2\220\374\370\335:-\357\327i\353a\235\266\037\325ik"
 533      DD3A2DEF 
 533      D769EB61 
 533      9DB61FD5 
 533      696B
 534 01ab BE4EE702 		.ascii	"\276N\347\002\215\241\360\204?>A\376\236"
 534      8DA1F084 
 534      3F3E41FE 
 534      9E
 535              		.text
 536              		.section	.gnu.lto_.refs.2a00e427,"",%progbits
 537 0000 789C1DCD 		.ascii	"x\234\035\315-\023Aa\020\305\361s\216\273x\356s/A\276"
 537      2D134161 
 537      10C5F173 
 537      8EBB78EE 
 537      732F41BE 
 538 0014 8224B8E3 		.ascii	"\202$\270\343%H>\235\244I\232\344\243\030Ec\014A\022"
 538      25483E9D 
 538      A4499AE4 
 538      A3184563 
 538      0C4112
 539 0027 04812010 		.ascii	"\004\201 \020\004cG\370\315\177wfg\266\012`\343\004"
 539      046347F8 
 539      CD7F7766 
 539      67B60A60 
 539      E304
 540 0039 B122D629 		.ascii	"\261\"\326)o\305'\375\367b\220\310\022U\023\321d\251"
 540      6FC527FD 
 540      F76290C8 
 540      125513D1 
 540      64A9
 541 004b 2CAA1665 		.ascii	",\252\026e\271\352\271\254)\266d\005C[\354 te=Y\251"
 541      B9EAB9AC 
 541      29B66405 
 541      435BEC20 
 541      74653D59 
 542 0060 B4542C65 		.ascii	"\264T,e}\331\220a$\216\021&\342\032\210[\310vn\017E"
 542      7DD99061 
 542      248E1126 
 542      E21A885B 
 542      C8766E0F 
 543 0075 67077704 		.ascii	"g\007w\004\303\311\237\237\201p\361\233\253\273\201"
 543      C3C99F9F 
 543      8170F19B 
 543      ABBB81
ARM GAS  C:\Users\AMANRA~1\AppData\Local\Temp\ccKbJO0N.s 			page 43


 544 0084 D9DDFB70 		.ascii	"\331\335\373pO0\177y\337\356\0036\276~;%\262\031\305"
 544      4F307F79 
 544      DFEE0336 
 544      BE7E3B25 
 544      B219C5
 545 0097 39912FBC 		.ascii	"9\221/\274K\242\261\"~\357G\031\246"
 545      4BA2B122 
 545      7EEF4719 
 545      A6
 546              		.text
 547              		.section	.gnu.lto_.decls.2a00e427,"",%progbits
 548 0000 789CB57D 		.ascii	"x\234\265}\011XU\331\225\356=w\337\011\270\200\261\354"
 548      095855D9 
 548      95EE3D77 
 548      DF09B880 
 548      B1EC
 549 0012 C4AAD8F9 		.ascii	"\304\252\330\371\352\345\253N\321\335I9T\272\222\274"
 549      EAE5AB4E 
 549      D1DD4939 
 549      54BA92BC 
 550 0022 EED75F8C 		.ascii	"\356\327_\214V\222z]\225\252\017M\272+]\035B\341\325"
 550      56927A5D 
 550      95AA0F4D 
 550      BA2B5D1D 
 550      42E1D5
 551 0035 A2A360C1 		.ascii	"\242\243`\301\265\312z\375\275\356\313 \203\250\314"
 551      B5CA7AFD 
 551      BDEECB20 
 551      83A8CC
 552 0044 CA280838 		.ascii	"\312(\0108 \240\240\"2\010\0102\217\202\242\314\203"
 552      20A0A022 
 552      32080832 
 552      8F82A2CC 
 552      83
 553 0055 322A8328 		.ascii	"2*\203(\363\364\326\036\316=\347\334\301\262\362\336"
 553      F3F4D61E 
 553      CE3DE7DC 
 553      C1B2F2DE 
 554 0065 F37379CF 		.ascii	"\363sy\317:w\355\265\376\275\366Z{\357\263\367>W\225"
 554      3A77EDB5 
 554      FEBDF65A 
 554      7BEFB3F7 
 554      3E5795
 555 0078 4C264B3E 		.ascii	"L&K>(\223\371\333\313dw\0252\331\032\374\261\201{\267"
 555      2893F9DB 
 555      CB647715 
 555      32D91AFC 
 555      B1817BB7 
 556 008c 80BE0354 		.ascii	"\200\276\003T\004t\237\223\311\036\000u\001u\003\265"
 556      04749F93 
 556      C91E0075 
 556      017503B5 
 557 009c C2BD3781 		.ascii	"\302\2757\201\252\201\006\201\037\006\032\001\212\222"
 557      AA810681 
 557      1F061A01 
 557      8A92
 558 00aa CB647F0F 		.ascii	"\313d\177\017t\022(\001\3504P\015\310\244\340O\240:"
ARM GAS  C:\Users\AMANRA~1\AppData\Local\Temp\ccKbJO0N.s 			page 44


 558      74122801 
 558      E834500D 
 558      C8A4E04F 
 558      A03A
 559 00bc 203F2493 		.ascii	" ?$\223\351\201\366\3015\024\221\375o\270^\007\237\301"
 559      E981F6C1 
 559      351491FD 
 559      6FB85E07 
 559      9FC1
 560 00ce F0790C28 		.ascii	"\360y\014(\014(\022(\016(\031(\015\350\002P&\320u\240"
 560      0C281228 
 560      0E281928 
 560      0DE80250 
 560      26D075A0 
 561 00e2 1B40B781 		.ascii	"\033@\267\201j\200\032\201\356\000\265\0029\200\216"
 561      6A801A81 
 561      EE00B502 
 561      39808E
 562 00f1 7BF0791F 		.ascii	"{\360y\037\250\035\250\013\250\033\250\027\250\037\350"
 562      A81DA80B 
 562      A81BA817 
 562      A81FE8
 563 0100 21D020D0 		.ascii	"!\320 \3200\320(\320c\240q\240I \361\237W\3242\331\267"
 563      30D028D0 
 563      63A071A0 
 563      4920F19F 
 563      57D432D9 
 564 0115 E0F38F40 		.ascii	"\340\363\217@\353\20160\037\024\002M!\212\337\027\011"
 564      EB813630 
 564      1F14024D 
 564      218ADF17 
 564      09
 565 0126 3EC17E48 		.ascii	">\301~H\002\376)\222\372'\026\011\365C\254~\311\254"
 565      02FE2992 
 565      FA271609 
 565      F543AC7E 
 565      C9AC
 566 0138 5E1CC32A 		.ascii	"^\034\303*\376\363\252\232\326Al\027\373\026\333\236"
 566      FEF3AA9A 
 566      D6416C17 
 566      FB16DB9E 
 567 0148 46966D57 		.ascii	"F\226mW\313\004\373b[\274\037\223\255\330\372oj\252"
 567      CB04FB62 
 567      5BBC1F93 
 567      ADD8FA6F 
 567      6AAA
 568 015a DF9AADDF 		.ascii	"\337\232\255\337\303\347\306\027\324Yl\367\031P\010"
 568      C3E7C617 
 568      D4596CF7 
 568      195008
 569 0169 D073130C 		.ascii	"\320s\023\014\274\375cV0\274\011\030\376Id\037\333\264"
 569      BCFD6356 
 569      30BC0918 
 569      FE49641F 
 569      DBB4
 570 017b 67183632 		.ascii	"g\03062\375\233\200f\240\334\017\030\026\025\320<\360"
 570      FD9B8066 
ARM GAS  C:\Users\AMANRA~1\AppData\Local\Temp\ccKbJO0N.s 			page 45


 570      A0DC0F18 
 570      1615D03C 
 570      F0
 571 018c CD400B88 		.ascii	"\315@\013\210\306[\244\234\306\322^\240\006\270\267"
 571      C65BA49C 
 571      C6D25EA0 
 571      06B8B7
 572 019b 28C28BE3 		.ascii	"(\302\213\343\254\032h\011\011\361W\016\327\313@\031"
 572      AC1A6809 
 572      09F1570E 
 572      D7CB4019 
 573 01ab 402B88C6 		.ascii	"@+\210\306+\216\3173r\332n8^q\334\346b\334\220\017r"
 573      2B8ECF33 
 573      72DA6E38 
 573      5E71DCE6 
 573      62DC900F 
 574 01c0 05F5015F 		.ascii	"\005\365\001_w\\g\004\367B\341S\241\020b?\010x%\360"
 574      775C6704 
 574      F742E153 
 574      A110623F 
 574      087825F0 
 575 01d4 E7E15305 		.ascii	"\347\341S\005\237\333A\207-|\332)\250\277p>\304\003"
 575      9FDB4187 
 575      2D7CDA29 
 575      A8BF703E 
 575      C403
 576 01e6 3902BF0E 		.ascii	"9\002\277\016h\003\320_\340\357\340\336c(\377m\270N"
 576      6803D05F 
 576      E0EFE0DE 
 576      6328FF6D 
 576      B84E
 577 01f8 453477BE 		.ascii	"E4w\276\003\327?\205\317W\341\3635\240\277\004\372\036"
 577      03D73F85 
 577      CF57E1F3 
 577      35A0BF04 
 577      FA1E
 578 020a C6C2FC5B 		.ascii	"\306\302\374[\210\365\310h\236\264\262\034hd9q\233\345"
 578      88F5C868 
 578      9EB4B21C 
 578      68643971 
 578      9BE5
 579 021c C8759633 		.ascii	"\310u\2263\257+h;\340\366\010f\271\204s\312NFs\005\347"
 579      AF2B683B 
 579      E0F60866 
 579      B98473CA 
 579      4E467305 
 580 0231 C63D9627 		.ascii	"\306=\226'\335,O\272X\016\211\363E\374\247\034\332\016"
 580      DD2C4FBA 
 580      580E89F3 
 580      45FCA71C 
 580      DA0E
 581 0243 D4CA3E96 		.ascii	"\324\312>\226\323v\372\200\371\037\213\271\300\347\037"
 581      D376FA80 
 581      F91F8BB9 
 581      C0E71F
 582 0252 81FE2097 		.ascii	"\201\376 \227Y\374S\242\246\365\300m{\306\212\014\376"
 582      59FC53A2 
ARM GAS  C:\Users\AMANRA~1\AppData\Local\Temp\ccKbJO0N.s 			page 46


 582      A6F5C06D 
 582      7BC68A0C 
 582      FE
 583 0263 53F89272 		.ascii	"S\370\222r\275/)\027\205\270\274\271\201Q\025\222s\370"
 583      BD2F2917 
 583      85B8BCB9 
 583      81511592 
 583      73F8
 584 0275 7A3628A9 		.ascii	"z6(\251\300\361\255L\003\375\243yU\306]\345\020/x\307"
 584      C0F1AD4C 
 584      03FDA379 
 584      55C65DE5 
 584      102F78C7 
 585 0289 3F3B0185 		.ascii	"?;\001\205 n\275-\247\000\366iC\334C\007`7\330r\257"
 585      206EBD2D 
 585      A700F669 
 585      43DC4307 
 585      6037D872 
 586 029e 037B6FFE 		.ascii	"\003{o\376\346\242\026\255\307j\024\231~\027\247\024"
 586      E6A216AD 
 586      C76A1499 
 586      7E17A714 
 587 02ae 9CD3268E 		.ascii	"\234\323&\216\203\277\266\347xu2\256\220\263\345\362"
 587      83BFB6E7 
 587      787532AE 
 587      90B3E5F2 
 588 02be 38A3DFE2 		.ascii	"8\243\337\342\014A\006\303\324\177\341\333p\255!\237"
 588      0C4106C3 
 588      D47FE1DB 
 588      70AD219F 
 589 02ce 70C7D760 		.ascii	"p\307\327`H5\240\2152\356\355M\334\226M2\356\006\347"
 589      4835A08D 
 589      32EEED4D 
 589      DC964D32 
 589      EE06E7
 590 02e1 44BE9271 		.ascii	"D\276\222q\005\2400\237\333\204\321t\347=mv\320\036"
 590      05A0309F 
 590      DB84D174 
 590      E73D6D76 
 590      D01E
 591 02f3 C5D2C97E 		.ascii	"\305\322\311~\006\233_\023\335\327\341\373\\\370^\306"
 591      069B5F13 
 591      DDD7E1FB 
 591      5CF85EC6 
 592 0303 15715AEE 		.ascii	"\025qZ\356\032\367\226\214^\212\340\256\247p'\374\007"
 592      1AF7968C 
 592      5E8AE0AE 
 592      A77027FC 
 592      07
 593 0314 FBEC28BB 		.ascii	"\373\354(\273\021\330\243\203~~Z\364\035\342\204\222"
 593      11D8A383 
 593      7E7E5AF4 
 593      1DE28492 
 594 0324 BEB9645B 		.ascii	"\276\271d[\364:\271\276|\344Q\272\006\3046\331rk\034"
 594      F43AB9BE 
 594      7CE451BA 
 594      06C436D9 
ARM GAS  C:\Users\AMANRA~1\AppData\Local\Temp\ccKbJO0N.s 			page 47


 594      726B1C
 595 0337 E69FE42F 		.ascii	"\346\237\344/\330S\036\177}\255\364Y\226\0029\341ky"
 595      D8531E7F 
 595      7DADF459 
 595      960239E1 
 595      6B79
 596 0349 4ED6A37F 		.ascii	"N\326\243\177\347\234hmK\357\317~\373\206\301\260\216"
 596      E79C686D 
 596      4BEFCF7E 
 596      FB86C1B0 
 596      8E
 597 035a AB0050E5 		.ascii	"\253\000P\345\034\342\241l\202JX\252\341m\250!\250\304"
 597      1CE2A16C 
 597      824A58AA 
 597      E16DA821 
 597      A8C4
 598 036c 525C19D4 		.ascii	"R\\\031\324\341\026\255cz\322\205\333\366(\226#\372"
 598      E116AD63 
 598      7AD285DB 
 598      F6289623 
 598      FA
 599 037d 7BB2261B 		.ascii	"{\262&\033\221\321@S\346\367\257\0361\030\344\\5X\250"
 599      91D14053 
 599      E6F7AF1E 
 599      3118E45C 
 599      3558A8
 600 0390 142C5470 		.ascii	"\024,TpVLTY6q\361Z\3469G\261\033\253%n\254\341\264\254"
 600      564C5459 
 600      3671F15A 
 600      E63947B1 
 600      1BAB256E 
 601 03a8 F55BA6EA 		.ascii	"\365[\246\352\023\231\303\326\001\033|\364\371\025;"
 601      1399C3D6 
 601      011B7CF4 
 601      F9153B
 602 03b7 B442A071 		.ascii	"\264B\240qw\216\256dh\320\021\032Cq\205\317k\225TP\003"
 602      778EAE64 
 602      68D0111A 
 602      437185CF 
 602      6B955450 
 603 03cc EC584FCE 		.ascii	"\354XO\316y%\012\241\337-\014\206\032\354Q\024e\272"
 603      79250AA1 
 603      DF2D0C86 
 603      1AEC5114 
 603      65BA
 604 03de ABD33370 		.ascii	"\253\3233p<}\014\276\205?\216\"\367~L\335\233\2660\231"
 604      3C7D0CBE 
 604      853F8E22 
 604      F77E4CDD 
 604      9BB63099 
 605 03f2 A745A789 		.ascii	"\247E\247\211\270\274\241y\256@\303\331:\005\031\261"
 605      B8BCA179 
 605      AE40C3D9 
 605      3A0519B1 
 606 0402 CA8C40B9 		.ascii	"\312\214@\271\273P\273\217Y\355\356\300\315f\270I\035"
 606      BB50BB8F 
 606      59EDEEC0 
ARM GAS  C:\Users\AMANRA~1\AppData\Local\Temp\ccKbJO0N.s 			page 48


 606      CD66B849 
 606      1D
 607 0413 3559FFFD 		.ascii	"5Y\377\375\302\036\203\341u\256\025*\326\"8\352c[Z\257"
 607      C21E83E1 
 607      75AE152A 
 607      D62238EA 
 607      635B5AAF 
 608 0427 BEB1803E 		.ascii	"\276\261\200>\271-(\365{)\2458a&2\362\354i\340\227b"
 608      B92D28F5 
 608      7B29A538 
 608      612632F2 
 608      EC69E097 
 609 043c BE6C3C2C 		.ascii	"\276l<,\015\241\243\210@\016\353Z(\262CQ\224\341%\327"
 609      0DA1A388 
 609      400EEB5A 
 609      28B24351 
 609      94E125D7 
 610 0450 33C90B43 		.ascii	"3\311\013C\011'\264\224\377)\260w\233{\316\"\024\213"
 610      0927B494 
 610      FF29B077 
 610      9B7BCE22 
 610      148B
 611 0462 24DE78D3 		.ascii	"$\336x\323\334\033oRo\264\204N\247\251Q\012\021\227"
 611      DC1B6F52 
 611      6FB4844E 
 611      A7A9510A 
 611      1197
 612 0474 F7B62F75 		.ascii	"\367\266/u9X\363F\037\000\177\223\001\357\206\233]F"
 612      3958F346 
 612      1F007F93 
 612      01EF869B 
 612      5D46
 613 0486 6FDC9F7D 		.ascii	"o\334\237}3<\020\207M/x\243G\360\306\233\314\033\351"
 613      333C1087 
 613      4D2F78A3 
 613      47F0C69B 
 613      CC1BE9
 614 0499 69E1292A 		.ascii	"i\341)*\224Em\024\306\017V\310\255\331xh\325\006\204"
 614      94456D14 
 614      C60F56C8 
 614      ADD97868 
 614      D50684
 615 04ac 662509CD 		.ascii	"f%\011\315\001\260\321/\330\350\345\230\021C\324R\222"
 615      01B0D12F 
 615      D8E8E598 
 615      1143D452 
 615      92
 616 04bd 3DBA4E8D 		.ascii	"=\272N\215L\372\305\237\265Z\221!\253F\346&\177z\217"
 616      4CFAC59F 
 616      B55A9121 
 616      AB46E626 
 616      7F7A8F
 617 04d0 5464108C 		.ascii	"Td\020\214<\022\214\014\360F\272\256\036/\327 \203\202"
 617      3C128C0C 
 617      F046BAAE 
 617      1E2FD720 
 617      8382
ARM GAS  C:\Users\AMANRA~1\AppData\Local\Temp\ccKbJO0N.s 			page 49


 618 04e2 B82E63CE 		.ascii	"\270.c\316?\327\021\005Qf12?\327\016\235\240\314\255"
 618      3FD71105 
 618      51663132 
 618      3FD70E9D 
 618      A0CCAD
 619 04f5 95F6045B 		.ascii	"\225\366\004[\024E\231\353C5\225\266\264e\0158\333\227"
 619      144599EB 
 619      433595B6 
 619      B4650D38 
 619      DB97
 620 0507 CF363DD0 		.ascii	"\3176=\320\240\004\372ea^Q%\213\353-\300\372=J\354w"
 620      A004FA65 
 620      615E5125 
 620      8BEB2DC0 
 620      FA3D4AEC 
 621 051c 4067E977 		.ascii	"@g\351w\225\241\376\307l\321%\302\310g\356<\211UY\253"
 621      95A1FEC7 
 621      6CD125C2 
 621      C867EE3C 
 621      895559AB 
 622 0530 D153AB35 		.ascii	"\321S\2535\252U\375\234\233\202\312LZ\250L\374\263\356"
 622      AA55FD9C 
 622      9B82CA4C 
 622      5AA84CFC 
 622      B3EE
 623 0542 511B6ADB 		.ascii	"Q\033j\333\011\267R\301\263\263*T@m\017\254\255\376"
 623      09B752C1 
 623      B3B32A54 
 623      406D0FAC 
 623      ADFE
 624 0554 3B2AA7D7 		.ascii	";*\247\327\301\231\301\225\016\250\2162)%\205O\324\250"
 624      C199C195 
 624      0EA88E32 
 624      2925854F 
 624      D4A8
 625 0566 933217C6 		.ascii	"\2232\027\306z\227\021\032\243L\177WU\266\003z\302\352"
 625      7A97111A 
 625      A34C7F57 
 625      55B6037A 
 625      C2EA
 626 0578 35175FE8 		.ascii	"5\027_\350\210\236Q\246\341\341\332\264-Z\244L^\334"
 626      889E51A6 
 626      E1E1DAB4 
 626      2D5AA44C 
 626      5EDC
 627 058a 6AA902F9 		.ascii	"j\251\002\371(\011s\344x\326)\354\033\025\215O5\334"
 627      280973E4 
 627      78D629EC 
 627      1B158D4F 
 627      35DC
 628 059c 7A34B578 		.ascii	"z4\265x]Ao\341\032\034\206[\211\261]9\016\350\010)\""
 628      5D416FE1 
 628      1A1C865B 
 628      89B15D39 
 628      0EE80829 
 629 05b1 2F6EBDE1 		.ascii	"/n\275\341o/t\211\327\337\364!-f\220\333r\253B%U\254"
 629      6F2F7489 
ARM GAS  C:\Users\AMANRA~1\AppData\Local\Temp\ccKbJO0N.s 			page 50


 629      D7DFF421 
 629      2D6690DB 
 629      72AB4225 
 630 05c7 C33298F9 		.ascii	"\3032\230\371j\015|\245b\276Z\201\233\3134\377\246\027"
 630      6A0D7CA5 
 630      62BE5A81 
 630      9BCB34FF 
 630      A617
 631 05d9 A6AE2950 		.ascii	"\246\256)P(\265q5r9\306A\324+n\313%\241\347\0076|\344"
 631      28B57135 
 631      7239C641 
 631      D42B6ECB 
 631      25A1E707 
 632 05f0 461B60D2 		.ascii	"F\033`\322\232\021_\271E#\375\206\245X-:E\215\304\227"
 632      9A115FB9 
 632      4523FD86 
 632      A5582D3A 
 632      458DC497 
 633 0604 A55C951B 		.ascii	"\245\\\225\033\215\314M\376\260\215T$\000\214\370\013"
 633      8DCC4DFE 
 633      B08D5424 
 633      008CF80B 
 634 0614 46FCAC1B 		.ascii	"F\374\254\0339b\331HH\364\3709\007\224H\035\2744\022"
 634      3962D948 
 634      48F4F839 
 634      0794481D 
 634      BC3412
 635 0627 D5CED136 		.ascii	"\325\316\3216\306\343\225oa{\270#\215\305>\222\375\213"
 635      C6E3956F 
 635      617BB823 
 635      8DC53E92 
 635      FD8B
 636 0639 41AB0A74 		.ascii	"A\253\012t\221\312\336?\326\332\251BW(\272\274\272\256"
 636      91CADE3F 
 636      D6DAA942 
 636      5728BABC 
 636      BAAE
 637 064b 25616058 		.ascii	"%a`XT\376\234;\016\300B^\012\3301\313\300*\233\222\237"
 637      54FE9C3B 
 637      0EC0425E 
 637      0AD831CB 
 637      C02A9B92 
 638 0660 69D00D6A 		.ascii	"i\320\015j,?<b\\\203\212)\323\023\023Rh\207\356P\246"
 638      2C3F3C62 
 638      5C838A29 
 638      D3131352 
 638      6887EE50 
 639 0675 3874FA86 		.ascii	"8t\372\206\015z@\231\300\371\201lG\324O\031~\264\330"
 639      0D7A4099 
 639      C0F9816C 
 639      47D44F19 
 639      7EB4D8
 640 0688 40478B31 		.ascii	"@G\2131\277\322~\005\032\241\337\371F\266f\332\240q"
 640      BFD27E05 
 640      1AA1DFF9 
 640      46B666DA 
 640      A071
ARM GAS  C:\Users\AMANRA~1\AppData\Local\Temp\ccKbJO0N.s 			page 51


 641 069a 0ADEB722 		.ascii	"\012\336\267\"\354\216\232O\026\351\210uJn>b\321:\016"
 641      EC8E9A4F 
 641      16E98875 
 641      4A6E3E62 
 641      D13A0E
 642 06ad 401D4F42 		.ascii	"@\035OB\035\243\205:V\363\251\022\0357\264\021\315P"
 642      1DA3853A 
 642      56F3A912 
 642      1D37B411 
 642      CD50
 643 06bf 4B21C756 		.ascii	"K!\307V/#\264D-\215\237\270\220\247\262l)\336\252\245"
 643      2F23B444 
 643      2D8D9FB8 
 643      90A7B26C 
 643      29DEAAA5 
 644 06d3 16B01407 		.ascii	"\026\260\024\007\226b-X\352N\234|\246@~*:T\225_\276"
 644      96622D58 
 644      EA4E9C7C 
 644      A6407E2A 
 644      3A54955F 
 645 06e8 A346C184 		.ascii	"\243F\301\204\221\267\317\324E\012\361\322\001:\222"
 645      91B7CFD4 
 645      450AF1D2 
 645      013A92
 646 06f7 4047A2A9 		.ascii	"@G\242\251\016\013HN[@\202\273\254\250\230\267Q\004"
 646      0E0B484E 
 646      5B4082BB 
 646      ACA898B7 
 646      5104
 647 0709 B5347EB6 		.ascii	"\2654~\266\361\012\356\013\234l\271\377\022\015\022"
 647      F10AEE0B 
 647      9C6CB9FF 
 647      120D12
 648 0718 4E749048 		.ascii	"Nt\220H\010\0378e\203b)\216\330\231kK\306\2765\333\317"
 648      081F3865 
 648      8362298E 
 648      D8996B4B 
 648      C6BE35DB 
 649 072d F02D9FAD 		.ascii	"\360-\237\2552\256\015\3246\340\266?\013\266\234\230"
 649      32AE0DD4 
 649      36E0B63F 
 649      0BB69C98 
 650 073d AD14F926 		.ascii	"\255\024\371&\356\214\3348J\\\177\207\216\022i\000;"
 650      EE8CDC38 
 650      4A5C7F87 
 650      8E126900 
 650      3B
 651 074e 5580EDC4 		.ascii	"U\200\355\304j\036\350\177!\324\016\245Q#Q\241\003\235"
 651      6A1EE87F 
 651      21D40EA5 
 651      512351A1 
 651      039D
 652 0760 6A710656 		.ascii	"jq\006V\221\014\274\000E\317\011E\323\344\306\032\233"
 652      910CBC00 
 652      45CF0945 
 652      D3E4C61A 
 652      9B
ARM GAS  C:\Users\AMANRA~1\AppData\Local\Temp\ccKbJO0N.s 			page 52


 653 0771 01396F01 		.ascii	"\0019o\001\010\016\265\313\235\267\025(\213Z\231\011"
 653      080EB5CB 
 653      9DB71528 
 653      8B5A9909 
 654 0781 1E4FB65E 		.ascii	"\036O\266^\225\014\253U\251jB\335\3450\275Qp\027\001"
 654      950CAB55 
 654      A96A42DD 
 654      E530BD51 
 654      701701
 655 0794 50BA00E8 		.ascii	"P\272\000\350\202\234U\246\340\330\214\277\235x\006"
 655      829C55A6 
 655      E0D88CBF 
 655      9D7806
 656 07a3 84058519 		.ascii	"\204\005\205\031P\246\234\237\001\371\016\\o\343\320"
 656      50A69C9F 
 656      01F90E5C 
 656      6FE3D0
 657 07b2 63DA0A39 		.ascii	"c\332\0129\011\325\0136\266\254\005\203\276n\262\332"
 657      09D50B36 
 657      B6AC0583 
 657      BE6EB2DA 
 658 07c2 3FBF765B 		.ascii	"?\277v[+\266qIb\343\262\321\306\255"
 658      2BB67149 
 658      62E3B2D1 
 658      C6AD
 659 07d0 06BF743B 		.ascii	"\006\277t;4Em\014\254\234y\244F\263\224\231\217\251"
 659      34456D0C 
 659      AC9C79A4 
 659      46B39499 
 659      8FA9
 660 07e2 49B347CB 		.ascii	"I\263G\313\224\211\310l\276\257B\0065\315'\326S\254"
 660      9489C86C 
 660      BEAF4206 
 660      35CD27D6 
 660      53AC
 661 07f4 673D45CF 		.ascii	"g=E\317\245\325\"\025\362\243_&u=\315R\243\000\302\310"
 661      A5D52215 
 661      F2A35F26 
 661      753DCD52 
 661      A300C2C8 
 662 0808 DBD64646 		.ascii	"\333\326FF\240wq\022\001\371\343\267\205\316\340\006"
 662      A0777112 
 662      01F9E3B7 
 662      85CEE006 
 663 0818 78D1859F 		.ascii	"x\321\205\2376S\367M$|\317\307`\340\270<\271\226\273"
 663      3653F74D 
 663      247CCFC7 
 663      60E0B83C 
 663      B996BB
 664 082b 2E38CF45 		.ascii	".8\317E\313\236\035\372\243K\330\270\364\200L\246|+"
 664      CB9E1DFA 
 664      A34BD8B8 
 664      F4804CA6 
 664      7C2B
 665 083d 5B352894 		.ascii	"[5(\224\232~:qw\331\036ER\246u\350\214?\233\3724\223"
 665      9A7E3A71 
 665      77D91E45 
ARM GAS  C:\Users\AMANRA~1\AppData\Local\Temp\ccKbJO0N.s 			page 53


 665      52A675E8 
 665      8C3F9BFA 
 666 0853 39C04271 		.ascii	"9\300Bq\207\012\235\242_vF\317\367\331\2408\312\204"
 666      870A9DA2 
 666      5F7646CF 
 666      F7D9A038 
 666      CA84
 667 0865 54E456B2 		.ascii	"T\344V\262\307\214j\314W\337\013)Q\240D\372\345\371"
 667      C78C6ACC 
 667      57DF0B29 
 667      51A044FA 
 667      E5F9
 668 0877 BA3E8312 		.ascii	"\272>\203\022%S\246\350h\335\262\006\245R&\256 \320"
 668      2553A6E8 
 668      68DDB206 
 668      A55226AE 
 668      20D0
 669 0889 D7169DA3 		.ascii	"\327\026\235\243L[m\307Q;\224N\231\262{)MJ\224E\231"
 669      4C5B6DC7 
 669      513B944E 
 669      99B27B29 
 669      4D4A9445 
 670 089e C867F399 		.ascii	"\310g\363\231\034\312\241\314\340\225\316\0065\312\245"
 670      1CCAA1CC 
 670      E095CE06 
 670      35CAA5
 671 08ad 4C727E6F 		.ascii	"Lr~o\215\012\345Sf\272*\341Kt\223^\007]\353\210\260"
 671      8D0AE553 
 671      66BA2AE1 
 671      4B74935E 
 671      075DEB88 
 672 08c2 45B72893 		.ascii	"E\267(\223Z\360\344\026B\025\224Y\014\3149f\203j(3\\"
 672      5AF0E416 
 672      42159459 
 672      0CCC3966 
 672      836A2833 
 673 08d7 7BFC6DD4 		.ascii	"{\374m\324@\257\023F\327\364\350\016\275\316|XX\254"
 673      40AF1346 
 673      D7F4E80E 
 673      BDCE7C58 
 673      58AC
 674 08e9 46F72813 		.ascii	"F\367(\023\323\223\343\257@\355\224\271\177zq\321\016"
 674      D393E3AF 
 674      40ED94B9 
 674      7F7A71D1 
 674      0E
 675 08fa 7553A6F7 		.ascii	"uS\246\367x\317\357Q?\275.i;\272\254E\203\224\311X{"
 675      78CFEF51 
 675      3FBD2E69 
 675      3BBAAC45 
 675      8394C958 
 676 090f 16AA45A3 		.ascii	"\026\252E\243\224\251M\235-c\223\220GdB\235\363\364"
 676      94A94D9D 
 676      2D639390 
 676      4764429D 
 676      F3F4
 677 0921 B986F6B3 		.ascii	"\271\206\366\263\311\252(\364\335\340s]\005\034\367"
ARM GAS  C:\Users\AMANRA~1\AppData\Local\Temp\ccKbJO0N.s 			page 54


 677      C9AA28F4 
 677      DDE0735D 
 677      051CF7
 678 0930 06FEF3CA 		.ascii	"\006\376\363\312\033\322?N\344\337\024\334\364\245\223"
 678      1BD23F4E 
 678      E4DF14DC 
 678      F4A593
 679 093f ABA82BE3 		.ascii	"\253\250+\343\350qCr\031m\332rh\332.\371+B(\264\223"
 679      E8714372 
 679      196DDA72 
 679      68DA2EF9 
 679      2B4228B4 
 680 0954 B8DC8A1F 		.ascii	"\270\334\212\037\037i\211\332O\342\014\245\376\210H"
 680      1F6989DA 
 680      4FE20CA5 
 680      FE8848
 681 0963 37984A17 		.ascii	"7\230J\027\233J\227\375\233 ]i*=N\244\257s\202x\307"
 681      9B4A97FD 
 681      9B205D69 
 681      2A3D4EA4 
 681      AF738278 
 682 0978 1F04F102 		.ascii	"\037\004\361\002S\361|\271\251\370\230H{\231e\344T<"
 682      53F17CB9 
 682      A9F89848 
 682      7B9965E4 
 682      543C
 683 098a 1CC77018 		.ascii	"\034\307p\030\020\247\200\316\002\372\205{r<\255gE "
 683      10A780CE 
 683      02FA857B 
 683      723CAD67 
 683      4520
 684 099c 96B92710 		.ascii	"\226\271'\020\362\023\3627\270\021\240^\240G@O\201\306"
 684      F213F237 
 684      B811A05E 
 684      A047404F 
 684      81C6
 685 09ae 801E003D 		.ascii	"\200\036\000=\004\032\007\352\001\032\002z\0144\012"
 685      041A07EA 
 685      011A027A 
 685      0C340A
 686 09bd D40E3408 		.ascii	"\324\0164\010\324\007t\037\250\023\250\033h\000\250"
 686      D407741F 
 686      A813A81B 
 686      6800A8
 687 09cc 1F681868 		.ascii	"\037h\030h\012\250\003hR\376\006y\332\245\340\247E\340"
 687      0AA80368 
 687      52FE0679 
 687      DAA5E0A7 
 687      45E0
 688 09de 6F99822F 		.ascii	"o\231\202/\221\2338r@\344\366ZS\351\233f\216\034\373"
 688      919B3872 
 688      40E4F65A 
 688      53E99B66 
 688      8E1CFB
 689 09f1 5741FC8E 		.ascii	"WA\374\216\251x\203i+\265\210\240\3346\225\3560S^&j"
 689      A9788369 
 689      2BB588A0 
ARM GAS  C:\Users\AMANRA~1\AppData\Local\Temp\ccKbJO0N.s 			page 55


 689      DC3695EE 
 689      30535E26 
 690 0a06 A56253F1 		.ascii	"\245bS\361\"S\344\213\"\345\245\226\353)V\336\"\252"
 690      2253E48B 
 690      22E5A596 
 690      EB2956DE 
 690      22AA
 691 0a18 68BDE5F8 		.ascii	"h\275\345\370\022\213O\213*\332l\271\242b\361Z\021\230"
 691      128B4F8B 
 691      2ADA6CB9 
 691      A262F15A 
 691      1198
 692 0a2a 0ACB3515 		.ascii	"\012\3135\025A\037\023a\2511\225\2366\313\014\221[n"
 692      411F1361 
 692      A931959E 
 692      36CB0C91 
 692      5B6E
 693 0a3c 5A768B18 		.ascii	"Zv\213\030\312\200\010y\213\251\370fS\351E\021\224*"
 693      CA800879 
 693      8BA9F866 
 693      53E94511 
 693      942A
 694 0a4e CB89244E 		.ascii	"\313\211$N;\221t\243\251t\255\271\023E\342\325\226\353"
 694      3B9174A3 
 694      A974ADB9 
 694      1345E2D5 
 694      96EB
 695 0a60 49C5E958 		.ascii	"I\305\351X\320\330\271\216\214\005 &c\003\201\020\326"
 695      D0D8B98E 
 695      8C052026 
 695      63038110 
 695      D6
 696 0a71 3D5DEB53 		.ascii	"=]\353S\374\014\325[\210\262:\313\221*B\332!\362B\253"
 696      FC0CD55B 
 696      88B23ACB 
 696      912A42DA 
 696      21F242AB 
 697 0a85 452F8893 		.ascii	"E/\210\223@\344\341\\S\341k\246\201\327\"\222.\264\334"
 697      40E4E15C 
 697      53E16BA6 
 697      81D72292 
 697      2EB4DC
 698 0a98 9988C354 		.ascii	"\231\210\303T\004\244\311\262\313\2104\364\265\355\011"
 698      04A4C9B2 
 698      CB8834F4 
 698      B5ED09
 699 0aa7 8905F6E2 		.ascii	"\211\005\366\342A\\,\013\0163\016\342=E)s\366(S\203"
 699      415C2C0B 
 699      0E330EE2 
 699      3D452973 
 699      F6285383 
 700 0abb 7B6C34B5 		.ascii	"{l4\265\232\324\253\344\234^y\3038\037\211=\022\200"
 700      9AD4ABE4 
 700      9C5E79C3 
 700      381F893D 
 700      1280
 701 0acd E7233352 		.ascii	"\347#3R7\206\263\3519\351\253\214\010\236\001\244\031"
ARM GAS  C:\Users\AMANRA~1\AppData\Local\Temp\ccKbJO0N.s 			page 56


 701      3786B3E9 
 701      39E9AB8C 
 701      089E01A4 
 701      19
 702 0ade D6573D87 		.ascii	"\326W=\207\276jV\322\227\264\245\177\217:\035lsW\231"
 702      BE6A56D2 
 702      97B4A57F 
 702      8F3A1D6C 
 702      735799
 703 0af1 A80537E2 		.ascii	"\250\0057\342Q\304wx\034\241|\202\211{<\224\321&G\305"
 703      51C47778 
 703      1CA17C82 
 703      897B3C94 
 703      D12647C5 
 704 0b05 9449E82D 		.ascii	"\224I\350-\353ac\370m\362\020\334\033\025\254eC\012"
 704      EB6163F8 
 704      6DF210DC 
 704      1B15AC65 
 704      430A
 705 0b17 5EE71B9E 		.ascii	"^\347\033\236\235mS\241j*|u-=\000\241F\312\334~\330"
 705      9D6D53A1 
 705      6A2A7C75 
 705      2D3D00A1 
 705      46CADC7E 
 706 0b2c 5AAD44F7 		.ascii	"Z\255D\367)\223\\\326\377#4B\257\013\242\213\340\211"
 706      29935CD6 
 706      FF233442 
 706      AF0BA28B 
 706      E089
 707 0b3e 619C30FF 		.ascii	"a\2340\377\220\034\371$\303\221{\345\015\355+xH\322"
 707      901CF924 
 707      C3917BE5 
 707      0DED2B78 
 707      48D2
 708 0b50 928B37F0 		.ascii	"\222\2137\360\265\023\374\301\343\024\374\273\341\015"
 708      B513FCC1 
 708      E314FCBB 
 708      E10D
 709 0b5e F20D1EA3 		.ascii	"\362\015\036\243\264Z'\343`E\307-'\313\256\231\201G"
 709      B45A27E3 
 709      6045C72D 
 709      27CBAE99 
 709      8147
 710 0b70 4803A2AE 		.ascii	"H\003\242\256\211GN\234\017\022\273f2I\271R~\202\216"
 710      89474E9C 
 710      0F12BB66 
 710      3249B952 
 710      7E828E
 711 0b83 70BE48CB 		.ascii	"p\276H\313=`\322\026\274#jQ?$nQ\\\2166\220d Y\204\201"
 711      3D60D216 
 711      BC236A51 
 711      3F246E51 
 711      5C8E3690 
 712 0b9c 64010F24 		.ascii	"d\001\017$\205`\365\010CP\000\327\371\350\015\356\006"
 712      8560F508 
 712      435000D7 
 712      F9E80DEE 
ARM GAS  C:\Users\AMANRA~1\AppData\Local\Temp\ccKbJO0N.s 			page 57


 712      06
 713 0bad 501ED075 		.ascii	"P\036\320u\240\\\240k@W\201\256\000\345\000e\003%\002"
 713      A05CA06B 
 713      405781AE 
 713      00E50065 
 713      032502
 714 0bc0 C502C500 		.ascii	"\305\002\305\000\235\002\012\004\012\000\362\227\324"
 714      9D020A04 
 714      0A00F297 
 714      D4
 715 0bcd 60FA7D1A 		.ascii	"`\372}\032\2310#[\202\246=\202,\017\317\226\241\315"
 715      9930235B 
 715      82A63D82 
 715      2C0FCF96 
 715      A1CD
 716 0bdf B312FF7F 		.ascii	"\263\022\377\177\240\255\326\255O%q\207\027_:9\023p"
 716      A0ADD6AD 
 716      4F257187 
 716      175F3A39 
 716      1370
 717 0bf1 E623474F 		.ascii	"\346#GO\335\006*\037\004\036\035\266,o\332\024\301\222"
 717      DD062A1F 
 717      041E1DB6 
 717      2C6FDA14 
 717      C192
 718 0c03 A6808232 		.ascii	"\246\200\2022\323\312>\206oq\206rO@c0\253l4T\366\004"
 718      D3CA3E86 
 718      6F718672 
 718      4F406330 
 718      AB6C3454 
 719 0c19 003E0E74 		.ascii	"\000>\016tT\002z)S\271z\315`\200G\264\020\026\017b\023"
 719      54027A29 
 719      53B97ACD 
 719      608047B4 
 719      10160F62 
 720 0c2e 92414304 		.ascii	"\222AC\004\343\230\004F\310\213`\234\004\323_\017c\340"
 720      E3980446 
 720      C88B609C 
 720      04D35F0F 
 720      63E0
 721 0c40 3C32A46D 		.ascii	"<2\244m$\2615b\031\003\337;Ao\321vJ\355C\202 \024\304"
 721      24B13562 
 721      1903DF3B 
 721      416FD176 
 721      4AED4382 
 722 0c57 4699B8F1 		.ascii	"F\231\270\361\251g\263\345 0~\037\005 \302\031\240H"
 722      A967B3E5 
 722      20307E1F 
 722      0520C219 
 722      A048
 723 0c69 B88E0030 		.ascii	"\270\216\0000a\246Yr\274B\224%\253\0206\341fYbi2\305"
 723      61A65972 
 723      BC429425 
 723      AB1036E1 
 723      66596269 
 724 0c7f DB586125 		.ascii	"\333Xa%\254\333\030p\242q\314g\241\271\376\255\302\030"
 724      ACDB1870 
ARM GAS  C:\Users\AMANRA~1\AppData\Local\Temp\ccKbJO0N.s 			page 58


 724      A271CC67 
 724      A1B9FEAD 
 724      C218
 725 0c91 D373818E 		.ascii	"\323s\201\2161 $\356\034Y\337Y\240<\236\032\201\373"
 725      312024EE 
 725      1C59DF59 
 725      A03C9E1A 
 725      81FB
 726 0ca3 4EEC8E35 		.ascii	"N\354\2165\341q\004K\363Bk\231\312\205l\274\336\033"
 726      E171044B 
 726      F3426B99 
 726      CA856CBC 
 726      DE1B
 727 0cb5 6C49C5D0 		.ascii	"lI\305\320I\265\301\240!\255:&,A\005\223\362\024\356"
 727      49B5C1A0 
 727      21AD3A26 
 727      2C410593 
 727      F214EE
 728 0cc8 E3246566 		.ascii	"\343$efM\200!\314\225,\306M\230\006\253\311\344\025"
 728      4D8021CC 
 728      952CC64D 
 728      9806ABC9 
 728      E415
 729 0cda 544EBF27 		.ascii	"TN\277'4\3213&nt\317\264\231x\331{\324\035q \366\334"
 729      34D13326 
 729      6E74CFB4 
 729      9978D97B 
 729      D41D7120 
 730 0cf0 54FBB449 		.ascii	"T\373\264I^\233uz\011\340bK\235\036\253]\022\365\236"
 730      5E9B757A 
 730      09E0624B 
 730      9D1EAB5D 
 730      12F59E
 731 0d03 C18AF756 		.ascii	"\301\212\367V\303|\3001\330\362\254Py\003_y\003\211"
 731      C37CC031 
 731      D8F2AC50 
 731      79035F79 
 731      0389
 732 0d15 87907416 		.ascii	"\207\220t\026\017\247\321\006n\316\024\240x\312\031"
 732      0FA7D106 
 732      6ECE14A0 
 732      78CA19
 733 0d24 6109A18C 		.ascii	"a\011\241\214\224\303\360.\003\274K\020\015Y@\231@\027"
 733      94C3F02E 
 733      03BC4B10 
 733      0D594099 
 733      4017
 734 0d36 80CE039D 		.ascii	"\200\316\003\235\001J\006J\222DI\355\257\251[\260\323"
 734      014A064A 
 734      924449ED 
 734      AFA95BB0 
 734      D3
 735 0d47 E7C12AD6 		.ascii	"\347\301*\326buB\320X\"\352O\026\276N\272\354\037\251"
 735      627542D0 
 735      5822EA4F 
 735      16BE4EBA 
 735      EC1FA9
ARM GAS  C:\Users\AMANRA~1\AppData\Local\Temp\ccKbJO0N.s 			page 59


 736 0d5a EA14105E 		.ascii	"\352\024\020^\264.,J\372TI\322\247XH\372`\350h\203p"
 736      B42E2C4A 
 736      FA5449D2 
 736      A75848FA 
 736      60E86883 
 737 0d6f 471B0851 		.ascii	"G\033\010Q\230\312\032\344\034\324\370,\324,M\250\031"
 737      98CA1AE4 
 737      1CD4F82C 
 737      D42C4DA8 
 737      19
 738 0d80 5E2E2C51 		.ascii	"^.,QNN\217\030\014\021Z\262`\270\304!\211~\363\244\037"
 738      4E4E8F18 
 738      0C115AB2 
 738      60B8C421 
 738      897EF3A4 
 739 0d95 FB36EE20 		.ascii	"\3736\356 \370\214O\265\234\361\254\301\003\2248\234"
 739      F88C4FB5 
 739      9CF1ACC1 
 739      0394389C 
 740 0da5 5391E98C 		.ascii	"S\221\351\214\214\266e\323y\326\226xA\360\250\374k\374"
 740      8CB665D3 
 740      79D69678 
 740      41F0A8FC 
 740      6BFC
 741 0db7 D456C4BC 		.ascii	"\324V\304\274\232\016\216:a]Z\274T\002\222\202\243\322"
 741      9A0E8E3A 
 741      615D5ABC 
 741      54029282 
 741      A3D2
 742 0dc9 A9A3AC8C 		.ascii	"\251\243\254\214\247\\\006\270G\030R\215A\271\360\000"
 742      A75C06B8 
 742      4718528D 
 742      41B9F000 
 743 0dd9 672BD614 		.ascii	"g+\326\024*d\264/Qe\354\244\012\253XE`0\014{a=\260S"
 743      2A64B42F 
 743      5165ECA4 
 743      0AAB5845 
 743      60300C7B 
 744 0df1 0AD8E884 		.ascii	"\012\330\350\204k\035\376u\322c?\243\321\201\205#\254"
 744      6B1DFE75 
 744      D2633FA3 
 744      D1818523 
 744      AC
 745 0e02 0B53B8B3 		.ascii	"\013S\270\2637T\330\337 c>\003n\273\264\336\317\317"
 745      3754D8DF 
 745      20633E03 
 745      6EBBB4DE 
 745      CFCF
 746 0e14 10B385AC 		.ascii	"\020\263\205\254LF\261\361\227-\012\321\264\211\224"
 746      4C46B1F1 
 746      972D0AD1 
 746      B48994
 747 0e23 8B9E317E 		.ascii	"\213\2361~\024c(\365Adq1\306\222\360\333\242'\014&\213"
 747      146328F5 
 747      41647131 
 747      C692F0DB 
 747      A2270C26 
ARM GAS  C:\Users\AMANRA~1\AppData\Local\Temp\ccKbJO0N.s 			page 60


 748 0e38 1711132C 		.ascii	"\027\021\023,\311\212\032q(\2235b&L\011\223M\347\015"
 748      C98A1A71 
 748      28933562 
 748      264C0993 
 748      4DE70D
 749 0e4b E60F521D 		.ascii	"\346\017R\035\177K\253\177\031\304\263,\213\213g\342"
 749      7F4BAB7F 
 749      19C4B32C 
 749      8B8B67E2 
 750 0e5b 7F23F4E5 		.ascii	"\177#\364\345\331\246\322\346\017\030\035\"\361\034"
 750      D9A6D2E6 
 750      0F181D22 
 750      F11C
 751 0e69 CBE2A296 		.ascii	"\313\342\242\226h\274\310\332\015\317b\257\230\212\233"
 751      68BCC8DA 
 751      0DCF62AF 
 751      988A9B
 752 0e78 3FD49531 		.ascii	"?\324\2251\355x\0222gY\\\244}\361\257\245#\351\221\027"
 752      ED781232 
 752      67595CA4 
 752      7DF1AFA5 
 752      23E99117 
 753 0e8c E5D56C3A 		.ascii	"\345\325l:\355H\217X\351H\237<\3071\213\243{Y\210\331"
 753      ED488F58 
 753      E9489F3C 
 753      C7318BA3 
 753      7B5988D9 
 754 0ea0 23A42385 		.ascii	"#\244#\205\351on\340\231c\216\350<]\220\235/\272\223"
 754      E96F6EE0 
 754      99638EE8 
 754      3C5D909D 
 754      2FBA93
 755 0eb3 22A7D3EB 		.ascii	"\"\247\323\3537\360~kiH5b\263k9\360\025ks\245l\361\016"
 755      37F07E6B 
 755      69483562 
 755      B36B39F0 
 755      156B73A5 
 756 0eca B37DA3AB 		.ascii	"\263}\243\253\365Jt\205\026\215<\327[\244@E\224\271"
 756      F54A7485 
 756      168D3CD7 
 756      5BA44045 
 756      94B9
 757 0edc 5E33F354 		.ascii	"^3\363T\211*\010\263~\246\372V\257-\247 Sj\255v\243"
 757      892A08B3 
 757      7EA6FA56 
 757      AF2DA720 
 757      536AAD76 
 758 0ef1 133F53C6 		.ascii	"\023?S\306\247\207n\203\263=\024\342,\254\220tg\267"
 758      A7876E83 
 758      B33D14E2 
 758      2CAC9074 
 758      67B7
 759 0f03 2D7467C5 		.ascii	"-tg\305h\023w\023\341\265\021\310\321*\326\235\265\302"
 759      68137713 
 759      E1B511C8 
 759      D12AD69D 
 759      B5C2
ARM GAS  C:\Users\AMANRA~1\AppData\Local\Temp\ccKbJO0N.s 			page 61


 760 0f15 750B7467 		.ascii	"u\013tgw\200\232\201\232\200\032\201\032\200\252\201"
 760      77809A81 
 760      9A801A81 
 760      1A80AA81 
 761 0f25 2A251DF8 		.ascii	"*%\035\370\303vef9\0317!G\313\020\"j,=\000Z6|\213\225"
 761      C3766566 
 761      39193721 
 761      47CB1022 
 761      6A2C3D00 
 762 0f3e F8E6867B 		.ascii	"\370\346\206{\342X\330\324@\305K8\023\303\342\210\027"
 762      E258D8D4 
 762      40C54B38 
 762      13C3E288 
 762      17
 763 0f4f B9A40E6D 		.ascii	"\271\244\016m\024d\352\301^\255\261c\262\"%\023\211"
 763      1464EAC1 
 763      5EADB163 
 763      B2222513 
 763      89
 764 0f60 9C2455F0 		.ascii	"\234$U\3603\254\223\343\365SHk\256\004a\011\220\207"
 764      33AC93E3 
 764      F553486B 
 764      AE046109 
 764      9087
 765 0f72 7FCBF141 		.ascii	"\177\313\361A\030\376\2319f\235/\016$\214\255\024\031"
 765      18FE9939 
 765      669D2F0E 
 765      248CAD14 
 765      19
 766 0f83 43A556D4 		.ascii	"C\245V\324\275\265\305\261\214\255\341@\3062~\361r\303"
 766      BDB5C5B1 
 766      8CADE140 
 766      C6327EF1 
 766      72C3
 767 0f95 6B34EAB1 		.ascii	"k4\352\261t\235\251\264y\012."
 767      749DA9B4 
 767      790A2E
 768 0fa0 BE2A88D7 		.ascii	"\276*\210\327[\026\027)\237\026I7\232JK3\320\337\317"
 768      5B161729 
 768      9F164937 
 768      9A4A4B33 
 768      D0DFCF
 769 0fb3 503A11CB 		.ascii	"P:\021\313\\\177\017R\260\311\262\274(\005\007^\025"
 769      5C7F0F52 
 769      B0C9B2BC 
 769      2805075E 
 769      15
 770 0fc4 52F03E93 		.ascii	"R\360>\223\266\232\202=\2614\005\253,\245 \314\213q"
 770      B69A823D 
 770      B13405AB 
 770      2CA520CC 
 770      8B71
 771 0fd6 3F8C03BB 		.ascii	"?\214\003\273H\360j\025\237\200\347\232R\233Th\211\344"
 771      48F06A15 
 771      9F80E79A 
 771      529B5468 
 771      89E4
ARM GAS  C:\Users\AMANRA~1\AppData\Local\Temp\ccKbJO0N.s 			page 62


 772 0fe8 8A7C2824 		.ascii	"\212|($\365\232\003<\200\263\005\355\304\215\244A\356"
 772      F59A033C 
 772      80B305ED 
 772      C48DA441 
 772      EE
 773 0ff9 43D17B42 		.ascii	"C\321{B\321\012R"
 773      D10A52
 774 1000 D47268B6 		.ascii	"\324rh\266\375\0319\201\365\003\220\250\202G!\222\323"
 774      FD193981 
 774      F50390A8 
 774      82472192 
 774      D3
 775 1011 15F725A9 		.ascii	"\025\367%\251\370\200\246\"\376\304k\303\001]W\024\266"
 775      F880A622 
 775      FEC46BC3 
 775      015D5714 
 775      B6
 776 1022 C2361DEE 		.ascii	"\3026\035\356\023\004\331v\204\367\0246\323P\303\253"
 776      1304D976 
 776      84F71436 
 776      D350C3AB 
 777 1032 DAD3D9E7 		.ascii	"\332\323\331\347\331\202:>n\300\237g\331@\317\263\304"
 777      D9823A3E 
 777      6EC09F67 
 777      D940CFB3 
 777      C4
 778 1043 0D676473 		.ascii	"\015gds\353\303X}~\316\221\3231\235P\243\016\022\250"
 778      EBC3587D 
 778      7ECE91D3 
 778      319D50A3 
 778      0E12A8
 779 1056 5D683DAF 		.ascii	"]h=\257\2220P\342\216\337\331\327$\213\033h\275\310"
 779      923050E2 
 779      8EDFD9D7 
 779      248B1B68 
 779      BDC8
 780 1068 7A3743DA 		.ascii	"z7C\332M\220>LiL\305}\332F\274\027\2147\312\343J\233"
 780      4D903E4C 
 780      694CC57D 
 780      DA46BC17 
 780      8C37CAE3 
 781 107e FF8DF206 		.ascii	"\377\215\362\006\303\177\342e\202\316\347\351rt\324"
 781      C37FE265 
 781      82CEE7E9 
 781      7274D4
 782 108d 8E34C0FC 		.ascii	"\2164\300\374\203Sl\337\215$\215\322IfL\031n\000\374"
 782      83536CDF 
 782      8D248DD2 
 782      49664C19 
 782      6E00FC
 783 10a0 B9916DDC 		.ascii	"\271\221m\334\364\002\274\036$\234T\370.9A\323\217l"
 783      F402BC1E 
 783      249C54F8 
 783      2E3941D3 
 783      8F6C
 784 10b2 B93EA1A1 		.ascii	"\271>\241\2416\262]\233\334\230\206H\007\024E-\370d"
 784      36B25D9B 
ARM GAS  C:\Users\AMANRA~1\AppData\Local\Temp\ccKbJO0N.s 			page 63


 784      DC988648 
 784      0714452D 
 784      F864
 785 10c4 E740938A 		.ascii	"\347@\223\212\216\306\\#[P\203P\364\241P\264\037\031"
 785      8EC65C23 
 785      5B508350 
 785      F4A150B4 
 785      1F19
 786 10d6 B7414D61 		.ascii	"\267AMa<\262\000\003\027\007C\341S\323\221*\253\255"
 786      3CB20003 
 786      170743E1 
 786      53D3912A 
 786      ABAD
 787 10e8 32C4B7CA 		.ascii	"2\304\267\312f\322(\305O\343\2434\324\355\006?\336\355"
 787      66D228C5 
 787      4FE3A334 
 787      D4ED063F 
 787      DEED
 788 10fa 74A89671 		.ascii	"t\250\226q\303\304\351C\324\351\303\304\351\217\223"
 788      C3C4E943 
 788      D4E9C3C4 
 788      E98F93
 789 1109 8AA22587 		.ascii	"\212\242%\207\230\206%^\037a^\037\241\361\021=:\215"
 789      9886255E 
 789      1F615E1F 
 789      A1F1113D 
 789      3A8D
 790 111b 5002A932 		.ascii	"P\002\2512Wu\364l\232=J\246LLK\316\273\226\217\260X"
 790      5775F46C 
 790      9A3D4AA6 
 790      4C4C4BCE 
 790      BB968FB0 
 791 1130 3AA50105 		.ascii	":\245\001\005n\266t\375\034\235\243\2053\306\202\256"
 791      6EB674FD 
 791      1C9DA385 
 791      33C682AE 
 792 1140 23749132 		.ascii	"#t\2212y\205e\017\024\350\022e&f\216\016(\320\025\312"
 792      7985650F 
 792      14E81265 
 792      26668E0E 
 792      28D015CA 
 793 1154 C4C7D786 		.ascii	"\304\307\327\206(Q.eFg\002.+Q\001e\356\346\337\013\262"
 793      28512E65 
 793      4667022E 
 793      2B510165 
 793      EEE6DF0B 
 794 1169 43259409 		.ascii	"C%\224\011\312\311\211\261C\345\224\011mN\352d\273\023"
 794      CAC989B1 
 794      43E59409 
 794      6D4EEA64 
 794      BB13
 795 117b A5787433 		.ascii	"\245xt3\214\226\237\226\243*\362\245v6d0\317\226\243"
 795      8C969F96 
 795      A32AF2A5 
 795      76366430 
 795      CF96A3
 796 118e 3B15FCDE 		.ascii	";\025\374\336\004\356T\206\027\224G\257\246\335\361"
ARM GAS  C:\Users\AMANRA~1\AppData\Local\Temp\ccKbJO0N.s 			page 64


 796      04EE5486 
 796      179447AF 
 796      A6DDF1
 797 119d C193E0C7 		.ascii	"\301\223\340\307\320\202S\320\202\213/\356\207\026c"
 797      D08253D0 
 797      828B2FEE 
 797      871663
 798 11ac 10EDB7B0 		.ascii	"\020\355\267\260\374\230\251\274d\216\204\305\313\304"
 798      FC98A9BC 
 798      648E84C5 
 798      CBC4
 799 11ba E2D3A6E2 		.ascii	"\342\323\246\342\233\315\264\207\212\304\237Y\0247\037"
 799      9BCDB487 
 799      8AC49F59 
 799      14371F
 800 11c9 D89E4314 		.ascii	"\330\236C\024\321\247\271E\326u,C\214-@\0271\017\264"
 800      D1A7B945 
 800      D6752C43 
 800      8C2D4017 
 800      310FB4
 801 11dc 02340B64 		.ascii	"\0024\013dP\274\301\371\000-\301\365\032\320\034\320"
 801      50BCC1F9 
 801      002DC1F5 
 801      1AD01CD0 
 802 11ec AA7174C3 		.ascii	"\252qt\303\306\307\304X\307M\215\213F\007\326\275\205"
 802      C6C7C458 
 802      C74D8D8B 
 802      4607D6BD 
 802      85
 803 11fd A2589C35 		.ascii	"\242X\2345\213\246O\004XWc\014J\247+ X\331S\313~\025"
 803      8BA64F04 
 803      5857630C 
 803      4AA72B20 
 803      58D953CB 
 804 1213 FB295664 		.ascii	"\373)Vd{\306\262[\305\216\232\026c}b\031\253X\276C,"
 804      7BC6B25B 
 804      C58E9A16 
 804      637D6219 
 804      AB58BE43 
 805 1228 3F692A5F 		.ascii	"?i*_k\012g@,>aY\234\252\307\313\221+K\001\366(HK\372"
 805      6B0A6740 
 805      2C3E6159 
 805      9CAAC7CB 
 805      912B4B01 
 806 1241 8789A099 		.ascii	"\207\211\240\231l[\356\025'\213-\304\371+\234\376\354"
 806      6C5BEE15 
 806      278B2DC4 
 806      F92B9CFE 
 806      EC
 807 1252 4662A37C 		.ascii	"Fb\243|,\302\217\301\234\237\342\025\316Wa\354p\026"
 807      2CC28FC1 
 807      9C9FE215 
 807      CE5761EC 
 807      7016
 808 1264 F9F1E8EA 		.ascii	"\371\361\350\352\365\313=\266\3424\307\202B\232\037"
 808      F5CB3DB6 
 808      E234C782 
ARM GAS  C:\Users\AMANRA~1\AppData\Local\Temp\ccKbJO0N.s 			page 65


 808      429A1F
 809 1273 51F02BC7 		.ascii	"Q\360+\3077\374:\023\240;\327\322\363;'\027\333\355"
 809      37FC3A13 
 809      A03BD7D2 
 809      F33B2717 
 809      DBED
 810 1285 501C656E 		.ascii	"P\034en,-\017kQ\032e:\236\007\346\330\241\213\224Y\311"
 810      2C2D0F6B 
 810      511A653A 
 810      9E07E6D8 
 810      A18B9459 
 811 129a 6E5DB541 		.ascii	"n]\265A\331\224\251\037\011\354W\211-a_\211\326\257"
 811      D994A91F 
 811      09EC5789 
 811      2D615F89 
 811      D6AF
 812 12ac 8C96F2C7 		.ascii	"\214\226\362\307\006\277@\271\264\320\243\345\212cJ"
 812      06BF40B9 
 812      B4D0A3E5 
 812      8A634A
 813 12bb 544499FE 		.ascii	"TD\231\376\242\221\004\033t\2132\021\327\036\\P\243"
 813      A291041B 
 813      748B3211 
 813      D71E5C50 
 813      A3
 814 12cc 4ACA9CBA 		.ascii	"J\312\234\272\231y\313\026\325R\246\271\240o\320\001"
 814      9979CB16 
 814      D552A6B9 
 814      A06FD001 
 815 12dc 355126BB 		.ascii	"5Q&\273\310\177\234\035\005-\305\303\201\357\223\206"
 815      C87F9C1D 
 815      052DC5C3 
 815      81EF9386 
 816 12ec 11256A21 		.ascii	"\021%j!_j\"\237>\236Wq|\232\263\211C7\333-\300\360\302"
 816      5F6A229F 
 816      3E9E5771 
 816      7C9AB389 
 816      4337DB2D 
 817 1303 C063A714 		.ascii	"\300c\247\024/\312@~\317\014K\207\232J\233\205\355\200"
 817      2FCA407E 
 817      CF0C4B87 
 817      9A4A9B85 
 817      ED80
 818 1315 483ADCA2 		.ascii	"H:\334\242n\363t\215Plb\001\212\245q$\304BT\234\204"
 818      6EF3748D 
 818      506C6201 
 818      8AA57124 
 818      C442549C 
 819 132a 568F028A 		.ascii	"V\217\002\212\006\212\007\212\001\212S\210\323\223\337"
 819      068A078A 
 819      018A5388 
 819      D393DF
 820 1339 13C3B68E 		.ascii	"\023\303\266\216\233\332\2525\315\316\266\356\365dN"
 820      9BDAAA35 
 820      CDCEB6EE 
 820      F5644E
 821 1348 035216B2 		.ascii	"\003R\026\262\263G\344\223H\313\272$\335\222\250\232"
ARM GAS  C:\Users\AMANRA~1\AppData\Local\Temp\ccKbJO0N.s 			page 66


 821      B347E493 
 821      48CBBA24 
 821      DD92A89A 
 822 1358 272C3BC5 		.ascii	"',;\305\230\015\275\245\215\215\216\250\215fC^\341Z"
 822      980DBDA5 
 822      8D8D8EA8 
 822      8D66435E 
 822      E15A
 823 136a 9BDA341B 		.ascii	"\233\3324\033x\007p\247\241\336/\353\003V\253\036\362"
 823      780770A7 
 823      A1DE2FEB 
 823      0356AB1E 
 823      F2
 824 137b 509C0885 		.ascii	"P\234\010\205\022\204\340\307u$\266\253;\303\375$g\037"
 824      1284E0C7 
 824      7524B6AB 
 824      3BC3FD24 
 824      671F
 825 138d 1225C19F 		.ascii	"\022%\301\237d\014\311\242\007\317\026m\320(\215\232"
 825      640CC9A2 
 825      07CF166D 
 825      D0288D9A 
 826 139d 9393C79F 		.ascii	"\223\223\307\237:rt\027\333\211\355ZW\235Vwe\2358f\350"
 826      3A727417 
 826      DB89ED5A 
 826      579D5677 
 826      659D3866 
 827 13b2 2BE5C831 		.ascii	"+\345\3101\325@\260\226\2520>\0137\230=d\267\034\240"
 827      D540B096 
 827      AA303E0B 
 827      37983D64 
 827      B71CA0
 828 13c5 0FCE5838 		.ascii	"\017\316X8\310\222\360\333f\201\300/\354\310\2100v\302"
 828      C892F0DB 
 828      6681C02F 
 828      ECC88830 
 828      76C2
 829 13d7 7970421A 		.ascii	"ypB\032T\372\034\320Y\240\024\2403@\027\024\222\247"
 829      54FA1CD0 
 829      59A014A0 
 829      33401714 
 829      92A7
 830 13e9 90276C16 		.ascii	"\220'l\026\017\365\341\2161[V\227Z*\307\331Z\001F\026"
 830      0FF5E18E 
 830      315B5697 
 830      5A2AC7D9 
 830      5A014616 
 831 13fd 6C0999F8 		.ascii	"l\011\231\370\221\236W\015\331\313\035\265\250Z\274"
 831      919E570D 
 831      D9CB1DB5 
 831      A85ABC
 832 140c 4DD7F684 		.ascii	"M\327\366\204\006Y\252i\220a]\023b\303\311\226\014w"
 832      0659AA69 
 832      90615D13 
 832      62C3C996 
 832      0C77
 833 141e 22163383 		.ascii	"\"\0263\203\031\243\211v(\323\236\036\362I\017Iw4N\242"
ARM GAS  C:\Users\AMANRA~1\AppData\Local\Temp\ccKbJO0N.s 			page 67


 833      19A38976 
 833      28D39E1E 
 833      F2490F49 
 833      77344EA2 
 834 1432 67C7498B 		.ascii	"g\307I\213g@\331t\241\305S\025fsh\3432\331Ep\342\313"
 834      6740D974 
 834      A1C55315 
 834      667368E3 
 834      32D94570 
 835 1448 3A146C37 		.ascii	":\024l7%\035YT\276\302T\005YU%\373:=\347\30336\213C"
 835      251D5954 
 835      BEC25405 
 835      595525FB 
 835      3A3DE7C3 
 836 1460 2F53127A 		.ascii	"/S\022zY\306\320KI\017N\324\240\022RW.`\272\346\204"
 836      59C6D04B 
 836      490F4ED4 
 836      A0125257 
 836      2E60BAE6 
 837 1475 0DAAA04C 		.ascii	"\015\252\240L|N\306\220\0265Q&\352j\326\021\033\324"
 837      7C4EC690 
 837      16355126 
 837      EA6AD611 
 837      1BD4
 838 1487 4E99B38B 		.ascii	"N\231\263\213KS\370I\376\007x\022\214D'\261~@\037\330"
 838      4B53F849 
 838      FE077812 
 838      8C4427B1 
 838      7E401FD8 
 839 149b 4BEA6ACE 		.ascii	"K\352j\316iQ\017\365\337\245\270\345eG\376\370\222\351"
 839      69510FF5 
 839      DFA5B8E5 
 839      6547FEF8 
 839      92E9
 840 14ad ECF33AD4 		.ascii	"\354\363:\324\350\007l\222v\025\362\360\212B8\210\365"
 840      E8076C92 
 840      7615F2F0 
 840      8A423888 
 840      F5
 841 14be BD7C3C9C 		.ascii	"\275|<\234\347*\340k\301\323?`\223\340\342\360\316!"
 841      E72AE06B 
 841      C1D33F60 
 841      93E0E2F0 
 841      CE21
 842 14d0 5B344A4D 		.ascii	"[4JM\3706G?\263j\"\337\252\211\246\314m\267\311l\371"
 842      F836473F 
 842      B36A22DF 
 842      AA89A6CC 
 842      6DB7C96C 
 843 14e5 06D8C813 		.ascii	"\006\330\310\023l\200Ijd5+vN\205\246\251\221\023\211"
 843      6C80496A 
 843      64352B76 
 843      4E85A6A9 
 843      911389
 844 14f8 81A795D6 		.ascii	"\201\247\225\326\214\024Y52\\\242\356\251#\247\260\012"
 844      8C145935 
 844      325CA2EE 
ARM GAS  C:\Users\AMANRA~1\AppData\Local\Temp\ccKbJO0N.s 			page 68


 844      A923A7B0 
 844      0A
 845 1509 C14A8160 		.ascii	"\301J\201`\345\006o%m%\324\036\0258\320\261\256\244"
 845      E5066F25 
 845      6D25D41E 
 845      1538D0B1 
 845      AEA4
 846 151b 38418D6E 		.ascii	"8A\215nQ\246\375\331\220\015\252\242\327\001\311\311"
 846      51A6FDD9 
 846      900DAAA2 
 846      D701C9C9 
 847 152b 994AD448 		.ascii	"\231J\324H\030\271a\376J\277\326\3321\3332\205\265c"
 847      18B961FE 
 847      4ABFD6DA 
 847      31DB3285 
 847      B563
 848 153d B61D7FC0 		.ascii	"\266\035\177\300\241{\013`\224*\314\017\332\216\256"
 848      A17B0B60 
 848      942ACC0F 
 848      DA8EAE
 849 154c 5E1E56A0 		.ascii	"^\036V\240vj\356\352\352\3752\204\372(\323yj\366\242"
 849      766AEEEA 
 849      EAFD3284 
 849      FA28D379 
 849      6AF6A2
 850 155f 037A4299 		.ascii	"\003zB\231\244\334\263s6\3509en\017v\327\333+\3442\256"
 850      A4DCB373 
 850      36E83965 
 850      6E0F76D7 
 850      DB2BE432 
 851 1574 1214FE70 		.ascii	"\022\024\376p\023\321\303/\353\374\236.\353\234>1\022"
 851      13D1C32F 
 851      EBFC9E2E 
 851      EB9C3E31 
 851      12
 852 1585 A944018E 		.ascii	"\251D\001\216T\355\371\262%\"_\003\362\325\340\247*"
 852      54EDF9B2 
 852      25225F03 
 852      F2D5E0A7 
 852      2A
 853 1596 85827494 		.ascii	"\205\202t\224\3273*\225(\216\012\365\307\344\237\267"
 853      D7332A95 
 853      288E0AF5 
 853      C7E49FB7 
 854 15a6 C5427520 		.ascii	"\305Bu \364\267\233\270Z\"#\277v\345\241\237\202\323"
 854      F4B79BB8 
 854      5A2223BF 
 854      76E5A19F 
 854      82D3
 855 15b8 38059083 		.ascii	"8\005\220\203g~>\302\3013\310_\205\206\344W#\324\275"
 855      677E3EC2 
 855      C133C85F 
 855      8586E457 
 855      23D4BD
 856 15cb 5EA13039 		.ascii	"^\24109\311X\331\273\211t\013 %\356\026\3604\277d\276"
 856      C958D9BB 
 856      89740B20 
ARM GAS  C:\Users\AMANRA~1\AppData\Local\Temp\ccKbJO0N.s 			page 69


 856      25EE16F0 
 856      34BF64BE 
 857 15df C0119D25 		.ascii	"\300\021\235%v\345#=\227Fl8'\015[_\356%\211~\00747\011"
 857      76E5233D 
 857      97466C38 
 857      270D5B5F 
 857      EE25897E 
 858 15f7 DEC22A64 		.ascii	"\336\302*d2s\010\\3X\266\206\002\014\265d\036\013T\242"
 858      3273085C 
 858      3358B686 
 858      020CB564 
 858      1E0B54A2 
 859 160b 1C5AC182 		.ascii	"\034Z\301\202\231vGTD\257G\252\362\3074\270\262\255"
 859      99764754 
 859      44AF47AA 
 859      F2C734B8 
 859      B2AD
 860 161d 820797BA 		.ascii	"\202\007\227\272|#U\350\016\025\010\254\312\316\261"
 860      7C2355E8 
 860      0E1508AC 
 860      CACEB1
 861 162c C102F798 		.ascii	"\301\002\367\230\313\356R\227\335K^\252\320\242\207"
 861      CBEE5297 
 861      DD4B5EAA 
 861      D0A287
 862 163b 54E84A5D 		.ascii	"T\350J]}\231\035\026\272O]\326F]\266zeBc\305c\355\014"
 862      7D991D16 
 862      BA4F5DD6 
 862      465DB67A 
 862      654263C5 
 863 1652 6B07607D 		.ascii	"k\007`}`\346\261\306\021\352\261v3\217\245\005\237["
 863      60E6B1C6 
 863      11EAB176 
 863      338FA505 
 863      9F5B
 864 1664 52A269EA 		.ascii	"R\242i\352\261\234\332\304\033\032\243\307&F\210\307"
 864      B19CDAC4 
 864      1B1AA3C7 
 864      264688C7 
 865 1674 BA4173A7 		.ascii	"\272As\247\340\261vk\036\353\002\313\326PD!e\340\374"
 865      E0B1766B 
 865      1EEB02CB 
 865      D6504421 
 865      65E0FC
 866 1687 4A342273 		.ascii	"J4\"s''6p\214}\333\227\364\337\330@\013\030\350\177"
 866      27273670 
 866      8C7DDB97 
 866      F4DFD840 
 866      0B18E87F 
 867 169b C1C031E0 		.ascii	"\301\3001\340N\207?\334|\025RY\323\001i\314\235N&\360"
 867      4E873FDC 
 867      7C155259 
 867      D30169CC 
 867      9D4E26F0 
 868 16af 91FDDB4C 		.ascii	"\221\375\333L\364k7\001\205\261\262\237u\355\003P\205"
 868      F46B3701 
 868      85B1B29F 
ARM GAS  C:\Users\AMANRA~1\AppData\Local\Temp\ccKbJO0N.s 			page 70


 868      75ED0350 
 868      85
 869 16c0 5EE882FB 		.ascii	"^\350\202\373\200z\244\223\204Q:*\365KG%pfy_\333\020"
 869      807AA493 
 869      84513A2A 
 869      F54B4725 
 869      7066795F 
 870 16d6 423EEB88 		.ascii	"B>\353\2103o\317\005\235\322\032\307\231\2661\342\314"
 870      336FCF05 
 870      9DD21AC7 
 870      99B631E2 
 870      CC
 871 16e7 41D0FE50 		.ascii	"A\320\376Ppf\377\013\306\231G\000\340E`p\230T\305\214"
 871      7066FF0B 
 871      C6994700 
 871      E0456070 
 871      9854C58C 
 872 16fb 28AC8C2D 		.ascii	"(\254\214-\242\3422KeC\253\237\244J\216\200\014I\006"
 872      A2E2324B 
 872      6543AB9F 
 872      A44A8E80 
 872      0C4906
 873 170e 9461E380 		.ascii	"\224a\343\200R\223V\260\254\245\371\257\304\21355\217"
 873      529356B0 
 873      ACA5F9AF 
 873      C48B3535 
 873      8F
 874 171f 4F722864 		.ascii	"Or(d\035=(x\273bM\213\343t\024\3524\242\330$y\271\352"
 874      1D3D2878 
 874      BB624D8B 
 874      E37414EA 
 874      34A2D824 
 875 1736 F7F4E5AA 		.ascii	"\367\364\345\252\373GV\257\333\240\223\264@j}e2\207"
 875      FB4756AF 
 875      DBA093B4 
 875      406A7D65 
 875      3287
 876 1748 0B3C8102 		.ascii	"\013<\201\002\217!\372\307h\364\347\372E\007+Q\032\025"
 876      8F21FAC7 
 876      68F4E7FA 
 876      45072B51 
 876      1A15
 877 175a 9AB83B10 		.ascii	"\232\270;\020@\264N\220\034\342\306\251\314\312p\026"
 877      40B44E90 
 877      1CE2C6A9 
 877      CCCA7016 
 878 176a CC4BAF50 		.ascii	"\314K\257P\231\202K\017#H\236M\2614\232\244Be~\021\341"
 878      99824B0F 
 878      23489E4D 
 878      B1349AA4 
 878      42657E11 
 879 177f 72544485 		.ascii	"rTD\205z\375\213kI\256M\3234zJe\"\363#\356 TAeF\243"
 879      7AFD8B6B 
 879      49AE4DD3 
 879      347A4A65 
 879      22F323EE 
 880 1799 2EFE0716 		.ascii	".\376\007\026y\016\"\177\263\211{F3\355\371q\2372\033"
ARM GAS  C:\Users\AMANRA~1\AppData\Local\Temp\ccKbJO0N.s 			page 71


 880      790E227F 
 880      B3897B46 
 880      33EDF971 
 880      9F321B
 881 17ac 2BA936CB 		.ascii	"+\2516\313\202|\016<<c\226jUq6\211\345\201x|\2305K\266"
 881      827C0E3C 
 881      3C63966A 
 881      55713689 
 881      E581787C 
 882 17c4 E6A1DB63 		.ascii	"\346\241\333cZ\264L\343\343r\335\363"
 882      5AB44CE3 
 882      E372DDF3 
 883 17d0 4BF6164D 		.ascii	"K\366\026Mp\213\240\371\305V\206\342H8-\200\320\274"
 883      708BA0F9 
 883      C55686E2 
 883      48382D80 
 883      D0BC
 884 17e2 104EB324 		.ascii	"\020N\263$7\301\320\223\033\367v\240\300o\321\225\013"
 884      37C1D093 
 884      1BF776A0 
 884      C06FD195 
 884      0B
 885 17f3 BF9EFFA4 		.ascii	"\277\236\377\244\213k\377\000\334\261\230\363a*v\026"
 885      8B6BFF00 
 885      DCB198F3 
 885      612A7616 
 886 1803 1F8FF4F9 		.ascii	"\037\217\364\371\321\247\237:\240p*\332P\321\032\243"
 886      D1A79F3A 
 886      A0702ADA 
 886      50D11AA3 
 887 1813 46C98451 		.ascii	"F\311\204Q\304\337\276>a\307\331\3207\337\234\002)\312"
 887      C4DFBE3E 
 887      61C7D9D0 
 887      37DF9C02 
 887      29CA
 888 1825 30C0CEA3 		.ascii	"0\300\316\243\364S:q\006\245\015\330\365Qn\342|\225"
 888      F4533A71 
 888      06A50DD8 
 888      F5516EE2 
 888      7C95
 889 1837 9BC88B6F 		.ascii	"\233\310\213o\370\016y\031n\035\271\024\2751\007,\267"
 889      F80E7919 
 889      6E1DB914 
 889      BD31072C 
 889      B7
 890 1848 A630BE31 		.ascii	"\2460\2761\027\205\034\246:g}\3558\341t'^;\221$\303"
 890      17851CA6 
 890      3A677DED 
 890      38E17427 
 890      5E3B9124 
 891 185d 0A34EC32 		.ascii	"\0124\3542\204\025\267\004\225\364W\322d8\001v\003\224"
 891      8415B704 
 891      95F457D2 
 891      64380176 
 891      0394
 892 186f 6F704781 		.ascii	"opG\201\002\201\302\200\216\000\035\007\012\001\012"
 892      0281C280 
ARM GAS  C:\Users\AMANRA~1\AppData\Local\Temp\ccKbJO0N.s 			page 72


 892      8E001D07 
 892      0A010A
 893 187e 070A050A 		.ascii	"\007\012\005\012\006:\006\024\244\024\317na\374\236"
 893      063A0614 
 893      A414CF6E 
 893      61FC9E
 894 188d C80AA55B 		.ascii	"\310\012\245[px\247\356&\323\374\202\215\245\262\375"
 894      7078A7EE 
 894      26D3FC82 
 894      8DA5B2FD 
 895 189d B4F3C1DE 		.ascii	"\264\363\301\336\306\233VX\334J\347Sv\200v>xP.1\325"
 895      C69B5658 
 895      DC4AE753 
 895      7680763E 
 895      78502E31 
 896 18b2 6CD6AB2D 		.ascii	"l\326\253-\376\007U\214=\263\252\220(6;\311\327\266"
 896      FE07558C 
 896      3DB3AA90 
 896      28363BC9 
 896      D7B6
 897 18c4 B0894E9D 		.ascii	"\260\211N\235a\252\307\005\230\2526;?7\260\237\002\201"
 897      61AAC705 
 897      98AA363B 
 897      3F37B09F 
 897      0281
 898 18d6 3CE6CA4D 		.ascii	"<\346\312M\245\315\316\346\315N\276F\225\343N3\333T"
 898      A5CDCEE6 
 898      CD4EBE46 
 898      95E34E33 
 898      DB54
 899 18e8 DCFC70E6 		.ascii	"\334\374p\346,\017\006\236\367\271Qd\021\214X\276m\362"
 899      2C0F069E 
 899      F7B95164 
 899      118C58BE 
 899      6DF2
 900 18fa B5483FC3 		.ascii	"\265H?\303\205-d\316\224\303\364\033'[\242U-\026\335"
 900      852D64CE 
 900      94C3F41B 
 900      275BA255 
 900      2D16DD
 901 190d 8FE98239 		.ascii	"\217\351\2029H\231\317\373g\347E\216\270d\212\325\374"
 901      4899CFFB 
 901      67E7458E 
 901      B8648AD5 
 901      FC
 902 191e 94C2C4F8 		.ascii	"\224\302\304\370k\221\006,\217OJ\0243y\343I\027\363"
 902      6B91062C 
 902      8F4F4A14 
 902      3379E349 
 902      17F3
 903 1930 BDB896C3 		.ascii	"\275\270\226\303\302\370q\331\262zv\022M>\020p\361\206"
 903      C2F871D9 
 903      B27A7612 
 903      4D3E1070 
 903      F186
 904 1942 9DB18B5F 		.ascii	"\235\261\213_\035\333@\226N\"\241\300\222\220\224\270"
 904      1DDB4096 
ARM GAS  C:\Users\AMANRA~1\AppData\Local\Temp\ccKbJO0N.s 			page 73


 904      4E22A1C0 
 904      929094B8 
 905 1952 12267DBC 		.ascii	"\022&}\2741\254# \224\377o\303\032/b_\252\356\224\254"
 905      31AC2320 
 905      94FF6FC3 
 905      1A2F625F 
 905      AAEE94AC 
 906 1966 CD472AC5 		.ascii	"\315G*\305}y\224\222\256\275\302'>g=\\fPX:\356o\345"
 906      7D799492 
 906      AEBDC227 
 906      3E673D5C 
 906      6650583A 
 907 197d B5CAE6A6 		.ascii	"\265\312\346\246\254I\271Xy\264R\274\016s\222)?I\224"
 907      AC49B958 
 907      79B452BC 
 907      0E739229 
 907      3F4994
 908 1990 F383C57A 		.ascii	"\363\203\305z:XD\\\\\366\343\254\2568\307(\331\212\363"
 908      3A58445C 
 908      5CF6E3AC 
 908      AE38C728 
 908      D98AF3
 909 19a3 2925B1F4 		.ascii	")%\261\364h)\253\200\275\327\252\212\022\336R\333@\337"
 909      6829AB80 
 909      BDD7AA8A 
 909      12DE52DB 
 909      40DF
 910 19b5 52CBABA8 		.ascii	"R\313\253\250OV\212\367\001\360s_\034\364<\261J\254"
 910      4F568AF7 
 910      01F0735F 
 910      1CF43CB1 
 910      4AAC
 911 19c7 2C5EB99E 		.ascii	",^\271\236WI\366M\206{\272$\353T\360\275\310t\002C\235"
 911      5749F64D 
 911      867BBA24 
 911      EB54F0BD 
 911      C8740243 
 912 19dc 4050CFD6 		.ascii	"@P\317\326\234\312\260G\347H\277'\217[(*\267\372\252"
 912      9CCAB047 
 912      E748BF27 
 912      8F5B282A 
 912      B7FAAA
 913 19ef 6092D2DA 		.ascii	"`\222\322\332d|\370\222\315\002};\3434\370'Qi2!\307"
 913      647CF892 
 913      CD027D3B 
 913      E334F827 
 913      51693221 
 914 1a04 77BF7609 		.ascii	"w\277v\011>\231w\310\026\372\252\314T\340\222\203i\215"
 914      3E9977C8 
 914      16FAAACC 
 914      54E09283 
 914      698D
 915 1a16 852DBA33 		.ascii	"\205-\2723\244\306\311|\215+\306\333\356s\342\032\237"
 915      A4C6C97C 
 915      8D2BC6DB 
 915      EE73E21A 
 915      9F
ARM GAS  C:\Users\AMANRA~1\AppData\Local\Temp\ccKbJO0N.s 			page 74


 916 1a27 91D43885 		.ascii	"\221\3248\205\3258\205\3248{-\252\317\036\365\320n\177"
 916      D53885D4 
 916      387B2DAA 
 916      CF1EF5D0 
 916      6E7F
 917 1a39 C0F75AB5 		.ascii	"\300\367Z\265=zH\231\343Qee\0124J\231\324\330p\230\346"
 917      3D7A4899 
 917      E3516565 
 917      0A344A99 
 917      D4D87098 
 918 1a4e 4E50263D 		.ascii	"NP&=\",\333\026MQ&\346\342\375E\0334M\031\337\371\224"
 918      222CDB16 
 918      4D5126E6 
 918      E2FD451B 
 918      344D19DF 
 919 1a64 220D9AA7 		.ascii	"\"\015\232\247\343\306\354\205\3346\007\334\251\213"
 919      E3C6EC85 
 919      DC3607DC 
 919      A98B
 920 1a72 5665E4E2 		.ascii	"Ve\344\342S5\027Y\300g\201/3 \2203M\372g\233\242\324"
 920      53351759 
 920      C067812F 
 920      33209033 
 920      4DFA679B 
 921 1a88 C66386E4 		.ascii	"\306c\206\344[\034y\216K\007O^\024\367\026f\363\275"
 921      5B1C798E 
 921      4B074F5E 
 921      14F71666 
 921      F3BD
 922 1a9a EFC61A4A 		.ascii	"\357\306\032J}\021\021\276`Q\230\256\243\260\275\270"
 922      7D1111BE 
 922      605198AE 
 922      A3B0BDB8 
 923 1aaa 785B3C70 		.ascii	"x[<p^T\232\314\335\024Ue\217\257\3415\374\015lz\332"
 923      5E549ACC 
 923      DD145565 
 923      8FAFE135 
 923      FC0D6C7A 
 924 1abf 16BF5EE8 		.ascii	"\026\277^\350\022\317\201\336l\345\013\216^\314\306"
 924      12CF81DE 
 924      6CE50B8E 
 924      5ECCC6
 925 1ace 3BF81014 		.ascii	";\370\020\024\330\372y\353\322V\016\032ai\354\222\034"
 925      D8FA79EB 
 925      D2560E1A 
 925      6169EC92 
 925      1C
 926 1adf 70C92570 		.ascii	"p\311%p\311e\245dM6~#\351\016A\312dB\321P\020q\315f"
 926      C965A564 
 926      4D367E23 
 926      E90E41CA 
 926      6442D150 
 927 1af7 0328F5B1 		.ascii	"\003(\365\261\256T&\321\010\205\374\313\357\345jQ\301"
 927      AE5426D1 
 927      0885FCCB 
 927      EFE56A51 
 927      C1
ARM GAS  C:\Users\AMANRA~1\AppData\Local\Temp\ccKbJO0N.s 			page 75


 928 1b08 7AFADE48 		.ascii	"z\372\336H\335e_\015*\246\314\351\206KuJTF\231\302\214"
 928      DD655F0D 
 928      2AA6CCE9 
 928      864B754A 
 928      544699C2 
 929 1b1d 4B2D7254 		.ascii	"K-rTM\231\314\374\251\020\0165S\346i\340e=\272O\257"
 929      4D99CCFC 
 929      A9100E35 
 929      53E669E0 
 929      653DBA4F 
 930 1b32 E7CF3C8A 		.ascii	"\347\317<\212\220\243n\302h\2175\3735)\371W6\234\204"
 930      90A36EC2 
 930      688F35FB 
 930      3529F957 
 930      369C84
 931 1b45 7D90217E 		.ascii	"}\220!~_\033/\360\345\201wJ\254\216Fd%\362\273\302r"
 931      5F1B2FF0 
 931      E581774A 
 931      AC8E4664 
 931      25F2BBC2 
 932 1b5a E0555369 		.ascii	"\340USi\013\253\207\257\011\342\327,\213\213\226T\247"
 932      0BAB87AF 
 932      09E2D72C 
 932      8B8B9654 
 932      A7
 933 1b6b 45D2B9A6 		.ascii	"E\322\271\246\322\346\3731e\233\004\3614Sq\361T\301"
 933      D2E6FB31 
 933      659B04F1 
 933      345371F1 
 933      54C1
 934 1b7d CA964909 		.ascii	"\312\226I\011\013\366[\320\262e\320\016\005@\267\201"
 934      0BF65BD0 
 934      B265D00E 
 934      0540B781 
 935 1b8d 6E021501 		.ascii	"n\002\025\001\025\002U\000\025\003\225\002\225+\305"
 935      15025500 
 935      15039502 
 935      952BC5
 936 1b9c 6BB2B522 		.ascii	"k\262\265\"\353\251\246\326\315\206\315\3068\372`Rb"
 936      EBA9A6D6 
 936      CD86CDC6 
 936      38FA6052 
 936      62
 937 1bad 3A6C6255 		.ascii	":lbU=\3426\270a\261\015D^j\021\031\316\267lX\354\245"
 937      3DE236B8 
 937      61B10D44 
 937      5E6A1119 
 937      CEB76C58 
 938 1bc3 319153AF 		.ascii	"1\221S\257[v*\257\034\322d5\336\226\212_\201\010=k\331"
 938      5B762AAF 
 938      1CD26435 
 938      DE968A5F 
 938      81083D6B 
 939 1bd8 A9FC61EF 		.ascii	"\251\374a\357\322\206yh\323\001\022_\362\342\353go\252"
 939      D2867968 
 939      D301125F 
 939      F2E2EB67 
ARM GAS  C:\Users\AMANRA~1\AppData\Local\Temp\ccKbJO0N.s 			page 76


 939      6FAA
 940 1bea 8DE36D4F 		.ascii	"\215\343mO\002\231\003WC\341J\241\273-1\037n\215\333"
 940      02990357 
 940      43E14AA1 
 940      BB2D311F 
 940      6E8DDB
 941 1bfd 2355D008 		.ascii	"#U\320\010\177n\203\000\226\304K\227\236\"\311\017\014"
 941      7F6E8300 
 941      96C44B97 
 941      9E22C90F 
 941      0C
 942 1c0e 4886D91A 		.ascii	"H\206\331\032\245\361w\032jH'{\261!}Y\201&)\366\331"
 942      A5F1771A 
 942      6A48277B 
 942      B1217D59 
 942      812629F6 
 943 1c23 DBC3A956 		.ascii	"\333\303\251V\337\371\257\267:\254T\365\332\204V\221"
 943      DFF9AFB7 
 943      3AAC54F5 
 943      DA845691 
 944 1c33 61A50E86 		.ascii	"a\245\016\206\225Z\263a\245\216\014+A\375\201\255\266"
 944      955AB361 
 944      A58E0C2B 
 944      41FD81AD 
 944      B6
 945 1c44 74E49C27 		.ascii	"t\344\234'\213\014-%\033P\336+$C\327F\333S\331\241\370"
 945      8B0C2D25 
 945      1B50DE2B 
 945      2443D746 
 945      DB53D9A1 
 946 1c59 2992CAB3 		.ascii	")\222\312\263Yc\034*\246_\366ED\024\333\241\333\224"
 946      59631C2A 
 946      A65FF645 
 946      4414DBA1 
 946      DB94
 947 1c6b B9D276A1 		.ascii	"\271\322v\241P\203\252)3\035W\371\330\026\325S\346\306"
 947      5083AA29 
 947      331D57F9 
 947      D816D553 
 947      E6C6
 948 1c7d CDF16D54 		.ascii	"\315\361mT\305&\374\354\325\375\264\224m\320\367\341"
 948      C526FCEC 
 948      D5FDB494 
 948      6DD0F7E1 
 949 1c8d 3D92B651 		.ascii	"=\222\266Q\037\037\015j\"\24265K\213\215\016\306\325"
 949      1F1F0D6A 
 949      22A23635 
 949      4B8B8D0E 
 949      C6D5
 950 1c9f 6E612334 		.ascii	"na#4>_\264\021\332\002\365h\267\036#8\362kD;d\255\246"
 950      3E5FB411 
 950      DA02F568 
 950      B71E2338 
 950      F26B443B 
 951 1cb6 E256B63E 		.ascii	"\342V\266>\356\301l\340.\231\015\264\263V\356\006\307"
 951      EEC16CE0 
 951      2E990DB4 
ARM GAS  C:\Users\AMANRA~1\AppData\Local\Temp\ccKbJO0N.s 			page 77


 951      B356EE06 
 951      C7
 952 1cc7 3E8056EC 		.ascii	">\200V\354\002\272\017\324\013\324\011\324\003\324!"
 952      02BA0FD4 
 952      0BD409D4 
 952      03D421
 953 1cd6 49B545B1 		.ascii	"I\265E\261\3016S\203\305\246\370\306jL6^\333_\330\353"
 953      C1365383 
 953      C5A6F8C6 
 953      6A4C365E 
 953      DB5FD8EB 
 954 1cea B4D498EC 		.ascii	"\264\324\230\354\017\232WG\274\360\275ZM\367>\333-e"
 954      0F9A5747 
 954      BCF0BD5A 
 954      4DF73EDB 
 954      2D65
 955 1cfc F26C8D78 		.ascii	"\362l\215x\357\363\216)T\363\016r\240\306d\327\327\202"
 955      EFF38E29 
 955      54F30E72 
 955      A0C664D7 
 955      D782
 956 1d0e EB8DFB2B 		.ascii	"\353\215\373+\325\3359Q\010\335%\215)O\315\2509ekL\270"
 956      D5DD3951 
 956      08DD258D 
 956      294FCDA8 
 956      39656B4C 
 957 1d23 CA5ABA37 		.ascii	"\312Z\27278\000\305\373\204Hl7\3178\276!\270~\360\377"
 957      3800C5FB 
 957      84486C37 
 957      CF38BE21 
 957      B87EF0FF 
 958 1d37 37690BFC 		.ascii	"7i\013\374\364\3374Vl#\316\262\001I\226=T\032_0\015"
 958      F4DF3456 
 958      6C23CEB2 
 958      0149963D 
 958      541A5F30 
 959 1d4c 293DA941 		.ascii	")=\251A\0034B/M?\277\244\242!\212\177o\"\274\373\326"
 959      0334422F 
 959      4D3FBFA4 
 959      A2218A7F 
 959      6F22BCFB 
 960 1d61 A2BDF5A3 		.ascii	"\242\275\365\243\016\374<k\220N<O\007,\365kL'Z\374#"
 960      0EFC3C6B 
 960      904E3C4F 
 960      072CF56B 
 960      4C275AFC 
 961 1d76 828C1B26 		.ascii	"\202\214\033&\023\255!~\242\325\023>7c\213\006\251\335"
 961      13AD217E 
 961      A2D5133E 
 961      37638B06 
 961      A9DD
 962 1d88 D6F08ED3 		.ascii	"\326\360\216\323\0124B\231\323\035a1Z4I\231S\217*\253"
 962      0A344299 
 962      D31D6131 
 962      5A344999 
 962      538F2AAB 
 963 1d9c 1468963A 		.ascii	"\024h\226:r\362\352r\275\340\310\341ve\215_\010N\352"
ARM GAS  C:\Users\AMANRA~1\AppData\Local\Temp\ccKbJO0N.s 			page 78


 963      72F2EA72 
 963      BDE0C8E1 
 963      76658D5F 
 963      084EEA
 964 1daf 71FC2CA2 		.ascii	"q\374,\242|\251\263;O\224\337\374\354\016\236\265\265"
 964      7CA9B33B 
 964      4F94DFFC 
 964      EC0E9EB5 
 964      B5
 965 1dc0 86DD7544 		.ascii	"\206\335uD\376\033\350B\177kf/\"++J\262jB\347\003\341"
 965      FE1BE842 
 965      7F6B662F 
 965      222B2B4A 
 965      B26A42E7 
 966 1dd6 A58936E8 		.ascii	"\245\2116\3508\225\230(I[U\221u\025%Y2\231T\222%\223"
 966      38959828 
 966      495B5591 
 966      75152559 
 966      32995492 
 967 1dec A46751F3 		.ascii	"\244gQ\363\216(\232\312\370g\\N%\013\272\323J\262f\362"
 967      8E289ACA 
 967      F8675C4E 
 967      250BBAD3 
 967      4AB266F2 
 968 1e00 94C8C8CF 		.ascii	"\224\310\310\317=\274xTie\315\344\271\222\256f\314@"
 968      3DBC7854 
 968      6965CDE4 
 968      B992AE66 
 968      CC40
 969 1e12 259E294D 		.ascii	"%\236)MW3\326B\354n\3205\023\2203\231\342$/\214\017"
 969      5733D642 
 969      EC6ED035 
 969      13903399 
 969      E2242F8C 
 970 1e27 295023B1 		.ascii	")P#\261,?s)\241\330\316\362\232\311<h~\261\225\241x"
 970      2C3F7329 
 970      A1D8CEF2 
 970      9AC93C68 
 970      7EB195A1 
 971 1e3c 325ECC81 		.ascii	"2^\314\201\320\254\340rl\221\030\212\361YIr@\017h\025"
 971      D0ACE072 
 971      6C91188A 
 971      F1594972 
 971      400F6815 
 972 1e50 CB471F05 		.ascii	"\313G\037\005\331\242\036\312d\004\267~\205\036S\004"
 972      D9A21ECA 
 972      6404B77E 
 972      851E5304 
 973 1e60 7E33FE75 		.ascii	"~3\376uV\237\016V\254v\343s\223N\364\207\026\226\241"
 973      569F0E56 
 973      AC76E373 
 973      934EF487 
 973      1696A1
 974 1e73 175F32ED 		.ascii	"\027_2\355\305\301F\354\371\225f\204\346\251\301\233"
 974      C5C146EC 
 974      F9956684 
 974      E6A9C19B 
ARM GAS  C:\Users\AMANRA~1\AppData\Local\Temp\ccKbJO0N.s 			page 79


 975 1e83 B345150E 		.ascii	"\263E\025\016h\21529Qw\326T(\350/\350\324k91\217u\346"
 975      688D3239 
 975      5177D654 
 975      28E82FE8 
 975      D46B3931 
 976 1e9a 1BF09258 		.ascii	"\033\360\222XoX\230\232\035\301\304=\361\231\310\330"
 976      6F58989A 
 976      1DC1C43D 
 976      F199C8D8 
 977 1eaa B35A748A 		.ascii	"\263Zt\212\3126\345\264\3728\240\323\204\261\355Jl\370"
 977      CA36E5B4 
 977      FA38A0D3 
 977      84B1ED4A 
 977      6CF8
 978 1ebc 94236F2B 		.ascii	"\224#o+9i\241_\226\204\230\257j\023\347\243\002\374"
 978      3969A15F 
 978      968498AF 
 978      6A13E7A3 
 978      02FC
 979 1ece 0615E28E 		.ascii	"\006\025\342\216\250h\210\035W9q\307T\360\270\011\024"
 979      A868881D 
 979      573971C7 
 979      54F0B809 
 979      14
 980 1edf 00740228 		.ascii	"\000t\002(P%\236\251\257e\331\255\261\323\340\370\250"
 980      50259EA9 
 980      AF65D9AD 
 980      B1D3E0F8 
 980      A8
 981 1ef0 FBAA9216 		.ascii	"\373\252\222\026\266\276\334\321\261\221vC\330\007~"
 981      B6BEDCD1 
 981      B1917643 
 981      D8077E
 982 1eff 2A136951 		.ascii	"*\023iQ\227i\031\334Q\000\364\362\340&\316\253\205\003"
 982      976919DC 
 982      5100F4F2 
 982      E026CEAB 
 982      8503
 983 1f11 BB6BA6D0 		.ascii	"\273k\246\320\314:\334\241Yr\012/\010\204\374U\3021"
 983      CC3ADCA1 
 983      59720A2F 
 983      0884FC55 
 983      C231
 984 1f23 58154E47 		.ascii	"X\025NGQW\024\244\022wE!*\255`\260\2157\010w\311\313"
 984      515714A4 
 984      12774521 
 984      2AAD60B0 
 984      8D370877 
 985 1f39 21E606C5 		.ascii	"!\346\006\305S\265@\204\355a\003f\013\034\2151l\246"
 985      53B54084 
 985      ED610366 
 985      0B1C8D31 
 985      6CA6
 986 1f4b 86FD440E 		.ascii	"\206\375D\016T\233{\225\357\256\321T\361\271\0105g\\"
 986      549B7B95 
 986      EFAED154 
 986      F1B90835 
ARM GAS  C:\Users\AMANRA~1\AppData\Local\Temp\ccKbJO0N.s 			page 80


 986      675C
 987 1f5d 54EF89E5 		.ascii	"T\357\211\3457X\031\2120\313(,\277\222\261\250\244\005"
 987      3758198A 
 987      30CB282C 
 987      BF92B1A8 
 987      A405
 988 1f6f B08BC3C1 		.ascii	"\260\213\303\301\305\241*\311\272w,=\000\032\2462]\367"
 988      C5A12AC9 
 988      BA772C3D 
 988      001AA632 
 988      5DF7
 989 1f81 EE5CACF0 		.ascii	"\356\\\254\360uD\235$\322\344A\025\013\267\354\371="
 989      75449D24 
 989      D2E44115 
 989      0BB7ECF9 
 989      3D
 990 1f92 79331351 		.ascii	"y3\023Q\240\326\272\211\331X\222\242\221 "
 990      A0D6BA89 
 990      D95892A2 
 990      9120
 991 1fa0 10213443 		.ascii	"\020!4C\230\212\355\277\207\257\245\335\265Ac4\274s"
 991      988AEDBF 
 991      87AFA5DD 
 991      B5416334 
 991      BC73
 992 1fb2 8ACAD210 		.ascii	"\212\312\322\020\232\240LZ\343\271eG\205\234>g\3433"
 992      9AA04C5A 
 992      E3B96547 
 992      859C3E67 
 992      E333
 993 1fc4 C370EF48 		.ascii	"\303p\357HPv\217\226\334\303\277\227tJEnF\315\346\225"
 993      50768F96 
 993      DCC3BF97 
 993      744A456E 
 993      46CDE695 
 994 1fd8 AAC84D7C 		.ascii	"\252\310M|04\206\336\354\312\277p\234\336t\321r\261"
 994      303486DE 
 994      ECCABF70 
 994      9CDE74D1 
 994      72B1
 995 1fea F45E416C 		.ascii	"\364^Ali\204\343F\321\361\330V\311\303w\274\012\237"
 995      6984E346 
 995      D1F1D856 
 995      C9C377BC 
 995      0A9F
 996 1ffc 8F8DC33F 		.ascii	"\217\215\303?"
 997 2000 0447D6BC 		.ascii	"\004G\326\274\307\033\252\244\313\015*\361y\333\004"
 997      C71BAAA4 
 997      CB0D2AF1 
 997      79DB04
 998 200f 9571D0CA 		.ascii	"\225q\320\312\364)\326\240\347/\213\3724\0053\332R\267"
 998      F429D6A0 
 998      E72F8BFA 
 998      340533DA 
 998      52B7
 999 2021 6A436E9E 		.ascii	"jCn\236\204If\022\275y\277!\360\221\206G\235L\357\235"
 999      84496612 
ARM GAS  C:\Users\AMANRA~1\AppData\Local\Temp\ccKbJO0N.s 			page 81


 999      BD79BF21 
 999      F0918647 
 999      9D4CEF9D 
 1000 2035 CB2B2A7C 		.ascii	"\313+*|\001\352\024\202\372\014\217z\306\267)\\!F\235"
 1000      01EA1482 
 1000      FA0C8F7A 
 1000      C6B7295C 
 1000      21469D
 1001 2048 22419D6A 		.ascii	"\"A\235jD\035gxX\357\210\226\254\243n\310:\373L\313"
 1001      441D6778 
 1001      58EF8896 
 1001      ACA36EC8 
 1001      3AFB4CCB 
 1002 205c 63394BB1 		.ascii	"c9K\261$-\0367(\304X\360{\011\002\226\363\004\3139\036"
 1002      242D1E37 
 1002      28C458F0 
 1002      7B090296 
 1002      F304CB39 
 1003 2071 4BE86CFC 		.ascii	"K\350l\374y\3112\323y\011\226\013F,\0111\307\212\024"
 1003      79C932D3 
 1003      7909960B 
 1003      462C0931 
 1003      C78A14
 1004 2084 C8F06DAB 		.ascii	"\310\360m\253X\356'\026x\223[x\024\277H\261\004u?\371"
 1004      58EE2716 
 1004      78935B78 
 1004      14BF48B1 
 1004      04753FF9 
 1005 2098 210F2F83 		.ascii	"!\017/\203\336\032Xl\365\347\254\303\313\"\3602yx\231"
 1005      DE1A586C 
 1005      F5E7ACC3 
 1005      CB22F032 
 1005      797899
 1006 20ab F3672624 		.ascii	"\363g&$\015\234%\201w\311\010\357rwJ\220=:B\341]\312"
 1006      0D9C2581 
 1006      77C908EF 
 1006      72774A90 
 1006      3D3A42E1 
 1007 20c1 5CCAB6E5 		.ascii	"\\\312\266\345\355Rt\203\206\201,\007\353fs\210\331"
 1007      ED527483 
 1007      86812C07 
 1007      EB667388 
 1007      D9
 1008 20d2 6CDE6C46 		.ascii	"l\336lFh\306w\304Vs$V\257\030\255\256M>\353\321\242"
 1008      68C677C4 
 1008      56732456 
 1008      AF18ADAE 
 1008      4D3EEBD1 
 1009 20e7 606AF55A 		.ascii	"`j\365Zo\313y;\243\007\250\331\333GCv\361@\256Q\007"
 1009      6FCB793B 
 1009      A307A8D9 
 1009      DB474376 
 1009      F140AE51 
 1010 20fc 2CB68DFA 		.ascii	",\266\215\372j\254#\271N\220\344\362H\346\036\334l\226"
 1010      6AAC23B9 
 1010      4E90E4F2 
 1010      48E61EDC 
ARM GAS  C:\Users\AMANRA~1\AppData\Local\Temp\ccKbJO0N.s 			page 82


 1010      6C96
 1011 210e B4CF7509 		.ascii	"\264\317u\011\224<#\224\211\200\202n\007t\234BIxt\374"
 1011      943C2394 
 1011      8980826E 
 1011      07749C42 
 1011      497874FC 
 1012 2122 84D218CD 		.ascii	"\204\322\030\315\024JQK\316\240\322\230\202\371\024"
 1012      144A514B 
 1012      CEA0D298 
 1012      82F914
 1013 2131 CC4AF1AD 		.ascii	"\314J\361\255L\304\003,\240\367&\256\371\006\313\255"
 1013      4CC4032C 
 1013      A0F726AE 
 1013      F906CBAD 
 1014 2141 07731101 		.ascii	"\007s\021\001X\310\003,\316M\357\225\254\177\025I\000"
 1014      58C8032C 
 1014      CE4DEF95 
 1014      AC7F1549 
 1014      00
 1015 2152 DE3402BC 		.ascii	"\3364\002\2747\234?k\207\"\254\003\354\212\034(\264"
 1015      379C3F6B 
 1015      8722AC03 
 1015      EC8A1C28 
 1015      B4
 1016 2163 33665B09 		.ascii	"3f[\011\005s\374\271\241\311\221\007XJ\357\245w\207"
 1016      0573FCB9 
 1016      A1C99107 
 1016      584AEFA5 
 1016      7787
 1017 2175 9E7841B6 		.ascii	"\236xA\266\225\021\200\267x\200\027\316\256dI&\266e"
 1017      951180B7 
 1017      788017CE 
 1017      AE644926 
 1017      B665
 1018 2187 1280E546 		.ascii	"\022\200\345F\200\227ZFf\344(\206\002LM\237\236\262"
 1018      80975A46 
 1018      66E42886 
 1018      024C4D9F 
 1018      9EB2
 1019 2199 43172853 		.ascii	"C\027(S\232q\371\242#\272a5\270\372\317\017\036\"w>"
 1019      9A71F9A2 
 1019      23BA6135 
 1019      B8FACF0F 
 1019      1E22773E 
 1020 21ad B6E5AA58 		.ascii	"\266\345\252X\230\207\\\030\265\341\245\252\351\275"
 1020      98875C18 
 1020      B5E1A5AA 
 1020      E9BD
 1021 21bb F8A2FA31 		.ascii	"\370\242\3721d\275\345k\011\356\032\036w@K\363\003\211"
 1021      64BDE56B 
 1021      09EE1A1E 
 1021      77404BF3 
 1021      0389
 1022 21cd 636B25B8 		.ascii	"ck%\270\353x\334\332\264\334\261Q\304\216\301\362\313"
 1022      EB78DCDA 
 1022      B4DCB151 
 1022      C48EC1F2 
ARM GAS  C:\Users\AMANRA~1\AppData\Local\Temp\ccKbJO0N.s 			page 83


 1022      CB
 1023 21de 3F78505A 		.ascii	"?xPZ\012\261\033\245\357S@\224pW\241co\2666\242\321"
 1023      0AB11BA5 
 1023      EF534094 
 1023      7057A163 
 1023      6FB636A2 
 1024 21f3 02CD1C8C 		.ascii	"\002\315\034\214`\340\017\256\330T\326l\347\202\210"
 1024      60E00FAE 
 1024      D854D66C 
 1024      E78288
 1025 2202 62B7DFB6 		.ascii	"b\267\337\266(\272\325D\022:b\356\244\251\244\2657:"
 1025      28BAD544 
 1025      123A62EE 
 1025      A4A9A4B5 
 1025      373A
 1026 2214 8CEB0615 		.ascii	"\214\353\006\025\254\004\231z\303\240\325\010\323\215"
 1026      AC04997A 
 1026      C3A0D508 
 1026      D38D
 1027 2222 06A0BB40 		.ascii	"\006\240\273@\365@w\200\356\001\265\001\335\007j\002"
 1027      F5407780 
 1027      EE01B501 
 1027      DD076A02 
 1028 2232 6A914C47 		.ascii	"j\221LG\210qHW\356\262\251q\263\027\027\210(8\225\253"
 1028      88714857 
 1028      EEB2A971 
 1028      B3171788 
 1028      283895AB 
 1029 2246 B48C533C 		.ascii	"\264\214S<m\251<M7J\232-\316#N\253\350\214\004B\237"
 1029      6DA93C4D 
 1029      374A9A2D 
 1029      CE234EAB 
 1029      E88C0442 
 1030 225b BB61D9EB 		.ascii	"\273a\331\353\246v\241\037\343\322-C4\363:t\311\\\232"
 1030      A676A11F 
 1030      E3D22D43 
 1030      34F33A74 
 1030      C95C9A
 1031 226e A9ACD94B 		.ascii	"\251\254\331K\036D\024F\022.\321\262\250\361\301s\250"
 1031      1E441446 
 1031      122ED1B2 
 1031      A8F1C173 
 1031      A8
 1032 227f FFF4711B 		.ascii	"\377\364q\033\351f\266\245\006\220}#\357\343\236\345"
 1032      E966B6A5 
 1032      06907D23 
 1032      EFE39EE5 
 1033 228f DA9524C9 		.ascii	"\332\225$\311\252\315\003\311$\256\335\230vu\011\217"
 1033      AACD03C9 
 1033      24AEDD98 
 1033      7675098F 
 1034 229f 1734A888 		.ascii	"\0274\250\210&\027\377\373y\353\331\357\347\255\264"
 1034      2617FFFB 
 1034      79EBD9EF 
 1034      E7ADB4
 1035 22ae 3DBECDB1 		.ascii	"=\276\315\261\337\323\303\277\0059>\352\233\347\200"
 1035      DFD3C3BF 
ARM GAS  C:\Users\AMANRA~1\AppData\Local\Temp\ccKbJO0N.s 			page 84


 1035      05393EEA 
 1035      9BE780
 1036 22bd 6AAC6662 		.ascii	"j\254fbr\\H\266\375Fko\327\364\222\014\353\3413,\331"
 1036      725C48B6 
 1036      FD466B6F 
 1036      D7F4920C 
 1036      EBE1332C 
 1037 22d2 27A45529 		.ascii	"'\244U)\206\330+\311\260>\025\277\260\204{\221\305{"
 1037      86D82BC9 
 1037      B03E15BF 
 1037      B0847B91 
 1037      C57B
 1038 22e4 3E0AD44C 		.ascii	">\012\324L\014\313\323\317\314=WqNZv\304\252\323\356"
 1038      0CCBD3CF 
 1038      CC3D5771 
 1038      4E5A76C4 
 1038      AAD3EE
 1039 22f7 6830592B 		.ascii	"h0Y+z\010%\372\205\011T\037\251\243\025\375\334\000"
 1039      7A0825FA 
 1039      8509541F 
 1039      A9A315FD 
 1039      DC00
 1040 2309 44B4C4C4 		.ascii	"D\264\304\304\334\371\334\0009J\244?!z$/t\015\2413\224"
 1040      DCF9DC00 
 1040      394AA43F 
 1040      217A242F 
 1040      740DA133 
 1041 231e B919DDB1 		.ascii	"\271\031\335\261\244@g)\323\372lz\031\241t\302h\332"
 1041      A4406729 
 1041      D3FA6C7A 
 1041      19A174C2 
 1041      68DA
 1042 2330 8F9FE893 		.ascii	"\217\237\350\223s\302\252\017\231\203\327\263]E\014"
 1042      73C2AA0F 
 1042      9983D7B3 
 1042      5D450C
 1043 233f A71BE08C 		.ascii	"\247\033\340\214ZK{\2133~\031\221\30797\016\010'\241"
 1043      5A4B7B8B 
 1043      337E1991 
 1043      C739370E 
 1043      0827A1
 1044 2352 559F004D 		.ascii	"U\237\000M\000=\006\032\001\032\223\344X\355\007\306"
 1044      003D061A 
 1044      011A93E4 
 1044      58ED07C6 
 1045 2362 5F19C0AF 		.ascii	"_\031\300\257\334\215\2760\313j\337\027v\015\0361h\306"
 1045      DC8DBE30 
 1045      CB6ADF17 
 1045      760D1E31 
 1045      68C6
 1046 2374 5D03B3DC 		.ascii	"]\003\263\334\250\375'Az\310T\332\354a\242\262\226\256"
 1046      A8FD2741 
 1046      7AC854DA 
 1046      EC61A2B2 
 1046      96AE
 1047 2386 C38E5ACA 		.ascii	"\303\216Z\312\312\211:\266\025\212u\015Z\324\025\247"
 1047      CA893AB6 
ARM GAS  C:\Users\AMANRA~1\AppData\Local\Temp\ccKbJO0N.s 			page 85


 1047      158A750D 
 1047      5AD415A7 
 1048 2396 142C0FFC 		.ascii	"\024,\017\374Oa7r\330\324\205\222\237\305\250\037\315"
 1048      4F613772 
 1048      D8D48592 
 1048      9FC5A81F 
 1048      CD
 1049 23a7 9BB44797 		.ascii	"\233\264G\227Is\310c\202ROq\302\341\223\0062\255\236"
 1049      4973C863 
 1049      82524F71 
 1049      C2E19306 
 1049      32AD9E
 1050 23ba 86B25342 		.ascii	"\206\262SBT\214\252\314\026\033\214\017[O\301\343/\353"
 1050      548CAACC 
 1050      161B8C0F 
 1050      5B4FC1E3 
 1050      2FEB
 1051 23cc 7D3CE56A 		.ascii	"}<\345j\273\226n'\315]K\252d_\247\247\254 \347\272\344"
 1051      BB966E27 
 1051      CD5D4BAA 
 1051      645FA7A7 
 1051      AC20E7BA 
 1052 23e1 25926792 		.ascii	"%\222g\222\\}n\034j\252\006S2\245'\007$\365\350\002"
 1052      5C7D6E1C 
 1052      6AAA0653 
 1052      32A52707 
 1052      24F5E802 
 1053 23f5 E39DD878 		.ascii	"\343\235\330x\007Tw\206\325c\015\200,\200\275E\240%"
 1053      07547786 
 1053      D5630D80 
 1053      2C80BD45 
 1053      A025
 1054 2407 A065A015 		.ascii	"\240e\240\025 \203\372\015n\036>W\201f\201\346$Q\005"
 1054      2083FA0D 
 1054      6E1E3E57 
 1054      816681E6 
 1054      245105
 1055 241a 83D7AA5F 		.ascii	"\203\327\252_\200!\373\217d2\325\250\244\372\370sJJ"
 1055      8021FB8F 
 1055      6432D5A8 
 1055      A4FAF873 
 1055      4A4A
 1056 242c 4BBD1DC0 		.ascii	"K\275\035\300${\3563\222pWJ:Qh\025M\314\026\274\264"
 1056      247BEE33 
 1056      9270574A 
 1056      3A516815 
 1056      4DCC16BC 
 1057 2441 C43D623A 		.ascii	"\304=b:\215{\322\327\314~ig\"i}\032\311$\350\255\270"
 1057      8D7BD2D7 
 1057      CC7E6967 
 1057      22697D1A 
 1057      C924E8AD 
 1058 2456 6895896A 		.ascii	"h\225\211j\263\315\250$\326\361\343\347\250\005\245"
 1058      B3CDA824 
 1058      D6F1E3E7 
 1058      A805A5
 1059 2465 2569B1F2 		.ascii	"%i\261\362R\016\200\340U\021|\266A\\9\316D\257\006\000"
ARM GAS  C:\Users\AMANRA~1\AppData\Local\Temp\ccKbJO0N.s 			page 86


 1059      520E80E0 
 1059      55117CB6 
 1059      415C39CE 
 1059      44AF0600 
 1060 2479 E005AB31 		.ascii	"\340\005\2531\246\322\2704e2\2023Q\374\202\330\250\251"
 1060      A6D2B834 
 1060      65328233 
 1060      51FC82D8 
 1060      A8A9
 1061 248b A8D94105 		.ascii	"\250\331A\005\342\261\2070\317j6\005\332\2444M\254\036"
 1061      E2B18730 
 1061      CF6A3605 
 1061      DAA4344D 
 1061      AC1E
 1062 249d F6A30033 		.ascii	"\366\243\0003f\211Ek\355CNS`\237\216\230\372T\374\353"
 1062      6689456B 
 1062      ED434E53 
 1062      609F8E98 
 1062      FA54FCEB 
 1063 24b1 45F845AE 		.ascii	"E\370E\256SkO\205\303Y\215\011\257\221\205M_\365+$b"
 1063      536B4F85 
 1063      C3598D09 
 1063      AF91854D 
 1063      5FF52B24 
 1064 24c6 5882CC98 		.ascii	"X\202\314\230'\2101\260|\324N\177v`A\240W\014\217\017"
 1064      278831B0 
 1064      7CD44E7F 
 1064      766041A0 
 1064      570C8F0F 
 1065 24da 48E682D8 		.ascii	"H\346\202\330\264\020\350~j\272Y\013\237\370Q\364\326"
 1065      B410E87E 
 1065      6ABA590B 
 1065      9FF851F4 
 1065      D6
 1066 24eb CD12BB5E 		.ascii	"\315\022\273^\256\233\303#\314:\242\202\343\350\277"
 1066      AE9BC323 
 1066      CC3AA282 
 1066      E3E8BF
 1067 24fa F08989F0 		.ascii	"\360\211\211\360k\374\037\216\336\207\273r\372\301D"
 1067      6BFC1F8E 
 1067      DE87BB72 
 1067      FAC144
 1068 2509 31C317E1 		.ascii	"1\303\027\341\214w\344L\207\234\327K\3762\005\234X+"
 1068      8C77E44C 
 1068      879CD74B 
 1068      FE32059C 
 1068      582B
 1069 251b FD9E9AE3 		.ascii	"\375\236\232\343\377\310\250<\305#\224\243\267\344\202"
 1069      FFC8A83C 
 1069      C52394A3 
 1069      B7E482
 1070 252a 31511133 		.ascii	"1Q\0213\2542\343\327FPB%9\346\261\256\313S\325\312>"
 1070      AC32E3D7 
 1070      46504225 
 1070      39E6B1AE 
 1070      CB53D5CA 
 1071 253f AE07BEFD 		.ascii	"\256\007\276\375\330A\026\2469@\367%\253\012\372\035"
ARM GAS  C:\Users\AMANRA~1\AppData\Local\Temp\ccKbJO0N.s 			page 87


 1071      D84116A6 
 1071      3940F725 
 1071      AB0AFA1D 
 1072 254f 50111D90 		.ascii	"P\021\035\220\306R\374\207\350c<\376\311l:\016\027\326"
 1072      C652FC87 
 1072      E8633CFE 
 1072      C96C3A0E 
 1072      17D6
 1073 2561 AC56DA58 		.ascii	"\254V\332X\035\207\203\324x\034\016T\263q\270&-\272"
 1073      1D8783D4 
 1073      781C0E54 
 1073      B371B826 
 1073      2DBA
 1074 2573 8DFB7EB2 		.ascii	"\215\373~\262\241\264\317P:<o\327Y0b0\330*\260\024\027"
 1074      A1B4CF50 
 1074      3A3C6FD7 
 1074      59306230 
 1074      D82AB014 
 1075 2588 A0368605 		.ascii	"\2406\206\005\\\342\265!u\037\307\371\253{\001O\260"
 1075      5CE2B521 
 1075      751FC7F9 
 1075      AB7B014F 
 1075      B0
 1076 2599 FAFB50F8 		.ascii	"\372\373P\370ai\177\277\026\325S(\231\307\326\242\224"
 1076      61697FBF 
 1076      16D55328 
 1076      99C7D6A2 
 1076      94
 1077 25aa 56CD8610 		.ascii	"V\315\206\020\263\036\314j\305j\330\222\226Y\235>\207"
 1077      B31ECC6A 
 1077      C56AD892 
 1077      96599D3E 
 1077      87
 1078 25bb 7CA3A0D0 		.ascii	"|\243\240\320F,\303\035\025\214\03655z\214\030m\351"
 1078      462CC31D 
 1078      158C1E35 
 1078      357A8C18 
 1078      6DE9
 1079 25cd F1A944A8 		.ascii	"\361\251D\250\203\032\355\237\316\253\242\3172\370u"
 1079      831AED9F 
 1079      CEABA2CF 
 1079      32F875
 1080 25dc 415AFFC0 		.ascii	"AZ\377\300\354\3014\353@B\011\220\023|\375\037d\225"
 1080      ECC134EB 
 1080      40420990 
 1080      137CFD1F 
 1080      6495
 1081 25ee 9DB26148 		.ascii	"\235\262aH\232\271\013P\344u,\302\035\027p\0347\305"
 1081      9AB90B50 
 1081      E4752CC2 
 1081      1D17701C 
 1081      37C5
 1082 2600 114670C4 		.ascii	"\021Fp\304\326\327E\"\324o\245\362\277\027?]DH*_\276"
 1082      D6D74522 
 1082      D46FA5F2 
 1082      BF173F5D 
 1082      44482A5F 
ARM GAS  C:\Users\AMANRA~1\AppData\Local\Temp\ccKbJO0N.s 			page 88


 1083 2615 78C5DF0E 		.ascii	"x\305\337\016L&\367\303\270\231\200\367\005}\015x\235"
 1083      4C26F7C3 
 1083      B89980F7 
 1083      057D0D78 
 1083      9D
 1084 2626 14A4B870 		.ascii	"\024\244\270p\301l\270\251\331Hb\366FGS\266#\032\372"
 1084      C16CB8A9 
 1084      D94862F6 
 1084      464753B6 
 1084      231AFA
 1085 2639 CE4BAEA6 		.ascii	"\316K\256\246D\253-\254\246\234\2447\247\346\213\007"
 1085      44AB2DAC 
 1085      A69CA437 
 1085      A7E68B07 
 1086 2649 D5E4E603 		.ascii	"\325\344\346\003\244\345N\321\233\025u\015\031j\353"
 1086      A4E54ED1 
 1086      9B15750D 
 1086      196AEB
 1087 2658 0F78B1A4 		.ascii	"\017x\261\244*1\306\360Y\2709\351\010u\351\243K\374"
 1087      2A31C6F0 
 1087      59B839E9 
 1087      0875E9A3 
 1087      4BFC
 1088 266a 417501C7 		.ascii	"Au\001\307\015g8\"\306E\011u\211R\3233p\\\034u]o\323"
 1088      0D673822 
 1088      C6450975 
 1088      8952D333 
 1088      705C1C75 
 1089 2681 252D9AB1 		.ascii	"%-\232\261^\007\311zF\002\0056\377\340l\206\203\021"
 1089      5E07C97A 
 1089      46020536 
 1089      FFE06C86 
 1089      8311
 1090 2693 6D22ABD7 		.ascii	"m\"\253\327\345\262\312\027\254h$\021\264\247y\264a"
 1090      E5B2CA17 
 1090      AC682411 
 1090      B4A779B4 
 1090      61
 1091 26a4 E163E52A 		.ascii	"\341c\345*\206v\242i\375\031\277d',\302\305\013H\343"
 1091      8676A269 
 1091      FD19BF64 
 1091      272CC2C5 
 1091      0B48E3
 1092 26b7 79A4C904 		.ascii	"y\244\311\004i\\Xp\265\003\362\335h\025i\177o\364\021"
 1092      695C5870 
 1092      B503F2DD 
 1092      6815697F 
 1092      6FF411
 1093 26ca B9D5604B 		.ascii	"\271\325`K%\366Sx\373\327\036\334\316\3260\373\223\301"
 1093      25F65378 
 1093      FBD71EDC 
 1093      CED630FB 
 1093      93C1
 1094 26dc F62B81CC 		.ascii	"\366+\201\314[ \306\235\0210\234\3411\244\021\014])"
 1094      5B20C69D 
 1094      11309CE1 
 1094      31A4110C 
ARM GAS  C:\Users\AMANRA~1\AppData\Local\Temp\ccKbJO0N.s 			page 89


 1094      5D29
 1095 26ee E91714A8 		.ascii	"\351\027\024\250\200b\270\334\236\021D\003>J\311'|\364"
 1095      8062B8DC 
 1095      9E114403 
 1095      3E4AC927 
 1095      7CF4
 1096 2700 C3E83B12 		.ascii	"\303\350;\022'\340\243x\242U'\002\342\034\017\242+\260"
 1096      27E0A378 
 1096      A2552702 
 1096      E21C0FA2 
 1096      2BB0
 1097 2712 EAAE9C81 		.ascii	"\352\256\234\201\250\212\263I\257\010\244 @\214;+\200"
 1097      A88AB349 
 1097      AF08A420 
 1097      408C3B2B 
 1097      80
 1098 2723 38CB83B8 		.ascii	"8\313\203\270@@\244\257=\357\263EU\326A\334L\034\373"
 1098      4040A4AF 
 1098      3DEFB345 
 1098      55D641DC 
 1098      4C1CFB
 1099 2736 1BAB7EC8 		.ascii	"\033\253~\310 \020.\362\0202:\362gy?Ld\254#\355\000"
 1099      20102EF2 
 1099      10323AF2 
 1099      67793F4C 
 1099      64AC23ED 
 1100 274b 225CBA60 		.ascii	"\"\\\272`>\2357\237I\314\037\351(\256\223\243{\326\333"
 1100      3E9D379F 
 1100      49CC1FE9 
 1100      28AE93A3 
 1100      7BD6DB
 1101 275e 411AF597 		.ascii	"A\032\365\227\324\026V>/\323\23391\247B\345F\311lz3"
 1101      D416563E 
 1101      2FD39B39 
 1101      31A742E5 
 1101      46C96C7A 
 1102 2773 73E0F83D 		.ascii	"s\340\370=\2051?r\350\315j\277\0237\355\311M|\206\357"
 1102      85313F72 
 1102      E8CD6ABF 
 1102      1337EDC9 
 1102      4D7C86EF 
 1103 2787 0ABD3972 		.ascii	"\012\2759r\362V\277\203\261\356W\351\315\332\260\366"
 1103      F256BF83 
 1103      B1EE57E9 
 1103      CDDAB0F6 
 1104 2797 7E95F530 		.ascii	"~\225\3650\314%\325\277\306W\277p\250z\316\201U\277"
 1104      CC25D5BF 
 1104      C657BF70 
 1104      A87ACE81 
 1104      55BF
 1105 27a9 ED220D43 		.ascii	"\355\"\015C\020\341\262\204\352g\361\325\277N\252\037"
 1105      10E1B284 
 1105      EA67F1D5 
 1105      BF4EAA1F 
 1106 27b9 9399F5C8 		.ascii	"\223\231\365\310\026M\320\352_X\354\014\342\033pH\344"
 1106      164DD0EA 
 1106      5F58EC0C 
ARM GAS  C:\Users\AMANRA~1\AppData\Local\Temp\ccKbJO0N.s 			page 90


 1106      E21B7048 
 1106      E4
 1107 27ca BD3CA178 		.ascii	"\275<\241x\036_"
 1107      1E5F
 1108 27d0 FC06293E 		.ascii	"\374\006)>~\326/\322\021-\323\342y\325%A\364\311\255"
 1108      7ED62FD2 
 1108      112DD3E2 
 1108      79D52541 
 1108      F4C9AD
 1109 27e3 CEE83DFF 		.ascii	"\316\350=\377\333\263\341\366(\342U2\221\036Z\360\277"
 1109      DBB3E1F6 
 1109      28E25532 
 1109      911E5AF0 
 1109      BF
 1110 27f4 66676DBF 		.ascii	"fgm\277\347\246\372\005\333\366G\351\266}\221\332\226"
 1110      E7A6FA05 
 1110      DBF647E9 
 1110      B67D91DA 
 1110      96
 1111 2805 2B549B6F 		.ascii	"+T\233o\370\254\305\236He\203\025H\024P\327\345\005"
 1111      F8ACC59E 
 1111      48658315 
 1111      481450D7 
 1111      E505
 1112 2817 C70CDBA3 		.ascii	"\307\014\333\243$j\372\301H\361\270Z\372\023\267\342"
 1112      246AFAC1 
 1112      48F1B85A 
 1112      FA13B7E2 
 1113 2827 0307DC2D 		.ascii	"\003\007\334-\260.\2349`3\231\302ud&S\252\326r%\202"
 1113      B02E9C39 
 1113      603399C2 
 1113      75642653 
 1113      AAD67225 
 1114 283c D51A25FB 		.ascii	"\325\032%\373\225\333\372\216\312,Z_,QL\255\372\214"
 1114      95DBFA8E 
 1114      CA2C5A5F 
 1114      2C514CAD 
 1114      FA8C
 1115 284e 2C3E5659 		.ascii	",>VY\015\327r\322^e|{\235\212^\310R2\207\367\254R\207"
 1115      0DD772D2 
 1115      5E657C7B 
 1115      9D8A5EC8 
 1115      523287F7 
 1116 2865 8308972F 		.ascii	"\203\010\227/X\313\347\035~\2338|\265'\342\244\035\272"
 1116      58CBE71D 
 1116      7E9B387C 
 1116      B527E2A4 
 1116      1DBA
 1117 2877 F82A7DC5 		.ascii	"\370*}\305\363Ve9\355{\361,\231:\274#i8\224F\021\314"
 1117      F3566539 
 1117      ED7BF12C 
 1117      993ABC23 
 1117      69389446 
 1118 288d 77B84A06 		.ascii	"w\270J\006*3?\316\321*\250j\002\252\212\007U\024u\322"
 1118      2A333FCE 
 1118      D12AA86A 
 1118      02AA8A07 
ARM GAS  C:\Users\AMANRA~1\AppData\Local\Temp\ccKbJO0N.s 			page 91


 1118      551475D2 
 1119 28a1 080A26EC 		.ascii	"\010\012&\354\3555\001\245\037\021!\256B\200U\301\303"
 1119      ED3501A5 
 1119      1F1121AE 
 1119      428055C1 
 1119      C3
 1120 28b2 AA21B066 		.ascii	"\252!\260f\207'?FW(\252\364\250\321\030\332\371\343"
 1120      87273F46 
 1120      5728AAF4 
 1120      A8D118DA 
 1120      F9E3
 1121 28c4 F3B214D5 		.ascii	"\363\262\024\325\225\\z\266\235\306v\035E\0253\223\322"
 1121      955C7AB6 
 1121      9DC6761D 
 1121      45153393 
 1121      D2
 1122 28d5 A4B18AAA 		.ascii	"\244\261\212\252\201\240\252\347Q\335\314[\273\213\030"
 1122      81A0AAE7 
 1122      51DDCC5B 
 1122      BB8B18
 1123 28e4 AAF2389B 		.ascii	"\252\3628\233\323\025\004\025\010q\265\002\252Z\036"
 1123      D3150415 
 1123      0871B502 
 1123      AA5A1E
 1124 28f3 55234175 		.ascii	"U#Au\363yE\205\026\025\276\372\022\263\210f\311@\032"
 1124      F3794585 
 1124      1615BEFA 
 1124      12B38866 
 1124      C9401A
 1125 2906 BEB2BCC0 		.ascii	"\276\262\274\300\347\321\343\033\3667\251\013@\206k"
 1125      E7D1E31B 
 1125      F637A90B 
 1125      40866B
 1126 2915 128C35F1 		.ascii	"\022\2145\361\306\356\020cSW\015\003\220I\324X\322P"
 1126      C6EE1063 
 1126      53570D03 
 1126      9049D458 
 1126      D250
 1127 2927 6BAE1D53 		.ascii	"k\256\035S\360\254\330>DP\320\"(h\341\025\264\022\005"
 1127      F0ACD83E 
 1127      4450D022 
 1127      2868E115 
 1127      B41205
 1128 293a 19952530 		.ascii	"\031\225%0\375:\375\032Q\3208\337\276\365\257RI\371"
 1128      FD3AFD1A 
 1128      51D038DF 
 1128      BEF5AF52 
 1128      49F9
 1129 294c FB9D7697 		.ascii	"\373\235v\2272\352\014\2063r2\261\275K\025\030g\317"
 1129      32EA0C86 
 1129      337232B1 
 1129      BD4B1518 
 1129      67CF
 1130 295e 327C07FE 		.ascii	"2|\007\376\275\247\376+\334\007E?\271\254A)T\211\177"
 1130      BDA7FE2B 
 1130      DC07453F 
 1130      B9AC4129 
ARM GAS  C:\Users\AMANRA~1\AppData\Local\Temp\ccKbJO0N.s 			page 92


 1130      54897F
 1131 2971 434C2962 		.ascii	"CL)bZ\206K\324+M\265D\013>\320\332\306\264\360\247g"
 1131      5A864BD4 
 1131      2B4DB544 
 1131      0B3ED0DA 
 1131      C6B4F0A7 
 1132 2986 65F80EFC 		.ascii	"e\370\016\374{\237hi*;Y\352\200.P-\013\203\243\3656"
 1132      7B9F6869 
 1132      2A3B59EA 
 1132      802E502D 
 1132      0B83A3F5 
 1133 299b 584B2999 		.ascii	"XK)\231\310]J\2554\030\222\345\344\014\350\003\246E"
 1133      C85D4AAD 
 1133      341892E5 
 1133      E40CE803 
 1133      A645
 1134 29ad 3839FA80 		.ascii	"89\372\200hi'Z\306Ov\221#\250x\250\305gP\243R\246\347"
 1134      6869275A 
 1134      C64F7691 
 1134      23A878A8 
 1134      C56750A3 
 1135 29c4 E5E832D5 		.ascii	"\345\3502\325z\345\204\357\224\026k-\303g\324b\014\354"
 1135      7AE584EF 
 1135      94166B2D 
 1135      C367D462 
 1135      0CEC
 1136 29d6 DDCD4EA6 		.ascii	"\335\315N\246\221\337\353\306|\207\032\277\021CT6\236"
 1136      91DFEBC6 
 1136      7C871ABF 
 1136      11435436 
 1136      9E
 1137 29e7 E85E5131 		.ascii	"\350^Q1,\035\337\205G\024\0059\2319D\2373D\355\211\357"
 1137      2C1DDF85 
 1137      47140539 
 1137      9939449F 
 1137      3344ED89 
 1138 29fc FC410E3D 		.ascii	"\374A\016=\011)\326?\030\362\000\241|j\271\365\344\275"
 1138      0929D63F 
 1138      18F200A1 
 1138      7C6AB9F5 
 1138      E4BD
 1139 2a0e 7A2DD3D1 		.ascii	"z-\323\321\"\350\350Q\233\352\300w\260\216^\242\243"
 1139      22E8E851 
 1139      9BEAC077 
 1139      B08E5EA2 
 1139      A3
 1140 2a1f DED07B41 		.ascii	"\336\320{A\205\312\250\216\276\211\207=\366\240\243"
 1140      85CAA88E 
 1140      BE89873D 
 1140      F6A0A3
 1141 2a2e 1974ACC6 		.ascii	"\031t\254\306\256\2134\030\350;\037}L\211\360\012L\037"
 1141      AE8B3418 
 1141      E83B1F7D 
 1141      4C89F00A 
 1141      4C1F
 1142 2a40 53D24F94 		.ascii	"S\322O\224\224\316%\036\014\241'\332\311:x\310\330\""
 1142      94CE251E 
ARM GAS  C:\Users\AMANRA~1\AppData\Local\Temp\ccKbJO0N.s 			page 93


 1142      0CA127DA 
 1142      C93A78C8 
 1142      D822
 1143 2a52 76AD019C 		.ascii	"v\255\001\2340tU\031\207\261\360\247\335\261\032\341"
 1143      30745519 
 1143      87B1F0A7 
 1143      DDB11AE1 
 1144 2a62 2106DF19 		.ascii	"!\006\337\031\300~xH\364\214F\314\365)P\015\005\343"
 1144      C07E7848 
 1144      F48C46CC 
 1144      F529500D 
 1144      05E3
 1145 2a74 1B77E694 		.ascii	"\033w\346\224\022\264$\203\226\325\270\015\341~\006"
 1145      12B42483 
 1145      96D5B80D 
 1145      E17E06
 1146 2a83 27BA1463 		.ascii	"'\272\024cV\243G\244u\006\211\212\016\377\350Z{\324"
 1146      56A347A4 
 1146      7506898A 
 1146      0EFFE85A 
 1146      7BD4
 1147 2a95 4C551CEB 		.ascii	"LU\034\353YnS0\025w#\220a\003]\2351S0D\024\014\023\005"
 1147      596E5330 
 1147      15772390 
 1147      61035D9D 
 1147      31533044 
 1148 2aad 31937119 		.ascii	"1\223q\031Jt\237*x\222z>K\316+\210\344\025\214\230)"
 1148      4A749F2A 
 1148      78927A3E 
 1148      4BCE2B88 
 1148      E4158C98 
 1149 2ac2 18210A46 		.ascii	"\030!\012F\211\202#\301\375\031\366\250\207*\2700\263"
 1149      898223C1 
 1149      FD19F6A8 
 1149      872AB830 
 1149      B3
 1150 2ad3 508C5D91 		.ascii	"P\214]\221\\\212\017\027\274V\026\000\036\375\300\216"
 1150      5C8A0F17 
 1150      BC561600 
 1150      1EFDC08E 
 1151 2ae3 1B539B7A 		.ascii	"\033S\233zb\214hxL4\334\313\233\361\327\242q\252a6\272"
 1151      628C6878 
 1151      4C34DCCB 
 1151      9BF1D7A2 
 1151      71AA6136 
 1152 2af8 72DE9E69 		.ascii	"r\336\236i(\3721D(\024\177bV\374\011)>N\212g\314V\025"
 1152      28FA3144 
 1152      28147F62 
 1152      56FC0929 
 1152      3E4E8A67 
 1153 2b0f 71689116 		.ascii	"qh\221\026/\236\272\371P\303\212O\304\255\017\307M\212"
 1153      2F9EBAF9 
 1153      50C38A4F 
 1153      C4AD0FC7 
 1153      4D8A
 1154 2b21 E362C2AC 		.ascii	"\343b\302\254\016\023\254I'i\223.\373\315J\366\375\360"
 1154      0E13AC49 
ARM GAS  C:\Users\AMANRA~1\AppData\Local\Temp\ccKbJO0N.s 			page 94


 1154      2769932E 
 1154      FBCD4AF6 
 1154      FDF0
 1155 2b33 BC4FB037 		.ascii	"\274O\2607\305\236>\247\310\323geYg\240F,\034+\021~"
 1155      C59E3EA7 
 1155      C8D36765 
 1155      5967A046 
 1155      2C1C2B11 
 1156 2b48 CA849F12 		.ascii	"\312\204\237\022a_\277;W\034L\177\254E8I3\255\026N\322"
 1156      615FBF3B 
 1156      571C4C7F 
 1156      AC453849 
 1156      33AD164E 
 1157 2b5d 6006773B 		.ascii	"`\006w;\313K\261\222%\237\020\211\372gL\3753\242\276"
 1157      CB4BB192 
 1157      259F1089 
 1157      FA674CFD 
 1157      33A2BE
 1158 2b70 BEAEF6B9 		.ascii	"\276\256\366\271\344\007\356A\207x}\210\011?\307\302"
 1158      E407EE41 
 1158      87787D88 
 1158      093FC7C2 
 1159 2b80 A8ED7CF1 		.ascii	"\250\355|\361\022\342l\351\013,\226~+\005\236\360\325"
 1159      12E26CE9 
 1159      0B2C967E 
 1159      2B059EF0 
 1159      D5
 1160 2b91 F820D09C 		.ascii	"\370 \320\234z\0237\253\336\304\376\017\247\26555\271"
 1160      7A1337AB 
 1160      DEC4FE0F 
 1160      A7B53535 
 1160      B9
 1161 2ba2 4F384378 		.ascii	"O8Cx\312?\020\016\377c\011m\263\004\355<\0030O\320\032"
 1161      CA3F100E 
 1161      FF63096D 
 1161      B304ED3C 
 1161      03304FD0 
 1162 2bb7 66432325 		.ascii	"fC#%[f\015\022\341\005&\274@\204\003\323\033J$mR-\021"
 1162      5B660D12 
 1162      E10526BC 
 1162      408403D3 
 1162      1B4A246D 
 1163 2bce 5E64C28B 		.ascii	"^d\302\213D8\365\374\365V\211\346r\211\360\022\023^"
 1163      4438F5FC 
 1163      F55689E6 
 1163      7289F012 
 1163      135E
 1164 2be0 22C2617D 		.ascii	"\"\302a}\206s\222\037R\310\220\010/3\341e\"\234\222"
 1164      8673921F 
 1164      52C89008 
 1164      2F33E165 
 1164      229C92
 1165 2bf3 51F858B2 		.ascii	"Q\370X\262\317\231+\021^a\302+Dx\250 \352\266\255\325"
 1165      CF992B11 
 1165      5E61C22B 
 1165      4478A820 
 1165      EAB6ADD5 
ARM GAS  C:\Users\AMANRA~1\AppData\Local\Temp\ccKbJO0N.s 			page 95


 1166 2c07 5356AB6A 		.ascii	"SV\253jv\312*\210\376'\010\251c\371\345\354\007\337"
 1166      76CA2A88 
 1166      FE2708A9 
 1166      63F9E5EC 
 1166      07DF
 1167 2c19 EDC94C3E 		.ascii	"\355\311L>\352\254\202\256\250\217\340\257\015\206\346"
 1167      EAAC82AE 
 1167      A88FE0AF 
 1167      0D86E6
 1168 2c28 49A569E8 		.ascii	"I\245i\350\0304\233\27055\326\346\243Y\317\353$\014"
 1168      18349BB8 
 1168      3535D6E6 
 1168      A359CFEB 
 1168      240C
 1169 2c3a 1E38D24B 		.ascii	"\0368\322K\356K\026Q\340\266\310\276\257\206b\205O\374"
 1169      EE4B1651 
 1169      E0B6C8BE 
 1169      AF866285 
 1169      4FFC
 1170 2c4c 98951D19 		.ascii	"\230\225\035\031\254\026\013\207J*\346\307\204\375\210"
 1170      AC160B87 
 1170      4A2AE6C7 
 1170      84FD88
 1171 2c5b F0C994A5 		.ascii	"\360\311\224\245l\311\313qA\022a\177&\354O\204\357>"
 1171      6CC9CB71 
 1171      4112617F 
 1171      26EC4F84 
 1171      EF3E
 1172 2c6d 6E3C2A09 		.ascii	"n<*\011\312\363\022\341#L\370\010\021n\230\212\227\372"
 1172      CAF312E1 
 1172      234CF808 
 1172      116E988A 
 1172      97FA
 1173 2c7f 17F79D82 		.ascii	"\027\367\235\202p\000\023\016 \302u\363\341\357[uo\240"
 1173      7000130E 
 1173      20C275F3 
 1173      E1EF5B75 
 1173      6FA0
 1174 2c91 86B917AF 		.ascii	"\206\271\027\257\276\341\236\341\372\331\002\366\237"
 1174      BEE19EE1 
 1174      FAD902F6 
 1174      9F
 1175 2c9e AED84409 		.ascii	"\256\330D\011\377\367\300\006\366\177\017\344\216g\305"
 1175      FFF7C006 
 1175      F67F0FE4 
 1175      8E67C5
 1176 2cad A84CDD1B 		.ascii	"\250L\335\033\014\356\015\322`mG\211{\211N\302@\211"
 1176      0CEE0DD2 
 1176      606D4789 
 1176      7B894EC2 
 1176      4089
 1177 2cbf A38D31F7 		.ascii	"\243\2151\367%AvT\342\336\020\0065\204@\255\274Z\332"
 1177      25417654 
 1177      E2DE1006 
 1177      358440AD 
 1177      BC5ADA
 1178 2cd2 24B78AF5 		.ascii	"$\267\212\365\030\217\025\033\303\263\300\251\346\025"
ARM GAS  C:\Users\AMANRA~1\AppData\Local\Temp\ccKbJO0N.s 			page 96


 1178      188F151B 
 1178      C3B3C0A9 
 1178      E615
 1179 2ce0 F69A08CE 		.ascii	"\366\232\010\316\252V\366?*l`\377\243\302#\303\203\000"
 1179      AA56F63F 
 1179      2A6C60FF 
 1179      A3C223C3 
 1179      8300
 1180 2cf2 B929D613 		.ascii	"\271)\326\023\200\3658\301\032J\260\036\243XC\011\326"
 1180      80F538C1 
 1180      1A4AB01E 
 1180      A3584309 
 1180      D6
 1181 2d03 A709C79E 		.ascii	"\247\011\307\236J\336\200\011\225`\015cX\303\010\326"
 1181      4ADE8009 
 1181      95600D63 
 1181      58C308D6 
 1182 2d13 2B656913 		.ascii	"+ei\0236V\261\206\363Xq\334a\254]>\253\354W\357\034"
 1182      3656B186 
 1182      F35871DC 
 1182      61AC5D3E 
 1182      ABEC57EF 
 1183 2d28 A284E3B4 		.ascii	"\242\204\343\264\033\330qZ\203\337\334\220\326\024k"
 1183      1BD8715A 
 1183      83DFDC90 
 1183      D6146B
 1184 2d37 24608D20 		.ascii	"$`\215 X\243\010\326p\2125\212`m\011\256J\224dz\224"
 1184      58A308D6 
 1184      708A358A 
 1184      606D09AE 
 1184      4A94647A 
 1185 2d4c 046B34C3 		.ascii	"\004k4\303\032M\260\256=\033\013\227T,U\022\\'\231\360"
 1185      1A4DB0AE 
 1185      3D1B0B97 
 1185      542C5512 
 1185      5C2799F0 
 1186 2d60 49229C58 		.ascii	"I\"\234X\037?'\021\276!\011\256SL\370\024\021\356\013"
 1186      1F3F2711 
 1186      BE2109AE 
 1186      534CF814 
 1186      11EE0B
 1187 2d73 2B5F73B4 		.ascii	"+_s\264\376n\016\357\205\016\372\033]\276\267\022\242"
 1187      FE6E0EEF 
 1187      850EFA1B 
 1187      5DBEB712 
 1187      A2
 1188 2d84 34A6D514 		.ascii	"4\246\325\024\304cI5ch5cI5g\353\007\377R2lHj\031\307"
 1188      C4634935 
 1188      63683563 
 1188      493567EB 
 1188      07FF5232 
 1189 2d9d B0C4112C 		.ascii	"\260\304\021,ObB\374\254c\211\347\261\344\322H\347\377"
 1189      4F6242FC 
 1189      AC6389E7 
 1189      B1E4D248 
 1189      E7FF
 1190 2daf 0BA90DF4 		.ascii	"\013\251\015\364\277\220:\361(\352\224Y\013$h\350kE"
ARM GAS  C:\Users\AMANRA~1\AppData\Local\Temp\ccKbJO0N.s 			page 97


 1190      BF903AF1 
 1190      28EA9459 
 1190      0B2468E8 
 1190      6B45
 1191 2dc1 322E9140 		.ascii	"2.\221@\213\247\320\022)\264\232\272\001\311\226`\242"
 1191      8BA7D012 
 1191      29B49ABA 
 1191      01C99660 
 1191      A2
 1192 2dd2 04DB6986 		.ascii	"\004\333i\206\3554\315\330\307\361\3279\264FG\334\305"
 1192      ED34CDD8 
 1192      C7F1D739 
 1192      B44647DC 
 1192      C5
 1193 2de3 9E9E627E 		.ascii	"\236\236b~\255\256\361.\242\313U>r\322?$i\214\323d\270"
 1193      ADAEF12E 
 1193      A2CB553E 
 1193      72D23F24 
 1193      698CD364 
 1194 2df8 944996AB 		.ascii	"\224I\226\253\2225\337\227\251\016\270\272{\274\345"
 1194      9235DF97 
 1194      A90EB8BA 
 1194      7BBCE5
 1195 2e07 A6F9D56F 		.ascii	"\246\371\325o~\373\372\216\255[e\012\267\317\\\2754"
 1195      7EFBFA8E 
 1195      AD5B650A 
 1195      B7CF5CBD 
 1195      34
 1196 2e18 9FBB7878 		.ascii	"\237\273xx\352\335\367~\245\376\334\305k\317A\275\227"
 1196      EADDF77E 
 1196      A5FEDCC5 
 1196      6BCF41BD 
 1196      97
 1197 2e29 8D8BCB21 		.ascii	"\215\213\313!w\017\375O]\364{\335\376\373'n\237\271"
 1197      770FFD4F 
 1197      5DF47BDD 
 1197      FEFB276E 
 1197      9FB9
 1198 2e3b 7FEAEEAD 		.ascii	"\177\352\356\255?\264\307\335\363\023\275\247\347~\357"
 1198      3FB4C7DD 
 1198      F313BDA7 
 1198      E77EEF
 1199 2e4a 4FF6791C 		.ascii	"O\366y\034z\235\\\275\356\352u\340u\335\201Ou{\366\350"
 1199      7A9D5CBD 
 1199      EEEA75E0 
 1199      75DD814F 
 1199      757BF6E8 
 1200 2e5e F67CF293 		.ascii	"\366|\362\223\267\266\274\276m\313\326\237|\376\343"
 1200      B7B6BCBE 
 1200      6DCBD69F 
 1200      7CFEE3
 1201 2e6d 4FE0FE8F 		.ascii	"O\340\376\217<<=t?\322\271~\352\376\211\273\207\333"
 1201      3C3C3D74 
 1201      3FD2B97E 
 1201      EAFE89BB 
 1201      87DB
 1202 2e7f FE437B74 		.ascii	"\376C{t\237\034p\005]\036\272O\\\366\350\366\272\036"
ARM GAS  C:\Users\AMANRA~1\AppData\Local\Temp\ccKbJO0N.s 			page 98


 1202      9F1C7005 
 1202      5D1EBA4F 
 1202      5CF6E8F6 
 1202      BA1E
 1203 2e91 DAAF77D1 		.ascii	"\332\257w\321\177uP\347\375\326g253\367\257\377O\315"
 1203      7F7550E7 
 1203      FDD66732 
 1203      3533F7AF 
 1203      FF4FCD
 1204 2ea4 797FE5FD 		.ascii	"y\177\345\375\211\213\267~\017\350\3066>w\371\322\013"
 1204      898BB77E 
 1204      0FE8C636 
 1204      3E77F9D2 
 1204      0B
 1205 2eb5 2AA7FCDC 		.ascii	"*\247\374\334E\357y\020\352\374\351\241\275{u^6\237"
 1205      45EF7910 
 1205      EAFCE9A1 
 1205      BD7B755E 
 1205      369F
 1206 2ec7 BBB8791E 		.ascii	"\273\270y\036\362\320\353\274T\336\356\377K\347\242"
 1206      F2D0EBBC 
 1206      54DEEEFF 
 1206      4BE7A2
 1207 2ed6 DFF36762 		.ascii	"\337\363gb\330\357\376\351'\373\334\334L\260\374\344"
 1207      D8EFFEE9 
 1207      27FBDCDC 
 1207      4CB0FCE4 
 1208 2ee6 AD6D6F6D 		.ascii	"\255mom\025\020\351\241\324^\000\003V\277tu\327\273"
 1208      1510E9A1 
 1208      D45E0003 
 1208      56BF7475 
 1208      D7BB
 1209 2ef8 7BEC5378 		.ascii	"{\354Sx\350\016\3535^:\327\375\007\275\334=m\251\347"
 1209      E80EEB35 
 1209      5E3AD7FD 
 1209      07BDDC3D 
 1209      6DA9E7
 1210 2f0b DFDEE6A2 		.ascii	"\337\336\346\242\327\360\027j=\376\306E\277\375\255"
 1210      D7F0176A 
 1210      3DFEC645 
 1210      BFFDAD
 1211 2f1a B736C35F 		.ascii	"\2676\303_\202\315\323{\353\317\266n\331\354\351\275"
 1211      82CDD37B 
 1211      EBCFB66E 
 1211      D9ECE9BD 
 1212 2f2a D9CDF3C0 		.ascii	"\331\315\363\300\001O\217\315\007=\275\364\336\233\267"
 1212      014F8FCD 
 1212      073DBDF4 
 1212      DE9BB7
 1213 2f39 3B7FB0E3 		.ascii	";\177\260\343\203\303\370\336A\367\375:/\357\315\277"
 1213      83C3F8DE 
 1213      41F7FD3A 
 1213      2FEFCDBF 
 1214 2f49 DAB1030A 		.ascii	"\332\261\003\012\030\335|@\177x?\324K\351\371\245\207"
 1214      18DD7C40 
 1214      7F783FD4 
 1214      4BE9F9A5 
ARM GAS  C:\Users\AMANRA~1\AppData\Local\Temp\ccKbJO0N.s 			page 99


 1214      87
 1215 2f5a 0E1C7148 		.ascii	"\016\034qHwH\247>pH\257;\014\346\334>s!\227\032\335"
 1215      7748A73E 
 1215      7048AF3B 
 1215      0CE6DC3E 
 1215      7321971A 
 1216 2f6f 419D07F8 		.ascii	"A\235\007\370l\237\235\356\013\235\207\376\200\253\367"
 1216      6C9F9DEE 
 1216      0B9D87FE 
 1216      80ABF7
 1217 2f7e 9FE0DB03 		.ascii	"\237\340\333\003\336\373\2508\203\355\010\342\372\317"
 1217      DEFBA838 
 1217      83ED08E2 
 1217      FACF
 1218 2f8c 00F61E6F 		.ascii	"\000\366\036o\027\254\322A\314\270\350\271C*\335\227"
 1218      17ACD241 
 1218      CCB8E8B9 
 1218      432ADD97 
 1219 2f9c B8A8EA4B 		.ascii	"\270\250\352K"
 1220 2fa0 3D183D08 		.ascii	"=\030=\010\037\336\272\003\007\221\233\207\036\202\213"
 1220      1FDEBA03 
 1220      07919B87 
 1220      1E828B
 1221 2faf AF18FB54 		.ascii	"\257\030\373T\302]\027\275\0264\202\214\353\301\317"
 1221      C25D17BD 
 1221      1634828C 
 1221      EBC1CF
 1222 2fbe 3CBD746A 		.ascii	"<\275tjol\332{\237\022\010\004\276\324\353\275\016\256"
 1222      6F6CDA7B 
 1222      9F120804 
 1222      BED4EBBD 
 1222      0EAE
 1223 2fd0 A7265CBC 		.ascii	"\247&\\\274t\320l:\0177h+P\353\371\351\277\037\324\350"
 1223      74D06C3A 
 1223      0F37682B 
 1223      50EBF9E9 
 1223      BF1FD4E8 
 1224 2fe4 0EBBEBDD 		.ascii	"\016\273\353\335<\367\350T^{\276\202\022\012\020\361"
 1224      3CF7E854 
 1224      5E7BBE82 
 1224      120A10F1 
 1225 2ff4 56EBF1BF 		.ascii	"V\353\361\277Px\357~\327}\300\035"
 1225      5078EF7E 
 1225      D77DC01D 
 1226 3000 80EF81F3 		.ascii	"\200\357\201\363\326\273\352u\032=\371\300\012\\?u\365"
 1226      D6BBEA75 
 1226      1A3DF9C0 
 1226      0A5C3F75 
 1226      F5
 1227 3011 D631B7BF 		.ascii	"\3261\267\277\363c\346v|a\353\255\377\223\353~\367}"
 1227      F363E676 
 1227      7C61EBAD 
 1227      FF93EB7E 
 1227      F77D
 1228 3023 1E2EFA6D 		.ascii	"\036.\372m/\357\371\317\334\000=\270Z\341\341z@\247"
 1228      2FEFF9CF 
 1228      DC003DB8 
ARM GAS  C:\Users\AMANRA~1\AppData\Local\Temp\ccKbJO0N.s 			page 100


 1228      5AE1E17A 
 1228      40A7
 1229 3035 F4DCBF07 		.ascii	"\364\334\277\007\374\354\241\373R\347\205\334\364\207"
 1229      FCECA1FB 
 1229      52E785DC 
 1229      F487
 1230 3043 E5DE07E5 		.ascii	"\345\336\007\345\373\275\240\261\367A\220\270\350\221"
 1230      FBBDA0B1 
 1230      F74190B8 
 1230      E891
 1231 3051 D7D6AD40 		.ascii	"\327\326\255@[\344^?\223{\375T\356\365\023\271\327;"
 1231      5BE45E3F 
 1231      937BFD54 
 1231      EEF513B9 
 1231      D73B
 1232 3063 72AFBF93 		.ascii	"r\257\277\223{\375\030y\277\275\025h\013\362\336\366"
 1232      7BFD1879 
 1232      BFBD1568 
 1232      0BF2DEF6 
 1233 3073 33A09F02 		.ascii	"3\240\237\002\375\004\350\035\240\277\003\202\357\267"
 1233      FD04E81D 
 1233      A0BF0382 
 1233      EFB7
 1234 3081 BD0DB40D 		.ascii	"\275\015\264\015\010\344\266\201\334V\220\333\012r["
 1234      08E4B681 
 1234      DC5690DB 
 1234      0A725B
 1235 3090 416EEB3B 		.ascii	"An\353;v\030\024v3\030}\347\033\202w\371\342'\007\240"
 1235      76181476 
 1235      33187DE7 
 1235      1B8277F9 
 1235      E22707A0 
 1236 30a4 025AA2C2 		.ascii	"\002Z\242\302\315\0232\343\260^\201#\320\306\330\344"
 1236      CD1332E3 
 1236      B05E8123 
 1236      D0C6D8E4 
