ARM GAS  C:\Users\AMANRA~1\AppData\Local\Temp\cckswGwV.s 			page 1


   1              		.cpu cortex-m4
   2              		.eabi_attribute 27, 1
   3              		.eabi_attribute 28, 1
   4              		.eabi_attribute 20, 1
   5              		.eabi_attribute 21, 1
   6              		.eabi_attribute 23, 3
   7              		.eabi_attribute 24, 1
   8              		.eabi_attribute 25, 1
   9              		.eabi_attribute 26, 1
  10              		.eabi_attribute 30, 2
  11              		.eabi_attribute 34, 1
  12              		.eabi_attribute 18, 4
  13              		.file	"chcore_v7m.c"
  14              		.section	.gnu.lto_.profile.c3dc8938,"",%progbits
  15 0000 789C6363 		.ascii	"x\234cc```\001bF\006c9\000\000\374\000]"
  15      60606001 
  15      62460663 
  15      390000FC 
  15      005D
  16              		.text
  17              		.section	.gnu.lto_.icf.c3dc8938,"",%progbits
  18 0000 789C6363 		.ascii	"x\234cc``\020f@\000f\206}\273~\2622\177\354n\354\340"
  18      60601066 
  18      40006686 
  18      7DBB7EB2 
  18      327FEC6E 
  19 0016 6679B0FD 		.ascii	"fy\260\375\356a^\006\000T\362\010n"
  19      EE615E06 
  19      0054F208 
  19      6E
  20              		.text
  21              		.section	.gnu.lto_.jmpfuncs.c3dc8938,"",%progbits
  22 0000 789C6363 		.ascii	"x\234cc``\340e@\000f(\301\002\242\001\002c\000\036"
  22      6060E065 
  22      40006628 
  22      C102A201 
  22      0263001E 
  23              		.text
  24              		.section	.gnu.lto_.inline.c3dc8938,"",%progbits
  25 0000 789C6363 		.ascii	"x\234cc``pc@\000f\006\006\001qF\006&\261\005s\030\031"
  25      60607063 
  25      40006606 
  25      06017146 
  25      0626B105 
  26 0017 D816C833 		.ascii	"\330\026\3103\201\004\231\270\3012\\\234@\011\276\015"
  26      810499B8 
  26      C1325C9C 
  26      4009BE0D 
  27 0027 B9707116 		.ascii	"\271pq\026\006.n\240\020\317\231\010\270\020#\027\210"
  27      062E6EA0 
  27      10CF9908 
  27      B8102317 
  27      88
  28 0038 040009AE 		.ascii	"\004\000\011\256\006\312"
  28      06CA
  29              		.text
  30              		.section	.gnu.lto_.pureconst.c3dc8938,"",%progbits
ARM GAS  C:\Users\AMANRA~1\AppData\Local\Temp\cckswGwV.s 			page 2


  31 0000 789C6363 		.ascii	"x\234cc``\340\002bf\206]\214\314\273\030Yv1\002\000"
  31      6060E002 
  31      6266865D 
  31      8CCCBB18 
  31      59763102 
  32 0015 0C38024C 		.ascii	"\0148\002L"
  33              		.text
  34              		.section	.gnu.lto__port_irq_epilogue.part.0.c3dc8938,"",%progbits
  35 0000 789C9D55 		.ascii	"x\234\235UkL\024W\024\276g\356\314\354\260]\036%\375"
  35      6B4C1457 
  35      14BE67EE 
  35      CCECB05D 
  35      1E25FD
  36 0013 61137F2C 		.ascii	"a\023\177,I\21111\214\246I\033\177\264IC\322\304&\244"
  36      49893131 
  36      8CA6491B 
  36      7FB44943 
  36      D2C426A4 
  37 0027 0D24FD6B 		.ascii	"\015$\375k\332\025*\251\260\233\335\265\341\037\003"
  37      DA152AA9 
  37      B09BDDB5 
  37      E11F03
  38 0036 CBCAF2A8 		.ascii	"\313\312\362\250m\032X\221\016\335\0156\265\217`\265"
  38      6D1A5891 
  38      0EDD0D36 
  38      B58F60B5 
  39 0046 DAC26291 		.ascii	"\332\302b\221\207\202P\253(\010\264\242\224\202\020"
  39      878250AB 
  39      2808B4A2 
  39      948210
  40 0055 C1475362 		.ascii	"\301GSbM1Qz\316\235\341\241\255\266v\263{\347\336s\317"
  40      4D31517A 
  40      CE9DE1A1 
  40      ADB676B3 
  40      7BE7DE73 
  41 006a 39DF775E 		.ascii	"9\337w^\263*cLq0\326\217\317W\361\007\016\006\352\207"
  41      B32A634C 
  41      7130D68F 
  41      CF57F107 
  41      0E06EA87 
  42 007e E770A382 		.ascii	"\347p\243\202$\236\222\304#\033\230\341\224iuqPHZ\246"
  42      249E92C4 
  42      231B98E1 
  42      94697571 
  42      50485AA6 
  43 0092 C9CB1B05 		.ascii	"\311\313\033\005\2006\206\006\254T\225\270\254@)\324"
  43      80368606 
  43      AC5495B8 
  43      AC4029D4 
  44 00a2 F23A0E3D 		.ascii	"\362:\016=\225\263\011i\343A\003?]\373n;\366\030\341"
  44      95B30969 
  44      E341033F 
  44      5DFB6E3B 
  44      F618E1
  45 00b5 7526672C 		.ascii	"u&g,\212?\372\300Q\330\310Pm\352\310\375\372dU&9\034"
  45      8A3FFAC0 
  45      51D8C850 
ARM GAS  C:\Users\AMANRA~1\AppData\Local\Temp\cckswGwV.s 			page 3


  45      6DEAC8FD 
  45      FA645526 
  46 00cb 03552C80 		.ascii	"\003U,\200\362\013\025\207M^\303M\016 \343\361\367\263"
  46      F20B1587 
  46      4D5EC34D 
  46      0E20E3F1 
  46      F7B3
  47 00dd 8DD32974 		.ascii	"\215\323)t\224\300\215\307\352\201\253\315\251|+\220"
  47      94C08DC7 
  47      EA81ABCD 
  47      A97C2B90 
  48 00ed 87F9CEB9 		.ascii	"\207\371\316\271EW\346\001\303(7\272\356\304\322\017"
  48      4557E601 
  48      C32837BA 
  48      EEC4D20F 
  49 00fd 848C7E43 		.ascii	"\204\214~C69\207V\340\344\365;X\017\337\302z\201\272"
  49      36398756 
  49      E0E4F53B 
  49      580FDFC2 
  49      7A81BA
  50 0110 0A086D90 		.ascii	"\012\010m\220i\201%\020uE^!\370\216~\236\302H\036\345"
  50      69812510 
  50      75455E21 
  50      F88E7E9E 
  50      C2481EE5 
  51 0124 0261B6A6 		.ascii	"\002a\266\246\367\204\203\277,\366g\306\346F$\033\355"
  51      F78483BF 
  51      2CF667C6 
  51      E646241B 
  51      ED
  52 0135 B706F740 		.ascii	"\267\006\367@\250\362}#^\236fr\031\216?\026\357{\302"
  52      A8F27D23 
  52      5E9E6672 
  52      198E3F16 
  52      EF7BC2
  53 0148 6B47BC0E 		.ascii	"kG\274\016\212\022\027\300\324\223\024u\216\334\\\354"
  53      8A1217C0 
  53      D4931475 
  53      8EDC5CEC 
  54 0158 56C9E947 		.ascii	"V\311\351G\"W\237\205\302\"\004++k\375\301\011\241\377"
  54      22579F85 
  54      C222042B 
  54      2B6BFDC1 
  54      09A1FF
  55 016b 2089E73A 		.ascii	" \211\347:\333\256\221)<\202\004t>!H\027dRz\276\036"
  55      DBAE9129 
  55      3C820474 
  55      3E214817 
  55      64527ABE 
  56 0180 520CE3FE 		.ascii	"R\014\343\376R\245a\\z>=\015\030\221\225\20474\300{"
  56      52A5615C 
  56      7A3E3D0D 
  56      18919584 
  56      3734C07B 
  57 0194 59AC0A33 		.ascii	"Y\254\0123\271\242\342\242:h\247\341\202\015\025\301"
  57      B9A2E2A2 
  57      3A68A7E1 
ARM GAS  C:\Users\AMANRA~1\AppData\Local\Temp\cckswGwV.s 			page 4


  57      820D15C1 
  58 01a4 32535F44 		.ascii	"2S_D\270JO^\305%\361\274\016eS\255\265\307\026\326Y"
  58      B84A4F5E 
  58      C525F1BC 
  58      0E6553AD 
  58      B5C716D6 
  59 01b9 6960AC8A 		.ascii	"i`\254\212\212\035\335\033\215\311\031\373!f4\270M\256"
  59      8A1DDD1B 
  59      8DC919FB 
  59      216634B8 
  59      4DAE
  60 01cb 51DAEE4D 		.ascii	"Q\332\356M\205\247\223d\011\331tC\206Hd\337\324\321"
  60      85A79364 
  60      09D97443 
  60      864864DF 
  60      D4D1
  61 01dd 761525D0 		.ascii	"v\025%\320\003r#\026\206\301I\220\331,\224\273E6\221"
  61      03722316 
  61      86C14990 
  61      D92C94BB 
  61      453691
  62 01f0 1C49F13C 		.ascii	"\034I\361<YS=\003T>\221sfA\336\031\204\207\212\274\317"
  62      59533D03 
  62      543E9173 
  62      6641DE19 
  62      84878ABC 
  63 0205 74BE6657 		.ascii	"t\276fWYZ[\250N*\324)\264\356%\206\275\026\315\246\177"
  63      595A5BA8 
  63      4E2AD429 
  63      B4EE2586 
  63      BD16CDA6 
  64 021a A5D9F730 		.ascii	"\245\331\3670\315\323D\223n\372-\232\223\202\0049$\010"
  64      CDD34493 
  64      6EFA2D9A 
  64      93820439 
  64      2408
  65 022c BA125CF7 		.ascii	"\272\022\\\367\366\246\013\256\004\313\346\241|\241"
  65      F6A60BAE 
  65      04CBE6A1 
  65      7CA1
  66 023a F20B4E82 		.ascii	"\362\013N\202F\316m\035\267\270o#\033\216\032!sO\313"
  66      46CE6D1D 
  66      B7B86F23 
  66      1B8E1A21 
  66      734FCB
  67 024d F00E4B05 		.ascii	"\360\016K\005\021h\326\026\333\016v(\326\2604,--\245"
  67      1168D616 
  67      DB0E7628 
  67      D6B0342C 
  67      2D2DA5
  68 0260 C20096F2 		.ascii	"\302\000\226\362AK\231|\337\276\326\024v\222\014m\272"
  68      414B997C 
  68      DFBED614 
  68      76920C6D 
  68      BA
  69 0271 A63F3655 		.ascii	"\246?6U\262\341\226\015\212\376h\255\033\320\342\360"
  69      B2E1960D 
ARM GAS  C:\Users\AMANRA~1\AppData\Local\Temp\cckswGwV.s 			page 5


  69      8AFE68AD 
  69      1BD0E2F0 
  70 0281 09365212 		.ascii	"\0116R\022:\206\037\250!P\276pk\370S\256\267P\326\342"
  70      3A861FA8 
  70      2150BE70 
  70      6BF853AE 
  70      B750D6E2 
  71 0295 052677C2 		.ascii	"\005&w\302\031\210C\275\030d\370\021t\232\326\231\273"
  71      198843BD 
  71      1864F811 
  71      749AD699 
  71      BB
  72 02a6 8349E44C 		.ascii	"\203I\344L\005T\322\340,Z\316CO\373\\,\234n1U(\177\341"
  72      0554D2E0 
  72      2C5ACE43 
  72      4FFB5C2C 
  72      9C6E3155 
  73 02bd 9E410769 		.ascii	"\236A\007i=%F\251\372\312\007\2074\353xx\"d\244\240"
  73      3D2546A9 
  73      FACA0787 
  73      34EB7878 
  73      2264A4A0 
  74 02d1 68A2F9FC 		.ascii	"h\242\371\374p\262\305\300\005\203\330\223\347l\012"
  74      70B2C5C0 
  74      0583D893 
  74      E76C0A
  75 02e0 E5B1EE49 		.ascii	"\345\261\356I\015)T\224\031\230\372d8/\030\0001\270"
  75      0D295494 
  75      1998FA64 
  75      382F1800 
  75      31B8
  76 02f2 00BA95B7 		.ascii	"\000\272\225\267\204bA\021\032I.V\357W\354`\377sdC\302"
  76      84624111 
  76      1A492E56 
  76      EF57EC60 
  76      FF736443 
  77 0307 AF447E87 		.ascii	"\257D~\207AG_\226\353\216\221g,\337\016\312\344rf\321"
  77      41475F96 
  77      EB8E9167 
  77      2CDF0ECA 
  77      E47266D1 
  78 031b C1E9EB57 		.ascii	"\301\351\353W\2334\376%\210\200j\277Z8\304\355\261\034"
  78      9B34FE25 
  78      88806ABF 
  78      5A38C4ED 
  78      B11C
  79 032d 8DB91A8D 		.ascii	"\215\271\032\215\256\0127\315\344\305\177\230\311\021"
  79      AE0A37CD 
  79      E4C57F98 
  79      C911
  80 033b 2A8AC36E 		.ascii	"*\212\303n\316\211\241\2775\347\250S!\035\273A\371\332"
  80      CE89A1BF 
  80      35E7A853 
  80      211DBB41 
  80      F9DA
  81 034d 57258C62 		.ascii	"W%\214bQ\307\250/\307\304[\204%\310\2729\366\315\237"
  81      51C7A82F 
ARM GAS  C:\Users\AMANRA~1\AppData\Local\Temp\cckswGwV.s 			page 6


  81      C7C45B84 
  81      25C8BA39 
  81      F6CD9F
  82 0360 CE8C3EBB 		.ascii	"\316\214>\2739S\310\240e\372\270\241\211\346\374\311"
  82      3953C8A0 
  82      65FAB8A1 
  82      89E6FCC9 
  83 0370 6ECECB8D 		.ascii	"n\316\313\215\355uNj\316\237\2519qN\341\022\254\306"
  83      ED754E6A 
  83      CE9FA939 
  83      714EE112 
  83      ACC6
  84 0382 2300D90D 		.ascii	"#\000\331\015\010\305;\353\237\265\342\325\320(\221"
  84      08C53BEB 
  84      9FB5E2D5 
  84      D02891
  85 0391 B831EE28 		.ascii	"\2701\356(\275gh&O\215b\370\014\306\241\024\307<\215"
  85      BD676826 
  85      4F8D62F8 
  85      0CC6A114 
  85      C73C8D
  86 03a4 CD40C5F8 		.ascii	"\315@\305\370\311S\260\252\272Ra\007\276..\333\261V"
  86      C953B0AA 
  86      BA526107 
  86      BE2E2EDB 
  86      B156
  87 03b6 21FDC806 		.ascii	"!\375\310\006\216\211\274[\3314\026\207'\250I1\325\344"
  87      8E89BC5B 
  87      D9341687 
  87      27A84931 
  87      D5E4
  88 03c8 8AA809B5 		.ascii	"\212\250\011\265\033L\210n[&\024A\215\0054\177:\212"
  88      1B4C886E 
  88      5B261441 
  88      8D05347F 
  88      3A8A
  89 03da 0567F00B 		.ascii	"\005g\360\013\262\"4y\005\355\346\377@\233\\E\373\365"
  89      B2223479 
  89      05EDE6FF 
  89      409B5C45 
  89      FBF5
  90 03ec 51682A5E 		.ascii	"Qh*^N\331h\212x\257\335\002\311\372_\213`S\242\000O"
  90      4ED9688A 
  90      78AFDD02 
  90      C9FA5F8B 
  90      6053A200 
  91 0401 2F6465E9 		.ascii	"/de\351\370\365\354,|\273\320\033\330\262u\313f\335"
  91      F8F5EC2C 
  91      7CBBD01B 
  91      D8B275CB 
  91      66DD
  92 0413 1BD03DDE 		.ascii	"\033\320=\336\242\"o\261\356\363\372\203\001\375\225"
  92      A2226FB1 
  92      EEF3FA83 
  92      01FD95
  93 0422 DC9CEC9C 		.ascii	"\334\234\354\234\022T\361x\375\371\333\337{\261(\313"
  93      1254F178 
ARM GAS  C:\Users\AMANRA~1\AppData\Local\Temp\cckswGwV.s 			page 7


  93      FDF9DBDF 
  93      7BB128CB 
  94 0432 C3644FB0 		.ascii	"\303dO\260\304\247\372\363\003\273w\005\263\037\347"
  94      C4A7FAF3 
  94      03BB7705 
  94      B31FE7
  95 0441 22BF2448 		.ascii	"\"\277$H\016\364\354\234\274myz6z\320\267\025{v\355"
  95      0EF4EC9C 
  95      BC6D797A 
  95      367AD0B7 
  95      157B76ED 
  96 0455 DE91AF7B 		.ascii	"\336\221\257{\212\002\205\201\355\357x<Y;Y\352\2339"
  96      8A028581 
  96      EDEF783C 
  96      593B59EA 
  96      9B39
  97 0467 B979EECC 		.ascii	"\271y\356\314\315\233\334\005\276\200\307\317\370K~"
  97      CD9BDC05 
  97      BE80C7CF 
  97      F84B7E
  98 0476 E65A16F9 		.ascii	"\346Z\026\371\002>\226\022\364\372^/x\303\357\365\344"
  98      023E9612 
  98      F4FA5E2F 
  98      78C3EFF5 
  98      E4
  99 0487 05DFF2BC 		.ascii	"\005\337\362\274\353\312\311\313%\371&T`\222\237\375"
  99      EBCAC9CB 
  99      25F92654 
  99      60929FFD 
 100 0497 05B8747C 		.ascii	"\005\270t|c"
 100      63
 101              		.text
 102              		.section	.gnu.lto_SVC_Handler.c3dc8938,"",%progbits
 103 0000 789C9D54 		.ascii	"x\234\235T\377oSU\024?\347\335\327\327\262\225\261\370"
 103      FF6F5355 
 103      143FE7DD 
 103      D7D7B295 
 103      B1F8
 104 0012 9B71315D 		.ascii	"\233q1]t\211$d\017~Q\371A\023\263_\344\207F\262\376"
 104      74892464 
 104      0F7E51F9 
 104      4113B35F 
 104      E48746B2 
 105 0027 01049E95 		.ascii	"\001\004\236\2255R\332\264\305\314\237xk\007c[\375\022"
 105      3552DAB4 
 105      C5CC9F78 
 105      6B07635B 
 105      FD12
 106 0039 1DB569EA 		.ascii	"\035\265i\352:k\210,\2049\231\262\255hW6\331\2009\006"
 106      3A6B882C 
 106      843999B2 
 106      AD685736 
 106      D9803906 
 107 004d 63133558 		.ascii	"c\0235Xq\303\205m\211\306\375@0\302\3469\367\025\204"
 107      71C3856D 
 107      89C6FD40 
 107      30C2E639 
ARM GAS  C:\Users\AMANRA~1\AppData\Local\Temp\cckswGwV.s 			page 8


 107      F71584
 108 0060 4134FAD2 		.ascii	"A4\372\322\336\274{\3179\237\317\347|\356\275O\003\000"
 108      DEBC7BCF 
 108      399FCFE7 
 108      7CEEBD4F 
 108      0300
 109 0072 AF0DA012 		.ascii	"\257\015\240\022\001\236\240w\024\200\312\273\027\000"
 109      019EA077 
 109      1480CABB 
 109      1700
 110 0080 9A1C0A22 		.ascii	"\232\034\012\"\277\230\016\204\375\012\356\307\270\350"
 110      BF980E84 
 110      FD0AEEC7 
 110      B8E8
 111 008e 1038DC32 		.ascii	"\0208\3342?\250l\374\304\244\247\360\301\355\307\315"
 111      3FA86CFC 
 111      C4A4A7F0 
 111      C1EDC7CD 
 112 009e A3054C0B 		.ascii	"\243\005L\013\200\004\375\371\301>\334\010\224v\251"
 112      8004FDF9 
 112      C13EDC08 
 112      9476A9
 113 00ad B9372DDA 		.ascii	"\2717-\332EZ \2524\375}\"5W\301S\005]4m;w=\273AlE\316"
 113      455A20AA 
 113      34FD7D22 
 113      3557C153 
 113      055D346D 
 114 00c9 5C1C5AF8 		.ascii	"\\\034Z\370\303Y\363\261iF\315\302h\362\311l\314<k\252"
 114      C359F3B1 
 114      6946CDC2 
 114      68F2C96C 
 114      CC3C6BAA 
 115 00dd 6921F024 		.ascii	"i!\360$\012B\305/\260\012?\307*\211N\351\263\237\255"
 115      0A42C52F 
 115      B00A3FC7 
 115      2A894EE9 
 115      B39FAD
 116 00f0 1C5EAFA9 		.ascii	"\034^\257\251\330\2175\026)\016\240\006$^\341%J\230"
 116      D88F3516 
 116      290EA006 
 116      245EE125 
 116      4A98
 117 0102 6F3F93B7 		.ascii	"o?\223\267\213\027%\366\370\225\205\031\245\204\375"
 117      8B1725F6 
 117      F8958519 
 117      A584FD
 118 0111 5BF2E9A1 		.ascii	"[\362\351\241\201\033\246\371\236I\202U\034|\030\035"
 118      811BA6F9 
 118      9E498255 
 118      1C7C181D 
 119 0121 7358F3E9 		.ascii	"sX\363\351\224\255`\256\254\266PsU-c\305\224R\206\220"
 119      94AD60AE 
 119      ACB65073 
 119      552D63C5 
 119      94528690 
 120 0135 16368507 		.ascii	"\0266\205\007\301\003q\021\217]\216\016Y\002p\210t\220"
 120      C1037111 
ARM GAS  C:\Users\AMANRA~1\AppData\Local\Temp\cckswGwV.s 			page 9


 120      8F5D8E0E 
 120      59027088 
 120      7490
 121 0147 5366015A 		.ascii	"Sf\001Z\205\302o\261\002,\342pn!>bgy)\201$&q`x\322\316"
 121      85C26FB1 
 121      022CE270 
 121      6E213E62 
 121      67792981 
 122 0162 1E68525B 		.ascii	"\036hR[\333\217\357\3648\254io1fV\320R1{\361\362\372"
 122      DB8FEFF4 
 122      38AC696F 
 122      316656D0 
 122      52317BF1 
 123 0178 2EEC6C22 		.ascii	".\354l\"s]ia\307/I\335)VG\301h\346\3645\207~\334l&\371"
 123      735D6961 
 123      C72F49DD 
 123      295647C1 
 123      68E6F435 
 124 0192 0EFC0ABB 		.ascii	"\016\374\012\273\360\260\364\034\363\250\023[\354\366"
 124      F0B0F41C 
 124      F3A8135B 
 124      ECF6
 125 01a0 41B4B814 		.ascii	"A\264\270\024\213\2568\036\377SZn\303\225\325\325\325"
 125      8BAE381E 
 125      FF535A6E 
 125      C395D5D5 
 125      D5
 126 01b1 0D384440 		.ascii	"\0158D@\244j\272M\346\3757\272\302\337t\247Q'\016X\302"
 126      A46ABA4D 
 126      E6FD37BA 
 126      C2DF74A7 
 126      51270E58 
 127 01c6 A6D9FEF8 		.ascii	"\246\331\376\370\315I\274\267'\315\326\231\350\325^"
 127      CD49BCB7 
 127      27CDD699 
 127      E8D55E
 128 01d5 967B9210 		.ascii	"\226{\222\020x\377~\261Q8\214\032\216\360v\215X{\326"
 128      78FF7EB1 
 128      51388C1A 
 128      8EF0768D 
 128      587BD6
 129 01e8 2A7D793B 		.ascii	"*}y;\221Q\253\023\2301\223\244b\035\027\335\231=0\267"
 129      9151AB13 
 129      983193A4 
 129      621D17DD 
 129      993D30B7 
 130 01fc 4E5588ED 		.ascii	"NU\210\355k\254\226rFg\373r\032\255\340\031TS\302A\221"
 130      6BAC9672 
 130      4667FB72 
 130      1AADE019 
 130      5453C241 
 131 0211 5154611E 		.ascii	"QTa\036\243\327\244\010\006d\012\016\361b{2\366\030"
 131      A3D7A408 
 131      06640A0E 
 131      F1627B32 
 131      F618
 132 0223 8BB0F667 		.ascii	"\213\260\366g\021\243\313-\255\302\262G+\345\270d\274"
ARM GAS  C:\Users\AMANRA~1\AppData\Local\Temp\cckswGwV.s 			page 10


 132      11A3CB2D 
 132      ADC2B247 
 132      2BE5B864 
 132      BC
 133 0234 9F6B34F6 		.ascii	"\237k4\366/}p\242\257\312J\261\323\022q^\315v\034Q\255"
 133      2F7D70A2 
 133      AFCA4AB1 
 133      D312715E 
 133      CD761C51 
 134 0249 337C0370 		.ascii	"3|\003p\214\214y\260\314n\001\337\351sZe\202\227\356"
 134      8C8C79B0 
 134      CC6E01DF 
 134      E9735A65 
 134      8297EE
 135 025c A650FDD8 		.ascii	"\246P\375\330\322\365\017\035\"\205\322\207\370\261"
 135      D2F50F1D 
 135      2285D287 
 135      F8B1
 136 026a E51E513A 		.ascii	"\345\036Q:\2127w\247\314B\263\213\217\341\331G\034\303"
 136      8A3777A7 
 136      CC42B38B 
 136      8FE1D947 
 136      1CC3
 137 027c 730C2E4A 		.ascii	"s\014.J\016\027\247\326:\374~^\343\224\222\311\312}"
 137      0E17A7D6 
 137      3AFC7E5E 
 137      E39492C9 
 137      CA7D
 138 028e 26039E27 		.ascii	"&\003\236'm\343\354-\015\344/tsq6s\342VY\365\311\222"
 138      6DE3EC2D 
 138      0DE42F74 
 138      73713673 
 138      E25659F5 
 139 02a4 C1655C70 		.ascii	"\301e\\p|\356\224\351\220\006\177S2\370j*\327Q\306\006"
 139      7CEE94E9 
 139      90067F53 
 139      32F86A2A 
 139      D751C606 
 140 02b8 4FB0C1B4 		.ascii	"O\260\301\264\325x\3012\330j\230\011i&\331\216\234\237"
 140      D578C132 
 140      D86A9809 
 140      6926D98E 
 140      9C9F
 141 02ca 1A2A1783 		.ascii	"\032*\027\203V_\335=\037%\357^\337\311\201g:c\355o\231"
 141      565FDD3D 
 141      1F25EF5E 
 141      DFC98167 
 141      3A63ED6F 
 142 02df 5DD14AEE 		.ascii	"]\321J\356m\362\021\275]\224w\364\336UP\021\360\022"
 142      6DF211BD 
 142      5D9477F4 
 142      DE555011 
 142      F012
 143 02f1 C596304A 		.ascii	"\305\2260J\275\346~z\250\327i\255\324\247\2005\241\361"
 143      BDE67E7A 
 143      A8D769AD 
 143      D4A78035 
ARM GAS  C:\Users\AMANRA~1\AppData\Local\Temp\cckswGwV.s 			page 11


 143      A1F1
 144 0303 81E7BB09 		.ascii	"\201\347\273\011}\212\203\352\332\340b\247`*\300\313"
 144      7D8A83EA 
 144      DAE062A7 
 144      602AC0CB 
 145 0313 1CB63DE0 		.ascii	"\034\266=\340\3214\2653\303\036\315\260G\010\267\376"
 145      D134B533 
 145      C31ECDB0 
 145      4708B7FE 
 146 0323 D5A36F4B 		.ascii	"\325\243oK\036\255d~\316\227\263GWP\225\262\001\277"
 146      1EAD647E 
 146      CE97B347 
 146      575095B2 
 146      01BF
 147 0335 939FB7A3 		.ascii	"\223\237\267\243\371\221_\234\325\255\212U]\316\271"
 147      F9915F9C 
 147      D5AD8A55 
 147      5DCEB9
 148 0344 CB3D2766 		.ascii	"\313='f\312e\365\367\\\215?\224\334\224\026\000\374"
 148      CA65F5F7 
 148      5C8D3F94 
 148      DC941600 
 148      FC
 149 0355 CA87F4D8 		.ascii	"\312\207\364\330S\362\343\305\317!\272-\364\341\240"
 149      53F2E3C5 
 149      CF21BA2D 
 149      F4E1A0
 150 0364 FC676B6B 		.ascii	"\374gkku\372\031\015\276]\276@x\313\326-\233\365@X7"
 150      75FA190D 
 150      BE5DBE40 
 150      78CBD62D 
 150      9BF54058 
 151 0379 027E7F60 		.ascii	"\002~\177`\257\036\014\204\"a\375\245zw\235\273\221"
 151      AF1E0C84 
 151      2261FDA5 
 151      7A779DBB 
 151      91
 152 038a 528C40C8 		.ascii	"R\214@\310\273\343\215\347\374\265\006\250F\2441\250"
 152      BBE38DE7 
 152      FCB506A8 
 152      46A431A8 
 153 039a 85BCE17D 		.ascii	"\205\274\341}{\"u\377\004\341m\2140\200^\347\366l\363"
 153      7B2275FF 
 153      04E16D8C 
 153      30805EE7 
 153      F66CF3
 154 03ad E87584A0 		.ascii	"\350u\204\240o\333k\354\331\367\252W7\374a_x\307n\303"
 154      6FDB6BEC 
 154      D9F7AA57 
 154      37FC615F 
 154      78C76EC3 
 155 03c1 A86D00A7 		.ascii	"\250m\000\247\273\336\343\252\331\274\311\025\014\007"
 155      BBDEE3AA 
 155      D9BCC915 
 155      0C07
 156 03cf 41BC1082 		.ascii	"A\274\020\202\212H \370\312k\333C\001\303\023\331i\274"
 156      8A4820F8 
ARM GAS  C:\Users\AMANRA~1\AppData\Local\Temp\cckswGwV.s 			page 12


 156      CA6BDB43 
 156      01C313D9 
 156      69BC
 157 03e1 EE747BEA 		.ascii	"\356t{\3529\266\211\222@\011\201}\327\316\260w{\310"
 157      39B68992 
 157      4009817D 
 157      D7CEB077 
 157      7BC8
 158 03f3 F7BFE437 		.ascii	"\367\277\3447@%\3031D0\344\223\220v\277\327\037\010"
 158      4025C331 
 158      4430E493 
 158      9076BFD7 
 158      1F08
 159 0405 BD097F01 		.ascii	"\275\011\177\001\357Y\007\265"
 159      EF5907B5 
 160              		.text
 161              		.section	.gnu.lto__port_irq_epilogue.c3dc8938,"",%progbits
 162 0000 789C9D53 		.ascii	"x\234\235S\353KSa\030\177\237\363\236\263\255M\305\217"
 162      EB4B5361 
 162      187F9FF3 
 162      9EB3AD4D 
 162      C58F
 163 0012 097E981F 		.ascii	"\011~\230\037\204\004\361(H\345\207>\204\237$\204\320"
 163      8404F128 
 163      48E5873E 
 163      849F2484 
 163      D0
 164 0023 3F40F234 		.ascii	"?@\3624r\320\234l\026\366i\357\334\274eQ\224.\261\245"
 164      72D09C6C 
 164      16F669EF 
 164      DCBC6551 
 164      942EB1A5 
 165 0037 A6440EBC 		.ascii	"\246D\016\274\224]\347u\315\256\336\246R\024\371!\362"
 165      945DE775 
 165      CDAEDEA6 
 165      5214F921 
 165      F2
 166 0048 06D98A2E 		.ascii	"\006\331\212.~P0\355y\317\226\311\004\203^v\316y\337"
 166      7E5030ED 
 166      79CF96C9 
 166      04835E76 
 166      CE79DF
 167 005b E7F67B9E 		.ascii	"\347\366{\236\337\373\233\206\020\362\223\022\362\026"
 167      DFFB9B86 
 167      10F29312 
 167      F216
 168 0069 BF47F001 		.ascii	"\277G\360\001\015\001\341\362\024!N\235 \320\305$\302"
 168      0D01E1F2 
 168      14214E9D 
 168      20D0C524 
 168      C2
 169 007a F4625736 		.ascii	"\364bW6aq\024$n\0061\362u\352$\000\276a: \016\201\212"
 169      61711424 
 169      6E0631F2 
 169      75EA2400 
 169      BE613A20 
 170 0091 1238E002 		.ascii	"\0228\340\002m\240\020\254Y\366\013i\267\031\256\300"
ARM GAS  C:\Users\AMANRA~1\AppData\Local\Temp\cckswGwV.s 			page 13


 170      6DA010AC 
 170      59F60B69 
 170      B719AEC0 
 171 00a1 B5556D35 		.ascii	"\265Um5\253\332\357E\000\017>|\301=H#\0306\177w\263"
 171      ABDAEF45 
 171      000F3E7C 
 171      C13D4823 
 171      18367F77 
 172 00b6 315E2346 		.ascii	"1^#F\354p\237\343\342\246wV\012\260\315\255\032\026"
 172      EC709FE3 
 172      E2A67756 
 172      0AB0CDAD 
 172      1A16
 173 00c8 D8E8801B 		.ascii	"\330\350\200\033\307t\002\361R\240\374EH-F\"\"\013\220"
 173      C77402F1 
 173      52A0FC45 
 173      482D4622 
 173      220B90
 174 00db 3A2AF09D 		.ascii	":*\360\235+@\226A\340\305f\334w\274\264\236z\251\000"
 174      2B409641 
 174      E0C566DC 
 174      77BCB49E 
 174      7AA900
 175 00ee 221EBF4F 		.ascii	"\"\036\277O6/$\360#\005#\036o\215\315\216\030h\016\360"
 175      362F24F0 
 175      2305231E 
 175      6F8DCD8E 
 175      18680EF0 
 176 0102 485FCFCD 		.ascii	"H_\317\315\246\270\324\016\306*Y \324t\340\272\253\376"
 176      A6B8D40E 
 176      C62A5920 
 176      D474E0BA 
 176      ABFE
 177 0114 226BAB4C 		.ascii	"\"k\253L\364R\021\036\001\305f\340!$\303\003H\2164\373"
 177      F452111E 
 177      01C566E0 
 177      2124C303 
 177      488E34FB 
 178 0128 185231A9 		.ascii	"\030R1\251\346\023\033\022y=\021\214\340G\337g\250\234"
 178      E6131B12 
 178      793D118C 
 178      E047DF67 
 178      A89C
 179 013a 5FB8D4FF 		.ascii	"_\270\324\377\001\266\007q\253\363^]\323\252\263x(\220"
 179      01B60771 
 179      ABF35E5D 
 179      D3AAB378 
 179      2890
 180 014c 18D77853 		.ascii	"\030\327xSz'V\357\347N!\3269\213\003\"\024\201\001\356"
 180      7A2756EF 
 180      E74E21D6 
 180      398B0322 
 180      148101EE 
 181 0160 A63BF981 		.ascii	"\246;\371\201A\320\300\020\247\007_\200$\015r\320\366"
 181      41D0C010 
 181      A7075F80 
 181      240D72D0 
ARM GAS  C:\Users\AMANRA~1\AppData\Local\Temp\cckswGwV.s 			page 14


 181      F6
 182 0171 D6BE357D 		.ascii	"\326\2765}\312$\264\262&\243\227J<\241{a\200\351D\001"
 182      CA24B4B2 
 182      26A3974A 
 182      3CA17B61 
 182      80E94401 
 183 0185 9B1E8614 		.ascii	"\233\036\206\024\302-\337\302\257\347\004\264\300\010"
 183      C22DDFC2 
 183      AFE704B4 
 183      C008
 184 0193 DE1A6F9B 		.ascii	"\336\032o\233@@\345\247sxt).e:\232\255\341\261?z\372"
 184      4040E5A7 
 184      73787429 
 184      2E653A9A 
 184      ADE1B13F 
 185 01a9 DE18D4EC 		.ascii	"\336\030\324\354'<\033\202 \"\271\225F\225\002BV \330"
 185      273C1B82 
 185      2022B995 
 185      46950242 
 185      5620D8
 186 01bc BFDEBEF5 		.ascii	"\277\336\276\365\016\370t\315T\300\014OU0\244\345\244"
 186      0EF874CD 
 186      54C00C4F 
 186      5530A4E5 
 186      A4
 187 01cd 68D5599D 		.ascii	"h\325Y\235\376\301\006)rd\357],\001M+3\253\323R\033"
 187      FEC10629 
 187      7264EF5D 
 187      2C014D2B 
 187      33ABD352 
 188 01e2 B4387144 		.ascii	"\2648qD\304\321\301S\244v\224\367\201\316+\347}>\275"
 188      C4D1C153 
 188      A47694F7 
 188      81CE2BE7 
 188      7D3EBD
 189 01f5 DCCDDC4E 		.ascii	"\334\315\334N\356\333\007\317\240\015\032U\215\300s"
 189      EEDB07CF 
 189      A00D1A55 
 189      8DC073
 190 0204 9011D0B5 		.ascii	"\220\021\320\265Q\355\223\"p4\202\370eb\251]\275\006"
 190      51ED9322 
 190      703482F8 
 190      6562A95D 
 190      BD06
 191 0216 0096082F 		.ascii	"\000\226\010/\260\320\022\270\347F\263\243A\030\321"
 191      B0D012B8 
 191      E746B3A3 
 191      4118D1
 192 0225 1BF6AFC7 		.ascii	"\033\366\257\307G\"\010\274\214^b\035\022\272\230\204"
 192      472208BC 
 192      8C5E621D 
 192      12BA9884 
 193 0235 62090355 		.ascii	"b\011\003U\205\206\201~\177xN\353\370\305t^\252\367"
 193      8586817E 
 193      7F784EEB 
 193      F8C5745E 
 193      AAF7
ARM GAS  C:\Users\AMANRA~1\AppData\Local\Temp\cckswGwV.s 			page 15


 194 0247 5011415F 		.ascii	"P\021A_\201\003efP\343E\322\225\375W\\1\222i\371\207"
 194      81036566 
 194      50E345D2 
 194      95FD575C 
 194      319269F9 
 195 025c 64C654C9 		.ascii	"d\306T\311l\263#b'\343{I\246\331\020\225\214\264[2\207"
 195      6CB32362 
 195      27E37B49 
 195      A6D91095 
 195      8CB45B32 
 196 0271 7D587D82 		.ascii	"}X}\202;5\261\316\225\026\312\241\010L\356\226\314\024"
 196      3B35B1CE 
 196      9516CAA1 
 196      084CEE96 
 196      CC14
 197 0283 2A25C425 		.ascii	"*%\304%\023\332!\231\315\326\217\303\206?j\030W\325"
 197      13DA2199 
 197      CDD68FC3 
 197      863F6A18 
 197      57D5
 198 0295 30ADAA21 		.ascii	"0\255\252!\366\352g\266\257\236\327W\011\221\242\177"
 198      F6EA67B6 
 198      AF9ED757 
 198      0991A27F 
 199 02a5 B7AFC888 		.ascii	"\267\257\310\210\272jQ\340h\302\323\301\214\014\031"
 199      BA6A51E0 
 199      68C2D3C1 
 199      8C0C19
 200 02b4 7F4A89B9 		.ascii	"\177J\211\271\330l\265g\345de\312V\273\254X-\026k\251"
 200      D86CB567 
 200      E56465CA 
 200      56BBAC58 
 200      2D166BA9 
 201 02c8 5C66B595 		.ascii	"\\f\265\225\333\345\243\005\371\271\371\025\030\242"
 201      DBE5A305 
 201      F9B9F915 
 201      18A2
 202 02d6 586DA6A2 		.ascii	"Xm\246\242\263\207,\031\012\321\026\237\260\233\216"
 202      B3872C19 
 202      0AD1169F 
 202      B09B8E
 203 02e5 DBCCFF95 		.ascii	"\333\314\377\225^Br\367J3U\224\363$97\2770\257P\316"
 203      5E4272F7 
 203      4A335594 
 203      F3243937 
 203      BF30AF50 
 204 02fa C52C39AF 		.ascii	"\305,9\257T9}\346\244IV,v\263\275\350\224\242`\215\304"
 204      54397DE6 
 204      A449562C 
 204      76B3BDE8 
 204      94A2608D 
 205 030f FCC20223 		.ascii	"\374\302\002#o\243\314fN7\246f\022\301F\264\026\223"
 205      6FA3CC66 
 205      4E37A666 
 205      12C146B4 
 205      1693
 206 0321 C56A3B47 		.ascii	"\305j;G~\003\322\237\212b"
ARM GAS  C:\Users\AMANRA~1\AppData\Local\Temp\cckswGwV.s 			page 16


 206      7E03D29F 
 206      8A62
 207              		.text
 208              		.section	.gnu.lto_.symbol_nodes.c3dc8938,"",%progbits
 209 0000 789C6363 		.ascii	"x\234cc``\250\001b\006\246\015L\365\014\014\023\316"
 209      6060A801 
 209      6206A60D 
 209      4CF50C0C 
 209      13CE
 210 0012 3130D433 		.ascii	"10\32430\356l9\330\340\300\300\300\270\212\251\236\021"
 210      30EE6C39 
 210      D8E0C0C0 
 210      C0B88AA9 
 210      9E11
 211 0024 2CC6C0D0 		.ascii	",\306\300\320\260\000$\260\232\251\236\011Y\200i9S="
 211      B00024B0 
 211      9AA99E09 
 211      59806939 
 211      533D
 212 0036 335417C3 		.ascii	"3T\027\303\256\006G\240\310\012\246z\026\024\021\306"
 212      AE0647A0 
 212      C80AA67A 
 212      161411C6 
 213 0046 954CF5AC 		.ascii	"\225L\365\2540M c\231\031X\031\236t\275\221gfa`x\364"
 213      304D2063 
 213      99195819 
 213      9E74BD91 
 213      67666160 
 214 005c 52870100 		.ascii	"R\207\001\000\331\374\037\203"
 214      D9FC1F83 
 215              		.text
 216              		.section	.gnu.lto_.refs.c3dc8938,"",%progbits
 217 0000 789C6363 		.ascii	"x\234cc``\340\004b&\006&FQ&&1\006\000\001\265\000D"
 217      6060E004 
 217      62260626 
 217      46512626 
 217      31060001 
 218              		.text
 219              		.section	.gnu.lto_.decls.c3dc8938,"",%progbits
 220 0000 789CBD58 		.ascii	"x\234\275XyPTI\232\257|Y\024U\234.\2623N\0041kt\033"
 220      79505449 
 220      9AAF7C59 
 220      14559C2E 
 220      B2334E04 
 221 0018 D14CC48E 		.ascii	"\321L\304\216\200\332\307l\354\321\212\262\032\033\356"
 221      80DAC76C 
 221      ECD18AB2 
 221      1A1BEE
 222 0027 1030DDBB 		.ascii	"\0200\335\273\275KD\265\015\325\312\256\200]UN\353?"
 222      BD4B44B5 
 222      0DD5CAAE 
 222      805D554E 
 222      EB3F
 223 0039 BB0F4145 		.ascii	"\273\017AE\021EEE<@\001E\016\301\003QQ\271\024\020\001"
 223      11454545 
 223      3C400145 
 223      0EC10351 
ARM GAS  C:\Users\AMANRA~1\AppData\Local\Temp\cckswGwV.s 			page 17


 223      51B91410 
 224 004e B554AEE6 		.ascii	"\265T\256\346\022\271E@\360\004\224\3752\363UU\326\243"
 224      12B94540 
 224      F00494FD 
 224      32F35555 
 224      D6A3
 225 0060 70663B36 		.ascii	"pf;6\366E}\365\336\367\362\227\337\231\307\227O\245"
 225      F6457DF5 
 225      DEF7F297 
 225      DF99C797 
 225      4FA5
 226 0072 5028D6CD 		.ascii	"P(\326\315W(\222\224\012E.R(\246\341\202GE\231\302z"
 226      57289294 
 226      0A452E52 
 226      28A6E182 
 226      474599C2 
 227 0087 A9808A81 		.ascii	"\251\200\212\201n\000\225\002\225\003\335\004\252U\314"
 227      6E009502 
 227      9503DD04 
 227      AA55CC
 228 0096 BC7E0419 		.ascii	"\274~\004\031\036p\377V\301\356\236@\277\204w\277\006"
 228      1E70FF56 
 228      C1EE9E40 
 228      BF8477BF 
 228      06
 229 00a7 FA049EB5 		.ascii	"\372\004\236\265@U@\336\300\377\005\220\011\236\377"
 229      405540DE 
 229      C0FF0590 
 229      099EFF
 230 00b6 01EE7F07 		.ascii	"\001\356\177\007\364\327@K\201\226\001\335\201\367\376"
 230      F4D7404B 
 230      819601DD 
 230      81F7FE
 231 00c5 7027B678 		.ascii	"p'\266x\300\3753 W \005\220\243d\317Jx\376'\240@\304"
 231      C0FD3320 
 231      57200590 
 231      A364CF4A 
 231      78FE27A0 
 232 00db 6C31DB27 		.ascii	"l1\333'\277\266B\273\313\007l\342\365{K6|\205\250*\305"
 232      BFB642BB 
 232      CB076CE2 
 232      F57B4B36 
 232      7C85A82A 
 233 00f0 A788F94F 		.ascii	"\247\210\371O|6\353\372\027\240o\200B\320L];8]\237p"
 233      7C36EBFA 
 233      17A06F80 
 233      42D04C5D 
 233      3B385D9F 
 234 0105 FA7ECDC9 		.ascii	"\372~\315\311\315\006\312\222\364\345\000]en)\016J\276"
 234      CD06CA92 
 234      F4E5005D 
 234      656E290E 
 234      4ABE
 235 0117 91D8E6C1 		.ascii	"\221\330\346\301s\276\244\203\370j\326)\277\2220\272"
 235      73BEA483 
 235      F86AD629 
 235      BF9230BA 
ARM GAS  C:\Users\AMANRA~1\AppData\Local\Temp\cckswGwV.s 			page 18


 236 0127 5A76BDC4 		.ascii	"Zv\275\304\271\003\265!\001\304\314\241o\021b\377p'"
 236      B903B521 
 236      01C4CCA1 
 236      6F1162FF 
 236      7027
 237 0139 44F969F3 		.ascii	"D\371i\363\205\330{x+\260\233\004%\214\271\013\262\274"
 237      85D87B78 
 237      2BB09B04 
 237      258CB90B 
 237      B2BC
 238 014b 11241982 		.ascii	"\021$\031\202Y.\375I\002\020/\225\2653u\346\213y\306"
 238      592EFD49 
 238      02102F95 
 238      B53375E6 
 238      8B79C6
 239 015e 1EB87EEC 		.ascii	"\036\270~\354\225`U\306u\231a\253\302\322l1\312\352"
 239      956055C6 
 239      759961AB 
 239      C2D26C31 
 239      CAEA
 240 0170 249282D0 		.ascii	"$\222\202\320\232?Z\355\320\211\332\241\365\0337E\242"
 240      9A3F5AED 
 240      D089DAA1 
 240      F51B3745 
 240      A2
 241 0181 3A0291B7 		.ascii	":\002\221\267S\0117.\271`\201>7e>}\206\260\027}>YY0"
 241      5309372E 
 241      B960813E 
 241      37653E7D 
 241      86B0177D 
 242 0199 8116E68A 		.ascii	"\201\026\346\212\354Rgc\005\272\204\2609\240\267\246"
 242      EC526763 
 242      05BA84B0 
 242      39A0B7A6 
 243 01a9 5F97BAC7 		.ascii	"_\227\272\307c\344\341\204\004`M\243\265\307\234\201"
 243      63E4E184 
 243      04604DA3 
 243      B5C79C81 
 244 01b9 F5744273 		.ascii	"\365tBs\200\315\3355\235\3440\357 \351\230\030#\316"
 244      80CDDD35 
 244      9DE430EF 
 244      20E99818 
 244      23CE
 245 01cb 11D0B7BF 		.ascii	"\021\320\267\277@W\220\027\272\214\274\300\234\253h"
 245      40579017 
 245      BA8CBCC0 
 245      9CAB68
 246 01da 1EFC472A 		.ascii	"\036\374G*\231\244\243\215\203\011\352\217\322\304\322"
 246      99A4A38D 
 246      8309EA8F 
 246      D2C4D2
 247 01e9 4EB1B4E3 		.ascii	"N\261\264\343\210wj\355\266\270{\320\357[\212C\205\010"
 247      88776AED 
 247      B6B87BD0 
 247      EF5B8A43 
 247      8508
 248 01fb A322B490 		.ascii	"\243\"\264\220xQH\264\243\213\250\023\241\013\250\003"
ARM GAS  C:\Users\AMANRA~1\AppData\Local\Temp\cckswGwV.s 			page 19


 248      785148B4 
 248      A38BA813 
 248      A10BA803 
 249 020b 9C28461F 		.ascii	"\234(F\037A\377gu\347\317\273\343}\210\032\375a\305"
 249      41FF6775 
 249      E7CFBBE3 
 249      7D881AFD 
 249      61C5
 250 021d D76D143F 		.ascii	"\327m\024?\212+\272D\024w\212biU\336\222\367\005\375"
 250      8A2BBA44 
 250      14778A62 
 250      6955DE92 
 250      F705FD
 251 0230 629C1305 		.ascii	"b\234\023\005\241kV\255\327$\237\321\015\252\355qg\346"
 251      A16B56AD 
 251      D7249FD1 
 251      0DAAED71 
 251      67E6
 252 0242 9833EE60 		.ascii	"\2303\356`\332\332\266\356\233r\227$\214\375W\212X."
 252      DADAB6EE 
 252      9B729724 
 252      8CFD578A 
 252      582E
 253 0254 D0DE25D6 		.ascii	"\320\336%\326\336%\346\336\245\264w\326\255\027\231"
 253      DE25E6DE 
 253      A5B477D6 
 253      AD1799
 254 0263 188FB3DE 		.ascii	"\030\217\263\336%c\246\207\216\320;\215:\376E\337EQ"
 254      2563A687 
 254      8ED03B8D 
 254      3AFE45DF 
 254      4551
 255 0275 DC0A762B 		.ascii	"\334\012v+\251\2142\253\2142\271\337\345TV\307\350x"
 255      A98C32AB 
 255      8C32B9DF 
 255      E55456C7 
 255      E878
 256 0287 95339E66 		.ascii	"\2253\236f\262J\337\355}\247\221d\231\376*E,\335\"\212"
 256      B24ADFED 
 256      7DA79164 
 256      99FE2A45 
 256      2CDD228A 
 257 029b D1CC9A0A 		.ascii	"\321\314\232\012\253\244\012\271\244\233TRZ\362\253"
 257      ABA40AB9 
 257      A49B5452 
 257      5AF2AB
 258 02aa 0115DEC7 		.ascii	"\001\025\336\307\206@\335\255\007\311\2168\2272\312"
 258      8640DDAD 
 258      07C98E38 
 258      9732CA
 259 02b9 23372F0D 		.ascii	"#7/\015;#\215\027\202\020\"\357\355\242\010bc\022\347"
 259      3B238D17 
 259      821022EF 
 259      EDA20862 
 259      6312E7
 260 02cc 40CFC55E 		.ascii	"@\317\305^\310\327K\201j\2207\252B\032\220Z\015\220"
 260      C8D74B81 
ARM GAS  C:\Users\AMANRA~1\AppData\Local\Temp\cckswGwV.s 			page 20


 260      6A9037AA 
 260      421A905A 
 260      0D90
 261 02de DB10E514 		.ascii	"\333\020\345\024QM\337\244\210q\2428\207>\2362\217!"
 261      514DDFA4 
 261      8871A238 
 261      873E9E32 
 261      8F21
 262 02f0 056151A5 		.ascii	"\005aQ\245\024\023\226\205\351\312\321\\5\2371\002\261"
 262      14139685 
 262      E9CAD15C 
 262      359F3102 
 262      B1
 263 0301 A6EC8E4D 		.ascii	"\246\354\216M\312\236\365\035\313\324H\001o\254\377"
 263      CA9EF51D 
 263      CBD44801 
 263      6FACFF
 264 0310 DB092965 		.ascii	"\333\011)e\000B\267\254n\3362\007\275\226\272w?\266"
 264      0042B7AC 
 264      6EDE3207 
 264      BD96BA77 
 264      3FB6
 265 0322 E0286643 		.ascii	"\340(fCU\011\354\363\272\224'nl\250\316\007vKq\363^"
 265      5509ECF3 
 265      BA94276E 
 265      6CA8CE07 
 265      764B71F3 
 266 0337 69207712 		.ascii	"i w\022\025\211)\333N\270\340V\026\214\324\326\347y"
 266      158929DB 
 266      4EB8E056 
 266      168CD4D6 
 266      E779
 267 0349 8EB88732 		.ascii	"\216\270\2072B\303t\177\277\023r\361\336I\302\220\026"
 267      42C3747F 
 267      BF1372F1 
 267      DE49C290 
 267      16
 268 035a 236A5692 		.ascii	"#jV\222\321U\017\246\326\201\251\350\001\204B\353\""
 268      D1550FA6 
 268      D681A9E8 
 268      018442EB 
 268      22
 269 036b D9405D2E 		.ascii	"\331@].}\335\266\344\350\015Q\234\217L\310\005\335\267"
 269      7DDDB6E4 
 269      E80D519C 
 269      8F4CC805 
 269      DDB7
 270 037d 1AA87561 		.ascii	"\032\250ua\356\344\236\2719\341\216O`\252\253\350\361"
 270      EEE49EB9 
 270      39E18E4F 
 270      60AAABE8 
 270      F1
 271 038e 81120D33 		.ascii	"\201\022\0153\244\211\360\307Jj\217\250\361i\326\370"
 271      A489F0C7 
 271      4A6A8FA8 
 271      F169D6F8 
 272 039e 22ABECA9 		.ascii	"\"\253\354\251\033\316a\314\203\336\023\261.\014y\217"
ARM GAS  C:\Users\AMANRA~1\AppData\Local\Temp\cckswGwV.s 			page 21


 272      1BCE61CC 
 272      83DE13B1 
 272      2E0C798F 
 273 03ae F087ABCB 		.ascii	"\360\207\253\313\20748\2375>\177\272\373\251\200/0&"
 273      8734389F 
 273      353E7FBA 
 273      FBA9802F 
 273      3026
 274 03c0 FE5661A5 		.ascii	"\376Va\245\344z5\341\333\313\033\216)q\021kL\273\271"
 274      E47A35E1 
 274      DBCB1B8E 
 274      2971116B 
 274      4CBBB9
 275 03d3 7DC41D17 		.ascii	"}\304\035\027K\332\207s\212\\\031\262\224\360\311\367"
 275      4BDA8773 
 275      8A5C19B2 
 275      94F0C9F7 
 276 03e3 AE5D75C5 		.ascii	"\256]u\305%\254\361\346\376\211X\015.gLV\357\321\335"
 276      25ACF1E6 
 276      FE89580D 
 276      2E674C56 
 276      EFD1DD
 277 03f6 92F62F80 		.ascii	"\222\366/\200m\036\036|\357\216o\261\266\224\355CC\030"
 277      6D1E1E7C 
 277      EF8E6FB1 
 277      B694ED43 
 277      4318
 278 0408 5733A6B8 		.ascii	"W3\246\270\350Z\245\003\003\372\002\373\244\271\275"
 278      E85AA503 
 278      03FA02FB 
 278      A4B9BD
 279 0417 D30DDF61 		.ascii	"\323\015\337amM\342\233\026'\\\317\230#\343m\003\222"
 279      6D4DE29B 
 279      16275CCF 
 279      9823E36D 
 279      0392
 280 0429 E7DE645E 		.ascii	"\347\336d^\264\233\306\035\360}\326\226\221\231\324"
 280      B49BC61D 
 280      F07DD696 
 280      9199D4
 281 0438 A2C20F25 		.ascii	"\242\302\017%\337\244\324y\260\324]i<}]\211\033Y\333"
 281      DFA4D479 
 281      B0D45D69 
 281      3C7D5D89 
 281      1B59DB
 282 044b AB849697 		.ascii	"\253\204\226\227N\270\2051\303\261=\235\316\0148\017"
 282      4EB88531 
 282      C3B13D9D 
 282      CE0C380F 
 283 045b D8E8C2F4 		.ascii	"\330\350\302\364=.\270\215\265\035<\224\335\244\301"
 283      3D2EB88D 
 283      B51D3C94 
 283      DDA4C1
 284 046a 5D8C31AF 		.ascii	"]\2141\257[\036l\335zz\264\245\305\005\367\260\266\013"
 284      5B1E6CDD 
 284      7A7AB4A5 
 284      C505F7B0 
ARM GAS  C:\Users\AMANRA~1\AppData\Local\Temp\cckswGwV.s 			page 22


 284      B60B
 285 047c 55CFAB34 		.ascii	"U\317\2534xH\362\254\370E\215\344\214\232x}\257 \336"
 285      7848F2AC 
 285      F8458DE4 
 285      8C9A787D 
 285      AF20DE
 286 048f 0D8FB2B6 		.ascii	"\015\217\262\266m\351\025o]\361\270\024\236\301\216"
 286      6DE9156F 
 286      5DF1B814 
 286      9EC18E
 287 049e 298C5F31 		.ascii	")\214_1f\362\312-Q\215\3372\346tUs\225;\236bL\353\311"
 287      66F2CA2D 
 287      518DDF32 
 287      E6745573 
 287      953B9E62 
 288 04b5 A44C2593 		.ascii	"\244L%\223\327O\370\361\267\317v\011lT\226\252\222\260"
 288      D74FF8F1 
 288      B7CF7609 
 288      6C5496AA 
 288      92B0
 289 04c7 574FDBD8 		.ascii	"WO\333\33037\264\300\336\345=\227\336N\222a\010\013"
 289      3337B4C0 
 289      DEE53D97 
 289      DE4E9261 
 289      080B
 290 04d9 97778BA9 		.ascii	"\227w\213\251_\024\367\271\320A\326\010\203l\2570\327"
 290      5F14F7B9 
 290      D041D608 
 290      836CAF30 
 290      D7
 291 04ea 3A2A1FD1 		.ascii	":*\037\321Y\344\007\177\012\326a\360\367\260:\304b\212"
 291      59E4077F 
 291      0AD661F0 
 291      F7B03AC4 
 291      628A
 292 04fc 7E29478F 		.ascii	"~)G\217\313\321\345\337X\321\275rt\267\034m\342\320"
 292      CBD1E5DF 
 292      58D1BD72 
 292      74B71C6D 
 292      E2D0
 293 050e 4FE4E8C7 		.ascii	"O\344\350\3073,\371W+\372\251\034=H\321\365\310\012"
 293      332CF957 
 293      2BFAA91C 
 293      3D48D1F5 
 293      C80A
 294 0520 AFE1E023 		.ascii	"\257\341\340#r\3703\271\360\011\016\335/G\367\315\020"
 294      72F833B9 
 294      F0090EDD 
 294      2F47F7CD 
 294      10
 295 0531 DEC5C187 		.ascii	"\336\305\301\207\354\333\302\011\037\343\374l\223\243"
 295      ECDBC209 
 295      1FE3FC6C 
 295      93A3
 296 053f 7F92A3BB 		.ascii	"\177\222\243\2738t\247\034\335>#\342\377fE\267\310\321"
 296      3874A71C 
 296      DD3E23E2 
ARM GAS  C:\Users\AMANRA~1\AppData\Local\Temp\cckswGwV.s 			page 23


 296      FF6645B7 
 296      C8D1
 297 0551 4D72740B 		.ascii	"Mrt\013\207n\260\237{\336\315A\316\224\016\373\246\360"
 297      876EB09F 
 297      7BDECD41 
 297      CE940EFB 
 297      A6F0
 298 0563 F0090EDE 		.ascii	"\360\011\016\336j\337O\036>\306\015\255\027\366\207"
 298      6ADF4F1E 
 298      3EC60DAD 
 298      17F687
 299 0572 964D4239 		.ascii	"\226MB9\351=\366\307\226M\2128\351\257\344p\237\031"
 299      E93DF6C7 
 299      964D8A38 
 299      E9AFE470 
 299      9F19
 300 0584 9E7281B9 		.ascii	"\236r\201\271'G\337\235)\234\203?\264\017\347\243\316"
 300      2747DF9D 
 300      299C833F 
 300      B40FE7A3 
 300      CE
 301 0595 99F2DAAE 		.ascii	"\231\362\332\256)\374`\341\206\326\200\375\221H\321"
 301      29FC60E1 
 301      86D680FD 
 301      9148D1
 302 05a4 6CCB68B8 		.ascii	"l\313h\270;'Z\024\021A)\244\355\202\\{\351\376\010\204"
 302      3B275A14 
 302      114129A4 
 302      ED825C7B 
 302      E9FE0884 
 303 05b8 940A3401 		.ascii	"\224\0124\001\275\337\222\336o$q\200C\211\2027\332-"
 303      BDDF92DE 
 303      6F247180 
 303      43898237 
 303      DA2D
 304 05ca 2C40F140 		.ascii	",@\361@Sh\001\332\001\367\203@I@\"\320>\240-@\323\320"
 304      536801DA 
 304      01F78340 
 304      494022D0 
 304      3EA02D40 
 305 05e0 B607EED1 		.ascii	"\266\007\356\321@\357\340y'\334\337\303}?\334c\201\266"
 305      40EFE079 
 305      27DCDFC3 
 305      7D3FDC63 
 305      81B6
 306 05f2 03C500C5 		.ascii	"\003\305\000\305\001m\005:\0004\011\355\333\340\236"
 306      016D053A 
 306      003409ED 
 306      DBE09E
 307 0601 00B44B58 		.ascii	"\000\264KX@-b\31654y\234\214\021\253}\251w\303\366g"
 307      402D62CE 
 307      3534799C 
 307      8C11AB7D 
 307      A977C3F6 
 308 0616 251FE716 		.ascii	"%\037\347\026.\347]\366W\010\036^\316\305\356\271\034"
 308      2EE75DF6 
 308      57081E5E 
ARM GAS  C:\Users\AMANRA~1\AppData\Local\Temp\cckswGwV.s 			page 24


 308      CEC5EEB9 
 308      1C
 309 0627 3E3A7344 		.ascii	">:sDqYl\266?wl\2067\227\3061\373\322if\310\236Tx\276"
 309      71596CB6 
 309      3F776C86 
 309      3797C631 
 309      FBD26966 
 310 0640 57E3C2ED 		.ascii	"W\343\302\355\374<V\201\016\011.\264\340\200;)\013\253"
 310      FC3C5681 
 310      0E092EB4 
 310      E0803B29 
 310      0BAB
 311 0652 CFE4905D 		.ascii	"\317\344\220]\367\023'D\352swx\225?t\345\255+{E\267"
 311      F7132744 
 311      EA737778 
 311      953F74E5 
 311      AD2B7B45 
 312 0667 9D3D6319 		.ascii	"\235=c\031\2168NI\353\212\216\346\311V7\344\344\035"
 312      8E384E49 
 312      EB8A8EE6 
 312      C95637E4 
 312      E41D
 313 0679 6791AEB0 		.ascii	"g\221\256\260\232q\024\322\012\235\310H@\207\005/\224"
 313      9A7114D2 
 313      0A9DC848 
 313      4087052F 
 313      94
 314 068a 2C784923 		.ascii	",xI#\245c\347\307\251\351\273I\275xDpB)\202\245\272"
 314      A563E7C7 
 314      A9E9BB49 
 314      BD784470 
 314      422982A5 
 315 069f F8C489D9 		.ascii	"\370\304\211\331|&c\357I\025\236`J\212\217\364\334\022"
 315      7C2663EF 
 315      49159E60 
 315      4A8A8FF4 
 315      DC12
 316 06b1 6653923A 		.ascii	"fS\222:\273\222\254\217\373\233H\005s\034t\034\263\352"
 316      BB92AC8F 
 316      FB9B4805 
 316      731C741C 
 316      B3EA
 317 06c3 0095E406 		.ascii	"\000\225\344\006oI\255\260\255\365\274\322)\216t`\301"
 317      6F49ADB0 
 317      ADF5BCD2 
 317      298E7460 
 317      C1
 318 06d4 814DCD1A 		.ascii	"\201M\315\032\2334\002\205YA\013:@\227\217\025\234\226"
 318      9B340285 
 318      59410B3A 
 318      40978F15 
 318      9C96
 319 06e6 EA07CC6D 		.ascii	"\352\007\314m\325\236l\253~\364\346\372\204\013\356"
 319      D59E6CAB 
 319      7EF4E6FA 
 319      840BEE
 320 06f5 70A0E567 		.ascii	"p\240\345gnL\366\250\022y\263\362\323\211+#O\2035\351"
ARM GAS  C:\Users\AMANRA~1\AppData\Local\Temp\cckswGwV.s 			page 25


 320      6E4CF6A8 
 320      1279B3F2 
 320      D3892B23 
 320      4F8335E9 
 321 0709 82A58CA4 		.ascii	"\202\245\214\244\265\346\350\177\223\327\264\376$w\352"
 321      B5E6E87F 
 321      93D7B4FE 
 321      2477EA
 322 0718 A8982EE2 		.ascii	"\250\230.\342y\226b5\003\334<M\2559\005Nf\012\324\234"
 322      79966235 
 322      03DC3C4D 
 322      AD39054E 
 322      660AD49C 
 323 072c 94BE9C02 		.ascii	"\224\276\234\002\344\221(\315\257/\021\225}\022\332"
 323      E49128CD 
 323      AF2F1195 
 323      7D12DA
 324 073b 4F08C4FA 		.ascii	"O\010\304\372,\301\303\354\003eH\271\265\255|\273\012"
 324      2CC1C3EC 
 324      036548B9 
 324      B5AD7CBB 
 324      0A
 325 074c 77531351 		.ascii	"wS\023Q\363\301\235C\016\304\367\030\360=\356OF\225"
 325      F3C19D43 
 325      0EC4F718 
 325      F03DEE4F 
 325      4695
 326 075e E4FE79D2 		.ascii	"\344\376y\322Y\027<\310\272'\233\316\2550\367\376\323"
 326      59173CC8 
 326      BA279BCE 
 326      AD30F7FE 
 326      D3
 327 076f 392115F0 		.ascii	"9!\025\360\256\350LW\374\234\365nh<\272C\205_3\346q"
 327      AEE84C57 
 327      FC9CF56E 
 327      683CBA43 
 327      855F33E6 
 328 0784 5BDF4E37 		.ascii	"[\337N7\374\2161{G\307\366\253fMI\2019%>T\346\313\214"
 328      FC8E317B 
 328      47C7F6AB 
 328      664D4981 
 328      39253E54 
 329 079b DC601601 		.ascii	"\334`\026\001\300~\251\244\271\266\202\317\321\010\320"
 329      C07EA9A4 
 329      B9B682CF 
 329      D108D0
 330 07aa 2E045C70 		.ascii	".\004\\p-\366\231T>\227\"Rw]+\215Q\341\355*\242V]U\337"
 330      2DF69954 
 330      3E972252 
 330      775D2B8D 
 330      51E1ED2A 
 331 07c3 1DED4EAA 		.ascii	"\035\355N\252\026(Q\274\241BI\212\021"
 331      162851BC 
 331      A142498A 
 331      11
 332 07d0 4B476EE3 		.ascii	"KGn\343\366\346\254\373\321b\306<\224\015\222/\220Q"
 332      F6E6ACFB 
ARM GAS  C:\Users\AMANRA~1\AppData\Local\Temp\cckswGwV.s 			page 26


 332      D162C63C 
 332      940D922F 
 332      9051
 333 07e2 34FB3C8E 		.ascii	"4\373<\216\205.\246:\00763s\001\177V\216\367\221\303"
 333      852EA63A 
 333      07363373 
 333      017F568E 
 333      F791C3
 334 07f5 BB78788E 		.ascii	"\273xx\216\034\316o<6\313\350y\210*[\241\212\2445\364"
 334      1CCE6F3C 
 334      36CBE879 
 334      882A5BA1 
 334      8AA435F4 
 335 0809 2AC4FC0A 		.ascii	"*\304\374\012\254q\205@\227\201.\001\025\003]\264\254"
 335      AC718540 
 335      97812E01 
 335      15035DB4 
 335      AC
 336 081a 79445D0B 		.ascii	"yD]\013\257.\317\276:\363\372\017S\250\306\014\207@"
 336      AF2ECFBE 
 336      3AF3FA0F 
 336      53A8C60C 
 336      8740
 337 082c A27CBBCE 		.ascii	"\242|\273\316p\353\377\373Z\207\303\344\334Td\273\376"
 337      70EBFFFB 
 337      5A87C3E4 
 337      DC5464BB 
 337      FE
 338 083d B3500ED7 		.ascii	"\263P\016\3279d\303)q\207\212\006\362\214\375@\232\227"
 338      3964C329 
 338      71878A06 
 338      F28CFD40 
 338      9A97
 339 084f AC472F2E 		.ascii	"\254G/.\237P\342{41B\367T\341E\214\346z\333\015\000"
 339      9F50E27B 
 339      343142F7 
 339      54E1458C 
 339      E67ADB0D 
 340 0864 BA017EFF 		.ascii	"\272\001~\377\2711\220\314\254s\210!\333\324u\350u\315"
 340      B93190CC 
 340      AC738821 
 340      DBD475E8 
 340      75CD
 341 0876 BA2C10AB 		.ascii	"\272,\020\253\231\362\222\312\263*~\275\274n\263^\226"
 341      99F292CA 
 341      B32A7EBD 
 341      BC6EB35E 
 341      96
 342 0887 48EB6509 		.ascii	"H\353e\011]/?<XK\315\203\325\227\016\326-\305\303\223"
 342      5D2F3F3C 
 342      584BCD83 
 342      D5970ED6 
 342      2DC5C393 
 343 089b 4AF97CB5 		.ascii	"J\371|\265\236\027\313\350h-e\363\265\214\316\327\007"
 343      9E17CBE8 
 343      682D65F3 
 343      B58CCED7 
ARM GAS  C:\Users\AMANRA~1\AppData\Local\Temp\cckswGwV.s 			page 27


 343      07
 344 08ac 7503A998 		.ascii	"u\003\251\230\267\205\034\027\255\362\313%[\312\251"
 344      B7851C17 
 344      ADF2CB25 
 344      5BCAA9
 345 08bb 2DA95393 		.ascii	"-\251S\223\207\335l\014\267\001WH\340\012\012\216}\331"
 345      87DD6C0C 
 345      B7015748 
 345      E00A0A8E 
 345      7DD9
 346 08cd 70DC1537 		.ascii	"p\334\0257\323\020\243\354\274\343\005n\270\2071\361"
 346      D310A3EC 
 346      BCE3056E 
 346      B88731F1 
 347 08dd E5154755 		.ascii	"\345\025GUJ\001\316\242t\225\2027\275{\372\313\224\374"
 347      4A01CEA2 
 347      74958237 
 347      BD7BFACB 
 347      94FC
 348 08ef 39F7B88D 		.ascii	"9\367\270\215\335U\002\177\316MKh\211\261|\023i\307"
 348      DD55027F 
 348      CE4D4B68 
 348      89B17C13 
 348      69C7
 349 0901 EF8BA660 		.ascii	"\357\213\246`\376x\306\376\206\300\320Ms\274Q\245\240"
 349      FE78C6FE 
 349      86C0D04D 
 349      73BC51A5 
 349      A0
 350 0912 249CED99 		.ascii	"$\234\355\231\276Z \207\336\206VS\262\006\0279\316b"
 350      BE5A2087 
 350      DE865653 
 350      B2061739 
 350      CE62
 351 0924 CDD4D870 		.ascii	"\315\324\330p2\222\024L\374=\373^p\302\211\212\277m"
 351      3292144C 
 351      FC3DFB5E 
 351      70C2898A 
 351      BF6D
 352 0936 115F03E2 		.ascii	"\021_\003\342o\313\305\337\241\342\207N5\316\301e\263"
 352      6FCBC5DF 
 352      A1E2874E 
 352      35CEC165 
 352      B3
 353 0947 49AFCA2A 		.ascii	"I\257\312*,CJ\201m\020\304)xw\350\301\311\253\256\263"
 353      2C434A81 
 353      6D10C429 
 353      7877E8C1 
 353      C9ABAEB3 
 354 095b 7E99B94B 		.ascii	"~\231\271K\335\257\027$\377\007s\247\023\\%\363\206"
 354      DDAF1724 
 354      FF0773A7 
 354      135C25F3 
 354      86
 355 096c 6B7E911E 		.ascii	"k~\221\036#fA\267\014Dp\250\326b`\035\030X+7\360\036"
 355      236641B7 
 355      0C4470A8 
ARM GAS  C:\Users\AMANRA~1\AppData\Local\Temp\cckswGwV.s 			page 28


 355      D662601D 
 355      18582B37 
 356 0982 35B07B32 		.ascii	"5\260{2\357\252tTT\221\375\2736\366\232\363\254C\314"
 356      EFAA7454 
 356      5491FDBB 
 356      36F69AF3 
 356      AC43CC
 357 0995 641E62F7 		.ascii	"d\036b\367\331\"\373b\347\326\327\322\261\331\221;\361"
 357      D922FB62 
 357      E7D6D7D2 
 357      B1D9913B 
 357      F1
 358 09a6 7AB2136F 		.ascii	"z\262\023oNW\322\235\031;\306C\230K\017\350\216\361"
 358      4E57D29D 
 358      193BC643 
 358      984B0FE8 
 358      8EF1
 359 09b8 888E4013 		.ascii	"\210\216@\023\033\201\217\350\010\274\335\235W\016G"
 359      1B818FE8 
 359      08BCDD9D 
 359      570E47
 360 09c7 5F16AEEE 		.ascii	"_\026\256\356\350\222\363J\311\267\252<\33731\361\011"
 360      E892F34A 
 360      C9B7AA3C 
 360      DF3331F1 
 360      09
 361 09d8 625AB4F8 		.ascii	"bZ\264\370%\033j\015\326\311\324 \367\254\221z\326\231"
 361      251B6A0D 
 361      D6C9D420 
 361      F7AC917A 
 361      D699
 362 09ea DAB7DF15 		.ascii	"\332\267\337\025w2a\215\247\256\235\307\2220\323q,%"
 362      7732618D 
 362      A7AE9DC7 
 362      9230D371 
 362      2C25
 363 09fc 927DF869 		.ascii	"\222}\370i\262\212j\222\213j\246\242\032{\313\303\360"
 363      B28A6A92 
 363      8B6AA6A2 
 363      1A7BCBC3 
 363      F0
 364 0a0d D06C59AC 		.ascii	"\320lY\254=\3760_i\035\204?\215\354f\206V\0134\015-"
 364      3DFE305F 
 364      691D843F 
 364      8DEC6686 
 364      560B340D 
 365 0a22 9634FC04 		.ascii	"\2264\374\004ih\221kh\245\032r\353\252Z\245H\306\221"
 365      6968916B 
 365      68A51A72 
 365      EBAA5AA5 
 365      48C691
 366 0a35 DD627AA0 		.ascii	"\335bz\2409]:\352\217\322\023\375\324\261\"\211\367"
 366      395D3AEA 
 366      8FD213FD 
 366      D4B12289 
 366      F7
 367 0a46 04F65D47 		.ascii	"\004\366]Gb\242#\213t\032\201\017%\307\307\270\317\232"
ARM GAS  C:\Users\AMANRA~1\AppData\Local\Temp\cckswGwV.s 			page 29


 367      62A2238B 
 367      741A810F 
 367      25C7C7B8 
 367      CF9A
 368 0a58 B6C7E6B4 		.ascii	"\266\307\346\264\325\261\312\342a[\317A\027kb\330F\326"
 368      D5B1CAE2 
 368      615BCF41 
 368      176B62D8 
 368      46D6
 369 0a6a 0989E9A0 		.ascii	"\011\211\351\240\211\351\242\211yl\336\310\012M\215"
 369      89E9A289 
 369      796CDEC8 
 369      0A4D8D
 370 0a79 AF347882 		.ascii	"\2574x\202y\237\321{nD\303w\315\376P\327K\275\267+\235"
 370      799FD17B 
 370      6E44C377 
 370      CDFE50D7 
 370      4BBDB72B 
 371 0a8e 98992231 		.ascii	"\230\231\"1\263\270\322t\033\341i&\2523\261bzv\233\373"
 371      B3B8D274 
 371      1BE16926 
 371      AA33B162 
 371      7A769BFB 
 372 0aa2 CC369F60 		.ascii	"\3146\237`C\355ebA\200\334\344\036\320\313\326\362~"
 372      43ED6562 
 372      4180DCE4 
 372      1ED0CBD6 
 372      F27E
 373 0ab4 AAB7CFAC 		.ascii	"\252\267\317\254\367\360\261\301\263\202\334\312Y\321"
 373      F7F0B1C1 
 373      B382DCCA 
 373      59D1
 374 0ac2 BDEF2FD4 		.ascii	"\275\357/\3248\342X5\265j\377\27675j\034\247\266\371"
 374      38E25835 
 374      B56AFFBE 
 374      37356A1C 
 374      A7B6F9
 375 0ad5 D8E3297D 		.ascii	"\330\343)}\354\031\317\031\315T\341]Rca\372\210Zn\322"
 375      EC19CF19 
 375      CD54E15D 
 375      526361FA 
 375      885A6ED2 
 376 0ae9 1028613B 		.ascii	"\020(a;\3330\267\300\022\327\2433\036a\271I\263\242"
 376      DB30B7C0 
 376      12D7A333 
 376      1E61B949 
 376      B3A2
 377 0afb 93DF9E18 		.ascii	"\223\337\236\030t\305\211L\321\263\341\251|7|\20019"
 377      74C5894C 
 377      D1B3E1A9 
 377      7C377C80 
 377      3139
 378 0b0d B965F5CE 		.ascii	"\271e\365\3168\2051S\211\251\02748\2151\345\351\307"
 378      38853153 
 378      89A91734 
 378      388D31E5 
 378      E9C7
ARM GAS  C:\Users\AMANRA~1\AppData\Local\Temp\cckswGwV.s 			page 30


 379 0b1f F7697026 		.ascii	"\367ip&c\246\023\343\016;\342l\306$\325'\245;\343|\306"
 379      63A613E3 
 379      0E3BE26C 
 379      C624D527 
 379      A53BE37C 
 380 0b34 4CF62735 		.ascii	"L\366'5#6\222\\\270\317z\236\322g\275\263\257v\037r"
 380      2336925C 
 380      B8CF7A9E 
 380      D267BDB3 
 380      AF761F72 
 381 0b48 C6850CDB 		.ascii	"\306\205\014\333\330\034{E\302:\003\033\223{\343\222"
 381      D81C7B45 
 381      C23A031B 
 381      937BE392 
 382 0b58 C3AC199B 		.ascii	"\303\254\031\2334gl\202e,\177k\367\0315t\366\202\352"
 382      34676C82 
 382      652C7F6B 
 382      F7193574 
 382      F682EA
 383 0b6b 1E71A5BD 		.ascii	"\036q\245\275\027+\355/\226\216\347)\361\025\252H8\227"
 383      172BED2F 
 383      968EE729 
 383      F115AA48 
 383      3897
 384 0b7d D7FD1FC8 		.ascii	"\327\375\037\310\333\311R\260\3774Jji\021;\241\367\326"
 384      DBC952B0 
 384      FF344A6A 
 384      69113BA1 
 384      F7D6
 385 0b8f C9E94582 		.ascii	"\311\351E\202c\247\\\235\206\235\330K\252\000\337AD"
 385      63A75C9D 
 385      869DD84B 
 385      AA00DF41 
 385      44
 386 0ba0 A798FE33 		.ascii	"\247\230\3763\251Y7]q\005S\320\2367R\217\255\032\262"
 386      A959375D 
 386      710553D0 
 386      9E37528F 
 386      AD1AB2
 387 0bb3 3EBEDC40 		.ascii	">\276\334@4\304\200\206hl\321\000\012\355\253\330\202"
 387      34C48086 
 387      686CD100 
 387      0AEDABD8 
 387      82
 388 0bc4 EDAA4838 		.ascii	"\355\252H8\233Q\242\342W8\"\357\015\264\277\246\263"
 388      9B51A2E2 
 388      573822EF 
 388      0DB4BFA6 
 388      B3
 389 0bd5 21167B98 		.ascii	"!\026{\230\343Bw\344\233;\236\"V\304\376Y\322\353{\343"
 389      E34277E4 
 389      9B3B9E22 
 389      56C4FE59 
 389      D2EB7BE3 
 390 0be9 EF3AF3D2 		.ascii	"\357:\363\322\267~H\372uS\353\227\370\016\313\333\313"
 390      B77E48FA 
 390      7553EB97 
ARM GAS  C:\Users\AMANRA~1\AppData\Local\Temp\cckswGwV.s 			page 31


 390      F80ECBDB 
 390      CB
 391 0bfa FAD6C708 		.ascii	"\372\326\307\010\337eL\354\235\333\247\035\361\003\306"
 391      DF654CEC 
 391      9DDBA71D 
 391      F103C6
 392 0c09 0C9DA9AB 		.ascii	"\014\235\251\253V\341f\306t\367N\\\306\270\2351\247"
 392      56E166C6 
 392      74F74E5C 
 392      C6B89D31 
 392      A7
 393 0c1a 864E2668 		.ascii	"\206N&h\360\023\251O\367p\275\364\271o\027\311\335\344"
 393      F013A94F 
 393      F770BDF4 
 393      B96F17C9 
 393      DDE4
 394 0c2c E8A587E6 		.ascii	"\350\245\207\346QB>\353\015\276\354\231V\343\001\012"
 394      51423EEB 
 394      0DBEEC99 
 394      56E3010A 
 395 0c3c FEE53953 		.ascii	"\376\3459Sm\232F*f\255\037\337\244;\024d\321\264\266"
 395      6D9A462A 
 395      66AD1FDF 
 395      A43B1464 
 395      D1B4B6
 396 0c4f 3D72B706 		.ascii	"=r\267\006\206M9B\003P\336\365BV\367\343\271\2269i\373"
 396      864D3942 
 396      0350DEF5 
 396      4256F7E3 
 396      B9963969 
 397 0c64 C126167A 		.ascii	"\301&\026z\224o\202\277h\214\266a\017\364VB\233}\267"
 397      946F82BF 
 397      688CB661 
 397      0FF45642 
 397      9B7DB7
 398 0c77 FD8A450A 		.ascii	"\375\212E\012>\323fV:\222I5(\241\355~\200\261\251\353"
 398      3ED36656 
 398      3A924935 
 398      28A1ED7E 
 398      80B1A9EB 
 399 0c8b 76632F94 		.ascii	"vc/\224\200I#\301\223\242.\0252q\022/@\007\201\322\200"
 399      804923C1 
 399      93A22E15 
 399      3271122F 
 399      400781D2 
 400 0ca0 32819281 		.ascii	"2\201\222\201\016\003\355\005:\001\224\016t\024\350"
 400      0E03ED05 
 400      3A01940E 
 400      7414E8
 401 0caf 38D031A0 		.ascii	"8\3201\240$\240\014\240S@\207\200\366\001%\002\035\000"
 401      24A00CA0 
 401      53408780 
 401      F6012502 
 401      1D00
 402 0cc1 3A029482 		.ascii	":\002\224\202\371\242xl\223\265&~.\267\324\346\323\037"
 402      F9A2786C 
 402      93B5267E 
ARM GAS  C:\Users\AMANRA~1\AppData\Local\Temp\cckswGwV.s 			page 32


 402      2EB7D4E6 
 402      D31F
 403 0cd3 895BD7E6 		.ascii	"\211[\327\346h\212\356\206\230=\221\320\346\325\326"
 403      688AEE86 
 403      983D91D0 
 403      E6D5D6
 404 0ce2 F6730B2D 		.ascii	"\366s\013-\270\243\254\262\343\261L\266\315i\200\304"
 404      B8A3ACB2 
 404      E3B14CB6 
 404      CD6980C4 
 405 0cf2 AC868BD9 		.ascii	"\254\206\213\331S\3731\343d\217q\262\343\344\262G\345"
 405      53FB31E3 
 405      648F71B2 
 405      E3E4B247 
 405      E5
 406 0d03 E8090EBD 		.ascii	"\350\011\016\275\335>\232?\230\214m\266\302\367\310"
 406      DD3E9A3F 
 406      988C6DB6 
 406      C2F7C8
 407 0d12 E16D82EC 		.ascii	"\341m\202\354\2400(\005\245K:'\330\004\245]\220\013"
 407      A0302805 
 407      A54B3A27 
 407      D804A55D 
 407      900B
 408 0d24 6FE122FE 		.ascii	"o\341\"\376B\356g\337\014[\0069\370\230\034\336=\003"
 408      42EE67DF 
 408      0C5B0639 
 408      F8981CDE 
 408      3D03
 409 0d36 DEC5C1C7 		.ascii	"\336\305\301\307\355\303\271SK\345\210\007\375j\005"
 409      EDC3B953 
 409      4BE58807 
 409      FD6A05
 410 0d45 28DB530B 		.ascii	"(\333S\013\021\325;\342\311\276\021\021Y;\345a\030\227"
 410      11D53BE2 
 410      C9BE1111 
 410      593BE561 
 410      1897
 411 0d57 C7B886D3 		.ascii	"\307\270\206\323\374J\256\331\366\2630\235\"Q\326t\357"
 411      FC4AAED9 
 411      F6B3309D 
 411      2251D674 
 411      EF
 412 0d68 B23B3838 		.ascii	"\262;88\331&N\366K\3731\343\263\315\241G\355\217i\233"
 412      D9264EF6 
 412      4BFB31E3 
 412      B3CDA147 
 412      ED8F699B 
 413 0d7c 08738363 		.ascii	"\010s\203c\207}7-\206\223\225@J\367\010\244\373\231"
 413      877D372D 
 413      86939540 
 413      4AF708A4 
 413      FB99
 414 0d8e 24DDBC71 		.ascii	"$\335\274q\362\237\205\311\212\331q\240^\211G\330\222"
 414      F29F85C9 
 414      8AD971A0 
 414      5E8947D8 
ARM GAS  C:\Users\AMANRA~1\AppData\Local\Temp\cckswGwV.s 			page 33


 414      92
 415 0d9f DF367031 		.ascii	"\3376p1\336Y~\2243Oyt\006f\372\377\307\254\227\216\201"
 415      DE597E94 
 415      334F7974 
 415      0666FAFF 
 415      C7AC978E 
 416 0db4 6F55A2A8 		.ascii	"oU\242\250FY\240\360\264u\273!\243\200\332\235\336\333"
 416      4659A0F0 
 416      B475BB21 
 416      A380DA9D 
 416      DEDB
 417 0dc6 55A1E40F 		.ascii	"U\241\344\017SY\230?\005fcv\230\202\273\275\223\327"
 417      5359983F 
 417      05666376 
 417      9882BBBD 
 417      93D7
 418 0dd8 559B9357 		.ascii	"U\233\223W\216\004\316\241\340\212W\015y\216\370\015"
 418      8E04CEA1 
 418      E08A570D 
 418      798EF80D 
 419 0de8 5BD5DFC6 		.ascii	"[\325\337\306\014<t\262T\324\013\262l+\352\\\253a\360"
 419      0C3C74B2 
 419      54D40BB2 
 419      6C2BEA5C 
 419      AB61F0
 420 0dfb 685BA4E6 		.ascii	"h[\244\346aR\244\236z\375&\336\015\307k\250\260\201"
 420      6152A49E 
 420      7AFD26DE 
 420      0DC76BA8 
 420      B081
 421 0e0d E36385CE 		.ascii	"\343c\205\316\346\212\372\210mE}\326*\352\254\\T>\376"
 421      E68AFA88 
 421      6D457DD6 
 421      2AEAAC5C 
 421      543EFE
 422 0e20 48F12BED 		.ascii	"H\361+\355\206(\275Q\033\256\377A\253\333\020\276>j"
 422      8628BD51 
 422      1BAEFF41 
 422      ABDB10BE 
 422      3E6A
 423 0e32 ED46DDC2 		.ascii	"\355F\335\302\015k\364\306\205\276\237.\\\350\003\277"
 423      0D6BF4C6 
 423      85BE9F2E 
 423      5CE803BF 
 424 0e42 D075E1DF 		.ascii	"\320u\341\337\205G\031\374~\347\347\353\023e\360\011"
 424      854719FC 
 424      7EE7E7EB 
 424      1365F009 
 425 0e52 8D8A8888 		.ascii	"\215\212\210\210\212\364!\235\014>K\203V\373\257\336"
 425      8AF4219D 
 425      0C3E4B83 
 425      56FBAFDE 
 426 0e62 0490D028 		.ascii	"\004\220\320(\275N\373\307\317#\026\206\252\377\361"
 426      BD4EFBC7 
 426      CF231686 
 426      AAFFF1
 427 0e71 9FBF9AEF 		.ascii	"\237\277\232\357\357\347\247\370\354guW\374%\263\307"
ARM GAS  C:\Users\AMANRA~1\AppData\Local\Temp\cckswGwV.s 			page 34


 427      EFE7A7F8 
 427      EC677557 
 427      FC25B3C7 
 428 0e81 F063B831 		.ascii	"\360c\2701t\235\366{}T\2046\334\240\377Y\302\326)\346"
 428      749DF67B 
 428      7D548436 
 428      DCA0FF59 
 428      C2D629E6 
 429 0e95 3261BA4D 		.ascii	"2a\272M\341F\213(\347\340\257\375\265+\327D\206\255"
 429      E1468B28 
 429      E7E0AFFD 
 429      B52BD744 
 429      86AD
 430 0ea7 D7E93D66 		.ascii	"\327\351=f:\377\253\320u\301\241\353V\031\002\365:]"
 430      3AFFABD0 
 430      75C1A1EB 
 430      561902F5 
 430      3A5D
 431 0eb9 C4066378 		.ascii	"\304\006cxTd\220\356\207\215\341z]\230\203vYT\324\372"
 431      546490EE 
 431      878DE17A 
 431      5D988376 
 431      5954D4FA 
 432 0ecd DFD8B544 		.ascii	"\337\330\265Do\364\011\217\014]\2771L\007-\206\320u"
 432      6FF4098F 
 432      0C5DBF31 
 432      4C072D86 
 432      D075
 433 0edf 61A05CAD 		.ascii	"a\240\\\255\327\031t\372?\352\302\340a\355\032}\204"
 433      D71974FA 
 433      3FEAC2E0 
 433      61ED1A7D 
 433      84
 434 0ef0 D6B8E87F 		.ascii	"\326\270\350\177\351\005\010q\370~\203!T\217\015~\237"
 434      E9050871 
 434      F87E8321 
 434      548F0D7E 
 434      9F
 435 0f01 022D015A 		.ascii	"\002-\001Z\014\264\010\310\017\310W0\374N0|!\030>\027"
 435      0CB408C8 
 435      0FC85730 
 435      FC4E307C 
 435      21183E17 
 436 0f15 0C9F0986 		.ascii	"\014\237\011\206O\005\303\022\301\260X0,\022\014~\202"
 436      4F05C312 
 436      C1B05830 
 436      2C120C7E 
 436      82
 437 0f26 C157B969 		.ascii	"\301W\271i\203A/l\010U\255\327k\215\353\302\260\336"
 437      83412F6C 
 437      0855ADD7 
 437      6B8DEBC2 
 437      B0DE
 438 0f38 6F91A05F 		.ascii	"o\221\240_,\350\341\337O\320\373:K\2611\206\03279i\265"
 438      2CE8E1DF 
 438      4FD0FB3A 
 438      4BB13186 
ARM GAS  C:\Users\AMANRA~1\AppData\Local\Temp\cckswGwV.s 			page 35


 438      1A373969 
 439 0f4d 1BC3238D 		.ascii	"\033\303#\215\213\027i\215\337\207\376M\010\265\320"
 439      8B17698D 
 439      DF87FE4D 
 439      08B5D0
 440 0f5c 60DC1816 		.ascii	"`\334\030\026\036\025b\004\247\015!k#7\316\247O\363"
 440      1E156204 
 440      A70D216B 
 440      2337CEA7 
 440      4FF3
 441 0f6e C193F9BA 		.ascii	"\301\223\371\272\210\357taa\272\260\220\317\027\372"
 441      88EF7461 
 441      61BAB090 
 441      CF17FA
 442 0f7d CE5FE4EB 		.ascii	"\316_\344\353\367\371\017KB\340\375o#\243\"u\277\325"
 442      F7F90F4B 
 442      42E0FD6F 
 442      23A32275 
 442      BFD5
 443 0f8f ADF92E3C 		.ascii	"\255\371.<D\212FH\304\032\220\025\251\013\321\206\351"
 443      448A4648 
 443      C41A9015 
 443      A90BD186 
 443      E9
 444 0fa0 BE5FB371 		.ascii	"\276_\263q\275Qk\334\274Ag \3211\353\373\367\377S}\206"
 444      BD516BDC 
 444      BC416720 
 444      D131EBFB 
 444      F7FF537D 
 445 0fb5 CD8610AD 		.ascii	"\315\206\020\255\301\030\006\302A\2112t\335\032\275"
 445      C11806C2 
 445      41893274 
 445      DD1ABD
 446 0fc4 C3EAAF03 		.ascii	"\303\352\257\003\202|U\001\201\313\203\375\203\034\002"
 446      827C5501 
 446      81CB83FD 
 446      831C02
 447 0fd3 02FD97D2 		.ascii	"\002\375\227\322\177\377 M\320\212\340\025A_\257X\356"
 447      7FFF204D 
 447      D08AE015 
 447      415FAF58 
 447      EE
 448 0fe4 4B217ECB 		.ascii	"K!~\313>\224\036\210\023I\216\217\377\352\340U\301>"
 448      3E941E88 
 448      13498E8F 
 448      FFEAE055 
 448      C13E
 449 0ff6 FE901D9F 		.ascii	"\376\220\035\237U\346\214\223\001\027"
 449      55E68C93 
 449      0117
 450 1000 1AB18478 		.ascii	"\032\261\204x\025\020\370\225\366\017\340\242\263V\273"
 450      1510F895 
 450      F60FE0A2 
 450      B356BB
 451 100f 5667D406 		.ascii	"Vg\324\006\004\202N\3275\353\177\\\263\331\240\015\217"
 451      04824ED7 
 451      35EB7F5C 
ARM GAS  C:\Users\AMANRA~1\AppData\Local\Temp\cckswGwV.s 			page 36


 451      B3D9A00D 
 451      8F
 452 1020 5C0FA1F0 		.ascii	"\\\017\241\360\377\271Z\"\014\341\006\355\332\320PP"
 452      FFB95A22 
 452      0CE106ED 
 452      DAD05050 
 453 1030 A361D203 		.ascii	"\243a\322\003\203\003\341\311\300\236<i:7F\256\217\012"
 453      8303E1C9 
 453      C09E3C69 
 453      3A3746AE 
 453      8F0A
 454 1042 FD4FEB60 		.ascii	"\375O\353`\347^\2722\350\262\245\301+\002\203V)W\005"
 454      E75EBA32 
 454      E8B2A5C1 
 454      2B028356 
 454      295705
 455 1055 2F0D52AE 		.ascii	"/\015R\256^\035\020\204\227.\017\302\313\341\036\030"
 455      5E1D1084 
 455      972E0FC2 
 455      CBE11E18 
 456 1065 10A45C1A 		.ascii	"\020\244\\\032\020\034\244\\\026\000!\202&\000,'\374"
 456      101CA45C 
 456      16002182 
 456      26002C27 
 456      FC
 457 1076 4AF2E70F 		.ascii	"J\362\347\017\177\016\301+\375\203\203p\360J\242\227"
 457      7F0EC12B 
 457      FD838370 
 457      F04AA297 
 458 1086 24F00BAD 		.ascii	"$\360\013\255\321Q\272c\210(&\021^\272*\310?H\371\365"
 458      D151BA63 
 458      88282611 
 458      5EBA2AC8 
 458      3F48F9F5 
 459 109a 1F7E1FA4 		.ascii	"\037~\037\244\\\005h\007\377\300\257V-\207\377\245\376"
 459      5C056807 
 459      FFC0AF56 
 459      2D87FFA5 
 459      FE
 460 10ab 41EA60FF 		.ascii	"A\352`\377e4<\036\324.\033S5\226W\377\003\223\374\310"
 460      65343C1E 
 460      D42E1B53 
 460      359657FF 
 460      0393FCC8 
 461 10bf 74       		.ascii	"t"
 462              		.text
 463              		.section	.gnu.lto_.symtab.c3dc8938,"",%progbits
 464 0000 5356435F 		.ascii	"SVC_Handler\000"
 464      48616E64 
 464      6C657200 
 465 000c 00       		.ascii	"\000"
 466 000d 00       		.ascii	"\000"
 467 000e 00       		.ascii	"\000"
 468 000f 00000000 		.ascii	"\000\000\000\000\000\000\000\000"
 468      00000000 
 469 0017 C2000000 		.ascii	"\302\000\000\000"
 470 001b 5F706F72 		.ascii	"_port_irq_epilogue\000"
ARM GAS  C:\Users\AMANRA~1\AppData\Local\Temp\cckswGwV.s 			page 37


 470      745F6972 
 470      715F6570 
 470      696C6F67 
 470      756500
 471 002e 00       		.ascii	"\000"
 472 002f 00       		.ascii	"\000"
 473 0030 00       		.ascii	"\000"
 474 0031 00000000 		.ascii	"\000\000\000\000\000\000\000\000"
 474      00000000 
 475 0039 C4000000 		.ascii	"\304\000\000\000"
 476 003d 5F706F72 		.ascii	"_port_switch_from_isr\000"
 476      745F7377 
 476      69746368 
 476      5F66726F 
 476      6D5F6973 
 477 0053 00       		.ascii	"\000"
 478 0054 02       		.ascii	"\002"
 479 0055 00       		.ascii	"\000"
 480 0056 00000000 		.ascii	"\000\000\000\000\000\000\000\000"
 480      00000000 
 481 005e BE000000 		.ascii	"\276\000\000\000"
 482 0062 5F706F72 		.ascii	"_port_exit_from_isr\000"
 482      745F6578 
 482      69745F66 
 482      726F6D5F 
 482      69737200 
 483 0076 00       		.ascii	"\000"
 484 0077 02       		.ascii	"\002"
 485 0078 00       		.ascii	"\000"
 486 0079 00000000 		.ascii	"\000\000\000\000\000\000\000\000"
 486      00000000 
 487 0081 C0000000 		.ascii	"\300\000\000\000"
 488 0085 63685363 		.ascii	"chSchIsPreemptionRequired\000"
 488      68497350 
 488      7265656D 
 488      7074696F 
 488      6E526571 
 489 009f 00       		.ascii	"\000"
 490 00a0 02       		.ascii	"\002"
 491 00a1 00       		.ascii	"\000"
 492 00a2 00000000 		.ascii	"\000\000\000\000\000\000\000\000"
 492      00000000 
 493 00aa CC000000 		.ascii	"\314\000\000\000"
 494              		.text
 495              		.section	.gnu.lto_.opts,"",%progbits
 496 0000 272D666D 		.ascii	"'-fmath-errno' '-fsigned-zeros' '-ftrapping-math' '"
 496      6174682D 
 496      6572726E 
 496      6F272027 
 496      2D667369 
 497 0033 2D666E6F 		.ascii	"-fno-trapv' '-fno-openmp' '-fno-openacc' '-mcpu=cor"
 497      2D747261 
 497      70762720 
 497      272D666E 
 497      6F2D6F70 
 498 0066 7465782D 		.ascii	"tex-m4' '-mthumb' '-mfloat-abi=hard' '-mfpu=fpv4-sp"
 498      6D342720 
ARM GAS  C:\Users\AMANRA~1\AppData\Local\Temp\cckswGwV.s 			page 38


 498      272D6D74 
 498      68756D62 
 498      2720272D 
 499 0099 2D643136 		.ascii	"-d16' '-O2' '-fomit-frame-pointer' '-falign-functio"
 499      2720272D 
 499      4F322720 
 499      272D666F 
 499      6D69742D 
 500 00cc 6E733D31 		.ascii	"ns=16' '-ffunction-sections' '-fdata-sections' '-fn"
 500      36272027 
 500      2D666675 
 500      6E637469 
 500      6F6E2D73 
 501 00ff 6F2D636F 		.ascii	"o-common' '-flto'\000"
 501      6D6D6F6E 
 501      2720272D 
 501      666C746F 
 501      2700
 502              		.text
 503              		.comm	__gnu_lto_v1,1,1
 504              		.comm	__gnu_lto_slim,1,1
 505              		.ident	"GCC: (GNU Tools for Arm Embedded Processors 7-2017-q4-major) 7.2.1 20170904 (release) [ARM
ARM GAS  C:\Users\AMANRA~1\AppData\Local\Temp\cckswGwV.s 			page 39


DEFINED SYMBOLS
                            *ABS*:00000000 chcore_v7m.c
                            *COM*:00000001 __gnu_lto_v1
                            *COM*:00000001 __gnu_lto_slim

NO UNDEFINED SYMBOLS
