ARM GAS  C:\Users\AMANRA~1\AppData\Local\Temp\cck7hb2g.s 			page 1


   1              		.cpu cortex-m4
   2              		.eabi_attribute 27, 1
   3              		.eabi_attribute 28, 1
   4              		.eabi_attribute 20, 1
   5              		.eabi_attribute 21, 1
   6              		.eabi_attribute 23, 3
   7              		.eabi_attribute 24, 1
   8              		.eabi_attribute 25, 1
   9              		.eabi_attribute 26, 1
  10              		.eabi_attribute 30, 2
  11              		.eabi_attribute 34, 1
  12              		.eabi_attribute 18, 4
  13              		.file	"hal_usb_lld.c"
  14              		.section	.gnu.lto_.profile.c3dc9563,"",%progbits
  15 0000 789C6363 		.ascii	"x\234cc```\003bF\206S\234\353\330\000\005I\001\225"
  15      60606003 
  15      62468653 
  15      9CEBD800 
  15      05490195 
  16              		.text
  17              		.section	.gnu.lto_.icf.c3dc9563,"",%progbits
  18 0000 789C6363 		.ascii	"x\234cc``\330\315\200\000\362\014\347\332>\\\341`\374"
  18      6060D8CD 
  18      8000F20C 
  18      E7DA3E5C 
  18      E160FC
  19 0013 3CE3F877 		.ascii	"<\343\370w6\246\327S6_\344c\356X\262\367(/\313\306\003"
  19      36A6D753 
  19      365FE463 
  19      EE58B2F7 
  19      282FCBC6 
  20 0028 E77633B3 		.ascii	"\347v3\263\336;r\367.\013\333\266c\313\317\262\262\277"
  20      DE3B72F7 
  20      2E0BDBB6 
  20      63CBCFB2 
  20      B2BF
  21 003a 9976F503 		.ascii	"\231v\365\003'G\343\336\033=\254\234k7O\232\311\315"
  21      2747E3DE 
  21      1B3DAC9C 
  21      6B374F9A 
  21      C9CD
  22 004c 7571D6A9 		.ascii	"uq\326\251_l\334\023w\354\344\345\271z\265o\006;\357"
  22      5F6CDC13 
  22      77ECE4E5 
  22      B97AB56F 
  22      063BEF
  23 005f C9676F4F 		.ascii	"\311goO2\362\315\374\263\245\225\225\377\376\221\346"
  23      32F2CDFC 
  23      B3A59595 
  23      FFFE91E6 
  24 006f CF5C02D3 		.ascii	"\317\\\002\323'}{\313(\010&\205\276\266\256=\314&|\266"
  24      277D7BCB 
  24      28082685 
  24      BEB6AE3D 
  24      CC267CB6 
  25 0083 F5D81666 		.ascii	"\365\330\026f\221%\007N\315\345\023\375\264v\3232f\261"
  25      9125074E 
ARM GAS  C:\Users\AMANRA~1\AppData\Local\Temp\cck7hb2g.s 			page 2


  25      CDE513FD 
  25      B476D332 
  25      66B1
  26 0095 9D2FDEAF 		.ascii	"\235/\336\257a\021\377\363i\321!>\211\375o\337.b\223"
  26      6111FFF3 
  26      69D1213E 
  26      89FD6FDF 
  26      2E6293
  27 00a8 6C6D9AB8 		.ascii	"lm\232\270\222]\012LJo\276\276\373;\213\014\230Tx\364"
  27      925D0A4C 
  27      4A6FBEBE 
  27      FB3B8B0C 
  27      985478F4 
  28 00bc B36B0DBF 		.ascii	"\263k\015\277b\377\337\367\317y\031\000*\376_u"
  28      62FFDFF7 
  28      CF791900 
  28      2AFE5F75 
  29              		.text
  30              		.section	.gnu.lto_.jmpfuncs.c3dc9563,"",%progbits
  31 0000 789CC554 		.ascii	"x\234\305TKK\0031\020\236/\331\266k\255\255\326w\355"
  31      4B4B0331 
  31      109E2FD9 
  31      B66BADAD 
  31      D677ED
  32 0013 A17FB3A7 		.ascii	"\241\177\263\247\025D\304\007\236T\020\026\024<I\275"
  32      1544C407 
  32      9E541016 
  32      143C49BD 
  33 0023 145BB56A 		.ascii	"\024[\265jE\354\325\307\315\007\376\002A\257\036D\321"
  33      45ECD5C7 
  33      CD07FE02 
  33      41AF1E44 
  33      D1
  34 0034 243B2D61 		.ascii	"$;-a\333m\027\021\014\004v2\3377\363\315L6I\"zIPg\025"
  34      DB6D1711 
  34      0C047632 
  34      DF37F3CD 
  34      4C364922 
  35 004d 0880E74B 		.ascii	"\010\200\347K\202\000\244\376P[\177\233CG\224\025\006"
  35      8200A4FE 
  35      505B7F9B 
  35      43479415 
  35      06
  36 005e 970E48ED 		.ascii	"\227\016H\355o\265r\266\015\362J2.T`Cb\363\246\371("
  36      6FB572B6 
  36      0DF24A32 
  36      2E546043 
  36      62F3A6F9 
  37 0073 57A52F05 		.ascii	"W\245/\005\3628D\321\000\362\032\024'\227\023\344R\344"
  37      F23844D1 
  37      00F21A14 
  37      279713E4 
  37      52E4
  38 0085 10D7C45E 		.ascii	"\020\327\304^h=U\335 v\0065\366g\214?\301\220\275\367"
  38      683D55DD 
  38      20760635 
  38      F6678C3F 
ARM GAS  C:\Users\AMANRA~1\AppData\Local\Temp\cck7hb2g.s 			page 3


  38      C190BDF7 
  39 0099 DA6D5643 		.ascii	"\332mVC\034\264\010u\306\264\310\200\222\014j4^\237"
  39      1CB40875 
  39      C6B4C880 
  39      920C6A34 
  39      5E9F
  40 00ab 53DED7BC 		.ascii	"S\336\327\274\253\252\332\225Z\303\021\274\216\220O"
  40      ABAADA95 
  40      5AC311BC 
  40      8E904F
  41 00ba 2D0C42E1 		.ascii	"-\014B\341\266\026\257\356R:\030\201p\214\242\336C\334"
  41      B616AFEE 
  41      523A1881 
  41      708CA2DE 
  41      43DC
  42 00cc 0D11AE44 		.ascii	"\015\021\256DI\017\245\323\251\336\356+\0072\320\223"
  42      490FA5D3 
  42      A9DEEE2B 
  42      0732D093 
  43 00dc C509FBB3 		.ascii	"\305\011\373\263\306\235\346H4\334\016\331]t\350`\204"
  43      C69DE648 
  43      34DC0ED9 
  43      5D74E860 
  43      84
  44 00ed 91D9D028 		.ascii	"\221\331\320(\007\320rL\033\265ic\266\221\327CN\265"
  44      07D0724C 
  44      1BB56963 
  44      B691D743 
  44      4EB5
  45 00ff 2DF83291 		.ascii	"-\3702\221\024e\201\350a\031[\027\270\362\361\260nf"
  45      146581E8 
  45      61195B17 
  45      B8F2F1B0 
  45      6E66
  46 0111 92848B06 		.ascii	"\222\204\213\006\247uM\332q;\303\204m\364\272\011\260"
  46      A7754DDA 
  46      713BC384 
  46      6DF4BA09 
  46      B0
  47 0122 1B0E95FA 		.ascii	"\033\016\225\372\224\203Q\344\345\021e\204\357O,\324"
  47      948351E4 
  47      E5116584 
  47      EF4F2CD4 
  48 0132 A4AD656A 		.ascii	"\244\255ej\220\2600\377\2570^i\272\317\237\245\333\261"
  48      90B030FF 
  48      AF305E69 
  48      BACF9FA5 
  48      DBB1
  49 0144 EC6F57B8 		.ascii	"\354oW\270\035\022g\334\016\031\331\016M9\337Y\333O"
  49      1D1267DC 
  49      0E19D90E 
  49      4D39DF59 
  49      DB4F
  50 0156 07148173 		.ascii	"\007\024\201s\246\210\276\224\372\322u\225)@\223)\210"
  50      A688BE94 
  50      FAD27595 
  50      29409329 
ARM GAS  C:\Users\AMANRA~1\AppData\Local\Temp\cck7hb2g.s 			page 4


  50      88
  51 0167 A6C4180C 		.ascii	"\246\304\030\014\342\250\215#\357\027zD\257\326\377"
  51      E2A88D23 
  51      EF177A44 
  51      AFD6FF
  52 0176 D399579A 		.ascii	"\323\231W\232\241\3107\347\242\373\315i?2\263\366\235"
  52      A1C837E7 
  52      A2FBCD69 
  52      3F32B3F6 
  52      9D
  53 0187 2CD8C69C 		.ascii	",\330\306\234m\024m\203~\000\235\360i\313"
  53      6D146D83 
  53      7E009DF0 
  53      69CB
  54              		.text
  55              		.section	.gnu.lto_.inline.c3dc9563,"",%progbits
  56 0000 789C9D94 		.ascii	"x\234\235\224\317KTQ\024\307\277\347\276\237\363fF\337"
  56      CF4B5451 
  56      14C7BFE7 
  56      BE9FF366 
  56      46DF
  57 0012 8C9ABF26 		.ascii	"\214\232\277&\035\304\022\023\304J\354\007\031\272k"
  57      1DC41213 
  57      C44AEC07 
  57      19BA6B
  58 0021 E5228816 		.ascii	"\345\"\210\026m\002wJ\377@\033\037D(H bE\344bh\221-"
  58      6D02774A 
  58      FF401B1F 
  58      44284820 
  58      6245E462 
  59 0038 2D33355A 		.ascii	"-35ZT\272\230\240\037d-\372\341\302j\221\204\310\264"
  59      54BA98A0 
  59      1F642DFA 
  59      E1C26A91 
  59      84C8B4
  60 004b 4FEADCFB 		.ascii	"O\352\334\373\306\347\233Qth\026\347\3367\367\234s?"
  60      C6E79B51 
  60      746816E7 
  60      DE37F79C 
  60      733F
  61 005d E7DCEFBD 		.ascii	"\347\334\357\275&\200a\023\301\257\0168\321I\2044A\313"
  61      26806113 
  61      C1AF0E38 
  61      D1498434 
  61      41CB
  62 006f 187AFFED 		.ascii	"\030z\377\355\337\006\"\303-\002\264f\351\276\225n\204"
  62      DF0622C3 
  62      2D02B466 
  62      E9BE956E 
  62      84
  63 0080 E60D4182 		.ascii	"\346\015A\202l\342\017\337\3278\365\314k\2035}A@\214"
  63      6CE20FDF 
  63      D738F5CC 
  63      6B83357D 
  63      41408C
  64 0093 75D9BE85 		.ascii	"u\331\276\205>\341\312\000\035\002\015\357\261\235\370"
  64      3EE1CA00 
ARM GAS  C:\Users\AMANRA~1\AppData\Local\Temp\cck7hb2g.s 			page 5


  64      1D020DEF 
  64      B19DF8
  65 00a2 F0E7650B 		.ascii	"\360\347e\013\316\253\376\342\304F\2028\260o\254O\303"
  65      CEABFEE2 
  65      C4468238 
  65      B06FAC4F 
  65      C3
  66 00b3 D1F5907F 		.ascii	"\321\365\220\177\357\362]\007\321_\227\213\375\265X"
  66      EFF25D07 
  66      D15F978B 
  66      FDB558
  67 00c2 DE5F4489 		.ascii	"\336_D\211\251\202p\035\311\225|8Dr|\323\204s\177\221"
  67      A982701D 
  67      C9957C38 
  67      44727CD3 
  67      84737F91 
  68 00d6 840C1151 		.ascii	"\204\014\021Q\311\357[\003\261J\236\227M_\201\231i\014"
  68      C9EF5B03 
  68      B14A9E97 
  68      4D5F8199 
  68      690C
  69 00e8 2D9BB0CA 		.ascii	"-\233\260\312yA\3174\026-D\320\335F\026\354\201\011"
  69      7941CF34 
  69      162D44D0 
  69      DD4616EC 
  69      8109
  70 00fa 8D66875F 		.ascii	"\215f\207_?tF\265I\315\"\242\031Ji\200=\230\237\244"
  70      3F7446B5 
  70      49CD22A2 
  70      194A6980 
  70      3D989FA4 
  71 010e A5C3C2C2 		.ascii	"\245\303\302\302\372Wkh\323\263'5d4\331\267\3074\304"
  71      FA576B68 
  71      D3B32735 
  71      6434D9B7 
  71      C734C4
  72 0121 6B83BBAE 		.ascii	"k\203\273\256\315\2525U/\270\261\232\372@4\337>\256"
  72      CDAA3555 
  72      2FB8B19A 
  72      FA4034DF 
  72      3EAE
  73 0133 B8C7B7D2 		.ascii	"\270\307\267\322x\\\2131\322\342\021\364\325\250't\244"
  73      785C8B31 
  73      D2E211F4 
  73      D5A82774 
  73      A4
  74 0144 332E77FA 		.ascii	"3.w\372\364\237\254\326\241\313\377:\270I\"\323xr\013"
  74      F49FACD6 
  74      A1CBFF3A 
  74      B84922D3 
  74      78720B
  75 0157 9DFF25EE 		.ascii	"\235\377%\356j\014\256L\006\007\265]\262\214-\\{`o\356"
  75      6A0CAE4C 
  75      0607B55D 
  75      B28C2D5C 
  75      7B606FEE 
  76 016b 277B70CF 		.ascii	"'{p\317\355\312\355\354\303Ms\006#\036\3746o0\357J\225"
ARM GAS  C:\Users\AMANRA~1\AppData\Local\Temp\cck7hb2g.s 			page 6


  76      EDCAEDEC 
  76      C34D7306 
  76      231EFC36 
  76      6F30EF4A 
  77 0180 AC21E025 		.ascii	"\254!\340%Gbr\351\235\031\332\326\300\371{?\313\021"
  77      476272E9 
  77      9D19DAD6 
  77      C0F97B3F 
  77      CB11
  78 0192 7B74B558 		.ascii	"{t\265X\003\341\003\215\303\211\360\026!\232\234n\332"
  78      03E1038D 
  78      C389F016 
  78      219A9C6E 
  78      DA
  79 01a3 CFCFFAA7 		.ascii	"\317\317\372\247\030\212c\303\032\325\346\253m\231\242"
  79      188A63C3 
  79      1AD5E6AB 
  79      6D99A2
  80 01b2 0CABC822 		.ascii	"\014\253\310\"\010T\2726F\351\316\214\211\370\207\236"
  80      0854BA36 
  80      46E9CE8C 
  80      89F8879E 
  81 01c2 82C086F1 		.ascii	"\202\300\206\361K2\304.\330\266\034\311E\371Q\237\373"
  81      4B32C42E 
  81      D8B61CC9 
  81      45F9519F 
  81      FB
  82 01d3 6221F2A9 		.ascii	"b!\362\251KU\341\"\032)L\251\227\255]\334A\"s%JwM\""
  82      4B55E122 
  82      1A294CA9 
  82      97AD5DDC 
  82      41227325 
  83 01eb 92E0A648 		.ascii	"\222\340\246H\037\301\370\260FZ\204j\265\036\347\353"
  83      1FC1F8B0 
  83      465A846A 
  83      B51EE7EB 
  84 01fb 20B58F0A 		.ascii	" \265\217\012\034i%\235\224Fo]\177\371\316\222\032\345"
  84      1C69259D 
  84      94466F5D 
  84      7FF9CE92 
  84      1AE5
  85 020d 3ED23CA5 		.ascii	">\322<\245@|\346\376\270}w\315\336\0077u?\023+\336\205"
  85      407CE6FE 
  85      B87D77CD 
  85      DE073775 
  85      3F132BDE 
  86 0222 B954A13A 		.ascii	"\271T\241:\224V\373\246U-\225\350nRI\013\262\204\221"
  86      9456FBA6 
  86      552D95E8 
  86      6E52490B 
  86      B28491
  87 0235 CD8EBF3F 		.ascii	"\315\216\277?\010\316\215V\025\345\372\026\366R\"\215"
  87      08CE8D56 
  87      15E5FA16 
  87      F652228D 
  88 0245 D4C62149 		.ascii	"\324\306!I\237\346\373*E\301\214F\002\376M\015&U8\326"
  88      9FE6FB2A 
ARM GAS  C:\Users\AMANRA~1\AppData\Local\Temp\cck7hb2g.s 			page 7


  88      45C18C46 
  88      02FE4D0D 
  88      265538D6 
  89 0259 BC738302 		.ascii	"\274s\203\002\314s\3319\015v\256]\310\3160\346\367\010"
  89      CC73D939 
  89      0D76AE5D 
  89      C8CE30E6 
  89      F708
  90 026b 979D4D32 		.ascii	"\227\235M2\246\264\012\363\000\216\327\222\026\306\202"
  90      A6B40AF3 
  90      008ED792 
  90      16C682
  91 027a CBF31EFB 		.ascii	"\313\363\036\373\3145\206\263_4\025\252`\212$'[\230"
  91      CC3586B3 
  91      5F3415AA 
  91      608A2427 
  91      5B98
  92 028c 1FE37CA6 		.ascii	"\037\343|\246oE\215\3522s\346\337\241X1g5<z\023z\232"
  92      6F458DEA 
  92      3273E6DF 
  92      A1583167 
  92      353C7A13 
  93 02a2 A6E8A967 		.ascii	"\246\350\251g\300\362\232v\276M*\342\277G%-\371\262"
  93      C0F29A76 
  93      BE4D2AE2 
  93      BF47252D 
  93      F9B2
  94 02b4 ED3BE8AE 		.ascii	"\355;\350\256\032j`V\223\274\335\301\233ENp?ja\231E"
  94      1A6A6056 
  94      93BCDDC1 
  94      9B454E70 
  94      3F6A6199 
  95 02c9 123373ED 		.ascii	"\0223s\355\273J\254\256t\327\372\322]S\245\273\342\037"
  95      BB4AACAE 
  95      74D7FAD2 
  95      5D53A5BB 
  95      E21F
  96 02db 1001F948 		.ascii	"\020\001\371H"
  97              		.text
  98              		.section	.gnu.lto_.pureconst.c3dc9563,"",%progbits
  99 0000 789C0DC3 		.ascii	"x\234\015\303\213\015\200 \014@\301\326\017\211\022"
  99      8B0D8020 
  99      0C40C1D6 
  99      0F8912
 100 000f 1411B43C 		.ascii	"\024\021\264<\335\303\335\231N.9'\"_\217\240\014\214"
 100      DDC3DD99 
 100      4E2E3927 
 100      225F8FA0 
 100      0C8C
 101 0021 4CCC385B 		.ascii	"L\3148[X\361\0046v\"\007\251\236\344\246\205\253\351"
 101      58F10436 
 101      762207A9 
 101      9EE4A685 
 101      ABE9
 102 0033 8D59051E 		.ascii	"\215Y\005\036^~\215?\005\264"
 102      5E7E8D3F 
 102      05B4
ARM GAS  C:\Users\AMANRA~1\AppData\Local\Temp\cck7hb2g.s 			page 8


 103              		.text
 104              		.section	.gnu.lto_otg_rxfifo_handler.c3dc9563,"",%progbits
 105 0000 789C9D58 		.ascii	"x\234\235XkPU\327\025>\353\354{\317}\337\013\210\030"
 105      6B5055D7 
 105      153EEBEC 
 105      7BCF7DDF 
 105      0B8818
 106 0013 11154540 		.ascii	"\021\025E@P\271\220\376i;\223\231\376h\247\231\251i"
 106      50B990FE 
 106      693B9399 
 106      FE68A799 
 106      A969
 107 0025 3B53A7D3 		.ascii	";S\247\323\351\217\246\321\306\2113\032m1}d\246\343"
 107      E98FA6D1 
 107      C689331A 
 107      6D317D64 
 107      A6E3
 108 0037 419087C6 		.ascii	"A\220\207\306\024\005!^/)\370@\215\365\325h\250(\026"
 108      1405215E 
 108      2F29F840 
 108      8DF5D568 
 108      A82816
 109 004a 512988EF 		.ascii	"Q)\210\357X%DM5\221\212\030\250\210\306P\321\256\265"
 109      5825444D 
 109      35918A18 
 109      A888C650 
 109      D1AEB5
 110 005d F6B99703 		.ascii	"\366\271\227\003\367\372\240\214n\317\331{}\337Z{\355"
 110      F7FAA08C 
 110      6ECFD97B 
 110      7DDF5A7B 
 110      ED
 111 006e B5BF7550 		.ascii	"\265\277uPS\024\345\333\361\2122\017\377\365\200\242"
 111      5314E5DB 
 111      F18A320F 
 111      FFF580A2 
 112 007e C01805D4 		.ascii	"\300\030\005\324\322\323\212\222gW\205X\221\250\350"
 112      D2D38A92 
 112      67578558 
 112      91A8E8
 113 008d F6381E9D 		.ascii	"\3668\036\235<\012p\310E\213j-NWt\247F\243\333\012\232"
 113      3C0A70C8 
 113      458B6A2D 
 113      4E5774A7 
 113      46A3DB0A 
 114 00a2 9CD6545B 		.ascii	"\234\326T[\013\340\264\275\345\244\202\3636\260\313"
 114      0BE0B4BD 
 114      E5A482F3 
 114      36B0CB
 115 00b1 79BBC41D 		.ascii	"y\273\304\035\261;T\313\276&\\r\306]v\241\201\023b\244"
 115      B13B54CB 
 115      BE265C72 
 115      C65D76A1 
 115      811362A4 
 116 00c5 814B7533 		.ascii	"\201Ku3\237\207\371\334\340\221\323\036\325\313\323"
 116      9F87F9DC 
 116      E091D31E 
ARM GAS  C:\Users\AMANRA~1\AppData\Local\Temp\cck7hb2g.s 			page 9


 116      D5CBD3
 117 00d4 3E9EF682 		.ascii	">\236\366\202ON\373$\354\210=FuI\272X\246\213\2058i"
 117      4F4EFB24 
 117      EC883D46 
 117      7549BA58 
 117      A68B8538 
 118 00e9 1007400F 		.ascii	"\020\007@\017\272\035\224e\252\260X5\233\335\341t\271"
 118      BA1D9465 
 118      AAB05835 
 118      9BDDE174 
 118      B9
 119 00fa 3D5E5F4C 		.ascii	"=^_Ll\034,\023\016\005\032-\360\330'G\205~b\"\247\336"
 119      6C1C2C13 
 119      0E051A2D 
 119      F0D82747 
 119      857E6222 
 120 0110 11E5029A 		.ascii	"\021\345\002\232\212:\017\250\031[u\374i\254\354\213"
 120      8A3A0FA8 
 120      195B75FC 
 120      69ACEC8B 
 121 0120 ABD2CFEA 		.ascii	"\253\322\317\352\"(\024\245B\260\215\002\037B\006\232"
 121      222814A5 
 121      42B08D02 
 121      1F42069A 
 122 0130 9D2BD813 		.ascii	"\235+\330\023\024\253p\005\300\202\257wN\005>\367\322"
 122      14AB7005 
 122      C082AF77 
 122      4E053EF7 
 122      D2
 123 0141 AB0AC9F8 		.ascii	"\253\012\311\370\332un\357\005\237\370\016(\370|\363"
 123      DA756EEF 
 123      059FF80E 
 123      28F87CF3 
 124 0151 DAFB73D2 		.ascii	"\332\373s\322\267\350\372r\275\361\362\026\241O\013"
 124      B7E8FA72 
 124      BDF1F216 
 124      A14F0B
 125 0160 0A011F81 		.ascii	"\012\001\037\201@>\330\017I\260\017\222\024\234R\240"
 125      403ED80F 
 125      49B00F92 
 125      149C52A0 
 126 0170 0ED2C9FC 		.ascii	"\016\322\311\374ZQ\355C\257\370\036C/T\026\327\250\251"
 126      5A51ED43 
 126      AFF81E43 
 126      2F5416D7 
 126      A8A9
 127 0182 9B187BB1 		.ascii	"\233\030{\261-ic\276\336\242[\202\302\002\177\033\216"
 127      2D6963BE 
 127      DEA25B82 
 127      C2027F1B 
 127      8E
 128 0193 A71F34AF 		.ascii	"\247\0374\257\013<j\264\210\227\031\272\353\316\376"
 128      0B3C6AB4 
 128      889719BA 
 128      EBCEFE
 129 01a2 80C7809E 		.ascii	"\200\307\200\236\334(\364\315\272J\300\372\250\300\366"
 129      DC28F4CD 
ARM GAS  C:\Users\AMANRA~1\AppData\Local\Temp\cck7hb2g.s 			page 10


 129      BA4AC0FA 
 129      A8C0F6
 130 01b1 CA2BE76D 		.ascii	"\312+\347mb6\003\317\355(\355p\031\300/j\302\300CQ\201"
 130      623603CF 
 130      ED28ED70 
 130      19C02F6A 
 130      C2C04351 
 131 01c6 D7F73E5A 		.ascii	"\327\367>Z\347\321,\320\000\251p\020\377\036\200T\231"
 131      E7D12CD0 
 131      00A97010 
 131      FF1E8054 
 131      99
 132 01d7 28380C9A 		.ascii	"(8\014\232\202\365\3450/!`G\377`\233E\374\230=\035<"
 132      82F5E530 
 132      2F216047 
 132      FF609B45 
 132      FC983D1D 
 133 01ec 5FD30B86 		.ascii	"_\323\013\206\247\323m\2115\306\356\254\360\367H_\320"
 133      A7D36D89 
 133      35C6EEAC 
 133      F0F7485F 
 133      D0
 134 01fd C8F02D6D 		.ascii	"\310\360-mG\017{\305\034\206\267\257\355\016\330\014"
 134      470F7BC5 
 134      1C86B7AF 
 134      ED0ED80C 
 135 020d 78674B7C 		.ascii	"xgK|\010\256\301\221(\360&\206\177rv\317*\257\370)\303"
 135      08AEC191 
 135      28F02686 
 135      7F7276CF 
 135      2AAFF829 
 136 0222 3BCED66E 		.ascii	";\316\326n\015%\350j\313\0135\341\334\036\215\002?\306"
 136      0D25E86A 
 136      CB0B35E1 
 136      DC1E8D02 
 136      3FC6
 137 0234 F051057C 		.ascii	"\360Q\005|\234!\243\012\262\231!\243\012\354\037\220"
 137      9C21A30A 
 137      B29921A3 
 137      0AEC1F90 
 138 0244 BAFBBCB5 		.ascii	"\272\373\274\265Q\177\364\270\010c\372A\327\276\301"
 138      517FF4B8 
 138      0863FA41 
 138      D7BEC1
 139 0253 F86F02D6 		.ascii	"\370o\002\326\223M\305\301.h\260\340\340\260\342`\325"
 139      934DC5C1 
 139      2E68B0E0 
 139      E0B0E260 
 139      D5
 140 0264 E8C98683 		.ascii	"\350\311\206\203\323N\257\016\034\\N\032\\4\270i\325"
 140      D34EAF0E 
 140      1C5C4E1A 
 140      5C34B869 
 140      D5
 141 0275 43AB5E5A 		.ascii	"C\253^Z\365\321\020C\013\261\304\022\017T\240c\025:"
 141      F5D11043 
 141      0BB1C412 
ARM GAS  C:\Users\AMANRA~1\AppData\Local\Temp\cck7hb2g.s 			page 11


 141      0F54A063 
 141      153A
 142 0287 CF04854E 		.ascii	"\317\004\205Nt\234Bg\232\310\271\235@vI\234\247\211"
 142      749C4267 
 142      9AC8B99D 
 142      4076499C 
 142      A789
 143 0299 7C569378 		.ascii	"|V\223x\234\3143\311\270\350\236\302\217S\331:\205\237"
 143      9CCC33C9 
 143      B8E89EC2 
 143      8F53D93A 
 143      859F
 144 02ab A7B1492A 		.ascii	"\247\261I*?\247\361\346\323\211e:o*\203\023\230\311"
 144      3FA7F1E6 
 144      D389653A 
 144      6F2A8313 
 144      98C9
 145 02bd E30C9E99 		.ascii	"\343\014\236\231I,\263\3701\213\255\375\374\234\315"
 145      492CB3F8 
 145      318BADFD 
 145      FC9CCD
 146 02cc 2639FCAC 		.ascii	"&9\374\254(\305X{\345)z\243R\"T|\310oTn\301\362\372"
 146      28C5587B 
 146      E5297AA3 
 146      5222547C 
 146      C86F546E 
 147 02e3 AE86ED36 		.ascii	"\256\206\3556*\310\200\000\314o\305\212\24636\272\252"
 147      2AC88000 
 147      CC6FC58A 
 147      A63336BA 
 147      AA
 148 02f4 82EBE050 		.ascii	"\202\353\340P\323\251f\255\032\336\317\303\013\237\034"
 148      D3A966AD 
 148      1ADECFC3 
 148      0B9F1C
 149 0303 149E8088 		.ascii	"\024\236\200\210\207\026J/\335\277\242\366\253.\377"
 149      87164A2F 
 149      DDBFA2F6 
 149      AB2EFF
 150 0312 4E5D2ED9 		.ascii	"N].\331\240\025\252a\035\353\000\234\000?r7\325\267"
 150      A015AA61 
 150      1DEB009C 
 150      003F7237 
 150      D5B7
 151 0324 1ACC63CD 		.ascii	"\032\314c\315\314\266\010\346\352\017\350T\274\030\001"
 151      CCB608E6 
 151      EA0FE854 
 151      BC1801
 152 0333 B419E417 		.ascii	"\264\031\344\027\353\352\353<H^\220G\344>8\311\344@"
 152      EBEAEB3C 
 152      485E9047 
 152      E43E38C9 
 152      E440
 153 0345 E4A790BC 		.ascii	"\344\247\220\274\023\226WO\"n\3128\362\243\267\374\276"
 153      1396574F 
 153      226ECA38 
 153      F2A3B7FC 
ARM GAS  C:\Users\AMANRA~1\AppData\Local\Temp\cck7hb2g.s 			page 12


 153      BE
 154 0356 C2D5EB77 		.ascii	"\302\325\353w\252\322\241*}\206u(\006,p\032\251\321"
 154      AAD2A12A 
 154      7D867528 
 154      062C701A 
 154      A9D1
 155 0368 EC61E11F 		.ascii	"\354a\341\037\244M\002\232\321\255\351\332t\217\305"
 155      A44D029A 
 155      D1ADE9DA 
 155      748FC5
 156 0377 C94E7A77 		.ascii	"\311Nzw\006\215\220<\231\271\017\022w\202\004\255[\017"
 156      068D903C 
 156      99B90F12 
 156      778204AD 
 156      5B0F
 157 0389 12364E52 		.ascii	"\0226NR\357\352\353\337\245I\230\017\316\232Q\007\010"
 157      EFEAEBDF 
 157      A549980F 
 157      CE9A5107 
 157      08
 158 039a 354EA21A 		.ascii	"5N\242\032\326\377Q\242\204Du\337\256*uJ\224\256?P\340"
 158      D6FF51A2 
 158      844475DF 
 158      AE2A754A 
 158      94AE3F50 
 159 03af 1C02BBA0 		.ascii	"\034\002\273\240\240\332kX\241\311\316\217\377\334\003"
 159      A0DA6B58 
 159      A1C9CE8F 
 159      FFDC03
 160 03be 6BA134AF 		.ascii	"k\2414\257\000\023\323\220N\352\252T\312\264\236\307"
 160      0013D390 
 160      4EEAAA54 
 160      CAB49EC7 
 161 03ce 79B478D0 		.ascii	"y\264x\320PRe\011\221\304\340D\377\206k\227\274!HW\032"
 161      50526509 
 161      91C4E044 
 161      FF866B97 
 161      BC214857 
 162 03e3 42E06324 		.ascii	"B\340c$\256\224\371\272 Qk\352;\036xB\250l\234\250/"
 162      AE94F9BA 
 162      20516BEA 
 162      3B1E7842 
 162      A86C9CA8 
 163 03f8 ABACD142 		.ascii	"\253\254\321B\250\275\214\372'\243TB]D\024\376[\202"
 163      A8BD8CFA 
 163      27A35442 
 163      5D4414FE 
 163      5B82
 164 040a E27BD985 		.ascii	"\342{\331\205\245r\023\362x{\264L\331\257\253}\211^"
 164      A57213F2 
 164      787BB44C 
 164      D9AFAB7D 
 164      895E
 165 041c 91A7BCB3 		.ascii	"\221\247\274\263\370\236/s\033\367\204\373\207\2545"
 165      F89E2F73 
 165      1BF784FB 
 165      87AC35
ARM GAS  C:\Users\AMANRA~1\AppData\Local\Temp\cck7hb2g.s 			page 13


 166 042b F9051014 		.ascii	"\371\005\020\024\261\212\321\020.A\346\310\323\256\253"
 166      B18AD110 
 166      2E41E6C8 
 166      D3AEAB
 167 043a FDE1D38F 		.ascii	"\375\341\323\217;\016\332\371\270U\251\243\333z\276"
 167      3B0EDAF9 
 167      B855A9A3 
 167      DB7ABE
 168 0449 6EB1E5EC 		.ascii	"n\261\345\354\246\305\352>\324\3331\360\011\370!3\311"
 168      A6C5EA3E 
 168      D4DB31F0 
 168      09F82133 
 168      C9
 169 045a 90D9E057 		.ascii	"\220\331\340W\307\366X\227\015\222\377\352\373\344\032"
 169      C7F65897 
 169      0D92FFEA 
 169      FBE41A
 170 0469 3A20474A 		.ascii	": GJ\354\247\260\214j\374p\353\3332\277\226\221\241"
 170      ECA7B08C 
 170      6AFC70EB 
 170      DB32BF96 
 170      91A1
 171 047b 7C4422F0 		.ascii	"|D\"\360\224\252\216\207\313\034\211\220\256\232{\257"
 171      94AA8E87 
 171      CB1C8990 
 171      AE9A7BAF 
 172 048b B5593012 		.ascii	"\265Y0\022\202\336\302T:\340\012\370\351\260i\247W!"
 172      82DEC254 
 172      3AE00AF8 
 172      E9B069A7 
 172      5721
 173 049d 872F54AB 		.ascii	"\207/T\253U:\263\232\213\336\021Y\364\003\344{,\006"
 173      553AB39A 
 173      8BDE1159 
 173      F403E47B 
 173      2C06
 174 04af 059F19BE 		.ascii	"\005\237\031\276\357\254Z\333\016\350\273\024W\023\202"
 174      EFAC5ADB 
 174      0EE8BB14 
 174      571382
 175 04be 2201FEC5 		.ascii	"\"\001\376\305\316-\304~MV}\262\221\364\265\033\252"
 175      CE2DC47E 
 175      4D567DB2 
 175      91F4B51B 
 175      AA
 176 04cf AED8C4CF 		.ascii	"\256\330\304\317\230\265{\343\232J[\244\362\216\203"
 176      98B57BE3 
 176      9A4A5BA4 
 176      F28E83
 177 04de EB5134F1 		.ascii	"\353Q4\361s\3546x&\306\031r\250\2444\030\256\231~P/"
 177      73EC3678 
 177      26C61972 
 177      A8A43418 
 177      AE997E50 
 178 04f3 AFF08A5F 		.ascii	"\257\360\212_0\375\252\236\262\"G$\275\006_D\241\277"
 178      30FDAA9E 
 178      B2224724 
ARM GAS  C:\Users\AMANRA~1\AppData\Local\Temp\cck7hb2g.s 			page 14


 178      BD065F44 
 178      A1BF
 179 0505 21AF8C89 		.ascii	"!\257\214\211\235J\257\371\306_\034\342\227\314v\251"
 179      9D4AAFF9 
 179      C65F1CE2 
 179      97CC76A9 
 180 0515 FCF65FA3 		.ascii	"\374\366_\243\004\253Ag\024\266\177\263\346\257\034"
 180      04AB4167 
 180      14B67FB3 
 180      E6AF1C
 181 0524 B8F4AE9D 		.ascii	"\270\364\256\235\222\250\201\035n\312\253V\275{sR\270"
 181      92A8811D 
 181      6ECAAB56 
 181      BD7B7352 
 181      B8
 182 0535 C51670ED 		.ascii	"\305\026p\355\365\234t\022\200B\240\035\321N\271\323"
 182      F59C7412 
 182      8042A01D 
 182      D14EB9D3 
 183 0545 5648290B 		.ascii	"VH)\013uc\024T\222Y\005\272p\347\267\250Jp0zX\370\270"
 183      75631454 
 183      925905BA 
 183      70E7B7A8 
 183      4A70307A 
 184 055c 2CA040B7 		.ascii	",\240@\267\341\351\303\315\211l\3224\334DC\223\333\034"
 184      E1E9C3CD 
 184      896CD234 
 184      DC444393 
 184      DB1C
 185 056e 68099E10 		.ascii	"h\011\236\020~x\261\236\342\235\037\\\363k\262\017\210"
 185      7E78B19E 
 185      E29D1F5C 
 185      F36BB20F 
 185      88
 186 057f 09019188 		.ascii	"\011\001\221\210\210\222\340\372\035\006B\300\227\210"
 186      8892E0FA 
 186      1D0642C0 
 186      9788
 187 058d B801051D 		.ascii	"\270\001\005\035G\217\201ad\220\020\215U\011La\226\246"
 187      478F8161 
 187      6490108D 
 187      55094C61 
 187      96A6
 188 059f 872B5797 		.ascii	"\207+W\227\275.\015h\233ww\337]\307\2621\016t\372\202"
 188      BD2E0D68 
 188      9B7777DF 
 188      5DC7B231 
 188      0E74FA82 
 189 05b3 AABA31D0 		.ascii	"\252\2721\320\300uDW\315G\027\251\207H\240\027\353E"
 189      C0754457 
 189      CD4717A9 
 189      8748A017 
 189      EB45
 190 05c5 1EA3B127 		.ascii	"\036\243\261'\2043\263f\004\330\011\252\"\347'S\030"
 190      8433B366 
 190      04D809AA 
 190      22E72753 
ARM GAS  C:\Users\AMANRA~1\AppData\Local\Temp\cck7hb2g.s 			page 15


 190      18
 191 05d6 678E5E6C 		.ascii	"g\216^l\315\226n(\322\326\023\225\333\3342R\033\374"
 191      CD966E28 
 191      D2D61395 
 191      DBDC3252 
 191      1BFC
 192 05e8 4786751F 		.ascii	"G\206u\037&\007D\212EA&k\240\366\004 \231M\371\000\344"
 192      2607448A 
 192      4541266B 
 192      A0F60420 
 192      994DF900 
 193 05fd 6683850D 		.ascii	"f\203\205\015e\213$~R@L\204\354\244!\357\\T\223\350"
 193      658B247E 
 193      52404C84 
 193      ECA421EF 
 193      5C5493E8 
 194 0611 46F41595 		.ascii	"F\364\025\225X\245Q2\371\305\231\013+\273\004\315\230"
 194      58A55132 
 194      F9C5990B 
 194      2BBB04CD 
 194      98
 195 0622 F3691D76 		.ascii	"\363i\035vCp_/\020\343\035\336W\037\356\013\321R\345"
 195      43705F2F 
 195      10E31DDE 
 195      571FEE0B 
 195      D152E5
 196 0635 4F853233 		.ascii	"O\20523\005\331\020\0228\330\177\302*E\336\016w!iD\002"
 196      05D91012 
 196      38D87FC2 
 196      2A45DE0E 
 196      77216944 
 197 064a A67002EC 		.ascii	"\246p\002\354\021\011H\225\317\034\3464b\256(\374\262"
 197      11094895 
 197      CF1CE634 
 197      62AE28FC 
 197      B2
 198 065b 6CBC649E 		.ascii	"l\274d\236*\363\261\277\350\344^\247\314\007@\277\231"
 198      2AF3B1BF 
 198      E8E45EA7 
 198      CC0740BF 
 198      99
 199 066c B9895053 		.ascii	"\271\211PS);\3230J\015\2633\3116P\333\001\3679\265\364"
 199      293BD330 
 199      4A0DB333 
 199      C93650DB 
 199      01F739B5 
 200 0681 3EC516D8 		.ascii	">\305\026\330\312\331r(\370\361\035\362\314\270DS\024"
 200      CAD97228 
 200      F8F11DF2 
 200      CCB84453 
 200      14
 201 0692 29A62826 		.ascii	")\246(&\322\221\264\037\355{Y\006\221@\226|\002\023"
 201      D291B41F 
 201      ED7B5906 
 201      9140967C 
 201      0213
 202 06a4 F1760AE4 		.ascii	"\361v\012\344\234f\307\227\024*L1\260\361:f$\225&\022"
ARM GAS  C:\Users\AMANRA~1\AppData\Local\Temp\cck7hb2g.s 			page 16


 202      9C66C797 
 202      142A4C31 
 202      B0F13A66 
 202      24952612 
 203 06b8 A9824460 		.ascii	"\251\202D`\323y\234\230j\357\330\372\":u\206E\273\272"
 203      D3799C98 
 203      6AEFD8FA 
 203      223A7586 
 203      45BBBA
 204 06cb BB5648DD 		.ascii	"\273VH\335\346\312\250\356}N\335\276\027\251\333\275"
 204      E6CAA8EE 
 204      7D4EDDBE 
 204      17A9DBBD 
 205 06db CFD6EDFB 		.ascii	"\317\326\355\373O\327\355\257\236\256\333\017B\272\375"
 205      4FD7EDAF 
 205      9EAEDB0F 
 205      42BAFD
 206 06ea B5A1DB5D 		.ascii	"\265\241\333]\227[\307H1\325F\006S\253>K\271\007\236"
 206      975BC748 
 206      31D54606 
 206      53AB3E4B 
 206      B9079E
 207 06fd A4DCF52A 		.ascii	"\244\334\365*\351\361\177\207\224\373aH\271\177.\235"
 207      E9F17F87 
 207      94FB6148 
 207      B97F2E9D 
 208 070d D922BF7C 		.ascii	"\331\"\277|P\247\265h:\215K\343a\220=Y\211\352\021\177"
 208      50A7B568 
 208      3A8D4BE3 
 208      61903D59 
 208      89EA117F 
 209 0721 F9E057D5 		.ascii	"\371\340W\325\247\333\215\357\005\273\271\310\307G\266"
 209      A7DB8DEF 
 209      05BBB9C8 
 209      C747B6
 210 0730 81BBB58B 		.ascii	"\201\273\265\213p'\211\350\025\036G\356\004\223n\245"
 210      702789E8 
 210      151E47EE 
 210      04936EA5 
 211 0740 BBA1ABE4 		.ascii	"\273\241\253\344B#\027y\252\341\342\352\366\011\322"
 211      42231779 
 211      AAE1E2EA 
 211      F609D2
 212 074f 852332DE 		.ascii	"\205#2\336'\361%S1/g2\033\221\345\033d\333?sH.\347("
 212      27F12553 
 212      312F6732 
 212      1B91E51B 
 212      64DB3F73 
 213 0767 B90A98CB 		.ascii	"\271\012\230\313N\\+\230+\377\275\302\206\015c%\231"
 213      4E5C2B98 
 213      2BFFBDC2 
 213      860D6325 
 213      99
 214 0778 0B63434A 		.ascii	"\013cCJsg\031U\263*TS\251\020\215\302\225\315\3528]"
 214      73671955 
 214      B32A5453 
 214      A9108DC2 
ARM GAS  C:\Users\AMANRA~1\AppData\Local\Temp\cck7hb2g.s 			page 17


 214      95CDEA38 
 215 078d 15BB9972 		.ascii	"\025\273\231rT\015\252H\0157\250\336p\203\032US*&\006"
 215      540DAA48 
 215      0D37A8DE 
 215      70831A55 
 215      532A2606 
 216 07a1 D7139AD0 		.ascii	"\327\023\232\320\325SN2 7\024)\355 Z\023\302\357q\372"
 216      D5534E32 
 216      20371429 
 216      ED205A13 
 216      C2EF71FA 
 217 07b5 4A57A044 		.ascii	"JW\240D\325`\245\212%\217\003\317\232\273\016\315\241"
 217      D560A58A 
 217      258F03CF 
 217      9ABB0ECD 
 217      A1
 218 07c6 55B8CDB8 		.ascii	"U\270\315\270F\266\0314\010\210"
 218      46B61934 
 218      0888
 219 07d0 F480481B 		.ascii	"\364\200H\033\326W\344\254\251\257\270G\364\0256\230"
 219      D657E4AC 
 219      A9AFB847 
 219      F4153698 
 220 07e0 FE943EB2 		.ascii	"\376\224>\262J\015\365\021#,4g&\217YFy~\206\024-\352"
 220      4A0DF511 
 220      232C3467 
 220      268F5946 
 220      797E8614 
 221 07f6 234C8B47 		.ascii	"#L\213G\236&UkF@\370]\250Z\323\335F\337\360\206\302"
 221      9E26556B 
 221      4640F85D 
 221      A85AD3DD 
 221      46DFF086 
 222 080b 30FA06DB 		.ascii	"0\372\006\333g\006DF\270o\2207>\337\314p\337`\243\231"
 222      67064446 
 222      B86F9037 
 222      3EDFCC70 
 222      DF60A399 
 223 081f E427D437 		.ascii	"\344'\3247p&\242Qd\030\215\342\035\225\032\305\314\241"
 223      7026A251 
 223      64188DE2 
 223      1D951AC5 
 223      CCA1
 224 0831 46C1F059 		.ascii	"F\301\360Y\010\037\352\014\341-\315\342-\371\"\266\224"
 224      081FEA0C 
 224      E12DCDE2 
 224      2DF922B6 
 224      94
 225 0842 239F3990 		.ascii	"#\2379\220\354\241\316\300TY\224\354~3U3\231e\321\206"
 225      ECA1CEC0 
 225      545994EC 
 225      7E335533 
 225      9965D186 
 226 0856 B3310E0F 		.ascii	"\2631\016\017n8\323+[A\016\272\245\367Y^\243\025\304"
 226      6E38D32B 
 226      5B410EBA 
 226      A5F7595E 
ARM GAS  C:\Users\AMANRA~1\AppData\Local\Temp\cck7hb2g.s 			page 18


 226      A315C4
 227 0869 985B01E3 		.ascii	"\230[\001\343\322Ln\375&\267\031\341V\300^\023\302I"
 227      D24C6EFD 
 227      26B719E1 
 227      56C05E13 
 227      C249
 228 087b CDC0DA77 		.ascii	"\315\300\332w\"g\266\017_\374T-N\331\012rh\"\215\016"
 228      2267B60F 
 228      5FFC542D 
 228      4ED90A72 
 228      68228D0E 
 229 088f DD295B41 		.ascii	"\335)[A\226O\266\202X\331\012\314W\210\212r\350\367"
 229      964FB682 
 229      58D90ACC 
 229      57888A72 
 229      E8F7
 230 08a1 95E3607E 		.ascii	"\225\343`~+\032\266V<\354\255y\230%\377N\311*}3\364"
 230      2B1AB656 
 230      3CECAD79 
 230      9825FF4E 
 230      C92A7D33 
 231 08b6 7B9E7BA4 		.ascii	"{\236{\244\270\315\177\226H\257V\237 \322o\223F\277"
 231      B8CD7F96 
 231      48AF569F 
 231      20D26F93 
 231      46BF
 232 08c8 AB8635FA 		.ascii	"\253\2065\372O\252\241\321\231\322\225'\252F\273\237"
 232      4FAAA1D1 
 232      99D29527 
 232      AA46BB9F 
 233 08d8 A8D1A56A 		.ascii	"\250\321\245jX\243\327\030\232\327\372\212\244\362F"
 233      58A3D718 
 233      9AD7FA8A 
 233      A4F246
 234 08e7 953CCF08 		.ascii	"\225<\317\010\311\233E2\274vH\206\313\244\332\005\013"
 234      C99B4532 
 234      BC764886 
 234      CBA4DA05 
 234      0B
 235 08f8 0D9DC7EB 		.ascii	"\015\235\307\353\343\225\277-b\231\202!,\317I[>D\273"
 235      E395BF2D 
 235      62998221 
 235      2CCF495B 
 235      3E44BB
 236 090b 8EB6EC93 		.ascii	"\216\266\354\223\232\334ehr\314\3632iP1$\307\2252\300"
 236      9ADC6568 
 236      72CCF332 
 236      69503124 
 236      C79532C0 
 237 091f 8A5080B1 		.ascii	"\212P\200\261H\364\377\005\250\301{C\264\353)\300X\276"
 237      48F4FF05 
 237      A8C17B43 
 237      B4EB29C0 
 237      58BE
 238 0931 3A71F27F 		.ascii	":q\362\177\021n\002\360o\250=Xb\335[\231\231\205\247"
 238      116E02F0 
 238      6FA83D58 
ARM GAS  C:\Users\AMANRA~1\AppData\Local\Temp\cck7hb2g.s 			page 19


 238      62DD5B99 
 238      9985A7
 239 0944 98342F05 		.ascii	"\2304/\005?\006^\312\312\362\343\237yo,\230\273`qn\316"
 239      3F065ECA 
 239      CAF2E39F 
 239      796F2C98 
 239      BB60716E 
 240 0959 B772B2FD 		.ascii	"\267r\262\375\213s\375o\274\266\320\277d\361o\226\346"
 240      8B73FD6F 
 240      BCB6D0BF 
 240      64F16F96 
 240      E6
 241 096a FA7F32E7 		.ascii	"\372\1772\347\225o\274\350\237=\373\273\376\037\315"
 241      956FBCE8 
 241      9F3DFBBB 
 241      FE1FCD
 242 0979 F9FE6F73 		.ascii	"\371\376osh\345\325\267r\347\276\272p\341\257\262\346"
 242      68E5D5B7 
 242      72E7BEBA 
 242      70E1AFB2 
 242      E6
 243 098a 29167C5C 		.ascii	")\026|\\\242\276\276D\314{s\251\310]\232+\346\2765\037"
 243      A2BEBE44 
 243      CC7B73A9 
 243      C85D9A2B 
 243      E6BE351F 
 244 099e 16C0EFAC 		.ascii	"\026\300\357\254\363\027\314_\274\004\336\024\213^\373"
 244      F317CC5F 
 244      BC04DE14 
 244      8B5EFB
 245 09ad FDFF00B5 		.ascii	"\375\377\000\265b\177\326"
 245      627FD6
 246              		.text
 247              		.section	.gnu.lto_otg_txfifo_handler.c3dc9563,"",%progbits
 248 0000 789C9D56 		.ascii	"x\234\235V[L\224G\024\236\363\317\277\377\376{\005\271"
 248      5B4C9447 
 248      149EF3CF 
 248      BFFFFE7B 
 248      05B9
 249 0012 565D1211 		.ascii	"V]\022\021\010\365\241\254\324'\233\232\364\241MMc\323"
 249      08F5A1AC 
 249      D4279B9A 
 249      F4A14D4D 
 249      63D3
 250 0024 26FAD037 		.ascii	"&\372\3207S\265F\023SH\251\246o\374\010\335\025\355"
 250      53B54613 
 250      5348A9A6 
 250      6FFC08DD 
 250      15ED
 251 0036 83B582BA 		.ascii	"\203\265\202\272]\014b\260\027\245\026\205RPtAD\021"
 251      5D0C62B0 
 251      17A51685 
 251      52507441 
 251      4411
 252 0048 F142A942 		.ascii	"\361B\251B\305{E\021\013B\215\211\310\245\347\314\354"
 252      C57B4511 
 252      0B428D89 
ARM GAS  C:\Users\AMANRA~1\AppData\Local\Temp\cck7hb2g.s 			page 20


 252      C8A5E7CC 
 252      EC
 253 0059 B20BA209 		.ascii	"\262\013\242\011\335\3108s\346\234\357\234\363\2353"
 253      DDC83873 
 253      E69CEF9C 
 253      F39D33
 254 0068 33BFC618 		.ascii	"3\277\306\030\333ccl9\376\377#\376\201\203\201\262\375"
 254      DB63636C 
 254      39FEFF23 
 254      FE818381 
 254      B2FD
 255 007a 026379BA 		.ascii	"\002cy\272\002\\N\270\242\366\233\230a5\225\235e\314"
 255      025C4EB8 
 255      A2F69B98 
 255      6135959D 
 255      65CC
 256 008c B0AB6097 		.ascii	"\260\253`\227r\223\242mIG\271\231F\273\006f)6+v\241"
 256      7293A26D 
 256      4947B999 
 256      46BB0666 
 256      29362B76 
 257 00a1 AE4B751D 		.ascii	"\256Ku\035,RnQl\3356\224[\253\032In\225\362\006\335"
 257      2C526E51 
 257      6CDD3694 
 257      5BAB1A49 
 257      6E95F206 
 258 00b6 26FD34E8 		.ascii	"&\3754\350v\000\232\030:\260\\\205\253&\315\254[\254"
 258      76009A18 
 258      3AB05C85 
 258      AB26CDAC 
 258      5BAC
 259 00c8 363BE472 		.ascii	"6;\344r\316\202?Kh\362\015\337\311\241\250\360\330U"
 259      CE823F4B 
 259      68F20DDF 
 259      C9A1A8F0 
 259      D855
 260 00da C7821F0C 		.ascii	"\307\202\037\014c\263\021\330\265;\241\344\327K\006"
 260      63B311D8 
 260      B53BA1E4 
 260      D74B06
 261 00e9 F7A36E31 		.ascii	"\367\243n1g\260\310\005\013]\224\320QX\200\252\227\013"
 261      67B0C805 
 261      0B5D94D0 
 261      515880AA 
 261      970B
 262 00fb 7EF5F36D 		.ascii	"~\365\363m\270\013\240\342r\260\315w\327IK\005\346\341"
 262      B80BA0E2 
 262      72B0CD77 
 262      D7494B05 
 262      E6E1
 263 010d B2F77265 		.ascii	"\262\367reG\024\177\007\030\316\037\334\336\273\"\275"
 263      47147F07 
 263      18CE1FDC 
 263      DEBB22BD 
 264 011d 5C607697 		.ascii	"\\`v\227s#\325\3179\374\006\2340\253\301\005U\340b("
 264      7323D5CF 
 264      39FC069C 
ARM GAS  C:\Users\AMANRA~1\AppData\Local\Temp\cck7hb2g.s 			page 21


 264      30ABC105 
 264      55E06228 
 265 0131 625003E9 		.ascii	"bP\003\351\250}\333{`\304\311\337\023\2267\267\224\015"
 265      A87DDB7B 
 265      60C4C9DF 
 265      139637B7 
 265      940D
 266 0143 3882A6E7 		.ascii	"8\202\246\347\275\334\260\373\271\012\277KS\031\016"
 266      BDDCB0FB 
 266      B90ABF4B 
 266      53190E
 267 0152 0A18D442 		.ascii	"\012\030\324B:i\337\251\034+rh*\005\213Q\326\201\006"
 267      3A69DFA9 
 267      1C2B7268 
 267      2A058B51 
 267      D68106
 268 0165 281C3576 		.ascii	"(\0345v\026;\371R\001\267\255\377;\257%m\277\200k\356"
 268      163BF952 
 268      01B7ADFF 
 268      3BAF256D 
 268      BF806BEE 
 269 0179 72EDCB37 		.ascii	"r\355\3137\316\032\252\237\233\340\330\344h\350\027"
 269      CE1AAA9F 
 269      9BE0D8E4 
 269      68E817
 270 0188 C683E390 		.ascii	"\306\203\343\220&\340\204p\307\367%\327\315\374\003"
 270      26E08470 
 270      C7F725D7 
 270      CDFC03
 271 0197 81D757F6 		.ascii	"\201\327W\366\355.s\020\257\247sN\010O\203\023\323\342"
 271      ED2E7310 
 271      AFA7734E 
 271      084F8313 
 271      D3E2
 272 01a9 1D7C32DA 		.ascii	"\035|2\332\252\362\217\205\351\261\366}\003\0204\275"
 272      AAF28F85 
 272      E9B1F67D 
 272      031034BD 
 273 01b9 04C2CC0C 		.ascii	"\004\302\314\014\201i\315\"\243\016\252\352\257\214"
 273      8169CD22 
 273      A30EAAEA 
 273      AF8C
 274 01c7 B8C0C05F 		.ascii	"\270\300\300_`\354\232\025\032!\015\032\360\357$eP\017"
 274      60EC9A15 
 274      1A210D1A 
 274      F0EF2465 
 274      500F
 275 01d9 5A318748 		.ascii	"Z1\207H\242\340\024r\324\204\211\321\000\214qJ5dt\270"
 275      A2E01472 
 275      D48489D1 
 275      008C714A 
 275      356474B8 
 276 01ed DD1430C6 		.ascii	"\335\0240\306\306\275\230\332'\243U\217\342_\007$\333"
 276      C6BD98DA 
 276      27A3558F 
 276      E25F0724 
 276      DB
ARM GAS  C:\Users\AMANRA~1\AppData\Local\Temp\cck7hb2g.s 			page 22


 277 01fe A2E060E5 		.ascii	"\242\340`\3458\330T\034\354&\222i43\343\340\320qpZh"
 277      38D8541C 
 277      EC269269 
 277      3433E3E0 
 277      D071705A 
 278 0213 69A5C146 		.ascii	"i\245\301FK;\016Q\016\2329I%\212f\3214\314\242!\006"
 278      4B3B0E51 
 278      0E9A3949 
 278      258A66D1 
 278      34CCA221 
 279 0228 87E8581C 		.ascii	"\207\350X\034\314q4\304\223,\201Q\034\2118es\201\212"
 279      CC7134C4 
 279      932C8151 
 279      1C893865 
 279      73818A
 280 023b EB02EA8D 		.ascii	"\353\002\352\215$!Nf\024\334|\322Ka\024k\252\030\323"
 280      24214E66 
 280      14DC7CD2 
 280      4B61146B 
 280      AA18D3
 281 024e 8498B12D 		.ascii	"\204\230\261-X\373Q0\0028Qp\222\027`\205\330Z]\216\374"
 281      58FB5130 
 281      02385170 
 281      92176085 
 281      D85A5D8E 
 282 0263 007B089B 		.ascii	"\000{\010\233\207\274\365G\177\002b\302\307\301\307"
 282      87BCF547 
 282      7F0262C2 
 282      C7C1C7
 283 0272 E792EC84 		.ascii	"\347\222\354\204E\256\025$\246\370\353\306\213fjb\311"
 283      45AE1524 
 283      A6F8EBC6 
 283      8B666A62 
 283      C9
 284 0283 D3F1C6B6 		.ascii	"\323\361\306\266f\255\024\366\346!\237\245\233\320\345"
 284      66AD14F6 
 284      E6219FA5 
 284      9BD0E5
 285 0292 2C1F77C1 		.ascii	",\037w\301i\342\033w;\274\2357l\356\012\"{\236\237\307"
 285      69E21B77 
 285      3BBC9D37 
 285      6CEE0A22 
 285      7B9E9FC7 
 286 02a6 40339442 		.ascii	"@3\224B\021\017V\242y\340v\253\232y\2306K\177\006\344"
 286      110F56A2 
 286      79E076AB 
 286      9A799836 
 286      4B7F06E4 
 287 02ba 0CCE801B 		.ascii	"\014\316\200\033\235\3226\234\205L\362\\\327\222!]\363"
 287      9DD2369C 
 287      854CF25C 
 287      D792215D 
 287      F3
 288 02cb 48D7D617 		.ascii	"H\327\326\027\\#z,\306\007-A\307\203\333vt\002:\336"
 288      5C237A2C 
 288      C6072D41 
 288      C783DB76 
ARM GAS  C:\Users\AMANRA~1\AppData\Local\Temp\cck7hb2g.s 			page 23


 288      74023ADE 
 289 02df 2EB6E2E0 		.ascii	".\266\342\340\234pL\320\320\012n\211\274T\"\253\221"
 289      9C704CD0 
 289      D00A6E89 
 289      BC5422AB 
 289      91
 290 02f0 C871D321 		.ascii	"\310q\323!\307\243{8?mJ:\264\011d\205\220/\204\220\267"
 290      C7A37B38 
 290      3F6D4A3A 
 290      B4096485 
 290      902F8490 
 291 0305 7209ADCD 		.ascii	"r\011\255\315\020\353\242\300\022G\363\022b\335\203"
 291      10EBA2C0 
 291      1247F312 
 291      62DD83
 292 0314 82AE534D 		.ascii	"\202\256SM\301Z\250\010'z\270\020\217s>\310b\325\365"
 292      C15AA808 
 292      277AB810 
 292      8F733EC8 
 292      62D5F5
 293 0327 96F46972 		.ascii	"\226\364ir\337\374\242\257W\224\302\001\227\205/\225"
 293      DFFCA2AF 
 293      5794C201 
 293      97852F95 
 294 0337 7CB58BB8 		.ascii	"|\265\213\270\033\353Z\226H(=\222\021\307t\214$\240"
 294      1BEB5A96 
 294      48283D92 
 294      11C7748C 
 294      24A0
 295 0349 3FF82388 		.ascii	"?\370#\210|\245\246\256\306\201\310\005X\303D\350\020"
 295      7CA5A6AE 
 295      C681C805 
 295      58C344E8 
 295      10
 296 035a B826C2FD 		.ascii	"\270&\302\375S\340\346?\366\354\011\366\217\005\265"
 296      53E0E63F 
 296      F6EC09F6 
 296      8F05B5
 297 0369 AB9ACE78 		.ascii	"\253\232\316xt\002\306\213\027\256\200\313\207\272\230"
 297      7402C68B 
 297      17AE80CB 
 297      87BA98
 298 0378 C998A730 		.ascii	"\311\230\2470\250dE=2\033\361t\231\245\304\206!\241"
 298      A864453D 
 298      321BF174 
 298      99A5C486 
 298      21A1
 299 038a 9C62ECD8 		.ascii	"\234b\354\330*\350\230QDW\303\021uR\203\341\303\363"
 299      2AE89851 
 299      4457C311 
 299      755283E1 
 299      C3F3
 300 039c 144CD868 		.ascii	"\024L\330h|\270\247]A>M\354\212]\360\231\277\333S_\235"
 300      7CB8A75D 
 300      413E4DEC 
 300      8A5DF099 
 300      BFDB535F 
ARM GAS  C:\Users\AMANRA~1\AppData\Local\Temp\cck7hb2g.s 			page 24


 301 03b1 249D2621 		.ascii	"$\235&!\337\310:\353\201\315\363HB\007\013\245\222\365"
 301      DFC83AEB 
 301      81CDF348 
 301      42070BA5 
 301      92F5
 302 03c3 43AD4EA9 		.ascii	"C\255N\251e\237Q\037\276\006]\"\026*$\374%\273e\310"
 302      659F511F 
 302      BE065D22 
 302      162A24FC 
 302      25BB65C8 
 303 03d7 1B2CB003 		.ascii	"\033,\260\003\321\250\344\027&J\356 \177\262\344\032"
 303      D1A8E417 
 303      264AEE20 
 303      7FB2E41A 
 304 03e7 3BA86188 		.ascii	";\250a\210\030LiM\305\354p<\016\261k\226\011\364\200"
 304      184C694D 
 304      C5EC703C 
 304      0EB16B96 
 304      09F480
 305 03fa C2A43841 		.ascii	"\302\2448A\206Y\333\027d\3209\303\346\270\026n\216\356"
 305      8659DB17 
 305      64D039C3 
 305      E6B8166E 
 305      8EEE
 306 040c 5073BC2D 		.ascii	"Ps\274-\241\242\246\036\372#t\351!\375\316\011\372'"
 306      A1A2A61E 
 306      FA2374E9 
 306      21FDCE09 
 306      FA27
 307 041e A3CD86EB 		.ascii	"\243\315\206\353\002\315\374\342\251\277\203\365\231"
 307      02CDFCE2 
 307      A9BF83F5 
 307      99
 308 042b 0337264E 		.ascii	"\0037&N=n\267\356\277z\310I\245\3133J\207D\371nBf\021"
 308      3D6EB7EE 
 308      BF7AC849 
 308      A5CB334A 
 308      8744F96E 
 309 0442 D729945B 		.ascii	"\327)\224[\262\237\2601\202\255\022-\303)\037~\376X"
 309      B29FB031 
 309      82AD122D 
 309      C3291F7E 
 309      FE58
 310 0454 3CB34E18 		.ascii	"<\263N\030\037\307\327\021\303@5\237\347Y\224T\303T"
 310      1FC7D711 
 310      C340359F 
 310      E7599454 
 310      C354
 311 0466 A3235F63 		.ascii	"\243#_c'\250p\007\225&\221=\213Xc\324\032\230K\222i"
 311      27A87007 
 311      9526913D 
 311      8B5863D4 
 311      1A984B92 
 312 047b F8E15BC8 		.ascii	"\370\341[\310\256V\327w\016\220`\235u\333\344\211\033"
 312      AE56D777 
 312      0E90609D 
 312      75DBE489 
ARM GAS  C:\Users\AMANRA~1\AppData\Local\Temp\cck7hb2g.s 			page 25


 312      1B
 313 048c F68ED6EC 		.ascii	"\366\216\326\354S\244I\314T*z\224\251TLtb\036Q1\027"
 313      53A449CC 
 313      542A7A94 
 313      A9544C74 
 313      621E5131 
 314 04a1 EE0A2A2C 		.ascii	"\356\012*,2\327gO\312\213\210\012\312uL\361c=\376\216"
 314      32D7674F 
 314      CA8B880A 
 314      CA754CF1 
 314      633DFE8E 
 315 04b5 A4A2F350 		.ascii	"\244\242\363P\357\001K\356\250`\252\014\267\243\341"
 315      EF014BEE 
 315      A860AA0C 
 315      B7A3E1
 316 04c4 1E5E8A0C 		.ascii	"\036^\212\014z W^3&\031F\354\3240\366\377\222\305^~"
 316      7A20575E 
 316      33261946 
 316      ECD430F6 
 316      FF92C55E 
 317 04d9 D3948E57 		.ascii	"\323\224\216W\230\350%\275/B\261\022\261\017\220\330"
 317      98E825BD 
 317      2F42B112 
 317      B10F90D8 
 318 04e9 893E3F49 		.ascii	"\211>?I\015\024\023^7\320:6\274n\224\015F}ga\370\351"
 318      0D14135E 
 318      37D03A36 
 318      BC6E940D 
 318      467D6761 
 319 04ff 146A3C21 		.ascii	"\024j<!O\221sa\223LQ\216lm{\376\025\275\235>>?\362Z"
 319      4F917361 
 319      934C518E 
 319      6C6D7BFE 
 319      15BD9D3E 
 320 0517 499A74AD 		.ascii	"I\232t\255`\241\361@&C/\205\013\01712y\330[8\231F\332"
 320      60A1F140 
 320      26432F85 
 320      0B0F3132 
 320      79D85B38 
 321 052e 69C2EE68 		.ascii	"i\302\356h\340f\261\225\322\025'\034\303\205>a\371\010"
 321      E066B195 
 321      D215271C 
 321      C3853E61 
 321      F908
 322 0540 2DD11155 		.ascii	"-\321\021U\366\342\251\376\372\205\322q\012Z4\334:2"
 322      F6E2A9FE 
 322      FA85D271 
 322      0A5A34DC 
 322      3A32
 323 0552 6823001D 		.ascii	"h#\000\035\213\377\217\374\034x\012\311\230\231\316"
 323      8BFF8FFC 
 323      1C780AC9 
 323      9899CE
 324 0561 7C3CCD5A 		.ascii	"|<\315Z7\334\002O!\0053\243u\252\3257\274\030\023\264"
 324      37DC024F 
 324      210533A3 
 324      75AAD537 
ARM GAS  C:\Users\AMANRA~1\AppData\Local\Temp\cck7hb2g.s 			page 26


 324      BC1813B4 
 325 0575 32FC6C94 		.ascii	"2\374l\224WC\261\007$Z\252\004\254\275q\272\307)\001"
 325      5743B107 
 325      245AAA04 
 325      ACBD71BA 
 325      C72901
 326 0588 47C6C7C7 		.ascii	"G\306\307\307\243\240\037A\005IM!\222R\311\316\357)"
 326      A3A01F41 
 326      05494D21 
 326      9252C9CE 
 326      EF29
 327 059a 195D232D 		.ascii	"\031]#-\211\023\361)2\241&xJ\023\\\332d\213\321\011"
 327      8913F129 
 327      32A12678 
 327      4A135CDA 
 327      648BD109 
 328 05ae C702852A 		.ascii	"\307\002\205*\301&\325\201M\252\002\223\360\025\265"
 328      C126D581 
 328      4DAA0293 
 328      F015B5
 329 05bd 95C17E8C 		.ascii	"\225\301~\214\363\321\345#\316\376K\357\311i\272\342"
 329      F3D1E523 
 329      CEFE4BEF 
 329      C969BAE2 
 330 05cd 0DEA8681 		.ascii	"\015\352\206\201p7<\246&\214\2239W\327\006\217G\274"
 330      70373CA6 
 330      268C9339 
 330      57D7068F 
 330      47BC
 331 05df 7881FE0F 		.ascii	"x\201\376\017\266\016\203\341'r\210\260\343E\302v\374"
 331      B60E83E1 
 331      277288B0 
 331      E345C276 
 331      FC
 332 05f0 F6C084FB 		.ascii	"\366\300\204\373\261_|<Q\224#\021\355\252\275\347+\255"
 332      B15F7C3C 
 332      51942311 
 332      EDAABDE7 
 332      2BAD
 333 0602 C42BC3F7 		.ascii	"\304+\303\367\341_p\251\303\367\207 \262\003\0300x\002"
 333      E15F70A9 
 333      C3F78720 
 333      B2031830 
 333      7802
 334 0614 2EF3B97E 		.ascii	".\363\271~\005\277`\000Q\020yIF\206\033\377\255^\267"
 334      05BF6000 
 334      51107949 
 334      46861BFF 
 334      AD5EB7
 335 0627 7ED5FAAC 		.ascii	"~\325\372\254\234\314\305\231\013\335Y9\356u\237npg"
 335      9CCCC599 
 335      0BDD5939 
 335      EE759F6E 
 335      7067
 336 0639 677DF165 		.ascii	"g}\361e\216{\371\212\017\027\275\351^\266\354]\367G"
 336      8E7BF98A 
 336      0F17BDE9 
ARM GAS  C:\Users\AMANRA~1\AppData\Local\Temp\cck7hb2g.s 			page 27


 336      5EB6EC5D 
 336      F747
 337 064b 2BDEDF94 		.ascii	"+\336\337\224I;+7\346\254Z\271a\303\232\214\325L\305"
 337      493B2B37 
 337      E6AC5AB9 
 337      61C39A8C 
 337      D54CC5
 338 065e 69B6F259 		.ascii	"i\266\362Y6|nZ\273~mV6_\265q\355\177\232\276\311="
 338      367C6E5A 
 338      BB7E6D56 
 338      365FB571 
 338      ED7F9ABE 
 339              		.text
 340              		.section	.gnu.lto_otg_isoc_out_failed_handler.c3dc9563,"",%progbits
 341 0000 789C9555 		.ascii	"x\234\225UmL\233U\024\276\347\275\357W[Z\240jQ\326("
 341      6D4C9B55 
 341      14BEE7BD 
 341      EF575B5A 
 341      A06A51D6 
 342 0015 3F24CB62 		.ascii	"?$\313b\244t\374\322\304\304D\215\211a\361\207\374_"
 342      A474FCD2 
 342      C4C4448D 
 342      8961F187 
 342      FC5F
 343 0027 DC5CDC12 		.ascii	"\334\\\334\022\022\210l\3761\331.\037\243\253\220\310"
 343      12886CFE 
 343      31D92E1F 
 343      A3AB90C8 
 344 0037 164124DD 		.ascii	"\026A$\335\322lq\376\3209\211\233\216:\240+\310`|\215"
 344      D26C71FE 
 344      D039899B 
 344      8E3AA02B 
 344      C8607C8D 
 345 004b 0D1DB2BA 		.ascii	"\015\035\262\272\204\251D6\263\271\305,\304\220\342"
 345      84A94436 
 345      B3B9C52C 
 345      C490E2
 346 005a 39F7BEAD 		.ascii	"9\367\276\255\235\220e{\003\207{\317\347s\316s\357\305"
 346      9D90657B 
 346      03877BCF 
 346      E773CE73 
 346      EFC5
 347 006c 648C7D60 		.ascii	"d\214}`1V\215\177\005\376\202\233\201\3261\305X\243"
 347      31568D7F 
 347      05FE829B 
 347      81D631C5 
 347      58A3
 348 007e AD81AD16 		.ascii	"\255\201\255\026\\\323GK\231p[\243UL\024\350\232\321"
 348      5CD3474B 
 348      99705BA3 
 348      554C14E8 
 348      9AD1
 349 0090 11A49DD8 		.ascii	"\021\244\235\330\214;C3[\306\030m\333\015\334\232`\251"
 349      8C3B4333 
 349      5BC6186D 
 349      DB0DDC9A 
 349      60A9
ARM GAS  C:\Users\AMANRA~1\AppData\Local\Temp\cck7hb2g.s 			page 28


 350 00a2 184B059F 		.ascii	"\030K\005\237\263m\215\237J\221\203+\355A\007\027\000"
 350      B36D8D9F 
 350      4A91832B 
 350      ED410717 
 350      00
 351 00b3 E9850D6C 		.ascii	"\351\205\015l\237\306u\303\264l\027\354\323l\346|\355"
 351      9FC675C3 
 351      B46C17EC 
 351      D36CE67C 
 351      ED
 352 00c4 FC630EA9 		.ascii	"\374c\016\251\310b\237\266\351s\201_\362\223\3643\207"
 352      C8629FB6 
 352      E973815F 
 352      F293F433 
 352      87
 353 00d5 C545C163 		.ascii	"\305E\301c\234\261.\256\234\340\033\330\204n3-_\307"
 353      9CB12EAE 
 353      9CE01BD8 
 353      846E332D 
 353      5FC7
 354 00e7 781B5A00 		.ascii	"x\033Z\000t\334\336\231\354\371\325G[\015\312p\2734"
 354      74DCDE99 
 354      ECF9D547 
 354      5B0DCA70 
 354      BB34
 355 00f9 D33B5BC8 		.ascii	"\323;[\310_\006\206\353?\026\216\324l\374L\210&\221"
 355      5F0686EB 
 355      3F168ED4 
 355      6CFC4C88 
 355      2691
 356 010b FCED3817 		.ascii	"\374\3558\027\317\3068\207o\201c>8\015A8\005A\206*\006"
 356      CFC63887 
 356      6F81633E 
 356      380D4138 
 356      0541862A 
 357 0120 DFC14672 		.ascii	"\337\301Fr\357>x3j\360\327d\350\027\035\023Kz\3711\031"
 357      EF3E7833 
 357      6AF0D764 
 357      E8171D13 
 357      4B7AF931 
 358 0135 3BB25A74 		.ascii	";\262Zt\264Y\214\012=\306u8s\177<}\350\276\0209\276"
 358      B4598C0A 
 358      3DC67538 
 358      737F3C7D 
 358      E8BE1039 
 359 014a E2E36FC8 		.ascii	"\342\343o\310\320\314\365\266i\315\011\315d\002\215"
 359      D0CCF5B6 
 359      69CD09CD 
 359      64028D
 360 0159 CDA29B42 		.ascii	"\315\242\233B\015H\250\320\252 T\346\002\257\367f:\275"
 360      0D48A8D0 
 360      AA2054E6 
 360      02AFF766 
 360      3ABD
 361 016b A60EDF43 		.ascii	"\246\016\337C9\364A\271\352\025\316\202\311\2001-\253"
 361      39F441B9 
 361      EA15CE82 
ARM GAS  C:\Users\AMANRA~1\AppData\Local\Temp\cck7hb2g.s 			page 29


 361      C980312D 
 361      AB
 362 017c 3E79C948 		.ascii	">y\311H\212\314jD$\357\355\375\347\357\363\335\332\006"
 362      8ACC6A44 
 362      24EFEDFD 
 362      E7EFF3DD 
 362      DA06
 363 018e 40E4A686 		.ascii	"@\344\246\206\302\342$t\022\006\012\333D\341\262P\270"
 363      C2E22474 
 363      12060ADB 
 363      44E1B250 
 363      B8
 364 019f 6D7271D1 		.ascii	"mrq\321\312M\302C\242\200\254^\024\036\037\212\202B"
 364      CA4DC243 
 364      A280AC5E 
 364      141E1F8A 
 364      8242
 365 01b1 0A2B42E1 		.ascii	"\012+B\341-\246\225\237Q\301\000\320@J\030\025.\225"
 365      2DA6959F 
 365      51C100D0 
 365      404A1815 
 365      2E95
 366 01c3 1AC60E20 		.ascii	"\032\306\016 \254\264G$Y\224k\270hN\262\033\320\224"
 366      ACB44724 
 366      59946BB8 
 366      684EB21B 
 366      D094
 367 01d5 585AFEC8 		.ascii	"XZ\376\310MX{x\011\266\322\265?5m\021\021\\\216\341"
 367      4D587B78 
 367      09B6D2B5 
 367      3F356D11 
 367      115C8EE1 
 368 01e9 6C6A72C4 		.ascii	"ljr\304\214\303\221F\2443~\213\360\372zx\000\372ihh"
 368      8CC39146 
 368      A4337E8B 
 368      F0FA7A78 
 368      00FA6968 
 369 01fe 9E8DCC5D 		.ascii	"\236\215\314]\363\204N\020\331e4\327\001\210C\247$\032"
 369      F3844E10 
 369      D96534D7 
 369      018843A7 
 369      241A
 370 0210 0621C416 		.ascii	"\006!\304\026\241)~\024(9\301\300\002Rssp\203T!\246"
 370      A1297E14 
 370      2839C1C0 
 370      02527373 
 370      70835421 
 371 0225 FC820630 		.ascii	"\374\202\0060HJ2\242H'\236;\205\357n\244\177\265\037"
 371      484A32A2 
 371      48279E3B 
 371      85EF6EA4 
 371      7FB51F
 372 0238 1440E8E1 		.ascii	"\024@\350\341~\324\245\022.\265\327\362\343\365\265"
 372      7ED4A512 
 372      2EB5D7F2 
 372      E3F5B5
 373 0247 80F722DE 		.ascii	"\200\367\"\336B,\013\347\326\305[\004)\211\027\024\213"
ARM GAS  C:\Users\AMANRA~1\AppData\Local\Temp\cck7hb2g.s 			page 30


 373      422C0BE7 
 373      D6C55B04 
 373      29891714 
 373      8B
 374 0258 23B717C6 		.ascii	"#\267\027\306\365\360I2\306\277\202\030/\206!\010\365"
 374      F5F04932 
 374      C6BF8218 
 374      2F862108 
 374      F5
 375 0269 482B99C7 		.ascii	"H+\231\307\217]\371\322\207\261-\215\">\200f?\014C\270"
 375      8F5DF9D2 
 375      87B12D8D 
 375      223E8066 
 375      3F0C43B8 
 376 027d 132789CD 		.ascii	"\023'\211\315\376\200\315\336\200\346\225\326\250\203"
 376      FE80CDDE 
 376      80E695D6 
 376      A883
 377 028b 8C2B7007 		.ascii	"\214+p\007\023\363\313^\002g\201\020\2250\2020~\207"
 377      13F3CB5E 
 377      02678110 
 377      95308230 
 377      7E87
 378 029d 96F9A161 		.ascii	"\226\371\241a\247!\2720\313\375\321\303z\326\247\010"
 378      A721BA30 
 378      CBFDD1C3 
 378      7AD6A708 
 379 02ad CE3BE731 		.ascii	"\316;\3471\312uv! g\220J,\255\334\366\250\010\375\221"
 379      CA757621 
 379      2067904A 
 379      2CADDCF6 
 379      A808FD91 
 380 02c1 7B1C7D70 		.ascii	"{\034}p\217c\017\356\361B\256\307q\331#\362\361\251"
 380      8F630FEE 
 380      F142AEC7 
 380      71D923F2 
 380      F1A9
 381 02d3 57413110 		.ascii	"WA1\020\015\26535tm\365\214\351\350\362\031\301w\002"
 381      0DB53335 
 381      746DF58C 
 381      E9E8F219 
 381      C17702
 382 02e6 2672ED18 		.ascii	"&r\355\030\254\303\316\036\271\366\336\240\3627\377"
 382      ACC3CE1E 
 382      B9F6DEA0 
 382      F237FF
 383 02f5 D74ED9BA 		.ascii	"\327N\331\272\007\354\371\030\177\014&e\037\362fMe\241"
 383      07ECF918 
 383      7F0C2665 
 383      1FF2664D 
 383      65A1
 384 0307 3863B430 		.ascii	"8c\2640\021\315\377\257VGa\303sA\352*\337\311\205jR"
 384      11CDFFAF 
 384      564761C3 
 384      7341EA2A 
 384      DFC9856A 
 385 031c 64B24E6E 		.ascii	"d\262Nn\324)\326\034\205Gfr\337\027U\200jR\314~(\025"
ARM GAS  C:\Users\AMANRA~1\AppData\Local\Temp\cck7hb2g.s 			page 31


 385      D429D61C 
 385      85476672 
 385      DF175580 
 385      6A52CC7E 
 386 0332 0F0F77FA 		.ascii	"\017\017w\372?\270\027i\304\005\224e\3009\036\336\207"
 386      3FB81769 
 386      C4059465 
 386      C0391EDE 
 386      87
 387 0343 CA93E5F0 		.ascii	"\312\223\345\360q\230\221\311\3645\034\242\321\003\227"
 387      719891C9 
 387      F4351CA2 
 387      D10397
 388 0352 720CC265 		.ascii	"r\014\302e\010\313\001;e|\371lx\326\334\017\214~\002"
 388      08CB013B 
 388      657CF96C 
 388      78D6DC0F 
 388      8C7E02
 389 0365 B1C0AC53 		.ascii	"\261\300\254S\365N\333\2419\300\252\035\322\024\200"
 389      F54EDBA1 
 389      39C0AA1D 
 389      D21480
 390 0374 1F655583 		.ascii	"\037eU\203\022\377\204\023G\252\257\276\262N\342\022"
 390      12FF8413 
 390      47AAAFBE 
 390      B24EE212 
 391 0384 A4F94A8E 		.ascii	"\244\371J\216f\223MZH\363\237\260\277L\276\200\350\214"
 391      66934D5A 
 391      48F39FB0 
 391      BF4CBE80 
 391      E88C
 392 0396 BF01BCB9 		.ascii	"\277\001\274\2711\376\244\364\260r\227\273\271\253\365"
 392      31FEA4F4 
 392      B07297BB 
 392      B9ABF5
 393 03a5 C4EA0257 		.ascii	"\304\352\002W9K\321\005\323\236\216L\364\272\325{\000"
 393      394BD105 
 393      D39E8E4C 
 393      F4BAD57B 
 393      00
 394 03b6 308769F1 		.ascii	"0\207i\361\311(\313\276\027\350%S\330\014\377\021a\212"
 394      C928CBBE 
 394      17E82553 
 394      D80CFF11 
 394      618A
 395 03c8 45D098D2 		.ascii	"E\320\230\322\373\025k}\206JV\350h\022c/*E\321#M\334"
 395      FB156B7D 
 395      864A56E8 
 395      6812632F 
 395      2A45D123 
 396 03de 0B3FCBDE 		.ascii	"\013?\313\336M\352}^\235\266\304\330\026\225\2528\277"
 396      4DEA7D5E 
 396      9DB6C4D8 
 396      1695AA38 
 396      BF
 397 03ef 79EF7A53 		.ascii	"y\357zS}\012\353\301\325u\247Z\012i\231\331\242\314"
 397      7D0AEBC1 
ARM GAS  C:\Users\AMANRA~1\AppData\Local\Temp\cck7hb2g.s 			page 32


 397      D575A75A 
 397      0A6999D9 
 397      A2CC
 398 0401 BFA8A94E 		.ascii	"\277\250\251N\017\005s\250\213i\212\367\300OO\241v\227"
 398      0F0573A8 
 398      8B698AF7 
 398      C04F4FA1 
 398      7697
 399 0413 C6621D7A 		.ascii	"\306b\035z\032;v\251\007\373\026\276\237\203\303\305"
 399      1A3B76A9 
 399      07FB16BE 
 399      9F83C3C5 
 400 0423 72B2F41D 		.ascii	"r\262\364\035@\342\323\036\274\237/UT\204\360g\373\316"
 400      40E2D31E 
 400      BC9F2F55 
 400      5484F067 
 400      FBCE
 401 0435 5DDB76D5 		.ascii	"]\333v\3255\204_\010W\206\352\032B;\337\256\015\325"
 401      35845F08 
 401      5786EA1A 
 401      423BDFAE 
 401      0DD5
 402 0447 D7BDB7BB 		.ascii	"\327\275\267\273!\364V\315\226\252\315\241\352\352W"
 402      21F456CD 
 402      96AACDA1 
 402      EAEA57
 403 0456 436FD6BC 		.ascii	"Co\326\274\376~\230,[\3674l\333Z[\373N\305v\246\343"
 403      FE7E982C 
 403      5BF7346C 
 403      DB5A5BFB 
 403      4EC576A6 
 404 046b B25EAFDB 		.ascii	"\262^\257\333\375n\275\266\243\376_\376\227s\276"
 404      FD6EBDB6 
 404      A3FE5FFE 
 404      9773BE
 405              		.text
 406              		.section	.gnu.lto_otg_isoc_in_failed_handler.c3dc9563,"",%progbits
 407 0000 789C9557 		.ascii	"x\234\225W{PTe\024\377\316\375\356\335\367\013\0244"
 407      7B505465 
 407      14FFCEFD 
 407      EEDDF70B 
 407      1434
 408 0012 D90C547C 		.ascii	"\331\014T|5\261\222\177\325T\223SM3\215N3\345\277\215"
 408      35B1927F 
 408      D5549353 
 408      4D338D4E 
 408      33E5BF8D 
 409 0026 93A6E98C 		.ascii	"\223\246\351\21438b\315\324\037y\021\0247-\037\011*"
 409      333862CD 
 409      D41F7911 
 409      14372D1F 
 409      092A
 410 0038 830EE6E4 		.ascii	"\203\016\346\344\243\00434e\005\\\301\024|\241Fj\212"
 410      A3043334 
 410      65055CC1 
 410      147CA146 
 410      6A8A
ARM GAS  C:\Users\AMANRA~1\AppData\Local\Temp\cck7hb2g.s 			page 33


 411 004a 0F50D155 		.ascii	"\017P\321U\304G\212\250\210\235\363}w\327\005\026\037"
 411      C4478AA8 
 411      889DF37D 
 411      77D70516 
 411      1F
 412 005b 3B70F6DE 		.ascii	";p\366\336\363\372~\347q\317\271kb\214}\346d,\013\277"
 412      F3FA7EE7 
 412      71CFB96B 
 412      628C7DE6 
 412      642C0BBF 
 413 006f 9BF01FE2 		.ascii	"\233\360\037\342\030(\213\017#\303\242\200S^pE\255\031"
 413      18288B0F 
 413      23C3A280 
 413      535E7045 
 413      AD19
 414 0081 C0749BA3 		.ascii	"\300t\233\243f4\323\035\252\242\355\213\243\273\332"
 414      6634D31D 
 414      AAA2ED8B 
 414      A3BBDA
 415 0090 B7F04E03 		.ascii	"\267\360N\003\223T2)\236\255U\014\371\346\006;\362="
 415      93543229 
 415      9EAD550C 
 415      F9E6063B 
 415      F23D
 416 00a2 923FC60C 		.ascii	"\222?\306\014\026)\267(n)\267\012\271[\362\307X\025"
 416      1629B728 
 416      6E29B70A 
 416      B95BF2C7 
 416      5815
 417 00b4 5B4E2DB1 		.ascii	"[N-\261\355\0135d\333\300.\325\355\340\220\027\016\211"
 417      ED0B3564 
 417      DBC02ED5 
 417      EDE09017 
 417      0E89
 418 00c6 62B7C5A9 		.ascii	"b\267\305\251p\351\300%\034\270\000\210\257[\200\315"
 418      70E9C025 
 418      1CB80088 
 418      AF5B80CD 
 419 00d6 56B8AA99 		.ascii	"V\270\252\231<f\213\333j\263;\234.\230\255bD\362c\012"
 419      3C668BDB 
 419      6AB33B9C 
 419      2E98AD62 
 419      44F2630A 
 420 00ea 5F58C217 		.ascii	"_X\302\027\013\3712\016U\271\315e\312\210\365:~\202"
 420      0BF9320E 
 420      55B9CD65 
 420      CA88F53A 
 420      7E82
 421 00fc CB1B06AE 		.ascii	"\313\033\006\256\322\217\350\274\2203\226\317\245\022"
 421      D28FE8BC 
 421      903396CF 
 421      A512
 422 010a 94C20854 		.ascii	"\224\302\010T;\232\363{!_\200\022\000\025oo\035*\270"
 422      3B9AF37B 
 422      215F8012 
 422      00156F6F 
 422      1D2AB8
ARM GAS  C:\Users\AMANRA~1\AppData\Local\Temp\cck7hb2g.s 			page 34


 423 011d E0A25B05 		.ascii	"\340\242[\005\222\3616ttK\275\233\277\013\014\257\257"
 423      92F13674 
 423      744BBD9B 
 423      BF0B0CAF 
 423      AF
 424 012e 34AE1E3F 		.ascii	"4\256\036?\354\027]\237\243\007\033\326q}H!\347\360"
 424      EC175D9F 
 424      A3071BD6 
 424      717D4821 
 424      E7F0
 425 0140 2770F407 		.ascii	"'p\364\007\333\300\013[\301\313\220\305`;\014#\365\025"
 425      DBC00B5B 
 425      C1CB90C5 
 425      603B0C23 
 425      F515
 426 0152 4BAEF935 		.ascii	"K\256\3715\376\2010\375m\361\301\220\232\272V\330\356"
 426      FE8130FD 
 426      6DF1C190 
 426      9ABA56D8 
 426      EE
 427 0163 7DE8F939 		.ascii	"}\350\3719[\257\321\325B\256\302\216\256\366\364A\365"
 427      5BAFD1D5 
 427      42AEC28E 
 427      AEF6F441 
 427      F5
 428 0174 C6DC751D 		.ascii	"\306\334u\035.\376\2210\355lZP\247\030\246\235\017\022"
 428      2EFE9130 
 428      ED6C5A50 
 428      A718A69D 
 428      0F12
 429 0186 B3B2F515 		.ascii	"\263\262\365\025d\252A@\232\216\366\302\250\210a\323"
 429      64AA4140 
 429      9A8EF6C2 
 429      A88861D3 
 430 0196 96CE3CA7 		.ascii	"\226\316<\247I\205\235\220\012e\220*c\205r01`L\011\263"
 430      49859D90 
 430      0A65902A 
 430      63857230 
 430      31604C09 
 431 01ab 371FD382 		.ascii	"7\037\323\202z\347\343\\=\330\366\355\375;\255\375F"
 431      7AE7E35C 
 431      3DD8F6ED 
 431      FD3BADFD 
 431      46
 432 01bc 00023729 		.ascii	"\000\0027)H\314\234\210JDCb1\321\225\231\210\205\210"
 432      48CC9C88 
 432      4A444362 
 432      31D19599 
 432      888588
 433 01cf 95783624 		.ascii	"\225x6$V;\022\233\203\314\234t\345\"\342&\342!i\034"
 433      563B129B 
 433      83CC9C74 
 433      E522E226 
 433      E221691C 
 434 01e3 127B3C12 		.ascii	"\022{<\022G\0372\353\213\304\231@W\211\2140$\001\345"
 434      471F32EB 
 434      8BC49940 
ARM GAS  C:\Users\AMANRA~1\AppData\Local\Temp\cck7hb2g.s 			page 35


 434      57898C30 
 434      2401E5
 435 01f6 C8CB084B 		.ascii	"\310\313\010K\212\340\014B\241:\2304\206\020I%2\224"
 435      8AE00C42 
 435      A13A9834 
 435      86104925 
 435      3294
 436 0208 0863F331 		.ascii	"\010c\3631\204\006\273\036d~\256\340Ev\220]\2059\201"
 436      8406BB1E 
 436      647EAEE0 
 436      4576905D 
 436      853981
 437 021b D08E4536 		.ascii	"\320\216E6\212\253\200{1\354\374\271Uuf*\032\027)+\257"
 437      8AAB807B 
 437      31ECFCB9 
 437      5575662A 
 437      1A17292B 
 438 0230 3AB4D754 		.ascii	":\264\327T\004\253\263\260\364E\255\024\234\253\200"
 438      04ABB3B0 
 438      F445AD14 
 438      9CAB80
 439 023f 27410525 		.ascii	"'A\005%\030\305\365\271'\317\332}\305\324\030\311T\203"
 439      18C5F5B9 
 439      27CFDA7D 
 439      C5D418C9 
 439      5483
 440 0251 4A28823C 		.ascii	"J(\202<\321\024\260\013|\254\031\346\024\375\014\344"
 440      D114B00B 
 440      7CAC19E6 
 440      14FD0CE4 
 441 0261 9CF0E101 		.ascii	"\234\360\341\001\202s\255\"I\260\020l\364\201\0320\010"
 441      8273AD22 
 441      49B0106C 
 441      F4811A30 
 441      08
 442 0272 8AC2F9B1 		.ascii	"\212\302\371\261\364\330\274\022\337\355\334\212{\025"
 442      F4D8BC12 
 442      DFEDDC8A 
 442      7B15
 443 0280 20014201 		.ascii	" \001B\001OD^U\300*\357\225h{\265'\340\357\020\257\033"
 443      4F445E55 
 443      C02AEF95 
 443      687BB527 
 443      E0EF10AF 
 444 0295 8F85DD31 		.ascii	"\217\205\3351\361z\240J\340\005Y\361\2757\032\017\250"
 444      F17AA04A 
 444      E00559F1 
 444      BD371A0F 
 444      A8
 445 02a6 E99B4958 		.ascii	"\351\233IXT\002\205<\016\252\301W \244$>\260\366\304"
 445      5402853C 
 445      0EAAC157 
 445      20A4243E 
 445      B0F6C4
 446 02b9 2617DAE6 		.ascii	"&\027\332\346d\351E\225(\216\207=\220\236\207\231\304"
 446      64E94595 
 446      288E873D 
ARM GAS  C:\Users\AMANRA~1\AppData\Local\Temp\cck7hb2g.s 			page 36


 446      909E8799 
 446      C4
 447 02ca 60FFC260 		.ascii	"`\377\302`\257Bv\307<\277\201\214KpK\002\247\332\235"
 447      AF4276C7 
 447      3CBF818C 
 447      4B704B02 
 447      A7DA9D
 448 02dd 04CE0CBA 		.ascii	"\004\316\014\272>\012\366\"\214K\220s\252z\217\021\020"
 448      3E0AF622 
 448      8C4B9073 
 448      AA7A8F11 
 448      10
 449 02ee 3D5CED15 		.ascii	"=\\\355\025\376UjX\307\003\373\214\336\365s\225\355"
 449      FE556A58 
 449      C703FB8C 
 449      DEF57395 
 449      ED
 450 02ff 4F1439A8 		.ascii	"O\0249\250\012\204\312o\330\245\205\372\3021\326<=\306"
 450      0A84CA6F 
 450      D8A585FA 
 450      C231D63C 
 450      3DC6
 451 0311 DAA7C7B8 		.ascii	"\332\247\307\270?\022\343\001\021#\326c\245SB\321\020"
 451      3F12E301 
 451      1123D663 
 451      A55342D1 
 451      10
 452 0322 0D8573B8 		.ascii	"\015\205s\270\372\354\303\035&\203\027]\021\0346p0\022"
 452      FAECC31D 
 452      2683175D 
 452      111C3670 
 452      3012
 453 0334 8EC6FC5A 		.ascii	"\216\306\374Z8\234]\213\334R\337\324-\234\344\230\301"
 453      389C5D8B 
 453      DC52DFD4 
 453      2D9CE498 
 453      C1
 454 0345 BC46711C 		.ascii	"\274Fq\034\352\031\207\217\0028\0343\000\001\276.\002"
 454      EA19878F 
 454      02381C33 
 454      0001BE2E 
 454      02
 455 0356 FE882C50 		.ascii	"\376\210,P\373<#\361fy\364\217U9u\226p\356\365\240\012"
 455      FB3C23F1 
 455      6679F48F 
 455      55397596 
 455      70EEF5A0 
 456 036b 47F15C44 		.ascii	"G\361\\DX\377\275\320{~p\307z\001\367w\357\340\352#"
 456      58FFBDD0 
 456      7B7E70C7 
 456      7A01F777 
 456      EFE0EA23 
 457 037f E0FE2125 		.ascii	"\340\376!%\263H\222\211\205R\302I\252\251sI\260\226"
 457      B3489289 
 457      8552C249 
 457      AAA97349 
 457      B096
ARM GAS  C:\Users\AMANRA~1\AppData\Local\Temp\cck7hb2g.s 			page 37


 458 0391 EE35FF15 		.ascii	"\3565\377\025\236U\364\343\275\025= \212~\242\267\242"
 458      9E55F4E3 
 458      BD153D20 
 458      8A7EA2B7 
 458      A2
 459 03a2 5F15D04E 		.ascii	"_\025\320NF\240\375\033.z\210K,V\204#\213\336b\244\322"
 459      46A0FD1B 
 459      2E7A884B 
 459      2C568423 
 459      8BDE62A4 
 460 03b7 1AA9F17C 		.ascii	"\032\251\361|\356a\347\275\340\307X\214R\317\351\260"
 460      EE61E7BD 
 460      E0C7588C 
 460      52CFE9B0 
 461 03c7 B1023E08 		.ascii	"\261\002>\010\017yPZ\022rP\246\373@=\035Z\374\307\312"
 461      0F79505A 
 461      127250A6 
 461      FB403D1D 
 461      5AFCC7CA 
 462 03db 7207C683 		.ascii	"r\007\306\203\347\2514QN\221\0178\215\260\305\214(\255"
 462      E7A93451 
 462      4E910F38 
 462      8DB0C58C 
 462      28AD
 463 03ed 341B0558 		.ascii	"4\033\005X\326<\377\256{\344\006\261{\332\312\2655\331"
 463      D63CFFAE 
 463      7BE406B1 
 463      7BDACAB5 
 463      35D9
 464 03ff 943D63EF 		.ascii	"\224=c\3570h\200\221h\335\315\344n\351\205\365\032\037"
 464      30688091 
 464      68DDCDE4 
 464      6EE985F5 
 464      1A1F
 465 0411 27E6C1A9 		.ascii	"'\346\301\251\363K\216qc\346\267=\030\260\306X\027}"
 465      F34B8E71 
 465      63E6B73D 
 465      18B0C658 
 465      177D
 466 0423 E14CCF75 		.ascii	"\341L\317u\001giH\365Ao\012\231\236\333\266\356\246"
 466      01676948 
 466      F5416F0A 
 466      999EDBB6 
 466      EEA6
 467 0435 D5306D4A 		.ascii	"\3250mJ+\320\2039\3111\366\2240<\207\333\000\241\010"
 467      2BD08339 
 467      C931F694 
 467      303C87DB 
 467      00A108
 468 0448 1CDB970F 		.ascii	"\034\333\227\017\217\254\217\034\001\273\271\303%4\320"
 468      8FAC8F1C 
 468      01BBB9C3 
 468      2534D0
 469 0457 BDD820F9 		.ascii	"\275\330 \371\274\307&k-y\346&\013/\244F\362r\036\347"
 469      BCC7266B 
 469      2D79E626 
 469      0B2FA446 
ARM GAS  C:\Users\AMANRA~1\AppData\Local\Temp\cck7hb2g.s 			page 38


 469      F2721EE7 
 470 046b 6713ED22 		.ascii	"g\023\355\"$\304\301$S\177\337\234\367\350\314& f\001"
 470      24C4C124 
 470      537FDF9C 
 470      F7E8CC26 
 470      206601
 471 047e 1F8CA1A0 		.ascii	"\037\214\241\240\331\305\207\305\001\261\205M\250yA"
 471      D9C587C5 
 471      01B1854D 
 471      A87941
 472 048d B4373E06 		.ascii	"\2647>\006~\273T\032\202z\321\253\332\014\311p1\374"
 472      7EBB541A 
 472      827AD1AB 
 472      DA0CC970 
 472      31FC
 473 049f 0CACD448 		.ascii	"\014\254\324H)\252\371@t\335\240H\327\035\337\036\330"
 473      29AAF940 
 473      74DDA048 
 473      D71DDF1E 
 473      D8
 474 04b0 EE343A67 		.ascii	"\3564:g 5\316%\321v\\\340c\320L]6D\364\265%\252\257"
 474      2035CE25 
 474      D1765CE0 
 474      63D04C5D 
 474      3644F4B5 
 475 04c7 DB2F99E5 		.ascii	"\333/\231\345\341\251\317\347:\231<_\356\342\371Jx\336"
 475      E1A9CFE7 
 475      3A993C5F 
 475      EEE2F94A 
 475      78DE
 476 04d9 AE345C0D 		.ascii	"\2564\\\015Eo\0028\266\346\351\352\203F\012\206\242"
 476      456F0238 
 476      B6E6E9EA 
 476      83460A86 
 476      A2
 477 04ea A3CD2D65 		.ascii	"\243\315-e\367\215\021\314 \024\351T\267\354T\253\354"
 477      F78D11CC 
 477      2014E954 
 477      B7EC54AB 
 477      EC
 478 04fb 54A3E2F7 		.ascii	"T\243\342\367\363v\237\000\376\211\250N\311\332\015"
 478      F3769F00 
 478      FE89A84E 
 478      C9DA0D
 479 050a 1BCD4675 		.ascii	"\033\315Fu\232K\"\215\223\000Wc\324\377\232Xey\207*"
 479      9A4B228D 
 479      93005763 
 479      D4FF9A58 
 479      6579872A 
 480 051e 4E8AF79F 		.ascii	"N\212\367\237\004\210\207\026\224\265@\316\371\313?"
 480      04888716 
 480      94B540CE 
 480      F9CB3F
 481 052d 5436F7EF 		.ascii	"T6\367\357\326\020?\265\331\311DT/\237+Q\325ep\035\313"
 481      D6103FB5 
 481      D9C94454 
 481      2F9F2B51 
ARM GAS  C:\Users\AMANRA~1\AppData\Local\Temp\cck7hb2g.s 			page 39


 481      D565701D 
 482 0542 D44A3112 		.ascii	"\324J1\022AAYY\313i\363\354G\272\245\220'\346c\373]"
 482      41415959 
 482      CB69F3EC 
 482      47BAA590 
 482      27E663FB 
 483 0557 27D90D98 		.ascii	"'\331\015\230\315\350\204B\336\217z.Y\264\001y\214~"
 483      CDE88442 
 483      DE8F7A2E 
 483      59B40179 
 483      8C7E
 484 0569 1244BF49 		.ascii	"\022D\277Iq\271\354\022&\026\376\306:c\370\332z\316"
 484      71B9EC12 
 484      2616FEC6 
 484      3A63F8DA 
 484      7ACE
 485 057b B718DB1D 		.ascii	"\267\030\333\035\347[\177\270)\322\257R\254\267\302"
 485      E75B7FB8 
 485      29D2AF52 
 485      ACB7C2
 486 058a 23C178FE 		.ascii	"#\301x\376\355\350H\366\236\301p\300\253^\232.\321J"
 486      EDE848F6 
 486      9EC170C0 
 486      AB5E9A2E 
 486      D14A
 487 059c 4E6413A3 		.ascii	"Nd\023\2433\254\204\0079e\011\015\206[xru\261\362 \233"
 487      33AC8407 
 487      3965090D 
 487      865B7872 
 487      75B1F220 
 488 05b1 18BD8EE3 		.ascii	"\030\275\216\343\336\340\336~\002\367?jB\017y\2514v"
 488      DEE0DE7E 
 488      02F73F6A 
 488      420F79A9 
 488      3476
 489 05c3 73DC73F9 		.ascii	"s\334s\371\011\317\322\227\340\216p\246\365\230\245"
 489      09CFD297 
 489      E08E70A6 
 489      F598A5
 490 05d2 28B4C3DD 		.ascii	"(\264\303\335\310$\2056H\027\3715\216\211\217^\205\366"
 490      C8248536 
 490      4817F935 
 490      8E898F5E 
 490      85F6
 491 05e4 1E2F2768 		.ascii	"\036/'h=\000\261\300=\343\324[\013\226\236\004<u\261"
 491      3D00B1C0 
 491      3DE3D45B 
 491      0B969E04 
 491      3C75B1
 492 05f7 102541BB 		.ascii	"\020%A\2738\225^\310\341>f\234\372\372\275\030\216\275"
 492      38955EC8 
 492      E13E669C 
 492      FAFABD18 
 492      8EBD
 493 0609 D8D50F22 		.ascii	"\330\325\017\";\326\306\316\251\330\316-0W\324\034g"
 493      3BD6C6CE 
 493      A9D8CE2D 
ARM GAS  C:\Users\AMANRA~1\AppData\Local\Temp\cck7hb2g.s 			page 40


 493      3057D41C 
 493      67
 494 061a 6F3CFE27 		.ascii	"o<\376'\341kS!\177Yh\330e\303\243FQ\350\035\241\323"
 494      E16B5321 
 494      7F5968D8 
 494      65C3A346 
 494      51E81DA1 
 495 062f B5C706E6 		.ascii	"\265\307\006\346S\332\340!6X\330\360\025a\350\210\274"
 495      53DAE021 
 495      3658D8F0 
 495      1561E888 
 495      BC
 496 0640 9265E7CF 		.ascii	"\222e\347\317+\276\327h\354\203\024TA\017\333r\017n"
 496      2BBED768 
 496      EC831454 
 496      410FDB72 
 496      0F6E
 497 0652 B1C9B738 		.ascii	"\261\311\2678\200\016\360>i\273\2354\234R\204\013'\303"
 497      800EF03E 
 497      69BB9D34 
 497      9C52840B 
 497      27C3
 498 0664 DF20C6D3 		.ascii	"\337 \306\323&\371\211\262\334e\232t\326\307\340\004"
 498      26F989B2 
 498      DC659A74 
 498      D6C7E004 
 499 0674 6ADF948C 		.ascii	"j\337\224\214\276/T*'<\022I\243U\012\235\262M\003\265"
 499      BE2F542A 
 499      273C1249 
 499      A3550A9D 
 499      B24D03B5 
 500 0688 E3A4AB84 		.ascii	"\343\244\253\204\350\2549c\225#\031\317\203\3071\313"
 500      E8AC3963 
 500      952319CF 
 500      83C731CB 
 501 0698 9102BA42 		.ascii	"\221\002\272B\236\351g\021d)\242\034u\325\336\010\352"
 501      9EE96711 
 501      6429A21C 
 501      75D5DE08 
 501      EA
 502 06a9 044A7F1B 		.ascii	"\004J\177\033$\322\013\254r\233\322\342X:\020#v\311"
 502      24D20BAC 
 502      729BD2E2 
 502      583A1023 
 502      76C9
 503 06bb D7EC567C 		.ascii	"\327\354V|(\357U\212\0366\306\017\240\000\027\354\333"
 503      28EF558A 
 503      1E36C60F 
 503      A00017EC 
 503      DB
 504 06cc 69693EFC 		.ascii	"ii>\374\2334u\332\304i\031\231\351o\244\217\362ed\372"
 504      9B3475DA 
 504      C4691999 
 504      E96FA48F 
 504      F26564FA 
 505 06e0 A67E3EDD 		.ascii	"\246~>\3357#c\346\254L\337\247\343\307\215~\3357v\354"
 505      372363E6 
ARM GAS  C:\Users\AMANRA~1\AppData\Local\Temp\cck7hb2g.s 			page 41


 505      AC4CDFA7 
 505      E3C78D7E 
 505      DD3776EC 
 506 06f4 FBBE8FC7 		.ascii	"\373\276\217\307\177\370u:I&|\2259q\302\364\351_\244"
 506      7FF8753A 
 506      49267C95 
 506      3971C2F4 
 506      E95FA4
 507 0707 4D622A5E 		.ascii	"Mb*^\316P3f}9C\231<C\2352mJ\206i\3227\223\246O\316\034"
 507      CE503366 
 507      7D394399 
 507      3C439D32 
 507      6D4A8669 
 508 0722 DEABDB8C 		.ascii	"\336\253\333\214L$3g\211\357\264\251\354\177\376Kp\267"
 508      4C243367 
 508      89EFB4A9 
 508      EC7FFE4B 
 508      70B7
 509              		.text
 510              		.section	.gnu.lto_otg_core_reset.isra.4.c3dc9563,"",%progbits
 511 0000 789C9553 		.ascii	"x\234\225S[lTU\024=\353\236\373\232;3`\3702\204\220"
 511      5B6C5455 
 511      143DEB9E 
 511      FB9A3B33 
 511      60F83284 
 512 0015 FE34959F 		.ascii	"\3764\225\237\271V\374\361\203\204&&b\0021\201\376\023"
 512      B956FCF1 
 512      83842626 
 512      62023181 
 512      FE13
 513 0027 A9849234 		.ascii	"\251\204\2224\231\206\251&~\365\320\016\224F\215<\234"
 513      9986A926 
 513      7EF5D00E 
 513      94468D3C 
 513      9C
 514 0038 8293B1A9 		.ascii	"\202\223\261\251Vp\014\341\321\320R\247\322Z\246\010"
 514      56700CE1 
 514      D1D052A7 
 514      D25AA608 
 515 0048 155B68CB 		.ascii	"\025[h\313C\011&*\204J\2651j\300\204D+{\237{\333\001"
 515      4309262A 
 515      844AB531 
 515      6AC08444 
 515      2B7B9F7B 
 516 005e 2984DECC 		.ascii	")\204\336\314\234\307\332{\355s\366\332\373\330B\210"
 516      9CC7DA7B 
 516      ED73F6DA 
 516      FBD84288 
 517 006e 039610DB 		.ascii	"\003\226\020\333i\316\323\037q\201\330\356\013\004\270"
 517      69CED31F 
 517      7181D8EE 
 517      0B04B8
 518 007d 3118BC80 		.ascii	"1\030\274\200\001\031\000\3220\273\213B(\317\372!*T"
 518      011900D2 
 518      30BB8B42 
 518      28CFFA21 
 518      2A54
ARM GAS  C:\Users\AMANRA~1\AppData\Local\Temp\cck7hb2g.s 			page 42


 519 008f CC0CF02A 		.ascii	"\314\014\360*\013v`\267\015'\260\273\332\356\004x\225"
 519      0B7660B7 
 519      0D27B0BB 
 519      DAEE0478 
 519      95
 520 00a0 8B48608F 		.ascii	"\213H`\217\030^`\217j\273\027\340UQ\200g\345B4\306\014"
 520      185E608F 
 520      6ABB17E0 
 520      55518067 
 520      E54234C6 
 521 00b5 695AB6E3 		.ascii	"iZ\266\343F\274(\032\315\210\010?{v!g\027\357\312\017"
 521      46BC281A 
 521      CD88083F 
 521      7B762167 
 521      17EFCA0F 
 522 00c9 248A2D93 		.ascii	"$\212-\223\005c\305g\212\276\301\3759\357#5\246d\216"
 522      0563C567 
 522      8ABEC1FD 
 522      39EF2335 
 522      A6648E
 523 00dc 5CDA4237 		.ascii	"\\\332B7\234\300\012r\033O\037\317\311w\310\002\230"
 523      9CC00A72 
 523      1B4F1FCF 
 523      C977C802 
 523      98
 524 00ed B4FD7334 		.ascii	"\264\375s4{s\021o\015\224\321\366JOo\247)WC\320\372"
 524      7B73116F 
 524      0D94D1F6 
 524      4A4F6FA7 
 524      295743D0 
 525 0102 C6DDBDA8 		.ascii	"\306\335\275\2508\250T\223R\331\374j3'%NBR8\364`\031"
 525      38A85493 
 525      52D9FC6A 
 525      3327254E 
 525      425238F4 
 526 0118 BAB14C10 		.ascii	"\272\261L\020$\320\213\012\366>\260\347\267VK\256\321"
 526      24D08B0A 
 526      F63EB0E7 
 526      B7564BAE 
 526      D1
 527 0129 CCC3BB47 		.ascii	"\314\303\273G\246\314\362N\246\016\316\344\237\371\244"
 527      A6CCF24E 
 527      A60ECEE4 
 527      9FF9A4
 528 0138 590D2BCD 		.ascii	"Y\015+\315\377\342a>\177\344>5\336uy\261\\\247\251?"
 528      FFE2613E 
 528      7FE43E35 
 528      DE7579B1 
 528      5CA7A93F 
 529 014c F61CFA23 		.ascii	"\366\034\372#\022R\377\316/\3758\244\232\350\233\227"
 529      1252FFCE 
 529      2FFD38A4 
 529      9AE89B97 
 530 015c 7AA36B26 		.ascii	"z\243k&\023\267M|\211r\024P\316\311\342\024\354p\240"
 530      13B74D7C 
 530      89721450 
 530      CEC9E214 
ARM GAS  C:\Users\AMANRA~1\AppData\Local\Temp\cck7hb2g.s 			page 43


 530      EC70A0
 531 016f A4193D36 		.ascii	"\244\031=6a)5\363_\013\345\221X\262\010 \336\355\237"
 531      612935F3 
 531      5F0BE591 
 531      58B20820 
 531      DEED9F
 532 0182 DBAB83DC 		.ascii	"\333\253\203\334\350\224\345\2376\2535\363\234A\220"
 532      E894E59F 
 532      36AB35F3 
 532      9C4190
 533 0191 403F2A0C 		.ascii	"@?*\014\301Q$\355-\223\006\333\342\225\315\203\303\203"
 533      C15124ED 
 533      2D9306DB 
 533      E295CD83 
 533      C383
 534 01a3 CB581C5A 		.ascii	"\313X\034Z\010\261\213\324\246\202\266\312\030Mr\022"
 534      08B18BD4 
 534      A682B6CA 
 534      184D7212 
 535 01b3 4D10FA72 		.ascii	"M\020\372r\375l$\330`\370W4\365M\275\277\303\343[f\245"
 535      FD6C24D8 
 535      60F85734 
 535      F54DBDBF 
 535      C3E35B66 
 536 01c8 91957141 		.ascii	"\221\225qA\236e\274\345\223\010\322\276RP+\220s\261"
 536      9E65BCE5 
 536      9308D2BE 
 536      52502B90 
 536      73B1
 537 01da 6F2A7BCB 		.ascii	"o*{\313\011\234\271\322m;\212\027\035\256\231\324\222"
 537      099CB9D2 
 537      6D3B8A17 
 537      1DAE99D4 
 537      92
 538 01eb 9D2A8E9E 		.ascii	"\235*\216\236\265;\320\216\234t\210\212\001\226\207"
 538      B53BD08E 
 538      9C74888A 
 538      019687
 539 01fa F0ABBD7D 		.ascii	"\360\253\275}\275q\377\210JoWe9\351\342+t \243\233\001"
 539      BD71FF88 
 539      4A6F5765 
 539      39E9E22B 
 539      7420A39B 
 540 020f 83F0055D 		.ascii	"\203\360\005]\342\257\226B4\010kRdq\013\351kC#\010\221"
 540      E2AF9642 
 540      34086B52 
 540      64710BE9 
 540      6B432308 
 541 0224 070FB229 		.ascii	"\007\017\262)\213\323\241\352\273H\025\352\\\331*\255"
 541      8BD3A1EA 
 541      BB4815EA 
 541      5CD92AAD 
 542 0234 2097E29D 		.ascii	" \227\342\235\333\355\007u.Ow\231\216\345|\233b\351"
 542      DBED0775 
 542      2E4F7799 
 542      8EE57C9B 
 542      62E9
ARM GAS  C:\Users\AMANRA~1\AppData\Local\Temp\cck7hb2g.s 			page 44


 543 0246 3643F0C9 		.ascii	"6C\360\311\243\247e\244\313\343\303\\\000g\210F\222"
 543      A3A765A4 
 543      CBE3C35C 
 543      00678846 
 543      92
 544 0257 741C4218 		.ascii	"t\034B\030\367^\346\364w\220\353u\302G;\363\237;\217"
 544      F75EE6F4 
 544      7790EB75 
 544      C2473BF3 
 544      9F3B8F
 545 026a F648045F 		.ascii	"\366H\004_?\332#8\213r\2424\017]\353r9x\0041\234#\333"
 545      3FDA2338 
 545      8B72A234 
 545      0F5DEB72 
 545      39780431 
 546 0281 34D23FFD 		.ascii	"4\322?\375\362\336\300\344\263sM\224\326/g\337\200\307"
 546      F2DEC0E4 
 546      B3734D94 
 546      D62F67DF 
 546      80C7
 547 0293 14DD406D 		.ascii	"\024\335@m\201\276a\217\011\014Sy\276\341\276\342\201"
 547      81BE618F 
 547      090C5379 
 547      BEE1BEE2 
 547      81
 548 02a4 0C85C2F4 		.ascii	"\014\205\302\364u\247\361_\345\346\244\327F\271\016"
 548      75A7F15F 
 548      E5E6A4D7 
 548      46B90E
 549 02b3 B3ED3C1A 		.ascii	"\263\355<\032\005\237\220\223Q]D\273T\304\374l\021\255"
 549      059F9093 
 549      515D44BB 
 549      54C4FC6C 
 549      11AD
 550 02c5 0554EDDB 		.ascii	"\005T\355\333\222N#\272j\315\377\354\3740\214\023\206"
 550      924E23BA 
 550      6ACDFFEC 
 550      FC308C13 
 550      86
 551 02d6 EA3E736E 		.ascii	"\352>sn\247N\316\"\345F)\016\025\362\372\\!Y\275c\323"
 551      A74ECE22 
 551      E546290E 
 551      15F2FA5C 
 551      2159BD63 
 552 02eb 857BF1C0 		.ascii	"\205{\361\300C\340\302\\!\235\260\220n\320\253\306\202"
 552      43E0C25C 
 552      219DB090 
 552      6ED0ABC6 
 552      82
 553 02fc C5BDA8C5 		.ascii	"\305\275\250\305\315\214\366\177/\003q\227`\354I\342"
 553      CD8CF67F 
 553      2F037197 
 553      60EC49E2 
 554 030c 5EF59832 		.ascii	"^\365\2302\257\270\343$\356\004\01381\277\270\343l\273"
 554      AFB8E324 
 554      EE040B38 
 554      31BFB8E3 
ARM GAS  C:\Users\AMANRA~1\AppData\Local\Temp\cck7hb2g.s 			page 45


 554      6CBB
 555 031e C4E28E95 		.ascii	"\304\342\216\225\304\215\224\304=:+\256\263\000q/\227"
 555      C48D94C4 
 555      3D3A2BAE 
 555      B300712F 
 555      97
 556 032f C4BDF2FF 		.ascii	"\304\275\362\377'\341R\250\207\237\204\373\300\033\360"
 556      27E152A8 
 556      879F84FB 
 556      C01BF0
 557 033e 42E9A22C 		.ascii	"B\351\242,\335\357\324\25173\332+4\203`z\304\253\022"
 557      DDEFD4A9 
 557      3733DA2B 
 557      3483607A 
 557      C4AB12
 558 0351 099F7E35 		.ascii	"\011\237~5\265[7mM\246*_\252|\336O\246\374\332\327\353"
 558      B55B376D 
 558      4DA62A5F 
 558      AA7CDE4F 
 558      A6FCDAD7 
 559 0366 FCFAE4B6 		.ascii	"\374\372\344\266\206\224\277\241z\335\312\027\374\265"
 559      8694BFA1 
 559      7ADDCA17 
 559      FCB5
 560 0374 6B5FF65F 		.ascii	"k_\366_\253~\345\255J\266l|3\265ic]\335\033\211\032"
 560      AB7EE5AD 
 560      4AB66C7C 
 560      33B56963 
 560      5DDD1B89 
 561 0389 E1BCBA61 		.ascii	"\341\274\272a}Ub\345\213f\262aK\275Ix\275]\363vM\335"
 561      7D5562E5 
 561      8B66B261 
 561      4BBD4978 
 561      BD5DF376 
 562 039f E6D4738F 		.ascii	"\346\324s\217\015\233L\321\260\255A\317\211Zq\037\301"
 562      0D9B4CD1 
 562      B0AD41CF 
 562      895A711F 
 562      C1
 563 03b0 61F342   		.ascii	"a\363B"
 564              		.text
 565              		.section	.gnu.lto_usb_lld_stop.part.6.c3dc9563,"",%progbits
 566 0000 789C9D52 		.ascii	"x\234\235RMHTQ\024\276\337\273\367\2153fZ\273\026.,"
 566      4D485451 
 566      14BEDFBB 
 566      F78D3366 
 566      5ABB162E 
 567 0015 1051C897 		.ascii	"\020Q\310\227\265\210\210\300E\021\224\321\"\367\222"
 567      B58888C0 
 567      451194D1 
 567      22F792
 568 0024 06290863 		.ascii	"\006)\010cim\347\252S\216\375\200\201N\"\223L\211eH"
 568      696DE7AA 
 568      538EFD80 
 568      814E2293 
 568      4C896548 
 569 0038 98A8D5F8 		.ascii	"\230\250\325\370\227\215Y\232?i\270S\014-\206L3\213"
ARM GAS  C:\Users\AMANRA~1\AppData\Local\Temp\cck7hb2g.s 			page 46


 569      978D599A 
 569      3F69B853 
 569      0C2D864C 
 569      338B
 570 004a 6A11E574 		.ascii	"j\021\345t\356\235A\245\\H\227\367\316\3759\347|\337"
 570      EE9D41A5 
 570      5C4897F7 
 570      CEFD39E7 
 570      7CDF
 571 005c 77CFB936 		.ascii	"w\317\2716\306\330N\301\330q\232w\323\017\223AT\215"
 571      C6D84EC1 
 571      D8719A77 
 571      D30F9341 
 571      548D
 572 006e D142C0D0 		.ascii	"\321B\300\320\263\001\256\346R;\007\324B\332\301\\\302"
 572      B301AEE6 
 572      523B07D4 
 572      42DAC15C 
 572      C2
 573 007f E070E11A 		.ascii	"\340p\341\032\257\346\010V\204\002F\352=I\243\357f\355"
 573      AFE60856 
 573      840246EA 
 573      3D49A3EF 
 573      66ED
 574 0091 FE59392E 		.ascii	"\376Y9.\271\2173\346\245_\015\264!\225Q\334\204\373"
 574      B98F33E6 
 574      A55F0DB4 
 574      219551DC 
 574      84FB
 575 00a3 A18F5F25 		.ascii	"\241\217_%\027 h\373e\264\356]\274\332\032H\242\355"
 575      172068FB 
 575      65B4EE5D 
 575      BCDA1A48 
 575      A2ED
 576 00b5 FC44EB64 		.ascii	"\374D\353d\002\317\204\212|\333qw\331\221\334 e\231"
 576      02CF848A 
 576      7CDB7177 
 576      D991DC20 
 576      6599
 577 00c7 EC1BC7A0 		.ascii	"\354\033\307\240\024>\316\361\010\234\020\321\201D\264"
 577      143ECEF1 
 577      089C10D1 
 577      8144B4
 578 00d6 23512353 		.ascii	"#Q#Sh\355\215\205J\223\037\321i\315U#\363\"\232\266"
 578      68ED8D85 
 578      4A931FD1 
 578      69CD5523 
 578      F3229AB6 
 579 00ea 34CD9BDA 		.ascii	"4\315\233\332\245\254\314\364q\201'\033\246\316\265"
 579      A5ACCCF4 
 579      7181271B 
 579      A6CEB5
 580 00f9 AED46CB5 		.ascii	"\256\324l\265\011\004\220\214\307HVz\321\011[\3240&"
 580      0904908C 
 580      C748567A 
 580      D1095BD4 
 580      3026
ARM GAS  C:\Users\AMANRA~1\AppData\Local\Temp\cck7hb2g.s 			page 47


 581 010b D429C535 		.ascii	"\324)\3055\016\367\367\306\363c\232\342\372\270\267"
 581      0EF7F7C6 
 581      F3639AE2 
 581      FAB8B7
 582 011a CD8C5284 		.ascii	"\315\214R\204\232w\334.\227Z\235\211\256\177)\320\255"
 582      9A77DC2E 
 582      975A9D89 
 582      AE7F29D0 
 582      AD
 583 012b D3D7AB9A 		.ascii	"\323\327\253\232i\336v'\232\262\241*\364\220\026\322"
 583      69DE7627 
 583      9AB2A12A 
 583      F49016D2 
 584 013b D3F2C694 		.ascii	"\323\362\306\224r%\\!\345\317]\365F,\230\217\333\014"
 584      72255C21 
 584      E5CF5DF5 
 584      462C988F 
 584      DB0C
 585 014d 65B83242 		.ascii	"e\2702B\031S\031\306<Td\325\224J.\324\314C(\323B\253"
 585      195319C6 
 585      3C5464D5 
 585      944A2ED4 
 585      CC4328D3 
 586 0163 439EEF09 		.ascii	"C\236\357\011iM\272)_\273\315:\277\235j\310\242\015"
 586      694DBA29 
 586      5FBBCD3A 
 586      BF9D6AC8 
 586      A20D
 587 0175 E9451A85 		.ascii	"\351E\032\205|\230\255\317Ni\214\\e\232\367R\265\034"
 587      7C98ADCF 
 587      4E698C5C 
 587      659AF752 
 587      B51C
 588 0187 AB75C6AA 		.ascii	"\253u\306\252,\225\206\247Ha!\030LUDe3Ehh\302E\270\375"
 588      2C9586A7 
 588      48612118 
 588      4C554465 
 588      33456868 
 589 019f 6D9FCFE9 		.ascii	"m\237\317\351\242\021h \2608\025\343\372-\211.\306K"
 589      A2116820 
 589      B03815E3 
 589      FA2D892E 
 589      C64B
 590 01b1 210C7D70 		.ascii	"!\014}p)G\303\217\3661\335n;\372\031\236!\321\307\035"
 590      2947C38F 
 590      F631DD6E 
 590      3BFA199E 
 590      21D1C71D 
 591 01c5 EC23829D 		.ascii	"\354#\202\235\367?\035T\311u\244\231\303{)\370:FE\305"
 591      F73F1D54 
 591      C975A499 
 591      C37B29F8 
 591      3A4645C5 
 592 01d9 EA5BB86F 		.ascii	"\352[\270o\015\204\034\221\255\\\366H\365l\246\272\346"
 592      0D841C91 
 592      AD5CF648 
 592      F56CA6BA 
ARM GAS  C:\Users\AMANRA~1\AppData\Local\Temp\cck7hb2g.s 			page 48


 592      E6
 593 01ea 666C7ED4 		.ascii	"fl~\324\303\307\267\240\237D\006U\355\310\261\360~\250"
 593      C3C7B7A0 
 593      9F440655 
 593      EDC8B1F0 
 593      7EA8
 594 01fc 27DE7A20 		.ascii	"'\336z \335\344\211\303s\370Q\243/\214\001XDT\376\353"
 594      DDE489C3 
 594      73F851A3 
 594      2F8C0158 
 594      4454FEEB 
 595 0210 32223C46 		.ascii	"2\"<F\204\252z\240*\020\247\260m\010\257\204\303\011"
 595      84AA7AA0 
 595      2A10A7B0 
 595      6D08AF84 
 595      C309
 596 0222 78414024 		.ascii	"xA@$h\362\212\216\333<\325\3135\252AX\204\257\257\345"
 596      68F28A8E 
 596      DB3CD5CB 
 596      35AA4158 
 596      84AFAFE5 
 597 0236 8890F1CD 		.ascii	"\210\220\361\315\343\014i\034(\234W\177I\026\004\364"
 597      E30C691C 
 597      289C577F 
 597      491604F4 
 598 0246 DFFA86D7 		.ascii	"\337\372\206\327pG\224>\261^\237\271)\234R\231\244\220"
 598      7047943E 
 598      B15E9FB9 
 598      299C5299 
 598      A490
 599 0258 46D790C6 		.ascii	"F\327\220\306H\241z\004\\?\202%\224\371[\276m\327\217"
 599      48A17A04 
 599      5C3F8225 
 599      94F95BBE 
 599      6DD78F
 600 026b 400D0F05 		.ascii	"@\015\017\005\3219\265\377Pz\272E_^~An\201\2638\343"
 600      D139B5FF 
 600      507ABA45 
 600      5F5E7E41 
 600      6E81B338 
 601 0280 40C61ECB 		.ascii	"@\306\036\313Yl\345\237.\264\212\234\347K\212\255S\331"
 601      596CE59F 
 601      2EB48A9C 
 601      E74B8AAD 
 601      53D9
 602 0292 27F6EDB5 		.ascii	"'\366\355\265\262\262\016['\263\217^\314P\236\234\013"
 602      B2B20E5B 
 602      27B38F5E 
 602      CC509E9C 
 602      0B
 603 02a3 C5B93985 		.ascii	"\305\2719\205\205g\322\363\230\240e\221p\226\234-B\301"
 603      8567D2F3 
 603      98A06591 
 603      70969C2D 
 603      42C1
 604 02b5 1FC13A63 		.ascii	"\037\301:c\214"
 604      8C
ARM GAS  C:\Users\AMANRA~1\AppData\Local\Temp\cck7hb2g.s 			page 49


 605              		.text
 606              		.section	.gnu.lto_usb_lld_init.c3dc9563,"",%progbits
 607 0000 789C8D92 		.ascii	"x\234\215\222OH\024Q\034\307\177\337y\316\354@$v\010"
 607      4F481451 
 607      1CC77FDF 
 607      79CEEC40 
 607      247608
 608 0013 023B78F5 		.ascii	"\002;x\365\262\257M<t\210.A\027\303\203\336\305\265"
 608      B2AF4D3C 
 608      74882E41 
 608      17C383DE 
 608      C5B5
 609 0025 83C2C246 		.ascii	"\203\302\302F\233^\347\271\253\354F\036\"t\023\031b"
 609      9B5EE7B9 
 609      ABEC461E 
 609      22741319 
 609      62
 610 0036 40C18B1A 		.ascii	"@\301\213\032\261\266\266\225:\255\222\020\342\277\233"
 610      B1B6B695 
 610      3AAD9210 
 610      E2BF9B
 611 0045 A8071354 		.ascii	"\250\007\023T\302\004\261\213\177\353\367F\211\020\004"
 611      C204B18B 
 611      7FEBF746 
 611      891004
 612 0054 1FF398C7 		.ascii	"\037\363\230\307\357\367}\237\357\233\357\033\213\210"
 612      EFF77D9F 
 612      EF9BEF1B 
 612      8B88
 613 0062 AA0DA207 		.ascii	"\252\015\242\007\374.\347\011A0^\315\021\265\333\006"
 613      FC2EE709 
 613      41305ECD 
 613      11B5DB06 
 614 0072 A017CA06 		.ascii	"\240\027\312\0069\006\034t\211n\201bz\263`T\016*\036"
 614      39061C74 
 614      896E8162 
 614      7AB36054 
 614      0E2A1E
 615 0085 FE9BBEF0 		.ascii	"\376\233\276\360\272ZP\302\025DY\236z \207Jb\335\217"
 615      BA5A50C2 
 615      1544599E 
 615      7A20874A 
 615      62DD8F
 616 0098 F7A73DD7 		.ascii	"\367\247=\327\255\222\263:Fa\021x\361n\311\364\325\351"
 616      AD92B33A 
 616      46611178 
 616      F16EC9F4 
 616      D5E9
 617 00aa 9FB4F267 		.ascii	"\237\264\362g\373\261\274k\233D\031\026\260\215\362"
 617      FBB1BC6B 
 617      9B441916 
 617      B08DF2
 618 00b9 E98530F4 		.ascii	"\351\2050\364*\345\323\016:\274\255\325H\260\215Y\205"
 618      2AE5D30E 
 618      3ABCADD5 
 618      48B08D59 
 618      85
ARM GAS  C:\Users\AMANRA~1\AppData\Local\Temp\cck7hb2g.s 			page 50


 619 00ca C2CE4AC8 		.ascii	"\302\316J\3109Q\266+\220\025\314\301\0078\272\221\355"
 619      3951B62B 
 619      9015CCC1 
 619      0738BA91 
 619      ED
 620 00db 2CCE875E 		.ascii	",\316\207^\262\277\201\013:\303\323\276\\\033M\355\275"
 620      B2BF810B 
 620      3AC3D3BE 
 620      5C1B4DED 
 620      BD
 621 00ec 2EF5F016 		.ascii	".\365\360\026\256\020\030\343\257\310\343v\320\230\330"
 621      AE1018E3 
 621      AFC8E376 
 621      D098D8
 622 00fb FBBE51CA 		.ascii	"\373\276Q\312\342\214R\025\032\360\021\036\316\316Y"
 622      E28C5215 
 622      1AF0111E 
 622      CECE59
 623 010a 80E38A12 		.ascii	"\200\343\212\022\372\211\344\357\355\276\261\241\240"
 623      FA89E4EF 
 623      EDBEB1A1 
 623      A0
 624 0117 7A15FAA7 		.ascii	"z\025\372\247\377\350\371\231\325#[\016\353\230\274"
 624      FFE8F999 
 624      D5235B0E 
 624      EB98BC
 625 0126 A82B4C7C 		.ascii	"\250+L|f|O\220\021\276@\262\242{$yl\353\263\233\320"
 625      667C4F90 
 625      11BE40B2 
 625      A27B2479 
 625      6CEBB39B 
 626 013b 2A13E3BC 		.ascii	"*\023\343\274\225=\017\323\343\373\337n^\325s\342rO"
 626      953D0FD3 
 626      E3FBDF6E 
 626      5ED573E2 
 626      724F
 627 014d 0B9381A7 		.ascii	"\013\223\201\247\316\035~\340\371//+\310+u8\271\257"
 627      CE1D7EE0 
 627      F92F2F2B 
 627      C82B7538 
 627      B9AF
 628 015f 23B8C505 		.ascii	"#\270\305\005O\353\270v\260\370+s\215\351\355e\256\010"
 628      4FEBB876 
 628      B0F82B73 
 628      8DE9ED65 
 628      AE08
 629 0171 A1C8F8AF 		.ascii	"\241\310\370\257\347\370\324@\256\023\254\356e|\036"
 629      E7F8D440 
 629      AE13ACEE 
 629      657C1E
 630 0180 9A31C57C 		.ascii	"\2321\305|fO\363e\354\"\351\345\326n\004\001\352\221"
 630      664FF365 
 630      EC22E9E5 
 630      D66E0401 
 630      EA91
 631 0192 611CDF25 		.ascii	"a\034\337%\377X\367\303a\311OSsK\264%\236\210\334\213"
 631      FF58F7C3 
ARM GAS  C:\Users\AMANRA~1\AppData\Local\Temp\cck7hb2g.s 			page 51


 631      61C94F53 
 631      734BB425 
 631      9E88DC8B 
 632 01a6 DC91F184 		.ascii	"\334\221\361\204ln\214\311\247\361g\317\023\262\256"
 632      6C6E8CC9 
 632      A7F167CF 
 632      13B2AE
 633 01b5 FE71D55D 		.ascii	"\376q\325]YS\363P\326\326?j\213\350NCk\"\332\020\213"
 633      5953F350 
 633      D6D63F6A 
 633      8BE84E43 
 633      6B22DA10 
 634 01ca 3D0937D1 		.ascii	"=\0117\321_\021\332\325+"
 634      5F11DAD5 
 634      2B
 635              		.text
 636              		.section	.gnu.lto_fsparams.c3dc9563,"",%progbits
 637 0000 789C6363 		.ascii	"x\234cc``\210\006bF\006\010\230\302\314x\350\323\206"
 637      60608806 
 637      62460608 
 637      98C2CC78 
 637      E8D386
 638 0013 E53CDDCC 		.ascii	"\345<\335\314s\230\031\030\231\201\334\376\013\363o"
 638      73981918 
 638      9981DCFE 
 638      0BF36F
 639 0022 7340B807 		.ascii	"s@\270\007\230\200\374m\317N\036\343\202\360\033\030"
 639      9880FC6D 
 639      CF4E1EE3 
 639      82F01B18 
 640 0032 81FCFBA7 		.ascii	"\201\374\373\247_\376\341\264\330\326\320\261\240\301"
 640      5FFEE1B4 
 640      D8D6D0B1 
 640      A0C1
 641 0040 600E33E3 		.ascii	"`\0163\343T\240\370VF\231\251\314\214\214[@\024\023"
 641      54A0F856 
 641      4699A9CC 
 641      8C8C5B40 
 641      1413
 642 0052 E3664619 		.ascii	"\343fF\031\006\306m\214\026\014\000\370\252\035o"
 642      06C66D8C 
 642      160C00F8 
 642      AA1D6F
 643              		.text
 644              		.section	.gnu.lto_usb_lld_start.c3dc9563,"",%progbits
 645 0000 789CA558 		.ascii	"x\234\245XkPTG\026\356s\373\316\373\005h|\020\022\251"
 645      6B505447 
 645      16EE73FB 
 645      CEFB0568 
 645      7C1012A9 
 646 0014 DA58590C 		.ascii	"\332XY\0142awkS\373c\253\362c\267\266j\223\255\255\255"
 646      3261776B 
 646      53FB63AB 
 646      F263B7B6 
 646      6A93ADAD 
 647 0029 F57F6A93 		.ascii	"\365\177j\223T\022\253\254h\255&\177\271<\024\320\260"
 647      5412ABAC 
ARM GAS  C:\Users\AMANRA~1\AppData\Local\Temp\cck7hb2g.s 			page 52


 647      68AD267F 
 647      B93C14D0 
 647      B0
 648 003a 21AE10C5 		.ascii	"!\256\020\305\211;JP\022|\240\240\303\300\304\214\203"
 648      893B4A50 
 648      127CA0A0 
 648      C3C0C48C 
 648      83
 649 004b 10092868 		.ascii	"\020\011(hX\035\305\020\321d\"\212\017v\2255\206\300"
 649      581DC510 
 649      D164228A 
 649      0F769535 
 649      86C0
 650 005d 9ED37DE7 		.ascii	"\236\323}\347!\220\2143Ni\333\367\336\356\357\373\316"
 650      21908C33 
 650      4E69DBF7 
 650      DEEEEFFB 
 650      CE
 651 006e E9D3A74F 		.ascii	"\351\323\247Okd\214\025\316g\354\005\374w7\376\005\007"
 651      6B648C15 
 651      CE67EC05 
 651      FC7737FE 
 651      0507
 652 0080 03A5FA14 		.ascii	"\003\245\372\024c\305fE\341mO0\315j\017?\3134;W\324"
 652      63C56645 
 652      E16D4F30 
 652      CD6A0F3F 
 652      CB343B57 
 653 0095 7E073E19 		.ascii	"~\007>\031\216\005\031>\252`\220\243\014`\222\035\243"
 653      8E05193E 
 653      AA6090A3 
 653      0C60921D 
 653      A3
 654 00a6 EC1C339B 		.ascii	"\354\0343\233\024ck\010\307X\315\027m8\322\254X\332"
 654      14636B08 
 654      C758CD17 
 654      6D38D2AC 
 654      58DA
 655 00b8 16E29335 		.ascii	"\026\342\2235\374k|\262\200M\016\267F;6\260\313\216"
 655      FC6B7CB2 
 655      804D0EB7 
 655      463B36B0 
 655      CB8E
 656 00ca 1D803A9A 		.ascii	"\035\200:\232\031X\221\302U\203\321d\266Xmv(RL\014\202"
 656      195891C2 
 656      5583D164 
 656      B6586D76 
 656      28524C0C 
 657 00df 2A648886 		.ascii	"*d\210\206\321\357\035\276\205C\250<\342W\362\366h\370"
 657      D1EF1DBE 
 657      8543A83C 
 657      E257F2F6 
 657      68F8
 658 00f1 0BBE5FED 		.ascii	"\013\276_\355\036\321\0064\356\341\214\325r1\206A\013"
 658      1ED10634 
 658      EEE18CD5 
 658      72318641 
ARM GAS  C:\Users\AMANRA~1\AppData\Local\Temp\cck7hb2g.s 			page 53


 658      0B
 659 0102 E4E1B0D3 		.ascii	"\344\341\260\323e\315\036\276\011\277\000\250\3708~"
 659      65CD1EBE 
 659      09BF00A8 
 659      F8387E
 660 0111 B2EE8A93 		.ascii	"\262\356\212\223\036\025\310\305\307\321\323\007\007"
 660      1E15C8C5 
 660      C7D1D307 
 660      07
 661 011e 5DFC7960 		.ascii	"]\374y`\330\277:\262c\305\323\015\232V\242\005'\353"
 661      D8BF3AB2 
 661      63C5D30D 
 661      9A56A205 
 661      27EB
 662 0130 B9F69487 		.ascii	"\271\366\224\207s8\002\034\361\3400\344@+\3440|\305"
 662      7338021C 
 662      F1E030E4 
 662      402BE430 
 662      7CC5
 663 0142 C0074FD3 		.ascii	"\300\007O\323\360\255\357]\2574\360\337\213\251M\325"
 663      F0ADEF5D 
 663      AF34F0DF 
 663      8BA94DD5 
 664 0152 7DA3EAD2 		.ascii	"}\243\352\322z1\367T\2007\266jZ\345\363\036\256B\333"
 664      7A31F754 
 664      8037B66A 
 664      5AE5F31E 
 664      AE42DB
 665 0165 83F3E987 		.ascii	"\203\363\351\207\303/\037\234\252q\030U\360\303R)\027"
 665      C32F1F9C 
 665      AA711855 
 665      F0C35229 
 665      17
 666 0176 DAC1C880 		.ascii	"\332\301\310\2001\205^\341\200\206\336\316\243N\376"
 666      31855EE1 
 666      8086DECE 
 666      A34EFE
 667 0185 47815D35 		.ascii	"G\201]5P\333b\320\261#M\213v\226j'4\325\303\015\320"
 667      50DB62D0 
 667      B1234D8B 
 667      76966A27 
 667      34D5C30D 
 668 019a 311B1B02 		.ascii	"1\033\033\002\260\364\300\031CP\233\232.\327\202\335"
 668      B0F4C019 
 668      43509B9A 
 668      2ED782DD 
 669 01aa 0138DD33 		.ascii	"\0018\3353<\364\263\347\000\205\033\025lL\234\032\225"
 669      3CF4B3E7 
 669      00851B15 
 669      6C4C9C1A 
 669      95
 670 01bb 1A033556 		.ascii	"\032\0035Vjl\324\330\251qP\343\304\306\354\302\306\222"
 670      6A6CD4D8 
 670      A97150E3 
 670      C4C6ECC2 
 670      C692
 671 01cd 418F99D4 		.ascii	"A\217\231\324d\001Y=\217\221\274\005\364b15y\330\250"
ARM GAS  C:\Users\AMANRA~1\AppData\Local\Temp\cck7hb2g.s 			page 54


 671      6401593D 
 671      8F91BC05 
 671      F4623135 
 671      79D8A8
 672 01e0 CBB0B13E 		.ascii	"\313\260\261>C\275|A\277\\\264\005\364\235\261\0124"
 672      43BD7C41 
 672      BF5CB405 
 672      F49DB10A 
 672      34
 673 01f1 AE6A8916 		.ascii	"\256j\211\026d\225\\\301Ni\220]\203\222\366\321\036"
 673      64955CC1 
 673      4E69905D 
 673      8392F6D1 
 673      1E
 674 0202 9F17C8E4 		.ascii	"\237\027\310\344:>\017\015\254]\037\3527\321\222pao"
 674      3A3E0F0D 
 674      AC5D1FEA 
 674      37D19270 
 674      616F
 675 0214 2074B2DB 		.ascii	" t\262\333\350\205\035\305\270\260\336\233$\335V\307"
 675      E8851DC5 
 675      B8B0DE9B 
 675      24DD56C7 
 676 0224 B3E01332 		.ascii	"\263\340\0232\021?\017\226\207\207m\356}\264\354\271"
 676      113F0F96 
 676      87876DEE 
 676      7DB4ECB9 
 677 0234 E4E1A3E0 		.ascii	"\344\341\243\340\205\032\261\344\360)\270Y\004J\274"
 677      851AB1E4 
 677      F029B859 
 677      044ABC
 678 0243 BB043869 		.ascii	"\273\0048iE\002\311\330\353[%\011a\006C\356O\302\333"
 678      4502C9D8 
 678      EB5B2509 
 678      610643EE 
 678      4FC2DB
 679 0256 2128E081 		.ascii	"!(\340\201\340\217!\3747Pv\241\363Wq\250\303\345}\007"
 679      E08F21FC 
 679      375076A1 
 679      F35771A8 
 679      C3E57D07 
 680 026a ADA41DA3 		.ascii	"\255\244\035\243\027B\372*Tb\224\\\264\241\261b\364"
 680      1742FA2A 
 680      5462945C 
 680      B4A1B162 
 680      F4
 681 027b 54A0D428 		.ascii	"T\240\324('d\341\004\277\177l\310T\364\203fFs\275\\"
 681      2764E104 
 681      BF7F6CC8 
 681      54F48366 
 681      4673BD5C 
 682 028f 86436BE9 		.ascii	"\206Ck\351\370f'\352\001\324\002\235P\024\023st\374"
 682      F86627EA 
 682      01D4029D 
 682      50141373 
 682      74FC
 683 02a1 F32B4E1C 		.ascii	"\363+N\034\\\201\236x\215\374s\034\325\240\222.(\322"
ARM GAS  C:\Users\AMANRA~1\AppData\Local\Temp\cck7hb2g.s 			page 55


 683      5C819E78 
 683      8DFC731C 
 683      D5A0922E 
 683      28D2
 684 02b3 8954B65E 		.ascii	"\211T\266^\021^\015\265\217\236\367\345H\036%\321\251"
 684      115E0DB5 
 684      8F9EF7E5 
 684      481E25D1 
 684      A9
 685 02c4 0EE1D4B2 		.ascii	"\016\341\324\262\017\272\"\026\371\250\335\256\320h"
 685      0FBA2216 
 685      F9A8DDAE 
 685      D068
 686 02d2 270C755C 		.ascii	"'\014u\\\036N\360\202\023>\303@\352\326\231\257\177"
 686      1E4EF082 
 686      133EC340 
 686      EAD699AF 
 686      7F
 687 02e3 DDF38913 		.ascii	"\335\363\211\023\335P\206\232\\pB8A!'\364\240\023\256"
 687      DD50869A 
 687      5C704238 
 687      412127F4 
 687      A013AE
 688 02f6 41E9BD0D 		.ascii	"A\351\275\015\372\002rIw$\322\323-\374`\002\015\340"
 688      FA027249 
 688      7724D2D3 
 688      2DFC6002 
 688      0DE0
 689 0308 73444149 		.ascii	"sDAI\203\033\305\240\324\270z\343\\}\340F\002a\234E"
 689      831BC5A0 
 689      D4B87AE3 
 689      5C7DE046 
 689      02619C45 
 690 031c B2A5A8FB 		.ascii	"\262\245\250\373\244\300\022\033\354\324\014\335\006"
 690      A4C0121B 
 690      ECD40CDD 
 690      06
 691 0329 047B249D 		.ascii	"\004{$\235\375q\354\001\322iH\324\271\340\241\261\212"
 691      FD71EC01 
 691      D26948D4 
 691      B9E0A1B1 
 691      8A
 692 033a E99B0B4E 		.ascii	"\351\233\013N\307\321\316\010\245\241\366\217.<'\301"
 692      C7D1CE08 
 692      A5A1F68F 
 692      2E3C27C1 
 693 034a ACA909FB 		.ascii	"\254\251\011\373B@\251\00458\303h\214t\353#\031\375"
 693      4240A904 
 693      3538C368 
 693      8C74EB23 
 693      19FD
 694 035c EF38F659 		.ascii	"\3578\366Y2\332\226h\264=5\254sq\254\260\3249\031\325"
 694      32DA9668 
 694      B43D35AC 
 694      7371ACB0 
 694      D43919D5 
 695 0370 E990605B 		.ascii	"\351\220`[\272\252\375v\031T\323S\323\323.8\377\010"
ARM GAS  C:\Users\AMANRA~1\AppData\Local\Temp\cck7hb2g.s 			page 56


 695      BAAAFD76 
 695      1954D353 
 695      D3D32E38 
 695      FF08
 696 0382 D22FC4E9 		.ascii	"\322/\304\351\206H\272#Q\372\342T\327\353b\034\355K"
 696      8648BA23 
 696      51FAE254 
 696      D7EB621C 
 696      ED4B
 697 0394 143F06EB 		.ascii	"\024?\006\353\275w\207\205*\366\340&\317\250\245\344"
 697      BD778785 
 697      2AF6E026 
 697      CFA8A5E4 
 698 03a4 01C3B863 		.ascii	"\001\303\270c\361C\375D\353)q\372dB'\203\257 \007\337"
 698      F143FD44 
 698      EB2971FA 
 698      64422783 
 698      AF2007DF 
 699 03b8 DD38DBB4 		.ascii	"\3358\333\264\227\313wN\270\0049\036\236E\322\356\\"
 699      97CB774E 
 699      B804391E 
 699      9E45D2EE 
 699      5C
 700 03c9 BDE66B8D 		.ascii	"\275\346k\215\332\031\333\315\352\354\024\371&f\310"
 700      DA19DBCD 
 700      EAEC14F9 
 700      2666C8
 701 03d8 7998E860 		.ascii	"y\230\350`D\327z\326\327\356s$h\275,\264\032H\353\025"
 701      44D77AD6 
 701      D7EE7324 
 701      68BD2CB4 
 701      1A48EB15 
 702 03ec 7093BCE6 		.ascii	"p\223\274\346\211&\261Y]\020l\3244\025\276\226~\275"
 702      8926B159 
 702      5D106CD4 
 702      3415BE96 
 702      7EBD
 703 03fe 73F5A6AF 		.ascii	"s\365\246\2571J\231\032\3077\202\303H\034\021\301\321"
 703      314A991A 
 703      C73782C3 
 703      481C11C1 
 703      D1
 704 040f 703EDCC3 		.ascii	"p>\334\303%G\251\246e\302\267\"7V\242\014\221\031\005"
 704      2547A9A6 
 704      65C2B722 
 704      3756A20C 
 704      911905
 705 0422 5BD8BF77 		.ascii	"[\330\277wN\266\327\222\261]\025l&b\033\025l1\377\270"
 705      4EB6D792 
 705      B15D156C 
 705      26621B15 
 705      6C31FFB8 
 706 0436 80C1B5A8 		.ascii	"\200\301\265\2505C\351\342_\027\370f\302\037\023\370"
 706      3543E9E2 
 706      5F17F866 
 706      C21F13F8 
 707 0446 DBBD93DD 		.ascii	"\333\275\223\335\2725A\200\033Q\202\373\376\017\323"
ARM GAS  C:\Users\AMANRA~1\AppData\Local\Temp\cck7hb2g.s 			page 57


 707      BA354180 
 707      1B5182FB 
 707      FE0FD3
 708 0455 23B82908 		.ascii	"#\270)\010,DpK\020\274{g\353\006\263$\3200`\341\266"
 708      2C44704B 
 708      10BC7B67 
 708      EB06B324 
 708      D03060E1 
 709 046a A02899B4 		.ascii	"\240(\231\264\262:\376\014~\277\337\262\177Tl\205\371"
 709      B23AFE0C 
 709      7EBFDFB2 
 709      7F546C85 
 709      F9
 710 047b 304880FB 		.ascii	"0H\200\373\016m\013\330\345\221\241\322\3615ND\360\037"
 710      0E6D0BD8 
 710      E591A1D2 
 710      F1354E44 
 710      F01F
 711 048d 3A1EE804 		.ascii	":\036\350\004\374\376\333\277\350\272\266D*\356\272"
 711      FCFEDBBF 
 711      E8BAB644 
 711      2AEEBA
 712 049c 96358A2A 		.ascii	"\2265\212*i\"`\330YJ\273A\257\220\030\374\027\226\341"
 712      692260D8 
 712      594ABB41 
 712      AF9018FC 
 712      1796E1
 713 04af 6C0CDFB2 		.ascii	"l\014\337\262\350\224\031\341\373X-\245b\270\203\341"
 713      E89419E1 
 713      FB582DA5 
 713      62B883E1 
 714 04bf 8B423C7C 		.ascii	"\213B<|\2014\274\262#M\317\336\025\206[\211{\002\334"
 714      8134BCB2 
 714      234DCFDE 
 714      15865B89 
 714      7B02DC
 715 04d2 FA524933 		.ascii	"\372RI3\363~\324\254\377E\315j\031{8\263\356I\263\242"
 715      F37ED4AC 
 715      FF45CD6A 
 715      197B38B3 
 715      EE49B3A2 
 716 04e6 C8CB70C2 		.ascii	"\310\313p\302\246\252\201KFr\340B\010\223\260\261\262"
 716      A6AA814B 
 716      4672E042 
 716      0893B0B1 
 716      B2
 717 04f7 4B7D06C9 		.ascii	"K}\006\311d%\246\357\004\323\375\031LQ\244\010(4\351"
 717      6425A6EF 
 717      04D3FD19 
 717      4C51A408 
 717      2834E9
 718 050a ABC3BB6F 		.ascii	"\253\303\273o[\364R\354lSv\264\024\233U&\012\021\337"
 718      5BF452EC 
 718      6C5376B4 
 718      149B5526 
 718      0A11DF
 719 051d C3529A3E 		.ascii	"\303R\232>\327\334\001\370\211y\223\261y%\336[5?\217"
ARM GAS  C:\Users\AMANRA~1\AppData\Local\Temp\cck7hb2g.s 			page 58


 719      D7DC01F8 
 719      897993B1 
 719      7925DE5B 
 719      353F8F
 720 0530 958B65C2 		.ascii	"\225\213e\302\330H\030+?\202\306a\242l\254E\263gT\240"
 720      D848182B 
 720      3F82C661 
 720      A26CAC45 
 720      B36754A0 
 721 0544 C34D19BB 		.ascii	"\303M\031\273ti\311*\320)D\012\020\322\017h\3544\025"
 721      7469C92A 
 721      D029440A 
 721      10D20F68 
 721      EC3415
 722 0557 A1D8D05B 		.ascii	"\241\330\320[\\\017\031I5\331\342U@\324\245\007\306"
 722      5C0F1949 
 722      35D9E255 
 722      40D4A507 
 722      C6
 723 0568 FCDF39C8 		.ascii	"\374\3379\310\213\006\334g\232\"\267\264\221a\275\037"
 723      8B06DC67 
 723      9A22B7B4 
 723      9161BD1F 
 724 0578 DDD39F36 		.ascii	"\335\323\23768i|B`\200\010\211\274XH$TXT\324,\202b\205"
 724      38697C42 
 724      60800889 
 724      BC584824 
 724      545854D4 
 725 0590 62C22634 		.ascii	"b\302&4\320\200\356[#\275j\341\0011\340m\017_\014%\012"
 725      D080EE5B 
 725      23BD6AE1 
 725      0131E06D 
 725      0F5F0C25 
 726 05a5 E6EB7C16 		.ascii	"\346\353|\026\033\320[\177n\257\236\214\261\326\023"
 726      1BD05B7F 
 726      6EAF9E8C 
 726      B1D613
 727 05b4 294629AC 		.ascii	")F)\254\341v9\000\312\024w<\007\234\350JY\317\372dz"
 727      E1763900 
 727      CA14773C 
 727      079CE84A 
 727      59CFFA64 
 728 05c9 3624D553 		.ascii	"6$\325SNz\034\272\236\212D==\251\373\2472\231\236\215"
 728      4E7A1CBA 
 728      9E8A443D 
 728      3DA9FBA7 
 728      32999E8D 
 729 05dd 49F56C22 		.ascii	"I\365l\"=N]\317;\012e\234\353\201\346\260Af\234\351"
 729      3D4E5DCF 
 729      3B0A659C 
 729      EB81E6B0 
 729      41669CE9 
 730 05f1 693A5CAB 		.ascii	"i:\\\253\024]bo\252\022\263\341\037B\242\353\307$>\016"
 730      145D626F 
 730      AA12B3E1 
 730      1F42A2EB 
 730      C7243E0E 
ARM GAS  C:\Users\AMANRA~1\AppData\Local\Temp\cck7hb2g.s 			page 59


 731 0605 EF269558 		.ascii	"\357&\225XM\0223t\211\357%\272\254/\325%\314\206\315"
 731      4D123374 
 731      89EF25BA 
 731      AC2FD525 
 731      CC86CD
 732 0618 C9F4FC33 		.ascii	"\311\364\3743\251\236-\244'S\327S\223\250\347d\352\376"
 732      A99E2DA4 
 732      2753D753 
 732      93A8E764 
 732      EAFE
 733 062a A94DA6E7 		.ascii	"\251M\246\347\375\244z\266\222\236,]\3176\324#\327\253"
 733      FDA47AB6 
 733      929E2C5D 
 733      CF36D423 
 733      D7AB
 734 063c B476C38D 		.ascii	"\264v\303\215s\255\234\004\325\361\345\210A\367\211"
 734      73AD9C04 
 734      D5F1E588 
 734      41F789
 735 064b E39FC9C3 		.ascii	"\343\237\311\303\304\200\227\222:\034\206\03397\272"
 735      C4809792 
 735      3A1C861B 
 735      3937BA
 736 065a 8B7194D8 		.ascii	"\213q\224\330\265&\206\267m\334\265\224\236\344\373"
 736      B52686B7 
 736      6DDCB594 
 736      9EE4FB
 737 0669 7C7155EA 		.ascii	"|qU\352yAb\025$\036\253\326\007\312\016\324\223\203"
 737      79416215 
 737      241EABD6 
 737      07CA0ED4 
 737      9383
 738 067b 5915B62B 		.ascii	"Y\025\266+\322\334\361M\233\261\202\333\247U\213\302"
 738      D2DCF14D 
 738      9BB182DB 
 738      A7558BC2 
 739 068b E909F008 		.ascii	"\351\011\360\010k\347\351Z?P\304\265\251\2773G\002\347"
 739      6BE7E95A 
 739      3F50C4B5 
 739      A9BF3347 
 739      02E7
 740 069d 233665A1 		.ascii	"#6e\241\011\310\247\024b8C\302\215\207\036GM\346\204"
 740      09C8A714 
 740      623843C2 
 740      8D871E47 
 740      4DE684
 741 06b0 E2A0BFCB 		.ascii	"\342\240\277\313\232\304\313\011g\213\367Ir\321\016"
 741      9AC4CB09 
 741      678BF749 
 741      72D10E
 742 06bf C13B5FE7 		.ascii	"\301;_\347\375\227\010\363=}_\3564\3120/\306J\307+\275"
 742      FD9708F3 
 742      3D7D5FEE 
 742      34CA302F 
 742      C64AC72B 
 743 06d4 11CBEF98 		.ascii	"\021\313\357\230\351\230tO\273t\017\223\354[;\232\323"
 743      E998744F 
ARM GAS  C:\Users\AMANRA~1\AppData\Local\Temp\cck7hb2g.s 			page 60


 743      BB740F93 
 743      EC5B3B9A 
 743      D3
 744 06e5 3BE0760A 		.ascii	";\340v\012\015\217Q\"\337\225\0304\333\322\005\254\027"
 744      0D8F5122 
 744      DF951834 
 744      DBD205AC 
 744      17
 745 06f6 800B08F0 		.ascii	"\200\013\010\360\303D\300\272t\001\033t/!\340\356\030"
 745      C344C0BA 
 745      74011B74 
 745      2F21E0EE 
 745      18
 746 0707 205E91B7 		.ascii	" ^\221\267w\254\223\305\2603\245+\262\031\366\010\300"
 746      77AC93C5 
 746      B033A52B 
 746      B219F608 
 746      C0
 747 0718 8504D8A8 		.ascii	"\205\004\330\250\270e\020-\227P\256\304 2\317\252]q"
 747      B865102D 
 747      9750AEC4 
 747      2032CFAA 
 747      5D71
 748 072a FA93C807 		.ascii	"\372\223\310\007\037\315\031HK\340c\201\274\210\220"
 748      1FCD1948 
 748      4BE06381 
 748      BC8890
 749 0739 9B14FDF2 		.ascii	"\233\024\375\362}\034\346\200\316\305\343h\257\022\275"
 749      7D1CE680 
 749      CEC5E368 
 749      AF12BD
 750 0748 7D5B5888 		.ascii	"}[X\210G\303\310\323\321\226^E\273Op/&\356\375\"\222"
 750      47C3C8D3 
 750      D1965E45 
 750      BB4F702F 
 750      26EEFD22 
 751 075d 46025AA3 		.ascii	"F\002Z\243M/\321\356\005\213\355p@?\377\260\3040G\351"
 751      4D2FD1EE 
 751      058BED70 
 751      403FFFB0 
 751      C43047E9 
 752 0771 1AD3A56B 		.ascii	"\032\323\245k\216\323\035\024t}\033\267\367\351Ez\205"
 752      8ED31D14 
 752      747D1BB7 
 752      F7E9457A 
 752      85
 753 0782 A03BA4D3 		.ascii	"\240;\244\323\331\0226\311\376t\203\240E\320e\023]k"
 753      D91236C9 
 753      FE7483A0 
 753      45D06513 
 753      5D6B
 754 0794 2C9784DA 		.ascii	",\227\204\332G\375zaW\3073f\257\325\334\210\";\035V"
 754      47FD7A61 
 754      57C73366 
 754      AFD5DC88 
 754      223B1D56 
 755 07a8 6275DD11 		.ascii	"bu\335\021\345\301Kg\246\304\212%%\023&%\2372\343\""
ARM GAS  C:\Users\AMANRA~1\AppData\Local\Temp\cck7hb2g.s 			page 61


 755      E5C14B67 
 755      A6C48A25 
 755      25132625 
 755      9F32E322 
 756 07bc F7F04C6D 		.ascii	"\367\360Lmq&?%\315L\341\024\273\374\337\245\233T3\335"
 756      71263F25 
 756      CD4CE114 
 756      BBFCDFA5 
 756      9B5433DD 
 757 07d0 C814852C 		.ascii	"\310\024\205,\375*\360\362U\265\004+\330\337\026\024"
 757      FD2AF0F2 
 757      55B5042B 
 757      D8DF1614 
 758 07e0 B8F1CF2B 		.ascii	"\270\361\317+o\254|y\345\352\265\205\277)|\326\275z"
 758      6FAC7C79 
 758      E5EAB585 
 758      BF297CD6 
 758      BD7A
 759 07f2 ADFB8DBF 		.ascii	"\255\373\215\277\255r\257Y\375\367uk\335\177]\361\247"
 759      AD72AF59 
 759      FDF7756B 
 759      DD7F5DF1 
 759      A7
 760 0803 5FFEC2FD 		.ascii	"_\376\302\375\342\213\277s\377y\305\037\336.\244//\275"
 760      E28BBF73 
 760      FF79C51F 
 760      DE2EA42F 
 760      2FBD
 761 0815 B5F6E597 		.ascii	"\265\366\345\227V\255z\265\340\025\246bw\215\272z\335"
 761      56AD7AB5 
 761      E015A662 
 761      778DBA7A 
 761      DD
 762 0826 EB6B60E5 		.ascii	"\353k`\345\377\001\207\026\311Y"
 762      FF018716 
 762      C959
 763              		.text
 764              		.section	.gnu.lto_usb_lld_stop.c3dc9563,"",%progbits
 765 0000 789C9D96 		.ascii	"x\234\235\226kL\034U\024\307\357\231;3\373\202\005\337"
 765      6B4C1C55 
 765      14C7EF99 
 765      3B33FB82 
 765      05DF
 766 0012 A61243A2 		.ascii	"\246\022C\242\244\266\037XQ\243\361\203\246\0374&\266"
 766      A4B61F58 
 766      51A3F183 
 766      A61F3426 
 766      B6
 767 0023 C618F9DE 		.ascii	"\306\030\371\336\330\232Z\022\022\210\324\372\221\201"
 767      D89A5A12 
 767      1288D4FA 
 767      9181
 768 0031 C502C126 		.ascii	"\305\002\301&\330\024l\310\246Y\332\3206bCiA\312C\272"
 768      D8146CC8 
 768      A659DAD0 
 768      36624369 
 768      41CA43BA 
ARM GAS  C:\Users\AMANRA~1\AppData\Local\Temp\cck7hb2g.s 			page 62


 769 0045 2C854279 		.ascii	",\205By#\002\026X\240\330\225W\227b)j\324\326s\356\035"
 769      23021658 
 769      A0D89557 
 769      9762296A 
 769      D4D673EE 
 770 005a E8526CB7 		.ascii	"\350Rl\267t\002\2633w\316\375\237\337\234s\356=\243"
 770      7402B333 
 770      77CEFD9F 
 770      DF9C73EE 
 770      3DA3
 771 006c 33C6CEDA 		.ascii	"3\306\316\332\031\333\216\277_\342?\330\030(\205\335"
 771      19DB8EBF 
 771      5FE23FD8 
 771      182885DD 
 772 007c 8C655915 		.ascii	"\214eY\025\205\237x\235\031v\353\3543\314\210\342\240"
 772      859F789D 
 772      1976EBEC 
 772      33CC88E2 
 772      A0
 773 008d C961555E 		.ascii	"\311aU^4Y5E\255\36234\320G\035h\240+\026\177\014\231"
 773      34593545 
 773      ADF23334 
 773      D0471D68 
 773      A02B167F 
 774 00a3 77BF8D77 		.ascii	"w\277\215w\026\260\222\025X\001\350\327\260\002\313"
 774      16B09215 
 774      5801E8D7 
 774      B002CB
 775 00b2 54B8AAE9 		.ascii	"T\270\252\351\026+d*\032\003\237\012\261\342\304\350"
 775      162B642A 
 775      1A039F0A 
 775      B1E2C4E8 
 776 00c2 F89A1FE6 		.ascii	"\370\232\037\346\340\317\015\326*[N\032x\370\276=\362"
 776      E0CF0DD6 
 776      2A5B4E1A 
 776      78F8BE3D 
 776      F2
 777 00d3 C6A4D16B 		.ascii	"\306\244\321kp\017g\254\230\013\033\006\347`\013\232"
 777      700F67AC 
 777      980B1B06 
 777      E7600B9A 
 778 00e3 F5E59CF1 		.ascii	"\365\345\234\361\360\002|\002\240\342\355bW\311\224"
 778      F0027C02 
 778      A0E2ED62 
 778      57C994
 779 00f2 936E1588 		.ascii	"\223n\025\210\307\333\231\276\312\201\030\276\015\030"
 779      C7DB99BE 
 779      CA8118BE 
 779      0D18
 780 0100 5E4F4F1E 		.ascii	"^OO\036M\336\\f\030\331\206o\35187^\364p\016?\000G="
 780      4DDE5C66 
 780      18D9866F 
 780      E938375E 
 780      F4700E3F 
 781 0117 A88638A8 		.ascii	"\250\2068\250\2028\206C\014j`3\231\037\371f._\343\357"
 781      82388643 
 781      0C6A6033 
ARM GAS  C:\Users\AMANRA~1\AppData\Local\Temp\cck7hb2g.s 			page 63


 781      991FF966 
 781      2E5FE3EF 
 782 012b 8AA9E585 		.ascii	"\212\251\345\205\2353j\302q174\312OU\031F\3766\017W"
 782      9D336AC2 
 782      71313734 
 782      CA4F5519 
 782      46FE360F 
 783 0140 E1FCDAF9 		.ascii	"\341\374\332\371t\240\371\325\312\333E\321\272\012\265"
 783      74A0F9D5 
 783      CADB45D1 
 783      BA0AB5
 784 014f 902071A1 		.ascii	"\220 q\241\016t\006\214)4\204\006e\035\315\215N\376"
 784      0E74068C 
 784      29348406 
 784      651DCD8D 
 784      4EFE
 785 0161 BED03ED8 		.ascii	"\276\320>\330[|N3\265\203\345\317\226\272\2156C\365"
 785      5B7C4E33 
 785      B583E5CF 
 785      96BA8D36 
 785      43F5
 786 0173 700DEAD7 		.ascii	"p\015\352\327kC\003$T\364k>\343\366\235\\\264\036\205"
 786      6B430324 
 786      54F46B3E 
 786      E3F69D5C 
 786      B41E85
 787 0186 A6F6C0F4 		.ascii	"\246\366\300\364\013O\003\202\353\030\000$W\031\271"
 787      0B4F0382 
 787      EB180024 
 787      5719B9
 788 0195 B0E180C5 		.ascii	"\260\341\200\305!\314\243\3049\032\007\254\214\345!"
 788      21CCA3C4 
 788      391A07AC 
 788      8CE521
 789 01a4 4C28D6F0 		.ascii	"L(\326\360\261|\256\340\205\333\307f!\273n\246\253\336"
 789      B17CAEE0 
 789      85DBC766 
 789      21BB6EA6 
 789      ABDE
 790 01b6 0B8458C2 		.ascii	"\013\204X\302)\204\305_\371{,\024B.\370\032\374]\255"
 790      2984C55F 
 790      F97B2C14 
 790      422EF81A 
 790      FC5DAD
 791 01c9 BA178E66 		.ascii	"\272\027\216fa\"\274!re+\301G?\022\022>\036\310\035"
 791      6122BC21 
 791      72652BC1 
 791      473F1212 
 791      3E1EC81D 
 792 01dd 0E385CA7 		.ascii	"\0168\\\247)M\361\024\221F\360B\221H\021\\\000\027\013"
 792      294DF114 
 792      9146F042 
 792      9148115C 
 792      00170B
 793 01f0 42B6F798 		.ascii	"B\266\367\230\020'.t =\016\327\247J\207p\217\207\370"
 793      10272E74 
 793      203D0ED7 
ARM GAS  C:\Users\AMANRA~1\AppData\Local\Temp\cck7hb2g.s 			page 64


 793      A74A8770 
 793      8F87F8
 794 0203 07CADBC1 		.ascii	"\007\312\333\301'\344\201\344\233P\376\032\344\2144"
 794      27E481E4 
 794      9B50FE1A 
 794      E48C34
 795 0212 BF7657AA 		.ascii	"\277vW\252:\267\263\322N\354v\000\360\233Q\313\307\254"
 795      3AB7B3D2 
 795      4EEC7600 
 795      F09B51CB 
 795      C7AC
 796 0224 8E3AF065 		.ascii	"\216:\360e\011\346f\350#2G\333\303\301\274[1[O\211\002"
 796      09E666E8 
 796      233247DB 
 796      C3C1BC5B 
 796      315B4F89 
 797 0239 5B6ED04A 		.ascii	"[n\320J\3359@\3717\253\253\031\266\"\007\321\376cg%"
 797      DD3940F9 
 797      37ABAB19 
 797      B62207D1 
 797      FE636725 
 798 024d DC86130A 		.ascii	"\334\206\023\012\016\366N\350$\356\200ab\233\317\231"
 798      0EF64EE8 
 798      24EE8061 
 798      629BCF99 
 799 025d E8D4901B 		.ascii	"\350\324\220\033\247Y\210\371\"\371\203\026$\014\367"
 799      A75988F9 
 799      22F98316 
 799      240CF7
 800 026c B4A21404 		.ascii	"\264\242\024\004\205&\215W\237\270a3\323=X\276i%\335"
 800      85268D57 
 800      9FB86133 
 800      D33D58BE 
 800      6925DD
 801 027f EB4A5140 		.ascii	"\353JQ@\264B\002M\377\277\271\275\360\200y\227V\347"
 801      B442024D 
 801      FFBFB9BD 
 801      F0807997 
 801      56E7
 802 0291 657B178A 		.ascii	"e{\027\212^Z-\311\034\361\262\3011\254.\222F3Q\232\305"
 802      5E5A2DC9 
 802      1CF1B2C1 
 802      31AC2E92 
 802      4633519A 
 803 02a6 7C5D9507 		.ascii	"|]\225\007\312c\217\231h\221\252\274\035\225\032H\251"
 803      CA638F99 
 803      6891AABC 
 803      1D951A48 
 803      A9
 804 02b7 0D5FF632 		.ascii	"\015_\3662\025:\236h\224\262M\004\177\027m\022C\015"
 804      153A9E68 
 804      94B24D04 
 804      7F176D12 
 804      430D
 805 02c9 A2F62BE6 		.ascii	"\242\366+\346k\377\212\246(j\300\240C\310\345\243!n"
 805      6BFF8AA6 
 805      286AC0A0 
ARM GAS  C:\Users\AMANRA~1\AppData\Local\Temp\cck7hb2g.s 			page 65


 805      43C8E5A3 
 805      216E
 806 02db 1EA21CFD 		.ascii	"\036\242\034\375K\323\027\312\234d\037^\212\352\232"
 806      4BD317CA 
 806      9C641F5E 
 806      8AEA9A
 807 02ea 52C48047 		.ascii	"R\304\200G\2418t\256/\022\357\036\017\217\206.Q%\212"
 807      A13874AE 
 807      2F12EF1E 
 807      0F8F862E 
 807      51258A
 808 02fd 402283D6 		.ascii	"@\"\203\326\205\311\0165\251B\030\354\367p't\203\253"
 808      85C90E35 
 808      A94218EC 
 808      F7702774 
 808      83AB
 809 030f 843BD8AA 		.ascii	"\204;\330\252A\307\361\241\357\235\250\220\223e`\271"
 809      41C7F1A1 
 809      EF9DA890 
 809      936560B9 
 810 031f 7A780CF4 		.ascii	"zx\014\364@R\021\355\006d\000\275\340\012\247\211A\362"
 810      405211ED 
 810      066400BD 
 810      E00AA789 
 810      41F2
 811 0331 3EF42D68 		.ascii	">\364-h\333ZVh\037\032\257?\022\336O\021\361\006\010"
 811      DB5A5668 
 811      1F1AAF3F 
 811      12DE4F11 
 811      F10608
 812 0344 4F35F17E 		.ascii	"O5\361~\006\327]\236\366\262\015\363\014F\342\031\212"
 812      06D75D9E 
 812      F6B20DF3 
 812      0C46E219 
 812      8A
 813 0355 C8334C3C 		.ascii	"\3103L<\232\311\363\213\010\327\\\303\231aM\206\353"
 813      9AC9F38B 
 813      08D75CC3 
 813      99614D86 
 813      EB
 814 0366 0E1E3170 		.ascii	"\016\0361pe\005\261c\243\210\2610\"\020\365\373!>\006"
 814      6505B163 
 814      A388B130 
 814      2210F5FB 
 814      213E06
 815 0379 A31111C7 		.ascii	"\243\021\021\307\010\321b\"\006\302C\326\271\321\024"
 815      08D16222 
 815      06C243D6 
 815      B9D114
 816 0388 C6C27824 		.ascii	"\306\302x$\236\211\210<\223\304c5y\256\206\363tm<>S"
 816      9E89883C 
 816      93C46335 
 816      79AE86F3 
 816      746D3C3E 
 817 039d 91787E8D 		.ascii	"\221x~\215\310s\215xl&O\020yd\276\334\305\007\256\017"
 817      C8738D78 
 817      6C264F10 
ARM GAS  C:\Users\AMANRA~1\AppData\Local\Temp\cck7hb2g.s 			page 66


 817      7964BEDC 
 817      C507AE0F 
 818 03b1 5571022A 		.ascii	"Uq\002*!\010\007N\256\272x\351\200U\256a\200\337\320"
 818      2108074E 
 818      AEBA78E9 
 818      8055AE61 
 818      80DFD0
 819 03c4 0C9779FC 		.ascii	"\014\227y\374\312\032G+\261\2465\206\275^\354\272\012"
 819      CA1A472B 
 819      B1A63586 
 819      BD5EECBA 
 819      0A
 820 03d5 93E30EB1 		.ascii	"\223\343\016\261\371\267o\227Z\321\341K\312r\357\002"
 820      F9B76F97 
 820      5AD1E14B 
 820      CA72EF02 
 821 03e5 7F1CF75C 		.ascii	"\177\034\367\\\2306_w\261\340\3200 l\241\350\002O\300"
 821      98365F77 
 821      B1E0D030 
 821      206CA1E8 
 821      024FC0
 822 03f8 8C785BBB 		.ascii	"\214x[\273\311:+\033AOs\234\024v\2406\355Q\313\340\240"
 822      C93A2B1B 
 822      414F739C 
 822      1476A036 
 822      ED51CBE0 
 823 040d 0D86F713 		.ascii	"\015\206\367\023\270z\3669d\322e#\020Q\356i\261G\210"
 823      B87AF639 
 823      64D26523 
 823      1051EE69 
 823      B14788
 824 0420 F2604D5D 		.ascii	"\362`M]M\264\031\243\347)Ds\302\257\303\364;/\312\374"
 824      4DB419A3 
 824      E7294473 
 824      C2AFC3F4 
 824      3B2FCAFC 
 825 0434 64E758A9 		.ascii	"d\347X\251.\313<\313P\341\272\214\306\352\356\217\373"
 825      2ECB3CCB 
 825      50E1BA8C 
 825      C6EAEE8F 
 825      FB
 826 0445 2093E1A9 		.ascii	" \223\341\251\223\341a\322{\240\376<\230\215hM\207\335"
 826      93E161D2 
 826      7BA0FE3C 
 826      988D684D 
 826      87DD
 827 0457 C3EE0F11 		.ascii	"\303\356\017\021ONB&\003\246r!\274h\306\037U\360\206"
 827      4F4E4226 
 827      03A67221 
 827      BC68C61F 
 827      55F086
 828 046a 10A49CC1 		.ascii	"\020\244\234\301b\270\340\364\243\012\376.\004)\005"
 828      62B8E0F4 
 828      A30AFE2E 
 828      042905
 829 0479 70D314C4 		.ascii	"p\323\024\304\364\\i\016\004\334\272l\325\364}W[;?b"
 829      F45C690E 
ARM GAS  C:\Users\AMANRA~1\AppData\Local\Temp\cck7hb2g.s 			page 67


 829      04DCBA6C 
 829      D5F47D57 
 829      5B3B3F62 
 830 048d C9FCD7B0 		.ascii	"\311\374\327\260b\023\363r\331R\252\334\213\207\234"
 830      6213F372 
 830      D952AADC 
 830      8B879C
 831 049c 32113658 		.ascii	"2\0216X\202\314\325\317\200\306\305\313SN4\316\223\365"
 831      82CCD5CF 
 831      80C6C5CB 
 831      534E34CE 
 831      93F5
 832 04ae CEE11675 		.ascii	"\316\341\026uY\006\313\220i\266x\013\373N\221\305\366"
 832      5906CB90 
 832      69B6780B 
 832      FB4E91C5 
 832      F6
 833 04bf 50EDFD0F 		.ascii	"P\355\375\017\331\224\347\201\213o\263\265<O\026\343"
 833      D994E781 
 833      8B6FB3B5 
 833      3C4F16E3 
 834 04cf 66C8E04F 		.ascii	"f\310\340O\024\367\360\247\204\274U~.\2050\263\247\227"
 834      14F7F0A7 
 834      84BC557E 
 834      2E8530B3 
 834      A797
 835 04e1 4458844E 		.ascii	"DX\204N\036v\316P,\032\277\225\230\350\302\277\335{"
 835      1E76CE50 
 835      2C1ABF95 
 835      98E8C2BF 
 835      DD7B
 836 04f3 5376A5A4 		.ascii	"Sv\245\244e$\275\231\364\262+-\303\265\367\223TWz\332"
 836      6524BD99 
 836      F4B22B2D 
 836      C3B5F793 
 836      54577ADA 
 837 0507 E7FB325C 		.ascii	"\347\3732\\\037'\177\360\352+\256\035;\336q}\230\374"
 837      1F277FF0 
 837      EA2BAE1D 
 837      3BDE717D 
 837      98FC
 838 0519 DEFE247A 		.ascii	"\336\376$z\262\363\213\214];SS?M\334\315T\274LW\323"
 838      B2F38B8C 
 838      5D3B5353 
 838      3F4DDCCD 
 838      54BC4C57 
 839 052e F67D960E 		.ascii	"\366}\226\016)\377\001\220\263\242\375"
 839      29FF0190 
 839      B3A2FD
 840              		.text
 841              		.section	.gnu.lto_usb_lld_reset.c3dc9563,"",%progbits
 842 0000 789C9D58 		.ascii	"x\234\235X{PT\327\031\277\3379\367\356\223\227\306$"
 842      7B5054D7 
 842      19BFDF39 
 842      F7EE9397 
 842      C624
 843 0012 36759235 		.ascii	"6u\2225J4N\307\015\355L'\315L\247\311L;\235\266v:\235"
ARM GAS  C:\Users\AMANRA~1\AppData\Local\Temp\cck7hb2g.s 			page 68


 843      4A344EC7 
 843      0DED4C27 
 843      CD4CA7C9 
 843      4C3B9DB6 
 844 0029 3AFD37D3 		.ascii	":\3757\323X\255\3168\301\021\233i\363\217\227\207\274"
 844      58ADCE38 
 844      C1119B69 
 844      F38F9787 
 844      BC
 845 003a 8C118DAC 		.ascii	"\214\021\215\254JW\263\200\010&\002*\030\004YX\301\210"
 845      4A57B380 
 845      0826022A 
 845      18045958 
 845      C188
 846 004c 06F14150 		.ascii	"\006\361AP\211\202\317\210\256\017\324( \306G\277\357"
 846      8982CF88 
 846      AE0FD428 
 846      20C647BF 
 846      EF
 847 005d 9CBBB0EC 		.ascii	"\234\273\260\354.+\263;z\270{\316w~\337\363|\347\267"
 847      2E2BB33B 
 847      7AB87BCE 
 847      777EDFF3 
 847      7CE7B7
 848 0070 D7A4284A 		.ascii	"\327\244(J\365K\212\222\217\177+\360?\304)\300\012\216"
 848      F54B8A92 
 848      8F7F2BF0 
 848      3FC429C0 
 848      0A8E
 849 0082 294ABA85 		.ascii	")J\272\205\001\227\017\234\331k[\024E\267\251=vE\217"
 849      01970F9C 
 849      D96B5B14 
 849      45B7A93D 
 849      76458F
 850 0095 B3CBF9F7 		.ascii	"\263\313\371\367T0\311uM>\034\260\230\230&\005\315B"
 850      5430C975 
 850      4D3E1CB0 
 850      98982605 
 850      CD42
 851 00a7 D00C1629 		.ascii	"\320\014\026)`a69o\025\36369\377\236\025\200\376\352"
 851      60613639 
 851      6F15F336 
 851      39FF9E15 
 851      80FEEA
 852 00ba 16505632 		.ascii	"\026PV2nW5\223\331b\263\302J\325\244\200O\205$1(\364"
 852      6E573593 
 852      D962B3C2 
 852      4AD5A480 
 852      4F852431 
 853 00d0 E18AF1B1 		.ascii	"\341\212\361\261\004\036>\341\0338\264\344\364\325\263"
 853      041E3EE1 
 853      1B38B4E4 
 853      F4D5B3
 854 00df 37CB75FC 		.ascii	"7\313u\374\3706\356{\347\222~B\347n\224u\031\362P\003"
 854      F836EE7B 
 854      E7927E42 
 854      E76E9475 
ARM GAS  C:\Users\AMANRA~1\AppData\Local\Temp\cck7hb2g.s 			page 69


 854      19F25003 
 855 00f3 6FA2D8C9 		.ascii	"o\242\330\311\254]n\276\032W\000T\374z\257\243\350J"
 855      AC5D6EBE 
 855      1A570054 
 855      FC7AAFA3 
 855      E84A
 856 0105 027D65E0 		.ascii	"\002}e\340\300\257\376\223\273\273\022\371\273\240\340"
 856      C0AFFE93 
 856      BBBB12F9 
 856      BBA0E0
 857 0114 F3F54B5B 		.ascii	"\363\365K[\347\317*\323\365\014\335\367\270\224\353"
 857      E7CF2AD3 
 857      F50CDDF7 
 857      B894EB
 858 0123 33DD9CC3 		.ascii	"3\335\234\303W\300\021\017\366\3024\250\205i\012N)P"
 858      57C0110F 
 858      F6C234A8 
 858      85690A4E 
 858      2950
 859 0135 07B3487C 		.ascii	"\007\263H|\323\272\233y\032\377\235\330\372e\301Q\277"
 859      D3BA9B79 
 859      1AFF9DD8 
 859      FA65C151 
 859      BF
 860 0146 9A5C2AF6 		.ascii	"\232\\*\366\016\372yE\255\256\347\275\353\346*\354\033"
 860      0EFA7945 
 860      ADAEE7BD 
 860      EBE62AEC 
 860      1B
 861 0157 BB9F3E28 		.ascii	"\273\237>(^\326\336\332\224\300\377(\266\2569\341\252"
 861      5ED6DEDA 
 861      94C0FF28 
 861      B6AE39E1 
 861      AA
 862 0168 D18CADFD 		.ascii	"\321\214\255\375~\3566\266j\320\020q\353\345\335O\013"
 862      7EEE36B6 
 862      6AD01071 
 862      EBE5DD4F 
 862      0B
 863 0179 E34D2AEC 		.ascii	"\343M*\354\207d\250\207d\351-4\002F\015#\025\230F\301"
 863      8764A887 
 863      64E92D34 
 863      02460D23 
 863      159846C1 
 864 018d 829EE146 		.ascii	"\202\236\341F;\237't\344\353\315\273\300\320q\366\235"
 864      3B9F2774 
 864      E4EBCDBB 
 864      C0D071F6 
 864      9D
 865 019e 22DD97E5 		.ascii	"\"\335\227\345ps\023x\3035@\023$Wwj>\375\351\263\034"
 865      70731378 
 865      C3354013 
 865      2457776A 
 865      3EFDE9B3 
 866 01b3 DDD7E787 		.ascii	"\335\327\347\207\223G\216\335\231\341\004\364\334\314"
 866      93478EDD 
 866      99E104F4 
ARM GAS  C:\Users\AMANRA~1\AppData\Local\Temp\cck7hb2g.s 			page 70


 866      DCCC
 867 01c1 70B0701A 		.ascii	"p\260p\032T\0324\032L4\230i\260\320`U\310\2028\240\030"
 867      541A341A 
 867      4C349869 
 867      B0D06055 
 867      C88238A0 
 868 01d6 C52B64C9 		.ascii	"\305+d\311kb\306A\373\247\343\240\276Nb3h\230)\224%"
 868      6B62C641 
 868      FBA7E3A0 
 868      BE4E6233 
 868      68982994 
 869 01eb D3E31B34 		.ascii	"\323\343\0334\314\242a6\015\212\222\213^\365\330u\237"
 869      CCA26136 
 869      0D8A928B 
 869      5EF5D875 
 869      9F
 870 01fc 92C7193E 		.ascii	"\222\307\031>d\372\224\033\220\321\340\337\352\365\000"
 870      64FA941B 
 870      90D1E0DF 
 870      EAF500
 871 020b F95AC4E3 		.ascii	"\371Z\304\343\321+\327\252\226\343fJ%\027N6\266t\034"
 871      D12BD7AA 
 871      96E3664A 
 871      25174E36 
 871      B6741C
 872 021e 3279606B 		.ascii	"2y`k:\026\204\247\237,\266\026\3618h&\317p\271+\247"
 872      3A1684A7 
 872      9F2CB616 
 872      F1386826 
 872      CF70B92B 
 873 0233 FBBCDD59 		.ascii	"\373\274\335YI\345\342\240\314\370\300\003\205\242T"
 873      49E5E2A0 
 873      CCF8C003 
 873      85A254
 874 0242 E0003895 		.ascii	"\340\0008\225>\310\360\224\010p\262\032\025\210\231"
 874      3EC8F094 
 874      0870B21A 
 874      158899
 875 0251 F281149A 		.ascii	"\362\201\024\232\302\355\033\372r\007\022\347T\210j"
 875      C2ED1BFA 
 875      720712E7 
 875      54886A
 876 0260 1B6CD48A 		.ascii	"\033l\324\2123\263\200\212\301(\265\026\230\203\272"
 876      33B3808A 
 876      C128B516 
 876      9883BA
 877 026f 42B60CD4 		.ascii	"B\266\014\324\\)\327\370_\205qg/\256\353\344F\006\372"
 877      5C29D7F8 
 877      5F857167 
 877      2FAEEBE4 
 877      4606FA
 878 0282 FC7C7BA6 		.ascii	"\374|{\246~XW)\007\255\021rpP$p\304=\023(\3605\256\365"
 878      7E585729 
 878      07AD1172 
 878      70502470 
 878      C43D1328 
 879 029a 0123A80B 		.ascii	"\001#\250\013{\267\337\265\006\240\252^)6\240\302jU"
ARM GAS  C:\Users\AMANRA~1\AppData\Local\Temp\cck7hb2g.s 			page 71


 879      7BB7DFB5 
 879      06A0AA5E 
 879      2936A0C2 
 879      6A55
 880 02ac 401DC27A 		.ascii	"@\035\302z@\343\204eu\033g\217\024P\226p\344\330\015"
 880      40E38465 
 880      751B678F 
 880      14509670 
 880      E4D80D
 881 02bf DC4622A8 		.ascii	"\334F\"\250Q\024\221\213\207\225s\177UR\211\241b\274"
 881      5114918B 
 881      8795737F 
 881      555289A1 
 881      62BC
 882 02d1 720ED4E4 		.ascii	"r\016\324\344aBi\303\010\036\241r\304\201f(\2247\240"
 882      614269C3 
 882      081EA172 
 882      C4816628 
 882      9437A0
 883 02e4 A52BFF49 		.ascii	"\245+\377I\3576\240\311`\327\3241\231\303\210\332P\034"
 883      EF36A0C9 
 883      60D7D431 
 883      99C388DA 
 883      501C
 884 02f6 BE315276 		.ascii	"\2761Rv\272\256\241.\036S\226\225\256{^us;\264\213\234"
 884      BAAEA12E 
 884      1E539695 
 884      AE7B5E75 
 884      733BB48B 
 885 030b 8150A2C0 		.ascii	"\201P\242\300Qp\242P\216_\367\2522L\016\350\020F\345"
 885      5170A250 
 885      8E5FF7AA 
 885      324C0EE8 
 885      1046E5
 886 031e 6162B0B7 		.ascii	"ab\260\267\210\252ii\360?\274j&\275E\374\365\211\351"
 886      88AA6969 
 886      F03FBC6A 
 886      26BD45FC 
 886      F589E9
 887 0331 7290AA63 		.ascii	"r\220\252ccT\035\307\012\271\001\231\217\2637\033P3"
 887      63541DC7 
 887      0AB90199 
 887      8FB3371B 
 887      5033
 888 0343 24DA4837 		.ascii	"$\332H7\261\240\362\023\010u\025\262\316\265\036\005"
 888      B1A0F213 
 888      087515B2 
 888      CEB51E05 
 889 0353 430825AA 		.ascii	"C\010%\252o\325\017\307K\011\005N\0321\313\345v\005"
 889      6FD50FC7 
 889      4B09054E 
 889      1A31CBE5 
 889      7605
 890 0365 7B22E471 		.ascii	"{\"\344qUV\267\221\332\341\302\003g\200\377]\004\245"
 890      5556B791 
 890      DAE1C203 
 890      6780FF5D 
ARM GAS  C:\Users\AMANRA~1\AppData\Local\Temp\cck7hb2g.s 			page 72


 890      04A5
 891 0377 AAB46287 		.ascii	"\252\264b\2079<\315q\320\031!\315\337\212\212)\354\360"
 891      393CCD71 
 891      D01921CD 
 891      DF8A8A29 
 891      ECF0
 892 0389 768B5617 		.ascii	"v\213V\027\007\223\241\013\327nA\326\305\2415M}SC\362"
 892      0793A10B 
 892      D76E41D6 
 892      C5A1354D 
 892      7D5343F2 
 893 039d FED9A09D 		.ascii	"\376\331\240\235\266\210\034\2718\013\312\241\002\247"
 893      B6881CB9 
 893      380BCAA1 
 893      02A7
 894 03ab 306DA7C9 		.ascii	"0m\247\311g\032p\241\276\376\3269\363\312'\272\305\315"
 894      671A70A1 
 894      BEFED639 
 894      F3CA27BA 
 894      C5CD
 895 03bd E35D582E 		.ascii	"\343]X.\247h\355\014\254TH\203\233'Pi9D\262\011Q\024"
 895      A768ED0C 
 895      AC544883 
 895      9B275069 
 895      3944B209 
 896 03d3 5AD9803C 		.ascii	"Z\331\200<H\007\215\011\207\370F\325A\011yp}\247w\027"
 896      48078D09 
 896      87F846D5 
 896      41097970 
 896      7DA77717 
 897 03e7 186764CC 		.ascii	"\030gd\314\241}\36599\351\0269a\344\360w\"\367#ud\307"
 897      A17DF539 
 897      39E91639 
 897      61E4F077 
 897      22F72375 
 898 03fd E09EC55D 		.ascii	"\340\236\305]\002\2762F\370s\002^\364\323\036\001_~"
 898      02BE3246 
 898      F873025E 
 898      F4D31E01 
 898      5F7E
 899 040f B4B7D824 		.ascii	"\264\267\330$\341\323u\025z\305\031\314\360\\\031(\346"
 899      E1D37515 
 899      7AC519CC 
 899      F05C1928 
 899      E6
 900 0420 C2A3FD22 		.ascii	"\302\243\375\"\352#\031\326\320\210\363F\001j\224_Y"
 900      EA2319D6 
 900      D088F346 
 900      016A945F 
 900      59
 901 0431 800FAED7 		.ascii	"\200\017\256\327{\277\217h\320\"%\304\242\261=*\021"
 901      7BBF8F68 
 901      D02225C4 
 901      A2B13D2A 
 901      11
 902 0442 2E088B54 		.ascii	".\010\213Ty\312\016\335\271\324\256\246T\323\242\347"
 902      79CA0EDD 
ARM GAS  C:\Users\AMANRA~1\AppData\Local\Temp\cck7hb2g.s 			page 73


 902      B9D4AEA6 
 902      54D3A2E7 
 903 0452 23374F82 		.ascii	"#7O\202\213\340,\342V\343\014\266\227\236\331\231`\234"
 903      8BE02CE2 
 903      56E30CB6 
 903      979ED999 
 903      609C
 904 0464 95122093 		.ascii	"\225\022 \223/AJ!\332\201\336\\\026\336x\2127\270m\322"
 904      2F414A21 
 904      DA81DE5C 
 904      16DE788A 
 904      37B86DD2 
 905 0478 1BAA0105 		.ascii	"\033\252\001\005\256\004\002\326\020\233}\223\340{a"
 905      AE0402D6 
 905      109B7D93 
 905      E07B61
 906 0487 9F29A27D 		.ascii	"\237)\242}\223\341jt\373\372\310>3\331w\015\234\243"
 906      93E16A74 
 906      FBFAC83E 
 906      33D9770D 
 906      9CA3
 907 0499 C6EC8F35 		.ascii	"\306\354\2175X\327\243\006\313\037\335\230\033d\014"
 907      58D7A306 
 907      CB1FDD98 
 907      1B640C
 908 04a8 F10BB829 		.ascii	"\361\013\270)\202u\263qW\267&\203\365\014?\211p+`_c"
 908      8275B371 
 908      57B72683 
 908      F50C3F89 
 908      702B605F 
 909 04bd ACC1BA1D 		.ascii	"\254\301\272\0355X\375\321\355\273C\366\3212\334\305"
 909      3558FDD1 
 909      EDBB43F6 
 909      D132DCC5 
 910 04cd 60496332 		.ascii	"`Ic2]\331k\316\264\375R^\210\257\341n\334Y{\260-\333"
 910      5DD96BCE 
 910      B4FD525E 
 910      88AFE16E 
 910      DC597BB0 
 911 04e3 228B11E0 		.ascii	"\"\213\021\340\236,XG\240XQJ\024\247\311\350\216\324"
 911      9E2C5847 
 911      A058514A 
 911      14A7C9E8 
 911      8ED4
 912 04f5 75E4BC55 		.ascii	"u\344\274U\334\257G\336\226X\020\342\233#\352Uj\206"
 912      DCAF47DE 
 912      965810E2 
 912      9B23EA55 
 912      6A86
 913 0507 1F846736 		.ascii	"\037\204g6\262\356\276h\224\010\365'\011\305\202O\251"
 913      B2EEBE68 
 913      9408F527 
 913      09C5824F 
 913      A9
 914 0518 39EC9EC6 		.ascii	"9\354\236\306\355/\240>x` \337[\275\276\033\020\271"
 914      ED2FA03E 
 914      786020DF 
ARM GAS  C:\Users\AMANRA~1\AppData\Local\Temp\cck7hb2g.s 			page 74


 914      5BBDBE1B 
 914      10B9
 915 052a 402C4D81 		.ascii	"@,M\201\001\201l'\344AD\306\356\372]\3534\003\331\010"
 915      01816C27 
 915      E44144C6 
 915      EEFA5DEB 
 915      3403D908 
 916 053e D72058E9 		.ascii	"\327 X\351\324\251\235\024\004m\317O\321?s\240\251f"
 916      D4A99D14 
 916      046DCF4F 
 916      D13F73A0 
 916      A966
 917 0550 784A0727 		.ascii	"xJ\007'v\201\017\215^\340\306\226\321\251\260[\267\177"
 917      76810F8D 
 917      5EE0C696 
 917      D1A9B05B 
 917      B77F
 918 0562 DF736EDD 		.ascii	"\337sn\335\207x\245\016\211[7l\357\011\210\262o\330"
 918      8778A50E 
 918      895B376C 
 918      EF0988B2 
 918      6FD8
 919 0574 D827C8CE 		.ascii	"\330'\310\316\332\362\311!m\373\320-\334G\330\303#\327"
 919      DAF2C921 
 919      6DFBD02D 
 919      DC47D8C3 
 919      23D7
 920 0586 B53AA677 		.ascii	"\265:\246w?B\263\177\244\376\374#Eh\366\330\353\016"
 920      3F42B37F 
 920      A4FEFC23 
 920      4568F6D8 
 920      EB0E
 921 0598 03ED8814 		.ascii	"\003\355\210\024hO\263\373\017\024\353\307\"\326q\002"
 921      684FB3FB 
 921      0F14EBC7 
 921      22D67102 
 922 05a8 45812732 		.ascii	"E\201'2\221]\371y\032\241\341\226o\012\237\325\211#"
 922      915DF979 
 922      1AA1E196 
 922      6F0A9FD5 
 922      8923
 923 05ba F122F410 		.ascii	"\361\"\364\020D\303\203\362\013\252\2046Qu<%hx\206("
 923      44C383F2 
 923      0BAA8436 
 923      51753C25 
 923      68788628 
 924 05ce A85ABAD0 		.ascii	"\250Z\272\320\356\255`2[<b\342#\332#\022\2573i\014\""
 924      EEAD6032 
 924      5B3C62E2 
 924      23DA2312 
 924      AF33690C 
 925 05e3 A633A724 		.ascii	"\2463\247$\020\233\265X\272z\206@\212'\244L\206g\214"
 925      109BB558 
 925      BA7A8640 
 925      8A27A44C 
 925      86678C
 926 05f6 93698F6D 		.ascii	"\223i\217mJ\021\237\216\322\217j\252\374q\344\324K\320"
ARM GAS  C:\Users\AMANRA~1\AppData\Local\Temp\cck7hb2g.s 			page 75


 926      4A119F8E 
 926      D28F6AAA 
 926      FC71E4D4 
 926      4BD0
 927 0608 45BB2BF7 		.ascii	"E\273+\367ln\214\223N\251\344T\026#\247V!\206\250\215"
 927      6C6E8C93 
 927      4EA9E454 
 927      1623A756 
 927      2186A88D 
 928 061c 9A099653 		.ascii	"\232\011\226S6\033\257vNW>\247vrX2m\027\352\356\270"
 928      361BAF76 
 928      4E573EA7 
 928      76725832 
 928      6D17EAEE 
 929 0631 42195B1F 		.ascii	"B\031[\037\225\000\212\030\351\327B\331\332\371\312"
 929      95008A18 
 929      E9D742D9 
 929      DAF9CA
 930 0640 09B3B53C 		.ascii	"\011\263\265<B\311e&\310g\230o\034h\006\243\"\333\\"
 930      42C96526 
 930      C867986F 
 930      1C6806A3 
 930      22DB5C
 931 0653 6F998DE6 		.ascii	"o\231\215\346\302\030\323\364\361\331\331jfP\246\\\002"
 931      C218D3F4 
 931      F1D9D96A 
 931      6650A65C 
 931      02
 932 0664 FC84511F 		.ascii	"\374\204Q\037\335\177\377q;\223}4\011\326P0\007\301"
 932      DD7FFF71 
 932      3B937D34 
 932      09D65030 
 932      07C1
 933 0676 8127DE54 		.ascii	"\201'\336TT\265\366m<\252\226`\242v\036\211\032\352"
 933      54B5F66D 
 933      3CAA9660 
 933      A2761E89 
 933      1AEA
 934 0688 2CE26F4C 		.ascii	",\342oLL\255\310\357\247c\264\256e\243DM@\315\222h\235"
 934      4CADC8EF 
 934      A763B4AE 
 934      65A3444D 
 934      40CD9268 
 935 069d 778F6EB1 		.ascii	"w\217n\261K\032\226\004\005l\224\250I\241 ff3\230\231"
 935      4B1A9604 
 935      056C94A8 
 935      49A12066 
 935      66339899 
 936 06b1 750C330B 		.ascii	"u\0143\013fcA)\214\314\306\326a\012\243\322\257N;\311"
 936      66634129 
 936      8CCCC6D6 
 936      610AA3D2 
 936      AF4E3BC9 
 937 06c5 88A087D2 		.ascii	"\210\240\207\322\257\365\230\207\317\310\023\032\"\320"
 937      AFF59887 
 937      CFC8131A 
 937      22D0
ARM GAS  C:\Users\AMANRA~1\AppData\Local\Temp\cck7hb2g.s 			page 76


 938 06d3 AFF5B4B6 		.ascii	"\257\365\264\266\201\205\320/\312\036!\212\252\331="
 938      8185D02F 
 938      CA1E218A 
 938      AAD93D
 939 06e2 28E91725 		.ascii	"(\351\027%X\006\366\270\267\326\370\335\244\206\237"
 939      5806F6B8 
 939      B7D6F8DD 
 939      A4869F
 940 06f1 C3A8A7A7 		.ascii	"\303\250\247\247PD7\201\274r\005B\353\267K,M\302e\257"
 940      50443781 
 940      BC720542 
 940      EBB74B2C 
 940      4DC265AF 
 941 0705 3F7D99CB 		.ascii	"?}\231\313\320\256\275KW\345F6M\036X?\217\345\300n\032"
 941      D0AEBD4B 
 941      57E54636 
 941      4D1E583F 
 941      8FE5C06E 
 942 071a 55B9990E 		.ascii	"U\271\231\016\254&}8\353\2550|\010E\034\327\007qs\026"
 942      AC267D38 
 942      EBAD307C 
 942      08451CD7 
 942      07717316 
 943 072e 09B84482 		.ascii	"\011\270D\202\373\237\364\340a\266\001d\226X\0337\373"
 943      FB9FF4E0 
 943      61B60164 
 943      96581B37 
 943      FB
 944 073f 1E8074A0 		.ascii	"\036\200t\240@\177\013\334\001\363#]\363\321um\031\325"
 944      407F0BDC 
 944      01F3235D 
 944      F3D1756D 
 944      19D5
 945 0751 B5954C37 		.ascii	"\265\225L7\313\263t\316\2733&B\372\271\200\243\227 "
 945      CBB374CE 
 945      BB332642 
 945      FAB980A3 
 945      9720
 946 0763 E011A7C9 		.ascii	"\340\021\247\311\325\261\256\301 \244V(f\006#\351\211"
 946      D5B1AEC1 
 946      20A45628 
 946      660623E9 
 946      89
 947 0774 11BE44C0 		.ascii	"\021\276D\300O\"\370R\3464\3602\036\345<9\2273e\034"
 947      4F22F852 
 947      E634F032 
 947      1EE53C39 
 947      9733651C 
 948 0788 BC2834E0 		.ascii	"\274(4\340e\330&\360&\313.\363\255k\240\333d\020\234"
 948      65D826F0 
 948      26CB2EF3 
 948      AD6BA0DB 
 948      64109C
 949 079b E56E3E15 		.ascii	"\345n>\025\312P\305\034q@`;K\011\246\005S\005-\310|"
 949      CA50C51C 
 949      7140603B 
 949      4B09A605 
ARM GAS  C:\Users\AMANRA~1\AppData\Local\Temp\cck7hb2g.s 			page 77


 949      53052DC8 
 950 07b0 D47C3F01 		.ascii	"\324|?\001\013}*Nx\270\004\031>y;\327N\352\223\334\374"
 950      0B7D2A4E 
 950      78B80419 
 950      3E793BD7 
 950      4EEA93DC 
 951 07c5 2750C156 		.ascii	"'P\301VB9\223\2723\267\325"
 951      423993BA 
 951      33B7D5
 952 07d0 AC0294DE 		.ascii	"\254\002\224\336\204\360_\000a\354\240\036\255\300\027"
 952      84F05F00 
 952      61ECA01E 
 952      ADC017
 953 07df 78344454 		.ascii	"x4DT\256{/N(*\2414\355K\026D\323\202\275\370\220h\332"
 953      AE7B2F4E 
 953      282AA134 
 953      ED4B1644 
 953      D382BDF8 
 954 07f6 CE112F70 		.ascii	"\316\021/p\365\207\363\237\016\201\321\001?\246\210"
 954      F587F39F 
 954      0E81D101 
 954      3FA688
 955 0805 56326469 		.ascii	"V2di/\220\213U\"_G\256=r\305\215Pn\335\004\325\201\332"
 955      2F908B55 
 955      225F47AE 
 955      3D72C58D 
 955      506EDD04 
 956 081c DAD2DBF6 		.ascii	"\332\322\333\366r,\326\355\212j\335\356\250\326\355"
 956      722CD6ED 
 956      8A6ADDEE 
 956      A8D6ED
 957 082b 6101C25D 		.ascii	"a\001\302]#\254kM\337\333\003\222+\372\260\257\001\324"
 957      23AC6B4D 
 957      DFDB0392 
 957      2BFAB0AF 
 957      01D4
 958 083d 062AEA66 		.ascii	"\006*\352fL\261K\204\275,\210\202\207X\227\004_E\265"
 958      4CB14B84 
 958      BD2C8882 
 958      87589704 
 958      5F45B5
 959 0850 AE8EAC9B 		.ascii	"\256\216\254\233B\326\355C9\343\307\\W~GL\201J\204\372"
 959      42D6ED43 
 959      39E3C75C 
 959      577E474C 
 959      814A84FA 
 960 0864 A8A63444 		.ascii	"\250\2464D5e?\013\374rjD9\212\012\265\325\346\241\003"
 960      35653F0B 
 960      FC726A44 
 960      398A0AB5 
 960      D5E6A103 
 961 0878 DA842E7F 		.ascii	"\332\204.\177/\033\341\222A{J\322O\265\307sl=\342\312"
 961      2F1BE192 
 961      417B4AD2 
 961      4FB5C773 
 961      6C3DE2CA 
 962 088c FE3C7D87 		.ascii	"\376<}\207-\374u\320+\320\304\302\257\223f\226\034|"
ARM GAS  C:\Users\AMANRA~1\AppData\Local\Temp\cck7hb2g.s 			page 78


 962      2DFC75D0 
 962      2BD0C4C2 
 962      AF936696 
 962      1C7C
 963 089e 8369F46E 		.ascii	"\203i\364n\224E|\035t\272arITrq\000o&4O\262\263\312"
 963      94457C1D 
 963      74BA6172 
 963      49547271 
 963      006F2634 
 964 08b6 1C53C8C5 		.ascii	"\034S\310\305\364\264\237\377L\3104\2170\014S0eh\"\336"
 964      F4B49FFF 
 964      4CC8348F 
 964      300C5330 
 964      656822DE 
 965 08ca D982774D 		.ascii	"\331\202wM+\335B\255tu\316\034\227\011\036\014\220\246"
 965      2BDD42AD 
 965      7475CE1C 
 965      97091E0C 
 965      90A6
 966 08dc BA2D5349 		.ascii	"\272-SI\226v\243\274\374\341r{\300\003\022\200\346\204"
 966      9676A3BC 
 966      FCE1727B 
 966      C0031280 
 966      E684
 967 08ee 3F826D8A 		.ascii	"?\202m\212\311q!\277fD.\223\307\204V\330:\3723\247I"
 967      C97121BF 
 967      66442E93 
 967      C78456D8 
 967      3AFA33A7 
 968 0903 BE65C026 		.ascii	"\276e\300&\177\273\267\3557\262\317[\244\2315\353\326"
 968      7FBBB7ED 
 968      37B2CF5B 
 968      A49935EB 
 968      D6
 969 0914 34192F6B 		.ascii	"4\031/k\304\357\337C\201\303\270#&b\331&*\354E\012\353"
 969      C4EFDF43 
 969      81C3B823 
 969      2662D926 
 969      2AEC450A 
 970 0929 616AF616 		.ascii	"aj\366\026\245\037\315\27264I\274\215\225d\002\220D"
 970      A51FCDBA 
 970      363449BC 
 970      8D956402 
 970      9044
 971 093b 3045F9F5 		.ascii	"0E\371\365\334\271N\374\267`\361\222\017\226\244\246"
 971      DCB94EFC 
 971      B760F192 
 971      0F96A4A6 
 972 094b A5FC2AE5 		.ascii	"\245\374*\345-gj\232s\361?\226:\227\245._\221\346\374"
 972      2D676A9A 
 972      73F13F96 
 972      3A97A52E 
 972      5F91E6FC 
 973 095f DBFC3FFF 		.ascii	"\333\374?\377\342\347\316y\363~\353\374\313\374\337"
 973      E2E7CE79 
 973      F37EEBFC 
 973      CBFCDF
ARM GAS  C:\Users\AMANRA~1\AppData\Local\Temp\cck7hb2g.s 			page 79


 974 096e 7F94422B 		.ascii	"\177\224B+\357\377;\355\203\367\227.\375\347\334\005"
 974      EFFF3BED 
 974      83F7972E 
 974      FDE7DC05 
 975 097e 8A8A8FCB 		.ascii	"\212\212\217\313\324\324\025\377Z\006K\324\017\027\376"
 975      D4D415FF 
 975      5A064BD4 
 975      0F17FE
 976 098d 6785BA68 		.ascii	"g\205\272h\311\242T\323\202\377.X\2720m\366\270\320"
 976      C9A254D3 
 976      82FF2E58 
 976      BA306DF6 
 976      B8D0
 977 099f A969382C 		.ascii	"\251i8,_!\376\316]\254\250iK>^\370\177I\011\237\034"
 977      5F21FECE 
 977      5DACA869 
 977      4B3E5EF8 
 977      7F49099F 
 978              		.text
 979              		.section	.gnu.lto_ep0config.c3dc9563,"",%progbits
 980 0000 789C6363 		.ascii	"x\234cc``H`d`\260g\200\200)\314\214;w\276\271\315^\377"
 980      60604860 
 980      6460B067 
 980      808029CC 
 980      8C3B77BE 
 981 0018 B7A1A3A1 		.ascii	"\267\241\243\241\341A\367}f\3469\314\014\013\230!R["
 981      E141F77D 
 981      66E639CC 
 981      0C0B9821 
 981      525B
 982 002a 8E1C6FE3 		.ascii	"\216\034o\343\350\006\212022\002\271\327\033\257?b\324"
 982      E8068A30 
 982      323202B9 
 982      D71BAF3F 
 982      62D4
 983 003c 5FDB0004 		.ascii	"_\333\000\004\013\276\367\311\316afZ\300\3148\225\031"
 983      0BBEF7C9 
 983      CE61665A 
 983      C0CC3895 
 983      19
 984 004d 6ACEBC49 		.ascii	"j\316\274IK\032\370!\346,\340\233\303\314\314\270\225"
 984      4B1AF821 
 984      E62CE09B 
 984      C3CCCCB8 
 984      95
 985 005e 511F2C81 		.ascii	"Q\037,\201\254\3553H\033\013X\033#Vm\254\214\333\241"
 985      ACED3348 
 985      1B0B581B 
 985      23566DAC 
 985      8CDBA1
 986 0071 DAB6BF5B 		.ascii	"\332\266\277[\275\235\027b\371\0014w.x\012T\3116\215"
 986      BD9D1762 
 986      F9013477 
 986      2E780A54 
 986      C9368D
 987 0084 19C3030B 		.ascii	"\031\303\003\013\036B$\0301$\366B$\230\300\022\353\337"
 987      1E422418 
ARM GAS  C:\Users\AMANRA~1\AppData\Local\Temp\cck7hb2g.s 			page 80


 987      3124F642 
 987      2498C012 
 987      EBDF
 988 0096 ECFC0936 		.ascii	"\354\374\0116\232\235\021\304]\261\340\311S&\213m\015"
 988      9A9D11C4 
 988      5DB1E0C9 
 988      53268B6D 
 988      0D
 989 00a7 1D0B1A16 		.ascii	"\035\013\032\026\000\0059\246231\356e\224\231\012\364"
 989      000539A6 
 989      323331EE 
 989      6594990A 
 989      F4
 990 00b8 C31EC6FA 		.ascii	"\303\036\306\372\251\314,\214\273A\024+\343.\020\305"
 990      A9CC2C8C 
 990      BB41142B 
 990      E32E10C5 
 991 00c8 C6B81324 		.ascii	"\306\270\023$\307\016\2418\030w\200\0049\031\267\201"
 991      C70EA138 
 991      18778004 
 991      3919B781 
 992 00d8 282EC62D 		.ascii	"(.\306- An\306\315\214\365\014\214\373\030-\030l\365"
 992      20416EC6 
 992      CD8CF50C 
 992      8CFB182D 
 992      186CF5
 993 00eb F4F48128 		.ascii	"\364\364\201(9#3)3\277\330\320\322\320@?\277X?#1G\277"
 993      39233329 
 993      33BFD8D0 
 993      D2D0403F 
 993      BF583F23 
 994 0102 20BFA8A4 		.ascii	" \277\250\244X?8\304\327\330H\337\307\307E\337?\304"
 994      583F38C4 
 994      D7D848DF 
 994      C7C745DF 
 994      3FC4
 995 0114 BDCC1024 		.ascii	"\275\314\020$\023_Z\234\024\237\223\223\242\227\314"
 995      135F5A9C 
 995      149F9393 
 995      A297CC
 996 0123 00001E00 		.ascii	"\000\000\036\000\215O"
 996      8D4F
 997              		.text
 998              		.section	.gnu.lto_usb_lld_set_address.c3dc9563,"",%progbits
 999 0000 789C8552 		.ascii	"x\234\205RMHTQ\024\276\337\273o\336\374\230I\353$\204"
 999      4D485451 
 999      14BEDFBB 
 999      6FDEFC98 
 999      49EB2484 
 1000 0014 1271E3CB 		.ascii	"\022q\343\313Z\025\024.\212\010\214\026\315^\322 \005"
 1000      5A15142E 
 1000      8A088C16 
 1000      CD5ED220 
 1000      05
 1001 0025 61A4B1B6 		.ascii	"a\244\261\266\336\031m\306\311\"\013\265\030\006\031"
 1001      DE196DC6 
 1001      C9220BB5 
ARM GAS  C:\Users\AMANRA~1\AppData\Local\Temp\cck7hb2g.s 			page 81


 1001      180619
 1002 0034 FAA120A2 		.ascii	"\372\241 \242$\313\034\255yM%HY\032\303\320J\320@z\026"
 1002      24CB1CAD 
 1002      794D2548 
 1002      591AC3D0 
 1002      4AD0407A 
 1003 0049 622D6216 		.ascii	"b-b\026\342t\316\233\241,\241\016\357\235{\357\371\371"
 1003      E274CE9B 
 1003      A12CA10E 
 1003      EF9D7BEF 
 1003      F9F9
 1004 005b BE73CEBD 		.ascii	"\276s\316\275\206\020b\277\024\342(\255\333\351\207"
 1004      861062BF 
 1004      14E228AD 
 1004      DBE987
 1005 006a 14D0FADF 		.ascii	"\024\320\372\337\011\021\362h\000o\224\007\242KC\027"
 1005      0911F268 
 1005      006F9407 
 1005      A24B4317 
 1006 007a 2ECA0189 		.ascii	".\312\001\211Lti\\\253\275\243H\254k\003\007\027\324"
 1006      4C74695C 
 1006      ABBDA348 
 1006      AC6B0307 
 1006      17D4
 1007 008c AC9209CA 		.ascii	"\254\222\011\312\037\242\237\005\217PKas=\017\023\262"
 1007      1FA29F05 
 1007      8F504B61 
 1007      733D0F13 
 1007      B2
 1008 009d 8F3C804E 		.ascii	"\217<\200N\307o3\361O[\371\250\241\212\216\366\334H"
 1008      C76F33F1 
 1008      4F5BF9A8 
 1008      A18A8EF6 
 1008      DC48
 1009 00af B6423640 		.ascii	"\266B6@\320\376\363\302\260\277\346\266Rae}\275%\325"
 1009      D0FEF3C2 
 1009      B0BFE6B6 
 1009      5261657D 
 1009      BD25D5
 1010 00c2 AE849478 		.ascii	"\256\204\224x\002Ixx\214J\214\242R\220I`\0145\034~\375"
 1010      02497878 
 1010      8C4A8CA2 
 1010      52904960 
 1010      0C351C7E 
 1011 00d7 CA97984B 		.ascii	"\312\227\230K\036vR\357\365\277\265\365\352\233N\356"
 1011      1E7652EF 
 1011      F5BFB5F5 
 1011      EA9B4EEE 
 1012 00e7 7C5EDE1D 		.ascii	"|^\336\035U*\326\220\220:\236\376\231\317B\341\213#"
 1012      552AD690 
 1012      903A9EFE 
 1012      99CF42E1 
 1012      8B23
 1013 00f9 EB83E586 		.ascii	"\353\203\345\206\216qT\027\313E\012\206\000\255lz\360"
 1013      8E715417 
 1013      CB450A86 
 1013      00AD6C7A 
ARM GAS  C:\Users\AMANRA~1\AppData\Local\Temp\cck7hb2g.s 			page 82


 1013      F0
 1014 010a C165A9F5 		.ascii	"\301e\251\365BTY\271<F\336\374\310\357\334\002bvi\254"
 1014      425459B9 
 1014      3C46DEFC 
 1014      C8EFDC02 
 1014      627669AC 
 1015 011e 24294327 		.ascii	"$)C'\345v\2612\330\346f\345\005\027\346\023\016\250"
 1015      E576B132 
 1015      D8E666E5 
 1015      0517E613 
 1015      0EA8
 1016 0130 E825541A 		.ascii	"\350%T\032\231\262DLj\274\353\266\3042\302)\273/\235"
 1016      99B2444C 
 1016      6ABCEBB6 
 1016      C432C229 
 1016      BB2F9D
 1017 0143 04B3C5A5 		.ascii	"\004\263\305\245\217\012\031:\237y\357\346iH\247\215"
 1017      8F0A193A 
 1017      9F79EFE6 
 1017      6948A78D 
 1018 0153 C9CCCC94 		.ascii	"\311\314\314\224\221\304p\210f\232\\aRO\\z1\301\225"
 1018      91C47088 
 1018      669A5C61 
 1018      524F5C7A 
 1018      31C195
 1019 0166 933B1BFD 		.ascii	"\223;\033\3758_f\336\347\211Wqs\223Hb\320\2316\236\301"
 1019      385F66DE 
 1019      E7895771 
 1019      73934862 
 1019      D099369E 
 1020 017b 144B0827 		.ascii	"\024K\010'o8\340\\\003\021\020c&e_J\217\226\030\261"
 1020      6F38E05C 
 1020      03111063 
 1020      26655F4A 
 1020      8F9618B1 
 1021 018f 9151DFC4 		.ascii	"\221Q\337\304H\230^\312\302\363\022]n,5VNt=!v\371\220"
 1021      48985ECA 
 1021      C2F3125D 
 1021      6E2C3556 
 1021      4E743D21 
 1022 01a6 76E8C074 		.ascii	"v\350\300t\026\321-\243{-2\355.BkE\364\310\325\334\242"
 1022      16D12DA3 
 1022      7B2D32ED 
 1022      2E426B45 
 1022      F4C8D5DC 
 1023 01bb 73D92E5C 		.ascii	"s\331.\\^-\024*\360\202\260\270\357\351\326b\234\334"
 1023      5E2D142A 
 1023      F082B0B8 
 1023      EFE9D662 
 1023      9CDC
 1024 01cd CCF98F16 		.ascii	"\314\371\217\026\313\220q85\346|\351p\206\277GK\335"
 1024      CB907138 
 1024      35E67CE9 
 1024      7086BF47 
 1024      4BDD
 1025 01df E884C645 		.ascii	"\350\204\306E\254FJ\006\027\3316>87t\274*\362\377J\342"
 1025      AC464A06 
ARM GAS  C:\Users\AMANRA~1\AppData\Local\Temp\cck7hb2g.s 			page 83


 1025      17D9363E 
 1025      383774BC 
 1025      2AF2FF4A 
 1026 01f4 304ECA47 		.ascii	"0N\312G\354\262\242\305\355\024o\360\254\262\027l\311"
 1026      ECB2A2C5 
 1026      ED146FF0 
 1026      ACB2176C 
 1026      C9
 1027 0205 C6BF6F62 		.ascii	"\306\277ob\307\177\006\363\372\367`\246`\022\244X\241"
 1027      C77F06F3 
 1027      FAF760A6 
 1027      6012A458 
 1027      A1
 1028 0216 AB9858DB 		.ascii	"\253\230X\333\346<+\226^\362\322#\240>\016\324\325\231"
 1028      E63C2B96 
 1028      5EF2D223 
 1028      A03E0ED4 
 1028      D599
 1029 0228 F4B5B4B6 		.ascii	"\364\265\264\2665\267\005\202\365\373\352w\233\201\240"
 1029      35B70582 
 1029      F5FBEA77 
 1029      9B81A0
 1030 0237 D97AB2DD 		.ascii	"\331z\262\335\354\010\234\351\014\232'\374\307\366\356"
 1030      EC089CE9 
 1030      0C9A27FC 
 1030      C7F6EE
 1031 0246 311B1B0F 		.ascii	"1\033\033\017\231\307\375G\316\325\263\247\351l\260"
 1031      99C7FD47 
 1031      CED5B3A7 
 1031      E96CB0
 1032 0255 B9A9BDFD 		.ascii	"\271\251\275\375T]\213\320i\333\241\007:Ow\374\004\027"
 1032      545D8BD0 
 1032      69DBA107 
 1032      3A4F77FC 
 1032      0417
 1033 0267 341E22   		.ascii	"4\036\""
 1034              		.text
 1035              		.section	.gnu.lto_usb_lld_init_endpoint.c3dc9563,"",%progbits
 1036 0000 789CAD59 		.ascii	"x\234\255YiPTW\026~\347\335^i\272\233UPA1\221\270Dm"
 1036      69505457 
 1036      167EE7DD 
 1036      5E69BA9B 
 1036      55504131 
 1037 0018 4926C92C 		.ascii	"I&\311,\225\251`\315\304,\032\223I\252\346\317T\245"
 1037      95A960CD 
 1037      C42C1A93 
 1037      49AAE6CF 
 1037      54A5
 1038 002a 12472756 		.ascii	"\022G'VY\321\012Njf~\214\217%4\220\030\301\010DB\022"
 1038      59D10A4E 
 1038      6A667E8C 
 1038      8F253490 
 1038      18C10844 
 1039 0040 C4B86082 		.ascii	"\304\270`\202\342.\210\200`p\003\025\203\212\013\032"
 1039      E22E8880 
 1039      60700315 
 1039      838A0B1A 
ARM GAS  C:\Users\AMANRA~1\AppData\Local\Temp\cck7hb2g.s 			page 84


 1040 0050 1325A206 		.ascii	"\023%\242\006\321\270\004\024z\316\271\367\275^\240"
 1040      D1B80414 
 1040      7ACEB9F7 
 1040      BD5EA0
 1041 005f 1B859A2E 		.ascii	"\033\205\232.sx\357\336\263\335s\276{\316\275/\006I"
 1041      7378EFDE 
 1041      B3DD73BE 
 1041      7BCEBD2F 
 1041      0649
 1042 0071 92226325 		.ascii	"\222\"c%)\027\377\206\202$A\244\004r\366aIJ6\311\372"
 1042      2917FF86 
 1042      822441A4 
 1042      0472F661 
 1042      494A36C9 
 1043 0086 B0A37649 		.ascii	"\260\243vI1\0318e\234\3528\325\213\0210\010F\235\366"
 1043      31193865 
 1043      9CEA38D5 
 1043      8B113008 
 1043      469DF6
 1044 0099 A0D71E0C 		.ascii	"\240\327\036\014\262\261\345iI\0112\355\214\222\224"
 1044      B2B1E569 
 1044      490932ED 
 1044      8C9294
 1045 00a8 602398C5 		.ascii	"`#\230\305\260I{0\313A|\336\316\347\203d\213\362\004"
 1045      B0497B30 
 1045      CB417CDE 
 1045      CEE78364 
 1045      8BF204
 1046 00bb BE0567C7 		.ascii	"\276\005g\307\340\233\005\202\005S0X\305\203U\016\337"
 1046      E09B0582 
 1046      05533058 
 1046      C583550E 
 1046      DF
 1047 00cc 5A2B2183 		.ascii	"Z+!\203\355\254\005\031\302\305x\242\015\302\304\274"
 1047      EDAC0519 
 1047      C2C578A2 
 1047      0DC2C4BC 
 1048 00dc 1D42C443 		.ascii	"\035B\304C\210\034!\030C9c\204\030O\014\325\030\303"
 1048      881C2118 
 1048      43396384 
 1048      184F0CD5 
 1048      18C3
 1049 00ee 00E84131 		.ascii	"\000\350A1\201\264Xf:\275\301h2\007Y\202\255\3416{H"
 1049      81B45866 
 1049      3ABDC168 
 1049      32075982 
 1049      ADE1367B 
 1050 0103 4468182C 		.ascii	"Dh\030,fVI\375\205h\017\037\261\345\014j\235m\345\362"
 1050      665649FD 
 1050      85680F1F 
 1050      B1E50C6A 
 1050      9D6DE5F2 
 1051 0117 84B50AFE 		.ascii	"\204\265\012\376j\362\217\376\361\202rTa\205L\222\362"
 1051      6AF28FFE 
 1051      F1827254 
 1051      61854C92 
 1051      F2
ARM GAS  C:\Users\AMANRA~1\AppData\Local\Temp\cck7hb2g.s 			page 85


 1052 0128 9860822D 		.ascii	"\230`\202-0\001\331\232\322\312\012\331\2078\003\240"
 1052      3001D99A 
 1052      D2CA0AD9 
 1052      873803A0 
 1053 0138 C3D71B8D 		.ascii	"\303\327\033\215\005?\332\350U\2068|mo\332\324lg\317"
 1053      053FDAE8 
 1053      5586387C 
 1053      6D6FDAD4 
 1053      6C67CF
 1054 014b 8184CF97 		.ascii	"\201\204\317\227/|\361\306\270\325\212\222\242\324\334"
 1054      2F7CF1C6 
 1054      B8D58A92 
 1054      A2D4DC
 1055 015a FF8A2963 		.ascii	"\377\212)c\013\031\203\355\300P\037l\203\030\330\012"
 1055      0B1983ED 
 1055      C0501F6C 
 1055      8318D80A 
 1056 016a 31120E49 		.ascii	"1\022\016I\260\003\306!\367\005\347\232\3736\366g.y"
 1056      B003C621 
 1056      F705E79A 
 1056      FB36F667 
 1056      2E79
 1057 017c 3EA3F8BA 		.ascii	">\243\370\272U\025\275\226\316\224\340B\246\203\235"
 1057      5515BD96 
 1057      CE94E042 
 1057      A6839D
 1058 018b 42F4C918 		.ascii	"B\364\311\030\230J\202:\011\312a\034q\177\232s5S\317"
 1058      984A823A 
 1058      09CA611C 
 1058      717F9A73 
 1058      3553CF
 1059 019e 5EE0925F 		.ascii	"^\340\222_g7\264\353\342Wq\311\023\335l\335VE\311|\256"
 1059      6737B4EB 
 1059      E25771C9 
 1059      13DD6CDD 
 1059      5645C97C 
 1060 01b3 90E9A1C2 		.ascii	"\220\351\241\302\3270\375\220\335Y\271\272\325\304f"
 1060      D730FD90 
 1060      DD59B9BA 
 1060      D5C466
 1061 01c2 0A779B3F 		.ascii	"\012w\233?\356\261\252\242\207\273Y\211*j\200J\277\242"
 1061      EEB1AAA2 
 1061      87BB5989 
 1061      2A6A804A 
 1061      BFA2
 1062 01d4 355F6F5C 		.ascii	"5_o\\og\257s\321u\371\345\333\203T\321\213+\231\362"
 1062      6F67AF73 
 1062      D175F9E5 
 1062      DB8354D1 
 1062      8B2B99F2 
 1063 01e8 95229360 		.ascii	"\225\"\223`\225_\301\0376\365\346Z\015:\250\206x\330"
 1063      955FC11F 
 1063      36F5E65A 
 1063      0D3AA886 
 1063      78D8
 1064 01fa 8DFFED82 		.ascii	"\215\377\355\202x\021c\250\001\203\204\360\364\231B"
 1064      781163A8 
ARM GAS  C:\Users\AMANRA~1\AppData\Local\Temp\cck7hb2g.s 			page 86


 1064      018384F0 
 1064      F49942
 1065 0209 81ECB35D 		.ascii	"\201\354\263]\225\026\366Wn)K\251.\003\325\322\351\337"
 1065      9516F657 
 1065      6E294BA9 
 1065      2E03D5D2 
 1065      E9DF
 1066 021b 17283569 		.ascii	"\027(5iqdiO\177KP\013\361\033\217\351k\224^\227S\251"
 1066      7164694F 
 1066      7F4B500B 
 1066      F11B8FE9 
 1066      6B945E97 
 1067 0231 A9EF869C 		.ascii	"\251\357\206\234#\275\031\361\250\245\220\031e$&\206"
 1067      23BD19F1 
 1067      A8A59019 
 1067      65242686 
 1068 0241 C4AC23A2 		.ascii	"\304\254#\242G\022d@b1\322\253\211\210\231H\0201[\220"
 1068      47126440 
 1068      6231D2AB 
 1068      89889948 
 1068      10315B90 
 1069 0255 0407D3AB 		.ascii	"\004\007\323\253\225\210\215\210\235H\010\315\206\322"
 1069      95888D88 
 1069      9D4808CD 
 1069      86D2
 1070 0263 6C189170 		.ascii	"l\030\221p\032\213 \315\221H\254\303H_\024\221h\"\303"
 1070      1A8B20CD 
 1070      9148ACC3 
 1070      485F1491 
 1070      6822C3
 1071 0276 69760491 		.ascii	"iv\004\221\221$F\0314\307\022\031E\257\243\351)\216"
 1071      91244619 
 1071      34C71219 
 1071      45AFA3E9 
 1071      298E
 1072 0288 C81852F0 		.ascii	"\310\030R\360\010I<J\257c\211\304\023y\214l\214\243"
 1072      08493C4A 
 1072      AF6389C4 
 1072      13798C6C 
 1072      8CA3
 1073 029a A7F12431 		.ascii	"\247\361$1\201\236&\022y\234\310$\"\223\211e\012\021"
 1073      819E2612 
 1073      799CC824 
 1073      22938965 
 1073      0A11
 1074 02ac 07BD4E95 		.ascii	"\007\275N\225(\220\011\022\205\362) \230=-QH\237\001"
 1074      28900912 
 1074      85F22920 
 1074      983D2D51 
 1074      489F01
 1075 02bf 424E221F 		.ascii	"BN\"\037\237\306\351\363\310\256\237N\344\005\022|\221"
 1075      9FC6E9F3 
 1075      C8AE9F4E 
 1075      E405127C 
 1075      91
 1076 02d0 C84B445E 		.ascii	"\310KD^&2\203\307r&=\276Bd\026\221W\211\274FD\22220"
 1076      263283C7 
ARM GAS  C:\Users\AMANRA~1\AppData\Local\Temp\cck7hb2g.s 			page 87


 1076      72263DBE 
 1076      42641691 
 1076      5789BC46 
 1077 02e8 7B772394 		.ascii	"{w#\224\032)\223\311\370\220Z#]\201\224\212\366\365"
 1077      1A2993C9 
 1077      F8905A23 
 1077      5D81948A 
 1077      F6F5
 1078 02fa D5454039 		.ascii	"\325E@9-`Oc\346\362>\250=b\244\215\302x\"+k\033\353"
 1078      2D604F63 
 1078      E6F23EA8 
 1078      3D62A48D 
 1078      C278222B 
 1079 0311 0D45F045 		.ascii	"\015E\360E2n\267\242\016\312\212\255\200=\005u\224="
 1079      326EB7A2 
 1079      0ECA8AAD 
 1079      803D0575 
 1079      943D
 1080 0323 9C6E76B6 		.ascii	"\234nv\266\234\2638Ji3\306\021|\367B\021\344\362\215"
 1080      9CB3384A 
 1080      6933C611 
 1080      7CF74211 
 1080      E4F28D
 1081 0336 08DF8243 		.ascii	"\010\337\202Cj\203\224\242b\256\234\026\204\006\310"
 1081      6A8394A2 
 1081      62AE9C16 
 1081      8406C8
 1082 0345 E24D67EB 		.ascii	"\342Mg\353m\3470a\021\012\33034Ve\026\357r_\223\377"
 1082      6DE73061 
 1082      110AD833 
 1082      34566516 
 1082      EF725F93 
 1083 035a 1DD8A21D 		.ascii	"\035\330\242\035\352\271E\020\230\255\277~\341\220."
 1083      EAB94510 
 1083      98ADBF7E 
 1083      E1902E
 1084 0369 61234D16 		.ascii	"a#M\026m\006\314\020\354\003G\001\237\225`?$\360\005"
 1084      6D06CC10 
 1084      EC034701 
 1084      9F95603F 
 1084      24F005
 1085 037c 1FF8ADB0 		.ascii	"\037\370\255\260\305\274Wk\352\267Z\324\036\202\016"
 1085      C5BC576B 
 1085      EAB75AD4 
 1085      1E820E
 1086 038b C101D5F0 		.ascii	"\301\001\325\360\215\017\227\265\000\032\316\346S\241"
 1086      8D0F97B5 
 1086      001ACEE6 
 1086      53A1
 1087 0399 70901B96 		.ascii	"p\220\033\226I\363!\\\352\025H\275\237^\242.C'\264\327"
 1087      49F3215C 
 1087      EA1548BD 
 1087      9F5EA22E 
 1087      4327B4D7 
 1088 03ad DE2C5B1B 		.ascii	"\336,[\033L\332\315\300\240\001\365\264Cz\221Me\301"
 1088      4CDACDC0 
 1088      A001F5B4 
ARM GAS  C:\Users\AMANRA~1\AppData\Local\Temp\cck7hb2g.s 			page 88


 1088      437A914D 
 1088      65C1
 1089 03bf F9D2EFBE 		.ascii	"\371\322\357\276\354\200e\220\235\234\206\376\226\364"
 1089      EC806590 
 1089      9D9C86FE 
 1089      96F4
 1090 03cd 02953129 		.ascii	"\002\2251)_\204\257\021'\220e\343\265\362.\253PAN\034"
 1090      5F84AF11 
 1090      279065E3 
 1090      B5F22EAB 
 1090      50414E1C 
 1091 03e1 5FB6A9CA 		.ascii	"_\266\251\312\252I\224\367\220\004\034F\305\371|\215"
 1091      AA4994F7 
 1091      90041C46 
 1091      C5F97C8D 
 1092 03f1 7044086D 		.ascii	"pD\010m\335\273/\335$\204\350\265>\365~\223E\023\272"
 1092      DDBB2FDD 
 1092      2484E8B5 
 1092      3EF57E93 
 1092      4513BA
 1093 0404 24848E72 		.ascii	"$\204\216r!\356}\223\020\372\326u\267\306.\204(\013"
 1093      21EE7D93 
 1093      10FAD675 
 1093      B7C62E84 
 1093      280B
 1094 0416 A7DA2FB7 		.ascii	"\247\332/\267\3534\241\033B\350\030\027\3425\340;!\264"
 1094      EB34A11B 
 1094      42E81817 
 1094      E235E03B 
 1094      21B4
 1095 0428 FD5EE32E 		.ascii	"\375^\343.\233\306\325#\270\0328\227\216\270\232\221"
 1095      9BC6D523 
 1095      B81A3897 
 1095      8EB89A91 
 1096 0438 0BFF66A2 		.ascii	"\013\377f\242\314\247:\304\333eH&\007(\002d\234\340"
 1096      CCA73AC4 
 1096      DB654826 
 1096      07280264 
 1096      9CE0
 1097 044a 71B52787 		.ascii	"q\265'\207q\200T\363\"\222u\346d\252\201\2740\200\242"
 1097      718054F3 
 1097      229275E6 
 1097      64AA81BC 
 1097      3080A2
 1098 045d 2C53008E 		.ascii	",S\000\216\363:\221\211\372\334\032~\351I\020\032\030"
 1098      F33A9189 
 1098      FADC1A7E 
 1098      E949101A 
 1098      18
 1099 046e D770D757 		.ascii	"\327p\327WC\347\372\013\333dMC1j8\241j\320{4\2704\015"
 1099      43E7FA0B 
 1099      DB644D43 
 1099      316A38A1 
 1099      6AD07B34 
 1100 0485 3AAE6155 		.ascii	":\256aU\257\217\206\336\262\374\262 M\303f\324pR\325"
 1100      AF8F86DE 
 1100      B2FCB220 
ARM GAS  C:\Users\AMANRA~1\AppData\Local\Temp\cck7hb2g.s 			page 89


 1100      4DC366D4 
 1100      7052D5
 1101 0498 6090CE87 		.ascii	"`\220\316\207p\015\300\003\336\0062\337\272\005l*\246"
 1101      700DC003 
 1101      DE0632DF 
 1101      BA056C2A 
 1101      A6
 1102 04a9 BFF6D6E5 		.ascii	"\277\366\326\345#\325\027\371\332\274\201\245\357\277"
 1102      23D517F9 
 1102      DABC81A5 
 1102      EFBF
 1103 04b7 8D4615B2 		.ascii	"\215F\025\2620\334\013\320\342\027\322\341p\212#\213"
 1103      30DC0BD0 
 1103      E217D2E1 
 1103      708A238B 
 1104 04c7 F587F4BB 		.ascii	"\365\207\364\273\205,\002N\273\021\215\263\207V\235"
 1104      852C024E 
 1104      BB118DB3 
 1104      87569D
 1105 04d6 FCC686A2 		.ascii	"\374\306\206\242i\311\270U\012Y$\234\201\204\\\021\373"
 1105      69C9B855 
 1105      0A59249C 
 1105      81845C11 
 1105      FB
 1106 04e7 B3E0F0F6 		.ascii	"\263\340\360\366#\022$hE\203|\313\267`u\0260\324\017"
 1106      23122468 
 1106      45837CCB 
 1106      B7607516 
 1106      30D40F
 1107 04fa 0AF5C3E0 		.ascii	"\012\365\303\340\034\367MO\006\316#\352/A\332\231\272"
 1107      1CF74D4F 
 1107      06CE23EA 
 1107      2F41DA99 
 1107      BA
 1108 050b DF7854B9 		.ascii	"\337xT\271\315\015Cs\337\213\022\177\007\246R\367\273"
 1108      CD0D4373 
 1108      DF8B127F 
 1108      07A652F7 
 1108      BB
 1109 051c B7779116 		.ascii	"\267w\221\026\323\024\214\351\005\210\221\273\257.\035"
 1109      D3148CE9 
 1109      058891BB 
 1109      AF2E1D
 1110 052b 4E096607 		.ascii	"N\011f\007;\354\224&\335\372\353v\012\266>\353\246\035"
 1110      3BEC9426 
 1110      DDFAEB76 
 1110      0AB63EEB 
 1110      A61D
 1111 053d C36D94CE 		.ascii	"\303m\224\316Z\264\"u\252z\235,\314\030\006\345q\024"
 1111      5AB42275 
 1111      AA7A9D2C 
 1111      CC1806E5 
 1111      7114
 1112 054f FCC03D36 		.ascii	"\374\300=6\220\307?\362}\212\005H]\274\021\265\321\306"
 1112      90C73FF2 
 1112      7D8A0548 
 1112      5DBC11B5 
ARM GAS  C:\Users\AMANRA~1\AppData\Local\Temp\cck7hb2g.s 			page 90


 1112      D1C6
 1113 0561 FD353D53 		.ascii	"\3755=S\335\270&>\310\323\331\234UbT\223\351\223\275"
 1113      DDB8263E 
 1113      C8D3D99C 
 1113      55625493 
 1113      E993BD
 1114 0574 B9D203D2 		.ascii	"\271\322\003\322w1P\372\336\247\364]\012\224\2765@I"
 1114      773150FA 
 1114      DEA7F45D 
 1114      0A94BE35 
 1114      4049
 1115 0586 6AA3FC19 		.ascii	"j\243\374\031\311\331\237\210\321D\236T\264\237v\347"
 1115      C9D99F88 
 1115      D1449E54 
 1115      B49F76E7 
 1116 0596 CBDC7FF5 		.ascii	"\313\334\177\365>\316\234\330Q\261\303J\032\271\266"
 1116      3ECE9CD8 
 1116      51B1C34A 
 1116      1AB9B6
 1117 05a5 CBDC1513 		.ascii	"\313\334\025\023\251k\0275*/\275K/4\005\241\033(p\254"
 1117      A96B1735 
 1117      2A2FBD4B 
 1117      2F3405A1 
 1117      1B2870AC 
 1118 05b9 B3E1730B 		.ascii	"\263\341s\013%\306\010!p\205\003$\2653]\265f\361.&\301"
 1118      25C60821 
 1118      70850324 
 1118      B5335DB5 
 1118      66F12E26 
 1119 05ce 00701562 		.ascii	"\000p\025bPR\304\354\200\252(\030\275BV\0213\360\023"
 1119      5052C4EC 
 1119      80AA2818 
 1119      BD425611 
 1119      33F013
 1120 05e1 B2817DBC 		.ascii	"\262\201}\274\346\361\361gZr0\337j&)U\317s\217\253o"
 1120      E6F1F167 
 1120      5A7230DF 
 1120      6A262955 
 1120      CF738FAB 
 1121 05f6 ADBEACFA 		.ascii	"\255\276\254\372c}\200f\221\212\311\224\205\216\376"
 1121      637D8066 
 1121      918AC994 
 1121      858EFE
 1122 0605 597050FC 		.ascii	"YpP\374\257\373\215?\367\244\323\035\373\033ZAW\355"
 1122      AFFB8D3F 
 1122      F7A4D31D 
 1122      FB1B5A41 
 1122      57ED
 1123 0617 DA84E994 		.ascii	"\332\204\351\224\252\237\312\325\272\352r\365\270\354"
 1123      AA9FCAD5 
 1123      BAEA72F5 
 1123      B8EC
 1124 0625 7093C7EB 		.ascii	"p\223\307\353!\227\355\345\334/\001\234\273\025\330"
 1124      2197EDE5 
 1124      DC2F019C 
 1124      BB15D8
 1125 0634 B9DB6EE7 		.ascii	"\271\333n\347\356\020\223M\204\346\234\033\030\366A"
ARM GAS  C:\Users\AMANRA~1\AppData\Local\Temp\cck7hb2g.s 			page 91


 1125      EE10934D 
 1125      84E69C1B 
 1125      18F641
 1126 0643 05FDAE27 		.ascii	"\005\375\256'\350\277j\300\3104\012M\270\233\240\037"
 1126      E8BF6AC0 
 1126      C8340A4D 
 1126      B89BA01F 
 1127 0653 124245EA 		.ascii	"\022BE\352Ch\377\364\2721\204\026BE\24040\204\243'8"
 1127      4368FFF4 
 1127      BA318416 
 1127      4245A034 
 1127      3084A327 
 1128 0668 3E543074 		.ascii	">T0ty\374\352\246e\206s0\230E\335\3455\366\212\247\306"
 1128      79FCEAA6 
 1128      65867330 
 1128      9845DDE5 
 1128      35F68AA7 
 1129 067d 0EA2A846 		.ascii	"\016\242\250F\303=\256\331\354\267\250\016\207\373\003"
 1129      C33DAED9 
 1129      ECB7A80E 
 1129      87FB03
 1130 068c 16D51E8A 		.ascii	"\026\325\036\212}\0209\325\013\016\255\212V\265_u\037"
 1130      7D1039D5 
 1130      0B0EAD8A 
 1130      56B55F75 
 1130      1F
 1131 069d 9C22FA7A 		.ascii	"\234\"\372z\363\356\203\216-\256@\307\226b~lQd\367\261"
 1131      F3EE838E 
 1131      2DAE40C7 
 1131      96627E6C 
 1131      5164F7B1 
 1132 06b1 2559568F 		.ascii	"%YV\217-\223\204\255H\277\365/\"@\375\033\001)2Y\262"
 1132      2D9384AD 
 1132      48BFF52F 
 1132      2240FD1B 
 1132      01293259 
 1133 06c6 90AA54D9 		.ascii	"\220\252T\331\267bGzW\354\021X\261\323dq(\317\304\325"
 1133      B762477A 
 1133      57EC1158 
 1133      B1D36471 
 1133      28CFC4D5 
 1134 06da 7A6AEFCF 		.ascii	"zj\357\317\356\3757lP\266\243\340\003n\233v4\244\313"
 1134      EEFD376C 
 1134      50B6A3E0 
 1134      036E9B76 
 1134      34A4CB
 1135 06ed 1C6665E9 		.ascii	"\034fe\351]j\251\215\022\352\334\3674\013\350\300)\307"
 1135      5D6AA98D 
 1135      12EADCF7 
 1135      340BE8C0 
 1135      29C7
 1136 06ff 88025DCE 		.ascii	"\210\002]\316\004S\"\362Q\213\216\343\355y7\365\332"
 1136      045322F2 
 1136      518B8EE3 
 1136      ED7937F5 
 1136      DA
 1137 0710 44E15447 		.ascii	"D\341TG\365N\325\251\350A:\225\301\235\242\333%d\212"
ARM GAS  C:\Users\AMANRA~1\AppData\Local\Temp\cck7hb2g.s 			page 92


 1137      F54ED5A9 
 1137      E8413A95 
 1137      C19DA2DB 
 1137      25648A
 1138 0723 80B4D4ED 		.ascii	"\200\264\324\355\365\322\265\315\331\260\211\267\377"
 1138      F5D2B5CD 
 1138      D9B089B7 
 1138      FF
 1139 0730 282C7859 		.ascii	"(,xY\356\210X\244\032\243\210\310MgO\317\276QB`8\312"
 1139      EE8858A4 
 1139      1AA388C8 
 1139      4D674FCF 
 1139      BE514260 
 1140 0746 D0BA0AD2 		.ascii	"\320\272\012\322O\251.O\343\203\211}\274\236\306u\004"
 1140      4FA92E4F 
 1140      E383897D 
 1140      BC9EC675 
 1140      04
 1141 0757 8BA8F283 		.ascii	"\213\250\362\203\003\037N\020\233l\211K\3237\002\307"
 1141      031F4E10 
 1141      9B6C894B 
 1141      D33702C7 
 1142 0767 F8E6A373 		.ascii	"\370\346\243s\311%\227\006\365\345m\031\267\355\023"
 1142      C9259706 
 1142      F5E56D19 
 1142      B7ED13
 1143 0776 D7F14BEF 		.ascii	"\327\361K\357\235J\375\312T\332.\352\205W\202\017\345"
 1143      9D4AFDCA 
 1143      54DA2EEA 
 1143      8557820F 
 1143      E5
 1144 0787 8988352E 		.ascii	"\211\2105.\362\223\253I\353Z\305\311\307\017Y\331\337"
 1144      F293AB49 
 1144      EB5AC5C9 
 1144      C70F59D9 
 1144      DF
 1145 0798 C47DF3CB 		.ascii	"\304}\363\313\344\022\355\346W\337\315\326\244*\373"
 1145      E412EDE6 
 1145      57DFCDD6 
 1145      A42AFB
 1146 07a7 155D211B 		.ascii	"\025]!\033\011\037\311\375odKd\356\031yI\227\334mk:"
 1146      091FC9FD 
 1146      6F644B64 
 1146      EE197949 
 1146      97DC6D6B 
 1147 07bc CDDA55B5 		.ascii	"\315\332U\265\"\254X\025\355wG\346\242\037\313\361\344"
 1147      22AC5815 
 1147      ED7747E6 
 1147      A21FCBF1 
 1147      E4
 1148 07cd 8D4851   		.ascii	"\215HQ"
 1149 07d0 A9D3E0BE 		.ascii	"\251\323\340\276G\246q\327\017\273\330\263\234\007M"
 1149      47A671D7 
 1149      0FBBD8B3 
 1149      9C074D
 1150 07df F07B649E 		.ascii	"\360{d\236\270ehwM\274\277H\260T6@\266\214WL$\005l\006"
 1150      B8656877 
ARM GAS  C:\Users\AMANRA~1\AppData\Local\Temp\cck7hb2g.s 			page 93


 1150      4DBCBF48 
 1150      B0543640 
 1150      B68C574C 
 1151 07f7 4E1FCC75 		.ascii	"N\037\314u\355\320SFb\340,\261W\334Z{^\207\331\306\030"
 1151      EDD05346 
 1151      62E02CB1 
 1151      57DC5A7B 
 1151      5E87D9C6 
 1152 080c 186893E5 		.ascii	"\030h\223\345P\222`\031\346\225\307`\307\347\321$K\332"
 1152      50926019 
 1152      E695C760 
 1152      C7E7D124 
 1152      4BDA
 1153 081e 505E14B7 		.ascii	"P^\024\267\237o\343^\345\012g\342\332\304p\012U(\034"
 1153      9F6FE35E 
 1153      E50A67E2 
 1153      DAC4700A 
 1153      55281C
 1154 0831 0BA8F113 		.ascii	"\013\250\361\023\324\210\002>\201\345\256{\222K\036"
 1154      D488023E 
 1154      81E5AE7B 
 1154      924B1E
 1155 0840 0B0B4B5C 		.ascii	"\013\013K\\\316(\221\303\221T@'\307\210.y\312*\006c"
 1155      CE2891C3 
 1155      91544027 
 1155      C7882E79 
 1155      CA2A0663 
 1156 0854 786E6788 		.ascii	"xng\210\302X\376p'\013wmL&\344\306\302r\216\\\233(\032"
 1156      C258FE70 
 1156      270B776D 
 1156      4C26E4C6 
 1156      C2728E5C 
 1157 086b 5DB756E7 		.ascii	"]\267V\347R\321\240*\265\236\027\317\\*\032#y\036\362"
 1157      52D1A02A 
 1157      B59E17CF 
 1157      5C2A1A23 
 1157      791EF2
 1158 087e 645CA3BA 		.ascii	"d\\\243\272\227J]\373\324\243S\254z\333\272\037$\025"
 1158      974A5DFB 
 1158      D4A353AC 
 1158      7ADBBA1F 
 1158      2415
 1159 0890 B0E75147 		.ascii	"\260\347QG\367\226\015\355\374\2022\012\232Ig\351\346"
 1159      F7960DED 
 1159      FC82320A 
 1159      9A4967E9 
 1159      E6
 1160 08a1 1595C122 		.ascii	"\025\225\301\"\014z\012C>\017\303\247j`\343\036\012"
 1160      0C7A0A43 
 1160      3E0FC3A7 
 1160      6A60E31E 
 1160      0A
 1161 08b2 8C2B3C60 		.ascii	"\214+<`\274\352zM\025\271\275\345\307\265z\366\026O"
 1161      BCEA7A4D 
 1161      15B9BDE5 
 1161      C7B57AF6 
 1161      164F
ARM GAS  C:\Users\AMANRA~1\AppData\Local\Temp\cck7hb2g.s 			page 94


 1162 08c4 F6E9EF73 		.ascii	"\366\351\357s\216\261\376X4@\201\037,~FX\214\365\207"
 1162      8EB1FE58 
 1162      3440811F 
 1162      2C7E4658 
 1162      8CF587
 1163 08d7 C5B60D23 		.ascii	"\305\266\015#V\016\210\305B\304\031:# \221?\276\017"
 1163      560E88C5 
 1163      42C4193A 
 1163      2320913F 
 1163      BE0F
 1164 08e9 144FB8F0 		.ascii	"\024O\270\360hN,\237\271\241(\367\3752\323\261!D\203"
 1164      684E2C9F 
 1164      B9A128F7 
 1164      FD32D3B1 
 1164      214483
 1165 08fc 7BA02F33 		.ascii	"{\240/3\032r\277 -\237#\350\276$\344\"\241\021\014\262"
 1165      1A72BF20 
 1165      2D9F23E8 
 1165      BE24E422 
 1165      A1110CB2 
 1166 0910 D8DF3DAD 		.ascii	"\330\337=\255\337\000\015\026\260\027p5(v\361^i\205"
 1166      DF000D16 
 1166      B0177035 
 1166      2876F15E 
 1166      6985
 1167 0922 4D9CBA0C 		.ascii	"M\234\272\014P$\253X\311\264\010\246\027\221\317\373"
 1167      5024AB58 
 1167      C9B408A6 
 1167      1791CFFB 
 1168 0932 9B9519E2 		.ascii	"\233\225\031\342`\245\254\0365V\350\211\311\013;\300"
 1168      60A5AC1E 
 1168      3556E889 
 1168      C90B3BC0 
 1169 0942 51F3BC3F 		.ascii	"Q\363\274?\324PW\214\204b\016\033;\367O\202U\204\222"
 1169      D450578C 
 1169      84620E1B 
 1169      3BF74F82 
 1169      558492
 1170 0955 17E9588E 		.ascii	"\027\351X\216\020I\014\252\270\267\024\361:\315\322"
 1170      10490CAA 
 1170      B8B714F1 
 1170      3ACDD2
 1171 0964 7D6F692C 		.ascii	"}oi,V(\253\224}X\322\016^\277^2\012\207^z8sqd\355+\037"
 1171      5628AB94 
 1171      7D58D20E 
 1171      5EBF5E32 
 1171      0A875E7A 
 1172 097f 6BAB65F5 		.ascii	"k\253e\365$\265BU\3652j\343\213\341\215\250A\015\313"
 1172      24B54255 
 1172      F5326AE3 
 1172      8BE18DA8 
 1172      410DCB
 1173 0992 CBFC164B 		.ascii	"\313\374\026K\277\014\354\371[k\2614#\316\335\305\222"
 1173      BF0CECF9 
 1173      5B6BB134 
 1173      23CEDDC5 
 1173      92
ARM GAS  C:\Users\AMANRA~1\AppData\Local\Temp\cck7hb2g.s 			page 95


 1174 09a3 E09EBBE7 		.ascii	"\340\236\273\347$\260\271\034A\033V\255+1\366\207\301"
 1174      24B0B91C 
 1174      411B56AD 
 1174      2B31F687 
 1174      C1
 1175 09b4 6858E307 		.ascii	"hX\343\007Ake\272\323\3456\356n\341mf4\204\301:4\177"
 1175      416B65BA 
 1175      D3E536EE 
 1175      6EE16D66 
 1175      3484C13A 
 1176 09ca 0DD2BEBF 		.ascii	"\015\322\276\277\373qU[t\037\\|r\307B\"<\207y\210jO"
 1176      FB71555B 
 1176      741F5C7C 
 1176      72C74222 
 1176      3C877988 
 1177 09e0 8E2528C1 		.ascii	"\216%(\301\264\256\247U\021\301\211\362\362kg\214\213"
 1177      B4AEA755 
 1177      11C189F2 
 1177      F26B678C 
 1177      8B
 1178 09f1 7B145321 		.ascii	"{\024S!\213\313c:\232\227\340ky\261D\026\012\331\030"
 1178      8BCB633A 
 1178      9A97E06B 
 1178      79B14416 
 1178      0AD918
 1179 0a04 B169080C 		.ascii	"\261i\010\014k\325\242\241m\011\216:O\025!\364\010\244"
 1179      6BD5A2A1 
 1179      6D098E3A 
 1179      4F1521F4 
 1179      08A4
 1180 0a16 B4BA9C6A 		.ascii	"\264\272\234j'\030%\316\347\267\273\262:\314\002)\303"
 1180      271825CE 
 1180      E7B7BBB2 
 1180      3ACC0229 
 1180      C3
 1181 0a27 E01BAD3F 		.ascii	"\340\033\255?\252\355j4\262\011\3504\272\234c\305X\034"
 1181      AAED6A34 
 1181      B209E834 
 1181      BA9C63C5 
 1181      581C
 1182 0a39 1F9E2A8E 		.ascii	"\037\236*\216(\275\325\235*\353\230\376]r\300\003J\251"
 1182      28BDD59D 
 1182      2AEB98FE 
 1182      5D72C003 
 1182      4AA9
 1183 0a4b ECFF8012 		.ascii	"\354\377\200\022G\307\223\015\236\343\311F\365x\242"
 1183      47C7930D 
 1183      9EE3C946 
 1183      F578A2
 1184 0a5a 76F547FC 		.ascii	"v\365G\3746\3431\001\233q\231\347\204\260I\366\275\235"
 1184      36E33101 
 1184      9B7199E7 
 1184      84B049F6 
 1184      BD9D
 1185 0a6c 3D8ADAC4 		.ascii	"=\212\332\304\342Z]\373\034bl,_\337\243b'\340\232c\207"
 1185      E25A5DFB 
 1185      1C626C2C 
ARM GAS  C:\Users\AMANRA~1\AppData\Local\Temp\cck7hb2g.s 			page 96


 1185      5FDFA362 
 1185      27E09A63 
 1186 0a81 70438B86 		.ascii	"pC\213\206\315r\200\263\340\373t\026\334\"\017xC\333"
 1186      CD7280B3 
 1186      E0FB7416 
 1186      DC220F78 
 1186      43DB
 1187 0a93 2AE36190 		.ascii	"*\343a\220>I\3036b\034+\266\212\313}\020\217\037\324"
 1187      3E49C336 
 1187      621C2BB6 
 1187      8ACB7D10 
 1187      8F1FD4
 1188 0aa6 8177BBEC 		.ascii	"\201w\273\354>\360\356\020[\245\323}\272~L\234\271\301"
 1188      3EF0EE10 
 1188      5BA5D37D 
 1188      BA7E4C9C 
 1188      B9C1
 1189 0ab8 F7BA350E 		.ascii	"\367\2725\016M\340\334PO\330;=\006\313\311\377q\374"
 1189      4DE0DC50 
 1189      4FD83B3D 
 1189      06CBC9FF 
 1189      71FC
 1190 0aca 6062D7AE 		.ascii	"`b\327\256[\330\310Js\262\324F6\336\335\310jo\355\377"
 1190      5BD8C84A 
 1190      73B2D446 
 1190      36DEDDC8 
 1190      6A6FEDFF 
 1191 0ade C3905A56 		.ascii	"\303\220ZV\305\300-k\027\2710\236\003\251RN\240\362"
 1191      C5C02D6B 
 1191      17B9309E 
 1191      03A9524E 
 1191      A0F2
 1192 0af0 5BBFFD9C 		.ascii	"[\277\375\234]|\257P2\224\020\330\255!~w\316A\265\213"
 1192      5D7CAF50 
 1192      329410D8 
 1192      AD217E77 
 1192      CE41B58B 
 1193 0b04 4DF0EE62 		.ascii	"M\360\356b\323\003v\255*\357\256\345\325\225\264.6\250"
 1193      D30376AD 
 1193      2AEFAEE5 
 1193      D595B42E 
 1193      36A8
 1194 0b16 36544DC5 		.ascii	"6TM\305|\302\220\332P\315\200m\350\\\206^\317Y\252\377"
 1194      7CC290DA 
 1194      50CD806D 
 1194      E85C865E 
 1194      CF59AAFF 
 1195 0b2a 2F6DA896 		.ascii	"/m\250\226\264\354\301\202SG\245\250\216\016A\344\371"
 1195      B4ECC182 
 1195      5347A5A8 
 1195      8E0E41E4 
 1195      F9
 1196 0b3b 74AF3654 		.ascii	"t\2576TG\365\366\025\\\215O\337\341\243\263p\302\247"
 1196      47F5F615 
 1196      5C8D4FDF 
 1196      E1A3B370 
 1196      C2A7
ARM GAS  C:\Users\AMANRA~1\AppData\Local\Temp\cck7hb2g.s 			page 97


 1197 0b4d D1D4F969 		.ascii	"\321\324\371i4\323\0037\232\275Z\351\337C\326\277\245"
 1197      34D30337 
 1197      9ABD5AE9 
 1197      DF43D6BF 
 1197      A5
 1198 0b5e DCCEE2F0 		.ascii	"\334\316\342\360\012\221\252\306x7\025n\355\325\207"
 1198      0A91AAC6 
 1198      7837156E 
 1198      EDD587
 1199 0b6d 53CD9B4A 		.ascii	"S\315\233J\275\217\346}^M\205\253z\015\265\3714\025"
 1199      BD8FE67D 
 1199      5E4D85AB 
 1199      7A0DB5F9 
 1199      3415
 1200 0b7f 31EAD554 		.ascii	"1\352\325T\"\244]1\330SB\005\316\325<\016\252\217\354"
 1200      22A45D31 
 1200      D8534205 
 1200      CED53C0E 
 1200      AA8FEC
 1201 0b92 C7243DA8 		.ascii	"\307$=\250q\354\247\360\327\365o\034\0070\021\007\311"
 1201      71ECA7F0 
 1201      D7F56F1C 
 1201      07301107 
 1201      C9
 1202 0ba3 F383FE1B 		.ascii	"\363\203\376\033\307\001\232;\324\267qP\372\366k\215"
 1202      C7019A3B 
 1202      D4B77150 
 1202      FAF66B8D 
 1203 0bb3 63E3DEBF 		.ascii	"c\343\336\277\210O\224\276\307O\32180\254\0375i\227"
 1203      884F94BE 
 1203      C74FD138 
 1203      30AC1F35 
 1203      6997
 1204 0bc5 B4890FFB 		.ascii	"\264\211\017\373\035\"\032\032\372\027B\007\225\300"
 1204      1D221A1A 
 1204      FA174207 
 1204      95C0
 1205 0bd3 46BF2590 		.ascii	"F\277%\220\357\330\303\356\362wD\366\375H\3628\232\036"
 1205      EFD8C3EE 
 1205      F27744F6 
 1205      FD48F238 
 1205      9A1E
 1206 0be5 E2179168 		.ascii	"\342\027\221h8\032\300\223\246\300\236\034s{\362\035"
 1206      381AC093 
 1206      A6C09E1C 
 1206      737BF21D 
 1207 0bf5 313D2EE2 		.ascii	"1=.\342\260\244I+\304\223\006U\027\233=u\361\270V\210"
 1207      B0A4492B 
 1207      C4930655 
 1207      179B3D75 
 1207      F1B85688 
 1208 0c09 B52F2293 		.ascii	"\265/\"\223=\205\330\353\343\307\024\234\360\375\370"
 1208      3D85D8EB 
 1208      E3C7149C 
 1208      F0FDF8
 1209 0c18 815E4CC2 		.ascii	"\201^L\302\361\241\226\346\023\036\027N\322\212\034"
 1209      F1A196E6 
ARM GAS  C:\Users\AMANRA~1\AppData\Local\Temp\cck7hb2g.s 			page 98


 1209      131E174E 
 1209      D28A1C
 1210 0c27 7CEF8489 		.ascii	"|\357\204\211\377U#>:KR\007\310\222\212i\300\031|yv"
 1210      FF55233E 
 1210      3A4B5207 
 1210      C8928A69 
 1210      C0197C79 
 1211 0c3c CA1407FE 		.ascii	"\312\024\007\376\233\375\316\274\267\347-HJ\370]\302"
 1211      9BFDCEBC 
 1211      B7E72D48 
 1211      4AF85DC2 
 1212 0c4c 54C78224 		.ascii	"T\307\202$\307;o\315w,\\\360\336\242$\307\353o\314|"
 1212      C73B6FCD 
 1212      772C5CF0 
 1212      DEA224C7 
 1212      EB6FCC7C 
 1213 0c60 F209C78C 		.ascii	"\362\011\307\214\031\177r\314zc\372\373\0114\363\346"
 1213      197F72CC 
 1213      7A63FAFB 
 1213      0934F3E6 
 1214 0c70 3F93DE7E 		.ascii	"?\223\336~s\376\374\277O\231-\351\360q\241<g\241n\301"
 1214      73FEFCBF 
 1214      4F992DE9 
 1214      F071A13C 
 1214      67A16EC1 
 1215 0c84 A27F2CD4 		.ascii	"\242\177,\324\317M\232\367\2379l\366\242\371\272w\347"
 1215      CF4D9AF7 
 1215      9F396CF6 
 1215      A2F9BA77 
 1215      E7
 1216 0c95 FC6B918E 		.ascii	"\374k\221\216\336ts\347\315]`\230\375\357\331\363\347"
 1216      DE7473E7 
 1216      CD5D6098 
 1216      FDEFD9F3 
 1216      E7
 1217 0ca6 248D0F68 		.ascii	"$\215\017hjA\022\222\367\026\361\277S\336\221\376\007"
 1217      6A411292 
 1217      F716F1BF 
 1217      53DE91FE 
 1217      07
 1218 0cb7 0AEA8992 		.ascii	"\012\352\211\222"
 1219              		.text
 1220              		.section	.gnu.lto_usb_lld_disable_endpoints.c3dc9563,"",%progbits
 1221 0000 789C9D96 		.ascii	"x\234\235\226]L\\E\024\307\347\334\271\263\273|S|1\225"
 1221      5D4C5C45 
 1221      14C7E7DC 
 1221      B9B3BB7C 
 1221      537C3195 
 1222 0014 186224B5 		.ascii	"\030b$\265}\340\272\365\311\007\023\0374\215i\215&\362"
 1222      7DE0BAF5 
 1222      C907131F 
 1222      348D698D 
 1222      26F2
 1223 0026 DED81A2D 		.ascii	"\336\330\032-\011\011Dj_{\201\225O\033\261\351\242n"
 1223      0909446A 
 1223      5F7B8195 
 1223      4F1BB1E9 
ARM GAS  C:\Users\AMANRA~1\AppData\Local\Temp\cck7hb2g.s 			page 99


 1223      A26E
 1224 0038 36CDD206 		.ascii	"6\315\322\0061\301J[\250|\024\313v)\024\272lY\220\002"
 1224      31C14A5B 
 1224      A87C14CB 
 1224      762914BA 
 1224      6C599002 
 1225 004c D52D5FB5 		.ascii	"\325-_\265\310\026\012mRI\374\010x\316\334\273\313Z"
 1225      C8160A6D 
 1225      5249FC08 
 1225      78CEDCBB 
 1225      CB5A
 1226 005e D40BDEC0 		.ascii	"\324\013\336\300\354\335\271\347\374\3477\37733wm\214"
 1226      ECDDB9E7 
 1226      FCE737FF 
 1226      3333776D 
 1226      8C
 1227 006f B18A24C6 		.ascii	"\261\212$\306\366\343\347\333\370\0176\006J\335M\306"
 1227      F6E3E7DB 
 1227      F80F3606 
 1227      4ADD4DC6 
 1228 007f 4A1D0AA8 		.ascii	"J\035\012\250\306\0157n\256:T\205\267\005\030\323\223"
 1228      C60D376E 
 1228      AE3A5485 
 1228      B70518D3 
 1228      93
 1229 0090 452485E9 		.ascii	"E$\205\351\251\002\200\372u\007\260\343\012W\005\034"
 1229      A90280FA 
 1229      7507B0E3 
 1229      0A57051C 
 1230 00a0 5754067E 		.ascii	"WT\006~\0252e\303\350\372\204\237\342\020\250\234\357"
 1230      153265C3 
 1230      E8FA849F 
 1230      E210A89C 
 1230      EF
 1231 00b1 547637E9 		.ascii	"Tv7\351x\371?\017?7\247\207u\356\345\214\325s\031\303"
 1231      78F93F0F 
 1231      3F37A787 
 1231      75EEE58C 
 1231      D57319C3 
 1232 00c5 A0157663 		.ascii	"\240\025vc\330\210\353\274\227\327\342\023\000\025\277"
 1232      D888EBBC 
 1232      97D7E213 
 1232      0015BF
 1233 00d4 3E0A79EE 		.ascii	">\012y\356\246\323W\005r\360kt\344\302X\006\177\025"
 1233      A6D35705 
 1233      72F06B74 
 1233      E4C25806 
 1233      7F15
 1234 00e6 18DE2FCC 		.ascii	"\030\336/\314\236\316\337\325\250\353e\272?\322\310"
 1234      9ECEDFD5 
 1234      A8EB65BA 
 1234      3FD2C8
 1235 00f5 F5E7BD9C 		.ascii	"\365\347\275\234\303w\300Q\017.A6\264A6\303.\006\355"
 1235      C377C051 
 1235      0F2E4136 
 1235      B44136C3 
 1235      2E06ED
ARM GAS  C:\Users\AMANRA~1\AppData\Local\Temp\cck7hb2g.s 			page 100


 1236 0108 B08BC2E7 		.ascii	"\260\213\302\347.\254\271\323l\2521\036t\320\034\361"
 1236      2EACB9D3 
 1236      6CAA311E 
 1236      74D01CF1 
 1237 0118 131F3406 		.ascii	"\023\0374\006{\257\244\363\327\245\346\211p}\253\310"
 1237      7BAFA4F3 
 1237      D7A5E689 
 1237      707DABC8 
 1238 0128 3D2B45E7 		.ascii	"=+E\347\233\237n(\327\007t\325\313U\350\374\273\260"
 1238      9B9F6E28 
 1238      D70774D5 
 1238      CB55E8FC 
 1238      BBB0
 1239 013a 04EE82DC 		.ascii	"\004\356\202\334\226Q\341\327\327\326+u\177\177\015"
 1239      9651E1D7 
 1239      D7D62B75 
 1239      7F7F0D
 1240 0149 9C0CADD5 		.ascii	"\234\014\255\325\344f)@#r\034[\250\330\330\204\014\264"
 1240      E4662940 
 1240      23721C5B 
 1240      A8D8D884 
 1240      0CB4
 1241 015b C9D68E1D 		.ascii	"\311\326\216\035v\0075\214U!G$E\367\263j\256\340M\271"
