:020000040800F2
:1000000000040020010300080303000803030008A4
:1000100003030008030300080303000803030008A8
:100020000303000803030008030300081137000856
:100030000303000803030008030300080303000888
:100040000303000803030008030300080303000878
:100050000303000803030008030300080303000868
:100060000303000803030008030300088146000897
:100070005146000821460008F1450008C145000826
:1000800091450008614500080303000803030008C8
:100090000303000803030008030300080303000828
:1000A0000303000803030008030300080303000818
:1000B000413F00080303000803030008030300088E
:1000C00003030008030300080303000803030008F8
:1000D0000303000803030008913D00080303000820
:1000E00003030008030300080303000803030008D8
:1000F0000303000803030008030300083145000858
:1001000003030008030300080303000803030008B7
:1001100003030008030300080303000803030008A7
:1001200001450008D1440008A144000871440008BA
:100130004144000803030008030300080303000808
:10014000030300080303000803030008E13F00085D
:1001500011440008E1430008B1430008030300080C
:100160000303000803030008030300080303000857
:100170000303000803030008030300080303000847
:100180000303000803030008030300080303000837
:100190000303000803030008030300080303000827
:1001A0000303000803030008030300080303000817
:1001B0000303000803030008030300080303000807
:1001C00003030008030300080303000803030008F7
:1001D00003030008030300080303000803030008E7
:1001E00072B6394880F30888384880F3098838485F
:1001F0004EF60851CEF20001086040F20000CCF249
:1002000000004EF63471CEF200010860BFF34F8F4C
:10021000BFF36F8F40F20000C0F2F0004EF688513D
:10022000CEF200010860BFF34F8FBFF36F8F4FF026
:100230000000E1EE100A4EF63C71CEF200010860BB
:10024000062080F31488BFF36F8F04F079FA03F06F
:100250006FFC4FF055301F491B4A91423CBF41F89B
:10026000040BFAE71C49194A91423CBF41F8040BC0
:10027000FAE71A491A4A1B4B9A423EBF51F8040B3F
:1002800042F8040BF8E700201749184A91423CBF96
:1002900041F8040BFAE704F00BFA04F049FA144CA5
:1002A000144DAC4203DA54F8041B8847F9E702F016
:1002B00087FE114C114DAC4203DA54F8041B8847F9
:1002C000F9E704F02DBA0000000400200008002027
:1002D0000000000800000020000400203C4C000842
:1002E000000800200808002008080020AC170020A3
:1002F000E0010008E0010008E0010008E00100085A
:100300006EE700F000F8FEE72DE9F04F2DED108AC2
:10031000C1F80CD0C3689D46BDEC108ABDE8F08FD3
:10032000002383F311882846A047002003F000FA39
:1003300003F026FA00DFFEE781F0004102E000BF93
:1003400083F0004330B54FEA41044FEA430594EA95
:10035000050F08BF90EA020F1FBF54EA000C55EAD0
:10036000020C7FEA645C7FEA655C00F0E2804FEAA1
:100370005454D4EB5555B8BF6D420CDD2C4480EA83
:10038000020281EA030382EA000083EA010180EAB3
:10039000020281EA0303362D88BF30BD11F0004F01
:1003A0004FEA01314FF4801C4CEA113102D0404237
:1003B00061EB410113F0004F4FEA03334CEA133372
:1003C00002D0524263EB430394EA050F00F0A7808A
:1003D000A4F10104D5F1200E0DDB02FA0EFC22FA85
:1003E00005F2801841F1000103FA0EF2801843FA79
:1003F00005F359410EE0A5F120050EF1200E012A6A
:1004000003FA0EFC28BF4CF0020C43FA05F3C018A7
:1004100051EBE37101F0004507D54FF0000EDCF120
:10042000000C7EEB00006EEB0101B1F5801F1BD3C9
:10043000B1F5001F0CD349085FEA30004FEA3C0CCD
:1004400004F101044FEA445212F5800F80F09A80C3
:10045000BCF1004F08BF5FEA500C50F1000041EBC7
:10046000045141EA050130BD5FEA4C0C404141EBCB
:10047000010111F4801FA4F10104E9D191F0000FF2
:1004800004BF01460020B1FA81F308BF2033A3F175
:100490000B03B3F120020CDA0C3208DD02F1140C6C
:1004A000C2F10C0201FA0CF021FA02F10CE002F1A7
:1004B0001402D8BFC2F1200C01FA02F120FA0CFCA0
:1004C000DCBF41EA0C019040E41AA2BF01EB0451E9
:1004D000294330BD6FEA04041F3C1CDA0C340EDCE7
:1004E00004F11404C4F1200220FA04F001FA02F32A
:1004F00040EA030021FA04F345EA030130BDC4F1E8
:100500000C04C4F1200220FA02F001FA04F340EADC
:100510000300294630BD21FA04F0294630BD94F08D
:10052000000F83F4801306BF81F480110134013D74
:100530004EE77FEA645C18BF7FEA655C29D094EAE5
:10054000050F08BF90EA020F05D054EA000C04BF63
:100550001946104630BD91EA030F1EBF002100204E
:1005600030BD5FEA545C05D14000494128BF41F0ED
:10057000004130BD14F580043CBF01F5801130BD51
:1005800001F0004545F0FE4141F470014FF00000DC
:1005900030BD7FEA645C1ABF194610467FEA655C8D
:1005A0001CBF0B46024650EA013406BF52EA03352F
:1005B00091EA030F41F4002130BD00BF90F0000F1D
:1005C00004BF0021704730B54FF4806404F1320459
:1005D0004FF000054FF0000150E700BF90F0000F12
:1005E00004BF0021704730B54FF4806404F1320439
:1005F00010F0004548BF40424FF000013EE700BF09
:1006000042004FEAE2014FEA31014FEA02701FBF98
:1006100012F07F4393F07F4F81F06051704732F0CA
:100620007F4208BF704793F07F4F04BF41F4002121
:10063000704730B54FF4607401F0004521F000417F
:100640001CE700BF50EA010208BF704730B54FF009
:1006500000050AE050EA010208BF704730B511F00A
:10066000004502D5404261EB41014FF4806404F142
:1006700032045FEA915C3FF4D8AE4FF003025FEAC8
:10068000DC0C18BF03325FEADC0C18BF033202EB4C
:10069000DC02C2F1200300FA03FC20FA02F001FAA6
:1006A00003FE40EA0E0021FA02F11444BDE600BF49
:1006B00070B54FF0FF0C4CF4E06C1CEA11541DBFF8
:1006C0001CEA135594EA0C0F95EA0C0F00F0DEF8C3
:1006D0002C4481EA030621EA4C5123EA4C5350EAA8
:1006E000013518BF52EA033541F4801143F48013F9
:1006F00038D0A0FB02CE4FF00005E1FB02E506F08A
:100700000042E0FB03E54FF00006E1FB03569CF0DE
:10071000000F18BF4EF0010EA4F1FF04B6F5007FE4
:1007200064F5407404D25FEA4E0E6D4146EB060656
:1007300042EAC62141EA55514FEAC52040EA5E50DF
:100740004FEACE2EB4F1FD0C88BFBCF5E06F1ED889
:10075000BEF1004F08BF5FEA500E50F1000041EBC0
:10076000045170BD06F0004646EA010140EA02006D
:1007700081EA0301B4EB5C04C2BFD4EB0C0541EA8F
:10078000045170BD41F480114FF0000E013C00F3A4
:10079000AB8014F1360FDEBF002001F0004170BDC8
:1007A000C4F10004203C35DA0C341BDC04F11404E1
:1007B000C4F1200500FA05F320FA04F001FA05F26D
:1007C00040EA020001F0004221F0004110EBD3703A
:1007D00021FA04F642EB06015EEA430E08BF20EA66
:1007E000D37070BDC4F10C04C4F1200500FA04F309
:1007F00020FA05F001FA04F240EA020001F000419B
:1008000010EBD37041F100015EEA430E08BF20EA0D
:10081000D37070BDC4F1200500FA05F24EEA020E55
:1008200020FA04F301FA05F243EA020321FA04F084
:1008300001F0004121FA04F220EA020000EBD3703B
:100840005EEA430E08BF20EAD37070BD94F0000F3B
:100850000FD101F00046400041EB010111F4801F6F
:1008600008BF013CF7D041EA060195F0000F18BF20
:10087000704703F00046520043EB030313F4801F5C
:1008800008BF013DF7D043EA0603704794EA0C0F16
:100890000CEA135518BF95EA0C0F0CD050EA41062C
:1008A00018BF52EA4306D1D181EA030101F00041A9
:1008B0004FF0000070BD50EA410606BF10461946D1
:1008C00052EA430619D094EA0C0F02D150EA0136DD
:1008D00013D195EA0C0F05D152EA03361CBF10461E
:1008E00019460AD181EA030101F0004141F0FE41BD
:1008F00041F470014FF0000070BD41F0FE4141F441
:10090000780170BD70B54FF0FF0C4CF4E06C1CEA40
:1009100011541DBF1CEA135594EA0C0F95EA0C0FF5
:1009200000F0A7F8A4EB050481EA030E52EA0335B0
:100930004FEA013100F088804FEA03334FF08055D1
:1009400045EA131343EA12634FEA022245EA1115FE
:1009500045EA10654FEA00260EF000419D4208BFAF
:10096000964244F1FD0404F5407402D25B084FEA5C
:100970003202B61A65EB03055B084FEA32024FF408
:1009800080104FF4002CB6EB020E75EB030E22BF65
:10099000B61A754640EA0C005B084FEA3202B6EB25
:1009A000020E75EB030E22BFB61A754640EA5C00D4
:1009B0005B084FEA3202B6EB020E75EB030E22BF64
:1009C000B61A754640EA9C005B084FEA3202B6EB65
:1009D000020E75EB030E22BFB61A754640EADC0024
:1009E00055EA060E18D04FEA051545EA16754FEA86
:1009F00006164FEAC30343EA52734FEAC2025FEAA4
:100A00001C1CC0D111F4801F0BD141EA00014FF032
:100A100000004FF0004CB6E711F4801F04BF014303
:100A20000020B4F1FD0C88BFBCF5E06F3FF6AFAE1F
:100A3000B5EB030C04BFB6EB020C5FEA500C50F1AF
:100A4000000041EB045170BD0EF0004E4EEA113132
:100A500014EB5C04C2BFD4EB0C0541EA045170BD39
:100A600041F480114FF0000E013C90E645EA060E7D
:100A70008DE60CEA135594EA0C0F08BF95EA0C0FAB
:100A80003FF43BAF94EA0C0F0AD150EA01347FF4F3
:100A900034AF95EA0C0F7FF425AF104619462CE7CA
:100AA00095EA0C0F06D152EA03353FF4FDAE10462D
:100AB000194622E750EA410618BF52EA43067FF47E
:100AC000C5AE50EA41047FF40DAF52EA43057FF40E
:100AD000EBAE12E74FEA410212F5001215D211D522
:100AE0006FF47873B3EB625212D94FEAC12343F02B
:100AF000004343EA505311F0004F23FA02F018BFAD
:100B0000404270474FF00000704750EA013005D175
:100B100011F0004008BF6FF0004070474FF0000038
:100B2000704700BF4FEA4102B2F1E04324BFB3F582
:100B3000001CDCF1FE5C0DD901F0004C4FEAC00254
:100B40004CEA5070B2F1004F40EB830008BF20F038
:100B50000100704711F0804F21D113F13872BCBFF2
:100B600001F00040704741F480114FEA5252C2F147
:100B70001802C2F1200C10FA0CF320FA02F018BF90
:100B800040F001004FEAC1234FEAD32303FA0CFCE3
:100B900040EA0C0023FA02F34FEA4303CCE77FEA72
:100BA000625307D150EA01331EBF4FF0FE4040F4BC
:100BB0004000704701F0004040F0FE4040F400006B
:100BC000704700BF844641EA000313F003036DD170
:100BD000403A41D351F8043B40F8043B51F8043B00
:100BE00040F8043B51F8043B40F8043B51F8043B07
:100BF00040F8043B51F8043B40F8043B51F8043BF7
:100C000040F8043B51F8043B40F8043B51F8043BE6
:100C100040F8043B51F8043B40F8043B51F8043BD6
:100C200040F8043B51F8043B40F8043B51F8043BC6
:100C300040F8043B51F8043B40F8043B51F8043BB6
:100C400040F8043B51F8043B40F8043B51F8043BA6
:100C500040F8043B403ABDD2303211D351F8043B46
:100C600040F8043B51F8043B40F8043B51F8043B86
:100C700040F8043B51F8043B40F8043B103AEDD2F5
:100C80000C3205D351F8043B40F8043B043AF9D246
:100C9000043208D0D2071CBF11F8013B00F8013B19
:100CA00001D30B8803806046704700BF082A13D326
:100CB0008B078DD010F003038AD0C3F10403D21A3E
:100CC000DB071CBF11F8013B00F8013B80D331F872
:100CD000023B20F8023B7BE7043AD9D3013A11F8F2
:100CE000013B00F8013BF9D20B7803704B7843705D
:100CF0008B788370604670470000000000000000A1
:100D0000264AF0B4012314688340234203D0002311
:100D10001846F0BC70472343214C1360256B214BD0
:100D2000214E02EBC00245F4001551604100936072
:100D300025630B18226D9B0042F40012F5582265C2
:100D4000226D2A6822F01F0233442A602A6812F0BA
:100D50000102FBD1084406EB80003D26C47A90F8DE
:100D600009C047686109890006FA0CF001F1604189
:100D700004F16046386001F56141012006F56146E5
:100D800004F01F042A6000FA04F4A0222120686104
:100D900086F80023C1F880410C60B9E7EC0F002011
:100DA00000380240180D00204447000800000000F1
:100DB00070B40D4C0D4ED4E90823D4E90A541268DE
:100DC0001B68D16045F4806550601560DE60586036
:100DD0001C60116841F0010111601A6842F00102C3
:100DE0001A6070BC704700BF180D0020284800082A
:100DF000274B03EB80022DE9F043D3F85480D368EE
:100E00005F69D7E90046B442814634D908EB401CFB
:100E1000B3F810E0DCF81839A41B744528BF7446F9
:100E20009BB2B4EB830F23D8411CBD6808EB0131A2
:100E30002B680B60042C0AD9621F22F003020432D3
:100E40002A442B4653F8040F08609A42FAD13B68B3
:100E500026442544B342C7E901650CD99C1BDCF844
:100E60001829744528BF744693B2B4EB830FDFD9B9
:100E70000020BDE8F0830123D8F8342803FA09F0F4
:100E800022EA0002C8F834281846BDE8F08300BF03
:100E9000480D0020000000000000000000000000DD
:100EA000014B5B6883607047001000E000000000A9
:100EB000F0B4202383F311880D4DD5E900744E1E44
:100EC0003A448319494290190B4008400344A34215
:100ED00007D89F4205D82B60002383F31188F0BC0C
:100EE00070470020002383F31188F0BC704700BFD7
:100EF000C80F0020000000000000000000000000FB
:100F0000024AD36843F0C003D360704700440040F6
:100F1000022906D0032906D00129064818BF00205F
:100F2000704705487047032A9ABF044800EBC20087
:100F300000207047404B0008F44A0008C84B0008E6
:100F4000202383F31188124B5B6813F4006302D1F2
:100F500083F311887047F1EE103AEFF309830D4ADD
:100F60004FF08071D26843F8082C43F84C1CA3F171
:100F7000680282F30988084A116892698968926850
:100F800091428CBF054A064A43F8502C704700BF77
:100F900000ED00E030EF00E0A80D00203103000874
:100FA0003403000800000000000000000000000002
:100FB00070B40B4CD4E90063721E4D420A440139EF
:100FC0000144294002EA05000144994204D88E42B6
:100FD00002D8216070BC7047002070BC704700BF11
:100FE000C80F00200000000000000000000000000A
:100FF0000E4B0F4A5B68C168F0B48468566F426854
:101000001B1BD0E904459B1BE61845F100079342E2
:10101000026888BF436001319342C0E90467C0E9B8
:10102000023138BF0360F0BC704700BF001000E021
:10103000A80D0020000000000000000000000000DB
:10104000202383F3118890F82030072B0ED8DFE897
:1010500003F0290D0D2508040D08426A9368013339
:101060009360D0E900231A600268536010B4002234
:101070004FF0FF3481680D4B446280F820201B68DC
:101080009A688A42FBD25A680021C0E90032106097
:10109000586081F311885DF8044B7047436A002261
:1010A0001A60E3E7002383F311887047A80D00203E
:1010B00001460022074B806881F820201B689A684F
:1010C0008242FBD25A680846C1E900321160596079
:1010D000704700BFA80D00200000000000000000C5
:1010E00038B5036898420CD004466FF001051A68C1
:1010F0002260184654605D62FFF7DAFF2368A3425E
:10110000F5D138BD00000000000000000000000024
:101110000368984207D01A680260002150601846A0
:101120005962FFF7C5BF70470000000000000000D3
:10113000F8B50468A04221D00D460746002604E019
:101140000B2A1CD02468A74218D0E3682B43E36025
:1011500015B123691D42F5D0D4E90103416B90F824
:1011600020200B430A2A4363EAD1426A1342E9D0A2
:101170004662FFF79DFF2468A742E6D1F8BD426AA8
:1011800032EA0303DED1F3E70000000000000000B4
:10119000034A516853685B1A9842FBD8704700BFF6
:1011A000001000E00000000000000000000000004F
:1011B000FEE700BF0000000000000000000000008B
:1011C00011F00C0F00D1704772B6024B024ADA627E
:1011D000FEE700BFA80D00208449000800000000C1
:1011E00011F00C0F4CD142680B46117870B50446D3
:1011F00091B1DE0603F0200502D553685BB1984734
:101200004DB163685B6833B1042222702046984771
:101210002378042B39D070BD416A0B68186820F020
:101220001F0018601868C507FCD44E7A236A4D6801
:1012300019683D20B0402860086820F01F00086051
:101240000868C007FCD4587A596852683D23834027
:101250000B60EAB104232370204690472378042BC7
:1012600016D0202383F31188A3682BB10022A2603B
:1012700018465A62FFF71CFF002383F3118870BDE4
:1012800072B6054B054ADA62FEE70323237070BD90
:1012900002232370E5E700BFA80D00208449000861
:1012A00000EB8103426DD868F0B444692368E360C1
:1012B000EBB902EB41134FF40024C3F81049036863
:1012C00003F00303012B25D008B202EB40100123E9
:1012D000D0F8004944F00444C0F80049D2F834087A
:1012E00003FA01F10143C2F83418F0BC704711B39E
:1012F00043F00056078A02EB41157C1E2344B3FBE2
:10130000F7F346EAC343C5F81039036803F0030353
:10131000012BD9D108B2D2F8083802EB401413F4EB
:10132000807FD4F8003914BF43F0805343F000535A
:10133000C4F80039C9E7402BDAD94023014E2360B5
:10134000D8E700BF400000200000000000000000BF
:10135000204AF8B5566D06EB40130546D3F8084908
:10136000C3F80849E00703D5D6F81038D90708D4E0
:10137000230605D5D6F834280123AB40134215D1F6
:10138000F8BD02EB8503D86843691F68D9688F42AE
:1013900011D3138987680121A94023EA010313812E
:1013A000002FE5D010462946B847E1E72846BDE8BA
:1013B000F840FFF71DBDC91B0027C3E90017202314
:1013C00083F3118810462946FFF76AFF87F31188D7
:1013D000CEE700BF480D0020000000000000000024
:1013E00000EB810330B4DD68AB691C68DC6019B9BF
:1013F000402C84BF40241C606B8A406D2D685A1EAF
:101400002244B2FBF3F202FB03F3033323F00303A2
:1014100043EAC24300EB411405F0030243F0C0432A
:10142000012AC4F8103B0AD009B200EB411130BCCC
:10143000D1F8003B43F00443C1F8003B704709B2C8
:10144000D0F8083800EB411213F4807FD2F8003B4B
:1014500014BF43F0805343F00053C2F8003BE4E76D
:101460002DE9F041234E776D07EB40130446D3F886
:10147000085BC3F8085B28070AD5D7F814381907A2
:1014800006D506EB84032146DB6830465B68984747
:10149000EA072DD5D7F81438DB0729D506EB8403E6
:1014A000D9685CB98A69488A5568B5FBF0F300FBD6
:1014B00013531BB91068D36898420DD37389CD6854
:1014C0000122A24023EA020373818DB121462B46FB
:1014D0000848BDE8F04118471B1AC2E90034202330
:1014E00083F3118803482146FFF77AFF84F31188BC
:1014F000BDE8F081480D0020000000000000000061
:101500002DE9F04F02F0030EC2F3C1067746D2096F
:1015100000244FF0010A4FF003094FF00F0812E0CA
:10152000D0F800B003EA0B033B43072C03603DD81F
:10153000036A03EA0C0C4CEA05050562490833D03E
:10154000B600BF000134CB07F8D543680AFA04F5AA
:1015500023EA050343606300856809FA03F3DB436C
:101560001D4035438560D0F80CB004F00705AD0090
:1015700008FA05FC03EA0B0BBEF1020FC0F80CB031
:101580006FEA0C0C02FA05F5CAD1072C15D8D0F871
:1015900020B00BEA0C0C4CEA0505056205682B40EF
:1015A0003B4349080360CBD1BDE8F08F436A03EAAF
:1015B0000C0C4CEA05054562C0E7D0F824B00BEAF4
:1015C0000C0C4CEA05054562E8E700BF000000008E
:1015D00090F83420152A15D838B50123934040F6E9
:1015E00041621342044625D113F480150BD0C36821
:1015F0009B695B682BB9036C03B19847002384F89F
:10160000343038BD70479B02FBD50B2380F8343053
:10161000202383F31188C36802895B6942F00102C9
:10162000028129469D60C3E90055FFF739FE85F325
:10163000118838BD436D4168D3F800290D6842F424
:101640000012C3F80029D3F8002B42F40012C3F8AB
:10165000002B0DB10621A847062384F8343038BD8D
:1016600038B590F834300446152B21D8DFE803F064
:101670000B20202020200B2020213148202020205A
:10168000202020200B0B436D4168D3F800290D6802
:1016900042F40012C3F80029D3F8002B42F40012E0
:1016A000C3F8002B0DB10621A847062384F8343077
:1016B00038BD90F84B1090F84A30C26B43EA0123D2
:1016C0009A4206D2C3681B8AB2FBF3F503FB1525C9
:1016D000EDB1142384F83430202383F31188E368B8
:1016E00062899B69002542F00102628120469D606B
:1016F000C3E900552946FFF773FE85F3118838BD0D
:10170000036C03B19847002384F8343038BD20239C
:1017100083F31188C36802895B6942F00102028188
:1017200029469D60C3E90055FFF7BAFD85F311888E
:101730000A2384F8343038BD0000000000000000A7
:10174000F0B400EB81040789D4F80CC00124DCF864
:1017500014508C403C4300270481AA60C5E900373F
:10176000F0BCFFF79DBD00BF0000000000000000BE
:10177000704700BF000000000000000000000000F3
:1017800090F8443003F06003202B01D00020704714
:1017900090F84530202BF9D3212B07D8074B8363D2
:1017A00007220023C0E90F2301207047222BEDD12F
:1017B0000023C0E90E3303640120704700080020B5
:1017C0000020704700000000000000000000000042
:1017D0000020704700000000000000000000000032
:1017E000F8B5D0F88C140A681378042B01D00120C6
:1017F000F8BD037A022BFAD10C795589012303FA3B
:1018000004F42542F3D1D0E90746B44215D0231D94
:10181000EDD0497902EB81040120E4688840A66993
:10182000054300244FF4807755811046B360C6E924
:101830000074FFF7D5FD2046F8BD80690028D6D199
:10184000E5E700BF0000000000000000000000000D
:10185000406BFFF7C5BF00BF0000000000000000A4
:10186000093138B550F8214094B1202383F3118811
:10187000D4F88C241368527903EB8203DB689B69EC
:101880005D6835B92046FFF7ABFF002383F311886D
:1018900038BD04216018FFF74BFCE369616A1D60E5
:1018A000A06AA26903448B42E36102F1010224BFF2
:1018B000236BE361A26104F10C00FFF729FC2046D1
:1018C000FFF78EFF002383F31188E1E7000000009B
:1018D000D0E904239A4204D0184650F8043B0B6028
:1018E0007047C268002AF7D000207047000000004F
:1018F00010B5446BD4F88C2413681978042982B08D
:1019000001D002B010BD217A0229FAD111791A89C9
:1019100001238B401342F4D101A904F14400FFF7E5
:10192000D7FFD4F88C44019B217902462068FFF749
:1019300007FFE6E7000000000000000000000000D4
:1019400010B5202382B083F311881E4CD4F88C2468
:1019500013681978042904D0002383F3118802B096
:1019600010BD217A0229F7D111791A8901238B4000
:101970001342F1D1D4E915329342EDD1226D002A00
:10198000EAD0E26E002AE7D0043AD21AE4D01A6014
:10199000D4E9171003448B42226D636524BFA36E04
:1019A0006365013A0023226501A9E3660648FFF753
:1019B0008FFFD4F88C44019B217902462068FFF701
:1019C000BFFEC9E788080020CC0800200000000006
:1019D0002DE9F04100EB810382B09C69F4B10E4621
:1019E0000546202383F3118800EB8107201D082181
:1019F000FFF79EFBFB685B691B6804F1440803BBAF
:101A0000404601A9FFF764FF58B102463146284617
:101A1000019BFFF795FE002383F3118802B0BDE818
:101A2000F081FB685A691268002AF4D01B8A013BD6
:101A30001340F0D1314605F144022846FFF780FEFD
:101A4000E9E7D4E91721A36D206D0B449342A36508
:101A500000F1010028BFA36E206528BFA3654046A2
:101A6000FFF756FB404601A9FFF732FF0028CCD113
:101A7000D7E700BF000000000000000000000000E9
:101A8000154B996930B404468D6880680022A842DD
:101A900062620CD884F820201B689A689042FBD9B7
:101AA0005A68C4E9003214605C6030BC704781F849
:101AB00020201A46126890688542FBD95068486019
:101AC00001250A600160516084F8205020469C6125
:101AD00030BCFEF719BC00BFA80D002000000000BC
:101AE000084B99691A6810B481F8200010681860D2
:101AF0000124436082F8204010465DF8044B9A614F
:101B0000FEF702BCA80D002000000000000000004D
:101B1000F0B54B1C87B04CD0414C2546022955F8F6
:101B20001C2FA36905934FF0804C074638BF022154
:101B30003C48DCF824300490AA425BD0A66A906846
:101B40009B1B59182FD31268091A9068814204D937
:101B50001268091A90688842FAD35368029301AE5A
:101B600001921E60566003919368591A4FF0FF333B
:101B7000916063623846FFF7B3FF049B7BB1E26973
:101B8000019BB2421CD0029A1360019B0021AB4220
:101B90005A60049103D09A6803990A449A60A36931
:101BA000586A07B0F0BD8142D0D20E44CCF8346000
:101BB000CCE71B4CFFF794FFA369586A07B0F0BD50
:101BC0000022AB42E3615D60049224D09A680398DE
:101BD000A16A02444FF080409A60436A5B1A9A42BD
:101BE000DDD9D01A012898BF9A1C4FF080430A44CF
:101BF0005A63D4E7A362581801AE00220223CDE94C
:101C000001550391C4E90766CCF83400CCF81020E4
:101C1000CCF80C30AEE74FF08043DA60BFE700BF8E
:101C2000A80D002041100008000000000000000086
:101C300069B1084B10B4024644689B690420C3E9AB
:101C40000024236053605DF8044BFFF761BF4FF041
:101C5000FF307047A80D00200000000000000000C9
:101C6000F8B504460F461646202383F3118803E097
:101C7000FFF7DEFF002818DBA56831462046002D5F
:101C8000F6D06269A368511C013B6161A3601770C3
:101C9000D4E904329A4224BFE3686361E36903B183
:101CA0009847002080F31188F8BD85F31188F8BDAE
:101CB0003030FFF7D5BF00BF00000000000000007B
:101CC00030304FF0FF32FFF7CBBF00BF0000000005
:101CD00070B5202304460E4683F3118803E0FFF716
:101CE000A7FF00281ADBA56831462046002DF6D054
:101CF000A169A36820694A1C013B8242A360A261DA
:101D000028BFE3680D7828BFA361E3690BB12046C3
:101D10009847002383F31188284670BD85F3118806
:101D200070BD00BF000000000000000000000000C7
:101D30000C30FFF7CDBF00BF000000000000000026
:101D40000C304FF0FF31FFF7C3BF00BF00000000B1
:101D500038B504460D4605E0237A83B9FFF768FFDE
:101D600000280BDBE36829462046002BF4D02369CA
:101D7000E1691A1D0B44C4E90A23002038BD6FF045
:101D8000010038BD0000000000000000000000005D
:101D900070B520230E46044683F31188856AFDB191
:101DA0002E70D4E90A3201339342A36214D3E2695C
:101DB0002369A169043A1A60E069E26803448B422E
:101DC000236124BF636A2361013A236BE26000222E
:101DD000A2620BB120469847002080F3118870BDA5
:101DE0001146FFF7B5FF08B9A56AD9E785F3118851
:101DF00070BD00BF000000000000000000000000F7
:101E00004430FFF7C5BF00BF000000000000000025
:101E100044304FF0FF32FFF7BBBF00BF00000000AF
:101E200038B504460D4605E0237A83B9FFF700FF75
:101E300000280BDBE36829462046002BF4D06369B9
:101E40001A6804331A44C4E90A32002038BD6FF01E
:101E5000010038BD0000000000000000000000008C
:101E600070B52023044683F31188856AE5B115F81F
:101E7000016BE26AA562954211D3D4E90610636949
:101E8000E26803448B42636124BF636A6361013A81
:101E9000236BE2600022A2620BB120469847002328
:101EA00083F31188304670BDFFF7BAFF064608B9C4
:101EB000A56ADCE785F31188F4E700BF00000000A5
:101EC0000C30FFF7CDBF00BF000000000000000095
:101ED0000C304FF0FF31FFF7C3BF00BF0000000020
:101EE00008B50146202383F311880820FFF710FE70
:101EF000002383F3118808BD0000000000000000EB
:101F000010B5054CA369036002465A620320FFF72F
:101F1000E7FDA369586A10BDA80D0020000000006D
:101F200070B5202383F31188104B114ED3E908427A
:101F300003251D702468DD6A1268E66045F480653B
:101F40009E6A60602660D16050601560216841F033
:101F500001012160116841F0010103F108001160E5
:101F6000FFF7CEFF002383F3118870BD180D00200A
:101F700070100020000000000000000000000000C1
:101F80002DE9F04182B01149114E02AD4FF0000829
:101F9000022705F8048D778308700120FFF7C0FF42
:101FA000202383F311880B4C032304F8083B2946B4
:101FB0000120FEF7FDFE2046FFF7A2FF88F31188FF
:101FC00037839DF8040002B0BDE8F081A01700201F
:101FD00000080240180D0020000000000000000072
:101FE0000EB42DE9F04F2DED028B92B01DAB0646DD
:101FF00053F8049B0B939A464FF0000B99F800108E
:1020000009F1010271B1252914D033689146DB68CA
:102010003046984799F800100BF1010B09F10102C5
:102020000029F0D1584612B0BDEC028BBDE8F04F4C
:1020300003B0704799F801102D2903BF99F80210D9
:1020400009F1020201230023302908BF51780193CE
:1020500006BF0132302720270132002407E09AF81A
:1020600000300AF1040A12F8011B03EB4004A1F14D
:102070003003DBB2092B154604EB8400F3D92A297F
:10208000EDD02E294FF000084AD001F0DF034C2B91
:1020900005F1010950D0A1F14103A1F14402DBB2E5
:1020A000342A00F2D381DFE812F01F02D101D101FE
:1020B000D101D1011F02D101D101D101D101D10141
:1020C000CD01D101D101D101D101D1019701D101BE
:1020D000D1012802D101D101D101D101D101D10118
:1020E000D101D101D101D1014E011F02D101AA00BC
:1020F000D101D1011F02D101D101D101D101D10101
:10210000CD01D101D101D1018800D1019701D101C7
:10211000D10128029AF800300AF1040A03EB4208C0
:1021200015F8011BA1F13003DBB2092B08EB880283
:10213000F4D92A29EED0A8E72B78DBB3A3F1440227
:10214000342A00F28581DFE812F0A20183018301C5
:1021500083018301A2018301830183018301830140
:102160007E0183018301830183018301480183018F
:1021700083019F0183018301830183018301830123
:102180008301830183018301FF00A20183015B00BE
:1021900083018301A2018301830183018301830100
:1021A0007E0183018301830139008301480183019A
:1021B00083019F010B46A946C0E7A946DAF8005003
:1021C0000AF1040A002D00F0A7812B782946B8F106
:1021D000000F40F0BD81002B00F0CA8147F6FE7869
:1021E0002B4602E0B8F1010803D413F8012F002AAE
:1021F000F8D15B1AE41A013B00932027AFE0A9460F
:102200000AF1070A2AF0070ADAE90001FEF78AFC58
:1022100008EE100AB5EEC08AF1EE10FA0AF1080ACB
:1022200000F16F810CAB0293009318EE100AFEF7D9
:10223000E7F908F1FF38B8F1080FCDE9040100F221
:102240007481BF4B53F828502846FEF7B7F9BD4BB1
:10225000CDE90601A3FB0535EB0809931D46FDEE0C
:10226000C87A009BDFF8DCE2CDED037A03F10B08BE
:1022700017EE901A4246AEFB0103DB0803EB830C1A
:102280001846A1EB4C033033DBB202F8013D0146A6
:102290000028F0D10099A8EB02080846404401E06C
:1022A00012F8013F01F8013B8142F9D1009A0398ED
:1022B0002E2308F1FF3842440B700892FEF78EF986
:1022C00002460B46DDE90401FEF73AF8DDE9062394
:1022D000FEF7EEF9FEF7FEFB089B099A994903F118
:1022E0000D080233002A08BF054600934246A1FBB1
:1022F00000C3DB0803EB830E9C46A0EB4E03303398
:10230000A1FB0505DBB2ED0802F8013D6046EED108
:10231000A8EB0208089908F1020001440846009958
:1023200001E012F8013F01F8013B8142F9D1009B25
:10233000029D43449846A8EB050808F1FF33A4EB3F
:10234000080400930BE0A94612ADDAF8003005F856
:10235000183D0023013C0AF1040A00932027002CB9
:102360006ADB019B002B7BD16342002C77D029785C
:1023700032682D29D26877D0984601E03368DA6850
:1023800039463046904718F10108F7D1009A002AE3
:102390004346A344FFF632AE1C46DDF800803368A6
:1023A00015F8011BDB6808F1FF3830469847B8F193
:1023B000FF3FF4D1009B0BF1010B5B449B46002CCB
:1023C0003FF41CAE254633683946DB6830469847F3
:1023D000013DF8D1A34411E6A9464FF00A0C5AF882
:1023E000042B0DF13B0100E00146B2FBFCF50CFBB8
:1023F000152202F13003392BC8BF02F13703DBB2DB
:1024000001F8013C481E2A46002DEDD10DF13B0597
:102410000CAAA5EB00080292404401E011F8013B30
:1024200002F8013B8142F9D1A4EB080408F1FF3323
:10243000002C0093029D94DA009B002BFFF6DEAD8A
:102440000024AAE7A9464FF0080CC8E7A9460B46A6
:1024500012AD013C05F8183D002300937FE71C46B0
:10246000009B002B99DAAAE7302F85D130460193E3
:102470009047009B3268013B0093019BD2680BF1AF
:10248000010B013598467BE74FF0100CA7E70AF1E6
:102490000402DAF800109246002960DB0CAB0293CC
:1024A0001D4605F10B02DFF89C801046A8FB01C316
:1024B000DB0803EB830E9C46A1EB4E033033DBB20B
:1024C000614600F8013D0029F0D1121A2A4401E0CA
:1024D00010F8013F05F8013BAA42F9D1029D521BB9
:1024E000531EA41A00933AE75246192B52F8041BC4
:1024F000A94688BF9246CFD8CBE7A9464FF0100C2B
:102500006DE72D238DF830300DF1310300930CABC6
:10251000B1EE488A029388E60B490D46B8F1000FE8
:102520003FF45CAE08F1FF385AE69FED037B074DA0
:1025300009958DED067B92E60000000065CDCD414A
:10254000D8480008CDCCCCCC2048000800E1F505E7
:10255000002BE7D14FF0FF3300932027FFE62D2318
:102560008DF830300CAB49420DF13105029398E7FC
:102570004FF0FF3300932027F3E600BF0000000078
:1025800070B590F83430044613B1002380F834302D
:1025900004EB81016268CB681B6A19685B68A364FD
:1025A0006164936863B32046984748B3E16B94F83D
:1025B000443094F84B0094F84A2042EA00228A42C0
:1025C0002CBF0A46E263190600F18F80002A5FD013
:1025D000152384F83430202383F31188E36862895B
:1025E0009B69D4E90E6142F0010200256281204618
:1025F00083E862002946FEF7F3FE85F3118870BD7B
:1026000094F8443013F06005194616D0626DD2F884
:102610000039616843F40013C2F80039D2F8003B76
:102620000D6843F40013C2F8003B15B106212046A3
:10263000A847062384F8343070BD94F8450003F0B1
:102640007F0242EA002240F20230824200F0F08033
:1026500035D8022A00F0DB8040F2AF80B2F5817FEE
:1026600000F0B380B2F5407F00F08780B2F5807F44
:10267000CCD194F84630012BC8D1B4F84C30A563C6
:10268000C4E90F5523F00203A4F84C300B0645D4DF
:102690000B2384F83430202383F31188E3682289E4
:1026A0005B69002542F00102228120469D60C3E95A
:1026B00000552946FEF7F4FD85F3118870BD40F200
:1026C0000160824268D9B2F5106F3ED040F60241F7
:1026D0008A4200F09580B2F5006F97D104F14F0265
:1026E00001212564C4E90E2163E7BAB1092384F806
:1026F0003430202383F31188E36822895B69D4E9AD
:102700000E6142F0010200252281204683E862002A
:102710002946FEF7C5FD85F3118870BD142384F8A2
:102720003430202383F31188E36862899B69002594
:1027300042F00102628120469D60C3E900552946AE
:10274000FEF74EFE85F3118870BD2378042B00F050
:10275000C08094F846304BB10421626884F84F3051
:102760002170136813B10221204698470023C4E961
:102770000E33236494F8441088E794F84630012B14
:102780007FF444AFB4F84C30A56343F00203C4E9CE
:102790000F55A4F84C3079E7B2F5C06F5FD2B2F5AF
:1027A000A06F7FF433AFB4F84430B3F5A06F78D0A6
:1027B0000023C4E90E33236468E7F2B904F14C0046
:1027C00002212264C4E90E01F3E694F84630002B9E
:1027D0007FF41CAF94F8483013F00F00E8D0626D1E
:1027E00013F0800F02EB401340F0AE80D3F8002BC3
:1027F00022F40012C3F8002BDAE7012A7FF406AFB7
:10280000584AA26302210022C4E90F12D1E694F8CB
:102810004800626D050600F00F0139D458314901B6
:1028200051580D047FF5F3AE8E0238D54E4AE8E7D5
:1028300094F84630002B7FF4E9AE94F8483013F05A
:102840000F00B5D0626D02EB4012180600F18380D4
:10285000D2F8003B43F40013C2F8003BA8E794F819
:102860004900616894F848304E6894F8462094F81E
:10287000471043EA00232046B04700283FF4C6AE85
:10288000D0E900132564C4E90E3194F8443090E691
:1028900048314901515808047FF5B9AEC4E7334ABD
:1028A000AFE794F84610626D84F84E10D2F8003805
:1028B000606823F4FE63056843EA0113C2F8003838
:1028C00015B101212046A847032394F84410237032
:1028D0006EE7202383F31188A36D20891A68E265CF
:1028E00062899B68666D256100F0010002F00102BB
:1028F0002946C4E90555208162815D1C0A464FF0D6
:10290000FF3006EB411301318D42C3F80029C3F8B3
:102910001029C3F80809C3F8002BC3F8102BC3F81B
:10292000080BEED14FF00113C6F81C3882F3118862
:102930000321636884F84F2021701B68002B3FF44B
:1029400008AF2046984704E7D3F8002922F4001284
:10295000C3F800292CE7D2F8003943F40013C2F879
:10296000003925E7384C0008A4480008044800084E
:102970002DE9F04F85B0CDE90232D0F81C904FF030
:10298000200A8AF311883AB304460F4616464FF0E0
:10299000000BA2689642D4E904208CBFA568354696
:1029A000A2EB0008A84540D82BD32A463946FEF7AB
:1029B00009F9E2686261A268521BA2609DB1B9F197
:1029C000000F01D02046C8478BF31188761B2F4497
:1029D0008AF31188002EDCD10398002383F3118839
:1029E00005B0BDE8F08F02992046FFF721F90028D5
:1029F000CFD0039B981B002383F3118805B0BDE85B
:102A0000F08FA5EB0803424639460193FEF7DAF84A
:102A100007EB0801DDF80480E0684246FEF7D2F8D3
:102A2000E2684346D3186361C5E72A463946FEF794
:102A3000C9F862692A446261BDE700BF0000000076
:102A40003030FFF795BF00BF00000000000000001D
:102A500030304FF0FF33FFF78BBF00BF00000000A6
:102A60002DE9F04F85B0CDE90232D0F81C904FF03F
:102A7000200A8AF311883AB304460F4616464FF0EF
:102A8000000BA268A169964222698CBFA5683546F1
:102A9000A2EB0108A84540D82BD32A463846FEF7BA
:102AA00091F8E268A261A268521BA2609DB1B9F1DF
:102AB000000F01D02046C8478BF31188761B2F44A6
:102AC0008AF31188002EDCD10398002383F3118848
:102AD00005B0BDE8F08F02992046FFF7A9F800285D
:102AE000CFD0039B981B002383F3118805B0BDE86A
:102AF000F08FA5EB0803424638460193FEF762F8D3
:102B000007EB0800DDF80480E1684246FEF75AF85A
:102B1000E2684346D318A361C5E72A463846FEF764
:102B200051F8A2692A44A261BDE700BF000000007D
:102B30000C30FFF795BF00BF000000000000000050
:102B40000C304FF0FF33FFF78BBF00BF00000000D9
:102B50002DE9F04F83B004460F46904601934FF0A5
:102B6000200A8AF31188A66A4FF0000BD946002E7E
:102B70003FD0E26AA8EB0B05921B954228BF154691
:102B8000402D3DD907F140023D687868B968D7F813
:102B90000CC0C6F80CC01037974235607060B16049
:102BA00006F11006F0D1A26A40320BF1400BA2628E
:102BB000E16A914214D8E1692269A569043911607A
:102BC000E069E168C4F828900244AA42226124BF67
:102BD000626A2261226B0139E1600AB120469047A6
:102BE00089F31188C34518D28AF31188A66A002E8A
:102BF000BFD101992046FFF7ABF860B9A66AB8E7E4
:102C00002A4639463046FDF7DDFFA26A2A44AB4426
:102C10002F44A262CCE786F31188584603B0BDE882
:102C2000F08F00BF00000000000000000000000066
:102C30004430FFF78DBF00BF00000000000000001F
:102C400044304FF0FF33FFF783BF00BF00000000A8
:102C50002DE9F04F044683B00E4617469A464FF0D2
:102C6000200989F31188A36A4FF0000BD846002B86
:102C700041D0E26AA7EB0B05D21A954228BF154650
:102C8000402D194640D903F140023346D1F800C027
:102C90004D688868D1F80CE0C3F80CE0103191421F
:102CA000C3F800C05D60986003F11003EED1A36A21
:102CB000403340360BF1400BA362E26A9A4211D8CE
:102CC000D4E906216369E068C4F828800B44934284
:102CD000636124BF636A6361236B0138E0600BB1F9
:102CE0002046984788F31188BB4519D289F311888B
:102CF000A36A002BBDD1514620460193FFF790F8FF
:102D0000019B58B9A36AB4E730462A46FDF75AFF3B
:102D1000A36A2B44AB442E44A362CEE783F311880D
:102D2000584603B0BDE8F08F00000000000000002E
:102D30000C30FFF78DBF00BF000000000000000056
:102D40000C304FF0FF33FFF783BF00BF00000000DF
:102D50002DE9F0410FB200EB87065369F2600D4692
:102D600023B10021196059609960D960936923B13A
:102D700000221A605A609A60DA60F3681A6802F0FA
:102D80000302022A00F09C80032A00F096804E4C39
:102D90004E49012A0CBFA0468846446DD3F818C09E
:102DA000690162184FF0000EC2F810EB05F1100235
:102DB0004FF0010E0EFA02F2BCF1000F4ED0B3F844
:102DC00012E005F1580C4FEA4C1C4EEA080E44F88C
:102DD0000CE0D4F81CC84CEA0202C4F81C2804EB2E
:102DE000010CD3F814E00022A901CCF8102941F01D
:102DF00020016A1EBEF1000F3FD0B3F81CC01F8A2D
:102E0000BCF1010F4FEA970302F14002C76D88BF82
:102E10000CFB03F304EB820203EB070C47EA0343CA
:102E2000C0F85CC05360216123699A06FCD412206B
:102E3000FEF7AEF9F3681A8A05F1480342EA8552B3
:102E40005B0142EA0802E2500121D4F81C3801FA81
:102E500005F51D43C4F81C58BDE8F08104EB471E7E
:102E6000DEF800CB2CF4004CCEF800CBD4F81CC814
:102E70002CEA0202C4F81C28B1E705F13F0304EB79
:102E80008303134A5A60216123699B06FCD404EB37
:102E900047171220FEF77CF9D7F8003923F40043D6
:102EA000C7F80039D4F81C38012101FA05F523EAE6
:102EB0000505C4F81C58BDE8F081DFF818806CE700
:102EC000DFF8148069E700BF008004100080001064
:102ED0000004000200800C100080081000000000B8
:102EE00038B505291ED8DFE801F0031D1E03034F86
:102EF000202383F311882C4C237D13B194F84C309C
:102F00006BB902212948FEF713F9012528482575D8
:102F1000FEF7E6F8274884F84C50FEF7E1F8002366
:102F200083F3118838BD0546202383F311881E4C96
:102F3000214A0121FFF70CFF022128461F4AFFF713
:102F400007FF0025236B236204F10C00E361A561F8
:102F5000C4E90D55FEF7C4F8D4E9192304F144007F
:102F60002265C4E915332575C4E91B55FEF7B8F889
:102F7000201D012184F84C50FEF7DAF82046FEF7B8
:102F80002FFC85F3118838BD202383F31188064C6C
:102F90000121201DFEF7CCF80023237584F84C3066
:102FA00083F3118838BD00BF880800208C080020FA
:102FB00094080020CC0800205048000874480008FD
:102FC000254B26481A696FEAC2526FEAD2522DE9A0
:102FD00080481A611A69C2F308021A614FF0FF347F
:102FE0001A695A695C61002259695A615969196AFA
:102FF00061F080511962196A01F080511962196AF1
:10300000596A5C62596A5A62596A196C41F0805176
:103010001964196E41F080511966196E016841F406
:1030200080710160196F01F44071B1F5007F87B0C4
:1030300003D04FF4803119671A670848084942687D
:10304000084B094D22F40072002442600A460C60CD
:1030500003F1C0010CE000BF0038024000700040E6
:10306000EC0F0020504700081060024053F80C5C41
:103070002C600C339942546002F10802F6D1CE4F15
:10308000DFF894A3CD4DCE4BDFF890B3CD4ADFF8F7
:1030900090C3CD4EDFF88C834FF0FF3160204FF0AE
:1030A0004009CAF80810CAF80C10A9604FF0800A4D
:1030B000E96087F806034FF48075C7F88091C7F878
:1030C00000904FF4007987F807039E46C7F880A167
:1030D000C7F800A087F80803C7F880513D6087F85B
:1030E0000903C7F88091C7F800904FF4806987F80A
:1030F0000A03C7F88091C7F800904FF4000987F8D9
:103100001703C7F88091C7F8009087F82803C7F81D
:1031100084517D604EF804BB4FF0010903F1540562
:1031200003F17400C3F804E003F10C0E5C619D61CF
:1031300083F80890C3E903EE5D6218641D6203F131
:10314000640003F13005DFF8E0E2D8614FF0100BC6
:10315000D863C3E91100C3E90C559C489C4DC3F8E2
:1031600074E0C3E90A43C3E913C3C3F838B0DFF816
:10317000BCC282F8009002F10C03C2E90A05C2E960
:1031800001445461C2E90844C2F81CC0C2E90333D7
:1031900086F80090F461B4623462F462746234635D
:1031A0007460D8F84030B46043EA0903C8F840308E
:1031B000D8F86030874D8848696243EA0903C8F847
:1031C0006030D8F860308268844BB36542EA090207
:1031D0004FF080434FF0A04CC6F854C0826005F118
:1031E0001C0C4FF0805242F2CF009862D9626846C0
:1031F0006D609C61AC605C632D61DC606D615C60E6
:10320000AC62C3F814906C67C3F8009087F81CA3F5
:103210000023C5F81CC0C7F88021C5F820C03A605B
:10322000002200912D60CDE90144CDE904230394EF
:10323000FDF736FE6846FDF7DBFE6949694A029BE9
:103240006B67DFF8ECE14C6101F10C03C1E901446B
:10325000C1F800E0C1E9033302EB0B0E02F12401D7
:10326000C2F810E051624FF01C0E02F13C0102F175
:103270002803C2F830E0D16302F1440E04215A4819
:103280009362C2F844E002F14003D1615163DFF878
:10329000A4C1DFF8A4E15549C5F838A0C5F86CA071
:1032A00013644FF0140A524B9460CCE900E154616E
:1032B000D462C2F818A01362936385F85140C5E93F
:1032C0001944C2E9002285F85290C268494B6969E5
:1032D000DFF868E1DFF868C12D644FF6FF0A02EA03
:1032E0000A02134305F13002C5E9111E0A61C360E9
:1032F000DCF80C3040496A6143F08073CCF80C3044
:103300000B68AA6143EA090305F15C0205F1580E56
:103310004FF0200AEC6485F850900B60C5F858E037
:1033200080F81FB0EA6580F822A02A6684F311882D
:1033300062B68AF31188314B6869314AC3F830218B
:1033400003F1B401C3F82411DFF8F8E02D4AC3F803
:103350002C0103F58C714FF0020BC3F81421C3F854
:10336000F840C3F82091C3F85491C3F85041C3F812
:103370004C4183F83A91C3F82851C3F83431C3F86B
:10338000F4E0A3F838B103F5A07201610846696161
:1033900003F5A271C3F84021C3F84411C3F84811E2
:1033A000FEF76EFB84F31188174B1848184A194929
:1033B000DA639C4648E000BF00E100E000640240A0
:1033C00008080020180D0020480D002016000100FC
:1033D00046000100A80D0020002004E098480008E5
:1033E000D00F0020200E002000ED00E000000220A1
:1033F000B10F00080003FA05001000E0680E00207D
:10340000BC4800082103000888080020104C000870
:1034100051180008F118000800600240E84B00084D
:10342000010F00080038024000440040003800400E
:10343000B10E0008C80F0020B0170020084800088F
:10344000F0ED00E0B111000803F10C024CF8040BA0
:1034500003F28C40D865596703F17C0003F52171B4
:1034600003F1440EC3E903224FF482729C6183F896
:10347000089083F81490C3F82CB0C3E90D4483F886
:103480004C90C3F850B0C3F864B0C3E91B441B644C
:103490009B67C3F804C0C3E9070018635962C3E916
:1034A00015119966C3E911EE9A621A668AF31188BA
:1034B0008749F361B362336283F808B0C3F88C14B0
:1034C00084F31188716DD1F8043843EA0B03C1F815
:1034D000043843F69820FEF703FD8AF31188337809
:1034E0007C4A72604B45C6E90344C6E905446BD08B
:1034F00002273770002484F31188726D764ED2F85B
:103500000438764823F00203C2F804384FF480618F
:1035100040F29A22FDF7F4FF304640F29A2204214D
:10352000FDF7EEFF40F29A220821FDF7E9FF37830D
:1035300039460122FDF7E4FF202383F31188684B0D
:103540006969684AC3F8942203F50D7003F5267281
:10355000C3F8A402DFF8ACE1634EC3F8B0624FF0E9
:10356000010C8120C3F8AC12C3F8A002C3F8D40246
:10357000C3F87842C3F8D042C3F8CC42A3F8B8727B
:10358000C3F8A852C3F8B432C3F874E283F8BAC2DD
:1035900003F530760A6103F531711046C3F8C06255
:1035A000C3F8C412C3F8C8126A61FEF769FA84F35B
:1035B00011884E4D4E4C41F28830FEF791FC294661
:1035C0002046FEF70DFDF6E7D8F83430D6F85490D3
:1035D000484943F08003C8F83430D8F8543043F0F9
:1035E0008003C8F85430D8F85430D8F8143043F079
:1035F0008003C8F81430D8F8143023F08003C8F8DA
:103600001430E023D8F8142087F843333A4A0823CB
:10361000C7F88831BB60C9F80C204FF40413C022EE
:10362000C9F80018C9F8004EC9F80020C9F83830A8
:10363000D9F81030002BFBDA0123C9F810300C2028
:10364000FDF7A6FDD9F8104014F00104FAD11220BC
:10365000FDF79EFDD9F81030002BFBDAD6E91503F3
:10366000996800230131C9F808304FF0FF3700EBAB
:10367000441201348C42C2F80039C2F81039C2F841
:103680000879C2F8003BC2F8103BC2F8087BEED1C3
:103690007268D2684FF00111C0F81C18C9F81038D0
:1036A000C9F81438C9F81C386AB1144BC9F8183075
:1036B0004FF0FF33C9F81430D9F8083043F0010354
:1036C000C9F8083014E70E4BC9F81830F0E700BF0E
:1036D0007C490008E44A0008000802400004024057
:1036E000C014002021030008C4480008CC4800088A
:1036F000880800200300200240140040083C30C02D
:10370000003C30C0C137000800000000000000008D
:10371000064A536823F001035360EFF309836833CB
:1037200083F30988002383F31188704730EF00E0AA
:1037300038B52022034682F31188104A9469A06AA2
:10374000636204F12805A84206D00368A362FDF76E
:10375000AFFCA06AA842F8D194F8223043B994F89B
:1037600021309B0704D1D4E904231A6122695361F3
:103770000F20BDE83840FEF7B3B900BFA80D002008
:103780000E4A1068036830B4012194695A6000251C
:1037900080F82010A1681360906184F8205000E048
:1037A0001B689A689142FBD35A682146C4E90032EB
:1037B00014605C6030BCFCF7A7BD00BFA80D002002
:1037C000DFF81C93B84CB94ADFF8F082B84E2DE907
:1037D0008848D9F8183004F10C079A61202383F344
:1037E00011886069D9F81850002800F03681AA685D
:1037F00083689A4210D990F820308260062B00F03E
:103800004881072B00F02E8133B9D0E900231A60DC
:1038100002685360FDF74CFCA64B03E09968AA6868
:10382000914202D31B68BB42F8D15A680620C5E911
:10383000003215605D606F62FEF752F9002383F37A
:103840001188202383F3118823789B4A6260012B1F
:1038500000F0C6809849D4E90A2322F4F04223F408
:10386000F043C4E90A230878002840F0B28022F42B
:10387000847223F48473C4E90A23E369088A1D6807
:103880004A8A25F0400540F4417042F007021D606D
:1038900018605A601A68022542F040021A604FF020
:1038A000000A25708AF311880520FEF769FB352090
:1038B000FEF766FB1520FEF763FB4FF47A70FEF708
:1038C0000FFB4FF0060B75837C4988F800B0012090
:1038D000FEF726FB4FF4087335837849758304207F
:1038E000C8F80030FEF71CFB35834FF47A70FEF702
:1038F000F7FA7583714988F800B00120FEF710FBD4
:1039000040F2022335836D4975830420C8F80030E6
:10391000FEF706FB6A4940F22B10FEF701FB3583E8
:103920004FF47A70FEF7DCFA758340F203236349A3
:10393000C8F800300420FEF7F3FA4FF0200B8BF3A9
:10394000118803235F49237040F22B10FDF730FAF2
:103950005D48FEF7D5FA8AF311884FF47A70358303
:10396000FEF7BEFA574A59495948FEF739FB42F269
:103970001070FEF7B5FAD9F818008BF31188E568D6
:10398000A3698363BD4265D0C16B4BB11A68934292
:1039900003D09268914238BF1146DB68002BF5D105
:1039A0002B68AA6B8160E36028465F60AF63C4E95F
:1039B0000552FDF77DFBD9F80020D9F81830926840
:1039C0009B689A4201D9FFF7DBFE002383F311883D
:1039D00004E742F4847243F48473C4E90A234CE795
:1039E0003C490320FDF78CF93B4920620420FDF798
:1039F00087F93A4B256A1A6AD5F800C06168606297
:103A000042F480421A621A6A0568B1F810E022F4A2
:103A100080401862186A186CE26940F480401864AB
:103A2000186E40F4804018660C321EF4006F1B6E56
:103A3000CCF80820AA603FF40EAFD4E90A2322F4A0
:103A4000F04223F4F04342F4205243F42053C4E9FB
:103A50000A2308E7C4F814A0B7E7AB6BAF63C4E967
:103A60000553EBE6D0E900310B600368D0F824C0C1
:103A70005960634602E099688A4247D81B689C45B2
:103A8000F9D1DCF80430C0E900C31860CCF80400B8
:103A9000C2E6D0E900310B60D0F824C00368E646E6
:103AA0005960634621E000BF180D002090490008CE
:103AB00000080240240D0020A8480008A01700209C
:103AC000A0490008BC100020200D0020CC4A0008AE
:103AD00088080020E1110008C111000800380240E8
:103AE000A80D002099688A4219D81B689C45F9D115
:103AF00071464B68AA68C0E9001318604860DCF89A
:103B0000080083689A423FF676AE85E69C46DCF86C
:103B10000430C0E900C31860CCF804007CE6194604
:103B2000E7E700BF00000000000000000000000008
:103B30007B4A7C481369DFF840C240F2FF110B4317
:103B40002DE9F04113611369774EDFF830E2774FCA
:103B5000774D784C23F4FF7323F00103136113694D
:103B6000136B0B431363136D0B4313656FF4A84181
:103B70000023D2F85080436081604FF6FF71C0F897
:103B80000CE0DFF8FC814161DFF8F8E107624FF4F7
:103B90001077C0F82480C0F800E077604FF0FF3065
:103BA000DFF8E4E1B0604FF08067C6F80CE07161C7
:103BB0004FF0400E3762604FC6F824E0376006F1E0
:103BC000A25606F5443606F5AA766B60A860EE604C
:103BD0004FF0C04669612E62584E6E62584E2E609C
:103BE000584D6360A060E56040F6FF756561564F13
:103BF000564E574D236263622560CCF80430554D14
:103C0000CCF8080004F5A054CCF80C30CCF8141013
:103C1000CCF82030CCF82430CCF800E0ACF5D03C27
:103C20007B60B860FB6079613B627B623B60736084
:103C30004FF08057B060F36071613362736233603C
:103C40004FF440466B60A860EB6069612B626B6269
:103C50002B606360A060E360616123626362236044
:103C60001764CCF80060136843F001031360136815
:103C70009D07FCD593682A4923F0030393608B6862
:103C800013F00C03FBD10A68254802F0F9020A6020
:103C90008B600B6843F480330B6003689C03FCD596
:103CA000436F1F4A43F001034367536F9907FCD5E5
:103CB000294B53601368294943F0807313604B68A4
:103CC0005A04FCD5164A13689B01FCD5244B2549A0
:103CD00091601A68244B9A4218D0244B40F2057226
:103CE0001A600F4A936843F002039360936803F0ED
:103CF0000C03082BFAD1536C43F480435364536E86
:103D000043F480435366536EBDE8F081184A194B63
:103D100012689A42E1D1154B40F205121A60E0E7B1
:103D200000380240000002400004024000005655E6
:103D300000080240000C0240802008000006060037
:103D40000180200255505500001402400018024026
:103D500000010055001C024008544007007000405C
:103D6000002004E00094883811640020003C0240E8
:103D700000ED00E041C20F4100100240540001403C
:103D800000AA0A0000AAA02A15455155000000000B
:103D90002DE9F047644D6E6FD6F80C803368DA0574
:103DA0009CB27DD4202383F3118814F02F0F45D0CB
:103DB0005E4F07F1080908E0A006D6F804A01ED45B
:103DC0003468A4B214F02F0F38D02307F4D014F0C5
:103DD000080F0CBF00218021E00748BF41F02001FF
:103DE000A20748BF41F04001630748BF41F480711A
:103DF0003846FDF79DF9A006D6F804A0E0D56B691A
:103E000095F8784083B3D5E90832934234D06A6993
:103E1000591C013204EA0A0A6A61296283F800A087
:103E2000D5E907329A4201D3AB692B624846FDF7C8
:103E30006FF93468A4B214F02F0FC6D1002383F3B6
:103E4000118818F0800F01D0220638D418F0400FE6
:103E500001D0630619D4EA6FD3680BB11069984793
:103E6000BDE8F047FDF76CB804213846FDF760F96E
:103E7000D5E908329342CAD16A69002AC7D04FF403
:103E800080613846FDF754F99AE7202383F31188BF
:103E9000D5E911239A422CD0002383F31188DAE765
:103EA000202383F311884FF40071281DFDF740F99A
:103EB0006FF480733360002383F3118872E720234B
:103EC00083F31188D5E911239A421FD0AA6B296C7C
:103ED000581C0132AA63A86488421F7801D3EB6B97
:103EE000AB641348FDF714F97760002383F311885E
:103EF000ACE7AB6B002BCFD010210C48FDF718F9C5
:103F00004FF6BF7308EA0303F360C5E7AA6B002A04
:103F1000DCD008210548FDF70BF94FF67F7308EA5E
:103F20000303F360E1E700BF080800200C0800204D
:103F30003808002000000000000000000000000021
:103F40002DE9F0474FF080473B699B0703D4BDE85C
:103F5000F047FCF7F5BF00213961202383F3118876
:103F60001D4CA146884659F81C3F9A68786AA16A98
:103F7000451A95421CD320261868D3F80CA011448A
:103F80004845A162A5EB0205C0F80490E061C3F8C2
:103F90000C8008BFC7F80C8088F311881869D047D7
:103FA00086F31188E3699A689542DFD3A16AE3E753
:103FB000E2694A4509D09168A0624D1B95609B68F3
:103FC000022B2CBFC01802307863002383F31188C2
:103FD000BDE8F047FCF7B4BFA80D002000000000CA
:103FE0002DE9F84FBE4E756D6C69AB691C4014F439
:103FF000805A6C6140F00681002C41DB220500F103
:10400000C280A3040CD5D5F8083813F0060FEB686E
:1040100023F470530CBF43F4105343F4A053EB60EC
:10402000270704D57368DB680BB1AD489847E002F9
:1040300062D4A20200F1B880E30639D42103D5F896
:1040400018580BD5EA0300F1AA81AB0300F1A38154
:104050006F0300F19C812E0300F1568164030BD5A0
:10406000E80700F19081A90700F183816A0700F158
:1040700086812B0700F13A81BDE8F84FFCF760BF5D
:10408000D5F8003E990740F0388196F850307268B4
:104090003370D5F80438126823F00103C5F80438EA
:1040A000002AABD005218E4890472205A9D56AE0A9
:1040B000706D026A02F4F013B3F5802FC2F30A1197
:1040C00002F00F0200F02781B3F5402FB6D106EBC6
:1040D0008202D3681E6A0029B0D0002200F5805009
:1040E00013469F0708BF0268072B03F1010340F244
:1040F0005A819942F5D1A1E7D6F854B0DFF8E091A2
:1041000000274FF0010806E0B36D01379B68FFB24E
:104110009F42BA468DD80BEB4712D2F8003903F410
:104120004023B3F5802FEFD1D2F80039002BEBDA22
:10413000D2F8003943F09043C2F80039D2F8003980
:10414000002BFBDB4FEA8A1A726D4AF020031361E1
:1041500013699906FCD41220FDF71AF806EB8703C1
:104160003289D96808FA07F3D1F808A022EA0303D4
:104170003381BAF1000F02D039464846D04738465D
:10418000FCF736FEC0E7327886F8502073680522C7
:1041900032701B68002B3FF434AF0421504898471D
:1041A000A3047FF53DAF2EE7D6F85480DFF830A1A9
:1041B00000274FF0010906E0B36D01379B68FFB29D
:1041C0009F423FF639AF08EB4712D2F8003B03F4A9
:1041D0004023B3F5802FEFD1D2F8003B002BEBDA70
:1041E00006EB87037289D96809FA07F3D1F80CB096
:1041F00022EA0303394650467381BBF1000FDBD03E
:10420000D847D9E70023C6E9023302212022F3640C
:10421000C6E90433B36186F8343031702A612C6901
:1042200014F02004FBD11220FCF7B2FFB76DC5F8E3
:104230003448B8684FF001130130C5F81C384FF00E
:1042400000614FF0FF3205EB441301348442C3F8A0
:104250000019C3F8001BC3F80829C3F8082BF2D1D2
:104260003B68F3653A68736D6A6210221A611C69D3
:1042700014F01004FBD11220FCF78AFFD5F80038A7
:104280007168F26D0F6823F4FE63C5F80038AB69FE
:1042900043F4402343F01003AB610923C5F8103801
:1042A000C5F814384FF0C043C5F8103B0D4BC5F8A6
:1042B000003BC5F81049C5F8003902F11003F36559
:1042C00042F48012084BAA62F360002F3FF4D4AE90
:1042D00021460348B847BDE8F84FFCF731BE00BFA0
:1042E000480D0020408000102C4800080320FDF7F6
:1042F0002FF8BDE8F84FFCF723BED5F8003E23F0B9
:104300000303C5F8003EC0E60320FDF7A9F86403E7
:104310007FF5B2AEA4E602F1020806EB88035B6803
:10432000D3F818C0DCE90137DCF80020A2EB030E5B
:10433000D1B14FF0000C00F5805063469A0708BFDA
:10434000D0F800C09E4503F1010304D987F800C0EE
:104350004FEA1C2C01379942F0D106EB88067368AE
:10436000D3F818C0DCE901370F440B44CCE901371E
:1043700064E60120FCF7ECFF6A077FF57AAE0220C5
:10438000FCF7E6FF75E60020FCF7E2FF6BE6022093
:10439000FDF766F85FE60120FDF762F858E60020B9
:1043A000FDF75EF851E63270120A0136A1E600BF51
:1043B000084B09485968C26F890D01F03D0110B5DD
:1043C0008C05DC6012B1D0F880009047BDE8104049
:1043D000FCF7B6BD00640240EC0F002000000000B6
:1043E000084B09485968426F090C01F03D0110B5AE
:1043F0000C04DC600AB1806F9047BDE81040FCF708
:104400009FBD00BF00640240EC0F002000000000D0
:10441000084B09485968C26E890901F03D0110B581
:104420008C01DC600AB1006F9047BDE81040FCF7DA
:1044300087BD00BF00640240EC0F002000000000B8
:1044400008B5074B07485968426E01F03D01D96035
:104450000AB1806E9047BDE80840FCF771BD00BF0F
:1044600000640240EC0F002000000000000000008B
:10447000084B09481968C26D890D01F03D0110B55E
:104480008C059C600AB1006E9047BDE81040FCF7B7
:1044900057BD00BF00640240EC0F00200000000088
:1044A000084B09481968426D090C01F03D0110B52F
:1044B0000C049C600AB1806D9047BDE81040FCF789
:1044C0003FBD00BF00640240EC0F00200000000070
:1044D000084B09481968C26C890901F03D0110B503
:1044E0008C019C600AB1006D9047BDE81040FCF75C
:1044F00027BD00BF00640240EC0F00200000000058
:1045000008B5074B07481968426C01F03D019960F6
:104510000AB1806C9047BDE80840FCF711BD00BFB0
:1045200000640240EC0F00200000000000000000CA
:10453000084B09485968C26B890D01F03D0110B55F
:104540008C05DC600AB1006C9047BDE81040FCF7B8
:10455000F7BC00BF00600240EC0F0020000000002C
:10456000084B09485968426B090C01F03D0110B530
:104570000C04DC600AB1806B9047BDE81040FCF78A
:10458000DFBC00BF00600240EC0F00200000000014
:10459000084B09485968C26A890901F03D0110B504
:1045A0008C01DC600AB1006B9047BDE81040FCF75D
:1045B000C7BC00BF00600240EC0F002000000000FC
:1045C00008B5074B07485968426A01F03D01D960B8
:1045D0000AB1806A9047BDE80840FCF7B1BC00BF53
:1045E00000600240EC0F002000000000000000000E
:1045F000084B09481968C269890D01F03D0110B5E1
:104600008C059C600AB1006A9047BDE81040FCF739
:1046100097BC00BF00600240EC0F002000000000CB
:10462000084B094819684269090C01F03D0110B5B1
:104630000C049C600AB180699047BDE81040FCF70B
:104640007FBC00BF00600240EC0F002000000000B3
:10465000084B09481968C268890901F03D0110B585
:104660008C019C600AB100699047BDE81040FCF7DE
:1046700067BC00BF00600240EC0F0020000000009B
:1046800008B5074B07481968426801F03D01996079
:104690000AB180689047BDE80840FCF751BC00BFF4
:1046A00000600240EC0F002000000000000000004D
:1046B000F0B4144E144D154C154B164906F1700C00
:1046C00000279C4211D904391A4651F8040F42F8C8
:1046D000040B9442F9D8DA43144424F0030404345C
:1046E00023449D4203D943F8047B9D42FBD8664591
:1046F00005D0D6E90413D6E906451036E1E7F0BC4B
:10470000704700BFFC480008AC170020AC17002021
:10471000AC170020444C000800000000000000001E
:10472000FEE700BF000000000000000000000000E5
:10473000704700BF00000000000000000000000003
:04474000704700BFFF
:1047440010600240086002400000000B2860024034
:10475400086002400006010C40600240086002400C
:104764000010020D58600240086002400016030E5B
:10477400706002400C6002400000040F8860024038
:104784000C60024000060510A06002400C6002406C
:1047940000100611B86002400C6002400016072F9A
:1047A4001064024008640240000008382864024093
:1047B400086402400006093940640240086402406B
:1047C40000100A3A586402400864024000160B3B89
:1047D400706402400C64024000000C3C8864024097
:1047E4000C64024000060D44A06402400C640240C4
:1047F40000100E45B86402400C64024000160F46D7
:10480400000000006D61696E001600300404440865
:104814000C1014181C20212200000000286E756C56
:104824006C290000FFFF0000000000008125000843
:1048340061160008D11500084000400074100020E3
:104844007410002001000000841000200200000009
:1048540000000000D1190008611800084000400061
:104864008C1000209C1000200200000000000000BA
:1048740003000000000000007117000800000000A1
:1048840010000000AC100020000000000100000037
:104894000000000080000000400100000300000050
:1048A40001000000000000000000000000080240B9
:1048B400010000001803000069646C65000000003A
:1048C4006E6F6E616D6500001B5B324A1B5B313B92
:1048D400314800000A00000064000000E803000002
:1048E40010270000A086010040420F008096980027
:1048F40000E1F50500CA9A3B444C0008AC170020BF
:10490400AC170020AC170020444C00080000002025
:104914000000002000000020444C000800C00120DA
:1049240000C0012000C00120444C00080000000029
:104934000000000000000000444C000800000010CB
:104944000000001000000010444C00080040024029
:104954000040024000400240444C000800000000B7
:104964000000000000000000444C000800000000AB
:104974000000000000000000480D002001010200BA
:10498400444D41206661696C75726500535049203D
:104994007468726561642031000000005468652009
:1049A40053544D33322048372D7365726965732033
:1049B400697320612067726F7570206F6620686963
:1049C400676820706572666F726D616E63652053EF
:1049D400544D3332206D6963726F636F6E74726FFE
:1049E4006C6C657273206261736564206F6E2074F1
:1049F40068652041524D20436F727465782D4D37A0
:104A04004620636F7265207769746820646F7562ED
:104A14006C652D707265636973696F6E20666C6F67
:104A24006174696E6720706F696E7420756E697445
:104A340020616E64206F7074696F6E616C207365A1
:104A4400636F6E6420436F727465782D4D34462015
:104A5400636F726520776974682073696E676C652B
:104A64002D707265636973696F6E20666C6F617413
:104A7400696E6720706F696E742E20436F7274655F
:104A8400782D4D374620636F72652063616E207206
:104A94006561636820776F726B696E672066726503
:104AA4007175656E637920757020746F20343830A9
:104AB400204D487A2C207768696C6520436F7274A6
:104AC40065782D4D344620005265636569766564CA
:104AD4002044617461203D202573200D0A000000EC
:104AE400E12E0008110F0008811700084119000881
:104AF40043000000FC4A000809024300020100C010
:104B0400320904000001020201000524001001051D
:104B14002401000104240202052406000107058281
:104B2400030800FF09040100020A00000007050150
:104B3400024000000705810240000000120000004E
:104B4400484B000812011001020000408304405742
:104B540000020102030100000403090426035300B8
:104B640054004D006900630072006F0065006C0022
:104B740065006300740072006F006E0069006300DA
:104B84007300000038034300680069006200690094
:104B94004F0053002F0052005400200056006900BB
:104BA40072007400750061006C00200043004F0027
:104BB4004D00200050006F0072007400080336009E
:104BC40030003000040000005C4B000826000000A8
:104BD400604B000838000000884B00080800000003
:104BE400C04B000800000000512A0008412B0008B7
:104BF400C11C0008411D0008B11C0008311D00083B
:104C0400412A0008312B0008C117000800000000E9
:104C1400412C0008412D0008111E0008D11E000877
:104C2400011E0008C11E0008312C0008312D0008A7
:084C3400D11700080000000088
:084C3C000096000000000800D2
:0400000508000301EB
:00000001FF
