Archive member included to satisfy reference by file (symbol)

c:/chibistudio/tools/gnu tools arm embedded/7.0 2017q4/bin/../lib/gcc/arm-none-eabi/7.2.1/thumb/v7e-m/fpv4-sp/hard\libgcc.a(_arm_addsubdf3.o)
                              C:\Users\AMANRA~1\AppData\Local\Temp\ccc7WNCX.ltrans0.ltrans.o (__aeabi_dsub)
c:/chibistudio/tools/gnu tools arm embedded/7.0 2017q4/bin/../lib/gcc/arm-none-eabi/7.2.1/thumb/v7e-m/fpv4-sp/hard\libgcc.a(_arm_muldivdf3.o)
                              C:\Users\AMANRA~1\AppData\Local\Temp\ccc7WNCX.ltrans0.ltrans.o (__aeabi_dmul)
c:/chibistudio/tools/gnu tools arm embedded/7.0 2017q4/bin/../lib/gcc/arm-none-eabi/7.2.1/thumb/v7e-m/fpv4-sp/hard\libgcc.a(_arm_fixdfsi.o)
                              C:\Users\AMANRA~1\AppData\Local\Temp\ccc7WNCX.ltrans0.ltrans.o (__aeabi_d2iz)
c:/chibistudio/tools/gnu tools arm embedded/7.0 2017q4/bin/../lib/gcc/arm-none-eabi/7.2.1/thumb/v7e-m/fpv4-sp/hard\libgcc.a(_arm_truncdfsf2.o)
                              C:\Users\AMANRA~1\AppData\Local\Temp\ccc7WNCX.ltrans0.ltrans.o (__aeabi_d2f)
c:/chibistudio/tools/gnu tools arm embedded/7.0 2017q4/bin/../lib/gcc/arm-none-eabi/7.2.1/../../../../arm-none-eabi/lib/thumb/v7e-m/fpv4-sp/hard\libg.a(lib_a-memcpy.o)
                              C:\Users\AMANRA~1\AppData\Local\Temp\ccc7WNCX.ltrans0.ltrans.o (memcpy)

Discarded input sections

 .data          0x00000000        0x0 ./build/obj/crt0_v7m.o
 .bss           0x00000000        0x0 ./build/obj/crt0_v7m.o
 .data          0x00000000        0x0 ./build/obj/vectors.o
 .bss           0x00000000        0x0 ./build/obj/vectors.o
 .data          0x00000000        0x0 ./build/obj/chcoreasm_v7m.o
 .bss           0x00000000        0x0 ./build/obj/chcoreasm_v7m.o
 .text          0x00000000        0x0 C:\Users\AMANRA~1\AppData\Local\Temp\ccc7WNCX.ltrans0.ltrans.o
 .data          0x00000000        0x0 C:\Users\AMANRA~1\AppData\Local\Temp\ccc7WNCX.ltrans0.ltrans.o
 .bss           0x00000000        0x0 C:\Users\AMANRA~1\AppData\Local\Temp\ccc7WNCX.ltrans0.ltrans.o
 .data          0x00000000        0x0 c:/chibistudio/tools/gnu tools arm embedded/7.0 2017q4/bin/../lib/gcc/arm-none-eabi/7.2.1/thumb/v7e-m/fpv4-sp/hard\libgcc.a(_arm_addsubdf3.o)
 .bss           0x00000000        0x0 c:/chibistudio/tools/gnu tools arm embedded/7.0 2017q4/bin/../lib/gcc/arm-none-eabi/7.2.1/thumb/v7e-m/fpv4-sp/hard\libgcc.a(_arm_addsubdf3.o)
 .data          0x00000000        0x0 c:/chibistudio/tools/gnu tools arm embedded/7.0 2017q4/bin/../lib/gcc/arm-none-eabi/7.2.1/thumb/v7e-m/fpv4-sp/hard\libgcc.a(_arm_muldivdf3.o)
 .bss           0x00000000        0x0 c:/chibistudio/tools/gnu tools arm embedded/7.0 2017q4/bin/../lib/gcc/arm-none-eabi/7.2.1/thumb/v7e-m/fpv4-sp/hard\libgcc.a(_arm_muldivdf3.o)
 .data          0x00000000        0x0 c:/chibistudio/tools/gnu tools arm embedded/7.0 2017q4/bin/../lib/gcc/arm-none-eabi/7.2.1/thumb/v7e-m/fpv4-sp/hard\libgcc.a(_arm_fixdfsi.o)
 .bss           0x00000000        0x0 c:/chibistudio/tools/gnu tools arm embedded/7.0 2017q4/bin/../lib/gcc/arm-none-eabi/7.2.1/thumb/v7e-m/fpv4-sp/hard\libgcc.a(_arm_fixdfsi.o)
 .data          0x00000000        0x0 c:/chibistudio/tools/gnu tools arm embedded/7.0 2017q4/bin/../lib/gcc/arm-none-eabi/7.2.1/thumb/v7e-m/fpv4-sp/hard\libgcc.a(_arm_truncdfsf2.o)
 .bss           0x00000000        0x0 c:/chibistudio/tools/gnu tools arm embedded/7.0 2017q4/bin/../lib/gcc/arm-none-eabi/7.2.1/thumb/v7e-m/fpv4-sp/hard\libgcc.a(_arm_truncdfsf2.o)
 .data          0x00000000        0x0 c:/chibistudio/tools/gnu tools arm embedded/7.0 2017q4/bin/../lib/gcc/arm-none-eabi/7.2.1/../../../../arm-none-eabi/lib/thumb/v7e-m/fpv4-sp/hard\libg.a(lib_a-memcpy.o)
Memory Configuration

Name             Origin             Length             Attributes
flash0           0x08000000         0x00100000
flash1           0x00000000         0x00000000
flash2           0x00000000         0x00000000
flash3           0x00000000         0x00000000
flash4           0x00000000         0x00000000
flash5           0x00000000         0x00000000
flash6           0x00000000         0x00000000
flash7           0x00000000         0x00000000
ram0             0x20000000         0x00020000
ram1             0x20000000         0x0001c000
ram2             0x2001c000         0x00004000
ram3             0x00000000         0x00000000
ram4             0x10000000         0x00010000
ram5             0x40024000         0x00001000
ram6             0x00000000         0x00000000
ram7             0x00000000         0x00000000
*default*        0x00000000         0xffffffff

Linker script and memory map

LOAD ./build/obj/crt0_v7m.o
LOAD ./build/obj/vectors.o
LOAD ./build/obj/chcoreasm_v7m.o
LOAD C:\Users\AMANRA~1\AppData\Local\Temp\ccc7WNCX.ltrans0.ltrans.o

.mstack         0x20000000      0x400
                0x20000000                . = ALIGN (0x8)
                0x20000000                __main_stack_base__ = .
                0x20000400                . = (. + __main_stack_size__)
 *fill*         0x20000000      0x400 
                0x20000400                . = ALIGN (0x8)
                0x20000400                __main_stack_end__ = .

.pstack         0x20000400      0x400
                0x20000400                . = ALIGN (0x8)
                0x20000400                __process_stack_base__ = .
                0x20000400                __main_thread_stack_base__ = .
                0x20000800                . = (. + __process_stack_size__)
 *fill*         0x20000400      0x400 
                0x20000800                . = ALIGN (0x8)
                0x20000800                __process_stack_end__ = .
                0x20000800                __main_thread_stack_end__ = .

.vectors        0x08000000      0x1e0
 *(.vectors)
 .vectors       0x08000000      0x1e0 ./build/obj/vectors.o
                0x08000000                _vectors

.xtors          0x080001e0        0x0
                0x080001e0                __init_array_start = .
 *(SORT_BY_NAME(.init_array.*))
 *(.init_array)
                0x080001e0                __init_array_end = .
                0x080001e0                __fini_array_start = .
 *(.fini_array)
 *(SORT_BY_NAME(.fini_array.*))
                0x080001e0                __fini_array_end = .

.text           0x080001e0     0x4564
                0x080001e0                __text_base = .
 *(.text)
 .text          0x080001e0      0x120 ./build/obj/crt0_v7m.o
                0x080001e0                _crt0_entry
 .text          0x08000300        0x8 ./build/obj/vectors.o
                0x08000300                Reset_Handler
                0x08000302                VectorE8
                0x08000302                Vector9C
                0x08000302                VectorAC
                0x08000302                DebugMon_Handler
                0x08000302                Vector1A0
                0x08000302                Vector5C
                0x08000302                Vector11C
                0x08000302                HardFault_Handler
                0x08000302                Vector1B8
                0x08000302                Vector19C
                0x08000302                Vector8C
                0x08000302                SysTick_Handler
                0x08000302                VectorDC
                0x08000302                PendSV_Handler
                0x08000302                Vector168
                0x08000302                NMI_Handler
                0x08000302                Vector110
                0x08000302                Vector1D8
                0x08000302                VectorC8
                0x08000302                Vector94
                0x08000302                VectorA8
                0x08000302                VectorB4
                0x08000302                Vector160
                0x08000302                Vector1B0
                0x08000302                UsageFault_Handler
                0x08000302                VectorEC
                0x08000302                Vector40
                0x08000302                VectorF8
                0x08000302                Vector108
                0x08000302                VectorBC
                0x08000302                Vector190
                0x08000302                Vector1C4
                0x08000302                Vector1CC
                0x08000302                Vector148
                0x08000302                Vector188
                0x08000302                Vector198
                0x08000302                Vector118
                0x08000302                Vector64
                0x08000302                Vector58
                0x08000302                VectorCC
                0x08000302                Vector54
                0x08000302                Vector98
                0x08000302                Vector138
                0x08000302                Vector24
                0x08000302                Vector1AC
                0x08000302                Vector178
                0x08000302                Vector1A4
                0x08000302                VectorD0
                0x08000302                Vector1B4
                0x08000302                Vector140
                0x08000302                VectorE4
                0x08000302                VectorC0
                0x08000302                Vector1C0
                0x08000302                Vector134
                0x08000302                Vector1D0
                0x08000302                VectorF0
                0x08000302                Vector13C
                0x08000302                Vector100
                0x08000302                VectorE0
                0x08000302                VectorF4
                0x08000302                MemManage_Handler
                0x08000302                VectorA0
                0x08000302                VectorC4
                0x08000302                Vector180
                0x08000302                Vector90
                0x08000302                Vector114
                0x08000302                Vector164
                0x08000302                Vector60
                0x08000302                Vector1C
                0x08000302                Vector1BC
                0x08000302                Vector1D4
                0x08000302                Vector17C
                0x08000302                Vector48
                0x08000302                Vector1A8
                0x08000302                Vector16C
                0x08000302                VectorD4
                0x08000302                Vector4C
                0x08000302                Vector144
                0x08000302                Vector15C
                0x08000302                Vector68
                0x08000302                Vector18C
                0x08000302                Vector170
                0x08000302                Vector88
                0x08000302                Vector104
                0x08000302                Vector184
                0x08000302                Vector10C
                0x08000302                BusFault_Handler
                0x08000302                Vector50
                0x08000302                Vector1C8
                0x08000302                Vector194
                0x08000302                Vector1DC
                0x08000302                Vector44
                0x08000302                Vector28
                0x08000302                VectorB8
                0x08000302                Vector34
                0x08000302                VectorA4
                0x08000302                Vector20
                0x08000302                Vector174
                0x08000306                _unhandled_exception
 .text          0x08000308       0x30 ./build/obj/chcoreasm_v7m.o
                0x08000308                _port_switch
                0x08000320                _port_thread_start
                0x08000330                _port_switch_from_isr
                0x08000334                _port_exit_from_isr
 .text          0x08000338      0x378 c:/chibistudio/tools/gnu tools arm embedded/7.0 2017q4/bin/../lib/gcc/arm-none-eabi/7.2.1/thumb/v7e-m/fpv4-sp/hard\libgcc.a(_arm_addsubdf3.o)
                0x08000338                __aeabi_drsub
                0x08000340                __aeabi_dsub
                0x08000340                __subdf3
                0x08000344                __aeabi_dadd
                0x08000344                __adddf3
                0x080005bc                __floatunsidf
                0x080005bc                __aeabi_ui2d
                0x080005dc                __floatsidf
                0x080005dc                __aeabi_i2d
                0x08000600                __aeabi_f2d
                0x08000600                __extendsfdf2
                0x08000644                __floatundidf
                0x08000644                __aeabi_ul2d
                0x08000654                __floatdidf
                0x08000654                __aeabi_l2d
 .text          0x080006b0      0x424 c:/chibistudio/tools/gnu tools arm embedded/7.0 2017q4/bin/../lib/gcc/arm-none-eabi/7.2.1/thumb/v7e-m/fpv4-sp/hard\libgcc.a(_arm_muldivdf3.o)
                0x080006b0                __aeabi_dmul
                0x080006b0                __muldf3
                0x08000904                __divdf3
                0x08000904                __aeabi_ddiv
 .text          0x08000ad4       0x50 c:/chibistudio/tools/gnu tools arm embedded/7.0 2017q4/bin/../lib/gcc/arm-none-eabi/7.2.1/thumb/v7e-m/fpv4-sp/hard\libgcc.a(_arm_fixdfsi.o)
                0x08000ad4                __aeabi_d2iz
                0x08000ad4                __fixdfsi
 .text          0x08000b24       0xa0 c:/chibistudio/tools/gnu tools arm embedded/7.0 2017q4/bin/../lib/gcc/arm-none-eabi/7.2.1/thumb/v7e-m/fpv4-sp/hard\libgcc.a(_arm_truncdfsf2.o)
                0x08000b24                __truncdfsf2
                0x08000b24                __aeabi_d2f
 .text          0x08000bc4      0x134 c:/chibistudio/tools/gnu tools arm embedded/7.0 2017q4/bin/../lib/gcc/arm-none-eabi/7.2.1/../../../../arm-none-eabi/lib/thumb/v7e-m/fpv4-sp/hard\libg.a(lib_a-memcpy.o)
                0x08000bc4                memcpy
 *(.text.*)
 *fill*         0x08000cf8        0x8 
 .text.dmaStreamAllocI.part.0.constprop.41
                0x08000d00       0xac C:\Users\AMANRA~1\AppData\Local\Temp\ccc7WNCX.ltrans0.ltrans.o
 *fill*         0x08000dac        0x4 
 .text.spi_lld_receive.constprop.34
                0x08000db0       0x40 C:\Users\AMANRA~1\AppData\Local\Temp\ccc7WNCX.ltrans0.ltrans.o
 .text.otg_txfifo_handler.constprop.21
                0x08000df0       0xa4 C:\Users\AMANRA~1\AppData\Local\Temp\ccc7WNCX.ltrans0.ltrans.o
 *fill*         0x08000e94        0xc 
 .text.chTMStartMeasurementX.constprop.6
                0x08000ea0        0xc C:\Users\AMANRA~1\AppData\Local\Temp\ccc7WNCX.ltrans0.ltrans.o
 *fill*         0x08000eac        0x4 
 .text.chCoreAllocAlignedWithOffset
                0x08000eb0       0x44 C:\Users\AMANRA~1\AppData\Local\Temp\ccc7WNCX.ltrans0.ltrans.o
 *fill*         0x08000ef4        0xc 
 .text.notify2  0x08000f00       0x10 C:\Users\AMANRA~1\AppData\Local\Temp\ccc7WNCX.ltrans0.ltrans.o
 .text.get_descriptor
                0x08000f10       0x30 C:\Users\AMANRA~1\AppData\Local\Temp\ccc7WNCX.ltrans0.ltrans.o
 .text._port_irq_epilogue
                0x08000f40       0x64 C:\Users\AMANRA~1\AppData\Local\Temp\ccc7WNCX.ltrans0.ltrans.o
 *fill*         0x08000fa4        0xc 
 .text.chCoreAllocAlignedI
                0x08000fb0       0x34 C:\Users\AMANRA~1\AppData\Local\Temp\ccc7WNCX.ltrans0.ltrans.o
 *fill*         0x08000fe4        0xc 
 .text.chTMStopMeasurementX
                0x08000ff0       0x44 C:\Users\AMANRA~1\AppData\Local\Temp\ccc7WNCX.ltrans0.ltrans.o
 *fill*         0x08001034        0xc 
 .text.wakeup   0x08001040       0x70 C:\Users\AMANRA~1\AppData\Local\Temp\ccc7WNCX.ltrans0.ltrans.o
 .text.chSchReadyI
                0x080010b0       0x28 C:\Users\AMANRA~1\AppData\Local\Temp\ccc7WNCX.ltrans0.ltrans.o
 *fill*         0x080010d8        0x8 
 .text.chThdDequeueAllI.constprop.61
                0x080010e0       0x24 C:\Users\AMANRA~1\AppData\Local\Temp\ccc7WNCX.ltrans0.ltrans.o
 *fill*         0x08001104        0xc 
 .text.chThdDequeueNextI.constprop.59
                0x08001110       0x18 C:\Users\AMANRA~1\AppData\Local\Temp\ccc7WNCX.ltrans0.ltrans.o
 *fill*         0x08001128        0x8 
 .text.chEvtBroadcastFlagsI
                0x08001130       0x58 C:\Users\AMANRA~1\AppData\Local\Temp\ccc7WNCX.ltrans0.ltrans.o
 *fill*         0x08001188        0x8 
 .text.chSysPolledDelayX
                0x08001190       0x14 C:\Users\AMANRA~1\AppData\Local\Temp\ccc7WNCX.ltrans0.ltrans.o
 *fill*         0x080011a4        0xc 
 .text._idle_thread
                0x080011b0        0x4 C:\Users\AMANRA~1\AppData\Local\Temp\ccc7WNCX.ltrans0.ltrans.o
 *fill*         0x080011b4        0xc 
 .text.spi_lld_serve_tx_interrupt
                0x080011c0       0x1c C:\Users\AMANRA~1\AppData\Local\Temp\ccc7WNCX.ltrans0.ltrans.o
 *fill*         0x080011dc        0x4 
 .text.spi_lld_serve_rx_interrupt
                0x080011e0       0xc0 C:\Users\AMANRA~1\AppData\Local\Temp\ccc7WNCX.ltrans0.ltrans.o
 .text.usb_lld_start_in
                0x080012a0       0xa8 C:\Users\AMANRA~1\AppData\Local\Temp\ccc7WNCX.ltrans0.ltrans.o
 *fill*         0x08001348        0x8 
 .text.otg_epin_handler.constprop.17
                0x08001350       0x88 C:\Users\AMANRA~1\AppData\Local\Temp\ccc7WNCX.ltrans0.ltrans.o
 *fill*         0x080013d8        0x8 
 .text.usb_lld_start_out
                0x080013e0       0x80 C:\Users\AMANRA~1\AppData\Local\Temp\ccc7WNCX.ltrans0.ltrans.o
 .text.otg_epout_handler.constprop.18
                0x08001460       0x98 C:\Users\AMANRA~1\AppData\Local\Temp\ccc7WNCX.ltrans0.ltrans.o
 *fill*         0x080014f8        0x8 
 .text._pal_lld_setgroupmode
                0x08001500       0xcc C:\Users\AMANRA~1\AppData\Local\Temp\ccc7WNCX.ltrans0.ltrans.o
 *fill*         0x080015cc        0x4 
 .text._usb_ep0out
                0x080015d0       0x90 C:\Users\AMANRA~1\AppData\Local\Temp\ccc7WNCX.ltrans0.ltrans.o
 .text._usb_ep0in
                0x08001660       0xd8 C:\Users\AMANRA~1\AppData\Local\Temp\ccc7WNCX.ltrans0.ltrans.o
 *fill*         0x08001738        0x8 
 .text.usbStartTransmitI
                0x08001740       0x28 C:\Users\AMANRA~1\AppData\Local\Temp\ccc7WNCX.ltrans0.ltrans.o
 *fill*         0x08001768        0x8 
 .text.sduInterruptTransmitted
                0x08001770        0x4 C:\Users\AMANRA~1\AppData\Local\Temp\ccc7WNCX.ltrans0.ltrans.o
 *fill*         0x08001774        0xc 
 .text.sduRequestsHook
                0x08001780       0x40 C:\Users\AMANRA~1\AppData\Local\Temp\ccc7WNCX.ltrans0.ltrans.o
 .text._ctl.lto_priv.70
                0x080017c0        0x4 C:\Users\AMANRA~1\AppData\Local\Temp\ccc7WNCX.ltrans0.ltrans.o
 *fill*         0x080017c4        0xc 
 .text._ctl     0x080017d0        0x4 C:\Users\AMANRA~1\AppData\Local\Temp\ccc7WNCX.ltrans0.ltrans.o
 *fill*         0x080017d4        0xc 
 .text.sdu_start_receive
                0x080017e0       0x64 C:\Users\AMANRA~1\AppData\Local\Temp\ccc7WNCX.ltrans0.ltrans.o
 *fill*         0x08001844        0xc 
 .text.ibnotify
                0x08001850        0x8 C:\Users\AMANRA~1\AppData\Local\Temp\ccc7WNCX.ltrans0.ltrans.o
 *fill*         0x08001858        0x8 
 .text.sduDataReceived
                0x08001860       0x6c C:\Users\AMANRA~1\AppData\Local\Temp\ccc7WNCX.ltrans0.ltrans.o
 *fill*         0x080018cc        0x4 
 .text.obqGetFullBufferI
                0x080018d0       0x1c C:\Users\AMANRA~1\AppData\Local\Temp\ccc7WNCX.ltrans0.ltrans.o
 *fill*         0x080018ec        0x4 
 .text.obnotify
                0x080018f0       0x44 C:\Users\AMANRA~1\AppData\Local\Temp\ccc7WNCX.ltrans0.ltrans.o
 *fill*         0x08001934        0xc 
 .text.sof_handler
                0x08001940       0x8c C:\Users\AMANRA~1\AppData\Local\Temp\ccc7WNCX.ltrans0.ltrans.o
 *fill*         0x080019cc        0x4 
 .text.sduDataTransmitted
                0x080019d0       0xa4 C:\Users\AMANRA~1\AppData\Local\Temp\ccc7WNCX.ltrans0.ltrans.o
 *fill*         0x08001a74        0xc 
 .text.chSchWakeupS.constprop.11
                0x08001a80       0x5c C:\Users\AMANRA~1\AppData\Local\Temp\ccc7WNCX.ltrans0.ltrans.o
 *fill*         0x08001adc        0x4 
 .text.chSchGoSleepS
                0x08001ae0       0x28 C:\Users\AMANRA~1\AppData\Local\Temp\ccc7WNCX.ltrans0.ltrans.o
 *fill*         0x08001b08        0x8 
 .text.chSchGoSleepTimeoutS
                0x08001b10      0x118 C:\Users\AMANRA~1\AppData\Local\Temp\ccc7WNCX.ltrans0.ltrans.o
 *fill*         0x08001c28        0x8 
 .text.chThdEnqueueTimeoutS
                0x08001c30       0x28 C:\Users\AMANRA~1\AppData\Local\Temp\ccc7WNCX.ltrans0.ltrans.o
 *fill*         0x08001c58        0x8 
 .text.oqPutTimeout
                0x08001c60       0x50 C:\Users\AMANRA~1\AppData\Local\Temp\ccc7WNCX.ltrans0.ltrans.o
 .text._putt.lto_priv.78
                0x08001cb0        0x8 C:\Users\AMANRA~1\AppData\Local\Temp\ccc7WNCX.ltrans0.ltrans.o
 *fill*         0x08001cb8        0x8 
 .text._put.lto_priv.82
                0x08001cc0        0xc C:\Users\AMANRA~1\AppData\Local\Temp\ccc7WNCX.ltrans0.ltrans.o
 *fill*         0x08001ccc        0x4 
 .text.iqGetTimeout
                0x08001cd0       0x54 C:\Users\AMANRA~1\AppData\Local\Temp\ccc7WNCX.ltrans0.ltrans.o
 *fill*         0x08001d24        0xc 
 .text._gett.lto_priv.76
                0x08001d30        0x8 C:\Users\AMANRA~1\AppData\Local\Temp\ccc7WNCX.ltrans0.ltrans.o
 *fill*         0x08001d38        0x8 
 .text._get.lto_priv.80
                0x08001d40        0xc C:\Users\AMANRA~1\AppData\Local\Temp\ccc7WNCX.ltrans0.ltrans.o
 *fill*         0x08001d4c        0x4 
 .text.obqGetEmptyBufferTimeoutS
                0x08001d50       0x34 C:\Users\AMANRA~1\AppData\Local\Temp\ccc7WNCX.ltrans0.ltrans.o
 *fill*         0x08001d84        0xc 
 .text.obqPutTimeout
                0x08001d90       0x64 C:\Users\AMANRA~1\AppData\Local\Temp\ccc7WNCX.ltrans0.ltrans.o
 *fill*         0x08001df4        0xc 
 .text._putt.lto_priv.79
                0x08001e00        0x8 C:\Users\AMANRA~1\AppData\Local\Temp\ccc7WNCX.ltrans0.ltrans.o
 *fill*         0x08001e08        0x8 
 .text._put.lto_priv.83
                0x08001e10        0xc C:\Users\AMANRA~1\AppData\Local\Temp\ccc7WNCX.ltrans0.ltrans.o
 *fill*         0x08001e1c        0x4 
 .text.ibqGetFullBufferTimeoutS
                0x08001e20       0x34 C:\Users\AMANRA~1\AppData\Local\Temp\ccc7WNCX.ltrans0.ltrans.o
 *fill*         0x08001e54        0xc 
 .text.ibqGetTimeout
                0x08001e60       0x5c C:\Users\AMANRA~1\AppData\Local\Temp\ccc7WNCX.ltrans0.ltrans.o
 *fill*         0x08001ebc        0x4 
 .text._gett.lto_priv.77
                0x08001ec0        0x8 C:\Users\AMANRA~1\AppData\Local\Temp\ccc7WNCX.ltrans0.ltrans.o
 *fill*         0x08001ec8        0x8 
 .text._get.lto_priv.81
                0x08001ed0        0xc C:\Users\AMANRA~1\AppData\Local\Temp\ccc7WNCX.ltrans0.ltrans.o
 *fill*         0x08001edc        0x4 
 .text.chThdSleep
                0x08001ee0       0x18 C:\Users\AMANRA~1\AppData\Local\Temp\ccc7WNCX.ltrans0.ltrans.o
 *fill*         0x08001ef8        0x8 
 .text.chThdSuspendTimeoutS.constprop.37
                0x08001f00       0x1c C:\Users\AMANRA~1\AppData\Local\Temp\ccc7WNCX.ltrans0.ltrans.o
 *fill*         0x08001f1c        0x4 
 .text.spiSend.constprop.35
                0x08001f20       0x54 C:\Users\AMANRA~1\AppData\Local\Temp\ccc7WNCX.ltrans0.ltrans.o
 *fill*         0x08001f74        0xc 
 .text.ReadSR   0x08001f80       0x58 C:\Users\AMANRA~1\AppData\Local\Temp\ccc7WNCX.ltrans0.ltrans.o
 *fill*         0x08001fd8        0x8 
 .text.chprintf
                0x08001fe0      0x59c C:\Users\AMANRA~1\AppData\Local\Temp\ccc7WNCX.ltrans0.ltrans.o
 *fill*         0x0800257c        0x4 
 .text._usb_ep0setup
                0x08002580      0x3f0 C:\Users\AMANRA~1\AppData\Local\Temp\ccc7WNCX.ltrans0.ltrans.o
 .text.oqWriteTimeout
                0x08002970       0xcc C:\Users\AMANRA~1\AppData\Local\Temp\ccc7WNCX.ltrans0.ltrans.o
 *fill*         0x08002a3c        0x4 
 .text._writet.lto_priv.74
                0x08002a40        0x8 C:\Users\AMANRA~1\AppData\Local\Temp\ccc7WNCX.ltrans0.ltrans.o
 *fill*         0x08002a48        0x8 
 .text._write.lto_priv.86
                0x08002a50        0xc C:\Users\AMANRA~1\AppData\Local\Temp\ccc7WNCX.ltrans0.ltrans.o
 *fill*         0x08002a5c        0x4 
 .text.iqReadTimeout
                0x08002a60       0xcc C:\Users\AMANRA~1\AppData\Local\Temp\ccc7WNCX.ltrans0.ltrans.o
 *fill*         0x08002b2c        0x4 
 .text._readt.lto_priv.72
                0x08002b30        0x8 C:\Users\AMANRA~1\AppData\Local\Temp\ccc7WNCX.ltrans0.ltrans.o
 *fill*         0x08002b38        0x8 
 .text._read.lto_priv.84
                0x08002b40        0xc C:\Users\AMANRA~1\AppData\Local\Temp\ccc7WNCX.ltrans0.ltrans.o
 *fill*         0x08002b4c        0x4 
 .text.obqWriteTimeout
                0x08002b50       0xd4 C:\Users\AMANRA~1\AppData\Local\Temp\ccc7WNCX.ltrans0.ltrans.o
 *fill*         0x08002c24        0xc 
 .text._writet.lto_priv.75
                0x08002c30        0x8 C:\Users\AMANRA~1\AppData\Local\Temp\ccc7WNCX.ltrans0.ltrans.o
 *fill*         0x08002c38        0x8 
 .text._write.lto_priv.87
                0x08002c40        0xc C:\Users\AMANRA~1\AppData\Local\Temp\ccc7WNCX.ltrans0.ltrans.o
 *fill*         0x08002c4c        0x4 
 .text.ibqReadTimeout
                0x08002c50       0xd8 C:\Users\AMANRA~1\AppData\Local\Temp\ccc7WNCX.ltrans0.ltrans.o
 *fill*         0x08002d28        0x8 
 .text._readt.lto_priv.73
                0x08002d30        0x8 C:\Users\AMANRA~1\AppData\Local\Temp\ccc7WNCX.ltrans0.ltrans.o
 *fill*         0x08002d38        0x8 
 .text._read.lto_priv.85
                0x08002d40        0xc C:\Users\AMANRA~1\AppData\Local\Temp\ccc7WNCX.ltrans0.ltrans.o
 *fill*         0x08002d4c        0x4 
 .text.usbInitEndpointI
                0x08002d50      0x18c C:\Users\AMANRA~1\AppData\Local\Temp\ccc7WNCX.ltrans0.ltrans.o
 *fill*         0x08002edc        0x4 
 .text.usb_event
                0x08002ee0       0xe0 C:\Users\AMANRA~1\AppData\Local\Temp\ccc7WNCX.ltrans0.ltrans.o
 .text.startup.main
                0x08002fc0      0x748 C:\Users\AMANRA~1\AppData\Local\Temp\ccc7WNCX.ltrans0.ltrans.o
                0x08002fc0                main
 *fill*         0x08003708        0x8 
 .text.SVC_Handler
                0x08003710       0x20 C:\Users\AMANRA~1\AppData\Local\Temp\ccc7WNCX.ltrans0.ltrans.o
                0x08003710                SVC_Handler
 .text.chThdExit
                0x08003730       0x50 C:\Users\AMANRA~1\AppData\Local\Temp\ccc7WNCX.ltrans0.ltrans.o
                0x08003730                chThdExit
 .text.chSchDoRescheduleAhead
                0x08003780       0x40 C:\Users\AMANRA~1\AppData\Local\Temp\ccc7WNCX.ltrans0.ltrans.o
                0x08003780                chSchDoReschedule
 .text.spi_thread_1
                0x080037c0      0x364 C:\Users\AMANRA~1\AppData\Local\Temp\ccc7WNCX.ltrans0.ltrans.o
 *fill*         0x08003b24        0xc 
 .text.__early_init
                0x08003b30      0x25c C:\Users\AMANRA~1\AppData\Local\Temp\ccc7WNCX.ltrans0.ltrans.o
                0x08003b30                __early_init
 *fill*         0x08003d8c        0x4 
 .text.VectorD8
                0x08003d90      0x1a4 C:\Users\AMANRA~1\AppData\Local\Temp\ccc7WNCX.ltrans0.ltrans.o
                0x08003d90                VectorD8
 *fill*         0x08003f34        0xc 
 .text.VectorB0
                0x08003f40       0x9c C:\Users\AMANRA~1\AppData\Local\Temp\ccc7WNCX.ltrans0.ltrans.o
                0x08003f40                VectorB0
 *fill*         0x08003fdc        0x4 
 .text.Vector14C
                0x08003fe0      0x3d0 C:\Users\AMANRA~1\AppData\Local\Temp\ccc7WNCX.ltrans0.ltrans.o
                0x08003fe0                Vector14C
 .text.Vector158
                0x080043b0       0x2c C:\Users\AMANRA~1\AppData\Local\Temp\ccc7WNCX.ltrans0.ltrans.o
                0x080043b0                Vector158
 *fill*         0x080043dc        0x4 
 .text.Vector154
                0x080043e0       0x2c C:\Users\AMANRA~1\AppData\Local\Temp\ccc7WNCX.ltrans0.ltrans.o
                0x080043e0                Vector154
 *fill*         0x0800440c        0x4 
 .text.Vector150
                0x08004410       0x2c C:\Users\AMANRA~1\AppData\Local\Temp\ccc7WNCX.ltrans0.ltrans.o
                0x08004410                Vector150
 *fill*         0x0800443c        0x4 
 .text.Vector130
                0x08004440       0x28 C:\Users\AMANRA~1\AppData\Local\Temp\ccc7WNCX.ltrans0.ltrans.o
                0x08004440                Vector130
 *fill*         0x08004468        0x8 
 .text.Vector12C
                0x08004470       0x2c C:\Users\AMANRA~1\AppData\Local\Temp\ccc7WNCX.ltrans0.ltrans.o
                0x08004470                Vector12C
 *fill*         0x0800449c        0x4 
 .text.Vector128
                0x080044a0       0x2c C:\Users\AMANRA~1\AppData\Local\Temp\ccc7WNCX.ltrans0.ltrans.o
                0x080044a0                Vector128
 *fill*         0x080044cc        0x4 
 .text.Vector124
                0x080044d0       0x2c C:\Users\AMANRA~1\AppData\Local\Temp\ccc7WNCX.ltrans0.ltrans.o
                0x080044d0                Vector124
 *fill*         0x080044fc        0x4 
 .text.Vector120
                0x08004500       0x28 C:\Users\AMANRA~1\AppData\Local\Temp\ccc7WNCX.ltrans0.ltrans.o
                0x08004500                Vector120
 *fill*         0x08004528        0x8 
 .text.VectorFC
                0x08004530       0x2c C:\Users\AMANRA~1\AppData\Local\Temp\ccc7WNCX.ltrans0.ltrans.o
                0x08004530                VectorFC
 *fill*         0x0800455c        0x4 
 .text.Vector84
                0x08004560       0x2c C:\Users\AMANRA~1\AppData\Local\Temp\ccc7WNCX.ltrans0.ltrans.o
                0x08004560                Vector84
 *fill*         0x0800458c        0x4 
 .text.Vector80
                0x08004590       0x2c C:\Users\AMANRA~1\AppData\Local\Temp\ccc7WNCX.ltrans0.ltrans.o
                0x08004590                Vector80
 *fill*         0x080045bc        0x4 
 .text.Vector7C
                0x080045c0       0x28 C:\Users\AMANRA~1\AppData\Local\Temp\ccc7WNCX.ltrans0.ltrans.o
                0x080045c0                Vector7C
 *fill*         0x080045e8        0x8 
 .text.Vector78
                0x080045f0       0x2c C:\Users\AMANRA~1\AppData\Local\Temp\ccc7WNCX.ltrans0.ltrans.o
                0x080045f0                Vector78
 *fill*         0x0800461c        0x4 
 .text.Vector74
                0x08004620       0x2c C:\Users\AMANRA~1\AppData\Local\Temp\ccc7WNCX.ltrans0.ltrans.o
                0x08004620                Vector74
 *fill*         0x0800464c        0x4 
 .text.Vector70
                0x08004650       0x2c C:\Users\AMANRA~1\AppData\Local\Temp\ccc7WNCX.ltrans0.ltrans.o
                0x08004650                Vector70
 *fill*         0x0800467c        0x4 
 .text.Vector6C
                0x08004680       0x28 C:\Users\AMANRA~1\AppData\Local\Temp\ccc7WNCX.ltrans0.ltrans.o
                0x08004680                Vector6C
 *fill*         0x080046a8        0x8 
 .text.__init_ram_areas
                0x080046b0       0x68 C:\Users\AMANRA~1\AppData\Local\Temp\ccc7WNCX.ltrans0.ltrans.o
                0x080046b0                __init_ram_areas
 *fill*         0x08004718        0x8 
 .text.__default_exit
                0x08004720        0x4 C:\Users\AMANRA~1\AppData\Local\Temp\ccc7WNCX.ltrans0.ltrans.o
                0x08004720                __default_exit
 *fill*         0x08004724        0xc 
 .text.__late_init
                0x08004730        0x4 C:\Users\AMANRA~1\AppData\Local\Temp\ccc7WNCX.ltrans0.ltrans.o
                0x08004730                __late_init
 *fill*         0x08004734        0xc 
 .text.__core_init
                0x08004740        0x4 C:\Users\AMANRA~1\AppData\Local\Temp\ccc7WNCX.ltrans0.ltrans.o
                0x08004740                __core_init
 *(.glue_7t)
 .glue_7t       0x08004744        0x0 linker stubs
 *(.glue_7)
 .glue_7        0x08004744        0x0 linker stubs
 *(.gcc*)
                0x08004744                __text_end = .

.vfp11_veneer   0x08004744        0x0
 .vfp11_veneer  0x08004744        0x0 linker stubs

.v4_bx          0x08004744        0x0
 .v4_bx         0x08004744        0x0 linker stubs

.iplt           0x08004744        0x0
 .iplt          0x08004744        0x0 ./build/obj/crt0_v7m.o

.rodata         0x08004744      0x4f8
                0x08004744                __rodata_base__ = .
 *(.rodata)
 *(.rodata.*)
 .rodata._stm32_dma_streams
                0x08004744       0xc0 C:\Users\AMANRA~1\AppData\Local\Temp\ccc7WNCX.ltrans0.ltrans.o
 .rodata.active_status
                0x08004804        0x2 C:\Users\AMANRA~1\AppData\Local\Temp\ccc7WNCX.ltrans0.ltrans.o
 *fill*         0x08004806        0x2 
 .rodata.ch_debug
                0x08004808       0x16 C:\Users\AMANRA~1\AppData\Local\Temp\ccc7WNCX.ltrans0.ltrans.o
 *fill*         0x0800481e        0x2 
 .rodata.chprintf.str1.4
                0x08004820        0x7 C:\Users\AMANRA~1\AppData\Local\Temp\ccc7WNCX.ltrans0.ltrans.o
 *fill*         0x08004827        0x1 
 .rodata.dummytx
                0x08004828        0x2 C:\Users\AMANRA~1\AppData\Local\Temp\ccc7WNCX.ltrans0.ltrans.o
 *fill*         0x0800482a        0x2 
 .rodata.ep0config
                0x0800482c       0x24 C:\Users\AMANRA~1\AppData\Local\Temp\ccc7WNCX.ltrans0.ltrans.o
 .rodata.ep1config
                0x08004850       0x24 C:\Users\AMANRA~1\AppData\Local\Temp\ccc7WNCX.ltrans0.ltrans.o
 .rodata.ep2config
                0x08004874       0x24 C:\Users\AMANRA~1\AppData\Local\Temp\ccc7WNCX.ltrans0.ltrans.o
 .rodata.fsparams
                0x08004898        0xc C:\Users\AMANRA~1\AppData\Local\Temp\ccc7WNCX.ltrans0.ltrans.o
 .rodata.halted_status
                0x080048a4        0x2 C:\Users\AMANRA~1\AppData\Local\Temp\ccc7WNCX.ltrans0.ltrans.o
 *fill*         0x080048a6        0x2 
 .rodata.hs_spicfg
                0x080048a8       0x14 C:\Users\AMANRA~1\AppData\Local\Temp\ccc7WNCX.ltrans0.ltrans.o
 .rodata.main.str1.4
                0x080048bc       0x1b C:\Users\AMANRA~1\AppData\Local\Temp\ccc7WNCX.ltrans0.ltrans.o
 *fill*         0x080048d7        0x1 
 .rodata.pow10  0x080048d8       0x24 C:\Users\AMANRA~1\AppData\Local\Temp\ccc7WNCX.ltrans0.ltrans.o
 .rodata.ram_areas
                0x080048fc       0x80 C:\Users\AMANRA~1\AppData\Local\Temp\ccc7WNCX.ltrans0.ltrans.o
 .rodata.serusbcfg
                0x0800497c        0x8 C:\Users\AMANRA~1\AppData\Local\Temp\ccc7WNCX.ltrans0.ltrans.o
 .rodata.spi_lld_serve_tx_interrupt.str1.4
                0x08004984        0xc C:\Users\AMANRA~1\AppData\Local\Temp\ccc7WNCX.ltrans0.ltrans.o
 .rodata.spi_thread_1.str1.4
                0x08004990      0x154 C:\Users\AMANRA~1\AppData\Local\Temp\ccc7WNCX.ltrans0.ltrans.o
                                0x152 (size before relaxing)
 .rodata.usbcfg
                0x08004ae4       0x10 C:\Users\AMANRA~1\AppData\Local\Temp\ccc7WNCX.ltrans0.ltrans.o
 .rodata.vcom_configuration_descriptor
                0x08004af4        0x8 C:\Users\AMANRA~1\AppData\Local\Temp\ccc7WNCX.ltrans0.ltrans.o
 .rodata.vcom_configuration_descriptor_data
                0x08004afc       0x43 C:\Users\AMANRA~1\AppData\Local\Temp\ccc7WNCX.ltrans0.ltrans.o
 *fill*         0x08004b3f        0x1 
 .rodata.vcom_device_descriptor
                0x08004b40        0x8 C:\Users\AMANRA~1\AppData\Local\Temp\ccc7WNCX.ltrans0.ltrans.o
 .rodata.vcom_device_descriptor_data
                0x08004b48       0x12 C:\Users\AMANRA~1\AppData\Local\Temp\ccc7WNCX.ltrans0.ltrans.o
 *fill*         0x08004b5a        0x2 
 .rodata.vcom_string0
                0x08004b5c        0x4 C:\Users\AMANRA~1\AppData\Local\Temp\ccc7WNCX.ltrans0.ltrans.o
 .rodata.vcom_string1
                0x08004b60       0x26 C:\Users\AMANRA~1\AppData\Local\Temp\ccc7WNCX.ltrans0.ltrans.o
 *fill*         0x08004b86        0x2 
 .rodata.vcom_string2
                0x08004b88       0x38 C:\Users\AMANRA~1\AppData\Local\Temp\ccc7WNCX.ltrans0.ltrans.o
 .rodata.vcom_string3
                0x08004bc0        0x8 C:\Users\AMANRA~1\AppData\Local\Temp\ccc7WNCX.ltrans0.ltrans.o
 .rodata.vcom_strings
                0x08004bc8       0x20 C:\Users\AMANRA~1\AppData\Local\Temp\ccc7WNCX.ltrans0.ltrans.o
 .rodata.vmt.lto_priv.68
                0x08004be8       0x28 C:\Users\AMANRA~1\AppData\Local\Temp\ccc7WNCX.ltrans0.ltrans.o
 .rodata.vmt.lto_priv.69
                0x08004c10       0x28 C:\Users\AMANRA~1\AppData\Local\Temp\ccc7WNCX.ltrans0.ltrans.o
 .rodata.zero_status
                0x08004c38        0x2 C:\Users\AMANRA~1\AppData\Local\Temp\ccc7WNCX.ltrans0.ltrans.o
                0x08004c3c                . = ALIGN (0x4)
 *fill*         0x08004c3a        0x2 
                0x08004c3c                __rodata_end__ = .

.rel.dyn        0x08004c3c        0x0
 .rel.iplt      0x08004c3c        0x0 ./build/obj/crt0_v7m.o

.ARM.extab
 *(.ARM.extab* .gnu.linkonce.armextab.*)

.ARM.exidx      0x08004c3c        0x0
                0x08004c3c                __exidx_start = .
 *(.ARM.exidx* .gnu.linkonce.armexidx.*)
                0x08004c3c                __exidx_end = .

.eh_frame_hdr
 *(.eh_frame_hdr)

.eh_frame
 *(.eh_frame)

.data           0x20000800        0x8 load address 0x08004c3c
                [!provide]                PROVIDE (_textdata, LOADADDR (.data))
                [!provide]                PROVIDE (_data, .)
                0x08004c3c                _textdata_start = LOADADDR (.data)
                0x20000800                _data_start = .
 *(.data)
 *(.data.*)
 .data.linecoding
                0x20000800        0x7 C:\Users\AMANRA~1\AppData\Local\Temp\ccc7WNCX.ltrans0.ltrans.o
 *(.ramtext)
                0x20000808                . = ALIGN (0x4)
 *fill*         0x20000807        0x1 
                [!provide]                PROVIDE (_edata, .)
                0x20000808                _data_end = .

.igot.plt       0x20000808        0x0 load address 0x08004c44
 .igot.plt      0x20000808        0x0 ./build/obj/crt0_v7m.o

.bss            0x20000808      0xfa4 load address 0x08004c44
                0x20000808                _bss_start = .
 *(.bss)
 *(.bss.*)
 .bss.SD2       0x20000808       0x80 C:\Users\AMANRA~1\AppData\Local\Temp\ccc7WNCX.ltrans0.ltrans.o
 .bss.SDU1      0x20000888      0x490 C:\Users\AMANRA~1\AppData\Local\Temp\ccc7WNCX.ltrans0.ltrans.o
 .bss.SPID2     0x20000d18       0x30 C:\Users\AMANRA~1\AppData\Local\Temp\ccc7WNCX.ltrans0.ltrans.o
 .bss.USBD1     0x20000d48       0x60 C:\Users\AMANRA~1\AppData\Local\Temp\ccc7WNCX.ltrans0.ltrans.o
 .bss.ch        0x20000da8       0x78 C:\Users\AMANRA~1\AppData\Local\Temp\ccc7WNCX.ltrans0.ltrans.o
 .bss.ch_factory
                0x20000e20       0x48 C:\Users\AMANRA~1\AppData\Local\Temp\ccc7WNCX.ltrans0.ltrans.o
 .bss.ch_idle_thread_wa
                0x20000e68      0x160 C:\Users\AMANRA~1\AppData\Local\Temp\ccc7WNCX.ltrans0.ltrans.o
 .bss.ch_memcore
                0x20000fc8        0x8 C:\Users\AMANRA~1\AppData\Local\Temp\ccc7WNCX.ltrans0.ltrans.o
 .bss.default_heap
                0x20000fd0       0x1c C:\Users\AMANRA~1\AppData\Local\Temp\ccc7WNCX.ltrans0.ltrans.o
 .bss.dma       0x20000fec       0x84 C:\Users\AMANRA~1\AppData\Local\Temp\ccc7WNCX.ltrans0.ltrans.o
 .bss.dummyrx   0x20001070        0x2 C:\Users\AMANRA~1\AppData\Local\Temp\ccc7WNCX.ltrans0.ltrans.o
 *fill*         0x20001072        0x2 
 .bss.ep0_state
                0x20001074       0x10 C:\Users\AMANRA~1\AppData\Local\Temp\ccc7WNCX.ltrans0.ltrans.o
 .bss.ep0setup_buffer
                0x20001084        0x8 C:\Users\AMANRA~1\AppData\Local\Temp\ccc7WNCX.ltrans0.ltrans.o
 .bss.ep1instate
                0x2000108c       0x10 C:\Users\AMANRA~1\AppData\Local\Temp\ccc7WNCX.ltrans0.ltrans.o
 .bss.ep1outstate
                0x2000109c       0x10 C:\Users\AMANRA~1\AppData\Local\Temp\ccc7WNCX.ltrans0.ltrans.o
 .bss.ep2instate
                0x200010ac       0x10 C:\Users\AMANRA~1\AppData\Local\Temp\ccc7WNCX.ltrans0.ltrans.o
 .bss.rx_buf    0x200010bc      0x401 C:\Users\AMANRA~1\AppData\Local\Temp\ccc7WNCX.ltrans0.ltrans.o
 *fill*         0x200014bd        0x3 
 .bss.spi_thread_1_wa
                0x200014c0      0x2e0 C:\Users\AMANRA~1\AppData\Local\Temp\ccc7WNCX.ltrans0.ltrans.o
 .bss.tx_buf    0x200017a0        0xa C:\Users\AMANRA~1\AppData\Local\Temp\ccc7WNCX.ltrans0.ltrans.o
 *(COMMON)
                0x200017ac                . = ALIGN (0x4)
 *fill*         0x200017aa        0x2 
                0x200017ac                _bss_end = .
                [!provide]                PROVIDE (end, .)
                0x20000000                __ram0_start__ = ORIGIN (ram0)
                0x00020000                __ram0_size__ = LENGTH (ram0)
                0x20020000                __ram0_end__ = (__ram0_start__ + __ram0_size__)
                0x20000000                __ram1_start__ = ORIGIN (ram1)
                0x0001c000                __ram1_size__ = LENGTH (ram1)
                0x2001c000                __ram1_end__ = (__ram1_start__ + __ram1_size__)
                0x2001c000                __ram2_start__ = ORIGIN (ram2)
                0x00004000                __ram2_size__ = LENGTH (ram2)
                0x20020000                __ram2_end__ = (__ram2_start__ + __ram2_size__)
                0x00000000                __ram3_start__ = ORIGIN (ram3)
                0x00000000                __ram3_size__ = LENGTH (ram3)
                0x00000000                __ram3_end__ = (__ram3_start__ + __ram3_size__)
                0x10000000                __ram4_start__ = ORIGIN (ram4)
                0x00010000                __ram4_size__ = LENGTH (ram4)
                0x10010000                __ram4_end__ = (__ram4_start__ + __ram4_size__)
                0x40024000                __ram5_start__ = ORIGIN (ram5)
                0x00001000                __ram5_size__ = LENGTH (ram5)
                0x40025000                __ram5_end__ = (__ram5_start__ + __ram5_size__)
                0x00000000                __ram6_start__ = ORIGIN (ram6)
                0x00000000                __ram6_size__ = LENGTH (ram6)
                0x00000000                __ram6_end__ = (__ram6_start__ + __ram6_size__)
                0x00000000                __ram7_start__ = ORIGIN (ram7)
                0x00000000                __ram7_size__ = LENGTH (ram7)
                0x00000000                __ram7_end__ = (__ram7_start__ + __ram7_size__)
                0x08000000                __flash0_start__ = ORIGIN (flash0)
                0x00100000                __flash0_size__ = LENGTH (flash0)
                0x08100000                __flash0_end__ = (__flash0_start__ + __flash0_size__)
                0x00000000                __flash1_start__ = ORIGIN (flash1)
                0x00000000                __flash1_size__ = LENGTH (flash1)
                0x00000000                __flash1_end__ = (__flash1_start__ + __flash1_size__)
                0x00000000                __flash2_start__ = ORIGIN (flash2)
                0x00000000                __flash2_size__ = LENGTH (flash2)
                0x00000000                __flash2_end__ = (__flash2_start__ + __flash2_size__)
                0x00000000                __flash3_start__ = ORIGIN (flash3)
                0x00000000                __flash3_size__ = LENGTH (flash3)
                0x00000000                __flash3_end__ = (__flash3_start__ + __flash3_size__)
                0x00000000                __flash4_start__ = ORIGIN (flash4)
                0x00000000                __flash4_size__ = LENGTH (flash4)
                0x00000000                __flash4_end__ = (__flash4_start__ + __flash4_size__)
                0x00000000                __flash5_start__ = ORIGIN (flash5)
                0x00000000                __flash5_size__ = LENGTH (flash5)
                0x00000000                __flash5_end__ = (__flash5_start__ + __flash5_size__)
                0x00000000                __flash6_start__ = ORIGIN (flash6)
                0x00000000                __flash6_size__ = LENGTH (flash6)
                0x00000000                __flash6_end__ = (__flash6_start__ + __flash6_size__)
                0x00000000                __flash7_start__ = ORIGIN (flash7)
                0x00000000                __flash7_size__ = LENGTH (flash7)
                0x00000000                __flash7_end__ = (__flash7_start__ + __flash7_size__)

.ram0_init      0x200017ac        0x0 load address 0x08004c44
                0x08004c44                __ram0_init_text__ = LOADADDR (.ram0_init)
                0x200017ac                __ram0_init__ = .
 *(.ram0_init)
 *(.ram0_init.*)
                0x200017ac                . = ALIGN (0x4)

.ram0           0x200017ac        0x0 load address 0x08004c44
                0x200017ac                __ram0_clear__ = .
 *(.ram0_clear)
 *(.ram0_clear.*)
                0x200017ac                . = ALIGN (0x4)
                0x200017ac                __ram0_noinit__ = .
 *(.ram0)
 *(.ram0.*)
                0x200017ac                . = ALIGN (0x4)
                0x200017ac                __ram0_free__ = .

.ram1_init      0x20000000        0x0 load address 0x08004c44
                0x08004c44                __ram1_init_text__ = LOADADDR (.ram1_init)
                0x20000000                __ram1_init__ = .
 *(.ram1_init)
 *(.ram1_init.*)
                0x20000000                . = ALIGN (0x4)

.ram1           0x20000000        0x0 load address 0x08004c44
                0x20000000                __ram1_clear__ = .
 *(.ram1_clear)
 *(.ram1_clear.*)
                0x20000000                . = ALIGN (0x4)
                0x20000000                __ram1_noinit__ = .
 *(.ram1)
 *(.ram1.*)
                0x20000000                . = ALIGN (0x4)
                0x20000000                __ram1_free__ = .

.ram2_init      0x2001c000        0x0 load address 0x08004c44
                0x08004c44                __ram2_init_text__ = LOADADDR (.ram2_init)
                0x2001c000                __ram2_init__ = .
 *(.ram2_init)
 *(.ram2_init.*)
                0x2001c000                . = ALIGN (0x4)

.ram2           0x2001c000        0x0 load address 0x08004c44
                0x2001c000                __ram2_clear__ = .
 *(.ram2_clear)
 *(.ram2_clear.*)
                0x2001c000                . = ALIGN (0x4)
                0x2001c000                __ram2_noinit__ = .
 *(.ram2)
 *(.ram2.*)
                0x2001c000                . = ALIGN (0x4)
                0x2001c000                __ram2_free__ = .

.ram3_init      0x00000000        0x0 load address 0x08004c44
                0x08004c44                __ram3_init_text__ = LOADADDR (.ram3_init)
                0x00000000                __ram3_init__ = .
 *(.ram3_init)
 *(.ram3_init.*)
                0x00000000                . = ALIGN (0x4)

.ram3           0x00000000        0x0 load address 0x08004c44
                0x00000000                __ram3_clear__ = .
 *(.ram3_clear)
 *(.ram3_clear.*)
                0x00000000                . = ALIGN (0x4)
                0x00000000                __ram3_noinit__ = .
 *(.ram3)
 *(.ram3.*)
                0x00000000                . = ALIGN (0x4)
                0x00000000                __ram3_free__ = .

.ram4_init      0x10000000        0x0 load address 0x08004c44
                0x08004c44                __ram4_init_text__ = LOADADDR (.ram4_init)
                0x10000000                __ram4_init__ = .
 *(.ram4_init)
 *(.ram4_init.*)
                0x10000000                . = ALIGN (0x4)

.ram4           0x10000000        0x0 load address 0x08004c44
                0x10000000                __ram4_clear__ = .
 *(.ram4_clear)
 *(.ram4_clear.*)
                0x10000000                . = ALIGN (0x4)
                0x10000000                __ram4_noinit__ = .
 *(.ram4)
 *(.ram4.*)
                0x10000000                . = ALIGN (0x4)
                0x10000000                __ram4_free__ = .

.ram5_init      0x40024000        0x0 load address 0x08004c44
                0x08004c44                __ram5_init_text__ = LOADADDR (.ram5_init)
                0x40024000                __ram5_init__ = .
 *(.ram5_init)
 *(.ram5_init.*)
                0x40024000                . = ALIGN (0x4)

.ram5           0x40024000        0x0 load address 0x08004c44
                0x40024000                __ram5_clear__ = .
 *(.ram5_clear)
 *(.ram5_clear.*)
                0x40024000                . = ALIGN (0x4)
                0x40024000                __ram5_noinit__ = .
 *(.ram5)
 *(.ram5.*)
                0x40024000                . = ALIGN (0x4)
                0x40024000                __ram5_free__ = .

.ram6_init      0x00000000        0x0 load address 0x08004c44
                0x08004c44                __ram6_init_text__ = LOADADDR (.ram6_init)
                0x00000000                __ram6_init__ = .
 *(.ram6_init)
 *(.ram6_init.*)
                0x00000000                . = ALIGN (0x4)

.ram6           0x00000000        0x0 load address 0x08004c44
                0x00000000                __ram6_clear__ = .
 *(.ram6_clear)
 *(.ram6_clear.*)
                0x00000000                . = ALIGN (0x4)
                0x00000000                __ram6_noinit__ = .
 *(.ram6)
 *(.ram6.*)
                0x00000000                . = ALIGN (0x4)
                0x00000000                __ram6_free__ = .

.ram7_init      0x00000000        0x0 load address 0x08004c44
                0x08004c44                __ram7_init_text__ = LOADADDR (.ram7_init)
                0x00000000                __ram7_init__ = .
 *(.ram7_init)
 *(.ram7_init.*)
                0x00000000                . = ALIGN (0x4)

.ram7           0x00000000        0x0 load address 0x08004c44
                0x00000000                __ram7_clear__ = .
 *(.ram7_clear)
 *(.ram7_clear.*)
                0x00000000                . = ALIGN (0x4)
                0x00000000                __ram7_noinit__ = .
 *(.ram7)
 *(.ram7.*)
                0x00000000                . = ALIGN (0x4)
                0x00000000                __ram7_free__ = .

.flash0         0x08004c44        0x0
                0x08004c44                __flash0_init__ = .
 *(.flash0_init)
 *(.flash0_init.*)
                0x08004c44                __flash0_free__ = .

.flash1         0x00000000        0x0
                0x00000000                __flash1_init__ = .
 *(.flash1_init)
 *(.flash1_init.*)
                0x00000000                __flash1_free__ = .

.flash2         0x00000000        0x0
                0x00000000                __flash2_init__ = .
 *(.flash2_init)
 *(.flash2_init.*)
                0x00000000                __flash2_free__ = .

.flash3         0x00000000        0x0
                0x00000000                __flash3_init__ = .
 *(.flash3_init)
 *(.flash3_init.*)
                0x00000000                __flash3_free__ = .

.flash4         0x00000000        0x0
                0x00000000                __flash4_init__ = .
 *(.flash4_init)
 *(.flash4_init.*)
                0x00000000                __flash4_free__ = .

.flash5         0x00000000        0x0
                0x00000000                __flash5_init__ = .
 *(.flash5_init)
 *(.flash5_init.*)
                0x00000000                __flash5_free__ = .

.flash6         0x00000000        0x0
                0x00000000                __flash6_init__ = .
 *(.flash6_init)
 *(.flash6_init.*)
                0x00000000                __flash6_free__ = .

.flash7         0x00000000        0x0
                0x00000000                __flash7_init__ = .
 *(.flash7_init)
 *(.flash7_init.*)
                0x00000000                __flash7_free__ = .

.heap           0x200017ac    0x1e854
                0x200017b0                . = ALIGN (0x8)
 *fill*         0x200017ac        0x4 
                0x200017b0                __heap_base__ = .
                0x20020000                . = (ORIGIN (HEAP_RAM) + LENGTH (HEAP_RAM))
 *fill*         0x200017b0    0x1e850 
                0x20020000                __heap_end__ = .
                0x00000400                __process_stack_size__ = 0x400
                0x00000400                __main_stack_size__ = 0x400
START GROUP
LOAD c:/chibistudio/tools/gnu tools arm embedded/7.0 2017q4/bin/../lib/gcc/arm-none-eabi/7.2.1/thumb/v7e-m/fpv4-sp/hard\libgcc.a
LOAD c:/chibistudio/tools/gnu tools arm embedded/7.0 2017q4/bin/../lib/gcc/arm-none-eabi/7.2.1/../../../../arm-none-eabi/lib/thumb/v7e-m/fpv4-sp/hard\libg.a
LOAD c:/chibistudio/tools/gnu tools arm embedded/7.0 2017q4/bin/../lib/gcc/arm-none-eabi/7.2.1/../../../../arm-none-eabi/lib/thumb/v7e-m/fpv4-sp/hard\libc.a
END GROUP
OUTPUT(build/ch.elf elf32-littlearm)

.ARM.attributes
                0x00000000       0x33
 .ARM.attributes
                0x00000000       0x25 ./build/obj/crt0_v7m.o
 .ARM.attributes
                0x00000025       0x25 ./build/obj/vectors.o
 .ARM.attributes
                0x0000004a       0x25 ./build/obj/chcoreasm_v7m.o
 .ARM.attributes
                0x0000006f       0x37 C:\Users\AMANRA~1\AppData\Local\Temp\ccc7WNCX.ltrans0.ltrans.o
 .ARM.attributes
                0x000000a6       0x22 c:/chibistudio/tools/gnu tools arm embedded/7.0 2017q4/bin/../lib/gcc/arm-none-eabi/7.2.1/thumb/v7e-m/fpv4-sp/hard\libgcc.a(_arm_addsubdf3.o)
 .ARM.attributes
                0x000000c8       0x22 c:/chibistudio/tools/gnu tools arm embedded/7.0 2017q4/bin/../lib/gcc/arm-none-eabi/7.2.1/thumb/v7e-m/fpv4-sp/hard\libgcc.a(_arm_muldivdf3.o)
 .ARM.attributes
                0x000000ea       0x22 c:/chibistudio/tools/gnu tools arm embedded/7.0 2017q4/bin/../lib/gcc/arm-none-eabi/7.2.1/thumb/v7e-m/fpv4-sp/hard\libgcc.a(_arm_fixdfsi.o)
 .ARM.attributes
                0x0000010c       0x22 c:/chibistudio/tools/gnu tools arm embedded/7.0 2017q4/bin/../lib/gcc/arm-none-eabi/7.2.1/thumb/v7e-m/fpv4-sp/hard\libgcc.a(_arm_truncdfsf2.o)
 .ARM.attributes
                0x0000012e       0x20 c:/chibistudio/tools/gnu tools arm embedded/7.0 2017q4/bin/../lib/gcc/arm-none-eabi/7.2.1/../../../../arm-none-eabi/lib/thumb/v7e-m/fpv4-sp/hard\libg.a(lib_a-memcpy.o)

.comment        0x00000000       0x7e
 .comment       0x00000000       0x7e C:\Users\AMANRA~1\AppData\Local\Temp\ccc7WNCX.ltrans0.ltrans.o
                                 0x7f (size before relaxing)

.debug_line     0x00000000     0x303d
 .debug_line    0x00000000       0xdf ./build/obj/crt0_v7m.o
 .debug_line    0x000000df       0x78 ./build/obj/vectors.o
 .debug_line    0x00000157       0x8c ./build/obj/chcoreasm_v7m.o
 .debug_line    0x000001e3     0x2e5a C:\Users\AMANRA~1\AppData\Local\Temp\ccc7WNCX.ltrans0.ltrans.o

.debug_info     0x00000000     0xd6fe
 .debug_info    0x00000000       0x26 ./build/obj/crt0_v7m.o
 .debug_info    0x00000026       0x26 ./build/obj/vectors.o
 .debug_info    0x0000004c       0x26 ./build/obj/chcoreasm_v7m.o
 .debug_info    0x00000072     0xd68c C:\Users\AMANRA~1\AppData\Local\Temp\ccc7WNCX.ltrans0.ltrans.o

.debug_abbrev   0x00000000      0x857
 .debug_abbrev  0x00000000       0x14 ./build/obj/crt0_v7m.o
 .debug_abbrev  0x00000014       0x14 ./build/obj/vectors.o
 .debug_abbrev  0x00000028       0x14 ./build/obj/chcoreasm_v7m.o
 .debug_abbrev  0x0000003c      0x81b C:\Users\AMANRA~1\AppData\Local\Temp\ccc7WNCX.ltrans0.ltrans.o

.debug_aranges  0x00000000      0x3b0
 .debug_aranges
                0x00000000       0x20 ./build/obj/crt0_v7m.o
 .debug_aranges
                0x00000020       0x20 ./build/obj/vectors.o
 .debug_aranges
                0x00000040       0x20 ./build/obj/chcoreasm_v7m.o
 .debug_aranges
                0x00000060      0x350 C:\Users\AMANRA~1\AppData\Local\Temp\ccc7WNCX.ltrans0.ltrans.o

.debug_str      0x00000000     0x31dc
 .debug_str     0x00000000       0x94 ./build/obj/crt0_v7m.o
 .debug_str     0x00000094       0x43 ./build/obj/vectors.o
                                 0x93 (size before relaxing)
 .debug_str     0x000000d7       0x47 ./build/obj/chcoreasm_v7m.o
                                 0x97 (size before relaxing)
 .debug_str     0x0000011e     0x30be C:\Users\AMANRA~1\AppData\Local\Temp\ccc7WNCX.ltrans0.ltrans.o
                               0x32f7 (size before relaxing)

.debug_loc      0x00000000     0x6f70
 .debug_loc     0x00000000     0x6f70 C:\Users\AMANRA~1\AppData\Local\Temp\ccc7WNCX.ltrans0.ltrans.o

.debug_ranges   0x00000000     0x2058
 .debug_ranges  0x00000000     0x2058 C:\Users\AMANRA~1\AppData\Local\Temp\ccc7WNCX.ltrans0.ltrans.o

.debug_frame    0x00000000      0xd34
 .debug_frame   0x00000000      0xbf0 C:\Users\AMANRA~1\AppData\Local\Temp\ccc7WNCX.ltrans0.ltrans.o
 .debug_frame   0x00000bf0       0xac c:/chibistudio/tools/gnu tools arm embedded/7.0 2017q4/bin/../lib/gcc/arm-none-eabi/7.2.1/thumb/v7e-m/fpv4-sp/hard\libgcc.a(_arm_addsubdf3.o)
 .debug_frame   0x00000c9c       0x50 c:/chibistudio/tools/gnu tools arm embedded/7.0 2017q4/bin/../lib/gcc/arm-none-eabi/7.2.1/thumb/v7e-m/fpv4-sp/hard\libgcc.a(_arm_muldivdf3.o)
 .debug_frame   0x00000cec       0x24 c:/chibistudio/tools/gnu tools arm embedded/7.0 2017q4/bin/../lib/gcc/arm-none-eabi/7.2.1/thumb/v7e-m/fpv4-sp/hard\libgcc.a(_arm_fixdfsi.o)
 .debug_frame   0x00000d10       0x24 c:/chibistudio/tools/gnu tools arm embedded/7.0 2017q4/bin/../lib/gcc/arm-none-eabi/7.2.1/thumb/v7e-m/fpv4-sp/hard\libgcc.a(_arm_truncdfsf2.o)

Cross Reference Table

Symbol                                            File
BusFault_Handler                                  ./build/obj/vectors.o
DebugMon_Handler                                  ./build/obj/vectors.o
HardFault_Handler                                 ./build/obj/vectors.o
MemManage_Handler                                 ./build/obj/vectors.o
NMI_Handler                                       ./build/obj/vectors.o
PendSV_Handler                                    ./build/obj/vectors.o
ReadSR                                            ./build/obj/main.o (symbol from plugin)
Reset_Handler                                     ./build/obj/vectors.o
SD2                                               ./build/obj/hal_serial_lld.o (symbol from plugin)
SDU1                                              ./build/obj/usbcfg.o (symbol from plugin)
                                                  ./build/obj/main.o (symbol from plugin)
SPI2_Recv                                         ./build/obj/main.o (symbol from plugin)
SPI2_Send                                         ./build/obj/main.o (symbol from plugin)
SPID2                                             ./build/obj/hal_spi_lld.o (symbol from plugin)
                                                  ./build/obj/main.o (symbol from plugin)
SVC_Handler                                       C:\Users\AMANRA~1\AppData\Local\Temp\ccc7WNCX.ltrans0.ltrans.o
                                                  ./build/obj/chcore_v7m.o (symbol from plugin)
                                                  ./build/obj/vectors.o
SysTick_Handler                                   ./build/obj/vectors.o
SystemCoreClock                                   ./build/obj/hal_lld.o (symbol from plugin)
USBD1                                             ./build/obj/hal_usb_lld.o (symbol from plugin)
                                                  ./build/obj/usbcfg.o (symbol from plugin)
Uinque_ID                                         ./build/obj/main.o (symbol from plugin)
UsageFault_Handler                                ./build/obj/vectors.o
Vector100                                         ./build/obj/vectors.o
Vector104                                         ./build/obj/vectors.o
Vector108                                         ./build/obj/vectors.o
Vector10C                                         ./build/obj/vectors.o
Vector110                                         ./build/obj/vectors.o
Vector114                                         ./build/obj/vectors.o
Vector118                                         ./build/obj/vectors.o
Vector11C                                         ./build/obj/vectors.o
Vector120                                         C:\Users\AMANRA~1\AppData\Local\Temp\ccc7WNCX.ltrans0.ltrans.o
                                                  ./build/obj/stm32_dma.o (symbol from plugin)
                                                  ./build/obj/vectors.o
Vector124                                         C:\Users\AMANRA~1\AppData\Local\Temp\ccc7WNCX.ltrans0.ltrans.o
                                                  ./build/obj/stm32_dma.o (symbol from plugin)
                                                  ./build/obj/vectors.o
Vector128                                         C:\Users\AMANRA~1\AppData\Local\Temp\ccc7WNCX.ltrans0.ltrans.o
                                                  ./build/obj/stm32_dma.o (symbol from plugin)
                                                  ./build/obj/vectors.o
Vector12C                                         C:\Users\AMANRA~1\AppData\Local\Temp\ccc7WNCX.ltrans0.ltrans.o
                                                  ./build/obj/stm32_dma.o (symbol from plugin)
                                                  ./build/obj/vectors.o
Vector130                                         C:\Users\AMANRA~1\AppData\Local\Temp\ccc7WNCX.ltrans0.ltrans.o
                                                  ./build/obj/stm32_dma.o (symbol from plugin)
                                                  ./build/obj/vectors.o
Vector134                                         ./build/obj/vectors.o
Vector138                                         ./build/obj/vectors.o
Vector13C                                         ./build/obj/vectors.o
Vector140                                         ./build/obj/vectors.o
Vector144                                         ./build/obj/vectors.o
Vector148                                         ./build/obj/vectors.o
Vector14C                                         C:\Users\AMANRA~1\AppData\Local\Temp\ccc7WNCX.ltrans0.ltrans.o
                                                  ./build/obj/hal_usb_lld.o (symbol from plugin)
                                                  ./build/obj/vectors.o
Vector150                                         C:\Users\AMANRA~1\AppData\Local\Temp\ccc7WNCX.ltrans0.ltrans.o
                                                  ./build/obj/stm32_dma.o (symbol from plugin)
                                                  ./build/obj/vectors.o
Vector154                                         C:\Users\AMANRA~1\AppData\Local\Temp\ccc7WNCX.ltrans0.ltrans.o
                                                  ./build/obj/stm32_dma.o (symbol from plugin)
                                                  ./build/obj/vectors.o
Vector158                                         C:\Users\AMANRA~1\AppData\Local\Temp\ccc7WNCX.ltrans0.ltrans.o
                                                  ./build/obj/stm32_dma.o (symbol from plugin)
                                                  ./build/obj/vectors.o
Vector15C                                         ./build/obj/vectors.o
Vector160                                         ./build/obj/vectors.o
Vector164                                         ./build/obj/vectors.o
Vector168                                         ./build/obj/vectors.o
Vector16C                                         ./build/obj/vectors.o
Vector170                                         ./build/obj/vectors.o
Vector174                                         ./build/obj/vectors.o
Vector178                                         ./build/obj/vectors.o
Vector17C                                         ./build/obj/vectors.o
Vector180                                         ./build/obj/vectors.o
Vector184                                         ./build/obj/vectors.o
Vector188                                         ./build/obj/vectors.o
Vector18C                                         ./build/obj/vectors.o
Vector190                                         ./build/obj/vectors.o
Vector194                                         ./build/obj/vectors.o
Vector198                                         ./build/obj/vectors.o
Vector19C                                         ./build/obj/vectors.o
Vector1A0                                         ./build/obj/vectors.o
Vector1A4                                         ./build/obj/vectors.o
Vector1A8                                         ./build/obj/vectors.o
Vector1AC                                         ./build/obj/vectors.o
Vector1B0                                         ./build/obj/vectors.o
Vector1B4                                         ./build/obj/vectors.o
Vector1B8                                         ./build/obj/vectors.o
Vector1BC                                         ./build/obj/vectors.o
Vector1C                                          ./build/obj/vectors.o
Vector1C0                                         ./build/obj/vectors.o
Vector1C4                                         ./build/obj/vectors.o
Vector1C8                                         ./build/obj/vectors.o
Vector1CC                                         ./build/obj/vectors.o
Vector1D0                                         ./build/obj/vectors.o
Vector1D4                                         ./build/obj/vectors.o
Vector1D8                                         ./build/obj/vectors.o
Vector1DC                                         ./build/obj/vectors.o
Vector20                                          ./build/obj/vectors.o
Vector24                                          ./build/obj/vectors.o
Vector28                                          ./build/obj/vectors.o
Vector34                                          ./build/obj/vectors.o
Vector40                                          ./build/obj/vectors.o
Vector44                                          ./build/obj/vectors.o
Vector48                                          ./build/obj/vectors.o
Vector4C                                          ./build/obj/vectors.o
Vector50                                          ./build/obj/vectors.o
Vector54                                          ./build/obj/vectors.o
Vector58                                          ./build/obj/vectors.o
Vector5C                                          ./build/obj/vectors.o
Vector60                                          ./build/obj/vectors.o
Vector64                                          ./build/obj/vectors.o
Vector68                                          ./build/obj/vectors.o
Vector6C                                          C:\Users\AMANRA~1\AppData\Local\Temp\ccc7WNCX.ltrans0.ltrans.o
                                                  ./build/obj/stm32_dma.o (symbol from plugin)
                                                  ./build/obj/vectors.o
Vector70                                          C:\Users\AMANRA~1\AppData\Local\Temp\ccc7WNCX.ltrans0.ltrans.o
                                                  ./build/obj/stm32_dma.o (symbol from plugin)
                                                  ./build/obj/vectors.o
Vector74                                          C:\Users\AMANRA~1\AppData\Local\Temp\ccc7WNCX.ltrans0.ltrans.o
                                                  ./build/obj/stm32_dma.o (symbol from plugin)
                                                  ./build/obj/vectors.o
Vector78                                          C:\Users\AMANRA~1\AppData\Local\Temp\ccc7WNCX.ltrans0.ltrans.o
                                                  ./build/obj/stm32_dma.o (symbol from plugin)
                                                  ./build/obj/vectors.o
Vector7C                                          C:\Users\AMANRA~1\AppData\Local\Temp\ccc7WNCX.ltrans0.ltrans.o
                                                  ./build/obj/stm32_dma.o (symbol from plugin)
                                                  ./build/obj/vectors.o
Vector80                                          C:\Users\AMANRA~1\AppData\Local\Temp\ccc7WNCX.ltrans0.ltrans.o
                                                  ./build/obj/stm32_dma.o (symbol from plugin)
                                                  ./build/obj/vectors.o
Vector84                                          C:\Users\AMANRA~1\AppData\Local\Temp\ccc7WNCX.ltrans0.ltrans.o
                                                  ./build/obj/stm32_dma.o (symbol from plugin)
                                                  ./build/obj/vectors.o
Vector88                                          ./build/obj/vectors.o
Vector8C                                          ./build/obj/vectors.o
Vector90                                          ./build/obj/vectors.o
Vector94                                          ./build/obj/vectors.o
Vector98                                          ./build/obj/vectors.o
Vector9C                                          ./build/obj/vectors.o
VectorA0                                          ./build/obj/vectors.o
VectorA4                                          ./build/obj/vectors.o
VectorA8                                          ./build/obj/vectors.o
VectorAC                                          ./build/obj/vectors.o
VectorB0                                          C:\Users\AMANRA~1\AppData\Local\Temp\ccc7WNCX.ltrans0.ltrans.o
                                                  ./build/obj/hal_st_lld.o (symbol from plugin)
                                                  ./build/obj/vectors.o
VectorB4                                          ./build/obj/vectors.o
VectorB8                                          ./build/obj/vectors.o
VectorBC                                          ./build/obj/vectors.o
VectorC0                                          ./build/obj/vectors.o
VectorC4                                          ./build/obj/vectors.o
VectorC8                                          ./build/obj/vectors.o
VectorCC                                          ./build/obj/vectors.o
VectorD0                                          ./build/obj/vectors.o
VectorD4                                          ./build/obj/vectors.o
VectorD8                                          C:\Users\AMANRA~1\AppData\Local\Temp\ccc7WNCX.ltrans0.ltrans.o
                                                  ./build/obj/hal_serial_lld.o (symbol from plugin)
                                                  ./build/obj/vectors.o
VectorDC                                          ./build/obj/vectors.o
VectorE0                                          ./build/obj/vectors.o
VectorE4                                          ./build/obj/vectors.o
VectorE8                                          ./build/obj/vectors.o
VectorEC                                          ./build/obj/vectors.o
VectorF0                                          ./build/obj/vectors.o
VectorF4                                          ./build/obj/vectors.o
VectorF8                                          ./build/obj/vectors.o
VectorFC                                          C:\Users\AMANRA~1\AppData\Local\Temp\ccc7WNCX.ltrans0.ltrans.o
                                                  ./build/obj/stm32_dma.o (symbol from plugin)
                                                  ./build/obj/vectors.o
W25_Ini                                           ./build/obj/main.o (symbol from plugin)
W25_Read_Data                                     ./build/obj/main.o (symbol from plugin)
W25_Read_ID                                       ./build/obj/main.o (symbol from plugin)
W25_Reset                                         ./build/obj/main.o (symbol from plugin)
W25_Write_Data                                    ./build/obj/main.o (symbol from plugin)
WriteEnable_flash                                 ./build/obj/main.o (symbol from plugin)
WriteSR                                           ./build/obj/main.o (symbol from plugin)
__adddf3                                          c:/chibistudio/tools/gnu tools arm embedded/7.0 2017q4/bin/../lib/gcc/arm-none-eabi/7.2.1/thumb/v7e-m/fpv4-sp/hard\libgcc.a(_arm_addsubdf3.o)
__aeabi_d2f                                       c:/chibistudio/tools/gnu tools arm embedded/7.0 2017q4/bin/../lib/gcc/arm-none-eabi/7.2.1/thumb/v7e-m/fpv4-sp/hard\libgcc.a(_arm_truncdfsf2.o)
                                                  C:\Users\AMANRA~1\AppData\Local\Temp\ccc7WNCX.ltrans0.ltrans.o
__aeabi_d2iz                                      c:/chibistudio/tools/gnu tools arm embedded/7.0 2017q4/bin/../lib/gcc/arm-none-eabi/7.2.1/thumb/v7e-m/fpv4-sp/hard\libgcc.a(_arm_fixdfsi.o)
                                                  C:\Users\AMANRA~1\AppData\Local\Temp\ccc7WNCX.ltrans0.ltrans.o
__aeabi_dadd                                      c:/chibistudio/tools/gnu tools arm embedded/7.0 2017q4/bin/../lib/gcc/arm-none-eabi/7.2.1/thumb/v7e-m/fpv4-sp/hard\libgcc.a(_arm_addsubdf3.o)
__aeabi_ddiv                                      c:/chibistudio/tools/gnu tools arm embedded/7.0 2017q4/bin/../lib/gcc/arm-none-eabi/7.2.1/thumb/v7e-m/fpv4-sp/hard\libgcc.a(_arm_muldivdf3.o)
__aeabi_dmul                                      c:/chibistudio/tools/gnu tools arm embedded/7.0 2017q4/bin/../lib/gcc/arm-none-eabi/7.2.1/thumb/v7e-m/fpv4-sp/hard\libgcc.a(_arm_muldivdf3.o)
                                                  C:\Users\AMANRA~1\AppData\Local\Temp\ccc7WNCX.ltrans0.ltrans.o
__aeabi_drsub                                     c:/chibistudio/tools/gnu tools arm embedded/7.0 2017q4/bin/../lib/gcc/arm-none-eabi/7.2.1/thumb/v7e-m/fpv4-sp/hard\libgcc.a(_arm_addsubdf3.o)
__aeabi_dsub                                      c:/chibistudio/tools/gnu tools arm embedded/7.0 2017q4/bin/../lib/gcc/arm-none-eabi/7.2.1/thumb/v7e-m/fpv4-sp/hard\libgcc.a(_arm_addsubdf3.o)
                                                  C:\Users\AMANRA~1\AppData\Local\Temp\ccc7WNCX.ltrans0.ltrans.o
__aeabi_f2d                                       c:/chibistudio/tools/gnu tools arm embedded/7.0 2017q4/bin/../lib/gcc/arm-none-eabi/7.2.1/thumb/v7e-m/fpv4-sp/hard\libgcc.a(_arm_addsubdf3.o)
                                                  C:\Users\AMANRA~1\AppData\Local\Temp\ccc7WNCX.ltrans0.ltrans.o
__aeabi_i2d                                       c:/chibistudio/tools/gnu tools arm embedded/7.0 2017q4/bin/../lib/gcc/arm-none-eabi/7.2.1/thumb/v7e-m/fpv4-sp/hard\libgcc.a(_arm_addsubdf3.o)
                                                  C:\Users\AMANRA~1\AppData\Local\Temp\ccc7WNCX.ltrans0.ltrans.o
__aeabi_l2d                                       c:/chibistudio/tools/gnu tools arm embedded/7.0 2017q4/bin/../lib/gcc/arm-none-eabi/7.2.1/thumb/v7e-m/fpv4-sp/hard\libgcc.a(_arm_addsubdf3.o)
__aeabi_ui2d                                      c:/chibistudio/tools/gnu tools arm embedded/7.0 2017q4/bin/../lib/gcc/arm-none-eabi/7.2.1/thumb/v7e-m/fpv4-sp/hard\libgcc.a(_arm_addsubdf3.o)
                                                  C:\Users\AMANRA~1\AppData\Local\Temp\ccc7WNCX.ltrans0.ltrans.o
__aeabi_ul2d                                      c:/chibistudio/tools/gnu tools arm embedded/7.0 2017q4/bin/../lib/gcc/arm-none-eabi/7.2.1/thumb/v7e-m/fpv4-sp/hard\libgcc.a(_arm_addsubdf3.o)
__core_init                                       C:\Users\AMANRA~1\AppData\Local\Temp\ccc7WNCX.ltrans0.ltrans.o
                                                  ./build/obj/crt1.o (symbol from plugin)
                                                  ./build/obj/crt0_v7m.o
__default_exit                                    C:\Users\AMANRA~1\AppData\Local\Temp\ccc7WNCX.ltrans0.ltrans.o
                                                  ./build/obj/crt1.o (symbol from plugin)
                                                  ./build/obj/crt0_v7m.o
__divdf3                                          c:/chibistudio/tools/gnu tools arm embedded/7.0 2017q4/bin/../lib/gcc/arm-none-eabi/7.2.1/thumb/v7e-m/fpv4-sp/hard\libgcc.a(_arm_muldivdf3.o)
__early_init                                      C:\Users\AMANRA~1\AppData\Local\Temp\ccc7WNCX.ltrans0.ltrans.o
                                                  ./build/obj/board.o (symbol from plugin)
                                                  ./build/obj/crt1.o (symbol from plugin)
                                                  ./build/obj/crt0_v7m.o
__extendsfdf2                                     c:/chibistudio/tools/gnu tools arm embedded/7.0 2017q4/bin/../lib/gcc/arm-none-eabi/7.2.1/thumb/v7e-m/fpv4-sp/hard\libgcc.a(_arm_addsubdf3.o)
__fini_array_end                                  ./build/obj/crt0_v7m.o
__fini_array_start                                ./build/obj/crt0_v7m.o
__fixdfsi                                         c:/chibistudio/tools/gnu tools arm embedded/7.0 2017q4/bin/../lib/gcc/arm-none-eabi/7.2.1/thumb/v7e-m/fpv4-sp/hard\libgcc.a(_arm_fixdfsi.o)
__floatdidf                                       c:/chibistudio/tools/gnu tools arm embedded/7.0 2017q4/bin/../lib/gcc/arm-none-eabi/7.2.1/thumb/v7e-m/fpv4-sp/hard\libgcc.a(_arm_addsubdf3.o)
__floatsidf                                       c:/chibistudio/tools/gnu tools arm embedded/7.0 2017q4/bin/../lib/gcc/arm-none-eabi/7.2.1/thumb/v7e-m/fpv4-sp/hard\libgcc.a(_arm_addsubdf3.o)
__floatundidf                                     c:/chibistudio/tools/gnu tools arm embedded/7.0 2017q4/bin/../lib/gcc/arm-none-eabi/7.2.1/thumb/v7e-m/fpv4-sp/hard\libgcc.a(_arm_addsubdf3.o)
__floatunsidf                                     c:/chibistudio/tools/gnu tools arm embedded/7.0 2017q4/bin/../lib/gcc/arm-none-eabi/7.2.1/thumb/v7e-m/fpv4-sp/hard\libgcc.a(_arm_addsubdf3.o)
__heap_base__                                     C:\Users\AMANRA~1\AppData\Local\Temp\ccc7WNCX.ltrans0.ltrans.o
                                                  ./build/obj/chmemcore.o (symbol from plugin)
__heap_end__                                      C:\Users\AMANRA~1\AppData\Local\Temp\ccc7WNCX.ltrans0.ltrans.o
                                                  ./build/obj/chmemcore.o (symbol from plugin)
__init_array_end                                  ./build/obj/crt0_v7m.o
__init_array_start                                ./build/obj/crt0_v7m.o
__init_ram_areas                                  C:\Users\AMANRA~1\AppData\Local\Temp\ccc7WNCX.ltrans0.ltrans.o
                                                  ./build/obj/crt1.o (symbol from plugin)
                                                  ./build/obj/crt0_v7m.o
__late_init                                       C:\Users\AMANRA~1\AppData\Local\Temp\ccc7WNCX.ltrans0.ltrans.o
                                                  ./build/obj/crt1.o (symbol from plugin)
                                                  ./build/obj/crt0_v7m.o
__main_stack_base__                               ./build/obj/crt0_v7m.o
__main_stack_end__                                ./build/obj/vectors.o
                                                  ./build/obj/crt0_v7m.o
__muldf3                                          c:/chibistudio/tools/gnu tools arm embedded/7.0 2017q4/bin/../lib/gcc/arm-none-eabi/7.2.1/thumb/v7e-m/fpv4-sp/hard\libgcc.a(_arm_muldivdf3.o)
__process_stack_base__                            ./build/obj/crt0_v7m.o
__process_stack_end__                             ./build/obj/crt0_v7m.o
__ram0_clear__                                    C:\Users\AMANRA~1\AppData\Local\Temp\ccc7WNCX.ltrans0.ltrans.o
                                                  ./build/obj/crt1.o (symbol from plugin)
__ram0_init__                                     C:\Users\AMANRA~1\AppData\Local\Temp\ccc7WNCX.ltrans0.ltrans.o
                                                  ./build/obj/crt1.o (symbol from plugin)
__ram0_init_text__                                C:\Users\AMANRA~1\AppData\Local\Temp\ccc7WNCX.ltrans0.ltrans.o
                                                  ./build/obj/crt1.o (symbol from plugin)
__ram0_noinit__                                   C:\Users\AMANRA~1\AppData\Local\Temp\ccc7WNCX.ltrans0.ltrans.o
                                                  ./build/obj/crt1.o (symbol from plugin)
__ram1_clear__                                    C:\Users\AMANRA~1\AppData\Local\Temp\ccc7WNCX.ltrans0.ltrans.o
                                                  ./build/obj/crt1.o (symbol from plugin)
__ram1_init__                                     C:\Users\AMANRA~1\AppData\Local\Temp\ccc7WNCX.ltrans0.ltrans.o
                                                  ./build/obj/crt1.o (symbol from plugin)
__ram1_init_text__                                C:\Users\AMANRA~1\AppData\Local\Temp\ccc7WNCX.ltrans0.ltrans.o
                                                  ./build/obj/crt1.o (symbol from plugin)
__ram1_noinit__                                   C:\Users\AMANRA~1\AppData\Local\Temp\ccc7WNCX.ltrans0.ltrans.o
                                                  ./build/obj/crt1.o (symbol from plugin)
__ram2_clear__                                    C:\Users\AMANRA~1\AppData\Local\Temp\ccc7WNCX.ltrans0.ltrans.o
                                                  ./build/obj/crt1.o (symbol from plugin)
__ram2_init__                                     C:\Users\AMANRA~1\AppData\Local\Temp\ccc7WNCX.ltrans0.ltrans.o
                                                  ./build/obj/crt1.o (symbol from plugin)
__ram2_init_text__                                C:\Users\AMANRA~1\AppData\Local\Temp\ccc7WNCX.ltrans0.ltrans.o
                                                  ./build/obj/crt1.o (symbol from plugin)
__ram2_noinit__                                   C:\Users\AMANRA~1\AppData\Local\Temp\ccc7WNCX.ltrans0.ltrans.o
                                                  ./build/obj/crt1.o (symbol from plugin)
__ram3_clear__                                    C:\Users\AMANRA~1\AppData\Local\Temp\ccc7WNCX.ltrans0.ltrans.o
                                                  ./build/obj/crt1.o (symbol from plugin)
__ram3_init__                                     C:\Users\AMANRA~1\AppData\Local\Temp\ccc7WNCX.ltrans0.ltrans.o
                                                  ./build/obj/crt1.o (symbol from plugin)
__ram3_init_text__                                C:\Users\AMANRA~1\AppData\Local\Temp\ccc7WNCX.ltrans0.ltrans.o
                                                  ./build/obj/crt1.o (symbol from plugin)
__ram3_noinit__                                   C:\Users\AMANRA~1\AppData\Local\Temp\ccc7WNCX.ltrans0.ltrans.o
                                                  ./build/obj/crt1.o (symbol from plugin)
__ram4_clear__                                    C:\Users\AMANRA~1\AppData\Local\Temp\ccc7WNCX.ltrans0.ltrans.o
                                                  ./build/obj/crt1.o (symbol from plugin)
__ram4_init__                                     C:\Users\AMANRA~1\AppData\Local\Temp\ccc7WNCX.ltrans0.ltrans.o
                                                  ./build/obj/crt1.o (symbol from plugin)
__ram4_init_text__                                C:\Users\AMANRA~1\AppData\Local\Temp\ccc7WNCX.ltrans0.ltrans.o
                                                  ./build/obj/crt1.o (symbol from plugin)
__ram4_noinit__                                   C:\Users\AMANRA~1\AppData\Local\Temp\ccc7WNCX.ltrans0.ltrans.o
                                                  ./build/obj/crt1.o (symbol from plugin)
__ram5_clear__                                    C:\Users\AMANRA~1\AppData\Local\Temp\ccc7WNCX.ltrans0.ltrans.o
                                                  ./build/obj/crt1.o (symbol from plugin)
__ram5_init__                                     C:\Users\AMANRA~1\AppData\Local\Temp\ccc7WNCX.ltrans0.ltrans.o
                                                  ./build/obj/crt1.o (symbol from plugin)
__ram5_init_text__                                C:\Users\AMANRA~1\AppData\Local\Temp\ccc7WNCX.ltrans0.ltrans.o
                                                  ./build/obj/crt1.o (symbol from plugin)
__ram5_noinit__                                   C:\Users\AMANRA~1\AppData\Local\Temp\ccc7WNCX.ltrans0.ltrans.o
                                                  ./build/obj/crt1.o (symbol from plugin)
__ram6_clear__                                    C:\Users\AMANRA~1\AppData\Local\Temp\ccc7WNCX.ltrans0.ltrans.o
                                                  ./build/obj/crt1.o (symbol from plugin)
__ram6_init__                                     C:\Users\AMANRA~1\AppData\Local\Temp\ccc7WNCX.ltrans0.ltrans.o
                                                  ./build/obj/crt1.o (symbol from plugin)
__ram6_init_text__                                C:\Users\AMANRA~1\AppData\Local\Temp\ccc7WNCX.ltrans0.ltrans.o
                                                  ./build/obj/crt1.o (symbol from plugin)
__ram6_noinit__                                   C:\Users\AMANRA~1\AppData\Local\Temp\ccc7WNCX.ltrans0.ltrans.o
                                                  ./build/obj/crt1.o (symbol from plugin)
__ram7_clear__                                    C:\Users\AMANRA~1\AppData\Local\Temp\ccc7WNCX.ltrans0.ltrans.o
                                                  ./build/obj/crt1.o (symbol from plugin)
__ram7_init__                                     C:\Users\AMANRA~1\AppData\Local\Temp\ccc7WNCX.ltrans0.ltrans.o
                                                  ./build/obj/crt1.o (symbol from plugin)
__ram7_init_text__                                C:\Users\AMANRA~1\AppData\Local\Temp\ccc7WNCX.ltrans0.ltrans.o
                                                  ./build/obj/crt1.o (symbol from plugin)
__ram7_noinit__                                   C:\Users\AMANRA~1\AppData\Local\Temp\ccc7WNCX.ltrans0.ltrans.o
                                                  ./build/obj/crt1.o (symbol from plugin)
__subdf3                                          c:/chibistudio/tools/gnu tools arm embedded/7.0 2017q4/bin/../lib/gcc/arm-none-eabi/7.2.1/thumb/v7e-m/fpv4-sp/hard\libgcc.a(_arm_addsubdf3.o)
__truncdfsf2                                      c:/chibistudio/tools/gnu tools arm embedded/7.0 2017q4/bin/../lib/gcc/arm-none-eabi/7.2.1/thumb/v7e-m/fpv4-sp/hard\libgcc.a(_arm_truncdfsf2.o)
_bss_end                                          ./build/obj/crt0_v7m.o
_bss_start                                        ./build/obj/crt0_v7m.o
_core_init                                        ./build/obj/chmemcore.o (symbol from plugin)
                                                  ./build/obj/chsys.o (symbol from plugin)
_crt0_entry                                       ./build/obj/crt0_v7m.o
                                                  ./build/obj/vectors.o
_data_end                                         ./build/obj/crt0_v7m.o
_data_start                                       ./build/obj/crt0_v7m.o
_factory_init                                     ./build/obj/chfactory.o (symbol from plugin)
                                                  ./build/obj/chsys.o (symbol from plugin)
_heap_init                                        ./build/obj/chmemheaps.o (symbol from plugin)
                                                  ./build/obj/chsys.o (symbol from plugin)
_pal_lld_init                                     ./build/obj/hal_pal_lld.o (symbol from plugin)
                                                  ./build/obj/hal.o (symbol from plugin)
_pal_lld_setgroupmode                             ./build/obj/hal_pal_lld.o (symbol from plugin)
                                                  ./build/obj/main.o (symbol from plugin)
                                                  ./build/obj/hal_pal.o (symbol from plugin)
_port_exit_from_isr                               ./build/obj/chcoreasm_v7m.o
                                                  C:\Users\AMANRA~1\AppData\Local\Temp\ccc7WNCX.ltrans0.ltrans.o
                                                  ./build/obj/chcore_v7m.o (symbol from plugin)
_port_irq_epilogue                                ./build/obj/chcore_v7m.o (symbol from plugin)
                                                  ./build/obj/hal_serial_lld.o (symbol from plugin)
                                                  ./build/obj/hal_st_lld.o (symbol from plugin)
                                                  ./build/obj/hal_usb_lld.o (symbol from plugin)
                                                  ./build/obj/stm32_dma.o (symbol from plugin)
_port_switch                                      ./build/obj/chcoreasm_v7m.o
                                                  C:\Users\AMANRA~1\AppData\Local\Temp\ccc7WNCX.ltrans0.ltrans.o
                                                  ./build/obj/chschd.o (symbol from plugin)
_port_switch_from_isr                             ./build/obj/chcoreasm_v7m.o
                                                  C:\Users\AMANRA~1\AppData\Local\Temp\ccc7WNCX.ltrans0.ltrans.o
                                                  ./build/obj/chcore_v7m.o (symbol from plugin)
_port_thread_start                                ./build/obj/chcoreasm_v7m.o
                                                  C:\Users\AMANRA~1\AppData\Local\Temp\ccc7WNCX.ltrans0.ltrans.o
                                                  ./build/obj/chthreads.o (symbol from plugin)
_scheduler_init                                   ./build/obj/chschd.o (symbol from plugin)
                                                  ./build/obj/chsys.o (symbol from plugin)
_stm32_dma_streams                                ./build/obj/stm32_dma.o (symbol from plugin)
_textdata_start                                   ./build/obj/crt0_v7m.o
_thread_init                                      ./build/obj/chthreads.o (symbol from plugin)
                                                  ./build/obj/chsys.o (symbol from plugin)
_tm_init                                          ./build/obj/chtm.o (symbol from plugin)
                                                  ./build/obj/chsys.o (symbol from plugin)
_unhandled_exception                              ./build/obj/vectors.o
_usb_ep0in                                        ./build/obj/hal_usb.o (symbol from plugin)
                                                  ./build/obj/hal_usb_lld.o (symbol from plugin)
_usb_ep0out                                       ./build/obj/hal_usb.o (symbol from plugin)
                                                  ./build/obj/hal_usb_lld.o (symbol from plugin)
_usb_ep0setup                                     ./build/obj/hal_usb.o (symbol from plugin)
                                                  ./build/obj/hal_usb_lld.o (symbol from plugin)
_usb_reset                                        ./build/obj/hal_usb.o (symbol from plugin)
                                                  ./build/obj/hal_usb_lld.o (symbol from plugin)
_usb_suspend                                      ./build/obj/hal_usb.o (symbol from plugin)
                                                  ./build/obj/hal_usb_lld.o (symbol from plugin)
_usb_wakeup                                       ./build/obj/hal_usb.o (symbol from plugin)
                                                  ./build/obj/hal_usb_lld.o (symbol from plugin)
_vectors                                          ./build/obj/vectors.o
                                                  ./build/obj/crt0_v7m.o
_vt_init                                          ./build/obj/chvt.o (symbol from plugin)
                                                  ./build/obj/chsys.o (symbol from plugin)
boardInit                                         ./build/obj/board.o (symbol from plugin)
                                                  ./build/obj/hal.o (symbol from plugin)
ch                                                ./build/obj/chschd.o (symbol from plugin)
                                                  ./build/obj/main.o (symbol from plugin)
                                                  ./build/obj/chmsg.o (symbol from plugin)
                                                  ./build/obj/chevents.o (symbol from plugin)
                                                  ./build/obj/chcond.o (symbol from plugin)
                                                  ./build/obj/chmtx.o (symbol from plugin)
                                                  ./build/obj/chsem.o (symbol from plugin)
                                                  ./build/obj/chregistry.o (symbol from plugin)
                                                  ./build/obj/chtm.o (symbol from plugin)
                                                  ./build/obj/chthreads.o (symbol from plugin)
                                                  ./build/obj/chvt.o (symbol from plugin)
                                                  ./build/obj/chsys.o (symbol from plugin)
chCondBroadcast                                   ./build/obj/chcond.o (symbol from plugin)
chCondBroadcastI                                  ./build/obj/chcond.o (symbol from plugin)
chCondObjectInit                                  ./build/obj/chcond.o (symbol from plugin)
chCondSignal                                      ./build/obj/chcond.o (symbol from plugin)
chCondSignalI                                     ./build/obj/chcond.o (symbol from plugin)
chCondWait                                        ./build/obj/chcond.o (symbol from plugin)
chCondWaitS                                       ./build/obj/chcond.o (symbol from plugin)
chCondWaitTimeout                                 ./build/obj/chcond.o (symbol from plugin)
chCondWaitTimeoutS                                ./build/obj/chcond.o (symbol from plugin)
chCoreAllocAlignedWithOffset                      ./build/obj/chmemcore.o (symbol from plugin)
                                                  ./build/obj/chmemheaps.o (symbol from plugin)
chCoreAllocAlignedWithOffsetI                     ./build/obj/chmemcore.o (symbol from plugin)
                                                  ./build/obj/chfactory.o (symbol from plugin)
chCoreGetStatusX                                  ./build/obj/chmemcore.o (symbol from plugin)
chEvtAddEvents                                    ./build/obj/chevents.o (symbol from plugin)
chEvtBroadcastFlags                               ./build/obj/chevents.o (symbol from plugin)
chEvtBroadcastFlagsI                              ./build/obj/chevents.o (symbol from plugin)
                                                  ./build/obj/hal_serial_lld.o (symbol from plugin)
                                                  ./build/obj/hal_serial_usb.o (symbol from plugin)
                                                  ./build/obj/hal_serial.o (symbol from plugin)
chEvtDispatch                                     ./build/obj/chevents.o (symbol from plugin)
chEvtGetAndClearEvents                            ./build/obj/chevents.o (symbol from plugin)
chEvtGetAndClearEventsI                           ./build/obj/chevents.o (symbol from plugin)
chEvtGetAndClearFlags                             ./build/obj/chevents.o (symbol from plugin)
chEvtGetAndClearFlagsI                            ./build/obj/chevents.o (symbol from plugin)
chEvtRegisterMaskWithFlags                        ./build/obj/chevents.o (symbol from plugin)
chEvtSignal                                       ./build/obj/chevents.o (symbol from plugin)
chEvtSignalI                                      ./build/obj/chevents.o (symbol from plugin)
chEvtUnregister                                   ./build/obj/chevents.o (symbol from plugin)
chEvtWaitAll                                      ./build/obj/chevents.o (symbol from plugin)
chEvtWaitAllTimeout                               ./build/obj/chevents.o (symbol from plugin)
chEvtWaitAny                                      ./build/obj/chevents.o (symbol from plugin)
chEvtWaitAnyTimeout                               ./build/obj/chevents.o (symbol from plugin)
chEvtWaitOne                                      ./build/obj/chevents.o (symbol from plugin)
chEvtWaitOneTimeout                               ./build/obj/chevents.o (symbol from plugin)
chFactoryCreateBuffer                             ./build/obj/chfactory.o (symbol from plugin)
chFactoryCreateMailbox                            ./build/obj/chfactory.o (symbol from plugin)
chFactoryCreateObjectsFIFO                        ./build/obj/chfactory.o (symbol from plugin)
chFactoryCreatePipe                               ./build/obj/chfactory.o (symbol from plugin)
chFactoryCreateSemaphore                          ./build/obj/chfactory.o (symbol from plugin)
chFactoryFindBuffer                               ./build/obj/chfactory.o (symbol from plugin)
chFactoryFindMailbox                              ./build/obj/chfactory.o (symbol from plugin)
chFactoryFindObject                               ./build/obj/chfactory.o (symbol from plugin)
chFactoryFindObjectByPointer                      ./build/obj/chfactory.o (symbol from plugin)
chFactoryFindObjectsFIFO                          ./build/obj/chfactory.o (symbol from plugin)
chFactoryFindPipe                                 ./build/obj/chfactory.o (symbol from plugin)
chFactoryFindSemaphore                            ./build/obj/chfactory.o (symbol from plugin)
chFactoryRegisterObject                           ./build/obj/chfactory.o (symbol from plugin)
chFactoryReleaseBuffer                            ./build/obj/chfactory.o (symbol from plugin)
chFactoryReleaseMailbox                           ./build/obj/chfactory.o (symbol from plugin)
chFactoryReleaseObject                            ./build/obj/chfactory.o (symbol from plugin)
chFactoryReleaseObjectsFIFO                       ./build/obj/chfactory.o (symbol from plugin)
chFactoryReleasePipe                              ./build/obj/chfactory.o (symbol from plugin)
chFactoryReleaseSemaphore                         ./build/obj/chfactory.o (symbol from plugin)
chGuardedPoolAllocTimeout                         ./build/obj/chmempools.o (symbol from plugin)
chGuardedPoolAllocTimeoutS                        ./build/obj/chmempools.o (symbol from plugin)
chGuardedPoolFree                                 ./build/obj/chmempools.o (symbol from plugin)
chGuardedPoolLoadArray                            ./build/obj/chmempools.o (symbol from plugin)
                                                  ./build/obj/chfactory.o (symbol from plugin)
chGuardedPoolObjectInitAligned                    ./build/obj/chmempools.o (symbol from plugin)
                                                  ./build/obj/chfactory.o (symbol from plugin)
chHeapAllocAligned                                ./build/obj/chmemheaps.o (symbol from plugin)
                                                  ./build/obj/chfactory.o (symbol from plugin)
                                                  ./build/obj/chdynamic.o (symbol from plugin)
chHeapFree                                        ./build/obj/chmemheaps.o (symbol from plugin)
                                                  ./build/obj/chfactory.o (symbol from plugin)
                                                  ./build/obj/chthreads.o (symbol from plugin)
chHeapObjectInit                                  ./build/obj/chmemheaps.o (symbol from plugin)
chHeapStatus                                      ./build/obj/chmemheaps.o (symbol from plugin)
chMBFetchI                                        ./build/obj/chmboxes.o (symbol from plugin)
chMBFetchTimeout                                  ./build/obj/chmboxes.o (symbol from plugin)
chMBFetchTimeoutS                                 ./build/obj/chmboxes.o (symbol from plugin)
chMBObjectInit                                    ./build/obj/chmboxes.o (symbol from plugin)
                                                  ./build/obj/chfactory.o (symbol from plugin)
chMBPostAheadI                                    ./build/obj/chmboxes.o (symbol from plugin)
chMBPostAheadTimeout                              ./build/obj/chmboxes.o (symbol from plugin)
chMBPostAheadTimeoutS                             ./build/obj/chmboxes.o (symbol from plugin)
chMBPostI                                         ./build/obj/chmboxes.o (symbol from plugin)
chMBPostTimeout                                   ./build/obj/chmboxes.o (symbol from plugin)
chMBPostTimeoutS                                  ./build/obj/chmboxes.o (symbol from plugin)
chMBReset                                         ./build/obj/chmboxes.o (symbol from plugin)
chMBResetI                                        ./build/obj/chmboxes.o (symbol from plugin)
chMsgRelease                                      ./build/obj/chmsg.o (symbol from plugin)
chMsgSend                                         ./build/obj/chmsg.o (symbol from plugin)
chMsgWait                                         ./build/obj/chmsg.o (symbol from plugin)
chMtxLock                                         ./build/obj/chmtx.o (symbol from plugin)
                                                  ./build/obj/chfactory.o (symbol from plugin)
                                                  ./build/obj/chpipes.o (symbol from plugin)
                                                  ./build/obj/chmemheaps.o (symbol from plugin)
                                                  ./build/obj/hal_spi.o (symbol from plugin)
chMtxLockS                                        ./build/obj/chmtx.o (symbol from plugin)
                                                  ./build/obj/chcond.o (symbol from plugin)
chMtxObjectInit                                   ./build/obj/chmtx.o (symbol from plugin)
                                                  ./build/obj/chfactory.o (symbol from plugin)
                                                  ./build/obj/chpipes.o (symbol from plugin)
                                                  ./build/obj/chmemheaps.o (symbol from plugin)
                                                  ./build/obj/hal_spi.o (symbol from plugin)
chMtxTryLock                                      ./build/obj/chmtx.o (symbol from plugin)
chMtxTryLockS                                     ./build/obj/chmtx.o (symbol from plugin)
chMtxUnlock                                       ./build/obj/chmtx.o (symbol from plugin)
                                                  ./build/obj/chfactory.o (symbol from plugin)
                                                  ./build/obj/chpipes.o (symbol from plugin)
                                                  ./build/obj/chmemheaps.o (symbol from plugin)
                                                  ./build/obj/hal_spi.o (symbol from plugin)
chMtxUnlockAll                                    ./build/obj/chmtx.o (symbol from plugin)
chMtxUnlockAllS                                   ./build/obj/chmtx.o (symbol from plugin)
chMtxUnlockS                                      ./build/obj/chmtx.o (symbol from plugin)
                                                  ./build/obj/chcond.o (symbol from plugin)
chPipeObjectInit                                  ./build/obj/chpipes.o (symbol from plugin)
                                                  ./build/obj/chfactory.o (symbol from plugin)
chPipeReadTimeout                                 ./build/obj/chpipes.o (symbol from plugin)
chPipeReset                                       ./build/obj/chpipes.o (symbol from plugin)
chPipeWriteTimeout                                ./build/obj/chpipes.o (symbol from plugin)
chPoolAlloc                                       ./build/obj/chmempools.o (symbol from plugin)
                                                  ./build/obj/chfactory.o (symbol from plugin)
                                                  ./build/obj/chdynamic.o (symbol from plugin)
chPoolAllocI                                      ./build/obj/chmempools.o (symbol from plugin)
chPoolFree                                        ./build/obj/chmempools.o (symbol from plugin)
                                                  ./build/obj/chfactory.o (symbol from plugin)
                                                  ./build/obj/chthreads.o (symbol from plugin)
chPoolFreeI                                       ./build/obj/chmempools.o (symbol from plugin)
chPoolLoadArray                                   ./build/obj/chmempools.o (symbol from plugin)
chPoolObjectInitAligned                           ./build/obj/chmempools.o (symbol from plugin)
                                                  ./build/obj/chfactory.o (symbol from plugin)
chRegFindThreadByName                             ./build/obj/chregistry.o (symbol from plugin)
chRegFindThreadByPointer                          ./build/obj/chregistry.o (symbol from plugin)
chRegFindThreadByWorkingArea                      ./build/obj/chregistry.o (symbol from plugin)
chRegFirstThread                                  ./build/obj/chregistry.o (symbol from plugin)
chRegNextThread                                   ./build/obj/chregistry.o (symbol from plugin)
chSchDoReschedule                                 C:\Users\AMANRA~1\AppData\Local\Temp\ccc7WNCX.ltrans0.ltrans.o
                                                  ./build/obj/chschd.o (symbol from plugin)
                                                  ./build/obj/chcoreasm_v7m.o
chSchDoRescheduleAhead                            ./build/obj/chschd.o (symbol from plugin)
chSchDoRescheduleBehind                           ./build/obj/chschd.o (symbol from plugin)
                                                  ./build/obj/chthreads.o (symbol from plugin)
chSchGoSleepS                                     ./build/obj/chschd.o (symbol from plugin)
                                                  ./build/obj/chmsg.o (symbol from plugin)
                                                  ./build/obj/chevents.o (symbol from plugin)
                                                  ./build/obj/chcond.o (symbol from plugin)
                                                  ./build/obj/chmtx.o (symbol from plugin)
                                                  ./build/obj/chsem.o (symbol from plugin)
                                                  ./build/obj/chthreads.o (symbol from plugin)
chSchGoSleepTimeoutS                              ./build/obj/chschd.o (symbol from plugin)
                                                  ./build/obj/chevents.o (symbol from plugin)
                                                  ./build/obj/chcond.o (symbol from plugin)
                                                  ./build/obj/chsem.o (symbol from plugin)
                                                  ./build/obj/chthreads.o (symbol from plugin)
chSchIsPreemptionRequired                         ./build/obj/chschd.o (symbol from plugin)
                                                  ./build/obj/chcore_v7m.o (symbol from plugin)
chSchReadyAheadI                                  ./build/obj/chschd.o (symbol from plugin)
chSchReadyI                                       ./build/obj/chschd.o (symbol from plugin)
                                                  ./build/obj/chmsg.o (symbol from plugin)
                                                  ./build/obj/chevents.o (symbol from plugin)
                                                  ./build/obj/chcond.o (symbol from plugin)
                                                  ./build/obj/chmtx.o (symbol from plugin)
                                                  ./build/obj/chsem.o (symbol from plugin)
                                                  ./build/obj/chthreads.o (symbol from plugin)
chSchRescheduleS                                  ./build/obj/chschd.o (symbol from plugin)
                                                  ./build/obj/chpipes.o (symbol from plugin)
                                                  ./build/obj/chmempools.o (symbol from plugin)
                                                  ./build/obj/chmboxes.o (symbol from plugin)
                                                  ./build/obj/chevents.o (symbol from plugin)
                                                  ./build/obj/chcond.o (symbol from plugin)
                                                  ./build/obj/chmtx.o (symbol from plugin)
                                                  ./build/obj/chsem.o (symbol from plugin)
                                                  ./build/obj/chthreads.o (symbol from plugin)
                                                  ./build/obj/chsys.o (symbol from plugin)
                                                  ./build/obj/hal_usb.o (symbol from plugin)
                                                  ./build/obj/hal_spi.o (symbol from plugin)
                                                  ./build/obj/hal_serial_usb.o (symbol from plugin)
                                                  ./build/obj/hal_serial.o (symbol from plugin)
chSchWakeupS                                      ./build/obj/chschd.o (symbol from plugin)
                                                  ./build/obj/chdynamic.o (symbol from plugin)
                                                  ./build/obj/chmsg.o (symbol from plugin)
                                                  ./build/obj/chcond.o (symbol from plugin)
                                                  ./build/obj/chsem.o (symbol from plugin)
                                                  ./build/obj/chthreads.o (symbol from plugin)
chSemAddCounterI                                  ./build/obj/chsem.o (symbol from plugin)
chSemObjectInit                                   ./build/obj/chsem.o (symbol from plugin)
                                                  ./build/obj/chfactory.o (symbol from plugin)
                                                  ./build/obj/chmempools.o (symbol from plugin)
chSemReset                                        ./build/obj/chsem.o (symbol from plugin)
chSemResetI                                       ./build/obj/chsem.o (symbol from plugin)
chSemSignal                                       ./build/obj/chsem.o (symbol from plugin)
chSemSignalI                                      ./build/obj/chsem.o (symbol from plugin)
                                                  ./build/obj/chmempools.o (symbol from plugin)
chSemSignalWait                                   ./build/obj/chsem.o (symbol from plugin)
chSemWait                                         ./build/obj/chsem.o (symbol from plugin)
chSemWaitS                                        ./build/obj/chsem.o (symbol from plugin)
chSemWaitTimeout                                  ./build/obj/chsem.o (symbol from plugin)
chSemWaitTimeoutS                                 ./build/obj/chsem.o (symbol from plugin)
                                                  ./build/obj/chmempools.o (symbol from plugin)
chSysGetStatusAndLockX                            ./build/obj/chsys.o (symbol from plugin)
chSysHalt                                         ./build/obj/chsys.o (symbol from plugin)
                                                  ./build/obj/hal_spi_lld.o (symbol from plugin)
chSysInit                                         ./build/obj/chsys.o (symbol from plugin)
                                                  ./build/obj/main.o (symbol from plugin)
chSysIntegrityCheckI                              ./build/obj/chsys.o (symbol from plugin)
chSysIsCounterWithinX                             ./build/obj/chsys.o (symbol from plugin)
chSysPolledDelayX                                 ./build/obj/chsys.o (symbol from plugin)
                                                  ./build/obj/hal_usb_lld.o (symbol from plugin)
chSysRestoreStatusX                               ./build/obj/chsys.o (symbol from plugin)
chSysTimerHandlerI                                ./build/obj/chsys.o (symbol from plugin)
                                                  ./build/obj/hal_st_lld.o (symbol from plugin)
chTMChainMeasurementToX                           ./build/obj/chtm.o (symbol from plugin)
chTMObjectInit                                    ./build/obj/chtm.o (symbol from plugin)
chTMStartMeasurementX                             ./build/obj/chtm.o (symbol from plugin)
chTMStopMeasurementX                              ./build/obj/chtm.o (symbol from plugin)
chThdAddRef                                       ./build/obj/chthreads.o (symbol from plugin)
chThdCreate                                       ./build/obj/chthreads.o (symbol from plugin)
                                                  ./build/obj/chsys.o (symbol from plugin)
chThdCreateFromHeap                               ./build/obj/chdynamic.o (symbol from plugin)
chThdCreateFromMemoryPool                         ./build/obj/chdynamic.o (symbol from plugin)
chThdCreateI                                      ./build/obj/chthreads.o (symbol from plugin)
chThdCreateStatic                                 ./build/obj/chthreads.o (symbol from plugin)
                                                  ./build/obj/main.o (symbol from plugin)
chThdCreateSuspended                              ./build/obj/chthreads.o (symbol from plugin)
chThdCreateSuspendedI                             ./build/obj/chthreads.o (symbol from plugin)
                                                  ./build/obj/chdynamic.o (symbol from plugin)
chThdDequeueAllI                                  ./build/obj/chthreads.o (symbol from plugin)
                                                  ./build/obj/chmboxes.o (symbol from plugin)
                                                  ./build/obj/hal_serial_usb.o (symbol from plugin)
                                                  ./build/obj/hal_queues.o (symbol from plugin)
                                                  ./build/obj/hal_buffers.o (symbol from plugin)
chThdDequeueNextI                                 ./build/obj/chthreads.o (symbol from plugin)
                                                  ./build/obj/chmboxes.o (symbol from plugin)
                                                  ./build/obj/hal_queues.o (symbol from plugin)
                                                  ./build/obj/hal_buffers.o (symbol from plugin)
chThdEnqueueTimeoutS                              ./build/obj/chthreads.o (symbol from plugin)
                                                  ./build/obj/chmboxes.o (symbol from plugin)
                                                  ./build/obj/hal_queues.o (symbol from plugin)
                                                  ./build/obj/hal_buffers.o (symbol from plugin)
chThdExit                                         C:\Users\AMANRA~1\AppData\Local\Temp\ccc7WNCX.ltrans0.ltrans.o
                                                  ./build/obj/chthreads.o (symbol from plugin)
                                                  ./build/obj/chcoreasm_v7m.o
chThdExitS                                        ./build/obj/chthreads.o (symbol from plugin)
chThdRelease                                      ./build/obj/chthreads.o (symbol from plugin)
                                                  ./build/obj/chregistry.o (symbol from plugin)
chThdResume                                       ./build/obj/chthreads.o (symbol from plugin)
                                                  ./build/obj/chpipes.o (symbol from plugin)
chThdResumeI                                      ./build/obj/chthreads.o (symbol from plugin)
                                                  ./build/obj/chpipes.o (symbol from plugin)
                                                  ./build/obj/hal_spi_lld.o (symbol from plugin)
                                                  ./build/obj/hal_spi.o (symbol from plugin)
chThdResumeS                                      ./build/obj/chthreads.o (symbol from plugin)
chThdSetPriority                                  ./build/obj/chthreads.o (symbol from plugin)
chThdSleep                                        ./build/obj/chthreads.o (symbol from plugin)
                                                  ./build/obj/main.o (symbol from plugin)
                                                  ./build/obj/lis302dl.o (symbol from plugin)
                                                  ./build/obj/hal_usb.o (symbol from plugin)
chThdSleepUntil                                   ./build/obj/chthreads.o (symbol from plugin)
chThdSleepUntilWindowed                           ./build/obj/chthreads.o (symbol from plugin)
chThdStart                                        ./build/obj/chthreads.o (symbol from plugin)
chThdSuspendS                                     ./build/obj/chthreads.o (symbol from plugin)
chThdSuspendTimeoutS                              ./build/obj/chthreads.o (symbol from plugin)
                                                  ./build/obj/chpipes.o (symbol from plugin)
                                                  ./build/obj/hal_spi.o (symbol from plugin)
chThdTerminate                                    ./build/obj/chthreads.o (symbol from plugin)
chThdWait                                         ./build/obj/chthreads.o (symbol from plugin)
chThdYield                                        ./build/obj/chthreads.o (symbol from plugin)
chVTDoResetI                                      ./build/obj/chvt.o (symbol from plugin)
                                                  ./build/obj/chschd.o (symbol from plugin)
chVTDoSetI                                        ./build/obj/chvt.o (symbol from plugin)
                                                  ./build/obj/chschd.o (symbol from plugin)
ch_debug                                          ./build/obj/chregistry.o (symbol from plugin)
                                                  ./build/obj/chsys.o (symbol from plugin)
ch_factory                                        ./build/obj/chfactory.o (symbol from plugin)
ch_idle_thread_wa                                 ./build/obj/chsys.o (symbol from plugin)
ch_memcore                                        ./build/obj/chmemcore.o (symbol from plugin)
chip_erase                                        ./build/obj/main.o (symbol from plugin)
chprintf                                          ./build/obj/chprintf.o (symbol from plugin)
                                                  ./build/obj/main.o (symbol from plugin)
chsnprintf                                        ./build/obj/chprintf.o (symbol from plugin)
chvprintf                                         ./build/obj/chprintf.o (symbol from plugin)
chvsnprintf                                       ./build/obj/chprintf.o (symbol from plugin)
dmaInit                                           ./build/obj/stm32_dma.o (symbol from plugin)
                                                  ./build/obj/hal_lld.o (symbol from plugin)
dmaStreamAlloc                                    ./build/obj/stm32_dma.o (symbol from plugin)
dmaStreamAllocI                                   ./build/obj/stm32_dma.o (symbol from plugin)
                                                  ./build/obj/hal_spi_lld.o (symbol from plugin)
dmaStreamFree                                     ./build/obj/stm32_dma.o (symbol from plugin)
dmaStreamFreeI                                    ./build/obj/stm32_dma.o (symbol from plugin)
                                                  ./build/obj/hal_spi_lld.o (symbol from plugin)
erase_sector32KB                                  ./build/obj/main.o (symbol from plugin)
erase_sector4KB                                   ./build/obj/main.o (symbol from plugin)
erase_sector64KB                                  ./build/obj/main.o (symbol from plugin)
halInit                                           ./build/obj/hal.o (symbol from plugin)
                                                  ./build/obj/main.o (symbol from plugin)
hal_lld_init                                      ./build/obj/hal_lld.o (symbol from plugin)
                                                  ./build/obj/hal.o (symbol from plugin)
ibqGetEmptyBufferI                                ./build/obj/hal_buffers.o (symbol from plugin)
                                                  ./build/obj/hal_serial_usb.o (symbol from plugin)
ibqGetFullBufferTimeout                           ./build/obj/hal_buffers.o (symbol from plugin)
ibqGetFullBufferTimeoutS                          ./build/obj/hal_buffers.o (symbol from plugin)
ibqGetTimeout                                     ./build/obj/hal_buffers.o (symbol from plugin)
                                                  ./build/obj/hal_serial_usb.o (symbol from plugin)
ibqObjectInit                                     ./build/obj/hal_buffers.o (symbol from plugin)
                                                  ./build/obj/hal_serial_usb.o (symbol from plugin)
ibqPostFullBufferI                                ./build/obj/hal_buffers.o (symbol from plugin)
                                                  ./build/obj/hal_serial_usb.o (symbol from plugin)
ibqReadTimeout                                    ./build/obj/hal_buffers.o (symbol from plugin)
                                                  ./build/obj/hal_serial_usb.o (symbol from plugin)
ibqReleaseEmptyBuffer                             ./build/obj/hal_buffers.o (symbol from plugin)
ibqReleaseEmptyBufferS                            ./build/obj/hal_buffers.o (symbol from plugin)
ibqResetI                                         ./build/obj/hal_buffers.o (symbol from plugin)
                                                  ./build/obj/hal_serial_usb.o (symbol from plugin)
iqGetI                                            ./build/obj/hal_queues.o (symbol from plugin)
iqGetTimeout                                      ./build/obj/hal_queues.o (symbol from plugin)
                                                  ./build/obj/hal_serial.o (symbol from plugin)
iqObjectInit                                      ./build/obj/hal_queues.o (symbol from plugin)
                                                  ./build/obj/hal_serial.o (symbol from plugin)
iqPutI                                            ./build/obj/hal_queues.o (symbol from plugin)
                                                  ./build/obj/hal_serial.o (symbol from plugin)
iqReadI                                           ./build/obj/hal_queues.o (symbol from plugin)
iqReadTimeout                                     ./build/obj/hal_queues.o (symbol from plugin)
                                                  ./build/obj/hal_serial.o (symbol from plugin)
iqResetI                                          ./build/obj/hal_queues.o (symbol from plugin)
                                                  ./build/obj/hal_serial.o (symbol from plugin)
irqDeinit                                         ./build/obj/stm32_isr.o (symbol from plugin)
irqInit                                           ./build/obj/stm32_isr.o (symbol from plugin)
                                                  ./build/obj/hal_lld.o (symbol from plugin)
lis302dlObjectInit                                ./build/obj/lis302dl.o (symbol from plugin)
lis302dlStart                                     ./build/obj/lis302dl.o (symbol from plugin)
lis302dlStop                                      ./build/obj/lis302dl.o (symbol from plugin)
main                                              C:\Users\AMANRA~1\AppData\Local\Temp\ccc7WNCX.ltrans0.ltrans.o
                                                  ./build/obj/main.o (symbol from plugin)
                                                  ./build/obj/crt0_v7m.o
memcpy                                            c:/chibistudio/tools/gnu tools arm embedded/7.0 2017q4/bin/../lib/gcc/arm-none-eabi/7.2.1/../../../../arm-none-eabi/lib/thumb/v7e-m/fpv4-sp/hard\libg.a(lib_a-memcpy.o)
                                                  C:\Users\AMANRA~1\AppData\Local\Temp\ccc7WNCX.ltrans0.ltrans.o
msObjectInit                                      ./build/obj/memstreams.o (symbol from plugin)
                                                  ./build/obj/chprintf.o (symbol from plugin)
nullObjectInit                                    ./build/obj/nullstreams.o (symbol from plugin)
nvicClearPending                                  ./build/obj/nvic.o (symbol from plugin)
nvicDisableVector                                 ./build/obj/nvic.o (symbol from plugin)
                                                  ./build/obj/hal_serial_lld.o (symbol from plugin)
                                                  ./build/obj/hal_usb_lld.o (symbol from plugin)
                                                  ./build/obj/stm32_dma.o (symbol from plugin)
                                                  ./build/obj/stm32_isr.o (symbol from plugin)
nvicEnableVector                                  ./build/obj/nvic.o (symbol from plugin)
                                                  ./build/obj/hal_serial_lld.o (symbol from plugin)
                                                  ./build/obj/hal_st_lld.o (symbol from plugin)
                                                  ./build/obj/hal_usb_lld.o (symbol from plugin)
                                                  ./build/obj/stm32_dma.o (symbol from plugin)
                                                  ./build/obj/stm32_isr.o (symbol from plugin)
nvicSetSystemHandlerPriority                      ./build/obj/nvic.o (symbol from plugin)
obqFlush                                          ./build/obj/hal_buffers.o (symbol from plugin)
obqGetEmptyBufferTimeout                          ./build/obj/hal_buffers.o (symbol from plugin)
obqGetEmptyBufferTimeoutS                         ./build/obj/hal_buffers.o (symbol from plugin)
obqGetFullBufferI                                 ./build/obj/hal_buffers.o (symbol from plugin)
                                                  ./build/obj/hal_serial_usb.o (symbol from plugin)
obqObjectInit                                     ./build/obj/hal_buffers.o (symbol from plugin)
                                                  ./build/obj/hal_serial_usb.o (symbol from plugin)
obqPostFullBuffer                                 ./build/obj/hal_buffers.o (symbol from plugin)
obqPostFullBufferS                                ./build/obj/hal_buffers.o (symbol from plugin)
obqPutTimeout                                     ./build/obj/hal_buffers.o (symbol from plugin)
                                                  ./build/obj/hal_serial_usb.o (symbol from plugin)
obqReleaseEmptyBufferI                            ./build/obj/hal_buffers.o (symbol from plugin)
                                                  ./build/obj/hal_serial_usb.o (symbol from plugin)
obqResetI                                         ./build/obj/hal_buffers.o (symbol from plugin)
                                                  ./build/obj/hal_serial_usb.o (symbol from plugin)
obqTryFlushI                                      ./build/obj/hal_buffers.o (symbol from plugin)
                                                  ./build/obj/hal_serial_usb.o (symbol from plugin)
obqWriteTimeout                                   ./build/obj/hal_buffers.o (symbol from plugin)
                                                  ./build/obj/hal_serial_usb.o (symbol from plugin)
oqGetI                                            ./build/obj/hal_queues.o (symbol from plugin)
                                                  ./build/obj/hal_serial_lld.o (symbol from plugin)
                                                  ./build/obj/hal_serial.o (symbol from plugin)
oqObjectInit                                      ./build/obj/hal_queues.o (symbol from plugin)
                                                  ./build/obj/hal_serial.o (symbol from plugin)
oqPutI                                            ./build/obj/hal_queues.o (symbol from plugin)
oqPutTimeout                                      ./build/obj/hal_queues.o (symbol from plugin)
                                                  ./build/obj/hal_serial.o (symbol from plugin)
oqResetI                                          ./build/obj/hal_queues.o (symbol from plugin)
                                                  ./build/obj/hal_serial.o (symbol from plugin)
oqWriteI                                          ./build/obj/hal_queues.o (symbol from plugin)
oqWriteTimeout                                    ./build/obj/hal_queues.o (symbol from plugin)
                                                  ./build/obj/hal_serial.o (symbol from plugin)
palReadBus                                        ./build/obj/hal_pal.o (symbol from plugin)
palSetBusMode                                     ./build/obj/hal_pal.o (symbol from plugin)
palWriteBus                                       ./build/obj/hal_pal.o (symbol from plugin)
receivedata                                       ./build/obj/main.o (symbol from plugin)
rx_buf                                            ./build/obj/main.o (symbol from plugin)
sdControl                                         ./build/obj/hal_serial.o (symbol from plugin)
sdGetWouldBlock                                   ./build/obj/hal_serial.o (symbol from plugin)
sdIncomingDataI                                   ./build/obj/hal_serial.o (symbol from plugin)
                                                  ./build/obj/hal_serial_lld.o (symbol from plugin)
sdInit                                            ./build/obj/hal_serial.o (symbol from plugin)
                                                  ./build/obj/hal.o (symbol from plugin)
sdObjectInit                                      ./build/obj/hal_serial.o (symbol from plugin)
                                                  ./build/obj/hal_serial_lld.o (symbol from plugin)
sdPutWouldBlock                                   ./build/obj/hal_serial.o (symbol from plugin)
sdRequestDataI                                    ./build/obj/hal_serial.o (symbol from plugin)
sdStart                                           ./build/obj/hal_serial.o (symbol from plugin)
sdStop                                            ./build/obj/hal_serial.o (symbol from plugin)
sd_lld_init                                       ./build/obj/hal_serial_lld.o (symbol from plugin)
                                                  ./build/obj/hal_serial.o (symbol from plugin)
sd_lld_start                                      ./build/obj/hal_serial_lld.o (symbol from plugin)
                                                  ./build/obj/hal_serial.o (symbol from plugin)
sd_lld_stop                                       ./build/obj/hal_serial_lld.o (symbol from plugin)
                                                  ./build/obj/hal_serial.o (symbol from plugin)
sduConfigureHookI                                 ./build/obj/hal_serial_usb.o (symbol from plugin)
                                                  ./build/obj/usbcfg.o (symbol from plugin)
sduControl                                        ./build/obj/hal_serial_usb.o (symbol from plugin)
sduDataReceived                                   ./build/obj/hal_serial_usb.o (symbol from plugin)
                                                  ./build/obj/usbcfg.o (symbol from plugin)
sduDataTransmitted                                ./build/obj/hal_serial_usb.o (symbol from plugin)
                                                  ./build/obj/usbcfg.o (symbol from plugin)
sduInit                                           ./build/obj/hal_serial_usb.o (symbol from plugin)
                                                  ./build/obj/hal.o (symbol from plugin)
sduInterruptTransmitted                           ./build/obj/hal_serial_usb.o (symbol from plugin)
                                                  ./build/obj/usbcfg.o (symbol from plugin)
sduObjectInit                                     ./build/obj/hal_serial_usb.o (symbol from plugin)
                                                  ./build/obj/main.o (symbol from plugin)
sduRequestsHook                                   ./build/obj/hal_serial_usb.o (symbol from plugin)
                                                  ./build/obj/usbcfg.o (symbol from plugin)
sduSOFHookI                                       ./build/obj/hal_serial_usb.o (symbol from plugin)
                                                  ./build/obj/usbcfg.o (symbol from plugin)
sduStart                                          ./build/obj/hal_serial_usb.o (symbol from plugin)
                                                  ./build/obj/main.o (symbol from plugin)
sduStop                                           ./build/obj/hal_serial_usb.o (symbol from plugin)
sduSuspendHookI                                   ./build/obj/hal_serial_usb.o (symbol from plugin)
                                                  ./build/obj/usbcfg.o (symbol from plugin)
sduWakeupHookI                                    ./build/obj/hal_serial_usb.o (symbol from plugin)
                                                  ./build/obj/usbcfg.o (symbol from plugin)
serusbcfg                                         ./build/obj/usbcfg.o (symbol from plugin)
                                                  ./build/obj/main.o (symbol from plugin)
spiAbort                                          ./build/obj/hal_spi.o (symbol from plugin)
spiAbortI                                         ./build/obj/hal_spi.o (symbol from plugin)
spiAcquireBus                                     ./build/obj/hal_spi.o (symbol from plugin)
                                                  ./build/obj/main.o (symbol from plugin)
spiExchange                                       ./build/obj/hal_spi.o (symbol from plugin)
spiIgnore                                         ./build/obj/hal_spi.o (symbol from plugin)
spiInit                                           ./build/obj/hal_spi.o (symbol from plugin)
                                                  ./build/obj/hal.o (symbol from plugin)
spiObjectInit                                     ./build/obj/hal_spi.o (symbol from plugin)
                                                  ./build/obj/hal_spi_lld.o (symbol from plugin)
spiReceive                                        ./build/obj/hal_spi.o (symbol from plugin)
                                                  ./build/obj/main.o (symbol from plugin)
                                                  ./build/obj/lis302dl.o (symbol from plugin)
spiReleaseBus                                     ./build/obj/hal_spi.o (symbol from plugin)
                                                  ./build/obj/main.o (symbol from plugin)
spiSelect                                         ./build/obj/hal_spi.o (symbol from plugin)
                                                  ./build/obj/lis302dl.o (symbol from plugin)
spiSend                                           ./build/obj/hal_spi.o (symbol from plugin)
                                                  ./build/obj/main.o (symbol from plugin)
                                                  ./build/obj/lis302dl.o (symbol from plugin)
spiStart                                          ./build/obj/hal_spi.o (symbol from plugin)
                                                  ./build/obj/main.o (symbol from plugin)
                                                  ./build/obj/lis302dl.o (symbol from plugin)
spiStartExchange                                  ./build/obj/hal_spi.o (symbol from plugin)
spiStartIgnore                                    ./build/obj/hal_spi.o (symbol from plugin)
spiStartReceive                                   ./build/obj/hal_spi.o (symbol from plugin)
spiStartSend                                      ./build/obj/hal_spi.o (symbol from plugin)
spiStop                                           ./build/obj/hal_spi.o (symbol from plugin)
                                                  ./build/obj/lis302dl.o (symbol from plugin)
spiUnselect                                       ./build/obj/hal_spi.o (symbol from plugin)
                                                  ./build/obj/lis302dl.o (symbol from plugin)
spi_lld_abort                                     ./build/obj/hal_spi_lld.o (symbol from plugin)
                                                  ./build/obj/hal_spi.o (symbol from plugin)
spi_lld_exchange                                  ./build/obj/hal_spi_lld.o (symbol from plugin)
                                                  ./build/obj/hal_spi.o (symbol from plugin)
spi_lld_ignore                                    ./build/obj/hal_spi_lld.o (symbol from plugin)
                                                  ./build/obj/hal_spi.o (symbol from plugin)
spi_lld_init                                      ./build/obj/hal_spi_lld.o (symbol from plugin)
                                                  ./build/obj/hal_spi.o (symbol from plugin)
spi_lld_polled_exchange                           ./build/obj/hal_spi_lld.o (symbol from plugin)
spi_lld_receive                                   ./build/obj/hal_spi_lld.o (symbol from plugin)
                                                  ./build/obj/hal_spi.o (symbol from plugin)
spi_lld_send                                      ./build/obj/hal_spi_lld.o (symbol from plugin)
                                                  ./build/obj/hal_spi.o (symbol from plugin)
spi_lld_start                                     ./build/obj/hal_spi_lld.o (symbol from plugin)
                                                  ./build/obj/hal_spi.o (symbol from plugin)
spi_lld_stop                                      ./build/obj/hal_spi_lld.o (symbol from plugin)
                                                  ./build/obj/hal_spi.o (symbol from plugin)
stGetAlarm                                        ./build/obj/hal_st.o (symbol from plugin)
stInit                                            ./build/obj/hal_st.o (symbol from plugin)
                                                  ./build/obj/hal.o (symbol from plugin)
stSetAlarm                                        ./build/obj/hal_st.o (symbol from plugin)
                                                  ./build/obj/chvt.o (symbol from plugin)
                                                  ./build/obj/chsys.o (symbol from plugin)
stStartAlarm                                      ./build/obj/hal_st.o (symbol from plugin)
                                                  ./build/obj/chvt.o (symbol from plugin)
stStopAlarm                                       ./build/obj/hal_st.o (symbol from plugin)
                                                  ./build/obj/chvt.o (symbol from plugin)
                                                  ./build/obj/chsys.o (symbol from plugin)
st_lld_init                                       ./build/obj/hal_st_lld.o (symbol from plugin)
                                                  ./build/obj/hal_st.o (symbol from plugin)
stm32_clock_init                                  ./build/obj/hal_lld.o (symbol from plugin)
                                                  ./build/obj/board.o (symbol from plugin)
tran_buff                                         ./build/obj/main.o (symbol from plugin)
tx_buf                                            ./build/obj/main.o (symbol from plugin)
usbDisableEndpointsI                              ./build/obj/hal_usb.o (symbol from plugin)
usbInit                                           ./build/obj/hal_usb.o (symbol from plugin)
                                                  ./build/obj/hal.o (symbol from plugin)
usbInitEndpointI                                  ./build/obj/hal_usb.o (symbol from plugin)
                                                  ./build/obj/usbcfg.o (symbol from plugin)
usbObjectInit                                     ./build/obj/hal_usb.o (symbol from plugin)
                                                  ./build/obj/hal_usb_lld.o (symbol from plugin)
usbStallReceiveI                                  ./build/obj/hal_usb.o (symbol from plugin)
usbStallTransmitI                                 ./build/obj/hal_usb.o (symbol from plugin)
usbStart                                          ./build/obj/hal_usb.o (symbol from plugin)
                                                  ./build/obj/main.o (symbol from plugin)
usbStartReceiveI                                  ./build/obj/hal_usb.o (symbol from plugin)
                                                  ./build/obj/hal_serial_usb.o (symbol from plugin)
usbStartTransmitI                                 ./build/obj/hal_usb.o (symbol from plugin)
                                                  ./build/obj/hal_serial_usb.o (symbol from plugin)
usbStop                                           ./build/obj/hal_usb.o (symbol from plugin)
usbWakeupHost                                     ./build/obj/hal_usb.o (symbol from plugin)
usb_lld_clear_in                                  ./build/obj/hal_usb_lld.o (symbol from plugin)
                                                  ./build/obj/hal_usb.o (symbol from plugin)
usb_lld_clear_out                                 ./build/obj/hal_usb_lld.o (symbol from plugin)
                                                  ./build/obj/hal_usb.o (symbol from plugin)
usb_lld_disable_endpoints                         ./build/obj/hal_usb_lld.o (symbol from plugin)
                                                  ./build/obj/hal_usb.o (symbol from plugin)
usb_lld_get_status_in                             ./build/obj/hal_usb_lld.o (symbol from plugin)
                                                  ./build/obj/hal_usb.o (symbol from plugin)
usb_lld_get_status_out                            ./build/obj/hal_usb_lld.o (symbol from plugin)
                                                  ./build/obj/hal_usb.o (symbol from plugin)
usb_lld_init                                      ./build/obj/hal_usb_lld.o (symbol from plugin)
                                                  ./build/obj/hal_usb.o (symbol from plugin)
usb_lld_init_endpoint                             ./build/obj/hal_usb_lld.o (symbol from plugin)
                                                  ./build/obj/hal_usb.o (symbol from plugin)
usb_lld_read_setup                                ./build/obj/hal_usb_lld.o (symbol from plugin)
                                                  ./build/obj/hal_usb.o (symbol from plugin)
usb_lld_reset                                     ./build/obj/hal_usb_lld.o (symbol from plugin)
                                                  ./build/obj/hal_usb.o (symbol from plugin)
usb_lld_set_address                               ./build/obj/hal_usb_lld.o (symbol from plugin)
                                                  ./build/obj/hal_usb.o (symbol from plugin)
usb_lld_stall_in                                  ./build/obj/hal_usb_lld.o (symbol from plugin)
                                                  ./build/obj/hal_usb.o (symbol from plugin)
usb_lld_stall_out                                 ./build/obj/hal_usb_lld.o (symbol from plugin)
                                                  ./build/obj/hal_usb.o (symbol from plugin)
usb_lld_start                                     ./build/obj/hal_usb_lld.o (symbol from plugin)
                                                  ./build/obj/hal_usb.o (symbol from plugin)
usb_lld_start_in                                  ./build/obj/hal_usb_lld.o (symbol from plugin)
                                                  ./build/obj/hal_usb.o (symbol from plugin)
usb_lld_start_out                                 ./build/obj/hal_usb_lld.o (symbol from plugin)
                                                  ./build/obj/hal_usb.o (symbol from plugin)
usb_lld_stop                                      ./build/obj/hal_usb_lld.o (symbol from plugin)
                                                  ./build/obj/hal_usb.o (symbol from plugin)
usbcfg                                            ./build/obj/usbcfg.o (symbol from plugin)
                                                  ./build/obj/main.o (symbol from plugin)
x                                                 ./build/obj/main.o (symbol from plugin)
y                                                 ./build/obj/main.o (symbol from plugin)
z                                                 ./build/obj/main.o (symbol from plugin)
